{
	"Fundraising_flat.sol": {
		"Fundraising": {
			"abi": [
				{
					"inputs": [
						{
							"internalType": "uint256",
							"name": "amount",
							"type": "uint256"
						},
						{
							"internalType": "string",
							"name": "name",
							"type": "string"
						},
						{
							"internalType": "string",
							"name": "symbol",
							"type": "string"
						},
						{
							"internalType": "uint256",
							"name": "_dataAccessThreshold",
							"type": "uint256"
						},
						{
							"internalType": "address",
							"name": "_admin",
							"type": "address"
						},
						{
							"internalType": "address",
							"name": "coinAddress",
							"type": "address"
						}
					],
					"stateMutability": "nonpayable",
					"type": "constructor"
				},
				{
					"anonymous": false,
					"inputs": [
						{
							"indexed": true,
							"internalType": "address",
							"name": "owner",
							"type": "address"
						},
						{
							"indexed": true,
							"internalType": "address",
							"name": "spender",
							"type": "address"
						},
						{
							"indexed": false,
							"internalType": "uint256",
							"name": "value",
							"type": "uint256"
						}
					],
					"name": "Approval",
					"type": "event"
				},
				{
					"anonymous": false,
					"inputs": [
						{
							"indexed": true,
							"internalType": "address",
							"name": "from",
							"type": "address"
						},
						{
							"indexed": true,
							"internalType": "address",
							"name": "to",
							"type": "address"
						},
						{
							"indexed": false,
							"internalType": "uint256",
							"name": "value",
							"type": "uint256"
						}
					],
					"name": "Transfer",
					"type": "event"
				},
				{
					"inputs": [],
					"name": "_paused",
					"outputs": [
						{
							"internalType": "bool",
							"name": "",
							"type": "bool"
						}
					],
					"stateMutability": "view",
					"type": "function"
				},
				{
					"inputs": [
						{
							"internalType": "address",
							"name": "owner",
							"type": "address"
						},
						{
							"internalType": "address",
							"name": "spender",
							"type": "address"
						}
					],
					"name": "allowance",
					"outputs": [
						{
							"internalType": "uint256",
							"name": "",
							"type": "uint256"
						}
					],
					"stateMutability": "view",
					"type": "function"
				},
				{
					"inputs": [],
					"name": "amountRaised",
					"outputs": [
						{
							"internalType": "uint256",
							"name": "",
							"type": "uint256"
						}
					],
					"stateMutability": "view",
					"type": "function"
				},
				{
					"inputs": [],
					"name": "amountUntilReachTarget",
					"outputs": [
						{
							"internalType": "uint256",
							"name": "",
							"type": "uint256"
						}
					],
					"stateMutability": "view",
					"type": "function"
				},
				{
					"inputs": [
						{
							"internalType": "address",
							"name": "spender",
							"type": "address"
						},
						{
							"internalType": "uint256",
							"name": "amount",
							"type": "uint256"
						}
					],
					"name": "approve",
					"outputs": [
						{
							"internalType": "bool",
							"name": "",
							"type": "bool"
						}
					],
					"stateMutability": "nonpayable",
					"type": "function"
				},
				{
					"inputs": [
						{
							"internalType": "address",
							"name": "account",
							"type": "address"
						}
					],
					"name": "balanceOf",
					"outputs": [
						{
							"internalType": "uint256",
							"name": "",
							"type": "uint256"
						}
					],
					"stateMutability": "view",
					"type": "function"
				},
				{
					"inputs": [],
					"name": "coin",
					"outputs": [
						{
							"internalType": "contract IERC20",
							"name": "",
							"type": "address"
						}
					],
					"stateMutability": "view",
					"type": "function"
				},
				{
					"inputs": [],
					"name": "dataAccessThreshold",
					"outputs": [
						{
							"internalType": "uint256",
							"name": "",
							"type": "uint256"
						}
					],
					"stateMutability": "view",
					"type": "function"
				},
				{
					"inputs": [],
					"name": "decimals",
					"outputs": [
						{
							"internalType": "uint8",
							"name": "",
							"type": "uint8"
						}
					],
					"stateMutability": "view",
					"type": "function"
				},
				{
					"inputs": [
						{
							"internalType": "address",
							"name": "spender",
							"type": "address"
						},
						{
							"internalType": "uint256",
							"name": "subtractedValue",
							"type": "uint256"
						}
					],
					"name": "decreaseAllowance",
					"outputs": [
						{
							"internalType": "bool",
							"name": "",
							"type": "bool"
						}
					],
					"stateMutability": "nonpayable",
					"type": "function"
				},
				{
					"inputs": [
						{
							"internalType": "address",
							"name": "spender",
							"type": "address"
						},
						{
							"internalType": "uint256",
							"name": "addedValue",
							"type": "uint256"
						}
					],
					"name": "increaseAllowance",
					"outputs": [
						{
							"internalType": "bool",
							"name": "",
							"type": "bool"
						}
					],
					"stateMutability": "nonpayable",
					"type": "function"
				},
				{
					"inputs": [
						{
							"internalType": "uint256",
							"name": "value",
							"type": "uint256"
						}
					],
					"name": "invest",
					"outputs": [],
					"stateMutability": "nonpayable",
					"type": "function"
				},
				{
					"inputs": [],
					"name": "istargetRaised",
					"outputs": [
						{
							"internalType": "bool",
							"name": "",
							"type": "bool"
						}
					],
					"stateMutability": "view",
					"type": "function"
				},
				{
					"inputs": [],
					"name": "name",
					"outputs": [
						{
							"internalType": "string",
							"name": "",
							"type": "string"
						}
					],
					"stateMutability": "view",
					"type": "function"
				},
				{
					"inputs": [
						{
							"internalType": "address",
							"name": "",
							"type": "address"
						},
						{
							"internalType": "address",
							"name": "",
							"type": "address"
						},
						{
							"internalType": "uint256",
							"name": "",
							"type": "uint256"
						},
						{
							"internalType": "bytes",
							"name": "",
							"type": "bytes"
						}
					],
					"name": "onERC721Received",
					"outputs": [
						{
							"internalType": "bytes4",
							"name": "",
							"type": "bytes4"
						}
					],
					"stateMutability": "pure",
					"type": "function"
				},
				{
					"inputs": [],
					"name": "pause",
					"outputs": [],
					"stateMutability": "nonpayable",
					"type": "function"
				},
				{
					"inputs": [],
					"name": "projectMarketplace",
					"outputs": [
						{
							"internalType": "contract IERC721",
							"name": "",
							"type": "address"
						}
					],
					"stateMutability": "view",
					"type": "function"
				},
				{
					"inputs": [],
					"name": "redeemNFT",
					"outputs": [],
					"stateMutability": "nonpayable",
					"type": "function"
				},
				{
					"inputs": [],
					"name": "symbol",
					"outputs": [
						{
							"internalType": "string",
							"name": "",
							"type": "string"
						}
					],
					"stateMutability": "view",
					"type": "function"
				},
				{
					"inputs": [],
					"name": "targetAmount",
					"outputs": [
						{
							"internalType": "uint256",
							"name": "",
							"type": "uint256"
						}
					],
					"stateMutability": "view",
					"type": "function"
				},
				{
					"inputs": [],
					"name": "totalSupply",
					"outputs": [
						{
							"internalType": "uint256",
							"name": "",
							"type": "uint256"
						}
					],
					"stateMutability": "view",
					"type": "function"
				},
				{
					"inputs": [
						{
							"internalType": "address",
							"name": "to",
							"type": "address"
						},
						{
							"internalType": "uint256",
							"name": "amount",
							"type": "uint256"
						}
					],
					"name": "transfer",
					"outputs": [
						{
							"internalType": "bool",
							"name": "",
							"type": "bool"
						}
					],
					"stateMutability": "nonpayable",
					"type": "function"
				},
				{
					"inputs": [
						{
							"internalType": "address",
							"name": "from",
							"type": "address"
						},
						{
							"internalType": "address",
							"name": "to",
							"type": "address"
						},
						{
							"internalType": "uint256",
							"name": "amount",
							"type": "uint256"
						}
					],
					"name": "transferFrom",
					"outputs": [
						{
							"internalType": "bool",
							"name": "",
							"type": "bool"
						}
					],
					"stateMutability": "nonpayable",
					"type": "function"
				},
				{
					"inputs": [],
					"name": "unpause",
					"outputs": [],
					"stateMutability": "nonpayable",
					"type": "function"
				},
				{
					"inputs": [
						{
							"internalType": "uint256",
							"name": "value",
							"type": "uint256"
						}
					],
					"name": "withdrawInvestment",
					"outputs": [],
					"stateMutability": "nonpayable",
					"type": "function"
				}
			],
			"devdoc": {
				"kind": "dev",
				"methods": {
					"allowance(address,address)": {
						"details": "See {IERC20-allowance}."
					},
					"approve(address,uint256)": {
						"details": "See {IERC20-approve}. NOTE: If `amount` is the maximum `uint256`, the allowance is not updated on `transferFrom`. This is semantically equivalent to an infinite approval. Requirements: - `spender` cannot be the zero address."
					},
					"balanceOf(address)": {
						"details": "See {IERC20-balanceOf}."
					},
					"decimals()": {
						"details": "Returns the number of decimals used to get its user representation. For example, if `decimals` equals `2`, a balance of `505` tokens should be displayed to a user as `5.05` (`505 / 10 ** 2`). Tokens usually opt for a value of 18, imitating the relationship between Ether and Wei. This is the value {ERC20} uses, unless this function is overridden; NOTE: This information is only used for _display_ purposes: it in no way affects any of the arithmetic of the contract, including {IERC20-balanceOf} and {IERC20-transfer}."
					},
					"decreaseAllowance(address,uint256)": {
						"details": "Atomically decreases the allowance granted to `spender` by the caller. This is an alternative to {approve} that can be used as a mitigation for problems described in {IERC20-approve}. Emits an {Approval} event indicating the updated allowance. Requirements: - `spender` cannot be the zero address. - `spender` must have allowance for the caller of at least `subtractedValue`."
					},
					"increaseAllowance(address,uint256)": {
						"details": "Atomically increases the allowance granted to `spender` by the caller. This is an alternative to {approve} that can be used as a mitigation for problems described in {IERC20-approve}. Emits an {Approval} event indicating the updated allowance. Requirements: - `spender` cannot be the zero address."
					},
					"name()": {
						"details": "Returns the name of the token."
					},
					"symbol()": {
						"details": "Returns the symbol of the token, usually a shorter version of the name."
					},
					"totalSupply()": {
						"details": "See {IERC20-totalSupply}."
					},
					"transfer(address,uint256)": {
						"details": "See {IERC20-transfer}. Requirements: - `to` cannot be the zero address. - the caller must have a balance of at least `amount`."
					},
					"transferFrom(address,address,uint256)": {
						"details": "See {IERC20-transferFrom}. Emits an {Approval} event indicating the updated allowance. This is not required by the EIP. See the note at the beginning of {ERC20}. NOTE: Does not update the allowance if the current allowance is the maximum `uint256`. Requirements: - `from` and `to` cannot be the zero address. - `from` must have a balance of at least `amount`. - the caller must have allowance for ``from``'s tokens of at least `amount`."
					}
				},
				"version": 1
			},
			"evm": {
				"assembly": "    /* \"Fundraising_flat.sol\":24557:27537  contract Fundraising is ERC20 {... */\n  mstore(0x40, 0xa0)\n    /* \"Fundraising_flat.sol\":25013:25018  false */\n  0x00\n    /* \"Fundraising_flat.sol\":24991:25018  bool public _paused = false */\n  0x09\n  exp(0x0100, 0x00)\n  dup2\n  sload\n  dup2\n  0xff\n  mul\n  not\n  and\n  swap1\n  dup4\n  iszero\n  iszero\n  mul\n  or\n  swap1\n  sstore\n  pop\n    /* \"Fundraising_flat.sol\":25054:25059  false */\n  0x00\n    /* \"Fundraising_flat.sol\":25025:25059  bool public istargetRaised = false */\n  0x09\n  exp(0x0100, 0x01)\n  dup2\n  sload\n  dup2\n  0xff\n  mul\n  not\n  and\n  swap1\n  dup4\n  iszero\n  iszero\n  mul\n  or\n  swap1\n  sstore\n  pop\n    /* \"Fundraising_flat.sol\":25085:25442  constructor(uint256 amount, string memory name, string memory symbol, uint256 _dataAccessThreshold, address _admin, address coinAddress) ERC20(name, symbol) {... */\n  callvalue\n  dup1\n  iszero\n  tag_1\n  jumpi\n  0x00\n  dup1\n  revert\ntag_1:\n  pop\n  mload(0x40)\n  sub(codesize, bytecodeSize)\n  dup1\n  bytecodeSize\n  dup4\n  codecopy\n  dup2\n  dup2\n  add\n  0x40\n  mstore\n  dup2\n  add\n  swap1\n  tag_2\n  swap2\n  swap1\n  tag_3\n  jump\t// in\ntag_2:\n    /* \"Fundraising_flat.sol\":25228:25232  name */\n  dup5\n    /* \"Fundraising_flat.sol\":25234:25240  symbol */\n  dup5\n    /* \"Fundraising_flat.sol\":13271:13276  name_ */\n  dup2\n    /* \"Fundraising_flat.sol\":13263:13268  _name */\n  0x03\n    /* \"Fundraising_flat.sol\":13263:13276  _name = name_ */\n  swap1\n  dup1\n  mload\n  swap1\n  0x20\n  add\n  swap1\n  tag_7\n  swap3\n  swap2\n  swap1\n  tag_8\n  jump\t// in\ntag_7:\n  pop\n    /* \"Fundraising_flat.sol\":13296:13303  symbol_ */\n  dup1\n    /* \"Fundraising_flat.sol\":13286:13293  _symbol */\n  0x04\n    /* \"Fundraising_flat.sol\":13286:13303  _symbol = symbol_ */\n  swap1\n  dup1\n  mload\n  swap1\n  0x20\n  add\n  swap1\n  tag_9\n  swap3\n  swap2\n  swap1\n  tag_8\n  jump\t// in\ntag_9:\n  pop\n    /* \"Fundraising_flat.sol\":13197:13310  constructor(string memory name_, string memory symbol_) {... */\n  pop\n  pop\n    /* \"Fundraising_flat.sol\":25267:25273  amount */\n  dup6\n    /* \"Fundraising_flat.sol\":25252:25264  targetAmount */\n  0x06\n    /* \"Fundraising_flat.sol\":25252:25273  targetAmount = amount */\n  dup2\n  swap1\n  sstore\n  pop\n    /* \"Fundraising_flat.sol\":25305:25325  _dataAccessThreshold */\n  dup3\n    /* \"Fundraising_flat.sol\":25283:25302  dataAccessThreshold */\n  0x08\n    /* \"Fundraising_flat.sol\":25283:25325  dataAccessThreshold = _dataAccessThreshold */\n  dup2\n  swap1\n  sstore\n  pop\n    /* \"Fundraising_flat.sol\":25343:25349  _admin */\n  dup2\n    /* \"Fundraising_flat.sol\":25335:25340  admin */\n  0x09\n  0x02\n    /* \"Fundraising_flat.sol\":25335:25349  admin = _admin */\n  0x0100\n  exp\n  dup2\n  sload\n  dup2\n  0xffffffffffffffffffffffffffffffffffffffff\n  mul\n  not\n  and\n  swap1\n  dup4\n  0xffffffffffffffffffffffffffffffffffffffff\n  and\n  mul\n  or\n  swap1\n  sstore\n  pop\n    /* \"Fundraising_flat.sol\":25373:25384  coinAddress */\n  dup1\n    /* \"Fundraising_flat.sol\":25359:25363  coin */\n  0x05\n  0x00\n    /* \"Fundraising_flat.sol\":25359:25385  coin = IERC20(coinAddress) */\n  0x0100\n  exp\n  dup2\n  sload\n  dup2\n  0xffffffffffffffffffffffffffffffffffffffff\n  mul\n  not\n  and\n  swap1\n  dup4\n  0xffffffffffffffffffffffffffffffffffffffff\n  and\n  mul\n  or\n  swap1\n  sstore\n  pop\n    /* \"Fundraising_flat.sol\":25424:25434  msg.sender */\n  caller\n    /* \"Fundraising_flat.sol\":25395:25435  projectMarketplace = IERC721(msg.sender) */\n  0xffffffffffffffffffffffffffffffffffffffff\n  and\n  0x80\n  dup2\n  0xffffffffffffffffffffffffffffffffffffffff\n  and\n  0x60\n  shl\n  dup2\n  mstore\n  pop\n  pop\n    /* \"Fundraising_flat.sol\":25085:25442  constructor(uint256 amount, string memory name, string memory symbol, uint256 _dataAccessThreshold, address _admin, address coinAddress) ERC20(name, symbol) {... */\n  pop\n  pop\n  pop\n  pop\n  pop\n  pop\n    /* \"Fundraising_flat.sol\":24557:27537  contract Fundraising is ERC20 {... */\n  jump(tag_11)\ntag_8:\n  dup3\n  dup1\n  sload\n  tag_12\n  swap1\n  tag_13\n  jump\t// in\ntag_12:\n  swap1\n  0x00\n  mstore\n  keccak256(0x00, 0x20)\n  swap1\n  0x1f\n  add\n  0x20\n  swap1\n  div\n  dup2\n  add\n  swap3\n  dup3\n  tag_15\n  jumpi\n  0x00\n  dup6\n  sstore\n  jump(tag_14)\ntag_15:\n  dup3\n  0x1f\n  lt\n  tag_16\n  jumpi\n  dup1\n  mload\n  not(0xff)\n  and\n  dup4\n  dup1\n  add\n  or\n  dup6\n  sstore\n  jump(tag_14)\ntag_16:\n  dup3\n  dup1\n  add\n  0x01\n  add\n  dup6\n  sstore\n  dup3\n  iszero\n  tag_14\n  jumpi\n  swap2\n  dup3\n  add\ntag_17:\n  dup3\n  dup2\n  gt\n  iszero\n  tag_18\n  jumpi\n  dup3\n  mload\n  dup3\n  sstore\n  swap2\n  0x20\n  add\n  swap2\n  swap1\n  0x01\n  add\n  swap1\n  jump(tag_17)\ntag_18:\ntag_14:\n  pop\n  swap1\n  pop\n  tag_19\n  swap2\n  swap1\n  tag_20\n  jump\t// in\ntag_19:\n  pop\n  swap1\n  jump\t// out\ntag_20:\ntag_21:\n  dup1\n  dup3\n  gt\n  iszero\n  tag_22\n  jumpi\n  0x00\n  dup2\n  0x00\n  swap1\n  sstore\n  pop\n  0x01\n  add\n  jump(tag_21)\ntag_22:\n  pop\n  swap1\n  jump\t// out\n    /* \"#utility.yul\":7:428   */\ntag_24:\n    /* \"#utility.yul\":96:101   */\n  0x00\n    /* \"#utility.yul\":121:187   */\n  tag_26\n    /* \"#utility.yul\":137:186   */\n  tag_27\n    /* \"#utility.yul\":179:185   */\n  dup5\n    /* \"#utility.yul\":137:186   */\n  tag_28\n  jump\t// in\ntag_27:\n    /* \"#utility.yul\":121:187   */\n  tag_29\n  jump\t// in\ntag_26:\n    /* \"#utility.yul\":112:187   */\n  swap1\n  pop\n    /* \"#utility.yul\":210:216   */\n  dup3\n    /* \"#utility.yul\":203:208   */\n  dup2\n    /* \"#utility.yul\":196:217   */\n  mstore\n    /* \"#utility.yul\":248:252   */\n  0x20\n    /* \"#utility.yul\":241:246   */\n  dup2\n    /* \"#utility.yul\":237:253   */\n  add\n    /* \"#utility.yul\":286:289   */\n  dup5\n    /* \"#utility.yul\":277:283   */\n  dup5\n    /* \"#utility.yul\":272:275   */\n  dup5\n    /* \"#utility.yul\":268:284   */\n  add\n    /* \"#utility.yul\":265:290   */\n  gt\n    /* \"#utility.yul\":262:374   */\n  iszero\n  tag_30\n  jumpi\n    /* \"#utility.yul\":293:372   */\n  tag_31\n  tag_32\n  jump\t// in\ntag_31:\n    /* \"#utility.yul\":262:374   */\ntag_30:\n    /* \"#utility.yul\":383:422   */\n  tag_33\n    /* \"#utility.yul\":415:421   */\n  dup5\n    /* \"#utility.yul\":410:413   */\n  dup3\n    /* \"#utility.yul\":405:408   */\n  dup6\n    /* \"#utility.yul\":383:422   */\n  tag_34\n  jump\t// in\ntag_33:\n    /* \"#utility.yul\":102:428   */\n  pop\n    /* \"#utility.yul\":7:428   */\n  swap4\n  swap3\n  pop\n  pop\n  pop\n  jump\t// out\n    /* \"#utility.yul\":434:577   */\ntag_35:\n    /* \"#utility.yul\":491:496   */\n  0x00\n    /* \"#utility.yul\":522:528   */\n  dup2\n    /* \"#utility.yul\":516:529   */\n  mload\n    /* \"#utility.yul\":507:529   */\n  swap1\n  pop\n    /* \"#utility.yul\":538:571   */\n  tag_37\n    /* \"#utility.yul\":565:570   */\n  dup2\n    /* \"#utility.yul\":538:571   */\n  tag_38\n  jump\t// in\ntag_37:\n    /* \"#utility.yul\":434:577   */\n  swap3\n  swap2\n  pop\n  pop\n  jump\t// out\n    /* \"#utility.yul\":597:952   */\ntag_39:\n    /* \"#utility.yul\":664:669   */\n  0x00\n    /* \"#utility.yul\":713:716   */\n  dup3\n    /* \"#utility.yul\":706:710   */\n  0x1f\n    /* \"#utility.yul\":698:704   */\n  dup4\n    /* \"#utility.yul\":694:711   */\n  add\n    /* \"#utility.yul\":690:717   */\n  slt\n    /* \"#utility.yul\":680:802   */\n  tag_41\n  jumpi\n    /* \"#utility.yul\":721:800   */\n  tag_42\n  tag_43\n  jump\t// in\ntag_42:\n    /* \"#utility.yul\":680:802   */\ntag_41:\n    /* \"#utility.yul\":831:837   */\n  dup2\n    /* \"#utility.yul\":825:838   */\n  mload\n    /* \"#utility.yul\":856:946   */\n  tag_44\n    /* \"#utility.yul\":942:945   */\n  dup5\n    /* \"#utility.yul\":934:940   */\n  dup3\n    /* \"#utility.yul\":927:931   */\n  0x20\n    /* \"#utility.yul\":919:925   */\n  dup7\n    /* \"#utility.yul\":915:932   */\n  add\n    /* \"#utility.yul\":856:946   */\n  tag_24\n  jump\t// in\ntag_44:\n    /* \"#utility.yul\":847:946   */\n  swap2\n  pop\n    /* \"#utility.yul\":670:952   */\n  pop\n    /* \"#utility.yul\":597:952   */\n  swap3\n  swap2\n  pop\n  pop\n  jump\t// out\n    /* \"#utility.yul\":958:1101   */\ntag_45:\n    /* \"#utility.yul\":1015:1020   */\n  0x00\n    /* \"#utility.yul\":1046:1052   */\n  dup2\n    /* \"#utility.yul\":1040:1053   */\n  mload\n    /* \"#utility.yul\":1031:1053   */\n  swap1\n  pop\n    /* \"#utility.yul\":1062:1095   */\n  tag_47\n    /* \"#utility.yul\":1089:1094   */\n  dup2\n    /* \"#utility.yul\":1062:1095   */\n  tag_48\n  jump\t// in\ntag_47:\n    /* \"#utility.yul\":958:1101   */\n  swap3\n  swap2\n  pop\n  pop\n  jump\t// out\n    /* \"#utility.yul\":1107:2587   */\ntag_3:\n    /* \"#utility.yul\":1242:1248   */\n  0x00\n    /* \"#utility.yul\":1250:1256   */\n  dup1\n    /* \"#utility.yul\":1258:1264   */\n  0x00\n    /* \"#utility.yul\":1266:1272   */\n  dup1\n    /* \"#utility.yul\":1274:1280   */\n  0x00\n    /* \"#utility.yul\":1282:1288   */\n  dup1\n    /* \"#utility.yul\":1331:1334   */\n  0xc0\n    /* \"#utility.yul\":1319:1328   */\n  dup8\n    /* \"#utility.yul\":1310:1317   */\n  dup10\n    /* \"#utility.yul\":1306:1329   */\n  sub\n    /* \"#utility.yul\":1302:1335   */\n  slt\n    /* \"#utility.yul\":1299:1419   */\n  iszero\n  tag_50\n  jumpi\n    /* \"#utility.yul\":1338:1417   */\n  tag_51\n  tag_52\n  jump\t// in\ntag_51:\n    /* \"#utility.yul\":1299:1419   */\ntag_50:\n    /* \"#utility.yul\":1458:1459   */\n  0x00\n    /* \"#utility.yul\":1483:1547   */\n  tag_53\n    /* \"#utility.yul\":1539:1546   */\n  dup10\n    /* \"#utility.yul\":1530:1536   */\n  dup3\n    /* \"#utility.yul\":1519:1528   */\n  dup11\n    /* \"#utility.yul\":1515:1537   */\n  add\n    /* \"#utility.yul\":1483:1547   */\n  tag_45\n  jump\t// in\ntag_53:\n    /* \"#utility.yul\":1473:1547   */\n  swap7\n  pop\n    /* \"#utility.yul\":1429:1557   */\n  pop\n    /* \"#utility.yul\":1617:1619   */\n  0x20\n    /* \"#utility.yul\":1606:1615   */\n  dup8\n    /* \"#utility.yul\":1602:1620   */\n  add\n    /* \"#utility.yul\":1596:1621   */\n  mload\n    /* \"#utility.yul\":1648:1666   */\n  0xffffffffffffffff\n    /* \"#utility.yul\":1640:1646   */\n  dup2\n    /* \"#utility.yul\":1637:1667   */\n  gt\n    /* \"#utility.yul\":1634:1751   */\n  iszero\n  tag_54\n  jumpi\n    /* \"#utility.yul\":1670:1749   */\n  tag_55\n  tag_56\n  jump\t// in\ntag_55:\n    /* \"#utility.yul\":1634:1751   */\ntag_54:\n    /* \"#utility.yul\":1775:1849   */\n  tag_57\n    /* \"#utility.yul\":1841:1848   */\n  dup10\n    /* \"#utility.yul\":1832:1838   */\n  dup3\n    /* \"#utility.yul\":1821:1830   */\n  dup11\n    /* \"#utility.yul\":1817:1839   */\n  add\n    /* \"#utility.yul\":1775:1849   */\n  tag_39\n  jump\t// in\ntag_57:\n    /* \"#utility.yul\":1765:1849   */\n  swap6\n  pop\n    /* \"#utility.yul\":1567:1859   */\n  pop\n    /* \"#utility.yul\":1919:1921   */\n  0x40\n    /* \"#utility.yul\":1908:1917   */\n  dup8\n    /* \"#utility.yul\":1904:1922   */\n  add\n    /* \"#utility.yul\":1898:1923   */\n  mload\n    /* \"#utility.yul\":1950:1968   */\n  0xffffffffffffffff\n    /* \"#utility.yul\":1942:1948   */\n  dup2\n    /* \"#utility.yul\":1939:1969   */\n  gt\n    /* \"#utility.yul\":1936:2053   */\n  iszero\n  tag_58\n  jumpi\n    /* \"#utility.yul\":1972:2051   */\n  tag_59\n  tag_56\n  jump\t// in\ntag_59:\n    /* \"#utility.yul\":1936:2053   */\ntag_58:\n    /* \"#utility.yul\":2077:2151   */\n  tag_60\n    /* \"#utility.yul\":2143:2150   */\n  dup10\n    /* \"#utility.yul\":2134:2140   */\n  dup3\n    /* \"#utility.yul\":2123:2132   */\n  dup11\n    /* \"#utility.yul\":2119:2141   */\n  add\n    /* \"#utility.yul\":2077:2151   */\n  tag_39\n  jump\t// in\ntag_60:\n    /* \"#utility.yul\":2067:2151   */\n  swap5\n  pop\n    /* \"#utility.yul\":1869:2161   */\n  pop\n    /* \"#utility.yul\":2200:2202   */\n  0x60\n    /* \"#utility.yul\":2226:2290   */\n  tag_61\n    /* \"#utility.yul\":2282:2289   */\n  dup10\n    /* \"#utility.yul\":2273:2279   */\n  dup3\n    /* \"#utility.yul\":2262:2271   */\n  dup11\n    /* \"#utility.yul\":2258:2280   */\n  add\n    /* \"#utility.yul\":2226:2290   */\n  tag_45\n  jump\t// in\ntag_61:\n    /* \"#utility.yul\":2216:2290   */\n  swap4\n  pop\n    /* \"#utility.yul\":2171:2300   */\n  pop\n    /* \"#utility.yul\":2339:2342   */\n  0x80\n    /* \"#utility.yul\":2366:2430   */\n  tag_62\n    /* \"#utility.yul\":2422:2429   */\n  dup10\n    /* \"#utility.yul\":2413:2419   */\n  dup3\n    /* \"#utility.yul\":2402:2411   */\n  dup11\n    /* \"#utility.yul\":2398:2420   */\n  add\n    /* \"#utility.yul\":2366:2430   */\n  tag_35\n  jump\t// in\ntag_62:\n    /* \"#utility.yul\":2356:2430   */\n  swap3\n  pop\n    /* \"#utility.yul\":2310:2440   */\n  pop\n    /* \"#utility.yul\":2479:2482   */\n  0xa0\n    /* \"#utility.yul\":2506:2570   */\n  tag_63\n    /* \"#utility.yul\":2562:2569   */\n  dup10\n    /* \"#utility.yul\":2553:2559   */\n  dup3\n    /* \"#utility.yul\":2542:2551   */\n  dup11\n    /* \"#utility.yul\":2538:2560   */\n  add\n    /* \"#utility.yul\":2506:2570   */\n  tag_35\n  jump\t// in\ntag_63:\n    /* \"#utility.yul\":2496:2570   */\n  swap2\n  pop\n    /* \"#utility.yul\":2450:2580   */\n  pop\n    /* \"#utility.yul\":1107:2587   */\n  swap3\n  swap6\n  pop\n  swap3\n  swap6\n  pop\n  swap3\n  swap6\n  jump\t// out\n    /* \"#utility.yul\":2593:2722   */\ntag_29:\n    /* \"#utility.yul\":2627:2633   */\n  0x00\n    /* \"#utility.yul\":2654:2674   */\n  tag_65\n  tag_66\n  jump\t// in\ntag_65:\n    /* \"#utility.yul\":2644:2674   */\n  swap1\n  pop\n    /* \"#utility.yul\":2683:2716   */\n  tag_67\n    /* \"#utility.yul\":2711:2715   */\n  dup3\n    /* \"#utility.yul\":2703:2709   */\n  dup3\n    /* \"#utility.yul\":2683:2716   */\n  tag_68\n  jump\t// in\ntag_67:\n    /* \"#utility.yul\":2593:2722   */\n  swap2\n  swap1\n  pop\n  jump\t// out\n    /* \"#utility.yul\":2728:2803   */\ntag_66:\n    /* \"#utility.yul\":2761:2767   */\n  0x00\n    /* \"#utility.yul\":2794:2796   */\n  0x40\n    /* \"#utility.yul\":2788:2797   */\n  mload\n    /* \"#utility.yul\":2778:2797   */\n  swap1\n  pop\n    /* \"#utility.yul\":2728:2803   */\n  swap1\n  jump\t// out\n    /* \"#utility.yul\":2809:3117   */\ntag_28:\n    /* \"#utility.yul\":2871:2875   */\n  0x00\n    /* \"#utility.yul\":2961:2979   */\n  0xffffffffffffffff\n    /* \"#utility.yul\":2953:2959   */\n  dup3\n    /* \"#utility.yul\":2950:2980   */\n  gt\n    /* \"#utility.yul\":2947:3003   */\n  iszero\n  tag_71\n  jumpi\n    /* \"#utility.yul\":2983:3001   */\n  tag_72\n  tag_73\n  jump\t// in\ntag_72:\n    /* \"#utility.yul\":2947:3003   */\ntag_71:\n    /* \"#utility.yul\":3021:3050   */\n  tag_74\n    /* \"#utility.yul\":3043:3049   */\n  dup3\n    /* \"#utility.yul\":3021:3050   */\n  tag_75\n  jump\t// in\ntag_74:\n    /* \"#utility.yul\":3013:3050   */\n  swap1\n  pop\n    /* \"#utility.yul\":3105:3109   */\n  0x20\n    /* \"#utility.yul\":3099:3103   */\n  dup2\n    /* \"#utility.yul\":3095:3110   */\n  add\n    /* \"#utility.yul\":3087:3110   */\n  swap1\n  pop\n    /* \"#utility.yul\":2809:3117   */\n  swap2\n  swap1\n  pop\n  jump\t// out\n    /* \"#utility.yul\":3123:3219   */\ntag_76:\n    /* \"#utility.yul\":3160:3167   */\n  0x00\n    /* \"#utility.yul\":3189:3213   */\n  tag_78\n    /* \"#utility.yul\":3207:3212   */\n  dup3\n    /* \"#utility.yul\":3189:3213   */\n  tag_79\n  jump\t// in\ntag_78:\n    /* \"#utility.yul\":3178:3213   */\n  swap1\n  pop\n    /* \"#utility.yul\":3123:3219   */\n  swap2\n  swap1\n  pop\n  jump\t// out\n    /* \"#utility.yul\":3225:3351   */\ntag_79:\n    /* \"#utility.yul\":3262:3269   */\n  0x00\n    /* \"#utility.yul\":3302:3344   */\n  0xffffffffffffffffffffffffffffffffffffffff\n    /* \"#utility.yul\":3295:3300   */\n  dup3\n    /* \"#utility.yul\":3291:3345   */\n  and\n    /* \"#utility.yul\":3280:3345   */\n  swap1\n  pop\n    /* \"#utility.yul\":3225:3351   */\n  swap2\n  swap1\n  pop\n  jump\t// out\n    /* \"#utility.yul\":3357:3434   */\ntag_81:\n    /* \"#utility.yul\":3394:3401   */\n  0x00\n    /* \"#utility.yul\":3423:3428   */\n  dup2\n    /* \"#utility.yul\":3412:3428   */\n  swap1\n  pop\n    /* \"#utility.yul\":3357:3434   */\n  swap2\n  swap1\n  pop\n  jump\t// out\n    /* \"#utility.yul\":3440:3747   */\ntag_34:\n    /* \"#utility.yul\":3508:3509   */\n  0x00\n    /* \"#utility.yul\":3518:3631   */\ntag_84:\n    /* \"#utility.yul\":3532:3538   */\n  dup4\n    /* \"#utility.yul\":3529:3530   */\n  dup2\n    /* \"#utility.yul\":3526:3539   */\n  lt\n    /* \"#utility.yul\":3518:3631   */\n  iszero\n  tag_86\n  jumpi\n    /* \"#utility.yul\":3617:3618   */\n  dup1\n    /* \"#utility.yul\":3612:3615   */\n  dup3\n    /* \"#utility.yul\":3608:3619   */\n  add\n    /* \"#utility.yul\":3602:3620   */\n  mload\n    /* \"#utility.yul\":3598:3599   */\n  dup2\n    /* \"#utility.yul\":3593:3596   */\n  dup5\n    /* \"#utility.yul\":3589:3600   */\n  add\n    /* \"#utility.yul\":3582:3621   */\n  mstore\n    /* \"#utility.yul\":3554:3556   */\n  0x20\n    /* \"#utility.yul\":3551:3552   */\n  dup2\n    /* \"#utility.yul\":3547:3557   */\n  add\n    /* \"#utility.yul\":3542:3557   */\n  swap1\n  pop\n    /* \"#utility.yul\":3518:3631   */\n  jump(tag_84)\ntag_86:\n    /* \"#utility.yul\":3649:3655   */\n  dup4\n    /* \"#utility.yul\":3646:3647   */\n  dup2\n    /* \"#utility.yul\":3643:3656   */\n  gt\n    /* \"#utility.yul\":3640:3741   */\n  iszero\n  tag_87\n  jumpi\n    /* \"#utility.yul\":3729:3730   */\n  0x00\n    /* \"#utility.yul\":3720:3726   */\n  dup5\n    /* \"#utility.yul\":3715:3718   */\n  dup5\n    /* \"#utility.yul\":3711:3727   */\n  add\n    /* \"#utility.yul\":3704:3731   */\n  mstore\n    /* \"#utility.yul\":3640:3741   */\ntag_87:\n    /* \"#utility.yul\":3489:3747   */\n  pop\n    /* \"#utility.yul\":3440:3747   */\n  pop\n  pop\n  pop\n  jump\t// out\n    /* \"#utility.yul\":3753:4073   */\ntag_13:\n    /* \"#utility.yul\":3797:3803   */\n  0x00\n    /* \"#utility.yul\":3834:3835   */\n  0x02\n    /* \"#utility.yul\":3828:3832   */\n  dup3\n    /* \"#utility.yul\":3824:3836   */\n  div\n    /* \"#utility.yul\":3814:3836   */\n  swap1\n  pop\n    /* \"#utility.yul\":3881:3882   */\n  0x01\n    /* \"#utility.yul\":3875:3879   */\n  dup3\n    /* \"#utility.yul\":3871:3883   */\n  and\n    /* \"#utility.yul\":3902:3920   */\n  dup1\n    /* \"#utility.yul\":3892:3973   */\n  tag_89\n  jumpi\n    /* \"#utility.yul\":3958:3962   */\n  0x7f\n    /* \"#utility.yul\":3950:3956   */\n  dup3\n    /* \"#utility.yul\":3946:3963   */\n  and\n    /* \"#utility.yul\":3936:3963   */\n  swap2\n  pop\n    /* \"#utility.yul\":3892:3973   */\ntag_89:\n    /* \"#utility.yul\":4020:4022   */\n  0x20\n    /* \"#utility.yul\":4012:4018   */\n  dup3\n    /* \"#utility.yul\":4009:4023   */\n  lt\n    /* \"#utility.yul\":3989:4007   */\n  dup2\n    /* \"#utility.yul\":3986:4024   */\n  eq\n    /* \"#utility.yul\":3983:4067   */\n  iszero\n  tag_90\n  jumpi\n    /* \"#utility.yul\":4039:4057   */\n  tag_91\n  tag_92\n  jump\t// in\ntag_91:\n    /* \"#utility.yul\":3983:4067   */\ntag_90:\n    /* \"#utility.yul\":3804:4073   */\n  pop\n    /* \"#utility.yul\":3753:4073   */\n  swap2\n  swap1\n  pop\n  jump\t// out\n    /* \"#utility.yul\":4079:4360   */\ntag_68:\n    /* \"#utility.yul\":4162:4189   */\n  tag_94\n    /* \"#utility.yul\":4184:4188   */\n  dup3\n    /* \"#utility.yul\":4162:4189   */\n  tag_75\n  jump\t// in\ntag_94:\n    /* \"#utility.yul\":4154:4160   */\n  dup2\n    /* \"#utility.yul\":4150:4190   */\n  add\n    /* \"#utility.yul\":4292:4298   */\n  dup2\n    /* \"#utility.yul\":4280:4290   */\n  dup2\n    /* \"#utility.yul\":4277:4299   */\n  lt\n    /* \"#utility.yul\":4256:4274   */\n  0xffffffffffffffff\n    /* \"#utility.yul\":4244:4254   */\n  dup3\n    /* \"#utility.yul\":4241:4275   */\n  gt\n    /* \"#utility.yul\":4238:4300   */\n  or\n    /* \"#utility.yul\":4235:4323   */\n  iszero\n  tag_95\n  jumpi\n    /* \"#utility.yul\":4303:4321   */\n  tag_96\n  tag_73\n  jump\t// in\ntag_96:\n    /* \"#utility.yul\":4235:4323   */\ntag_95:\n    /* \"#utility.yul\":4343:4353   */\n  dup1\n    /* \"#utility.yul\":4339:4341   */\n  0x40\n    /* \"#utility.yul\":4332:4354   */\n  mstore\n    /* \"#utility.yul\":4122:4360   */\n  pop\n    /* \"#utility.yul\":4079:4360   */\n  pop\n  pop\n  jump\t// out\n    /* \"#utility.yul\":4366:4546   */\ntag_92:\n    /* \"#utility.yul\":4414:4491   */\n  0x4e487b7100000000000000000000000000000000000000000000000000000000\n    /* \"#utility.yul\":4411:4412   */\n  0x00\n    /* \"#utility.yul\":4404:4492   */\n  mstore\n    /* \"#utility.yul\":4511:4515   */\n  0x22\n    /* \"#utility.yul\":4508:4509   */\n  0x04\n    /* \"#utility.yul\":4501:4516   */\n  mstore\n    /* \"#utility.yul\":4535:4539   */\n  0x24\n    /* \"#utility.yul\":4532:4533   */\n  0x00\n    /* \"#utility.yul\":4525:4540   */\n  revert\n    /* \"#utility.yul\":4552:4732   */\ntag_73:\n    /* \"#utility.yul\":4600:4677   */\n  0x4e487b7100000000000000000000000000000000000000000000000000000000\n    /* \"#utility.yul\":4597:4598   */\n  0x00\n    /* \"#utility.yul\":4590:4678   */\n  mstore\n    /* \"#utility.yul\":4697:4701   */\n  0x41\n    /* \"#utility.yul\":4694:4695   */\n  0x04\n    /* \"#utility.yul\":4687:4702   */\n  mstore\n    /* \"#utility.yul\":4721:4725   */\n  0x24\n    /* \"#utility.yul\":4718:4719   */\n  0x00\n    /* \"#utility.yul\":4711:4726   */\n  revert\n    /* \"#utility.yul\":4738:4855   */\ntag_43:\n    /* \"#utility.yul\":4847:4848   */\n  0x00\n    /* \"#utility.yul\":4844:4845   */\n  dup1\n    /* \"#utility.yul\":4837:4849   */\n  revert\n    /* \"#utility.yul\":4861:4978   */\ntag_32:\n    /* \"#utility.yul\":4970:4971   */\n  0x00\n    /* \"#utility.yul\":4967:4968   */\n  dup1\n    /* \"#utility.yul\":4960:4972   */\n  revert\n    /* \"#utility.yul\":4984:5101   */\ntag_56:\n    /* \"#utility.yul\":5093:5094   */\n  0x00\n    /* \"#utility.yul\":5090:5091   */\n  dup1\n    /* \"#utility.yul\":5083:5095   */\n  revert\n    /* \"#utility.yul\":5107:5224   */\ntag_52:\n    /* \"#utility.yul\":5216:5217   */\n  0x00\n    /* \"#utility.yul\":5213:5214   */\n  dup1\n    /* \"#utility.yul\":5206:5218   */\n  revert\n    /* \"#utility.yul\":5230:5332   */\ntag_75:\n    /* \"#utility.yul\":5271:5277   */\n  0x00\n    /* \"#utility.yul\":5322:5324   */\n  0x1f\n    /* \"#utility.yul\":5318:5325   */\n  not\n    /* \"#utility.yul\":5313:5315   */\n  0x1f\n    /* \"#utility.yul\":5306:5311   */\n  dup4\n    /* \"#utility.yul\":5302:5316   */\n  add\n    /* \"#utility.yul\":5298:5326   */\n  and\n    /* \"#utility.yul\":5288:5326   */\n  swap1\n  pop\n    /* \"#utility.yul\":5230:5332   */\n  swap2\n  swap1\n  pop\n  jump\t// out\n    /* \"#utility.yul\":5338:5460   */\ntag_38:\n    /* \"#utility.yul\":5411:5435   */\n  tag_105\n    /* \"#utility.yul\":5429:5434   */\n  dup2\n    /* \"#utility.yul\":5411:5435   */\n  tag_76\n  jump\t// in\ntag_105:\n    /* \"#utility.yul\":5404:5409   */\n  dup2\n    /* \"#utility.yul\":5401:5436   */\n  eq\n    /* \"#utility.yul\":5391:5454   */\n  tag_106\n  jumpi\n    /* \"#utility.yul\":5450:5451   */\n  0x00\n    /* \"#utility.yul\":5447:5448   */\n  dup1\n    /* \"#utility.yul\":5440:5452   */\n  revert\n    /* \"#utility.yul\":5391:5454   */\ntag_106:\n    /* \"#utility.yul\":5338:5460   */\n  pop\n  jump\t// out\n    /* \"#utility.yul\":5466:5588   */\ntag_48:\n    /* \"#utility.yul\":5539:5563   */\n  tag_108\n    /* \"#utility.yul\":5557:5562   */\n  dup2\n    /* \"#utility.yul\":5539:5563   */\n  tag_81\n  jump\t// in\ntag_108:\n    /* \"#utility.yul\":5532:5537   */\n  dup2\n    /* \"#utility.yul\":5529:5564   */\n  eq\n    /* \"#utility.yul\":5519:5582   */\n  tag_109\n  jumpi\n    /* \"#utility.yul\":5578:5579   */\n  0x00\n    /* \"#utility.yul\":5575:5576   */\n  dup1\n    /* \"#utility.yul\":5568:5580   */\n  revert\n    /* \"#utility.yul\":5519:5582   */\ntag_109:\n    /* \"#utility.yul\":5466:5588   */\n  pop\n  jump\t// out\n    /* \"Fundraising_flat.sol\":24557:27537  contract Fundraising is ERC20 {... */\ntag_11:\n  shr(0x60, mload(0x80))\n  codecopy(0x00, dataOffset(sub_0), dataSize(sub_0))\n  0x00\n  assignImmutable(\"0x1953a27a405e8582cf1be8a2db4a8d6898082fbed25ec72fb4b95dbd76ab849b\")\n  return(0x00, dataSize(sub_0))\nstop\n\nsub_0: assembly {\n        /* \"Fundraising_flat.sol\":24557:27537  contract Fundraising is ERC20 {... */\n      mstore(0x40, 0x80)\n      callvalue\n      dup1\n      iszero\n      tag_1\n      jumpi\n      0x00\n      dup1\n      revert\n    tag_1:\n      pop\n      jumpi(tag_2, lt(calldatasize, 0x04))\n      shr(0xe0, calldataload(0x00))\n      dup1\n      0x39509351\n      gt\n      tag_28\n      jumpi\n      dup1\n      0x8456cb59\n      gt\n      tag_29\n      jumpi\n      dup1\n      0xa457c2d7\n      gt\n      tag_30\n      jumpi\n      dup1\n      0xa457c2d7\n      eq\n      tag_24\n      jumpi\n      dup1\n      0xa9059cbb\n      eq\n      tag_25\n      jumpi\n      dup1\n      0xbdf89682\n      eq\n      tag_26\n      jumpi\n      dup1\n      0xdd62ed3e\n      eq\n      tag_27\n      jumpi\n      jump(tag_2)\n    tag_30:\n      dup1\n      0x8456cb59\n      eq\n      tag_21\n      jumpi\n      dup1\n      0x953b8fb8\n      eq\n      tag_22\n      jumpi\n      dup1\n      0x95d89b41\n      eq\n      tag_23\n      jumpi\n      jump(tag_2)\n    tag_29:\n      dup1\n      0x39509351\n      eq\n      tag_15\n      jumpi\n      dup1\n      0x3f4ba83a\n      eq\n      tag_16\n      jumpi\n      dup1\n      0x70a08231\n      eq\n      tag_17\n      jumpi\n      dup1\n      0x77262d38\n      eq\n      tag_18\n      jumpi\n      dup1\n      0x7b3e5e7b\n      eq\n      tag_19\n      jumpi\n      dup1\n      0x7e0d73d4\n      eq\n      tag_20\n      jumpi\n      jump(tag_2)\n    tag_28:\n      dup1\n      0x16c61ccc\n      gt\n      tag_31\n      jumpi\n      dup1\n      0x16c61ccc\n      eq\n      tag_9\n      jumpi\n      dup1\n      0x18160ddd\n      eq\n      tag_10\n      jumpi\n      dup1\n      0x2037fcbf\n      eq\n      tag_11\n      jumpi\n      dup1\n      0x23b872dd\n      eq\n      tag_12\n      jumpi\n      dup1\n      0x2afcf480\n      eq\n      tag_13\n      jumpi\n      dup1\n      0x313ce567\n      eq\n      tag_14\n      jumpi\n      jump(tag_2)\n    tag_31:\n      dup1\n      0x06fdde03\n      eq\n      tag_3\n      jumpi\n      dup1\n      0x06febe00\n      eq\n      tag_4\n      jumpi\n      dup1\n      0x095ea7b3\n      eq\n      tag_5\n      jumpi\n      dup1\n      0x11db3c16\n      eq\n      tag_6\n      jumpi\n      dup1\n      0x11df9995\n      eq\n      tag_7\n      jumpi\n      dup1\n      0x150b7a02\n      eq\n      tag_8\n      jumpi\n    tag_2:\n      0x00\n      dup1\n      revert\n        /* \"Fundraising_flat.sol\":13375:13473  function name() public view virtual override returns (string memory) {... */\n    tag_3:\n      tag_32\n      tag_33\n      jump\t// in\n    tag_32:\n      mload(0x40)\n      tag_34\n      swap2\n      swap1\n      tag_35\n      jump\t// in\n    tag_34:\n      mload(0x40)\n      dup1\n      swap2\n      sub\n      swap1\n      return\n        /* \"Fundraising_flat.sol\":24866:24900  uint256 public dataAccessThreshold */\n    tag_4:\n      tag_36\n      tag_37\n      jump\t// in\n    tag_36:\n      mload(0x40)\n      tag_38\n      swap2\n      swap1\n      tag_39\n      jump\t// in\n    tag_38:\n      mload(0x40)\n      dup1\n      swap2\n      sub\n      swap1\n      return\n        /* \"Fundraising_flat.sol\":15652:15849  function approve(address spender, uint256 amount) public virtual override returns (bool) {... */\n    tag_5:\n      tag_40\n      0x04\n      dup1\n      calldatasize\n      sub\n      dup2\n      add\n      swap1\n      tag_41\n      swap2\n      swap1\n      tag_42\n      jump\t// in\n    tag_41:\n      tag_43\n      jump\t// in\n    tag_40:\n      mload(0x40)\n      tag_44\n      swap2\n      swap1\n      tag_45\n      jump\t// in\n    tag_44:\n      mload(0x40)\n      dup1\n      swap2\n      sub\n      swap1\n      return\n        /* \"Fundraising_flat.sol\":25025:25059  bool public istargetRaised = false */\n    tag_6:\n      tag_46\n      tag_47\n      jump\t// in\n    tag_46:\n      mload(0x40)\n      tag_48\n      swap2\n      swap1\n      tag_45\n      jump\t// in\n    tag_48:\n      mload(0x40)\n      dup1\n      swap2\n      sub\n      swap1\n      return\n        /* \"Fundraising_flat.sol\":24593:24611  IERC20 public coin */\n    tag_7:\n      tag_49\n      tag_50\n      jump\t// in\n    tag_49:\n      mload(0x40)\n      tag_51\n      swap2\n      swap1\n      tag_52\n      jump\t// in\n    tag_51:\n      mload(0x40)\n      dup1\n      swap2\n      sub\n      swap1\n      return\n        /* \"Fundraising_flat.sol\":25639:25804  function onERC721Received(address, address, uint256, bytes calldata) external pure returns (bytes4) {... */\n    tag_8:\n      tag_53\n      0x04\n      dup1\n      calldatasize\n      sub\n      dup2\n      add\n      swap1\n      tag_54\n      swap2\n      swap1\n      tag_55\n      jump\t// in\n    tag_54:\n      tag_56\n      jump\t// in\n    tag_53:\n      mload(0x40)\n      tag_57\n      swap2\n      swap1\n      tag_58\n      jump\t// in\n    tag_57:\n      mload(0x40)\n      dup1\n      swap2\n      sub\n      swap1\n      return\n        /* \"Fundraising_flat.sol\":24991:25018  bool public _paused = false */\n    tag_9:\n      tag_59\n      tag_60\n      jump\t// in\n    tag_59:\n      mload(0x40)\n      tag_61\n      swap2\n      swap1\n      tag_45\n      jump\t// in\n    tag_61:\n      mload(0x40)\n      dup1\n      swap2\n      sub\n      swap1\n      return\n        /* \"Fundraising_flat.sol\":14463:14569  function totalSupply() public view virtual override returns (uint256) {... */\n    tag_10:\n      tag_62\n      tag_63\n      jump\t// in\n    tag_62:\n      mload(0x40)\n      tag_64\n      swap2\n      swap1\n      tag_39\n      jump\t// in\n    tag_64:\n      mload(0x40)\n      dup1\n      swap2\n      sub\n      swap1\n      return\n        /* \"Fundraising_flat.sol\":26748:27142  function withdrawInvestment(uint256 value) external {... */\n    tag_11:\n      tag_65\n      0x04\n      dup1\n      calldatasize\n      sub\n      dup2\n      add\n      swap1\n      tag_66\n      swap2\n      swap1\n      tag_67\n      jump\t// in\n    tag_66:\n      tag_68\n      jump\t// in\n    tag_65:\n      stop\n        /* \"Fundraising_flat.sol\":16411:16697  function transferFrom(... */\n    tag_12:\n      tag_69\n      0x04\n      dup1\n      calldatasize\n      sub\n      dup2\n      add\n      swap1\n      tag_70\n      swap2\n      swap1\n      tag_71\n      jump\t// in\n    tag_70:\n      tag_72\n      jump\t// in\n    tag_69:\n      mload(0x40)\n      tag_73\n      swap2\n      swap1\n      tag_45\n      jump\t// in\n    tag_73:\n      mload(0x40)\n      dup1\n      swap2\n      sub\n      swap1\n      return\n        /* \"Fundraising_flat.sol\":26137:26646  function invest(uint256 value) external {... */\n    tag_13:\n      tag_74\n      0x04\n      dup1\n      calldatasize\n      sub\n      dup2\n      add\n      swap1\n      tag_75\n      swap2\n      swap1\n      tag_67\n      jump\t// in\n    tag_75:\n      tag_76\n      jump\t// in\n    tag_74:\n      stop\n        /* \"Fundraising_flat.sol\":14312:14403  function decimals() public view virtual override returns (uint8) {... */\n    tag_14:\n      tag_77\n      tag_78\n      jump\t// in\n    tag_77:\n      mload(0x40)\n      tag_79\n      swap2\n      swap1\n      tag_80\n      jump\t// in\n    tag_79:\n      mload(0x40)\n      dup1\n      swap2\n      sub\n      swap1\n      return\n        /* \"Fundraising_flat.sol\":17092:17326  function increaseAllowance(address spender, uint256 addedValue) public virtual returns (bool) {... */\n    tag_15:\n      tag_81\n      0x04\n      dup1\n      calldatasize\n      sub\n      dup2\n      add\n      swap1\n      tag_82\n      swap2\n      swap1\n      tag_42\n      jump\t// in\n    tag_82:\n      tag_83\n      jump\t// in\n    tag_81:\n      mload(0x40)\n      tag_84\n      swap2\n      swap1\n      tag_45\n      jump\t// in\n    tag_84:\n      mload(0x40)\n      dup1\n      swap2\n      sub\n      swap1\n      return\n        /* \"Fundraising_flat.sol\":25883:25952  function unpause() onlyOwner external{... */\n    tag_16:\n      tag_85\n      tag_86\n      jump\t// in\n    tag_85:\n      stop\n        /* \"Fundraising_flat.sol\":14627:14752  function balanceOf(address account) public view virtual override returns (uint256) {... */\n    tag_17:\n      tag_87\n      0x04\n      dup1\n      calldatasize\n      sub\n      dup2\n      add\n      swap1\n      tag_88\n      swap2\n      swap1\n      tag_89\n      jump\t// in\n    tag_88:\n      tag_90\n      jump\t// in\n    tag_87:\n      mload(0x40)\n      tag_91\n      swap2\n      swap1\n      tag_39\n      jump\t// in\n    tag_91:\n      mload(0x40)\n      dup1\n      swap2\n      sub\n      swap1\n      return\n        /* \"Fundraising_flat.sol\":27259:27535  function redeemNFT() external {... */\n    tag_18:\n      tag_92\n      tag_93\n      jump\t// in\n    tag_92:\n      stop\n        /* \"Fundraising_flat.sol\":24833:24860  uint256 public amountRaised */\n    tag_19:\n      tag_94\n      tag_95\n      jump\t// in\n    tag_94:\n      mload(0x40)\n      tag_96\n      swap2\n      swap1\n      tag_39\n      jump\t// in\n    tag_96:\n      mload(0x40)\n      dup1\n      swap2\n      sub\n      swap1\n      return\n        /* \"Fundraising_flat.sol\":24677:24720  IERC721 public immutable projectMarketplace */\n    tag_20:\n      tag_97\n      tag_98\n      jump\t// in\n    tag_97:\n      mload(0x40)\n      tag_99\n      swap2\n      swap1\n      tag_100\n      jump\t// in\n    tag_99:\n      mload(0x40)\n      dup1\n      swap2\n      sub\n      swap1\n      return\n        /* \"Fundraising_flat.sol\":25810:25877  function pause() onlyOwner external {... */\n    tag_21:\n      tag_101\n      tag_102\n      jump\t// in\n    tag_101:\n      stop\n        /* \"Fundraising_flat.sol\":24800:24827  uint256 public targetAmount */\n    tag_22:\n      tag_103\n      tag_104\n      jump\t// in\n    tag_103:\n      mload(0x40)\n      tag_105\n      swap2\n      swap1\n      tag_39\n      jump\t// in\n    tag_105:\n      mload(0x40)\n      dup1\n      swap2\n      sub\n      swap1\n      return\n        /* \"Fundraising_flat.sol\":13586:13688  function symbol() public view virtual override returns (string memory) {... */\n    tag_23:\n      tag_106\n      tag_107\n      jump\t// in\n    tag_106:\n      mload(0x40)\n      tag_108\n      swap2\n      swap1\n      tag_35\n      jump\t// in\n    tag_108:\n      mload(0x40)\n      dup1\n      swap2\n      sub\n      swap1\n      return\n        /* \"Fundraising_flat.sol\":17813:18240  function decreaseAllowance(address spender, uint256 subtractedValue) public virtual returns (bool) {... */\n    tag_24:\n      tag_109\n      0x04\n      dup1\n      calldatasize\n      sub\n      dup2\n      add\n      swap1\n      tag_110\n      swap2\n      swap1\n      tag_42\n      jump\t// in\n    tag_110:\n      tag_111\n      jump\t// in\n    tag_109:\n      mload(0x40)\n      tag_112\n      swap2\n      swap1\n      tag_45\n      jump\t// in\n    tag_112:\n      mload(0x40)\n      dup1\n      swap2\n      sub\n      swap1\n      return\n        /* \"Fundraising_flat.sol\":14948:15137  function transfer(address to, uint256 amount) public virtual override returns (bool) {... */\n    tag_25:\n      tag_113\n      0x04\n      dup1\n      calldatasize\n      sub\n      dup2\n      add\n      swap1\n      tag_114\n      swap2\n      swap1\n      tag_42\n      jump\t// in\n    tag_114:\n      tag_115\n      jump\t// in\n    tag_113:\n      mload(0x40)\n      tag_116\n      swap2\n      swap1\n      tag_45\n      jump\t// in\n    tag_116:\n      mload(0x40)\n      dup1\n      swap2\n      sub\n      swap1\n      return\n        /* \"Fundraising_flat.sol\":25958:26075  function amountUntilReachTarget() public view returns (uint256){... */\n    tag_26:\n      tag_117\n      tag_118\n      jump\t// in\n    tag_117:\n      mload(0x40)\n      tag_119\n      swap2\n      swap1\n      tag_39\n      jump\t// in\n    tag_119:\n      mload(0x40)\n      dup1\n      swap2\n      sub\n      swap1\n      return\n        /* \"Fundraising_flat.sol\":15195:15344  function allowance(address owner, address spender) public view virtual override returns (uint256) {... */\n    tag_27:\n      tag_120\n      0x04\n      dup1\n      calldatasize\n      sub\n      dup2\n      add\n      swap1\n      tag_121\n      swap2\n      swap1\n      tag_122\n      jump\t// in\n    tag_121:\n      tag_123\n      jump\t// in\n    tag_120:\n      mload(0x40)\n      tag_124\n      swap2\n      swap1\n      tag_39\n      jump\t// in\n    tag_124:\n      mload(0x40)\n      dup1\n      swap2\n      sub\n      swap1\n      return\n        /* \"Fundraising_flat.sol\":13375:13473  function name() public view virtual override returns (string memory) {... */\n    tag_33:\n        /* \"Fundraising_flat.sol\":13429:13442  string memory */\n      0x60\n        /* \"Fundraising_flat.sol\":13461:13466  _name */\n      0x03\n        /* \"Fundraising_flat.sol\":13454:13466  return _name */\n      dup1\n      sload\n      tag_126\n      swap1\n      tag_127\n      jump\t// in\n    tag_126:\n      dup1\n      0x1f\n      add\n      0x20\n      dup1\n      swap2\n      div\n      mul\n      0x20\n      add\n      mload(0x40)\n      swap1\n      dup2\n      add\n      0x40\n      mstore\n      dup1\n      swap3\n      swap2\n      swap1\n      dup2\n      dup2\n      mstore\n      0x20\n      add\n      dup3\n      dup1\n      sload\n      tag_128\n      swap1\n      tag_127\n      jump\t// in\n    tag_128:\n      dup1\n      iszero\n      tag_129\n      jumpi\n      dup1\n      0x1f\n      lt\n      tag_130\n      jumpi\n      0x0100\n      dup1\n      dup4\n      sload\n      div\n      mul\n      dup4\n      mstore\n      swap2\n      0x20\n      add\n      swap2\n      jump(tag_129)\n    tag_130:\n      dup3\n      add\n      swap2\n      swap1\n      0x00\n      mstore\n      keccak256(0x00, 0x20)\n      swap1\n    tag_131:\n      dup2\n      sload\n      dup2\n      mstore\n      swap1\n      0x01\n      add\n      swap1\n      0x20\n      add\n      dup1\n      dup4\n      gt\n      tag_131\n      jumpi\n      dup3\n      swap1\n      sub\n      0x1f\n      and\n      dup3\n      add\n      swap2\n    tag_129:\n      pop\n      pop\n      pop\n      pop\n      pop\n      swap1\n      pop\n        /* \"Fundraising_flat.sol\":13375:13473  function name() public view virtual override returns (string memory) {... */\n      swap1\n      jump\t// out\n        /* \"Fundraising_flat.sol\":24866:24900  uint256 public dataAccessThreshold */\n    tag_37:\n      sload(0x08)\n      dup2\n      jump\t// out\n        /* \"Fundraising_flat.sol\":15652:15849  function approve(address spender, uint256 amount) public virtual override returns (bool) {... */\n    tag_43:\n        /* \"Fundraising_flat.sol\":15735:15739  bool */\n      0x00\n        /* \"Fundraising_flat.sol\":15751:15764  address owner */\n      dup1\n        /* \"Fundraising_flat.sol\":15767:15779  _msgSender() */\n      tag_133\n        /* \"Fundraising_flat.sol\":15767:15777  _msgSender */\n      tag_134\n        /* \"Fundraising_flat.sol\":15767:15779  _msgSender() */\n      jump\t// in\n    tag_133:\n        /* \"Fundraising_flat.sol\":15751:15779  address owner = _msgSender() */\n      swap1\n      pop\n        /* \"Fundraising_flat.sol\":15789:15821  _approve(owner, spender, amount) */\n      tag_135\n        /* \"Fundraising_flat.sol\":15798:15803  owner */\n      dup2\n        /* \"Fundraising_flat.sol\":15805:15812  spender */\n      dup6\n        /* \"Fundraising_flat.sol\":15814:15820  amount */\n      dup6\n        /* \"Fundraising_flat.sol\":15789:15797  _approve */\n      tag_136\n        /* \"Fundraising_flat.sol\":15789:15821  _approve(owner, spender, amount) */\n      jump\t// in\n    tag_135:\n        /* \"Fundraising_flat.sol\":15838:15842  true */\n      0x01\n        /* \"Fundraising_flat.sol\":15831:15842  return true */\n      swap2\n      pop\n      pop\n        /* \"Fundraising_flat.sol\":15652:15849  function approve(address spender, uint256 amount) public virtual override returns (bool) {... */\n      swap3\n      swap2\n      pop\n      pop\n      jump\t// out\n        /* \"Fundraising_flat.sol\":25025:25059  bool public istargetRaised = false */\n    tag_47:\n      0x09\n      0x01\n      swap1\n      sload\n      swap1\n      0x0100\n      exp\n      swap1\n      div\n      0xff\n      and\n      dup2\n      jump\t// out\n        /* \"Fundraising_flat.sol\":24593:24611  IERC20 public coin */\n    tag_50:\n      0x05\n      0x00\n      swap1\n      sload\n      swap1\n      0x0100\n      exp\n      swap1\n      div\n      0xffffffffffffffffffffffffffffffffffffffff\n      and\n      dup2\n      jump\t// out\n        /* \"Fundraising_flat.sol\":25639:25804  function onERC721Received(address, address, uint256, bytes calldata) external pure returns (bytes4) {... */\n    tag_56:\n        /* \"Fundraising_flat.sol\":25731:25737  bytes4 */\n      0x00\n        /* \"Fundraising_flat.sol\":25756:25797  IERC721Receiver.onERC721Received.selector */\n      shl(0xe0, 0x150b7a02)\n        /* \"Fundraising_flat.sol\":25749:25797  return IERC721Receiver.onERC721Received.selector */\n      swap1\n      pop\n        /* \"Fundraising_flat.sol\":25639:25804  function onERC721Received(address, address, uint256, bytes calldata) external pure returns (bytes4) {... */\n      swap6\n      swap5\n      pop\n      pop\n      pop\n      pop\n      pop\n      jump\t// out\n        /* \"Fundraising_flat.sol\":24991:25018  bool public _paused = false */\n    tag_60:\n      0x09\n      0x00\n      swap1\n      sload\n      swap1\n      0x0100\n      exp\n      swap1\n      div\n      0xff\n      and\n      dup2\n      jump\t// out\n        /* \"Fundraising_flat.sol\":14463:14569  function totalSupply() public view virtual override returns (uint256) {... */\n    tag_63:\n        /* \"Fundraising_flat.sol\":14524:14531  uint256 */\n      0x00\n        /* \"Fundraising_flat.sol\":14550:14562  _totalSupply */\n      sload(0x02)\n        /* \"Fundraising_flat.sol\":14543:14562  return _totalSupply */\n      swap1\n      pop\n        /* \"Fundraising_flat.sol\":14463:14569  function totalSupply() public view virtual override returns (uint256) {... */\n      swap1\n      jump\t// out\n        /* \"Fundraising_flat.sol\":26748:27142  function withdrawInvestment(uint256 value) external {... */\n    tag_68:\n        /* \"Fundraising_flat.sol\":26820:26834  istargetRaised */\n      0x09\n      0x01\n      swap1\n      sload\n      swap1\n      0x0100\n      exp\n      swap1\n      div\n      0xff\n      and\n        /* \"Fundraising_flat.sol\":26819:26834  !istargetRaised */\n      iszero\n        /* \"Fundraising_flat.sol\":26810:26861  require( !istargetRaised, \"Target Already Raised\" ) */\n      tag_140\n      jumpi\n      mload(0x40)\n      0x08c379a000000000000000000000000000000000000000000000000000000000\n      dup2\n      mstore\n      0x04\n      add\n      tag_141\n      swap1\n      tag_142\n      jump\t// in\n    tag_141:\n      mload(0x40)\n      dup1\n      swap2\n      sub\n      swap1\n      revert\n    tag_140:\n        /* \"Fundraising_flat.sol\":26888:26909  balanceOf(msg.sender) */\n      tag_143\n        /* \"Fundraising_flat.sol\":26898:26908  msg.sender */\n      caller\n        /* \"Fundraising_flat.sol\":26888:26897  balanceOf */\n      tag_90\n        /* \"Fundraising_flat.sol\":26888:26909  balanceOf(msg.sender) */\n      jump\t// in\n    tag_143:\n        /* \"Fundraising_flat.sol\":26879:26884  value */\n      dup2\n        /* \"Fundraising_flat.sol\":26879:26909  value <= balanceOf(msg.sender) */\n      gt\n      iszero\n        /* \"Fundraising_flat.sol\":26871:26939  require(value <= balanceOf(msg.sender), \"Not Great Enough Balance!\") */\n      tag_144\n      jumpi\n      mload(0x40)\n      0x08c379a000000000000000000000000000000000000000000000000000000000\n      dup2\n      mstore\n      0x04\n      add\n      tag_145\n      swap1\n      tag_146\n      jump\t// in\n    tag_145:\n      mload(0x40)\n      dup1\n      swap2\n      sub\n      swap1\n      revert\n    tag_144:\n        /* \"Fundraising_flat.sol\":27038:27042  coin */\n      0x05\n      0x00\n      swap1\n      sload\n      swap1\n      0x0100\n      exp\n      swap1\n      div\n      0xffffffffffffffffffffffffffffffffffffffff\n      and\n        /* \"Fundraising_flat.sol\":27038:27051  coin.transfer */\n      0xffffffffffffffffffffffffffffffffffffffff\n      and\n      0xa9059cbb\n        /* \"Fundraising_flat.sol\":27052:27062  msg.sender */\n      caller\n        /* \"Fundraising_flat.sol\":27064:27069  value */\n      dup4\n        /* \"Fundraising_flat.sol\":27038:27070  coin.transfer(msg.sender, value) */\n      mload(0x40)\n      dup4\n      0xffffffff\n      and\n      0xe0\n      shl\n      dup2\n      mstore\n      0x04\n      add\n      tag_147\n      swap3\n      swap2\n      swap1\n      tag_148\n      jump\t// in\n    tag_147:\n      0x20\n      mload(0x40)\n      dup1\n      dup4\n      sub\n      dup2\n      0x00\n      dup8\n      dup1\n      extcodesize\n      iszero\n      dup1\n      iszero\n      tag_149\n      jumpi\n      0x00\n      dup1\n      revert\n    tag_149:\n      pop\n      gas\n      call\n      iszero\n      dup1\n      iszero\n      tag_151\n      jumpi\n      returndatasize\n      0x00\n      dup1\n      returndatacopy\n      revert(0x00, returndatasize)\n    tag_151:\n      pop\n      pop\n      pop\n      pop\n      mload(0x40)\n      returndatasize\n      not(0x1f)\n      0x1f\n      dup3\n      add\n      and\n      dup3\n      add\n      dup1\n      0x40\n      mstore\n      pop\n      dup2\n      add\n      swap1\n      tag_152\n      swap2\n      swap1\n      tag_153\n      jump\t// in\n    tag_152:\n      pop\n        /* \"Fundraising_flat.sol\":27096:27101  value */\n      dup1\n        /* \"Fundraising_flat.sol\":27080:27092  amountRaised */\n      0x07\n      0x00\n        /* \"Fundraising_flat.sol\":27080:27101  amountRaised -= value */\n      dup3\n      dup3\n      sload\n      tag_154\n      swap2\n      swap1\n      tag_155\n      jump\t// in\n    tag_154:\n      swap3\n      pop\n      pop\n      dup2\n      swap1\n      sstore\n      pop\n        /* \"Fundraising_flat.sol\":27111:27135  _burn(msg.sender, value) */\n      tag_156\n        /* \"Fundraising_flat.sol\":27117:27127  msg.sender */\n      caller\n        /* \"Fundraising_flat.sol\":27129:27134  value */\n      dup3\n        /* \"Fundraising_flat.sol\":27111:27116  _burn */\n      tag_157\n        /* \"Fundraising_flat.sol\":27111:27135  _burn(msg.sender, value) */\n      jump\t// in\n    tag_156:\n        /* \"Fundraising_flat.sol\":26748:27142  function withdrawInvestment(uint256 value) external {... */\n      pop\n      jump\t// out\n        /* \"Fundraising_flat.sol\":16411:16697  function transferFrom(... */\n    tag_72:\n        /* \"Fundraising_flat.sol\":16538:16542  bool */\n      0x00\n        /* \"Fundraising_flat.sol\":16554:16569  address spender */\n      dup1\n        /* \"Fundraising_flat.sol\":16572:16584  _msgSender() */\n      tag_159\n        /* \"Fundraising_flat.sol\":16572:16582  _msgSender */\n      tag_134\n        /* \"Fundraising_flat.sol\":16572:16584  _msgSender() */\n      jump\t// in\n    tag_159:\n        /* \"Fundraising_flat.sol\":16554:16584  address spender = _msgSender() */\n      swap1\n      pop\n        /* \"Fundraising_flat.sol\":16594:16632  _spendAllowance(from, spender, amount) */\n      tag_160\n        /* \"Fundraising_flat.sol\":16610:16614  from */\n      dup6\n        /* \"Fundraising_flat.sol\":16616:16623  spender */\n      dup3\n        /* \"Fundraising_flat.sol\":16625:16631  amount */\n      dup6\n        /* \"Fundraising_flat.sol\":16594:16609  _spendAllowance */\n      tag_161\n        /* \"Fundraising_flat.sol\":16594:16632  _spendAllowance(from, spender, amount) */\n      jump\t// in\n    tag_160:\n        /* \"Fundraising_flat.sol\":16642:16669  _transfer(from, to, amount) */\n      tag_162\n        /* \"Fundraising_flat.sol\":16652:16656  from */\n      dup6\n        /* \"Fundraising_flat.sol\":16658:16660  to */\n      dup6\n        /* \"Fundraising_flat.sol\":16662:16668  amount */\n      dup6\n        /* \"Fundraising_flat.sol\":16642:16651  _transfer */\n      tag_163\n        /* \"Fundraising_flat.sol\":16642:16669  _transfer(from, to, amount) */\n      jump\t// in\n    tag_162:\n        /* \"Fundraising_flat.sol\":16686:16690  true */\n      0x01\n        /* \"Fundraising_flat.sol\":16679:16690  return true */\n      swap2\n      pop\n      pop\n        /* \"Fundraising_flat.sol\":16411:16697  function transferFrom(... */\n      swap4\n      swap3\n      pop\n      pop\n      pop\n      jump\t// out\n        /* \"Fundraising_flat.sol\":26137:26646  function invest(uint256 value) external {... */\n    tag_76:\n        /* \"Fundraising_flat.sol\":26197:26211  istargetRaised */\n      0x09\n      0x01\n      swap1\n      sload\n      swap1\n      0x0100\n      exp\n      swap1\n      div\n      0xff\n      and\n        /* \"Fundraising_flat.sol\":26196:26211  !istargetRaised */\n      iszero\n        /* \"Fundraising_flat.sol\":26187:26238  require( !istargetRaised, \"Target Already Raised\" ) */\n      tag_165\n      jumpi\n      mload(0x40)\n      0x08c379a000000000000000000000000000000000000000000000000000000000\n      dup2\n      mstore\n      0x04\n      add\n      tag_166\n      swap1\n      tag_142\n      jump\t// in\n    tag_166:\n      mload(0x40)\n      dup1\n      swap2\n      sub\n      swap1\n      revert\n    tag_165:\n        /* \"Fundraising_flat.sol\":26280:26293  totalSupply() */\n      tag_167\n        /* \"Fundraising_flat.sol\":26280:26291  totalSupply */\n      tag_63\n        /* \"Fundraising_flat.sol\":26280:26293  totalSupply() */\n      jump\t// in\n    tag_167:\n        /* \"Fundraising_flat.sol\":26265:26277  targetAmount */\n      sload(0x06)\n        /* \"Fundraising_flat.sol\":26265:26293  targetAmount - totalSupply() */\n      tag_168\n      swap2\n      swap1\n      tag_155\n      jump\t// in\n    tag_168:\n        /* \"Fundraising_flat.sol\":26256:26261  value */\n      dup2\n        /* \"Fundraising_flat.sol\":26256:26293  value <= targetAmount - totalSupply() */\n      gt\n      iszero\n        /* \"Fundraising_flat.sol\":26248:26321  require(value <= targetAmount - totalSupply(), \"Not enough shares left!\") */\n      tag_169\n      jumpi\n      mload(0x40)\n      0x08c379a000000000000000000000000000000000000000000000000000000000\n      dup2\n      mstore\n      0x04\n      add\n      tag_170\n      swap1\n      tag_171\n      jump\t// in\n    tag_170:\n      mload(0x40)\n      dup1\n      swap2\n      sub\n      swap1\n      revert\n    tag_169:\n        /* \"Fundraising_flat.sol\":26341:26348  _paused */\n      0x09\n      0x00\n      swap1\n      sload\n      swap1\n      0x0100\n      exp\n      swap1\n      div\n      0xff\n      and\n        /* \"Fundraising_flat.sol\":26340:26348  !_paused */\n      iszero\n        /* \"Fundraising_flat.sol\":26331:26372  require( !_paused, \"Contract Is Paused\" ) */\n      tag_172\n      jumpi\n      mload(0x40)\n      0x08c379a000000000000000000000000000000000000000000000000000000000\n      dup2\n      mstore\n      0x04\n      add\n      tag_173\n      swap1\n      tag_174\n      jump\t// in\n    tag_173:\n      mload(0x40)\n      dup1\n      swap2\n      sub\n      swap1\n      revert\n    tag_172:\n        /* \"Fundraising_flat.sol\":26383:26387  coin */\n      0x05\n      0x00\n      swap1\n      sload\n      swap1\n      0x0100\n      exp\n      swap1\n      div\n      0xffffffffffffffffffffffffffffffffffffffff\n      and\n        /* \"Fundraising_flat.sol\":26383:26400  coin.transferFrom */\n      0xffffffffffffffffffffffffffffffffffffffff\n      and\n      0x23b872dd\n        /* \"Fundraising_flat.sol\":26401:26411  msg.sender */\n      caller\n        /* \"Fundraising_flat.sol\":26421:26425  this */\n      address\n        /* \"Fundraising_flat.sol\":26428:26433  value */\n      dup5\n        /* \"Fundraising_flat.sol\":26383:26434  coin.transferFrom(msg.sender, address(this), value) */\n      mload(0x40)\n      dup5\n      0xffffffff\n      and\n      0xe0\n      shl\n      dup2\n      mstore\n      0x04\n      add\n      tag_175\n      swap4\n      swap3\n      swap2\n      swap1\n      tag_176\n      jump\t// in\n    tag_175:\n      0x20\n      mload(0x40)\n      dup1\n      dup4\n      sub\n      dup2\n      0x00\n      dup8\n      dup1\n      extcodesize\n      iszero\n      dup1\n      iszero\n      tag_177\n      jumpi\n      0x00\n      dup1\n      revert\n    tag_177:\n      pop\n      gas\n      call\n      iszero\n      dup1\n      iszero\n      tag_179\n      jumpi\n      returndatasize\n      0x00\n      dup1\n      returndatacopy\n      revert(0x00, returndatasize)\n    tag_179:\n      pop\n      pop\n      pop\n      pop\n      mload(0x40)\n      returndatasize\n      not(0x1f)\n      0x1f\n      dup3\n      add\n      and\n      dup3\n      add\n      dup1\n      0x40\n      mstore\n      pop\n      dup2\n      add\n      swap1\n      tag_180\n      swap2\n      swap1\n      tag_153\n      jump\t// in\n    tag_180:\n      pop\n        /* \"Fundraising_flat.sol\":26460:26465  value */\n      dup1\n        /* \"Fundraising_flat.sol\":26444:26456  amountRaised */\n      0x07\n      0x00\n        /* \"Fundraising_flat.sol\":26444:26465  amountRaised += value */\n      dup3\n      dup3\n      sload\n      tag_181\n      swap2\n      swap1\n      tag_182\n      jump\t// in\n    tag_181:\n      swap3\n      pop\n      pop\n      dup2\n      swap1\n      sstore\n      pop\n        /* \"Fundraising_flat.sol\":26475:26499  _mint(msg.sender, value) */\n      tag_183\n        /* \"Fundraising_flat.sol\":26481:26491  msg.sender */\n      caller\n        /* \"Fundraising_flat.sol\":26493:26498  value */\n      dup3\n        /* \"Fundraising_flat.sol\":26475:26480  _mint */\n      tag_184\n        /* \"Fundraising_flat.sol\":26475:26499  _mint(msg.sender, value) */\n      jump\t// in\n    tag_183:\n        /* \"Fundraising_flat.sol\":26530:26543  totalSupply() */\n      tag_185\n        /* \"Fundraising_flat.sol\":26530:26541  totalSupply */\n      tag_63\n        /* \"Fundraising_flat.sol\":26530:26543  totalSupply() */\n      jump\t// in\n    tag_185:\n        /* \"Fundraising_flat.sol\":26514:26526  targetAmount */\n      sload(0x06)\n        /* \"Fundraising_flat.sol\":26514:26543  targetAmount == totalSupply() */\n      eq\n        /* \"Fundraising_flat.sol\":26510:26640  if (targetAmount == totalSupply()) { ... */\n      iszero\n      tag_186\n      jumpi\n        /* \"Fundraising_flat.sol\":26560:26564  coin */\n      0x05\n      0x00\n      swap1\n      sload\n      swap1\n      0x0100\n      exp\n      swap1\n      div\n      0xffffffffffffffffffffffffffffffffffffffff\n      and\n        /* \"Fundraising_flat.sol\":26560:26573  coin.transfer */\n      0xffffffffffffffffffffffffffffffffffffffff\n      and\n      0xa9059cbb\n        /* \"Fundraising_flat.sol\":26574:26579  admin */\n      0x09\n      0x02\n      swap1\n      sload\n      swap1\n      0x0100\n      exp\n      swap1\n      div\n      0xffffffffffffffffffffffffffffffffffffffff\n      and\n        /* \"Fundraising_flat.sol\":26581:26593  targetAmount */\n      sload(0x06)\n        /* \"Fundraising_flat.sol\":26560:26594  coin.transfer(admin, targetAmount) */\n      mload(0x40)\n      dup4\n      0xffffffff\n      and\n      0xe0\n      shl\n      dup2\n      mstore\n      0x04\n      add\n      tag_187\n      swap3\n      swap2\n      swap1\n      tag_148\n      jump\t// in\n    tag_187:\n      0x20\n      mload(0x40)\n      dup1\n      dup4\n      sub\n      dup2\n      0x00\n      dup8\n      dup1\n      extcodesize\n      iszero\n      dup1\n      iszero\n      tag_188\n      jumpi\n      0x00\n      dup1\n      revert\n    tag_188:\n      pop\n      gas\n      call\n      iszero\n      dup1\n      iszero\n      tag_190\n      jumpi\n      returndatasize\n      0x00\n      dup1\n      returndatacopy\n      revert(0x00, returndatasize)\n    tag_190:\n      pop\n      pop\n      pop\n      pop\n      mload(0x40)\n      returndatasize\n      not(0x1f)\n      0x1f\n      dup3\n      add\n      and\n      dup3\n      add\n      dup1\n      0x40\n      mstore\n      pop\n      dup2\n      add\n      swap1\n      tag_191\n      swap2\n      swap1\n      tag_153\n      jump\t// in\n    tag_191:\n      pop\n        /* \"Fundraising_flat.sol\":26625:26629  true */\n      0x01\n        /* \"Fundraising_flat.sol\":26608:26622  istargetRaised */\n      0x09\n      0x01\n        /* \"Fundraising_flat.sol\":26608:26629  istargetRaised = true */\n      0x0100\n      exp\n      dup2\n      sload\n      dup2\n      0xff\n      mul\n      not\n      and\n      swap1\n      dup4\n      iszero\n      iszero\n      mul\n      or\n      swap1\n      sstore\n      pop\n        /* \"Fundraising_flat.sol\":26510:26640  if (targetAmount == totalSupply()) { ... */\n    tag_186:\n        /* \"Fundraising_flat.sol\":26137:26646  function invest(uint256 value) external {... */\n      pop\n      jump\t// out\n        /* \"Fundraising_flat.sol\":14312:14403  function decimals() public view virtual override returns (uint8) {... */\n    tag_78:\n        /* \"Fundraising_flat.sol\":14370:14375  uint8 */\n      0x00\n        /* \"Fundraising_flat.sol\":14394:14396  18 */\n      0x12\n        /* \"Fundraising_flat.sol\":14387:14396  return 18 */\n      swap1\n      pop\n        /* \"Fundraising_flat.sol\":14312:14403  function decimals() public view virtual override returns (uint8) {... */\n      swap1\n      jump\t// out\n        /* \"Fundraising_flat.sol\":17092:17326  function increaseAllowance(address spender, uint256 addedValue) public virtual returns (bool) {... */\n    tag_83:\n        /* \"Fundraising_flat.sol\":17180:17184  bool */\n      0x00\n        /* \"Fundraising_flat.sol\":17196:17209  address owner */\n      dup1\n        /* \"Fundraising_flat.sol\":17212:17224  _msgSender() */\n      tag_194\n        /* \"Fundraising_flat.sol\":17212:17222  _msgSender */\n      tag_134\n        /* \"Fundraising_flat.sol\":17212:17224  _msgSender() */\n      jump\t// in\n    tag_194:\n        /* \"Fundraising_flat.sol\":17196:17224  address owner = _msgSender() */\n      swap1\n      pop\n        /* \"Fundraising_flat.sol\":17234:17298  _approve(owner, spender, allowance(owner, spender) + addedValue) */\n      tag_195\n        /* \"Fundraising_flat.sol\":17243:17248  owner */\n      dup2\n        /* \"Fundraising_flat.sol\":17250:17257  spender */\n      dup6\n        /* \"Fundraising_flat.sol\":17287:17297  addedValue */\n      dup6\n        /* \"Fundraising_flat.sol\":17259:17284  allowance(owner, spender) */\n      tag_196\n        /* \"Fundraising_flat.sol\":17269:17274  owner */\n      dup6\n        /* \"Fundraising_flat.sol\":17276:17283  spender */\n      dup10\n        /* \"Fundraising_flat.sol\":17259:17268  allowance */\n      tag_123\n        /* \"Fundraising_flat.sol\":17259:17284  allowance(owner, spender) */\n      jump\t// in\n    tag_196:\n        /* \"Fundraising_flat.sol\":17259:17297  allowance(owner, spender) + addedValue */\n      tag_197\n      swap2\n      swap1\n      tag_182\n      jump\t// in\n    tag_197:\n        /* \"Fundraising_flat.sol\":17234:17242  _approve */\n      tag_136\n        /* \"Fundraising_flat.sol\":17234:17298  _approve(owner, spender, allowance(owner, spender) + addedValue) */\n      jump\t// in\n    tag_195:\n        /* \"Fundraising_flat.sol\":17315:17319  true */\n      0x01\n        /* \"Fundraising_flat.sol\":17308:17319  return true */\n      swap2\n      pop\n      pop\n        /* \"Fundraising_flat.sol\":17092:17326  function increaseAllowance(address spender, uint256 addedValue) public virtual returns (bool) {... */\n      swap3\n      swap2\n      pop\n      pop\n      jump\t// out\n        /* \"Fundraising_flat.sol\":25883:25952  function unpause() onlyOwner external{... */\n    tag_86:\n        /* \"Fundraising_flat.sol\":25504:25509  admin */\n      0x09\n      0x02\n      swap1\n      sload\n      swap1\n      0x0100\n      exp\n      swap1\n      div\n      0xffffffffffffffffffffffffffffffffffffffff\n      and\n        /* \"Fundraising_flat.sol\":25490:25509  msg.sender == admin */\n      0xffffffffffffffffffffffffffffffffffffffff\n      and\n        /* \"Fundraising_flat.sol\":25490:25500  msg.sender */\n      caller\n        /* \"Fundraising_flat.sol\":25490:25509  msg.sender == admin */\n      0xffffffffffffffffffffffffffffffffffffffff\n      and\n      eq\n        /* \"Fundraising_flat.sol\":25482:25542  require(msg.sender == admin, \"Only Admin Can Pause/Unpause\") */\n      tag_199\n      jumpi\n      mload(0x40)\n      0x08c379a000000000000000000000000000000000000000000000000000000000\n      dup2\n      mstore\n      0x04\n      add\n      tag_200\n      swap1\n      tag_201\n      jump\t// in\n    tag_200:\n      mload(0x40)\n      dup1\n      swap2\n      sub\n      swap1\n      revert\n    tag_199:\n        /* \"Fundraising_flat.sol\":25940:25945  false */\n      0x00\n        /* \"Fundraising_flat.sol\":25930:25937  _paused */\n      0x09\n      0x00\n        /* \"Fundraising_flat.sol\":25930:25945  _paused = false */\n      0x0100\n      exp\n      dup2\n      sload\n      dup2\n      0xff\n      mul\n      not\n      and\n      swap1\n      dup4\n      iszero\n      iszero\n      mul\n      or\n      swap1\n      sstore\n      pop\n        /* \"Fundraising_flat.sol\":25883:25952  function unpause() onlyOwner external{... */\n      jump\t// out\n        /* \"Fundraising_flat.sol\":14627:14752  function balanceOf(address account) public view virtual override returns (uint256) {... */\n    tag_90:\n        /* \"Fundraising_flat.sol\":14701:14708  uint256 */\n      0x00\n        /* \"Fundraising_flat.sol\":14727:14736  _balances */\n      dup1\n        /* \"Fundraising_flat.sol\":14727:14745  _balances[account] */\n      0x00\n        /* \"Fundraising_flat.sol\":14737:14744  account */\n      dup4\n        /* \"Fundraising_flat.sol\":14727:14745  _balances[account] */\n      0xffffffffffffffffffffffffffffffffffffffff\n      and\n      0xffffffffffffffffffffffffffffffffffffffff\n      and\n      dup2\n      mstore\n      0x20\n      add\n      swap1\n      dup2\n      mstore\n      0x20\n      add\n      0x00\n      keccak256\n      sload\n        /* \"Fundraising_flat.sol\":14720:14745  return _balances[account] */\n      swap1\n      pop\n        /* \"Fundraising_flat.sol\":14627:14752  function balanceOf(address account) public view virtual override returns (uint256) {... */\n      swap2\n      swap1\n      pop\n      jump\t// out\n        /* \"Fundraising_flat.sol\":27259:27535  function redeemNFT() external {... */\n    tag_93:\n        /* \"Fundraising_flat.sol\":27333:27345  targetAmount */\n      sload(0x06)\n        /* \"Fundraising_flat.sol\":27308:27329  balanceOf(msg.sender) */\n      tag_205\n        /* \"Fundraising_flat.sol\":27318:27328  msg.sender */\n      caller\n        /* \"Fundraising_flat.sol\":27308:27317  balanceOf */\n      tag_90\n        /* \"Fundraising_flat.sol\":27308:27329  balanceOf(msg.sender) */\n      jump\t// in\n    tag_205:\n        /* \"Fundraising_flat.sol\":27308:27345  balanceOf(msg.sender) == targetAmount */\n      eq\n        /* \"Fundraising_flat.sol\":27299:27379  require( balanceOf(msg.sender) == targetAmount, \"Do Not Have RFT Total Supply\" ) */\n      tag_206\n      jumpi\n      mload(0x40)\n      0x08c379a000000000000000000000000000000000000000000000000000000000\n      dup2\n      mstore\n      0x04\n      add\n      tag_207\n      swap1\n      tag_208\n      jump\t// in\n    tag_207:\n      mload(0x40)\n      dup1\n      swap2\n      sub\n      swap1\n      revert\n    tag_206:\n        /* \"Fundraising_flat.sol\":27389:27422  _burn(msg.sender, totalSupply() ) */\n      tag_209\n        /* \"Fundraising_flat.sol\":27395:27405  msg.sender */\n      caller\n        /* \"Fundraising_flat.sol\":27407:27420  totalSupply() */\n      tag_210\n        /* \"Fundraising_flat.sol\":27407:27418  totalSupply */\n      tag_63\n        /* \"Fundraising_flat.sol\":27407:27420  totalSupply() */\n      jump\t// in\n    tag_210:\n        /* \"Fundraising_flat.sol\":27389:27394  _burn */\n      tag_157\n        /* \"Fundraising_flat.sol\":27389:27422  _burn(msg.sender, totalSupply() ) */\n      jump\t// in\n    tag_209:\n        /* \"Fundraising_flat.sol\":27432:27450  projectMarketplace */\n      immutable(\"0x1953a27a405e8582cf1be8a2db4a8d6898082fbed25ec72fb4b95dbd76ab849b\")\n        /* \"Fundraising_flat.sol\":27432:27467  projectMarketplace.safeTransferFrom */\n      0xffffffffffffffffffffffffffffffffffffffff\n      and\n      0x42842e0e\n        /* \"Fundraising_flat.sol\":27477:27481  this */\n      address\n        /* \"Fundraising_flat.sol\":27484:27494  msg.sender */\n      caller\n        /* \"Fundraising_flat.sol\":27520:27524  this */\n      address\n        /* \"Fundraising_flat.sol\":27496:27527  uint256(uint160(address(this))) */\n      0xffffffffffffffffffffffffffffffffffffffff\n      and\n        /* \"Fundraising_flat.sol\":27432:27528  projectMarketplace.safeTransferFrom( address(this), msg.sender, uint256(uint160(address(this)))) */\n      mload(0x40)\n      dup5\n      0xffffffff\n      and\n      0xe0\n      shl\n      dup2\n      mstore\n      0x04\n      add\n      tag_211\n      swap4\n      swap3\n      swap2\n      swap1\n      tag_176\n      jump\t// in\n    tag_211:\n      0x00\n      mload(0x40)\n      dup1\n      dup4\n      sub\n      dup2\n      0x00\n      dup8\n      dup1\n      extcodesize\n      iszero\n      dup1\n      iszero\n      tag_212\n      jumpi\n      0x00\n      dup1\n      revert\n    tag_212:\n      pop\n      gas\n      call\n      iszero\n      dup1\n      iszero\n      tag_214\n      jumpi\n      returndatasize\n      0x00\n      dup1\n      returndatacopy\n      revert(0x00, returndatasize)\n    tag_214:\n      pop\n      pop\n      pop\n      pop\n        /* \"Fundraising_flat.sol\":27259:27535  function redeemNFT() external {... */\n      jump\t// out\n        /* \"Fundraising_flat.sol\":24833:24860  uint256 public amountRaised */\n    tag_95:\n      sload(0x07)\n      dup2\n      jump\t// out\n        /* \"Fundraising_flat.sol\":24677:24720  IERC721 public immutable projectMarketplace */\n    tag_98:\n      immutable(\"0x1953a27a405e8582cf1be8a2db4a8d6898082fbed25ec72fb4b95dbd76ab849b\")\n      dup2\n      jump\t// out\n        /* \"Fundraising_flat.sol\":25810:25877  function pause() onlyOwner external {... */\n    tag_102:\n        /* \"Fundraising_flat.sol\":25504:25509  admin */\n      0x09\n      0x02\n      swap1\n      sload\n      swap1\n      0x0100\n      exp\n      swap1\n      div\n      0xffffffffffffffffffffffffffffffffffffffff\n      and\n        /* \"Fundraising_flat.sol\":25490:25509  msg.sender == admin */\n      0xffffffffffffffffffffffffffffffffffffffff\n      and\n        /* \"Fundraising_flat.sol\":25490:25500  msg.sender */\n      caller\n        /* \"Fundraising_flat.sol\":25490:25509  msg.sender == admin */\n      0xffffffffffffffffffffffffffffffffffffffff\n      and\n      eq\n        /* \"Fundraising_flat.sol\":25482:25542  require(msg.sender == admin, \"Only Admin Can Pause/Unpause\") */\n      tag_216\n      jumpi\n      mload(0x40)\n      0x08c379a000000000000000000000000000000000000000000000000000000000\n      dup2\n      mstore\n      0x04\n      add\n      tag_217\n      swap1\n      tag_201\n      jump\t// in\n    tag_217:\n      mload(0x40)\n      dup1\n      swap2\n      sub\n      swap1\n      revert\n    tag_216:\n        /* \"Fundraising_flat.sol\":25866:25870  true */\n      0x01\n        /* \"Fundraising_flat.sol\":25856:25863  _paused */\n      0x09\n      0x00\n        /* \"Fundraising_flat.sol\":25856:25870  _paused = true */\n      0x0100\n      exp\n      dup2\n      sload\n      dup2\n      0xff\n      mul\n      not\n      and\n      swap1\n      dup4\n      iszero\n      iszero\n      mul\n      or\n      swap1\n      sstore\n      pop\n        /* \"Fundraising_flat.sol\":25810:25877  function pause() onlyOwner external {... */\n      jump\t// out\n        /* \"Fundraising_flat.sol\":24800:24827  uint256 public targetAmount */\n    tag_104:\n      sload(0x06)\n      dup2\n      jump\t// out\n        /* \"Fundraising_flat.sol\":13586:13688  function symbol() public view virtual override returns (string memory) {... */\n    tag_107:\n        /* \"Fundraising_flat.sol\":13642:13655  string memory */\n      0x60\n        /* \"Fundraising_flat.sol\":13674:13681  _symbol */\n      0x04\n        /* \"Fundraising_flat.sol\":13667:13681  return _symbol */\n      dup1\n      sload\n      tag_220\n      swap1\n      tag_127\n      jump\t// in\n    tag_220:\n      dup1\n      0x1f\n      add\n      0x20\n      dup1\n      swap2\n      div\n      mul\n      0x20\n      add\n      mload(0x40)\n      swap1\n      dup2\n      add\n      0x40\n      mstore\n      dup1\n      swap3\n      swap2\n      swap1\n      dup2\n      dup2\n      mstore\n      0x20\n      add\n      dup3\n      dup1\n      sload\n      tag_221\n      swap1\n      tag_127\n      jump\t// in\n    tag_221:\n      dup1\n      iszero\n      tag_222\n      jumpi\n      dup1\n      0x1f\n      lt\n      tag_223\n      jumpi\n      0x0100\n      dup1\n      dup4\n      sload\n      div\n      mul\n      dup4\n      mstore\n      swap2\n      0x20\n      add\n      swap2\n      jump(tag_222)\n    tag_223:\n      dup3\n      add\n      swap2\n      swap1\n      0x00\n      mstore\n      keccak256(0x00, 0x20)\n      swap1\n    tag_224:\n      dup2\n      sload\n      dup2\n      mstore\n      swap1\n      0x01\n      add\n      swap1\n      0x20\n      add\n      dup1\n      dup4\n      gt\n      tag_224\n      jumpi\n      dup3\n      swap1\n      sub\n      0x1f\n      and\n      dup3\n      add\n      swap2\n    tag_222:\n      pop\n      pop\n      pop\n      pop\n      pop\n      swap1\n      pop\n        /* \"Fundraising_flat.sol\":13586:13688  function symbol() public view virtual override returns (string memory) {... */\n      swap1\n      jump\t// out\n        /* \"Fundraising_flat.sol\":17813:18240  function decreaseAllowance(address spender, uint256 subtractedValue) public virtual returns (bool) {... */\n    tag_111:\n        /* \"Fundraising_flat.sol\":17906:17910  bool */\n      0x00\n        /* \"Fundraising_flat.sol\":17922:17935  address owner */\n      dup1\n        /* \"Fundraising_flat.sol\":17938:17950  _msgSender() */\n      tag_226\n        /* \"Fundraising_flat.sol\":17938:17948  _msgSender */\n      tag_134\n        /* \"Fundraising_flat.sol\":17938:17950  _msgSender() */\n      jump\t// in\n    tag_226:\n        /* \"Fundraising_flat.sol\":17922:17950  address owner = _msgSender() */\n      swap1\n      pop\n        /* \"Fundraising_flat.sol\":17960:17984  uint256 currentAllowance */\n      0x00\n        /* \"Fundraising_flat.sol\":17987:18012  allowance(owner, spender) */\n      tag_227\n        /* \"Fundraising_flat.sol\":17997:18002  owner */\n      dup3\n        /* \"Fundraising_flat.sol\":18004:18011  spender */\n      dup7\n        /* \"Fundraising_flat.sol\":17987:17996  allowance */\n      tag_123\n        /* \"Fundraising_flat.sol\":17987:18012  allowance(owner, spender) */\n      jump\t// in\n    tag_227:\n        /* \"Fundraising_flat.sol\":17960:18012  uint256 currentAllowance = allowance(owner, spender) */\n      swap1\n      pop\n        /* \"Fundraising_flat.sol\":18050:18065  subtractedValue */\n      dup4\n        /* \"Fundraising_flat.sol\":18030:18046  currentAllowance */\n      dup2\n        /* \"Fundraising_flat.sol\":18030:18065  currentAllowance >= subtractedValue */\n      lt\n      iszero\n        /* \"Fundraising_flat.sol\":18022:18107  require(currentAllowance >= subtractedValue, \"ERC20: decreased allowance below zero\") */\n      tag_228\n      jumpi\n      mload(0x40)\n      0x08c379a000000000000000000000000000000000000000000000000000000000\n      dup2\n      mstore\n      0x04\n      add\n      tag_229\n      swap1\n      tag_230\n      jump\t// in\n    tag_229:\n      mload(0x40)\n      dup1\n      swap2\n      sub\n      swap1\n      revert\n    tag_228:\n        /* \"Fundraising_flat.sol\":18141:18201  _approve(owner, spender, currentAllowance - subtractedValue) */\n      tag_231\n        /* \"Fundraising_flat.sol\":18150:18155  owner */\n      dup3\n        /* \"Fundraising_flat.sol\":18157:18164  spender */\n      dup7\n        /* \"Fundraising_flat.sol\":18185:18200  subtractedValue */\n      dup7\n        /* \"Fundraising_flat.sol\":18166:18182  currentAllowance */\n      dup5\n        /* \"Fundraising_flat.sol\":18166:18200  currentAllowance - subtractedValue */\n      sub\n        /* \"Fundraising_flat.sol\":18141:18149  _approve */\n      tag_136\n        /* \"Fundraising_flat.sol\":18141:18201  _approve(owner, spender, currentAllowance - subtractedValue) */\n      jump\t// in\n    tag_231:\n        /* \"Fundraising_flat.sol\":18229:18233  true */\n      0x01\n        /* \"Fundraising_flat.sol\":18222:18233  return true */\n      swap3\n      pop\n      pop\n      pop\n        /* \"Fundraising_flat.sol\":17813:18240  function decreaseAllowance(address spender, uint256 subtractedValue) public virtual returns (bool) {... */\n      swap3\n      swap2\n      pop\n      pop\n      jump\t// out\n        /* \"Fundraising_flat.sol\":14948:15137  function transfer(address to, uint256 amount) public virtual override returns (bool) {... */\n    tag_115:\n        /* \"Fundraising_flat.sol\":15027:15031  bool */\n      0x00\n        /* \"Fundraising_flat.sol\":15043:15056  address owner */\n      dup1\n        /* \"Fundraising_flat.sol\":15059:15071  _msgSender() */\n      tag_233\n        /* \"Fundraising_flat.sol\":15059:15069  _msgSender */\n      tag_134\n        /* \"Fundraising_flat.sol\":15059:15071  _msgSender() */\n      jump\t// in\n    tag_233:\n        /* \"Fundraising_flat.sol\":15043:15071  address owner = _msgSender() */\n      swap1\n      pop\n        /* \"Fundraising_flat.sol\":15081:15109  _transfer(owner, to, amount) */\n      tag_234\n        /* \"Fundraising_flat.sol\":15091:15096  owner */\n      dup2\n        /* \"Fundraising_flat.sol\":15098:15100  to */\n      dup6\n        /* \"Fundraising_flat.sol\":15102:15108  amount */\n      dup6\n        /* \"Fundraising_flat.sol\":15081:15090  _transfer */\n      tag_163\n        /* \"Fundraising_flat.sol\":15081:15109  _transfer(owner, to, amount) */\n      jump\t// in\n    tag_234:\n        /* \"Fundraising_flat.sol\":15126:15130  true */\n      0x01\n        /* \"Fundraising_flat.sol\":15119:15130  return true */\n      swap2\n      pop\n      pop\n        /* \"Fundraising_flat.sol\":14948:15137  function transfer(address to, uint256 amount) public virtual override returns (bool) {... */\n      swap3\n      swap2\n      pop\n      pop\n      jump\t// out\n        /* \"Fundraising_flat.sol\":25958:26075  function amountUntilReachTarget() public view returns (uint256){... */\n    tag_118:\n        /* \"Fundraising_flat.sol\":26013:26020  uint256 */\n      0x00\n        /* \"Fundraising_flat.sol\":26054:26066  amountRaised */\n      sload(0x07)\n        /* \"Fundraising_flat.sol\":26039:26051  targetAmount */\n      sload(0x06)\n        /* \"Fundraising_flat.sol\":26039:26066  targetAmount - amountRaised */\n      tag_236\n      swap2\n      swap1\n      tag_155\n      jump\t// in\n    tag_236:\n        /* \"Fundraising_flat.sol\":26031:26067  return (targetAmount - amountRaised) */\n      swap1\n      pop\n        /* \"Fundraising_flat.sol\":25958:26075  function amountUntilReachTarget() public view returns (uint256){... */\n      swap1\n      jump\t// out\n        /* \"Fundraising_flat.sol\":15195:15344  function allowance(address owner, address spender) public view virtual override returns (uint256) {... */\n    tag_123:\n        /* \"Fundraising_flat.sol\":15284:15291  uint256 */\n      0x00\n        /* \"Fundraising_flat.sol\":15310:15321  _allowances */\n      0x01\n        /* \"Fundraising_flat.sol\":15310:15328  _allowances[owner] */\n      0x00\n        /* \"Fundraising_flat.sol\":15322:15327  owner */\n      dup5\n        /* \"Fundraising_flat.sol\":15310:15328  _allowances[owner] */\n      0xffffffffffffffffffffffffffffffffffffffff\n      and\n      0xffffffffffffffffffffffffffffffffffffffff\n      and\n      dup2\n      mstore\n      0x20\n      add\n      swap1\n      dup2\n      mstore\n      0x20\n      add\n      0x00\n      keccak256\n        /* \"Fundraising_flat.sol\":15310:15337  _allowances[owner][spender] */\n      0x00\n        /* \"Fundraising_flat.sol\":15329:15336  spender */\n      dup4\n        /* \"Fundraising_flat.sol\":15310:15337  _allowances[owner][spender] */\n      0xffffffffffffffffffffffffffffffffffffffff\n      and\n      0xffffffffffffffffffffffffffffffffffffffff\n      and\n      dup2\n      mstore\n      0x20\n      add\n      swap1\n      dup2\n      mstore\n      0x20\n      add\n      0x00\n      keccak256\n      sload\n        /* \"Fundraising_flat.sol\":15303:15337  return _allowances[owner][spender] */\n      swap1\n      pop\n        /* \"Fundraising_flat.sol\":15195:15344  function allowance(address owner, address spender) public view virtual override returns (uint256) {... */\n      swap3\n      swap2\n      pop\n      pop\n      jump\t// out\n        /* \"Fundraising_flat.sol\":7467:7563  function _msgSender() internal view virtual returns (address) {... */\n    tag_134:\n        /* \"Fundraising_flat.sol\":7520:7527  address */\n      0x00\n        /* \"Fundraising_flat.sol\":7546:7556  msg.sender */\n      caller\n        /* \"Fundraising_flat.sol\":7539:7556  return msg.sender */\n      swap1\n      pop\n        /* \"Fundraising_flat.sol\":7467:7563  function _msgSender() internal view virtual returns (address) {... */\n      swap1\n      jump\t// out\n        /* \"Fundraising_flat.sol\":21338:21708  function _approve(... */\n    tag_136:\n        /* \"Fundraising_flat.sol\":21486:21487  0 */\n      0x00\n        /* \"Fundraising_flat.sol\":21469:21488  owner != address(0) */\n      0xffffffffffffffffffffffffffffffffffffffff\n      and\n        /* \"Fundraising_flat.sol\":21469:21474  owner */\n      dup4\n        /* \"Fundraising_flat.sol\":21469:21488  owner != address(0) */\n      0xffffffffffffffffffffffffffffffffffffffff\n      and\n      eq\n      iszero\n        /* \"Fundraising_flat.sol\":21461:21529  require(owner != address(0), \"ERC20: approve from the zero address\") */\n      tag_240\n      jumpi\n      mload(0x40)\n      0x08c379a000000000000000000000000000000000000000000000000000000000\n      dup2\n      mstore\n      0x04\n      add\n      tag_241\n      swap1\n      tag_242\n      jump\t// in\n    tag_241:\n      mload(0x40)\n      dup1\n      swap2\n      sub\n      swap1\n      revert\n    tag_240:\n        /* \"Fundraising_flat.sol\":21566:21567  0 */\n      0x00\n        /* \"Fundraising_flat.sol\":21547:21568  spender != address(0) */\n      0xffffffffffffffffffffffffffffffffffffffff\n      and\n        /* \"Fundraising_flat.sol\":21547:21554  spender */\n      dup3\n        /* \"Fundraising_flat.sol\":21547:21568  spender != address(0) */\n      0xffffffffffffffffffffffffffffffffffffffff\n      and\n      eq\n      iszero\n        /* \"Fundraising_flat.sol\":21539:21607  require(spender != address(0), \"ERC20: approve to the zero address\") */\n      tag_243\n      jumpi\n      mload(0x40)\n      0x08c379a000000000000000000000000000000000000000000000000000000000\n      dup2\n      mstore\n      0x04\n      add\n      tag_244\n      swap1\n      tag_245\n      jump\t// in\n    tag_244:\n      mload(0x40)\n      dup1\n      swap2\n      sub\n      swap1\n      revert\n    tag_243:\n        /* \"Fundraising_flat.sol\":21648:21654  amount */\n      dup1\n        /* \"Fundraising_flat.sol\":21618:21629  _allowances */\n      0x01\n        /* \"Fundraising_flat.sol\":21618:21636  _allowances[owner] */\n      0x00\n        /* \"Fundraising_flat.sol\":21630:21635  owner */\n      dup6\n        /* \"Fundraising_flat.sol\":21618:21636  _allowances[owner] */\n      0xffffffffffffffffffffffffffffffffffffffff\n      and\n      0xffffffffffffffffffffffffffffffffffffffff\n      and\n      dup2\n      mstore\n      0x20\n      add\n      swap1\n      dup2\n      mstore\n      0x20\n      add\n      0x00\n      keccak256\n        /* \"Fundraising_flat.sol\":21618:21645  _allowances[owner][spender] */\n      0x00\n        /* \"Fundraising_flat.sol\":21637:21644  spender */\n      dup5\n        /* \"Fundraising_flat.sol\":21618:21645  _allowances[owner][spender] */\n      0xffffffffffffffffffffffffffffffffffffffff\n      and\n      0xffffffffffffffffffffffffffffffffffffffff\n      and\n      dup2\n      mstore\n      0x20\n      add\n      swap1\n      dup2\n      mstore\n      0x20\n      add\n      0x00\n      keccak256\n        /* \"Fundraising_flat.sol\":21618:21654  _allowances[owner][spender] = amount */\n      dup2\n      swap1\n      sstore\n      pop\n        /* \"Fundraising_flat.sol\":21685:21692  spender */\n      dup2\n        /* \"Fundraising_flat.sol\":21669:21701  Approval(owner, spender, amount) */\n      0xffffffffffffffffffffffffffffffffffffffff\n      and\n        /* \"Fundraising_flat.sol\":21678:21683  owner */\n      dup4\n        /* \"Fundraising_flat.sol\":21669:21701  Approval(owner, spender, amount) */\n      0xffffffffffffffffffffffffffffffffffffffff\n      and\n      0x8c5be1e5ebec7d5bd14f71427d1e84f3dd0314c0f7b2291e5b200ac8c7c3b925\n        /* \"Fundraising_flat.sol\":21694:21700  amount */\n      dup4\n        /* \"Fundraising_flat.sol\":21669:21701  Approval(owner, spender, amount) */\n      mload(0x40)\n      tag_246\n      swap2\n      swap1\n      tag_39\n      jump\t// in\n    tag_246:\n      mload(0x40)\n      dup1\n      swap2\n      sub\n      swap1\n      log3\n        /* \"Fundraising_flat.sol\":21338:21708  function _approve(... */\n      pop\n      pop\n      pop\n      jump\t// out\n        /* \"Fundraising_flat.sol\":20339:20915  function _burn(address account, uint256 amount) internal virtual {... */\n    tag_157:\n        /* \"Fundraising_flat.sol\":20441:20442  0 */\n      0x00\n        /* \"Fundraising_flat.sol\":20422:20443  account != address(0) */\n      0xffffffffffffffffffffffffffffffffffffffff\n      and\n        /* \"Fundraising_flat.sol\":20422:20429  account */\n      dup3\n        /* \"Fundraising_flat.sol\":20422:20443  account != address(0) */\n      0xffffffffffffffffffffffffffffffffffffffff\n      and\n      eq\n      iszero\n        /* \"Fundraising_flat.sol\":20414:20481  require(account != address(0), \"ERC20: burn from the zero address\") */\n      tag_248\n      jumpi\n      mload(0x40)\n      0x08c379a000000000000000000000000000000000000000000000000000000000\n      dup2\n      mstore\n      0x04\n      add\n      tag_249\n      swap1\n      tag_250\n      jump\t// in\n    tag_249:\n      mload(0x40)\n      dup1\n      swap2\n      sub\n      swap1\n      revert\n    tag_248:\n        /* \"Fundraising_flat.sol\":20492:20541  _beforeTokenTransfer(account, address(0), amount) */\n      tag_251\n        /* \"Fundraising_flat.sol\":20513:20520  account */\n      dup3\n        /* \"Fundraising_flat.sol\":20530:20531  0 */\n      0x00\n        /* \"Fundraising_flat.sol\":20534:20540  amount */\n      dup4\n        /* \"Fundraising_flat.sol\":20492:20512  _beforeTokenTransfer */\n      tag_252\n        /* \"Fundraising_flat.sol\":20492:20541  _beforeTokenTransfer(account, address(0), amount) */\n      jump\t// in\n    tag_251:\n        /* \"Fundraising_flat.sol\":20552:20574  uint256 accountBalance */\n      0x00\n        /* \"Fundraising_flat.sol\":20577:20586  _balances */\n      dup1\n        /* \"Fundraising_flat.sol\":20577:20595  _balances[account] */\n      0x00\n        /* \"Fundraising_flat.sol\":20587:20594  account */\n      dup5\n        /* \"Fundraising_flat.sol\":20577:20595  _balances[account] */\n      0xffffffffffffffffffffffffffffffffffffffff\n      and\n      0xffffffffffffffffffffffffffffffffffffffff\n      and\n      dup2\n      mstore\n      0x20\n      add\n      swap1\n      dup2\n      mstore\n      0x20\n      add\n      0x00\n      keccak256\n      sload\n        /* \"Fundraising_flat.sol\":20552:20595  uint256 accountBalance = _balances[account] */\n      swap1\n      pop\n        /* \"Fundraising_flat.sol\":20631:20637  amount */\n      dup2\n        /* \"Fundraising_flat.sol\":20613:20627  accountBalance */\n      dup2\n        /* \"Fundraising_flat.sol\":20613:20637  accountBalance >= amount */\n      lt\n      iszero\n        /* \"Fundraising_flat.sol\":20605:20676  require(accountBalance >= amount, \"ERC20: burn amount exceeds balance\") */\n      tag_253\n      jumpi\n      mload(0x40)\n      0x08c379a000000000000000000000000000000000000000000000000000000000\n      dup2\n      mstore\n      0x04\n      add\n      tag_254\n      swap1\n      tag_255\n      jump\t// in\n    tag_254:\n      mload(0x40)\n      dup1\n      swap2\n      sub\n      swap1\n      revert\n    tag_253:\n        /* \"Fundraising_flat.sol\":20748:20754  amount */\n      dup2\n        /* \"Fundraising_flat.sol\":20731:20745  accountBalance */\n      dup2\n        /* \"Fundraising_flat.sol\":20731:20754  accountBalance - amount */\n      sub\n        /* \"Fundraising_flat.sol\":20710:20719  _balances */\n      0x00\n        /* \"Fundraising_flat.sol\":20710:20728  _balances[account] */\n      dup1\n        /* \"Fundraising_flat.sol\":20720:20727  account */\n      dup6\n        /* \"Fundraising_flat.sol\":20710:20728  _balances[account] */\n      0xffffffffffffffffffffffffffffffffffffffff\n      and\n      0xffffffffffffffffffffffffffffffffffffffff\n      and\n      dup2\n      mstore\n      0x20\n      add\n      swap1\n      dup2\n      mstore\n      0x20\n      add\n      0x00\n      keccak256\n        /* \"Fundraising_flat.sol\":20710:20754  _balances[account] = accountBalance - amount */\n      dup2\n      swap1\n      sstore\n      pop\n        /* \"Fundraising_flat.sol\":20790:20796  amount */\n      dup2\n        /* \"Fundraising_flat.sol\":20774:20786  _totalSupply */\n      0x02\n      0x00\n        /* \"Fundraising_flat.sol\":20774:20796  _totalSupply -= amount */\n      dup3\n      dup3\n      sload\n      tag_256\n      swap2\n      swap1\n      tag_155\n      jump\t// in\n    tag_256:\n      swap3\n      pop\n      pop\n      dup2\n      swap1\n      sstore\n      pop\n        /* \"Fundraising_flat.sol\":20838:20839  0 */\n      0x00\n        /* \"Fundraising_flat.sol\":20812:20849  Transfer(account, address(0), amount) */\n      0xffffffffffffffffffffffffffffffffffffffff\n      and\n        /* \"Fundraising_flat.sol\":20821:20828  account */\n      dup4\n        /* \"Fundraising_flat.sol\":20812:20849  Transfer(account, address(0), amount) */\n      0xffffffffffffffffffffffffffffffffffffffff\n      and\n      0xddf252ad1be2c89b69c2b068fc378daa952ba7f163c4a11628f55a4df523b3ef\n        /* \"Fundraising_flat.sol\":20842:20848  amount */\n      dup5\n        /* \"Fundraising_flat.sol\":20812:20849  Transfer(account, address(0), amount) */\n      mload(0x40)\n      tag_257\n      swap2\n      swap1\n      tag_39\n      jump\t// in\n    tag_257:\n      mload(0x40)\n      dup1\n      swap2\n      sub\n      swap1\n      log3\n        /* \"Fundraising_flat.sol\":20860:20908  _afterTokenTransfer(account, address(0), amount) */\n      tag_258\n        /* \"Fundraising_flat.sol\":20880:20887  account */\n      dup4\n        /* \"Fundraising_flat.sol\":20897:20898  0 */\n      0x00\n        /* \"Fundraising_flat.sol\":20901:20907  amount */\n      dup5\n        /* \"Fundraising_flat.sol\":20860:20879  _afterTokenTransfer */\n      tag_259\n        /* \"Fundraising_flat.sol\":20860:20908  _afterTokenTransfer(account, address(0), amount) */\n      jump\t// in\n    tag_258:\n        /* \"Fundraising_flat.sol\":20404:20915  {... */\n      pop\n        /* \"Fundraising_flat.sol\":20339:20915  function _burn(address account, uint256 amount) internal virtual {... */\n      pop\n      pop\n      jump\t// out\n        /* \"Fundraising_flat.sol\":21989:22430  function _spendAllowance(... */\n    tag_161:\n        /* \"Fundraising_flat.sol\":22119:22143  uint256 currentAllowance */\n      0x00\n        /* \"Fundraising_flat.sol\":22146:22171  allowance(owner, spender) */\n      tag_261\n        /* \"Fundraising_flat.sol\":22156:22161  owner */\n      dup5\n        /* \"Fundraising_flat.sol\":22163:22170  spender */\n      dup5\n        /* \"Fundraising_flat.sol\":22146:22155  allowance */\n      tag_123\n        /* \"Fundraising_flat.sol\":22146:22171  allowance(owner, spender) */\n      jump\t// in\n    tag_261:\n        /* \"Fundraising_flat.sol\":22119:22171  uint256 currentAllowance = allowance(owner, spender) */\n      swap1\n      pop\n        /* \"Fundraising_flat.sol\":22205:22222  type(uint256).max */\n      0xffffffffffffffffffffffffffffffffffffffffffffffffffffffffffffffff\n        /* \"Fundraising_flat.sol\":22185:22201  currentAllowance */\n      dup2\n        /* \"Fundraising_flat.sol\":22185:22222  currentAllowance != type(uint256).max */\n      eq\n        /* \"Fundraising_flat.sol\":22181:22424  if (currentAllowance != type(uint256).max) {... */\n      tag_262\n      jumpi\n        /* \"Fundraising_flat.sol\":22266:22272  amount */\n      dup2\n        /* \"Fundraising_flat.sol\":22246:22262  currentAllowance */\n      dup2\n        /* \"Fundraising_flat.sol\":22246:22272  currentAllowance >= amount */\n      lt\n      iszero\n        /* \"Fundraising_flat.sol\":22238:22306  require(currentAllowance >= amount, \"ERC20: insufficient allowance\") */\n      tag_263\n      jumpi\n      mload(0x40)\n      0x08c379a000000000000000000000000000000000000000000000000000000000\n      dup2\n      mstore\n      0x04\n      add\n      tag_264\n      swap1\n      tag_265\n      jump\t// in\n    tag_264:\n      mload(0x40)\n      dup1\n      swap2\n      sub\n      swap1\n      revert\n    tag_263:\n        /* \"Fundraising_flat.sol\":22348:22399  _approve(owner, spender, currentAllowance - amount) */\n      tag_266\n        /* \"Fundraising_flat.sol\":22357:22362  owner */\n      dup5\n        /* \"Fundraising_flat.sol\":22364:22371  spender */\n      dup5\n        /* \"Fundraising_flat.sol\":22392:22398  amount */\n      dup5\n        /* \"Fundraising_flat.sol\":22373:22389  currentAllowance */\n      dup5\n        /* \"Fundraising_flat.sol\":22373:22398  currentAllowance - amount */\n      sub\n        /* \"Fundraising_flat.sol\":22348:22356  _approve */\n      tag_136\n        /* \"Fundraising_flat.sol\":22348:22399  _approve(owner, spender, currentAllowance - amount) */\n      jump\t// in\n    tag_266:\n        /* \"Fundraising_flat.sol\":22181:22424  if (currentAllowance != type(uint256).max) {... */\n    tag_262:\n        /* \"Fundraising_flat.sol\":22109:22430  {... */\n      pop\n        /* \"Fundraising_flat.sol\":21989:22430  function _spendAllowance(... */\n      pop\n      pop\n      pop\n      jump\t// out\n        /* \"Fundraising_flat.sol\":18703:19354  function _transfer(... */\n    tag_163:\n        /* \"Fundraising_flat.sol\":18845:18846  0 */\n      0x00\n        /* \"Fundraising_flat.sol\":18829:18847  from != address(0) */\n      0xffffffffffffffffffffffffffffffffffffffff\n      and\n        /* \"Fundraising_flat.sol\":18829:18833  from */\n      dup4\n        /* \"Fundraising_flat.sol\":18829:18847  from != address(0) */\n      0xffffffffffffffffffffffffffffffffffffffff\n      and\n      eq\n      iszero\n        /* \"Fundraising_flat.sol\":18821:18889  require(from != address(0), \"ERC20: transfer from the zero address\") */\n      tag_268\n      jumpi\n      mload(0x40)\n      0x08c379a000000000000000000000000000000000000000000000000000000000\n      dup2\n      mstore\n      0x04\n      add\n      tag_269\n      swap1\n      tag_270\n      jump\t// in\n    tag_269:\n      mload(0x40)\n      dup1\n      swap2\n      sub\n      swap1\n      revert\n    tag_268:\n        /* \"Fundraising_flat.sol\":18921:18922  0 */\n      0x00\n        /* \"Fundraising_flat.sol\":18907:18923  to != address(0) */\n      0xffffffffffffffffffffffffffffffffffffffff\n      and\n        /* \"Fundraising_flat.sol\":18907:18909  to */\n      dup3\n        /* \"Fundraising_flat.sol\":18907:18923  to != address(0) */\n      0xffffffffffffffffffffffffffffffffffffffff\n      and\n      eq\n      iszero\n        /* \"Fundraising_flat.sol\":18899:18963  require(to != address(0), \"ERC20: transfer to the zero address\") */\n      tag_271\n      jumpi\n      mload(0x40)\n      0x08c379a000000000000000000000000000000000000000000000000000000000\n      dup2\n      mstore\n      0x04\n      add\n      tag_272\n      swap1\n      tag_273\n      jump\t// in\n    tag_272:\n      mload(0x40)\n      dup1\n      swap2\n      sub\n      swap1\n      revert\n    tag_271:\n        /* \"Fundraising_flat.sol\":18974:19012  _beforeTokenTransfer(from, to, amount) */\n      tag_274\n        /* \"Fundraising_flat.sol\":18995:18999  from */\n      dup4\n        /* \"Fundraising_flat.sol\":19001:19003  to */\n      dup4\n        /* \"Fundraising_flat.sol\":19005:19011  amount */\n      dup4\n        /* \"Fundraising_flat.sol\":18974:18994  _beforeTokenTransfer */\n      tag_252\n        /* \"Fundraising_flat.sol\":18974:19012  _beforeTokenTransfer(from, to, amount) */\n      jump\t// in\n    tag_274:\n        /* \"Fundraising_flat.sol\":19023:19042  uint256 fromBalance */\n      0x00\n        /* \"Fundraising_flat.sol\":19045:19054  _balances */\n      dup1\n        /* \"Fundraising_flat.sol\":19045:19060  _balances[from] */\n      0x00\n        /* \"Fundraising_flat.sol\":19055:19059  from */\n      dup6\n        /* \"Fundraising_flat.sol\":19045:19060  _balances[from] */\n      0xffffffffffffffffffffffffffffffffffffffff\n      and\n      0xffffffffffffffffffffffffffffffffffffffff\n      and\n      dup2\n      mstore\n      0x20\n      add\n      swap1\n      dup2\n      mstore\n      0x20\n      add\n      0x00\n      keccak256\n      sload\n        /* \"Fundraising_flat.sol\":19023:19060  uint256 fromBalance = _balances[from] */\n      swap1\n      pop\n        /* \"Fundraising_flat.sol\":19093:19099  amount */\n      dup2\n        /* \"Fundraising_flat.sol\":19078:19089  fromBalance */\n      dup2\n        /* \"Fundraising_flat.sol\":19078:19099  fromBalance >= amount */\n      lt\n      iszero\n        /* \"Fundraising_flat.sol\":19070:19142  require(fromBalance >= amount, \"ERC20: transfer amount exceeds balance\") */\n      tag_275\n      jumpi\n      mload(0x40)\n      0x08c379a000000000000000000000000000000000000000000000000000000000\n      dup2\n      mstore\n      0x04\n      add\n      tag_276\n      swap1\n      tag_277\n      jump\t// in\n    tag_276:\n      mload(0x40)\n      dup1\n      swap2\n      sub\n      swap1\n      revert\n    tag_275:\n        /* \"Fundraising_flat.sol\":19208:19214  amount */\n      dup2\n        /* \"Fundraising_flat.sol\":19194:19205  fromBalance */\n      dup2\n        /* \"Fundraising_flat.sol\":19194:19214  fromBalance - amount */\n      sub\n        /* \"Fundraising_flat.sol\":19176:19185  _balances */\n      0x00\n        /* \"Fundraising_flat.sol\":19176:19191  _balances[from] */\n      dup1\n        /* \"Fundraising_flat.sol\":19186:19190  from */\n      dup7\n        /* \"Fundraising_flat.sol\":19176:19191  _balances[from] */\n      0xffffffffffffffffffffffffffffffffffffffff\n      and\n      0xffffffffffffffffffffffffffffffffffffffff\n      and\n      dup2\n      mstore\n      0x20\n      add\n      swap1\n      dup2\n      mstore\n      0x20\n      add\n      0x00\n      keccak256\n        /* \"Fundraising_flat.sol\":19176:19214  _balances[from] = fromBalance - amount */\n      dup2\n      swap1\n      sstore\n      pop\n        /* \"Fundraising_flat.sol\":19251:19257  amount */\n      dup2\n        /* \"Fundraising_flat.sol\":19234:19243  _balances */\n      0x00\n        /* \"Fundraising_flat.sol\":19234:19247  _balances[to] */\n      dup1\n        /* \"Fundraising_flat.sol\":19244:19246  to */\n      dup6\n        /* \"Fundraising_flat.sol\":19234:19247  _balances[to] */\n      0xffffffffffffffffffffffffffffffffffffffff\n      and\n      0xffffffffffffffffffffffffffffffffffffffff\n      and\n      dup2\n      mstore\n      0x20\n      add\n      swap1\n      dup2\n      mstore\n      0x20\n      add\n      0x00\n      keccak256\n      0x00\n        /* \"Fundraising_flat.sol\":19234:19257  _balances[to] += amount */\n      dup3\n      dup3\n      sload\n      tag_278\n      swap2\n      swap1\n      tag_182\n      jump\t// in\n    tag_278:\n      swap3\n      pop\n      pop\n      dup2\n      swap1\n      sstore\n      pop\n        /* \"Fundraising_flat.sol\":19288:19290  to */\n      dup3\n        /* \"Fundraising_flat.sol\":19273:19299  Transfer(from, to, amount) */\n      0xffffffffffffffffffffffffffffffffffffffff\n      and\n        /* \"Fundraising_flat.sol\":19282:19286  from */\n      dup5\n        /* \"Fundraising_flat.sol\":19273:19299  Transfer(from, to, amount) */\n      0xffffffffffffffffffffffffffffffffffffffff\n      and\n      0xddf252ad1be2c89b69c2b068fc378daa952ba7f163c4a11628f55a4df523b3ef\n        /* \"Fundraising_flat.sol\":19292:19298  amount */\n      dup5\n        /* \"Fundraising_flat.sol\":19273:19299  Transfer(from, to, amount) */\n      mload(0x40)\n      tag_279\n      swap2\n      swap1\n      tag_39\n      jump\t// in\n    tag_279:\n      mload(0x40)\n      dup1\n      swap2\n      sub\n      swap1\n      log3\n        /* \"Fundraising_flat.sol\":19310:19347  _afterTokenTransfer(from, to, amount) */\n      tag_280\n        /* \"Fundraising_flat.sol\":19330:19334  from */\n      dup5\n        /* \"Fundraising_flat.sol\":19336:19338  to */\n      dup5\n        /* \"Fundraising_flat.sol\":19340:19346  amount */\n      dup5\n        /* \"Fundraising_flat.sol\":19310:19329  _afterTokenTransfer */\n      tag_259\n        /* \"Fundraising_flat.sol\":19310:19347  _afterTokenTransfer(from, to, amount) */\n      jump\t// in\n    tag_280:\n        /* \"Fundraising_flat.sol\":18811:19354  {... */\n      pop\n        /* \"Fundraising_flat.sol\":18703:19354  function _transfer(... */\n      pop\n      pop\n      pop\n      jump\t// out\n        /* \"Fundraising_flat.sol\":19630:20019  function _mint(address account, uint256 amount) internal virtual {... */\n    tag_184:\n        /* \"Fundraising_flat.sol\":19732:19733  0 */\n      0x00\n        /* \"Fundraising_flat.sol\":19713:19734  account != address(0) */\n      0xffffffffffffffffffffffffffffffffffffffff\n      and\n        /* \"Fundraising_flat.sol\":19713:19720  account */\n      dup3\n        /* \"Fundraising_flat.sol\":19713:19734  account != address(0) */\n      0xffffffffffffffffffffffffffffffffffffffff\n      and\n      eq\n      iszero\n        /* \"Fundraising_flat.sol\":19705:19770  require(account != address(0), \"ERC20: mint to the zero address\") */\n      tag_282\n      jumpi\n      mload(0x40)\n      0x08c379a000000000000000000000000000000000000000000000000000000000\n      dup2\n      mstore\n      0x04\n      add\n      tag_283\n      swap1\n      tag_284\n      jump\t// in\n    tag_283:\n      mload(0x40)\n      dup1\n      swap2\n      sub\n      swap1\n      revert\n    tag_282:\n        /* \"Fundraising_flat.sol\":19781:19830  _beforeTokenTransfer(address(0), account, amount) */\n      tag_285\n        /* \"Fundraising_flat.sol\":19810:19811  0 */\n      0x00\n        /* \"Fundraising_flat.sol\":19814:19821  account */\n      dup4\n        /* \"Fundraising_flat.sol\":19823:19829  amount */\n      dup4\n        /* \"Fundraising_flat.sol\":19781:19801  _beforeTokenTransfer */\n      tag_252\n        /* \"Fundraising_flat.sol\":19781:19830  _beforeTokenTransfer(address(0), account, amount) */\n      jump\t// in\n    tag_285:\n        /* \"Fundraising_flat.sol\":19857:19863  amount */\n      dup1\n        /* \"Fundraising_flat.sol\":19841:19853  _totalSupply */\n      0x02\n      0x00\n        /* \"Fundraising_flat.sol\":19841:19863  _totalSupply += amount */\n      dup3\n      dup3\n      sload\n      tag_286\n      swap2\n      swap1\n      tag_182\n      jump\t// in\n    tag_286:\n      swap3\n      pop\n      pop\n      dup2\n      swap1\n      sstore\n      pop\n        /* \"Fundraising_flat.sol\":19895:19901  amount */\n      dup1\n        /* \"Fundraising_flat.sol\":19873:19882  _balances */\n      0x00\n        /* \"Fundraising_flat.sol\":19873:19891  _balances[account] */\n      dup1\n        /* \"Fundraising_flat.sol\":19883:19890  account */\n      dup5\n        /* \"Fundraising_flat.sol\":19873:19891  _balances[account] */\n      0xffffffffffffffffffffffffffffffffffffffff\n      and\n      0xffffffffffffffffffffffffffffffffffffffff\n      and\n      dup2\n      mstore\n      0x20\n      add\n      swap1\n      dup2\n      mstore\n      0x20\n      add\n      0x00\n      keccak256\n      0x00\n        /* \"Fundraising_flat.sol\":19873:19901  _balances[account] += amount */\n      dup3\n      dup3\n      sload\n      tag_287\n      swap2\n      swap1\n      tag_182\n      jump\t// in\n    tag_287:\n      swap3\n      pop\n      pop\n      dup2\n      swap1\n      sstore\n      pop\n        /* \"Fundraising_flat.sol\":19937:19944  account */\n      dup2\n        /* \"Fundraising_flat.sol\":19916:19953  Transfer(address(0), account, amount) */\n      0xffffffffffffffffffffffffffffffffffffffff\n      and\n        /* \"Fundraising_flat.sol\":19933:19934  0 */\n      0x00\n        /* \"Fundraising_flat.sol\":19916:19953  Transfer(address(0), account, amount) */\n      0xffffffffffffffffffffffffffffffffffffffff\n      and\n      0xddf252ad1be2c89b69c2b068fc378daa952ba7f163c4a11628f55a4df523b3ef\n        /* \"Fundraising_flat.sol\":19946:19952  amount */\n      dup4\n        /* \"Fundraising_flat.sol\":19916:19953  Transfer(address(0), account, amount) */\n      mload(0x40)\n      tag_288\n      swap2\n      swap1\n      tag_39\n      jump\t// in\n    tag_288:\n      mload(0x40)\n      dup1\n      swap2\n      sub\n      swap1\n      log3\n        /* \"Fundraising_flat.sol\":19964:20012  _afterTokenTransfer(address(0), account, amount) */\n      tag_289\n        /* \"Fundraising_flat.sol\":19992:19993  0 */\n      0x00\n        /* \"Fundraising_flat.sol\":19996:20003  account */\n      dup4\n        /* \"Fundraising_flat.sol\":20005:20011  amount */\n      dup4\n        /* \"Fundraising_flat.sol\":19964:19983  _afterTokenTransfer */\n      tag_259\n        /* \"Fundraising_flat.sol\":19964:20012  _afterTokenTransfer(address(0), account, amount) */\n      jump\t// in\n    tag_289:\n        /* \"Fundraising_flat.sol\":19630:20019  function _mint(address account, uint256 amount) internal virtual {... */\n      pop\n      pop\n      jump\t// out\n        /* \"Fundraising_flat.sol\":23014:23135  function _beforeTokenTransfer(... */\n    tag_252:\n      pop\n      pop\n      pop\n      jump\t// out\n        /* \"Fundraising_flat.sol\":23723:23843  function _afterTokenTransfer(... */\n    tag_259:\n      pop\n      pop\n      pop\n      jump\t// out\n        /* \"#utility.yul\":7:146   */\n    tag_293:\n        /* \"#utility.yul\":53:58   */\n      0x00\n        /* \"#utility.yul\":91:97   */\n      dup2\n        /* \"#utility.yul\":78:98   */\n      calldataload\n        /* \"#utility.yul\":69:98   */\n      swap1\n      pop\n        /* \"#utility.yul\":107:140   */\n      tag_295\n        /* \"#utility.yul\":134:139   */\n      dup2\n        /* \"#utility.yul\":107:140   */\n      tag_296\n      jump\t// in\n    tag_295:\n        /* \"#utility.yul\":7:146   */\n      swap3\n      swap2\n      pop\n      pop\n      jump\t// out\n        /* \"#utility.yul\":152:289   */\n    tag_297:\n        /* \"#utility.yul\":206:211   */\n      0x00\n        /* \"#utility.yul\":237:243   */\n      dup2\n        /* \"#utility.yul\":231:244   */\n      mload\n        /* \"#utility.yul\":222:244   */\n      swap1\n      pop\n        /* \"#utility.yul\":253:283   */\n      tag_299\n        /* \"#utility.yul\":277:282   */\n      dup2\n        /* \"#utility.yul\":253:283   */\n      tag_300\n      jump\t// in\n    tag_299:\n        /* \"#utility.yul\":152:289   */\n      swap3\n      swap2\n      pop\n      pop\n      jump\t// out\n        /* \"#utility.yul\":308:860   */\n    tag_301:\n        /* \"#utility.yul\":365:373   */\n      0x00\n        /* \"#utility.yul\":375:381   */\n      dup1\n        /* \"#utility.yul\":425:428   */\n      dup4\n        /* \"#utility.yul\":418:422   */\n      0x1f\n        /* \"#utility.yul\":410:416   */\n      dup5\n        /* \"#utility.yul\":406:423   */\n      add\n        /* \"#utility.yul\":402:429   */\n      slt\n        /* \"#utility.yul\":392:514   */\n      tag_303\n      jumpi\n        /* \"#utility.yul\":433:512   */\n      tag_304\n      tag_305\n      jump\t// in\n    tag_304:\n        /* \"#utility.yul\":392:514   */\n    tag_303:\n        /* \"#utility.yul\":546:552   */\n      dup3\n        /* \"#utility.yul\":533:553   */\n      calldataload\n        /* \"#utility.yul\":523:553   */\n      swap1\n      pop\n        /* \"#utility.yul\":576:594   */\n      0xffffffffffffffff\n        /* \"#utility.yul\":568:574   */\n      dup2\n        /* \"#utility.yul\":565:595   */\n      gt\n        /* \"#utility.yul\":562:679   */\n      iszero\n      tag_306\n      jumpi\n        /* \"#utility.yul\":598:677   */\n      tag_307\n      tag_308\n      jump\t// in\n    tag_307:\n        /* \"#utility.yul\":562:679   */\n    tag_306:\n        /* \"#utility.yul\":712:716   */\n      0x20\n        /* \"#utility.yul\":704:710   */\n      dup4\n        /* \"#utility.yul\":700:717   */\n      add\n        /* \"#utility.yul\":688:717   */\n      swap2\n      pop\n        /* \"#utility.yul\":766:769   */\n      dup4\n        /* \"#utility.yul\":758:762   */\n      0x01\n        /* \"#utility.yul\":750:756   */\n      dup3\n        /* \"#utility.yul\":746:763   */\n      mul\n        /* \"#utility.yul\":736:744   */\n      dup4\n        /* \"#utility.yul\":732:764   */\n      add\n        /* \"#utility.yul\":729:770   */\n      gt\n        /* \"#utility.yul\":726:854   */\n      iszero\n      tag_309\n      jumpi\n        /* \"#utility.yul\":773:852   */\n      tag_310\n      tag_311\n      jump\t// in\n    tag_310:\n        /* \"#utility.yul\":726:854   */\n    tag_309:\n        /* \"#utility.yul\":308:860   */\n      swap3\n      pop\n      swap3\n      swap1\n      pop\n      jump\t// out\n        /* \"#utility.yul\":866:1005   */\n    tag_312:\n        /* \"#utility.yul\":912:917   */\n      0x00\n        /* \"#utility.yul\":950:956   */\n      dup2\n        /* \"#utility.yul\":937:957   */\n      calldataload\n        /* \"#utility.yul\":928:957   */\n      swap1\n      pop\n        /* \"#utility.yul\":966:999   */\n      tag_314\n        /* \"#utility.yul\":993:998   */\n      dup2\n        /* \"#utility.yul\":966:999   */\n      tag_315\n      jump\t// in\n    tag_314:\n        /* \"#utility.yul\":866:1005   */\n      swap3\n      swap2\n      pop\n      pop\n      jump\t// out\n        /* \"#utility.yul\":1011:1340   */\n    tag_89:\n        /* \"#utility.yul\":1070:1076   */\n      0x00\n        /* \"#utility.yul\":1119:1121   */\n      0x20\n        /* \"#utility.yul\":1107:1116   */\n      dup3\n        /* \"#utility.yul\":1098:1105   */\n      dup5\n        /* \"#utility.yul\":1094:1117   */\n      sub\n        /* \"#utility.yul\":1090:1122   */\n      slt\n        /* \"#utility.yul\":1087:1206   */\n      iszero\n      tag_317\n      jumpi\n        /* \"#utility.yul\":1125:1204   */\n      tag_318\n      tag_319\n      jump\t// in\n    tag_318:\n        /* \"#utility.yul\":1087:1206   */\n    tag_317:\n        /* \"#utility.yul\":1245:1246   */\n      0x00\n        /* \"#utility.yul\":1270:1323   */\n      tag_320\n        /* \"#utility.yul\":1315:1322   */\n      dup5\n        /* \"#utility.yul\":1306:1312   */\n      dup3\n        /* \"#utility.yul\":1295:1304   */\n      dup6\n        /* \"#utility.yul\":1291:1313   */\n      add\n        /* \"#utility.yul\":1270:1323   */\n      tag_293\n      jump\t// in\n    tag_320:\n        /* \"#utility.yul\":1260:1323   */\n      swap2\n      pop\n        /* \"#utility.yul\":1216:1333   */\n      pop\n        /* \"#utility.yul\":1011:1340   */\n      swap3\n      swap2\n      pop\n      pop\n      jump\t// out\n        /* \"#utility.yul\":1346:1820   */\n    tag_122:\n        /* \"#utility.yul\":1414:1420   */\n      0x00\n        /* \"#utility.yul\":1422:1428   */\n      dup1\n        /* \"#utility.yul\":1471:1473   */\n      0x40\n        /* \"#utility.yul\":1459:1468   */\n      dup4\n        /* \"#utility.yul\":1450:1457   */\n      dup6\n        /* \"#utility.yul\":1446:1469   */\n      sub\n        /* \"#utility.yul\":1442:1474   */\n      slt\n        /* \"#utility.yul\":1439:1558   */\n      iszero\n      tag_322\n      jumpi\n        /* \"#utility.yul\":1477:1556   */\n      tag_323\n      tag_319\n      jump\t// in\n    tag_323:\n        /* \"#utility.yul\":1439:1558   */\n    tag_322:\n        /* \"#utility.yul\":1597:1598   */\n      0x00\n        /* \"#utility.yul\":1622:1675   */\n      tag_324\n        /* \"#utility.yul\":1667:1674   */\n      dup6\n        /* \"#utility.yul\":1658:1664   */\n      dup3\n        /* \"#utility.yul\":1647:1656   */\n      dup7\n        /* \"#utility.yul\":1643:1665   */\n      add\n        /* \"#utility.yul\":1622:1675   */\n      tag_293\n      jump\t// in\n    tag_324:\n        /* \"#utility.yul\":1612:1675   */\n      swap3\n      pop\n        /* \"#utility.yul\":1568:1685   */\n      pop\n        /* \"#utility.yul\":1724:1726   */\n      0x20\n        /* \"#utility.yul\":1750:1803   */\n      tag_325\n        /* \"#utility.yul\":1795:1802   */\n      dup6\n        /* \"#utility.yul\":1786:1792   */\n      dup3\n        /* \"#utility.yul\":1775:1784   */\n      dup7\n        /* \"#utility.yul\":1771:1793   */\n      add\n        /* \"#utility.yul\":1750:1803   */\n      tag_293\n      jump\t// in\n    tag_325:\n        /* \"#utility.yul\":1740:1803   */\n      swap2\n      pop\n        /* \"#utility.yul\":1695:1813   */\n      pop\n        /* \"#utility.yul\":1346:1820   */\n      swap3\n      pop\n      swap3\n      swap1\n      pop\n      jump\t// out\n        /* \"#utility.yul\":1826:2445   */\n    tag_71:\n        /* \"#utility.yul\":1903:1909   */\n      0x00\n        /* \"#utility.yul\":1911:1917   */\n      dup1\n        /* \"#utility.yul\":1919:1925   */\n      0x00\n        /* \"#utility.yul\":1968:1970   */\n      0x60\n        /* \"#utility.yul\":1956:1965   */\n      dup5\n        /* \"#utility.yul\":1947:1954   */\n      dup7\n        /* \"#utility.yul\":1943:1966   */\n      sub\n        /* \"#utility.yul\":1939:1971   */\n      slt\n        /* \"#utility.yul\":1936:2055   */\n      iszero\n      tag_327\n      jumpi\n        /* \"#utility.yul\":1974:2053   */\n      tag_328\n      tag_319\n      jump\t// in\n    tag_328:\n        /* \"#utility.yul\":1936:2055   */\n    tag_327:\n        /* \"#utility.yul\":2094:2095   */\n      0x00\n        /* \"#utility.yul\":2119:2172   */\n      tag_329\n        /* \"#utility.yul\":2164:2171   */\n      dup7\n        /* \"#utility.yul\":2155:2161   */\n      dup3\n        /* \"#utility.yul\":2144:2153   */\n      dup8\n        /* \"#utility.yul\":2140:2162   */\n      add\n        /* \"#utility.yul\":2119:2172   */\n      tag_293\n      jump\t// in\n    tag_329:\n        /* \"#utility.yul\":2109:2172   */\n      swap4\n      pop\n        /* \"#utility.yul\":2065:2182   */\n      pop\n        /* \"#utility.yul\":2221:2223   */\n      0x20\n        /* \"#utility.yul\":2247:2300   */\n      tag_330\n        /* \"#utility.yul\":2292:2299   */\n      dup7\n        /* \"#utility.yul\":2283:2289   */\n      dup3\n        /* \"#utility.yul\":2272:2281   */\n      dup8\n        /* \"#utility.yul\":2268:2290   */\n      add\n        /* \"#utility.yul\":2247:2300   */\n      tag_293\n      jump\t// in\n    tag_330:\n        /* \"#utility.yul\":2237:2300   */\n      swap3\n      pop\n        /* \"#utility.yul\":2192:2310   */\n      pop\n        /* \"#utility.yul\":2349:2351   */\n      0x40\n        /* \"#utility.yul\":2375:2428   */\n      tag_331\n        /* \"#utility.yul\":2420:2427   */\n      dup7\n        /* \"#utility.yul\":2411:2417   */\n      dup3\n        /* \"#utility.yul\":2400:2409   */\n      dup8\n        /* \"#utility.yul\":2396:2418   */\n      add\n        /* \"#utility.yul\":2375:2428   */\n      tag_312\n      jump\t// in\n    tag_331:\n        /* \"#utility.yul\":2365:2428   */\n      swap2\n      pop\n        /* \"#utility.yul\":2320:2438   */\n      pop\n        /* \"#utility.yul\":1826:2445   */\n      swap3\n      pop\n      swap3\n      pop\n      swap3\n      jump\t// out\n        /* \"#utility.yul\":2451:3414   */\n    tag_55:\n        /* \"#utility.yul\":2548:2554   */\n      0x00\n        /* \"#utility.yul\":2556:2562   */\n      dup1\n        /* \"#utility.yul\":2564:2570   */\n      0x00\n        /* \"#utility.yul\":2572:2578   */\n      dup1\n        /* \"#utility.yul\":2580:2586   */\n      0x00\n        /* \"#utility.yul\":2629:2632   */\n      0x80\n        /* \"#utility.yul\":2617:2626   */\n      dup7\n        /* \"#utility.yul\":2608:2615   */\n      dup9\n        /* \"#utility.yul\":2604:2627   */\n      sub\n        /* \"#utility.yul\":2600:2633   */\n      slt\n        /* \"#utility.yul\":2597:2717   */\n      iszero\n      tag_333\n      jumpi\n        /* \"#utility.yul\":2636:2715   */\n      tag_334\n      tag_319\n      jump\t// in\n    tag_334:\n        /* \"#utility.yul\":2597:2717   */\n    tag_333:\n        /* \"#utility.yul\":2756:2757   */\n      0x00\n        /* \"#utility.yul\":2781:2834   */\n      tag_335\n        /* \"#utility.yul\":2826:2833   */\n      dup9\n        /* \"#utility.yul\":2817:2823   */\n      dup3\n        /* \"#utility.yul\":2806:2815   */\n      dup10\n        /* \"#utility.yul\":2802:2824   */\n      add\n        /* \"#utility.yul\":2781:2834   */\n      tag_293\n      jump\t// in\n    tag_335:\n        /* \"#utility.yul\":2771:2834   */\n      swap6\n      pop\n        /* \"#utility.yul\":2727:2844   */\n      pop\n        /* \"#utility.yul\":2883:2885   */\n      0x20\n        /* \"#utility.yul\":2909:2962   */\n      tag_336\n        /* \"#utility.yul\":2954:2961   */\n      dup9\n        /* \"#utility.yul\":2945:2951   */\n      dup3\n        /* \"#utility.yul\":2934:2943   */\n      dup10\n        /* \"#utility.yul\":2930:2952   */\n      add\n        /* \"#utility.yul\":2909:2962   */\n      tag_293\n      jump\t// in\n    tag_336:\n        /* \"#utility.yul\":2899:2962   */\n      swap5\n      pop\n        /* \"#utility.yul\":2854:2972   */\n      pop\n        /* \"#utility.yul\":3011:3013   */\n      0x40\n        /* \"#utility.yul\":3037:3090   */\n      tag_337\n        /* \"#utility.yul\":3082:3089   */\n      dup9\n        /* \"#utility.yul\":3073:3079   */\n      dup3\n        /* \"#utility.yul\":3062:3071   */\n      dup10\n        /* \"#utility.yul\":3058:3080   */\n      add\n        /* \"#utility.yul\":3037:3090   */\n      tag_312\n      jump\t// in\n    tag_337:\n        /* \"#utility.yul\":3027:3090   */\n      swap4\n      pop\n        /* \"#utility.yul\":2982:3100   */\n      pop\n        /* \"#utility.yul\":3167:3169   */\n      0x60\n        /* \"#utility.yul\":3156:3165   */\n      dup7\n        /* \"#utility.yul\":3152:3170   */\n      add\n        /* \"#utility.yul\":3139:3171   */\n      calldataload\n        /* \"#utility.yul\":3198:3216   */\n      0xffffffffffffffff\n        /* \"#utility.yul\":3190:3196   */\n      dup2\n        /* \"#utility.yul\":3187:3217   */\n      gt\n        /* \"#utility.yul\":3184:3301   */\n      iszero\n      tag_338\n      jumpi\n        /* \"#utility.yul\":3220:3299   */\n      tag_339\n      tag_340\n      jump\t// in\n    tag_339:\n        /* \"#utility.yul\":3184:3301   */\n    tag_338:\n        /* \"#utility.yul\":3333:3397   */\n      tag_341\n        /* \"#utility.yul\":3389:3396   */\n      dup9\n        /* \"#utility.yul\":3380:3386   */\n      dup3\n        /* \"#utility.yul\":3369:3378   */\n      dup10\n        /* \"#utility.yul\":3365:3387   */\n      add\n        /* \"#utility.yul\":3333:3397   */\n      tag_301\n      jump\t// in\n    tag_341:\n        /* \"#utility.yul\":3315:3397   */\n      swap3\n      pop\n      swap3\n      pop\n        /* \"#utility.yul\":3110:3407   */\n      pop\n        /* \"#utility.yul\":2451:3414   */\n      swap3\n      swap6\n      pop\n      swap3\n      swap6\n      swap1\n      swap4\n      pop\n      jump\t// out\n        /* \"#utility.yul\":3420:3894   */\n    tag_42:\n        /* \"#utility.yul\":3488:3494   */\n      0x00\n        /* \"#utility.yul\":3496:3502   */\n      dup1\n        /* \"#utility.yul\":3545:3547   */\n      0x40\n        /* \"#utility.yul\":3533:3542   */\n      dup4\n        /* \"#utility.yul\":3524:3531   */\n      dup6\n        /* \"#utility.yul\":3520:3543   */\n      sub\n        /* \"#utility.yul\":3516:3548   */\n      slt\n        /* \"#utility.yul\":3513:3632   */\n      iszero\n      tag_343\n      jumpi\n        /* \"#utility.yul\":3551:3630   */\n      tag_344\n      tag_319\n      jump\t// in\n    tag_344:\n        /* \"#utility.yul\":3513:3632   */\n    tag_343:\n        /* \"#utility.yul\":3671:3672   */\n      0x00\n        /* \"#utility.yul\":3696:3749   */\n      tag_345\n        /* \"#utility.yul\":3741:3748   */\n      dup6\n        /* \"#utility.yul\":3732:3738   */\n      dup3\n        /* \"#utility.yul\":3721:3730   */\n      dup7\n        /* \"#utility.yul\":3717:3739   */\n      add\n        /* \"#utility.yul\":3696:3749   */\n      tag_293\n      jump\t// in\n    tag_345:\n        /* \"#utility.yul\":3686:3749   */\n      swap3\n      pop\n        /* \"#utility.yul\":3642:3759   */\n      pop\n        /* \"#utility.yul\":3798:3800   */\n      0x20\n        /* \"#utility.yul\":3824:3877   */\n      tag_346\n        /* \"#utility.yul\":3869:3876   */\n      dup6\n        /* \"#utility.yul\":3860:3866   */\n      dup3\n        /* \"#utility.yul\":3849:3858   */\n      dup7\n        /* \"#utility.yul\":3845:3867   */\n      add\n        /* \"#utility.yul\":3824:3877   */\n      tag_312\n      jump\t// in\n    tag_346:\n        /* \"#utility.yul\":3814:3877   */\n      swap2\n      pop\n        /* \"#utility.yul\":3769:3887   */\n      pop\n        /* \"#utility.yul\":3420:3894   */\n      swap3\n      pop\n      swap3\n      swap1\n      pop\n      jump\t// out\n        /* \"#utility.yul\":3900:4245   */\n    tag_153:\n        /* \"#utility.yul\":3967:3973   */\n      0x00\n        /* \"#utility.yul\":4016:4018   */\n      0x20\n        /* \"#utility.yul\":4004:4013   */\n      dup3\n        /* \"#utility.yul\":3995:4002   */\n      dup5\n        /* \"#utility.yul\":3991:4014   */\n      sub\n        /* \"#utility.yul\":3987:4019   */\n      slt\n        /* \"#utility.yul\":3984:4103   */\n      iszero\n      tag_348\n      jumpi\n        /* \"#utility.yul\":4022:4101   */\n      tag_349\n      tag_319\n      jump\t// in\n    tag_349:\n        /* \"#utility.yul\":3984:4103   */\n    tag_348:\n        /* \"#utility.yul\":4142:4143   */\n      0x00\n        /* \"#utility.yul\":4167:4228   */\n      tag_350\n        /* \"#utility.yul\":4220:4227   */\n      dup5\n        /* \"#utility.yul\":4211:4217   */\n      dup3\n        /* \"#utility.yul\":4200:4209   */\n      dup6\n        /* \"#utility.yul\":4196:4218   */\n      add\n        /* \"#utility.yul\":4167:4228   */\n      tag_297\n      jump\t// in\n    tag_350:\n        /* \"#utility.yul\":4157:4228   */\n      swap2\n      pop\n        /* \"#utility.yul\":4113:4238   */\n      pop\n        /* \"#utility.yul\":3900:4245   */\n      swap3\n      swap2\n      pop\n      pop\n      jump\t// out\n        /* \"#utility.yul\":4251:4580   */\n    tag_67:\n        /* \"#utility.yul\":4310:4316   */\n      0x00\n        /* \"#utility.yul\":4359:4361   */\n      0x20\n        /* \"#utility.yul\":4347:4356   */\n      dup3\n        /* \"#utility.yul\":4338:4345   */\n      dup5\n        /* \"#utility.yul\":4334:4357   */\n      sub\n        /* \"#utility.yul\":4330:4362   */\n      slt\n        /* \"#utility.yul\":4327:4446   */\n      iszero\n      tag_352\n      jumpi\n        /* \"#utility.yul\":4365:4444   */\n      tag_353\n      tag_319\n      jump\t// in\n    tag_353:\n        /* \"#utility.yul\":4327:4446   */\n    tag_352:\n        /* \"#utility.yul\":4485:4486   */\n      0x00\n        /* \"#utility.yul\":4510:4563   */\n      tag_354\n        /* \"#utility.yul\":4555:4562   */\n      dup5\n        /* \"#utility.yul\":4546:4552   */\n      dup3\n        /* \"#utility.yul\":4535:4544   */\n      dup6\n        /* \"#utility.yul\":4531:4553   */\n      add\n        /* \"#utility.yul\":4510:4563   */\n      tag_312\n      jump\t// in\n    tag_354:\n        /* \"#utility.yul\":4500:4563   */\n      swap2\n      pop\n        /* \"#utility.yul\":4456:4573   */\n      pop\n        /* \"#utility.yul\":4251:4580   */\n      swap3\n      swap2\n      pop\n      pop\n      jump\t// out\n        /* \"#utility.yul\":4586:4704   */\n    tag_355:\n        /* \"#utility.yul\":4673:4697   */\n      tag_357\n        /* \"#utility.yul\":4691:4696   */\n      dup2\n        /* \"#utility.yul\":4673:4697   */\n      tag_358\n      jump\t// in\n    tag_357:\n        /* \"#utility.yul\":4668:4671   */\n      dup3\n        /* \"#utility.yul\":4661:4698   */\n      mstore\n        /* \"#utility.yul\":4586:4704   */\n      pop\n      pop\n      jump\t// out\n        /* \"#utility.yul\":4710:4819   */\n    tag_359:\n        /* \"#utility.yul\":4791:4812   */\n      tag_361\n        /* \"#utility.yul\":4806:4811   */\n      dup2\n        /* \"#utility.yul\":4791:4812   */\n      tag_362\n      jump\t// in\n    tag_361:\n        /* \"#utility.yul\":4786:4789   */\n      dup3\n        /* \"#utility.yul\":4779:4813   */\n      mstore\n        /* \"#utility.yul\":4710:4819   */\n      pop\n      pop\n      jump\t// out\n        /* \"#utility.yul\":4825:4940   */\n    tag_363:\n        /* \"#utility.yul\":4910:4933   */\n      tag_365\n        /* \"#utility.yul\":4927:4932   */\n      dup2\n        /* \"#utility.yul\":4910:4933   */\n      tag_366\n      jump\t// in\n    tag_365:\n        /* \"#utility.yul\":4905:4908   */\n      dup3\n        /* \"#utility.yul\":4898:4934   */\n      mstore\n        /* \"#utility.yul\":4825:4940   */\n      pop\n      pop\n      jump\t// out\n        /* \"#utility.yul\":4946:5105   */\n    tag_367:\n        /* \"#utility.yul\":5047:5098   */\n      tag_369\n        /* \"#utility.yul\":5092:5097   */\n      dup2\n        /* \"#utility.yul\":5047:5098   */\n      tag_370\n      jump\t// in\n    tag_369:\n        /* \"#utility.yul\":5042:5045   */\n      dup3\n        /* \"#utility.yul\":5035:5099   */\n      mstore\n        /* \"#utility.yul\":4946:5105   */\n      pop\n      pop\n      jump\t// out\n        /* \"#utility.yul\":5111:5272   */\n    tag_371:\n        /* \"#utility.yul\":5213:5265   */\n      tag_373\n        /* \"#utility.yul\":5259:5264   */\n      dup2\n        /* \"#utility.yul\":5213:5265   */\n      tag_374\n      jump\t// in\n    tag_373:\n        /* \"#utility.yul\":5208:5211   */\n      dup3\n        /* \"#utility.yul\":5201:5266   */\n      mstore\n        /* \"#utility.yul\":5111:5272   */\n      pop\n      pop\n      jump\t// out\n        /* \"#utility.yul\":5278:5642   */\n    tag_375:\n        /* \"#utility.yul\":5366:5369   */\n      0x00\n        /* \"#utility.yul\":5394:5433   */\n      tag_377\n        /* \"#utility.yul\":5427:5432   */\n      dup3\n        /* \"#utility.yul\":5394:5433   */\n      tag_378\n      jump\t// in\n    tag_377:\n        /* \"#utility.yul\":5449:5520   */\n      tag_379\n        /* \"#utility.yul\":5513:5519   */\n      dup2\n        /* \"#utility.yul\":5508:5511   */\n      dup6\n        /* \"#utility.yul\":5449:5520   */\n      tag_380\n      jump\t// in\n    tag_379:\n        /* \"#utility.yul\":5442:5520   */\n      swap4\n      pop\n        /* \"#utility.yul\":5529:5581   */\n      tag_381\n        /* \"#utility.yul\":5574:5580   */\n      dup2\n        /* \"#utility.yul\":5569:5572   */\n      dup6\n        /* \"#utility.yul\":5562:5566   */\n      0x20\n        /* \"#utility.yul\":5555:5560   */\n      dup7\n        /* \"#utility.yul\":5551:5567   */\n      add\n        /* \"#utility.yul\":5529:5581   */\n      tag_382\n      jump\t// in\n    tag_381:\n        /* \"#utility.yul\":5606:5635   */\n      tag_383\n        /* \"#utility.yul\":5628:5634   */\n      dup2\n        /* \"#utility.yul\":5606:5635   */\n      tag_384\n      jump\t// in\n    tag_383:\n        /* \"#utility.yul\":5601:5604   */\n      dup5\n        /* \"#utility.yul\":5597:5636   */\n      add\n        /* \"#utility.yul\":5590:5636   */\n      swap2\n      pop\n        /* \"#utility.yul\":5370:5642   */\n      pop\n        /* \"#utility.yul\":5278:5642   */\n      swap3\n      swap2\n      pop\n      pop\n      jump\t// out\n        /* \"#utility.yul\":5648:6014   */\n    tag_385:\n        /* \"#utility.yul\":5790:5793   */\n      0x00\n        /* \"#utility.yul\":5811:5878   */\n      tag_387\n        /* \"#utility.yul\":5875:5877   */\n      0x23\n        /* \"#utility.yul\":5870:5873   */\n      dup4\n        /* \"#utility.yul\":5811:5878   */\n      tag_380\n      jump\t// in\n    tag_387:\n        /* \"#utility.yul\":5804:5878   */\n      swap2\n      pop\n        /* \"#utility.yul\":5887:5980   */\n      tag_388\n        /* \"#utility.yul\":5976:5979   */\n      dup3\n        /* \"#utility.yul\":5887:5980   */\n      tag_389\n      jump\t// in\n    tag_388:\n        /* \"#utility.yul\":6005:6007   */\n      0x40\n        /* \"#utility.yul\":6000:6003   */\n      dup3\n        /* \"#utility.yul\":5996:6008   */\n      add\n        /* \"#utility.yul\":5989:6008   */\n      swap1\n      pop\n        /* \"#utility.yul\":5648:6014   */\n      swap2\n      swap1\n      pop\n      jump\t// out\n        /* \"#utility.yul\":6020:6386   */\n    tag_390:\n        /* \"#utility.yul\":6162:6165   */\n      0x00\n        /* \"#utility.yul\":6183:6250   */\n      tag_392\n        /* \"#utility.yul\":6247:6249   */\n      0x22\n        /* \"#utility.yul\":6242:6245   */\n      dup4\n        /* \"#utility.yul\":6183:6250   */\n      tag_380\n      jump\t// in\n    tag_392:\n        /* \"#utility.yul\":6176:6250   */\n      swap2\n      pop\n        /* \"#utility.yul\":6259:6352   */\n      tag_393\n        /* \"#utility.yul\":6348:6351   */\n      dup3\n        /* \"#utility.yul\":6259:6352   */\n      tag_394\n      jump\t// in\n    tag_393:\n        /* \"#utility.yul\":6377:6379   */\n      0x40\n        /* \"#utility.yul\":6372:6375   */\n      dup3\n        /* \"#utility.yul\":6368:6380   */\n      add\n        /* \"#utility.yul\":6361:6380   */\n      swap1\n      pop\n        /* \"#utility.yul\":6020:6386   */\n      swap2\n      swap1\n      pop\n      jump\t// out\n        /* \"#utility.yul\":6392:6758   */\n    tag_395:\n        /* \"#utility.yul\":6534:6537   */\n      0x00\n        /* \"#utility.yul\":6555:6622   */\n      tag_397\n        /* \"#utility.yul\":6619:6621   */\n      0x22\n        /* \"#utility.yul\":6614:6617   */\n      dup4\n        /* \"#utility.yul\":6555:6622   */\n      tag_380\n      jump\t// in\n    tag_397:\n        /* \"#utility.yul\":6548:6622   */\n      swap2\n      pop\n        /* \"#utility.yul\":6631:6724   */\n      tag_398\n        /* \"#utility.yul\":6720:6723   */\n      dup3\n        /* \"#utility.yul\":6631:6724   */\n      tag_399\n      jump\t// in\n    tag_398:\n        /* \"#utility.yul\":6749:6751   */\n      0x40\n        /* \"#utility.yul\":6744:6747   */\n      dup3\n        /* \"#utility.yul\":6740:6752   */\n      add\n        /* \"#utility.yul\":6733:6752   */\n      swap1\n      pop\n        /* \"#utility.yul\":6392:6758   */\n      swap2\n      swap1\n      pop\n      jump\t// out\n        /* \"#utility.yul\":6764:7130   */\n    tag_400:\n        /* \"#utility.yul\":6906:6909   */\n      0x00\n        /* \"#utility.yul\":6927:6994   */\n      tag_402\n        /* \"#utility.yul\":6991:6993   */\n      0x1c\n        /* \"#utility.yul\":6986:6989   */\n      dup4\n        /* \"#utility.yul\":6927:6994   */\n      tag_380\n      jump\t// in\n    tag_402:\n        /* \"#utility.yul\":6920:6994   */\n      swap2\n      pop\n        /* \"#utility.yul\":7003:7096   */\n      tag_403\n        /* \"#utility.yul\":7092:7095   */\n      dup3\n        /* \"#utility.yul\":7003:7096   */\n      tag_404\n      jump\t// in\n    tag_403:\n        /* \"#utility.yul\":7121:7123   */\n      0x20\n        /* \"#utility.yul\":7116:7119   */\n      dup3\n        /* \"#utility.yul\":7112:7124   */\n      add\n        /* \"#utility.yul\":7105:7124   */\n      swap1\n      pop\n        /* \"#utility.yul\":6764:7130   */\n      swap2\n      swap1\n      pop\n      jump\t// out\n        /* \"#utility.yul\":7136:7502   */\n    tag_405:\n        /* \"#utility.yul\":7278:7281   */\n      0x00\n        /* \"#utility.yul\":7299:7366   */\n      tag_407\n        /* \"#utility.yul\":7363:7365   */\n      0x1d\n        /* \"#utility.yul\":7358:7361   */\n      dup4\n        /* \"#utility.yul\":7299:7366   */\n      tag_380\n      jump\t// in\n    tag_407:\n        /* \"#utility.yul\":7292:7366   */\n      swap2\n      pop\n        /* \"#utility.yul\":7375:7468   */\n      tag_408\n        /* \"#utility.yul\":7464:7467   */\n      dup3\n        /* \"#utility.yul\":7375:7468   */\n      tag_409\n      jump\t// in\n    tag_408:\n        /* \"#utility.yul\":7493:7495   */\n      0x20\n        /* \"#utility.yul\":7488:7491   */\n      dup3\n        /* \"#utility.yul\":7484:7496   */\n      add\n        /* \"#utility.yul\":7477:7496   */\n      swap1\n      pop\n        /* \"#utility.yul\":7136:7502   */\n      swap2\n      swap1\n      pop\n      jump\t// out\n        /* \"#utility.yul\":7508:7874   */\n    tag_410:\n        /* \"#utility.yul\":7650:7653   */\n      0x00\n        /* \"#utility.yul\":7671:7738   */\n      tag_412\n        /* \"#utility.yul\":7735:7737   */\n      0x26\n        /* \"#utility.yul\":7730:7733   */\n      dup4\n        /* \"#utility.yul\":7671:7738   */\n      tag_380\n      jump\t// in\n    tag_412:\n        /* \"#utility.yul\":7664:7738   */\n      swap2\n      pop\n        /* \"#utility.yul\":7747:7840   */\n      tag_413\n        /* \"#utility.yul\":7836:7839   */\n      dup3\n        /* \"#utility.yul\":7747:7840   */\n      tag_414\n      jump\t// in\n    tag_413:\n        /* \"#utility.yul\":7865:7867   */\n      0x40\n        /* \"#utility.yul\":7860:7863   */\n      dup3\n        /* \"#utility.yul\":7856:7868   */\n      add\n        /* \"#utility.yul\":7849:7868   */\n      swap1\n      pop\n        /* \"#utility.yul\":7508:7874   */\n      swap2\n      swap1\n      pop\n      jump\t// out\n        /* \"#utility.yul\":7880:8246   */\n    tag_415:\n        /* \"#utility.yul\":8022:8025   */\n      0x00\n        /* \"#utility.yul\":8043:8110   */\n      tag_417\n        /* \"#utility.yul\":8107:8109   */\n      0x17\n        /* \"#utility.yul\":8102:8105   */\n      dup4\n        /* \"#utility.yul\":8043:8110   */\n      tag_380\n      jump\t// in\n    tag_417:\n        /* \"#utility.yul\":8036:8110   */\n      swap2\n      pop\n        /* \"#utility.yul\":8119:8212   */\n      tag_418\n        /* \"#utility.yul\":8208:8211   */\n      dup3\n        /* \"#utility.yul\":8119:8212   */\n      tag_419\n      jump\t// in\n    tag_418:\n        /* \"#utility.yul\":8237:8239   */\n      0x20\n        /* \"#utility.yul\":8232:8235   */\n      dup3\n        /* \"#utility.yul\":8228:8240   */\n      add\n        /* \"#utility.yul\":8221:8240   */\n      swap1\n      pop\n        /* \"#utility.yul\":7880:8246   */\n      swap2\n      swap1\n      pop\n      jump\t// out\n        /* \"#utility.yul\":8252:8618   */\n    tag_420:\n        /* \"#utility.yul\":8394:8397   */\n      0x00\n        /* \"#utility.yul\":8415:8482   */\n      tag_422\n        /* \"#utility.yul\":8479:8481   */\n      0x12\n        /* \"#utility.yul\":8474:8477   */\n      dup4\n        /* \"#utility.yul\":8415:8482   */\n      tag_380\n      jump\t// in\n    tag_422:\n        /* \"#utility.yul\":8408:8482   */\n      swap2\n      pop\n        /* \"#utility.yul\":8491:8584   */\n      tag_423\n        /* \"#utility.yul\":8580:8583   */\n      dup3\n        /* \"#utility.yul\":8491:8584   */\n      tag_424\n      jump\t// in\n    tag_423:\n        /* \"#utility.yul\":8609:8611   */\n      0x20\n        /* \"#utility.yul\":8604:8607   */\n      dup3\n        /* \"#utility.yul\":8600:8612   */\n      add\n        /* \"#utility.yul\":8593:8612   */\n      swap1\n      pop\n        /* \"#utility.yul\":8252:8618   */\n      swap2\n      swap1\n      pop\n      jump\t// out\n        /* \"#utility.yul\":8624:8990   */\n    tag_425:\n        /* \"#utility.yul\":8766:8769   */\n      0x00\n        /* \"#utility.yul\":8787:8854   */\n      tag_427\n        /* \"#utility.yul\":8851:8853   */\n      0x15\n        /* \"#utility.yul\":8846:8849   */\n      dup4\n        /* \"#utility.yul\":8787:8854   */\n      tag_380\n      jump\t// in\n    tag_427:\n        /* \"#utility.yul\":8780:8854   */\n      swap2\n      pop\n        /* \"#utility.yul\":8863:8956   */\n      tag_428\n        /* \"#utility.yul\":8952:8955   */\n      dup3\n        /* \"#utility.yul\":8863:8956   */\n      tag_429\n      jump\t// in\n    tag_428:\n        /* \"#utility.yul\":8981:8983   */\n      0x20\n        /* \"#utility.yul\":8976:8979   */\n      dup3\n        /* \"#utility.yul\":8972:8984   */\n      add\n        /* \"#utility.yul\":8965:8984   */\n      swap1\n      pop\n        /* \"#utility.yul\":8624:8990   */\n      swap2\n      swap1\n      pop\n      jump\t// out\n        /* \"#utility.yul\":8996:9362   */\n    tag_430:\n        /* \"#utility.yul\":9138:9141   */\n      0x00\n        /* \"#utility.yul\":9159:9226   */\n      tag_432\n        /* \"#utility.yul\":9223:9225   */\n      0x1c\n        /* \"#utility.yul\":9218:9221   */\n      dup4\n        /* \"#utility.yul\":9159:9226   */\n      tag_380\n      jump\t// in\n    tag_432:\n        /* \"#utility.yul\":9152:9226   */\n      swap2\n      pop\n        /* \"#utility.yul\":9235:9328   */\n      tag_433\n        /* \"#utility.yul\":9324:9327   */\n      dup3\n        /* \"#utility.yul\":9235:9328   */\n      tag_434\n      jump\t// in\n    tag_433:\n        /* \"#utility.yul\":9353:9355   */\n      0x20\n        /* \"#utility.yul\":9348:9351   */\n      dup3\n        /* \"#utility.yul\":9344:9356   */\n      add\n        /* \"#utility.yul\":9337:9356   */\n      swap1\n      pop\n        /* \"#utility.yul\":8996:9362   */\n      swap2\n      swap1\n      pop\n      jump\t// out\n        /* \"#utility.yul\":9368:9734   */\n    tag_435:\n        /* \"#utility.yul\":9510:9513   */\n      0x00\n        /* \"#utility.yul\":9531:9598   */\n      tag_437\n        /* \"#utility.yul\":9595:9597   */\n      0x19\n        /* \"#utility.yul\":9590:9593   */\n      dup4\n        /* \"#utility.yul\":9531:9598   */\n      tag_380\n      jump\t// in\n    tag_437:\n        /* \"#utility.yul\":9524:9598   */\n      swap2\n      pop\n        /* \"#utility.yul\":9607:9700   */\n      tag_438\n        /* \"#utility.yul\":9696:9699   */\n      dup3\n        /* \"#utility.yul\":9607:9700   */\n      tag_439\n      jump\t// in\n    tag_438:\n        /* \"#utility.yul\":9725:9727   */\n      0x20\n        /* \"#utility.yul\":9720:9723   */\n      dup3\n        /* \"#utility.yul\":9716:9728   */\n      add\n        /* \"#utility.yul\":9709:9728   */\n      swap1\n      pop\n        /* \"#utility.yul\":9368:9734   */\n      swap2\n      swap1\n      pop\n      jump\t// out\n        /* \"#utility.yul\":9740:10106   */\n    tag_440:\n        /* \"#utility.yul\":9882:9885   */\n      0x00\n        /* \"#utility.yul\":9903:9970   */\n      tag_442\n        /* \"#utility.yul\":9967:9969   */\n      0x21\n        /* \"#utility.yul\":9962:9965   */\n      dup4\n        /* \"#utility.yul\":9903:9970   */\n      tag_380\n      jump\t// in\n    tag_442:\n        /* \"#utility.yul\":9896:9970   */\n      swap2\n      pop\n        /* \"#utility.yul\":9979:10072   */\n      tag_443\n        /* \"#utility.yul\":10068:10071   */\n      dup3\n        /* \"#utility.yul\":9979:10072   */\n      tag_444\n      jump\t// in\n    tag_443:\n        /* \"#utility.yul\":10097:10099   */\n      0x40\n        /* \"#utility.yul\":10092:10095   */\n      dup3\n        /* \"#utility.yul\":10088:10100   */\n      add\n        /* \"#utility.yul\":10081:10100   */\n      swap1\n      pop\n        /* \"#utility.yul\":9740:10106   */\n      swap2\n      swap1\n      pop\n      jump\t// out\n        /* \"#utility.yul\":10112:10478   */\n    tag_445:\n        /* \"#utility.yul\":10254:10257   */\n      0x00\n        /* \"#utility.yul\":10275:10342   */\n      tag_447\n        /* \"#utility.yul\":10339:10341   */\n      0x25\n        /* \"#utility.yul\":10334:10337   */\n      dup4\n        /* \"#utility.yul\":10275:10342   */\n      tag_380\n      jump\t// in\n    tag_447:\n        /* \"#utility.yul\":10268:10342   */\n      swap2\n      pop\n        /* \"#utility.yul\":10351:10444   */\n      tag_448\n        /* \"#utility.yul\":10440:10443   */\n      dup3\n        /* \"#utility.yul\":10351:10444   */\n      tag_449\n      jump\t// in\n    tag_448:\n        /* \"#utility.yul\":10469:10471   */\n      0x40\n        /* \"#utility.yul\":10464:10467   */\n      dup3\n        /* \"#utility.yul\":10460:10472   */\n      add\n        /* \"#utility.yul\":10453:10472   */\n      swap1\n      pop\n        /* \"#utility.yul\":10112:10478   */\n      swap2\n      swap1\n      pop\n      jump\t// out\n        /* \"#utility.yul\":10484:10850   */\n    tag_450:\n        /* \"#utility.yul\":10626:10629   */\n      0x00\n        /* \"#utility.yul\":10647:10714   */\n      tag_452\n        /* \"#utility.yul\":10711:10713   */\n      0x24\n        /* \"#utility.yul\":10706:10709   */\n      dup4\n        /* \"#utility.yul\":10647:10714   */\n      tag_380\n      jump\t// in\n    tag_452:\n        /* \"#utility.yul\":10640:10714   */\n      swap2\n      pop\n        /* \"#utility.yul\":10723:10816   */\n      tag_453\n        /* \"#utility.yul\":10812:10815   */\n      dup3\n        /* \"#utility.yul\":10723:10816   */\n      tag_454\n      jump\t// in\n    tag_453:\n        /* \"#utility.yul\":10841:10843   */\n      0x40\n        /* \"#utility.yul\":10836:10839   */\n      dup3\n        /* \"#utility.yul\":10832:10844   */\n      add\n        /* \"#utility.yul\":10825:10844   */\n      swap1\n      pop\n        /* \"#utility.yul\":10484:10850   */\n      swap2\n      swap1\n      pop\n      jump\t// out\n        /* \"#utility.yul\":10856:11222   */\n    tag_455:\n        /* \"#utility.yul\":10998:11001   */\n      0x00\n        /* \"#utility.yul\":11019:11086   */\n      tag_457\n        /* \"#utility.yul\":11083:11085   */\n      0x25\n        /* \"#utility.yul\":11078:11081   */\n      dup4\n        /* \"#utility.yul\":11019:11086   */\n      tag_380\n      jump\t// in\n    tag_457:\n        /* \"#utility.yul\":11012:11086   */\n      swap2\n      pop\n        /* \"#utility.yul\":11095:11188   */\n      tag_458\n        /* \"#utility.yul\":11184:11187   */\n      dup3\n        /* \"#utility.yul\":11095:11188   */\n      tag_459\n      jump\t// in\n    tag_458:\n        /* \"#utility.yul\":11213:11215   */\n      0x40\n        /* \"#utility.yul\":11208:11211   */\n      dup3\n        /* \"#utility.yul\":11204:11216   */\n      add\n        /* \"#utility.yul\":11197:11216   */\n      swap1\n      pop\n        /* \"#utility.yul\":10856:11222   */\n      swap2\n      swap1\n      pop\n      jump\t// out\n        /* \"#utility.yul\":11228:11594   */\n    tag_460:\n        /* \"#utility.yul\":11370:11373   */\n      0x00\n        /* \"#utility.yul\":11391:11458   */\n      tag_462\n        /* \"#utility.yul\":11455:11457   */\n      0x1f\n        /* \"#utility.yul\":11450:11453   */\n      dup4\n        /* \"#utility.yul\":11391:11458   */\n      tag_380\n      jump\t// in\n    tag_462:\n        /* \"#utility.yul\":11384:11458   */\n      swap2\n      pop\n        /* \"#utility.yul\":11467:11560   */\n      tag_463\n        /* \"#utility.yul\":11556:11559   */\n      dup3\n        /* \"#utility.yul\":11467:11560   */\n      tag_464\n      jump\t// in\n    tag_463:\n        /* \"#utility.yul\":11585:11587   */\n      0x20\n        /* \"#utility.yul\":11580:11583   */\n      dup3\n        /* \"#utility.yul\":11576:11588   */\n      add\n        /* \"#utility.yul\":11569:11588   */\n      swap1\n      pop\n        /* \"#utility.yul\":11228:11594   */\n      swap2\n      swap1\n      pop\n      jump\t// out\n        /* \"#utility.yul\":11600:11718   */\n    tag_465:\n        /* \"#utility.yul\":11687:11711   */\n      tag_467\n        /* \"#utility.yul\":11705:11710   */\n      dup2\n        /* \"#utility.yul\":11687:11711   */\n      tag_468\n      jump\t// in\n    tag_467:\n        /* \"#utility.yul\":11682:11685   */\n      dup3\n        /* \"#utility.yul\":11675:11712   */\n      mstore\n        /* \"#utility.yul\":11600:11718   */\n      pop\n      pop\n      jump\t// out\n        /* \"#utility.yul\":11724:11836   */\n    tag_469:\n        /* \"#utility.yul\":11807:11829   */\n      tag_471\n        /* \"#utility.yul\":11823:11828   */\n      dup2\n        /* \"#utility.yul\":11807:11829   */\n      tag_472\n      jump\t// in\n    tag_471:\n        /* \"#utility.yul\":11802:11805   */\n      dup3\n        /* \"#utility.yul\":11795:11830   */\n      mstore\n        /* \"#utility.yul\":11724:11836   */\n      pop\n      pop\n      jump\t// out\n        /* \"#utility.yul\":11842:12284   */\n    tag_176:\n        /* \"#utility.yul\":11991:11995   */\n      0x00\n        /* \"#utility.yul\":12029:12031   */\n      0x60\n        /* \"#utility.yul\":12018:12027   */\n      dup3\n        /* \"#utility.yul\":12014:12032   */\n      add\n        /* \"#utility.yul\":12006:12032   */\n      swap1\n      pop\n        /* \"#utility.yul\":12042:12113   */\n      tag_474\n        /* \"#utility.yul\":12110:12111   */\n      0x00\n        /* \"#utility.yul\":12099:12108   */\n      dup4\n        /* \"#utility.yul\":12095:12112   */\n      add\n        /* \"#utility.yul\":12086:12092   */\n      dup7\n        /* \"#utility.yul\":12042:12113   */\n      tag_355\n      jump\t// in\n    tag_474:\n        /* \"#utility.yul\":12123:12195   */\n      tag_475\n        /* \"#utility.yul\":12191:12193   */\n      0x20\n        /* \"#utility.yul\":12180:12189   */\n      dup4\n        /* \"#utility.yul\":12176:12194   */\n      add\n        /* \"#utility.yul\":12167:12173   */\n      dup6\n        /* \"#utility.yul\":12123:12195   */\n      tag_355\n      jump\t// in\n    tag_475:\n        /* \"#utility.yul\":12205:12277   */\n      tag_476\n        /* \"#utility.yul\":12273:12275   */\n      0x40\n        /* \"#utility.yul\":12262:12271   */\n      dup4\n        /* \"#utility.yul\":12258:12276   */\n      add\n        /* \"#utility.yul\":12249:12255   */\n      dup5\n        /* \"#utility.yul\":12205:12277   */\n      tag_465\n      jump\t// in\n    tag_476:\n        /* \"#utility.yul\":11842:12284   */\n      swap5\n      swap4\n      pop\n      pop\n      pop\n      pop\n      jump\t// out\n        /* \"#utility.yul\":12290:12622   */\n    tag_148:\n        /* \"#utility.yul\":12411:12415   */\n      0x00\n        /* \"#utility.yul\":12449:12451   */\n      0x40\n        /* \"#utility.yul\":12438:12447   */\n      dup3\n        /* \"#utility.yul\":12434:12452   */\n      add\n        /* \"#utility.yul\":12426:12452   */\n      swap1\n      pop\n        /* \"#utility.yul\":12462:12533   */\n      tag_478\n        /* \"#utility.yul\":12530:12531   */\n      0x00\n        /* \"#utility.yul\":12519:12528   */\n      dup4\n        /* \"#utility.yul\":12515:12532   */\n      add\n        /* \"#utility.yul\":12506:12512   */\n      dup6\n        /* \"#utility.yul\":12462:12533   */\n      tag_355\n      jump\t// in\n    tag_478:\n        /* \"#utility.yul\":12543:12615   */\n      tag_479\n        /* \"#utility.yul\":12611:12613   */\n      0x20\n        /* \"#utility.yul\":12600:12609   */\n      dup4\n        /* \"#utility.yul\":12596:12614   */\n      add\n        /* \"#utility.yul\":12587:12593   */\n      dup5\n        /* \"#utility.yul\":12543:12615   */\n      tag_465\n      jump\t// in\n    tag_479:\n        /* \"#utility.yul\":12290:12622   */\n      swap4\n      swap3\n      pop\n      pop\n      pop\n      jump\t// out\n        /* \"#utility.yul\":12628:12838   */\n    tag_45:\n        /* \"#utility.yul\":12715:12719   */\n      0x00\n        /* \"#utility.yul\":12753:12755   */\n      0x20\n        /* \"#utility.yul\":12742:12751   */\n      dup3\n        /* \"#utility.yul\":12738:12756   */\n      add\n        /* \"#utility.yul\":12730:12756   */\n      swap1\n      pop\n        /* \"#utility.yul\":12766:12831   */\n      tag_481\n        /* \"#utility.yul\":12828:12829   */\n      0x00\n        /* \"#utility.yul\":12817:12826   */\n      dup4\n        /* \"#utility.yul\":12813:12830   */\n      add\n        /* \"#utility.yul\":12804:12810   */\n      dup5\n        /* \"#utility.yul\":12766:12831   */\n      tag_359\n      jump\t// in\n    tag_481:\n        /* \"#utility.yul\":12628:12838   */\n      swap3\n      swap2\n      pop\n      pop\n      jump\t// out\n        /* \"#utility.yul\":12844:13062   */\n    tag_58:\n        /* \"#utility.yul\":12935:12939   */\n      0x00\n        /* \"#utility.yul\":12973:12975   */\n      0x20\n        /* \"#utility.yul\":12962:12971   */\n      dup3\n        /* \"#utility.yul\":12958:12976   */\n      add\n        /* \"#utility.yul\":12950:12976   */\n      swap1\n      pop\n        /* \"#utility.yul\":12986:13055   */\n      tag_483\n        /* \"#utility.yul\":13052:13053   */\n      0x00\n        /* \"#utility.yul\":13041:13050   */\n      dup4\n        /* \"#utility.yul\":13037:13054   */\n      add\n        /* \"#utility.yul\":13028:13034   */\n      dup5\n        /* \"#utility.yul\":12986:13055   */\n      tag_363\n      jump\t// in\n    tag_483:\n        /* \"#utility.yul\":12844:13062   */\n      swap3\n      swap2\n      pop\n      pop\n      jump\t// out\n        /* \"#utility.yul\":13068:13318   */\n    tag_52:\n        /* \"#utility.yul\":13175:13179   */\n      0x00\n        /* \"#utility.yul\":13213:13215   */\n      0x20\n        /* \"#utility.yul\":13202:13211   */\n      dup3\n        /* \"#utility.yul\":13198:13216   */\n      add\n        /* \"#utility.yul\":13190:13216   */\n      swap1\n      pop\n        /* \"#utility.yul\":13226:13311   */\n      tag_485\n        /* \"#utility.yul\":13308:13309   */\n      0x00\n        /* \"#utility.yul\":13297:13306   */\n      dup4\n        /* \"#utility.yul\":13293:13310   */\n      add\n        /* \"#utility.yul\":13284:13290   */\n      dup5\n        /* \"#utility.yul\":13226:13311   */\n      tag_367\n      jump\t// in\n    tag_485:\n        /* \"#utility.yul\":13068:13318   */\n      swap3\n      swap2\n      pop\n      pop\n      jump\t// out\n        /* \"#utility.yul\":13324:13576   */\n    tag_100:\n        /* \"#utility.yul\":13432:13436   */\n      0x00\n        /* \"#utility.yul\":13470:13472   */\n      0x20\n        /* \"#utility.yul\":13459:13468   */\n      dup3\n        /* \"#utility.yul\":13455:13473   */\n      add\n        /* \"#utility.yul\":13447:13473   */\n      swap1\n      pop\n        /* \"#utility.yul\":13483:13569   */\n      tag_487\n        /* \"#utility.yul\":13566:13567   */\n      0x00\n        /* \"#utility.yul\":13555:13564   */\n      dup4\n        /* \"#utility.yul\":13551:13568   */\n      add\n        /* \"#utility.yul\":13542:13548   */\n      dup5\n        /* \"#utility.yul\":13483:13569   */\n      tag_371\n      jump\t// in\n    tag_487:\n        /* \"#utility.yul\":13324:13576   */\n      swap3\n      swap2\n      pop\n      pop\n      jump\t// out\n        /* \"#utility.yul\":13582:13895   */\n    tag_35:\n        /* \"#utility.yul\":13695:13699   */\n      0x00\n        /* \"#utility.yul\":13733:13735   */\n      0x20\n        /* \"#utility.yul\":13722:13731   */\n      dup3\n        /* \"#utility.yul\":13718:13736   */\n      add\n        /* \"#utility.yul\":13710:13736   */\n      swap1\n      pop\n        /* \"#utility.yul\":13782:13791   */\n      dup2\n        /* \"#utility.yul\":13776:13780   */\n      dup2\n        /* \"#utility.yul\":13772:13792   */\n      sub\n        /* \"#utility.yul\":13768:13769   */\n      0x00\n        /* \"#utility.yul\":13757:13766   */\n      dup4\n        /* \"#utility.yul\":13753:13770   */\n      add\n        /* \"#utility.yul\":13746:13793   */\n      mstore\n        /* \"#utility.yul\":13810:13888   */\n      tag_489\n        /* \"#utility.yul\":13883:13887   */\n      dup2\n        /* \"#utility.yul\":13874:13880   */\n      dup5\n        /* \"#utility.yul\":13810:13888   */\n      tag_375\n      jump\t// in\n    tag_489:\n        /* \"#utility.yul\":13802:13888   */\n      swap1\n      pop\n        /* \"#utility.yul\":13582:13895   */\n      swap3\n      swap2\n      pop\n      pop\n      jump\t// out\n        /* \"#utility.yul\":13901:14320   */\n    tag_273:\n        /* \"#utility.yul\":14067:14071   */\n      0x00\n        /* \"#utility.yul\":14105:14107   */\n      0x20\n        /* \"#utility.yul\":14094:14103   */\n      dup3\n        /* \"#utility.yul\":14090:14108   */\n      add\n        /* \"#utility.yul\":14082:14108   */\n      swap1\n      pop\n        /* \"#utility.yul\":14154:14163   */\n      dup2\n        /* \"#utility.yul\":14148:14152   */\n      dup2\n        /* \"#utility.yul\":14144:14164   */\n      sub\n        /* \"#utility.yul\":14140:14141   */\n      0x00\n        /* \"#utility.yul\":14129:14138   */\n      dup4\n        /* \"#utility.yul\":14125:14142   */\n      add\n        /* \"#utility.yul\":14118:14165   */\n      mstore\n        /* \"#utility.yul\":14182:14313   */\n      tag_491\n        /* \"#utility.yul\":14308:14312   */\n      dup2\n        /* \"#utility.yul\":14182:14313   */\n      tag_385\n      jump\t// in\n    tag_491:\n        /* \"#utility.yul\":14174:14313   */\n      swap1\n      pop\n        /* \"#utility.yul\":13901:14320   */\n      swap2\n      swap1\n      pop\n      jump\t// out\n        /* \"#utility.yul\":14326:14745   */\n    tag_255:\n        /* \"#utility.yul\":14492:14496   */\n      0x00\n        /* \"#utility.yul\":14530:14532   */\n      0x20\n        /* \"#utility.yul\":14519:14528   */\n      dup3\n        /* \"#utility.yul\":14515:14533   */\n      add\n        /* \"#utility.yul\":14507:14533   */\n      swap1\n      pop\n        /* \"#utility.yul\":14579:14588   */\n      dup2\n        /* \"#utility.yul\":14573:14577   */\n      dup2\n        /* \"#utility.yul\":14569:14589   */\n      sub\n        /* \"#utility.yul\":14565:14566   */\n      0x00\n        /* \"#utility.yul\":14554:14563   */\n      dup4\n        /* \"#utility.yul\":14550:14567   */\n      add\n        /* \"#utility.yul\":14543:14590   */\n      mstore\n        /* \"#utility.yul\":14607:14738   */\n      tag_493\n        /* \"#utility.yul\":14733:14737   */\n      dup2\n        /* \"#utility.yul\":14607:14738   */\n      tag_390\n      jump\t// in\n    tag_493:\n        /* \"#utility.yul\":14599:14738   */\n      swap1\n      pop\n        /* \"#utility.yul\":14326:14745   */\n      swap2\n      swap1\n      pop\n      jump\t// out\n        /* \"#utility.yul\":14751:15170   */\n    tag_245:\n        /* \"#utility.yul\":14917:14921   */\n      0x00\n        /* \"#utility.yul\":14955:14957   */\n      0x20\n        /* \"#utility.yul\":14944:14953   */\n      dup3\n        /* \"#utility.yul\":14940:14958   */\n      add\n        /* \"#utility.yul\":14932:14958   */\n      swap1\n      pop\n        /* \"#utility.yul\":15004:15013   */\n      dup2\n        /* \"#utility.yul\":14998:15002   */\n      dup2\n        /* \"#utility.yul\":14994:15014   */\n      sub\n        /* \"#utility.yul\":14990:14991   */\n      0x00\n        /* \"#utility.yul\":14979:14988   */\n      dup4\n        /* \"#utility.yul\":14975:14992   */\n      add\n        /* \"#utility.yul\":14968:15015   */\n      mstore\n        /* \"#utility.yul\":15032:15163   */\n      tag_495\n        /* \"#utility.yul\":15158:15162   */\n      dup2\n        /* \"#utility.yul\":15032:15163   */\n      tag_395\n      jump\t// in\n    tag_495:\n        /* \"#utility.yul\":15024:15163   */\n      swap1\n      pop\n        /* \"#utility.yul\":14751:15170   */\n      swap2\n      swap1\n      pop\n      jump\t// out\n        /* \"#utility.yul\":15176:15595   */\n    tag_208:\n        /* \"#utility.yul\":15342:15346   */\n      0x00\n        /* \"#utility.yul\":15380:15382   */\n      0x20\n        /* \"#utility.yul\":15369:15378   */\n      dup3\n        /* \"#utility.yul\":15365:15383   */\n      add\n        /* \"#utility.yul\":15357:15383   */\n      swap1\n      pop\n        /* \"#utility.yul\":15429:15438   */\n      dup2\n        /* \"#utility.yul\":15423:15427   */\n      dup2\n        /* \"#utility.yul\":15419:15439   */\n      sub\n        /* \"#utility.yul\":15415:15416   */\n      0x00\n        /* \"#utility.yul\":15404:15413   */\n      dup4\n        /* \"#utility.yul\":15400:15417   */\n      add\n        /* \"#utility.yul\":15393:15440   */\n      mstore\n        /* \"#utility.yul\":15457:15588   */\n      tag_497\n        /* \"#utility.yul\":15583:15587   */\n      dup2\n        /* \"#utility.yul\":15457:15588   */\n      tag_400\n      jump\t// in\n    tag_497:\n        /* \"#utility.yul\":15449:15588   */\n      swap1\n      pop\n        /* \"#utility.yul\":15176:15595   */\n      swap2\n      swap1\n      pop\n      jump\t// out\n        /* \"#utility.yul\":15601:16020   */\n    tag_265:\n        /* \"#utility.yul\":15767:15771   */\n      0x00\n        /* \"#utility.yul\":15805:15807   */\n      0x20\n        /* \"#utility.yul\":15794:15803   */\n      dup3\n        /* \"#utility.yul\":15790:15808   */\n      add\n        /* \"#utility.yul\":15782:15808   */\n      swap1\n      pop\n        /* \"#utility.yul\":15854:15863   */\n      dup2\n        /* \"#utility.yul\":15848:15852   */\n      dup2\n        /* \"#utility.yul\":15844:15864   */\n      sub\n        /* \"#utility.yul\":15840:15841   */\n      0x00\n        /* \"#utility.yul\":15829:15838   */\n      dup4\n        /* \"#utility.yul\":15825:15842   */\n      add\n        /* \"#utility.yul\":15818:15865   */\n      mstore\n        /* \"#utility.yul\":15882:16013   */\n      tag_499\n        /* \"#utility.yul\":16008:16012   */\n      dup2\n        /* \"#utility.yul\":15882:16013   */\n      tag_405\n      jump\t// in\n    tag_499:\n        /* \"#utility.yul\":15874:16013   */\n      swap1\n      pop\n        /* \"#utility.yul\":15601:16020   */\n      swap2\n      swap1\n      pop\n      jump\t// out\n        /* \"#utility.yul\":16026:16445   */\n    tag_277:\n        /* \"#utility.yul\":16192:16196   */\n      0x00\n        /* \"#utility.yul\":16230:16232   */\n      0x20\n        /* \"#utility.yul\":16219:16228   */\n      dup3\n        /* \"#utility.yul\":16215:16233   */\n      add\n        /* \"#utility.yul\":16207:16233   */\n      swap1\n      pop\n        /* \"#utility.yul\":16279:16288   */\n      dup2\n        /* \"#utility.yul\":16273:16277   */\n      dup2\n        /* \"#utility.yul\":16269:16289   */\n      sub\n        /* \"#utility.yul\":16265:16266   */\n      0x00\n        /* \"#utility.yul\":16254:16263   */\n      dup4\n        /* \"#utility.yul\":16250:16267   */\n      add\n        /* \"#utility.yul\":16243:16290   */\n      mstore\n        /* \"#utility.yul\":16307:16438   */\n      tag_501\n        /* \"#utility.yul\":16433:16437   */\n      dup2\n        /* \"#utility.yul\":16307:16438   */\n      tag_410\n      jump\t// in\n    tag_501:\n        /* \"#utility.yul\":16299:16438   */\n      swap1\n      pop\n        /* \"#utility.yul\":16026:16445   */\n      swap2\n      swap1\n      pop\n      jump\t// out\n        /* \"#utility.yul\":16451:16870   */\n    tag_171:\n        /* \"#utility.yul\":16617:16621   */\n      0x00\n        /* \"#utility.yul\":16655:16657   */\n      0x20\n        /* \"#utility.yul\":16644:16653   */\n      dup3\n        /* \"#utility.yul\":16640:16658   */\n      add\n        /* \"#utility.yul\":16632:16658   */\n      swap1\n      pop\n        /* \"#utility.yul\":16704:16713   */\n      dup2\n        /* \"#utility.yul\":16698:16702   */\n      dup2\n        /* \"#utility.yul\":16694:16714   */\n      sub\n        /* \"#utility.yul\":16690:16691   */\n      0x00\n        /* \"#utility.yul\":16679:16688   */\n      dup4\n        /* \"#utility.yul\":16675:16692   */\n      add\n        /* \"#utility.yul\":16668:16715   */\n      mstore\n        /* \"#utility.yul\":16732:16863   */\n      tag_503\n        /* \"#utility.yul\":16858:16862   */\n      dup2\n        /* \"#utility.yul\":16732:16863   */\n      tag_415\n      jump\t// in\n    tag_503:\n        /* \"#utility.yul\":16724:16863   */\n      swap1\n      pop\n        /* \"#utility.yul\":16451:16870   */\n      swap2\n      swap1\n      pop\n      jump\t// out\n        /* \"#utility.yul\":16876:17295   */\n    tag_174:\n        /* \"#utility.yul\":17042:17046   */\n      0x00\n        /* \"#utility.yul\":17080:17082   */\n      0x20\n        /* \"#utility.yul\":17069:17078   */\n      dup3\n        /* \"#utility.yul\":17065:17083   */\n      add\n        /* \"#utility.yul\":17057:17083   */\n      swap1\n      pop\n        /* \"#utility.yul\":17129:17138   */\n      dup2\n        /* \"#utility.yul\":17123:17127   */\n      dup2\n        /* \"#utility.yul\":17119:17139   */\n      sub\n        /* \"#utility.yul\":17115:17116   */\n      0x00\n        /* \"#utility.yul\":17104:17113   */\n      dup4\n        /* \"#utility.yul\":17100:17117   */\n      add\n        /* \"#utility.yul\":17093:17140   */\n      mstore\n        /* \"#utility.yul\":17157:17288   */\n      tag_505\n        /* \"#utility.yul\":17283:17287   */\n      dup2\n        /* \"#utility.yul\":17157:17288   */\n      tag_420\n      jump\t// in\n    tag_505:\n        /* \"#utility.yul\":17149:17288   */\n      swap1\n      pop\n        /* \"#utility.yul\":16876:17295   */\n      swap2\n      swap1\n      pop\n      jump\t// out\n        /* \"#utility.yul\":17301:17720   */\n    tag_142:\n        /* \"#utility.yul\":17467:17471   */\n      0x00\n        /* \"#utility.yul\":17505:17507   */\n      0x20\n        /* \"#utility.yul\":17494:17503   */\n      dup3\n        /* \"#utility.yul\":17490:17508   */\n      add\n        /* \"#utility.yul\":17482:17508   */\n      swap1\n      pop\n        /* \"#utility.yul\":17554:17563   */\n      dup2\n        /* \"#utility.yul\":17548:17552   */\n      dup2\n        /* \"#utility.yul\":17544:17564   */\n      sub\n        /* \"#utility.yul\":17540:17541   */\n      0x00\n        /* \"#utility.yul\":17529:17538   */\n      dup4\n        /* \"#utility.yul\":17525:17542   */\n      add\n        /* \"#utility.yul\":17518:17565   */\n      mstore\n        /* \"#utility.yul\":17582:17713   */\n      tag_507\n        /* \"#utility.yul\":17708:17712   */\n      dup2\n        /* \"#utility.yul\":17582:17713   */\n      tag_425\n      jump\t// in\n    tag_507:\n        /* \"#utility.yul\":17574:17713   */\n      swap1\n      pop\n        /* \"#utility.yul\":17301:17720   */\n      swap2\n      swap1\n      pop\n      jump\t// out\n        /* \"#utility.yul\":17726:18145   */\n    tag_201:\n        /* \"#utility.yul\":17892:17896   */\n      0x00\n        /* \"#utility.yul\":17930:17932   */\n      0x20\n        /* \"#utility.yul\":17919:17928   */\n      dup3\n        /* \"#utility.yul\":17915:17933   */\n      add\n        /* \"#utility.yul\":17907:17933   */\n      swap1\n      pop\n        /* \"#utility.yul\":17979:17988   */\n      dup2\n        /* \"#utility.yul\":17973:17977   */\n      dup2\n        /* \"#utility.yul\":17969:17989   */\n      sub\n        /* \"#utility.yul\":17965:17966   */\n      0x00\n        /* \"#utility.yul\":17954:17963   */\n      dup4\n        /* \"#utility.yul\":17950:17967   */\n      add\n        /* \"#utility.yul\":17943:17990   */\n      mstore\n        /* \"#utility.yul\":18007:18138   */\n      tag_509\n        /* \"#utility.yul\":18133:18137   */\n      dup2\n        /* \"#utility.yul\":18007:18138   */\n      tag_430\n      jump\t// in\n    tag_509:\n        /* \"#utility.yul\":17999:18138   */\n      swap1\n      pop\n        /* \"#utility.yul\":17726:18145   */\n      swap2\n      swap1\n      pop\n      jump\t// out\n        /* \"#utility.yul\":18151:18570   */\n    tag_146:\n        /* \"#utility.yul\":18317:18321   */\n      0x00\n        /* \"#utility.yul\":18355:18357   */\n      0x20\n        /* \"#utility.yul\":18344:18353   */\n      dup3\n        /* \"#utility.yul\":18340:18358   */\n      add\n        /* \"#utility.yul\":18332:18358   */\n      swap1\n      pop\n        /* \"#utility.yul\":18404:18413   */\n      dup2\n        /* \"#utility.yul\":18398:18402   */\n      dup2\n        /* \"#utility.yul\":18394:18414   */\n      sub\n        /* \"#utility.yul\":18390:18391   */\n      0x00\n        /* \"#utility.yul\":18379:18388   */\n      dup4\n        /* \"#utility.yul\":18375:18392   */\n      add\n        /* \"#utility.yul\":18368:18415   */\n      mstore\n        /* \"#utility.yul\":18432:18563   */\n      tag_511\n        /* \"#utility.yul\":18558:18562   */\n      dup2\n        /* \"#utility.yul\":18432:18563   */\n      tag_435\n      jump\t// in\n    tag_511:\n        /* \"#utility.yul\":18424:18563   */\n      swap1\n      pop\n        /* \"#utility.yul\":18151:18570   */\n      swap2\n      swap1\n      pop\n      jump\t// out\n        /* \"#utility.yul\":18576:18995   */\n    tag_250:\n        /* \"#utility.yul\":18742:18746   */\n      0x00\n        /* \"#utility.yul\":18780:18782   */\n      0x20\n        /* \"#utility.yul\":18769:18778   */\n      dup3\n        /* \"#utility.yul\":18765:18783   */\n      add\n        /* \"#utility.yul\":18757:18783   */\n      swap1\n      pop\n        /* \"#utility.yul\":18829:18838   */\n      dup2\n        /* \"#utility.yul\":18823:18827   */\n      dup2\n        /* \"#utility.yul\":18819:18839   */\n      sub\n        /* \"#utility.yul\":18815:18816   */\n      0x00\n        /* \"#utility.yul\":18804:18813   */\n      dup4\n        /* \"#utility.yul\":18800:18817   */\n      add\n        /* \"#utility.yul\":18793:18840   */\n      mstore\n        /* \"#utility.yul\":18857:18988   */\n      tag_513\n        /* \"#utility.yul\":18983:18987   */\n      dup2\n        /* \"#utility.yul\":18857:18988   */\n      tag_440\n      jump\t// in\n    tag_513:\n        /* \"#utility.yul\":18849:18988   */\n      swap1\n      pop\n        /* \"#utility.yul\":18576:18995   */\n      swap2\n      swap1\n      pop\n      jump\t// out\n        /* \"#utility.yul\":19001:19420   */\n    tag_270:\n        /* \"#utility.yul\":19167:19171   */\n      0x00\n        /* \"#utility.yul\":19205:19207   */\n      0x20\n        /* \"#utility.yul\":19194:19203   */\n      dup3\n        /* \"#utility.yul\":19190:19208   */\n      add\n        /* \"#utility.yul\":19182:19208   */\n      swap1\n      pop\n        /* \"#utility.yul\":19254:19263   */\n      dup2\n        /* \"#utility.yul\":19248:19252   */\n      dup2\n        /* \"#utility.yul\":19244:19264   */\n      sub\n        /* \"#utility.yul\":19240:19241   */\n      0x00\n        /* \"#utility.yul\":19229:19238   */\n      dup4\n        /* \"#utility.yul\":19225:19242   */\n      add\n        /* \"#utility.yul\":19218:19265   */\n      mstore\n        /* \"#utility.yul\":19282:19413   */\n      tag_515\n        /* \"#utility.yul\":19408:19412   */\n      dup2\n        /* \"#utility.yul\":19282:19413   */\n      tag_445\n      jump\t// in\n    tag_515:\n        /* \"#utility.yul\":19274:19413   */\n      swap1\n      pop\n        /* \"#utility.yul\":19001:19420   */\n      swap2\n      swap1\n      pop\n      jump\t// out\n        /* \"#utility.yul\":19426:19845   */\n    tag_242:\n        /* \"#utility.yul\":19592:19596   */\n      0x00\n        /* \"#utility.yul\":19630:19632   */\n      0x20\n        /* \"#utility.yul\":19619:19628   */\n      dup3\n        /* \"#utility.yul\":19615:19633   */\n      add\n        /* \"#utility.yul\":19607:19633   */\n      swap1\n      pop\n        /* \"#utility.yul\":19679:19688   */\n      dup2\n        /* \"#utility.yul\":19673:19677   */\n      dup2\n        /* \"#utility.yul\":19669:19689   */\n      sub\n        /* \"#utility.yul\":19665:19666   */\n      0x00\n        /* \"#utility.yul\":19654:19663   */\n      dup4\n        /* \"#utility.yul\":19650:19667   */\n      add\n        /* \"#utility.yul\":19643:19690   */\n      mstore\n        /* \"#utility.yul\":19707:19838   */\n      tag_517\n        /* \"#utility.yul\":19833:19837   */\n      dup2\n        /* \"#utility.yul\":19707:19838   */\n      tag_450\n      jump\t// in\n    tag_517:\n        /* \"#utility.yul\":19699:19838   */\n      swap1\n      pop\n        /* \"#utility.yul\":19426:19845   */\n      swap2\n      swap1\n      pop\n      jump\t// out\n        /* \"#utility.yul\":19851:20270   */\n    tag_230:\n        /* \"#utility.yul\":20017:20021   */\n      0x00\n        /* \"#utility.yul\":20055:20057   */\n      0x20\n        /* \"#utility.yul\":20044:20053   */\n      dup3\n        /* \"#utility.yul\":20040:20058   */\n      add\n        /* \"#utility.yul\":20032:20058   */\n      swap1\n      pop\n        /* \"#utility.yul\":20104:20113   */\n      dup2\n        /* \"#utility.yul\":20098:20102   */\n      dup2\n        /* \"#utility.yul\":20094:20114   */\n      sub\n        /* \"#utility.yul\":20090:20091   */\n      0x00\n        /* \"#utility.yul\":20079:20088   */\n      dup4\n        /* \"#utility.yul\":20075:20092   */\n      add\n        /* \"#utility.yul\":20068:20115   */\n      mstore\n        /* \"#utility.yul\":20132:20263   */\n      tag_519\n        /* \"#utility.yul\":20258:20262   */\n      dup2\n        /* \"#utility.yul\":20132:20263   */\n      tag_455\n      jump\t// in\n    tag_519:\n        /* \"#utility.yul\":20124:20263   */\n      swap1\n      pop\n        /* \"#utility.yul\":19851:20270   */\n      swap2\n      swap1\n      pop\n      jump\t// out\n        /* \"#utility.yul\":20276:20695   */\n    tag_284:\n        /* \"#utility.yul\":20442:20446   */\n      0x00\n        /* \"#utility.yul\":20480:20482   */\n      0x20\n        /* \"#utility.yul\":20469:20478   */\n      dup3\n        /* \"#utility.yul\":20465:20483   */\n      add\n        /* \"#utility.yul\":20457:20483   */\n      swap1\n      pop\n        /* \"#utility.yul\":20529:20538   */\n      dup2\n        /* \"#utility.yul\":20523:20527   */\n      dup2\n        /* \"#utility.yul\":20519:20539   */\n      sub\n        /* \"#utility.yul\":20515:20516   */\n      0x00\n        /* \"#utility.yul\":20504:20513   */\n      dup4\n        /* \"#utility.yul\":20500:20517   */\n      add\n        /* \"#utility.yul\":20493:20540   */\n      mstore\n        /* \"#utility.yul\":20557:20688   */\n      tag_521\n        /* \"#utility.yul\":20683:20687   */\n      dup2\n        /* \"#utility.yul\":20557:20688   */\n      tag_460\n      jump\t// in\n    tag_521:\n        /* \"#utility.yul\":20549:20688   */\n      swap1\n      pop\n        /* \"#utility.yul\":20276:20695   */\n      swap2\n      swap1\n      pop\n      jump\t// out\n        /* \"#utility.yul\":20701:20923   */\n    tag_39:\n        /* \"#utility.yul\":20794:20798   */\n      0x00\n        /* \"#utility.yul\":20832:20834   */\n      0x20\n        /* \"#utility.yul\":20821:20830   */\n      dup3\n        /* \"#utility.yul\":20817:20835   */\n      add\n        /* \"#utility.yul\":20809:20835   */\n      swap1\n      pop\n        /* \"#utility.yul\":20845:20916   */\n      tag_523\n        /* \"#utility.yul\":20913:20914   */\n      0x00\n        /* \"#utility.yul\":20902:20911   */\n      dup4\n        /* \"#utility.yul\":20898:20915   */\n      add\n        /* \"#utility.yul\":20889:20895   */\n      dup5\n        /* \"#utility.yul\":20845:20916   */\n      tag_465\n      jump\t// in\n    tag_523:\n        /* \"#utility.yul\":20701:20923   */\n      swap3\n      swap2\n      pop\n      pop\n      jump\t// out\n        /* \"#utility.yul\":20929:21143   */\n    tag_80:\n        /* \"#utility.yul\":21018:21022   */\n      0x00\n        /* \"#utility.yul\":21056:21058   */\n      0x20\n        /* \"#utility.yul\":21045:21054   */\n      dup3\n        /* \"#utility.yul\":21041:21059   */\n      add\n        /* \"#utility.yul\":21033:21059   */\n      swap1\n      pop\n        /* \"#utility.yul\":21069:21136   */\n      tag_525\n        /* \"#utility.yul\":21133:21134   */\n      0x00\n        /* \"#utility.yul\":21122:21131   */\n      dup4\n        /* \"#utility.yul\":21118:21135   */\n      add\n        /* \"#utility.yul\":21109:21115   */\n      dup5\n        /* \"#utility.yul\":21069:21136   */\n      tag_469\n      jump\t// in\n    tag_525:\n        /* \"#utility.yul\":20929:21143   */\n      swap3\n      swap2\n      pop\n      pop\n      jump\t// out\n        /* \"#utility.yul\":21230:21329   */\n    tag_378:\n        /* \"#utility.yul\":21282:21288   */\n      0x00\n        /* \"#utility.yul\":21316:21321   */\n      dup2\n        /* \"#utility.yul\":21310:21322   */\n      mload\n        /* \"#utility.yul\":21300:21322   */\n      swap1\n      pop\n        /* \"#utility.yul\":21230:21329   */\n      swap2\n      swap1\n      pop\n      jump\t// out\n        /* \"#utility.yul\":21335:21504   */\n    tag_380:\n        /* \"#utility.yul\":21419:21430   */\n      0x00\n        /* \"#utility.yul\":21453:21459   */\n      dup3\n        /* \"#utility.yul\":21448:21451   */\n      dup3\n        /* \"#utility.yul\":21441:21460   */\n      mstore\n        /* \"#utility.yul\":21493:21497   */\n      0x20\n        /* \"#utility.yul\":21488:21491   */\n      dup3\n        /* \"#utility.yul\":21484:21498   */\n      add\n        /* \"#utility.yul\":21469:21498   */\n      swap1\n      pop\n        /* \"#utility.yul\":21335:21504   */\n      swap3\n      swap2\n      pop\n      pop\n      jump\t// out\n        /* \"#utility.yul\":21510:21815   */\n    tag_182:\n        /* \"#utility.yul\":21550:21553   */\n      0x00\n        /* \"#utility.yul\":21569:21589   */\n      tag_531\n        /* \"#utility.yul\":21587:21588   */\n      dup3\n        /* \"#utility.yul\":21569:21589   */\n      tag_468\n      jump\t// in\n    tag_531:\n        /* \"#utility.yul\":21564:21589   */\n      swap2\n      pop\n        /* \"#utility.yul\":21603:21623   */\n      tag_532\n        /* \"#utility.yul\":21621:21622   */\n      dup4\n        /* \"#utility.yul\":21603:21623   */\n      tag_468\n      jump\t// in\n    tag_532:\n        /* \"#utility.yul\":21598:21623   */\n      swap3\n      pop\n        /* \"#utility.yul\":21757:21758   */\n      dup3\n        /* \"#utility.yul\":21689:21755   */\n      0xffffffffffffffffffffffffffffffffffffffffffffffffffffffffffffffff\n        /* \"#utility.yul\":21685:21759   */\n      sub\n        /* \"#utility.yul\":21682:21683   */\n      dup3\n        /* \"#utility.yul\":21679:21760   */\n      gt\n        /* \"#utility.yul\":21676:21783   */\n      iszero\n      tag_533\n      jumpi\n        /* \"#utility.yul\":21763:21781   */\n      tag_534\n      tag_535\n      jump\t// in\n    tag_534:\n        /* \"#utility.yul\":21676:21783   */\n    tag_533:\n        /* \"#utility.yul\":21807:21808   */\n      dup3\n        /* \"#utility.yul\":21804:21805   */\n      dup3\n        /* \"#utility.yul\":21800:21809   */\n      add\n        /* \"#utility.yul\":21793:21809   */\n      swap1\n      pop\n        /* \"#utility.yul\":21510:21815   */\n      swap3\n      swap2\n      pop\n      pop\n      jump\t// out\n        /* \"#utility.yul\":21821:22012   */\n    tag_155:\n        /* \"#utility.yul\":21861:21865   */\n      0x00\n        /* \"#utility.yul\":21881:21901   */\n      tag_537\n        /* \"#utility.yul\":21899:21900   */\n      dup3\n        /* \"#utility.yul\":21881:21901   */\n      tag_468\n      jump\t// in\n    tag_537:\n        /* \"#utility.yul\":21876:21901   */\n      swap2\n      pop\n        /* \"#utility.yul\":21915:21935   */\n      tag_538\n        /* \"#utility.yul\":21933:21934   */\n      dup4\n        /* \"#utility.yul\":21915:21935   */\n      tag_468\n      jump\t// in\n    tag_538:\n        /* \"#utility.yul\":21910:21935   */\n      swap3\n      pop\n        /* \"#utility.yul\":21954:21955   */\n      dup3\n        /* \"#utility.yul\":21951:21952   */\n      dup3\n        /* \"#utility.yul\":21948:21956   */\n      lt\n        /* \"#utility.yul\":21945:21979   */\n      iszero\n      tag_539\n      jumpi\n        /* \"#utility.yul\":21959:21977   */\n      tag_540\n      tag_535\n      jump\t// in\n    tag_540:\n        /* \"#utility.yul\":21945:21979   */\n    tag_539:\n        /* \"#utility.yul\":22004:22005   */\n      dup3\n        /* \"#utility.yul\":22001:22002   */\n      dup3\n        /* \"#utility.yul\":21997:22006   */\n      sub\n        /* \"#utility.yul\":21989:22006   */\n      swap1\n      pop\n        /* \"#utility.yul\":21821:22012   */\n      swap3\n      swap2\n      pop\n      pop\n      jump\t// out\n        /* \"#utility.yul\":22018:22114   */\n    tag_358:\n        /* \"#utility.yul\":22055:22062   */\n      0x00\n        /* \"#utility.yul\":22084:22108   */\n      tag_542\n        /* \"#utility.yul\":22102:22107   */\n      dup3\n        /* \"#utility.yul\":22084:22108   */\n      tag_543\n      jump\t// in\n    tag_542:\n        /* \"#utility.yul\":22073:22108   */\n      swap1\n      pop\n        /* \"#utility.yul\":22018:22114   */\n      swap2\n      swap1\n      pop\n      jump\t// out\n        /* \"#utility.yul\":22120:22210   */\n    tag_362:\n        /* \"#utility.yul\":22154:22161   */\n      0x00\n        /* \"#utility.yul\":22197:22202   */\n      dup2\n        /* \"#utility.yul\":22190:22203   */\n      iszero\n        /* \"#utility.yul\":22183:22204   */\n      iszero\n        /* \"#utility.yul\":22172:22204   */\n      swap1\n      pop\n        /* \"#utility.yul\":22120:22210   */\n      swap2\n      swap1\n      pop\n      jump\t// out\n        /* \"#utility.yul\":22216:22365   */\n    tag_366:\n        /* \"#utility.yul\":22252:22259   */\n      0x00\n        /* \"#utility.yul\":22292:22358   */\n      0xffffffff00000000000000000000000000000000000000000000000000000000\n        /* \"#utility.yul\":22285:22290   */\n      dup3\n        /* \"#utility.yul\":22281:22359   */\n      and\n        /* \"#utility.yul\":22270:22359   */\n      swap1\n      pop\n        /* \"#utility.yul\":22216:22365   */\n      swap2\n      swap1\n      pop\n      jump\t// out\n        /* \"#utility.yul\":22371:22497   */\n    tag_543:\n        /* \"#utility.yul\":22408:22415   */\n      0x00\n        /* \"#utility.yul\":22448:22490   */\n      0xffffffffffffffffffffffffffffffffffffffff\n        /* \"#utility.yul\":22441:22446   */\n      dup3\n        /* \"#utility.yul\":22437:22491   */\n      and\n        /* \"#utility.yul\":22426:22491   */\n      swap1\n      pop\n        /* \"#utility.yul\":22371:22497   */\n      swap2\n      swap1\n      pop\n      jump\t// out\n        /* \"#utility.yul\":22503:22580   */\n    tag_468:\n        /* \"#utility.yul\":22540:22547   */\n      0x00\n        /* \"#utility.yul\":22569:22574   */\n      dup2\n        /* \"#utility.yul\":22558:22574   */\n      swap1\n      pop\n        /* \"#utility.yul\":22503:22580   */\n      swap2\n      swap1\n      pop\n      jump\t// out\n        /* \"#utility.yul\":22586:22672   */\n    tag_472:\n        /* \"#utility.yul\":22621:22628   */\n      0x00\n        /* \"#utility.yul\":22661:22665   */\n      0xff\n        /* \"#utility.yul\":22654:22659   */\n      dup3\n        /* \"#utility.yul\":22650:22666   */\n      and\n        /* \"#utility.yul\":22639:22666   */\n      swap1\n      pop\n        /* \"#utility.yul\":22586:22672   */\n      swap2\n      swap1\n      pop\n      jump\t// out\n        /* \"#utility.yul\":22678:22818   */\n    tag_370:\n        /* \"#utility.yul\":22742:22751   */\n      0x00\n        /* \"#utility.yul\":22775:22812   */\n      tag_550\n        /* \"#utility.yul\":22806:22811   */\n      dup3\n        /* \"#utility.yul\":22775:22812   */\n      tag_551\n      jump\t// in\n    tag_550:\n        /* \"#utility.yul\":22762:22812   */\n      swap1\n      pop\n        /* \"#utility.yul\":22678:22818   */\n      swap2\n      swap1\n      pop\n      jump\t// out\n        /* \"#utility.yul\":22824:22965   */\n    tag_374:\n        /* \"#utility.yul\":22889:22898   */\n      0x00\n        /* \"#utility.yul\":22922:22959   */\n      tag_553\n        /* \"#utility.yul\":22953:22958   */\n      dup3\n        /* \"#utility.yul\":22922:22959   */\n      tag_551\n      jump\t// in\n    tag_553:\n        /* \"#utility.yul\":22909:22959   */\n      swap1\n      pop\n        /* \"#utility.yul\":22824:22965   */\n      swap2\n      swap1\n      pop\n      jump\t// out\n        /* \"#utility.yul\":22971:23097   */\n    tag_551:\n        /* \"#utility.yul\":23021:23030   */\n      0x00\n        /* \"#utility.yul\":23054:23091   */\n      tag_555\n        /* \"#utility.yul\":23085:23090   */\n      dup3\n        /* \"#utility.yul\":23054:23091   */\n      tag_556\n      jump\t// in\n    tag_555:\n        /* \"#utility.yul\":23041:23091   */\n      swap1\n      pop\n        /* \"#utility.yul\":22971:23097   */\n      swap2\n      swap1\n      pop\n      jump\t// out\n        /* \"#utility.yul\":23103:23216   */\n    tag_556:\n        /* \"#utility.yul\":23153:23162   */\n      0x00\n        /* \"#utility.yul\":23186:23210   */\n      tag_558\n        /* \"#utility.yul\":23204:23209   */\n      dup3\n        /* \"#utility.yul\":23186:23210   */\n      tag_543\n      jump\t// in\n    tag_558:\n        /* \"#utility.yul\":23173:23210   */\n      swap1\n      pop\n        /* \"#utility.yul\":23103:23216   */\n      swap2\n      swap1\n      pop\n      jump\t// out\n        /* \"#utility.yul\":23222:23529   */\n    tag_382:\n        /* \"#utility.yul\":23290:23291   */\n      0x00\n        /* \"#utility.yul\":23300:23413   */\n    tag_560:\n        /* \"#utility.yul\":23314:23320   */\n      dup4\n        /* \"#utility.yul\":23311:23312   */\n      dup2\n        /* \"#utility.yul\":23308:23321   */\n      lt\n        /* \"#utility.yul\":23300:23413   */\n      iszero\n      tag_562\n      jumpi\n        /* \"#utility.yul\":23399:23400   */\n      dup1\n        /* \"#utility.yul\":23394:23397   */\n      dup3\n        /* \"#utility.yul\":23390:23401   */\n      add\n        /* \"#utility.yul\":23384:23402   */\n      mload\n        /* \"#utility.yul\":23380:23381   */\n      dup2\n        /* \"#utility.yul\":23375:23378   */\n      dup5\n        /* \"#utility.yul\":23371:23382   */\n      add\n        /* \"#utility.yul\":23364:23403   */\n      mstore\n        /* \"#utility.yul\":23336:23338   */\n      0x20\n        /* \"#utility.yul\":23333:23334   */\n      dup2\n        /* \"#utility.yul\":23329:23339   */\n      add\n        /* \"#utility.yul\":23324:23339   */\n      swap1\n      pop\n        /* \"#utility.yul\":23300:23413   */\n      jump(tag_560)\n    tag_562:\n        /* \"#utility.yul\":23431:23437   */\n      dup4\n        /* \"#utility.yul\":23428:23429   */\n      dup2\n        /* \"#utility.yul\":23425:23438   */\n      gt\n        /* \"#utility.yul\":23422:23523   */\n      iszero\n      tag_563\n      jumpi\n        /* \"#utility.yul\":23511:23512   */\n      0x00\n        /* \"#utility.yul\":23502:23508   */\n      dup5\n        /* \"#utility.yul\":23497:23500   */\n      dup5\n        /* \"#utility.yul\":23493:23509   */\n      add\n        /* \"#utility.yul\":23486:23513   */\n      mstore\n        /* \"#utility.yul\":23422:23523   */\n    tag_563:\n        /* \"#utility.yul\":23271:23529   */\n      pop\n        /* \"#utility.yul\":23222:23529   */\n      pop\n      pop\n      pop\n      jump\t// out\n        /* \"#utility.yul\":23535:23855   */\n    tag_127:\n        /* \"#utility.yul\":23579:23585   */\n      0x00\n        /* \"#utility.yul\":23616:23617   */\n      0x02\n        /* \"#utility.yul\":23610:23614   */\n      dup3\n        /* \"#utility.yul\":23606:23618   */\n      div\n        /* \"#utility.yul\":23596:23618   */\n      swap1\n      pop\n        /* \"#utility.yul\":23663:23664   */\n      0x01\n        /* \"#utility.yul\":23657:23661   */\n      dup3\n        /* \"#utility.yul\":23653:23665   */\n      and\n        /* \"#utility.yul\":23684:23702   */\n      dup1\n        /* \"#utility.yul\":23674:23755   */\n      tag_565\n      jumpi\n        /* \"#utility.yul\":23740:23744   */\n      0x7f\n        /* \"#utility.yul\":23732:23738   */\n      dup3\n        /* \"#utility.yul\":23728:23745   */\n      and\n        /* \"#utility.yul\":23718:23745   */\n      swap2\n      pop\n        /* \"#utility.yul\":23674:23755   */\n    tag_565:\n        /* \"#utility.yul\":23802:23804   */\n      0x20\n        /* \"#utility.yul\":23794:23800   */\n      dup3\n        /* \"#utility.yul\":23791:23805   */\n      lt\n        /* \"#utility.yul\":23771:23789   */\n      dup2\n        /* \"#utility.yul\":23768:23806   */\n      eq\n        /* \"#utility.yul\":23765:23849   */\n      iszero\n      tag_566\n      jumpi\n        /* \"#utility.yul\":23821:23839   */\n      tag_567\n      tag_568\n      jump\t// in\n    tag_567:\n        /* \"#utility.yul\":23765:23849   */\n    tag_566:\n        /* \"#utility.yul\":23586:23855   */\n      pop\n        /* \"#utility.yul\":23535:23855   */\n      swap2\n      swap1\n      pop\n      jump\t// out\n        /* \"#utility.yul\":23861:24041   */\n    tag_535:\n        /* \"#utility.yul\":23909:23986   */\n      0x4e487b7100000000000000000000000000000000000000000000000000000000\n        /* \"#utility.yul\":23906:23907   */\n      0x00\n        /* \"#utility.yul\":23899:23987   */\n      mstore\n        /* \"#utility.yul\":24006:24010   */\n      0x11\n        /* \"#utility.yul\":24003:24004   */\n      0x04\n        /* \"#utility.yul\":23996:24011   */\n      mstore\n        /* \"#utility.yul\":24030:24034   */\n      0x24\n        /* \"#utility.yul\":24027:24028   */\n      0x00\n        /* \"#utility.yul\":24020:24035   */\n      revert\n        /* \"#utility.yul\":24047:24227   */\n    tag_568:\n        /* \"#utility.yul\":24095:24172   */\n      0x4e487b7100000000000000000000000000000000000000000000000000000000\n        /* \"#utility.yul\":24092:24093   */\n      0x00\n        /* \"#utility.yul\":24085:24173   */\n      mstore\n        /* \"#utility.yul\":24192:24196   */\n      0x22\n        /* \"#utility.yul\":24189:24190   */\n      0x04\n        /* \"#utility.yul\":24182:24197   */\n      mstore\n        /* \"#utility.yul\":24216:24220   */\n      0x24\n        /* \"#utility.yul\":24213:24214   */\n      0x00\n        /* \"#utility.yul\":24206:24221   */\n      revert\n        /* \"#utility.yul\":24233:24350   */\n    tag_308:\n        /* \"#utility.yul\":24342:24343   */\n      0x00\n        /* \"#utility.yul\":24339:24340   */\n      dup1\n        /* \"#utility.yul\":24332:24344   */\n      revert\n        /* \"#utility.yul\":24356:24473   */\n    tag_305:\n        /* \"#utility.yul\":24465:24466   */\n      0x00\n        /* \"#utility.yul\":24462:24463   */\n      dup1\n        /* \"#utility.yul\":24455:24467   */\n      revert\n        /* \"#utility.yul\":24479:24596   */\n    tag_311:\n        /* \"#utility.yul\":24588:24589   */\n      0x00\n        /* \"#utility.yul\":24585:24586   */\n      dup1\n        /* \"#utility.yul\":24578:24590   */\n      revert\n        /* \"#utility.yul\":24602:24719   */\n    tag_340:\n        /* \"#utility.yul\":24711:24712   */\n      0x00\n        /* \"#utility.yul\":24708:24709   */\n      dup1\n        /* \"#utility.yul\":24701:24713   */\n      revert\n        /* \"#utility.yul\":24725:24842   */\n    tag_319:\n        /* \"#utility.yul\":24834:24835   */\n      0x00\n        /* \"#utility.yul\":24831:24832   */\n      dup1\n        /* \"#utility.yul\":24824:24836   */\n      revert\n        /* \"#utility.yul\":24848:24950   */\n    tag_384:\n        /* \"#utility.yul\":24889:24895   */\n      0x00\n        /* \"#utility.yul\":24940:24942   */\n      0x1f\n        /* \"#utility.yul\":24936:24943   */\n      not\n        /* \"#utility.yul\":24931:24933   */\n      0x1f\n        /* \"#utility.yul\":24924:24929   */\n      dup4\n        /* \"#utility.yul\":24920:24934   */\n      add\n        /* \"#utility.yul\":24916:24944   */\n      and\n        /* \"#utility.yul\":24906:24944   */\n      swap1\n      pop\n        /* \"#utility.yul\":24848:24950   */\n      swap2\n      swap1\n      pop\n      jump\t// out\n        /* \"#utility.yul\":24956:25178   */\n    tag_389:\n        /* \"#utility.yul\":25096:25130   */\n      0x45524332303a207472616e7366657220746f20746865207a65726f2061646472\n        /* \"#utility.yul\":25092:25093   */\n      0x00\n        /* \"#utility.yul\":25084:25090   */\n      dup3\n        /* \"#utility.yul\":25080:25094   */\n      add\n        /* \"#utility.yul\":25073:25131   */\n      mstore\n        /* \"#utility.yul\":25165:25170   */\n      0x6573730000000000000000000000000000000000000000000000000000000000\n        /* \"#utility.yul\":25160:25162   */\n      0x20\n        /* \"#utility.yul\":25152:25158   */\n      dup3\n        /* \"#utility.yul\":25148:25163   */\n      add\n        /* \"#utility.yul\":25141:25171   */\n      mstore\n        /* \"#utility.yul\":24956:25178   */\n      pop\n      jump\t// out\n        /* \"#utility.yul\":25184:25405   */\n    tag_394:\n        /* \"#utility.yul\":25324:25358   */\n      0x45524332303a206275726e20616d6f756e7420657863656564732062616c616e\n        /* \"#utility.yul\":25320:25321   */\n      0x00\n        /* \"#utility.yul\":25312:25318   */\n      dup3\n        /* \"#utility.yul\":25308:25322   */\n      add\n        /* \"#utility.yul\":25301:25359   */\n      mstore\n        /* \"#utility.yul\":25393:25397   */\n      0x6365000000000000000000000000000000000000000000000000000000000000\n        /* \"#utility.yul\":25388:25390   */\n      0x20\n        /* \"#utility.yul\":25380:25386   */\n      dup3\n        /* \"#utility.yul\":25376:25391   */\n      add\n        /* \"#utility.yul\":25369:25398   */\n      mstore\n        /* \"#utility.yul\":25184:25405   */\n      pop\n      jump\t// out\n        /* \"#utility.yul\":25411:25632   */\n    tag_399:\n        /* \"#utility.yul\":25551:25585   */\n      0x45524332303a20617070726f766520746f20746865207a65726f206164647265\n        /* \"#utility.yul\":25547:25548   */\n      0x00\n        /* \"#utility.yul\":25539:25545   */\n      dup3\n        /* \"#utility.yul\":25535:25549   */\n      add\n        /* \"#utility.yul\":25528:25586   */\n      mstore\n        /* \"#utility.yul\":25620:25624   */\n      0x7373000000000000000000000000000000000000000000000000000000000000\n        /* \"#utility.yul\":25615:25617   */\n      0x20\n        /* \"#utility.yul\":25607:25613   */\n      dup3\n        /* \"#utility.yul\":25603:25618   */\n      add\n        /* \"#utility.yul\":25596:25625   */\n      mstore\n        /* \"#utility.yul\":25411:25632   */\n      pop\n      jump\t// out\n        /* \"#utility.yul\":25638:25816   */\n    tag_404:\n        /* \"#utility.yul\":25778:25808   */\n      0x446f204e6f7420486176652052465420546f74616c20537570706c7900000000\n        /* \"#utility.yul\":25774:25775   */\n      0x00\n        /* \"#utility.yul\":25766:25772   */\n      dup3\n        /* \"#utility.yul\":25762:25776   */\n      add\n        /* \"#utility.yul\":25755:25809   */\n      mstore\n        /* \"#utility.yul\":25638:25816   */\n      pop\n      jump\t// out\n        /* \"#utility.yul\":25822:26001   */\n    tag_409:\n        /* \"#utility.yul\":25962:25993   */\n      0x45524332303a20696e73756666696369656e7420616c6c6f77616e6365000000\n        /* \"#utility.yul\":25958:25959   */\n      0x00\n        /* \"#utility.yul\":25950:25956   */\n      dup3\n        /* \"#utility.yul\":25946:25960   */\n      add\n        /* \"#utility.yul\":25939:25994   */\n      mstore\n        /* \"#utility.yul\":25822:26001   */\n      pop\n      jump\t// out\n        /* \"#utility.yul\":26007:26232   */\n    tag_414:\n        /* \"#utility.yul\":26147:26181   */\n      0x45524332303a207472616e7366657220616d6f756e7420657863656564732062\n        /* \"#utility.yul\":26143:26144   */\n      0x00\n        /* \"#utility.yul\":26135:26141   */\n      dup3\n        /* \"#utility.yul\":26131:26145   */\n      add\n        /* \"#utility.yul\":26124:26182   */\n      mstore\n        /* \"#utility.yul\":26216:26224   */\n      0x616c616e63650000000000000000000000000000000000000000000000000000\n        /* \"#utility.yul\":26211:26213   */\n      0x20\n        /* \"#utility.yul\":26203:26209   */\n      dup3\n        /* \"#utility.yul\":26199:26214   */\n      add\n        /* \"#utility.yul\":26192:26225   */\n      mstore\n        /* \"#utility.yul\":26007:26232   */\n      pop\n      jump\t// out\n        /* \"#utility.yul\":26238:26411   */\n    tag_419:\n        /* \"#utility.yul\":26378:26403   */\n      0x4e6f7420656e6f75676820736861726573206c65667421000000000000000000\n        /* \"#utility.yul\":26374:26375   */\n      0x00\n        /* \"#utility.yul\":26366:26372   */\n      dup3\n        /* \"#utility.yul\":26362:26376   */\n      add\n        /* \"#utility.yul\":26355:26404   */\n      mstore\n        /* \"#utility.yul\":26238:26411   */\n      pop\n      jump\t// out\n        /* \"#utility.yul\":26417:26585   */\n    tag_424:\n        /* \"#utility.yul\":26557:26577   */\n      0x436f6e7472616374204973205061757365640000000000000000000000000000\n        /* \"#utility.yul\":26553:26554   */\n      0x00\n        /* \"#utility.yul\":26545:26551   */\n      dup3\n        /* \"#utility.yul\":26541:26555   */\n      add\n        /* \"#utility.yul\":26534:26578   */\n      mstore\n        /* \"#utility.yul\":26417:26585   */\n      pop\n      jump\t// out\n        /* \"#utility.yul\":26591:26762   */\n    tag_429:\n        /* \"#utility.yul\":26731:26754   */\n      0x54617267657420416c7265616479205261697365640000000000000000000000\n        /* \"#utility.yul\":26727:26728   */\n      0x00\n        /* \"#utility.yul\":26719:26725   */\n      dup3\n        /* \"#utility.yul\":26715:26729   */\n      add\n        /* \"#utility.yul\":26708:26755   */\n      mstore\n        /* \"#utility.yul\":26591:26762   */\n      pop\n      jump\t// out\n        /* \"#utility.yul\":26768:26946   */\n    tag_434:\n        /* \"#utility.yul\":26908:26938   */\n      0x4f6e6c792041646d696e2043616e2050617573652f556e706175736500000000\n        /* \"#utility.yul\":26904:26905   */\n      0x00\n        /* \"#utility.yul\":26896:26902   */\n      dup3\n        /* \"#utility.yul\":26892:26906   */\n      add\n        /* \"#utility.yul\":26885:26939   */\n      mstore\n        /* \"#utility.yul\":26768:26946   */\n      pop\n      jump\t// out\n        /* \"#utility.yul\":26952:27127   */\n    tag_439:\n        /* \"#utility.yul\":27092:27119   */\n      0x4e6f7420477265617420456e6f7567682042616c616e63652100000000000000\n        /* \"#utility.yul\":27088:27089   */\n      0x00\n        /* \"#utility.yul\":27080:27086   */\n      dup3\n        /* \"#utility.yul\":27076:27090   */\n      add\n        /* \"#utility.yul\":27069:27120   */\n      mstore\n        /* \"#utility.yul\":26952:27127   */\n      pop\n      jump\t// out\n        /* \"#utility.yul\":27133:27353   */\n    tag_444:\n        /* \"#utility.yul\":27273:27307   */\n      0x45524332303a206275726e2066726f6d20746865207a65726f20616464726573\n        /* \"#utility.yul\":27269:27270   */\n      0x00\n        /* \"#utility.yul\":27261:27267   */\n      dup3\n        /* \"#utility.yul\":27257:27271   */\n      add\n        /* \"#utility.yul\":27250:27308   */\n      mstore\n        /* \"#utility.yul\":27342:27345   */\n      0x7300000000000000000000000000000000000000000000000000000000000000\n        /* \"#utility.yul\":27337:27339   */\n      0x20\n        /* \"#utility.yul\":27329:27335   */\n      dup3\n        /* \"#utility.yul\":27325:27340   */\n      add\n        /* \"#utility.yul\":27318:27346   */\n      mstore\n        /* \"#utility.yul\":27133:27353   */\n      pop\n      jump\t// out\n        /* \"#utility.yul\":27359:27583   */\n    tag_449:\n        /* \"#utility.yul\":27499:27533   */\n      0x45524332303a207472616e736665722066726f6d20746865207a65726f206164\n        /* \"#utility.yul\":27495:27496   */\n      0x00\n        /* \"#utility.yul\":27487:27493   */\n      dup3\n        /* \"#utility.yul\":27483:27497   */\n      add\n        /* \"#utility.yul\":27476:27534   */\n      mstore\n        /* \"#utility.yul\":27568:27575   */\n      0x6472657373000000000000000000000000000000000000000000000000000000\n        /* \"#utility.yul\":27563:27565   */\n      0x20\n        /* \"#utility.yul\":27555:27561   */\n      dup3\n        /* \"#utility.yul\":27551:27566   */\n      add\n        /* \"#utility.yul\":27544:27576   */\n      mstore\n        /* \"#utility.yul\":27359:27583   */\n      pop\n      jump\t// out\n        /* \"#utility.yul\":27589:27812   */\n    tag_454:\n        /* \"#utility.yul\":27729:27763   */\n      0x45524332303a20617070726f76652066726f6d20746865207a65726f20616464\n        /* \"#utility.yul\":27725:27726   */\n      0x00\n        /* \"#utility.yul\":27717:27723   */\n      dup3\n        /* \"#utility.yul\":27713:27727   */\n      add\n        /* \"#utility.yul\":27706:27764   */\n      mstore\n        /* \"#utility.yul\":27798:27804   */\n      0x7265737300000000000000000000000000000000000000000000000000000000\n        /* \"#utility.yul\":27793:27795   */\n      0x20\n        /* \"#utility.yul\":27785:27791   */\n      dup3\n        /* \"#utility.yul\":27781:27796   */\n      add\n        /* \"#utility.yul\":27774:27805   */\n      mstore\n        /* \"#utility.yul\":27589:27812   */\n      pop\n      jump\t// out\n        /* \"#utility.yul\":27818:28042   */\n    tag_459:\n        /* \"#utility.yul\":27958:27992   */\n      0x45524332303a2064656372656173656420616c6c6f77616e63652062656c6f77\n        /* \"#utility.yul\":27954:27955   */\n      0x00\n        /* \"#utility.yul\":27946:27952   */\n      dup3\n        /* \"#utility.yul\":27942:27956   */\n      add\n        /* \"#utility.yul\":27935:27993   */\n      mstore\n        /* \"#utility.yul\":28027:28034   */\n      0x207a65726f000000000000000000000000000000000000000000000000000000\n        /* \"#utility.yul\":28022:28024   */\n      0x20\n        /* \"#utility.yul\":28014:28020   */\n      dup3\n        /* \"#utility.yul\":28010:28025   */\n      add\n        /* \"#utility.yul\":28003:28035   */\n      mstore\n        /* \"#utility.yul\":27818:28042   */\n      pop\n      jump\t// out\n        /* \"#utility.yul\":28048:28229   */\n    tag_464:\n        /* \"#utility.yul\":28188:28221   */\n      0x45524332303a206d696e7420746f20746865207a65726f206164647265737300\n        /* \"#utility.yul\":28184:28185   */\n      0x00\n        /* \"#utility.yul\":28176:28182   */\n      dup3\n        /* \"#utility.yul\":28172:28186   */\n      add\n        /* \"#utility.yul\":28165:28222   */\n      mstore\n        /* \"#utility.yul\":28048:28229   */\n      pop\n      jump\t// out\n        /* \"#utility.yul\":28235:28357   */\n    tag_296:\n        /* \"#utility.yul\":28308:28332   */\n      tag_594\n        /* \"#utility.yul\":28326:28331   */\n      dup2\n        /* \"#utility.yul\":28308:28332   */\n      tag_358\n      jump\t// in\n    tag_594:\n        /* \"#utility.yul\":28301:28306   */\n      dup2\n        /* \"#utility.yul\":28298:28333   */\n      eq\n        /* \"#utility.yul\":28288:28351   */\n      tag_595\n      jumpi\n        /* \"#utility.yul\":28347:28348   */\n      0x00\n        /* \"#utility.yul\":28344:28345   */\n      dup1\n        /* \"#utility.yul\":28337:28349   */\n      revert\n        /* \"#utility.yul\":28288:28351   */\n    tag_595:\n        /* \"#utility.yul\":28235:28357   */\n      pop\n      jump\t// out\n        /* \"#utility.yul\":28363:28479   */\n    tag_300:\n        /* \"#utility.yul\":28433:28454   */\n      tag_597\n        /* \"#utility.yul\":28448:28453   */\n      dup2\n        /* \"#utility.yul\":28433:28454   */\n      tag_362\n      jump\t// in\n    tag_597:\n        /* \"#utility.yul\":28426:28431   */\n      dup2\n        /* \"#utility.yul\":28423:28455   */\n      eq\n        /* \"#utility.yul\":28413:28473   */\n      tag_598\n      jumpi\n        /* \"#utility.yul\":28469:28470   */\n      0x00\n        /* \"#utility.yul\":28466:28467   */\n      dup1\n        /* \"#utility.yul\":28459:28471   */\n      revert\n        /* \"#utility.yul\":28413:28473   */\n    tag_598:\n        /* \"#utility.yul\":28363:28479   */\n      pop\n      jump\t// out\n        /* \"#utility.yul\":28485:28607   */\n    tag_315:\n        /* \"#utility.yul\":28558:28582   */\n      tag_600\n        /* \"#utility.yul\":28576:28581   */\n      dup2\n        /* \"#utility.yul\":28558:28582   */\n      tag_468\n      jump\t// in\n    tag_600:\n        /* \"#utility.yul\":28551:28556   */\n      dup2\n        /* \"#utility.yul\":28548:28583   */\n      eq\n        /* \"#utility.yul\":28538:28601   */\n      tag_601\n      jumpi\n        /* \"#utility.yul\":28597:28598   */\n      0x00\n        /* \"#utility.yul\":28594:28595   */\n      dup1\n        /* \"#utility.yul\":28587:28599   */\n      revert\n        /* \"#utility.yul\":28538:28601   */\n    tag_601:\n        /* \"#utility.yul\":28485:28607   */\n      pop\n      jump\t// out\n\n    auxdata: 0xa26469706673582212200dea08cf5d29a4d9f7375bcb032d2026af176def3ad84db093ba8936bba0223a64736f6c63430008070033\n}\n",
				"bytecode": {
					"linkReferences": {},
					"object": "60a06040526000600960006101000a81548160ff0219169083151502179055506000600960016101000a81548160ff0219169083151502179055503480156200004757600080fd5b5060405162002c1938038062002c1983398181016040528101906200006d9190620002d2565b848481600390805190602001906200008792919062000176565b508060049080519060200190620000a092919062000176565b505050856006819055508260088190555081600960026101000a81548173ffffffffffffffffffffffffffffffffffffffff021916908373ffffffffffffffffffffffffffffffffffffffff16021790555080600560006101000a81548173ffffffffffffffffffffffffffffffffffffffff021916908373ffffffffffffffffffffffffffffffffffffffff1602179055503373ffffffffffffffffffffffffffffffffffffffff1660808173ffffffffffffffffffffffffffffffffffffffff1660601b81525050505050505050620005a2565b82805462000184906200047f565b90600052602060002090601f016020900481019282620001a85760008555620001f4565b82601f10620001c357805160ff1916838001178555620001f4565b82800160010185558215620001f4579182015b82811115620001f3578251825591602001919060010190620001d6565b5b50905062000203919062000207565b5090565b5b808211156200022257600081600090555060010162000208565b5090565b60006200023d6200023784620003d5565b620003ac565b9050828152602081018484840111156200025c576200025b6200054e565b5b6200026984828562000449565b509392505050565b60008151905062000282816200056e565b92915050565b600082601f830112620002a0576200029f62000549565b5b8151620002b284826020860162000226565b91505092915050565b600081519050620002cc8162000588565b92915050565b60008060008060008060c08789031215620002f257620002f162000558565b5b60006200030289828a01620002bb565b965050602087015167ffffffffffffffff81111562000326576200032562000553565b5b6200033489828a0162000288565b955050604087015167ffffffffffffffff81111562000358576200035762000553565b5b6200036689828a0162000288565b94505060606200037989828a01620002bb565b93505060806200038c89828a0162000271565b92505060a06200039f89828a0162000271565b9150509295509295509295565b6000620003b8620003cb565b9050620003c68282620004b5565b919050565b6000604051905090565b600067ffffffffffffffff821115620003f357620003f26200051a565b5b620003fe826200055d565b9050602081019050919050565b600062000418826200041f565b9050919050565b600073ffffffffffffffffffffffffffffffffffffffff82169050919050565b6000819050919050565b60005b83811015620004695780820151818401526020810190506200044c565b8381111562000479576000848401525b50505050565b600060028204905060018216806200049857607f821691505b60208210811415620004af57620004ae620004eb565b5b50919050565b620004c0826200055d565b810181811067ffffffffffffffff82111715620004e257620004e16200051a565b5b80604052505050565b7f4e487b7100000000000000000000000000000000000000000000000000000000600052602260045260246000fd5b7f4e487b7100000000000000000000000000000000000000000000000000000000600052604160045260246000fd5b600080fd5b600080fd5b600080fd5b600080fd5b6000601f19601f8301169050919050565b62000579816200040b565b81146200058557600080fd5b50565b62000593816200043f565b81146200059f57600080fd5b50565b60805160601c612651620005c860003960008181610be00152610c8d01526126516000f3fe608060405234801561001057600080fd5b50600436106101735760003560e01c806339509351116100de5780638456cb5911610097578063a457c2d711610071578063a457c2d714610408578063a9059cbb14610438578063bdf8968214610468578063dd62ed3e1461048657610173565b80638456cb59146103c2578063953b8fb8146103cc57806395d89b41146103ea57610173565b806339509351146103125780633f4ba83a1461034257806370a082311461034c57806377262d381461037c5780637b3e5e7b146103865780637e0d73d4146103a457610173565b806316c61ccc1161013057806316c61ccc1461025057806318160ddd1461026e5780632037fcbf1461028c57806323b872dd146102a85780632afcf480146102d8578063313ce567146102f457610173565b806306fdde031461017857806306febe0014610196578063095ea7b3146101b457806311db3c16146101e457806311df999514610202578063150b7a0214610220575b600080fd5b6101806104b6565b60405161018d9190611d62565b60405180910390f35b61019e610548565b6040516101ab9190611f84565b60405180910390f35b6101ce60048036038101906101c9919061192a565b61054e565b6040516101db9190611cf6565b60405180910390f35b6101ec610571565b6040516101f99190611cf6565b60405180910390f35b61020a610584565b6040516102179190611d2c565b60405180910390f35b61023a600480360381019061023591906118a2565b6105aa565b6040516102479190611d11565b60405180910390f35b6102586105bf565b6040516102659190611cf6565b60405180910390f35b6102766105d2565b6040516102839190611f84565b60405180910390f35b6102a660048036038101906102a19190611997565b6105dc565b005b6102c260048036038101906102bd919061184f565b61074d565b6040516102cf9190611cf6565b60405180910390f35b6102f260048036038101906102ed9190611997565b61077c565b005b6102fc610a4c565b6040516103099190611f9f565b60405180910390f35b61032c6004803603810190610327919061192a565b610a55565b6040516103399190611cf6565b60405180910390f35b61034a610a8c565b005b610366600480360381019061036191906117e2565b610b39565b6040516103739190611f84565b60405180910390f35b610384610b81565b005b61038e610c85565b60405161039b9190611f84565b60405180910390f35b6103ac610c8b565b6040516103b99190611d47565b60405180910390f35b6103ca610caf565b005b6103d4610d5c565b6040516103e19190611f84565b60405180910390f35b6103f2610d62565b6040516103ff9190611d62565b60405180910390f35b610422600480360381019061041d919061192a565b610df4565b60405161042f9190611cf6565b60405180910390f35b610452600480360381019061044d919061192a565b610e6b565b60405161045f9190611cf6565b60405180910390f35b610470610e8e565b60405161047d9190611f84565b60405180910390f35b6104a0600480360381019061049b919061180f565b610ea5565b6040516104ad9190611f84565b60405180910390f35b6060600380546104c59061215c565b80601f01602080910402602001604051908101604052809291908181526020018280546104f19061215c565b801561053e5780601f106105135761010080835404028352916020019161053e565b820191906000526020600020905b81548152906001019060200180831161052157829003601f168201915b5050505050905090565b60085481565b600080610559610f2c565b9050610566818585610f34565b600191505092915050565b600960019054906101000a900460ff1681565b600560009054906101000a900473ffffffffffffffffffffffffffffffffffffffff1681565b600063150b7a0260e01b905095945050505050565b600960009054906101000a900460ff1681565b6000600254905090565b600960019054906101000a900460ff161561062c576040517f08c379a000000000000000000000000000000000000000000000000000000000815260040161062390611e84565b60405180910390fd5b61063533610b39565b811115610677576040517f08c379a000000000000000000000000000000000000000000000000000000000815260040161066e90611ec4565b60405180910390fd5b600560009054906101000a900473ffffffffffffffffffffffffffffffffffffffff1673ffffffffffffffffffffffffffffffffffffffff1663a9059cbb33836040518363ffffffff1660e01b81526004016106d4929190611ccd565b602060405180830381600087803b1580156106ee57600080fd5b505af1158015610702573d6000803e3d6000fd5b505050506040513d601f19601f82011682018060405250810190610726919061196a565b508060076000828254610739919061202c565b9250508190555061074a33826110ff565b50565b600080610758610f2c565b90506107658582856112d6565b610770858585611362565b60019150509392505050565b600960019054906101000a900460ff16156107cc576040517f08c379a00000000000000000000000000000000000000000000000000000000081526004016107c390611e84565b60405180910390fd5b6107d46105d2565b6006546107e1919061202c565b811115610823576040517f08c379a000000000000000000000000000000000000000000000000000000000815260040161081a90611e44565b60405180910390fd5b600960009054906101000a900460ff1615610873576040517f08c379a000000000000000000000000000000000000000000000000000000000815260040161086a90611e64565b60405180910390fd5b600560009054906101000a900473ffffffffffffffffffffffffffffffffffffffff1673ffffffffffffffffffffffffffffffffffffffff166323b872dd3330846040518463ffffffff1660e01b81526004016108d293929190611c96565b602060405180830381600087803b1580156108ec57600080fd5b505af1158015610900573d6000803e3d6000fd5b505050506040513d601f19601f82011682018060405250810190610924919061196a565b5080600760008282546109379190611fd6565b9250508190555061094833826115e3565b6109506105d2565b6006541415610a4957600560009054906101000a900473ffffffffffffffffffffffffffffffffffffffff1673ffffffffffffffffffffffffffffffffffffffff1663a9059cbb600960029054906101000a900473ffffffffffffffffffffffffffffffffffffffff166006546040518363ffffffff1660e01b81526004016109da929190611ccd565b602060405180830381600087803b1580156109f457600080fd5b505af1158015610a08573d6000803e3d6000fd5b505050506040513d601f19601f82011682018060405250810190610a2c919061196a565b506001600960016101000a81548160ff0219169083151502179055505b50565b60006012905090565b600080610a60610f2c565b9050610a81818585610a728589610ea5565b610a7c9190611fd6565b610f34565b600191505092915050565b600960029054906101000a900473ffffffffffffffffffffffffffffffffffffffff1673ffffffffffffffffffffffffffffffffffffffff163373ffffffffffffffffffffffffffffffffffffffff1614610b1c576040517f08c379a0000000000000000000000000000000000000000000000000000000008152600401610b1390611ea4565b60405180910390fd5b6000600960006101000a81548160ff021916908315150217905550565b60008060008373ffffffffffffffffffffffffffffffffffffffff1673ffffffffffffffffffffffffffffffffffffffff168152602001908152602001600020549050919050565b600654610b8d33610b39565b14610bcd576040517f08c379a0000000000000000000000000000000000000000000000000000000008152600401610bc490611de4565b60405180910390fd5b610bde33610bd96105d2565b6110ff565b7f000000000000000000000000000000000000000000000000000000000000000073ffffffffffffffffffffffffffffffffffffffff166342842e0e30333073ffffffffffffffffffffffffffffffffffffffff166040518463ffffffff1660e01b8152600401610c5193929190611c96565b600060405180830381600087803b158015610c6b57600080fd5b505af1158015610c7f573d6000803e3d6000fd5b50505050565b60075481565b7f000000000000000000000000000000000000000000000000000000000000000081565b600960029054906101000a900473ffffffffffffffffffffffffffffffffffffffff1673ffffffffffffffffffffffffffffffffffffffff163373ffffffffffffffffffffffffffffffffffffffff1614610d3f576040517f08c379a0000000000000000000000000000000000000000000000000000000008152600401610d3690611ea4565b60405180910390fd5b6001600960006101000a81548160ff021916908315150217905550565b60065481565b606060048054610d719061215c565b80601f0160208091040260200160405190810160405280929190818152602001828054610d9d9061215c565b8015610dea5780601f10610dbf57610100808354040283529160200191610dea565b820191906000526020600020905b815481529060010190602001808311610dcd57829003601f168201915b5050505050905090565b600080610dff610f2c565b90506000610e0d8286610ea5565b905083811015610e52576040517f08c379a0000000000000000000000000000000000000000000000000000000008152600401610e4990611f44565b60405180910390fd5b610e5f8286868403610f34565b60019250505092915050565b600080610e76610f2c565b9050610e83818585611362565b600191505092915050565b6000600754600654610ea0919061202c565b905090565b6000600160008473ffffffffffffffffffffffffffffffffffffffff1673ffffffffffffffffffffffffffffffffffffffff16815260200190815260200160002060008373ffffffffffffffffffffffffffffffffffffffff1673ffffffffffffffffffffffffffffffffffffffff16815260200190815260200160002054905092915050565b600033905090565b600073ffffffffffffffffffffffffffffffffffffffff168373ffffffffffffffffffffffffffffffffffffffff161415610fa4576040517f08c379a0000000000000000000000000000000000000000000000000000000008152600401610f9b90611f24565b60405180910390fd5b600073ffffffffffffffffffffffffffffffffffffffff168273ffffffffffffffffffffffffffffffffffffffff161415611014576040517f08c379a000000000000000000000000000000000000000000000000000000000815260040161100b90611dc4565b60405180910390fd5b80600160008573ffffffffffffffffffffffffffffffffffffffff1673ffffffffffffffffffffffffffffffffffffffff16815260200190815260200160002060008473ffffffffffffffffffffffffffffffffffffffff1673ffffffffffffffffffffffffffffffffffffffff168152602001908152602001600020819055508173ffffffffffffffffffffffffffffffffffffffff168373ffffffffffffffffffffffffffffffffffffffff167f8c5be1e5ebec7d5bd14f71427d1e84f3dd0314c0f7b2291e5b200ac8c7c3b925836040516110f29190611f84565b60405180910390a3505050565b600073ffffffffffffffffffffffffffffffffffffffff168273ffffffffffffffffffffffffffffffffffffffff16141561116f576040517f08c379a000000000000000000000000000000000000000000000000000000000815260040161116690611ee4565b60405180910390fd5b61117b82600083611743565b60008060008473ffffffffffffffffffffffffffffffffffffffff1673ffffffffffffffffffffffffffffffffffffffff16815260200190815260200160002054905081811015611201576040517f08c379a00000000000000000000000000000000000000000000000000000000081526004016111f890611da4565b60405180910390fd5b8181036000808573ffffffffffffffffffffffffffffffffffffffff1673ffffffffffffffffffffffffffffffffffffffff168152602001908152602001600020819055508160026000828254611258919061202c565b92505081905550600073ffffffffffffffffffffffffffffffffffffffff168373ffffffffffffffffffffffffffffffffffffffff167fddf252ad1be2c89b69c2b068fc378daa952ba7f163c4a11628f55a4df523b3ef846040516112bd9190611f84565b60405180910390a36112d183600084611748565b505050565b60006112e28484610ea5565b90507fffffffffffffffffffffffffffffffffffffffffffffffffffffffffffffffff811461135c578181101561134e576040517f08c379a000000000000000000000000000000000000000000000000000000000815260040161134590611e04565b60405180910390fd5b61135b8484848403610f34565b5b50505050565b600073ffffffffffffffffffffffffffffffffffffffff168373ffffffffffffffffffffffffffffffffffffffff1614156113d2576040517f08c379a00000000000000000000000000000000000000000000000000000000081526004016113c990611f04565b60405180910390fd5b600073ffffffffffffffffffffffffffffffffffffffff168273ffffffffffffffffffffffffffffffffffffffff161415611442576040517f08c379a000000000000000000000000000000000000000000000000000000000815260040161143990611d84565b60405180910390fd5b61144d838383611743565b60008060008573ffffffffffffffffffffffffffffffffffffffff1673ffffffffffffffffffffffffffffffffffffffff168152602001908152602001600020549050818110156114d3576040517f08c379a00000000000000000000000000000000000000000000000000000000081526004016114ca90611e24565b60405180910390fd5b8181036000808673ffffffffffffffffffffffffffffffffffffffff1673ffffffffffffffffffffffffffffffffffffffff16815260200190815260200160002081905550816000808573ffffffffffffffffffffffffffffffffffffffff1673ffffffffffffffffffffffffffffffffffffffff16815260200190815260200160002060008282546115669190611fd6565b925050819055508273ffffffffffffffffffffffffffffffffffffffff168473ffffffffffffffffffffffffffffffffffffffff167fddf252ad1be2c89b69c2b068fc378daa952ba7f163c4a11628f55a4df523b3ef846040516115ca9190611f84565b60405180910390a36115dd848484611748565b50505050565b600073ffffffffffffffffffffffffffffffffffffffff168273ffffffffffffffffffffffffffffffffffffffff161415611653576040517f08c379a000000000000000000000000000000000000000000000000000000000815260040161164a90611f64565b60405180910390fd5b61165f60008383611743565b80600260008282546116719190611fd6565b92505081905550806000808473ffffffffffffffffffffffffffffffffffffffff1673ffffffffffffffffffffffffffffffffffffffff16815260200190815260200160002060008282546116c69190611fd6565b925050819055508173ffffffffffffffffffffffffffffffffffffffff16600073ffffffffffffffffffffffffffffffffffffffff167fddf252ad1be2c89b69c2b068fc378daa952ba7f163c4a11628f55a4df523b3ef8360405161172b9190611f84565b60405180910390a361173f60008383611748565b5050565b505050565b505050565b60008135905061175c816125d6565b92915050565b600081519050611771816125ed565b92915050565b60008083601f84011261178d5761178c6121f1565b5b8235905067ffffffffffffffff8111156117aa576117a96121ec565b5b6020830191508360018202830111156117c6576117c56121f6565b5b9250929050565b6000813590506117dc81612604565b92915050565b6000602082840312156117f8576117f7612200565b5b60006118068482850161174d565b91505092915050565b6000806040838503121561182657611825612200565b5b60006118348582860161174d565b92505060206118458582860161174d565b9150509250929050565b60008060006060848603121561186857611867612200565b5b60006118768682870161174d565b93505060206118878682870161174d565b9250506040611898868287016117cd565b9150509250925092565b6000806000806000608086880312156118be576118bd612200565b5b60006118cc8882890161174d565b95505060206118dd8882890161174d565b94505060406118ee888289016117cd565b935050606086013567ffffffffffffffff81111561190f5761190e6121fb565b5b61191b88828901611777565b92509250509295509295909350565b6000806040838503121561194157611940612200565b5b600061194f8582860161174d565b9250506020611960858286016117cd565b9150509250929050565b6000602082840312156119805761197f612200565b5b600061198e84828501611762565b91505092915050565b6000602082840312156119ad576119ac612200565b5b60006119bb848285016117cd565b91505092915050565b6119cd81612060565b82525050565b6119dc81612072565b82525050565b6119eb8161207e565b82525050565b6119fa816120e1565b82525050565b611a09816120f3565b82525050565b6000611a1a82611fba565b611a248185611fc5565b9350611a34818560208601612129565b611a3d81612205565b840191505092915050565b6000611a55602383611fc5565b9150611a6082612216565b604082019050919050565b6000611a78602283611fc5565b9150611a8382612265565b604082019050919050565b6000611a9b602283611fc5565b9150611aa6826122b4565b604082019050919050565b6000611abe601c83611fc5565b9150611ac982612303565b602082019050919050565b6000611ae1601d83611fc5565b9150611aec8261232c565b602082019050919050565b6000611b04602683611fc5565b9150611b0f82612355565b604082019050919050565b6000611b27601783611fc5565b9150611b32826123a4565b602082019050919050565b6000611b4a601283611fc5565b9150611b55826123cd565b602082019050919050565b6000611b6d601583611fc5565b9150611b78826123f6565b602082019050919050565b6000611b90601c83611fc5565b9150611b9b8261241f565b602082019050919050565b6000611bb3601983611fc5565b9150611bbe82612448565b602082019050919050565b6000611bd6602183611fc5565b9150611be182612471565b604082019050919050565b6000611bf9602583611fc5565b9150611c04826124c0565b604082019050919050565b6000611c1c602483611fc5565b9150611c278261250f565b604082019050919050565b6000611c3f602583611fc5565b9150611c4a8261255e565b604082019050919050565b6000611c62601f83611fc5565b9150611c6d826125ad565b602082019050919050565b611c81816120ca565b82525050565b611c90816120d4565b82525050565b6000606082019050611cab60008301866119c4565b611cb860208301856119c4565b611cc56040830184611c78565b949350505050565b6000604082019050611ce260008301856119c4565b611cef6020830184611c78565b9392505050565b6000602082019050611d0b60008301846119d3565b92915050565b6000602082019050611d2660008301846119e2565b92915050565b6000602082019050611d4160008301846119f1565b92915050565b6000602082019050611d5c6000830184611a00565b92915050565b60006020820190508181036000830152611d7c8184611a0f565b905092915050565b60006020820190508181036000830152611d9d81611a48565b9050919050565b60006020820190508181036000830152611dbd81611a6b565b9050919050565b60006020820190508181036000830152611ddd81611a8e565b9050919050565b60006020820190508181036000830152611dfd81611ab1565b9050919050565b60006020820190508181036000830152611e1d81611ad4565b9050919050565b60006020820190508181036000830152611e3d81611af7565b9050919050565b60006020820190508181036000830152611e5d81611b1a565b9050919050565b60006020820190508181036000830152611e7d81611b3d565b9050919050565b60006020820190508181036000830152611e9d81611b60565b9050919050565b60006020820190508181036000830152611ebd81611b83565b9050919050565b60006020820190508181036000830152611edd81611ba6565b9050919050565b60006020820190508181036000830152611efd81611bc9565b9050919050565b60006020820190508181036000830152611f1d81611bec565b9050919050565b60006020820190508181036000830152611f3d81611c0f565b9050919050565b60006020820190508181036000830152611f5d81611c32565b9050919050565b60006020820190508181036000830152611f7d81611c55565b9050919050565b6000602082019050611f996000830184611c78565b92915050565b6000602082019050611fb46000830184611c87565b92915050565b600081519050919050565b600082825260208201905092915050565b6000611fe1826120ca565b9150611fec836120ca565b9250827fffffffffffffffffffffffffffffffffffffffffffffffffffffffffffffffff038211156120215761202061218e565b5b828201905092915050565b6000612037826120ca565b9150612042836120ca565b9250828210156120555761205461218e565b5b828203905092915050565b600061206b826120aa565b9050919050565b60008115159050919050565b60007fffffffff0000000000000000000000000000000000000000000000000000000082169050919050565b600073ffffffffffffffffffffffffffffffffffffffff82169050919050565b6000819050919050565b600060ff82169050919050565b60006120ec82612105565b9050919050565b60006120fe82612105565b9050919050565b600061211082612117565b9050919050565b6000612122826120aa565b9050919050565b60005b8381101561214757808201518184015260208101905061212c565b83811115612156576000848401525b50505050565b6000600282049050600182168061217457607f821691505b60208210811415612188576121876121bd565b5b50919050565b7f4e487b7100000000000000000000000000000000000000000000000000000000600052601160045260246000fd5b7f4e487b7100000000000000000000000000000000000000000000000000000000600052602260045260246000fd5b600080fd5b600080fd5b600080fd5b600080fd5b600080fd5b6000601f19601f8301169050919050565b7f45524332303a207472616e7366657220746f20746865207a65726f206164647260008201527f6573730000000000000000000000000000000000000000000000000000000000602082015250565b7f45524332303a206275726e20616d6f756e7420657863656564732062616c616e60008201527f6365000000000000000000000000000000000000000000000000000000000000602082015250565b7f45524332303a20617070726f766520746f20746865207a65726f20616464726560008201527f7373000000000000000000000000000000000000000000000000000000000000602082015250565b7f446f204e6f7420486176652052465420546f74616c20537570706c7900000000600082015250565b7f45524332303a20696e73756666696369656e7420616c6c6f77616e6365000000600082015250565b7f45524332303a207472616e7366657220616d6f756e742065786365656473206260008201527f616c616e63650000000000000000000000000000000000000000000000000000602082015250565b7f4e6f7420656e6f75676820736861726573206c65667421000000000000000000600082015250565b7f436f6e7472616374204973205061757365640000000000000000000000000000600082015250565b7f54617267657420416c7265616479205261697365640000000000000000000000600082015250565b7f4f6e6c792041646d696e2043616e2050617573652f556e706175736500000000600082015250565b7f4e6f7420477265617420456e6f7567682042616c616e63652100000000000000600082015250565b7f45524332303a206275726e2066726f6d20746865207a65726f2061646472657360008201527f7300000000000000000000000000000000000000000000000000000000000000602082015250565b7f45524332303a207472616e736665722066726f6d20746865207a65726f20616460008201527f6472657373000000000000000000000000000000000000000000000000000000602082015250565b7f45524332303a20617070726f76652066726f6d20746865207a65726f2061646460008201527f7265737300000000000000000000000000000000000000000000000000000000602082015250565b7f45524332303a2064656372656173656420616c6c6f77616e63652062656c6f7760008201527f207a65726f000000000000000000000000000000000000000000000000000000602082015250565b7f45524332303a206d696e7420746f20746865207a65726f206164647265737300600082015250565b6125df81612060565b81146125ea57600080fd5b50565b6125f681612072565b811461260157600080fd5b50565b61260d816120ca565b811461261857600080fd5b5056fea26469706673582212200dea08cf5d29a4d9f7375bcb032d2026af176def3ad84db093ba8936bba0223a64736f6c63430008070033",
					"opcodes": "PUSH1 0xA0 PUSH1 0x40 MSTORE PUSH1 0x0 PUSH1 0x9 PUSH1 0x0 PUSH2 0x100 EXP DUP2 SLOAD DUP2 PUSH1 0xFF MUL NOT AND SWAP1 DUP4 ISZERO ISZERO MUL OR SWAP1 SSTORE POP PUSH1 0x0 PUSH1 0x9 PUSH1 0x1 PUSH2 0x100 EXP DUP2 SLOAD DUP2 PUSH1 0xFF MUL NOT AND SWAP1 DUP4 ISZERO ISZERO MUL OR SWAP1 SSTORE POP CALLVALUE DUP1 ISZERO PUSH3 0x47 JUMPI PUSH1 0x0 DUP1 REVERT JUMPDEST POP PUSH1 0x40 MLOAD PUSH3 0x2C19 CODESIZE SUB DUP1 PUSH3 0x2C19 DUP4 CODECOPY DUP2 DUP2 ADD PUSH1 0x40 MSTORE DUP2 ADD SWAP1 PUSH3 0x6D SWAP2 SWAP1 PUSH3 0x2D2 JUMP JUMPDEST DUP5 DUP5 DUP2 PUSH1 0x3 SWAP1 DUP1 MLOAD SWAP1 PUSH1 0x20 ADD SWAP1 PUSH3 0x87 SWAP3 SWAP2 SWAP1 PUSH3 0x176 JUMP JUMPDEST POP DUP1 PUSH1 0x4 SWAP1 DUP1 MLOAD SWAP1 PUSH1 0x20 ADD SWAP1 PUSH3 0xA0 SWAP3 SWAP2 SWAP1 PUSH3 0x176 JUMP JUMPDEST POP POP POP DUP6 PUSH1 0x6 DUP2 SWAP1 SSTORE POP DUP3 PUSH1 0x8 DUP2 SWAP1 SSTORE POP DUP2 PUSH1 0x9 PUSH1 0x2 PUSH2 0x100 EXP DUP2 SLOAD DUP2 PUSH20 0xFFFFFFFFFFFFFFFFFFFFFFFFFFFFFFFFFFFFFFFF MUL NOT AND SWAP1 DUP4 PUSH20 0xFFFFFFFFFFFFFFFFFFFFFFFFFFFFFFFFFFFFFFFF AND MUL OR SWAP1 SSTORE POP DUP1 PUSH1 0x5 PUSH1 0x0 PUSH2 0x100 EXP DUP2 SLOAD DUP2 PUSH20 0xFFFFFFFFFFFFFFFFFFFFFFFFFFFFFFFFFFFFFFFF MUL NOT AND SWAP1 DUP4 PUSH20 0xFFFFFFFFFFFFFFFFFFFFFFFFFFFFFFFFFFFFFFFF AND MUL OR SWAP1 SSTORE POP CALLER PUSH20 0xFFFFFFFFFFFFFFFFFFFFFFFFFFFFFFFFFFFFFFFF AND PUSH1 0x80 DUP2 PUSH20 0xFFFFFFFFFFFFFFFFFFFFFFFFFFFFFFFFFFFFFFFF AND PUSH1 0x60 SHL DUP2 MSTORE POP POP POP POP POP POP POP POP PUSH3 0x5A2 JUMP JUMPDEST DUP3 DUP1 SLOAD PUSH3 0x184 SWAP1 PUSH3 0x47F JUMP JUMPDEST SWAP1 PUSH1 0x0 MSTORE PUSH1 0x20 PUSH1 0x0 KECCAK256 SWAP1 PUSH1 0x1F ADD PUSH1 0x20 SWAP1 DIV DUP2 ADD SWAP3 DUP3 PUSH3 0x1A8 JUMPI PUSH1 0x0 DUP6 SSTORE PUSH3 0x1F4 JUMP JUMPDEST DUP3 PUSH1 0x1F LT PUSH3 0x1C3 JUMPI DUP1 MLOAD PUSH1 0xFF NOT AND DUP4 DUP1 ADD OR DUP6 SSTORE PUSH3 0x1F4 JUMP JUMPDEST DUP3 DUP1 ADD PUSH1 0x1 ADD DUP6 SSTORE DUP3 ISZERO PUSH3 0x1F4 JUMPI SWAP2 DUP3 ADD JUMPDEST DUP3 DUP2 GT ISZERO PUSH3 0x1F3 JUMPI DUP3 MLOAD DUP3 SSTORE SWAP2 PUSH1 0x20 ADD SWAP2 SWAP1 PUSH1 0x1 ADD SWAP1 PUSH3 0x1D6 JUMP JUMPDEST JUMPDEST POP SWAP1 POP PUSH3 0x203 SWAP2 SWAP1 PUSH3 0x207 JUMP JUMPDEST POP SWAP1 JUMP JUMPDEST JUMPDEST DUP1 DUP3 GT ISZERO PUSH3 0x222 JUMPI PUSH1 0x0 DUP2 PUSH1 0x0 SWAP1 SSTORE POP PUSH1 0x1 ADD PUSH3 0x208 JUMP JUMPDEST POP SWAP1 JUMP JUMPDEST PUSH1 0x0 PUSH3 0x23D PUSH3 0x237 DUP5 PUSH3 0x3D5 JUMP JUMPDEST PUSH3 0x3AC JUMP JUMPDEST SWAP1 POP DUP3 DUP2 MSTORE PUSH1 0x20 DUP2 ADD DUP5 DUP5 DUP5 ADD GT ISZERO PUSH3 0x25C JUMPI PUSH3 0x25B PUSH3 0x54E JUMP JUMPDEST JUMPDEST PUSH3 0x269 DUP5 DUP3 DUP6 PUSH3 0x449 JUMP JUMPDEST POP SWAP4 SWAP3 POP POP POP JUMP JUMPDEST PUSH1 0x0 DUP2 MLOAD SWAP1 POP PUSH3 0x282 DUP2 PUSH3 0x56E JUMP JUMPDEST SWAP3 SWAP2 POP POP JUMP JUMPDEST PUSH1 0x0 DUP3 PUSH1 0x1F DUP4 ADD SLT PUSH3 0x2A0 JUMPI PUSH3 0x29F PUSH3 0x549 JUMP JUMPDEST JUMPDEST DUP2 MLOAD PUSH3 0x2B2 DUP5 DUP3 PUSH1 0x20 DUP7 ADD PUSH3 0x226 JUMP JUMPDEST SWAP2 POP POP SWAP3 SWAP2 POP POP JUMP JUMPDEST PUSH1 0x0 DUP2 MLOAD SWAP1 POP PUSH3 0x2CC DUP2 PUSH3 0x588 JUMP JUMPDEST SWAP3 SWAP2 POP POP JUMP JUMPDEST PUSH1 0x0 DUP1 PUSH1 0x0 DUP1 PUSH1 0x0 DUP1 PUSH1 0xC0 DUP8 DUP10 SUB SLT ISZERO PUSH3 0x2F2 JUMPI PUSH3 0x2F1 PUSH3 0x558 JUMP JUMPDEST JUMPDEST PUSH1 0x0 PUSH3 0x302 DUP10 DUP3 DUP11 ADD PUSH3 0x2BB JUMP JUMPDEST SWAP7 POP POP PUSH1 0x20 DUP8 ADD MLOAD PUSH8 0xFFFFFFFFFFFFFFFF DUP2 GT ISZERO PUSH3 0x326 JUMPI PUSH3 0x325 PUSH3 0x553 JUMP JUMPDEST JUMPDEST PUSH3 0x334 DUP10 DUP3 DUP11 ADD PUSH3 0x288 JUMP JUMPDEST SWAP6 POP POP PUSH1 0x40 DUP8 ADD MLOAD PUSH8 0xFFFFFFFFFFFFFFFF DUP2 GT ISZERO PUSH3 0x358 JUMPI PUSH3 0x357 PUSH3 0x553 JUMP JUMPDEST JUMPDEST PUSH3 0x366 DUP10 DUP3 DUP11 ADD PUSH3 0x288 JUMP JUMPDEST SWAP5 POP POP PUSH1 0x60 PUSH3 0x379 DUP10 DUP3 DUP11 ADD PUSH3 0x2BB JUMP JUMPDEST SWAP4 POP POP PUSH1 0x80 PUSH3 0x38C DUP10 DUP3 DUP11 ADD PUSH3 0x271 JUMP JUMPDEST SWAP3 POP POP PUSH1 0xA0 PUSH3 0x39F DUP10 DUP3 DUP11 ADD PUSH3 0x271 JUMP JUMPDEST SWAP2 POP POP SWAP3 SWAP6 POP SWAP3 SWAP6 POP SWAP3 SWAP6 JUMP JUMPDEST PUSH1 0x0 PUSH3 0x3B8 PUSH3 0x3CB JUMP JUMPDEST SWAP1 POP PUSH3 0x3C6 DUP3 DUP3 PUSH3 0x4B5 JUMP JUMPDEST SWAP2 SWAP1 POP JUMP JUMPDEST PUSH1 0x0 PUSH1 0x40 MLOAD SWAP1 POP SWAP1 JUMP JUMPDEST PUSH1 0x0 PUSH8 0xFFFFFFFFFFFFFFFF DUP3 GT ISZERO PUSH3 0x3F3 JUMPI PUSH3 0x3F2 PUSH3 0x51A JUMP JUMPDEST JUMPDEST PUSH3 0x3FE DUP3 PUSH3 0x55D JUMP JUMPDEST SWAP1 POP PUSH1 0x20 DUP2 ADD SWAP1 POP SWAP2 SWAP1 POP JUMP JUMPDEST PUSH1 0x0 PUSH3 0x418 DUP3 PUSH3 0x41F JUMP JUMPDEST SWAP1 POP SWAP2 SWAP1 POP JUMP JUMPDEST PUSH1 0x0 PUSH20 0xFFFFFFFFFFFFFFFFFFFFFFFFFFFFFFFFFFFFFFFF DUP3 AND SWAP1 POP SWAP2 SWAP1 POP JUMP JUMPDEST PUSH1 0x0 DUP2 SWAP1 POP SWAP2 SWAP1 POP JUMP JUMPDEST PUSH1 0x0 JUMPDEST DUP4 DUP2 LT ISZERO PUSH3 0x469 JUMPI DUP1 DUP3 ADD MLOAD DUP2 DUP5 ADD MSTORE PUSH1 0x20 DUP2 ADD SWAP1 POP PUSH3 0x44C JUMP JUMPDEST DUP4 DUP2 GT ISZERO PUSH3 0x479 JUMPI PUSH1 0x0 DUP5 DUP5 ADD MSTORE JUMPDEST POP POP POP POP JUMP JUMPDEST PUSH1 0x0 PUSH1 0x2 DUP3 DIV SWAP1 POP PUSH1 0x1 DUP3 AND DUP1 PUSH3 0x498 JUMPI PUSH1 0x7F DUP3 AND SWAP2 POP JUMPDEST PUSH1 0x20 DUP3 LT DUP2 EQ ISZERO PUSH3 0x4AF JUMPI PUSH3 0x4AE PUSH3 0x4EB JUMP JUMPDEST JUMPDEST POP SWAP2 SWAP1 POP JUMP JUMPDEST PUSH3 0x4C0 DUP3 PUSH3 0x55D JUMP JUMPDEST DUP2 ADD DUP2 DUP2 LT PUSH8 0xFFFFFFFFFFFFFFFF DUP3 GT OR ISZERO PUSH3 0x4E2 JUMPI PUSH3 0x4E1 PUSH3 0x51A JUMP JUMPDEST JUMPDEST DUP1 PUSH1 0x40 MSTORE POP POP POP JUMP JUMPDEST PUSH32 0x4E487B7100000000000000000000000000000000000000000000000000000000 PUSH1 0x0 MSTORE PUSH1 0x22 PUSH1 0x4 MSTORE PUSH1 0x24 PUSH1 0x0 REVERT JUMPDEST PUSH32 0x4E487B7100000000000000000000000000000000000000000000000000000000 PUSH1 0x0 MSTORE PUSH1 0x41 PUSH1 0x4 MSTORE PUSH1 0x24 PUSH1 0x0 REVERT JUMPDEST PUSH1 0x0 DUP1 REVERT JUMPDEST PUSH1 0x0 DUP1 REVERT JUMPDEST PUSH1 0x0 DUP1 REVERT JUMPDEST PUSH1 0x0 DUP1 REVERT JUMPDEST PUSH1 0x0 PUSH1 0x1F NOT PUSH1 0x1F DUP4 ADD AND SWAP1 POP SWAP2 SWAP1 POP JUMP JUMPDEST PUSH3 0x579 DUP2 PUSH3 0x40B JUMP JUMPDEST DUP2 EQ PUSH3 0x585 JUMPI PUSH1 0x0 DUP1 REVERT JUMPDEST POP JUMP JUMPDEST PUSH3 0x593 DUP2 PUSH3 0x43F JUMP JUMPDEST DUP2 EQ PUSH3 0x59F JUMPI PUSH1 0x0 DUP1 REVERT JUMPDEST POP JUMP JUMPDEST PUSH1 0x80 MLOAD PUSH1 0x60 SHR PUSH2 0x2651 PUSH3 0x5C8 PUSH1 0x0 CODECOPY PUSH1 0x0 DUP2 DUP2 PUSH2 0xBE0 ADD MSTORE PUSH2 0xC8D ADD MSTORE PUSH2 0x2651 PUSH1 0x0 RETURN INVALID PUSH1 0x80 PUSH1 0x40 MSTORE CALLVALUE DUP1 ISZERO PUSH2 0x10 JUMPI PUSH1 0x0 DUP1 REVERT JUMPDEST POP PUSH1 0x4 CALLDATASIZE LT PUSH2 0x173 JUMPI PUSH1 0x0 CALLDATALOAD PUSH1 0xE0 SHR DUP1 PUSH4 0x39509351 GT PUSH2 0xDE JUMPI DUP1 PUSH4 0x8456CB59 GT PUSH2 0x97 JUMPI DUP1 PUSH4 0xA457C2D7 GT PUSH2 0x71 JUMPI DUP1 PUSH4 0xA457C2D7 EQ PUSH2 0x408 JUMPI DUP1 PUSH4 0xA9059CBB EQ PUSH2 0x438 JUMPI DUP1 PUSH4 0xBDF89682 EQ PUSH2 0x468 JUMPI DUP1 PUSH4 0xDD62ED3E EQ PUSH2 0x486 JUMPI PUSH2 0x173 JUMP JUMPDEST DUP1 PUSH4 0x8456CB59 EQ PUSH2 0x3C2 JUMPI DUP1 PUSH4 0x953B8FB8 EQ PUSH2 0x3CC JUMPI DUP1 PUSH4 0x95D89B41 EQ PUSH2 0x3EA JUMPI PUSH2 0x173 JUMP JUMPDEST DUP1 PUSH4 0x39509351 EQ PUSH2 0x312 JUMPI DUP1 PUSH4 0x3F4BA83A EQ PUSH2 0x342 JUMPI DUP1 PUSH4 0x70A08231 EQ PUSH2 0x34C JUMPI DUP1 PUSH4 0x77262D38 EQ PUSH2 0x37C JUMPI DUP1 PUSH4 0x7B3E5E7B EQ PUSH2 0x386 JUMPI DUP1 PUSH4 0x7E0D73D4 EQ PUSH2 0x3A4 JUMPI PUSH2 0x173 JUMP JUMPDEST DUP1 PUSH4 0x16C61CCC GT PUSH2 0x130 JUMPI DUP1 PUSH4 0x16C61CCC EQ PUSH2 0x250 JUMPI DUP1 PUSH4 0x18160DDD EQ PUSH2 0x26E JUMPI DUP1 PUSH4 0x2037FCBF EQ PUSH2 0x28C JUMPI DUP1 PUSH4 0x23B872DD EQ PUSH2 0x2A8 JUMPI DUP1 PUSH4 0x2AFCF480 EQ PUSH2 0x2D8 JUMPI DUP1 PUSH4 0x313CE567 EQ PUSH2 0x2F4 JUMPI PUSH2 0x173 JUMP JUMPDEST DUP1 PUSH4 0x6FDDE03 EQ PUSH2 0x178 JUMPI DUP1 PUSH4 0x6FEBE00 EQ PUSH2 0x196 JUMPI DUP1 PUSH4 0x95EA7B3 EQ PUSH2 0x1B4 JUMPI DUP1 PUSH4 0x11DB3C16 EQ PUSH2 0x1E4 JUMPI DUP1 PUSH4 0x11DF9995 EQ PUSH2 0x202 JUMPI DUP1 PUSH4 0x150B7A02 EQ PUSH2 0x220 JUMPI JUMPDEST PUSH1 0x0 DUP1 REVERT JUMPDEST PUSH2 0x180 PUSH2 0x4B6 JUMP JUMPDEST PUSH1 0x40 MLOAD PUSH2 0x18D SWAP2 SWAP1 PUSH2 0x1D62 JUMP JUMPDEST PUSH1 0x40 MLOAD DUP1 SWAP2 SUB SWAP1 RETURN JUMPDEST PUSH2 0x19E PUSH2 0x548 JUMP JUMPDEST PUSH1 0x40 MLOAD PUSH2 0x1AB SWAP2 SWAP1 PUSH2 0x1F84 JUMP JUMPDEST PUSH1 0x40 MLOAD DUP1 SWAP2 SUB SWAP1 RETURN JUMPDEST PUSH2 0x1CE PUSH1 0x4 DUP1 CALLDATASIZE SUB DUP2 ADD SWAP1 PUSH2 0x1C9 SWAP2 SWAP1 PUSH2 0x192A JUMP JUMPDEST PUSH2 0x54E JUMP JUMPDEST PUSH1 0x40 MLOAD PUSH2 0x1DB SWAP2 SWAP1 PUSH2 0x1CF6 JUMP JUMPDEST PUSH1 0x40 MLOAD DUP1 SWAP2 SUB SWAP1 RETURN JUMPDEST PUSH2 0x1EC PUSH2 0x571 JUMP JUMPDEST PUSH1 0x40 MLOAD PUSH2 0x1F9 SWAP2 SWAP1 PUSH2 0x1CF6 JUMP JUMPDEST PUSH1 0x40 MLOAD DUP1 SWAP2 SUB SWAP1 RETURN JUMPDEST PUSH2 0x20A PUSH2 0x584 JUMP JUMPDEST PUSH1 0x40 MLOAD PUSH2 0x217 SWAP2 SWAP1 PUSH2 0x1D2C JUMP JUMPDEST PUSH1 0x40 MLOAD DUP1 SWAP2 SUB SWAP1 RETURN JUMPDEST PUSH2 0x23A PUSH1 0x4 DUP1 CALLDATASIZE SUB DUP2 ADD SWAP1 PUSH2 0x235 SWAP2 SWAP1 PUSH2 0x18A2 JUMP JUMPDEST PUSH2 0x5AA JUMP JUMPDEST PUSH1 0x40 MLOAD PUSH2 0x247 SWAP2 SWAP1 PUSH2 0x1D11 JUMP JUMPDEST PUSH1 0x40 MLOAD DUP1 SWAP2 SUB SWAP1 RETURN JUMPDEST PUSH2 0x258 PUSH2 0x5BF JUMP JUMPDEST PUSH1 0x40 MLOAD PUSH2 0x265 SWAP2 SWAP1 PUSH2 0x1CF6 JUMP JUMPDEST PUSH1 0x40 MLOAD DUP1 SWAP2 SUB SWAP1 RETURN JUMPDEST PUSH2 0x276 PUSH2 0x5D2 JUMP JUMPDEST PUSH1 0x40 MLOAD PUSH2 0x283 SWAP2 SWAP1 PUSH2 0x1F84 JUMP JUMPDEST PUSH1 0x40 MLOAD DUP1 SWAP2 SUB SWAP1 RETURN JUMPDEST PUSH2 0x2A6 PUSH1 0x4 DUP1 CALLDATASIZE SUB DUP2 ADD SWAP1 PUSH2 0x2A1 SWAP2 SWAP1 PUSH2 0x1997 JUMP JUMPDEST PUSH2 0x5DC JUMP JUMPDEST STOP JUMPDEST PUSH2 0x2C2 PUSH1 0x4 DUP1 CALLDATASIZE SUB DUP2 ADD SWAP1 PUSH2 0x2BD SWAP2 SWAP1 PUSH2 0x184F JUMP JUMPDEST PUSH2 0x74D JUMP JUMPDEST PUSH1 0x40 MLOAD PUSH2 0x2CF SWAP2 SWAP1 PUSH2 0x1CF6 JUMP JUMPDEST PUSH1 0x40 MLOAD DUP1 SWAP2 SUB SWAP1 RETURN JUMPDEST PUSH2 0x2F2 PUSH1 0x4 DUP1 CALLDATASIZE SUB DUP2 ADD SWAP1 PUSH2 0x2ED SWAP2 SWAP1 PUSH2 0x1997 JUMP JUMPDEST PUSH2 0x77C JUMP JUMPDEST STOP JUMPDEST PUSH2 0x2FC PUSH2 0xA4C JUMP JUMPDEST PUSH1 0x40 MLOAD PUSH2 0x309 SWAP2 SWAP1 PUSH2 0x1F9F JUMP JUMPDEST PUSH1 0x40 MLOAD DUP1 SWAP2 SUB SWAP1 RETURN JUMPDEST PUSH2 0x32C PUSH1 0x4 DUP1 CALLDATASIZE SUB DUP2 ADD SWAP1 PUSH2 0x327 SWAP2 SWAP1 PUSH2 0x192A JUMP JUMPDEST PUSH2 0xA55 JUMP JUMPDEST PUSH1 0x40 MLOAD PUSH2 0x339 SWAP2 SWAP1 PUSH2 0x1CF6 JUMP JUMPDEST PUSH1 0x40 MLOAD DUP1 SWAP2 SUB SWAP1 RETURN JUMPDEST PUSH2 0x34A PUSH2 0xA8C JUMP JUMPDEST STOP JUMPDEST PUSH2 0x366 PUSH1 0x4 DUP1 CALLDATASIZE SUB DUP2 ADD SWAP1 PUSH2 0x361 SWAP2 SWAP1 PUSH2 0x17E2 JUMP JUMPDEST PUSH2 0xB39 JUMP JUMPDEST PUSH1 0x40 MLOAD PUSH2 0x373 SWAP2 SWAP1 PUSH2 0x1F84 JUMP JUMPDEST PUSH1 0x40 MLOAD DUP1 SWAP2 SUB SWAP1 RETURN JUMPDEST PUSH2 0x384 PUSH2 0xB81 JUMP JUMPDEST STOP JUMPDEST PUSH2 0x38E PUSH2 0xC85 JUMP JUMPDEST PUSH1 0x40 MLOAD PUSH2 0x39B SWAP2 SWAP1 PUSH2 0x1F84 JUMP JUMPDEST PUSH1 0x40 MLOAD DUP1 SWAP2 SUB SWAP1 RETURN JUMPDEST PUSH2 0x3AC PUSH2 0xC8B JUMP JUMPDEST PUSH1 0x40 MLOAD PUSH2 0x3B9 SWAP2 SWAP1 PUSH2 0x1D47 JUMP JUMPDEST PUSH1 0x40 MLOAD DUP1 SWAP2 SUB SWAP1 RETURN JUMPDEST PUSH2 0x3CA PUSH2 0xCAF JUMP JUMPDEST STOP JUMPDEST PUSH2 0x3D4 PUSH2 0xD5C JUMP JUMPDEST PUSH1 0x40 MLOAD PUSH2 0x3E1 SWAP2 SWAP1 PUSH2 0x1F84 JUMP JUMPDEST PUSH1 0x40 MLOAD DUP1 SWAP2 SUB SWAP1 RETURN JUMPDEST PUSH2 0x3F2 PUSH2 0xD62 JUMP JUMPDEST PUSH1 0x40 MLOAD PUSH2 0x3FF SWAP2 SWAP1 PUSH2 0x1D62 JUMP JUMPDEST PUSH1 0x40 MLOAD DUP1 SWAP2 SUB SWAP1 RETURN JUMPDEST PUSH2 0x422 PUSH1 0x4 DUP1 CALLDATASIZE SUB DUP2 ADD SWAP1 PUSH2 0x41D SWAP2 SWAP1 PUSH2 0x192A JUMP JUMPDEST PUSH2 0xDF4 JUMP JUMPDEST PUSH1 0x40 MLOAD PUSH2 0x42F SWAP2 SWAP1 PUSH2 0x1CF6 JUMP JUMPDEST PUSH1 0x40 MLOAD DUP1 SWAP2 SUB SWAP1 RETURN JUMPDEST PUSH2 0x452 PUSH1 0x4 DUP1 CALLDATASIZE SUB DUP2 ADD SWAP1 PUSH2 0x44D SWAP2 SWAP1 PUSH2 0x192A JUMP JUMPDEST PUSH2 0xE6B JUMP JUMPDEST PUSH1 0x40 MLOAD PUSH2 0x45F SWAP2 SWAP1 PUSH2 0x1CF6 JUMP JUMPDEST PUSH1 0x40 MLOAD DUP1 SWAP2 SUB SWAP1 RETURN JUMPDEST PUSH2 0x470 PUSH2 0xE8E JUMP JUMPDEST PUSH1 0x40 MLOAD PUSH2 0x47D SWAP2 SWAP1 PUSH2 0x1F84 JUMP JUMPDEST PUSH1 0x40 MLOAD DUP1 SWAP2 SUB SWAP1 RETURN JUMPDEST PUSH2 0x4A0 PUSH1 0x4 DUP1 CALLDATASIZE SUB DUP2 ADD SWAP1 PUSH2 0x49B SWAP2 SWAP1 PUSH2 0x180F JUMP JUMPDEST PUSH2 0xEA5 JUMP JUMPDEST PUSH1 0x40 MLOAD PUSH2 0x4AD SWAP2 SWAP1 PUSH2 0x1F84 JUMP JUMPDEST PUSH1 0x40 MLOAD DUP1 SWAP2 SUB SWAP1 RETURN JUMPDEST PUSH1 0x60 PUSH1 0x3 DUP1 SLOAD PUSH2 0x4C5 SWAP1 PUSH2 0x215C JUMP JUMPDEST DUP1 PUSH1 0x1F ADD PUSH1 0x20 DUP1 SWAP2 DIV MUL PUSH1 0x20 ADD PUSH1 0x40 MLOAD SWAP1 DUP2 ADD PUSH1 0x40 MSTORE DUP1 SWAP3 SWAP2 SWAP1 DUP2 DUP2 MSTORE PUSH1 0x20 ADD DUP3 DUP1 SLOAD PUSH2 0x4F1 SWAP1 PUSH2 0x215C JUMP JUMPDEST DUP1 ISZERO PUSH2 0x53E JUMPI DUP1 PUSH1 0x1F LT PUSH2 0x513 JUMPI PUSH2 0x100 DUP1 DUP4 SLOAD DIV MUL DUP4 MSTORE SWAP2 PUSH1 0x20 ADD SWAP2 PUSH2 0x53E JUMP JUMPDEST DUP3 ADD SWAP2 SWAP1 PUSH1 0x0 MSTORE PUSH1 0x20 PUSH1 0x0 KECCAK256 SWAP1 JUMPDEST DUP2 SLOAD DUP2 MSTORE SWAP1 PUSH1 0x1 ADD SWAP1 PUSH1 0x20 ADD DUP1 DUP4 GT PUSH2 0x521 JUMPI DUP3 SWAP1 SUB PUSH1 0x1F AND DUP3 ADD SWAP2 JUMPDEST POP POP POP POP POP SWAP1 POP SWAP1 JUMP JUMPDEST PUSH1 0x8 SLOAD DUP2 JUMP JUMPDEST PUSH1 0x0 DUP1 PUSH2 0x559 PUSH2 0xF2C JUMP JUMPDEST SWAP1 POP PUSH2 0x566 DUP2 DUP6 DUP6 PUSH2 0xF34 JUMP JUMPDEST PUSH1 0x1 SWAP2 POP POP SWAP3 SWAP2 POP POP JUMP JUMPDEST PUSH1 0x9 PUSH1 0x1 SWAP1 SLOAD SWAP1 PUSH2 0x100 EXP SWAP1 DIV PUSH1 0xFF AND DUP2 JUMP JUMPDEST PUSH1 0x5 PUSH1 0x0 SWAP1 SLOAD SWAP1 PUSH2 0x100 EXP SWAP1 DIV PUSH20 0xFFFFFFFFFFFFFFFFFFFFFFFFFFFFFFFFFFFFFFFF AND DUP2 JUMP JUMPDEST PUSH1 0x0 PUSH4 0x150B7A02 PUSH1 0xE0 SHL SWAP1 POP SWAP6 SWAP5 POP POP POP POP POP JUMP JUMPDEST PUSH1 0x9 PUSH1 0x0 SWAP1 SLOAD SWAP1 PUSH2 0x100 EXP SWAP1 DIV PUSH1 0xFF AND DUP2 JUMP JUMPDEST PUSH1 0x0 PUSH1 0x2 SLOAD SWAP1 POP SWAP1 JUMP JUMPDEST PUSH1 0x9 PUSH1 0x1 SWAP1 SLOAD SWAP1 PUSH2 0x100 EXP SWAP1 DIV PUSH1 0xFF AND ISZERO PUSH2 0x62C JUMPI PUSH1 0x40 MLOAD PUSH32 0x8C379A000000000000000000000000000000000000000000000000000000000 DUP2 MSTORE PUSH1 0x4 ADD PUSH2 0x623 SWAP1 PUSH2 0x1E84 JUMP JUMPDEST PUSH1 0x40 MLOAD DUP1 SWAP2 SUB SWAP1 REVERT JUMPDEST PUSH2 0x635 CALLER PUSH2 0xB39 JUMP JUMPDEST DUP2 GT ISZERO PUSH2 0x677 JUMPI PUSH1 0x40 MLOAD PUSH32 0x8C379A000000000000000000000000000000000000000000000000000000000 DUP2 MSTORE PUSH1 0x4 ADD PUSH2 0x66E SWAP1 PUSH2 0x1EC4 JUMP JUMPDEST PUSH1 0x40 MLOAD DUP1 SWAP2 SUB SWAP1 REVERT JUMPDEST PUSH1 0x5 PUSH1 0x0 SWAP1 SLOAD SWAP1 PUSH2 0x100 EXP SWAP1 DIV PUSH20 0xFFFFFFFFFFFFFFFFFFFFFFFFFFFFFFFFFFFFFFFF AND PUSH20 0xFFFFFFFFFFFFFFFFFFFFFFFFFFFFFFFFFFFFFFFF AND PUSH4 0xA9059CBB CALLER DUP4 PUSH1 0x40 MLOAD DUP4 PUSH4 0xFFFFFFFF AND PUSH1 0xE0 SHL DUP2 MSTORE PUSH1 0x4 ADD PUSH2 0x6D4 SWAP3 SWAP2 SWAP1 PUSH2 0x1CCD JUMP JUMPDEST PUSH1 0x20 PUSH1 0x40 MLOAD DUP1 DUP4 SUB DUP2 PUSH1 0x0 DUP8 DUP1 EXTCODESIZE ISZERO DUP1 ISZERO PUSH2 0x6EE JUMPI PUSH1 0x0 DUP1 REVERT JUMPDEST POP GAS CALL ISZERO DUP1 ISZERO PUSH2 0x702 JUMPI RETURNDATASIZE PUSH1 0x0 DUP1 RETURNDATACOPY RETURNDATASIZE PUSH1 0x0 REVERT JUMPDEST POP POP POP POP PUSH1 0x40 MLOAD RETURNDATASIZE PUSH1 0x1F NOT PUSH1 0x1F DUP3 ADD AND DUP3 ADD DUP1 PUSH1 0x40 MSTORE POP DUP2 ADD SWAP1 PUSH2 0x726 SWAP2 SWAP1 PUSH2 0x196A JUMP JUMPDEST POP DUP1 PUSH1 0x7 PUSH1 0x0 DUP3 DUP3 SLOAD PUSH2 0x739 SWAP2 SWAP1 PUSH2 0x202C JUMP JUMPDEST SWAP3 POP POP DUP2 SWAP1 SSTORE POP PUSH2 0x74A CALLER DUP3 PUSH2 0x10FF JUMP JUMPDEST POP JUMP JUMPDEST PUSH1 0x0 DUP1 PUSH2 0x758 PUSH2 0xF2C JUMP JUMPDEST SWAP1 POP PUSH2 0x765 DUP6 DUP3 DUP6 PUSH2 0x12D6 JUMP JUMPDEST PUSH2 0x770 DUP6 DUP6 DUP6 PUSH2 0x1362 JUMP JUMPDEST PUSH1 0x1 SWAP2 POP POP SWAP4 SWAP3 POP POP POP JUMP JUMPDEST PUSH1 0x9 PUSH1 0x1 SWAP1 SLOAD SWAP1 PUSH2 0x100 EXP SWAP1 DIV PUSH1 0xFF AND ISZERO PUSH2 0x7CC JUMPI PUSH1 0x40 MLOAD PUSH32 0x8C379A000000000000000000000000000000000000000000000000000000000 DUP2 MSTORE PUSH1 0x4 ADD PUSH2 0x7C3 SWAP1 PUSH2 0x1E84 JUMP JUMPDEST PUSH1 0x40 MLOAD DUP1 SWAP2 SUB SWAP1 REVERT JUMPDEST PUSH2 0x7D4 PUSH2 0x5D2 JUMP JUMPDEST PUSH1 0x6 SLOAD PUSH2 0x7E1 SWAP2 SWAP1 PUSH2 0x202C JUMP JUMPDEST DUP2 GT ISZERO PUSH2 0x823 JUMPI PUSH1 0x40 MLOAD PUSH32 0x8C379A000000000000000000000000000000000000000000000000000000000 DUP2 MSTORE PUSH1 0x4 ADD PUSH2 0x81A SWAP1 PUSH2 0x1E44 JUMP JUMPDEST PUSH1 0x40 MLOAD DUP1 SWAP2 SUB SWAP1 REVERT JUMPDEST PUSH1 0x9 PUSH1 0x0 SWAP1 SLOAD SWAP1 PUSH2 0x100 EXP SWAP1 DIV PUSH1 0xFF AND ISZERO PUSH2 0x873 JUMPI PUSH1 0x40 MLOAD PUSH32 0x8C379A000000000000000000000000000000000000000000000000000000000 DUP2 MSTORE PUSH1 0x4 ADD PUSH2 0x86A SWAP1 PUSH2 0x1E64 JUMP JUMPDEST PUSH1 0x40 MLOAD DUP1 SWAP2 SUB SWAP1 REVERT JUMPDEST PUSH1 0x5 PUSH1 0x0 SWAP1 SLOAD SWAP1 PUSH2 0x100 EXP SWAP1 DIV PUSH20 0xFFFFFFFFFFFFFFFFFFFFFFFFFFFFFFFFFFFFFFFF AND PUSH20 0xFFFFFFFFFFFFFFFFFFFFFFFFFFFFFFFFFFFFFFFF AND PUSH4 0x23B872DD CALLER ADDRESS DUP5 PUSH1 0x40 MLOAD DUP5 PUSH4 0xFFFFFFFF AND PUSH1 0xE0 SHL DUP2 MSTORE PUSH1 0x4 ADD PUSH2 0x8D2 SWAP4 SWAP3 SWAP2 SWAP1 PUSH2 0x1C96 JUMP JUMPDEST PUSH1 0x20 PUSH1 0x40 MLOAD DUP1 DUP4 SUB DUP2 PUSH1 0x0 DUP8 DUP1 EXTCODESIZE ISZERO DUP1 ISZERO PUSH2 0x8EC JUMPI PUSH1 0x0 DUP1 REVERT JUMPDEST POP GAS CALL ISZERO DUP1 ISZERO PUSH2 0x900 JUMPI RETURNDATASIZE PUSH1 0x0 DUP1 RETURNDATACOPY RETURNDATASIZE PUSH1 0x0 REVERT JUMPDEST POP POP POP POP PUSH1 0x40 MLOAD RETURNDATASIZE PUSH1 0x1F NOT PUSH1 0x1F DUP3 ADD AND DUP3 ADD DUP1 PUSH1 0x40 MSTORE POP DUP2 ADD SWAP1 PUSH2 0x924 SWAP2 SWAP1 PUSH2 0x196A JUMP JUMPDEST POP DUP1 PUSH1 0x7 PUSH1 0x0 DUP3 DUP3 SLOAD PUSH2 0x937 SWAP2 SWAP1 PUSH2 0x1FD6 JUMP JUMPDEST SWAP3 POP POP DUP2 SWAP1 SSTORE POP PUSH2 0x948 CALLER DUP3 PUSH2 0x15E3 JUMP JUMPDEST PUSH2 0x950 PUSH2 0x5D2 JUMP JUMPDEST PUSH1 0x6 SLOAD EQ ISZERO PUSH2 0xA49 JUMPI PUSH1 0x5 PUSH1 0x0 SWAP1 SLOAD SWAP1 PUSH2 0x100 EXP SWAP1 DIV PUSH20 0xFFFFFFFFFFFFFFFFFFFFFFFFFFFFFFFFFFFFFFFF AND PUSH20 0xFFFFFFFFFFFFFFFFFFFFFFFFFFFFFFFFFFFFFFFF AND PUSH4 0xA9059CBB PUSH1 0x9 PUSH1 0x2 SWAP1 SLOAD SWAP1 PUSH2 0x100 EXP SWAP1 DIV PUSH20 0xFFFFFFFFFFFFFFFFFFFFFFFFFFFFFFFFFFFFFFFF AND PUSH1 0x6 SLOAD PUSH1 0x40 MLOAD DUP4 PUSH4 0xFFFFFFFF AND PUSH1 0xE0 SHL DUP2 MSTORE PUSH1 0x4 ADD PUSH2 0x9DA SWAP3 SWAP2 SWAP1 PUSH2 0x1CCD JUMP JUMPDEST PUSH1 0x20 PUSH1 0x40 MLOAD DUP1 DUP4 SUB DUP2 PUSH1 0x0 DUP8 DUP1 EXTCODESIZE ISZERO DUP1 ISZERO PUSH2 0x9F4 JUMPI PUSH1 0x0 DUP1 REVERT JUMPDEST POP GAS CALL ISZERO DUP1 ISZERO PUSH2 0xA08 JUMPI RETURNDATASIZE PUSH1 0x0 DUP1 RETURNDATACOPY RETURNDATASIZE PUSH1 0x0 REVERT JUMPDEST POP POP POP POP PUSH1 0x40 MLOAD RETURNDATASIZE PUSH1 0x1F NOT PUSH1 0x1F DUP3 ADD AND DUP3 ADD DUP1 PUSH1 0x40 MSTORE POP DUP2 ADD SWAP1 PUSH2 0xA2C SWAP2 SWAP1 PUSH2 0x196A JUMP JUMPDEST POP PUSH1 0x1 PUSH1 0x9 PUSH1 0x1 PUSH2 0x100 EXP DUP2 SLOAD DUP2 PUSH1 0xFF MUL NOT AND SWAP1 DUP4 ISZERO ISZERO MUL OR SWAP1 SSTORE POP JUMPDEST POP JUMP JUMPDEST PUSH1 0x0 PUSH1 0x12 SWAP1 POP SWAP1 JUMP JUMPDEST PUSH1 0x0 DUP1 PUSH2 0xA60 PUSH2 0xF2C JUMP JUMPDEST SWAP1 POP PUSH2 0xA81 DUP2 DUP6 DUP6 PUSH2 0xA72 DUP6 DUP10 PUSH2 0xEA5 JUMP JUMPDEST PUSH2 0xA7C SWAP2 SWAP1 PUSH2 0x1FD6 JUMP JUMPDEST PUSH2 0xF34 JUMP JUMPDEST PUSH1 0x1 SWAP2 POP POP SWAP3 SWAP2 POP POP JUMP JUMPDEST PUSH1 0x9 PUSH1 0x2 SWAP1 SLOAD SWAP1 PUSH2 0x100 EXP SWAP1 DIV PUSH20 0xFFFFFFFFFFFFFFFFFFFFFFFFFFFFFFFFFFFFFFFF AND PUSH20 0xFFFFFFFFFFFFFFFFFFFFFFFFFFFFFFFFFFFFFFFF AND CALLER PUSH20 0xFFFFFFFFFFFFFFFFFFFFFFFFFFFFFFFFFFFFFFFF AND EQ PUSH2 0xB1C JUMPI PUSH1 0x40 MLOAD PUSH32 0x8C379A000000000000000000000000000000000000000000000000000000000 DUP2 MSTORE PUSH1 0x4 ADD PUSH2 0xB13 SWAP1 PUSH2 0x1EA4 JUMP JUMPDEST PUSH1 0x40 MLOAD DUP1 SWAP2 SUB SWAP1 REVERT JUMPDEST PUSH1 0x0 PUSH1 0x9 PUSH1 0x0 PUSH2 0x100 EXP DUP2 SLOAD DUP2 PUSH1 0xFF MUL NOT AND SWAP1 DUP4 ISZERO ISZERO MUL OR SWAP1 SSTORE POP JUMP JUMPDEST PUSH1 0x0 DUP1 PUSH1 0x0 DUP4 PUSH20 0xFFFFFFFFFFFFFFFFFFFFFFFFFFFFFFFFFFFFFFFF AND PUSH20 0xFFFFFFFFFFFFFFFFFFFFFFFFFFFFFFFFFFFFFFFF AND DUP2 MSTORE PUSH1 0x20 ADD SWAP1 DUP2 MSTORE PUSH1 0x20 ADD PUSH1 0x0 KECCAK256 SLOAD SWAP1 POP SWAP2 SWAP1 POP JUMP JUMPDEST PUSH1 0x6 SLOAD PUSH2 0xB8D CALLER PUSH2 0xB39 JUMP JUMPDEST EQ PUSH2 0xBCD JUMPI PUSH1 0x40 MLOAD PUSH32 0x8C379A000000000000000000000000000000000000000000000000000000000 DUP2 MSTORE PUSH1 0x4 ADD PUSH2 0xBC4 SWAP1 PUSH2 0x1DE4 JUMP JUMPDEST PUSH1 0x40 MLOAD DUP1 SWAP2 SUB SWAP1 REVERT JUMPDEST PUSH2 0xBDE CALLER PUSH2 0xBD9 PUSH2 0x5D2 JUMP JUMPDEST PUSH2 0x10FF JUMP JUMPDEST PUSH32 0x0 PUSH20 0xFFFFFFFFFFFFFFFFFFFFFFFFFFFFFFFFFFFFFFFF AND PUSH4 0x42842E0E ADDRESS CALLER ADDRESS PUSH20 0xFFFFFFFFFFFFFFFFFFFFFFFFFFFFFFFFFFFFFFFF AND PUSH1 0x40 MLOAD DUP5 PUSH4 0xFFFFFFFF AND PUSH1 0xE0 SHL DUP2 MSTORE PUSH1 0x4 ADD PUSH2 0xC51 SWAP4 SWAP3 SWAP2 SWAP1 PUSH2 0x1C96 JUMP JUMPDEST PUSH1 0x0 PUSH1 0x40 MLOAD DUP1 DUP4 SUB DUP2 PUSH1 0x0 DUP8 DUP1 EXTCODESIZE ISZERO DUP1 ISZERO PUSH2 0xC6B JUMPI PUSH1 0x0 DUP1 REVERT JUMPDEST POP GAS CALL ISZERO DUP1 ISZERO PUSH2 0xC7F JUMPI RETURNDATASIZE PUSH1 0x0 DUP1 RETURNDATACOPY RETURNDATASIZE PUSH1 0x0 REVERT JUMPDEST POP POP POP POP JUMP JUMPDEST PUSH1 0x7 SLOAD DUP2 JUMP JUMPDEST PUSH32 0x0 DUP2 JUMP JUMPDEST PUSH1 0x9 PUSH1 0x2 SWAP1 SLOAD SWAP1 PUSH2 0x100 EXP SWAP1 DIV PUSH20 0xFFFFFFFFFFFFFFFFFFFFFFFFFFFFFFFFFFFFFFFF AND PUSH20 0xFFFFFFFFFFFFFFFFFFFFFFFFFFFFFFFFFFFFFFFF AND CALLER PUSH20 0xFFFFFFFFFFFFFFFFFFFFFFFFFFFFFFFFFFFFFFFF AND EQ PUSH2 0xD3F JUMPI PUSH1 0x40 MLOAD PUSH32 0x8C379A000000000000000000000000000000000000000000000000000000000 DUP2 MSTORE PUSH1 0x4 ADD PUSH2 0xD36 SWAP1 PUSH2 0x1EA4 JUMP JUMPDEST PUSH1 0x40 MLOAD DUP1 SWAP2 SUB SWAP1 REVERT JUMPDEST PUSH1 0x1 PUSH1 0x9 PUSH1 0x0 PUSH2 0x100 EXP DUP2 SLOAD DUP2 PUSH1 0xFF MUL NOT AND SWAP1 DUP4 ISZERO ISZERO MUL OR SWAP1 SSTORE POP JUMP JUMPDEST PUSH1 0x6 SLOAD DUP2 JUMP JUMPDEST PUSH1 0x60 PUSH1 0x4 DUP1 SLOAD PUSH2 0xD71 SWAP1 PUSH2 0x215C JUMP JUMPDEST DUP1 PUSH1 0x1F ADD PUSH1 0x20 DUP1 SWAP2 DIV MUL PUSH1 0x20 ADD PUSH1 0x40 MLOAD SWAP1 DUP2 ADD PUSH1 0x40 MSTORE DUP1 SWAP3 SWAP2 SWAP1 DUP2 DUP2 MSTORE PUSH1 0x20 ADD DUP3 DUP1 SLOAD PUSH2 0xD9D SWAP1 PUSH2 0x215C JUMP JUMPDEST DUP1 ISZERO PUSH2 0xDEA JUMPI DUP1 PUSH1 0x1F LT PUSH2 0xDBF JUMPI PUSH2 0x100 DUP1 DUP4 SLOAD DIV MUL DUP4 MSTORE SWAP2 PUSH1 0x20 ADD SWAP2 PUSH2 0xDEA JUMP JUMPDEST DUP3 ADD SWAP2 SWAP1 PUSH1 0x0 MSTORE PUSH1 0x20 PUSH1 0x0 KECCAK256 SWAP1 JUMPDEST DUP2 SLOAD DUP2 MSTORE SWAP1 PUSH1 0x1 ADD SWAP1 PUSH1 0x20 ADD DUP1 DUP4 GT PUSH2 0xDCD JUMPI DUP3 SWAP1 SUB PUSH1 0x1F AND DUP3 ADD SWAP2 JUMPDEST POP POP POP POP POP SWAP1 POP SWAP1 JUMP JUMPDEST PUSH1 0x0 DUP1 PUSH2 0xDFF PUSH2 0xF2C JUMP JUMPDEST SWAP1 POP PUSH1 0x0 PUSH2 0xE0D DUP3 DUP7 PUSH2 0xEA5 JUMP JUMPDEST SWAP1 POP DUP4 DUP2 LT ISZERO PUSH2 0xE52 JUMPI PUSH1 0x40 MLOAD PUSH32 0x8C379A000000000000000000000000000000000000000000000000000000000 DUP2 MSTORE PUSH1 0x4 ADD PUSH2 0xE49 SWAP1 PUSH2 0x1F44 JUMP JUMPDEST PUSH1 0x40 MLOAD DUP1 SWAP2 SUB SWAP1 REVERT JUMPDEST PUSH2 0xE5F DUP3 DUP7 DUP7 DUP5 SUB PUSH2 0xF34 JUMP JUMPDEST PUSH1 0x1 SWAP3 POP POP POP SWAP3 SWAP2 POP POP JUMP JUMPDEST PUSH1 0x0 DUP1 PUSH2 0xE76 PUSH2 0xF2C JUMP JUMPDEST SWAP1 POP PUSH2 0xE83 DUP2 DUP6 DUP6 PUSH2 0x1362 JUMP JUMPDEST PUSH1 0x1 SWAP2 POP POP SWAP3 SWAP2 POP POP JUMP JUMPDEST PUSH1 0x0 PUSH1 0x7 SLOAD PUSH1 0x6 SLOAD PUSH2 0xEA0 SWAP2 SWAP1 PUSH2 0x202C JUMP JUMPDEST SWAP1 POP SWAP1 JUMP JUMPDEST PUSH1 0x0 PUSH1 0x1 PUSH1 0x0 DUP5 PUSH20 0xFFFFFFFFFFFFFFFFFFFFFFFFFFFFFFFFFFFFFFFF AND PUSH20 0xFFFFFFFFFFFFFFFFFFFFFFFFFFFFFFFFFFFFFFFF AND DUP2 MSTORE PUSH1 0x20 ADD SWAP1 DUP2 MSTORE PUSH1 0x20 ADD PUSH1 0x0 KECCAK256 PUSH1 0x0 DUP4 PUSH20 0xFFFFFFFFFFFFFFFFFFFFFFFFFFFFFFFFFFFFFFFF AND PUSH20 0xFFFFFFFFFFFFFFFFFFFFFFFFFFFFFFFFFFFFFFFF AND DUP2 MSTORE PUSH1 0x20 ADD SWAP1 DUP2 MSTORE PUSH1 0x20 ADD PUSH1 0x0 KECCAK256 SLOAD SWAP1 POP SWAP3 SWAP2 POP POP JUMP JUMPDEST PUSH1 0x0 CALLER SWAP1 POP SWAP1 JUMP JUMPDEST PUSH1 0x0 PUSH20 0xFFFFFFFFFFFFFFFFFFFFFFFFFFFFFFFFFFFFFFFF AND DUP4 PUSH20 0xFFFFFFFFFFFFFFFFFFFFFFFFFFFFFFFFFFFFFFFF AND EQ ISZERO PUSH2 0xFA4 JUMPI PUSH1 0x40 MLOAD PUSH32 0x8C379A000000000000000000000000000000000000000000000000000000000 DUP2 MSTORE PUSH1 0x4 ADD PUSH2 0xF9B SWAP1 PUSH2 0x1F24 JUMP JUMPDEST PUSH1 0x40 MLOAD DUP1 SWAP2 SUB SWAP1 REVERT JUMPDEST PUSH1 0x0 PUSH20 0xFFFFFFFFFFFFFFFFFFFFFFFFFFFFFFFFFFFFFFFF AND DUP3 PUSH20 0xFFFFFFFFFFFFFFFFFFFFFFFFFFFFFFFFFFFFFFFF AND EQ ISZERO PUSH2 0x1014 JUMPI PUSH1 0x40 MLOAD PUSH32 0x8C379A000000000000000000000000000000000000000000000000000000000 DUP2 MSTORE PUSH1 0x4 ADD PUSH2 0x100B SWAP1 PUSH2 0x1DC4 JUMP JUMPDEST PUSH1 0x40 MLOAD DUP1 SWAP2 SUB SWAP1 REVERT JUMPDEST DUP1 PUSH1 0x1 PUSH1 0x0 DUP6 PUSH20 0xFFFFFFFFFFFFFFFFFFFFFFFFFFFFFFFFFFFFFFFF AND PUSH20 0xFFFFFFFFFFFFFFFFFFFFFFFFFFFFFFFFFFFFFFFF AND DUP2 MSTORE PUSH1 0x20 ADD SWAP1 DUP2 MSTORE PUSH1 0x20 ADD PUSH1 0x0 KECCAK256 PUSH1 0x0 DUP5 PUSH20 0xFFFFFFFFFFFFFFFFFFFFFFFFFFFFFFFFFFFFFFFF AND PUSH20 0xFFFFFFFFFFFFFFFFFFFFFFFFFFFFFFFFFFFFFFFF AND DUP2 MSTORE PUSH1 0x20 ADD SWAP1 DUP2 MSTORE PUSH1 0x20 ADD PUSH1 0x0 KECCAK256 DUP2 SWAP1 SSTORE POP DUP2 PUSH20 0xFFFFFFFFFFFFFFFFFFFFFFFFFFFFFFFFFFFFFFFF AND DUP4 PUSH20 0xFFFFFFFFFFFFFFFFFFFFFFFFFFFFFFFFFFFFFFFF AND PUSH32 0x8C5BE1E5EBEC7D5BD14F71427D1E84F3DD0314C0F7B2291E5B200AC8C7C3B925 DUP4 PUSH1 0x40 MLOAD PUSH2 0x10F2 SWAP2 SWAP1 PUSH2 0x1F84 JUMP JUMPDEST PUSH1 0x40 MLOAD DUP1 SWAP2 SUB SWAP1 LOG3 POP POP POP JUMP JUMPDEST PUSH1 0x0 PUSH20 0xFFFFFFFFFFFFFFFFFFFFFFFFFFFFFFFFFFFFFFFF AND DUP3 PUSH20 0xFFFFFFFFFFFFFFFFFFFFFFFFFFFFFFFFFFFFFFFF AND EQ ISZERO PUSH2 0x116F JUMPI PUSH1 0x40 MLOAD PUSH32 0x8C379A000000000000000000000000000000000000000000000000000000000 DUP2 MSTORE PUSH1 0x4 ADD PUSH2 0x1166 SWAP1 PUSH2 0x1EE4 JUMP JUMPDEST PUSH1 0x40 MLOAD DUP1 SWAP2 SUB SWAP1 REVERT JUMPDEST PUSH2 0x117B DUP3 PUSH1 0x0 DUP4 PUSH2 0x1743 JUMP JUMPDEST PUSH1 0x0 DUP1 PUSH1 0x0 DUP5 PUSH20 0xFFFFFFFFFFFFFFFFFFFFFFFFFFFFFFFFFFFFFFFF AND PUSH20 0xFFFFFFFFFFFFFFFFFFFFFFFFFFFFFFFFFFFFFFFF AND DUP2 MSTORE PUSH1 0x20 ADD SWAP1 DUP2 MSTORE PUSH1 0x20 ADD PUSH1 0x0 KECCAK256 SLOAD SWAP1 POP DUP2 DUP2 LT ISZERO PUSH2 0x1201 JUMPI PUSH1 0x40 MLOAD PUSH32 0x8C379A000000000000000000000000000000000000000000000000000000000 DUP2 MSTORE PUSH1 0x4 ADD PUSH2 0x11F8 SWAP1 PUSH2 0x1DA4 JUMP JUMPDEST PUSH1 0x40 MLOAD DUP1 SWAP2 SUB SWAP1 REVERT JUMPDEST DUP2 DUP2 SUB PUSH1 0x0 DUP1 DUP6 PUSH20 0xFFFFFFFFFFFFFFFFFFFFFFFFFFFFFFFFFFFFFFFF AND PUSH20 0xFFFFFFFFFFFFFFFFFFFFFFFFFFFFFFFFFFFFFFFF AND DUP2 MSTORE PUSH1 0x20 ADD SWAP1 DUP2 MSTORE PUSH1 0x20 ADD PUSH1 0x0 KECCAK256 DUP2 SWAP1 SSTORE POP DUP2 PUSH1 0x2 PUSH1 0x0 DUP3 DUP3 SLOAD PUSH2 0x1258 SWAP2 SWAP1 PUSH2 0x202C JUMP JUMPDEST SWAP3 POP POP DUP2 SWAP1 SSTORE POP PUSH1 0x0 PUSH20 0xFFFFFFFFFFFFFFFFFFFFFFFFFFFFFFFFFFFFFFFF AND DUP4 PUSH20 0xFFFFFFFFFFFFFFFFFFFFFFFFFFFFFFFFFFFFFFFF AND PUSH32 0xDDF252AD1BE2C89B69C2B068FC378DAA952BA7F163C4A11628F55A4DF523B3EF DUP5 PUSH1 0x40 MLOAD PUSH2 0x12BD SWAP2 SWAP1 PUSH2 0x1F84 JUMP JUMPDEST PUSH1 0x40 MLOAD DUP1 SWAP2 SUB SWAP1 LOG3 PUSH2 0x12D1 DUP4 PUSH1 0x0 DUP5 PUSH2 0x1748 JUMP JUMPDEST POP POP POP JUMP JUMPDEST PUSH1 0x0 PUSH2 0x12E2 DUP5 DUP5 PUSH2 0xEA5 JUMP JUMPDEST SWAP1 POP PUSH32 0xFFFFFFFFFFFFFFFFFFFFFFFFFFFFFFFFFFFFFFFFFFFFFFFFFFFFFFFFFFFFFFFF DUP2 EQ PUSH2 0x135C JUMPI DUP2 DUP2 LT ISZERO PUSH2 0x134E JUMPI PUSH1 0x40 MLOAD PUSH32 0x8C379A000000000000000000000000000000000000000000000000000000000 DUP2 MSTORE PUSH1 0x4 ADD PUSH2 0x1345 SWAP1 PUSH2 0x1E04 JUMP JUMPDEST PUSH1 0x40 MLOAD DUP1 SWAP2 SUB SWAP1 REVERT JUMPDEST PUSH2 0x135B DUP5 DUP5 DUP5 DUP5 SUB PUSH2 0xF34 JUMP JUMPDEST JUMPDEST POP POP POP POP JUMP JUMPDEST PUSH1 0x0 PUSH20 0xFFFFFFFFFFFFFFFFFFFFFFFFFFFFFFFFFFFFFFFF AND DUP4 PUSH20 0xFFFFFFFFFFFFFFFFFFFFFFFFFFFFFFFFFFFFFFFF AND EQ ISZERO PUSH2 0x13D2 JUMPI PUSH1 0x40 MLOAD PUSH32 0x8C379A000000000000000000000000000000000000000000000000000000000 DUP2 MSTORE PUSH1 0x4 ADD PUSH2 0x13C9 SWAP1 PUSH2 0x1F04 JUMP JUMPDEST PUSH1 0x40 MLOAD DUP1 SWAP2 SUB SWAP1 REVERT JUMPDEST PUSH1 0x0 PUSH20 0xFFFFFFFFFFFFFFFFFFFFFFFFFFFFFFFFFFFFFFFF AND DUP3 PUSH20 0xFFFFFFFFFFFFFFFFFFFFFFFFFFFFFFFFFFFFFFFF AND EQ ISZERO PUSH2 0x1442 JUMPI PUSH1 0x40 MLOAD PUSH32 0x8C379A000000000000000000000000000000000000000000000000000000000 DUP2 MSTORE PUSH1 0x4 ADD PUSH2 0x1439 SWAP1 PUSH2 0x1D84 JUMP JUMPDEST PUSH1 0x40 MLOAD DUP1 SWAP2 SUB SWAP1 REVERT JUMPDEST PUSH2 0x144D DUP4 DUP4 DUP4 PUSH2 0x1743 JUMP JUMPDEST PUSH1 0x0 DUP1 PUSH1 0x0 DUP6 PUSH20 0xFFFFFFFFFFFFFFFFFFFFFFFFFFFFFFFFFFFFFFFF AND PUSH20 0xFFFFFFFFFFFFFFFFFFFFFFFFFFFFFFFFFFFFFFFF AND DUP2 MSTORE PUSH1 0x20 ADD SWAP1 DUP2 MSTORE PUSH1 0x20 ADD PUSH1 0x0 KECCAK256 SLOAD SWAP1 POP DUP2 DUP2 LT ISZERO PUSH2 0x14D3 JUMPI PUSH1 0x40 MLOAD PUSH32 0x8C379A000000000000000000000000000000000000000000000000000000000 DUP2 MSTORE PUSH1 0x4 ADD PUSH2 0x14CA SWAP1 PUSH2 0x1E24 JUMP JUMPDEST PUSH1 0x40 MLOAD DUP1 SWAP2 SUB SWAP1 REVERT JUMPDEST DUP2 DUP2 SUB PUSH1 0x0 DUP1 DUP7 PUSH20 0xFFFFFFFFFFFFFFFFFFFFFFFFFFFFFFFFFFFFFFFF AND PUSH20 0xFFFFFFFFFFFFFFFFFFFFFFFFFFFFFFFFFFFFFFFF AND DUP2 MSTORE PUSH1 0x20 ADD SWAP1 DUP2 MSTORE PUSH1 0x20 ADD PUSH1 0x0 KECCAK256 DUP2 SWAP1 SSTORE POP DUP2 PUSH1 0x0 DUP1 DUP6 PUSH20 0xFFFFFFFFFFFFFFFFFFFFFFFFFFFFFFFFFFFFFFFF AND PUSH20 0xFFFFFFFFFFFFFFFFFFFFFFFFFFFFFFFFFFFFFFFF AND DUP2 MSTORE PUSH1 0x20 ADD SWAP1 DUP2 MSTORE PUSH1 0x20 ADD PUSH1 0x0 KECCAK256 PUSH1 0x0 DUP3 DUP3 SLOAD PUSH2 0x1566 SWAP2 SWAP1 PUSH2 0x1FD6 JUMP JUMPDEST SWAP3 POP POP DUP2 SWAP1 SSTORE POP DUP3 PUSH20 0xFFFFFFFFFFFFFFFFFFFFFFFFFFFFFFFFFFFFFFFF AND DUP5 PUSH20 0xFFFFFFFFFFFFFFFFFFFFFFFFFFFFFFFFFFFFFFFF AND PUSH32 0xDDF252AD1BE2C89B69C2B068FC378DAA952BA7F163C4A11628F55A4DF523B3EF DUP5 PUSH1 0x40 MLOAD PUSH2 0x15CA SWAP2 SWAP1 PUSH2 0x1F84 JUMP JUMPDEST PUSH1 0x40 MLOAD DUP1 SWAP2 SUB SWAP1 LOG3 PUSH2 0x15DD DUP5 DUP5 DUP5 PUSH2 0x1748 JUMP JUMPDEST POP POP POP POP JUMP JUMPDEST PUSH1 0x0 PUSH20 0xFFFFFFFFFFFFFFFFFFFFFFFFFFFFFFFFFFFFFFFF AND DUP3 PUSH20 0xFFFFFFFFFFFFFFFFFFFFFFFFFFFFFFFFFFFFFFFF AND EQ ISZERO PUSH2 0x1653 JUMPI PUSH1 0x40 MLOAD PUSH32 0x8C379A000000000000000000000000000000000000000000000000000000000 DUP2 MSTORE PUSH1 0x4 ADD PUSH2 0x164A SWAP1 PUSH2 0x1F64 JUMP JUMPDEST PUSH1 0x40 MLOAD DUP1 SWAP2 SUB SWAP1 REVERT JUMPDEST PUSH2 0x165F PUSH1 0x0 DUP4 DUP4 PUSH2 0x1743 JUMP JUMPDEST DUP1 PUSH1 0x2 PUSH1 0x0 DUP3 DUP3 SLOAD PUSH2 0x1671 SWAP2 SWAP1 PUSH2 0x1FD6 JUMP JUMPDEST SWAP3 POP POP DUP2 SWAP1 SSTORE POP DUP1 PUSH1 0x0 DUP1 DUP5 PUSH20 0xFFFFFFFFFFFFFFFFFFFFFFFFFFFFFFFFFFFFFFFF AND PUSH20 0xFFFFFFFFFFFFFFFFFFFFFFFFFFFFFFFFFFFFFFFF AND DUP2 MSTORE PUSH1 0x20 ADD SWAP1 DUP2 MSTORE PUSH1 0x20 ADD PUSH1 0x0 KECCAK256 PUSH1 0x0 DUP3 DUP3 SLOAD PUSH2 0x16C6 SWAP2 SWAP1 PUSH2 0x1FD6 JUMP JUMPDEST SWAP3 POP POP DUP2 SWAP1 SSTORE POP DUP2 PUSH20 0xFFFFFFFFFFFFFFFFFFFFFFFFFFFFFFFFFFFFFFFF AND PUSH1 0x0 PUSH20 0xFFFFFFFFFFFFFFFFFFFFFFFFFFFFFFFFFFFFFFFF AND PUSH32 0xDDF252AD1BE2C89B69C2B068FC378DAA952BA7F163C4A11628F55A4DF523B3EF DUP4 PUSH1 0x40 MLOAD PUSH2 0x172B SWAP2 SWAP1 PUSH2 0x1F84 JUMP JUMPDEST PUSH1 0x40 MLOAD DUP1 SWAP2 SUB SWAP1 LOG3 PUSH2 0x173F PUSH1 0x0 DUP4 DUP4 PUSH2 0x1748 JUMP JUMPDEST POP POP JUMP JUMPDEST POP POP POP JUMP JUMPDEST POP POP POP JUMP JUMPDEST PUSH1 0x0 DUP2 CALLDATALOAD SWAP1 POP PUSH2 0x175C DUP2 PUSH2 0x25D6 JUMP JUMPDEST SWAP3 SWAP2 POP POP JUMP JUMPDEST PUSH1 0x0 DUP2 MLOAD SWAP1 POP PUSH2 0x1771 DUP2 PUSH2 0x25ED JUMP JUMPDEST SWAP3 SWAP2 POP POP JUMP JUMPDEST PUSH1 0x0 DUP1 DUP4 PUSH1 0x1F DUP5 ADD SLT PUSH2 0x178D JUMPI PUSH2 0x178C PUSH2 0x21F1 JUMP JUMPDEST JUMPDEST DUP3 CALLDATALOAD SWAP1 POP PUSH8 0xFFFFFFFFFFFFFFFF DUP2 GT ISZERO PUSH2 0x17AA JUMPI PUSH2 0x17A9 PUSH2 0x21EC JUMP JUMPDEST JUMPDEST PUSH1 0x20 DUP4 ADD SWAP2 POP DUP4 PUSH1 0x1 DUP3 MUL DUP4 ADD GT ISZERO PUSH2 0x17C6 JUMPI PUSH2 0x17C5 PUSH2 0x21F6 JUMP JUMPDEST JUMPDEST SWAP3 POP SWAP3 SWAP1 POP JUMP JUMPDEST PUSH1 0x0 DUP2 CALLDATALOAD SWAP1 POP PUSH2 0x17DC DUP2 PUSH2 0x2604 JUMP JUMPDEST SWAP3 SWAP2 POP POP JUMP JUMPDEST PUSH1 0x0 PUSH1 0x20 DUP3 DUP5 SUB SLT ISZERO PUSH2 0x17F8 JUMPI PUSH2 0x17F7 PUSH2 0x2200 JUMP JUMPDEST JUMPDEST PUSH1 0x0 PUSH2 0x1806 DUP5 DUP3 DUP6 ADD PUSH2 0x174D JUMP JUMPDEST SWAP2 POP POP SWAP3 SWAP2 POP POP JUMP JUMPDEST PUSH1 0x0 DUP1 PUSH1 0x40 DUP4 DUP6 SUB SLT ISZERO PUSH2 0x1826 JUMPI PUSH2 0x1825 PUSH2 0x2200 JUMP JUMPDEST JUMPDEST PUSH1 0x0 PUSH2 0x1834 DUP6 DUP3 DUP7 ADD PUSH2 0x174D JUMP JUMPDEST SWAP3 POP POP PUSH1 0x20 PUSH2 0x1845 DUP6 DUP3 DUP7 ADD PUSH2 0x174D JUMP JUMPDEST SWAP2 POP POP SWAP3 POP SWAP3 SWAP1 POP JUMP JUMPDEST PUSH1 0x0 DUP1 PUSH1 0x0 PUSH1 0x60 DUP5 DUP7 SUB SLT ISZERO PUSH2 0x1868 JUMPI PUSH2 0x1867 PUSH2 0x2200 JUMP JUMPDEST JUMPDEST PUSH1 0x0 PUSH2 0x1876 DUP7 DUP3 DUP8 ADD PUSH2 0x174D JUMP JUMPDEST SWAP4 POP POP PUSH1 0x20 PUSH2 0x1887 DUP7 DUP3 DUP8 ADD PUSH2 0x174D JUMP JUMPDEST SWAP3 POP POP PUSH1 0x40 PUSH2 0x1898 DUP7 DUP3 DUP8 ADD PUSH2 0x17CD JUMP JUMPDEST SWAP2 POP POP SWAP3 POP SWAP3 POP SWAP3 JUMP JUMPDEST PUSH1 0x0 DUP1 PUSH1 0x0 DUP1 PUSH1 0x0 PUSH1 0x80 DUP7 DUP9 SUB SLT ISZERO PUSH2 0x18BE JUMPI PUSH2 0x18BD PUSH2 0x2200 JUMP JUMPDEST JUMPDEST PUSH1 0x0 PUSH2 0x18CC DUP9 DUP3 DUP10 ADD PUSH2 0x174D JUMP JUMPDEST SWAP6 POP POP PUSH1 0x20 PUSH2 0x18DD DUP9 DUP3 DUP10 ADD PUSH2 0x174D JUMP JUMPDEST SWAP5 POP POP PUSH1 0x40 PUSH2 0x18EE DUP9 DUP3 DUP10 ADD PUSH2 0x17CD JUMP JUMPDEST SWAP4 POP POP PUSH1 0x60 DUP7 ADD CALLDATALOAD PUSH8 0xFFFFFFFFFFFFFFFF DUP2 GT ISZERO PUSH2 0x190F JUMPI PUSH2 0x190E PUSH2 0x21FB JUMP JUMPDEST JUMPDEST PUSH2 0x191B DUP9 DUP3 DUP10 ADD PUSH2 0x1777 JUMP JUMPDEST SWAP3 POP SWAP3 POP POP SWAP3 SWAP6 POP SWAP3 SWAP6 SWAP1 SWAP4 POP JUMP JUMPDEST PUSH1 0x0 DUP1 PUSH1 0x40 DUP4 DUP6 SUB SLT ISZERO PUSH2 0x1941 JUMPI PUSH2 0x1940 PUSH2 0x2200 JUMP JUMPDEST JUMPDEST PUSH1 0x0 PUSH2 0x194F DUP6 DUP3 DUP7 ADD PUSH2 0x174D JUMP JUMPDEST SWAP3 POP POP PUSH1 0x20 PUSH2 0x1960 DUP6 DUP3 DUP7 ADD PUSH2 0x17CD JUMP JUMPDEST SWAP2 POP POP SWAP3 POP SWAP3 SWAP1 POP JUMP JUMPDEST PUSH1 0x0 PUSH1 0x20 DUP3 DUP5 SUB SLT ISZERO PUSH2 0x1980 JUMPI PUSH2 0x197F PUSH2 0x2200 JUMP JUMPDEST JUMPDEST PUSH1 0x0 PUSH2 0x198E DUP5 DUP3 DUP6 ADD PUSH2 0x1762 JUMP JUMPDEST SWAP2 POP POP SWAP3 SWAP2 POP POP JUMP JUMPDEST PUSH1 0x0 PUSH1 0x20 DUP3 DUP5 SUB SLT ISZERO PUSH2 0x19AD JUMPI PUSH2 0x19AC PUSH2 0x2200 JUMP JUMPDEST JUMPDEST PUSH1 0x0 PUSH2 0x19BB DUP5 DUP3 DUP6 ADD PUSH2 0x17CD JUMP JUMPDEST SWAP2 POP POP SWAP3 SWAP2 POP POP JUMP JUMPDEST PUSH2 0x19CD DUP2 PUSH2 0x2060 JUMP JUMPDEST DUP3 MSTORE POP POP JUMP JUMPDEST PUSH2 0x19DC DUP2 PUSH2 0x2072 JUMP JUMPDEST DUP3 MSTORE POP POP JUMP JUMPDEST PUSH2 0x19EB DUP2 PUSH2 0x207E JUMP JUMPDEST DUP3 MSTORE POP POP JUMP JUMPDEST PUSH2 0x19FA DUP2 PUSH2 0x20E1 JUMP JUMPDEST DUP3 MSTORE POP POP JUMP JUMPDEST PUSH2 0x1A09 DUP2 PUSH2 0x20F3 JUMP JUMPDEST DUP3 MSTORE POP POP JUMP JUMPDEST PUSH1 0x0 PUSH2 0x1A1A DUP3 PUSH2 0x1FBA JUMP JUMPDEST PUSH2 0x1A24 DUP2 DUP6 PUSH2 0x1FC5 JUMP JUMPDEST SWAP4 POP PUSH2 0x1A34 DUP2 DUP6 PUSH1 0x20 DUP7 ADD PUSH2 0x2129 JUMP JUMPDEST PUSH2 0x1A3D DUP2 PUSH2 0x2205 JUMP JUMPDEST DUP5 ADD SWAP2 POP POP SWAP3 SWAP2 POP POP JUMP JUMPDEST PUSH1 0x0 PUSH2 0x1A55 PUSH1 0x23 DUP4 PUSH2 0x1FC5 JUMP JUMPDEST SWAP2 POP PUSH2 0x1A60 DUP3 PUSH2 0x2216 JUMP JUMPDEST PUSH1 0x40 DUP3 ADD SWAP1 POP SWAP2 SWAP1 POP JUMP JUMPDEST PUSH1 0x0 PUSH2 0x1A78 PUSH1 0x22 DUP4 PUSH2 0x1FC5 JUMP JUMPDEST SWAP2 POP PUSH2 0x1A83 DUP3 PUSH2 0x2265 JUMP JUMPDEST PUSH1 0x40 DUP3 ADD SWAP1 POP SWAP2 SWAP1 POP JUMP JUMPDEST PUSH1 0x0 PUSH2 0x1A9B PUSH1 0x22 DUP4 PUSH2 0x1FC5 JUMP JUMPDEST SWAP2 POP PUSH2 0x1AA6 DUP3 PUSH2 0x22B4 JUMP JUMPDEST PUSH1 0x40 DUP3 ADD SWAP1 POP SWAP2 SWAP1 POP JUMP JUMPDEST PUSH1 0x0 PUSH2 0x1ABE PUSH1 0x1C DUP4 PUSH2 0x1FC5 JUMP JUMPDEST SWAP2 POP PUSH2 0x1AC9 DUP3 PUSH2 0x2303 JUMP JUMPDEST PUSH1 0x20 DUP3 ADD SWAP1 POP SWAP2 SWAP1 POP JUMP JUMPDEST PUSH1 0x0 PUSH2 0x1AE1 PUSH1 0x1D DUP4 PUSH2 0x1FC5 JUMP JUMPDEST SWAP2 POP PUSH2 0x1AEC DUP3 PUSH2 0x232C JUMP JUMPDEST PUSH1 0x20 DUP3 ADD SWAP1 POP SWAP2 SWAP1 POP JUMP JUMPDEST PUSH1 0x0 PUSH2 0x1B04 PUSH1 0x26 DUP4 PUSH2 0x1FC5 JUMP JUMPDEST SWAP2 POP PUSH2 0x1B0F DUP3 PUSH2 0x2355 JUMP JUMPDEST PUSH1 0x40 DUP3 ADD SWAP1 POP SWAP2 SWAP1 POP JUMP JUMPDEST PUSH1 0x0 PUSH2 0x1B27 PUSH1 0x17 DUP4 PUSH2 0x1FC5 JUMP JUMPDEST SWAP2 POP PUSH2 0x1B32 DUP3 PUSH2 0x23A4 JUMP JUMPDEST PUSH1 0x20 DUP3 ADD SWAP1 POP SWAP2 SWAP1 POP JUMP JUMPDEST PUSH1 0x0 PUSH2 0x1B4A PUSH1 0x12 DUP4 PUSH2 0x1FC5 JUMP JUMPDEST SWAP2 POP PUSH2 0x1B55 DUP3 PUSH2 0x23CD JUMP JUMPDEST PUSH1 0x20 DUP3 ADD SWAP1 POP SWAP2 SWAP1 POP JUMP JUMPDEST PUSH1 0x0 PUSH2 0x1B6D PUSH1 0x15 DUP4 PUSH2 0x1FC5 JUMP JUMPDEST SWAP2 POP PUSH2 0x1B78 DUP3 PUSH2 0x23F6 JUMP JUMPDEST PUSH1 0x20 DUP3 ADD SWAP1 POP SWAP2 SWAP1 POP JUMP JUMPDEST PUSH1 0x0 PUSH2 0x1B90 PUSH1 0x1C DUP4 PUSH2 0x1FC5 JUMP JUMPDEST SWAP2 POP PUSH2 0x1B9B DUP3 PUSH2 0x241F JUMP JUMPDEST PUSH1 0x20 DUP3 ADD SWAP1 POP SWAP2 SWAP1 POP JUMP JUMPDEST PUSH1 0x0 PUSH2 0x1BB3 PUSH1 0x19 DUP4 PUSH2 0x1FC5 JUMP JUMPDEST SWAP2 POP PUSH2 0x1BBE DUP3 PUSH2 0x2448 JUMP JUMPDEST PUSH1 0x20 DUP3 ADD SWAP1 POP SWAP2 SWAP1 POP JUMP JUMPDEST PUSH1 0x0 PUSH2 0x1BD6 PUSH1 0x21 DUP4 PUSH2 0x1FC5 JUMP JUMPDEST SWAP2 POP PUSH2 0x1BE1 DUP3 PUSH2 0x2471 JUMP JUMPDEST PUSH1 0x40 DUP3 ADD SWAP1 POP SWAP2 SWAP1 POP JUMP JUMPDEST PUSH1 0x0 PUSH2 0x1BF9 PUSH1 0x25 DUP4 PUSH2 0x1FC5 JUMP JUMPDEST SWAP2 POP PUSH2 0x1C04 DUP3 PUSH2 0x24C0 JUMP JUMPDEST PUSH1 0x40 DUP3 ADD SWAP1 POP SWAP2 SWAP1 POP JUMP JUMPDEST PUSH1 0x0 PUSH2 0x1C1C PUSH1 0x24 DUP4 PUSH2 0x1FC5 JUMP JUMPDEST SWAP2 POP PUSH2 0x1C27 DUP3 PUSH2 0x250F JUMP JUMPDEST PUSH1 0x40 DUP3 ADD SWAP1 POP SWAP2 SWAP1 POP JUMP JUMPDEST PUSH1 0x0 PUSH2 0x1C3F PUSH1 0x25 DUP4 PUSH2 0x1FC5 JUMP JUMPDEST SWAP2 POP PUSH2 0x1C4A DUP3 PUSH2 0x255E JUMP JUMPDEST PUSH1 0x40 DUP3 ADD SWAP1 POP SWAP2 SWAP1 POP JUMP JUMPDEST PUSH1 0x0 PUSH2 0x1C62 PUSH1 0x1F DUP4 PUSH2 0x1FC5 JUMP JUMPDEST SWAP2 POP PUSH2 0x1C6D DUP3 PUSH2 0x25AD JUMP JUMPDEST PUSH1 0x20 DUP3 ADD SWAP1 POP SWAP2 SWAP1 POP JUMP JUMPDEST PUSH2 0x1C81 DUP2 PUSH2 0x20CA JUMP JUMPDEST DUP3 MSTORE POP POP JUMP JUMPDEST PUSH2 0x1C90 DUP2 PUSH2 0x20D4 JUMP JUMPDEST DUP3 MSTORE POP POP JUMP JUMPDEST PUSH1 0x0 PUSH1 0x60 DUP3 ADD SWAP1 POP PUSH2 0x1CAB PUSH1 0x0 DUP4 ADD DUP7 PUSH2 0x19C4 JUMP JUMPDEST PUSH2 0x1CB8 PUSH1 0x20 DUP4 ADD DUP6 PUSH2 0x19C4 JUMP JUMPDEST PUSH2 0x1CC5 PUSH1 0x40 DUP4 ADD DUP5 PUSH2 0x1C78 JUMP JUMPDEST SWAP5 SWAP4 POP POP POP POP JUMP JUMPDEST PUSH1 0x0 PUSH1 0x40 DUP3 ADD SWAP1 POP PUSH2 0x1CE2 PUSH1 0x0 DUP4 ADD DUP6 PUSH2 0x19C4 JUMP JUMPDEST PUSH2 0x1CEF PUSH1 0x20 DUP4 ADD DUP5 PUSH2 0x1C78 JUMP JUMPDEST SWAP4 SWAP3 POP POP POP JUMP JUMPDEST PUSH1 0x0 PUSH1 0x20 DUP3 ADD SWAP1 POP PUSH2 0x1D0B PUSH1 0x0 DUP4 ADD DUP5 PUSH2 0x19D3 JUMP JUMPDEST SWAP3 SWAP2 POP POP JUMP JUMPDEST PUSH1 0x0 PUSH1 0x20 DUP3 ADD SWAP1 POP PUSH2 0x1D26 PUSH1 0x0 DUP4 ADD DUP5 PUSH2 0x19E2 JUMP JUMPDEST SWAP3 SWAP2 POP POP JUMP JUMPDEST PUSH1 0x0 PUSH1 0x20 DUP3 ADD SWAP1 POP PUSH2 0x1D41 PUSH1 0x0 DUP4 ADD DUP5 PUSH2 0x19F1 JUMP JUMPDEST SWAP3 SWAP2 POP POP JUMP JUMPDEST PUSH1 0x0 PUSH1 0x20 DUP3 ADD SWAP1 POP PUSH2 0x1D5C PUSH1 0x0 DUP4 ADD DUP5 PUSH2 0x1A00 JUMP JUMPDEST SWAP3 SWAP2 POP POP JUMP JUMPDEST PUSH1 0x0 PUSH1 0x20 DUP3 ADD SWAP1 POP DUP2 DUP2 SUB PUSH1 0x0 DUP4 ADD MSTORE PUSH2 0x1D7C DUP2 DUP5 PUSH2 0x1A0F JUMP JUMPDEST SWAP1 POP SWAP3 SWAP2 POP POP JUMP JUMPDEST PUSH1 0x0 PUSH1 0x20 DUP3 ADD SWAP1 POP DUP2 DUP2 SUB PUSH1 0x0 DUP4 ADD MSTORE PUSH2 0x1D9D DUP2 PUSH2 0x1A48 JUMP JUMPDEST SWAP1 POP SWAP2 SWAP1 POP JUMP JUMPDEST PUSH1 0x0 PUSH1 0x20 DUP3 ADD SWAP1 POP DUP2 DUP2 SUB PUSH1 0x0 DUP4 ADD MSTORE PUSH2 0x1DBD DUP2 PUSH2 0x1A6B JUMP JUMPDEST SWAP1 POP SWAP2 SWAP1 POP JUMP JUMPDEST PUSH1 0x0 PUSH1 0x20 DUP3 ADD SWAP1 POP DUP2 DUP2 SUB PUSH1 0x0 DUP4 ADD MSTORE PUSH2 0x1DDD DUP2 PUSH2 0x1A8E JUMP JUMPDEST SWAP1 POP SWAP2 SWAP1 POP JUMP JUMPDEST PUSH1 0x0 PUSH1 0x20 DUP3 ADD SWAP1 POP DUP2 DUP2 SUB PUSH1 0x0 DUP4 ADD MSTORE PUSH2 0x1DFD DUP2 PUSH2 0x1AB1 JUMP JUMPDEST SWAP1 POP SWAP2 SWAP1 POP JUMP JUMPDEST PUSH1 0x0 PUSH1 0x20 DUP3 ADD SWAP1 POP DUP2 DUP2 SUB PUSH1 0x0 DUP4 ADD MSTORE PUSH2 0x1E1D DUP2 PUSH2 0x1AD4 JUMP JUMPDEST SWAP1 POP SWAP2 SWAP1 POP JUMP JUMPDEST PUSH1 0x0 PUSH1 0x20 DUP3 ADD SWAP1 POP DUP2 DUP2 SUB PUSH1 0x0 DUP4 ADD MSTORE PUSH2 0x1E3D DUP2 PUSH2 0x1AF7 JUMP JUMPDEST SWAP1 POP SWAP2 SWAP1 POP JUMP JUMPDEST PUSH1 0x0 PUSH1 0x20 DUP3 ADD SWAP1 POP DUP2 DUP2 SUB PUSH1 0x0 DUP4 ADD MSTORE PUSH2 0x1E5D DUP2 PUSH2 0x1B1A JUMP JUMPDEST SWAP1 POP SWAP2 SWAP1 POP JUMP JUMPDEST PUSH1 0x0 PUSH1 0x20 DUP3 ADD SWAP1 POP DUP2 DUP2 SUB PUSH1 0x0 DUP4 ADD MSTORE PUSH2 0x1E7D DUP2 PUSH2 0x1B3D JUMP JUMPDEST SWAP1 POP SWAP2 SWAP1 POP JUMP JUMPDEST PUSH1 0x0 PUSH1 0x20 DUP3 ADD SWAP1 POP DUP2 DUP2 SUB PUSH1 0x0 DUP4 ADD MSTORE PUSH2 0x1E9D DUP2 PUSH2 0x1B60 JUMP JUMPDEST SWAP1 POP SWAP2 SWAP1 POP JUMP JUMPDEST PUSH1 0x0 PUSH1 0x20 DUP3 ADD SWAP1 POP DUP2 DUP2 SUB PUSH1 0x0 DUP4 ADD MSTORE PUSH2 0x1EBD DUP2 PUSH2 0x1B83 JUMP JUMPDEST SWAP1 POP SWAP2 SWAP1 POP JUMP JUMPDEST PUSH1 0x0 PUSH1 0x20 DUP3 ADD SWAP1 POP DUP2 DUP2 SUB PUSH1 0x0 DUP4 ADD MSTORE PUSH2 0x1EDD DUP2 PUSH2 0x1BA6 JUMP JUMPDEST SWAP1 POP SWAP2 SWAP1 POP JUMP JUMPDEST PUSH1 0x0 PUSH1 0x20 DUP3 ADD SWAP1 POP DUP2 DUP2 SUB PUSH1 0x0 DUP4 ADD MSTORE PUSH2 0x1EFD DUP2 PUSH2 0x1BC9 JUMP JUMPDEST SWAP1 POP SWAP2 SWAP1 POP JUMP JUMPDEST PUSH1 0x0 PUSH1 0x20 DUP3 ADD SWAP1 POP DUP2 DUP2 SUB PUSH1 0x0 DUP4 ADD MSTORE PUSH2 0x1F1D DUP2 PUSH2 0x1BEC JUMP JUMPDEST SWAP1 POP SWAP2 SWAP1 POP JUMP JUMPDEST PUSH1 0x0 PUSH1 0x20 DUP3 ADD SWAP1 POP DUP2 DUP2 SUB PUSH1 0x0 DUP4 ADD MSTORE PUSH2 0x1F3D DUP2 PUSH2 0x1C0F JUMP JUMPDEST SWAP1 POP SWAP2 SWAP1 POP JUMP JUMPDEST PUSH1 0x0 PUSH1 0x20 DUP3 ADD SWAP1 POP DUP2 DUP2 SUB PUSH1 0x0 DUP4 ADD MSTORE PUSH2 0x1F5D DUP2 PUSH2 0x1C32 JUMP JUMPDEST SWAP1 POP SWAP2 SWAP1 POP JUMP JUMPDEST PUSH1 0x0 PUSH1 0x20 DUP3 ADD SWAP1 POP DUP2 DUP2 SUB PUSH1 0x0 DUP4 ADD MSTORE PUSH2 0x1F7D DUP2 PUSH2 0x1C55 JUMP JUMPDEST SWAP1 POP SWAP2 SWAP1 POP JUMP JUMPDEST PUSH1 0x0 PUSH1 0x20 DUP3 ADD SWAP1 POP PUSH2 0x1F99 PUSH1 0x0 DUP4 ADD DUP5 PUSH2 0x1C78 JUMP JUMPDEST SWAP3 SWAP2 POP POP JUMP JUMPDEST PUSH1 0x0 PUSH1 0x20 DUP3 ADD SWAP1 POP PUSH2 0x1FB4 PUSH1 0x0 DUP4 ADD DUP5 PUSH2 0x1C87 JUMP JUMPDEST SWAP3 SWAP2 POP POP JUMP JUMPDEST PUSH1 0x0 DUP2 MLOAD SWAP1 POP SWAP2 SWAP1 POP JUMP JUMPDEST PUSH1 0x0 DUP3 DUP3 MSTORE PUSH1 0x20 DUP3 ADD SWAP1 POP SWAP3 SWAP2 POP POP JUMP JUMPDEST PUSH1 0x0 PUSH2 0x1FE1 DUP3 PUSH2 0x20CA JUMP JUMPDEST SWAP2 POP PUSH2 0x1FEC DUP4 PUSH2 0x20CA JUMP JUMPDEST SWAP3 POP DUP3 PUSH32 0xFFFFFFFFFFFFFFFFFFFFFFFFFFFFFFFFFFFFFFFFFFFFFFFFFFFFFFFFFFFFFFFF SUB DUP3 GT ISZERO PUSH2 0x2021 JUMPI PUSH2 0x2020 PUSH2 0x218E JUMP JUMPDEST JUMPDEST DUP3 DUP3 ADD SWAP1 POP SWAP3 SWAP2 POP POP JUMP JUMPDEST PUSH1 0x0 PUSH2 0x2037 DUP3 PUSH2 0x20CA JUMP JUMPDEST SWAP2 POP PUSH2 0x2042 DUP4 PUSH2 0x20CA JUMP JUMPDEST SWAP3 POP DUP3 DUP3 LT ISZERO PUSH2 0x2055 JUMPI PUSH2 0x2054 PUSH2 0x218E JUMP JUMPDEST JUMPDEST DUP3 DUP3 SUB SWAP1 POP SWAP3 SWAP2 POP POP JUMP JUMPDEST PUSH1 0x0 PUSH2 0x206B DUP3 PUSH2 0x20AA JUMP JUMPDEST SWAP1 POP SWAP2 SWAP1 POP JUMP JUMPDEST PUSH1 0x0 DUP2 ISZERO ISZERO SWAP1 POP SWAP2 SWAP1 POP JUMP JUMPDEST PUSH1 0x0 PUSH32 0xFFFFFFFF00000000000000000000000000000000000000000000000000000000 DUP3 AND SWAP1 POP SWAP2 SWAP1 POP JUMP JUMPDEST PUSH1 0x0 PUSH20 0xFFFFFFFFFFFFFFFFFFFFFFFFFFFFFFFFFFFFFFFF DUP3 AND SWAP1 POP SWAP2 SWAP1 POP JUMP JUMPDEST PUSH1 0x0 DUP2 SWAP1 POP SWAP2 SWAP1 POP JUMP JUMPDEST PUSH1 0x0 PUSH1 0xFF DUP3 AND SWAP1 POP SWAP2 SWAP1 POP JUMP JUMPDEST PUSH1 0x0 PUSH2 0x20EC DUP3 PUSH2 0x2105 JUMP JUMPDEST SWAP1 POP SWAP2 SWAP1 POP JUMP JUMPDEST PUSH1 0x0 PUSH2 0x20FE DUP3 PUSH2 0x2105 JUMP JUMPDEST SWAP1 POP SWAP2 SWAP1 POP JUMP JUMPDEST PUSH1 0x0 PUSH2 0x2110 DUP3 PUSH2 0x2117 JUMP JUMPDEST SWAP1 POP SWAP2 SWAP1 POP JUMP JUMPDEST PUSH1 0x0 PUSH2 0x2122 DUP3 PUSH2 0x20AA JUMP JUMPDEST SWAP1 POP SWAP2 SWAP1 POP JUMP JUMPDEST PUSH1 0x0 JUMPDEST DUP4 DUP2 LT ISZERO PUSH2 0x2147 JUMPI DUP1 DUP3 ADD MLOAD DUP2 DUP5 ADD MSTORE PUSH1 0x20 DUP2 ADD SWAP1 POP PUSH2 0x212C JUMP JUMPDEST DUP4 DUP2 GT ISZERO PUSH2 0x2156 JUMPI PUSH1 0x0 DUP5 DUP5 ADD MSTORE JUMPDEST POP POP POP POP JUMP JUMPDEST PUSH1 0x0 PUSH1 0x2 DUP3 DIV SWAP1 POP PUSH1 0x1 DUP3 AND DUP1 PUSH2 0x2174 JUMPI PUSH1 0x7F DUP3 AND SWAP2 POP JUMPDEST PUSH1 0x20 DUP3 LT DUP2 EQ ISZERO PUSH2 0x2188 JUMPI PUSH2 0x2187 PUSH2 0x21BD JUMP JUMPDEST JUMPDEST POP SWAP2 SWAP1 POP JUMP JUMPDEST PUSH32 0x4E487B7100000000000000000000000000000000000000000000000000000000 PUSH1 0x0 MSTORE PUSH1 0x11 PUSH1 0x4 MSTORE PUSH1 0x24 PUSH1 0x0 REVERT JUMPDEST PUSH32 0x4E487B7100000000000000000000000000000000000000000000000000000000 PUSH1 0x0 MSTORE PUSH1 0x22 PUSH1 0x4 MSTORE PUSH1 0x24 PUSH1 0x0 REVERT JUMPDEST PUSH1 0x0 DUP1 REVERT JUMPDEST PUSH1 0x0 DUP1 REVERT JUMPDEST PUSH1 0x0 DUP1 REVERT JUMPDEST PUSH1 0x0 DUP1 REVERT JUMPDEST PUSH1 0x0 DUP1 REVERT JUMPDEST PUSH1 0x0 PUSH1 0x1F NOT PUSH1 0x1F DUP4 ADD AND SWAP1 POP SWAP2 SWAP1 POP JUMP JUMPDEST PUSH32 0x45524332303A207472616E7366657220746F20746865207A65726F2061646472 PUSH1 0x0 DUP3 ADD MSTORE PUSH32 0x6573730000000000000000000000000000000000000000000000000000000000 PUSH1 0x20 DUP3 ADD MSTORE POP JUMP JUMPDEST PUSH32 0x45524332303A206275726E20616D6F756E7420657863656564732062616C616E PUSH1 0x0 DUP3 ADD MSTORE PUSH32 0x6365000000000000000000000000000000000000000000000000000000000000 PUSH1 0x20 DUP3 ADD MSTORE POP JUMP JUMPDEST PUSH32 0x45524332303A20617070726F766520746F20746865207A65726F206164647265 PUSH1 0x0 DUP3 ADD MSTORE PUSH32 0x7373000000000000000000000000000000000000000000000000000000000000 PUSH1 0x20 DUP3 ADD MSTORE POP JUMP JUMPDEST PUSH32 0x446F204E6F7420486176652052465420546F74616C20537570706C7900000000 PUSH1 0x0 DUP3 ADD MSTORE POP JUMP JUMPDEST PUSH32 0x45524332303A20696E73756666696369656E7420616C6C6F77616E6365000000 PUSH1 0x0 DUP3 ADD MSTORE POP JUMP JUMPDEST PUSH32 0x45524332303A207472616E7366657220616D6F756E7420657863656564732062 PUSH1 0x0 DUP3 ADD MSTORE PUSH32 0x616C616E63650000000000000000000000000000000000000000000000000000 PUSH1 0x20 DUP3 ADD MSTORE POP JUMP JUMPDEST PUSH32 0x4E6F7420656E6F75676820736861726573206C65667421000000000000000000 PUSH1 0x0 DUP3 ADD MSTORE POP JUMP JUMPDEST PUSH32 0x436F6E7472616374204973205061757365640000000000000000000000000000 PUSH1 0x0 DUP3 ADD MSTORE POP JUMP JUMPDEST PUSH32 0x54617267657420416C7265616479205261697365640000000000000000000000 PUSH1 0x0 DUP3 ADD MSTORE POP JUMP JUMPDEST PUSH32 0x4F6E6C792041646D696E2043616E2050617573652F556E706175736500000000 PUSH1 0x0 DUP3 ADD MSTORE POP JUMP JUMPDEST PUSH32 0x4E6F7420477265617420456E6F7567682042616C616E63652100000000000000 PUSH1 0x0 DUP3 ADD MSTORE POP JUMP JUMPDEST PUSH32 0x45524332303A206275726E2066726F6D20746865207A65726F20616464726573 PUSH1 0x0 DUP3 ADD MSTORE PUSH32 0x7300000000000000000000000000000000000000000000000000000000000000 PUSH1 0x20 DUP3 ADD MSTORE POP JUMP JUMPDEST PUSH32 0x45524332303A207472616E736665722066726F6D20746865207A65726F206164 PUSH1 0x0 DUP3 ADD MSTORE PUSH32 0x6472657373000000000000000000000000000000000000000000000000000000 PUSH1 0x20 DUP3 ADD MSTORE POP JUMP JUMPDEST PUSH32 0x45524332303A20617070726F76652066726F6D20746865207A65726F20616464 PUSH1 0x0 DUP3 ADD MSTORE PUSH32 0x7265737300000000000000000000000000000000000000000000000000000000 PUSH1 0x20 DUP3 ADD MSTORE POP JUMP JUMPDEST PUSH32 0x45524332303A2064656372656173656420616C6C6F77616E63652062656C6F77 PUSH1 0x0 DUP3 ADD MSTORE PUSH32 0x207A65726F000000000000000000000000000000000000000000000000000000 PUSH1 0x20 DUP3 ADD MSTORE POP JUMP JUMPDEST PUSH32 0x45524332303A206D696E7420746F20746865207A65726F206164647265737300 PUSH1 0x0 DUP3 ADD MSTORE POP JUMP JUMPDEST PUSH2 0x25DF DUP2 PUSH2 0x2060 JUMP JUMPDEST DUP2 EQ PUSH2 0x25EA JUMPI PUSH1 0x0 DUP1 REVERT JUMPDEST POP JUMP JUMPDEST PUSH2 0x25F6 DUP2 PUSH2 0x2072 JUMP JUMPDEST DUP2 EQ PUSH2 0x2601 JUMPI PUSH1 0x0 DUP1 REVERT JUMPDEST POP JUMP JUMPDEST PUSH2 0x260D DUP2 PUSH2 0x20CA JUMP JUMPDEST DUP2 EQ PUSH2 0x2618 JUMPI PUSH1 0x0 DUP1 REVERT JUMPDEST POP JUMP INVALID LOG2 PUSH5 0x6970667358 0x22 SLT KECCAK256 0xD 0xEA ADDMOD 0xCF 0x5D 0x29 LOG4 0xD9 0xF7 CALLDATACOPY JUMPDEST 0xCB SUB 0x2D KECCAK256 0x26 0xAF OR PUSH14 0xEF3AD84DB093BA8936BBA0223A64 PUSH20 0x6F6C634300080700330000000000000000000000 "
				},
				"gasEstimates": {
					"creation": {
						"codeDepositCost": "1961800",
						"executionCost": "infinite",
						"totalCost": "infinite"
					},
					"external": {
						"_paused()": "2494",
						"allowance(address,address)": "infinite",
						"amountRaised()": "2540",
						"amountUntilReachTarget()": "infinite",
						"approve(address,uint256)": "infinite",
						"balanceOf(address)": "2908",
						"coin()": "2712",
						"dataAccessThreshold()": "2475",
						"decimals()": "476",
						"decreaseAllowance(address,uint256)": "infinite",
						"increaseAllowance(address,uint256)": "infinite",
						"invest(uint256)": "infinite",
						"istargetRaised()": "2611",
						"name()": "infinite",
						"onERC721Received(address,address,uint256,bytes)": "infinite",
						"pause()": "26676",
						"projectMarketplace()": "infinite",
						"redeemNFT()": "infinite",
						"symbol()": "infinite",
						"targetAmount()": "2496",
						"totalSupply()": "2482",
						"transfer(address,uint256)": "infinite",
						"transferFrom(address,address,uint256)": "infinite",
						"unpause()": "26676",
						"withdrawInvestment(uint256)": "infinite"
					}
				},
				"methodIdentifiers": {
					"_paused()": "16c61ccc",
					"allowance(address,address)": "dd62ed3e",
					"amountRaised()": "7b3e5e7b",
					"amountUntilReachTarget()": "bdf89682",
					"approve(address,uint256)": "095ea7b3",
					"balanceOf(address)": "70a08231",
					"coin()": "11df9995",
					"dataAccessThreshold()": "06febe00",
					"decimals()": "313ce567",
					"decreaseAllowance(address,uint256)": "a457c2d7",
					"increaseAllowance(address,uint256)": "39509351",
					"invest(uint256)": "2afcf480",
					"istargetRaised()": "11db3c16",
					"name()": "06fdde03",
					"onERC721Received(address,address,uint256,bytes)": "150b7a02",
					"pause()": "8456cb59",
					"projectMarketplace()": "7e0d73d4",
					"redeemNFT()": "77262d38",
					"symbol()": "95d89b41",
					"targetAmount()": "953b8fb8",
					"totalSupply()": "18160ddd",
					"transfer(address,uint256)": "a9059cbb",
					"transferFrom(address,address,uint256)": "23b872dd",
					"unpause()": "3f4ba83a",
					"withdrawInvestment(uint256)": "2037fcbf"
				}
			},
			"storageLayout": {
				"storage": [
					{
						"astId": 275,
						"contract": "Fundraising_flat.sol:Fundraising",
						"label": "_balances",
						"offset": 0,
						"slot": "0",
						"type": "t_mapping(t_address,t_uint256)"
					},
					{
						"astId": 281,
						"contract": "Fundraising_flat.sol:Fundraising",
						"label": "_allowances",
						"offset": 0,
						"slot": "1",
						"type": "t_mapping(t_address,t_mapping(t_address,t_uint256))"
					},
					{
						"astId": 283,
						"contract": "Fundraising_flat.sol:Fundraising",
						"label": "_totalSupply",
						"offset": 0,
						"slot": "2",
						"type": "t_uint256"
					},
					{
						"astId": 285,
						"contract": "Fundraising_flat.sol:Fundraising",
						"label": "_name",
						"offset": 0,
						"slot": "3",
						"type": "t_string_storage"
					},
					{
						"astId": 287,
						"contract": "Fundraising_flat.sol:Fundraising",
						"label": "_symbol",
						"offset": 0,
						"slot": "4",
						"type": "t_string_storage"
					},
					{
						"astId": 851,
						"contract": "Fundraising_flat.sol:Fundraising",
						"label": "coin",
						"offset": 0,
						"slot": "5",
						"type": "t_contract(IERC20)240"
					},
					{
						"astId": 856,
						"contract": "Fundraising_flat.sol:Fundraising",
						"label": "targetAmount",
						"offset": 0,
						"slot": "6",
						"type": "t_uint256"
					},
					{
						"astId": 858,
						"contract": "Fundraising_flat.sol:Fundraising",
						"label": "amountRaised",
						"offset": 0,
						"slot": "7",
						"type": "t_uint256"
					},
					{
						"astId": 860,
						"contract": "Fundraising_flat.sol:Fundraising",
						"label": "dataAccessThreshold",
						"offset": 0,
						"slot": "8",
						"type": "t_uint256"
					},
					{
						"astId": 863,
						"contract": "Fundraising_flat.sol:Fundraising",
						"label": "_paused",
						"offset": 0,
						"slot": "9",
						"type": "t_bool"
					},
					{
						"astId": 866,
						"contract": "Fundraising_flat.sol:Fundraising",
						"label": "istargetRaised",
						"offset": 1,
						"slot": "9",
						"type": "t_bool"
					},
					{
						"astId": 868,
						"contract": "Fundraising_flat.sol:Fundraising",
						"label": "admin",
						"offset": 2,
						"slot": "9",
						"type": "t_address"
					}
				],
				"types": {
					"t_address": {
						"encoding": "inplace",
						"label": "address",
						"numberOfBytes": "20"
					},
					"t_bool": {
						"encoding": "inplace",
						"label": "bool",
						"numberOfBytes": "1"
					},
					"t_contract(IERC20)240": {
						"encoding": "inplace",
						"label": "contract IERC20",
						"numberOfBytes": "20"
					},
					"t_mapping(t_address,t_mapping(t_address,t_uint256))": {
						"encoding": "mapping",
						"key": "t_address",
						"label": "mapping(address => mapping(address => uint256))",
						"numberOfBytes": "32",
						"value": "t_mapping(t_address,t_uint256)"
					},
					"t_mapping(t_address,t_uint256)": {
						"encoding": "mapping",
						"key": "t_address",
						"label": "mapping(address => uint256)",
						"numberOfBytes": "32",
						"value": "t_uint256"
					},
					"t_string_storage": {
						"encoding": "bytes",
						"label": "string",
						"numberOfBytes": "32"
					},
					"t_uint256": {
						"encoding": "inplace",
						"label": "uint256",
						"numberOfBytes": "32"
					}
				}
			},
			"userdoc": {
				"kind": "user",
				"methods": {},
				"version": 1
			}
		}
	}
}