{
	"NFTFractionalization/contracts/src/OpenZeppelin/Tokens/ERC-721/ERC721.sol": {
		"ERC721": {
			"abi": [
				{
					"inputs": [
						{
							"internalType": "string",
							"name": "name_",
							"type": "string"
						},
						{
							"internalType": "string",
							"name": "symbol_",
							"type": "string"
						}
					],
					"stateMutability": "nonpayable",
					"type": "constructor"
				},
				{
					"anonymous": false,
					"inputs": [
						{
							"indexed": true,
							"internalType": "address",
							"name": "owner",
							"type": "address"
						},
						{
							"indexed": true,
							"internalType": "address",
							"name": "approved",
							"type": "address"
						},
						{
							"indexed": true,
							"internalType": "uint256",
							"name": "tokenId",
							"type": "uint256"
						}
					],
					"name": "Approval",
					"type": "event"
				},
				{
					"anonymous": false,
					"inputs": [
						{
							"indexed": true,
							"internalType": "address",
							"name": "owner",
							"type": "address"
						},
						{
							"indexed": true,
							"internalType": "address",
							"name": "operator",
							"type": "address"
						},
						{
							"indexed": false,
							"internalType": "bool",
							"name": "approved",
							"type": "bool"
						}
					],
					"name": "ApprovalForAll",
					"type": "event"
				},
				{
					"anonymous": false,
					"inputs": [
						{
							"indexed": true,
							"internalType": "address",
							"name": "from",
							"type": "address"
						},
						{
							"indexed": true,
							"internalType": "address",
							"name": "to",
							"type": "address"
						},
						{
							"indexed": true,
							"internalType": "uint256",
							"name": "tokenId",
							"type": "uint256"
						}
					],
					"name": "Transfer",
					"type": "event"
				},
				{
					"inputs": [
						{
							"internalType": "address",
							"name": "to",
							"type": "address"
						},
						{
							"internalType": "uint256",
							"name": "tokenId",
							"type": "uint256"
						}
					],
					"name": "approve",
					"outputs": [],
					"stateMutability": "nonpayable",
					"type": "function"
				},
				{
					"inputs": [
						{
							"internalType": "address",
							"name": "owner",
							"type": "address"
						}
					],
					"name": "balanceOf",
					"outputs": [
						{
							"internalType": "uint256",
							"name": "",
							"type": "uint256"
						}
					],
					"stateMutability": "view",
					"type": "function"
				},
				{
					"inputs": [],
					"name": "baseURI",
					"outputs": [
						{
							"internalType": "string",
							"name": "",
							"type": "string"
						}
					],
					"stateMutability": "view",
					"type": "function"
				},
				{
					"inputs": [
						{
							"internalType": "uint256",
							"name": "tokenId",
							"type": "uint256"
						}
					],
					"name": "getApproved",
					"outputs": [
						{
							"internalType": "address",
							"name": "",
							"type": "address"
						}
					],
					"stateMutability": "view",
					"type": "function"
				},
				{
					"inputs": [
						{
							"internalType": "address",
							"name": "owner",
							"type": "address"
						},
						{
							"internalType": "address",
							"name": "operator",
							"type": "address"
						}
					],
					"name": "isApprovedForAll",
					"outputs": [
						{
							"internalType": "bool",
							"name": "",
							"type": "bool"
						}
					],
					"stateMutability": "view",
					"type": "function"
				},
				{
					"inputs": [],
					"name": "name",
					"outputs": [
						{
							"internalType": "string",
							"name": "",
							"type": "string"
						}
					],
					"stateMutability": "view",
					"type": "function"
				},
				{
					"inputs": [
						{
							"internalType": "uint256",
							"name": "tokenId",
							"type": "uint256"
						}
					],
					"name": "ownerOf",
					"outputs": [
						{
							"internalType": "address",
							"name": "",
							"type": "address"
						}
					],
					"stateMutability": "view",
					"type": "function"
				},
				{
					"inputs": [
						{
							"internalType": "address",
							"name": "from",
							"type": "address"
						},
						{
							"internalType": "address",
							"name": "to",
							"type": "address"
						},
						{
							"internalType": "uint256",
							"name": "tokenId",
							"type": "uint256"
						}
					],
					"name": "safeTransferFrom",
					"outputs": [],
					"stateMutability": "nonpayable",
					"type": "function"
				},
				{
					"inputs": [
						{
							"internalType": "address",
							"name": "from",
							"type": "address"
						},
						{
							"internalType": "address",
							"name": "to",
							"type": "address"
						},
						{
							"internalType": "uint256",
							"name": "tokenId",
							"type": "uint256"
						},
						{
							"internalType": "bytes",
							"name": "_data",
							"type": "bytes"
						}
					],
					"name": "safeTransferFrom",
					"outputs": [],
					"stateMutability": "nonpayable",
					"type": "function"
				},
				{
					"inputs": [
						{
							"internalType": "address",
							"name": "operator",
							"type": "address"
						},
						{
							"internalType": "bool",
							"name": "approved",
							"type": "bool"
						}
					],
					"name": "setApprovalForAll",
					"outputs": [],
					"stateMutability": "nonpayable",
					"type": "function"
				},
				{
					"inputs": [
						{
							"internalType": "bytes4",
							"name": "interfaceId",
							"type": "bytes4"
						}
					],
					"name": "supportsInterface",
					"outputs": [
						{
							"internalType": "bool",
							"name": "",
							"type": "bool"
						}
					],
					"stateMutability": "view",
					"type": "function"
				},
				{
					"inputs": [],
					"name": "symbol",
					"outputs": [
						{
							"internalType": "string",
							"name": "",
							"type": "string"
						}
					],
					"stateMutability": "view",
					"type": "function"
				},
				{
					"inputs": [
						{
							"internalType": "uint256",
							"name": "tokenId",
							"type": "uint256"
						}
					],
					"name": "tokenURI",
					"outputs": [
						{
							"internalType": "string",
							"name": "",
							"type": "string"
						}
					],
					"stateMutability": "view",
					"type": "function"
				},
				{
					"inputs": [
						{
							"internalType": "address",
							"name": "from",
							"type": "address"
						},
						{
							"internalType": "address",
							"name": "to",
							"type": "address"
						},
						{
							"internalType": "uint256",
							"name": "tokenId",
							"type": "uint256"
						}
					],
					"name": "transferFrom",
					"outputs": [],
					"stateMutability": "nonpayable",
					"type": "function"
				}
			],
			"devdoc": {
				"details": "see https://eips.ethereum.org/EIPS/eip-721",
				"kind": "dev",
				"methods": {
					"approve(address,uint256)": {
						"details": "See {IERC721-approve}."
					},
					"balanceOf(address)": {
						"details": "See {IERC721-balanceOf}."
					},
					"baseURI()": {
						"details": "Returns the base URI set via {_setBaseURI}. This will be automatically added as a prefix in {tokenURI} to each token's URI, or to the token ID if no specific URI is set for that token ID."
					},
					"constructor": {
						"details": "Initializes the contract by setting a `name` and a `symbol` to the token collection."
					},
					"getApproved(uint256)": {
						"details": "See {IERC721-getApproved}."
					},
					"isApprovedForAll(address,address)": {
						"details": "See {IERC721-isApprovedForAll}."
					},
					"name()": {
						"details": "See {IERC721Metadata-name}."
					},
					"ownerOf(uint256)": {
						"details": "See {IERC721-ownerOf}."
					},
					"safeTransferFrom(address,address,uint256)": {
						"details": "See {IERC721-safeTransferFrom}."
					},
					"safeTransferFrom(address,address,uint256,bytes)": {
						"details": "See {IERC721-safeTransferFrom}."
					},
					"setApprovalForAll(address,bool)": {
						"details": "See {IERC721-setApprovalForAll}."
					},
					"supportsInterface(bytes4)": {
						"details": "See {IERC165-supportsInterface}. Time complexity O(1), guaranteed to always use less than 30 000 gas."
					},
					"symbol()": {
						"details": "See {IERC721Metadata-symbol}."
					},
					"tokenURI(uint256)": {
						"details": "See {IERC721Metadata-tokenURI}."
					},
					"transferFrom(address,address,uint256)": {
						"details": "See {IERC721-transferFrom}."
					}
				},
				"title": "ERC721 Non-Fungible Token Standard basic implementation",
				"version": 1
			},
			"evm": {
				"assembly": "    /* \"NFTFractionalization/contracts/src/OpenZeppelin/Tokens/ERC-721/ERC721.sol\":855:15811  contract ERC721 is Context, ERC165, IERC721, IERC721Metadata {... */\n  mstore(0x40, 0x80)\n    /* \"NFTFractionalization/contracts/src/OpenZeppelin/Tokens/ERC-721/ERC721.sol\":1994:2372  constructor (string memory name_, string memory symbol_) {... */\n  callvalue\n  dup1\n  iszero\n  tag_1\n  jumpi\n  0x00\n  dup1\n  revert\ntag_1:\n  pop\n  mload(0x40)\n  sub(codesize, bytecodeSize)\n  dup1\n  bytecodeSize\n  dup4\n  codecopy\n  dup2\n  dup2\n  add\n  0x40\n  mstore\n  dup2\n  add\n  swap1\n  tag_2\n  swap2\n  swap1\n  tag_3\n  jump\t// in\ntag_2:\n    /* \"NFTFractionalization/contracts/src/OpenZeppelin/introspection/ERC165.sol\":843:888  _registerInterface(type(IERC165).interfaceId) */\n  tag_7\n    /* \"NFTFractionalization/contracts/src/OpenZeppelin/introspection/ERC165.sol\":862:887  type(IERC165).interfaceId */\n  0x01ffc9a700000000000000000000000000000000000000000000000000000000\n    /* \"NFTFractionalization/contracts/src/OpenZeppelin/introspection/ERC165.sol\":843:861  _registerInterface */\n  shl(0x20, tag_8)\n    /* \"NFTFractionalization/contracts/src/OpenZeppelin/introspection/ERC165.sol\":843:888  _registerInterface(type(IERC165).interfaceId) */\n  0x20\n  shr\n  jump\t// in\ntag_7:\n    /* \"NFTFractionalization/contracts/src/OpenZeppelin/Tokens/ERC-721/ERC721.sol\":2069:2074  name_ */\n  dup2\n    /* \"NFTFractionalization/contracts/src/OpenZeppelin/Tokens/ERC-721/ERC721.sol\":2061:2066  _name */\n  0x06\n    /* \"NFTFractionalization/contracts/src/OpenZeppelin/Tokens/ERC-721/ERC721.sol\":2061:2074  _name = name_ */\n  swap1\n  dup1\n  mload\n  swap1\n  0x20\n  add\n  swap1\n  tag_10\n  swap3\n  swap2\n  swap1\n  tag_11\n  jump\t// in\ntag_10:\n  pop\n    /* \"NFTFractionalization/contracts/src/OpenZeppelin/Tokens/ERC-721/ERC721.sol\":2094:2101  symbol_ */\n  dup1\n    /* \"NFTFractionalization/contracts/src/OpenZeppelin/Tokens/ERC-721/ERC721.sol\":2084:2091  _symbol */\n  0x07\n    /* \"NFTFractionalization/contracts/src/OpenZeppelin/Tokens/ERC-721/ERC721.sol\":2084:2101  _symbol = symbol_ */\n  swap1\n  dup1\n  mload\n  swap1\n  0x20\n  add\n  swap1\n  tag_12\n  swap3\n  swap2\n  swap1\n  tag_11\n  jump\t// in\ntag_12:\n  pop\n    /* \"NFTFractionalization/contracts/src/OpenZeppelin/Tokens/ERC-721/ERC721.sol\":2189:2234  _registerInterface(type(IERC721).interfaceId) */\n  tag_13\n    /* \"NFTFractionalization/contracts/src/OpenZeppelin/Tokens/ERC-721/ERC721.sol\":2208:2233  type(IERC721).interfaceId */\n  0x80ac58cd00000000000000000000000000000000000000000000000000000000\n    /* \"NFTFractionalization/contracts/src/OpenZeppelin/Tokens/ERC-721/ERC721.sol\":2189:2207  _registerInterface */\n  shl(0x20, tag_8)\n    /* \"NFTFractionalization/contracts/src/OpenZeppelin/Tokens/ERC-721/ERC721.sol\":2189:2234  _registerInterface(type(IERC721).interfaceId) */\n  0x20\n  shr\n  jump\t// in\ntag_13:\n    /* \"NFTFractionalization/contracts/src/OpenZeppelin/Tokens/ERC-721/ERC721.sol\":2244:2297  _registerInterface(type(IERC721Metadata).interfaceId) */\n  tag_14\n    /* \"NFTFractionalization/contracts/src/OpenZeppelin/Tokens/ERC-721/ERC721.sol\":2263:2296  type(IERC721Metadata).interfaceId */\n  0x5b5e139f00000000000000000000000000000000000000000000000000000000\n    /* \"NFTFractionalization/contracts/src/OpenZeppelin/Tokens/ERC-721/ERC721.sol\":2244:2262  _registerInterface */\n  shl(0x20, tag_8)\n    /* \"NFTFractionalization/contracts/src/OpenZeppelin/Tokens/ERC-721/ERC721.sol\":2244:2297  _registerInterface(type(IERC721Metadata).interfaceId) */\n  0x20\n  shr\n  jump\t// in\ntag_14:\n    /* \"NFTFractionalization/contracts/src/OpenZeppelin/Tokens/ERC-721/ERC721.sol\":1994:2372  constructor (string memory name_, string memory symbol_) {... */\n  pop\n  pop\n    /* \"NFTFractionalization/contracts/src/OpenZeppelin/Tokens/ERC-721/ERC721.sol\":855:15811  contract ERC721 is Context, ERC165, IERC721, IERC721Metadata {... */\n  jump(tag_15)\n    /* \"NFTFractionalization/contracts/src/OpenZeppelin/introspection/ERC165.sol\":1587:1785  function _registerInterface(bytes4 interfaceId) internal virtual {... */\ntag_8:\n    /* \"NFTFractionalization/contracts/src/OpenZeppelin/introspection/ERC165.sol\":1685:1695  0xffffffff */\n  0xffffffff\n    /* \"NFTFractionalization/contracts/src/OpenZeppelin/introspection/ERC165.sol\":1670:1695  interfaceId != 0xffffffff */\n  0xe0\n  shl\n    /* \"NFTFractionalization/contracts/src/OpenZeppelin/introspection/ERC165.sol\":1670:1681  interfaceId */\n  dup2\n    /* \"NFTFractionalization/contracts/src/OpenZeppelin/introspection/ERC165.sol\":1670:1695  interfaceId != 0xffffffff */\n  not(0xffffffffffffffffffffffffffffffffffffffffffffffffffffffff)\n  and\n  eq\n  iszero\n    /* \"NFTFractionalization/contracts/src/OpenZeppelin/introspection/ERC165.sol\":1662:1728  require(interfaceId != 0xffffffff, \"ERC165: invalid interface id\") */\n  tag_17\n  jumpi\n  mload(0x40)\n  0x08c379a000000000000000000000000000000000000000000000000000000000\n  dup2\n  mstore\n  0x04\n  add\n  tag_18\n  swap1\n  tag_19\n  jump\t// in\ntag_18:\n  mload(0x40)\n  dup1\n  swap2\n  sub\n  swap1\n  revert\ntag_17:\n    /* \"NFTFractionalization/contracts/src/OpenZeppelin/introspection/ERC165.sol\":1774:1778  true */\n  0x01\n    /* \"NFTFractionalization/contracts/src/OpenZeppelin/introspection/ERC165.sol\":1738:1758  _supportedInterfaces */\n  0x00\n    /* \"NFTFractionalization/contracts/src/OpenZeppelin/introspection/ERC165.sol\":1738:1771  _supportedInterfaces[interfaceId] */\n  dup1\n    /* \"NFTFractionalization/contracts/src/OpenZeppelin/introspection/ERC165.sol\":1759:1770  interfaceId */\n  dup4\n    /* \"NFTFractionalization/contracts/src/OpenZeppelin/introspection/ERC165.sol\":1738:1771  _supportedInterfaces[interfaceId] */\n  not(0xffffffffffffffffffffffffffffffffffffffffffffffffffffffff)\n  and\n  not(0xffffffffffffffffffffffffffffffffffffffffffffffffffffffff)\n  and\n  dup2\n  mstore\n  0x20\n  add\n  swap1\n  dup2\n  mstore\n  0x20\n  add\n  0x00\n  keccak256\n  0x00\n    /* \"NFTFractionalization/contracts/src/OpenZeppelin/introspection/ERC165.sol\":1738:1778  _supportedInterfaces[interfaceId] = true */\n  0x0100\n  exp\n  dup2\n  sload\n  dup2\n  0xff\n  mul\n  not\n  and\n  swap1\n  dup4\n  iszero\n  iszero\n  mul\n  or\n  swap1\n  sstore\n  pop\n    /* \"NFTFractionalization/contracts/src/OpenZeppelin/introspection/ERC165.sol\":1587:1785  function _registerInterface(bytes4 interfaceId) internal virtual {... */\n  pop\n  jump\t// out\n    /* \"NFTFractionalization/contracts/src/OpenZeppelin/Tokens/ERC-721/ERC721.sol\":855:15811  contract ERC721 is Context, ERC165, IERC721, IERC721Metadata {... */\ntag_11:\n  dup3\n  dup1\n  sload\n  tag_20\n  swap1\n  tag_21\n  jump\t// in\ntag_20:\n  swap1\n  0x00\n  mstore\n  keccak256(0x00, 0x20)\n  swap1\n  0x1f\n  add\n  0x20\n  swap1\n  div\n  dup2\n  add\n  swap3\n  dup3\n  tag_23\n  jumpi\n  0x00\n  dup6\n  sstore\n  jump(tag_22)\ntag_23:\n  dup3\n  0x1f\n  lt\n  tag_24\n  jumpi\n  dup1\n  mload\n  not(0xff)\n  and\n  dup4\n  dup1\n  add\n  or\n  dup6\n  sstore\n  jump(tag_22)\ntag_24:\n  dup3\n  dup1\n  add\n  0x01\n  add\n  dup6\n  sstore\n  dup3\n  iszero\n  tag_22\n  jumpi\n  swap2\n  dup3\n  add\ntag_25:\n  dup3\n  dup2\n  gt\n  iszero\n  tag_26\n  jumpi\n  dup3\n  mload\n  dup3\n  sstore\n  swap2\n  0x20\n  add\n  swap2\n  swap1\n  0x01\n  add\n  swap1\n  jump(tag_25)\ntag_26:\ntag_22:\n  pop\n  swap1\n  pop\n  tag_27\n  swap2\n  swap1\n  tag_28\n  jump\t// in\ntag_27:\n  pop\n  swap1\n  jump\t// out\ntag_28:\ntag_29:\n  dup1\n  dup3\n  gt\n  iszero\n  tag_30\n  jumpi\n  0x00\n  dup2\n  0x00\n  swap1\n  sstore\n  pop\n  0x01\n  add\n  jump(tag_29)\ntag_30:\n  pop\n  swap1\n  jump\t// out\n    /* \"#utility.yul\":7:428   */\ntag_32:\n    /* \"#utility.yul\":96:101   */\n  0x00\n    /* \"#utility.yul\":121:187   */\n  tag_34\n    /* \"#utility.yul\":137:186   */\n  tag_35\n    /* \"#utility.yul\":179:185   */\n  dup5\n    /* \"#utility.yul\":137:186   */\n  tag_36\n  jump\t// in\ntag_35:\n    /* \"#utility.yul\":121:187   */\n  tag_37\n  jump\t// in\ntag_34:\n    /* \"#utility.yul\":112:187   */\n  swap1\n  pop\n    /* \"#utility.yul\":210:216   */\n  dup3\n    /* \"#utility.yul\":203:208   */\n  dup2\n    /* \"#utility.yul\":196:217   */\n  mstore\n    /* \"#utility.yul\":248:252   */\n  0x20\n    /* \"#utility.yul\":241:246   */\n  dup2\n    /* \"#utility.yul\":237:253   */\n  add\n    /* \"#utility.yul\":286:289   */\n  dup5\n    /* \"#utility.yul\":277:283   */\n  dup5\n    /* \"#utility.yul\":272:275   */\n  dup5\n    /* \"#utility.yul\":268:284   */\n  add\n    /* \"#utility.yul\":265:290   */\n  gt\n    /* \"#utility.yul\":262:374   */\n  iszero\n  tag_38\n  jumpi\n    /* \"#utility.yul\":293:372   */\n  tag_39\n  tag_40\n  jump\t// in\ntag_39:\n    /* \"#utility.yul\":262:374   */\ntag_38:\n    /* \"#utility.yul\":383:422   */\n  tag_41\n    /* \"#utility.yul\":415:421   */\n  dup5\n    /* \"#utility.yul\":410:413   */\n  dup3\n    /* \"#utility.yul\":405:408   */\n  dup6\n    /* \"#utility.yul\":383:422   */\n  tag_42\n  jump\t// in\ntag_41:\n    /* \"#utility.yul\":102:428   */\n  pop\n    /* \"#utility.yul\":7:428   */\n  swap4\n  swap3\n  pop\n  pop\n  pop\n  jump\t// out\n    /* \"#utility.yul\":448:803   */\ntag_43:\n    /* \"#utility.yul\":515:520   */\n  0x00\n    /* \"#utility.yul\":564:567   */\n  dup3\n    /* \"#utility.yul\":557:561   */\n  0x1f\n    /* \"#utility.yul\":549:555   */\n  dup4\n    /* \"#utility.yul\":545:562   */\n  add\n    /* \"#utility.yul\":541:568   */\n  slt\n    /* \"#utility.yul\":531:653   */\n  tag_45\n  jumpi\n    /* \"#utility.yul\":572:651   */\n  tag_46\n  tag_47\n  jump\t// in\ntag_46:\n    /* \"#utility.yul\":531:653   */\ntag_45:\n    /* \"#utility.yul\":682:688   */\n  dup2\n    /* \"#utility.yul\":676:689   */\n  mload\n    /* \"#utility.yul\":707:797   */\n  tag_48\n    /* \"#utility.yul\":793:796   */\n  dup5\n    /* \"#utility.yul\":785:791   */\n  dup3\n    /* \"#utility.yul\":778:782   */\n  0x20\n    /* \"#utility.yul\":770:776   */\n  dup7\n    /* \"#utility.yul\":766:783   */\n  add\n    /* \"#utility.yul\":707:797   */\n  tag_32\n  jump\t// in\ntag_48:\n    /* \"#utility.yul\":698:797   */\n  swap2\n  pop\n    /* \"#utility.yul\":521:803   */\n  pop\n    /* \"#utility.yul\":448:803   */\n  swap3\n  swap2\n  pop\n  pop\n  jump\t// out\n    /* \"#utility.yul\":809:1662   */\ntag_3:\n    /* \"#utility.yul\":908:914   */\n  0x00\n    /* \"#utility.yul\":916:922   */\n  dup1\n    /* \"#utility.yul\":965:967   */\n  0x40\n    /* \"#utility.yul\":953:962   */\n  dup4\n    /* \"#utility.yul\":944:951   */\n  dup6\n    /* \"#utility.yul\":940:963   */\n  sub\n    /* \"#utility.yul\":936:968   */\n  slt\n    /* \"#utility.yul\":933:1052   */\n  iszero\n  tag_50\n  jumpi\n    /* \"#utility.yul\":971:1050   */\n  tag_51\n  tag_52\n  jump\t// in\ntag_51:\n    /* \"#utility.yul\":933:1052   */\ntag_50:\n    /* \"#utility.yul\":1112:1113   */\n  0x00\n    /* \"#utility.yul\":1101:1110   */\n  dup4\n    /* \"#utility.yul\":1097:1114   */\n  add\n    /* \"#utility.yul\":1091:1115   */\n  mload\n    /* \"#utility.yul\":1142:1160   */\n  0xffffffffffffffff\n    /* \"#utility.yul\":1134:1140   */\n  dup2\n    /* \"#utility.yul\":1131:1161   */\n  gt\n    /* \"#utility.yul\":1128:1245   */\n  iszero\n  tag_53\n  jumpi\n    /* \"#utility.yul\":1164:1243   */\n  tag_54\n  tag_55\n  jump\t// in\ntag_54:\n    /* \"#utility.yul\":1128:1245   */\ntag_53:\n    /* \"#utility.yul\":1269:1343   */\n  tag_56\n    /* \"#utility.yul\":1335:1342   */\n  dup6\n    /* \"#utility.yul\":1326:1332   */\n  dup3\n    /* \"#utility.yul\":1315:1324   */\n  dup7\n    /* \"#utility.yul\":1311:1333   */\n  add\n    /* \"#utility.yul\":1269:1343   */\n  tag_43\n  jump\t// in\ntag_56:\n    /* \"#utility.yul\":1259:1343   */\n  swap3\n  pop\n    /* \"#utility.yul\":1062:1353   */\n  pop\n    /* \"#utility.yul\":1413:1415   */\n  0x20\n    /* \"#utility.yul\":1402:1411   */\n  dup4\n    /* \"#utility.yul\":1398:1416   */\n  add\n    /* \"#utility.yul\":1392:1417   */\n  mload\n    /* \"#utility.yul\":1444:1462   */\n  0xffffffffffffffff\n    /* \"#utility.yul\":1436:1442   */\n  dup2\n    /* \"#utility.yul\":1433:1463   */\n  gt\n    /* \"#utility.yul\":1430:1547   */\n  iszero\n  tag_57\n  jumpi\n    /* \"#utility.yul\":1466:1545   */\n  tag_58\n  tag_55\n  jump\t// in\ntag_58:\n    /* \"#utility.yul\":1430:1547   */\ntag_57:\n    /* \"#utility.yul\":1571:1645   */\n  tag_59\n    /* \"#utility.yul\":1637:1644   */\n  dup6\n    /* \"#utility.yul\":1628:1634   */\n  dup3\n    /* \"#utility.yul\":1617:1626   */\n  dup7\n    /* \"#utility.yul\":1613:1635   */\n  add\n    /* \"#utility.yul\":1571:1645   */\n  tag_43\n  jump\t// in\ntag_59:\n    /* \"#utility.yul\":1561:1645   */\n  swap2\n  pop\n    /* \"#utility.yul\":1363:1655   */\n  pop\n    /* \"#utility.yul\":809:1662   */\n  swap3\n  pop\n  swap3\n  swap1\n  pop\n  jump\t// out\n    /* \"#utility.yul\":1668:2034   */\ntag_60:\n    /* \"#utility.yul\":1810:1813   */\n  0x00\n    /* \"#utility.yul\":1831:1898   */\n  tag_62\n    /* \"#utility.yul\":1895:1897   */\n  0x1c\n    /* \"#utility.yul\":1890:1893   */\n  dup4\n    /* \"#utility.yul\":1831:1898   */\n  tag_63\n  jump\t// in\ntag_62:\n    /* \"#utility.yul\":1824:1898   */\n  swap2\n  pop\n    /* \"#utility.yul\":1907:2000   */\n  tag_64\n    /* \"#utility.yul\":1996:1999   */\n  dup3\n    /* \"#utility.yul\":1907:2000   */\n  tag_65\n  jump\t// in\ntag_64:\n    /* \"#utility.yul\":2025:2027   */\n  0x20\n    /* \"#utility.yul\":2020:2023   */\n  dup3\n    /* \"#utility.yul\":2016:2028   */\n  add\n    /* \"#utility.yul\":2009:2028   */\n  swap1\n  pop\n    /* \"#utility.yul\":1668:2034   */\n  swap2\n  swap1\n  pop\n  jump\t// out\n    /* \"#utility.yul\":2040:2459   */\ntag_19:\n    /* \"#utility.yul\":2206:2210   */\n  0x00\n    /* \"#utility.yul\":2244:2246   */\n  0x20\n    /* \"#utility.yul\":2233:2242   */\n  dup3\n    /* \"#utility.yul\":2229:2247   */\n  add\n    /* \"#utility.yul\":2221:2247   */\n  swap1\n  pop\n    /* \"#utility.yul\":2293:2302   */\n  dup2\n    /* \"#utility.yul\":2287:2291   */\n  dup2\n    /* \"#utility.yul\":2283:2303   */\n  sub\n    /* \"#utility.yul\":2279:2280   */\n  0x00\n    /* \"#utility.yul\":2268:2277   */\n  dup4\n    /* \"#utility.yul\":2264:2281   */\n  add\n    /* \"#utility.yul\":2257:2304   */\n  mstore\n    /* \"#utility.yul\":2321:2452   */\n  tag_67\n    /* \"#utility.yul\":2447:2451   */\n  dup2\n    /* \"#utility.yul\":2321:2452   */\n  tag_60\n  jump\t// in\ntag_67:\n    /* \"#utility.yul\":2313:2452   */\n  swap1\n  pop\n    /* \"#utility.yul\":2040:2459   */\n  swap2\n  swap1\n  pop\n  jump\t// out\n    /* \"#utility.yul\":2465:2594   */\ntag_37:\n    /* \"#utility.yul\":2499:2505   */\n  0x00\n    /* \"#utility.yul\":2526:2546   */\n  tag_69\n  tag_70\n  jump\t// in\ntag_69:\n    /* \"#utility.yul\":2516:2546   */\n  swap1\n  pop\n    /* \"#utility.yul\":2555:2588   */\n  tag_71\n    /* \"#utility.yul\":2583:2587   */\n  dup3\n    /* \"#utility.yul\":2575:2581   */\n  dup3\n    /* \"#utility.yul\":2555:2588   */\n  tag_72\n  jump\t// in\ntag_71:\n    /* \"#utility.yul\":2465:2594   */\n  swap2\n  swap1\n  pop\n  jump\t// out\n    /* \"#utility.yul\":2600:2675   */\ntag_70:\n    /* \"#utility.yul\":2633:2639   */\n  0x00\n    /* \"#utility.yul\":2666:2668   */\n  0x40\n    /* \"#utility.yul\":2660:2669   */\n  mload\n    /* \"#utility.yul\":2650:2669   */\n  swap1\n  pop\n    /* \"#utility.yul\":2600:2675   */\n  swap1\n  jump\t// out\n    /* \"#utility.yul\":2681:2989   */\ntag_36:\n    /* \"#utility.yul\":2743:2747   */\n  0x00\n    /* \"#utility.yul\":2833:2851   */\n  0xffffffffffffffff\n    /* \"#utility.yul\":2825:2831   */\n  dup3\n    /* \"#utility.yul\":2822:2852   */\n  gt\n    /* \"#utility.yul\":2819:2875   */\n  iszero\n  tag_75\n  jumpi\n    /* \"#utility.yul\":2855:2873   */\n  tag_76\n  tag_77\n  jump\t// in\ntag_76:\n    /* \"#utility.yul\":2819:2875   */\ntag_75:\n    /* \"#utility.yul\":2893:2922   */\n  tag_78\n    /* \"#utility.yul\":2915:2921   */\n  dup3\n    /* \"#utility.yul\":2893:2922   */\n  tag_79\n  jump\t// in\ntag_78:\n    /* \"#utility.yul\":2885:2922   */\n  swap1\n  pop\n    /* \"#utility.yul\":2977:2981   */\n  0x20\n    /* \"#utility.yul\":2971:2975   */\n  dup2\n    /* \"#utility.yul\":2967:2982   */\n  add\n    /* \"#utility.yul\":2959:2982   */\n  swap1\n  pop\n    /* \"#utility.yul\":2681:2989   */\n  swap2\n  swap1\n  pop\n  jump\t// out\n    /* \"#utility.yul\":2995:3164   */\ntag_63:\n    /* \"#utility.yul\":3079:3090   */\n  0x00\n    /* \"#utility.yul\":3113:3119   */\n  dup3\n    /* \"#utility.yul\":3108:3111   */\n  dup3\n    /* \"#utility.yul\":3101:3120   */\n  mstore\n    /* \"#utility.yul\":3153:3157   */\n  0x20\n    /* \"#utility.yul\":3148:3151   */\n  dup3\n    /* \"#utility.yul\":3144:3158   */\n  add\n    /* \"#utility.yul\":3129:3158   */\n  swap1\n  pop\n    /* \"#utility.yul\":2995:3164   */\n  swap3\n  swap2\n  pop\n  pop\n  jump\t// out\n    /* \"#utility.yul\":3170:3477   */\ntag_42:\n    /* \"#utility.yul\":3238:3239   */\n  0x00\n    /* \"#utility.yul\":3248:3361   */\ntag_82:\n    /* \"#utility.yul\":3262:3268   */\n  dup4\n    /* \"#utility.yul\":3259:3260   */\n  dup2\n    /* \"#utility.yul\":3256:3269   */\n  lt\n    /* \"#utility.yul\":3248:3361   */\n  iszero\n  tag_84\n  jumpi\n    /* \"#utility.yul\":3347:3348   */\n  dup1\n    /* \"#utility.yul\":3342:3345   */\n  dup3\n    /* \"#utility.yul\":3338:3349   */\n  add\n    /* \"#utility.yul\":3332:3350   */\n  mload\n    /* \"#utility.yul\":3328:3329   */\n  dup2\n    /* \"#utility.yul\":3323:3326   */\n  dup5\n    /* \"#utility.yul\":3319:3330   */\n  add\n    /* \"#utility.yul\":3312:3351   */\n  mstore\n    /* \"#utility.yul\":3284:3286   */\n  0x20\n    /* \"#utility.yul\":3281:3282   */\n  dup2\n    /* \"#utility.yul\":3277:3287   */\n  add\n    /* \"#utility.yul\":3272:3287   */\n  swap1\n  pop\n    /* \"#utility.yul\":3248:3361   */\n  jump(tag_82)\ntag_84:\n    /* \"#utility.yul\":3379:3385   */\n  dup4\n    /* \"#utility.yul\":3376:3377   */\n  dup2\n    /* \"#utility.yul\":3373:3386   */\n  gt\n    /* \"#utility.yul\":3370:3471   */\n  iszero\n  tag_85\n  jumpi\n    /* \"#utility.yul\":3459:3460   */\n  0x00\n    /* \"#utility.yul\":3450:3456   */\n  dup5\n    /* \"#utility.yul\":3445:3448   */\n  dup5\n    /* \"#utility.yul\":3441:3457   */\n  add\n    /* \"#utility.yul\":3434:3461   */\n  mstore\n    /* \"#utility.yul\":3370:3471   */\ntag_85:\n    /* \"#utility.yul\":3219:3477   */\n  pop\n    /* \"#utility.yul\":3170:3477   */\n  pop\n  pop\n  pop\n  jump\t// out\n    /* \"#utility.yul\":3483:3803   */\ntag_21:\n    /* \"#utility.yul\":3527:3533   */\n  0x00\n    /* \"#utility.yul\":3564:3565   */\n  0x02\n    /* \"#utility.yul\":3558:3562   */\n  dup3\n    /* \"#utility.yul\":3554:3566   */\n  div\n    /* \"#utility.yul\":3544:3566   */\n  swap1\n  pop\n    /* \"#utility.yul\":3611:3612   */\n  0x01\n    /* \"#utility.yul\":3605:3609   */\n  dup3\n    /* \"#utility.yul\":3601:3613   */\n  and\n    /* \"#utility.yul\":3632:3650   */\n  dup1\n    /* \"#utility.yul\":3622:3703   */\n  tag_87\n  jumpi\n    /* \"#utility.yul\":3688:3692   */\n  0x7f\n    /* \"#utility.yul\":3680:3686   */\n  dup3\n    /* \"#utility.yul\":3676:3693   */\n  and\n    /* \"#utility.yul\":3666:3693   */\n  swap2\n  pop\n    /* \"#utility.yul\":3622:3703   */\ntag_87:\n    /* \"#utility.yul\":3750:3752   */\n  0x20\n    /* \"#utility.yul\":3742:3748   */\n  dup3\n    /* \"#utility.yul\":3739:3753   */\n  lt\n    /* \"#utility.yul\":3719:3737   */\n  dup2\n    /* \"#utility.yul\":3716:3754   */\n  eq\n    /* \"#utility.yul\":3713:3797   */\n  iszero\n  tag_88\n  jumpi\n    /* \"#utility.yul\":3769:3787   */\n  tag_89\n  tag_90\n  jump\t// in\ntag_89:\n    /* \"#utility.yul\":3713:3797   */\ntag_88:\n    /* \"#utility.yul\":3534:3803   */\n  pop\n    /* \"#utility.yul\":3483:3803   */\n  swap2\n  swap1\n  pop\n  jump\t// out\n    /* \"#utility.yul\":3809:4090   */\ntag_72:\n    /* \"#utility.yul\":3892:3919   */\n  tag_92\n    /* \"#utility.yul\":3914:3918   */\n  dup3\n    /* \"#utility.yul\":3892:3919   */\n  tag_79\n  jump\t// in\ntag_92:\n    /* \"#utility.yul\":3884:3890   */\n  dup2\n    /* \"#utility.yul\":3880:3920   */\n  add\n    /* \"#utility.yul\":4022:4028   */\n  dup2\n    /* \"#utility.yul\":4010:4020   */\n  dup2\n    /* \"#utility.yul\":4007:4029   */\n  lt\n    /* \"#utility.yul\":3986:4004   */\n  0xffffffffffffffff\n    /* \"#utility.yul\":3974:3984   */\n  dup3\n    /* \"#utility.yul\":3971:4005   */\n  gt\n    /* \"#utility.yul\":3968:4030   */\n  or\n    /* \"#utility.yul\":3965:4053   */\n  iszero\n  tag_93\n  jumpi\n    /* \"#utility.yul\":4033:4051   */\n  tag_94\n  tag_77\n  jump\t// in\ntag_94:\n    /* \"#utility.yul\":3965:4053   */\ntag_93:\n    /* \"#utility.yul\":4073:4083   */\n  dup1\n    /* \"#utility.yul\":4069:4071   */\n  0x40\n    /* \"#utility.yul\":4062:4084   */\n  mstore\n    /* \"#utility.yul\":3852:4090   */\n  pop\n    /* \"#utility.yul\":3809:4090   */\n  pop\n  pop\n  jump\t// out\n    /* \"#utility.yul\":4096:4276   */\ntag_90:\n    /* \"#utility.yul\":4144:4221   */\n  0x4e487b7100000000000000000000000000000000000000000000000000000000\n    /* \"#utility.yul\":4141:4142   */\n  0x00\n    /* \"#utility.yul\":4134:4222   */\n  mstore\n    /* \"#utility.yul\":4241:4245   */\n  0x22\n    /* \"#utility.yul\":4238:4239   */\n  0x04\n    /* \"#utility.yul\":4231:4246   */\n  mstore\n    /* \"#utility.yul\":4265:4269   */\n  0x24\n    /* \"#utility.yul\":4262:4263   */\n  0x00\n    /* \"#utility.yul\":4255:4270   */\n  revert\n    /* \"#utility.yul\":4282:4462   */\ntag_77:\n    /* \"#utility.yul\":4330:4407   */\n  0x4e487b7100000000000000000000000000000000000000000000000000000000\n    /* \"#utility.yul\":4327:4328   */\n  0x00\n    /* \"#utility.yul\":4320:4408   */\n  mstore\n    /* \"#utility.yul\":4427:4431   */\n  0x41\n    /* \"#utility.yul\":4424:4425   */\n  0x04\n    /* \"#utility.yul\":4417:4432   */\n  mstore\n    /* \"#utility.yul\":4451:4455   */\n  0x24\n    /* \"#utility.yul\":4448:4449   */\n  0x00\n    /* \"#utility.yul\":4441:4456   */\n  revert\n    /* \"#utility.yul\":4468:4585   */\ntag_47:\n    /* \"#utility.yul\":4577:4578   */\n  0x00\n    /* \"#utility.yul\":4574:4575   */\n  dup1\n    /* \"#utility.yul\":4567:4579   */\n  revert\n    /* \"#utility.yul\":4591:4708   */\ntag_40:\n    /* \"#utility.yul\":4700:4701   */\n  0x00\n    /* \"#utility.yul\":4697:4698   */\n  dup1\n    /* \"#utility.yul\":4690:4702   */\n  revert\n    /* \"#utility.yul\":4714:4831   */\ntag_55:\n    /* \"#utility.yul\":4823:4824   */\n  0x00\n    /* \"#utility.yul\":4820:4821   */\n  dup1\n    /* \"#utility.yul\":4813:4825   */\n  revert\n    /* \"#utility.yul\":4837:4954   */\ntag_52:\n    /* \"#utility.yul\":4946:4947   */\n  0x00\n    /* \"#utility.yul\":4943:4944   */\n  dup1\n    /* \"#utility.yul\":4936:4948   */\n  revert\n    /* \"#utility.yul\":4960:5062   */\ntag_79:\n    /* \"#utility.yul\":5001:5007   */\n  0x00\n    /* \"#utility.yul\":5052:5054   */\n  0x1f\n    /* \"#utility.yul\":5048:5055   */\n  not\n    /* \"#utility.yul\":5043:5045   */\n  0x1f\n    /* \"#utility.yul\":5036:5041   */\n  dup4\n    /* \"#utility.yul\":5032:5046   */\n  add\n    /* \"#utility.yul\":5028:5056   */\n  and\n    /* \"#utility.yul\":5018:5056   */\n  swap1\n  pop\n    /* \"#utility.yul\":4960:5062   */\n  swap2\n  swap1\n  pop\n  jump\t// out\n    /* \"#utility.yul\":5068:5246   */\ntag_65:\n    /* \"#utility.yul\":5208:5238   */\n  0x4552433136353a20696e76616c696420696e7465726661636520696400000000\n    /* \"#utility.yul\":5204:5205   */\n  0x00\n    /* \"#utility.yul\":5196:5202   */\n  dup3\n    /* \"#utility.yul\":5192:5206   */\n  add\n    /* \"#utility.yul\":5185:5239   */\n  mstore\n    /* \"#utility.yul\":5068:5246   */\n  pop\n  jump\t// out\n    /* \"NFTFractionalization/contracts/src/OpenZeppelin/Tokens/ERC-721/ERC721.sol\":855:15811  contract ERC721 is Context, ERC165, IERC721, IERC721Metadata {... */\ntag_15:\n  dataSize(sub_0)\n  dup1\n  dataOffset(sub_0)\n  0x00\n  codecopy\n  0x00\n  return\nstop\n\nsub_0: assembly {\n        /* \"NFTFractionalization/contracts/src/OpenZeppelin/Tokens/ERC-721/ERC721.sol\":855:15811  contract ERC721 is Context, ERC165, IERC721, IERC721Metadata {... */\n      mstore(0x40, 0x80)\n      callvalue\n      dup1\n      iszero\n      tag_1\n      jumpi\n      0x00\n      dup1\n      revert\n    tag_1:\n      pop\n      jumpi(tag_2, lt(calldatasize, 0x04))\n      shr(0xe0, calldataload(0x00))\n      dup1\n      0x6c0360eb\n      gt\n      tag_17\n      jumpi\n      dup1\n      0xa22cb465\n      gt\n      tag_18\n      jumpi\n      dup1\n      0xa22cb465\n      eq\n      tag_13\n      jumpi\n      dup1\n      0xb88d4fde\n      eq\n      tag_14\n      jumpi\n      dup1\n      0xc87b56dd\n      eq\n      tag_15\n      jumpi\n      dup1\n      0xe985e9c5\n      eq\n      tag_16\n      jumpi\n      jump(tag_2)\n    tag_18:\n      dup1\n      0x6c0360eb\n      eq\n      tag_10\n      jumpi\n      dup1\n      0x70a08231\n      eq\n      tag_11\n      jumpi\n      dup1\n      0x95d89b41\n      eq\n      tag_12\n      jumpi\n      jump(tag_2)\n    tag_17:\n      dup1\n      0x095ea7b3\n      gt\n      tag_19\n      jumpi\n      dup1\n      0x095ea7b3\n      eq\n      tag_6\n      jumpi\n      dup1\n      0x23b872dd\n      eq\n      tag_7\n      jumpi\n      dup1\n      0x42842e0e\n      eq\n      tag_8\n      jumpi\n      dup1\n      0x6352211e\n      eq\n      tag_9\n      jumpi\n      jump(tag_2)\n    tag_19:\n      dup1\n      0x01ffc9a7\n      eq\n      tag_3\n      jumpi\n      dup1\n      0x06fdde03\n      eq\n      tag_4\n      jumpi\n      dup1\n      0x081812fc\n      eq\n      tag_5\n      jumpi\n    tag_2:\n      0x00\n      dup1\n      revert\n        /* \"NFTFractionalization/contracts/src/OpenZeppelin/introspection/ERC165.sol\":1045:1193  function supportsInterface(bytes4 interfaceId) public view virtual override returns (bool) {... */\n    tag_3:\n      tag_20\n      0x04\n      dup1\n      calldatasize\n      sub\n      dup2\n      add\n      swap1\n      tag_21\n      swap2\n      swap1\n      tag_22\n      jump\t// in\n    tag_21:\n      tag_23\n      jump\t// in\n    tag_20:\n      mload(0x40)\n      tag_24\n      swap2\n      swap1\n      tag_25\n      jump\t// in\n    tag_24:\n      mload(0x40)\n      dup1\n      swap2\n      sub\n      swap1\n      return\n        /* \"NFTFractionalization/contracts/src/OpenZeppelin/Tokens/ERC-721/ERC721.sol\":2943:3041  function name() public view virtual override returns (string memory) {... */\n    tag_4:\n      tag_26\n      tag_27\n      jump\t// in\n    tag_26:\n      mload(0x40)\n      tag_28\n      swap2\n      swap1\n      tag_29\n      jump\t// in\n    tag_28:\n      mload(0x40)\n      dup1\n      swap2\n      sub\n      swap1\n      return\n        /* \"NFTFractionalization/contracts/src/OpenZeppelin/Tokens/ERC-721/ERC721.sol\":5681:5898  function getApproved(uint256 tokenId) public view virtual override returns (address) {... */\n    tag_5:\n      tag_30\n      0x04\n      dup1\n      calldatasize\n      sub\n      dup2\n      add\n      swap1\n      tag_31\n      swap2\n      swap1\n      tag_32\n      jump\t// in\n    tag_31:\n      tag_33\n      jump\t// in\n    tag_30:\n      mload(0x40)\n      tag_34\n      swap2\n      swap1\n      tag_35\n      jump\t// in\n    tag_34:\n      mload(0x40)\n      dup1\n      swap2\n      sub\n      swap1\n      return\n        /* \"NFTFractionalization/contracts/src/OpenZeppelin/Tokens/ERC-721/ERC721.sol\":5225:5620  function approve(address to, uint256 tokenId) public virtual override {... */\n    tag_6:\n      tag_36\n      0x04\n      dup1\n      calldatasize\n      sub\n      dup2\n      add\n      swap1\n      tag_37\n      swap2\n      swap1\n      tag_38\n      jump\t// in\n    tag_37:\n      tag_39\n      jump\t// in\n    tag_36:\n      stop\n        /* \"NFTFractionalization/contracts/src/OpenZeppelin/Tokens/ERC-721/ERC721.sol\":6545:6845  function transferFrom(address from, address to, uint256 tokenId) public virtual override {... */\n    tag_7:\n      tag_40\n      0x04\n      dup1\n      calldatasize\n      sub\n      dup2\n      add\n      swap1\n      tag_41\n      swap2\n      swap1\n      tag_42\n      jump\t// in\n    tag_41:\n      tag_43\n      jump\t// in\n    tag_40:\n      stop\n        /* \"NFTFractionalization/contracts/src/OpenZeppelin/Tokens/ERC-721/ERC721.sol\":6911:7060  function safeTransferFrom(address from, address to, uint256 tokenId) public virtual override {... */\n    tag_8:\n      tag_44\n      0x04\n      dup1\n      calldatasize\n      sub\n      dup2\n      add\n      swap1\n      tag_45\n      swap2\n      swap1\n      tag_42\n      jump\t// in\n    tag_45:\n      tag_46\n      jump\t// in\n    tag_44:\n      stop\n        /* \"NFTFractionalization/contracts/src/OpenZeppelin/Tokens/ERC-721/ERC721.sol\":2706:2881  function ownerOf(uint256 tokenId) public view virtual override returns (address) {... */\n    tag_9:\n      tag_47\n      0x04\n      dup1\n      calldatasize\n      sub\n      dup2\n      add\n      swap1\n      tag_48\n      swap2\n      swap1\n      tag_32\n      jump\t// in\n    tag_48:\n      tag_49\n      jump\t// in\n    tag_47:\n      mload(0x40)\n      tag_50\n      swap2\n      swap1\n      tag_35\n      jump\t// in\n    tag_50:\n      mload(0x40)\n      dup1\n      swap2\n      sub\n      swap1\n      return\n        /* \"NFTFractionalization/contracts/src/OpenZeppelin/Tokens/ERC-721/ERC721.sol\":4281:4376  function baseURI() public view virtual returns (string memory) {... */\n    tag_10:\n      tag_51\n      tag_52\n      jump\t// in\n    tag_51:\n      mload(0x40)\n      tag_53\n      swap2\n      swap1\n      tag_29\n      jump\t// in\n    tag_53:\n      mload(0x40)\n      dup1\n      swap2\n      sub\n      swap1\n      return\n        /* \"NFTFractionalization/contracts/src/OpenZeppelin/Tokens/ERC-721/ERC721.sol\":2431:2649  function balanceOf(address owner) public view virtual override returns (uint256) {... */\n    tag_11:\n      tag_54\n      0x04\n      dup1\n      calldatasize\n      sub\n      dup2\n      add\n      swap1\n      tag_55\n      swap2\n      swap1\n      tag_56\n      jump\t// in\n    tag_55:\n      tag_57\n      jump\t// in\n    tag_54:\n      mload(0x40)\n      tag_58\n      swap2\n      swap1\n      tag_59\n      jump\t// in\n    tag_58:\n      mload(0x40)\n      dup1\n      swap2\n      sub\n      swap1\n      return\n        /* \"NFTFractionalization/contracts/src/OpenZeppelin/Tokens/ERC-721/ERC721.sol\":3105:3207  function symbol() public view virtual override returns (string memory) {... */\n    tag_12:\n      tag_60\n      tag_61\n      jump\t// in\n    tag_60:\n      mload(0x40)\n      tag_62\n      swap2\n      swap1\n      tag_29\n      jump\t// in\n    tag_62:\n      mload(0x40)\n      dup1\n      swap2\n      sub\n      swap1\n      return\n        /* \"NFTFractionalization/contracts/src/OpenZeppelin/Tokens/ERC-721/ERC721.sol\":5965:6255  function setApprovalForAll(address operator, bool approved) public virtual override {... */\n    tag_13:\n      tag_63\n      0x04\n      dup1\n      calldatasize\n      sub\n      dup2\n      add\n      swap1\n      tag_64\n      swap2\n      swap1\n      tag_65\n      jump\t// in\n    tag_64:\n      tag_66\n      jump\t// in\n    tag_63:\n      stop\n        /* \"NFTFractionalization/contracts/src/OpenZeppelin/Tokens/ERC-721/ERC721.sol\":7126:7408  function safeTransferFrom(address from, address to, uint256 tokenId, bytes memory _data) public virtual override {... */\n    tag_14:\n      tag_67\n      0x04\n      dup1\n      calldatasize\n      sub\n      dup2\n      add\n      swap1\n      tag_68\n      swap2\n      swap1\n      tag_69\n      jump\t// in\n    tag_68:\n      tag_70\n      jump\t// in\n    tag_67:\n      stop\n        /* \"NFTFractionalization/contracts/src/OpenZeppelin/Tokens/ERC-721/ERC721.sol\":3273:4049  function tokenURI(uint256 tokenId) public view virtual override returns (string memory) {... */\n    tag_15:\n      tag_71\n      0x04\n      dup1\n      calldatasize\n      sub\n      dup2\n      add\n      swap1\n      tag_72\n      swap2\n      swap1\n      tag_32\n      jump\t// in\n    tag_72:\n      tag_73\n      jump\t// in\n    tag_71:\n      mload(0x40)\n      tag_74\n      swap2\n      swap1\n      tag_29\n      jump\t// in\n    tag_74:\n      mload(0x40)\n      dup1\n      swap2\n      sub\n      swap1\n      return\n        /* \"NFTFractionalization/contracts/src/OpenZeppelin/Tokens/ERC-721/ERC721.sol\":6321:6483  function isApprovedForAll(address owner, address operator) public view virtual override returns (bool) {... */\n    tag_16:\n      tag_75\n      0x04\n      dup1\n      calldatasize\n      sub\n      dup2\n      add\n      swap1\n      tag_76\n      swap2\n      swap1\n      tag_77\n      jump\t// in\n    tag_76:\n      tag_78\n      jump\t// in\n    tag_75:\n      mload(0x40)\n      tag_79\n      swap2\n      swap1\n      tag_25\n      jump\t// in\n    tag_79:\n      mload(0x40)\n      dup1\n      swap2\n      sub\n      swap1\n      return\n        /* \"NFTFractionalization/contracts/src/OpenZeppelin/introspection/ERC165.sol\":1045:1193  function supportsInterface(bytes4 interfaceId) public view virtual override returns (bool) {... */\n    tag_23:\n        /* \"NFTFractionalization/contracts/src/OpenZeppelin/introspection/ERC165.sol\":1130:1134  bool */\n      0x00\n        /* \"NFTFractionalization/contracts/src/OpenZeppelin/introspection/ERC165.sol\":1153:1173  _supportedInterfaces */\n      dup1\n        /* \"NFTFractionalization/contracts/src/OpenZeppelin/introspection/ERC165.sol\":1153:1186  _supportedInterfaces[interfaceId] */\n      0x00\n        /* \"NFTFractionalization/contracts/src/OpenZeppelin/introspection/ERC165.sol\":1174:1185  interfaceId */\n      dup4\n        /* \"NFTFractionalization/contracts/src/OpenZeppelin/introspection/ERC165.sol\":1153:1186  _supportedInterfaces[interfaceId] */\n      not(0xffffffffffffffffffffffffffffffffffffffffffffffffffffffff)\n      and\n      not(0xffffffffffffffffffffffffffffffffffffffffffffffffffffffff)\n      and\n      dup2\n      mstore\n      0x20\n      add\n      swap1\n      dup2\n      mstore\n      0x20\n      add\n      0x00\n      keccak256\n      0x00\n      swap1\n      sload\n      swap1\n      0x0100\n      exp\n      swap1\n      div\n      0xff\n      and\n        /* \"NFTFractionalization/contracts/src/OpenZeppelin/introspection/ERC165.sol\":1146:1186  return _supportedInterfaces[interfaceId] */\n      swap1\n      pop\n        /* \"NFTFractionalization/contracts/src/OpenZeppelin/introspection/ERC165.sol\":1045:1193  function supportsInterface(bytes4 interfaceId) public view virtual override returns (bool) {... */\n      swap2\n      swap1\n      pop\n      jump\t// out\n        /* \"NFTFractionalization/contracts/src/OpenZeppelin/Tokens/ERC-721/ERC721.sol\":2943:3041  function name() public view virtual override returns (string memory) {... */\n    tag_27:\n        /* \"NFTFractionalization/contracts/src/OpenZeppelin/Tokens/ERC-721/ERC721.sol\":2997:3010  string memory */\n      0x60\n        /* \"NFTFractionalization/contracts/src/OpenZeppelin/Tokens/ERC-721/ERC721.sol\":3029:3034  _name */\n      0x06\n        /* \"NFTFractionalization/contracts/src/OpenZeppelin/Tokens/ERC-721/ERC721.sol\":3022:3034  return _name */\n      dup1\n      sload\n      tag_82\n      swap1\n      tag_83\n      jump\t// in\n    tag_82:\n      dup1\n      0x1f\n      add\n      0x20\n      dup1\n      swap2\n      div\n      mul\n      0x20\n      add\n      mload(0x40)\n      swap1\n      dup2\n      add\n      0x40\n      mstore\n      dup1\n      swap3\n      swap2\n      swap1\n      dup2\n      dup2\n      mstore\n      0x20\n      add\n      dup3\n      dup1\n      sload\n      tag_84\n      swap1\n      tag_83\n      jump\t// in\n    tag_84:\n      dup1\n      iszero\n      tag_85\n      jumpi\n      dup1\n      0x1f\n      lt\n      tag_86\n      jumpi\n      0x0100\n      dup1\n      dup4\n      sload\n      div\n      mul\n      dup4\n      mstore\n      swap2\n      0x20\n      add\n      swap2\n      jump(tag_85)\n    tag_86:\n      dup3\n      add\n      swap2\n      swap1\n      0x00\n      mstore\n      keccak256(0x00, 0x20)\n      swap1\n    tag_87:\n      dup2\n      sload\n      dup2\n      mstore\n      swap1\n      0x01\n      add\n      swap1\n      0x20\n      add\n      dup1\n      dup4\n      gt\n      tag_87\n      jumpi\n      dup3\n      swap1\n      sub\n      0x1f\n      and\n      dup3\n      add\n      swap2\n    tag_85:\n      pop\n      pop\n      pop\n      pop\n      pop\n      swap1\n      pop\n        /* \"NFTFractionalization/contracts/src/OpenZeppelin/Tokens/ERC-721/ERC721.sol\":2943:3041  function name() public view virtual override returns (string memory) {... */\n      swap1\n      jump\t// out\n        /* \"NFTFractionalization/contracts/src/OpenZeppelin/Tokens/ERC-721/ERC721.sol\":5681:5898  function getApproved(uint256 tokenId) public view virtual override returns (address) {... */\n    tag_33:\n        /* \"NFTFractionalization/contracts/src/OpenZeppelin/Tokens/ERC-721/ERC721.sol\":5757:5764  address */\n      0x00\n        /* \"NFTFractionalization/contracts/src/OpenZeppelin/Tokens/ERC-721/ERC721.sol\":5784:5800  _exists(tokenId) */\n      tag_89\n        /* \"NFTFractionalization/contracts/src/OpenZeppelin/Tokens/ERC-721/ERC721.sol\":5792:5799  tokenId */\n      dup3\n        /* \"NFTFractionalization/contracts/src/OpenZeppelin/Tokens/ERC-721/ERC721.sol\":5784:5791  _exists */\n      tag_90\n        /* \"NFTFractionalization/contracts/src/OpenZeppelin/Tokens/ERC-721/ERC721.sol\":5784:5800  _exists(tokenId) */\n      jump\t// in\n    tag_89:\n        /* \"NFTFractionalization/contracts/src/OpenZeppelin/Tokens/ERC-721/ERC721.sol\":5776:5849  require(_exists(tokenId), \"ERC721: approved query for nonexistent token\") */\n      tag_91\n      jumpi\n      mload(0x40)\n      0x08c379a000000000000000000000000000000000000000000000000000000000\n      dup2\n      mstore\n      0x04\n      add\n      tag_92\n      swap1\n      tag_93\n      jump\t// in\n    tag_92:\n      mload(0x40)\n      dup1\n      swap2\n      sub\n      swap1\n      revert\n    tag_91:\n        /* \"NFTFractionalization/contracts/src/OpenZeppelin/Tokens/ERC-721/ERC721.sol\":5867:5882  _tokenApprovals */\n      0x04\n        /* \"NFTFractionalization/contracts/src/OpenZeppelin/Tokens/ERC-721/ERC721.sol\":5867:5891  _tokenApprovals[tokenId] */\n      0x00\n        /* \"NFTFractionalization/contracts/src/OpenZeppelin/Tokens/ERC-721/ERC721.sol\":5883:5890  tokenId */\n      dup4\n        /* \"NFTFractionalization/contracts/src/OpenZeppelin/Tokens/ERC-721/ERC721.sol\":5867:5891  _tokenApprovals[tokenId] */\n      dup2\n      mstore\n      0x20\n      add\n      swap1\n      dup2\n      mstore\n      0x20\n      add\n      0x00\n      keccak256\n      0x00\n      swap1\n      sload\n      swap1\n      0x0100\n      exp\n      swap1\n      div\n      0xffffffffffffffffffffffffffffffffffffffff\n      and\n        /* \"NFTFractionalization/contracts/src/OpenZeppelin/Tokens/ERC-721/ERC721.sol\":5860:5891  return _tokenApprovals[tokenId] */\n      swap1\n      pop\n        /* \"NFTFractionalization/contracts/src/OpenZeppelin/Tokens/ERC-721/ERC721.sol\":5681:5898  function getApproved(uint256 tokenId) public view virtual override returns (address) {... */\n      swap2\n      swap1\n      pop\n      jump\t// out\n        /* \"NFTFractionalization/contracts/src/OpenZeppelin/Tokens/ERC-721/ERC721.sol\":5225:5620  function approve(address to, uint256 tokenId) public virtual override {... */\n    tag_39:\n        /* \"NFTFractionalization/contracts/src/OpenZeppelin/Tokens/ERC-721/ERC721.sol\":5305:5318  address owner */\n      0x00\n        /* \"NFTFractionalization/contracts/src/OpenZeppelin/Tokens/ERC-721/ERC721.sol\":5321:5344  ERC721.ownerOf(tokenId) */\n      tag_95\n        /* \"NFTFractionalization/contracts/src/OpenZeppelin/Tokens/ERC-721/ERC721.sol\":5336:5343  tokenId */\n      dup3\n        /* \"NFTFractionalization/contracts/src/OpenZeppelin/Tokens/ERC-721/ERC721.sol\":5321:5335  ERC721.ownerOf */\n      tag_49\n        /* \"NFTFractionalization/contracts/src/OpenZeppelin/Tokens/ERC-721/ERC721.sol\":5321:5344  ERC721.ownerOf(tokenId) */\n      jump\t// in\n    tag_95:\n        /* \"NFTFractionalization/contracts/src/OpenZeppelin/Tokens/ERC-721/ERC721.sol\":5305:5344  address owner = ERC721.ownerOf(tokenId) */\n      swap1\n      pop\n        /* \"NFTFractionalization/contracts/src/OpenZeppelin/Tokens/ERC-721/ERC721.sol\":5368:5373  owner */\n      dup1\n        /* \"NFTFractionalization/contracts/src/OpenZeppelin/Tokens/ERC-721/ERC721.sol\":5362:5373  to != owner */\n      0xffffffffffffffffffffffffffffffffffffffff\n      and\n        /* \"NFTFractionalization/contracts/src/OpenZeppelin/Tokens/ERC-721/ERC721.sol\":5362:5364  to */\n      dup4\n        /* \"NFTFractionalization/contracts/src/OpenZeppelin/Tokens/ERC-721/ERC721.sol\":5362:5373  to != owner */\n      0xffffffffffffffffffffffffffffffffffffffff\n      and\n      eq\n      iszero\n        /* \"NFTFractionalization/contracts/src/OpenZeppelin/Tokens/ERC-721/ERC721.sol\":5354:5411  require(to != owner, \"ERC721: approval to current owner\") */\n      tag_96\n      jumpi\n      mload(0x40)\n      0x08c379a000000000000000000000000000000000000000000000000000000000\n      dup2\n      mstore\n      0x04\n      add\n      tag_97\n      swap1\n      tag_98\n      jump\t// in\n    tag_97:\n      mload(0x40)\n      dup1\n      swap2\n      sub\n      swap1\n      revert\n    tag_96:\n        /* \"NFTFractionalization/contracts/src/OpenZeppelin/Tokens/ERC-721/ERC721.sol\":5446:5451  owner */\n      dup1\n        /* \"NFTFractionalization/contracts/src/OpenZeppelin/Tokens/ERC-721/ERC721.sol\":5430:5451  _msgSender() == owner */\n      0xffffffffffffffffffffffffffffffffffffffff\n      and\n        /* \"NFTFractionalization/contracts/src/OpenZeppelin/Tokens/ERC-721/ERC721.sol\":5430:5442  _msgSender() */\n      tag_99\n        /* \"NFTFractionalization/contracts/src/OpenZeppelin/Tokens/ERC-721/ERC721.sol\":5430:5440  _msgSender */\n      tag_100\n        /* \"NFTFractionalization/contracts/src/OpenZeppelin/Tokens/ERC-721/ERC721.sol\":5430:5442  _msgSender() */\n      jump\t// in\n    tag_99:\n        /* \"NFTFractionalization/contracts/src/OpenZeppelin/Tokens/ERC-721/ERC721.sol\":5430:5451  _msgSender() == owner */\n      0xffffffffffffffffffffffffffffffffffffffff\n      and\n      eq\n        /* \"NFTFractionalization/contracts/src/OpenZeppelin/Tokens/ERC-721/ERC721.sol\":5430:5499  _msgSender() == owner || ERC721.isApprovedForAll(owner, _msgSender()) */\n      dup1\n      tag_101\n      jumpi\n      pop\n        /* \"NFTFractionalization/contracts/src/OpenZeppelin/Tokens/ERC-721/ERC721.sol\":5455:5499  ERC721.isApprovedForAll(owner, _msgSender()) */\n      tag_102\n        /* \"NFTFractionalization/contracts/src/OpenZeppelin/Tokens/ERC-721/ERC721.sol\":5479:5484  owner */\n      dup2\n        /* \"NFTFractionalization/contracts/src/OpenZeppelin/Tokens/ERC-721/ERC721.sol\":5486:5498  _msgSender() */\n      tag_103\n        /* \"NFTFractionalization/contracts/src/OpenZeppelin/Tokens/ERC-721/ERC721.sol\":5486:5496  _msgSender */\n      tag_100\n        /* \"NFTFractionalization/contracts/src/OpenZeppelin/Tokens/ERC-721/ERC721.sol\":5486:5498  _msgSender() */\n      jump\t// in\n    tag_103:\n        /* \"NFTFractionalization/contracts/src/OpenZeppelin/Tokens/ERC-721/ERC721.sol\":5455:5478  ERC721.isApprovedForAll */\n      tag_78\n        /* \"NFTFractionalization/contracts/src/OpenZeppelin/Tokens/ERC-721/ERC721.sol\":5455:5499  ERC721.isApprovedForAll(owner, _msgSender()) */\n      jump\t// in\n    tag_102:\n        /* \"NFTFractionalization/contracts/src/OpenZeppelin/Tokens/ERC-721/ERC721.sol\":5430:5499  _msgSender() == owner || ERC721.isApprovedForAll(owner, _msgSender()) */\n    tag_101:\n        /* \"NFTFractionalization/contracts/src/OpenZeppelin/Tokens/ERC-721/ERC721.sol\":5422:5581  require(_msgSender() == owner || ERC721.isApprovedForAll(owner, _msgSender()),... */\n      tag_104\n      jumpi\n      mload(0x40)\n      0x08c379a000000000000000000000000000000000000000000000000000000000\n      dup2\n      mstore\n      0x04\n      add\n      tag_105\n      swap1\n      tag_106\n      jump\t// in\n    tag_105:\n      mload(0x40)\n      dup1\n      swap2\n      sub\n      swap1\n      revert\n    tag_104:\n        /* \"NFTFractionalization/contracts/src/OpenZeppelin/Tokens/ERC-721/ERC721.sol\":5592:5613  _approve(to, tokenId) */\n      tag_107\n        /* \"NFTFractionalization/contracts/src/OpenZeppelin/Tokens/ERC-721/ERC721.sol\":5601:5603  to */\n      dup4\n        /* \"NFTFractionalization/contracts/src/OpenZeppelin/Tokens/ERC-721/ERC721.sol\":5605:5612  tokenId */\n      dup4\n        /* \"NFTFractionalization/contracts/src/OpenZeppelin/Tokens/ERC-721/ERC721.sol\":5592:5600  _approve */\n      tag_108\n        /* \"NFTFractionalization/contracts/src/OpenZeppelin/Tokens/ERC-721/ERC721.sol\":5592:5613  _approve(to, tokenId) */\n      jump\t// in\n    tag_107:\n        /* \"NFTFractionalization/contracts/src/OpenZeppelin/Tokens/ERC-721/ERC721.sol\":5295:5620  {... */\n      pop\n        /* \"NFTFractionalization/contracts/src/OpenZeppelin/Tokens/ERC-721/ERC721.sol\":5225:5620  function approve(address to, uint256 tokenId) public virtual override {... */\n      pop\n      pop\n      jump\t// out\n        /* \"NFTFractionalization/contracts/src/OpenZeppelin/Tokens/ERC-721/ERC721.sol\":6545:6845  function transferFrom(address from, address to, uint256 tokenId) public virtual override {... */\n    tag_43:\n        /* \"NFTFractionalization/contracts/src/OpenZeppelin/Tokens/ERC-721/ERC721.sol\":6704:6745  _isApprovedOrOwner(_msgSender(), tokenId) */\n      tag_110\n        /* \"NFTFractionalization/contracts/src/OpenZeppelin/Tokens/ERC-721/ERC721.sol\":6723:6735  _msgSender() */\n      tag_111\n        /* \"NFTFractionalization/contracts/src/OpenZeppelin/Tokens/ERC-721/ERC721.sol\":6723:6733  _msgSender */\n      tag_100\n        /* \"NFTFractionalization/contracts/src/OpenZeppelin/Tokens/ERC-721/ERC721.sol\":6723:6735  _msgSender() */\n      jump\t// in\n    tag_111:\n        /* \"NFTFractionalization/contracts/src/OpenZeppelin/Tokens/ERC-721/ERC721.sol\":6737:6744  tokenId */\n      dup3\n        /* \"NFTFractionalization/contracts/src/OpenZeppelin/Tokens/ERC-721/ERC721.sol\":6704:6722  _isApprovedOrOwner */\n      tag_112\n        /* \"NFTFractionalization/contracts/src/OpenZeppelin/Tokens/ERC-721/ERC721.sol\":6704:6745  _isApprovedOrOwner(_msgSender(), tokenId) */\n      jump\t// in\n    tag_110:\n        /* \"NFTFractionalization/contracts/src/OpenZeppelin/Tokens/ERC-721/ERC721.sol\":6696:6799  require(_isApprovedOrOwner(_msgSender(), tokenId), \"ERC721: transfer caller is not owner nor approved\") */\n      tag_113\n      jumpi\n      mload(0x40)\n      0x08c379a000000000000000000000000000000000000000000000000000000000\n      dup2\n      mstore\n      0x04\n      add\n      tag_114\n      swap1\n      tag_115\n      jump\t// in\n    tag_114:\n      mload(0x40)\n      dup1\n      swap2\n      sub\n      swap1\n      revert\n    tag_113:\n        /* \"NFTFractionalization/contracts/src/OpenZeppelin/Tokens/ERC-721/ERC721.sol\":6810:6838  _transfer(from, to, tokenId) */\n      tag_116\n        /* \"NFTFractionalization/contracts/src/OpenZeppelin/Tokens/ERC-721/ERC721.sol\":6820:6824  from */\n      dup4\n        /* \"NFTFractionalization/contracts/src/OpenZeppelin/Tokens/ERC-721/ERC721.sol\":6826:6828  to */\n      dup4\n        /* \"NFTFractionalization/contracts/src/OpenZeppelin/Tokens/ERC-721/ERC721.sol\":6830:6837  tokenId */\n      dup4\n        /* \"NFTFractionalization/contracts/src/OpenZeppelin/Tokens/ERC-721/ERC721.sol\":6810:6819  _transfer */\n      tag_117\n        /* \"NFTFractionalization/contracts/src/OpenZeppelin/Tokens/ERC-721/ERC721.sol\":6810:6838  _transfer(from, to, tokenId) */\n      jump\t// in\n    tag_116:\n        /* \"NFTFractionalization/contracts/src/OpenZeppelin/Tokens/ERC-721/ERC721.sol\":6545:6845  function transferFrom(address from, address to, uint256 tokenId) public virtual override {... */\n      pop\n      pop\n      pop\n      jump\t// out\n        /* \"NFTFractionalization/contracts/src/OpenZeppelin/Tokens/ERC-721/ERC721.sol\":6911:7060  function safeTransferFrom(address from, address to, uint256 tokenId) public virtual override {... */\n    tag_46:\n        /* \"NFTFractionalization/contracts/src/OpenZeppelin/Tokens/ERC-721/ERC721.sol\":7014:7053  safeTransferFrom(from, to, tokenId, \"\") */\n      tag_119\n        /* \"NFTFractionalization/contracts/src/OpenZeppelin/Tokens/ERC-721/ERC721.sol\":7031:7035  from */\n      dup4\n        /* \"NFTFractionalization/contracts/src/OpenZeppelin/Tokens/ERC-721/ERC721.sol\":7037:7039  to */\n      dup4\n        /* \"NFTFractionalization/contracts/src/OpenZeppelin/Tokens/ERC-721/ERC721.sol\":7041:7048  tokenId */\n      dup4\n        /* \"NFTFractionalization/contracts/src/OpenZeppelin/Tokens/ERC-721/ERC721.sol\":7014:7053  safeTransferFrom(from, to, tokenId, \"\") */\n      mload(0x40)\n      dup1\n      0x20\n      add\n      0x40\n      mstore\n      dup1\n      0x00\n      dup2\n      mstore\n      pop\n        /* \"NFTFractionalization/contracts/src/OpenZeppelin/Tokens/ERC-721/ERC721.sol\":7014:7030  safeTransferFrom */\n      tag_70\n        /* \"NFTFractionalization/contracts/src/OpenZeppelin/Tokens/ERC-721/ERC721.sol\":7014:7053  safeTransferFrom(from, to, tokenId, \"\") */\n      jump\t// in\n    tag_119:\n        /* \"NFTFractionalization/contracts/src/OpenZeppelin/Tokens/ERC-721/ERC721.sol\":6911:7060  function safeTransferFrom(address from, address to, uint256 tokenId) public virtual override {... */\n      pop\n      pop\n      pop\n      jump\t// out\n        /* \"NFTFractionalization/contracts/src/OpenZeppelin/Tokens/ERC-721/ERC721.sol\":2706:2881  function ownerOf(uint256 tokenId) public view virtual override returns (address) {... */\n    tag_49:\n        /* \"NFTFractionalization/contracts/src/OpenZeppelin/Tokens/ERC-721/ERC721.sol\":2778:2785  address */\n      0x00\n        /* \"NFTFractionalization/contracts/src/OpenZeppelin/Tokens/ERC-721/ERC721.sol\":2804:2874  _tokenOwners.get(tokenId, \"ERC721: owner query for nonexistent token\") */\n      tag_121\n        /* \"NFTFractionalization/contracts/src/OpenZeppelin/Tokens/ERC-721/ERC721.sol\":2821:2828  tokenId */\n      dup3\n        /* \"NFTFractionalization/contracts/src/OpenZeppelin/Tokens/ERC-721/ERC721.sol\":2804:2874  _tokenOwners.get(tokenId, \"ERC721: owner query for nonexistent token\") */\n      mload(0x40)\n      dup1\n      0x60\n      add\n      0x40\n      mstore\n      dup1\n      0x29\n      dup2\n      mstore\n      0x20\n      add\n      data_7481f3df2a424c0755a1ad2356614e9a5a358d461ea2eae1f89cb21cbad00397\n      0x29\n      swap2\n      codecopy\n        /* \"NFTFractionalization/contracts/src/OpenZeppelin/Tokens/ERC-721/ERC721.sol\":2804:2816  _tokenOwners */\n      0x02\n        /* \"NFTFractionalization/contracts/src/OpenZeppelin/Tokens/ERC-721/ERC721.sol\":2804:2820  _tokenOwners.get */\n      tag_122\n      swap1\n        /* \"NFTFractionalization/contracts/src/OpenZeppelin/Tokens/ERC-721/ERC721.sol\":2804:2874  _tokenOwners.get(tokenId, \"ERC721: owner query for nonexistent token\") */\n      swap3\n      swap2\n      swap1\n      0xffffffff\n      and\n      jump\t// in\n    tag_121:\n        /* \"NFTFractionalization/contracts/src/OpenZeppelin/Tokens/ERC-721/ERC721.sol\":2797:2874  return _tokenOwners.get(tokenId, \"ERC721: owner query for nonexistent token\") */\n      swap1\n      pop\n        /* \"NFTFractionalization/contracts/src/OpenZeppelin/Tokens/ERC-721/ERC721.sol\":2706:2881  function ownerOf(uint256 tokenId) public view virtual override returns (address) {... */\n      swap2\n      swap1\n      pop\n      jump\t// out\n        /* \"NFTFractionalization/contracts/src/OpenZeppelin/Tokens/ERC-721/ERC721.sol\":4281:4376  function baseURI() public view virtual returns (string memory) {... */\n    tag_52:\n        /* \"NFTFractionalization/contracts/src/OpenZeppelin/Tokens/ERC-721/ERC721.sol\":4329:4342  string memory */\n      0x60\n        /* \"NFTFractionalization/contracts/src/OpenZeppelin/Tokens/ERC-721/ERC721.sol\":4361:4369  _baseURI */\n      0x09\n        /* \"NFTFractionalization/contracts/src/OpenZeppelin/Tokens/ERC-721/ERC721.sol\":4354:4369  return _baseURI */\n      dup1\n      sload\n      tag_124\n      swap1\n      tag_83\n      jump\t// in\n    tag_124:\n      dup1\n      0x1f\n      add\n      0x20\n      dup1\n      swap2\n      div\n      mul\n      0x20\n      add\n      mload(0x40)\n      swap1\n      dup2\n      add\n      0x40\n      mstore\n      dup1\n      swap3\n      swap2\n      swap1\n      dup2\n      dup2\n      mstore\n      0x20\n      add\n      dup3\n      dup1\n      sload\n      tag_125\n      swap1\n      tag_83\n      jump\t// in\n    tag_125:\n      dup1\n      iszero\n      tag_126\n      jumpi\n      dup1\n      0x1f\n      lt\n      tag_127\n      jumpi\n      0x0100\n      dup1\n      dup4\n      sload\n      div\n      mul\n      dup4\n      mstore\n      swap2\n      0x20\n      add\n      swap2\n      jump(tag_126)\n    tag_127:\n      dup3\n      add\n      swap2\n      swap1\n      0x00\n      mstore\n      keccak256(0x00, 0x20)\n      swap1\n    tag_128:\n      dup2\n      sload\n      dup2\n      mstore\n      swap1\n      0x01\n      add\n      swap1\n      0x20\n      add\n      dup1\n      dup4\n      gt\n      tag_128\n      jumpi\n      dup3\n      swap1\n      sub\n      0x1f\n      and\n      dup3\n      add\n      swap2\n    tag_126:\n      pop\n      pop\n      pop\n      pop\n      pop\n      swap1\n      pop\n        /* \"NFTFractionalization/contracts/src/OpenZeppelin/Tokens/ERC-721/ERC721.sol\":4281:4376  function baseURI() public view virtual returns (string memory) {... */\n      swap1\n      jump\t// out\n        /* \"NFTFractionalization/contracts/src/OpenZeppelin/Tokens/ERC-721/ERC721.sol\":2431:2649  function balanceOf(address owner) public view virtual override returns (uint256) {... */\n    tag_57:\n        /* \"NFTFractionalization/contracts/src/OpenZeppelin/Tokens/ERC-721/ERC721.sol\":2503:2510  uint256 */\n      0x00\n        /* \"NFTFractionalization/contracts/src/OpenZeppelin/Tokens/ERC-721/ERC721.sol\":2547:2548  0 */\n      dup1\n        /* \"NFTFractionalization/contracts/src/OpenZeppelin/Tokens/ERC-721/ERC721.sol\":2530:2549  owner != address(0) */\n      0xffffffffffffffffffffffffffffffffffffffff\n      and\n        /* \"NFTFractionalization/contracts/src/OpenZeppelin/Tokens/ERC-721/ERC721.sol\":2530:2535  owner */\n      dup3\n        /* \"NFTFractionalization/contracts/src/OpenZeppelin/Tokens/ERC-721/ERC721.sol\":2530:2549  owner != address(0) */\n      0xffffffffffffffffffffffffffffffffffffffff\n      and\n      eq\n      iszero\n        /* \"NFTFractionalization/contracts/src/OpenZeppelin/Tokens/ERC-721/ERC721.sol\":2522:2596  require(owner != address(0), \"ERC721: balance query for the zero address\") */\n      tag_130\n      jumpi\n      mload(0x40)\n      0x08c379a000000000000000000000000000000000000000000000000000000000\n      dup2\n      mstore\n      0x04\n      add\n      tag_131\n      swap1\n      tag_132\n      jump\t// in\n    tag_131:\n      mload(0x40)\n      dup1\n      swap2\n      sub\n      swap1\n      revert\n    tag_130:\n        /* \"NFTFractionalization/contracts/src/OpenZeppelin/Tokens/ERC-721/ERC721.sol\":2613:2642  _holderTokens[owner].length() */\n      tag_133\n        /* \"NFTFractionalization/contracts/src/OpenZeppelin/Tokens/ERC-721/ERC721.sol\":2613:2626  _holderTokens */\n      0x01\n        /* \"NFTFractionalization/contracts/src/OpenZeppelin/Tokens/ERC-721/ERC721.sol\":2613:2633  _holderTokens[owner] */\n      0x00\n        /* \"NFTFractionalization/contracts/src/OpenZeppelin/Tokens/ERC-721/ERC721.sol\":2627:2632  owner */\n      dup5\n        /* \"NFTFractionalization/contracts/src/OpenZeppelin/Tokens/ERC-721/ERC721.sol\":2613:2633  _holderTokens[owner] */\n      0xffffffffffffffffffffffffffffffffffffffff\n      and\n      0xffffffffffffffffffffffffffffffffffffffff\n      and\n      dup2\n      mstore\n      0x20\n      add\n      swap1\n      dup2\n      mstore\n      0x20\n      add\n      0x00\n      keccak256\n        /* \"NFTFractionalization/contracts/src/OpenZeppelin/Tokens/ERC-721/ERC721.sol\":2613:2640  _holderTokens[owner].length */\n      tag_134\n        /* \"NFTFractionalization/contracts/src/OpenZeppelin/Tokens/ERC-721/ERC721.sol\":2613:2642  _holderTokens[owner].length() */\n      jump\t// in\n    tag_133:\n        /* \"NFTFractionalization/contracts/src/OpenZeppelin/Tokens/ERC-721/ERC721.sol\":2606:2642  return _holderTokens[owner].length() */\n      swap1\n      pop\n        /* \"NFTFractionalization/contracts/src/OpenZeppelin/Tokens/ERC-721/ERC721.sol\":2431:2649  function balanceOf(address owner) public view virtual override returns (uint256) {... */\n      swap2\n      swap1\n      pop\n      jump\t// out\n        /* \"NFTFractionalization/contracts/src/OpenZeppelin/Tokens/ERC-721/ERC721.sol\":3105:3207  function symbol() public view virtual override returns (string memory) {... */\n    tag_61:\n        /* \"NFTFractionalization/contracts/src/OpenZeppelin/Tokens/ERC-721/ERC721.sol\":3161:3174  string memory */\n      0x60\n        /* \"NFTFractionalization/contracts/src/OpenZeppelin/Tokens/ERC-721/ERC721.sol\":3193:3200  _symbol */\n      0x07\n        /* \"NFTFractionalization/contracts/src/OpenZeppelin/Tokens/ERC-721/ERC721.sol\":3186:3200  return _symbol */\n      dup1\n      sload\n      tag_136\n      swap1\n      tag_83\n      jump\t// in\n    tag_136:\n      dup1\n      0x1f\n      add\n      0x20\n      dup1\n      swap2\n      div\n      mul\n      0x20\n      add\n      mload(0x40)\n      swap1\n      dup2\n      add\n      0x40\n      mstore\n      dup1\n      swap3\n      swap2\n      swap1\n      dup2\n      dup2\n      mstore\n      0x20\n      add\n      dup3\n      dup1\n      sload\n      tag_137\n      swap1\n      tag_83\n      jump\t// in\n    tag_137:\n      dup1\n      iszero\n      tag_138\n      jumpi\n      dup1\n      0x1f\n      lt\n      tag_139\n      jumpi\n      0x0100\n      dup1\n      dup4\n      sload\n      div\n      mul\n      dup4\n      mstore\n      swap2\n      0x20\n      add\n      swap2\n      jump(tag_138)\n    tag_139:\n      dup3\n      add\n      swap2\n      swap1\n      0x00\n      mstore\n      keccak256(0x00, 0x20)\n      swap1\n    tag_140:\n      dup2\n      sload\n      dup2\n      mstore\n      swap1\n      0x01\n      add\n      swap1\n      0x20\n      add\n      dup1\n      dup4\n      gt\n      tag_140\n      jumpi\n      dup3\n      swap1\n      sub\n      0x1f\n      and\n      dup3\n      add\n      swap2\n    tag_138:\n      pop\n      pop\n      pop\n      pop\n      pop\n      swap1\n      pop\n        /* \"NFTFractionalization/contracts/src/OpenZeppelin/Tokens/ERC-721/ERC721.sol\":3105:3207  function symbol() public view virtual override returns (string memory) {... */\n      swap1\n      jump\t// out\n        /* \"NFTFractionalization/contracts/src/OpenZeppelin/Tokens/ERC-721/ERC721.sol\":5965:6255  function setApprovalForAll(address operator, bool approved) public virtual override {... */\n    tag_66:\n        /* \"NFTFractionalization/contracts/src/OpenZeppelin/Tokens/ERC-721/ERC721.sol\":6079:6091  _msgSender() */\n      tag_142\n        /* \"NFTFractionalization/contracts/src/OpenZeppelin/Tokens/ERC-721/ERC721.sol\":6079:6089  _msgSender */\n      tag_100\n        /* \"NFTFractionalization/contracts/src/OpenZeppelin/Tokens/ERC-721/ERC721.sol\":6079:6091  _msgSender() */\n      jump\t// in\n    tag_142:\n        /* \"NFTFractionalization/contracts/src/OpenZeppelin/Tokens/ERC-721/ERC721.sol\":6067:6091  operator != _msgSender() */\n      0xffffffffffffffffffffffffffffffffffffffff\n      and\n        /* \"NFTFractionalization/contracts/src/OpenZeppelin/Tokens/ERC-721/ERC721.sol\":6067:6075  operator */\n      dup3\n        /* \"NFTFractionalization/contracts/src/OpenZeppelin/Tokens/ERC-721/ERC721.sol\":6067:6091  operator != _msgSender() */\n      0xffffffffffffffffffffffffffffffffffffffff\n      and\n      eq\n      iszero\n        /* \"NFTFractionalization/contracts/src/OpenZeppelin/Tokens/ERC-721/ERC721.sol\":6059:6121  require(operator != _msgSender(), \"ERC721: approve to caller\") */\n      tag_143\n      jumpi\n      mload(0x40)\n      0x08c379a000000000000000000000000000000000000000000000000000000000\n      dup2\n      mstore\n      0x04\n      add\n      tag_144\n      swap1\n      tag_145\n      jump\t// in\n    tag_144:\n      mload(0x40)\n      dup1\n      swap2\n      sub\n      swap1\n      revert\n    tag_143:\n        /* \"NFTFractionalization/contracts/src/OpenZeppelin/Tokens/ERC-721/ERC721.sol\":6177:6185  approved */\n      dup1\n        /* \"NFTFractionalization/contracts/src/OpenZeppelin/Tokens/ERC-721/ERC721.sol\":6132:6150  _operatorApprovals */\n      0x05\n        /* \"NFTFractionalization/contracts/src/OpenZeppelin/Tokens/ERC-721/ERC721.sol\":6132:6164  _operatorApprovals[_msgSender()] */\n      0x00\n        /* \"NFTFractionalization/contracts/src/OpenZeppelin/Tokens/ERC-721/ERC721.sol\":6151:6163  _msgSender() */\n      tag_146\n        /* \"NFTFractionalization/contracts/src/OpenZeppelin/Tokens/ERC-721/ERC721.sol\":6151:6161  _msgSender */\n      tag_100\n        /* \"NFTFractionalization/contracts/src/OpenZeppelin/Tokens/ERC-721/ERC721.sol\":6151:6163  _msgSender() */\n      jump\t// in\n    tag_146:\n        /* \"NFTFractionalization/contracts/src/OpenZeppelin/Tokens/ERC-721/ERC721.sol\":6132:6164  _operatorApprovals[_msgSender()] */\n      0xffffffffffffffffffffffffffffffffffffffff\n      and\n      0xffffffffffffffffffffffffffffffffffffffff\n      and\n      dup2\n      mstore\n      0x20\n      add\n      swap1\n      dup2\n      mstore\n      0x20\n      add\n      0x00\n      keccak256\n        /* \"NFTFractionalization/contracts/src/OpenZeppelin/Tokens/ERC-721/ERC721.sol\":6132:6174  _operatorApprovals[_msgSender()][operator] */\n      0x00\n        /* \"NFTFractionalization/contracts/src/OpenZeppelin/Tokens/ERC-721/ERC721.sol\":6165:6173  operator */\n      dup5\n        /* \"NFTFractionalization/contracts/src/OpenZeppelin/Tokens/ERC-721/ERC721.sol\":6132:6174  _operatorApprovals[_msgSender()][operator] */\n      0xffffffffffffffffffffffffffffffffffffffff\n      and\n      0xffffffffffffffffffffffffffffffffffffffff\n      and\n      dup2\n      mstore\n      0x20\n      add\n      swap1\n      dup2\n      mstore\n      0x20\n      add\n      0x00\n      keccak256\n      0x00\n        /* \"NFTFractionalization/contracts/src/OpenZeppelin/Tokens/ERC-721/ERC721.sol\":6132:6185  _operatorApprovals[_msgSender()][operator] = approved */\n      0x0100\n      exp\n      dup2\n      sload\n      dup2\n      0xff\n      mul\n      not\n      and\n      swap1\n      dup4\n      iszero\n      iszero\n      mul\n      or\n      swap1\n      sstore\n      pop\n        /* \"NFTFractionalization/contracts/src/OpenZeppelin/Tokens/ERC-721/ERC721.sol\":6229:6237  operator */\n      dup2\n        /* \"NFTFractionalization/contracts/src/OpenZeppelin/Tokens/ERC-721/ERC721.sol\":6200:6248  ApprovalForAll(_msgSender(), operator, approved) */\n      0xffffffffffffffffffffffffffffffffffffffff\n      and\n        /* \"NFTFractionalization/contracts/src/OpenZeppelin/Tokens/ERC-721/ERC721.sol\":6215:6227  _msgSender() */\n      tag_147\n        /* \"NFTFractionalization/contracts/src/OpenZeppelin/Tokens/ERC-721/ERC721.sol\":6215:6225  _msgSender */\n      tag_100\n        /* \"NFTFractionalization/contracts/src/OpenZeppelin/Tokens/ERC-721/ERC721.sol\":6215:6227  _msgSender() */\n      jump\t// in\n    tag_147:\n        /* \"NFTFractionalization/contracts/src/OpenZeppelin/Tokens/ERC-721/ERC721.sol\":6200:6248  ApprovalForAll(_msgSender(), operator, approved) */\n      0xffffffffffffffffffffffffffffffffffffffff\n      and\n      0x17307eab39ab6107e8899845ad3d59bd9653f200f220920489ca2b5937696c31\n        /* \"NFTFractionalization/contracts/src/OpenZeppelin/Tokens/ERC-721/ERC721.sol\":6239:6247  approved */\n      dup4\n        /* \"NFTFractionalization/contracts/src/OpenZeppelin/Tokens/ERC-721/ERC721.sol\":6200:6248  ApprovalForAll(_msgSender(), operator, approved) */\n      mload(0x40)\n      tag_148\n      swap2\n      swap1\n      tag_25\n      jump\t// in\n    tag_148:\n      mload(0x40)\n      dup1\n      swap2\n      sub\n      swap1\n      log3\n        /* \"NFTFractionalization/contracts/src/OpenZeppelin/Tokens/ERC-721/ERC721.sol\":5965:6255  function setApprovalForAll(address operator, bool approved) public virtual override {... */\n      pop\n      pop\n      jump\t// out\n        /* \"NFTFractionalization/contracts/src/OpenZeppelin/Tokens/ERC-721/ERC721.sol\":7126:7408  function safeTransferFrom(address from, address to, uint256 tokenId, bytes memory _data) public virtual override {... */\n    tag_70:\n        /* \"NFTFractionalization/contracts/src/OpenZeppelin/Tokens/ERC-721/ERC721.sol\":7257:7298  _isApprovedOrOwner(_msgSender(), tokenId) */\n      tag_150\n        /* \"NFTFractionalization/contracts/src/OpenZeppelin/Tokens/ERC-721/ERC721.sol\":7276:7288  _msgSender() */\n      tag_151\n        /* \"NFTFractionalization/contracts/src/OpenZeppelin/Tokens/ERC-721/ERC721.sol\":7276:7286  _msgSender */\n      tag_100\n        /* \"NFTFractionalization/contracts/src/OpenZeppelin/Tokens/ERC-721/ERC721.sol\":7276:7288  _msgSender() */\n      jump\t// in\n    tag_151:\n        /* \"NFTFractionalization/contracts/src/OpenZeppelin/Tokens/ERC-721/ERC721.sol\":7290:7297  tokenId */\n      dup4\n        /* \"NFTFractionalization/contracts/src/OpenZeppelin/Tokens/ERC-721/ERC721.sol\":7257:7275  _isApprovedOrOwner */\n      tag_112\n        /* \"NFTFractionalization/contracts/src/OpenZeppelin/Tokens/ERC-721/ERC721.sol\":7257:7298  _isApprovedOrOwner(_msgSender(), tokenId) */\n      jump\t// in\n    tag_150:\n        /* \"NFTFractionalization/contracts/src/OpenZeppelin/Tokens/ERC-721/ERC721.sol\":7249:7352  require(_isApprovedOrOwner(_msgSender(), tokenId), \"ERC721: transfer caller is not owner nor approved\") */\n      tag_152\n      jumpi\n      mload(0x40)\n      0x08c379a000000000000000000000000000000000000000000000000000000000\n      dup2\n      mstore\n      0x04\n      add\n      tag_153\n      swap1\n      tag_115\n      jump\t// in\n    tag_153:\n      mload(0x40)\n      dup1\n      swap2\n      sub\n      swap1\n      revert\n    tag_152:\n        /* \"NFTFractionalization/contracts/src/OpenZeppelin/Tokens/ERC-721/ERC721.sol\":7362:7401  _safeTransfer(from, to, tokenId, _data) */\n      tag_154\n        /* \"NFTFractionalization/contracts/src/OpenZeppelin/Tokens/ERC-721/ERC721.sol\":7376:7380  from */\n      dup5\n        /* \"NFTFractionalization/contracts/src/OpenZeppelin/Tokens/ERC-721/ERC721.sol\":7382:7384  to */\n      dup5\n        /* \"NFTFractionalization/contracts/src/OpenZeppelin/Tokens/ERC-721/ERC721.sol\":7386:7393  tokenId */\n      dup5\n        /* \"NFTFractionalization/contracts/src/OpenZeppelin/Tokens/ERC-721/ERC721.sol\":7395:7400  _data */\n      dup5\n        /* \"NFTFractionalization/contracts/src/OpenZeppelin/Tokens/ERC-721/ERC721.sol\":7362:7375  _safeTransfer */\n      tag_155\n        /* \"NFTFractionalization/contracts/src/OpenZeppelin/Tokens/ERC-721/ERC721.sol\":7362:7401  _safeTransfer(from, to, tokenId, _data) */\n      jump\t// in\n    tag_154:\n        /* \"NFTFractionalization/contracts/src/OpenZeppelin/Tokens/ERC-721/ERC721.sol\":7126:7408  function safeTransferFrom(address from, address to, uint256 tokenId, bytes memory _data) public virtual override {... */\n      pop\n      pop\n      pop\n      pop\n      jump\t// out\n        /* \"NFTFractionalization/contracts/src/OpenZeppelin/Tokens/ERC-721/ERC721.sol\":3273:4049  function tokenURI(uint256 tokenId) public view virtual override returns (string memory) {... */\n    tag_73:\n        /* \"NFTFractionalization/contracts/src/OpenZeppelin/Tokens/ERC-721/ERC721.sol\":3346:3359  string memory */\n      0x60\n        /* \"NFTFractionalization/contracts/src/OpenZeppelin/Tokens/ERC-721/ERC721.sol\":3379:3395  _exists(tokenId) */\n      tag_157\n        /* \"NFTFractionalization/contracts/src/OpenZeppelin/Tokens/ERC-721/ERC721.sol\":3387:3394  tokenId */\n      dup3\n        /* \"NFTFractionalization/contracts/src/OpenZeppelin/Tokens/ERC-721/ERC721.sol\":3379:3386  _exists */\n      tag_90\n        /* \"NFTFractionalization/contracts/src/OpenZeppelin/Tokens/ERC-721/ERC721.sol\":3379:3395  _exists(tokenId) */\n      jump\t// in\n    tag_157:\n        /* \"NFTFractionalization/contracts/src/OpenZeppelin/Tokens/ERC-721/ERC721.sol\":3371:3447  require(_exists(tokenId), \"ERC721Metadata: URI query for nonexistent token\") */\n      tag_158\n      jumpi\n      mload(0x40)\n      0x08c379a000000000000000000000000000000000000000000000000000000000\n      dup2\n      mstore\n      0x04\n      add\n      tag_159\n      swap1\n      tag_160\n      jump\t// in\n    tag_159:\n      mload(0x40)\n      dup1\n      swap2\n      sub\n      swap1\n      revert\n    tag_158:\n        /* \"NFTFractionalization/contracts/src/OpenZeppelin/Tokens/ERC-721/ERC721.sol\":3458:3481  string memory _tokenURI */\n      0x00\n        /* \"NFTFractionalization/contracts/src/OpenZeppelin/Tokens/ERC-721/ERC721.sol\":3484:3494  _tokenURIs */\n      0x08\n        /* \"NFTFractionalization/contracts/src/OpenZeppelin/Tokens/ERC-721/ERC721.sol\":3484:3503  _tokenURIs[tokenId] */\n      0x00\n        /* \"NFTFractionalization/contracts/src/OpenZeppelin/Tokens/ERC-721/ERC721.sol\":3495:3502  tokenId */\n      dup5\n        /* \"NFTFractionalization/contracts/src/OpenZeppelin/Tokens/ERC-721/ERC721.sol\":3484:3503  _tokenURIs[tokenId] */\n      dup2\n      mstore\n      0x20\n      add\n      swap1\n      dup2\n      mstore\n      0x20\n      add\n      0x00\n      keccak256\n        /* \"NFTFractionalization/contracts/src/OpenZeppelin/Tokens/ERC-721/ERC721.sol\":3458:3503  string memory _tokenURI = _tokenURIs[tokenId] */\n      dup1\n      sload\n      tag_161\n      swap1\n      tag_83\n      jump\t// in\n    tag_161:\n      dup1\n      0x1f\n      add\n      0x20\n      dup1\n      swap2\n      div\n      mul\n      0x20\n      add\n      mload(0x40)\n      swap1\n      dup2\n      add\n      0x40\n      mstore\n      dup1\n      swap3\n      swap2\n      swap1\n      dup2\n      dup2\n      mstore\n      0x20\n      add\n      dup3\n      dup1\n      sload\n      tag_162\n      swap1\n      tag_83\n      jump\t// in\n    tag_162:\n      dup1\n      iszero\n      tag_163\n      jumpi\n      dup1\n      0x1f\n      lt\n      tag_164\n      jumpi\n      0x0100\n      dup1\n      dup4\n      sload\n      div\n      mul\n      dup4\n      mstore\n      swap2\n      0x20\n      add\n      swap2\n      jump(tag_163)\n    tag_164:\n      dup3\n      add\n      swap2\n      swap1\n      0x00\n      mstore\n      keccak256(0x00, 0x20)\n      swap1\n    tag_165:\n      dup2\n      sload\n      dup2\n      mstore\n      swap1\n      0x01\n      add\n      swap1\n      0x20\n      add\n      dup1\n      dup4\n      gt\n      tag_165\n      jumpi\n      dup3\n      swap1\n      sub\n      0x1f\n      and\n      dup3\n      add\n      swap2\n    tag_163:\n      pop\n      pop\n      pop\n      pop\n      pop\n      swap1\n      pop\n        /* \"NFTFractionalization/contracts/src/OpenZeppelin/Tokens/ERC-721/ERC721.sol\":3513:3531  string memory base */\n      0x00\n        /* \"NFTFractionalization/contracts/src/OpenZeppelin/Tokens/ERC-721/ERC721.sol\":3534:3543  baseURI() */\n      tag_166\n        /* \"NFTFractionalization/contracts/src/OpenZeppelin/Tokens/ERC-721/ERC721.sol\":3534:3541  baseURI */\n      tag_52\n        /* \"NFTFractionalization/contracts/src/OpenZeppelin/Tokens/ERC-721/ERC721.sol\":3534:3543  baseURI() */\n      jump\t// in\n    tag_166:\n        /* \"NFTFractionalization/contracts/src/OpenZeppelin/Tokens/ERC-721/ERC721.sol\":3513:3543  string memory base = baseURI() */\n      swap1\n      pop\n        /* \"NFTFractionalization/contracts/src/OpenZeppelin/Tokens/ERC-721/ERC721.sol\":3638:3639  0 */\n      0x00\n        /* \"NFTFractionalization/contracts/src/OpenZeppelin/Tokens/ERC-721/ERC721.sol\":3622:3626  base */\n      dup2\n        /* \"NFTFractionalization/contracts/src/OpenZeppelin/Tokens/ERC-721/ERC721.sol\":3616:3634  bytes(base).length */\n      mload\n        /* \"NFTFractionalization/contracts/src/OpenZeppelin/Tokens/ERC-721/ERC721.sol\":3616:3639  bytes(base).length == 0 */\n      eq\n        /* \"NFTFractionalization/contracts/src/OpenZeppelin/Tokens/ERC-721/ERC721.sol\":3612:3682  if (bytes(base).length == 0) {... */\n      iszero\n      tag_167\n      jumpi\n        /* \"NFTFractionalization/contracts/src/OpenZeppelin/Tokens/ERC-721/ERC721.sol\":3662:3671  _tokenURI */\n      dup2\n        /* \"NFTFractionalization/contracts/src/OpenZeppelin/Tokens/ERC-721/ERC721.sol\":3655:3671  return _tokenURI */\n      swap3\n      pop\n      pop\n      pop\n      jump(tag_156)\n        /* \"NFTFractionalization/contracts/src/OpenZeppelin/Tokens/ERC-721/ERC721.sol\":3612:3682  if (bytes(base).length == 0) {... */\n    tag_167:\n        /* \"NFTFractionalization/contracts/src/OpenZeppelin/Tokens/ERC-721/ERC721.sol\":3810:3811  0 */\n      0x00\n        /* \"NFTFractionalization/contracts/src/OpenZeppelin/Tokens/ERC-721/ERC721.sol\":3790:3799  _tokenURI */\n      dup3\n        /* \"NFTFractionalization/contracts/src/OpenZeppelin/Tokens/ERC-721/ERC721.sol\":3784:3807  bytes(_tokenURI).length */\n      mload\n        /* \"NFTFractionalization/contracts/src/OpenZeppelin/Tokens/ERC-721/ERC721.sol\":3784:3811  bytes(_tokenURI).length > 0 */\n      gt\n        /* \"NFTFractionalization/contracts/src/OpenZeppelin/Tokens/ERC-721/ERC721.sol\":3780:3886  if (bytes(_tokenURI).length > 0) {... */\n      iszero\n      tag_168\n      jumpi\n        /* \"NFTFractionalization/contracts/src/OpenZeppelin/Tokens/ERC-721/ERC721.sol\":3858:3862  base */\n      dup1\n        /* \"NFTFractionalization/contracts/src/OpenZeppelin/Tokens/ERC-721/ERC721.sol\":3864:3873  _tokenURI */\n      dup3\n        /* \"NFTFractionalization/contracts/src/OpenZeppelin/Tokens/ERC-721/ERC721.sol\":3841:3874  abi.encodePacked(base, _tokenURI) */\n      add(0x20, mload(0x40))\n      tag_169\n      swap3\n      swap2\n      swap1\n      tag_170\n      jump\t// in\n    tag_169:\n      mload(0x40)\n      0x20\n      dup2\n      dup4\n      sub\n      sub\n      dup2\n      mstore\n      swap1\n      0x40\n      mstore\n        /* \"NFTFractionalization/contracts/src/OpenZeppelin/Tokens/ERC-721/ERC721.sol\":3827:3875  return string(abi.encodePacked(base, _tokenURI)) */\n      swap3\n      pop\n      pop\n      pop\n      jump(tag_156)\n        /* \"NFTFractionalization/contracts/src/OpenZeppelin/Tokens/ERC-721/ERC721.sol\":3780:3886  if (bytes(_tokenURI).length > 0) {... */\n    tag_168:\n        /* \"NFTFractionalization/contracts/src/OpenZeppelin/Tokens/ERC-721/ERC721.sol\":4016:4020  base */\n      dup1\n        /* \"NFTFractionalization/contracts/src/OpenZeppelin/Tokens/ERC-721/ERC721.sol\":4022:4040  tokenId.toString() */\n      tag_171\n        /* \"NFTFractionalization/contracts/src/OpenZeppelin/Tokens/ERC-721/ERC721.sol\":4022:4029  tokenId */\n      dup6\n        /* \"NFTFractionalization/contracts/src/OpenZeppelin/Tokens/ERC-721/ERC721.sol\":4022:4038  tokenId.toString */\n      tag_172\n        /* \"NFTFractionalization/contracts/src/OpenZeppelin/Tokens/ERC-721/ERC721.sol\":4022:4040  tokenId.toString() */\n      jump\t// in\n    tag_171:\n        /* \"NFTFractionalization/contracts/src/OpenZeppelin/Tokens/ERC-721/ERC721.sol\":3999:4041  abi.encodePacked(base, tokenId.toString()) */\n      add(0x20, mload(0x40))\n      tag_173\n      swap3\n      swap2\n      swap1\n      tag_170\n      jump\t// in\n    tag_173:\n      mload(0x40)\n      0x20\n      dup2\n      dup4\n      sub\n      sub\n      dup2\n      mstore\n      swap1\n      0x40\n      mstore\n        /* \"NFTFractionalization/contracts/src/OpenZeppelin/Tokens/ERC-721/ERC721.sol\":3985:4042  return string(abi.encodePacked(base, tokenId.toString())) */\n      swap3\n      pop\n      pop\n      pop\n        /* \"NFTFractionalization/contracts/src/OpenZeppelin/Tokens/ERC-721/ERC721.sol\":3273:4049  function tokenURI(uint256 tokenId) public view virtual override returns (string memory) {... */\n    tag_156:\n      swap2\n      swap1\n      pop\n      jump\t// out\n        /* \"NFTFractionalization/contracts/src/OpenZeppelin/Tokens/ERC-721/ERC721.sol\":6321:6483  function isApprovedForAll(address owner, address operator) public view virtual override returns (bool) {... */\n    tag_78:\n        /* \"NFTFractionalization/contracts/src/OpenZeppelin/Tokens/ERC-721/ERC721.sol\":6418:6422  bool */\n      0x00\n        /* \"NFTFractionalization/contracts/src/OpenZeppelin/Tokens/ERC-721/ERC721.sol\":6441:6459  _operatorApprovals */\n      0x05\n        /* \"NFTFractionalization/contracts/src/OpenZeppelin/Tokens/ERC-721/ERC721.sol\":6441:6466  _operatorApprovals[owner] */\n      0x00\n        /* \"NFTFractionalization/contracts/src/OpenZeppelin/Tokens/ERC-721/ERC721.sol\":6460:6465  owner */\n      dup5\n        /* \"NFTFractionalization/contracts/src/OpenZeppelin/Tokens/ERC-721/ERC721.sol\":6441:6466  _operatorApprovals[owner] */\n      0xffffffffffffffffffffffffffffffffffffffff\n      and\n      0xffffffffffffffffffffffffffffffffffffffff\n      and\n      dup2\n      mstore\n      0x20\n      add\n      swap1\n      dup2\n      mstore\n      0x20\n      add\n      0x00\n      keccak256\n        /* \"NFTFractionalization/contracts/src/OpenZeppelin/Tokens/ERC-721/ERC721.sol\":6441:6476  _operatorApprovals[owner][operator] */\n      0x00\n        /* \"NFTFractionalization/contracts/src/OpenZeppelin/Tokens/ERC-721/ERC721.sol\":6467:6475  operator */\n      dup4\n        /* \"NFTFractionalization/contracts/src/OpenZeppelin/Tokens/ERC-721/ERC721.sol\":6441:6476  _operatorApprovals[owner][operator] */\n      0xffffffffffffffffffffffffffffffffffffffff\n      and\n      0xffffffffffffffffffffffffffffffffffffffff\n      and\n      dup2\n      mstore\n      0x20\n      add\n      swap1\n      dup2\n      mstore\n      0x20\n      add\n      0x00\n      keccak256\n      0x00\n      swap1\n      sload\n      swap1\n      0x0100\n      exp\n      swap1\n      div\n      0xff\n      and\n        /* \"NFTFractionalization/contracts/src/OpenZeppelin/Tokens/ERC-721/ERC721.sol\":6434:6476  return _operatorApprovals[owner][operator] */\n      swap1\n      pop\n        /* \"NFTFractionalization/contracts/src/OpenZeppelin/Tokens/ERC-721/ERC721.sol\":6321:6483  function isApprovedForAll(address owner, address operator) public view virtual override returns (bool) {... */\n      swap3\n      swap2\n      pop\n      pop\n      jump\t// out\n        /* \"NFTFractionalization/contracts/src/OpenZeppelin/Tokens/ERC-721/ERC721.sol\":8842:8967  function _exists(uint256 tokenId) internal view virtual returns (bool) {... */\n    tag_90:\n        /* \"NFTFractionalization/contracts/src/OpenZeppelin/Tokens/ERC-721/ERC721.sol\":8907:8911  bool */\n      0x00\n        /* \"NFTFractionalization/contracts/src/OpenZeppelin/Tokens/ERC-721/ERC721.sol\":8930:8960  _tokenOwners.contains(tokenId) */\n      tag_176\n        /* \"NFTFractionalization/contracts/src/OpenZeppelin/Tokens/ERC-721/ERC721.sol\":8952:8959  tokenId */\n      dup3\n        /* \"NFTFractionalization/contracts/src/OpenZeppelin/Tokens/ERC-721/ERC721.sol\":8930:8942  _tokenOwners */\n      0x02\n        /* \"NFTFractionalization/contracts/src/OpenZeppelin/Tokens/ERC-721/ERC721.sol\":8930:8951  _tokenOwners.contains */\n      tag_177\n      swap1\n        /* \"NFTFractionalization/contracts/src/OpenZeppelin/Tokens/ERC-721/ERC721.sol\":8930:8960  _tokenOwners.contains(tokenId) */\n      swap2\n      swap1\n      0xffffffff\n      and\n      jump\t// in\n    tag_176:\n        /* \"NFTFractionalization/contracts/src/OpenZeppelin/Tokens/ERC-721/ERC721.sol\":8923:8960  return _tokenOwners.contains(tokenId) */\n      swap1\n      pop\n        /* \"NFTFractionalization/contracts/src/OpenZeppelin/Tokens/ERC-721/ERC721.sol\":8842:8967  function _exists(uint256 tokenId) internal view virtual returns (bool) {... */\n      swap2\n      swap1\n      pop\n      jump\t// out\n        /* \"NFTFractionalization/contracts/src/OpenZeppelin/utils/Context.sol\":822:918  function _msgSender() internal view virtual returns (address) {... */\n    tag_100:\n        /* \"NFTFractionalization/contracts/src/OpenZeppelin/utils/Context.sol\":875:882  address */\n      0x00\n        /* \"NFTFractionalization/contracts/src/OpenZeppelin/utils/Context.sol\":901:911  msg.sender */\n      caller\n        /* \"NFTFractionalization/contracts/src/OpenZeppelin/utils/Context.sol\":894:911  return msg.sender */\n      swap1\n      pop\n        /* \"NFTFractionalization/contracts/src/OpenZeppelin/utils/Context.sol\":822:918  function _msgSender() internal view virtual returns (address) {... */\n      swap1\n      jump\t// out\n        /* \"NFTFractionalization/contracts/src/OpenZeppelin/Tokens/ERC-721/ERC721.sol\":14940:15120  function _approve(address to, uint256 tokenId) private {... */\n    tag_108:\n        /* \"NFTFractionalization/contracts/src/OpenZeppelin/Tokens/ERC-721/ERC721.sol\":15032:15034  to */\n      dup2\n        /* \"NFTFractionalization/contracts/src/OpenZeppelin/Tokens/ERC-721/ERC721.sol\":15005:15020  _tokenApprovals */\n      0x04\n        /* \"NFTFractionalization/contracts/src/OpenZeppelin/Tokens/ERC-721/ERC721.sol\":15005:15029  _tokenApprovals[tokenId] */\n      0x00\n        /* \"NFTFractionalization/contracts/src/OpenZeppelin/Tokens/ERC-721/ERC721.sol\":15021:15028  tokenId */\n      dup4\n        /* \"NFTFractionalization/contracts/src/OpenZeppelin/Tokens/ERC-721/ERC721.sol\":15005:15029  _tokenApprovals[tokenId] */\n      dup2\n      mstore\n      0x20\n      add\n      swap1\n      dup2\n      mstore\n      0x20\n      add\n      0x00\n      keccak256\n      0x00\n        /* \"NFTFractionalization/contracts/src/OpenZeppelin/Tokens/ERC-721/ERC721.sol\":15005:15034  _tokenApprovals[tokenId] = to */\n      0x0100\n      exp\n      dup2\n      sload\n      dup2\n      0xffffffffffffffffffffffffffffffffffffffff\n      mul\n      not\n      and\n      swap1\n      dup4\n      0xffffffffffffffffffffffffffffffffffffffff\n      and\n      mul\n      or\n      swap1\n      sstore\n      pop\n        /* \"NFTFractionalization/contracts/src/OpenZeppelin/Tokens/ERC-721/ERC721.sol\":15087:15094  tokenId */\n      dup1\n        /* \"NFTFractionalization/contracts/src/OpenZeppelin/Tokens/ERC-721/ERC721.sol\":15083:15085  to */\n      dup3\n        /* \"NFTFractionalization/contracts/src/OpenZeppelin/Tokens/ERC-721/ERC721.sol\":15049:15095  Approval(ERC721.ownerOf(tokenId), to, tokenId) */\n      0xffffffffffffffffffffffffffffffffffffffff\n      and\n        /* \"NFTFractionalization/contracts/src/OpenZeppelin/Tokens/ERC-721/ERC721.sol\":15058:15081  ERC721.ownerOf(tokenId) */\n      tag_180\n        /* \"NFTFractionalization/contracts/src/OpenZeppelin/Tokens/ERC-721/ERC721.sol\":15073:15080  tokenId */\n      dup4\n        /* \"NFTFractionalization/contracts/src/OpenZeppelin/Tokens/ERC-721/ERC721.sol\":15058:15072  ERC721.ownerOf */\n      tag_49\n        /* \"NFTFractionalization/contracts/src/OpenZeppelin/Tokens/ERC-721/ERC721.sol\":15058:15081  ERC721.ownerOf(tokenId) */\n      jump\t// in\n    tag_180:\n        /* \"NFTFractionalization/contracts/src/OpenZeppelin/Tokens/ERC-721/ERC721.sol\":15049:15095  Approval(ERC721.ownerOf(tokenId), to, tokenId) */\n      0xffffffffffffffffffffffffffffffffffffffff\n      and\n      0x8c5be1e5ebec7d5bd14f71427d1e84f3dd0314c0f7b2291e5b200ac8c7c3b925\n      mload(0x40)\n      mload(0x40)\n      dup1\n      swap2\n      sub\n      swap1\n      log4\n        /* \"NFTFractionalization/contracts/src/OpenZeppelin/Tokens/ERC-721/ERC721.sol\":14940:15120  function _approve(address to, uint256 tokenId) private {... */\n      pop\n      pop\n      jump\t// out\n        /* \"NFTFractionalization/contracts/src/OpenZeppelin/Tokens/ERC-721/ERC721.sol\":9125:9476  function _isApprovedOrOwner(address spender, uint256 tokenId) internal view virtual returns (bool) {... */\n    tag_112:\n        /* \"NFTFractionalization/contracts/src/OpenZeppelin/Tokens/ERC-721/ERC721.sol\":9218:9222  bool */\n      0x00\n        /* \"NFTFractionalization/contracts/src/OpenZeppelin/Tokens/ERC-721/ERC721.sol\":9242:9258  _exists(tokenId) */\n      tag_182\n        /* \"NFTFractionalization/contracts/src/OpenZeppelin/Tokens/ERC-721/ERC721.sol\":9250:9257  tokenId */\n      dup3\n        /* \"NFTFractionalization/contracts/src/OpenZeppelin/Tokens/ERC-721/ERC721.sol\":9242:9249  _exists */\n      tag_90\n        /* \"NFTFractionalization/contracts/src/OpenZeppelin/Tokens/ERC-721/ERC721.sol\":9242:9258  _exists(tokenId) */\n      jump\t// in\n    tag_182:\n        /* \"NFTFractionalization/contracts/src/OpenZeppelin/Tokens/ERC-721/ERC721.sol\":9234:9307  require(_exists(tokenId), \"ERC721: operator query for nonexistent token\") */\n      tag_183\n      jumpi\n      mload(0x40)\n      0x08c379a000000000000000000000000000000000000000000000000000000000\n      dup2\n      mstore\n      0x04\n      add\n      tag_184\n      swap1\n      tag_185\n      jump\t// in\n    tag_184:\n      mload(0x40)\n      dup1\n      swap2\n      sub\n      swap1\n      revert\n    tag_183:\n        /* \"NFTFractionalization/contracts/src/OpenZeppelin/Tokens/ERC-721/ERC721.sol\":9317:9330  address owner */\n      0x00\n        /* \"NFTFractionalization/contracts/src/OpenZeppelin/Tokens/ERC-721/ERC721.sol\":9333:9356  ERC721.ownerOf(tokenId) */\n      tag_186\n        /* \"NFTFractionalization/contracts/src/OpenZeppelin/Tokens/ERC-721/ERC721.sol\":9348:9355  tokenId */\n      dup4\n        /* \"NFTFractionalization/contracts/src/OpenZeppelin/Tokens/ERC-721/ERC721.sol\":9333:9347  ERC721.ownerOf */\n      tag_49\n        /* \"NFTFractionalization/contracts/src/OpenZeppelin/Tokens/ERC-721/ERC721.sol\":9333:9356  ERC721.ownerOf(tokenId) */\n      jump\t// in\n    tag_186:\n        /* \"NFTFractionalization/contracts/src/OpenZeppelin/Tokens/ERC-721/ERC721.sol\":9317:9356  address owner = ERC721.ownerOf(tokenId) */\n      swap1\n      pop\n        /* \"NFTFractionalization/contracts/src/OpenZeppelin/Tokens/ERC-721/ERC721.sol\":9385:9390  owner */\n      dup1\n        /* \"NFTFractionalization/contracts/src/OpenZeppelin/Tokens/ERC-721/ERC721.sol\":9374:9390  spender == owner */\n      0xffffffffffffffffffffffffffffffffffffffff\n      and\n        /* \"NFTFractionalization/contracts/src/OpenZeppelin/Tokens/ERC-721/ERC721.sol\":9374:9381  spender */\n      dup5\n        /* \"NFTFractionalization/contracts/src/OpenZeppelin/Tokens/ERC-721/ERC721.sol\":9374:9390  spender == owner */\n      0xffffffffffffffffffffffffffffffffffffffff\n      and\n      eq\n        /* \"NFTFractionalization/contracts/src/OpenZeppelin/Tokens/ERC-721/ERC721.sol\":9374:9425  spender == owner || getApproved(tokenId) == spender */\n      dup1\n      tag_187\n      jumpi\n      pop\n        /* \"NFTFractionalization/contracts/src/OpenZeppelin/Tokens/ERC-721/ERC721.sol\":9418:9425  spender */\n      dup4\n        /* \"NFTFractionalization/contracts/src/OpenZeppelin/Tokens/ERC-721/ERC721.sol\":9394:9425  getApproved(tokenId) == spender */\n      0xffffffffffffffffffffffffffffffffffffffff\n      and\n        /* \"NFTFractionalization/contracts/src/OpenZeppelin/Tokens/ERC-721/ERC721.sol\":9394:9414  getApproved(tokenId) */\n      tag_188\n        /* \"NFTFractionalization/contracts/src/OpenZeppelin/Tokens/ERC-721/ERC721.sol\":9406:9413  tokenId */\n      dup5\n        /* \"NFTFractionalization/contracts/src/OpenZeppelin/Tokens/ERC-721/ERC721.sol\":9394:9405  getApproved */\n      tag_33\n        /* \"NFTFractionalization/contracts/src/OpenZeppelin/Tokens/ERC-721/ERC721.sol\":9394:9414  getApproved(tokenId) */\n      jump\t// in\n    tag_188:\n        /* \"NFTFractionalization/contracts/src/OpenZeppelin/Tokens/ERC-721/ERC721.sol\":9394:9425  getApproved(tokenId) == spender */\n      0xffffffffffffffffffffffffffffffffffffffff\n      and\n      eq\n        /* \"NFTFractionalization/contracts/src/OpenZeppelin/Tokens/ERC-721/ERC721.sol\":9374:9425  spender == owner || getApproved(tokenId) == spender */\n    tag_187:\n        /* \"NFTFractionalization/contracts/src/OpenZeppelin/Tokens/ERC-721/ERC721.sol\":9374:9468  spender == owner || getApproved(tokenId) == spender || ERC721.isApprovedForAll(owner, spender) */\n      dup1\n      tag_189\n      jumpi\n      pop\n        /* \"NFTFractionalization/contracts/src/OpenZeppelin/Tokens/ERC-721/ERC721.sol\":9429:9468  ERC721.isApprovedForAll(owner, spender) */\n      tag_190\n        /* \"NFTFractionalization/contracts/src/OpenZeppelin/Tokens/ERC-721/ERC721.sol\":9453:9458  owner */\n      dup2\n        /* \"NFTFractionalization/contracts/src/OpenZeppelin/Tokens/ERC-721/ERC721.sol\":9460:9467  spender */\n      dup6\n        /* \"NFTFractionalization/contracts/src/OpenZeppelin/Tokens/ERC-721/ERC721.sol\":9429:9452  ERC721.isApprovedForAll */\n      tag_78\n        /* \"NFTFractionalization/contracts/src/OpenZeppelin/Tokens/ERC-721/ERC721.sol\":9429:9468  ERC721.isApprovedForAll(owner, spender) */\n      jump\t// in\n    tag_190:\n        /* \"NFTFractionalization/contracts/src/OpenZeppelin/Tokens/ERC-721/ERC721.sol\":9374:9468  spender == owner || getApproved(tokenId) == spender || ERC721.isApprovedForAll(owner, spender) */\n    tag_189:\n        /* \"NFTFractionalization/contracts/src/OpenZeppelin/Tokens/ERC-721/ERC721.sol\":9366:9469  return (spender == owner || getApproved(tokenId) == spender || ERC721.isApprovedForAll(owner, spender)) */\n      swap2\n      pop\n      pop\n        /* \"NFTFractionalization/contracts/src/OpenZeppelin/Tokens/ERC-721/ERC721.sol\":9125:9476  function _isApprovedOrOwner(address spender, uint256 tokenId) internal view virtual returns (bool) {... */\n      swap3\n      swap2\n      pop\n      pop\n      jump\t// out\n        /* \"NFTFractionalization/contracts/src/OpenZeppelin/Tokens/ERC-721/ERC721.sol\":12166:12750  function _transfer(address from, address to, uint256 tokenId) internal virtual {... */\n    tag_117:\n        /* \"NFTFractionalization/contracts/src/OpenZeppelin/Tokens/ERC-721/ERC721.sol\":12290:12294  from */\n      dup3\n        /* \"NFTFractionalization/contracts/src/OpenZeppelin/Tokens/ERC-721/ERC721.sol\":12263:12294  ERC721.ownerOf(tokenId) == from */\n      0xffffffffffffffffffffffffffffffffffffffff\n      and\n        /* \"NFTFractionalization/contracts/src/OpenZeppelin/Tokens/ERC-721/ERC721.sol\":12263:12286  ERC721.ownerOf(tokenId) */\n      tag_192\n        /* \"NFTFractionalization/contracts/src/OpenZeppelin/Tokens/ERC-721/ERC721.sol\":12278:12285  tokenId */\n      dup3\n        /* \"NFTFractionalization/contracts/src/OpenZeppelin/Tokens/ERC-721/ERC721.sol\":12263:12277  ERC721.ownerOf */\n      tag_49\n        /* \"NFTFractionalization/contracts/src/OpenZeppelin/Tokens/ERC-721/ERC721.sol\":12263:12286  ERC721.ownerOf(tokenId) */\n      jump\t// in\n    tag_192:\n        /* \"NFTFractionalization/contracts/src/OpenZeppelin/Tokens/ERC-721/ERC721.sol\":12263:12294  ERC721.ownerOf(tokenId) == from */\n      0xffffffffffffffffffffffffffffffffffffffff\n      and\n      eq\n        /* \"NFTFractionalization/contracts/src/OpenZeppelin/Tokens/ERC-721/ERC721.sol\":12255:12340  require(ERC721.ownerOf(tokenId) == from, \"ERC721: transfer of token that is not own\") */\n      tag_193\n      jumpi\n      mload(0x40)\n      0x08c379a000000000000000000000000000000000000000000000000000000000\n      dup2\n      mstore\n      0x04\n      add\n      tag_194\n      swap1\n      tag_195\n      jump\t// in\n    tag_194:\n      mload(0x40)\n      dup1\n      swap2\n      sub\n      swap1\n      revert\n    tag_193:\n        /* \"NFTFractionalization/contracts/src/OpenZeppelin/Tokens/ERC-721/ERC721.sol\":12390:12391  0 */\n      0x00\n        /* \"NFTFractionalization/contracts/src/OpenZeppelin/Tokens/ERC-721/ERC721.sol\":12376:12392  to != address(0) */\n      0xffffffffffffffffffffffffffffffffffffffff\n      and\n        /* \"NFTFractionalization/contracts/src/OpenZeppelin/Tokens/ERC-721/ERC721.sol\":12376:12378  to */\n      dup3\n        /* \"NFTFractionalization/contracts/src/OpenZeppelin/Tokens/ERC-721/ERC721.sol\":12376:12392  to != address(0) */\n      0xffffffffffffffffffffffffffffffffffffffff\n      and\n      eq\n      iszero\n        /* \"NFTFractionalization/contracts/src/OpenZeppelin/Tokens/ERC-721/ERC721.sol\":12368:12433  require(to != address(0), \"ERC721: transfer to the zero address\") */\n      tag_196\n      jumpi\n      mload(0x40)\n      0x08c379a000000000000000000000000000000000000000000000000000000000\n      dup2\n      mstore\n      0x04\n      add\n      tag_197\n      swap1\n      tag_198\n      jump\t// in\n    tag_197:\n      mload(0x40)\n      dup1\n      swap2\n      sub\n      swap1\n      revert\n    tag_196:\n        /* \"NFTFractionalization/contracts/src/OpenZeppelin/Tokens/ERC-721/ERC721.sol\":12444:12483  _beforeTokenTransfer(from, to, tokenId) */\n      tag_199\n        /* \"NFTFractionalization/contracts/src/OpenZeppelin/Tokens/ERC-721/ERC721.sol\":12465:12469  from */\n      dup4\n        /* \"NFTFractionalization/contracts/src/OpenZeppelin/Tokens/ERC-721/ERC721.sol\":12471:12473  to */\n      dup4\n        /* \"NFTFractionalization/contracts/src/OpenZeppelin/Tokens/ERC-721/ERC721.sol\":12475:12482  tokenId */\n      dup4\n        /* \"NFTFractionalization/contracts/src/OpenZeppelin/Tokens/ERC-721/ERC721.sol\":12444:12464  _beforeTokenTransfer */\n      tag_200\n        /* \"NFTFractionalization/contracts/src/OpenZeppelin/Tokens/ERC-721/ERC721.sol\":12444:12483  _beforeTokenTransfer(from, to, tokenId) */\n      jump\t// in\n    tag_199:\n        /* \"NFTFractionalization/contracts/src/OpenZeppelin/Tokens/ERC-721/ERC721.sol\":12545:12574  _approve(address(0), tokenId) */\n      tag_201\n        /* \"NFTFractionalization/contracts/src/OpenZeppelin/Tokens/ERC-721/ERC721.sol\":12562:12563  0 */\n      0x00\n        /* \"NFTFractionalization/contracts/src/OpenZeppelin/Tokens/ERC-721/ERC721.sol\":12566:12573  tokenId */\n      dup3\n        /* \"NFTFractionalization/contracts/src/OpenZeppelin/Tokens/ERC-721/ERC721.sol\":12545:12553  _approve */\n      tag_108\n        /* \"NFTFractionalization/contracts/src/OpenZeppelin/Tokens/ERC-721/ERC721.sol\":12545:12574  _approve(address(0), tokenId) */\n      jump\t// in\n    tag_201:\n        /* \"NFTFractionalization/contracts/src/OpenZeppelin/Tokens/ERC-721/ERC721.sol\":12585:12620  _holderTokens[from].remove(tokenId) */\n      tag_202\n        /* \"NFTFractionalization/contracts/src/OpenZeppelin/Tokens/ERC-721/ERC721.sol\":12612:12619  tokenId */\n      dup2\n        /* \"NFTFractionalization/contracts/src/OpenZeppelin/Tokens/ERC-721/ERC721.sol\":12585:12598  _holderTokens */\n      0x01\n        /* \"NFTFractionalization/contracts/src/OpenZeppelin/Tokens/ERC-721/ERC721.sol\":12585:12604  _holderTokens[from] */\n      0x00\n        /* \"NFTFractionalization/contracts/src/OpenZeppelin/Tokens/ERC-721/ERC721.sol\":12599:12603  from */\n      dup7\n        /* \"NFTFractionalization/contracts/src/OpenZeppelin/Tokens/ERC-721/ERC721.sol\":12585:12604  _holderTokens[from] */\n      0xffffffffffffffffffffffffffffffffffffffff\n      and\n      0xffffffffffffffffffffffffffffffffffffffff\n      and\n      dup2\n      mstore\n      0x20\n      add\n      swap1\n      dup2\n      mstore\n      0x20\n      add\n      0x00\n      keccak256\n        /* \"NFTFractionalization/contracts/src/OpenZeppelin/Tokens/ERC-721/ERC721.sol\":12585:12611  _holderTokens[from].remove */\n      tag_203\n      swap1\n        /* \"NFTFractionalization/contracts/src/OpenZeppelin/Tokens/ERC-721/ERC721.sol\":12585:12620  _holderTokens[from].remove(tokenId) */\n      swap2\n      swap1\n      0xffffffff\n      and\n      jump\t// in\n    tag_202:\n      pop\n        /* \"NFTFractionalization/contracts/src/OpenZeppelin/Tokens/ERC-721/ERC721.sol\":12630:12660  _holderTokens[to].add(tokenId) */\n      tag_204\n        /* \"NFTFractionalization/contracts/src/OpenZeppelin/Tokens/ERC-721/ERC721.sol\":12652:12659  tokenId */\n      dup2\n        /* \"NFTFractionalization/contracts/src/OpenZeppelin/Tokens/ERC-721/ERC721.sol\":12630:12643  _holderTokens */\n      0x01\n        /* \"NFTFractionalization/contracts/src/OpenZeppelin/Tokens/ERC-721/ERC721.sol\":12630:12647  _holderTokens[to] */\n      0x00\n        /* \"NFTFractionalization/contracts/src/OpenZeppelin/Tokens/ERC-721/ERC721.sol\":12644:12646  to */\n      dup6\n        /* \"NFTFractionalization/contracts/src/OpenZeppelin/Tokens/ERC-721/ERC721.sol\":12630:12647  _holderTokens[to] */\n      0xffffffffffffffffffffffffffffffffffffffff\n      and\n      0xffffffffffffffffffffffffffffffffffffffff\n      and\n      dup2\n      mstore\n      0x20\n      add\n      swap1\n      dup2\n      mstore\n      0x20\n      add\n      0x00\n      keccak256\n        /* \"NFTFractionalization/contracts/src/OpenZeppelin/Tokens/ERC-721/ERC721.sol\":12630:12651  _holderTokens[to].add */\n      tag_205\n      swap1\n        /* \"NFTFractionalization/contracts/src/OpenZeppelin/Tokens/ERC-721/ERC721.sol\":12630:12660  _holderTokens[to].add(tokenId) */\n      swap2\n      swap1\n      0xffffffff\n      and\n      jump\t// in\n    tag_204:\n      pop\n        /* \"NFTFractionalization/contracts/src/OpenZeppelin/Tokens/ERC-721/ERC721.sol\":12671:12700  _tokenOwners.set(tokenId, to) */\n      tag_206\n        /* \"NFTFractionalization/contracts/src/OpenZeppelin/Tokens/ERC-721/ERC721.sol\":12688:12695  tokenId */\n      dup2\n        /* \"NFTFractionalization/contracts/src/OpenZeppelin/Tokens/ERC-721/ERC721.sol\":12697:12699  to */\n      dup4\n        /* \"NFTFractionalization/contracts/src/OpenZeppelin/Tokens/ERC-721/ERC721.sol\":12671:12683  _tokenOwners */\n      0x02\n        /* \"NFTFractionalization/contracts/src/OpenZeppelin/Tokens/ERC-721/ERC721.sol\":12671:12687  _tokenOwners.set */\n      tag_207\n      swap1\n        /* \"NFTFractionalization/contracts/src/OpenZeppelin/Tokens/ERC-721/ERC721.sol\":12671:12700  _tokenOwners.set(tokenId, to) */\n      swap3\n      swap2\n      swap1\n      0xffffffff\n      and\n      jump\t// in\n    tag_206:\n      pop\n        /* \"NFTFractionalization/contracts/src/OpenZeppelin/Tokens/ERC-721/ERC721.sol\":12735:12742  tokenId */\n      dup1\n        /* \"NFTFractionalization/contracts/src/OpenZeppelin/Tokens/ERC-721/ERC721.sol\":12731:12733  to */\n      dup3\n        /* \"NFTFractionalization/contracts/src/OpenZeppelin/Tokens/ERC-721/ERC721.sol\":12716:12743  Transfer(from, to, tokenId) */\n      0xffffffffffffffffffffffffffffffffffffffff\n      and\n        /* \"NFTFractionalization/contracts/src/OpenZeppelin/Tokens/ERC-721/ERC721.sol\":12725:12729  from */\n      dup5\n        /* \"NFTFractionalization/contracts/src/OpenZeppelin/Tokens/ERC-721/ERC721.sol\":12716:12743  Transfer(from, to, tokenId) */\n      0xffffffffffffffffffffffffffffffffffffffff\n      and\n      0xddf252ad1be2c89b69c2b068fc378daa952ba7f163c4a11628f55a4df523b3ef\n      mload(0x40)\n      mload(0x40)\n      dup1\n      swap2\n      sub\n      swap1\n      log4\n        /* \"NFTFractionalization/contracts/src/OpenZeppelin/Tokens/ERC-721/ERC721.sol\":12166:12750  function _transfer(address from, address to, uint256 tokenId) internal virtual {... */\n      pop\n      pop\n      pop\n      jump\t// out\n        /* \"NFTFractionalization/contracts/src/OpenZeppelin/utils/EnumerableMap.sol\":9788:9999  function get(UintToAddressMap storage map, uint256 key, string memory errorMessage) internal view returns (address) {... */\n    tag_122:\n        /* \"NFTFractionalization/contracts/src/OpenZeppelin/utils/EnumerableMap.sol\":9895:9902  address */\n      0x00\n        /* \"NFTFractionalization/contracts/src/OpenZeppelin/utils/EnumerableMap.sol\":9945:9989  _get(map._inner, bytes32(key), errorMessage) */\n      tag_209\n        /* \"NFTFractionalization/contracts/src/OpenZeppelin/utils/EnumerableMap.sol\":9950:9953  map */\n      dup5\n        /* \"NFTFractionalization/contracts/src/OpenZeppelin/utils/EnumerableMap.sol\":9950:9960  map._inner */\n      0x00\n      add\n        /* \"NFTFractionalization/contracts/src/OpenZeppelin/utils/EnumerableMap.sol\":9970:9973  key */\n      dup5\n        /* \"NFTFractionalization/contracts/src/OpenZeppelin/utils/EnumerableMap.sol\":9962:9974  bytes32(key) */\n      0x00\n      shl\n        /* \"NFTFractionalization/contracts/src/OpenZeppelin/utils/EnumerableMap.sol\":9976:9988  errorMessage */\n      dup5\n        /* \"NFTFractionalization/contracts/src/OpenZeppelin/utils/EnumerableMap.sol\":9945:9949  _get */\n      tag_210\n        /* \"NFTFractionalization/contracts/src/OpenZeppelin/utils/EnumerableMap.sol\":9945:9989  _get(map._inner, bytes32(key), errorMessage) */\n      jump\t// in\n    tag_209:\n        /* \"NFTFractionalization/contracts/src/OpenZeppelin/utils/EnumerableMap.sol\":9937:9990  uint256(_get(map._inner, bytes32(key), errorMessage)) */\n      0x00\n      shr\n        /* \"NFTFractionalization/contracts/src/OpenZeppelin/utils/EnumerableMap.sol\":9914:9992  return address(uint160(uint256(_get(map._inner, bytes32(key), errorMessage)))) */\n      swap1\n      pop\n        /* \"NFTFractionalization/contracts/src/OpenZeppelin/utils/EnumerableMap.sol\":9788:9999  function get(UintToAddressMap storage map, uint256 key, string memory errorMessage) internal view returns (address) {... */\n      swap4\n      swap3\n      pop\n      pop\n      pop\n      jump\t// out\n        /* \"NFTFractionalization/contracts/src/OpenZeppelin/utils/EnumerableSet.sol\":9036:9148  function length(UintSet storage set) internal view returns (uint256) {... */\n    tag_134:\n        /* \"NFTFractionalization/contracts/src/OpenZeppelin/utils/EnumerableSet.sol\":9096:9103  uint256 */\n      0x00\n        /* \"NFTFractionalization/contracts/src/OpenZeppelin/utils/EnumerableSet.sol\":9122:9141  _length(set._inner) */\n      tag_212\n        /* \"NFTFractionalization/contracts/src/OpenZeppelin/utils/EnumerableSet.sol\":9130:9133  set */\n      dup3\n        /* \"NFTFractionalization/contracts/src/OpenZeppelin/utils/EnumerableSet.sol\":9130:9140  set._inner */\n      0x00\n      add\n        /* \"NFTFractionalization/contracts/src/OpenZeppelin/utils/EnumerableSet.sol\":9122:9129  _length */\n      tag_213\n        /* \"NFTFractionalization/contracts/src/OpenZeppelin/utils/EnumerableSet.sol\":9122:9141  _length(set._inner) */\n      jump\t// in\n    tag_212:\n        /* \"NFTFractionalization/contracts/src/OpenZeppelin/utils/EnumerableSet.sol\":9115:9141  return _length(set._inner) */\n      swap1\n      pop\n        /* \"NFTFractionalization/contracts/src/OpenZeppelin/utils/EnumerableSet.sol\":9036:9148  function length(UintSet storage set) internal view returns (uint256) {... */\n      swap2\n      swap1\n      pop\n      jump\t// out\n        /* \"NFTFractionalization/contracts/src/OpenZeppelin/Tokens/ERC-721/ERC721.sol\":8270:8539  function _safeTransfer(address from, address to, uint256 tokenId, bytes memory _data) internal virtual {... */\n    tag_155:\n        /* \"NFTFractionalization/contracts/src/OpenZeppelin/Tokens/ERC-721/ERC721.sol\":8383:8411  _transfer(from, to, tokenId) */\n      tag_215\n        /* \"NFTFractionalization/contracts/src/OpenZeppelin/Tokens/ERC-721/ERC721.sol\":8393:8397  from */\n      dup5\n        /* \"NFTFractionalization/contracts/src/OpenZeppelin/Tokens/ERC-721/ERC721.sol\":8399:8401  to */\n      dup5\n        /* \"NFTFractionalization/contracts/src/OpenZeppelin/Tokens/ERC-721/ERC721.sol\":8403:8410  tokenId */\n      dup5\n        /* \"NFTFractionalization/contracts/src/OpenZeppelin/Tokens/ERC-721/ERC721.sol\":8383:8392  _transfer */\n      tag_117\n        /* \"NFTFractionalization/contracts/src/OpenZeppelin/Tokens/ERC-721/ERC721.sol\":8383:8411  _transfer(from, to, tokenId) */\n      jump\t// in\n    tag_215:\n        /* \"NFTFractionalization/contracts/src/OpenZeppelin/Tokens/ERC-721/ERC721.sol\":8429:8477  _checkOnERC721Received(from, to, tokenId, _data) */\n      tag_216\n        /* \"NFTFractionalization/contracts/src/OpenZeppelin/Tokens/ERC-721/ERC721.sol\":8452:8456  from */\n      dup5\n        /* \"NFTFractionalization/contracts/src/OpenZeppelin/Tokens/ERC-721/ERC721.sol\":8458:8460  to */\n      dup5\n        /* \"NFTFractionalization/contracts/src/OpenZeppelin/Tokens/ERC-721/ERC721.sol\":8462:8469  tokenId */\n      dup5\n        /* \"NFTFractionalization/contracts/src/OpenZeppelin/Tokens/ERC-721/ERC721.sol\":8471:8476  _data */\n      dup5\n        /* \"NFTFractionalization/contracts/src/OpenZeppelin/Tokens/ERC-721/ERC721.sol\":8429:8451  _checkOnERC721Received */\n      tag_217\n        /* \"NFTFractionalization/contracts/src/OpenZeppelin/Tokens/ERC-721/ERC721.sol\":8429:8477  _checkOnERC721Received(from, to, tokenId, _data) */\n      jump\t// in\n    tag_216:\n        /* \"NFTFractionalization/contracts/src/OpenZeppelin/Tokens/ERC-721/ERC721.sol\":8421:8532  require(_checkOnERC721Received(from, to, tokenId, _data), \"ERC721: transfer to non ERC721Receiver implementer\") */\n      tag_218\n      jumpi\n      mload(0x40)\n      0x08c379a000000000000000000000000000000000000000000000000000000000\n      dup2\n      mstore\n      0x04\n      add\n      tag_219\n      swap1\n      tag_220\n      jump\t// in\n    tag_219:\n      mload(0x40)\n      dup1\n      swap2\n      sub\n      swap1\n      revert\n    tag_218:\n        /* \"NFTFractionalization/contracts/src/OpenZeppelin/Tokens/ERC-721/ERC721.sol\":8270:8539  function _safeTransfer(address from, address to, uint256 tokenId, bytes memory _data) internal virtual {... */\n      pop\n      pop\n      pop\n      pop\n      jump\t// out\n        /* \"NFTFractionalization/contracts/src/OpenZeppelin/utils/Strings.sol\":503:1206  function toString(uint256 value) internal pure returns (string memory) {... */\n    tag_172:\n        /* \"NFTFractionalization/contracts/src/OpenZeppelin/utils/Strings.sol\":559:572  string memory */\n      0x60\n        /* \"NFTFractionalization/contracts/src/OpenZeppelin/utils/Strings.sol\":785:786  0 */\n      0x00\n        /* \"NFTFractionalization/contracts/src/OpenZeppelin/utils/Strings.sol\":776:781  value */\n      dup3\n        /* \"NFTFractionalization/contracts/src/OpenZeppelin/utils/Strings.sol\":776:786  value == 0 */\n      eq\n        /* \"NFTFractionalization/contracts/src/OpenZeppelin/utils/Strings.sol\":772:823  if (value == 0) {... */\n      iszero\n      tag_222\n      jumpi\n        /* \"NFTFractionalization/contracts/src/OpenZeppelin/utils/Strings.sol\":802:812  return \"0\" */\n      mload(0x40)\n      dup1\n      0x40\n      add\n      0x40\n      mstore\n      dup1\n      0x01\n      dup2\n      mstore\n      0x20\n      add\n      0x3000000000000000000000000000000000000000000000000000000000000000\n      dup2\n      mstore\n      pop\n      swap1\n      pop\n      jump(tag_221)\n        /* \"NFTFractionalization/contracts/src/OpenZeppelin/utils/Strings.sol\":772:823  if (value == 0) {... */\n    tag_222:\n        /* \"NFTFractionalization/contracts/src/OpenZeppelin/utils/Strings.sol\":832:844  uint256 temp */\n      0x00\n        /* \"NFTFractionalization/contracts/src/OpenZeppelin/utils/Strings.sol\":847:852  value */\n      dup3\n        /* \"NFTFractionalization/contracts/src/OpenZeppelin/utils/Strings.sol\":832:852  uint256 temp = value */\n      swap1\n      pop\n        /* \"NFTFractionalization/contracts/src/OpenZeppelin/utils/Strings.sol\":862:876  uint256 digits */\n      0x00\n        /* \"NFTFractionalization/contracts/src/OpenZeppelin/utils/Strings.sol\":886:961  while (temp != 0) {... */\n    tag_223:\n        /* \"NFTFractionalization/contracts/src/OpenZeppelin/utils/Strings.sol\":901:902  0 */\n      0x00\n        /* \"NFTFractionalization/contracts/src/OpenZeppelin/utils/Strings.sol\":893:897  temp */\n      dup3\n        /* \"NFTFractionalization/contracts/src/OpenZeppelin/utils/Strings.sol\":893:902  temp != 0 */\n      eq\n        /* \"NFTFractionalization/contracts/src/OpenZeppelin/utils/Strings.sol\":886:961  while (temp != 0) {... */\n      tag_224\n      jumpi\n        /* \"NFTFractionalization/contracts/src/OpenZeppelin/utils/Strings.sol\":918:926  digits++ */\n      dup1\n      dup1\n      tag_225\n      swap1\n      tag_226\n      jump\t// in\n    tag_225:\n      swap2\n      pop\n      pop\n        /* \"NFTFractionalization/contracts/src/OpenZeppelin/utils/Strings.sol\":948:950  10 */\n      0x0a\n        /* \"NFTFractionalization/contracts/src/OpenZeppelin/utils/Strings.sol\":940:950  temp /= 10 */\n      dup3\n      tag_227\n      swap2\n      swap1\n      tag_228\n      jump\t// in\n    tag_227:\n      swap2\n      pop\n        /* \"NFTFractionalization/contracts/src/OpenZeppelin/utils/Strings.sol\":886:961  while (temp != 0) {... */\n      jump(tag_223)\n    tag_224:\n        /* \"NFTFractionalization/contracts/src/OpenZeppelin/utils/Strings.sol\":970:989  bytes memory buffer */\n      0x00\n        /* \"NFTFractionalization/contracts/src/OpenZeppelin/utils/Strings.sol\":1002:1008  digits */\n      dup2\n        /* \"NFTFractionalization/contracts/src/OpenZeppelin/utils/Strings.sol\":992:1009  new bytes(digits) */\n      0xffffffffffffffff\n      dup2\n      gt\n      iszero\n      tag_229\n      jumpi\n      tag_230\n      tag_231\n      jump\t// in\n    tag_230:\n    tag_229:\n      mload(0x40)\n      swap1\n      dup1\n      dup3\n      mstore\n      dup1\n      0x1f\n      add\n      not(0x1f)\n      and\n      0x20\n      add\n      dup3\n      add\n      0x40\n      mstore\n      dup1\n      iszero\n      tag_232\n      jumpi\n      dup2\n      0x20\n      add\n      0x01\n      dup3\n      mul\n      dup1\n      calldatasize\n      dup4\n      calldatacopy\n      dup1\n      dup3\n      add\n      swap2\n      pop\n      pop\n      swap1\n      pop\n    tag_232:\n      pop\n        /* \"NFTFractionalization/contracts/src/OpenZeppelin/utils/Strings.sol\":970:1009  bytes memory buffer = new bytes(digits) */\n      swap1\n      pop\n        /* \"NFTFractionalization/contracts/src/OpenZeppelin/utils/Strings.sol\":1019:1169  while (value != 0) {... */\n    tag_233:\n        /* \"NFTFractionalization/contracts/src/OpenZeppelin/utils/Strings.sol\":1035:1036  0 */\n      0x00\n        /* \"NFTFractionalization/contracts/src/OpenZeppelin/utils/Strings.sol\":1026:1031  value */\n      dup6\n        /* \"NFTFractionalization/contracts/src/OpenZeppelin/utils/Strings.sol\":1026:1036  value != 0 */\n      eq\n        /* \"NFTFractionalization/contracts/src/OpenZeppelin/utils/Strings.sol\":1019:1169  while (value != 0) {... */\n      tag_234\n      jumpi\n        /* \"NFTFractionalization/contracts/src/OpenZeppelin/utils/Strings.sol\":1062:1063  1 */\n      0x01\n        /* \"NFTFractionalization/contracts/src/OpenZeppelin/utils/Strings.sol\":1052:1063  digits -= 1 */\n      dup3\n      tag_235\n      swap2\n      swap1\n      tag_236\n      jump\t// in\n    tag_235:\n      swap2\n      pop\n        /* \"NFTFractionalization/contracts/src/OpenZeppelin/utils/Strings.sol\":1128:1130  10 */\n      0x0a\n        /* \"NFTFractionalization/contracts/src/OpenZeppelin/utils/Strings.sol\":1120:1125  value */\n      dup6\n        /* \"NFTFractionalization/contracts/src/OpenZeppelin/utils/Strings.sol\":1120:1130  value % 10 */\n      tag_237\n      swap2\n      swap1\n      tag_238\n      jump\t// in\n    tag_237:\n        /* \"NFTFractionalization/contracts/src/OpenZeppelin/utils/Strings.sol\":1107:1109  48 */\n      0x30\n        /* \"NFTFractionalization/contracts/src/OpenZeppelin/utils/Strings.sol\":1107:1131  48 + uint256(value % 10) */\n      tag_239\n      swap2\n      swap1\n      tag_240\n      jump\t// in\n    tag_239:\n        /* \"NFTFractionalization/contracts/src/OpenZeppelin/utils/Strings.sol\":1094:1133  bytes1(uint8(48 + uint256(value % 10))) */\n      0xf8\n      shl\n        /* \"NFTFractionalization/contracts/src/OpenZeppelin/utils/Strings.sol\":1077:1083  buffer */\n      dup2\n        /* \"NFTFractionalization/contracts/src/OpenZeppelin/utils/Strings.sol\":1084:1090  digits */\n      dup4\n        /* \"NFTFractionalization/contracts/src/OpenZeppelin/utils/Strings.sol\":1077:1091  buffer[digits] */\n      dup2\n      mload\n      dup2\n      lt\n      tag_241\n      jumpi\n      tag_242\n      tag_243\n      jump\t// in\n    tag_242:\n    tag_241:\n      0x20\n      add\n      add\n        /* \"NFTFractionalization/contracts/src/OpenZeppelin/utils/Strings.sol\":1077:1133  buffer[digits] = bytes1(uint8(48 + uint256(value % 10))) */\n      swap1\n      not(0xffffffffffffffffffffffffffffffffffffffffffffffffffffffffffffff)\n      and\n      swap1\n      dup2\n      0x00\n      byte\n      swap1\n      mstore8\n      pop\n        /* \"NFTFractionalization/contracts/src/OpenZeppelin/utils/Strings.sol\":1156:1158  10 */\n      0x0a\n        /* \"NFTFractionalization/contracts/src/OpenZeppelin/utils/Strings.sol\":1147:1158  value /= 10 */\n      dup6\n      tag_244\n      swap2\n      swap1\n      tag_228\n      jump\t// in\n    tag_244:\n      swap5\n      pop\n        /* \"NFTFractionalization/contracts/src/OpenZeppelin/utils/Strings.sol\":1019:1169  while (value != 0) {... */\n      jump(tag_233)\n    tag_234:\n        /* \"NFTFractionalization/contracts/src/OpenZeppelin/utils/Strings.sol\":1192:1198  buffer */\n      dup1\n        /* \"NFTFractionalization/contracts/src/OpenZeppelin/utils/Strings.sol\":1178:1199  return string(buffer) */\n      swap4\n      pop\n      pop\n      pop\n      pop\n        /* \"NFTFractionalization/contracts/src/OpenZeppelin/utils/Strings.sol\":503:1206  function toString(uint256 value) internal pure returns (string memory) {... */\n    tag_221:\n      swap2\n      swap1\n      pop\n      jump\t// out\n        /* \"NFTFractionalization/contracts/src/OpenZeppelin/utils/EnumerableMap.sol\":7833:7982  function contains(UintToAddressMap storage map, uint256 key) internal view returns (bool) {... */\n    tag_177:\n        /* \"NFTFractionalization/contracts/src/OpenZeppelin/utils/EnumerableMap.sol\":7917:7921  bool */\n      0x00\n        /* \"NFTFractionalization/contracts/src/OpenZeppelin/utils/EnumerableMap.sol\":7940:7975  _contains(map._inner, bytes32(key)) */\n      tag_246\n        /* \"NFTFractionalization/contracts/src/OpenZeppelin/utils/EnumerableMap.sol\":7950:7953  map */\n      dup4\n        /* \"NFTFractionalization/contracts/src/OpenZeppelin/utils/EnumerableMap.sol\":7950:7960  map._inner */\n      0x00\n      add\n        /* \"NFTFractionalization/contracts/src/OpenZeppelin/utils/EnumerableMap.sol\":7970:7973  key */\n      dup4\n        /* \"NFTFractionalization/contracts/src/OpenZeppelin/utils/EnumerableMap.sol\":7962:7974  bytes32(key) */\n      0x00\n      shl\n        /* \"NFTFractionalization/contracts/src/OpenZeppelin/utils/EnumerableMap.sol\":7940:7949  _contains */\n      tag_247\n        /* \"NFTFractionalization/contracts/src/OpenZeppelin/utils/EnumerableMap.sol\":7940:7975  _contains(map._inner, bytes32(key)) */\n      jump\t// in\n    tag_246:\n        /* \"NFTFractionalization/contracts/src/OpenZeppelin/utils/EnumerableMap.sol\":7933:7975  return _contains(map._inner, bytes32(key)) */\n      swap1\n      pop\n        /* \"NFTFractionalization/contracts/src/OpenZeppelin/utils/EnumerableMap.sol\":7833:7982  function contains(UintToAddressMap storage map, uint256 key) internal view returns (bool) {... */\n      swap3\n      swap2\n      pop\n      pop\n      jump\t// out\n        /* \"NFTFractionalization/contracts/src/OpenZeppelin/Tokens/ERC-721/ERC721.sol\":15716:15809  function _beforeTokenTransfer(address from, address to, uint256 tokenId) internal virtual { } */\n    tag_200:\n      pop\n      pop\n      pop\n      jump\t// out\n        /* \"NFTFractionalization/contracts/src/OpenZeppelin/utils/EnumerableSet.sol\":8595:8730  function remove(UintSet storage set, uint256 value) internal returns (bool) {... */\n    tag_203:\n        /* \"NFTFractionalization/contracts/src/OpenZeppelin/utils/EnumerableSet.sol\":8665:8669  bool */\n      0x00\n        /* \"NFTFractionalization/contracts/src/OpenZeppelin/utils/EnumerableSet.sol\":8688:8723  _remove(set._inner, bytes32(value)) */\n      tag_250\n        /* \"NFTFractionalization/contracts/src/OpenZeppelin/utils/EnumerableSet.sol\":8696:8699  set */\n      dup4\n        /* \"NFTFractionalization/contracts/src/OpenZeppelin/utils/EnumerableSet.sol\":8696:8706  set._inner */\n      0x00\n      add\n        /* \"NFTFractionalization/contracts/src/OpenZeppelin/utils/EnumerableSet.sol\":8716:8721  value */\n      dup4\n        /* \"NFTFractionalization/contracts/src/OpenZeppelin/utils/EnumerableSet.sol\":8708:8722  bytes32(value) */\n      0x00\n      shl\n        /* \"NFTFractionalization/contracts/src/OpenZeppelin/utils/EnumerableSet.sol\":8688:8695  _remove */\n      tag_251\n        /* \"NFTFractionalization/contracts/src/OpenZeppelin/utils/EnumerableSet.sol\":8688:8723  _remove(set._inner, bytes32(value)) */\n      jump\t// in\n    tag_250:\n        /* \"NFTFractionalization/contracts/src/OpenZeppelin/utils/EnumerableSet.sol\":8681:8723  return _remove(set._inner, bytes32(value)) */\n      swap1\n      pop\n        /* \"NFTFractionalization/contracts/src/OpenZeppelin/utils/EnumerableSet.sol\":8595:8730  function remove(UintSet storage set, uint256 value) internal returns (bool) {... */\n      swap3\n      swap2\n      pop\n      pop\n      jump\t// out\n        /* \"NFTFractionalization/contracts/src/OpenZeppelin/utils/EnumerableSet.sol\":8298:8427  function add(UintSet storage set, uint256 value) internal returns (bool) {... */\n    tag_205:\n        /* \"NFTFractionalization/contracts/src/OpenZeppelin/utils/EnumerableSet.sol\":8365:8369  bool */\n      0x00\n        /* \"NFTFractionalization/contracts/src/OpenZeppelin/utils/EnumerableSet.sol\":8388:8420  _add(set._inner, bytes32(value)) */\n      tag_253\n        /* \"NFTFractionalization/contracts/src/OpenZeppelin/utils/EnumerableSet.sol\":8393:8396  set */\n      dup4\n        /* \"NFTFractionalization/contracts/src/OpenZeppelin/utils/EnumerableSet.sol\":8393:8403  set._inner */\n      0x00\n      add\n        /* \"NFTFractionalization/contracts/src/OpenZeppelin/utils/EnumerableSet.sol\":8413:8418  value */\n      dup4\n        /* \"NFTFractionalization/contracts/src/OpenZeppelin/utils/EnumerableSet.sol\":8405:8419  bytes32(value) */\n      0x00\n      shl\n        /* \"NFTFractionalization/contracts/src/OpenZeppelin/utils/EnumerableSet.sol\":8388:8392  _add */\n      tag_254\n        /* \"NFTFractionalization/contracts/src/OpenZeppelin/utils/EnumerableSet.sol\":8388:8420  _add(set._inner, bytes32(value)) */\n      jump\t// in\n    tag_253:\n        /* \"NFTFractionalization/contracts/src/OpenZeppelin/utils/EnumerableSet.sol\":8381:8420  return _add(set._inner, bytes32(value)) */\n      swap1\n      pop\n        /* \"NFTFractionalization/contracts/src/OpenZeppelin/utils/EnumerableSet.sol\":8298:8427  function add(UintSet storage set, uint256 value) internal returns (bool) {... */\n      swap3\n      swap2\n      pop\n      pop\n      jump\t// out\n        /* \"NFTFractionalization/contracts/src/OpenZeppelin/utils/EnumerableMap.sol\":7272:7455  function set(UintToAddressMap storage map, uint256 key, address value) internal returns (bool) {... */\n    tag_207:\n        /* \"NFTFractionalization/contracts/src/OpenZeppelin/utils/EnumerableMap.sol\":7361:7365  bool */\n      0x00\n        /* \"NFTFractionalization/contracts/src/OpenZeppelin/utils/EnumerableMap.sol\":7384:7448  _set(map._inner, bytes32(key), bytes32(uint256(uint160(value)))) */\n      tag_256\n        /* \"NFTFractionalization/contracts/src/OpenZeppelin/utils/EnumerableMap.sol\":7389:7392  map */\n      dup5\n        /* \"NFTFractionalization/contracts/src/OpenZeppelin/utils/EnumerableMap.sol\":7389:7399  map._inner */\n      0x00\n      add\n        /* \"NFTFractionalization/contracts/src/OpenZeppelin/utils/EnumerableMap.sol\":7409:7412  key */\n      dup5\n        /* \"NFTFractionalization/contracts/src/OpenZeppelin/utils/EnumerableMap.sol\":7401:7413  bytes32(key) */\n      0x00\n      shl\n        /* \"NFTFractionalization/contracts/src/OpenZeppelin/utils/EnumerableMap.sol\":7439:7444  value */\n      dup5\n        /* \"NFTFractionalization/contracts/src/OpenZeppelin/utils/EnumerableMap.sol\":7423:7446  uint256(uint160(value)) */\n      0xffffffffffffffffffffffffffffffffffffffff\n      and\n        /* \"NFTFractionalization/contracts/src/OpenZeppelin/utils/EnumerableMap.sol\":7415:7447  bytes32(uint256(uint160(value))) */\n      0x00\n      shl\n        /* \"NFTFractionalization/contracts/src/OpenZeppelin/utils/EnumerableMap.sol\":7384:7388  _set */\n      tag_257\n        /* \"NFTFractionalization/contracts/src/OpenZeppelin/utils/EnumerableMap.sol\":7384:7448  _set(map._inner, bytes32(key), bytes32(uint256(uint160(value)))) */\n      jump\t// in\n    tag_256:\n        /* \"NFTFractionalization/contracts/src/OpenZeppelin/utils/EnumerableMap.sol\":7377:7448  return _set(map._inner, bytes32(key), bytes32(uint256(uint160(value)))) */\n      swap1\n      pop\n        /* \"NFTFractionalization/contracts/src/OpenZeppelin/utils/EnumerableMap.sol\":7272:7455  function set(UintToAddressMap storage map, uint256 key, address value) internal returns (bool) {... */\n      swap4\n      swap3\n      pop\n      pop\n      pop\n      jump\t// out\n        /* \"NFTFractionalization/contracts/src/OpenZeppelin/utils/EnumerableMap.sol\":6648:6963  function _get(Map storage map, bytes32 key, string memory errorMessage) private view returns (bytes32) {... */\n    tag_210:\n        /* \"NFTFractionalization/contracts/src/OpenZeppelin/utils/EnumerableMap.sol\":6742:6749  bytes32 */\n      0x00\n        /* \"NFTFractionalization/contracts/src/OpenZeppelin/utils/EnumerableMap.sol\":6761:6777  uint256 keyIndex */\n      dup1\n        /* \"NFTFractionalization/contracts/src/OpenZeppelin/utils/EnumerableMap.sol\":6780:6783  map */\n      dup5\n        /* \"NFTFractionalization/contracts/src/OpenZeppelin/utils/EnumerableMap.sol\":6780:6792  map._indexes */\n      0x01\n      add\n        /* \"NFTFractionalization/contracts/src/OpenZeppelin/utils/EnumerableMap.sol\":6780:6797  map._indexes[key] */\n      0x00\n        /* \"NFTFractionalization/contracts/src/OpenZeppelin/utils/EnumerableMap.sol\":6793:6796  key */\n      dup6\n        /* \"NFTFractionalization/contracts/src/OpenZeppelin/utils/EnumerableMap.sol\":6780:6797  map._indexes[key] */\n      dup2\n      mstore\n      0x20\n      add\n      swap1\n      dup2\n      mstore\n      0x20\n      add\n      0x00\n      keccak256\n      sload\n        /* \"NFTFractionalization/contracts/src/OpenZeppelin/utils/EnumerableMap.sol\":6761:6797  uint256 keyIndex = map._indexes[key] */\n      swap1\n      pop\n        /* \"NFTFractionalization/contracts/src/OpenZeppelin/utils/EnumerableMap.sol\":6827:6828  0 */\n      0x00\n        /* \"NFTFractionalization/contracts/src/OpenZeppelin/utils/EnumerableMap.sol\":6815:6823  keyIndex */\n      dup2\n        /* \"NFTFractionalization/contracts/src/OpenZeppelin/utils/EnumerableMap.sol\":6815:6828  keyIndex != 0 */\n      eq\n      iszero\n        /* \"NFTFractionalization/contracts/src/OpenZeppelin/utils/EnumerableMap.sol\":6830:6842  errorMessage */\n      dup4\n        /* \"NFTFractionalization/contracts/src/OpenZeppelin/utils/EnumerableMap.sol\":6807:6843  require(keyIndex != 0, errorMessage) */\n      swap1\n      tag_259\n      jumpi\n      mload(0x40)\n      0x08c379a000000000000000000000000000000000000000000000000000000000\n      dup2\n      mstore\n      0x04\n      add\n      tag_260\n      swap2\n      swap1\n      tag_29\n      jump\t// in\n    tag_260:\n      mload(0x40)\n      dup1\n      swap2\n      sub\n      swap1\n      revert\n    tag_259:\n      pop\n        /* \"NFTFractionalization/contracts/src/OpenZeppelin/utils/EnumerableMap.sol\":6896:6899  map */\n      dup5\n        /* \"NFTFractionalization/contracts/src/OpenZeppelin/utils/EnumerableMap.sol\":6896:6908  map._entries */\n      0x00\n      add\n        /* \"NFTFractionalization/contracts/src/OpenZeppelin/utils/EnumerableMap.sol\":6920:6921  1 */\n      0x01\n        /* \"NFTFractionalization/contracts/src/OpenZeppelin/utils/EnumerableMap.sol\":6909:6917  keyIndex */\n      dup3\n        /* \"NFTFractionalization/contracts/src/OpenZeppelin/utils/EnumerableMap.sol\":6909:6921  keyIndex - 1 */\n      tag_261\n      swap2\n      swap1\n      tag_236\n      jump\t// in\n    tag_261:\n        /* \"NFTFractionalization/contracts/src/OpenZeppelin/utils/EnumerableMap.sol\":6896:6922  map._entries[keyIndex - 1] */\n      dup2\n      sload\n      dup2\n      lt\n      tag_262\n      jumpi\n      tag_263\n      tag_243\n      jump\t// in\n    tag_263:\n    tag_262:\n      swap1\n      0x00\n      mstore\n      keccak256(0x00, 0x20)\n      swap1\n      0x02\n      mul\n      add\n        /* \"NFTFractionalization/contracts/src/OpenZeppelin/utils/EnumerableMap.sol\":6896:6929  map._entries[keyIndex - 1]._value */\n      0x01\n      add\n      sload\n        /* \"NFTFractionalization/contracts/src/OpenZeppelin/utils/EnumerableMap.sol\":6889:6929  return map._entries[keyIndex - 1]._value */\n      swap2\n      pop\n      pop\n        /* \"NFTFractionalization/contracts/src/OpenZeppelin/utils/EnumerableMap.sol\":6648:6963  function _get(Map storage map, bytes32 key, string memory errorMessage) private view returns (bytes32) {... */\n      swap4\n      swap3\n      pop\n      pop\n      pop\n      jump\t// out\n        /* \"NFTFractionalization/contracts/src/OpenZeppelin/utils/EnumerableSet.sol\":4243:4350  function _length(Set storage set) private view returns (uint256) {... */\n    tag_213:\n        /* \"NFTFractionalization/contracts/src/OpenZeppelin/utils/EnumerableSet.sol\":4299:4306  uint256 */\n      0x00\n        /* \"NFTFractionalization/contracts/src/OpenZeppelin/utils/EnumerableSet.sol\":4325:4328  set */\n      dup2\n        /* \"NFTFractionalization/contracts/src/OpenZeppelin/utils/EnumerableSet.sol\":4325:4336  set._values */\n      0x00\n      add\n        /* \"NFTFractionalization/contracts/src/OpenZeppelin/utils/EnumerableSet.sol\":4325:4343  set._values.length */\n      dup1\n      sload\n      swap1\n      pop\n        /* \"NFTFractionalization/contracts/src/OpenZeppelin/utils/EnumerableSet.sol\":4318:4343  return set._values.length */\n      swap1\n      pop\n        /* \"NFTFractionalization/contracts/src/OpenZeppelin/utils/EnumerableSet.sol\":4243:4350  function _length(Set storage set) private view returns (uint256) {... */\n      swap2\n      swap1\n      pop\n      jump\t// out\n        /* \"NFTFractionalization/contracts/src/OpenZeppelin/Tokens/ERC-721/ERC721.sol\":14110:14934  function _checkOnERC721Received(address from, address to, uint256 tokenId, bytes memory _data)... */\n    tag_217:\n        /* \"NFTFractionalization/contracts/src/OpenZeppelin/Tokens/ERC-721/ERC721.sol\":14230:14234  bool */\n      0x00\n        /* \"NFTFractionalization/contracts/src/OpenZeppelin/Tokens/ERC-721/ERC721.sol\":14254:14269  to.isContract() */\n      tag_267\n        /* \"NFTFractionalization/contracts/src/OpenZeppelin/Tokens/ERC-721/ERC721.sol\":14254:14256  to */\n      dup5\n        /* \"NFTFractionalization/contracts/src/OpenZeppelin/Tokens/ERC-721/ERC721.sol\":14254:14267  to.isContract */\n      0xffffffffffffffffffffffffffffffffffffffff\n      and\n      tag_268\n        /* \"NFTFractionalization/contracts/src/OpenZeppelin/Tokens/ERC-721/ERC721.sol\":14254:14269  to.isContract() */\n      jump\t// in\n    tag_267:\n        /* \"NFTFractionalization/contracts/src/OpenZeppelin/Tokens/ERC-721/ERC721.sol\":14250:14928  if (to.isContract()) {... */\n      iszero\n      tag_269\n      jumpi\n        /* \"NFTFractionalization/contracts/src/OpenZeppelin/Tokens/ERC-721/ERC721.sol\":14305:14307  to */\n      dup4\n        /* \"NFTFractionalization/contracts/src/OpenZeppelin/Tokens/ERC-721/ERC721.sol\":14289:14325  IERC721Receiver(to).onERC721Received */\n      0xffffffffffffffffffffffffffffffffffffffff\n      and\n      0x150b7a02\n        /* \"NFTFractionalization/contracts/src/OpenZeppelin/Tokens/ERC-721/ERC721.sol\":14326:14338  _msgSender() */\n      tag_270\n        /* \"NFTFractionalization/contracts/src/OpenZeppelin/Tokens/ERC-721/ERC721.sol\":14326:14336  _msgSender */\n      tag_100\n        /* \"NFTFractionalization/contracts/src/OpenZeppelin/Tokens/ERC-721/ERC721.sol\":14326:14338  _msgSender() */\n      jump\t// in\n    tag_270:\n        /* \"NFTFractionalization/contracts/src/OpenZeppelin/Tokens/ERC-721/ERC721.sol\":14340:14344  from */\n      dup8\n        /* \"NFTFractionalization/contracts/src/OpenZeppelin/Tokens/ERC-721/ERC721.sol\":14346:14353  tokenId */\n      dup7\n        /* \"NFTFractionalization/contracts/src/OpenZeppelin/Tokens/ERC-721/ERC721.sol\":14355:14360  _data */\n      dup7\n        /* \"NFTFractionalization/contracts/src/OpenZeppelin/Tokens/ERC-721/ERC721.sol\":14289:14361  IERC721Receiver(to).onERC721Received(_msgSender(), from, tokenId, _data) */\n      mload(0x40)\n      dup6\n      0xffffffff\n      and\n      0xe0\n      shl\n      dup2\n      mstore\n      0x04\n      add\n      tag_271\n      swap5\n      swap4\n      swap3\n      swap2\n      swap1\n      tag_272\n      jump\t// in\n    tag_271:\n      0x20\n      mload(0x40)\n      dup1\n      dup4\n      sub\n      dup2\n      0x00\n      dup8\n      dup1\n      extcodesize\n      iszero\n      dup1\n      iszero\n      tag_273\n      jumpi\n      0x00\n      dup1\n      revert\n    tag_273:\n      pop\n      gas\n      call\n      swap3\n      pop\n      pop\n      pop\n      dup1\n      iszero\n      tag_274\n      jumpi\n      pop\n      mload(0x40)\n      returndatasize\n      not(0x1f)\n      0x1f\n      dup3\n      add\n      and\n      dup3\n      add\n      dup1\n      0x40\n      mstore\n      pop\n      dup2\n      add\n      swap1\n      tag_275\n      swap2\n      swap1\n      tag_276\n      jump\t// in\n    tag_275:\n      0x01\n    tag_274:\n        /* \"NFTFractionalization/contracts/src/OpenZeppelin/Tokens/ERC-721/ERC721.sol\":14285:14876  try IERC721Receiver(to).onERC721Received(_msgSender(), from, tokenId, _data) returns (bytes4 retval) {... */\n      tag_277\n      jumpi\n      returndatasize\n      dup1\n      0x00\n      dup2\n      eq\n      tag_282\n      jumpi\n      mload(0x40)\n      swap2\n      pop\n      and(add(returndatasize, 0x3f), not(0x1f))\n      dup3\n      add\n      0x40\n      mstore\n      returndatasize\n      dup3\n      mstore\n      returndatasize\n      0x00\n      0x20\n      dup5\n      add\n      returndatacopy\n      jump(tag_281)\n    tag_282:\n      0x60\n      swap2\n      pop\n    tag_281:\n      pop\n        /* \"NFTFractionalization/contracts/src/OpenZeppelin/Tokens/ERC-721/ERC721.sol\":14549:14550  0 */\n      0x00\n        /* \"NFTFractionalization/contracts/src/OpenZeppelin/Tokens/ERC-721/ERC721.sol\":14532:14538  reason */\n      dup2\n        /* \"NFTFractionalization/contracts/src/OpenZeppelin/Tokens/ERC-721/ERC721.sol\":14532:14545  reason.length */\n      mload\n        /* \"NFTFractionalization/contracts/src/OpenZeppelin/Tokens/ERC-721/ERC721.sol\":14532:14550  reason.length == 0 */\n      eq\n        /* \"NFTFractionalization/contracts/src/OpenZeppelin/Tokens/ERC-721/ERC721.sol\":14528:14862  if (reason.length == 0) {... */\n      iszero\n      tag_283\n      jumpi\n        /* \"NFTFractionalization/contracts/src/OpenZeppelin/Tokens/ERC-721/ERC721.sol\":14574:14634  revert(\"ERC721: transfer to non ERC721Receiver implementer\") */\n      mload(0x40)\n      0x08c379a000000000000000000000000000000000000000000000000000000000\n      dup2\n      mstore\n      0x04\n      add\n      tag_284\n      swap1\n      tag_220\n      jump\t// in\n    tag_284:\n      mload(0x40)\n      dup1\n      swap2\n      sub\n      swap1\n      revert\n        /* \"NFTFractionalization/contracts/src/OpenZeppelin/Tokens/ERC-721/ERC721.sol\":14528:14862  if (reason.length == 0) {... */\n    tag_283:\n        /* \"NFTFractionalization/contracts/src/OpenZeppelin/Tokens/ERC-721/ERC721.sol\":14814:14820  reason */\n      dup1\n        /* \"NFTFractionalization/contracts/src/OpenZeppelin/Tokens/ERC-721/ERC721.sol\":14808:14821  mload(reason) */\n      mload\n        /* \"NFTFractionalization/contracts/src/OpenZeppelin/Tokens/ERC-721/ERC721.sol\":14799:14805  reason */\n      dup2\n        /* \"NFTFractionalization/contracts/src/OpenZeppelin/Tokens/ERC-721/ERC721.sol\":14795:14797  32 */\n      0x20\n        /* \"NFTFractionalization/contracts/src/OpenZeppelin/Tokens/ERC-721/ERC721.sol\":14791:14806  add(32, reason) */\n      add\n        /* \"NFTFractionalization/contracts/src/OpenZeppelin/Tokens/ERC-721/ERC721.sol\":14784:14822  revert(add(32, reason), mload(reason)) */\n      revert\n        /* \"NFTFractionalization/contracts/src/OpenZeppelin/Tokens/ERC-721/ERC721.sol\":14285:14876  try IERC721Receiver(to).onERC721Received(_msgSender(), from, tokenId, _data) returns (bytes4 retval) {... */\n    tag_277:\n        /* \"NFTFractionalization/contracts/src/OpenZeppelin/Tokens/ERC-721/ERC721.sol\":14421:14466  IERC721Receiver(to).onERC721Received.selector */\n      shl(0xe0, 0x150b7a02)\n        /* \"NFTFractionalization/contracts/src/OpenZeppelin/Tokens/ERC-721/ERC721.sol\":14411:14466  retval == IERC721Receiver(to).onERC721Received.selector */\n      not(0xffffffffffffffffffffffffffffffffffffffffffffffffffffffff)\n      and\n        /* \"NFTFractionalization/contracts/src/OpenZeppelin/Tokens/ERC-721/ERC721.sol\":14411:14417  retval */\n      dup2\n        /* \"NFTFractionalization/contracts/src/OpenZeppelin/Tokens/ERC-721/ERC721.sol\":14411:14466  retval == IERC721Receiver(to).onERC721Received.selector */\n      not(0xffffffffffffffffffffffffffffffffffffffffffffffffffffffff)\n      and\n      eq\n        /* \"NFTFractionalization/contracts/src/OpenZeppelin/Tokens/ERC-721/ERC721.sol\":14404:14466  return retval == IERC721Receiver(to).onERC721Received.selector */\n      swap2\n      pop\n      pop\n      jump(tag_266)\n        /* \"NFTFractionalization/contracts/src/OpenZeppelin/Tokens/ERC-721/ERC721.sol\":14250:14928  if (to.isContract()) {... */\n    tag_269:\n        /* \"NFTFractionalization/contracts/src/OpenZeppelin/Tokens/ERC-721/ERC721.sol\":14913:14917  true */\n      0x01\n        /* \"NFTFractionalization/contracts/src/OpenZeppelin/Tokens/ERC-721/ERC721.sol\":14906:14917  return true */\n      swap1\n      pop\n        /* \"NFTFractionalization/contracts/src/OpenZeppelin/Tokens/ERC-721/ERC721.sol\":14110:14934  function _checkOnERC721Received(address from, address to, uint256 tokenId, bytes memory _data)... */\n    tag_266:\n      swap5\n      swap4\n      pop\n      pop\n      pop\n      pop\n      jump\t// out\n        /* \"NFTFractionalization/contracts/src/OpenZeppelin/utils/EnumerableMap.sol\":4508:4631  function _contains(Map storage map, bytes32 key) private view returns (bool) {... */\n    tag_247:\n        /* \"NFTFractionalization/contracts/src/OpenZeppelin/utils/EnumerableMap.sol\":4579:4583  bool */\n      0x00\n        /* \"NFTFractionalization/contracts/src/OpenZeppelin/utils/EnumerableMap.sol\":4623:4624  0 */\n      dup1\n        /* \"NFTFractionalization/contracts/src/OpenZeppelin/utils/EnumerableMap.sol\":4602:4605  map */\n      dup4\n        /* \"NFTFractionalization/contracts/src/OpenZeppelin/utils/EnumerableMap.sol\":4602:4614  map._indexes */\n      0x01\n      add\n        /* \"NFTFractionalization/contracts/src/OpenZeppelin/utils/EnumerableMap.sol\":4602:4619  map._indexes[key] */\n      0x00\n        /* \"NFTFractionalization/contracts/src/OpenZeppelin/utils/EnumerableMap.sol\":4615:4618  key */\n      dup5\n        /* \"NFTFractionalization/contracts/src/OpenZeppelin/utils/EnumerableMap.sol\":4602:4619  map._indexes[key] */\n      dup2\n      mstore\n      0x20\n      add\n      swap1\n      dup2\n      mstore\n      0x20\n      add\n      0x00\n      keccak256\n      sload\n        /* \"NFTFractionalization/contracts/src/OpenZeppelin/utils/EnumerableMap.sol\":4602:4624  map._indexes[key] != 0 */\n      eq\n      iszero\n        /* \"NFTFractionalization/contracts/src/OpenZeppelin/utils/EnumerableMap.sol\":4595:4624  return map._indexes[key] != 0 */\n      swap1\n      pop\n        /* \"NFTFractionalization/contracts/src/OpenZeppelin/utils/EnumerableMap.sol\":4508:4631  function _contains(Map storage map, bytes32 key) private view returns (bool) {... */\n      swap3\n      swap2\n      pop\n      pop\n      jump\t// out\n        /* \"NFTFractionalization/contracts/src/OpenZeppelin/utils/EnumerableSet.sol\":2442:3954  function _remove(Set storage set, bytes32 value) private returns (bool) {... */\n    tag_251:\n        /* \"NFTFractionalization/contracts/src/OpenZeppelin/utils/EnumerableSet.sol\":2508:2512  bool */\n      0x00\n        /* \"NFTFractionalization/contracts/src/OpenZeppelin/utils/EnumerableSet.sol\":2624:2642  uint256 valueIndex */\n      dup1\n        /* \"NFTFractionalization/contracts/src/OpenZeppelin/utils/EnumerableSet.sol\":2645:2648  set */\n      dup4\n        /* \"NFTFractionalization/contracts/src/OpenZeppelin/utils/EnumerableSet.sol\":2645:2657  set._indexes */\n      0x01\n      add\n        /* \"NFTFractionalization/contracts/src/OpenZeppelin/utils/EnumerableSet.sol\":2645:2664  set._indexes[value] */\n      0x00\n        /* \"NFTFractionalization/contracts/src/OpenZeppelin/utils/EnumerableSet.sol\":2658:2663  value */\n      dup5\n        /* \"NFTFractionalization/contracts/src/OpenZeppelin/utils/EnumerableSet.sol\":2645:2664  set._indexes[value] */\n      dup2\n      mstore\n      0x20\n      add\n      swap1\n      dup2\n      mstore\n      0x20\n      add\n      0x00\n      keccak256\n      sload\n        /* \"NFTFractionalization/contracts/src/OpenZeppelin/utils/EnumerableSet.sol\":2624:2664  uint256 valueIndex = set._indexes[value] */\n      swap1\n      pop\n        /* \"NFTFractionalization/contracts/src/OpenZeppelin/utils/EnumerableSet.sol\":2693:2694  0 */\n      0x00\n        /* \"NFTFractionalization/contracts/src/OpenZeppelin/utils/EnumerableSet.sol\":2679:2689  valueIndex */\n      dup2\n        /* \"NFTFractionalization/contracts/src/OpenZeppelin/utils/EnumerableSet.sol\":2679:2694  valueIndex != 0 */\n      eq\n        /* \"NFTFractionalization/contracts/src/OpenZeppelin/utils/EnumerableSet.sol\":2675:3948  if (valueIndex != 0) { // Equivalent to contains(set, value)... */\n      tag_290\n      jumpi\n        /* \"NFTFractionalization/contracts/src/OpenZeppelin/utils/EnumerableSet.sol\":3036:3057  uint256 toDeleteIndex */\n      0x00\n        /* \"NFTFractionalization/contracts/src/OpenZeppelin/utils/EnumerableSet.sol\":3073:3074  1 */\n      0x01\n        /* \"NFTFractionalization/contracts/src/OpenZeppelin/utils/EnumerableSet.sol\":3060:3070  valueIndex */\n      dup3\n        /* \"NFTFractionalization/contracts/src/OpenZeppelin/utils/EnumerableSet.sol\":3060:3074  valueIndex - 1 */\n      tag_291\n      swap2\n      swap1\n      tag_236\n      jump\t// in\n    tag_291:\n        /* \"NFTFractionalization/contracts/src/OpenZeppelin/utils/EnumerableSet.sol\":3036:3074  uint256 toDeleteIndex = valueIndex - 1 */\n      swap1\n      pop\n        /* \"NFTFractionalization/contracts/src/OpenZeppelin/utils/EnumerableSet.sol\":3088:3105  uint256 lastIndex */\n      0x00\n        /* \"NFTFractionalization/contracts/src/OpenZeppelin/utils/EnumerableSet.sol\":3129:3130  1 */\n      0x01\n        /* \"NFTFractionalization/contracts/src/OpenZeppelin/utils/EnumerableSet.sol\":3108:3111  set */\n      dup7\n        /* \"NFTFractionalization/contracts/src/OpenZeppelin/utils/EnumerableSet.sol\":3108:3119  set._values */\n      0x00\n      add\n        /* \"NFTFractionalization/contracts/src/OpenZeppelin/utils/EnumerableSet.sol\":3108:3126  set._values.length */\n      dup1\n      sload\n      swap1\n      pop\n        /* \"NFTFractionalization/contracts/src/OpenZeppelin/utils/EnumerableSet.sol\":3108:3130  set._values.length - 1 */\n      tag_292\n      swap2\n      swap1\n      tag_236\n      jump\t// in\n    tag_292:\n        /* \"NFTFractionalization/contracts/src/OpenZeppelin/utils/EnumerableSet.sol\":3088:3130  uint256 lastIndex = set._values.length - 1 */\n      swap1\n      pop\n        /* \"NFTFractionalization/contracts/src/OpenZeppelin/utils/EnumerableSet.sol\":3370:3387  bytes32 lastvalue */\n      0x00\n        /* \"NFTFractionalization/contracts/src/OpenZeppelin/utils/EnumerableSet.sol\":3390:3393  set */\n      dup7\n        /* \"NFTFractionalization/contracts/src/OpenZeppelin/utils/EnumerableSet.sol\":3390:3401  set._values */\n      0x00\n      add\n        /* \"NFTFractionalization/contracts/src/OpenZeppelin/utils/EnumerableSet.sol\":3402:3411  lastIndex */\n      dup3\n        /* \"NFTFractionalization/contracts/src/OpenZeppelin/utils/EnumerableSet.sol\":3390:3412  set._values[lastIndex] */\n      dup2\n      sload\n      dup2\n      lt\n      tag_293\n      jumpi\n      tag_294\n      tag_243\n      jump\t// in\n    tag_294:\n    tag_293:\n      swap1\n      0x00\n      mstore\n      keccak256(0x00, 0x20)\n      add\n      sload\n        /* \"NFTFractionalization/contracts/src/OpenZeppelin/utils/EnumerableSet.sol\":3370:3412  bytes32 lastvalue = set._values[lastIndex] */\n      swap1\n      pop\n        /* \"NFTFractionalization/contracts/src/OpenZeppelin/utils/EnumerableSet.sol\":3533:3542  lastvalue */\n      dup1\n        /* \"NFTFractionalization/contracts/src/OpenZeppelin/utils/EnumerableSet.sol\":3504:3507  set */\n      dup8\n        /* \"NFTFractionalization/contracts/src/OpenZeppelin/utils/EnumerableSet.sol\":3504:3515  set._values */\n      0x00\n      add\n        /* \"NFTFractionalization/contracts/src/OpenZeppelin/utils/EnumerableSet.sol\":3516:3529  toDeleteIndex */\n      dup5\n        /* \"NFTFractionalization/contracts/src/OpenZeppelin/utils/EnumerableSet.sol\":3504:3530  set._values[toDeleteIndex] */\n      dup2\n      sload\n      dup2\n      lt\n      tag_296\n      jumpi\n      tag_297\n      tag_243\n      jump\t// in\n    tag_297:\n    tag_296:\n      swap1\n      0x00\n      mstore\n      keccak256(0x00, 0x20)\n      add\n        /* \"NFTFractionalization/contracts/src/OpenZeppelin/utils/EnumerableSet.sol\":3504:3542  set._values[toDeleteIndex] = lastvalue */\n      dup2\n      swap1\n      sstore\n      pop\n        /* \"NFTFractionalization/contracts/src/OpenZeppelin/utils/EnumerableSet.sol\":3650:3651  1 */\n      0x01\n        /* \"NFTFractionalization/contracts/src/OpenZeppelin/utils/EnumerableSet.sol\":3634:3647  toDeleteIndex */\n      dup4\n        /* \"NFTFractionalization/contracts/src/OpenZeppelin/utils/EnumerableSet.sol\":3634:3651  toDeleteIndex + 1 */\n      tag_299\n      swap2\n      swap1\n      tag_240\n      jump\t// in\n    tag_299:\n        /* \"NFTFractionalization/contracts/src/OpenZeppelin/utils/EnumerableSet.sol\":3608:3611  set */\n      dup8\n        /* \"NFTFractionalization/contracts/src/OpenZeppelin/utils/EnumerableSet.sol\":3608:3620  set._indexes */\n      0x01\n      add\n        /* \"NFTFractionalization/contracts/src/OpenZeppelin/utils/EnumerableSet.sol\":3608:3631  set._indexes[lastvalue] */\n      0x00\n        /* \"NFTFractionalization/contracts/src/OpenZeppelin/utils/EnumerableSet.sol\":3621:3630  lastvalue */\n      dup4\n        /* \"NFTFractionalization/contracts/src/OpenZeppelin/utils/EnumerableSet.sol\":3608:3631  set._indexes[lastvalue] */\n      dup2\n      mstore\n      0x20\n      add\n      swap1\n      dup2\n      mstore\n      0x20\n      add\n      0x00\n      keccak256\n        /* \"NFTFractionalization/contracts/src/OpenZeppelin/utils/EnumerableSet.sol\":3608:3651  set._indexes[lastvalue] = toDeleteIndex + 1 */\n      dup2\n      swap1\n      sstore\n      pop\n        /* \"NFTFractionalization/contracts/src/OpenZeppelin/utils/EnumerableSet.sol\":3757:3760  set */\n      dup7\n        /* \"NFTFractionalization/contracts/src/OpenZeppelin/utils/EnumerableSet.sol\":3757:3768  set._values */\n      0x00\n      add\n        /* \"NFTFractionalization/contracts/src/OpenZeppelin/utils/EnumerableSet.sol\":3757:3774  set._values.pop() */\n      dup1\n      sload\n      dup1\n      tag_300\n      jumpi\n      tag_301\n      tag_302\n      jump\t// in\n    tag_301:\n    tag_300:\n      0x01\n      swap1\n      sub\n      dup2\n      dup2\n      swap1\n      0x00\n      mstore\n      keccak256(0x00, 0x20)\n      add\n      0x00\n      swap1\n      sstore\n      swap1\n      sstore\n        /* \"NFTFractionalization/contracts/src/OpenZeppelin/utils/EnumerableSet.sol\":3849:3852  set */\n      dup7\n        /* \"NFTFractionalization/contracts/src/OpenZeppelin/utils/EnumerableSet.sol\":3849:3861  set._indexes */\n      0x01\n      add\n        /* \"NFTFractionalization/contracts/src/OpenZeppelin/utils/EnumerableSet.sol\":3849:3868  set._indexes[value] */\n      0x00\n        /* \"NFTFractionalization/contracts/src/OpenZeppelin/utils/EnumerableSet.sol\":3862:3867  value */\n      dup8\n        /* \"NFTFractionalization/contracts/src/OpenZeppelin/utils/EnumerableSet.sol\":3849:3868  set._indexes[value] */\n      dup2\n      mstore\n      0x20\n      add\n      swap1\n      dup2\n      mstore\n      0x20\n      add\n      0x00\n      keccak256\n        /* \"NFTFractionalization/contracts/src/OpenZeppelin/utils/EnumerableSet.sol\":3842:3868  delete set._indexes[value] */\n      0x00\n      swap1\n      sstore\n        /* \"NFTFractionalization/contracts/src/OpenZeppelin/utils/EnumerableSet.sol\":3890:3894  true */\n      0x01\n        /* \"NFTFractionalization/contracts/src/OpenZeppelin/utils/EnumerableSet.sol\":3883:3894  return true */\n      swap5\n      pop\n      pop\n      pop\n      pop\n      pop\n      jump(tag_289)\n        /* \"NFTFractionalization/contracts/src/OpenZeppelin/utils/EnumerableSet.sol\":2675:3948  if (valueIndex != 0) { // Equivalent to contains(set, value)... */\n    tag_290:\n        /* \"NFTFractionalization/contracts/src/OpenZeppelin/utils/EnumerableSet.sol\":3932:3937  false */\n      0x00\n        /* \"NFTFractionalization/contracts/src/OpenZeppelin/utils/EnumerableSet.sol\":3925:3937  return false */\n      swap2\n      pop\n      pop\n        /* \"NFTFractionalization/contracts/src/OpenZeppelin/utils/EnumerableSet.sol\":2442:3954  function _remove(Set storage set, bytes32 value) private returns (bool) {... */\n    tag_289:\n      swap3\n      swap2\n      pop\n      pop\n      jump\t// out\n        /* \"NFTFractionalization/contracts/src/OpenZeppelin/utils/EnumerableSet.sol\":1870:2274  function _add(Set storage set, bytes32 value) private returns (bool) {... */\n    tag_254:\n        /* \"NFTFractionalization/contracts/src/OpenZeppelin/utils/EnumerableSet.sol\":1933:1937  bool */\n      0x00\n        /* \"NFTFractionalization/contracts/src/OpenZeppelin/utils/EnumerableSet.sol\":1954:1975  _contains(set, value) */\n      tag_306\n        /* \"NFTFractionalization/contracts/src/OpenZeppelin/utils/EnumerableSet.sol\":1964:1967  set */\n      dup4\n        /* \"NFTFractionalization/contracts/src/OpenZeppelin/utils/EnumerableSet.sol\":1969:1974  value */\n      dup4\n        /* \"NFTFractionalization/contracts/src/OpenZeppelin/utils/EnumerableSet.sol\":1954:1963  _contains */\n      tag_307\n        /* \"NFTFractionalization/contracts/src/OpenZeppelin/utils/EnumerableSet.sol\":1954:1975  _contains(set, value) */\n      jump\t// in\n    tag_306:\n        /* \"NFTFractionalization/contracts/src/OpenZeppelin/utils/EnumerableSet.sol\":1949:2268  if (!_contains(set, value)) {... */\n      tag_308\n      jumpi\n        /* \"NFTFractionalization/contracts/src/OpenZeppelin/utils/EnumerableSet.sol\":1991:1994  set */\n      dup3\n        /* \"NFTFractionalization/contracts/src/OpenZeppelin/utils/EnumerableSet.sol\":1991:2002  set._values */\n      0x00\n      add\n        /* \"NFTFractionalization/contracts/src/OpenZeppelin/utils/EnumerableSet.sol\":2008:2013  value */\n      dup3\n        /* \"NFTFractionalization/contracts/src/OpenZeppelin/utils/EnumerableSet.sol\":1991:2014  set._values.push(value) */\n      swap1\n      dup1\n      0x01\n      dup2\n      sload\n      add\n      dup1\n      dup3\n      sstore\n      dup1\n      swap2\n      pop\n      pop\n      0x01\n      swap1\n      sub\n      swap1\n      0x00\n      mstore\n      keccak256(0x00, 0x20)\n      add\n      0x00\n      swap1\n      swap2\n      swap1\n      swap2\n      swap1\n      swap2\n      pop\n      sstore\n        /* \"NFTFractionalization/contracts/src/OpenZeppelin/utils/EnumerableSet.sol\":2171:2174  set */\n      dup3\n        /* \"NFTFractionalization/contracts/src/OpenZeppelin/utils/EnumerableSet.sol\":2171:2182  set._values */\n      0x00\n      add\n        /* \"NFTFractionalization/contracts/src/OpenZeppelin/utils/EnumerableSet.sol\":2171:2189  set._values.length */\n      dup1\n      sload\n      swap1\n      pop\n        /* \"NFTFractionalization/contracts/src/OpenZeppelin/utils/EnumerableSet.sol\":2149:2152  set */\n      dup4\n        /* \"NFTFractionalization/contracts/src/OpenZeppelin/utils/EnumerableSet.sol\":2149:2161  set._indexes */\n      0x01\n      add\n        /* \"NFTFractionalization/contracts/src/OpenZeppelin/utils/EnumerableSet.sol\":2149:2168  set._indexes[value] */\n      0x00\n        /* \"NFTFractionalization/contracts/src/OpenZeppelin/utils/EnumerableSet.sol\":2162:2167  value */\n      dup5\n        /* \"NFTFractionalization/contracts/src/OpenZeppelin/utils/EnumerableSet.sol\":2149:2168  set._indexes[value] */\n      dup2\n      mstore\n      0x20\n      add\n      swap1\n      dup2\n      mstore\n      0x20\n      add\n      0x00\n      keccak256\n        /* \"NFTFractionalization/contracts/src/OpenZeppelin/utils/EnumerableSet.sol\":2149:2189  set._indexes[value] = set._values.length */\n      dup2\n      swap1\n      sstore\n      pop\n        /* \"NFTFractionalization/contracts/src/OpenZeppelin/utils/EnumerableSet.sol\":2210:2214  true */\n      0x01\n        /* \"NFTFractionalization/contracts/src/OpenZeppelin/utils/EnumerableSet.sol\":2203:2214  return true */\n      swap1\n      pop\n      jump(tag_305)\n        /* \"NFTFractionalization/contracts/src/OpenZeppelin/utils/EnumerableSet.sol\":1949:2268  if (!_contains(set, value)) {... */\n    tag_308:\n        /* \"NFTFractionalization/contracts/src/OpenZeppelin/utils/EnumerableSet.sol\":2252:2257  false */\n      0x00\n        /* \"NFTFractionalization/contracts/src/OpenZeppelin/utils/EnumerableSet.sol\":2245:2257  return false */\n      swap1\n      pop\n        /* \"NFTFractionalization/contracts/src/OpenZeppelin/utils/EnumerableSet.sol\":1870:2274  function _add(Set storage set, bytes32 value) private returns (bool) {... */\n    tag_305:\n      swap3\n      swap2\n      pop\n      pop\n      jump\t// out\n        /* \"NFTFractionalization/contracts/src/OpenZeppelin/utils/EnumerableMap.sol\":2066:2744  function _set(Map storage map, bytes32 key, bytes32 value) private returns (bool) {... */\n    tag_257:\n        /* \"NFTFractionalization/contracts/src/OpenZeppelin/utils/EnumerableMap.sol\":2142:2146  bool */\n      0x00\n        /* \"NFTFractionalization/contracts/src/OpenZeppelin/utils/EnumerableMap.sol\":2256:2272  uint256 keyIndex */\n      dup1\n        /* \"NFTFractionalization/contracts/src/OpenZeppelin/utils/EnumerableMap.sol\":2275:2278  map */\n      dup5\n        /* \"NFTFractionalization/contracts/src/OpenZeppelin/utils/EnumerableMap.sol\":2275:2287  map._indexes */\n      0x01\n      add\n        /* \"NFTFractionalization/contracts/src/OpenZeppelin/utils/EnumerableMap.sol\":2275:2292  map._indexes[key] */\n      0x00\n        /* \"NFTFractionalization/contracts/src/OpenZeppelin/utils/EnumerableMap.sol\":2288:2291  key */\n      dup6\n        /* \"NFTFractionalization/contracts/src/OpenZeppelin/utils/EnumerableMap.sol\":2275:2292  map._indexes[key] */\n      dup2\n      mstore\n      0x20\n      add\n      swap1\n      dup2\n      mstore\n      0x20\n      add\n      0x00\n      keccak256\n      sload\n        /* \"NFTFractionalization/contracts/src/OpenZeppelin/utils/EnumerableMap.sol\":2256:2292  uint256 keyIndex = map._indexes[key] */\n      swap1\n      pop\n        /* \"NFTFractionalization/contracts/src/OpenZeppelin/utils/EnumerableMap.sol\":2319:2320  0 */\n      0x00\n        /* \"NFTFractionalization/contracts/src/OpenZeppelin/utils/EnumerableMap.sol\":2307:2315  keyIndex */\n      dup2\n        /* \"NFTFractionalization/contracts/src/OpenZeppelin/utils/EnumerableMap.sol\":2307:2320  keyIndex == 0 */\n      eq\n        /* \"NFTFractionalization/contracts/src/OpenZeppelin/utils/EnumerableMap.sol\":2303:2738  if (keyIndex == 0) { // Equivalent to !contains(map, key)... */\n      iszero\n      tag_312\n      jumpi\n        /* \"NFTFractionalization/contracts/src/OpenZeppelin/utils/EnumerableMap.sol\":2373:2376  map */\n      dup5\n        /* \"NFTFractionalization/contracts/src/OpenZeppelin/utils/EnumerableMap.sol\":2373:2385  map._entries */\n      0x00\n      add\n        /* \"NFTFractionalization/contracts/src/OpenZeppelin/utils/EnumerableMap.sol\":2391:2429  MapEntry({ _key: key, _value: value }) */\n      mload(0x40)\n      dup1\n      0x40\n      add\n      0x40\n      mstore\n      dup1\n        /* \"NFTFractionalization/contracts/src/OpenZeppelin/utils/EnumerableMap.sol\":2408:2411  key */\n      dup7\n        /* \"NFTFractionalization/contracts/src/OpenZeppelin/utils/EnumerableMap.sol\":2391:2429  MapEntry({ _key: key, _value: value }) */\n      dup2\n      mstore\n      0x20\n      add\n        /* \"NFTFractionalization/contracts/src/OpenZeppelin/utils/EnumerableMap.sol\":2421:2426  value */\n      dup6\n        /* \"NFTFractionalization/contracts/src/OpenZeppelin/utils/EnumerableMap.sol\":2391:2429  MapEntry({ _key: key, _value: value }) */\n      dup2\n      mstore\n      pop\n        /* \"NFTFractionalization/contracts/src/OpenZeppelin/utils/EnumerableMap.sol\":2373:2430  map._entries.push(MapEntry({ _key: key, _value: value })) */\n      swap1\n      dup1\n      0x01\n      dup2\n      sload\n      add\n      dup1\n      dup3\n      sstore\n      dup1\n      swap2\n      pop\n      pop\n      0x01\n      swap1\n      sub\n      swap1\n      0x00\n      mstore\n      keccak256(0x00, 0x20)\n      swap1\n      0x02\n      mul\n      add\n      0x00\n      swap1\n      swap2\n      swap1\n      swap2\n      swap1\n      swap2\n      pop\n      0x00\n      dup3\n      add\n      mload\n      dup2\n      0x00\n      add\n      sstore\n      0x20\n      dup3\n      add\n      mload\n      dup2\n      0x01\n      add\n      sstore\n      pop\n      pop\n        /* \"NFTFractionalization/contracts/src/OpenZeppelin/utils/EnumerableMap.sol\":2585:2588  map */\n      dup5\n        /* \"NFTFractionalization/contracts/src/OpenZeppelin/utils/EnumerableMap.sol\":2585:2597  map._entries */\n      0x00\n      add\n        /* \"NFTFractionalization/contracts/src/OpenZeppelin/utils/EnumerableMap.sol\":2585:2604  map._entries.length */\n      dup1\n      sload\n      swap1\n      pop\n        /* \"NFTFractionalization/contracts/src/OpenZeppelin/utils/EnumerableMap.sol\":2565:2568  map */\n      dup6\n        /* \"NFTFractionalization/contracts/src/OpenZeppelin/utils/EnumerableMap.sol\":2565:2577  map._indexes */\n      0x01\n      add\n        /* \"NFTFractionalization/contracts/src/OpenZeppelin/utils/EnumerableMap.sol\":2565:2582  map._indexes[key] */\n      0x00\n        /* \"NFTFractionalization/contracts/src/OpenZeppelin/utils/EnumerableMap.sol\":2578:2581  key */\n      dup7\n        /* \"NFTFractionalization/contracts/src/OpenZeppelin/utils/EnumerableMap.sol\":2565:2582  map._indexes[key] */\n      dup2\n      mstore\n      0x20\n      add\n      swap1\n      dup2\n      mstore\n      0x20\n      add\n      0x00\n      keccak256\n        /* \"NFTFractionalization/contracts/src/OpenZeppelin/utils/EnumerableMap.sol\":2565:2604  map._indexes[key] = map._entries.length */\n      dup2\n      swap1\n      sstore\n      pop\n        /* \"NFTFractionalization/contracts/src/OpenZeppelin/utils/EnumerableMap.sol\":2625:2629  true */\n      0x01\n        /* \"NFTFractionalization/contracts/src/OpenZeppelin/utils/EnumerableMap.sol\":2618:2629  return true */\n      swap2\n      pop\n      pop\n      jump(tag_311)\n        /* \"NFTFractionalization/contracts/src/OpenZeppelin/utils/EnumerableMap.sol\":2303:2738  if (keyIndex == 0) { // Equivalent to !contains(map, key)... */\n    tag_312:\n        /* \"NFTFractionalization/contracts/src/OpenZeppelin/utils/EnumerableMap.sol\":2696:2701  value */\n      dup3\n        /* \"NFTFractionalization/contracts/src/OpenZeppelin/utils/EnumerableMap.sol\":2660:2663  map */\n      dup6\n        /* \"NFTFractionalization/contracts/src/OpenZeppelin/utils/EnumerableMap.sol\":2660:2672  map._entries */\n      0x00\n      add\n        /* \"NFTFractionalization/contracts/src/OpenZeppelin/utils/EnumerableMap.sol\":2684:2685  1 */\n      0x01\n        /* \"NFTFractionalization/contracts/src/OpenZeppelin/utils/EnumerableMap.sol\":2673:2681  keyIndex */\n      dup4\n        /* \"NFTFractionalization/contracts/src/OpenZeppelin/utils/EnumerableMap.sol\":2673:2685  keyIndex - 1 */\n      tag_315\n      swap2\n      swap1\n      tag_236\n      jump\t// in\n    tag_315:\n        /* \"NFTFractionalization/contracts/src/OpenZeppelin/utils/EnumerableMap.sol\":2660:2686  map._entries[keyIndex - 1] */\n      dup2\n      sload\n      dup2\n      lt\n      tag_316\n      jumpi\n      tag_317\n      tag_243\n      jump\t// in\n    tag_317:\n    tag_316:\n      swap1\n      0x00\n      mstore\n      keccak256(0x00, 0x20)\n      swap1\n      0x02\n      mul\n      add\n        /* \"NFTFractionalization/contracts/src/OpenZeppelin/utils/EnumerableMap.sol\":2660:2693  map._entries[keyIndex - 1]._value */\n      0x01\n      add\n        /* \"NFTFractionalization/contracts/src/OpenZeppelin/utils/EnumerableMap.sol\":2660:2701  map._entries[keyIndex - 1]._value = value */\n      dup2\n      swap1\n      sstore\n      pop\n        /* \"NFTFractionalization/contracts/src/OpenZeppelin/utils/EnumerableMap.sol\":2722:2727  false */\n      0x00\n        /* \"NFTFractionalization/contracts/src/OpenZeppelin/utils/EnumerableMap.sol\":2715:2727  return false */\n      swap2\n      pop\n      pop\n        /* \"NFTFractionalization/contracts/src/OpenZeppelin/utils/EnumerableMap.sol\":2066:2744  function _set(Map storage map, bytes32 key, bytes32 value) private returns (bool) {... */\n    tag_311:\n      swap4\n      swap3\n      pop\n      pop\n      pop\n      jump\t// out\n        /* \"NFTFractionalization/contracts/src/OpenZeppelin/utils/Address.sol\":950:1363  function isContract(address account) internal view returns (bool) {... */\n    tag_268:\n        /* \"NFTFractionalization/contracts/src/OpenZeppelin/utils/Address.sol\":1010:1014  bool */\n      0x00\n        /* \"NFTFractionalization/contracts/src/OpenZeppelin/utils/Address.sol\":1213:1225  uint256 size */\n      dup1\n        /* \"NFTFractionalization/contracts/src/OpenZeppelin/utils/Address.sol\":1322:1329  account */\n      dup3\n        /* \"NFTFractionalization/contracts/src/OpenZeppelin/utils/Address.sol\":1310:1330  extcodesize(account) */\n      extcodesize\n        /* \"NFTFractionalization/contracts/src/OpenZeppelin/utils/Address.sol\":1302:1330  size := extcodesize(account) */\n      swap1\n      pop\n        /* \"NFTFractionalization/contracts/src/OpenZeppelin/utils/Address.sol\":1355:1356  0 */\n      0x00\n        /* \"NFTFractionalization/contracts/src/OpenZeppelin/utils/Address.sol\":1348:1352  size */\n      dup2\n        /* \"NFTFractionalization/contracts/src/OpenZeppelin/utils/Address.sol\":1348:1356  size > 0 */\n      gt\n        /* \"NFTFractionalization/contracts/src/OpenZeppelin/utils/Address.sol\":1341:1356  return size > 0 */\n      swap2\n      pop\n      pop\n        /* \"NFTFractionalization/contracts/src/OpenZeppelin/utils/Address.sol\":950:1363  function isContract(address account) internal view returns (bool) {... */\n      swap2\n      swap1\n      pop\n      jump\t// out\n        /* \"NFTFractionalization/contracts/src/OpenZeppelin/utils/EnumerableSet.sol\":4035:4162  function _contains(Set storage set, bytes32 value) private view returns (bool) {... */\n    tag_307:\n        /* \"NFTFractionalization/contracts/src/OpenZeppelin/utils/EnumerableSet.sol\":4108:4112  bool */\n      0x00\n        /* \"NFTFractionalization/contracts/src/OpenZeppelin/utils/EnumerableSet.sol\":4154:4155  0 */\n      dup1\n        /* \"NFTFractionalization/contracts/src/OpenZeppelin/utils/EnumerableSet.sol\":4131:4134  set */\n      dup4\n        /* \"NFTFractionalization/contracts/src/OpenZeppelin/utils/EnumerableSet.sol\":4131:4143  set._indexes */\n      0x01\n      add\n        /* \"NFTFractionalization/contracts/src/OpenZeppelin/utils/EnumerableSet.sol\":4131:4150  set._indexes[value] */\n      0x00\n        /* \"NFTFractionalization/contracts/src/OpenZeppelin/utils/EnumerableSet.sol\":4144:4149  value */\n      dup5\n        /* \"NFTFractionalization/contracts/src/OpenZeppelin/utils/EnumerableSet.sol\":4131:4150  set._indexes[value] */\n      dup2\n      mstore\n      0x20\n      add\n      swap1\n      dup2\n      mstore\n      0x20\n      add\n      0x00\n      keccak256\n      sload\n        /* \"NFTFractionalization/contracts/src/OpenZeppelin/utils/EnumerableSet.sol\":4131:4155  set._indexes[value] != 0 */\n      eq\n      iszero\n        /* \"NFTFractionalization/contracts/src/OpenZeppelin/utils/EnumerableSet.sol\":4124:4155  return set._indexes[value] != 0 */\n      swap1\n      pop\n        /* \"NFTFractionalization/contracts/src/OpenZeppelin/utils/EnumerableSet.sol\":4035:4162  function _contains(Set storage set, bytes32 value) private view returns (bool) {... */\n      swap3\n      swap2\n      pop\n      pop\n      jump\t// out\n        /* \"#utility.yul\":7:417   */\n    tag_322:\n        /* \"#utility.yul\":84:89   */\n      0x00\n        /* \"#utility.yul\":109:174   */\n      tag_324\n        /* \"#utility.yul\":125:173   */\n      tag_325\n        /* \"#utility.yul\":166:172   */\n      dup5\n        /* \"#utility.yul\":125:173   */\n      tag_326\n      jump\t// in\n    tag_325:\n        /* \"#utility.yul\":109:174   */\n      tag_327\n      jump\t// in\n    tag_324:\n        /* \"#utility.yul\":100:174   */\n      swap1\n      pop\n        /* \"#utility.yul\":197:203   */\n      dup3\n        /* \"#utility.yul\":190:195   */\n      dup2\n        /* \"#utility.yul\":183:204   */\n      mstore\n        /* \"#utility.yul\":235:239   */\n      0x20\n        /* \"#utility.yul\":228:233   */\n      dup2\n        /* \"#utility.yul\":224:240   */\n      add\n        /* \"#utility.yul\":273:276   */\n      dup5\n        /* \"#utility.yul\":264:270   */\n      dup5\n        /* \"#utility.yul\":259:262   */\n      dup5\n        /* \"#utility.yul\":255:271   */\n      add\n        /* \"#utility.yul\":252:277   */\n      gt\n        /* \"#utility.yul\":249:361   */\n      iszero\n      tag_328\n      jumpi\n        /* \"#utility.yul\":280:359   */\n      tag_329\n      tag_330\n      jump\t// in\n    tag_329:\n        /* \"#utility.yul\":249:361   */\n    tag_328:\n        /* \"#utility.yul\":370:411   */\n      tag_331\n        /* \"#utility.yul\":404:410   */\n      dup5\n        /* \"#utility.yul\":399:402   */\n      dup3\n        /* \"#utility.yul\":394:397   */\n      dup6\n        /* \"#utility.yul\":370:411   */\n      tag_332\n      jump\t// in\n    tag_331:\n        /* \"#utility.yul\":90:417   */\n      pop\n        /* \"#utility.yul\":7:417   */\n      swap4\n      swap3\n      pop\n      pop\n      pop\n      jump\t// out\n        /* \"#utility.yul\":423:562   */\n    tag_333:\n        /* \"#utility.yul\":469:474   */\n      0x00\n        /* \"#utility.yul\":507:513   */\n      dup2\n        /* \"#utility.yul\":494:514   */\n      calldataload\n        /* \"#utility.yul\":485:514   */\n      swap1\n      pop\n        /* \"#utility.yul\":523:556   */\n      tag_335\n        /* \"#utility.yul\":550:555   */\n      dup2\n        /* \"#utility.yul\":523:556   */\n      tag_336\n      jump\t// in\n    tag_335:\n        /* \"#utility.yul\":423:562   */\n      swap3\n      swap2\n      pop\n      pop\n      jump\t// out\n        /* \"#utility.yul\":568:701   */\n    tag_337:\n        /* \"#utility.yul\":611:616   */\n      0x00\n        /* \"#utility.yul\":649:655   */\n      dup2\n        /* \"#utility.yul\":636:656   */\n      calldataload\n        /* \"#utility.yul\":627:656   */\n      swap1\n      pop\n        /* \"#utility.yul\":665:695   */\n      tag_339\n        /* \"#utility.yul\":689:694   */\n      dup2\n        /* \"#utility.yul\":665:695   */\n      tag_340\n      jump\t// in\n    tag_339:\n        /* \"#utility.yul\":568:701   */\n      swap3\n      swap2\n      pop\n      pop\n      jump\t// out\n        /* \"#utility.yul\":707:844   */\n    tag_341:\n        /* \"#utility.yul\":752:757   */\n      0x00\n        /* \"#utility.yul\":790:796   */\n      dup2\n        /* \"#utility.yul\":777:797   */\n      calldataload\n        /* \"#utility.yul\":768:797   */\n      swap1\n      pop\n        /* \"#utility.yul\":806:838   */\n      tag_343\n        /* \"#utility.yul\":832:837   */\n      dup2\n        /* \"#utility.yul\":806:838   */\n      tag_344\n      jump\t// in\n    tag_343:\n        /* \"#utility.yul\":707:844   */\n      swap3\n      swap2\n      pop\n      pop\n      jump\t// out\n        /* \"#utility.yul\":850:991   */\n    tag_345:\n        /* \"#utility.yul\":906:911   */\n      0x00\n        /* \"#utility.yul\":937:943   */\n      dup2\n        /* \"#utility.yul\":931:944   */\n      mload\n        /* \"#utility.yul\":922:944   */\n      swap1\n      pop\n        /* \"#utility.yul\":953:985   */\n      tag_347\n        /* \"#utility.yul\":979:984   */\n      dup2\n        /* \"#utility.yul\":953:985   */\n      tag_344\n      jump\t// in\n    tag_347:\n        /* \"#utility.yul\":850:991   */\n      swap3\n      swap2\n      pop\n      pop\n      jump\t// out\n        /* \"#utility.yul\":1010:1348   */\n    tag_348:\n        /* \"#utility.yul\":1065:1070   */\n      0x00\n        /* \"#utility.yul\":1114:1117   */\n      dup3\n        /* \"#utility.yul\":1107:1111   */\n      0x1f\n        /* \"#utility.yul\":1099:1105   */\n      dup4\n        /* \"#utility.yul\":1095:1112   */\n      add\n        /* \"#utility.yul\":1091:1118   */\n      slt\n        /* \"#utility.yul\":1081:1203   */\n      tag_350\n      jumpi\n        /* \"#utility.yul\":1122:1201   */\n      tag_351\n      tag_352\n      jump\t// in\n    tag_351:\n        /* \"#utility.yul\":1081:1203   */\n    tag_350:\n        /* \"#utility.yul\":1239:1245   */\n      dup2\n        /* \"#utility.yul\":1226:1246   */\n      calldataload\n        /* \"#utility.yul\":1264:1342   */\n      tag_353\n        /* \"#utility.yul\":1338:1341   */\n      dup5\n        /* \"#utility.yul\":1330:1336   */\n      dup3\n        /* \"#utility.yul\":1323:1327   */\n      0x20\n        /* \"#utility.yul\":1315:1321   */\n      dup7\n        /* \"#utility.yul\":1311:1328   */\n      add\n        /* \"#utility.yul\":1264:1342   */\n      tag_322\n      jump\t// in\n    tag_353:\n        /* \"#utility.yul\":1255:1342   */\n      swap2\n      pop\n        /* \"#utility.yul\":1071:1348   */\n      pop\n        /* \"#utility.yul\":1010:1348   */\n      swap3\n      swap2\n      pop\n      pop\n      jump\t// out\n        /* \"#utility.yul\":1354:1493   */\n    tag_354:\n        /* \"#utility.yul\":1400:1405   */\n      0x00\n        /* \"#utility.yul\":1438:1444   */\n      dup2\n        /* \"#utility.yul\":1425:1445   */\n      calldataload\n        /* \"#utility.yul\":1416:1445   */\n      swap1\n      pop\n        /* \"#utility.yul\":1454:1487   */\n      tag_356\n        /* \"#utility.yul\":1481:1486   */\n      dup2\n        /* \"#utility.yul\":1454:1487   */\n      tag_357\n      jump\t// in\n    tag_356:\n        /* \"#utility.yul\":1354:1493   */\n      swap3\n      swap2\n      pop\n      pop\n      jump\t// out\n        /* \"#utility.yul\":1499:1828   */\n    tag_56:\n        /* \"#utility.yul\":1558:1564   */\n      0x00\n        /* \"#utility.yul\":1607:1609   */\n      0x20\n        /* \"#utility.yul\":1595:1604   */\n      dup3\n        /* \"#utility.yul\":1586:1593   */\n      dup5\n        /* \"#utility.yul\":1582:1605   */\n      sub\n        /* \"#utility.yul\":1578:1610   */\n      slt\n        /* \"#utility.yul\":1575:1694   */\n      iszero\n      tag_359\n      jumpi\n        /* \"#utility.yul\":1613:1692   */\n      tag_360\n      tag_361\n      jump\t// in\n    tag_360:\n        /* \"#utility.yul\":1575:1694   */\n    tag_359:\n        /* \"#utility.yul\":1733:1734   */\n      0x00\n        /* \"#utility.yul\":1758:1811   */\n      tag_362\n        /* \"#utility.yul\":1803:1810   */\n      dup5\n        /* \"#utility.yul\":1794:1800   */\n      dup3\n        /* \"#utility.yul\":1783:1792   */\n      dup6\n        /* \"#utility.yul\":1779:1801   */\n      add\n        /* \"#utility.yul\":1758:1811   */\n      tag_333\n      jump\t// in\n    tag_362:\n        /* \"#utility.yul\":1748:1811   */\n      swap2\n      pop\n        /* \"#utility.yul\":1704:1821   */\n      pop\n        /* \"#utility.yul\":1499:1828   */\n      swap3\n      swap2\n      pop\n      pop\n      jump\t// out\n        /* \"#utility.yul\":1834:2308   */\n    tag_77:\n        /* \"#utility.yul\":1902:1908   */\n      0x00\n        /* \"#utility.yul\":1910:1916   */\n      dup1\n        /* \"#utility.yul\":1959:1961   */\n      0x40\n        /* \"#utility.yul\":1947:1956   */\n      dup4\n        /* \"#utility.yul\":1938:1945   */\n      dup6\n        /* \"#utility.yul\":1934:1957   */\n      sub\n        /* \"#utility.yul\":1930:1962   */\n      slt\n        /* \"#utility.yul\":1927:2046   */\n      iszero\n      tag_364\n      jumpi\n        /* \"#utility.yul\":1965:2044   */\n      tag_365\n      tag_361\n      jump\t// in\n    tag_365:\n        /* \"#utility.yul\":1927:2046   */\n    tag_364:\n        /* \"#utility.yul\":2085:2086   */\n      0x00\n        /* \"#utility.yul\":2110:2163   */\n      tag_366\n        /* \"#utility.yul\":2155:2162   */\n      dup6\n        /* \"#utility.yul\":2146:2152   */\n      dup3\n        /* \"#utility.yul\":2135:2144   */\n      dup7\n        /* \"#utility.yul\":2131:2153   */\n      add\n        /* \"#utility.yul\":2110:2163   */\n      tag_333\n      jump\t// in\n    tag_366:\n        /* \"#utility.yul\":2100:2163   */\n      swap3\n      pop\n        /* \"#utility.yul\":2056:2173   */\n      pop\n        /* \"#utility.yul\":2212:2214   */\n      0x20\n        /* \"#utility.yul\":2238:2291   */\n      tag_367\n        /* \"#utility.yul\":2283:2290   */\n      dup6\n        /* \"#utility.yul\":2274:2280   */\n      dup3\n        /* \"#utility.yul\":2263:2272   */\n      dup7\n        /* \"#utility.yul\":2259:2281   */\n      add\n        /* \"#utility.yul\":2238:2291   */\n      tag_333\n      jump\t// in\n    tag_367:\n        /* \"#utility.yul\":2228:2291   */\n      swap2\n      pop\n        /* \"#utility.yul\":2183:2301   */\n      pop\n        /* \"#utility.yul\":1834:2308   */\n      swap3\n      pop\n      swap3\n      swap1\n      pop\n      jump\t// out\n        /* \"#utility.yul\":2314:2933   */\n    tag_42:\n        /* \"#utility.yul\":2391:2397   */\n      0x00\n        /* \"#utility.yul\":2399:2405   */\n      dup1\n        /* \"#utility.yul\":2407:2413   */\n      0x00\n        /* \"#utility.yul\":2456:2458   */\n      0x60\n        /* \"#utility.yul\":2444:2453   */\n      dup5\n        /* \"#utility.yul\":2435:2442   */\n      dup7\n        /* \"#utility.yul\":2431:2454   */\n      sub\n        /* \"#utility.yul\":2427:2459   */\n      slt\n        /* \"#utility.yul\":2424:2543   */\n      iszero\n      tag_369\n      jumpi\n        /* \"#utility.yul\":2462:2541   */\n      tag_370\n      tag_361\n      jump\t// in\n    tag_370:\n        /* \"#utility.yul\":2424:2543   */\n    tag_369:\n        /* \"#utility.yul\":2582:2583   */\n      0x00\n        /* \"#utility.yul\":2607:2660   */\n      tag_371\n        /* \"#utility.yul\":2652:2659   */\n      dup7\n        /* \"#utility.yul\":2643:2649   */\n      dup3\n        /* \"#utility.yul\":2632:2641   */\n      dup8\n        /* \"#utility.yul\":2628:2650   */\n      add\n        /* \"#utility.yul\":2607:2660   */\n      tag_333\n      jump\t// in\n    tag_371:\n        /* \"#utility.yul\":2597:2660   */\n      swap4\n      pop\n        /* \"#utility.yul\":2553:2670   */\n      pop\n        /* \"#utility.yul\":2709:2711   */\n      0x20\n        /* \"#utility.yul\":2735:2788   */\n      tag_372\n        /* \"#utility.yul\":2780:2787   */\n      dup7\n        /* \"#utility.yul\":2771:2777   */\n      dup3\n        /* \"#utility.yul\":2760:2769   */\n      dup8\n        /* \"#utility.yul\":2756:2778   */\n      add\n        /* \"#utility.yul\":2735:2788   */\n      tag_333\n      jump\t// in\n    tag_372:\n        /* \"#utility.yul\":2725:2788   */\n      swap3\n      pop\n        /* \"#utility.yul\":2680:2798   */\n      pop\n        /* \"#utility.yul\":2837:2839   */\n      0x40\n        /* \"#utility.yul\":2863:2916   */\n      tag_373\n        /* \"#utility.yul\":2908:2915   */\n      dup7\n        /* \"#utility.yul\":2899:2905   */\n      dup3\n        /* \"#utility.yul\":2888:2897   */\n      dup8\n        /* \"#utility.yul\":2884:2906   */\n      add\n        /* \"#utility.yul\":2863:2916   */\n      tag_354\n      jump\t// in\n    tag_373:\n        /* \"#utility.yul\":2853:2916   */\n      swap2\n      pop\n        /* \"#utility.yul\":2808:2926   */\n      pop\n        /* \"#utility.yul\":2314:2933   */\n      swap3\n      pop\n      swap3\n      pop\n      swap3\n      jump\t// out\n        /* \"#utility.yul\":2939:3882   */\n    tag_69:\n        /* \"#utility.yul\":3034:3040   */\n      0x00\n        /* \"#utility.yul\":3042:3048   */\n      dup1\n        /* \"#utility.yul\":3050:3056   */\n      0x00\n        /* \"#utility.yul\":3058:3064   */\n      dup1\n        /* \"#utility.yul\":3107:3110   */\n      0x80\n        /* \"#utility.yul\":3095:3104   */\n      dup6\n        /* \"#utility.yul\":3086:3093   */\n      dup8\n        /* \"#utility.yul\":3082:3105   */\n      sub\n        /* \"#utility.yul\":3078:3111   */\n      slt\n        /* \"#utility.yul\":3075:3195   */\n      iszero\n      tag_375\n      jumpi\n        /* \"#utility.yul\":3114:3193   */\n      tag_376\n      tag_361\n      jump\t// in\n    tag_376:\n        /* \"#utility.yul\":3075:3195   */\n    tag_375:\n        /* \"#utility.yul\":3234:3235   */\n      0x00\n        /* \"#utility.yul\":3259:3312   */\n      tag_377\n        /* \"#utility.yul\":3304:3311   */\n      dup8\n        /* \"#utility.yul\":3295:3301   */\n      dup3\n        /* \"#utility.yul\":3284:3293   */\n      dup9\n        /* \"#utility.yul\":3280:3302   */\n      add\n        /* \"#utility.yul\":3259:3312   */\n      tag_333\n      jump\t// in\n    tag_377:\n        /* \"#utility.yul\":3249:3312   */\n      swap5\n      pop\n        /* \"#utility.yul\":3205:3322   */\n      pop\n        /* \"#utility.yul\":3361:3363   */\n      0x20\n        /* \"#utility.yul\":3387:3440   */\n      tag_378\n        /* \"#utility.yul\":3432:3439   */\n      dup8\n        /* \"#utility.yul\":3423:3429   */\n      dup3\n        /* \"#utility.yul\":3412:3421   */\n      dup9\n        /* \"#utility.yul\":3408:3430   */\n      add\n        /* \"#utility.yul\":3387:3440   */\n      tag_333\n      jump\t// in\n    tag_378:\n        /* \"#utility.yul\":3377:3440   */\n      swap4\n      pop\n        /* \"#utility.yul\":3332:3450   */\n      pop\n        /* \"#utility.yul\":3489:3491   */\n      0x40\n        /* \"#utility.yul\":3515:3568   */\n      tag_379\n        /* \"#utility.yul\":3560:3567   */\n      dup8\n        /* \"#utility.yul\":3551:3557   */\n      dup3\n        /* \"#utility.yul\":3540:3549   */\n      dup9\n        /* \"#utility.yul\":3536:3558   */\n      add\n        /* \"#utility.yul\":3515:3568   */\n      tag_354\n      jump\t// in\n    tag_379:\n        /* \"#utility.yul\":3505:3568   */\n      swap3\n      pop\n        /* \"#utility.yul\":3460:3578   */\n      pop\n        /* \"#utility.yul\":3645:3647   */\n      0x60\n        /* \"#utility.yul\":3634:3643   */\n      dup6\n        /* \"#utility.yul\":3630:3648   */\n      add\n        /* \"#utility.yul\":3617:3649   */\n      calldataload\n        /* \"#utility.yul\":3676:3694   */\n      0xffffffffffffffff\n        /* \"#utility.yul\":3668:3674   */\n      dup2\n        /* \"#utility.yul\":3665:3695   */\n      gt\n        /* \"#utility.yul\":3662:3779   */\n      iszero\n      tag_380\n      jumpi\n        /* \"#utility.yul\":3698:3777   */\n      tag_381\n      tag_382\n      jump\t// in\n    tag_381:\n        /* \"#utility.yul\":3662:3779   */\n    tag_380:\n        /* \"#utility.yul\":3803:3865   */\n      tag_383\n        /* \"#utility.yul\":3857:3864   */\n      dup8\n        /* \"#utility.yul\":3848:3854   */\n      dup3\n        /* \"#utility.yul\":3837:3846   */\n      dup9\n        /* \"#utility.yul\":3833:3855   */\n      add\n        /* \"#utility.yul\":3803:3865   */\n      tag_348\n      jump\t// in\n    tag_383:\n        /* \"#utility.yul\":3793:3865   */\n      swap2\n      pop\n        /* \"#utility.yul\":3588:3875   */\n      pop\n        /* \"#utility.yul\":2939:3882   */\n      swap3\n      swap6\n      swap2\n      swap5\n      pop\n      swap3\n      pop\n      jump\t// out\n        /* \"#utility.yul\":3888:4356   */\n    tag_65:\n        /* \"#utility.yul\":3953:3959   */\n      0x00\n        /* \"#utility.yul\":3961:3967   */\n      dup1\n        /* \"#utility.yul\":4010:4012   */\n      0x40\n        /* \"#utility.yul\":3998:4007   */\n      dup4\n        /* \"#utility.yul\":3989:3996   */\n      dup6\n        /* \"#utility.yul\":3985:4008   */\n      sub\n        /* \"#utility.yul\":3981:4013   */\n      slt\n        /* \"#utility.yul\":3978:4097   */\n      iszero\n      tag_385\n      jumpi\n        /* \"#utility.yul\":4016:4095   */\n      tag_386\n      tag_361\n      jump\t// in\n    tag_386:\n        /* \"#utility.yul\":3978:4097   */\n    tag_385:\n        /* \"#utility.yul\":4136:4137   */\n      0x00\n        /* \"#utility.yul\":4161:4214   */\n      tag_387\n        /* \"#utility.yul\":4206:4213   */\n      dup6\n        /* \"#utility.yul\":4197:4203   */\n      dup3\n        /* \"#utility.yul\":4186:4195   */\n      dup7\n        /* \"#utility.yul\":4182:4204   */\n      add\n        /* \"#utility.yul\":4161:4214   */\n      tag_333\n      jump\t// in\n    tag_387:\n        /* \"#utility.yul\":4151:4214   */\n      swap3\n      pop\n        /* \"#utility.yul\":4107:4224   */\n      pop\n        /* \"#utility.yul\":4263:4265   */\n      0x20\n        /* \"#utility.yul\":4289:4339   */\n      tag_388\n        /* \"#utility.yul\":4331:4338   */\n      dup6\n        /* \"#utility.yul\":4322:4328   */\n      dup3\n        /* \"#utility.yul\":4311:4320   */\n      dup7\n        /* \"#utility.yul\":4307:4329   */\n      add\n        /* \"#utility.yul\":4289:4339   */\n      tag_337\n      jump\t// in\n    tag_388:\n        /* \"#utility.yul\":4279:4339   */\n      swap2\n      pop\n        /* \"#utility.yul\":4234:4349   */\n      pop\n        /* \"#utility.yul\":3888:4356   */\n      swap3\n      pop\n      swap3\n      swap1\n      pop\n      jump\t// out\n        /* \"#utility.yul\":4362:4836   */\n    tag_38:\n        /* \"#utility.yul\":4430:4436   */\n      0x00\n        /* \"#utility.yul\":4438:4444   */\n      dup1\n        /* \"#utility.yul\":4487:4489   */\n      0x40\n        /* \"#utility.yul\":4475:4484   */\n      dup4\n        /* \"#utility.yul\":4466:4473   */\n      dup6\n        /* \"#utility.yul\":4462:4485   */\n      sub\n        /* \"#utility.yul\":4458:4490   */\n      slt\n        /* \"#utility.yul\":4455:4574   */\n      iszero\n      tag_390\n      jumpi\n        /* \"#utility.yul\":4493:4572   */\n      tag_391\n      tag_361\n      jump\t// in\n    tag_391:\n        /* \"#utility.yul\":4455:4574   */\n    tag_390:\n        /* \"#utility.yul\":4613:4614   */\n      0x00\n        /* \"#utility.yul\":4638:4691   */\n      tag_392\n        /* \"#utility.yul\":4683:4690   */\n      dup6\n        /* \"#utility.yul\":4674:4680   */\n      dup3\n        /* \"#utility.yul\":4663:4672   */\n      dup7\n        /* \"#utility.yul\":4659:4681   */\n      add\n        /* \"#utility.yul\":4638:4691   */\n      tag_333\n      jump\t// in\n    tag_392:\n        /* \"#utility.yul\":4628:4691   */\n      swap3\n      pop\n        /* \"#utility.yul\":4584:4701   */\n      pop\n        /* \"#utility.yul\":4740:4742   */\n      0x20\n        /* \"#utility.yul\":4766:4819   */\n      tag_393\n        /* \"#utility.yul\":4811:4818   */\n      dup6\n        /* \"#utility.yul\":4802:4808   */\n      dup3\n        /* \"#utility.yul\":4791:4800   */\n      dup7\n        /* \"#utility.yul\":4787:4809   */\n      add\n        /* \"#utility.yul\":4766:4819   */\n      tag_354\n      jump\t// in\n    tag_393:\n        /* \"#utility.yul\":4756:4819   */\n      swap2\n      pop\n        /* \"#utility.yul\":4711:4829   */\n      pop\n        /* \"#utility.yul\":4362:4836   */\n      swap3\n      pop\n      swap3\n      swap1\n      pop\n      jump\t// out\n        /* \"#utility.yul\":4842:5169   */\n    tag_22:\n        /* \"#utility.yul\":4900:4906   */\n      0x00\n        /* \"#utility.yul\":4949:4951   */\n      0x20\n        /* \"#utility.yul\":4937:4946   */\n      dup3\n        /* \"#utility.yul\":4928:4935   */\n      dup5\n        /* \"#utility.yul\":4924:4947   */\n      sub\n        /* \"#utility.yul\":4920:4952   */\n      slt\n        /* \"#utility.yul\":4917:5036   */\n      iszero\n      tag_395\n      jumpi\n        /* \"#utility.yul\":4955:5034   */\n      tag_396\n      tag_361\n      jump\t// in\n    tag_396:\n        /* \"#utility.yul\":4917:5036   */\n    tag_395:\n        /* \"#utility.yul\":5075:5076   */\n      0x00\n        /* \"#utility.yul\":5100:5152   */\n      tag_397\n        /* \"#utility.yul\":5144:5151   */\n      dup5\n        /* \"#utility.yul\":5135:5141   */\n      dup3\n        /* \"#utility.yul\":5124:5133   */\n      dup6\n        /* \"#utility.yul\":5120:5142   */\n      add\n        /* \"#utility.yul\":5100:5152   */\n      tag_341\n      jump\t// in\n    tag_397:\n        /* \"#utility.yul\":5090:5152   */\n      swap2\n      pop\n        /* \"#utility.yul\":5046:5162   */\n      pop\n        /* \"#utility.yul\":4842:5169   */\n      swap3\n      swap2\n      pop\n      pop\n      jump\t// out\n        /* \"#utility.yul\":5175:5524   */\n    tag_276:\n        /* \"#utility.yul\":5244:5250   */\n      0x00\n        /* \"#utility.yul\":5293:5295   */\n      0x20\n        /* \"#utility.yul\":5281:5290   */\n      dup3\n        /* \"#utility.yul\":5272:5279   */\n      dup5\n        /* \"#utility.yul\":5268:5291   */\n      sub\n        /* \"#utility.yul\":5264:5296   */\n      slt\n        /* \"#utility.yul\":5261:5380   */\n      iszero\n      tag_399\n      jumpi\n        /* \"#utility.yul\":5299:5378   */\n      tag_400\n      tag_361\n      jump\t// in\n    tag_400:\n        /* \"#utility.yul\":5261:5380   */\n    tag_399:\n        /* \"#utility.yul\":5419:5420   */\n      0x00\n        /* \"#utility.yul\":5444:5507   */\n      tag_401\n        /* \"#utility.yul\":5499:5506   */\n      dup5\n        /* \"#utility.yul\":5490:5496   */\n      dup3\n        /* \"#utility.yul\":5479:5488   */\n      dup6\n        /* \"#utility.yul\":5475:5497   */\n      add\n        /* \"#utility.yul\":5444:5507   */\n      tag_345\n      jump\t// in\n    tag_401:\n        /* \"#utility.yul\":5434:5507   */\n      swap2\n      pop\n        /* \"#utility.yul\":5390:5517   */\n      pop\n        /* \"#utility.yul\":5175:5524   */\n      swap3\n      swap2\n      pop\n      pop\n      jump\t// out\n        /* \"#utility.yul\":5530:5859   */\n    tag_32:\n        /* \"#utility.yul\":5589:5595   */\n      0x00\n        /* \"#utility.yul\":5638:5640   */\n      0x20\n        /* \"#utility.yul\":5626:5635   */\n      dup3\n        /* \"#utility.yul\":5617:5624   */\n      dup5\n        /* \"#utility.yul\":5613:5636   */\n      sub\n        /* \"#utility.yul\":5609:5641   */\n      slt\n        /* \"#utility.yul\":5606:5725   */\n      iszero\n      tag_403\n      jumpi\n        /* \"#utility.yul\":5644:5723   */\n      tag_404\n      tag_361\n      jump\t// in\n    tag_404:\n        /* \"#utility.yul\":5606:5725   */\n    tag_403:\n        /* \"#utility.yul\":5764:5765   */\n      0x00\n        /* \"#utility.yul\":5789:5842   */\n      tag_405\n        /* \"#utility.yul\":5834:5841   */\n      dup5\n        /* \"#utility.yul\":5825:5831   */\n      dup3\n        /* \"#utility.yul\":5814:5823   */\n      dup6\n        /* \"#utility.yul\":5810:5832   */\n      add\n        /* \"#utility.yul\":5789:5842   */\n      tag_354\n      jump\t// in\n    tag_405:\n        /* \"#utility.yul\":5779:5842   */\n      swap2\n      pop\n        /* \"#utility.yul\":5735:5852   */\n      pop\n        /* \"#utility.yul\":5530:5859   */\n      swap3\n      swap2\n      pop\n      pop\n      jump\t// out\n        /* \"#utility.yul\":5865:5983   */\n    tag_406:\n        /* \"#utility.yul\":5952:5976   */\n      tag_408\n        /* \"#utility.yul\":5970:5975   */\n      dup2\n        /* \"#utility.yul\":5952:5976   */\n      tag_409\n      jump\t// in\n    tag_408:\n        /* \"#utility.yul\":5947:5950   */\n      dup3\n        /* \"#utility.yul\":5940:5977   */\n      mstore\n        /* \"#utility.yul\":5865:5983   */\n      pop\n      pop\n      jump\t// out\n        /* \"#utility.yul\":5989:6098   */\n    tag_410:\n        /* \"#utility.yul\":6070:6091   */\n      tag_412\n        /* \"#utility.yul\":6085:6090   */\n      dup2\n        /* \"#utility.yul\":6070:6091   */\n      tag_413\n      jump\t// in\n    tag_412:\n        /* \"#utility.yul\":6065:6068   */\n      dup3\n        /* \"#utility.yul\":6058:6092   */\n      mstore\n        /* \"#utility.yul\":5989:6098   */\n      pop\n      pop\n      jump\t// out\n        /* \"#utility.yul\":6104:6464   */\n    tag_414:\n        /* \"#utility.yul\":6190:6193   */\n      0x00\n        /* \"#utility.yul\":6218:6256   */\n      tag_416\n        /* \"#utility.yul\":6250:6255   */\n      dup3\n        /* \"#utility.yul\":6218:6256   */\n      tag_417\n      jump\t// in\n    tag_416:\n        /* \"#utility.yul\":6272:6342   */\n      tag_418\n        /* \"#utility.yul\":6335:6341   */\n      dup2\n        /* \"#utility.yul\":6330:6333   */\n      dup6\n        /* \"#utility.yul\":6272:6342   */\n      tag_419\n      jump\t// in\n    tag_418:\n        /* \"#utility.yul\":6265:6342   */\n      swap4\n      pop\n        /* \"#utility.yul\":6351:6403   */\n      tag_420\n        /* \"#utility.yul\":6396:6402   */\n      dup2\n        /* \"#utility.yul\":6391:6394   */\n      dup6\n        /* \"#utility.yul\":6384:6388   */\n      0x20\n        /* \"#utility.yul\":6377:6382   */\n      dup7\n        /* \"#utility.yul\":6373:6389   */\n      add\n        /* \"#utility.yul\":6351:6403   */\n      tag_421\n      jump\t// in\n    tag_420:\n        /* \"#utility.yul\":6428:6457   */\n      tag_422\n        /* \"#utility.yul\":6450:6456   */\n      dup2\n        /* \"#utility.yul\":6428:6457   */\n      tag_423\n      jump\t// in\n    tag_422:\n        /* \"#utility.yul\":6423:6426   */\n      dup5\n        /* \"#utility.yul\":6419:6458   */\n      add\n        /* \"#utility.yul\":6412:6458   */\n      swap2\n      pop\n        /* \"#utility.yul\":6194:6464   */\n      pop\n        /* \"#utility.yul\":6104:6464   */\n      swap3\n      swap2\n      pop\n      pop\n      jump\t// out\n        /* \"#utility.yul\":6470:6834   */\n    tag_424:\n        /* \"#utility.yul\":6558:6561   */\n      0x00\n        /* \"#utility.yul\":6586:6625   */\n      tag_426\n        /* \"#utility.yul\":6619:6624   */\n      dup3\n        /* \"#utility.yul\":6586:6625   */\n      tag_427\n      jump\t// in\n    tag_426:\n        /* \"#utility.yul\":6641:6712   */\n      tag_428\n        /* \"#utility.yul\":6705:6711   */\n      dup2\n        /* \"#utility.yul\":6700:6703   */\n      dup6\n        /* \"#utility.yul\":6641:6712   */\n      tag_429\n      jump\t// in\n    tag_428:\n        /* \"#utility.yul\":6634:6712   */\n      swap4\n      pop\n        /* \"#utility.yul\":6721:6773   */\n      tag_430\n        /* \"#utility.yul\":6766:6772   */\n      dup2\n        /* \"#utility.yul\":6761:6764   */\n      dup6\n        /* \"#utility.yul\":6754:6758   */\n      0x20\n        /* \"#utility.yul\":6747:6752   */\n      dup7\n        /* \"#utility.yul\":6743:6759   */\n      add\n        /* \"#utility.yul\":6721:6773   */\n      tag_421\n      jump\t// in\n    tag_430:\n        /* \"#utility.yul\":6798:6827   */\n      tag_431\n        /* \"#utility.yul\":6820:6826   */\n      dup2\n        /* \"#utility.yul\":6798:6827   */\n      tag_423\n      jump\t// in\n    tag_431:\n        /* \"#utility.yul\":6793:6796   */\n      dup5\n        /* \"#utility.yul\":6789:6828   */\n      add\n        /* \"#utility.yul\":6782:6828   */\n      swap2\n      pop\n        /* \"#utility.yul\":6562:6834   */\n      pop\n        /* \"#utility.yul\":6470:6834   */\n      swap3\n      swap2\n      pop\n      pop\n      jump\t// out\n        /* \"#utility.yul\":6840:7217   */\n    tag_432:\n        /* \"#utility.yul\":6946:6949   */\n      0x00\n        /* \"#utility.yul\":6974:7013   */\n      tag_434\n        /* \"#utility.yul\":7007:7012   */\n      dup3\n        /* \"#utility.yul\":6974:7013   */\n      tag_427\n      jump\t// in\n    tag_434:\n        /* \"#utility.yul\":7029:7118   */\n      tag_435\n        /* \"#utility.yul\":7111:7117   */\n      dup2\n        /* \"#utility.yul\":7106:7109   */\n      dup6\n        /* \"#utility.yul\":7029:7118   */\n      tag_436\n      jump\t// in\n    tag_435:\n        /* \"#utility.yul\":7022:7118   */\n      swap4\n      pop\n        /* \"#utility.yul\":7127:7179   */\n      tag_437\n        /* \"#utility.yul\":7172:7178   */\n      dup2\n        /* \"#utility.yul\":7167:7170   */\n      dup6\n        /* \"#utility.yul\":7160:7164   */\n      0x20\n        /* \"#utility.yul\":7153:7158   */\n      dup7\n        /* \"#utility.yul\":7149:7165   */\n      add\n        /* \"#utility.yul\":7127:7179   */\n      tag_421\n      jump\t// in\n    tag_437:\n        /* \"#utility.yul\":7204:7210   */\n      dup1\n        /* \"#utility.yul\":7199:7202   */\n      dup5\n        /* \"#utility.yul\":7195:7211   */\n      add\n        /* \"#utility.yul\":7188:7211   */\n      swap2\n      pop\n        /* \"#utility.yul\":6950:7217   */\n      pop\n        /* \"#utility.yul\":6840:7217   */\n      swap3\n      swap2\n      pop\n      pop\n      jump\t// out\n        /* \"#utility.yul\":7223:7589   */\n    tag_438:\n        /* \"#utility.yul\":7365:7368   */\n      0x00\n        /* \"#utility.yul\":7386:7453   */\n      tag_440\n        /* \"#utility.yul\":7450:7452   */\n      0x32\n        /* \"#utility.yul\":7445:7448   */\n      dup4\n        /* \"#utility.yul\":7386:7453   */\n      tag_429\n      jump\t// in\n    tag_440:\n        /* \"#utility.yul\":7379:7453   */\n      swap2\n      pop\n        /* \"#utility.yul\":7462:7555   */\n      tag_441\n        /* \"#utility.yul\":7551:7554   */\n      dup3\n        /* \"#utility.yul\":7462:7555   */\n      tag_442\n      jump\t// in\n    tag_441:\n        /* \"#utility.yul\":7580:7582   */\n      0x40\n        /* \"#utility.yul\":7575:7578   */\n      dup3\n        /* \"#utility.yul\":7571:7583   */\n      add\n        /* \"#utility.yul\":7564:7583   */\n      swap1\n      pop\n        /* \"#utility.yul\":7223:7589   */\n      swap2\n      swap1\n      pop\n      jump\t// out\n        /* \"#utility.yul\":7595:7961   */\n    tag_443:\n        /* \"#utility.yul\":7737:7740   */\n      0x00\n        /* \"#utility.yul\":7758:7825   */\n      tag_445\n        /* \"#utility.yul\":7822:7824   */\n      0x24\n        /* \"#utility.yul\":7817:7820   */\n      dup4\n        /* \"#utility.yul\":7758:7825   */\n      tag_429\n      jump\t// in\n    tag_445:\n        /* \"#utility.yul\":7751:7825   */\n      swap2\n      pop\n        /* \"#utility.yul\":7834:7927   */\n      tag_446\n        /* \"#utility.yul\":7923:7926   */\n      dup3\n        /* \"#utility.yul\":7834:7927   */\n      tag_447\n      jump\t// in\n    tag_446:\n        /* \"#utility.yul\":7952:7954   */\n      0x40\n        /* \"#utility.yul\":7947:7950   */\n      dup3\n        /* \"#utility.yul\":7943:7955   */\n      add\n        /* \"#utility.yul\":7936:7955   */\n      swap1\n      pop\n        /* \"#utility.yul\":7595:7961   */\n      swap2\n      swap1\n      pop\n      jump\t// out\n        /* \"#utility.yul\":7967:8333   */\n    tag_448:\n        /* \"#utility.yul\":8109:8112   */\n      0x00\n        /* \"#utility.yul\":8130:8197   */\n      tag_450\n        /* \"#utility.yul\":8194:8196   */\n      0x19\n        /* \"#utility.yul\":8189:8192   */\n      dup4\n        /* \"#utility.yul\":8130:8197   */\n      tag_429\n      jump\t// in\n    tag_450:\n        /* \"#utility.yul\":8123:8197   */\n      swap2\n      pop\n        /* \"#utility.yul\":8206:8299   */\n      tag_451\n        /* \"#utility.yul\":8295:8298   */\n      dup3\n        /* \"#utility.yul\":8206:8299   */\n      tag_452\n      jump\t// in\n    tag_451:\n        /* \"#utility.yul\":8324:8326   */\n      0x20\n        /* \"#utility.yul\":8319:8322   */\n      dup3\n        /* \"#utility.yul\":8315:8327   */\n      add\n        /* \"#utility.yul\":8308:8327   */\n      swap1\n      pop\n        /* \"#utility.yul\":7967:8333   */\n      swap2\n      swap1\n      pop\n      jump\t// out\n        /* \"#utility.yul\":8339:8705   */\n    tag_453:\n        /* \"#utility.yul\":8481:8484   */\n      0x00\n        /* \"#utility.yul\":8502:8569   */\n      tag_455\n        /* \"#utility.yul\":8566:8568   */\n      0x2c\n        /* \"#utility.yul\":8561:8564   */\n      dup4\n        /* \"#utility.yul\":8502:8569   */\n      tag_429\n      jump\t// in\n    tag_455:\n        /* \"#utility.yul\":8495:8569   */\n      swap2\n      pop\n        /* \"#utility.yul\":8578:8671   */\n      tag_456\n        /* \"#utility.yul\":8667:8670   */\n      dup3\n        /* \"#utility.yul\":8578:8671   */\n      tag_457\n      jump\t// in\n    tag_456:\n        /* \"#utility.yul\":8696:8698   */\n      0x40\n        /* \"#utility.yul\":8691:8694   */\n      dup3\n        /* \"#utility.yul\":8687:8699   */\n      add\n        /* \"#utility.yul\":8680:8699   */\n      swap1\n      pop\n        /* \"#utility.yul\":8339:8705   */\n      swap2\n      swap1\n      pop\n      jump\t// out\n        /* \"#utility.yul\":8711:9077   */\n    tag_458:\n        /* \"#utility.yul\":8853:8856   */\n      0x00\n        /* \"#utility.yul\":8874:8941   */\n      tag_460\n        /* \"#utility.yul\":8938:8940   */\n      0x38\n        /* \"#utility.yul\":8933:8936   */\n      dup4\n        /* \"#utility.yul\":8874:8941   */\n      tag_429\n      jump\t// in\n    tag_460:\n        /* \"#utility.yul\":8867:8941   */\n      swap2\n      pop\n        /* \"#utility.yul\":8950:9043   */\n      tag_461\n        /* \"#utility.yul\":9039:9042   */\n      dup3\n        /* \"#utility.yul\":8950:9043   */\n      tag_462\n      jump\t// in\n    tag_461:\n        /* \"#utility.yul\":9068:9070   */\n      0x40\n        /* \"#utility.yul\":9063:9066   */\n      dup3\n        /* \"#utility.yul\":9059:9071   */\n      add\n        /* \"#utility.yul\":9052:9071   */\n      swap1\n      pop\n        /* \"#utility.yul\":8711:9077   */\n      swap2\n      swap1\n      pop\n      jump\t// out\n        /* \"#utility.yul\":9083:9449   */\n    tag_463:\n        /* \"#utility.yul\":9225:9228   */\n      0x00\n        /* \"#utility.yul\":9246:9313   */\n      tag_465\n        /* \"#utility.yul\":9310:9312   */\n      0x2a\n        /* \"#utility.yul\":9305:9308   */\n      dup4\n        /* \"#utility.yul\":9246:9313   */\n      tag_429\n      jump\t// in\n    tag_465:\n        /* \"#utility.yul\":9239:9313   */\n      swap2\n      pop\n        /* \"#utility.yul\":9322:9415   */\n      tag_466\n        /* \"#utility.yul\":9411:9414   */\n      dup3\n        /* \"#utility.yul\":9322:9415   */\n      tag_467\n      jump\t// in\n    tag_466:\n        /* \"#utility.yul\":9440:9442   */\n      0x40\n        /* \"#utility.yul\":9435:9438   */\n      dup3\n        /* \"#utility.yul\":9431:9443   */\n      add\n        /* \"#utility.yul\":9424:9443   */\n      swap1\n      pop\n        /* \"#utility.yul\":9083:9449   */\n      swap2\n      swap1\n      pop\n      jump\t// out\n        /* \"#utility.yul\":9455:9821   */\n    tag_468:\n        /* \"#utility.yul\":9597:9600   */\n      0x00\n        /* \"#utility.yul\":9618:9685   */\n      tag_470\n        /* \"#utility.yul\":9682:9684   */\n      0x2c\n        /* \"#utility.yul\":9677:9680   */\n      dup4\n        /* \"#utility.yul\":9618:9685   */\n      tag_429\n      jump\t// in\n    tag_470:\n        /* \"#utility.yul\":9611:9685   */\n      swap2\n      pop\n        /* \"#utility.yul\":9694:9787   */\n      tag_471\n        /* \"#utility.yul\":9783:9786   */\n      dup3\n        /* \"#utility.yul\":9694:9787   */\n      tag_472\n      jump\t// in\n    tag_471:\n        /* \"#utility.yul\":9812:9814   */\n      0x40\n        /* \"#utility.yul\":9807:9810   */\n      dup3\n        /* \"#utility.yul\":9803:9815   */\n      add\n        /* \"#utility.yul\":9796:9815   */\n      swap1\n      pop\n        /* \"#utility.yul\":9455:9821   */\n      swap2\n      swap1\n      pop\n      jump\t// out\n        /* \"#utility.yul\":9827:10193   */\n    tag_473:\n        /* \"#utility.yul\":9969:9972   */\n      0x00\n        /* \"#utility.yul\":9990:10057   */\n      tag_475\n        /* \"#utility.yul\":10054:10056   */\n      0x29\n        /* \"#utility.yul\":10049:10052   */\n      dup4\n        /* \"#utility.yul\":9990:10057   */\n      tag_429\n      jump\t// in\n    tag_475:\n        /* \"#utility.yul\":9983:10057   */\n      swap2\n      pop\n        /* \"#utility.yul\":10066:10159   */\n      tag_476\n        /* \"#utility.yul\":10155:10158   */\n      dup3\n        /* \"#utility.yul\":10066:10159   */\n      tag_477\n      jump\t// in\n    tag_476:\n        /* \"#utility.yul\":10184:10186   */\n      0x40\n        /* \"#utility.yul\":10179:10182   */\n      dup3\n        /* \"#utility.yul\":10175:10187   */\n      add\n        /* \"#utility.yul\":10168:10187   */\n      swap1\n      pop\n        /* \"#utility.yul\":9827:10193   */\n      swap2\n      swap1\n      pop\n      jump\t// out\n        /* \"#utility.yul\":10199:10565   */\n    tag_478:\n        /* \"#utility.yul\":10341:10344   */\n      0x00\n        /* \"#utility.yul\":10362:10429   */\n      tag_480\n        /* \"#utility.yul\":10426:10428   */\n      0x2f\n        /* \"#utility.yul\":10421:10424   */\n      dup4\n        /* \"#utility.yul\":10362:10429   */\n      tag_429\n      jump\t// in\n    tag_480:\n        /* \"#utility.yul\":10355:10429   */\n      swap2\n      pop\n        /* \"#utility.yul\":10438:10531   */\n      tag_481\n        /* \"#utility.yul\":10527:10530   */\n      dup3\n        /* \"#utility.yul\":10438:10531   */\n      tag_482\n      jump\t// in\n    tag_481:\n        /* \"#utility.yul\":10556:10558   */\n      0x40\n        /* \"#utility.yul\":10551:10554   */\n      dup3\n        /* \"#utility.yul\":10547:10559   */\n      add\n        /* \"#utility.yul\":10540:10559   */\n      swap1\n      pop\n        /* \"#utility.yul\":10199:10565   */\n      swap2\n      swap1\n      pop\n      jump\t// out\n        /* \"#utility.yul\":10571:10937   */\n    tag_483:\n        /* \"#utility.yul\":10713:10716   */\n      0x00\n        /* \"#utility.yul\":10734:10801   */\n      tag_485\n        /* \"#utility.yul\":10798:10800   */\n      0x21\n        /* \"#utility.yul\":10793:10796   */\n      dup4\n        /* \"#utility.yul\":10734:10801   */\n      tag_429\n      jump\t// in\n    tag_485:\n        /* \"#utility.yul\":10727:10801   */\n      swap2\n      pop\n        /* \"#utility.yul\":10810:10903   */\n      tag_486\n        /* \"#utility.yul\":10899:10902   */\n      dup3\n        /* \"#utility.yul\":10810:10903   */\n      tag_487\n      jump\t// in\n    tag_486:\n        /* \"#utility.yul\":10928:10930   */\n      0x40\n        /* \"#utility.yul\":10923:10926   */\n      dup3\n        /* \"#utility.yul\":10919:10931   */\n      add\n        /* \"#utility.yul\":10912:10931   */\n      swap1\n      pop\n        /* \"#utility.yul\":10571:10937   */\n      swap2\n      swap1\n      pop\n      jump\t// out\n        /* \"#utility.yul\":10943:11309   */\n    tag_488:\n        /* \"#utility.yul\":11085:11088   */\n      0x00\n        /* \"#utility.yul\":11106:11173   */\n      tag_490\n        /* \"#utility.yul\":11170:11172   */\n      0x31\n        /* \"#utility.yul\":11165:11168   */\n      dup4\n        /* \"#utility.yul\":11106:11173   */\n      tag_429\n      jump\t// in\n    tag_490:\n        /* \"#utility.yul\":11099:11173   */\n      swap2\n      pop\n        /* \"#utility.yul\":11182:11275   */\n      tag_491\n        /* \"#utility.yul\":11271:11274   */\n      dup3\n        /* \"#utility.yul\":11182:11275   */\n      tag_492\n      jump\t// in\n    tag_491:\n        /* \"#utility.yul\":11300:11302   */\n      0x40\n        /* \"#utility.yul\":11295:11298   */\n      dup3\n        /* \"#utility.yul\":11291:11303   */\n      add\n        /* \"#utility.yul\":11284:11303   */\n      swap1\n      pop\n        /* \"#utility.yul\":10943:11309   */\n      swap2\n      swap1\n      pop\n      jump\t// out\n        /* \"#utility.yul\":11315:11433   */\n    tag_493:\n        /* \"#utility.yul\":11402:11426   */\n      tag_495\n        /* \"#utility.yul\":11420:11425   */\n      dup2\n        /* \"#utility.yul\":11402:11426   */\n      tag_496\n      jump\t// in\n    tag_495:\n        /* \"#utility.yul\":11397:11400   */\n      dup3\n        /* \"#utility.yul\":11390:11427   */\n      mstore\n        /* \"#utility.yul\":11315:11433   */\n      pop\n      pop\n      jump\t// out\n        /* \"#utility.yul\":11439:11874   */\n    tag_170:\n        /* \"#utility.yul\":11619:11622   */\n      0x00\n        /* \"#utility.yul\":11641:11736   */\n      tag_498\n        /* \"#utility.yul\":11732:11735   */\n      dup3\n        /* \"#utility.yul\":11723:11729   */\n      dup6\n        /* \"#utility.yul\":11641:11736   */\n      tag_432\n      jump\t// in\n    tag_498:\n        /* \"#utility.yul\":11634:11736   */\n      swap2\n      pop\n        /* \"#utility.yul\":11753:11848   */\n      tag_499\n        /* \"#utility.yul\":11844:11847   */\n      dup3\n        /* \"#utility.yul\":11835:11841   */\n      dup5\n        /* \"#utility.yul\":11753:11848   */\n      tag_432\n      jump\t// in\n    tag_499:\n        /* \"#utility.yul\":11746:11848   */\n      swap2\n      pop\n        /* \"#utility.yul\":11865:11868   */\n      dup2\n        /* \"#utility.yul\":11858:11868   */\n      swap1\n      pop\n        /* \"#utility.yul\":11439:11874   */\n      swap4\n      swap3\n      pop\n      pop\n      pop\n      jump\t// out\n        /* \"#utility.yul\":11880:12102   */\n    tag_35:\n        /* \"#utility.yul\":11973:11977   */\n      0x00\n        /* \"#utility.yul\":12011:12013   */\n      0x20\n        /* \"#utility.yul\":12000:12009   */\n      dup3\n        /* \"#utility.yul\":11996:12014   */\n      add\n        /* \"#utility.yul\":11988:12014   */\n      swap1\n      pop\n        /* \"#utility.yul\":12024:12095   */\n      tag_501\n        /* \"#utility.yul\":12092:12093   */\n      0x00\n        /* \"#utility.yul\":12081:12090   */\n      dup4\n        /* \"#utility.yul\":12077:12094   */\n      add\n        /* \"#utility.yul\":12068:12074   */\n      dup5\n        /* \"#utility.yul\":12024:12095   */\n      tag_406\n      jump\t// in\n    tag_501:\n        /* \"#utility.yul\":11880:12102   */\n      swap3\n      swap2\n      pop\n      pop\n      jump\t// out\n        /* \"#utility.yul\":12108:12748   */\n    tag_272:\n        /* \"#utility.yul\":12303:12307   */\n      0x00\n        /* \"#utility.yul\":12341:12344   */\n      0x80\n        /* \"#utility.yul\":12330:12339   */\n      dup3\n        /* \"#utility.yul\":12326:12345   */\n      add\n        /* \"#utility.yul\":12318:12345   */\n      swap1\n      pop\n        /* \"#utility.yul\":12355:12426   */\n      tag_503\n        /* \"#utility.yul\":12423:12424   */\n      0x00\n        /* \"#utility.yul\":12412:12421   */\n      dup4\n        /* \"#utility.yul\":12408:12425   */\n      add\n        /* \"#utility.yul\":12399:12405   */\n      dup8\n        /* \"#utility.yul\":12355:12426   */\n      tag_406\n      jump\t// in\n    tag_503:\n        /* \"#utility.yul\":12436:12508   */\n      tag_504\n        /* \"#utility.yul\":12504:12506   */\n      0x20\n        /* \"#utility.yul\":12493:12502   */\n      dup4\n        /* \"#utility.yul\":12489:12507   */\n      add\n        /* \"#utility.yul\":12480:12486   */\n      dup7\n        /* \"#utility.yul\":12436:12508   */\n      tag_406\n      jump\t// in\n    tag_504:\n        /* \"#utility.yul\":12518:12590   */\n      tag_505\n        /* \"#utility.yul\":12586:12588   */\n      0x40\n        /* \"#utility.yul\":12575:12584   */\n      dup4\n        /* \"#utility.yul\":12571:12589   */\n      add\n        /* \"#utility.yul\":12562:12568   */\n      dup6\n        /* \"#utility.yul\":12518:12590   */\n      tag_493\n      jump\t// in\n    tag_505:\n        /* \"#utility.yul\":12637:12646   */\n      dup2\n        /* \"#utility.yul\":12631:12635   */\n      dup2\n        /* \"#utility.yul\":12627:12647   */\n      sub\n        /* \"#utility.yul\":12622:12624   */\n      0x60\n        /* \"#utility.yul\":12611:12620   */\n      dup4\n        /* \"#utility.yul\":12607:12625   */\n      add\n        /* \"#utility.yul\":12600:12648   */\n      mstore\n        /* \"#utility.yul\":12665:12741   */\n      tag_506\n        /* \"#utility.yul\":12736:12740   */\n      dup2\n        /* \"#utility.yul\":12727:12733   */\n      dup5\n        /* \"#utility.yul\":12665:12741   */\n      tag_414\n      jump\t// in\n    tag_506:\n        /* \"#utility.yul\":12657:12741   */\n      swap1\n      pop\n        /* \"#utility.yul\":12108:12748   */\n      swap6\n      swap5\n      pop\n      pop\n      pop\n      pop\n      pop\n      jump\t// out\n        /* \"#utility.yul\":12754:12964   */\n    tag_25:\n        /* \"#utility.yul\":12841:12845   */\n      0x00\n        /* \"#utility.yul\":12879:12881   */\n      0x20\n        /* \"#utility.yul\":12868:12877   */\n      dup3\n        /* \"#utility.yul\":12864:12882   */\n      add\n        /* \"#utility.yul\":12856:12882   */\n      swap1\n      pop\n        /* \"#utility.yul\":12892:12957   */\n      tag_508\n        /* \"#utility.yul\":12954:12955   */\n      0x00\n        /* \"#utility.yul\":12943:12952   */\n      dup4\n        /* \"#utility.yul\":12939:12956   */\n      add\n        /* \"#utility.yul\":12930:12936   */\n      dup5\n        /* \"#utility.yul\":12892:12957   */\n      tag_410\n      jump\t// in\n    tag_508:\n        /* \"#utility.yul\":12754:12964   */\n      swap3\n      swap2\n      pop\n      pop\n      jump\t// out\n        /* \"#utility.yul\":12970:13283   */\n    tag_29:\n        /* \"#utility.yul\":13083:13087   */\n      0x00\n        /* \"#utility.yul\":13121:13123   */\n      0x20\n        /* \"#utility.yul\":13110:13119   */\n      dup3\n        /* \"#utility.yul\":13106:13124   */\n      add\n        /* \"#utility.yul\":13098:13124   */\n      swap1\n      pop\n        /* \"#utility.yul\":13170:13179   */\n      dup2\n        /* \"#utility.yul\":13164:13168   */\n      dup2\n        /* \"#utility.yul\":13160:13180   */\n      sub\n        /* \"#utility.yul\":13156:13157   */\n      0x00\n        /* \"#utility.yul\":13145:13154   */\n      dup4\n        /* \"#utility.yul\":13141:13158   */\n      add\n        /* \"#utility.yul\":13134:13181   */\n      mstore\n        /* \"#utility.yul\":13198:13276   */\n      tag_510\n        /* \"#utility.yul\":13271:13275   */\n      dup2\n        /* \"#utility.yul\":13262:13268   */\n      dup5\n        /* \"#utility.yul\":13198:13276   */\n      tag_424\n      jump\t// in\n    tag_510:\n        /* \"#utility.yul\":13190:13276   */\n      swap1\n      pop\n        /* \"#utility.yul\":12970:13283   */\n      swap3\n      swap2\n      pop\n      pop\n      jump\t// out\n        /* \"#utility.yul\":13289:13708   */\n    tag_220:\n        /* \"#utility.yul\":13455:13459   */\n      0x00\n        /* \"#utility.yul\":13493:13495   */\n      0x20\n        /* \"#utility.yul\":13482:13491   */\n      dup3\n        /* \"#utility.yul\":13478:13496   */\n      add\n        /* \"#utility.yul\":13470:13496   */\n      swap1\n      pop\n        /* \"#utility.yul\":13542:13551   */\n      dup2\n        /* \"#utility.yul\":13536:13540   */\n      dup2\n        /* \"#utility.yul\":13532:13552   */\n      sub\n        /* \"#utility.yul\":13528:13529   */\n      0x00\n        /* \"#utility.yul\":13517:13526   */\n      dup4\n        /* \"#utility.yul\":13513:13530   */\n      add\n        /* \"#utility.yul\":13506:13553   */\n      mstore\n        /* \"#utility.yul\":13570:13701   */\n      tag_512\n        /* \"#utility.yul\":13696:13700   */\n      dup2\n        /* \"#utility.yul\":13570:13701   */\n      tag_438\n      jump\t// in\n    tag_512:\n        /* \"#utility.yul\":13562:13701   */\n      swap1\n      pop\n        /* \"#utility.yul\":13289:13708   */\n      swap2\n      swap1\n      pop\n      jump\t// out\n        /* \"#utility.yul\":13714:14133   */\n    tag_198:\n        /* \"#utility.yul\":13880:13884   */\n      0x00\n        /* \"#utility.yul\":13918:13920   */\n      0x20\n        /* \"#utility.yul\":13907:13916   */\n      dup3\n        /* \"#utility.yul\":13903:13921   */\n      add\n        /* \"#utility.yul\":13895:13921   */\n      swap1\n      pop\n        /* \"#utility.yul\":13967:13976   */\n      dup2\n        /* \"#utility.yul\":13961:13965   */\n      dup2\n        /* \"#utility.yul\":13957:13977   */\n      sub\n        /* \"#utility.yul\":13953:13954   */\n      0x00\n        /* \"#utility.yul\":13942:13951   */\n      dup4\n        /* \"#utility.yul\":13938:13955   */\n      add\n        /* \"#utility.yul\":13931:13978   */\n      mstore\n        /* \"#utility.yul\":13995:14126   */\n      tag_514\n        /* \"#utility.yul\":14121:14125   */\n      dup2\n        /* \"#utility.yul\":13995:14126   */\n      tag_443\n      jump\t// in\n    tag_514:\n        /* \"#utility.yul\":13987:14126   */\n      swap1\n      pop\n        /* \"#utility.yul\":13714:14133   */\n      swap2\n      swap1\n      pop\n      jump\t// out\n        /* \"#utility.yul\":14139:14558   */\n    tag_145:\n        /* \"#utility.yul\":14305:14309   */\n      0x00\n        /* \"#utility.yul\":14343:14345   */\n      0x20\n        /* \"#utility.yul\":14332:14341   */\n      dup3\n        /* \"#utility.yul\":14328:14346   */\n      add\n        /* \"#utility.yul\":14320:14346   */\n      swap1\n      pop\n        /* \"#utility.yul\":14392:14401   */\n      dup2\n        /* \"#utility.yul\":14386:14390   */\n      dup2\n        /* \"#utility.yul\":14382:14402   */\n      sub\n        /* \"#utility.yul\":14378:14379   */\n      0x00\n        /* \"#utility.yul\":14367:14376   */\n      dup4\n        /* \"#utility.yul\":14363:14380   */\n      add\n        /* \"#utility.yul\":14356:14403   */\n      mstore\n        /* \"#utility.yul\":14420:14551   */\n      tag_516\n        /* \"#utility.yul\":14546:14550   */\n      dup2\n        /* \"#utility.yul\":14420:14551   */\n      tag_448\n      jump\t// in\n    tag_516:\n        /* \"#utility.yul\":14412:14551   */\n      swap1\n      pop\n        /* \"#utility.yul\":14139:14558   */\n      swap2\n      swap1\n      pop\n      jump\t// out\n        /* \"#utility.yul\":14564:14983   */\n    tag_185:\n        /* \"#utility.yul\":14730:14734   */\n      0x00\n        /* \"#utility.yul\":14768:14770   */\n      0x20\n        /* \"#utility.yul\":14757:14766   */\n      dup3\n        /* \"#utility.yul\":14753:14771   */\n      add\n        /* \"#utility.yul\":14745:14771   */\n      swap1\n      pop\n        /* \"#utility.yul\":14817:14826   */\n      dup2\n        /* \"#utility.yul\":14811:14815   */\n      dup2\n        /* \"#utility.yul\":14807:14827   */\n      sub\n        /* \"#utility.yul\":14803:14804   */\n      0x00\n        /* \"#utility.yul\":14792:14801   */\n      dup4\n        /* \"#utility.yul\":14788:14805   */\n      add\n        /* \"#utility.yul\":14781:14828   */\n      mstore\n        /* \"#utility.yul\":14845:14976   */\n      tag_518\n        /* \"#utility.yul\":14971:14975   */\n      dup2\n        /* \"#utility.yul\":14845:14976   */\n      tag_453\n      jump\t// in\n    tag_518:\n        /* \"#utility.yul\":14837:14976   */\n      swap1\n      pop\n        /* \"#utility.yul\":14564:14983   */\n      swap2\n      swap1\n      pop\n      jump\t// out\n        /* \"#utility.yul\":14989:15408   */\n    tag_106:\n        /* \"#utility.yul\":15155:15159   */\n      0x00\n        /* \"#utility.yul\":15193:15195   */\n      0x20\n        /* \"#utility.yul\":15182:15191   */\n      dup3\n        /* \"#utility.yul\":15178:15196   */\n      add\n        /* \"#utility.yul\":15170:15196   */\n      swap1\n      pop\n        /* \"#utility.yul\":15242:15251   */\n      dup2\n        /* \"#utility.yul\":15236:15240   */\n      dup2\n        /* \"#utility.yul\":15232:15252   */\n      sub\n        /* \"#utility.yul\":15228:15229   */\n      0x00\n        /* \"#utility.yul\":15217:15226   */\n      dup4\n        /* \"#utility.yul\":15213:15230   */\n      add\n        /* \"#utility.yul\":15206:15253   */\n      mstore\n        /* \"#utility.yul\":15270:15401   */\n      tag_520\n        /* \"#utility.yul\":15396:15400   */\n      dup2\n        /* \"#utility.yul\":15270:15401   */\n      tag_458\n      jump\t// in\n    tag_520:\n        /* \"#utility.yul\":15262:15401   */\n      swap1\n      pop\n        /* \"#utility.yul\":14989:15408   */\n      swap2\n      swap1\n      pop\n      jump\t// out\n        /* \"#utility.yul\":15414:15833   */\n    tag_132:\n        /* \"#utility.yul\":15580:15584   */\n      0x00\n        /* \"#utility.yul\":15618:15620   */\n      0x20\n        /* \"#utility.yul\":15607:15616   */\n      dup3\n        /* \"#utility.yul\":15603:15621   */\n      add\n        /* \"#utility.yul\":15595:15621   */\n      swap1\n      pop\n        /* \"#utility.yul\":15667:15676   */\n      dup2\n        /* \"#utility.yul\":15661:15665   */\n      dup2\n        /* \"#utility.yul\":15657:15677   */\n      sub\n        /* \"#utility.yul\":15653:15654   */\n      0x00\n        /* \"#utility.yul\":15642:15651   */\n      dup4\n        /* \"#utility.yul\":15638:15655   */\n      add\n        /* \"#utility.yul\":15631:15678   */\n      mstore\n        /* \"#utility.yul\":15695:15826   */\n      tag_522\n        /* \"#utility.yul\":15821:15825   */\n      dup2\n        /* \"#utility.yul\":15695:15826   */\n      tag_463\n      jump\t// in\n    tag_522:\n        /* \"#utility.yul\":15687:15826   */\n      swap1\n      pop\n        /* \"#utility.yul\":15414:15833   */\n      swap2\n      swap1\n      pop\n      jump\t// out\n        /* \"#utility.yul\":15839:16258   */\n    tag_93:\n        /* \"#utility.yul\":16005:16009   */\n      0x00\n        /* \"#utility.yul\":16043:16045   */\n      0x20\n        /* \"#utility.yul\":16032:16041   */\n      dup3\n        /* \"#utility.yul\":16028:16046   */\n      add\n        /* \"#utility.yul\":16020:16046   */\n      swap1\n      pop\n        /* \"#utility.yul\":16092:16101   */\n      dup2\n        /* \"#utility.yul\":16086:16090   */\n      dup2\n        /* \"#utility.yul\":16082:16102   */\n      sub\n        /* \"#utility.yul\":16078:16079   */\n      0x00\n        /* \"#utility.yul\":16067:16076   */\n      dup4\n        /* \"#utility.yul\":16063:16080   */\n      add\n        /* \"#utility.yul\":16056:16103   */\n      mstore\n        /* \"#utility.yul\":16120:16251   */\n      tag_524\n        /* \"#utility.yul\":16246:16250   */\n      dup2\n        /* \"#utility.yul\":16120:16251   */\n      tag_468\n      jump\t// in\n    tag_524:\n        /* \"#utility.yul\":16112:16251   */\n      swap1\n      pop\n        /* \"#utility.yul\":15839:16258   */\n      swap2\n      swap1\n      pop\n      jump\t// out\n        /* \"#utility.yul\":16264:16683   */\n    tag_195:\n        /* \"#utility.yul\":16430:16434   */\n      0x00\n        /* \"#utility.yul\":16468:16470   */\n      0x20\n        /* \"#utility.yul\":16457:16466   */\n      dup3\n        /* \"#utility.yul\":16453:16471   */\n      add\n        /* \"#utility.yul\":16445:16471   */\n      swap1\n      pop\n        /* \"#utility.yul\":16517:16526   */\n      dup2\n        /* \"#utility.yul\":16511:16515   */\n      dup2\n        /* \"#utility.yul\":16507:16527   */\n      sub\n        /* \"#utility.yul\":16503:16504   */\n      0x00\n        /* \"#utility.yul\":16492:16501   */\n      dup4\n        /* \"#utility.yul\":16488:16505   */\n      add\n        /* \"#utility.yul\":16481:16528   */\n      mstore\n        /* \"#utility.yul\":16545:16676   */\n      tag_526\n        /* \"#utility.yul\":16671:16675   */\n      dup2\n        /* \"#utility.yul\":16545:16676   */\n      tag_473\n      jump\t// in\n    tag_526:\n        /* \"#utility.yul\":16537:16676   */\n      swap1\n      pop\n        /* \"#utility.yul\":16264:16683   */\n      swap2\n      swap1\n      pop\n      jump\t// out\n        /* \"#utility.yul\":16689:17108   */\n    tag_160:\n        /* \"#utility.yul\":16855:16859   */\n      0x00\n        /* \"#utility.yul\":16893:16895   */\n      0x20\n        /* \"#utility.yul\":16882:16891   */\n      dup3\n        /* \"#utility.yul\":16878:16896   */\n      add\n        /* \"#utility.yul\":16870:16896   */\n      swap1\n      pop\n        /* \"#utility.yul\":16942:16951   */\n      dup2\n        /* \"#utility.yul\":16936:16940   */\n      dup2\n        /* \"#utility.yul\":16932:16952   */\n      sub\n        /* \"#utility.yul\":16928:16929   */\n      0x00\n        /* \"#utility.yul\":16917:16926   */\n      dup4\n        /* \"#utility.yul\":16913:16930   */\n      add\n        /* \"#utility.yul\":16906:16953   */\n      mstore\n        /* \"#utility.yul\":16970:17101   */\n      tag_528\n        /* \"#utility.yul\":17096:17100   */\n      dup2\n        /* \"#utility.yul\":16970:17101   */\n      tag_478\n      jump\t// in\n    tag_528:\n        /* \"#utility.yul\":16962:17101   */\n      swap1\n      pop\n        /* \"#utility.yul\":16689:17108   */\n      swap2\n      swap1\n      pop\n      jump\t// out\n        /* \"#utility.yul\":17114:17533   */\n    tag_98:\n        /* \"#utility.yul\":17280:17284   */\n      0x00\n        /* \"#utility.yul\":17318:17320   */\n      0x20\n        /* \"#utility.yul\":17307:17316   */\n      dup3\n        /* \"#utility.yul\":17303:17321   */\n      add\n        /* \"#utility.yul\":17295:17321   */\n      swap1\n      pop\n        /* \"#utility.yul\":17367:17376   */\n      dup2\n        /* \"#utility.yul\":17361:17365   */\n      dup2\n        /* \"#utility.yul\":17357:17377   */\n      sub\n        /* \"#utility.yul\":17353:17354   */\n      0x00\n        /* \"#utility.yul\":17342:17351   */\n      dup4\n        /* \"#utility.yul\":17338:17355   */\n      add\n        /* \"#utility.yul\":17331:17378   */\n      mstore\n        /* \"#utility.yul\":17395:17526   */\n      tag_530\n        /* \"#utility.yul\":17521:17525   */\n      dup2\n        /* \"#utility.yul\":17395:17526   */\n      tag_483\n      jump\t// in\n    tag_530:\n        /* \"#utility.yul\":17387:17526   */\n      swap1\n      pop\n        /* \"#utility.yul\":17114:17533   */\n      swap2\n      swap1\n      pop\n      jump\t// out\n        /* \"#utility.yul\":17539:17958   */\n    tag_115:\n        /* \"#utility.yul\":17705:17709   */\n      0x00\n        /* \"#utility.yul\":17743:17745   */\n      0x20\n        /* \"#utility.yul\":17732:17741   */\n      dup3\n        /* \"#utility.yul\":17728:17746   */\n      add\n        /* \"#utility.yul\":17720:17746   */\n      swap1\n      pop\n        /* \"#utility.yul\":17792:17801   */\n      dup2\n        /* \"#utility.yul\":17786:17790   */\n      dup2\n        /* \"#utility.yul\":17782:17802   */\n      sub\n        /* \"#utility.yul\":17778:17779   */\n      0x00\n        /* \"#utility.yul\":17767:17776   */\n      dup4\n        /* \"#utility.yul\":17763:17780   */\n      add\n        /* \"#utility.yul\":17756:17803   */\n      mstore\n        /* \"#utility.yul\":17820:17951   */\n      tag_532\n        /* \"#utility.yul\":17946:17950   */\n      dup2\n        /* \"#utility.yul\":17820:17951   */\n      tag_488\n      jump\t// in\n    tag_532:\n        /* \"#utility.yul\":17812:17951   */\n      swap1\n      pop\n        /* \"#utility.yul\":17539:17958   */\n      swap2\n      swap1\n      pop\n      jump\t// out\n        /* \"#utility.yul\":17964:18186   */\n    tag_59:\n        /* \"#utility.yul\":18057:18061   */\n      0x00\n        /* \"#utility.yul\":18095:18097   */\n      0x20\n        /* \"#utility.yul\":18084:18093   */\n      dup3\n        /* \"#utility.yul\":18080:18098   */\n      add\n        /* \"#utility.yul\":18072:18098   */\n      swap1\n      pop\n        /* \"#utility.yul\":18108:18179   */\n      tag_534\n        /* \"#utility.yul\":18176:18177   */\n      0x00\n        /* \"#utility.yul\":18165:18174   */\n      dup4\n        /* \"#utility.yul\":18161:18178   */\n      add\n        /* \"#utility.yul\":18152:18158   */\n      dup5\n        /* \"#utility.yul\":18108:18179   */\n      tag_493\n      jump\t// in\n    tag_534:\n        /* \"#utility.yul\":17964:18186   */\n      swap3\n      swap2\n      pop\n      pop\n      jump\t// out\n        /* \"#utility.yul\":18192:18321   */\n    tag_327:\n        /* \"#utility.yul\":18226:18232   */\n      0x00\n        /* \"#utility.yul\":18253:18273   */\n      tag_536\n      tag_537\n      jump\t// in\n    tag_536:\n        /* \"#utility.yul\":18243:18273   */\n      swap1\n      pop\n        /* \"#utility.yul\":18282:18315   */\n      tag_538\n        /* \"#utility.yul\":18310:18314   */\n      dup3\n        /* \"#utility.yul\":18302:18308   */\n      dup3\n        /* \"#utility.yul\":18282:18315   */\n      tag_539\n      jump\t// in\n    tag_538:\n        /* \"#utility.yul\":18192:18321   */\n      swap2\n      swap1\n      pop\n      jump\t// out\n        /* \"#utility.yul\":18327:18402   */\n    tag_537:\n        /* \"#utility.yul\":18360:18366   */\n      0x00\n        /* \"#utility.yul\":18393:18395   */\n      0x40\n        /* \"#utility.yul\":18387:18396   */\n      mload\n        /* \"#utility.yul\":18377:18396   */\n      swap1\n      pop\n        /* \"#utility.yul\":18327:18402   */\n      swap1\n      jump\t// out\n        /* \"#utility.yul\":18408:18715   */\n    tag_326:\n        /* \"#utility.yul\":18469:18473   */\n      0x00\n        /* \"#utility.yul\":18559:18577   */\n      0xffffffffffffffff\n        /* \"#utility.yul\":18551:18557   */\n      dup3\n        /* \"#utility.yul\":18548:18578   */\n      gt\n        /* \"#utility.yul\":18545:18601   */\n      iszero\n      tag_542\n      jumpi\n        /* \"#utility.yul\":18581:18599   */\n      tag_543\n      tag_231\n      jump\t// in\n    tag_543:\n        /* \"#utility.yul\":18545:18601   */\n    tag_542:\n        /* \"#utility.yul\":18619:18648   */\n      tag_544\n        /* \"#utility.yul\":18641:18647   */\n      dup3\n        /* \"#utility.yul\":18619:18648   */\n      tag_423\n      jump\t// in\n    tag_544:\n        /* \"#utility.yul\":18611:18648   */\n      swap1\n      pop\n        /* \"#utility.yul\":18703:18707   */\n      0x20\n        /* \"#utility.yul\":18697:18701   */\n      dup2\n        /* \"#utility.yul\":18693:18708   */\n      add\n        /* \"#utility.yul\":18685:18708   */\n      swap1\n      pop\n        /* \"#utility.yul\":18408:18715   */\n      swap2\n      swap1\n      pop\n      jump\t// out\n        /* \"#utility.yul\":18721:18819   */\n    tag_417:\n        /* \"#utility.yul\":18772:18778   */\n      0x00\n        /* \"#utility.yul\":18806:18811   */\n      dup2\n        /* \"#utility.yul\":18800:18812   */\n      mload\n        /* \"#utility.yul\":18790:18812   */\n      swap1\n      pop\n        /* \"#utility.yul\":18721:18819   */\n      swap2\n      swap1\n      pop\n      jump\t// out\n        /* \"#utility.yul\":18825:18924   */\n    tag_427:\n        /* \"#utility.yul\":18877:18883   */\n      0x00\n        /* \"#utility.yul\":18911:18916   */\n      dup2\n        /* \"#utility.yul\":18905:18917   */\n      mload\n        /* \"#utility.yul\":18895:18917   */\n      swap1\n      pop\n        /* \"#utility.yul\":18825:18924   */\n      swap2\n      swap1\n      pop\n      jump\t// out\n        /* \"#utility.yul\":18930:19098   */\n    tag_419:\n        /* \"#utility.yul\":19013:19024   */\n      0x00\n        /* \"#utility.yul\":19047:19053   */\n      dup3\n        /* \"#utility.yul\":19042:19045   */\n      dup3\n        /* \"#utility.yul\":19035:19054   */\n      mstore\n        /* \"#utility.yul\":19087:19091   */\n      0x20\n        /* \"#utility.yul\":19082:19085   */\n      dup3\n        /* \"#utility.yul\":19078:19092   */\n      add\n        /* \"#utility.yul\":19063:19092   */\n      swap1\n      pop\n        /* \"#utility.yul\":18930:19098   */\n      swap3\n      swap2\n      pop\n      pop\n      jump\t// out\n        /* \"#utility.yul\":19104:19273   */\n    tag_429:\n        /* \"#utility.yul\":19188:19199   */\n      0x00\n        /* \"#utility.yul\":19222:19228   */\n      dup3\n        /* \"#utility.yul\":19217:19220   */\n      dup3\n        /* \"#utility.yul\":19210:19229   */\n      mstore\n        /* \"#utility.yul\":19262:19266   */\n      0x20\n        /* \"#utility.yul\":19257:19260   */\n      dup3\n        /* \"#utility.yul\":19253:19267   */\n      add\n        /* \"#utility.yul\":19238:19267   */\n      swap1\n      pop\n        /* \"#utility.yul\":19104:19273   */\n      swap3\n      swap2\n      pop\n      pop\n      jump\t// out\n        /* \"#utility.yul\":19279:19427   */\n    tag_436:\n        /* \"#utility.yul\":19381:19392   */\n      0x00\n        /* \"#utility.yul\":19418:19421   */\n      dup2\n        /* \"#utility.yul\":19403:19421   */\n      swap1\n      pop\n        /* \"#utility.yul\":19279:19427   */\n      swap3\n      swap2\n      pop\n      pop\n      jump\t// out\n        /* \"#utility.yul\":19433:19738   */\n    tag_240:\n        /* \"#utility.yul\":19473:19476   */\n      0x00\n        /* \"#utility.yul\":19492:19512   */\n      tag_551\n        /* \"#utility.yul\":19510:19511   */\n      dup3\n        /* \"#utility.yul\":19492:19512   */\n      tag_496\n      jump\t// in\n    tag_551:\n        /* \"#utility.yul\":19487:19512   */\n      swap2\n      pop\n        /* \"#utility.yul\":19526:19546   */\n      tag_552\n        /* \"#utility.yul\":19544:19545   */\n      dup4\n        /* \"#utility.yul\":19526:19546   */\n      tag_496\n      jump\t// in\n    tag_552:\n        /* \"#utility.yul\":19521:19546   */\n      swap3\n      pop\n        /* \"#utility.yul\":19680:19681   */\n      dup3\n        /* \"#utility.yul\":19612:19678   */\n      0xffffffffffffffffffffffffffffffffffffffffffffffffffffffffffffffff\n        /* \"#utility.yul\":19608:19682   */\n      sub\n        /* \"#utility.yul\":19605:19606   */\n      dup3\n        /* \"#utility.yul\":19602:19683   */\n      gt\n        /* \"#utility.yul\":19599:19706   */\n      iszero\n      tag_553\n      jumpi\n        /* \"#utility.yul\":19686:19704   */\n      tag_554\n      tag_555\n      jump\t// in\n    tag_554:\n        /* \"#utility.yul\":19599:19706   */\n    tag_553:\n        /* \"#utility.yul\":19730:19731   */\n      dup3\n        /* \"#utility.yul\":19727:19728   */\n      dup3\n        /* \"#utility.yul\":19723:19732   */\n      add\n        /* \"#utility.yul\":19716:19732   */\n      swap1\n      pop\n        /* \"#utility.yul\":19433:19738   */\n      swap3\n      swap2\n      pop\n      pop\n      jump\t// out\n        /* \"#utility.yul\":19744:19929   */\n    tag_228:\n        /* \"#utility.yul\":19784:19785   */\n      0x00\n        /* \"#utility.yul\":19801:19821   */\n      tag_557\n        /* \"#utility.yul\":19819:19820   */\n      dup3\n        /* \"#utility.yul\":19801:19821   */\n      tag_496\n      jump\t// in\n    tag_557:\n        /* \"#utility.yul\":19796:19821   */\n      swap2\n      pop\n        /* \"#utility.yul\":19835:19855   */\n      tag_558\n        /* \"#utility.yul\":19853:19854   */\n      dup4\n        /* \"#utility.yul\":19835:19855   */\n      tag_496\n      jump\t// in\n    tag_558:\n        /* \"#utility.yul\":19830:19855   */\n      swap3\n      pop\n        /* \"#utility.yul\":19874:19875   */\n      dup3\n        /* \"#utility.yul\":19864:19899   */\n      tag_559\n      jumpi\n        /* \"#utility.yul\":19879:19897   */\n      tag_560\n      tag_561\n      jump\t// in\n    tag_560:\n        /* \"#utility.yul\":19864:19899   */\n    tag_559:\n        /* \"#utility.yul\":19921:19922   */\n      dup3\n        /* \"#utility.yul\":19918:19919   */\n      dup3\n        /* \"#utility.yul\":19914:19923   */\n      div\n        /* \"#utility.yul\":19909:19923   */\n      swap1\n      pop\n        /* \"#utility.yul\":19744:19929   */\n      swap3\n      swap2\n      pop\n      pop\n      jump\t// out\n        /* \"#utility.yul\":19935:20126   */\n    tag_236:\n        /* \"#utility.yul\":19975:19979   */\n      0x00\n        /* \"#utility.yul\":19995:20015   */\n      tag_563\n        /* \"#utility.yul\":20013:20014   */\n      dup3\n        /* \"#utility.yul\":19995:20015   */\n      tag_496\n      jump\t// in\n    tag_563:\n        /* \"#utility.yul\":19990:20015   */\n      swap2\n      pop\n        /* \"#utility.yul\":20029:20049   */\n      tag_564\n        /* \"#utility.yul\":20047:20048   */\n      dup4\n        /* \"#utility.yul\":20029:20049   */\n      tag_496\n      jump\t// in\n    tag_564:\n        /* \"#utility.yul\":20024:20049   */\n      swap3\n      pop\n        /* \"#utility.yul\":20068:20069   */\n      dup3\n        /* \"#utility.yul\":20065:20066   */\n      dup3\n        /* \"#utility.yul\":20062:20070   */\n      lt\n        /* \"#utility.yul\":20059:20093   */\n      iszero\n      tag_565\n      jumpi\n        /* \"#utility.yul\":20073:20091   */\n      tag_566\n      tag_555\n      jump\t// in\n    tag_566:\n        /* \"#utility.yul\":20059:20093   */\n    tag_565:\n        /* \"#utility.yul\":20118:20119   */\n      dup3\n        /* \"#utility.yul\":20115:20116   */\n      dup3\n        /* \"#utility.yul\":20111:20120   */\n      sub\n        /* \"#utility.yul\":20103:20120   */\n      swap1\n      pop\n        /* \"#utility.yul\":19935:20126   */\n      swap3\n      swap2\n      pop\n      pop\n      jump\t// out\n        /* \"#utility.yul\":20132:20228   */\n    tag_409:\n        /* \"#utility.yul\":20169:20176   */\n      0x00\n        /* \"#utility.yul\":20198:20222   */\n      tag_568\n        /* \"#utility.yul\":20216:20221   */\n      dup3\n        /* \"#utility.yul\":20198:20222   */\n      tag_569\n      jump\t// in\n    tag_568:\n        /* \"#utility.yul\":20187:20222   */\n      swap1\n      pop\n        /* \"#utility.yul\":20132:20228   */\n      swap2\n      swap1\n      pop\n      jump\t// out\n        /* \"#utility.yul\":20234:20324   */\n    tag_413:\n        /* \"#utility.yul\":20268:20275   */\n      0x00\n        /* \"#utility.yul\":20311:20316   */\n      dup2\n        /* \"#utility.yul\":20304:20317   */\n      iszero\n        /* \"#utility.yul\":20297:20318   */\n      iszero\n        /* \"#utility.yul\":20286:20318   */\n      swap1\n      pop\n        /* \"#utility.yul\":20234:20324   */\n      swap2\n      swap1\n      pop\n      jump\t// out\n        /* \"#utility.yul\":20330:20479   */\n    tag_571:\n        /* \"#utility.yul\":20366:20373   */\n      0x00\n        /* \"#utility.yul\":20406:20472   */\n      0xffffffff00000000000000000000000000000000000000000000000000000000\n        /* \"#utility.yul\":20399:20404   */\n      dup3\n        /* \"#utility.yul\":20395:20473   */\n      and\n        /* \"#utility.yul\":20384:20473   */\n      swap1\n      pop\n        /* \"#utility.yul\":20330:20479   */\n      swap2\n      swap1\n      pop\n      jump\t// out\n        /* \"#utility.yul\":20485:20611   */\n    tag_569:\n        /* \"#utility.yul\":20522:20529   */\n      0x00\n        /* \"#utility.yul\":20562:20604   */\n      0xffffffffffffffffffffffffffffffffffffffff\n        /* \"#utility.yul\":20555:20560   */\n      dup3\n        /* \"#utility.yul\":20551:20605   */\n      and\n        /* \"#utility.yul\":20540:20605   */\n      swap1\n      pop\n        /* \"#utility.yul\":20485:20611   */\n      swap2\n      swap1\n      pop\n      jump\t// out\n        /* \"#utility.yul\":20617:20694   */\n    tag_496:\n        /* \"#utility.yul\":20654:20661   */\n      0x00\n        /* \"#utility.yul\":20683:20688   */\n      dup2\n        /* \"#utility.yul\":20672:20688   */\n      swap1\n      pop\n        /* \"#utility.yul\":20617:20694   */\n      swap2\n      swap1\n      pop\n      jump\t// out\n        /* \"#utility.yul\":20700:20854   */\n    tag_332:\n        /* \"#utility.yul\":20784:20790   */\n      dup3\n        /* \"#utility.yul\":20779:20782   */\n      dup2\n        /* \"#utility.yul\":20774:20777   */\n      dup4\n        /* \"#utility.yul\":20761:20791   */\n      calldatacopy\n        /* \"#utility.yul\":20846:20847   */\n      0x00\n        /* \"#utility.yul\":20837:20843   */\n      dup4\n        /* \"#utility.yul\":20832:20835   */\n      dup4\n        /* \"#utility.yul\":20828:20844   */\n      add\n        /* \"#utility.yul\":20821:20848   */\n      mstore\n        /* \"#utility.yul\":20700:20854   */\n      pop\n      pop\n      pop\n      jump\t// out\n        /* \"#utility.yul\":20860:21167   */\n    tag_421:\n        /* \"#utility.yul\":20928:20929   */\n      0x00\n        /* \"#utility.yul\":20938:21051   */\n    tag_577:\n        /* \"#utility.yul\":20952:20958   */\n      dup4\n        /* \"#utility.yul\":20949:20950   */\n      dup2\n        /* \"#utility.yul\":20946:20959   */\n      lt\n        /* \"#utility.yul\":20938:21051   */\n      iszero\n      tag_579\n      jumpi\n        /* \"#utility.yul\":21037:21038   */\n      dup1\n        /* \"#utility.yul\":21032:21035   */\n      dup3\n        /* \"#utility.yul\":21028:21039   */\n      add\n        /* \"#utility.yul\":21022:21040   */\n      mload\n        /* \"#utility.yul\":21018:21019   */\n      dup2\n        /* \"#utility.yul\":21013:21016   */\n      dup5\n        /* \"#utility.yul\":21009:21020   */\n      add\n        /* \"#utility.yul\":21002:21041   */\n      mstore\n        /* \"#utility.yul\":20974:20976   */\n      0x20\n        /* \"#utility.yul\":20971:20972   */\n      dup2\n        /* \"#utility.yul\":20967:20977   */\n      add\n        /* \"#utility.yul\":20962:20977   */\n      swap1\n      pop\n        /* \"#utility.yul\":20938:21051   */\n      jump(tag_577)\n    tag_579:\n        /* \"#utility.yul\":21069:21075   */\n      dup4\n        /* \"#utility.yul\":21066:21067   */\n      dup2\n        /* \"#utility.yul\":21063:21076   */\n      gt\n        /* \"#utility.yul\":21060:21161   */\n      iszero\n      tag_580\n      jumpi\n        /* \"#utility.yul\":21149:21150   */\n      0x00\n        /* \"#utility.yul\":21140:21146   */\n      dup5\n        /* \"#utility.yul\":21135:21138   */\n      dup5\n        /* \"#utility.yul\":21131:21147   */\n      add\n        /* \"#utility.yul\":21124:21151   */\n      mstore\n        /* \"#utility.yul\":21060:21161   */\n    tag_580:\n        /* \"#utility.yul\":20909:21167   */\n      pop\n        /* \"#utility.yul\":20860:21167   */\n      pop\n      pop\n      pop\n      jump\t// out\n        /* \"#utility.yul\":21173:21493   */\n    tag_83:\n        /* \"#utility.yul\":21217:21223   */\n      0x00\n        /* \"#utility.yul\":21254:21255   */\n      0x02\n        /* \"#utility.yul\":21248:21252   */\n      dup3\n        /* \"#utility.yul\":21244:21256   */\n      div\n        /* \"#utility.yul\":21234:21256   */\n      swap1\n      pop\n        /* \"#utility.yul\":21301:21302   */\n      0x01\n        /* \"#utility.yul\":21295:21299   */\n      dup3\n        /* \"#utility.yul\":21291:21303   */\n      and\n        /* \"#utility.yul\":21322:21340   */\n      dup1\n        /* \"#utility.yul\":21312:21393   */\n      tag_582\n      jumpi\n        /* \"#utility.yul\":21378:21382   */\n      0x7f\n        /* \"#utility.yul\":21370:21376   */\n      dup3\n        /* \"#utility.yul\":21366:21383   */\n      and\n        /* \"#utility.yul\":21356:21383   */\n      swap2\n      pop\n        /* \"#utility.yul\":21312:21393   */\n    tag_582:\n        /* \"#utility.yul\":21440:21442   */\n      0x20\n        /* \"#utility.yul\":21432:21438   */\n      dup3\n        /* \"#utility.yul\":21429:21443   */\n      lt\n        /* \"#utility.yul\":21409:21427   */\n      dup2\n        /* \"#utility.yul\":21406:21444   */\n      eq\n        /* \"#utility.yul\":21403:21487   */\n      iszero\n      tag_583\n      jumpi\n        /* \"#utility.yul\":21459:21477   */\n      tag_584\n      tag_585\n      jump\t// in\n    tag_584:\n        /* \"#utility.yul\":21403:21487   */\n    tag_583:\n        /* \"#utility.yul\":21224:21493   */\n      pop\n        /* \"#utility.yul\":21173:21493   */\n      swap2\n      swap1\n      pop\n      jump\t// out\n        /* \"#utility.yul\":21499:21780   */\n    tag_539:\n        /* \"#utility.yul\":21582:21609   */\n      tag_587\n        /* \"#utility.yul\":21604:21608   */\n      dup3\n        /* \"#utility.yul\":21582:21609   */\n      tag_423\n      jump\t// in\n    tag_587:\n        /* \"#utility.yul\":21574:21580   */\n      dup2\n        /* \"#utility.yul\":21570:21610   */\n      add\n        /* \"#utility.yul\":21712:21718   */\n      dup2\n        /* \"#utility.yul\":21700:21710   */\n      dup2\n        /* \"#utility.yul\":21697:21719   */\n      lt\n        /* \"#utility.yul\":21676:21694   */\n      0xffffffffffffffff\n        /* \"#utility.yul\":21664:21674   */\n      dup3\n        /* \"#utility.yul\":21661:21695   */\n      gt\n        /* \"#utility.yul\":21658:21720   */\n      or\n        /* \"#utility.yul\":21655:21743   */\n      iszero\n      tag_588\n      jumpi\n        /* \"#utility.yul\":21723:21741   */\n      tag_589\n      tag_231\n      jump\t// in\n    tag_589:\n        /* \"#utility.yul\":21655:21743   */\n    tag_588:\n        /* \"#utility.yul\":21763:21773   */\n      dup1\n        /* \"#utility.yul\":21759:21761   */\n      0x40\n        /* \"#utility.yul\":21752:21774   */\n      mstore\n        /* \"#utility.yul\":21542:21780   */\n      pop\n        /* \"#utility.yul\":21499:21780   */\n      pop\n      pop\n      jump\t// out\n        /* \"#utility.yul\":21786:22019   */\n    tag_226:\n        /* \"#utility.yul\":21825:21828   */\n      0x00\n        /* \"#utility.yul\":21848:21872   */\n      tag_591\n        /* \"#utility.yul\":21866:21871   */\n      dup3\n        /* \"#utility.yul\":21848:21872   */\n      tag_496\n      jump\t// in\n    tag_591:\n        /* \"#utility.yul\":21839:21872   */\n      swap2\n      pop\n        /* \"#utility.yul\":21894:21960   */\n      0xffffffffffffffffffffffffffffffffffffffffffffffffffffffffffffffff\n        /* \"#utility.yul\":21887:21892   */\n      dup3\n        /* \"#utility.yul\":21884:21961   */\n      eq\n        /* \"#utility.yul\":21881:21984   */\n      iszero\n      tag_592\n      jumpi\n        /* \"#utility.yul\":21964:21982   */\n      tag_593\n      tag_555\n      jump\t// in\n    tag_593:\n        /* \"#utility.yul\":21881:21984   */\n    tag_592:\n        /* \"#utility.yul\":22011:22012   */\n      0x01\n        /* \"#utility.yul\":22004:22009   */\n      dup3\n        /* \"#utility.yul\":22000:22013   */\n      add\n        /* \"#utility.yul\":21993:22013   */\n      swap1\n      pop\n        /* \"#utility.yul\":21786:22019   */\n      swap2\n      swap1\n      pop\n      jump\t// out\n        /* \"#utility.yul\":22025:22201   */\n    tag_238:\n        /* \"#utility.yul\":22057:22058   */\n      0x00\n        /* \"#utility.yul\":22074:22094   */\n      tag_595\n        /* \"#utility.yul\":22092:22093   */\n      dup3\n        /* \"#utility.yul\":22074:22094   */\n      tag_496\n      jump\t// in\n    tag_595:\n        /* \"#utility.yul\":22069:22094   */\n      swap2\n      pop\n        /* \"#utility.yul\":22108:22128   */\n      tag_596\n        /* \"#utility.yul\":22126:22127   */\n      dup4\n        /* \"#utility.yul\":22108:22128   */\n      tag_496\n      jump\t// in\n    tag_596:\n        /* \"#utility.yul\":22103:22128   */\n      swap3\n      pop\n        /* \"#utility.yul\":22147:22148   */\n      dup3\n        /* \"#utility.yul\":22137:22172   */\n      tag_597\n      jumpi\n        /* \"#utility.yul\":22152:22170   */\n      tag_598\n      tag_561\n      jump\t// in\n    tag_598:\n        /* \"#utility.yul\":22137:22172   */\n    tag_597:\n        /* \"#utility.yul\":22193:22194   */\n      dup3\n        /* \"#utility.yul\":22190:22191   */\n      dup3\n        /* \"#utility.yul\":22186:22195   */\n      mod\n        /* \"#utility.yul\":22181:22195   */\n      swap1\n      pop\n        /* \"#utility.yul\":22025:22201   */\n      swap3\n      swap2\n      pop\n      pop\n      jump\t// out\n        /* \"#utility.yul\":22207:22387   */\n    tag_555:\n        /* \"#utility.yul\":22255:22332   */\n      0x4e487b7100000000000000000000000000000000000000000000000000000000\n        /* \"#utility.yul\":22252:22253   */\n      0x00\n        /* \"#utility.yul\":22245:22333   */\n      mstore\n        /* \"#utility.yul\":22352:22356   */\n      0x11\n        /* \"#utility.yul\":22349:22350   */\n      0x04\n        /* \"#utility.yul\":22342:22357   */\n      mstore\n        /* \"#utility.yul\":22376:22380   */\n      0x24\n        /* \"#utility.yul\":22373:22374   */\n      0x00\n        /* \"#utility.yul\":22366:22381   */\n      revert\n        /* \"#utility.yul\":22393:22573   */\n    tag_561:\n        /* \"#utility.yul\":22441:22518   */\n      0x4e487b7100000000000000000000000000000000000000000000000000000000\n        /* \"#utility.yul\":22438:22439   */\n      0x00\n        /* \"#utility.yul\":22431:22519   */\n      mstore\n        /* \"#utility.yul\":22538:22542   */\n      0x12\n        /* \"#utility.yul\":22535:22536   */\n      0x04\n        /* \"#utility.yul\":22528:22543   */\n      mstore\n        /* \"#utility.yul\":22562:22566   */\n      0x24\n        /* \"#utility.yul\":22559:22560   */\n      0x00\n        /* \"#utility.yul\":22552:22567   */\n      revert\n        /* \"#utility.yul\":22579:22759   */\n    tag_585:\n        /* \"#utility.yul\":22627:22704   */\n      0x4e487b7100000000000000000000000000000000000000000000000000000000\n        /* \"#utility.yul\":22624:22625   */\n      0x00\n        /* \"#utility.yul\":22617:22705   */\n      mstore\n        /* \"#utility.yul\":22724:22728   */\n      0x22\n        /* \"#utility.yul\":22721:22722   */\n      0x04\n        /* \"#utility.yul\":22714:22729   */\n      mstore\n        /* \"#utility.yul\":22748:22752   */\n      0x24\n        /* \"#utility.yul\":22745:22746   */\n      0x00\n        /* \"#utility.yul\":22738:22753   */\n      revert\n        /* \"#utility.yul\":22765:22945   */\n    tag_302:\n        /* \"#utility.yul\":22813:22890   */\n      0x4e487b7100000000000000000000000000000000000000000000000000000000\n        /* \"#utility.yul\":22810:22811   */\n      0x00\n        /* \"#utility.yul\":22803:22891   */\n      mstore\n        /* \"#utility.yul\":22910:22914   */\n      0x31\n        /* \"#utility.yul\":22907:22908   */\n      0x04\n        /* \"#utility.yul\":22900:22915   */\n      mstore\n        /* \"#utility.yul\":22934:22938   */\n      0x24\n        /* \"#utility.yul\":22931:22932   */\n      0x00\n        /* \"#utility.yul\":22924:22939   */\n      revert\n        /* \"#utility.yul\":22951:23131   */\n    tag_243:\n        /* \"#utility.yul\":22999:23076   */\n      0x4e487b7100000000000000000000000000000000000000000000000000000000\n        /* \"#utility.yul\":22996:22997   */\n      0x00\n        /* \"#utility.yul\":22989:23077   */\n      mstore\n        /* \"#utility.yul\":23096:23100   */\n      0x32\n        /* \"#utility.yul\":23093:23094   */\n      0x04\n        /* \"#utility.yul\":23086:23101   */\n      mstore\n        /* \"#utility.yul\":23120:23124   */\n      0x24\n        /* \"#utility.yul\":23117:23118   */\n      0x00\n        /* \"#utility.yul\":23110:23125   */\n      revert\n        /* \"#utility.yul\":23137:23317   */\n    tag_231:\n        /* \"#utility.yul\":23185:23262   */\n      0x4e487b7100000000000000000000000000000000000000000000000000000000\n        /* \"#utility.yul\":23182:23183   */\n      0x00\n        /* \"#utility.yul\":23175:23263   */\n      mstore\n        /* \"#utility.yul\":23282:23286   */\n      0x41\n        /* \"#utility.yul\":23279:23280   */\n      0x04\n        /* \"#utility.yul\":23272:23287   */\n      mstore\n        /* \"#utility.yul\":23306:23310   */\n      0x24\n        /* \"#utility.yul\":23303:23304   */\n      0x00\n        /* \"#utility.yul\":23296:23311   */\n      revert\n        /* \"#utility.yul\":23323:23440   */\n    tag_352:\n        /* \"#utility.yul\":23432:23433   */\n      0x00\n        /* \"#utility.yul\":23429:23430   */\n      dup1\n        /* \"#utility.yul\":23422:23434   */\n      revert\n        /* \"#utility.yul\":23446:23563   */\n    tag_330:\n        /* \"#utility.yul\":23555:23556   */\n      0x00\n        /* \"#utility.yul\":23552:23553   */\n      dup1\n        /* \"#utility.yul\":23545:23557   */\n      revert\n        /* \"#utility.yul\":23569:23686   */\n    tag_382:\n        /* \"#utility.yul\":23678:23679   */\n      0x00\n        /* \"#utility.yul\":23675:23676   */\n      dup1\n        /* \"#utility.yul\":23668:23680   */\n      revert\n        /* \"#utility.yul\":23692:23809   */\n    tag_361:\n        /* \"#utility.yul\":23801:23802   */\n      0x00\n        /* \"#utility.yul\":23798:23799   */\n      dup1\n        /* \"#utility.yul\":23791:23803   */\n      revert\n        /* \"#utility.yul\":23815:23917   */\n    tag_423:\n        /* \"#utility.yul\":23856:23862   */\n      0x00\n        /* \"#utility.yul\":23907:23909   */\n      0x1f\n        /* \"#utility.yul\":23903:23910   */\n      not\n        /* \"#utility.yul\":23898:23900   */\n      0x1f\n        /* \"#utility.yul\":23891:23896   */\n      dup4\n        /* \"#utility.yul\":23887:23901   */\n      add\n        /* \"#utility.yul\":23883:23911   */\n      and\n        /* \"#utility.yul\":23873:23911   */\n      swap1\n      pop\n        /* \"#utility.yul\":23815:23917   */\n      swap2\n      swap1\n      pop\n      jump\t// out\n        /* \"#utility.yul\":23923:24160   */\n    tag_442:\n        /* \"#utility.yul\":24063:24097   */\n      0x4552433732313a207472616e7366657220746f206e6f6e204552433732315265\n        /* \"#utility.yul\":24059:24060   */\n      0x00\n        /* \"#utility.yul\":24051:24057   */\n      dup3\n        /* \"#utility.yul\":24047:24061   */\n      add\n        /* \"#utility.yul\":24040:24098   */\n      mstore\n        /* \"#utility.yul\":24132:24152   */\n      0x63656976657220696d706c656d656e7465720000000000000000000000000000\n        /* \"#utility.yul\":24127:24129   */\n      0x20\n        /* \"#utility.yul\":24119:24125   */\n      dup3\n        /* \"#utility.yul\":24115:24130   */\n      add\n        /* \"#utility.yul\":24108:24153   */\n      mstore\n        /* \"#utility.yul\":23923:24160   */\n      pop\n      jump\t// out\n        /* \"#utility.yul\":24166:24389   */\n    tag_447:\n        /* \"#utility.yul\":24306:24340   */\n      0x4552433732313a207472616e7366657220746f20746865207a65726f20616464\n        /* \"#utility.yul\":24302:24303   */\n      0x00\n        /* \"#utility.yul\":24294:24300   */\n      dup3\n        /* \"#utility.yul\":24290:24304   */\n      add\n        /* \"#utility.yul\":24283:24341   */\n      mstore\n        /* \"#utility.yul\":24375:24381   */\n      0x7265737300000000000000000000000000000000000000000000000000000000\n        /* \"#utility.yul\":24370:24372   */\n      0x20\n        /* \"#utility.yul\":24362:24368   */\n      dup3\n        /* \"#utility.yul\":24358:24373   */\n      add\n        /* \"#utility.yul\":24351:24382   */\n      mstore\n        /* \"#utility.yul\":24166:24389   */\n      pop\n      jump\t// out\n        /* \"#utility.yul\":24395:24570   */\n    tag_452:\n        /* \"#utility.yul\":24535:24562   */\n      0x4552433732313a20617070726f766520746f2063616c6c657200000000000000\n        /* \"#utility.yul\":24531:24532   */\n      0x00\n        /* \"#utility.yul\":24523:24529   */\n      dup3\n        /* \"#utility.yul\":24519:24533   */\n      add\n        /* \"#utility.yul\":24512:24563   */\n      mstore\n        /* \"#utility.yul\":24395:24570   */\n      pop\n      jump\t// out\n        /* \"#utility.yul\":24576:24807   */\n    tag_457:\n        /* \"#utility.yul\":24716:24750   */\n      0x4552433732313a206f70657261746f7220717565727920666f72206e6f6e6578\n        /* \"#utility.yul\":24712:24713   */\n      0x00\n        /* \"#utility.yul\":24704:24710   */\n      dup3\n        /* \"#utility.yul\":24700:24714   */\n      add\n        /* \"#utility.yul\":24693:24751   */\n      mstore\n        /* \"#utility.yul\":24785:24799   */\n      0x697374656e7420746f6b656e0000000000000000000000000000000000000000\n        /* \"#utility.yul\":24780:24782   */\n      0x20\n        /* \"#utility.yul\":24772:24778   */\n      dup3\n        /* \"#utility.yul\":24768:24783   */\n      add\n        /* \"#utility.yul\":24761:24800   */\n      mstore\n        /* \"#utility.yul\":24576:24807   */\n      pop\n      jump\t// out\n        /* \"#utility.yul\":24813:25056   */\n    tag_462:\n        /* \"#utility.yul\":24953:24987   */\n      0x4552433732313a20617070726f76652063616c6c6572206973206e6f74206f77\n        /* \"#utility.yul\":24949:24950   */\n      0x00\n        /* \"#utility.yul\":24941:24947   */\n      dup3\n        /* \"#utility.yul\":24937:24951   */\n      add\n        /* \"#utility.yul\":24930:24988   */\n      mstore\n        /* \"#utility.yul\":25022:25048   */\n      0x6e6572206e6f7220617070726f76656420666f7220616c6c0000000000000000\n        /* \"#utility.yul\":25017:25019   */\n      0x20\n        /* \"#utility.yul\":25009:25015   */\n      dup3\n        /* \"#utility.yul\":25005:25020   */\n      add\n        /* \"#utility.yul\":24998:25049   */\n      mstore\n        /* \"#utility.yul\":24813:25056   */\n      pop\n      jump\t// out\n        /* \"#utility.yul\":25062:25291   */\n    tag_467:\n        /* \"#utility.yul\":25202:25236   */\n      0x4552433732313a2062616c616e636520717565727920666f7220746865207a65\n        /* \"#utility.yul\":25198:25199   */\n      0x00\n        /* \"#utility.yul\":25190:25196   */\n      dup3\n        /* \"#utility.yul\":25186:25200   */\n      add\n        /* \"#utility.yul\":25179:25237   */\n      mstore\n        /* \"#utility.yul\":25271:25283   */\n      0x726f206164647265737300000000000000000000000000000000000000000000\n        /* \"#utility.yul\":25266:25268   */\n      0x20\n        /* \"#utility.yul\":25258:25264   */\n      dup3\n        /* \"#utility.yul\":25254:25269   */\n      add\n        /* \"#utility.yul\":25247:25284   */\n      mstore\n        /* \"#utility.yul\":25062:25291   */\n      pop\n      jump\t// out\n        /* \"#utility.yul\":25297:25528   */\n    tag_472:\n        /* \"#utility.yul\":25437:25471   */\n      0x4552433732313a20617070726f76656420717565727920666f72206e6f6e6578\n        /* \"#utility.yul\":25433:25434   */\n      0x00\n        /* \"#utility.yul\":25425:25431   */\n      dup3\n        /* \"#utility.yul\":25421:25435   */\n      add\n        /* \"#utility.yul\":25414:25472   */\n      mstore\n        /* \"#utility.yul\":25506:25520   */\n      0x697374656e7420746f6b656e0000000000000000000000000000000000000000\n        /* \"#utility.yul\":25501:25503   */\n      0x20\n        /* \"#utility.yul\":25493:25499   */\n      dup3\n        /* \"#utility.yul\":25489:25504   */\n      add\n        /* \"#utility.yul\":25482:25521   */\n      mstore\n        /* \"#utility.yul\":25297:25528   */\n      pop\n      jump\t// out\n        /* \"#utility.yul\":25534:25762   */\n    tag_477:\n        /* \"#utility.yul\":25674:25708   */\n      0x4552433732313a207472616e73666572206f6620746f6b656e20746861742069\n        /* \"#utility.yul\":25670:25671   */\n      0x00\n        /* \"#utility.yul\":25662:25668   */\n      dup3\n        /* \"#utility.yul\":25658:25672   */\n      add\n        /* \"#utility.yul\":25651:25709   */\n      mstore\n        /* \"#utility.yul\":25743:25754   */\n      0x73206e6f74206f776e0000000000000000000000000000000000000000000000\n        /* \"#utility.yul\":25738:25740   */\n      0x20\n        /* \"#utility.yul\":25730:25736   */\n      dup3\n        /* \"#utility.yul\":25726:25741   */\n      add\n        /* \"#utility.yul\":25719:25755   */\n      mstore\n        /* \"#utility.yul\":25534:25762   */\n      pop\n      jump\t// out\n        /* \"#utility.yul\":25768:26002   */\n    tag_482:\n        /* \"#utility.yul\":25908:25942   */\n      0x4552433732314d657461646174613a2055524920717565727920666f72206e6f\n        /* \"#utility.yul\":25904:25905   */\n      0x00\n        /* \"#utility.yul\":25896:25902   */\n      dup3\n        /* \"#utility.yul\":25892:25906   */\n      add\n        /* \"#utility.yul\":25885:25943   */\n      mstore\n        /* \"#utility.yul\":25977:25994   */\n      0x6e6578697374656e7420746f6b656e0000000000000000000000000000000000\n        /* \"#utility.yul\":25972:25974   */\n      0x20\n        /* \"#utility.yul\":25964:25970   */\n      dup3\n        /* \"#utility.yul\":25960:25975   */\n      add\n        /* \"#utility.yul\":25953:25995   */\n      mstore\n        /* \"#utility.yul\":25768:26002   */\n      pop\n      jump\t// out\n        /* \"#utility.yul\":26008:26228   */\n    tag_487:\n        /* \"#utility.yul\":26148:26182   */\n      0x4552433732313a20617070726f76616c20746f2063757272656e74206f776e65\n        /* \"#utility.yul\":26144:26145   */\n      0x00\n        /* \"#utility.yul\":26136:26142   */\n      dup3\n        /* \"#utility.yul\":26132:26146   */\n      add\n        /* \"#utility.yul\":26125:26183   */\n      mstore\n        /* \"#utility.yul\":26217:26220   */\n      0x7200000000000000000000000000000000000000000000000000000000000000\n        /* \"#utility.yul\":26212:26214   */\n      0x20\n        /* \"#utility.yul\":26204:26210   */\n      dup3\n        /* \"#utility.yul\":26200:26215   */\n      add\n        /* \"#utility.yul\":26193:26221   */\n      mstore\n        /* \"#utility.yul\":26008:26228   */\n      pop\n      jump\t// out\n        /* \"#utility.yul\":26234:26470   */\n    tag_492:\n        /* \"#utility.yul\":26374:26408   */\n      0x4552433732313a207472616e736665722063616c6c6572206973206e6f74206f\n        /* \"#utility.yul\":26370:26371   */\n      0x00\n        /* \"#utility.yul\":26362:26368   */\n      dup3\n        /* \"#utility.yul\":26358:26372   */\n      add\n        /* \"#utility.yul\":26351:26409   */\n      mstore\n        /* \"#utility.yul\":26443:26462   */\n      0x776e6572206e6f7220617070726f766564000000000000000000000000000000\n        /* \"#utility.yul\":26438:26440   */\n      0x20\n        /* \"#utility.yul\":26430:26436   */\n      dup3\n        /* \"#utility.yul\":26426:26441   */\n      add\n        /* \"#utility.yul\":26419:26463   */\n      mstore\n        /* \"#utility.yul\":26234:26470   */\n      pop\n      jump\t// out\n        /* \"#utility.yul\":26476:26598   */\n    tag_336:\n        /* \"#utility.yul\":26549:26573   */\n      tag_622\n        /* \"#utility.yul\":26567:26572   */\n      dup2\n        /* \"#utility.yul\":26549:26573   */\n      tag_409\n      jump\t// in\n    tag_622:\n        /* \"#utility.yul\":26542:26547   */\n      dup2\n        /* \"#utility.yul\":26539:26574   */\n      eq\n        /* \"#utility.yul\":26529:26592   */\n      tag_623\n      jumpi\n        /* \"#utility.yul\":26588:26589   */\n      0x00\n        /* \"#utility.yul\":26585:26586   */\n      dup1\n        /* \"#utility.yul\":26578:26590   */\n      revert\n        /* \"#utility.yul\":26529:26592   */\n    tag_623:\n        /* \"#utility.yul\":26476:26598   */\n      pop\n      jump\t// out\n        /* \"#utility.yul\":26604:26720   */\n    tag_340:\n        /* \"#utility.yul\":26674:26695   */\n      tag_625\n        /* \"#utility.yul\":26689:26694   */\n      dup2\n        /* \"#utility.yul\":26674:26695   */\n      tag_413\n      jump\t// in\n    tag_625:\n        /* \"#utility.yul\":26667:26672   */\n      dup2\n        /* \"#utility.yul\":26664:26696   */\n      eq\n        /* \"#utility.yul\":26654:26714   */\n      tag_626\n      jumpi\n        /* \"#utility.yul\":26710:26711   */\n      0x00\n        /* \"#utility.yul\":26707:26708   */\n      dup1\n        /* \"#utility.yul\":26700:26712   */\n      revert\n        /* \"#utility.yul\":26654:26714   */\n    tag_626:\n        /* \"#utility.yul\":26604:26720   */\n      pop\n      jump\t// out\n        /* \"#utility.yul\":26726:26846   */\n    tag_344:\n        /* \"#utility.yul\":26798:26821   */\n      tag_628\n        /* \"#utility.yul\":26815:26820   */\n      dup2\n        /* \"#utility.yul\":26798:26821   */\n      tag_571\n      jump\t// in\n    tag_628:\n        /* \"#utility.yul\":26791:26796   */\n      dup2\n        /* \"#utility.yul\":26788:26822   */\n      eq\n        /* \"#utility.yul\":26778:26840   */\n      tag_629\n      jumpi\n        /* \"#utility.yul\":26836:26837   */\n      0x00\n        /* \"#utility.yul\":26833:26834   */\n      dup1\n        /* \"#utility.yul\":26826:26838   */\n      revert\n        /* \"#utility.yul\":26778:26840   */\n    tag_629:\n        /* \"#utility.yul\":26726:26846   */\n      pop\n      jump\t// out\n        /* \"#utility.yul\":26852:26974   */\n    tag_357:\n        /* \"#utility.yul\":26925:26949   */\n      tag_631\n        /* \"#utility.yul\":26943:26948   */\n      dup2\n        /* \"#utility.yul\":26925:26949   */\n      tag_496\n      jump\t// in\n    tag_631:\n        /* \"#utility.yul\":26918:26923   */\n      dup2\n        /* \"#utility.yul\":26915:26950   */\n      eq\n        /* \"#utility.yul\":26905:26968   */\n      tag_632\n      jumpi\n        /* \"#utility.yul\":26964:26965   */\n      0x00\n        /* \"#utility.yul\":26961:26962   */\n      dup1\n        /* \"#utility.yul\":26954:26966   */\n      revert\n        /* \"#utility.yul\":26905:26968   */\n    tag_632:\n        /* \"#utility.yul\":26852:26974   */\n      pop\n      jump\t// out\n    stop\n    data_7481f3df2a424c0755a1ad2356614e9a5a358d461ea2eae1f89cb21cbad00397 4552433732313a206f776e657220717565727920666f72206e6f6e6578697374656e7420746f6b656e\n\n    auxdata: 0xa26469706673582212207868c430b0681a2ab8484415c197dccdf57fa6017921896507691f577755b22264736f6c63430008070033\n}\n",
				"bytecode": {
					"linkReferences": {},
					"object": "60806040523480156200001157600080fd5b5060405162002cee38038062002cee83398181016040528101906200003791906200030a565b620000687f01ffc9a7000000000000000000000000000000000000000000000000000000006200010460201b60201c565b816006908051906020019062000080929190620001dc565b50806007908051906020019062000099929190620001dc565b50620000cb7f80ac58cd000000000000000000000000000000000000000000000000000000006200010460201b60201c565b620000fc7f5b5e139f000000000000000000000000000000000000000000000000000000006200010460201b60201c565b505062000596565b63ffffffff60e01b817bffffffffffffffffffffffffffffffffffffffffffffffffffffffff1916141562000170576040517f08c379a00000000000000000000000000000000000000000000000000000000081526004016200016790620003b6565b60405180910390fd5b6001600080837bffffffffffffffffffffffffffffffffffffffffffffffffffffffff19167bffffffffffffffffffffffffffffffffffffffffffffffffffffffff1916815260200190815260200160002060006101000a81548160ff02191690831515021790555050565b828054620001ea906200047e565b90600052602060002090601f0160209004810192826200020e57600085556200025a565b82601f106200022957805160ff19168380011785556200025a565b828001600101855582156200025a579182015b82811115620002595782518255916020019190600101906200023c565b5b5090506200026991906200026d565b5090565b5b80821115620002885760008160009055506001016200026e565b5090565b6000620002a36200029d8462000401565b620003d8565b905082815260208101848484011115620002c257620002c16200054d565b5b620002cf84828562000448565b509392505050565b600082601f830112620002ef57620002ee62000548565b5b8151620003018482602086016200028c565b91505092915050565b6000806040838503121562000324576200032362000557565b5b600083015167ffffffffffffffff81111562000345576200034462000552565b5b6200035385828601620002d7565b925050602083015167ffffffffffffffff81111562000377576200037662000552565b5b6200038585828601620002d7565b9150509250929050565b60006200039e601c8362000437565b9150620003ab826200056d565b602082019050919050565b60006020820190508181036000830152620003d1816200038f565b9050919050565b6000620003e4620003f7565b9050620003f28282620004b4565b919050565b6000604051905090565b600067ffffffffffffffff8211156200041f576200041e62000519565b5b6200042a826200055c565b9050602081019050919050565b600082825260208201905092915050565b60005b83811015620004685780820151818401526020810190506200044b565b8381111562000478576000848401525b50505050565b600060028204905060018216806200049757607f821691505b60208210811415620004ae57620004ad620004ea565b5b50919050565b620004bf826200055c565b810181811067ffffffffffffffff82111715620004e157620004e062000519565b5b80604052505050565b7f4e487b7100000000000000000000000000000000000000000000000000000000600052602260045260246000fd5b7f4e487b7100000000000000000000000000000000000000000000000000000000600052604160045260246000fd5b600080fd5b600080fd5b600080fd5b600080fd5b6000601f19601f8301169050919050565b7f4552433136353a20696e76616c696420696e7465726661636520696400000000600082015250565b61274880620005a66000396000f3fe608060405234801561001057600080fd5b50600436106100ea5760003560e01c80636c0360eb1161008c578063a22cb46511610066578063a22cb4651461025d578063b88d4fde14610279578063c87b56dd14610295578063e985e9c5146102c5576100ea565b80636c0360eb146101f157806370a082311461020f57806395d89b411461023f576100ea565b8063095ea7b3116100c8578063095ea7b31461016d57806323b872dd1461018957806342842e0e146101a55780636352211e146101c1576100ea565b806301ffc9a7146100ef57806306fdde031461011f578063081812fc1461013d575b600080fd5b61010960048036038101906101049190611a0d565b6102f5565b6040516101169190611d70565b60405180910390f35b61012761035c565b6040516101349190611d8b565b60405180910390f35b61015760048036038101906101529190611a67565b6103ee565b6040516101649190611d09565b60405180910390f35b610187600480360381019061018291906119cd565b610473565b005b6101a3600480360381019061019e91906118b7565b61058b565b005b6101bf60048036038101906101ba91906118b7565b6105eb565b005b6101db60048036038101906101d69190611a67565b61060b565b6040516101e89190611d09565b60405180910390f35b6101f9610642565b6040516102069190611d8b565b60405180910390f35b6102296004803603810190610224919061184a565b6106d4565b6040516102369190611f0d565b60405180910390f35b610247610793565b6040516102549190611d8b565b60405180910390f35b6102776004803603810190610272919061198d565b610825565b005b610293600480360381019061028e919061190a565b6109a6565b005b6102af60048036038101906102aa9190611a67565b610a08565b6040516102bc9190611d8b565b60405180910390f35b6102df60048036038101906102da9190611877565b610b7b565b6040516102ec9190611d70565b60405180910390f35b6000806000837bffffffffffffffffffffffffffffffffffffffffffffffffffffffff19167bffffffffffffffffffffffffffffffffffffffffffffffffffffffff1916815260200190815260200160002060009054906101000a900460ff169050919050565b60606006805461036b90612132565b80601f016020809104026020016040519081016040528092919081815260200182805461039790612132565b80156103e45780601f106103b9576101008083540402835291602001916103e4565b820191906000526020600020905b8154815290600101906020018083116103c757829003601f168201915b5050505050905090565b60006103f982610c0f565b610438576040517f08c379a000000000000000000000000000000000000000000000000000000000815260040161042f90611e6d565b60405180910390fd5b6004600083815260200190815260200160002060009054906101000a900473ffffffffffffffffffffffffffffffffffffffff169050919050565b600061047e8261060b565b90508073ffffffffffffffffffffffffffffffffffffffff168373ffffffffffffffffffffffffffffffffffffffff1614156104ef576040517f08c379a00000000000000000000000000000000000000000000000000000000081526004016104e690611ecd565b60405180910390fd5b8073ffffffffffffffffffffffffffffffffffffffff1661050e610c2c565b73ffffffffffffffffffffffffffffffffffffffff16148061053d575061053c81610537610c2c565b610b7b565b5b61057c576040517f08c379a000000000000000000000000000000000000000000000000000000000815260040161057390611e2d565b60405180910390fd5b6105868383610c34565b505050565b61059c610596610c2c565b82610ced565b6105db576040517f08c379a00000000000000000000000000000000000000000000000000000000081526004016105d290611eed565b60405180910390fd5b6105e6838383610dcb565b505050565b610606838383604051806020016040528060008152506109a6565b505050565b600061063b826040518060600160405280602981526020016126ea602991396002610fe29092919063ffffffff16565b9050919050565b60606009805461065190612132565b80601f016020809104026020016040519081016040528092919081815260200182805461067d90612132565b80156106ca5780601f1061069f576101008083540402835291602001916106ca565b820191906000526020600020905b8154815290600101906020018083116106ad57829003601f168201915b5050505050905090565b60008073ffffffffffffffffffffffffffffffffffffffff168273ffffffffffffffffffffffffffffffffffffffff161415610745576040517f08c379a000000000000000000000000000000000000000000000000000000000815260040161073c90611e4d565b60405180910390fd5b61078c600160008473ffffffffffffffffffffffffffffffffffffffff1673ffffffffffffffffffffffffffffffffffffffff168152602001908152602001600020611001565b9050919050565b6060600780546107a290612132565b80601f01602080910402602001604051908101604052809291908181526020018280546107ce90612132565b801561081b5780601f106107f05761010080835404028352916020019161081b565b820191906000526020600020905b8154815290600101906020018083116107fe57829003601f168201915b5050505050905090565b61082d610c2c565b73ffffffffffffffffffffffffffffffffffffffff168273ffffffffffffffffffffffffffffffffffffffff16141561089b576040517f08c379a000000000000000000000000000000000000000000000000000000000815260040161089290611ded565b60405180910390fd5b80600560006108a8610c2c565b73ffffffffffffffffffffffffffffffffffffffff1673ffffffffffffffffffffffffffffffffffffffff16815260200190815260200160002060008473ffffffffffffffffffffffffffffffffffffffff1673ffffffffffffffffffffffffffffffffffffffff16815260200190815260200160002060006101000a81548160ff0219169083151502179055508173ffffffffffffffffffffffffffffffffffffffff16610955610c2c565b73ffffffffffffffffffffffffffffffffffffffff167f17307eab39ab6107e8899845ad3d59bd9653f200f220920489ca2b5937696c318360405161099a9190611d70565b60405180910390a35050565b6109b76109b1610c2c565b83610ced565b6109f6576040517f08c379a00000000000000000000000000000000000000000000000000000000081526004016109ed90611eed565b60405180910390fd5b610a0284848484611016565b50505050565b6060610a1382610c0f565b610a52576040517f08c379a0000000000000000000000000000000000000000000000000000000008152600401610a4990611ead565b60405180910390fd5b6000600860008481526020019081526020016000208054610a7290612132565b80601f0160208091040260200160405190810160405280929190818152602001828054610a9e90612132565b8015610aeb5780601f10610ac057610100808354040283529160200191610aeb565b820191906000526020600020905b815481529060010190602001808311610ace57829003601f168201915b505050505090506000610afc610642565b9050600081511415610b12578192505050610b76565b600082511115610b47578082604051602001610b2f929190611ce5565b60405160208183030381529060405292505050610b76565b80610b5185611072565b604051602001610b62929190611ce5565b604051602081830303815290604052925050505b919050565b6000600560008473ffffffffffffffffffffffffffffffffffffffff1673ffffffffffffffffffffffffffffffffffffffff16815260200190815260200160002060008373ffffffffffffffffffffffffffffffffffffffff1673ffffffffffffffffffffffffffffffffffffffff16815260200190815260200160002060009054906101000a900460ff16905092915050565b6000610c258260026111d390919063ffffffff16565b9050919050565b600033905090565b816004600083815260200190815260200160002060006101000a81548173ffffffffffffffffffffffffffffffffffffffff021916908373ffffffffffffffffffffffffffffffffffffffff160217905550808273ffffffffffffffffffffffffffffffffffffffff16610ca78361060b565b73ffffffffffffffffffffffffffffffffffffffff167f8c5be1e5ebec7d5bd14f71427d1e84f3dd0314c0f7b2291e5b200ac8c7c3b92560405160405180910390a45050565b6000610cf882610c0f565b610d37576040517f08c379a0000000000000000000000000000000000000000000000000000000008152600401610d2e90611e0d565b60405180910390fd5b6000610d428361060b565b90508073ffffffffffffffffffffffffffffffffffffffff168473ffffffffffffffffffffffffffffffffffffffff161480610db157508373ffffffffffffffffffffffffffffffffffffffff16610d99846103ee565b73ffffffffffffffffffffffffffffffffffffffff16145b80610dc25750610dc18185610b7b565b5b91505092915050565b8273ffffffffffffffffffffffffffffffffffffffff16610deb8261060b565b73ffffffffffffffffffffffffffffffffffffffff1614610e41576040517f08c379a0000000000000000000000000000000000000000000000000000000008152600401610e3890611e8d565b60405180910390fd5b600073ffffffffffffffffffffffffffffffffffffffff168273ffffffffffffffffffffffffffffffffffffffff161415610eb1576040517f08c379a0000000000000000000000000000000000000000000000000000000008152600401610ea890611dcd565b60405180910390fd5b610ebc8383836111ed565b610ec7600082610c34565b610f1881600160008673ffffffffffffffffffffffffffffffffffffffff1673ffffffffffffffffffffffffffffffffffffffff1681526020019081526020016000206111f290919063ffffffff16565b50610f6a81600160008573ffffffffffffffffffffffffffffffffffffffff1673ffffffffffffffffffffffffffffffffffffffff16815260200190815260200160002061120c90919063ffffffff16565b50610f81818360026112269092919063ffffffff16565b50808273ffffffffffffffffffffffffffffffffffffffff168473ffffffffffffffffffffffffffffffffffffffff167fddf252ad1be2c89b69c2b068fc378daa952ba7f163c4a11628f55a4df523b3ef60405160405180910390a4505050565b6000610ff5846000018460001b8461125b565b60001c90509392505050565b600061100f826000016112fc565b9050919050565b611021848484610dcb565b61102d8484848461130d565b61106c576040517f08c379a000000000000000000000000000000000000000000000000000000000815260040161106390611dad565b60405180910390fd5b50505050565b606060008214156110ba576040518060400160405280600181526020017f300000000000000000000000000000000000000000000000000000000000000081525090506111ce565b600082905060005b600082146110ec5780806110d590612195565b915050600a826110e59190612017565b91506110c2565b60008167ffffffffffffffff811115611108576111076122fa565b5b6040519080825280601f01601f19166020018201604052801561113a5781602001600182028036833780820191505090505b5090505b600085146111c7576001826111539190612048565b9150600a8561116291906121de565b603061116e9190611fc1565b60f81b818381518110611184576111836122cb565b5b60200101907effffffffffffffffffffffffffffffffffffffffffffffffffffffffffffff1916908160001a905350600a856111c09190612017565b945061113e565b8093505050505b919050565b60006111e5836000018360001b6114a4565b905092915050565b505050565b6000611204836000018360001b6114c7565b905092915050565b600061121e836000018360001b6115df565b905092915050565b6000611252846000018460001b8473ffffffffffffffffffffffffffffffffffffffff1660001b61164f565b90509392505050565b600080846001016000858152602001908152602001600020549050600081141583906112bd576040517f08c379a00000000000000000000000000000000000000000000000000000000081526004016112b49190611d8b565b60405180910390fd5b50846000016001826112cf9190612048565b815481106112e0576112df6122cb565b5b9060005260206000209060020201600101549150509392505050565b600081600001805490509050919050565b600061132e8473ffffffffffffffffffffffffffffffffffffffff1661173b565b15611497578373ffffffffffffffffffffffffffffffffffffffff1663150b7a02611357610c2c565b8786866040518563ffffffff1660e01b81526004016113799493929190611d24565b602060405180830381600087803b15801561139357600080fd5b505af19250505080156113c457506040513d601f19601f820116820180604052508101906113c19190611a3a565b60015b611447573d80600081146113f4576040519150601f19603f3d011682016040523d82523d6000602084013e6113f9565b606091505b5060008151141561143f576040517f08c379a000000000000000000000000000000000000000000000000000000000815260040161143690611dad565b60405180910390fd5b805181602001fd5b63150b7a0260e01b7bffffffffffffffffffffffffffffffffffffffffffffffffffffffff1916817bffffffffffffffffffffffffffffffffffffffffffffffffffffffff19161491505061149c565b600190505b949350505050565b600080836001016000848152602001908152602001600020541415905092915050565b600080836001016000848152602001908152602001600020549050600081146115d35760006001826114f99190612048565b90506000600186600001805490506115119190612048565b9050600086600001828154811061152b5761152a6122cb565b5b906000526020600020015490508087600001848154811061154f5761154e6122cb565b5b906000526020600020018190555060018361156a9190611fc1565b87600101600083815260200190815260200160002081905550866000018054806115975761159661229c565b5b600190038181906000526020600020016000905590558660010160008781526020019081526020016000206000905560019450505050506115d9565b60009150505b92915050565b60006115eb838361174e565b611644578260000182908060018154018082558091505060019003906000526020600020016000909190919091505582600001805490508360010160008481526020019081526020016000208190555060019050611649565b600090505b92915050565b60008084600101600085815260200190815260200160002054905060008114156116f657846000016040518060400160405280868152602001858152509080600181540180825580915050600190039060005260206000209060020201600090919091909150600082015181600001556020820151816001015550508460000180549050856001016000868152602001908152602001600020819055506001915050611734565b82856000016001836117089190612048565b81548110611719576117186122cb565b5b90600052602060002090600202016001018190555060009150505b9392505050565b600080823b905060008111915050919050565b600080836001016000848152602001908152602001600020541415905092915050565b600061178461177f84611f4d565b611f28565b9050828152602081018484840111156117a05761179f61232e565b5b6117ab8482856120f0565b509392505050565b6000813590506117c28161268d565b92915050565b6000813590506117d7816126a4565b92915050565b6000813590506117ec816126bb565b92915050565b600081519050611801816126bb565b92915050565b600082601f83011261181c5761181b612329565b5b813561182c848260208601611771565b91505092915050565b600081359050611844816126d2565b92915050565b6000602082840312156118605761185f612338565b5b600061186e848285016117b3565b91505092915050565b6000806040838503121561188e5761188d612338565b5b600061189c858286016117b3565b92505060206118ad858286016117b3565b9150509250929050565b6000806000606084860312156118d0576118cf612338565b5b60006118de868287016117b3565b93505060206118ef868287016117b3565b925050604061190086828701611835565b9150509250925092565b6000806000806080858703121561192457611923612338565b5b6000611932878288016117b3565b9450506020611943878288016117b3565b935050604061195487828801611835565b925050606085013567ffffffffffffffff81111561197557611974612333565b5b61198187828801611807565b91505092959194509250565b600080604083850312156119a4576119a3612338565b5b60006119b2858286016117b3565b92505060206119c3858286016117c8565b9150509250929050565b600080604083850312156119e4576119e3612338565b5b60006119f2858286016117b3565b9250506020611a0385828601611835565b9150509250929050565b600060208284031215611a2357611a22612338565b5b6000611a31848285016117dd565b91505092915050565b600060208284031215611a5057611a4f612338565b5b6000611a5e848285016117f2565b91505092915050565b600060208284031215611a7d57611a7c612338565b5b6000611a8b84828501611835565b91505092915050565b611a9d8161207c565b82525050565b611aac8161208e565b82525050565b6000611abd82611f7e565b611ac78185611f94565b9350611ad78185602086016120ff565b611ae08161233d565b840191505092915050565b6000611af682611f89565b611b008185611fa5565b9350611b108185602086016120ff565b611b198161233d565b840191505092915050565b6000611b2f82611f89565b611b398185611fb6565b9350611b498185602086016120ff565b80840191505092915050565b6000611b62603283611fa5565b9150611b6d8261234e565b604082019050919050565b6000611b85602483611fa5565b9150611b908261239d565b604082019050919050565b6000611ba8601983611fa5565b9150611bb3826123ec565b602082019050919050565b6000611bcb602c83611fa5565b9150611bd682612415565b604082019050919050565b6000611bee603883611fa5565b9150611bf982612464565b604082019050919050565b6000611c11602a83611fa5565b9150611c1c826124b3565b604082019050919050565b6000611c34602c83611fa5565b9150611c3f82612502565b604082019050919050565b6000611c57602983611fa5565b9150611c6282612551565b604082019050919050565b6000611c7a602f83611fa5565b9150611c85826125a0565b604082019050919050565b6000611c9d602183611fa5565b9150611ca8826125ef565b604082019050919050565b6000611cc0603183611fa5565b9150611ccb8261263e565b604082019050919050565b611cdf816120e6565b82525050565b6000611cf18285611b24565b9150611cfd8284611b24565b91508190509392505050565b6000602082019050611d1e6000830184611a94565b92915050565b6000608082019050611d396000830187611a94565b611d466020830186611a94565b611d536040830185611cd6565b8181036060830152611d658184611ab2565b905095945050505050565b6000602082019050611d856000830184611aa3565b92915050565b60006020820190508181036000830152611da58184611aeb565b905092915050565b60006020820190508181036000830152611dc681611b55565b9050919050565b60006020820190508181036000830152611de681611b78565b9050919050565b60006020820190508181036000830152611e0681611b9b565b9050919050565b60006020820190508181036000830152611e2681611bbe565b9050919050565b60006020820190508181036000830152611e4681611be1565b9050919050565b60006020820190508181036000830152611e6681611c04565b9050919050565b60006020820190508181036000830152611e8681611c27565b9050919050565b60006020820190508181036000830152611ea681611c4a565b9050919050565b60006020820190508181036000830152611ec681611c6d565b9050919050565b60006020820190508181036000830152611ee681611c90565b9050919050565b60006020820190508181036000830152611f0681611cb3565b9050919050565b6000602082019050611f226000830184611cd6565b92915050565b6000611f32611f43565b9050611f3e8282612164565b919050565b6000604051905090565b600067ffffffffffffffff821115611f6857611f676122fa565b5b611f718261233d565b9050602081019050919050565b600081519050919050565b600081519050919050565b600082825260208201905092915050565b600082825260208201905092915050565b600081905092915050565b6000611fcc826120e6565b9150611fd7836120e6565b9250827fffffffffffffffffffffffffffffffffffffffffffffffffffffffffffffffff0382111561200c5761200b61220f565b5b828201905092915050565b6000612022826120e6565b915061202d836120e6565b92508261203d5761203c61223e565b5b828204905092915050565b6000612053826120e6565b915061205e836120e6565b9250828210156120715761207061220f565b5b828203905092915050565b6000612087826120c6565b9050919050565b60008115159050919050565b60007fffffffff0000000000000000000000000000000000000000000000000000000082169050919050565b600073ffffffffffffffffffffffffffffffffffffffff82169050919050565b6000819050919050565b82818337600083830152505050565b60005b8381101561211d578082015181840152602081019050612102565b8381111561212c576000848401525b50505050565b6000600282049050600182168061214a57607f821691505b6020821081141561215e5761215d61226d565b5b50919050565b61216d8261233d565b810181811067ffffffffffffffff8211171561218c5761218b6122fa565b5b80604052505050565b60006121a0826120e6565b91507fffffffffffffffffffffffffffffffffffffffffffffffffffffffffffffffff8214156121d3576121d261220f565b5b600182019050919050565b60006121e9826120e6565b91506121f4836120e6565b9250826122045761220361223e565b5b828206905092915050565b7f4e487b7100000000000000000000000000000000000000000000000000000000600052601160045260246000fd5b7f4e487b7100000000000000000000000000000000000000000000000000000000600052601260045260246000fd5b7f4e487b7100000000000000000000000000000000000000000000000000000000600052602260045260246000fd5b7f4e487b7100000000000000000000000000000000000000000000000000000000600052603160045260246000fd5b7f4e487b7100000000000000000000000000000000000000000000000000000000600052603260045260246000fd5b7f4e487b7100000000000000000000000000000000000000000000000000000000600052604160045260246000fd5b600080fd5b600080fd5b600080fd5b600080fd5b6000601f19601f8301169050919050565b7f4552433732313a207472616e7366657220746f206e6f6e20455243373231526560008201527f63656976657220696d706c656d656e7465720000000000000000000000000000602082015250565b7f4552433732313a207472616e7366657220746f20746865207a65726f2061646460008201527f7265737300000000000000000000000000000000000000000000000000000000602082015250565b7f4552433732313a20617070726f766520746f2063616c6c657200000000000000600082015250565b7f4552433732313a206f70657261746f7220717565727920666f72206e6f6e657860008201527f697374656e7420746f6b656e0000000000000000000000000000000000000000602082015250565b7f4552433732313a20617070726f76652063616c6c6572206973206e6f74206f7760008201527f6e6572206e6f7220617070726f76656420666f7220616c6c0000000000000000602082015250565b7f4552433732313a2062616c616e636520717565727920666f7220746865207a6560008201527f726f206164647265737300000000000000000000000000000000000000000000602082015250565b7f4552433732313a20617070726f76656420717565727920666f72206e6f6e657860008201527f697374656e7420746f6b656e0000000000000000000000000000000000000000602082015250565b7f4552433732313a207472616e73666572206f6620746f6b656e2074686174206960008201527f73206e6f74206f776e0000000000000000000000000000000000000000000000602082015250565b7f4552433732314d657461646174613a2055524920717565727920666f72206e6f60008201527f6e6578697374656e7420746f6b656e0000000000000000000000000000000000602082015250565b7f4552433732313a20617070726f76616c20746f2063757272656e74206f776e6560008201527f7200000000000000000000000000000000000000000000000000000000000000602082015250565b7f4552433732313a207472616e736665722063616c6c6572206973206e6f74206f60008201527f776e6572206e6f7220617070726f766564000000000000000000000000000000602082015250565b6126968161207c565b81146126a157600080fd5b50565b6126ad8161208e565b81146126b857600080fd5b50565b6126c48161209a565b81146126cf57600080fd5b50565b6126db816120e6565b81146126e657600080fd5b5056fe4552433732313a206f776e657220717565727920666f72206e6f6e6578697374656e7420746f6b656ea26469706673582212207868c430b0681a2ab8484415c197dccdf57fa6017921896507691f577755b22264736f6c63430008070033",
					"opcodes": "PUSH1 0x80 PUSH1 0x40 MSTORE CALLVALUE DUP1 ISZERO PUSH3 0x11 JUMPI PUSH1 0x0 DUP1 REVERT JUMPDEST POP PUSH1 0x40 MLOAD PUSH3 0x2CEE CODESIZE SUB DUP1 PUSH3 0x2CEE DUP4 CODECOPY DUP2 DUP2 ADD PUSH1 0x40 MSTORE DUP2 ADD SWAP1 PUSH3 0x37 SWAP2 SWAP1 PUSH3 0x30A JUMP JUMPDEST PUSH3 0x68 PUSH32 0x1FFC9A700000000000000000000000000000000000000000000000000000000 PUSH3 0x104 PUSH1 0x20 SHL PUSH1 0x20 SHR JUMP JUMPDEST DUP2 PUSH1 0x6 SWAP1 DUP1 MLOAD SWAP1 PUSH1 0x20 ADD SWAP1 PUSH3 0x80 SWAP3 SWAP2 SWAP1 PUSH3 0x1DC JUMP JUMPDEST POP DUP1 PUSH1 0x7 SWAP1 DUP1 MLOAD SWAP1 PUSH1 0x20 ADD SWAP1 PUSH3 0x99 SWAP3 SWAP2 SWAP1 PUSH3 0x1DC JUMP JUMPDEST POP PUSH3 0xCB PUSH32 0x80AC58CD00000000000000000000000000000000000000000000000000000000 PUSH3 0x104 PUSH1 0x20 SHL PUSH1 0x20 SHR JUMP JUMPDEST PUSH3 0xFC PUSH32 0x5B5E139F00000000000000000000000000000000000000000000000000000000 PUSH3 0x104 PUSH1 0x20 SHL PUSH1 0x20 SHR JUMP JUMPDEST POP POP PUSH3 0x596 JUMP JUMPDEST PUSH4 0xFFFFFFFF PUSH1 0xE0 SHL DUP2 PUSH28 0xFFFFFFFFFFFFFFFFFFFFFFFFFFFFFFFFFFFFFFFFFFFFFFFFFFFFFFFF NOT AND EQ ISZERO PUSH3 0x170 JUMPI PUSH1 0x40 MLOAD PUSH32 0x8C379A000000000000000000000000000000000000000000000000000000000 DUP2 MSTORE PUSH1 0x4 ADD PUSH3 0x167 SWAP1 PUSH3 0x3B6 JUMP JUMPDEST PUSH1 0x40 MLOAD DUP1 SWAP2 SUB SWAP1 REVERT JUMPDEST PUSH1 0x1 PUSH1 0x0 DUP1 DUP4 PUSH28 0xFFFFFFFFFFFFFFFFFFFFFFFFFFFFFFFFFFFFFFFFFFFFFFFFFFFFFFFF NOT AND PUSH28 0xFFFFFFFFFFFFFFFFFFFFFFFFFFFFFFFFFFFFFFFFFFFFFFFFFFFFFFFF NOT AND DUP2 MSTORE PUSH1 0x20 ADD SWAP1 DUP2 MSTORE PUSH1 0x20 ADD PUSH1 0x0 KECCAK256 PUSH1 0x0 PUSH2 0x100 EXP DUP2 SLOAD DUP2 PUSH1 0xFF MUL NOT AND SWAP1 DUP4 ISZERO ISZERO MUL OR SWAP1 SSTORE POP POP JUMP JUMPDEST DUP3 DUP1 SLOAD PUSH3 0x1EA SWAP1 PUSH3 0x47E JUMP JUMPDEST SWAP1 PUSH1 0x0 MSTORE PUSH1 0x20 PUSH1 0x0 KECCAK256 SWAP1 PUSH1 0x1F ADD PUSH1 0x20 SWAP1 DIV DUP2 ADD SWAP3 DUP3 PUSH3 0x20E JUMPI PUSH1 0x0 DUP6 SSTORE PUSH3 0x25A JUMP JUMPDEST DUP3 PUSH1 0x1F LT PUSH3 0x229 JUMPI DUP1 MLOAD PUSH1 0xFF NOT AND DUP4 DUP1 ADD OR DUP6 SSTORE PUSH3 0x25A JUMP JUMPDEST DUP3 DUP1 ADD PUSH1 0x1 ADD DUP6 SSTORE DUP3 ISZERO PUSH3 0x25A JUMPI SWAP2 DUP3 ADD JUMPDEST DUP3 DUP2 GT ISZERO PUSH3 0x259 JUMPI DUP3 MLOAD DUP3 SSTORE SWAP2 PUSH1 0x20 ADD SWAP2 SWAP1 PUSH1 0x1 ADD SWAP1 PUSH3 0x23C JUMP JUMPDEST JUMPDEST POP SWAP1 POP PUSH3 0x269 SWAP2 SWAP1 PUSH3 0x26D JUMP JUMPDEST POP SWAP1 JUMP JUMPDEST JUMPDEST DUP1 DUP3 GT ISZERO PUSH3 0x288 JUMPI PUSH1 0x0 DUP2 PUSH1 0x0 SWAP1 SSTORE POP PUSH1 0x1 ADD PUSH3 0x26E JUMP JUMPDEST POP SWAP1 JUMP JUMPDEST PUSH1 0x0 PUSH3 0x2A3 PUSH3 0x29D DUP5 PUSH3 0x401 JUMP JUMPDEST PUSH3 0x3D8 JUMP JUMPDEST SWAP1 POP DUP3 DUP2 MSTORE PUSH1 0x20 DUP2 ADD DUP5 DUP5 DUP5 ADD GT ISZERO PUSH3 0x2C2 JUMPI PUSH3 0x2C1 PUSH3 0x54D JUMP JUMPDEST JUMPDEST PUSH3 0x2CF DUP5 DUP3 DUP6 PUSH3 0x448 JUMP JUMPDEST POP SWAP4 SWAP3 POP POP POP JUMP JUMPDEST PUSH1 0x0 DUP3 PUSH1 0x1F DUP4 ADD SLT PUSH3 0x2EF JUMPI PUSH3 0x2EE PUSH3 0x548 JUMP JUMPDEST JUMPDEST DUP2 MLOAD PUSH3 0x301 DUP5 DUP3 PUSH1 0x20 DUP7 ADD PUSH3 0x28C JUMP JUMPDEST SWAP2 POP POP SWAP3 SWAP2 POP POP JUMP JUMPDEST PUSH1 0x0 DUP1 PUSH1 0x40 DUP4 DUP6 SUB SLT ISZERO PUSH3 0x324 JUMPI PUSH3 0x323 PUSH3 0x557 JUMP JUMPDEST JUMPDEST PUSH1 0x0 DUP4 ADD MLOAD PUSH8 0xFFFFFFFFFFFFFFFF DUP2 GT ISZERO PUSH3 0x345 JUMPI PUSH3 0x344 PUSH3 0x552 JUMP JUMPDEST JUMPDEST PUSH3 0x353 DUP6 DUP3 DUP7 ADD PUSH3 0x2D7 JUMP JUMPDEST SWAP3 POP POP PUSH1 0x20 DUP4 ADD MLOAD PUSH8 0xFFFFFFFFFFFFFFFF DUP2 GT ISZERO PUSH3 0x377 JUMPI PUSH3 0x376 PUSH3 0x552 JUMP JUMPDEST JUMPDEST PUSH3 0x385 DUP6 DUP3 DUP7 ADD PUSH3 0x2D7 JUMP JUMPDEST SWAP2 POP POP SWAP3 POP SWAP3 SWAP1 POP JUMP JUMPDEST PUSH1 0x0 PUSH3 0x39E PUSH1 0x1C DUP4 PUSH3 0x437 JUMP JUMPDEST SWAP2 POP PUSH3 0x3AB DUP3 PUSH3 0x56D JUMP JUMPDEST PUSH1 0x20 DUP3 ADD SWAP1 POP SWAP2 SWAP1 POP JUMP JUMPDEST PUSH1 0x0 PUSH1 0x20 DUP3 ADD SWAP1 POP DUP2 DUP2 SUB PUSH1 0x0 DUP4 ADD MSTORE PUSH3 0x3D1 DUP2 PUSH3 0x38F JUMP JUMPDEST SWAP1 POP SWAP2 SWAP1 POP JUMP JUMPDEST PUSH1 0x0 PUSH3 0x3E4 PUSH3 0x3F7 JUMP JUMPDEST SWAP1 POP PUSH3 0x3F2 DUP3 DUP3 PUSH3 0x4B4 JUMP JUMPDEST SWAP2 SWAP1 POP JUMP JUMPDEST PUSH1 0x0 PUSH1 0x40 MLOAD SWAP1 POP SWAP1 JUMP JUMPDEST PUSH1 0x0 PUSH8 0xFFFFFFFFFFFFFFFF DUP3 GT ISZERO PUSH3 0x41F JUMPI PUSH3 0x41E PUSH3 0x519 JUMP JUMPDEST JUMPDEST PUSH3 0x42A DUP3 PUSH3 0x55C JUMP JUMPDEST SWAP1 POP PUSH1 0x20 DUP2 ADD SWAP1 POP SWAP2 SWAP1 POP JUMP JUMPDEST PUSH1 0x0 DUP3 DUP3 MSTORE PUSH1 0x20 DUP3 ADD SWAP1 POP SWAP3 SWAP2 POP POP JUMP JUMPDEST PUSH1 0x0 JUMPDEST DUP4 DUP2 LT ISZERO PUSH3 0x468 JUMPI DUP1 DUP3 ADD MLOAD DUP2 DUP5 ADD MSTORE PUSH1 0x20 DUP2 ADD SWAP1 POP PUSH3 0x44B JUMP JUMPDEST DUP4 DUP2 GT ISZERO PUSH3 0x478 JUMPI PUSH1 0x0 DUP5 DUP5 ADD MSTORE JUMPDEST POP POP POP POP JUMP JUMPDEST PUSH1 0x0 PUSH1 0x2 DUP3 DIV SWAP1 POP PUSH1 0x1 DUP3 AND DUP1 PUSH3 0x497 JUMPI PUSH1 0x7F DUP3 AND SWAP2 POP JUMPDEST PUSH1 0x20 DUP3 LT DUP2 EQ ISZERO PUSH3 0x4AE JUMPI PUSH3 0x4AD PUSH3 0x4EA JUMP JUMPDEST JUMPDEST POP SWAP2 SWAP1 POP JUMP JUMPDEST PUSH3 0x4BF DUP3 PUSH3 0x55C JUMP JUMPDEST DUP2 ADD DUP2 DUP2 LT PUSH8 0xFFFFFFFFFFFFFFFF DUP3 GT OR ISZERO PUSH3 0x4E1 JUMPI PUSH3 0x4E0 PUSH3 0x519 JUMP JUMPDEST JUMPDEST DUP1 PUSH1 0x40 MSTORE POP POP POP JUMP JUMPDEST PUSH32 0x4E487B7100000000000000000000000000000000000000000000000000000000 PUSH1 0x0 MSTORE PUSH1 0x22 PUSH1 0x4 MSTORE PUSH1 0x24 PUSH1 0x0 REVERT JUMPDEST PUSH32 0x4E487B7100000000000000000000000000000000000000000000000000000000 PUSH1 0x0 MSTORE PUSH1 0x41 PUSH1 0x4 MSTORE PUSH1 0x24 PUSH1 0x0 REVERT JUMPDEST PUSH1 0x0 DUP1 REVERT JUMPDEST PUSH1 0x0 DUP1 REVERT JUMPDEST PUSH1 0x0 DUP1 REVERT JUMPDEST PUSH1 0x0 DUP1 REVERT JUMPDEST PUSH1 0x0 PUSH1 0x1F NOT PUSH1 0x1F DUP4 ADD AND SWAP1 POP SWAP2 SWAP1 POP JUMP JUMPDEST PUSH32 0x4552433136353A20696E76616C696420696E7465726661636520696400000000 PUSH1 0x0 DUP3 ADD MSTORE POP JUMP JUMPDEST PUSH2 0x2748 DUP1 PUSH3 0x5A6 PUSH1 0x0 CODECOPY PUSH1 0x0 RETURN INVALID PUSH1 0x80 PUSH1 0x40 MSTORE CALLVALUE DUP1 ISZERO PUSH2 0x10 JUMPI PUSH1 0x0 DUP1 REVERT JUMPDEST POP PUSH1 0x4 CALLDATASIZE LT PUSH2 0xEA JUMPI PUSH1 0x0 CALLDATALOAD PUSH1 0xE0 SHR DUP1 PUSH4 0x6C0360EB GT PUSH2 0x8C JUMPI DUP1 PUSH4 0xA22CB465 GT PUSH2 0x66 JUMPI DUP1 PUSH4 0xA22CB465 EQ PUSH2 0x25D JUMPI DUP1 PUSH4 0xB88D4FDE EQ PUSH2 0x279 JUMPI DUP1 PUSH4 0xC87B56DD EQ PUSH2 0x295 JUMPI DUP1 PUSH4 0xE985E9C5 EQ PUSH2 0x2C5 JUMPI PUSH2 0xEA JUMP JUMPDEST DUP1 PUSH4 0x6C0360EB EQ PUSH2 0x1F1 JUMPI DUP1 PUSH4 0x70A08231 EQ PUSH2 0x20F JUMPI DUP1 PUSH4 0x95D89B41 EQ PUSH2 0x23F JUMPI PUSH2 0xEA JUMP JUMPDEST DUP1 PUSH4 0x95EA7B3 GT PUSH2 0xC8 JUMPI DUP1 PUSH4 0x95EA7B3 EQ PUSH2 0x16D JUMPI DUP1 PUSH4 0x23B872DD EQ PUSH2 0x189 JUMPI DUP1 PUSH4 0x42842E0E EQ PUSH2 0x1A5 JUMPI DUP1 PUSH4 0x6352211E EQ PUSH2 0x1C1 JUMPI PUSH2 0xEA JUMP JUMPDEST DUP1 PUSH4 0x1FFC9A7 EQ PUSH2 0xEF JUMPI DUP1 PUSH4 0x6FDDE03 EQ PUSH2 0x11F JUMPI DUP1 PUSH4 0x81812FC EQ PUSH2 0x13D JUMPI JUMPDEST PUSH1 0x0 DUP1 REVERT JUMPDEST PUSH2 0x109 PUSH1 0x4 DUP1 CALLDATASIZE SUB DUP2 ADD SWAP1 PUSH2 0x104 SWAP2 SWAP1 PUSH2 0x1A0D JUMP JUMPDEST PUSH2 0x2F5 JUMP JUMPDEST PUSH1 0x40 MLOAD PUSH2 0x116 SWAP2 SWAP1 PUSH2 0x1D70 JUMP JUMPDEST PUSH1 0x40 MLOAD DUP1 SWAP2 SUB SWAP1 RETURN JUMPDEST PUSH2 0x127 PUSH2 0x35C JUMP JUMPDEST PUSH1 0x40 MLOAD PUSH2 0x134 SWAP2 SWAP1 PUSH2 0x1D8B JUMP JUMPDEST PUSH1 0x40 MLOAD DUP1 SWAP2 SUB SWAP1 RETURN JUMPDEST PUSH2 0x157 PUSH1 0x4 DUP1 CALLDATASIZE SUB DUP2 ADD SWAP1 PUSH2 0x152 SWAP2 SWAP1 PUSH2 0x1A67 JUMP JUMPDEST PUSH2 0x3EE JUMP JUMPDEST PUSH1 0x40 MLOAD PUSH2 0x164 SWAP2 SWAP1 PUSH2 0x1D09 JUMP JUMPDEST PUSH1 0x40 MLOAD DUP1 SWAP2 SUB SWAP1 RETURN JUMPDEST PUSH2 0x187 PUSH1 0x4 DUP1 CALLDATASIZE SUB DUP2 ADD SWAP1 PUSH2 0x182 SWAP2 SWAP1 PUSH2 0x19CD JUMP JUMPDEST PUSH2 0x473 JUMP JUMPDEST STOP JUMPDEST PUSH2 0x1A3 PUSH1 0x4 DUP1 CALLDATASIZE SUB DUP2 ADD SWAP1 PUSH2 0x19E SWAP2 SWAP1 PUSH2 0x18B7 JUMP JUMPDEST PUSH2 0x58B JUMP JUMPDEST STOP JUMPDEST PUSH2 0x1BF PUSH1 0x4 DUP1 CALLDATASIZE SUB DUP2 ADD SWAP1 PUSH2 0x1BA SWAP2 SWAP1 PUSH2 0x18B7 JUMP JUMPDEST PUSH2 0x5EB JUMP JUMPDEST STOP JUMPDEST PUSH2 0x1DB PUSH1 0x4 DUP1 CALLDATASIZE SUB DUP2 ADD SWAP1 PUSH2 0x1D6 SWAP2 SWAP1 PUSH2 0x1A67 JUMP JUMPDEST PUSH2 0x60B JUMP JUMPDEST PUSH1 0x40 MLOAD PUSH2 0x1E8 SWAP2 SWAP1 PUSH2 0x1D09 JUMP JUMPDEST PUSH1 0x40 MLOAD DUP1 SWAP2 SUB SWAP1 RETURN JUMPDEST PUSH2 0x1F9 PUSH2 0x642 JUMP JUMPDEST PUSH1 0x40 MLOAD PUSH2 0x206 SWAP2 SWAP1 PUSH2 0x1D8B JUMP JUMPDEST PUSH1 0x40 MLOAD DUP1 SWAP2 SUB SWAP1 RETURN JUMPDEST PUSH2 0x229 PUSH1 0x4 DUP1 CALLDATASIZE SUB DUP2 ADD SWAP1 PUSH2 0x224 SWAP2 SWAP1 PUSH2 0x184A JUMP JUMPDEST PUSH2 0x6D4 JUMP JUMPDEST PUSH1 0x40 MLOAD PUSH2 0x236 SWAP2 SWAP1 PUSH2 0x1F0D JUMP JUMPDEST PUSH1 0x40 MLOAD DUP1 SWAP2 SUB SWAP1 RETURN JUMPDEST PUSH2 0x247 PUSH2 0x793 JUMP JUMPDEST PUSH1 0x40 MLOAD PUSH2 0x254 SWAP2 SWAP1 PUSH2 0x1D8B JUMP JUMPDEST PUSH1 0x40 MLOAD DUP1 SWAP2 SUB SWAP1 RETURN JUMPDEST PUSH2 0x277 PUSH1 0x4 DUP1 CALLDATASIZE SUB DUP2 ADD SWAP1 PUSH2 0x272 SWAP2 SWAP1 PUSH2 0x198D JUMP JUMPDEST PUSH2 0x825 JUMP JUMPDEST STOP JUMPDEST PUSH2 0x293 PUSH1 0x4 DUP1 CALLDATASIZE SUB DUP2 ADD SWAP1 PUSH2 0x28E SWAP2 SWAP1 PUSH2 0x190A JUMP JUMPDEST PUSH2 0x9A6 JUMP JUMPDEST STOP JUMPDEST PUSH2 0x2AF PUSH1 0x4 DUP1 CALLDATASIZE SUB DUP2 ADD SWAP1 PUSH2 0x2AA SWAP2 SWAP1 PUSH2 0x1A67 JUMP JUMPDEST PUSH2 0xA08 JUMP JUMPDEST PUSH1 0x40 MLOAD PUSH2 0x2BC SWAP2 SWAP1 PUSH2 0x1D8B JUMP JUMPDEST PUSH1 0x40 MLOAD DUP1 SWAP2 SUB SWAP1 RETURN JUMPDEST PUSH2 0x2DF PUSH1 0x4 DUP1 CALLDATASIZE SUB DUP2 ADD SWAP1 PUSH2 0x2DA SWAP2 SWAP1 PUSH2 0x1877 JUMP JUMPDEST PUSH2 0xB7B JUMP JUMPDEST PUSH1 0x40 MLOAD PUSH2 0x2EC SWAP2 SWAP1 PUSH2 0x1D70 JUMP JUMPDEST PUSH1 0x40 MLOAD DUP1 SWAP2 SUB SWAP1 RETURN JUMPDEST PUSH1 0x0 DUP1 PUSH1 0x0 DUP4 PUSH28 0xFFFFFFFFFFFFFFFFFFFFFFFFFFFFFFFFFFFFFFFFFFFFFFFFFFFFFFFF NOT AND PUSH28 0xFFFFFFFFFFFFFFFFFFFFFFFFFFFFFFFFFFFFFFFFFFFFFFFFFFFFFFFF NOT AND DUP2 MSTORE PUSH1 0x20 ADD SWAP1 DUP2 MSTORE PUSH1 0x20 ADD PUSH1 0x0 KECCAK256 PUSH1 0x0 SWAP1 SLOAD SWAP1 PUSH2 0x100 EXP SWAP1 DIV PUSH1 0xFF AND SWAP1 POP SWAP2 SWAP1 POP JUMP JUMPDEST PUSH1 0x60 PUSH1 0x6 DUP1 SLOAD PUSH2 0x36B SWAP1 PUSH2 0x2132 JUMP JUMPDEST DUP1 PUSH1 0x1F ADD PUSH1 0x20 DUP1 SWAP2 DIV MUL PUSH1 0x20 ADD PUSH1 0x40 MLOAD SWAP1 DUP2 ADD PUSH1 0x40 MSTORE DUP1 SWAP3 SWAP2 SWAP1 DUP2 DUP2 MSTORE PUSH1 0x20 ADD DUP3 DUP1 SLOAD PUSH2 0x397 SWAP1 PUSH2 0x2132 JUMP JUMPDEST DUP1 ISZERO PUSH2 0x3E4 JUMPI DUP1 PUSH1 0x1F LT PUSH2 0x3B9 JUMPI PUSH2 0x100 DUP1 DUP4 SLOAD DIV MUL DUP4 MSTORE SWAP2 PUSH1 0x20 ADD SWAP2 PUSH2 0x3E4 JUMP JUMPDEST DUP3 ADD SWAP2 SWAP1 PUSH1 0x0 MSTORE PUSH1 0x20 PUSH1 0x0 KECCAK256 SWAP1 JUMPDEST DUP2 SLOAD DUP2 MSTORE SWAP1 PUSH1 0x1 ADD SWAP1 PUSH1 0x20 ADD DUP1 DUP4 GT PUSH2 0x3C7 JUMPI DUP3 SWAP1 SUB PUSH1 0x1F AND DUP3 ADD SWAP2 JUMPDEST POP POP POP POP POP SWAP1 POP SWAP1 JUMP JUMPDEST PUSH1 0x0 PUSH2 0x3F9 DUP3 PUSH2 0xC0F JUMP JUMPDEST PUSH2 0x438 JUMPI PUSH1 0x40 MLOAD PUSH32 0x8C379A000000000000000000000000000000000000000000000000000000000 DUP2 MSTORE PUSH1 0x4 ADD PUSH2 0x42F SWAP1 PUSH2 0x1E6D JUMP JUMPDEST PUSH1 0x40 MLOAD DUP1 SWAP2 SUB SWAP1 REVERT JUMPDEST PUSH1 0x4 PUSH1 0x0 DUP4 DUP2 MSTORE PUSH1 0x20 ADD SWAP1 DUP2 MSTORE PUSH1 0x20 ADD PUSH1 0x0 KECCAK256 PUSH1 0x0 SWAP1 SLOAD SWAP1 PUSH2 0x100 EXP SWAP1 DIV PUSH20 0xFFFFFFFFFFFFFFFFFFFFFFFFFFFFFFFFFFFFFFFF AND SWAP1 POP SWAP2 SWAP1 POP JUMP JUMPDEST PUSH1 0x0 PUSH2 0x47E DUP3 PUSH2 0x60B JUMP JUMPDEST SWAP1 POP DUP1 PUSH20 0xFFFFFFFFFFFFFFFFFFFFFFFFFFFFFFFFFFFFFFFF AND DUP4 PUSH20 0xFFFFFFFFFFFFFFFFFFFFFFFFFFFFFFFFFFFFFFFF AND EQ ISZERO PUSH2 0x4EF JUMPI PUSH1 0x40 MLOAD PUSH32 0x8C379A000000000000000000000000000000000000000000000000000000000 DUP2 MSTORE PUSH1 0x4 ADD PUSH2 0x4E6 SWAP1 PUSH2 0x1ECD JUMP JUMPDEST PUSH1 0x40 MLOAD DUP1 SWAP2 SUB SWAP1 REVERT JUMPDEST DUP1 PUSH20 0xFFFFFFFFFFFFFFFFFFFFFFFFFFFFFFFFFFFFFFFF AND PUSH2 0x50E PUSH2 0xC2C JUMP JUMPDEST PUSH20 0xFFFFFFFFFFFFFFFFFFFFFFFFFFFFFFFFFFFFFFFF AND EQ DUP1 PUSH2 0x53D JUMPI POP PUSH2 0x53C DUP2 PUSH2 0x537 PUSH2 0xC2C JUMP JUMPDEST PUSH2 0xB7B JUMP JUMPDEST JUMPDEST PUSH2 0x57C JUMPI PUSH1 0x40 MLOAD PUSH32 0x8C379A000000000000000000000000000000000000000000000000000000000 DUP2 MSTORE PUSH1 0x4 ADD PUSH2 0x573 SWAP1 PUSH2 0x1E2D JUMP JUMPDEST PUSH1 0x40 MLOAD DUP1 SWAP2 SUB SWAP1 REVERT JUMPDEST PUSH2 0x586 DUP4 DUP4 PUSH2 0xC34 JUMP JUMPDEST POP POP POP JUMP JUMPDEST PUSH2 0x59C PUSH2 0x596 PUSH2 0xC2C JUMP JUMPDEST DUP3 PUSH2 0xCED JUMP JUMPDEST PUSH2 0x5DB JUMPI PUSH1 0x40 MLOAD PUSH32 0x8C379A000000000000000000000000000000000000000000000000000000000 DUP2 MSTORE PUSH1 0x4 ADD PUSH2 0x5D2 SWAP1 PUSH2 0x1EED JUMP JUMPDEST PUSH1 0x40 MLOAD DUP1 SWAP2 SUB SWAP1 REVERT JUMPDEST PUSH2 0x5E6 DUP4 DUP4 DUP4 PUSH2 0xDCB JUMP JUMPDEST POP POP POP JUMP JUMPDEST PUSH2 0x606 DUP4 DUP4 DUP4 PUSH1 0x40 MLOAD DUP1 PUSH1 0x20 ADD PUSH1 0x40 MSTORE DUP1 PUSH1 0x0 DUP2 MSTORE POP PUSH2 0x9A6 JUMP JUMPDEST POP POP POP JUMP JUMPDEST PUSH1 0x0 PUSH2 0x63B DUP3 PUSH1 0x40 MLOAD DUP1 PUSH1 0x60 ADD PUSH1 0x40 MSTORE DUP1 PUSH1 0x29 DUP2 MSTORE PUSH1 0x20 ADD PUSH2 0x26EA PUSH1 0x29 SWAP2 CODECOPY PUSH1 0x2 PUSH2 0xFE2 SWAP1 SWAP3 SWAP2 SWAP1 PUSH4 0xFFFFFFFF AND JUMP JUMPDEST SWAP1 POP SWAP2 SWAP1 POP JUMP JUMPDEST PUSH1 0x60 PUSH1 0x9 DUP1 SLOAD PUSH2 0x651 SWAP1 PUSH2 0x2132 JUMP JUMPDEST DUP1 PUSH1 0x1F ADD PUSH1 0x20 DUP1 SWAP2 DIV MUL PUSH1 0x20 ADD PUSH1 0x40 MLOAD SWAP1 DUP2 ADD PUSH1 0x40 MSTORE DUP1 SWAP3 SWAP2 SWAP1 DUP2 DUP2 MSTORE PUSH1 0x20 ADD DUP3 DUP1 SLOAD PUSH2 0x67D SWAP1 PUSH2 0x2132 JUMP JUMPDEST DUP1 ISZERO PUSH2 0x6CA JUMPI DUP1 PUSH1 0x1F LT PUSH2 0x69F JUMPI PUSH2 0x100 DUP1 DUP4 SLOAD DIV MUL DUP4 MSTORE SWAP2 PUSH1 0x20 ADD SWAP2 PUSH2 0x6CA JUMP JUMPDEST DUP3 ADD SWAP2 SWAP1 PUSH1 0x0 MSTORE PUSH1 0x20 PUSH1 0x0 KECCAK256 SWAP1 JUMPDEST DUP2 SLOAD DUP2 MSTORE SWAP1 PUSH1 0x1 ADD SWAP1 PUSH1 0x20 ADD DUP1 DUP4 GT PUSH2 0x6AD JUMPI DUP3 SWAP1 SUB PUSH1 0x1F AND DUP3 ADD SWAP2 JUMPDEST POP POP POP POP POP SWAP1 POP SWAP1 JUMP JUMPDEST PUSH1 0x0 DUP1 PUSH20 0xFFFFFFFFFFFFFFFFFFFFFFFFFFFFFFFFFFFFFFFF AND DUP3 PUSH20 0xFFFFFFFFFFFFFFFFFFFFFFFFFFFFFFFFFFFFFFFF AND EQ ISZERO PUSH2 0x745 JUMPI PUSH1 0x40 MLOAD PUSH32 0x8C379A000000000000000000000000000000000000000000000000000000000 DUP2 MSTORE PUSH1 0x4 ADD PUSH2 0x73C SWAP1 PUSH2 0x1E4D JUMP JUMPDEST PUSH1 0x40 MLOAD DUP1 SWAP2 SUB SWAP1 REVERT JUMPDEST PUSH2 0x78C PUSH1 0x1 PUSH1 0x0 DUP5 PUSH20 0xFFFFFFFFFFFFFFFFFFFFFFFFFFFFFFFFFFFFFFFF AND PUSH20 0xFFFFFFFFFFFFFFFFFFFFFFFFFFFFFFFFFFFFFFFF AND DUP2 MSTORE PUSH1 0x20 ADD SWAP1 DUP2 MSTORE PUSH1 0x20 ADD PUSH1 0x0 KECCAK256 PUSH2 0x1001 JUMP JUMPDEST SWAP1 POP SWAP2 SWAP1 POP JUMP JUMPDEST PUSH1 0x60 PUSH1 0x7 DUP1 SLOAD PUSH2 0x7A2 SWAP1 PUSH2 0x2132 JUMP JUMPDEST DUP1 PUSH1 0x1F ADD PUSH1 0x20 DUP1 SWAP2 DIV MUL PUSH1 0x20 ADD PUSH1 0x40 MLOAD SWAP1 DUP2 ADD PUSH1 0x40 MSTORE DUP1 SWAP3 SWAP2 SWAP1 DUP2 DUP2 MSTORE PUSH1 0x20 ADD DUP3 DUP1 SLOAD PUSH2 0x7CE SWAP1 PUSH2 0x2132 JUMP JUMPDEST DUP1 ISZERO PUSH2 0x81B JUMPI DUP1 PUSH1 0x1F LT PUSH2 0x7F0 JUMPI PUSH2 0x100 DUP1 DUP4 SLOAD DIV MUL DUP4 MSTORE SWAP2 PUSH1 0x20 ADD SWAP2 PUSH2 0x81B JUMP JUMPDEST DUP3 ADD SWAP2 SWAP1 PUSH1 0x0 MSTORE PUSH1 0x20 PUSH1 0x0 KECCAK256 SWAP1 JUMPDEST DUP2 SLOAD DUP2 MSTORE SWAP1 PUSH1 0x1 ADD SWAP1 PUSH1 0x20 ADD DUP1 DUP4 GT PUSH2 0x7FE JUMPI DUP3 SWAP1 SUB PUSH1 0x1F AND DUP3 ADD SWAP2 JUMPDEST POP POP POP POP POP SWAP1 POP SWAP1 JUMP JUMPDEST PUSH2 0x82D PUSH2 0xC2C JUMP JUMPDEST PUSH20 0xFFFFFFFFFFFFFFFFFFFFFFFFFFFFFFFFFFFFFFFF AND DUP3 PUSH20 0xFFFFFFFFFFFFFFFFFFFFFFFFFFFFFFFFFFFFFFFF AND EQ ISZERO PUSH2 0x89B JUMPI PUSH1 0x40 MLOAD PUSH32 0x8C379A000000000000000000000000000000000000000000000000000000000 DUP2 MSTORE PUSH1 0x4 ADD PUSH2 0x892 SWAP1 PUSH2 0x1DED JUMP JUMPDEST PUSH1 0x40 MLOAD DUP1 SWAP2 SUB SWAP1 REVERT JUMPDEST DUP1 PUSH1 0x5 PUSH1 0x0 PUSH2 0x8A8 PUSH2 0xC2C JUMP JUMPDEST PUSH20 0xFFFFFFFFFFFFFFFFFFFFFFFFFFFFFFFFFFFFFFFF AND PUSH20 0xFFFFFFFFFFFFFFFFFFFFFFFFFFFFFFFFFFFFFFFF AND DUP2 MSTORE PUSH1 0x20 ADD SWAP1 DUP2 MSTORE PUSH1 0x20 ADD PUSH1 0x0 KECCAK256 PUSH1 0x0 DUP5 PUSH20 0xFFFFFFFFFFFFFFFFFFFFFFFFFFFFFFFFFFFFFFFF AND PUSH20 0xFFFFFFFFFFFFFFFFFFFFFFFFFFFFFFFFFFFFFFFF AND DUP2 MSTORE PUSH1 0x20 ADD SWAP1 DUP2 MSTORE PUSH1 0x20 ADD PUSH1 0x0 KECCAK256 PUSH1 0x0 PUSH2 0x100 EXP DUP2 SLOAD DUP2 PUSH1 0xFF MUL NOT AND SWAP1 DUP4 ISZERO ISZERO MUL OR SWAP1 SSTORE POP DUP2 PUSH20 0xFFFFFFFFFFFFFFFFFFFFFFFFFFFFFFFFFFFFFFFF AND PUSH2 0x955 PUSH2 0xC2C JUMP JUMPDEST PUSH20 0xFFFFFFFFFFFFFFFFFFFFFFFFFFFFFFFFFFFFFFFF AND PUSH32 0x17307EAB39AB6107E8899845AD3D59BD9653F200F220920489CA2B5937696C31 DUP4 PUSH1 0x40 MLOAD PUSH2 0x99A SWAP2 SWAP1 PUSH2 0x1D70 JUMP JUMPDEST PUSH1 0x40 MLOAD DUP1 SWAP2 SUB SWAP1 LOG3 POP POP JUMP JUMPDEST PUSH2 0x9B7 PUSH2 0x9B1 PUSH2 0xC2C JUMP JUMPDEST DUP4 PUSH2 0xCED JUMP JUMPDEST PUSH2 0x9F6 JUMPI PUSH1 0x40 MLOAD PUSH32 0x8C379A000000000000000000000000000000000000000000000000000000000 DUP2 MSTORE PUSH1 0x4 ADD PUSH2 0x9ED SWAP1 PUSH2 0x1EED JUMP JUMPDEST PUSH1 0x40 MLOAD DUP1 SWAP2 SUB SWAP1 REVERT JUMPDEST PUSH2 0xA02 DUP5 DUP5 DUP5 DUP5 PUSH2 0x1016 JUMP JUMPDEST POP POP POP POP JUMP JUMPDEST PUSH1 0x60 PUSH2 0xA13 DUP3 PUSH2 0xC0F JUMP JUMPDEST PUSH2 0xA52 JUMPI PUSH1 0x40 MLOAD PUSH32 0x8C379A000000000000000000000000000000000000000000000000000000000 DUP2 MSTORE PUSH1 0x4 ADD PUSH2 0xA49 SWAP1 PUSH2 0x1EAD JUMP JUMPDEST PUSH1 0x40 MLOAD DUP1 SWAP2 SUB SWAP1 REVERT JUMPDEST PUSH1 0x0 PUSH1 0x8 PUSH1 0x0 DUP5 DUP2 MSTORE PUSH1 0x20 ADD SWAP1 DUP2 MSTORE PUSH1 0x20 ADD PUSH1 0x0 KECCAK256 DUP1 SLOAD PUSH2 0xA72 SWAP1 PUSH2 0x2132 JUMP JUMPDEST DUP1 PUSH1 0x1F ADD PUSH1 0x20 DUP1 SWAP2 DIV MUL PUSH1 0x20 ADD PUSH1 0x40 MLOAD SWAP1 DUP2 ADD PUSH1 0x40 MSTORE DUP1 SWAP3 SWAP2 SWAP1 DUP2 DUP2 MSTORE PUSH1 0x20 ADD DUP3 DUP1 SLOAD PUSH2 0xA9E SWAP1 PUSH2 0x2132 JUMP JUMPDEST DUP1 ISZERO PUSH2 0xAEB JUMPI DUP1 PUSH1 0x1F LT PUSH2 0xAC0 JUMPI PUSH2 0x100 DUP1 DUP4 SLOAD DIV MUL DUP4 MSTORE SWAP2 PUSH1 0x20 ADD SWAP2 PUSH2 0xAEB JUMP JUMPDEST DUP3 ADD SWAP2 SWAP1 PUSH1 0x0 MSTORE PUSH1 0x20 PUSH1 0x0 KECCAK256 SWAP1 JUMPDEST DUP2 SLOAD DUP2 MSTORE SWAP1 PUSH1 0x1 ADD SWAP1 PUSH1 0x20 ADD DUP1 DUP4 GT PUSH2 0xACE JUMPI DUP3 SWAP1 SUB PUSH1 0x1F AND DUP3 ADD SWAP2 JUMPDEST POP POP POP POP POP SWAP1 POP PUSH1 0x0 PUSH2 0xAFC PUSH2 0x642 JUMP JUMPDEST SWAP1 POP PUSH1 0x0 DUP2 MLOAD EQ ISZERO PUSH2 0xB12 JUMPI DUP2 SWAP3 POP POP POP PUSH2 0xB76 JUMP JUMPDEST PUSH1 0x0 DUP3 MLOAD GT ISZERO PUSH2 0xB47 JUMPI DUP1 DUP3 PUSH1 0x40 MLOAD PUSH1 0x20 ADD PUSH2 0xB2F SWAP3 SWAP2 SWAP1 PUSH2 0x1CE5 JUMP JUMPDEST PUSH1 0x40 MLOAD PUSH1 0x20 DUP2 DUP4 SUB SUB DUP2 MSTORE SWAP1 PUSH1 0x40 MSTORE SWAP3 POP POP POP PUSH2 0xB76 JUMP JUMPDEST DUP1 PUSH2 0xB51 DUP6 PUSH2 0x1072 JUMP JUMPDEST PUSH1 0x40 MLOAD PUSH1 0x20 ADD PUSH2 0xB62 SWAP3 SWAP2 SWAP1 PUSH2 0x1CE5 JUMP JUMPDEST PUSH1 0x40 MLOAD PUSH1 0x20 DUP2 DUP4 SUB SUB DUP2 MSTORE SWAP1 PUSH1 0x40 MSTORE SWAP3 POP POP POP JUMPDEST SWAP2 SWAP1 POP JUMP JUMPDEST PUSH1 0x0 PUSH1 0x5 PUSH1 0x0 DUP5 PUSH20 0xFFFFFFFFFFFFFFFFFFFFFFFFFFFFFFFFFFFFFFFF AND PUSH20 0xFFFFFFFFFFFFFFFFFFFFFFFFFFFFFFFFFFFFFFFF AND DUP2 MSTORE PUSH1 0x20 ADD SWAP1 DUP2 MSTORE PUSH1 0x20 ADD PUSH1 0x0 KECCAK256 PUSH1 0x0 DUP4 PUSH20 0xFFFFFFFFFFFFFFFFFFFFFFFFFFFFFFFFFFFFFFFF AND PUSH20 0xFFFFFFFFFFFFFFFFFFFFFFFFFFFFFFFFFFFFFFFF AND DUP2 MSTORE PUSH1 0x20 ADD SWAP1 DUP2 MSTORE PUSH1 0x20 ADD PUSH1 0x0 KECCAK256 PUSH1 0x0 SWAP1 SLOAD SWAP1 PUSH2 0x100 EXP SWAP1 DIV PUSH1 0xFF AND SWAP1 POP SWAP3 SWAP2 POP POP JUMP JUMPDEST PUSH1 0x0 PUSH2 0xC25 DUP3 PUSH1 0x2 PUSH2 0x11D3 SWAP1 SWAP2 SWAP1 PUSH4 0xFFFFFFFF AND JUMP JUMPDEST SWAP1 POP SWAP2 SWAP1 POP JUMP JUMPDEST PUSH1 0x0 CALLER SWAP1 POP SWAP1 JUMP JUMPDEST DUP2 PUSH1 0x4 PUSH1 0x0 DUP4 DUP2 MSTORE PUSH1 0x20 ADD SWAP1 DUP2 MSTORE PUSH1 0x20 ADD PUSH1 0x0 KECCAK256 PUSH1 0x0 PUSH2 0x100 EXP DUP2 SLOAD DUP2 PUSH20 0xFFFFFFFFFFFFFFFFFFFFFFFFFFFFFFFFFFFFFFFF MUL NOT AND SWAP1 DUP4 PUSH20 0xFFFFFFFFFFFFFFFFFFFFFFFFFFFFFFFFFFFFFFFF AND MUL OR SWAP1 SSTORE POP DUP1 DUP3 PUSH20 0xFFFFFFFFFFFFFFFFFFFFFFFFFFFFFFFFFFFFFFFF AND PUSH2 0xCA7 DUP4 PUSH2 0x60B JUMP JUMPDEST PUSH20 0xFFFFFFFFFFFFFFFFFFFFFFFFFFFFFFFFFFFFFFFF AND PUSH32 0x8C5BE1E5EBEC7D5BD14F71427D1E84F3DD0314C0F7B2291E5B200AC8C7C3B925 PUSH1 0x40 MLOAD PUSH1 0x40 MLOAD DUP1 SWAP2 SUB SWAP1 LOG4 POP POP JUMP JUMPDEST PUSH1 0x0 PUSH2 0xCF8 DUP3 PUSH2 0xC0F JUMP JUMPDEST PUSH2 0xD37 JUMPI PUSH1 0x40 MLOAD PUSH32 0x8C379A000000000000000000000000000000000000000000000000000000000 DUP2 MSTORE PUSH1 0x4 ADD PUSH2 0xD2E SWAP1 PUSH2 0x1E0D JUMP JUMPDEST PUSH1 0x40 MLOAD DUP1 SWAP2 SUB SWAP1 REVERT JUMPDEST PUSH1 0x0 PUSH2 0xD42 DUP4 PUSH2 0x60B JUMP JUMPDEST SWAP1 POP DUP1 PUSH20 0xFFFFFFFFFFFFFFFFFFFFFFFFFFFFFFFFFFFFFFFF AND DUP5 PUSH20 0xFFFFFFFFFFFFFFFFFFFFFFFFFFFFFFFFFFFFFFFF AND EQ DUP1 PUSH2 0xDB1 JUMPI POP DUP4 PUSH20 0xFFFFFFFFFFFFFFFFFFFFFFFFFFFFFFFFFFFFFFFF AND PUSH2 0xD99 DUP5 PUSH2 0x3EE JUMP JUMPDEST PUSH20 0xFFFFFFFFFFFFFFFFFFFFFFFFFFFFFFFFFFFFFFFF AND EQ JUMPDEST DUP1 PUSH2 0xDC2 JUMPI POP PUSH2 0xDC1 DUP2 DUP6 PUSH2 0xB7B JUMP JUMPDEST JUMPDEST SWAP2 POP POP SWAP3 SWAP2 POP POP JUMP JUMPDEST DUP3 PUSH20 0xFFFFFFFFFFFFFFFFFFFFFFFFFFFFFFFFFFFFFFFF AND PUSH2 0xDEB DUP3 PUSH2 0x60B JUMP JUMPDEST PUSH20 0xFFFFFFFFFFFFFFFFFFFFFFFFFFFFFFFFFFFFFFFF AND EQ PUSH2 0xE41 JUMPI PUSH1 0x40 MLOAD PUSH32 0x8C379A000000000000000000000000000000000000000000000000000000000 DUP2 MSTORE PUSH1 0x4 ADD PUSH2 0xE38 SWAP1 PUSH2 0x1E8D JUMP JUMPDEST PUSH1 0x40 MLOAD DUP1 SWAP2 SUB SWAP1 REVERT JUMPDEST PUSH1 0x0 PUSH20 0xFFFFFFFFFFFFFFFFFFFFFFFFFFFFFFFFFFFFFFFF AND DUP3 PUSH20 0xFFFFFFFFFFFFFFFFFFFFFFFFFFFFFFFFFFFFFFFF AND EQ ISZERO PUSH2 0xEB1 JUMPI PUSH1 0x40 MLOAD PUSH32 0x8C379A000000000000000000000000000000000000000000000000000000000 DUP2 MSTORE PUSH1 0x4 ADD PUSH2 0xEA8 SWAP1 PUSH2 0x1DCD JUMP JUMPDEST PUSH1 0x40 MLOAD DUP1 SWAP2 SUB SWAP1 REVERT JUMPDEST PUSH2 0xEBC DUP4 DUP4 DUP4 PUSH2 0x11ED JUMP JUMPDEST PUSH2 0xEC7 PUSH1 0x0 DUP3 PUSH2 0xC34 JUMP JUMPDEST PUSH2 0xF18 DUP2 PUSH1 0x1 PUSH1 0x0 DUP7 PUSH20 0xFFFFFFFFFFFFFFFFFFFFFFFFFFFFFFFFFFFFFFFF AND PUSH20 0xFFFFFFFFFFFFFFFFFFFFFFFFFFFFFFFFFFFFFFFF AND DUP2 MSTORE PUSH1 0x20 ADD SWAP1 DUP2 MSTORE PUSH1 0x20 ADD PUSH1 0x0 KECCAK256 PUSH2 0x11F2 SWAP1 SWAP2 SWAP1 PUSH4 0xFFFFFFFF AND JUMP JUMPDEST POP PUSH2 0xF6A DUP2 PUSH1 0x1 PUSH1 0x0 DUP6 PUSH20 0xFFFFFFFFFFFFFFFFFFFFFFFFFFFFFFFFFFFFFFFF AND PUSH20 0xFFFFFFFFFFFFFFFFFFFFFFFFFFFFFFFFFFFFFFFF AND DUP2 MSTORE PUSH1 0x20 ADD SWAP1 DUP2 MSTORE PUSH1 0x20 ADD PUSH1 0x0 KECCAK256 PUSH2 0x120C SWAP1 SWAP2 SWAP1 PUSH4 0xFFFFFFFF AND JUMP JUMPDEST POP PUSH2 0xF81 DUP2 DUP4 PUSH1 0x2 PUSH2 0x1226 SWAP1 SWAP3 SWAP2 SWAP1 PUSH4 0xFFFFFFFF AND JUMP JUMPDEST POP DUP1 DUP3 PUSH20 0xFFFFFFFFFFFFFFFFFFFFFFFFFFFFFFFFFFFFFFFF AND DUP5 PUSH20 0xFFFFFFFFFFFFFFFFFFFFFFFFFFFFFFFFFFFFFFFF AND PUSH32 0xDDF252AD1BE2C89B69C2B068FC378DAA952BA7F163C4A11628F55A4DF523B3EF PUSH1 0x40 MLOAD PUSH1 0x40 MLOAD DUP1 SWAP2 SUB SWAP1 LOG4 POP POP POP JUMP JUMPDEST PUSH1 0x0 PUSH2 0xFF5 DUP5 PUSH1 0x0 ADD DUP5 PUSH1 0x0 SHL DUP5 PUSH2 0x125B JUMP JUMPDEST PUSH1 0x0 SHR SWAP1 POP SWAP4 SWAP3 POP POP POP JUMP JUMPDEST PUSH1 0x0 PUSH2 0x100F DUP3 PUSH1 0x0 ADD PUSH2 0x12FC JUMP JUMPDEST SWAP1 POP SWAP2 SWAP1 POP JUMP JUMPDEST PUSH2 0x1021 DUP5 DUP5 DUP5 PUSH2 0xDCB JUMP JUMPDEST PUSH2 0x102D DUP5 DUP5 DUP5 DUP5 PUSH2 0x130D JUMP JUMPDEST PUSH2 0x106C JUMPI PUSH1 0x40 MLOAD PUSH32 0x8C379A000000000000000000000000000000000000000000000000000000000 DUP2 MSTORE PUSH1 0x4 ADD PUSH2 0x1063 SWAP1 PUSH2 0x1DAD JUMP JUMPDEST PUSH1 0x40 MLOAD DUP1 SWAP2 SUB SWAP1 REVERT JUMPDEST POP POP POP POP JUMP JUMPDEST PUSH1 0x60 PUSH1 0x0 DUP3 EQ ISZERO PUSH2 0x10BA JUMPI PUSH1 0x40 MLOAD DUP1 PUSH1 0x40 ADD PUSH1 0x40 MSTORE DUP1 PUSH1 0x1 DUP2 MSTORE PUSH1 0x20 ADD PUSH32 0x3000000000000000000000000000000000000000000000000000000000000000 DUP2 MSTORE POP SWAP1 POP PUSH2 0x11CE JUMP JUMPDEST PUSH1 0x0 DUP3 SWAP1 POP PUSH1 0x0 JUMPDEST PUSH1 0x0 DUP3 EQ PUSH2 0x10EC JUMPI DUP1 DUP1 PUSH2 0x10D5 SWAP1 PUSH2 0x2195 JUMP JUMPDEST SWAP2 POP POP PUSH1 0xA DUP3 PUSH2 0x10E5 SWAP2 SWAP1 PUSH2 0x2017 JUMP JUMPDEST SWAP2 POP PUSH2 0x10C2 JUMP JUMPDEST PUSH1 0x0 DUP2 PUSH8 0xFFFFFFFFFFFFFFFF DUP2 GT ISZERO PUSH2 0x1108 JUMPI PUSH2 0x1107 PUSH2 0x22FA JUMP JUMPDEST JUMPDEST PUSH1 0x40 MLOAD SWAP1 DUP1 DUP3 MSTORE DUP1 PUSH1 0x1F ADD PUSH1 0x1F NOT AND PUSH1 0x20 ADD DUP3 ADD PUSH1 0x40 MSTORE DUP1 ISZERO PUSH2 0x113A JUMPI DUP2 PUSH1 0x20 ADD PUSH1 0x1 DUP3 MUL DUP1 CALLDATASIZE DUP4 CALLDATACOPY DUP1 DUP3 ADD SWAP2 POP POP SWAP1 POP JUMPDEST POP SWAP1 POP JUMPDEST PUSH1 0x0 DUP6 EQ PUSH2 0x11C7 JUMPI PUSH1 0x1 DUP3 PUSH2 0x1153 SWAP2 SWAP1 PUSH2 0x2048 JUMP JUMPDEST SWAP2 POP PUSH1 0xA DUP6 PUSH2 0x1162 SWAP2 SWAP1 PUSH2 0x21DE JUMP JUMPDEST PUSH1 0x30 PUSH2 0x116E SWAP2 SWAP1 PUSH2 0x1FC1 JUMP JUMPDEST PUSH1 0xF8 SHL DUP2 DUP4 DUP2 MLOAD DUP2 LT PUSH2 0x1184 JUMPI PUSH2 0x1183 PUSH2 0x22CB JUMP JUMPDEST JUMPDEST PUSH1 0x20 ADD ADD SWAP1 PUSH31 0xFFFFFFFFFFFFFFFFFFFFFFFFFFFFFFFFFFFFFFFFFFFFFFFFFFFFFFFFFFFFFF NOT AND SWAP1 DUP2 PUSH1 0x0 BYTE SWAP1 MSTORE8 POP PUSH1 0xA DUP6 PUSH2 0x11C0 SWAP2 SWAP1 PUSH2 0x2017 JUMP JUMPDEST SWAP5 POP PUSH2 0x113E JUMP JUMPDEST DUP1 SWAP4 POP POP POP POP JUMPDEST SWAP2 SWAP1 POP JUMP JUMPDEST PUSH1 0x0 PUSH2 0x11E5 DUP4 PUSH1 0x0 ADD DUP4 PUSH1 0x0 SHL PUSH2 0x14A4 JUMP JUMPDEST SWAP1 POP SWAP3 SWAP2 POP POP JUMP JUMPDEST POP POP POP JUMP JUMPDEST PUSH1 0x0 PUSH2 0x1204 DUP4 PUSH1 0x0 ADD DUP4 PUSH1 0x0 SHL PUSH2 0x14C7 JUMP JUMPDEST SWAP1 POP SWAP3 SWAP2 POP POP JUMP JUMPDEST PUSH1 0x0 PUSH2 0x121E DUP4 PUSH1 0x0 ADD DUP4 PUSH1 0x0 SHL PUSH2 0x15DF JUMP JUMPDEST SWAP1 POP SWAP3 SWAP2 POP POP JUMP JUMPDEST PUSH1 0x0 PUSH2 0x1252 DUP5 PUSH1 0x0 ADD DUP5 PUSH1 0x0 SHL DUP5 PUSH20 0xFFFFFFFFFFFFFFFFFFFFFFFFFFFFFFFFFFFFFFFF AND PUSH1 0x0 SHL PUSH2 0x164F JUMP JUMPDEST SWAP1 POP SWAP4 SWAP3 POP POP POP JUMP JUMPDEST PUSH1 0x0 DUP1 DUP5 PUSH1 0x1 ADD PUSH1 0x0 DUP6 DUP2 MSTORE PUSH1 0x20 ADD SWAP1 DUP2 MSTORE PUSH1 0x20 ADD PUSH1 0x0 KECCAK256 SLOAD SWAP1 POP PUSH1 0x0 DUP2 EQ ISZERO DUP4 SWAP1 PUSH2 0x12BD JUMPI PUSH1 0x40 MLOAD PUSH32 0x8C379A000000000000000000000000000000000000000000000000000000000 DUP2 MSTORE PUSH1 0x4 ADD PUSH2 0x12B4 SWAP2 SWAP1 PUSH2 0x1D8B JUMP JUMPDEST PUSH1 0x40 MLOAD DUP1 SWAP2 SUB SWAP1 REVERT JUMPDEST POP DUP5 PUSH1 0x0 ADD PUSH1 0x1 DUP3 PUSH2 0x12CF SWAP2 SWAP1 PUSH2 0x2048 JUMP JUMPDEST DUP2 SLOAD DUP2 LT PUSH2 0x12E0 JUMPI PUSH2 0x12DF PUSH2 0x22CB JUMP JUMPDEST JUMPDEST SWAP1 PUSH1 0x0 MSTORE PUSH1 0x20 PUSH1 0x0 KECCAK256 SWAP1 PUSH1 0x2 MUL ADD PUSH1 0x1 ADD SLOAD SWAP2 POP POP SWAP4 SWAP3 POP POP POP JUMP JUMPDEST PUSH1 0x0 DUP2 PUSH1 0x0 ADD DUP1 SLOAD SWAP1 POP SWAP1 POP SWAP2 SWAP1 POP JUMP JUMPDEST PUSH1 0x0 PUSH2 0x132E DUP5 PUSH20 0xFFFFFFFFFFFFFFFFFFFFFFFFFFFFFFFFFFFFFFFF AND PUSH2 0x173B JUMP JUMPDEST ISZERO PUSH2 0x1497 JUMPI DUP4 PUSH20 0xFFFFFFFFFFFFFFFFFFFFFFFFFFFFFFFFFFFFFFFF AND PUSH4 0x150B7A02 PUSH2 0x1357 PUSH2 0xC2C JUMP JUMPDEST DUP8 DUP7 DUP7 PUSH1 0x40 MLOAD DUP6 PUSH4 0xFFFFFFFF AND PUSH1 0xE0 SHL DUP2 MSTORE PUSH1 0x4 ADD PUSH2 0x1379 SWAP5 SWAP4 SWAP3 SWAP2 SWAP1 PUSH2 0x1D24 JUMP JUMPDEST PUSH1 0x20 PUSH1 0x40 MLOAD DUP1 DUP4 SUB DUP2 PUSH1 0x0 DUP8 DUP1 EXTCODESIZE ISZERO DUP1 ISZERO PUSH2 0x1393 JUMPI PUSH1 0x0 DUP1 REVERT JUMPDEST POP GAS CALL SWAP3 POP POP POP DUP1 ISZERO PUSH2 0x13C4 JUMPI POP PUSH1 0x40 MLOAD RETURNDATASIZE PUSH1 0x1F NOT PUSH1 0x1F DUP3 ADD AND DUP3 ADD DUP1 PUSH1 0x40 MSTORE POP DUP2 ADD SWAP1 PUSH2 0x13C1 SWAP2 SWAP1 PUSH2 0x1A3A JUMP JUMPDEST PUSH1 0x1 JUMPDEST PUSH2 0x1447 JUMPI RETURNDATASIZE DUP1 PUSH1 0x0 DUP2 EQ PUSH2 0x13F4 JUMPI PUSH1 0x40 MLOAD SWAP2 POP PUSH1 0x1F NOT PUSH1 0x3F RETURNDATASIZE ADD AND DUP3 ADD PUSH1 0x40 MSTORE RETURNDATASIZE DUP3 MSTORE RETURNDATASIZE PUSH1 0x0 PUSH1 0x20 DUP5 ADD RETURNDATACOPY PUSH2 0x13F9 JUMP JUMPDEST PUSH1 0x60 SWAP2 POP JUMPDEST POP PUSH1 0x0 DUP2 MLOAD EQ ISZERO PUSH2 0x143F JUMPI PUSH1 0x40 MLOAD PUSH32 0x8C379A000000000000000000000000000000000000000000000000000000000 DUP2 MSTORE PUSH1 0x4 ADD PUSH2 0x1436 SWAP1 PUSH2 0x1DAD JUMP JUMPDEST PUSH1 0x40 MLOAD DUP1 SWAP2 SUB SWAP1 REVERT JUMPDEST DUP1 MLOAD DUP2 PUSH1 0x20 ADD REVERT JUMPDEST PUSH4 0x150B7A02 PUSH1 0xE0 SHL PUSH28 0xFFFFFFFFFFFFFFFFFFFFFFFFFFFFFFFFFFFFFFFFFFFFFFFFFFFFFFFF NOT AND DUP2 PUSH28 0xFFFFFFFFFFFFFFFFFFFFFFFFFFFFFFFFFFFFFFFFFFFFFFFFFFFFFFFF NOT AND EQ SWAP2 POP POP PUSH2 0x149C JUMP JUMPDEST PUSH1 0x1 SWAP1 POP JUMPDEST SWAP5 SWAP4 POP POP POP POP JUMP JUMPDEST PUSH1 0x0 DUP1 DUP4 PUSH1 0x1 ADD PUSH1 0x0 DUP5 DUP2 MSTORE PUSH1 0x20 ADD SWAP1 DUP2 MSTORE PUSH1 0x20 ADD PUSH1 0x0 KECCAK256 SLOAD EQ ISZERO SWAP1 POP SWAP3 SWAP2 POP POP JUMP JUMPDEST PUSH1 0x0 DUP1 DUP4 PUSH1 0x1 ADD PUSH1 0x0 DUP5 DUP2 MSTORE PUSH1 0x20 ADD SWAP1 DUP2 MSTORE PUSH1 0x20 ADD PUSH1 0x0 KECCAK256 SLOAD SWAP1 POP PUSH1 0x0 DUP2 EQ PUSH2 0x15D3 JUMPI PUSH1 0x0 PUSH1 0x1 DUP3 PUSH2 0x14F9 SWAP2 SWAP1 PUSH2 0x2048 JUMP JUMPDEST SWAP1 POP PUSH1 0x0 PUSH1 0x1 DUP7 PUSH1 0x0 ADD DUP1 SLOAD SWAP1 POP PUSH2 0x1511 SWAP2 SWAP1 PUSH2 0x2048 JUMP JUMPDEST SWAP1 POP PUSH1 0x0 DUP7 PUSH1 0x0 ADD DUP3 DUP2 SLOAD DUP2 LT PUSH2 0x152B JUMPI PUSH2 0x152A PUSH2 0x22CB JUMP JUMPDEST JUMPDEST SWAP1 PUSH1 0x0 MSTORE PUSH1 0x20 PUSH1 0x0 KECCAK256 ADD SLOAD SWAP1 POP DUP1 DUP8 PUSH1 0x0 ADD DUP5 DUP2 SLOAD DUP2 LT PUSH2 0x154F JUMPI PUSH2 0x154E PUSH2 0x22CB JUMP JUMPDEST JUMPDEST SWAP1 PUSH1 0x0 MSTORE PUSH1 0x20 PUSH1 0x0 KECCAK256 ADD DUP2 SWAP1 SSTORE POP PUSH1 0x1 DUP4 PUSH2 0x156A SWAP2 SWAP1 PUSH2 0x1FC1 JUMP JUMPDEST DUP8 PUSH1 0x1 ADD PUSH1 0x0 DUP4 DUP2 MSTORE PUSH1 0x20 ADD SWAP1 DUP2 MSTORE PUSH1 0x20 ADD PUSH1 0x0 KECCAK256 DUP2 SWAP1 SSTORE POP DUP7 PUSH1 0x0 ADD DUP1 SLOAD DUP1 PUSH2 0x1597 JUMPI PUSH2 0x1596 PUSH2 0x229C JUMP JUMPDEST JUMPDEST PUSH1 0x1 SWAP1 SUB DUP2 DUP2 SWAP1 PUSH1 0x0 MSTORE PUSH1 0x20 PUSH1 0x0 KECCAK256 ADD PUSH1 0x0 SWAP1 SSTORE SWAP1 SSTORE DUP7 PUSH1 0x1 ADD PUSH1 0x0 DUP8 DUP2 MSTORE PUSH1 0x20 ADD SWAP1 DUP2 MSTORE PUSH1 0x20 ADD PUSH1 0x0 KECCAK256 PUSH1 0x0 SWAP1 SSTORE PUSH1 0x1 SWAP5 POP POP POP POP POP PUSH2 0x15D9 JUMP JUMPDEST PUSH1 0x0 SWAP2 POP POP JUMPDEST SWAP3 SWAP2 POP POP JUMP JUMPDEST PUSH1 0x0 PUSH2 0x15EB DUP4 DUP4 PUSH2 0x174E JUMP JUMPDEST PUSH2 0x1644 JUMPI DUP3 PUSH1 0x0 ADD DUP3 SWAP1 DUP1 PUSH1 0x1 DUP2 SLOAD ADD DUP1 DUP3 SSTORE DUP1 SWAP2 POP POP PUSH1 0x1 SWAP1 SUB SWAP1 PUSH1 0x0 MSTORE PUSH1 0x20 PUSH1 0x0 KECCAK256 ADD PUSH1 0x0 SWAP1 SWAP2 SWAP1 SWAP2 SWAP1 SWAP2 POP SSTORE DUP3 PUSH1 0x0 ADD DUP1 SLOAD SWAP1 POP DUP4 PUSH1 0x1 ADD PUSH1 0x0 DUP5 DUP2 MSTORE PUSH1 0x20 ADD SWAP1 DUP2 MSTORE PUSH1 0x20 ADD PUSH1 0x0 KECCAK256 DUP2 SWAP1 SSTORE POP PUSH1 0x1 SWAP1 POP PUSH2 0x1649 JUMP JUMPDEST PUSH1 0x0 SWAP1 POP JUMPDEST SWAP3 SWAP2 POP POP JUMP JUMPDEST PUSH1 0x0 DUP1 DUP5 PUSH1 0x1 ADD PUSH1 0x0 DUP6 DUP2 MSTORE PUSH1 0x20 ADD SWAP1 DUP2 MSTORE PUSH1 0x20 ADD PUSH1 0x0 KECCAK256 SLOAD SWAP1 POP PUSH1 0x0 DUP2 EQ ISZERO PUSH2 0x16F6 JUMPI DUP5 PUSH1 0x0 ADD PUSH1 0x40 MLOAD DUP1 PUSH1 0x40 ADD PUSH1 0x40 MSTORE DUP1 DUP7 DUP2 MSTORE PUSH1 0x20 ADD DUP6 DUP2 MSTORE POP SWAP1 DUP1 PUSH1 0x1 DUP2 SLOAD ADD DUP1 DUP3 SSTORE DUP1 SWAP2 POP POP PUSH1 0x1 SWAP1 SUB SWAP1 PUSH1 0x0 MSTORE PUSH1 0x20 PUSH1 0x0 KECCAK256 SWAP1 PUSH1 0x2 MUL ADD PUSH1 0x0 SWAP1 SWAP2 SWAP1 SWAP2 SWAP1 SWAP2 POP PUSH1 0x0 DUP3 ADD MLOAD DUP2 PUSH1 0x0 ADD SSTORE PUSH1 0x20 DUP3 ADD MLOAD DUP2 PUSH1 0x1 ADD SSTORE POP POP DUP5 PUSH1 0x0 ADD DUP1 SLOAD SWAP1 POP DUP6 PUSH1 0x1 ADD PUSH1 0x0 DUP7 DUP2 MSTORE PUSH1 0x20 ADD SWAP1 DUP2 MSTORE PUSH1 0x20 ADD PUSH1 0x0 KECCAK256 DUP2 SWAP1 SSTORE POP PUSH1 0x1 SWAP2 POP POP PUSH2 0x1734 JUMP JUMPDEST DUP3 DUP6 PUSH1 0x0 ADD PUSH1 0x1 DUP4 PUSH2 0x1708 SWAP2 SWAP1 PUSH2 0x2048 JUMP JUMPDEST DUP2 SLOAD DUP2 LT PUSH2 0x1719 JUMPI PUSH2 0x1718 PUSH2 0x22CB JUMP JUMPDEST JUMPDEST SWAP1 PUSH1 0x0 MSTORE PUSH1 0x20 PUSH1 0x0 KECCAK256 SWAP1 PUSH1 0x2 MUL ADD PUSH1 0x1 ADD DUP2 SWAP1 SSTORE POP PUSH1 0x0 SWAP2 POP POP JUMPDEST SWAP4 SWAP3 POP POP POP JUMP JUMPDEST PUSH1 0x0 DUP1 DUP3 EXTCODESIZE SWAP1 POP PUSH1 0x0 DUP2 GT SWAP2 POP POP SWAP2 SWAP1 POP JUMP JUMPDEST PUSH1 0x0 DUP1 DUP4 PUSH1 0x1 ADD PUSH1 0x0 DUP5 DUP2 MSTORE PUSH1 0x20 ADD SWAP1 DUP2 MSTORE PUSH1 0x20 ADD PUSH1 0x0 KECCAK256 SLOAD EQ ISZERO SWAP1 POP SWAP3 SWAP2 POP POP JUMP JUMPDEST PUSH1 0x0 PUSH2 0x1784 PUSH2 0x177F DUP5 PUSH2 0x1F4D JUMP JUMPDEST PUSH2 0x1F28 JUMP JUMPDEST SWAP1 POP DUP3 DUP2 MSTORE PUSH1 0x20 DUP2 ADD DUP5 DUP5 DUP5 ADD GT ISZERO PUSH2 0x17A0 JUMPI PUSH2 0x179F PUSH2 0x232E JUMP JUMPDEST JUMPDEST PUSH2 0x17AB DUP5 DUP3 DUP6 PUSH2 0x20F0 JUMP JUMPDEST POP SWAP4 SWAP3 POP POP POP JUMP JUMPDEST PUSH1 0x0 DUP2 CALLDATALOAD SWAP1 POP PUSH2 0x17C2 DUP2 PUSH2 0x268D JUMP JUMPDEST SWAP3 SWAP2 POP POP JUMP JUMPDEST PUSH1 0x0 DUP2 CALLDATALOAD SWAP1 POP PUSH2 0x17D7 DUP2 PUSH2 0x26A4 JUMP JUMPDEST SWAP3 SWAP2 POP POP JUMP JUMPDEST PUSH1 0x0 DUP2 CALLDATALOAD SWAP1 POP PUSH2 0x17EC DUP2 PUSH2 0x26BB JUMP JUMPDEST SWAP3 SWAP2 POP POP JUMP JUMPDEST PUSH1 0x0 DUP2 MLOAD SWAP1 POP PUSH2 0x1801 DUP2 PUSH2 0x26BB JUMP JUMPDEST SWAP3 SWAP2 POP POP JUMP JUMPDEST PUSH1 0x0 DUP3 PUSH1 0x1F DUP4 ADD SLT PUSH2 0x181C JUMPI PUSH2 0x181B PUSH2 0x2329 JUMP JUMPDEST JUMPDEST DUP2 CALLDATALOAD PUSH2 0x182C DUP5 DUP3 PUSH1 0x20 DUP7 ADD PUSH2 0x1771 JUMP JUMPDEST SWAP2 POP POP SWAP3 SWAP2 POP POP JUMP JUMPDEST PUSH1 0x0 DUP2 CALLDATALOAD SWAP1 POP PUSH2 0x1844 DUP2 PUSH2 0x26D2 JUMP JUMPDEST SWAP3 SWAP2 POP POP JUMP JUMPDEST PUSH1 0x0 PUSH1 0x20 DUP3 DUP5 SUB SLT ISZERO PUSH2 0x1860 JUMPI PUSH2 0x185F PUSH2 0x2338 JUMP JUMPDEST JUMPDEST PUSH1 0x0 PUSH2 0x186E DUP5 DUP3 DUP6 ADD PUSH2 0x17B3 JUMP JUMPDEST SWAP2 POP POP SWAP3 SWAP2 POP POP JUMP JUMPDEST PUSH1 0x0 DUP1 PUSH1 0x40 DUP4 DUP6 SUB SLT ISZERO PUSH2 0x188E JUMPI PUSH2 0x188D PUSH2 0x2338 JUMP JUMPDEST JUMPDEST PUSH1 0x0 PUSH2 0x189C DUP6 DUP3 DUP7 ADD PUSH2 0x17B3 JUMP JUMPDEST SWAP3 POP POP PUSH1 0x20 PUSH2 0x18AD DUP6 DUP3 DUP7 ADD PUSH2 0x17B3 JUMP JUMPDEST SWAP2 POP POP SWAP3 POP SWAP3 SWAP1 POP JUMP JUMPDEST PUSH1 0x0 DUP1 PUSH1 0x0 PUSH1 0x60 DUP5 DUP7 SUB SLT ISZERO PUSH2 0x18D0 JUMPI PUSH2 0x18CF PUSH2 0x2338 JUMP JUMPDEST JUMPDEST PUSH1 0x0 PUSH2 0x18DE DUP7 DUP3 DUP8 ADD PUSH2 0x17B3 JUMP JUMPDEST SWAP4 POP POP PUSH1 0x20 PUSH2 0x18EF DUP7 DUP3 DUP8 ADD PUSH2 0x17B3 JUMP JUMPDEST SWAP3 POP POP PUSH1 0x40 PUSH2 0x1900 DUP7 DUP3 DUP8 ADD PUSH2 0x1835 JUMP JUMPDEST SWAP2 POP POP SWAP3 POP SWAP3 POP SWAP3 JUMP JUMPDEST PUSH1 0x0 DUP1 PUSH1 0x0 DUP1 PUSH1 0x80 DUP6 DUP8 SUB SLT ISZERO PUSH2 0x1924 JUMPI PUSH2 0x1923 PUSH2 0x2338 JUMP JUMPDEST JUMPDEST PUSH1 0x0 PUSH2 0x1932 DUP8 DUP3 DUP9 ADD PUSH2 0x17B3 JUMP JUMPDEST SWAP5 POP POP PUSH1 0x20 PUSH2 0x1943 DUP8 DUP3 DUP9 ADD PUSH2 0x17B3 JUMP JUMPDEST SWAP4 POP POP PUSH1 0x40 PUSH2 0x1954 DUP8 DUP3 DUP9 ADD PUSH2 0x1835 JUMP JUMPDEST SWAP3 POP POP PUSH1 0x60 DUP6 ADD CALLDATALOAD PUSH8 0xFFFFFFFFFFFFFFFF DUP2 GT ISZERO PUSH2 0x1975 JUMPI PUSH2 0x1974 PUSH2 0x2333 JUMP JUMPDEST JUMPDEST PUSH2 0x1981 DUP8 DUP3 DUP9 ADD PUSH2 0x1807 JUMP JUMPDEST SWAP2 POP POP SWAP3 SWAP6 SWAP2 SWAP5 POP SWAP3 POP JUMP JUMPDEST PUSH1 0x0 DUP1 PUSH1 0x40 DUP4 DUP6 SUB SLT ISZERO PUSH2 0x19A4 JUMPI PUSH2 0x19A3 PUSH2 0x2338 JUMP JUMPDEST JUMPDEST PUSH1 0x0 PUSH2 0x19B2 DUP6 DUP3 DUP7 ADD PUSH2 0x17B3 JUMP JUMPDEST SWAP3 POP POP PUSH1 0x20 PUSH2 0x19C3 DUP6 DUP3 DUP7 ADD PUSH2 0x17C8 JUMP JUMPDEST SWAP2 POP POP SWAP3 POP SWAP3 SWAP1 POP JUMP JUMPDEST PUSH1 0x0 DUP1 PUSH1 0x40 DUP4 DUP6 SUB SLT ISZERO PUSH2 0x19E4 JUMPI PUSH2 0x19E3 PUSH2 0x2338 JUMP JUMPDEST JUMPDEST PUSH1 0x0 PUSH2 0x19F2 DUP6 DUP3 DUP7 ADD PUSH2 0x17B3 JUMP JUMPDEST SWAP3 POP POP PUSH1 0x20 PUSH2 0x1A03 DUP6 DUP3 DUP7 ADD PUSH2 0x1835 JUMP JUMPDEST SWAP2 POP POP SWAP3 POP SWAP3 SWAP1 POP JUMP JUMPDEST PUSH1 0x0 PUSH1 0x20 DUP3 DUP5 SUB SLT ISZERO PUSH2 0x1A23 JUMPI PUSH2 0x1A22 PUSH2 0x2338 JUMP JUMPDEST JUMPDEST PUSH1 0x0 PUSH2 0x1A31 DUP5 DUP3 DUP6 ADD PUSH2 0x17DD JUMP JUMPDEST SWAP2 POP POP SWAP3 SWAP2 POP POP JUMP JUMPDEST PUSH1 0x0 PUSH1 0x20 DUP3 DUP5 SUB SLT ISZERO PUSH2 0x1A50 JUMPI PUSH2 0x1A4F PUSH2 0x2338 JUMP JUMPDEST JUMPDEST PUSH1 0x0 PUSH2 0x1A5E DUP5 DUP3 DUP6 ADD PUSH2 0x17F2 JUMP JUMPDEST SWAP2 POP POP SWAP3 SWAP2 POP POP JUMP JUMPDEST PUSH1 0x0 PUSH1 0x20 DUP3 DUP5 SUB SLT ISZERO PUSH2 0x1A7D JUMPI PUSH2 0x1A7C PUSH2 0x2338 JUMP JUMPDEST JUMPDEST PUSH1 0x0 PUSH2 0x1A8B DUP5 DUP3 DUP6 ADD PUSH2 0x1835 JUMP JUMPDEST SWAP2 POP POP SWAP3 SWAP2 POP POP JUMP JUMPDEST PUSH2 0x1A9D DUP2 PUSH2 0x207C JUMP JUMPDEST DUP3 MSTORE POP POP JUMP JUMPDEST PUSH2 0x1AAC DUP2 PUSH2 0x208E JUMP JUMPDEST DUP3 MSTORE POP POP JUMP JUMPDEST PUSH1 0x0 PUSH2 0x1ABD DUP3 PUSH2 0x1F7E JUMP JUMPDEST PUSH2 0x1AC7 DUP2 DUP6 PUSH2 0x1F94 JUMP JUMPDEST SWAP4 POP PUSH2 0x1AD7 DUP2 DUP6 PUSH1 0x20 DUP7 ADD PUSH2 0x20FF JUMP JUMPDEST PUSH2 0x1AE0 DUP2 PUSH2 0x233D JUMP JUMPDEST DUP5 ADD SWAP2 POP POP SWAP3 SWAP2 POP POP JUMP JUMPDEST PUSH1 0x0 PUSH2 0x1AF6 DUP3 PUSH2 0x1F89 JUMP JUMPDEST PUSH2 0x1B00 DUP2 DUP6 PUSH2 0x1FA5 JUMP JUMPDEST SWAP4 POP PUSH2 0x1B10 DUP2 DUP6 PUSH1 0x20 DUP7 ADD PUSH2 0x20FF JUMP JUMPDEST PUSH2 0x1B19 DUP2 PUSH2 0x233D JUMP JUMPDEST DUP5 ADD SWAP2 POP POP SWAP3 SWAP2 POP POP JUMP JUMPDEST PUSH1 0x0 PUSH2 0x1B2F DUP3 PUSH2 0x1F89 JUMP JUMPDEST PUSH2 0x1B39 DUP2 DUP6 PUSH2 0x1FB6 JUMP JUMPDEST SWAP4 POP PUSH2 0x1B49 DUP2 DUP6 PUSH1 0x20 DUP7 ADD PUSH2 0x20FF JUMP JUMPDEST DUP1 DUP5 ADD SWAP2 POP POP SWAP3 SWAP2 POP POP JUMP JUMPDEST PUSH1 0x0 PUSH2 0x1B62 PUSH1 0x32 DUP4 PUSH2 0x1FA5 JUMP JUMPDEST SWAP2 POP PUSH2 0x1B6D DUP3 PUSH2 0x234E JUMP JUMPDEST PUSH1 0x40 DUP3 ADD SWAP1 POP SWAP2 SWAP1 POP JUMP JUMPDEST PUSH1 0x0 PUSH2 0x1B85 PUSH1 0x24 DUP4 PUSH2 0x1FA5 JUMP JUMPDEST SWAP2 POP PUSH2 0x1B90 DUP3 PUSH2 0x239D JUMP JUMPDEST PUSH1 0x40 DUP3 ADD SWAP1 POP SWAP2 SWAP1 POP JUMP JUMPDEST PUSH1 0x0 PUSH2 0x1BA8 PUSH1 0x19 DUP4 PUSH2 0x1FA5 JUMP JUMPDEST SWAP2 POP PUSH2 0x1BB3 DUP3 PUSH2 0x23EC JUMP JUMPDEST PUSH1 0x20 DUP3 ADD SWAP1 POP SWAP2 SWAP1 POP JUMP JUMPDEST PUSH1 0x0 PUSH2 0x1BCB PUSH1 0x2C DUP4 PUSH2 0x1FA5 JUMP JUMPDEST SWAP2 POP PUSH2 0x1BD6 DUP3 PUSH2 0x2415 JUMP JUMPDEST PUSH1 0x40 DUP3 ADD SWAP1 POP SWAP2 SWAP1 POP JUMP JUMPDEST PUSH1 0x0 PUSH2 0x1BEE PUSH1 0x38 DUP4 PUSH2 0x1FA5 JUMP JUMPDEST SWAP2 POP PUSH2 0x1BF9 DUP3 PUSH2 0x2464 JUMP JUMPDEST PUSH1 0x40 DUP3 ADD SWAP1 POP SWAP2 SWAP1 POP JUMP JUMPDEST PUSH1 0x0 PUSH2 0x1C11 PUSH1 0x2A DUP4 PUSH2 0x1FA5 JUMP JUMPDEST SWAP2 POP PUSH2 0x1C1C DUP3 PUSH2 0x24B3 JUMP JUMPDEST PUSH1 0x40 DUP3 ADD SWAP1 POP SWAP2 SWAP1 POP JUMP JUMPDEST PUSH1 0x0 PUSH2 0x1C34 PUSH1 0x2C DUP4 PUSH2 0x1FA5 JUMP JUMPDEST SWAP2 POP PUSH2 0x1C3F DUP3 PUSH2 0x2502 JUMP JUMPDEST PUSH1 0x40 DUP3 ADD SWAP1 POP SWAP2 SWAP1 POP JUMP JUMPDEST PUSH1 0x0 PUSH2 0x1C57 PUSH1 0x29 DUP4 PUSH2 0x1FA5 JUMP JUMPDEST SWAP2 POP PUSH2 0x1C62 DUP3 PUSH2 0x2551 JUMP JUMPDEST PUSH1 0x40 DUP3 ADD SWAP1 POP SWAP2 SWAP1 POP JUMP JUMPDEST PUSH1 0x0 PUSH2 0x1C7A PUSH1 0x2F DUP4 PUSH2 0x1FA5 JUMP JUMPDEST SWAP2 POP PUSH2 0x1C85 DUP3 PUSH2 0x25A0 JUMP JUMPDEST PUSH1 0x40 DUP3 ADD SWAP1 POP SWAP2 SWAP1 POP JUMP JUMPDEST PUSH1 0x0 PUSH2 0x1C9D PUSH1 0x21 DUP4 PUSH2 0x1FA5 JUMP JUMPDEST SWAP2 POP PUSH2 0x1CA8 DUP3 PUSH2 0x25EF JUMP JUMPDEST PUSH1 0x40 DUP3 ADD SWAP1 POP SWAP2 SWAP1 POP JUMP JUMPDEST PUSH1 0x0 PUSH2 0x1CC0 PUSH1 0x31 DUP4 PUSH2 0x1FA5 JUMP JUMPDEST SWAP2 POP PUSH2 0x1CCB DUP3 PUSH2 0x263E JUMP JUMPDEST PUSH1 0x40 DUP3 ADD SWAP1 POP SWAP2 SWAP1 POP JUMP JUMPDEST PUSH2 0x1CDF DUP2 PUSH2 0x20E6 JUMP JUMPDEST DUP3 MSTORE POP POP JUMP JUMPDEST PUSH1 0x0 PUSH2 0x1CF1 DUP3 DUP6 PUSH2 0x1B24 JUMP JUMPDEST SWAP2 POP PUSH2 0x1CFD DUP3 DUP5 PUSH2 0x1B24 JUMP JUMPDEST SWAP2 POP DUP2 SWAP1 POP SWAP4 SWAP3 POP POP POP JUMP JUMPDEST PUSH1 0x0 PUSH1 0x20 DUP3 ADD SWAP1 POP PUSH2 0x1D1E PUSH1 0x0 DUP4 ADD DUP5 PUSH2 0x1A94 JUMP JUMPDEST SWAP3 SWAP2 POP POP JUMP JUMPDEST PUSH1 0x0 PUSH1 0x80 DUP3 ADD SWAP1 POP PUSH2 0x1D39 PUSH1 0x0 DUP4 ADD DUP8 PUSH2 0x1A94 JUMP JUMPDEST PUSH2 0x1D46 PUSH1 0x20 DUP4 ADD DUP7 PUSH2 0x1A94 JUMP JUMPDEST PUSH2 0x1D53 PUSH1 0x40 DUP4 ADD DUP6 PUSH2 0x1CD6 JUMP JUMPDEST DUP2 DUP2 SUB PUSH1 0x60 DUP4 ADD MSTORE PUSH2 0x1D65 DUP2 DUP5 PUSH2 0x1AB2 JUMP JUMPDEST SWAP1 POP SWAP6 SWAP5 POP POP POP POP POP JUMP JUMPDEST PUSH1 0x0 PUSH1 0x20 DUP3 ADD SWAP1 POP PUSH2 0x1D85 PUSH1 0x0 DUP4 ADD DUP5 PUSH2 0x1AA3 JUMP JUMPDEST SWAP3 SWAP2 POP POP JUMP JUMPDEST PUSH1 0x0 PUSH1 0x20 DUP3 ADD SWAP1 POP DUP2 DUP2 SUB PUSH1 0x0 DUP4 ADD MSTORE PUSH2 0x1DA5 DUP2 DUP5 PUSH2 0x1AEB JUMP JUMPDEST SWAP1 POP SWAP3 SWAP2 POP POP JUMP JUMPDEST PUSH1 0x0 PUSH1 0x20 DUP3 ADD SWAP1 POP DUP2 DUP2 SUB PUSH1 0x0 DUP4 ADD MSTORE PUSH2 0x1DC6 DUP2 PUSH2 0x1B55 JUMP JUMPDEST SWAP1 POP SWAP2 SWAP1 POP JUMP JUMPDEST PUSH1 0x0 PUSH1 0x20 DUP3 ADD SWAP1 POP DUP2 DUP2 SUB PUSH1 0x0 DUP4 ADD MSTORE PUSH2 0x1DE6 DUP2 PUSH2 0x1B78 JUMP JUMPDEST SWAP1 POP SWAP2 SWAP1 POP JUMP JUMPDEST PUSH1 0x0 PUSH1 0x20 DUP3 ADD SWAP1 POP DUP2 DUP2 SUB PUSH1 0x0 DUP4 ADD MSTORE PUSH2 0x1E06 DUP2 PUSH2 0x1B9B JUMP JUMPDEST SWAP1 POP SWAP2 SWAP1 POP JUMP JUMPDEST PUSH1 0x0 PUSH1 0x20 DUP3 ADD SWAP1 POP DUP2 DUP2 SUB PUSH1 0x0 DUP4 ADD MSTORE PUSH2 0x1E26 DUP2 PUSH2 0x1BBE JUMP JUMPDEST SWAP1 POP SWAP2 SWAP1 POP JUMP JUMPDEST PUSH1 0x0 PUSH1 0x20 DUP3 ADD SWAP1 POP DUP2 DUP2 SUB PUSH1 0x0 DUP4 ADD MSTORE PUSH2 0x1E46 DUP2 PUSH2 0x1BE1 JUMP JUMPDEST SWAP1 POP SWAP2 SWAP1 POP JUMP JUMPDEST PUSH1 0x0 PUSH1 0x20 DUP3 ADD SWAP1 POP DUP2 DUP2 SUB PUSH1 0x0 DUP4 ADD MSTORE PUSH2 0x1E66 DUP2 PUSH2 0x1C04 JUMP JUMPDEST SWAP1 POP SWAP2 SWAP1 POP JUMP JUMPDEST PUSH1 0x0 PUSH1 0x20 DUP3 ADD SWAP1 POP DUP2 DUP2 SUB PUSH1 0x0 DUP4 ADD MSTORE PUSH2 0x1E86 DUP2 PUSH2 0x1C27 JUMP JUMPDEST SWAP1 POP SWAP2 SWAP1 POP JUMP JUMPDEST PUSH1 0x0 PUSH1 0x20 DUP3 ADD SWAP1 POP DUP2 DUP2 SUB PUSH1 0x0 DUP4 ADD MSTORE PUSH2 0x1EA6 DUP2 PUSH2 0x1C4A JUMP JUMPDEST SWAP1 POP SWAP2 SWAP1 POP JUMP JUMPDEST PUSH1 0x0 PUSH1 0x20 DUP3 ADD SWAP1 POP DUP2 DUP2 SUB PUSH1 0x0 DUP4 ADD MSTORE PUSH2 0x1EC6 DUP2 PUSH2 0x1C6D JUMP JUMPDEST SWAP1 POP SWAP2 SWAP1 POP JUMP JUMPDEST PUSH1 0x0 PUSH1 0x20 DUP3 ADD SWAP1 POP DUP2 DUP2 SUB PUSH1 0x0 DUP4 ADD MSTORE PUSH2 0x1EE6 DUP2 PUSH2 0x1C90 JUMP JUMPDEST SWAP1 POP SWAP2 SWAP1 POP JUMP JUMPDEST PUSH1 0x0 PUSH1 0x20 DUP3 ADD SWAP1 POP DUP2 DUP2 SUB PUSH1 0x0 DUP4 ADD MSTORE PUSH2 0x1F06 DUP2 PUSH2 0x1CB3 JUMP JUMPDEST SWAP1 POP SWAP2 SWAP1 POP JUMP JUMPDEST PUSH1 0x0 PUSH1 0x20 DUP3 ADD SWAP1 POP PUSH2 0x1F22 PUSH1 0x0 DUP4 ADD DUP5 PUSH2 0x1CD6 JUMP JUMPDEST SWAP3 SWAP2 POP POP JUMP JUMPDEST PUSH1 0x0 PUSH2 0x1F32 PUSH2 0x1F43 JUMP JUMPDEST SWAP1 POP PUSH2 0x1F3E DUP3 DUP3 PUSH2 0x2164 JUMP JUMPDEST SWAP2 SWAP1 POP JUMP JUMPDEST PUSH1 0x0 PUSH1 0x40 MLOAD SWAP1 POP SWAP1 JUMP JUMPDEST PUSH1 0x0 PUSH8 0xFFFFFFFFFFFFFFFF DUP3 GT ISZERO PUSH2 0x1F68 JUMPI PUSH2 0x1F67 PUSH2 0x22FA JUMP JUMPDEST JUMPDEST PUSH2 0x1F71 DUP3 PUSH2 0x233D JUMP JUMPDEST SWAP1 POP PUSH1 0x20 DUP2 ADD SWAP1 POP SWAP2 SWAP1 POP JUMP JUMPDEST PUSH1 0x0 DUP2 MLOAD SWAP1 POP SWAP2 SWAP1 POP JUMP JUMPDEST PUSH1 0x0 DUP2 MLOAD SWAP1 POP SWAP2 SWAP1 POP JUMP JUMPDEST PUSH1 0x0 DUP3 DUP3 MSTORE PUSH1 0x20 DUP3 ADD SWAP1 POP SWAP3 SWAP2 POP POP JUMP JUMPDEST PUSH1 0x0 DUP3 DUP3 MSTORE PUSH1 0x20 DUP3 ADD SWAP1 POP SWAP3 SWAP2 POP POP JUMP JUMPDEST PUSH1 0x0 DUP2 SWAP1 POP SWAP3 SWAP2 POP POP JUMP JUMPDEST PUSH1 0x0 PUSH2 0x1FCC DUP3 PUSH2 0x20E6 JUMP JUMPDEST SWAP2 POP PUSH2 0x1FD7 DUP4 PUSH2 0x20E6 JUMP JUMPDEST SWAP3 POP DUP3 PUSH32 0xFFFFFFFFFFFFFFFFFFFFFFFFFFFFFFFFFFFFFFFFFFFFFFFFFFFFFFFFFFFFFFFF SUB DUP3 GT ISZERO PUSH2 0x200C JUMPI PUSH2 0x200B PUSH2 0x220F JUMP JUMPDEST JUMPDEST DUP3 DUP3 ADD SWAP1 POP SWAP3 SWAP2 POP POP JUMP JUMPDEST PUSH1 0x0 PUSH2 0x2022 DUP3 PUSH2 0x20E6 JUMP JUMPDEST SWAP2 POP PUSH2 0x202D DUP4 PUSH2 0x20E6 JUMP JUMPDEST SWAP3 POP DUP3 PUSH2 0x203D JUMPI PUSH2 0x203C PUSH2 0x223E JUMP JUMPDEST JUMPDEST DUP3 DUP3 DIV SWAP1 POP SWAP3 SWAP2 POP POP JUMP JUMPDEST PUSH1 0x0 PUSH2 0x2053 DUP3 PUSH2 0x20E6 JUMP JUMPDEST SWAP2 POP PUSH2 0x205E DUP4 PUSH2 0x20E6 JUMP JUMPDEST SWAP3 POP DUP3 DUP3 LT ISZERO PUSH2 0x2071 JUMPI PUSH2 0x2070 PUSH2 0x220F JUMP JUMPDEST JUMPDEST DUP3 DUP3 SUB SWAP1 POP SWAP3 SWAP2 POP POP JUMP JUMPDEST PUSH1 0x0 PUSH2 0x2087 DUP3 PUSH2 0x20C6 JUMP JUMPDEST SWAP1 POP SWAP2 SWAP1 POP JUMP JUMPDEST PUSH1 0x0 DUP2 ISZERO ISZERO SWAP1 POP SWAP2 SWAP1 POP JUMP JUMPDEST PUSH1 0x0 PUSH32 0xFFFFFFFF00000000000000000000000000000000000000000000000000000000 DUP3 AND SWAP1 POP SWAP2 SWAP1 POP JUMP JUMPDEST PUSH1 0x0 PUSH20 0xFFFFFFFFFFFFFFFFFFFFFFFFFFFFFFFFFFFFFFFF DUP3 AND SWAP1 POP SWAP2 SWAP1 POP JUMP JUMPDEST PUSH1 0x0 DUP2 SWAP1 POP SWAP2 SWAP1 POP JUMP JUMPDEST DUP3 DUP2 DUP4 CALLDATACOPY PUSH1 0x0 DUP4 DUP4 ADD MSTORE POP POP POP JUMP JUMPDEST PUSH1 0x0 JUMPDEST DUP4 DUP2 LT ISZERO PUSH2 0x211D JUMPI DUP1 DUP3 ADD MLOAD DUP2 DUP5 ADD MSTORE PUSH1 0x20 DUP2 ADD SWAP1 POP PUSH2 0x2102 JUMP JUMPDEST DUP4 DUP2 GT ISZERO PUSH2 0x212C JUMPI PUSH1 0x0 DUP5 DUP5 ADD MSTORE JUMPDEST POP POP POP POP JUMP JUMPDEST PUSH1 0x0 PUSH1 0x2 DUP3 DIV SWAP1 POP PUSH1 0x1 DUP3 AND DUP1 PUSH2 0x214A JUMPI PUSH1 0x7F DUP3 AND SWAP2 POP JUMPDEST PUSH1 0x20 DUP3 LT DUP2 EQ ISZERO PUSH2 0x215E JUMPI PUSH2 0x215D PUSH2 0x226D JUMP JUMPDEST JUMPDEST POP SWAP2 SWAP1 POP JUMP JUMPDEST PUSH2 0x216D DUP3 PUSH2 0x233D JUMP JUMPDEST DUP2 ADD DUP2 DUP2 LT PUSH8 0xFFFFFFFFFFFFFFFF DUP3 GT OR ISZERO PUSH2 0x218C JUMPI PUSH2 0x218B PUSH2 0x22FA JUMP JUMPDEST JUMPDEST DUP1 PUSH1 0x40 MSTORE POP POP POP JUMP JUMPDEST PUSH1 0x0 PUSH2 0x21A0 DUP3 PUSH2 0x20E6 JUMP JUMPDEST SWAP2 POP PUSH32 0xFFFFFFFFFFFFFFFFFFFFFFFFFFFFFFFFFFFFFFFFFFFFFFFFFFFFFFFFFFFFFFFF DUP3 EQ ISZERO PUSH2 0x21D3 JUMPI PUSH2 0x21D2 PUSH2 0x220F JUMP JUMPDEST JUMPDEST PUSH1 0x1 DUP3 ADD SWAP1 POP SWAP2 SWAP1 POP JUMP JUMPDEST PUSH1 0x0 PUSH2 0x21E9 DUP3 PUSH2 0x20E6 JUMP JUMPDEST SWAP2 POP PUSH2 0x21F4 DUP4 PUSH2 0x20E6 JUMP JUMPDEST SWAP3 POP DUP3 PUSH2 0x2204 JUMPI PUSH2 0x2203 PUSH2 0x223E JUMP JUMPDEST JUMPDEST DUP3 DUP3 MOD SWAP1 POP SWAP3 SWAP2 POP POP JUMP JUMPDEST PUSH32 0x4E487B7100000000000000000000000000000000000000000000000000000000 PUSH1 0x0 MSTORE PUSH1 0x11 PUSH1 0x4 MSTORE PUSH1 0x24 PUSH1 0x0 REVERT JUMPDEST PUSH32 0x4E487B7100000000000000000000000000000000000000000000000000000000 PUSH1 0x0 MSTORE PUSH1 0x12 PUSH1 0x4 MSTORE PUSH1 0x24 PUSH1 0x0 REVERT JUMPDEST PUSH32 0x4E487B7100000000000000000000000000000000000000000000000000000000 PUSH1 0x0 MSTORE PUSH1 0x22 PUSH1 0x4 MSTORE PUSH1 0x24 PUSH1 0x0 REVERT JUMPDEST PUSH32 0x4E487B7100000000000000000000000000000000000000000000000000000000 PUSH1 0x0 MSTORE PUSH1 0x31 PUSH1 0x4 MSTORE PUSH1 0x24 PUSH1 0x0 REVERT JUMPDEST PUSH32 0x4E487B7100000000000000000000000000000000000000000000000000000000 PUSH1 0x0 MSTORE PUSH1 0x32 PUSH1 0x4 MSTORE PUSH1 0x24 PUSH1 0x0 REVERT JUMPDEST PUSH32 0x4E487B7100000000000000000000000000000000000000000000000000000000 PUSH1 0x0 MSTORE PUSH1 0x41 PUSH1 0x4 MSTORE PUSH1 0x24 PUSH1 0x0 REVERT JUMPDEST PUSH1 0x0 DUP1 REVERT JUMPDEST PUSH1 0x0 DUP1 REVERT JUMPDEST PUSH1 0x0 DUP1 REVERT JUMPDEST PUSH1 0x0 DUP1 REVERT JUMPDEST PUSH1 0x0 PUSH1 0x1F NOT PUSH1 0x1F DUP4 ADD AND SWAP1 POP SWAP2 SWAP1 POP JUMP JUMPDEST PUSH32 0x4552433732313A207472616E7366657220746F206E6F6E204552433732315265 PUSH1 0x0 DUP3 ADD MSTORE PUSH32 0x63656976657220696D706C656D656E7465720000000000000000000000000000 PUSH1 0x20 DUP3 ADD MSTORE POP JUMP JUMPDEST PUSH32 0x4552433732313A207472616E7366657220746F20746865207A65726F20616464 PUSH1 0x0 DUP3 ADD MSTORE PUSH32 0x7265737300000000000000000000000000000000000000000000000000000000 PUSH1 0x20 DUP3 ADD MSTORE POP JUMP JUMPDEST PUSH32 0x4552433732313A20617070726F766520746F2063616C6C657200000000000000 PUSH1 0x0 DUP3 ADD MSTORE POP JUMP JUMPDEST PUSH32 0x4552433732313A206F70657261746F7220717565727920666F72206E6F6E6578 PUSH1 0x0 DUP3 ADD MSTORE PUSH32 0x697374656E7420746F6B656E0000000000000000000000000000000000000000 PUSH1 0x20 DUP3 ADD MSTORE POP JUMP JUMPDEST PUSH32 0x4552433732313A20617070726F76652063616C6C6572206973206E6F74206F77 PUSH1 0x0 DUP3 ADD MSTORE PUSH32 0x6E6572206E6F7220617070726F76656420666F7220616C6C0000000000000000 PUSH1 0x20 DUP3 ADD MSTORE POP JUMP JUMPDEST PUSH32 0x4552433732313A2062616C616E636520717565727920666F7220746865207A65 PUSH1 0x0 DUP3 ADD MSTORE PUSH32 0x726F206164647265737300000000000000000000000000000000000000000000 PUSH1 0x20 DUP3 ADD MSTORE POP JUMP JUMPDEST PUSH32 0x4552433732313A20617070726F76656420717565727920666F72206E6F6E6578 PUSH1 0x0 DUP3 ADD MSTORE PUSH32 0x697374656E7420746F6B656E0000000000000000000000000000000000000000 PUSH1 0x20 DUP3 ADD MSTORE POP JUMP JUMPDEST PUSH32 0x4552433732313A207472616E73666572206F6620746F6B656E20746861742069 PUSH1 0x0 DUP3 ADD MSTORE PUSH32 0x73206E6F74206F776E0000000000000000000000000000000000000000000000 PUSH1 0x20 DUP3 ADD MSTORE POP JUMP JUMPDEST PUSH32 0x4552433732314D657461646174613A2055524920717565727920666F72206E6F PUSH1 0x0 DUP3 ADD MSTORE PUSH32 0x6E6578697374656E7420746F6B656E0000000000000000000000000000000000 PUSH1 0x20 DUP3 ADD MSTORE POP JUMP JUMPDEST PUSH32 0x4552433732313A20617070726F76616C20746F2063757272656E74206F776E65 PUSH1 0x0 DUP3 ADD MSTORE PUSH32 0x7200000000000000000000000000000000000000000000000000000000000000 PUSH1 0x20 DUP3 ADD MSTORE POP JUMP JUMPDEST PUSH32 0x4552433732313A207472616E736665722063616C6C6572206973206E6F74206F PUSH1 0x0 DUP3 ADD MSTORE PUSH32 0x776E6572206E6F7220617070726F766564000000000000000000000000000000 PUSH1 0x20 DUP3 ADD MSTORE POP JUMP JUMPDEST PUSH2 0x2696 DUP2 PUSH2 0x207C JUMP JUMPDEST DUP2 EQ PUSH2 0x26A1 JUMPI PUSH1 0x0 DUP1 REVERT JUMPDEST POP JUMP JUMPDEST PUSH2 0x26AD DUP2 PUSH2 0x208E JUMP JUMPDEST DUP2 EQ PUSH2 0x26B8 JUMPI PUSH1 0x0 DUP1 REVERT JUMPDEST POP JUMP JUMPDEST PUSH2 0x26C4 DUP2 PUSH2 0x209A JUMP JUMPDEST DUP2 EQ PUSH2 0x26CF JUMPI PUSH1 0x0 DUP1 REVERT JUMPDEST POP JUMP JUMPDEST PUSH2 0x26DB DUP2 PUSH2 0x20E6 JUMP JUMPDEST DUP2 EQ PUSH2 0x26E6 JUMPI PUSH1 0x0 DUP1 REVERT JUMPDEST POP JUMP INVALID GASLIMIT MSTORE NUMBER CALLDATACOPY ORIGIN BALANCE GASPRICE KECCAK256 PUSH16 0x776E657220717565727920666F72206E PUSH16 0x6E6578697374656E7420746F6B656EA2 PUSH5 0x6970667358 0x22 SLT KECCAK256 PUSH25 0x68C430B0681A2AB8484415C197DCCDF57FA601792189650769 0x1F JUMPI PUSH24 0x55B22264736F6C6343000807003300000000000000000000 "
				},
				"gasEstimates": {
					"creation": {
						"codeDepositCost": "2011200",
						"executionCost": "infinite",
						"totalCost": "infinite"
					},
					"external": {
						"approve(address,uint256)": "infinite",
						"balanceOf(address)": "3030",
						"baseURI()": "infinite",
						"getApproved(uint256)": "infinite",
						"isApprovedForAll(address,address)": "infinite",
						"name()": "infinite",
						"ownerOf(uint256)": "infinite",
						"safeTransferFrom(address,address,uint256)": "infinite",
						"safeTransferFrom(address,address,uint256,bytes)": "infinite",
						"setApprovalForAll(address,bool)": "infinite",
						"supportsInterface(bytes4)": "2870",
						"symbol()": "infinite",
						"tokenURI(uint256)": "infinite",
						"transferFrom(address,address,uint256)": "infinite"
					},
					"internal": {
						"_approve(address,uint256)": "infinite",
						"_beforeTokenTransfer(address,address,uint256)": "15",
						"_burn(uint256)": "infinite",
						"_checkOnERC721Received(address,address,uint256,bytes memory)": "infinite",
						"_exists(uint256)": "infinite",
						"_isApprovedOrOwner(address,uint256)": "infinite",
						"_mint(address,uint256)": "infinite",
						"_safeMint(address,uint256)": "infinite",
						"_safeMint(address,uint256,bytes memory)": "infinite",
						"_safeTransfer(address,address,uint256,bytes memory)": "infinite",
						"_setBaseURI(string memory)": "infinite",
						"_setTokenURI(uint256,string memory)": "infinite",
						"_transfer(address,address,uint256)": "infinite"
					}
				},
				"methodIdentifiers": {
					"approve(address,uint256)": "095ea7b3",
					"balanceOf(address)": "70a08231",
					"baseURI()": "6c0360eb",
					"getApproved(uint256)": "081812fc",
					"isApprovedForAll(address,address)": "e985e9c5",
					"name()": "06fdde03",
					"ownerOf(uint256)": "6352211e",
					"safeTransferFrom(address,address,uint256)": "42842e0e",
					"safeTransferFrom(address,address,uint256,bytes)": "b88d4fde",
					"setApprovalForAll(address,bool)": "a22cb465",
					"supportsInterface(bytes4)": "01ffc9a7",
					"symbol()": "95d89b41",
					"tokenURI(uint256)": "c87b56dd",
					"transferFrom(address,address,uint256)": "23b872dd"
				}
			},
			"storageLayout": {
				"storage": [
					{
						"astId": 1057,
						"contract": "NFTFractionalization/contracts/src/OpenZeppelin/Tokens/ERC-721/ERC721.sol:ERC721",
						"label": "_supportedInterfaces",
						"offset": 0,
						"slot": "0",
						"type": "t_mapping(t_bytes4,t_bool)"
					},
					{
						"astId": 38,
						"contract": "NFTFractionalization/contracts/src/OpenZeppelin/Tokens/ERC-721/ERC721.sol:ERC721",
						"label": "_holderTokens",
						"offset": 0,
						"slot": "1",
						"type": "t_mapping(t_address,t_struct(UintSet)2320_storage)"
					},
					{
						"astId": 41,
						"contract": "NFTFractionalization/contracts/src/OpenZeppelin/Tokens/ERC-721/ERC721.sol:ERC721",
						"label": "_tokenOwners",
						"offset": 0,
						"slot": "2",
						"type": "t_struct(UintToAddressMap)1741_storage"
					},
					{
						"astId": 45,
						"contract": "NFTFractionalization/contracts/src/OpenZeppelin/Tokens/ERC-721/ERC721.sol:ERC721",
						"label": "_tokenApprovals",
						"offset": 0,
						"slot": "4",
						"type": "t_mapping(t_uint256,t_address)"
					},
					{
						"astId": 51,
						"contract": "NFTFractionalization/contracts/src/OpenZeppelin/Tokens/ERC-721/ERC721.sol:ERC721",
						"label": "_operatorApprovals",
						"offset": 0,
						"slot": "5",
						"type": "t_mapping(t_address,t_mapping(t_address,t_bool))"
					},
					{
						"astId": 53,
						"contract": "NFTFractionalization/contracts/src/OpenZeppelin/Tokens/ERC-721/ERC721.sol:ERC721",
						"label": "_name",
						"offset": 0,
						"slot": "6",
						"type": "t_string_storage"
					},
					{
						"astId": 55,
						"contract": "NFTFractionalization/contracts/src/OpenZeppelin/Tokens/ERC-721/ERC721.sol:ERC721",
						"label": "_symbol",
						"offset": 0,
						"slot": "7",
						"type": "t_string_storage"
					},
					{
						"astId": 59,
						"contract": "NFTFractionalization/contracts/src/OpenZeppelin/Tokens/ERC-721/ERC721.sol:ERC721",
						"label": "_tokenURIs",
						"offset": 0,
						"slot": "8",
						"type": "t_mapping(t_uint256,t_string_storage)"
					},
					{
						"astId": 61,
						"contract": "NFTFractionalization/contracts/src/OpenZeppelin/Tokens/ERC-721/ERC721.sol:ERC721",
						"label": "_baseURI",
						"offset": 0,
						"slot": "9",
						"type": "t_string_storage"
					}
				],
				"types": {
					"t_address": {
						"encoding": "inplace",
						"label": "address",
						"numberOfBytes": "20"
					},
					"t_array(t_bytes32)dyn_storage": {
						"base": "t_bytes32",
						"encoding": "dynamic_array",
						"label": "bytes32[]",
						"numberOfBytes": "32"
					},
					"t_array(t_struct(MapEntry)1442_storage)dyn_storage": {
						"base": "t_struct(MapEntry)1442_storage",
						"encoding": "dynamic_array",
						"label": "struct EnumerableMap.MapEntry[]",
						"numberOfBytes": "32"
					},
					"t_bool": {
						"encoding": "inplace",
						"label": "bool",
						"numberOfBytes": "1"
					},
					"t_bytes32": {
						"encoding": "inplace",
						"label": "bytes32",
						"numberOfBytes": "32"
					},
					"t_bytes4": {
						"encoding": "inplace",
						"label": "bytes4",
						"numberOfBytes": "4"
					},
					"t_mapping(t_address,t_bool)": {
						"encoding": "mapping",
						"key": "t_address",
						"label": "mapping(address => bool)",
						"numberOfBytes": "32",
						"value": "t_bool"
					},
					"t_mapping(t_address,t_mapping(t_address,t_bool))": {
						"encoding": "mapping",
						"key": "t_address",
						"label": "mapping(address => mapping(address => bool))",
						"numberOfBytes": "32",
						"value": "t_mapping(t_address,t_bool)"
					},
					"t_mapping(t_address,t_struct(UintSet)2320_storage)": {
						"encoding": "mapping",
						"key": "t_address",
						"label": "mapping(address => struct EnumerableSet.UintSet)",
						"numberOfBytes": "32",
						"value": "t_struct(UintSet)2320_storage"
					},
					"t_mapping(t_bytes32,t_uint256)": {
						"encoding": "mapping",
						"key": "t_bytes32",
						"label": "mapping(bytes32 => uint256)",
						"numberOfBytes": "32",
						"value": "t_uint256"
					},
					"t_mapping(t_bytes4,t_bool)": {
						"encoding": "mapping",
						"key": "t_bytes4",
						"label": "mapping(bytes4 => bool)",
						"numberOfBytes": "32",
						"value": "t_bool"
					},
					"t_mapping(t_uint256,t_address)": {
						"encoding": "mapping",
						"key": "t_uint256",
						"label": "mapping(uint256 => address)",
						"numberOfBytes": "32",
						"value": "t_address"
					},
					"t_mapping(t_uint256,t_string_storage)": {
						"encoding": "mapping",
						"key": "t_uint256",
						"label": "mapping(uint256 => string)",
						"numberOfBytes": "32",
						"value": "t_string_storage"
					},
					"t_string_storage": {
						"encoding": "bytes",
						"label": "string",
						"numberOfBytes": "32"
					},
					"t_struct(Map)1451_storage": {
						"encoding": "inplace",
						"label": "struct EnumerableMap.Map",
						"members": [
							{
								"astId": 1446,
								"contract": "NFTFractionalization/contracts/src/OpenZeppelin/Tokens/ERC-721/ERC721.sol:ERC721",
								"label": "_entries",
								"offset": 0,
								"slot": "0",
								"type": "t_array(t_struct(MapEntry)1442_storage)dyn_storage"
							},
							{
								"astId": 1450,
								"contract": "NFTFractionalization/contracts/src/OpenZeppelin/Tokens/ERC-721/ERC721.sol:ERC721",
								"label": "_indexes",
								"offset": 0,
								"slot": "1",
								"type": "t_mapping(t_bytes32,t_uint256)"
							}
						],
						"numberOfBytes": "64"
					},
					"t_struct(MapEntry)1442_storage": {
						"encoding": "inplace",
						"label": "struct EnumerableMap.MapEntry",
						"members": [
							{
								"astId": 1439,
								"contract": "NFTFractionalization/contracts/src/OpenZeppelin/Tokens/ERC-721/ERC721.sol:ERC721",
								"label": "_key",
								"offset": 0,
								"slot": "0",
								"type": "t_bytes32"
							},
							{
								"astId": 1441,
								"contract": "NFTFractionalization/contracts/src/OpenZeppelin/Tokens/ERC-721/ERC721.sol:ERC721",
								"label": "_value",
								"offset": 0,
								"slot": "1",
								"type": "t_bytes32"
							}
						],
						"numberOfBytes": "64"
					},
					"t_struct(Set)1916_storage": {
						"encoding": "inplace",
						"label": "struct EnumerableSet.Set",
						"members": [
							{
								"astId": 1911,
								"contract": "NFTFractionalization/contracts/src/OpenZeppelin/Tokens/ERC-721/ERC721.sol:ERC721",
								"label": "_values",
								"offset": 0,
								"slot": "0",
								"type": "t_array(t_bytes32)dyn_storage"
							},
							{
								"astId": 1915,
								"contract": "NFTFractionalization/contracts/src/OpenZeppelin/Tokens/ERC-721/ERC721.sol:ERC721",
								"label": "_indexes",
								"offset": 0,
								"slot": "1",
								"type": "t_mapping(t_bytes32,t_uint256)"
							}
						],
						"numberOfBytes": "64"
					},
					"t_struct(UintSet)2320_storage": {
						"encoding": "inplace",
						"label": "struct EnumerableSet.UintSet",
						"members": [
							{
								"astId": 2319,
								"contract": "NFTFractionalization/contracts/src/OpenZeppelin/Tokens/ERC-721/ERC721.sol:ERC721",
								"label": "_inner",
								"offset": 0,
								"slot": "0",
								"type": "t_struct(Set)1916_storage"
							}
						],
						"numberOfBytes": "64"
					},
					"t_struct(UintToAddressMap)1741_storage": {
						"encoding": "inplace",
						"label": "struct EnumerableMap.UintToAddressMap",
						"members": [
							{
								"astId": 1740,
								"contract": "NFTFractionalization/contracts/src/OpenZeppelin/Tokens/ERC-721/ERC721.sol:ERC721",
								"label": "_inner",
								"offset": 0,
								"slot": "0",
								"type": "t_struct(Map)1451_storage"
							}
						],
						"numberOfBytes": "64"
					},
					"t_uint256": {
						"encoding": "inplace",
						"label": "uint256",
						"numberOfBytes": "32"
					}
				}
			},
			"userdoc": {
				"kind": "user",
				"methods": {},
				"version": 1
			}
		}
	}
}