{
  "contractName": "FundRaising",
  "abi": [
    {
      "inputs": [
        {
          "internalType": "uint256",
          "name": "amount",
          "type": "uint256"
        },
        {
          "internalType": "string",
          "name": "name",
          "type": "string"
        },
        {
          "internalType": "string",
          "name": "symbol",
          "type": "string"
        },
        {
          "internalType": "address",
          "name": "_admin",
          "type": "address"
        },
        {
          "internalType": "address",
          "name": "daiAddress",
          "type": "address"
        }
      ],
      "stateMutability": "nonpayable",
      "type": "constructor"
    },
    {
      "anonymous": false,
      "inputs": [
        {
          "indexed": true,
          "internalType": "address",
          "name": "owner",
          "type": "address"
        },
        {
          "indexed": true,
          "internalType": "address",
          "name": "spender",
          "type": "address"
        },
        {
          "indexed": false,
          "internalType": "uint256",
          "name": "value",
          "type": "uint256"
        }
      ],
      "name": "Approval",
      "type": "event"
    },
    {
      "anonymous": false,
      "inputs": [
        {
          "indexed": true,
          "internalType": "address",
          "name": "from",
          "type": "address"
        },
        {
          "indexed": true,
          "internalType": "address",
          "name": "to",
          "type": "address"
        },
        {
          "indexed": false,
          "internalType": "uint256",
          "name": "value",
          "type": "uint256"
        }
      ],
      "name": "Transfer",
      "type": "event"
    },
    {
      "inputs": [],
      "name": "DAI",
      "outputs": [
        {
          "internalType": "contract IERC20",
          "name": "",
          "type": "address"
        }
      ],
      "stateMutability": "view",
      "type": "function"
    },
    {
      "inputs": [],
      "name": "NFT",
      "outputs": [
        {
          "internalType": "contract IERC721",
          "name": "",
          "type": "address"
        }
      ],
      "stateMutability": "view",
      "type": "function"
    },
    {
      "inputs": [],
      "name": "_paused",
      "outputs": [
        {
          "internalType": "bool",
          "name": "",
          "type": "bool"
        }
      ],
      "stateMutability": "view",
      "type": "function"
    },
    {
      "inputs": [
        {
          "internalType": "address",
          "name": "owner",
          "type": "address"
        },
        {
          "internalType": "address",
          "name": "spender",
          "type": "address"
        }
      ],
      "name": "allowance",
      "outputs": [
        {
          "internalType": "uint256",
          "name": "",
          "type": "uint256"
        }
      ],
      "stateMutability": "view",
      "type": "function"
    },
    {
      "inputs": [
        {
          "internalType": "address",
          "name": "spender",
          "type": "address"
        },
        {
          "internalType": "uint256",
          "name": "amount",
          "type": "uint256"
        }
      ],
      "name": "approve",
      "outputs": [
        {
          "internalType": "bool",
          "name": "",
          "type": "bool"
        }
      ],
      "stateMutability": "nonpayable",
      "type": "function"
    },
    {
      "inputs": [
        {
          "internalType": "address",
          "name": "account",
          "type": "address"
        }
      ],
      "name": "balanceOf",
      "outputs": [
        {
          "internalType": "uint256",
          "name": "",
          "type": "uint256"
        }
      ],
      "stateMutability": "view",
      "type": "function"
    },
    {
      "inputs": [],
      "name": "decimals",
      "outputs": [
        {
          "internalType": "uint8",
          "name": "",
          "type": "uint8"
        }
      ],
      "stateMutability": "view",
      "type": "function"
    },
    {
      "inputs": [
        {
          "internalType": "address",
          "name": "spender",
          "type": "address"
        },
        {
          "internalType": "uint256",
          "name": "subtractedValue",
          "type": "uint256"
        }
      ],
      "name": "decreaseAllowance",
      "outputs": [
        {
          "internalType": "bool",
          "name": "",
          "type": "bool"
        }
      ],
      "stateMutability": "nonpayable",
      "type": "function"
    },
    {
      "inputs": [
        {
          "internalType": "address",
          "name": "spender",
          "type": "address"
        },
        {
          "internalType": "uint256",
          "name": "addedValue",
          "type": "uint256"
        }
      ],
      "name": "increaseAllowance",
      "outputs": [
        {
          "internalType": "bool",
          "name": "",
          "type": "bool"
        }
      ],
      "stateMutability": "nonpayable",
      "type": "function"
    },
    {
      "inputs": [],
      "name": "name",
      "outputs": [
        {
          "internalType": "string",
          "name": "",
          "type": "string"
        }
      ],
      "stateMutability": "view",
      "type": "function"
    },
    {
      "inputs": [],
      "name": "symbol",
      "outputs": [
        {
          "internalType": "string",
          "name": "",
          "type": "string"
        }
      ],
      "stateMutability": "view",
      "type": "function"
    },
    {
      "inputs": [],
      "name": "targetAmount",
      "outputs": [
        {
          "internalType": "uint256",
          "name": "",
          "type": "uint256"
        }
      ],
      "stateMutability": "view",
      "type": "function"
    },
    {
      "inputs": [],
      "name": "totalSupply",
      "outputs": [
        {
          "internalType": "uint256",
          "name": "",
          "type": "uint256"
        }
      ],
      "stateMutability": "view",
      "type": "function"
    },
    {
      "inputs": [
        {
          "internalType": "address",
          "name": "to",
          "type": "address"
        },
        {
          "internalType": "uint256",
          "name": "amount",
          "type": "uint256"
        }
      ],
      "name": "transfer",
      "outputs": [
        {
          "internalType": "bool",
          "name": "",
          "type": "bool"
        }
      ],
      "stateMutability": "nonpayable",
      "type": "function"
    },
    {
      "inputs": [
        {
          "internalType": "address",
          "name": "from",
          "type": "address"
        },
        {
          "internalType": "address",
          "name": "to",
          "type": "address"
        },
        {
          "internalType": "uint256",
          "name": "amount",
          "type": "uint256"
        }
      ],
      "name": "transferFrom",
      "outputs": [
        {
          "internalType": "bool",
          "name": "",
          "type": "bool"
        }
      ],
      "stateMutability": "nonpayable",
      "type": "function"
    },
    {
      "inputs": [
        {
          "internalType": "address",
          "name": "",
          "type": "address"
        },
        {
          "internalType": "address",
          "name": "",
          "type": "address"
        },
        {
          "internalType": "uint256",
          "name": "",
          "type": "uint256"
        },
        {
          "internalType": "bytes",
          "name": "",
          "type": "bytes"
        }
      ],
      "name": "onERC721Received",
      "outputs": [
        {
          "internalType": "bytes4",
          "name": "",
          "type": "bytes4"
        }
      ],
      "stateMutability": "pure",
      "type": "function"
    },
    {
      "inputs": [
        {
          "internalType": "uint256",
          "name": "value",
          "type": "uint256"
        }
      ],
      "name": "invest",
      "outputs": [],
      "stateMutability": "nonpayable",
      "type": "function"
    },
    {
      "inputs": [
        {
          "internalType": "uint256",
          "name": "value",
          "type": "uint256"
        }
      ],
      "name": "withdrawInvestment",
      "outputs": [],
      "stateMutability": "nonpayable",
      "type": "function"
    },
    {
      "inputs": [],
      "name": "pause",
      "outputs": [],
      "stateMutability": "nonpayable",
      "type": "function"
    },
    {
      "inputs": [],
      "name": "unpause",
      "outputs": [],
      "stateMutability": "nonpayable",
      "type": "function"
    }
  ],
  "bytecode": "0x60a06040523480156200001157600080fd5b506040516200272038038062002720833981810160405281019062000037919062000294565b838381600390805190602001906200005192919062000138565b5080600490805190602001906200006a92919062000138565b5050508460068190555081600760016101000a81548173ffffffffffffffffffffffffffffffffffffffff021916908373ffffffffffffffffffffffffffffffffffffffff16021790555080600560006101000a81548173ffffffffffffffffffffffffffffffffffffffff021916908373ffffffffffffffffffffffffffffffffffffffff1602179055503373ffffffffffffffffffffffffffffffffffffffff1660808173ffffffffffffffffffffffffffffffffffffffff1660601b81525050505050505062000550565b82805462000146906200042d565b90600052602060002090601f0160209004810192826200016a5760008555620001b6565b82601f106200018557805160ff1916838001178555620001b6565b82800160010185558215620001b6579182015b82811115620001b557825182559160200191906001019062000198565b5b509050620001c59190620001c9565b5090565b5b80821115620001e4576000816000905550600101620001ca565b5090565b6000620001ff620001f98462000383565b6200035a565b9050828152602081018484840111156200021e576200021d620004fc565b5b6200022b848285620003f7565b509392505050565b60008151905062000244816200051c565b92915050565b600082601f830112620002625762000261620004f7565b5b815162000274848260208601620001e8565b91505092915050565b6000815190506200028e8162000536565b92915050565b600080600080600060a08688031215620002b357620002b262000506565b5b6000620002c3888289016200027d565b955050602086015167ffffffffffffffff811115620002e757620002e662000501565b5b620002f5888289016200024a565b945050604086015167ffffffffffffffff81111562000319576200031862000501565b5b62000327888289016200024a565b93505060606200033a8882890162000233565b92505060806200034d8882890162000233565b9150509295509295909350565b60006200036662000379565b905062000374828262000463565b919050565b6000604051905090565b600067ffffffffffffffff821115620003a157620003a0620004c8565b5b620003ac826200050b565b9050602081019050919050565b6000620003c682620003cd565b9050919050565b600073ffffffffffffffffffffffffffffffffffffffff82169050919050565b6000819050919050565b60005b8381101562000417578082015181840152602081019050620003fa565b8381111562000427576000848401525b50505050565b600060028204905060018216806200044657607f821691505b602082108114156200045d576200045c62000499565b5b50919050565b6200046e826200050b565b810181811067ffffffffffffffff8211171562000490576200048f620004c8565b5b80604052505050565b7f4e487b7100000000000000000000000000000000000000000000000000000000600052602260045260246000fd5b7f4e487b7100000000000000000000000000000000000000000000000000000000600052604160045260246000fd5b600080fd5b600080fd5b600080fd5b600080fd5b6000601f19601f8301169050919050565b6200052781620003b9565b81146200053357600080fd5b50565b6200054181620003ed565b81146200054d57600080fd5b50565b60805160601c6121b16200056f600039600061095801526121b16000f3fe608060405234801561001057600080fd5b506004361061012c5760003560e01c80633f4ba83a116100ad57806395d89b411161007157806395d89b4114610321578063a457c2d71461033f578063a9059cbb1461036f578063dd62ed3e1461039f578063e0bab4c4146103cf5761012c565b80633f4ba83a146102a157806370a08231146102ab5780637c0b8de2146102db5780638456cb59146102f9578063953b8fb8146103035761012c565b80632037fcbf116100f45780632037fcbf146101eb57806323b872dd146102075780632afcf48014610237578063313ce5671461025357806339509351146102715761012c565b806306fdde0314610131578063095ea7b31461014f578063150b7a021461017f57806316c61ccc146101af57806318160ddd146101cd575b600080fd5b6101396103ed565b604051610146919061199d565b60405180910390f35b610169600480360381019061016491906115ce565b61047f565b6040516101769190611931565b60405180910390f35b61019960048036038101906101949190611546565b6104a2565b6040516101a6919061194c565b60405180910390f35b6101b76104b7565b6040516101c49190611931565b60405180910390f35b6101d56104ca565b6040516101e29190611b5f565b60405180910390f35b6102056004803603810190610200919061163b565b6104d4565b005b610221600480360381019061021c91906114f3565b6105dc565b60405161022e9190611931565b60405180910390f35b610251600480360381019061024c919061163b565b61060b565b005b61025b610857565b6040516102689190611b7a565b60405180910390f35b61028b600480360381019061028691906115ce565b610860565b6040516102989190611931565b60405180910390f35b6102a9610897565b005b6102c560048036038101906102c09190611486565b61090e565b6040516102d29190611b5f565b60405180910390f35b6102e3610956565b6040516102f09190611982565b60405180910390f35b61030161097a565b005b61030b6109f1565b6040516103189190611b5f565b60405180910390f35b6103296109f7565b604051610336919061199d565b60405180910390f35b610359600480360381019061035491906115ce565b610a89565b6040516103669190611931565b60405180910390f35b610389600480360381019061038491906115ce565b610b00565b6040516103969190611931565b60405180910390f35b6103b960048036038101906103b491906114b3565b610b23565b6040516103c69190611b5f565b60405180910390f35b6103d7610baa565b6040516103e49190611967565b60405180910390f35b6060600380546103fc90611d37565b80601f016020809104026020016040519081016040528092919081815260200182805461042890611d37565b80156104755780601f1061044a57610100808354040283529160200191610475565b820191906000526020600020905b81548152906001019060200180831161045857829003601f168201915b5050505050905090565b60008061048a610bd0565b9050610497818585610bd8565b600191505092915050565b600063150b7a0260e01b905095945050505050565b600760009054906101000a900460ff1681565b6000600254905090565b6104dd3361090e565b81111561051f576040517f08c379a000000000000000000000000000000000000000000000000000000000815260040161051690611a9f565b60405180910390fd5b600560009054906101000a900473ffffffffffffffffffffffffffffffffffffffff1673ffffffffffffffffffffffffffffffffffffffff1663a9059cbb33836040518363ffffffff1660e01b815260040161057c929190611908565b602060405180830381600087803b15801561059657600080fd5b505af11580156105aa573d6000803e3d6000fd5b505050506040513d601f19601f820116820180604052508101906105ce919061160e565b506105d93382610da3565b50565b6000806105e7610bd0565b90506105f4858285610f7a565b6105ff858585611006565b60019150509392505050565b6106136104ca565b6006546106209190611c07565b811115610662576040517f08c379a000000000000000000000000000000000000000000000000000000000815260040161065990611a7f565b60405180910390fd5b600760009054906101000a900460ff16156106b2576040517f08c379a00000000000000000000000000000000000000000000000000000000081526004016106a9906119df565b60405180910390fd5b600560009054906101000a900473ffffffffffffffffffffffffffffffffffffffff1673ffffffffffffffffffffffffffffffffffffffff166323b872dd3330846040518463ffffffff1660e01b8152600401610711939291906118d1565b602060405180830381600087803b15801561072b57600080fd5b505af115801561073f573d6000803e3d6000fd5b505050506040513d601f19601f82011682018060405250810190610763919061160e565b5061076e3382611287565b6107766104ca565b600654141561085457600560009054906101000a900473ffffffffffffffffffffffffffffffffffffffff1673ffffffffffffffffffffffffffffffffffffffff1663a9059cbb600760019054906101000a900473ffffffffffffffffffffffffffffffffffffffff166006546040518363ffffffff1660e01b8152600401610800929190611908565b602060405180830381600087803b15801561081a57600080fd5b505af115801561082e573d6000803e3d6000fd5b505050506040513d601f19601f82011682018060405250810190610852919061160e565b505b50565b60006012905090565b60008061086b610bd0565b905061088c81858561087d8589610b23565b6108879190611bb1565b610bd8565b600191505092915050565b600760019054906101000a900473ffffffffffffffffffffffffffffffffffffffff1673ffffffffffffffffffffffffffffffffffffffff163373ffffffffffffffffffffffffffffffffffffffff16146108f157600080fd5b6000600760006101000a81548160ff021916908315150217905550565b60008060008373ffffffffffffffffffffffffffffffffffffffff1673ffffffffffffffffffffffffffffffffffffffff168152602001908152602001600020549050919050565b7f000000000000000000000000000000000000000000000000000000000000000081565b600760019054906101000a900473ffffffffffffffffffffffffffffffffffffffff1673ffffffffffffffffffffffffffffffffffffffff163373ffffffffffffffffffffffffffffffffffffffff16146109d457600080fd5b6001600760006101000a81548160ff021916908315150217905550565b60065481565b606060048054610a0690611d37565b80601f0160208091040260200160405190810160405280929190818152602001828054610a3290611d37565b8015610a7f5780601f10610a5457610100808354040283529160200191610a7f565b820191906000526020600020905b815481529060010190602001808311610a6257829003601f168201915b5050505050905090565b600080610a94610bd0565b90506000610aa28286610b23565b905083811015610ae7576040517f08c379a0000000000000000000000000000000000000000000000000000000008152600401610ade90611b1f565b60405180910390fd5b610af48286868403610bd8565b60019250505092915050565b600080610b0b610bd0565b9050610b18818585611006565b600191505092915050565b6000600160008473ffffffffffffffffffffffffffffffffffffffff1673ffffffffffffffffffffffffffffffffffffffff16815260200190815260200160002060008373ffffffffffffffffffffffffffffffffffffffff1673ffffffffffffffffffffffffffffffffffffffff16815260200190815260200160002054905092915050565b600560009054906101000a900473ffffffffffffffffffffffffffffffffffffffff1681565b600033905090565b600073ffffffffffffffffffffffffffffffffffffffff168373ffffffffffffffffffffffffffffffffffffffff161415610c48576040517f08c379a0000000000000000000000000000000000000000000000000000000008152600401610c3f90611aff565b60405180910390fd5b600073ffffffffffffffffffffffffffffffffffffffff168273ffffffffffffffffffffffffffffffffffffffff161415610cb8576040517f08c379a0000000000000000000000000000000000000000000000000000000008152600401610caf90611a1f565b60405180910390fd5b80600160008573ffffffffffffffffffffffffffffffffffffffff1673ffffffffffffffffffffffffffffffffffffffff16815260200190815260200160002060008473ffffffffffffffffffffffffffffffffffffffff1673ffffffffffffffffffffffffffffffffffffffff168152602001908152602001600020819055508173ffffffffffffffffffffffffffffffffffffffff168373ffffffffffffffffffffffffffffffffffffffff167f8c5be1e5ebec7d5bd14f71427d1e84f3dd0314c0f7b2291e5b200ac8c7c3b92583604051610d969190611b5f565b60405180910390a3505050565b600073ffffffffffffffffffffffffffffffffffffffff168273ffffffffffffffffffffffffffffffffffffffff161415610e13576040517f08c379a0000000000000000000000000000000000000000000000000000000008152600401610e0a90611abf565b60405180910390fd5b610e1f826000836113e7565b60008060008473ffffffffffffffffffffffffffffffffffffffff1673ffffffffffffffffffffffffffffffffffffffff16815260200190815260200160002054905081811015610ea5576040517f08c379a0000000000000000000000000000000000000000000000000000000008152600401610e9c906119ff565b60405180910390fd5b8181036000808573ffffffffffffffffffffffffffffffffffffffff1673ffffffffffffffffffffffffffffffffffffffff168152602001908152602001600020819055508160026000828254610efc9190611c07565b92505081905550600073ffffffffffffffffffffffffffffffffffffffff168373ffffffffffffffffffffffffffffffffffffffff167fddf252ad1be2c89b69c2b068fc378daa952ba7f163c4a11628f55a4df523b3ef84604051610f619190611b5f565b60405180910390a3610f75836000846113ec565b505050565b6000610f868484610b23565b90507fffffffffffffffffffffffffffffffffffffffffffffffffffffffffffffffff81146110005781811015610ff2576040517f08c379a0000000000000000000000000000000000000000000000000000000008152600401610fe990611a3f565b60405180910390fd5b610fff8484848403610bd8565b5b50505050565b600073ffffffffffffffffffffffffffffffffffffffff168373ffffffffffffffffffffffffffffffffffffffff161415611076576040517f08c379a000000000000000000000000000000000000000000000000000000000815260040161106d90611adf565b60405180910390fd5b600073ffffffffffffffffffffffffffffffffffffffff168273ffffffffffffffffffffffffffffffffffffffff1614156110e6576040517f08c379a00000000000000000000000000000000000000000000000000000000081526004016110dd906119bf565b60405180910390fd5b6110f18383836113e7565b60008060008573ffffffffffffffffffffffffffffffffffffffff1673ffffffffffffffffffffffffffffffffffffffff16815260200190815260200160002054905081811015611177576040517f08c379a000000000000000000000000000000000000000000000000000000000815260040161116e90611a5f565b60405180910390fd5b8181036000808673ffffffffffffffffffffffffffffffffffffffff1673ffffffffffffffffffffffffffffffffffffffff16815260200190815260200160002081905550816000808573ffffffffffffffffffffffffffffffffffffffff1673ffffffffffffffffffffffffffffffffffffffff168152602001908152602001600020600082825461120a9190611bb1565b925050819055508273ffffffffffffffffffffffffffffffffffffffff168473ffffffffffffffffffffffffffffffffffffffff167fddf252ad1be2c89b69c2b068fc378daa952ba7f163c4a11628f55a4df523b3ef8460405161126e9190611b5f565b60405180910390a36112818484846113ec565b50505050565b600073ffffffffffffffffffffffffffffffffffffffff168273ffffffffffffffffffffffffffffffffffffffff1614156112f7576040517f08c379a00000000000000000000000000000000000000000000000000000000081526004016112ee90611b3f565b60405180910390fd5b611303600083836113e7565b80600260008282546113159190611bb1565b92505081905550806000808473ffffffffffffffffffffffffffffffffffffffff1673ffffffffffffffffffffffffffffffffffffffff168152602001908152602001600020600082825461136a9190611bb1565b925050819055508173ffffffffffffffffffffffffffffffffffffffff16600073ffffffffffffffffffffffffffffffffffffffff167fddf252ad1be2c89b69c2b068fc378daa952ba7f163c4a11628f55a4df523b3ef836040516113cf9190611b5f565b60405180910390a36113e3600083836113ec565b5050565b505050565b505050565b60008135905061140081612136565b92915050565b6000815190506114158161214d565b92915050565b60008083601f84011261143157611430611dcc565b5b8235905067ffffffffffffffff81111561144e5761144d611dc7565b5b60208301915083600182028301111561146a57611469611dd1565b5b9250929050565b60008135905061148081612164565b92915050565b60006020828403121561149c5761149b611ddb565b5b60006114aa848285016113f1565b91505092915050565b600080604083850312156114ca576114c9611ddb565b5b60006114d8858286016113f1565b92505060206114e9858286016113f1565b9150509250929050565b60008060006060848603121561150c5761150b611ddb565b5b600061151a868287016113f1565b935050602061152b868287016113f1565b925050604061153c86828701611471565b9150509250925092565b60008060008060006080868803121561156257611561611ddb565b5b6000611570888289016113f1565b9550506020611581888289016113f1565b945050604061159288828901611471565b935050606086013567ffffffffffffffff8111156115b3576115b2611dd6565b5b6115bf8882890161141b565b92509250509295509295909350565b600080604083850312156115e5576115e4611ddb565b5b60006115f3858286016113f1565b925050602061160485828601611471565b9150509250929050565b60006020828403121561162457611623611ddb565b5b600061163284828501611406565b91505092915050565b60006020828403121561165157611650611ddb565b5b600061165f84828501611471565b91505092915050565b61167181611c3b565b82525050565b61168081611c4d565b82525050565b61168f81611c59565b82525050565b61169e81611cbc565b82525050565b6116ad81611cce565b82525050565b60006116be82611b95565b6116c88185611ba0565b93506116d8818560208601611d04565b6116e181611de0565b840191505092915050565b60006116f9602383611ba0565b915061170482611df1565b604082019050919050565b600061171c600683611ba0565b915061172782611e40565b602082019050919050565b600061173f602283611ba0565b915061174a82611e69565b604082019050919050565b6000611762602283611ba0565b915061176d82611eb8565b604082019050919050565b6000611785601d83611ba0565b915061179082611f07565b602082019050919050565b60006117a8602683611ba0565b91506117b382611f30565b604082019050919050565b60006117cb601783611ba0565b91506117d682611f7f565b602082019050919050565b60006117ee601a83611ba0565b91506117f982611fa8565b602082019050919050565b6000611811602183611ba0565b915061181c82611fd1565b604082019050919050565b6000611834602583611ba0565b915061183f82612020565b604082019050919050565b6000611857602483611ba0565b91506118628261206f565b604082019050919050565b600061187a602583611ba0565b9150611885826120be565b604082019050919050565b600061189d601f83611ba0565b91506118a88261210d565b602082019050919050565b6118bc81611ca5565b82525050565b6118cb81611caf565b82525050565b60006060820190506118e66000830186611668565b6118f36020830185611668565b61190060408301846118b3565b949350505050565b600060408201905061191d6000830185611668565b61192a60208301846118b3565b9392505050565b60006020820190506119466000830184611677565b92915050565b60006020820190506119616000830184611686565b92915050565b600060208201905061197c6000830184611695565b92915050565b600060208201905061199760008301846116a4565b92915050565b600060208201905081810360008301526119b781846116b3565b905092915050565b600060208201905081810360008301526119d8816116ec565b9050919050565b600060208201905081810360008301526119f88161170f565b9050919050565b60006020820190508181036000830152611a1881611732565b9050919050565b60006020820190508181036000830152611a3881611755565b9050919050565b60006020820190508181036000830152611a5881611778565b9050919050565b60006020820190508181036000830152611a788161179b565b9050919050565b60006020820190508181036000830152611a98816117be565b9050919050565b60006020820190508181036000830152611ab8816117e1565b9050919050565b60006020820190508181036000830152611ad881611804565b9050919050565b60006020820190508181036000830152611af881611827565b9050919050565b60006020820190508181036000830152611b188161184a565b9050919050565b60006020820190508181036000830152611b388161186d565b9050919050565b60006020820190508181036000830152611b5881611890565b9050919050565b6000602082019050611b7460008301846118b3565b92915050565b6000602082019050611b8f60008301846118c2565b92915050565b600081519050919050565b600082825260208201905092915050565b6000611bbc82611ca5565b9150611bc783611ca5565b9250827fffffffffffffffffffffffffffffffffffffffffffffffffffffffffffffffff03821115611bfc57611bfb611d69565b5b828201905092915050565b6000611c1282611ca5565b9150611c1d83611ca5565b925082821015611c3057611c2f611d69565b5b828203905092915050565b6000611c4682611c85565b9050919050565b60008115159050919050565b60007fffffffff0000000000000000000000000000000000000000000000000000000082169050919050565b600073ffffffffffffffffffffffffffffffffffffffff82169050919050565b6000819050919050565b600060ff82169050919050565b6000611cc782611ce0565b9050919050565b6000611cd982611ce0565b9050919050565b6000611ceb82611cf2565b9050919050565b6000611cfd82611c85565b9050919050565b60005b83811015611d22578082015181840152602081019050611d07565b83811115611d31576000848401525b50505050565b60006002820490506001821680611d4f57607f821691505b60208210811415611d6357611d62611d98565b5b50919050565b7f4e487b7100000000000000000000000000000000000000000000000000000000600052601160045260246000fd5b7f4e487b7100000000000000000000000000000000000000000000000000000000600052602260045260246000fd5b600080fd5b600080fd5b600080fd5b600080fd5b600080fd5b6000601f19601f8301169050919050565b7f45524332303a207472616e7366657220746f20746865207a65726f206164647260008201527f6573730000000000000000000000000000000000000000000000000000000000602082015250565b7f5061757365640000000000000000000000000000000000000000000000000000600082015250565b7f45524332303a206275726e20616d6f756e7420657863656564732062616c616e60008201527f6365000000000000000000000000000000000000000000000000000000000000602082015250565b7f45524332303a20617070726f766520746f20746865207a65726f20616464726560008201527f7373000000000000000000000000000000000000000000000000000000000000602082015250565b7f45524332303a20696e73756666696369656e7420616c6c6f77616e6365000000600082015250565b7f45524332303a207472616e7366657220616d6f756e742065786365656473206260008201527f616c616e63650000000000000000000000000000000000000000000000000000602082015250565b7f4e6f7420656e6f75676820736861726573206c65667421000000000000000000600082015250565b7f4e6f7420656e6f756768207368617265732062616c616e636521000000000000600082015250565b7f45524332303a206275726e2066726f6d20746865207a65726f2061646472657360008201527f7300000000000000000000000000000000000000000000000000000000000000602082015250565b7f45524332303a207472616e736665722066726f6d20746865207a65726f20616460008201527f6472657373000000000000000000000000000000000000000000000000000000602082015250565b7f45524332303a20617070726f76652066726f6d20746865207a65726f2061646460008201527f7265737300000000000000000000000000000000000000000000000000000000602082015250565b7f45524332303a2064656372656173656420616c6c6f77616e63652062656c6f7760008201527f207a65726f000000000000000000000000000000000000000000000000000000602082015250565b7f45524332303a206d696e7420746f20746865207a65726f206164647265737300600082015250565b61213f81611c3b565b811461214a57600080fd5b50565b61215681611c4d565b811461216157600080fd5b50565b61216d81611ca5565b811461217857600080fd5b5056fea26469706673582212201088cf343ee8fdd86d29f98bb5ab9e331792ff2743e74926a86f645e4e5178ad64736f6c63430008070033",
  "immutableReferences": {
    "13": [
      {
        "length": 32,
        "start": 2392
      }
    ]
  },
  "source": "// SPDX-License-Identifier: UNLICENSED\npragma solidity 0.8.7;\n\n// import \"@openzeppelin/contracts/token/ERC20/ERC20.sol\";\n// import \"@openzeppelin/contracts/token/ERC20/IERC20.sol\";\n// import \"@openzeppelin/contracts/token/ERC721/IERC721.sol\";\n\nimport \"../node_modules/openzeppelin-solidity/contracts/token/ERC20/IERC20.sol\";\nimport \"../node_modules/openzeppelin-solidity/contracts/token/ERC20/ERC20.sol\";\nimport \"../node_modules/openzeppelin-solidity/contracts/token/ERC721/IERC721.sol\";\nimport \"../node_modules/openzeppelin-solidity/contracts/token/ERC721/IERC721Receiver.sol\";\n\n\ncontract FundRaising is ERC20 {\n    // IERC20 public constant DAI = IERC20(0x6B175474E89094C44Da98b954EedeAC495271d0F); <= Actual DAI address\n    IERC20 public DAI;\n    IERC721 public immutable NFT; // The NFT that creates the FundRaisingCampaigns\n    uint256 public targetAmount; // Target amount for the fundraising\n    bool public _paused; // = false by default\n    address admin;\n\n    constructor(uint256 amount, string memory name, string memory symbol, address _admin, address daiAddress) ERC20(name, symbol) {\n        targetAmount = amount;\n        admin = _admin;\n        DAI = IERC20(daiAddress);\n        NFT = IERC721(msg.sender);\n    }\n\n    modifier onlyOwner(){\n            require(msg.sender == admin);\n            _;\n    }\n\n    // Enables this contract to recieve ERC-721 token\n    function onERC721Received(address /*operator*/, address /*from*/, uint256 /*tokenId*/, bytes calldata /*data*/) external pure returns (bytes4) {\n        return IERC721Receiver.onERC721Received.selector;\n    }\n\n    function invest(uint256 value) external {\n        require(value <= targetAmount - totalSupply(), \"Not enough shares left!\");\n        require( !_paused, \"Paused\" );\n        DAI.transferFrom(msg.sender, address(this), value);\n        _mint(msg.sender, value);\n        if (targetAmount == totalSupply()) { \n            DAI.transfer(admin, targetAmount); // How deal with this money\n        }\n    }\n\n    function withdrawInvestment(uint256 value) external {\n        require(value <= balanceOf(msg.sender), \"Not enough shares balance!\");\n        DAI.transfer(msg.sender, value);\n        _burn(msg.sender, value);\n    }\n\n    function pause() onlyOwner external {\n        _paused = true;\n    }\n\n    function unpause() onlyOwner external{\n        _paused = false;\n    }\n}",
  "sourcePath": "/Users/gus/springdao_nfts/ProjectMarketplace/contracts/FundRaising.sol",
  "compiler": {
    "name": "solc",
    "version": "0.8.7+commit.e28d00a7.Emscripten.clang"
  },
  "schemaVersion": "3.4.8",
  "updatedAt": "2022-07-30T19:57:55.454Z",
  "networkType": "ethereum",
  "devdoc": {
    "kind": "dev",
    "methods": {
      "allowance(address,address)": {
        "details": "See {IERC20-allowance}."
      },
      "approve(address,uint256)": {
        "details": "See {IERC20-approve}. NOTE: If `amount` is the maximum `uint256`, the allowance is not updated on `transferFrom`. This is semantically equivalent to an infinite approval. Requirements: - `spender` cannot be the zero address."
      },
      "balanceOf(address)": {
        "details": "See {IERC20-balanceOf}."
      },
      "decimals()": {
        "details": "Returns the number of decimals used to get its user representation. For example, if `decimals` equals `2`, a balance of `505` tokens should be displayed to a user as `5.05` (`505 / 10 ** 2`). Tokens usually opt for a value of 18, imitating the relationship between Ether and Wei. This is the value {ERC20} uses, unless this function is overridden; NOTE: This information is only used for _display_ purposes: it in no way affects any of the arithmetic of the contract, including {IERC20-balanceOf} and {IERC20-transfer}."
      },
      "decreaseAllowance(address,uint256)": {
        "details": "Atomically decreases the allowance granted to `spender` by the caller. This is an alternative to {approve} that can be used as a mitigation for problems described in {IERC20-approve}. Emits an {Approval} event indicating the updated allowance. Requirements: - `spender` cannot be the zero address. - `spender` must have allowance for the caller of at least `subtractedValue`."
      },
      "increaseAllowance(address,uint256)": {
        "details": "Atomically increases the allowance granted to `spender` by the caller. This is an alternative to {approve} that can be used as a mitigation for problems described in {IERC20-approve}. Emits an {Approval} event indicating the updated allowance. Requirements: - `spender` cannot be the zero address."
      },
      "name()": {
        "details": "Returns the name of the token."
      },
      "symbol()": {
        "details": "Returns the symbol of the token, usually a shorter version of the name."
      },
      "totalSupply()": {
        "details": "See {IERC20-totalSupply}."
      },
      "transfer(address,uint256)": {
        "details": "See {IERC20-transfer}. Requirements: - `to` cannot be the zero address. - the caller must have a balance of at least `amount`."
      },
      "transferFrom(address,address,uint256)": {
        "details": "See {IERC20-transferFrom}. Emits an {Approval} event indicating the updated allowance. This is not required by the EIP. See the note at the beginning of {ERC20}. NOTE: Does not update the allowance if the current allowance is the maximum `uint256`. Requirements: - `from` and `to` cannot be the zero address. - `from` must have a balance of at least `amount`. - the caller must have allowance for ``from``'s tokens of at least `amount`."
      }
    },
    "version": 1
  },
  "userdoc": {
    "kind": "user",
    "methods": {},
    "version": 1
  }
}