{
  "contractName": "ProjectMarketPlace",
  "abi": [
    {
      "inputs": [],
      "stateMutability": "nonpayable",
      "type": "constructor"
    },
    {
      "anonymous": false,
      "inputs": [
        {
          "indexed": true,
          "internalType": "address",
          "name": "owner",
          "type": "address"
        },
        {
          "indexed": true,
          "internalType": "address",
          "name": "approved",
          "type": "address"
        },
        {
          "indexed": true,
          "internalType": "uint256",
          "name": "tokenId",
          "type": "uint256"
        }
      ],
      "name": "Approval",
      "type": "event"
    },
    {
      "anonymous": false,
      "inputs": [
        {
          "indexed": true,
          "internalType": "address",
          "name": "owner",
          "type": "address"
        },
        {
          "indexed": true,
          "internalType": "address",
          "name": "operator",
          "type": "address"
        },
        {
          "indexed": false,
          "internalType": "bool",
          "name": "approved",
          "type": "bool"
        }
      ],
      "name": "ApprovalForAll",
      "type": "event"
    },
    {
      "anonymous": false,
      "inputs": [
        {
          "indexed": true,
          "internalType": "address",
          "name": "from",
          "type": "address"
        },
        {
          "indexed": true,
          "internalType": "address",
          "name": "to",
          "type": "address"
        },
        {
          "indexed": true,
          "internalType": "uint256",
          "name": "tokenId",
          "type": "uint256"
        }
      ],
      "name": "Transfer",
      "type": "event"
    },
    {
      "inputs": [
        {
          "internalType": "address",
          "name": "to",
          "type": "address"
        },
        {
          "internalType": "uint256",
          "name": "tokenId",
          "type": "uint256"
        }
      ],
      "name": "approve",
      "outputs": [],
      "stateMutability": "nonpayable",
      "type": "function"
    },
    {
      "inputs": [
        {
          "internalType": "address",
          "name": "owner",
          "type": "address"
        }
      ],
      "name": "balanceOf",
      "outputs": [
        {
          "internalType": "uint256",
          "name": "",
          "type": "uint256"
        }
      ],
      "stateMutability": "view",
      "type": "function",
      "constant": true
    },
    {
      "inputs": [
        {
          "internalType": "uint256",
          "name": "tokenId",
          "type": "uint256"
        }
      ],
      "name": "getApproved",
      "outputs": [
        {
          "internalType": "address",
          "name": "",
          "type": "address"
        }
      ],
      "stateMutability": "view",
      "type": "function",
      "constant": true
    },
    {
      "inputs": [
        {
          "internalType": "uint256",
          "name": "",
          "type": "uint256"
        }
      ],
      "name": "idToTokenURI",
      "outputs": [
        {
          "internalType": "string",
          "name": "",
          "type": "string"
        }
      ],
      "stateMutability": "view",
      "type": "function",
      "constant": true
    },
    {
      "inputs": [
        {
          "internalType": "address",
          "name": "owner",
          "type": "address"
        },
        {
          "internalType": "address",
          "name": "operator",
          "type": "address"
        }
      ],
      "name": "isApprovedForAll",
      "outputs": [
        {
          "internalType": "bool",
          "name": "",
          "type": "bool"
        }
      ],
      "stateMutability": "view",
      "type": "function",
      "constant": true
    },
    {
      "inputs": [],
      "name": "name",
      "outputs": [
        {
          "internalType": "string",
          "name": "",
          "type": "string"
        }
      ],
      "stateMutability": "view",
      "type": "function",
      "constant": true
    },
    {
      "inputs": [
        {
          "internalType": "uint256",
          "name": "tokenId",
          "type": "uint256"
        }
      ],
      "name": "ownerOf",
      "outputs": [
        {
          "internalType": "address",
          "name": "",
          "type": "address"
        }
      ],
      "stateMutability": "view",
      "type": "function",
      "constant": true
    },
    {
      "inputs": [
        {
          "internalType": "address",
          "name": "from",
          "type": "address"
        },
        {
          "internalType": "address",
          "name": "to",
          "type": "address"
        },
        {
          "internalType": "uint256",
          "name": "tokenId",
          "type": "uint256"
        }
      ],
      "name": "safeTransferFrom",
      "outputs": [],
      "stateMutability": "nonpayable",
      "type": "function"
    },
    {
      "inputs": [
        {
          "internalType": "address",
          "name": "from",
          "type": "address"
        },
        {
          "internalType": "address",
          "name": "to",
          "type": "address"
        },
        {
          "internalType": "uint256",
          "name": "tokenId",
          "type": "uint256"
        },
        {
          "internalType": "bytes",
          "name": "_data",
          "type": "bytes"
        }
      ],
      "name": "safeTransferFrom",
      "outputs": [],
      "stateMutability": "nonpayable",
      "type": "function"
    },
    {
      "inputs": [
        {
          "internalType": "address",
          "name": "operator",
          "type": "address"
        },
        {
          "internalType": "bool",
          "name": "approved",
          "type": "bool"
        }
      ],
      "name": "setApprovalForAll",
      "outputs": [],
      "stateMutability": "nonpayable",
      "type": "function"
    },
    {
      "inputs": [
        {
          "internalType": "bytes4",
          "name": "interfaceId",
          "type": "bytes4"
        }
      ],
      "name": "supportsInterface",
      "outputs": [
        {
          "internalType": "bool",
          "name": "",
          "type": "bool"
        }
      ],
      "stateMutability": "view",
      "type": "function",
      "constant": true
    },
    {
      "inputs": [],
      "name": "symbol",
      "outputs": [
        {
          "internalType": "string",
          "name": "",
          "type": "string"
        }
      ],
      "stateMutability": "view",
      "type": "function",
      "constant": true
    },
    {
      "inputs": [
        {
          "internalType": "uint256",
          "name": "index",
          "type": "uint256"
        }
      ],
      "name": "tokenByIndex",
      "outputs": [
        {
          "internalType": "uint256",
          "name": "",
          "type": "uint256"
        }
      ],
      "stateMutability": "view",
      "type": "function",
      "constant": true
    },
    {
      "inputs": [
        {
          "internalType": "address",
          "name": "owner",
          "type": "address"
        },
        {
          "internalType": "uint256",
          "name": "index",
          "type": "uint256"
        }
      ],
      "name": "tokenOfOwnerByIndex",
      "outputs": [
        {
          "internalType": "uint256",
          "name": "",
          "type": "uint256"
        }
      ],
      "stateMutability": "view",
      "type": "function",
      "constant": true
    },
    {
      "inputs": [],
      "name": "totalSupply",
      "outputs": [
        {
          "internalType": "uint256",
          "name": "",
          "type": "uint256"
        }
      ],
      "stateMutability": "view",
      "type": "function",
      "constant": true
    },
    {
      "inputs": [
        {
          "internalType": "address",
          "name": "from",
          "type": "address"
        },
        {
          "internalType": "address",
          "name": "to",
          "type": "address"
        },
        {
          "internalType": "uint256",
          "name": "tokenId",
          "type": "uint256"
        }
      ],
      "name": "transferFrom",
      "outputs": [],
      "stateMutability": "nonpayable",
      "type": "function"
    },
    {
      "inputs": [
        {
          "internalType": "uint256",
          "name": "targetAmount",
          "type": "uint256"
        },
        {
          "internalType": "string",
          "name": "projectName",
          "type": "string"
        },
        {
          "internalType": "string",
          "name": "projectSymbol",
          "type": "string"
        },
        {
          "internalType": "string",
          "name": "_tokenURI",
          "type": "string"
        },
        {
          "internalType": "uint256",
          "name": "dataAccessThreshold",
          "type": "uint256"
        },
        {
          "internalType": "address",
          "name": "DAI",
          "type": "address"
        }
      ],
      "name": "createProject",
      "outputs": [
        {
          "internalType": "uint256",
          "name": "",
          "type": "uint256"
        }
      ],
      "stateMutability": "nonpayable",
      "type": "function"
    },
    {
      "inputs": [
        {
          "internalType": "uint256",
          "name": "tokenID",
          "type": "uint256"
        }
      ],
      "name": "tokenURI",
      "outputs": [
        {
          "internalType": "string",
          "name": "",
          "type": "string"
        }
      ],
      "stateMutability": "view",
      "type": "function",
      "constant": true
    },
    {
      "inputs": [
        {
          "internalType": "uint256",
          "name": "tokenID",
          "type": "uint256"
        }
      ],
      "name": "findprojectContract",
      "outputs": [
        {
          "internalType": "address",
          "name": "",
          "type": "address"
        }
      ],
      "stateMutability": "pure",
      "type": "function",
      "constant": true
    }
  ],
  "bytecode": "0x60806040523480156200001157600080fd5b506040518060600160405280602681526020016200607b602691396040518060400160405280600d81526020017f537072696e6744414f746573740000000000000000000000000000000000000081525081600090805190602001906200007a9291906200009c565b508060019080519060200190620000939291906200009c565b505050620001b1565b828054620000aa906200014c565b90600052602060002090601f016020900481019282620000ce57600085556200011a565b82601f10620000e957805160ff19168380011785556200011a565b828001600101855582156200011a579182015b8281111562000119578251825591602001919060010190620000fc565b5b5090506200012991906200012d565b5090565b5b80821115620001485760008160009055506001016200012e565b5090565b600060028204905060018216806200016557607f821691505b602082108114156200017c576200017b62000182565b5b50919050565b7f4e487b7100000000000000000000000000000000000000000000000000000000600052602260045260246000fd5b615eba80620001c16000396000f3fe60806040523480156200001157600080fd5b50600436106200013c5760003560e01c80634f6ccce711620000bd5780639ec5dcc5116200007b5780639ec5dcc514620003b7578063a22cb46514620003ed578063b88d4fde146200040d578063c87b56dd146200042d578063e985e9c51462000463576200013c565b80634f6ccce714620002bd5780636352211e14620002f357806370a082311462000329578063877afeeb146200035f57806395d89b411462000395576200013c565b80631628a86f116200010b5780631628a86f14620001ef57806318160ddd146200022557806323b872dd14620002475780632f745c59146200026757806342842e0e146200029d576200013c565b806301ffc9a7146200014157806306fdde031462000177578063081812fc1462000199578063095ea7b314620001cf575b600080fd5b6200015f600480360381019062000159919062002280565b62000499565b6040516200016e9190620027bf565b60405180910390f35b6200018162000516565b604051620001909190620027dc565b60405180910390f35b620001b76004803603810190620001b19190620022e4565b620005b0565b604051620001c691906200274e565b60405180910390f35b620001ed6004803603810190620001e7919062002239565b6200063a565b005b6200020d6004803603810190620002079190620022e4565b62000763565b6040516200021c91906200274e565b60405180910390f35b6200022f6200076d565b6040516200023e9190620029fe565b60405180910390f35b6200026560048036038101906200025f919062002105565b6200077a565b005b6200028560048036038101906200027f919062002239565b620007e3565b604051620002949190620029fe565b60405180910390f35b620002bb6004803603810190620002b5919062002105565b6200088d565b005b620002db6004803603810190620002d59190620022e4565b620008af565b604051620002ea9190620029fe565b60405180910390f35b6200031160048036038101906200030b9190620022e4565b62000928565b6040516200032091906200274e565b60405180910390f35b6200034760048036038101906200034191906200208c565b620009dd565b604051620003569190620029fe565b60405180910390f35b6200037d600480360381019062000377919062002316565b62000a98565b6040516200038c9190620029fe565b60405180910390f35b6200039f62000b42565b604051620003ae9190620027dc565b60405180910390f35b620003d56004803603810190620003cf9190620022e4565b62000bdc565b604051620003e49190620027dc565b60405180910390f35b6200040b6004803603810190620004059190620021f2565b62000c84565b005b6200042b600480360381019062000425919062002161565b62000c9e565b005b6200044b6004803603810190620004459190620022e4565b62000d09565b6040516200045a9190620027dc565b60405180910390f35b6200048160048036038101906200047b9190620020be565b62000db6565b604051620004909190620027bf565b60405180910390f35b60007f780e9d63000000000000000000000000000000000000000000000000000000007bffffffffffffffffffffffffffffffffffffffffffffffffffffffff1916827bffffffffffffffffffffffffffffffffffffffffffffffffffffffff191614806200050f57506200050e8262000e4a565b5b9050919050565b606060008054620005279062002c84565b80601f0160208091040260200160405190810160405280929190818152602001828054620005559062002c84565b8015620005a65780601f106200057a57610100808354040283529160200191620005a6565b820191906000526020600020905b8154815290600101906020018083116200058857829003601f168201915b5050505050905090565b6000620005bd8262000f30565b620005ff576040517f08c379a0000000000000000000000000000000000000000000000000000000008152600401620005f69062002976565b60405180910390fd5b6004600083815260200190815260200160002060009054906101000a900473ffffffffffffffffffffffffffffffffffffffff169050919050565b6000620006478262000928565b90508073ffffffffffffffffffffffffffffffffffffffff168373ffffffffffffffffffffffffffffffffffffffff161415620006bb576040517f08c379a0000000000000000000000000000000000000000000000000000000008152600401620006b29062002998565b60405180910390fd5b8073ffffffffffffffffffffffffffffffffffffffff16620006dc62000f9c565b73ffffffffffffffffffffffffffffffffffffffff1614806200071057506200070f816200070962000f9c565b62000db6565b5b62000752576040517f08c379a00000000000000000000000000000000000000000000000000000000081526004016200074990620028ee565b60405180910390fd5b6200075e838362000fa4565b505050565b6000819050919050565b6000600880549050905090565b6200078f6200078862000f9c565b826200105f565b620007d1576040517f08c379a0000000000000000000000000000000000000000000000000000000008152600401620007c890620029ba565b60405180910390fd5b620007de8383836200114a565b505050565b6000620007f083620009dd565b821062000834576040517f08c379a00000000000000000000000000000000000000000000000000000000081526004016200082b9062002800565b60405180910390fd5b600660008473ffffffffffffffffffffffffffffffffffffffff1673ffffffffffffffffffffffffffffffffffffffff168152602001908152602001600020600083815260200190815260200160002054905092915050565b620008aa8383836040518060200160405280600081525062000c9e565b505050565b6000620008bb6200076d565b8210620008ff576040517f08c379a0000000000000000000000000000000000000000000000000000000008152600401620008f690620029dc565b60405180910390fd5b6008828154811062000916576200091562002d7d565b5b90600052602060002001549050919050565b6000806002600084815260200190815260200160002060009054906101000a900473ffffffffffffffffffffffffffffffffffffffff169050600073ffffffffffffffffffffffffffffffffffffffff168173ffffffffffffffffffffffffffffffffffffffff161415620009d4576040517f08c379a0000000000000000000000000000000000000000000000000000000008152600401620009cb9062002932565b60405180910390fd5b80915050919050565b60008073ffffffffffffffffffffffffffffffffffffffff168273ffffffffffffffffffffffffffffffffffffffff16141562000a51576040517f08c379a000000000000000000000000000000000000000000000000000000000815260040162000a489062002910565b60405180910390fd5b600360008373ffffffffffffffffffffffffffffffffffffffff1673ffffffffffffffffffffffffffffffffffffffff168152602001908152602001600020549050919050565b6000808a8a8a8a8a88338960405162000ab19062001e7e565b62000ac498979695949392919062002a1b565b604051809103906000f08015801562000ae1573d6000803e3d6000fd5b50905060008173ffffffffffffffffffffffffffffffffffffffff16905062000b0b8282620013c3565b8686600a6000848152602001908152602001600020919062000b2f92919062001e8c565b5080925050509998505050505050505050565b60606001805462000b539062002c84565b80601f016020809104026020016040519081016040528092919081815260200182805462000b819062002c84565b801562000bd25780601f1062000ba65761010080835404028352916020019162000bd2565b820191906000526020600020905b81548152906001019060200180831162000bb457829003601f168201915b5050505050905090565b600a602052806000526040600020600091509050805462000bfd9062002c84565b80601f016020809104026020016040519081016040528092919081815260200182805462000c2b9062002c84565b801562000c7c5780601f1062000c505761010080835404028352916020019162000c7c565b820191906000526020600020905b81548152906001019060200180831162000c5e57829003601f168201915b505050505081565b62000c9a62000c9262000f9c565b8383620013e3565b5050565b62000cb362000cac62000f9c565b836200105f565b62000cf5576040517f08c379a000000000000000000000000000000000000000000000000000000000815260040162000cec90620029ba565b60405180910390fd5b62000d038484848462001555565b50505050565b6060600a6000838152602001908152602001600020805462000d2b9062002c84565b80601f016020809104026020016040519081016040528092919081815260200182805462000d599062002c84565b801562000daa5780601f1062000d7e5761010080835404028352916020019162000daa565b820191906000526020600020905b81548152906001019060200180831162000d8c57829003601f168201915b50505050509050919050565b6000600560008473ffffffffffffffffffffffffffffffffffffffff1673ffffffffffffffffffffffffffffffffffffffff16815260200190815260200160002060008373ffffffffffffffffffffffffffffffffffffffff1673ffffffffffffffffffffffffffffffffffffffff16815260200190815260200160002060009054906101000a900460ff16905092915050565b60007f80ac58cd000000000000000000000000000000000000000000000000000000007bffffffffffffffffffffffffffffffffffffffffffffffffffffffff1916827bffffffffffffffffffffffffffffffffffffffffffffffffffffffff1916148062000f1657507f5b5e139f000000000000000000000000000000000000000000000000000000007bffffffffffffffffffffffffffffffffffffffffffffffffffffffff1916827bffffffffffffffffffffffffffffffffffffffffffffffffffffffff1916145b8062000f29575062000f2882620015b8565b5b9050919050565b60008073ffffffffffffffffffffffffffffffffffffffff166002600084815260200190815260200160002060009054906101000a900473ffffffffffffffffffffffffffffffffffffffff1673ffffffffffffffffffffffffffffffffffffffff1614159050919050565b600033905090565b816004600083815260200190815260200160002060006101000a81548173ffffffffffffffffffffffffffffffffffffffff021916908373ffffffffffffffffffffffffffffffffffffffff160217905550808273ffffffffffffffffffffffffffffffffffffffff16620010198362000928565b73ffffffffffffffffffffffffffffffffffffffff167f8c5be1e5ebec7d5bd14f71427d1e84f3dd0314c0f7b2291e5b200ac8c7c3b92560405160405180910390a45050565b60006200106c8262000f30565b620010ae576040517f08c379a0000000000000000000000000000000000000000000000000000000008152600401620010a590620028cc565b60405180910390fd5b6000620010bb8362000928565b90508073ffffffffffffffffffffffffffffffffffffffff168473ffffffffffffffffffffffffffffffffffffffff161480620011005750620010ff818562000db6565b5b806200114157508373ffffffffffffffffffffffffffffffffffffffff166200112984620005b0565b73ffffffffffffffffffffffffffffffffffffffff16145b91505092915050565b8273ffffffffffffffffffffffffffffffffffffffff166200116c8262000928565b73ffffffffffffffffffffffffffffffffffffffff1614620011c5576040517f08c379a0000000000000000000000000000000000000000000000000000000008152600401620011bc9062002844565b60405180910390fd5b600073ffffffffffffffffffffffffffffffffffffffff168273ffffffffffffffffffffffffffffffffffffffff16141562001238576040517f08c379a00000000000000000000000000000000000000000000000000000000081526004016200122f9062002888565b60405180910390fd5b6200124583838362001622565b6200125260008262000fa4565b6001600360008573ffffffffffffffffffffffffffffffffffffffff1673ffffffffffffffffffffffffffffffffffffffff1681526020019081526020016000206000828254620012a4919062002b8e565b925050819055506001600360008473ffffffffffffffffffffffffffffffffffffffff1673ffffffffffffffffffffffffffffffffffffffff1681526020019081526020016000206000828254620012fd919062002b31565b92505081905550816002600083815260200190815260200160002060006101000a81548173ffffffffffffffffffffffffffffffffffffffff021916908373ffffffffffffffffffffffffffffffffffffffff160217905550808273ffffffffffffffffffffffffffffffffffffffff168473ffffffffffffffffffffffffffffffffffffffff167fddf252ad1be2c89b69c2b068fc378daa952ba7f163c4a11628f55a4df523b3ef60405160405180910390a4620013be83838362001746565b505050565b620013df8282604051806020016040528060008152506200174b565b5050565b8173ffffffffffffffffffffffffffffffffffffffff168373ffffffffffffffffffffffffffffffffffffffff16141562001455576040517f08c379a00000000000000000000000000000000000000000000000000000000081526004016200144c90620028aa565b60405180910390fd5b80600560008573ffffffffffffffffffffffffffffffffffffffff1673ffffffffffffffffffffffffffffffffffffffff16815260200190815260200160002060008473ffffffffffffffffffffffffffffffffffffffff1673ffffffffffffffffffffffffffffffffffffffff16815260200190815260200160002060006101000a81548160ff0219169083151502179055508173ffffffffffffffffffffffffffffffffffffffff168373ffffffffffffffffffffffffffffffffffffffff167f17307eab39ab6107e8899845ad3d59bd9653f200f220920489ca2b5937696c3183604051620015489190620027bf565b60405180910390a3505050565b620015628484846200114a565b6200157084848484620017ad565b620015b2576040517f08c379a0000000000000000000000000000000000000000000000000000000008152600401620015a99062002822565b60405180910390fd5b50505050565b60007f01ffc9a7000000000000000000000000000000000000000000000000000000007bffffffffffffffffffffffffffffffffffffffffffffffffffffffff1916827bffffffffffffffffffffffffffffffffffffffffffffffffffffffff1916149050919050565b6200162f83838362001956565b600073ffffffffffffffffffffffffffffffffffffffff168373ffffffffffffffffffffffffffffffffffffffff161415620016765762001670816200195b565b620016b8565b8173ffffffffffffffffffffffffffffffffffffffff168373ffffffffffffffffffffffffffffffffffffffff1614620016b757620016b68382620019a4565b5b5b600073ffffffffffffffffffffffffffffffffffffffff168273ffffffffffffffffffffffffffffffffffffffff161415620016ff57620016f98162001b16565b62001741565b8273ffffffffffffffffffffffffffffffffffffffff168273ffffffffffffffffffffffffffffffffffffffff161462001740576200173f828262001bf2565b5b5b505050565b505050565b62001757838362001c73565b620017666000848484620017ad565b620017a8576040517f08c379a00000000000000000000000000000000000000000000000000000000081526004016200179f9062002822565b60405180910390fd5b505050565b6000620017d08473ffffffffffffffffffffffffffffffffffffffff1662001e5b565b1562001949578373ffffffffffffffffffffffffffffffffffffffff1663150b7a02620017fc62000f9c565b8786866040518563ffffffff1660e01b81526004016200182094939291906200276b565b602060405180830381600087803b1580156200183b57600080fd5b505af19250505080156200186f57506040513d601f19601f820116820180604052508101906200186c9190620022b2565b60015b620018f8573d8060008114620018a2576040519150601f19603f3d011682016040523d82523d6000602084013e620018a7565b606091505b50600081511415620018f0576040517f08c379a0000000000000000000000000000000000000000000000000000000008152600401620018e79062002822565b60405180910390fd5b805181602001fd5b63150b7a0260e01b7bffffffffffffffffffffffffffffffffffffffffffffffffffffffff1916817bffffffffffffffffffffffffffffffffffffffffffffffffffffffff1916149150506200194e565b600190505b949350505050565b505050565b6008805490506009600083815260200190815260200160002081905550600881908060018154018082558091505060019003906000526020600020016000909190919091505550565b60006001620019b384620009dd565b620019bf919062002b8e565b905060006007600084815260200190815260200160002054905081811462001aa5576000600660008673ffffffffffffffffffffffffffffffffffffffff1673ffffffffffffffffffffffffffffffffffffffff168152602001908152602001600020600084815260200190815260200160002054905080600660008773ffffffffffffffffffffffffffffffffffffffff1673ffffffffffffffffffffffffffffffffffffffff168152602001908152602001600020600084815260200190815260200160002081905550816007600083815260200190815260200160002081905550505b6007600084815260200190815260200160002060009055600660008573ffffffffffffffffffffffffffffffffffffffff1673ffffffffffffffffffffffffffffffffffffffff16815260200190815260200160002060008381526020019081526020016000206000905550505050565b6000600160088054905062001b2c919062002b8e565b905060006009600084815260200190815260200160002054905060006008838154811062001b5f5762001b5e62002d7d565b5b90600052602060002001549050806008838154811062001b845762001b8362002d7d565b5b90600052602060002001819055508160096000838152602001908152602001600020819055506009600085815260200190815260200160002060009055600880548062001bd65762001bd562002d4e565b5b6001900381819060005260206000200160009055905550505050565b600062001bff83620009dd565b905081600660008573ffffffffffffffffffffffffffffffffffffffff1673ffffffffffffffffffffffffffffffffffffffff168152602001908152602001600020600083815260200190815260200160002081905550806007600084815260200190815260200160002081905550505050565b600073ffffffffffffffffffffffffffffffffffffffff168273ffffffffffffffffffffffffffffffffffffffff16141562001ce6576040517f08c379a000000000000000000000000000000000000000000000000000000000815260040162001cdd9062002954565b60405180910390fd5b62001cf18162000f30565b1562001d34576040517f08c379a000000000000000000000000000000000000000000000000000000000815260040162001d2b9062002866565b60405180910390fd5b62001d426000838362001622565b6001600360008473ffffffffffffffffffffffffffffffffffffffff1673ffffffffffffffffffffffffffffffffffffffff168152602001908152602001600020600082825462001d94919062002b31565b92505081905550816002600083815260200190815260200160002060006101000a81548173ffffffffffffffffffffffffffffffffffffffff021916908373ffffffffffffffffffffffffffffffffffffffff160217905550808273ffffffffffffffffffffffffffffffffffffffff16600073ffffffffffffffffffffffffffffffffffffffff167fddf252ad1be2c89b69c2b068fc378daa952ba7f163c4a11628f55a4df523b3ef60405160405180910390a462001e576000838362001746565b5050565b6000808273ffffffffffffffffffffffffffffffffffffffff163b119050919050565b612be380620032a283390190565b82805462001e9a9062002c84565b90600052602060002090601f01602090048101928262001ebe576000855562001f0a565b82601f1062001ed957803560ff191683800117855562001f0a565b8280016001018555821562001f0a579182015b8281111562001f0957823582559160200191906001019062001eec565b5b50905062001f19919062001f1d565b5090565b5b8082111562001f3857600081600090555060010162001f1e565b5090565b600062001f5362001f4d8462002ac3565b62002a9a565b90508281526020810184848401111562001f725762001f7162002dea565b5b62001f7f84828562002c3f565b509392505050565b60008135905062001f988162003239565b92915050565b60008135905062001faf8162003253565b92915050565b60008135905062001fc6816200326d565b92915050565b60008151905062001fdd816200326d565b92915050565b600082601f83011262001ffb5762001ffa62002de0565b5b81356200200d84826020860162001f3c565b91505092915050565b60008083601f8401126200202f576200202e62002de0565b5b8235905067ffffffffffffffff8111156200204f576200204e62002ddb565b5b6020830191508360018202830111156200206e576200206d62002de5565b5b9250929050565b600081359050620020868162003287565b92915050565b600060208284031215620020a557620020a462002df4565b5b6000620020b58482850162001f87565b91505092915050565b60008060408385031215620020d857620020d762002df4565b5b6000620020e88582860162001f87565b9250506020620020fb8582860162001f87565b9150509250929050565b60008060006060848603121562002121576200212062002df4565b5b6000620021318682870162001f87565b9350506020620021448682870162001f87565b9250506040620021578682870162002075565b9150509250925092565b600080600080608085870312156200217e576200217d62002df4565b5b60006200218e8782880162001f87565b9450506020620021a18782880162001f87565b9350506040620021b48782880162002075565b925050606085013567ffffffffffffffff811115620021d857620021d762002def565b5b620021e68782880162001fe3565b91505092959194509250565b600080604083850312156200220c576200220b62002df4565b5b60006200221c8582860162001f87565b92505060206200222f8582860162001f9e565b9150509250929050565b6000806040838503121562002253576200225262002df4565b5b6000620022638582860162001f87565b9250506020620022768582860162002075565b9150509250929050565b60006020828403121562002299576200229862002df4565b5b6000620022a98482850162001fb5565b91505092915050565b600060208284031215620022cb57620022ca62002df4565b5b6000620022db8482850162001fcc565b91505092915050565b600060208284031215620022fd57620022fc62002df4565b5b60006200230d8482850162002075565b91505092915050565b600080600080600080600080600060c08a8c0312156200233b576200233a62002df4565b5b60006200234b8c828d0162002075565b99505060208a013567ffffffffffffffff8111156200236f576200236e62002def565b5b6200237d8c828d0162002016565b985098505060408a013567ffffffffffffffff811115620023a357620023a262002def565b5b620023b18c828d0162002016565b965096505060608a013567ffffffffffffffff811115620023d757620023d662002def565b5b620023e58c828d0162002016565b94509450506080620023fa8c828d0162002075565b92505060a06200240d8c828d0162001f87565b9150509295985092959850929598565b620024288162002bc9565b82525050565b620024398162002bdd565b82525050565b60006200244c8262002af9565b62002458818562002b0f565b93506200246a81856020860162002c4e565b620024758162002df9565b840191505092915050565b60006200248e838562002b20565b93506200249d83858462002c3f565b620024a88362002df9565b840190509392505050565b6000620024c08262002b04565b620024cc818562002b20565b9350620024de81856020860162002c4e565b620024e98162002df9565b840191505092915050565b600062002503602b8362002b20565b9150620025108262002e0a565b604082019050919050565b60006200252a60328362002b20565b9150620025378262002e59565b604082019050919050565b60006200255160258362002b20565b91506200255e8262002ea8565b604082019050919050565b600062002578601c8362002b20565b9150620025858262002ef7565b602082019050919050565b60006200259f60248362002b20565b9150620025ac8262002f20565b604082019050919050565b6000620025c660198362002b20565b9150620025d38262002f6f565b602082019050919050565b6000620025ed602c8362002b20565b9150620025fa8262002f98565b604082019050919050565b60006200261460388362002b20565b9150620026218262002fe7565b604082019050919050565b60006200263b602a8362002b20565b9150620026488262003036565b604082019050919050565b60006200266260298362002b20565b91506200266f8262003085565b604082019050919050565b60006200268960208362002b20565b91506200269682620030d4565b602082019050919050565b6000620026b0602c8362002b20565b9150620026bd82620030fd565b604082019050919050565b6000620026d760218362002b20565b9150620026e4826200314c565b604082019050919050565b6000620026fe60318362002b20565b91506200270b826200319b565b604082019050919050565b600062002725602c8362002b20565b91506200273282620031ea565b604082019050919050565b620027488162002c35565b82525050565b60006020820190506200276560008301846200241d565b92915050565b60006080820190506200278260008301876200241d565b6200279160208301866200241d565b620027a060408301856200273d565b8181036060830152620027b481846200243f565b905095945050505050565b6000602082019050620027d660008301846200242e565b92915050565b60006020820190508181036000830152620027f88184620024b3565b905092915050565b600060208201905081810360008301526200281b81620024f4565b9050919050565b600060208201905081810360008301526200283d816200251b565b9050919050565b600060208201905081810360008301526200285f8162002542565b9050919050565b60006020820190508181036000830152620028818162002569565b9050919050565b60006020820190508181036000830152620028a38162002590565b9050919050565b60006020820190508181036000830152620028c581620025b7565b9050919050565b60006020820190508181036000830152620028e781620025de565b9050919050565b60006020820190508181036000830152620029098162002605565b9050919050565b600060208201905081810360008301526200292b816200262c565b9050919050565b600060208201905081810360008301526200294d8162002653565b9050919050565b600060208201905081810360008301526200296f816200267a565b9050919050565b600060208201905081810360008301526200299181620026a1565b9050919050565b60006020820190508181036000830152620029b381620026c8565b9050919050565b60006020820190508181036000830152620029d581620026ef565b9050919050565b60006020820190508181036000830152620029f78162002716565b9050919050565b600060208201905062002a1560008301846200273d565b92915050565b600060c08201905062002a32600083018b6200273d565b818103602083015262002a4781898b62002480565b9050818103604083015262002a5e81878962002480565b905062002a6f60608301866200273d565b62002a7e60808301856200241d565b62002a8d60a08301846200241d565b9998505050505050505050565b600062002aa662002ab9565b905062002ab4828262002cba565b919050565b6000604051905090565b600067ffffffffffffffff82111562002ae15762002ae062002dac565b5b62002aec8262002df9565b9050602081019050919050565b600081519050919050565b600081519050919050565b600082825260208201905092915050565b600082825260208201905092915050565b600062002b3e8262002c35565b915062002b4b8362002c35565b9250827fffffffffffffffffffffffffffffffffffffffffffffffffffffffffffffffff0382111562002b835762002b8262002cf0565b5b828201905092915050565b600062002b9b8262002c35565b915062002ba88362002c35565b92508282101562002bbe5762002bbd62002cf0565b5b828203905092915050565b600062002bd68262002c15565b9050919050565b60008115159050919050565b60007fffffffff0000000000000000000000000000000000000000000000000000000082169050919050565b600073ffffffffffffffffffffffffffffffffffffffff82169050919050565b6000819050919050565b82818337600083830152505050565b60005b8381101562002c6e57808201518184015260208101905062002c51565b8381111562002c7e576000848401525b50505050565b6000600282049050600182168062002c9d57607f821691505b6020821081141562002cb45762002cb362002d1f565b5b50919050565b62002cc58262002df9565b810181811067ffffffffffffffff8211171562002ce75762002ce662002dac565b5b80604052505050565b7f4e487b7100000000000000000000000000000000000000000000000000000000600052601160045260246000fd5b7f4e487b7100000000000000000000000000000000000000000000000000000000600052602260045260246000fd5b7f4e487b7100000000000000000000000000000000000000000000000000000000600052603160045260246000fd5b7f4e487b7100000000000000000000000000000000000000000000000000000000600052603260045260246000fd5b7f4e487b7100000000000000000000000000000000000000000000000000000000600052604160045260246000fd5b600080fd5b600080fd5b600080fd5b600080fd5b600080fd5b600080fd5b6000601f19601f8301169050919050565b7f455243373231456e756d657261626c653a206f776e657220696e646578206f7560008201527f74206f6620626f756e6473000000000000000000000000000000000000000000602082015250565b7f4552433732313a207472616e7366657220746f206e6f6e20455243373231526560008201527f63656976657220696d706c656d656e7465720000000000000000000000000000602082015250565b7f4552433732313a207472616e736665722066726f6d20696e636f72726563742060008201527f6f776e6572000000000000000000000000000000000000000000000000000000602082015250565b7f4552433732313a20746f6b656e20616c7265616479206d696e74656400000000600082015250565b7f4552433732313a207472616e7366657220746f20746865207a65726f2061646460008201527f7265737300000000000000000000000000000000000000000000000000000000602082015250565b7f4552433732313a20617070726f766520746f2063616c6c657200000000000000600082015250565b7f4552433732313a206f70657261746f7220717565727920666f72206e6f6e657860008201527f697374656e7420746f6b656e0000000000000000000000000000000000000000602082015250565b7f4552433732313a20617070726f76652063616c6c6572206973206e6f74206f7760008201527f6e6572206e6f7220617070726f76656420666f7220616c6c0000000000000000602082015250565b7f4552433732313a2062616c616e636520717565727920666f7220746865207a6560008201527f726f206164647265737300000000000000000000000000000000000000000000602082015250565b7f4552433732313a206f776e657220717565727920666f72206e6f6e657869737460008201527f656e7420746f6b656e0000000000000000000000000000000000000000000000602082015250565b7f4552433732313a206d696e7420746f20746865207a65726f2061646472657373600082015250565b7f4552433732313a20617070726f76656420717565727920666f72206e6f6e657860008201527f697374656e7420746f6b656e0000000000000000000000000000000000000000602082015250565b7f4552433732313a20617070726f76616c20746f2063757272656e74206f776e6560008201527f7200000000000000000000000000000000000000000000000000000000000000602082015250565b7f4552433732313a207472616e736665722063616c6c6572206973206e6f74206f60008201527f776e6572206e6f7220617070726f766564000000000000000000000000000000602082015250565b7f455243373231456e756d657261626c653a20676c6f62616c20696e646578206f60008201527f7574206f6620626f756e64730000000000000000000000000000000000000000602082015250565b620032448162002bc9565b81146200325057600080fd5b50565b6200325e8162002bdd565b81146200326a57600080fd5b50565b620032788162002be9565b81146200328457600080fd5b50565b620032928162002c35565b81146200329e57600080fd5b5056fe60a06040523480156200001157600080fd5b5060405162002be338038062002be383398181016040528101906200003791906200029c565b848481600390805190602001906200005192919062000140565b5080600490805190602001906200006a92919062000140565b505050856006819055508260088190555081600960026101000a81548173ffffffffffffffffffffffffffffffffffffffff021916908373ffffffffffffffffffffffffffffffffffffffff16021790555080600560006101000a81548173ffffffffffffffffffffffffffffffffffffffff021916908373ffffffffffffffffffffffffffffffffffffffff1602179055503373ffffffffffffffffffffffffffffffffffffffff1660808173ffffffffffffffffffffffffffffffffffffffff1660601b815250505050505050506200056c565b8280546200014e9062000449565b90600052602060002090601f016020900481019282620001725760008555620001be565b82601f106200018d57805160ff1916838001178555620001be565b82800160010185558215620001be579182015b82811115620001bd578251825591602001919060010190620001a0565b5b509050620001cd9190620001d1565b5090565b5b80821115620001ec576000816000905550600101620001d2565b5090565b60006200020762000201846200039f565b62000376565b90508281526020810184848401111562000226576200022562000518565b5b6200023384828562000413565b509392505050565b6000815190506200024c8162000538565b92915050565b600082601f8301126200026a576200026962000513565b5b81516200027c848260208601620001f0565b91505092915050565b600081519050620002968162000552565b92915050565b60008060008060008060c08789031215620002bc57620002bb62000522565b5b6000620002cc89828a0162000285565b965050602087015167ffffffffffffffff811115620002f057620002ef6200051d565b5b620002fe89828a0162000252565b955050604087015167ffffffffffffffff8111156200032257620003216200051d565b5b6200033089828a0162000252565b94505060606200034389828a0162000285565b93505060806200035689828a016200023b565b92505060a06200036989828a016200023b565b9150509295509295509295565b60006200038262000395565b90506200039082826200047f565b919050565b6000604051905090565b600067ffffffffffffffff821115620003bd57620003bc620004e4565b5b620003c88262000527565b9050602081019050919050565b6000620003e282620003e9565b9050919050565b600073ffffffffffffffffffffffffffffffffffffffff82169050919050565b6000819050919050565b60005b838110156200043357808201518184015260208101905062000416565b8381111562000443576000848401525b50505050565b600060028204905060018216806200046257607f821691505b60208210811415620004795762000478620004b5565b5b50919050565b6200048a8262000527565b810181811067ffffffffffffffff82111715620004ac57620004ab620004e4565b5b80604052505050565b7f4e487b7100000000000000000000000000000000000000000000000000000000600052602260045260246000fd5b7f4e487b7100000000000000000000000000000000000000000000000000000000600052604160045260246000fd5b600080fd5b600080fd5b600080fd5b600080fd5b6000601f19601f8301169050919050565b6200054381620003d5565b81146200054f57600080fd5b50565b6200055d8162000409565b81146200056957600080fd5b50565b60805160601c6126516200059260003960008181610bba0152610c6701526126516000f3fe608060405234801561001057600080fd5b50600436106101735760003560e01c80633f4ba83a116100de578063953b8fb811610097578063a9059cbb11610071578063a9059cbb1461041a578063bdf896821461044a578063dd62ed3e14610468578063e0bab4c41461049857610173565b8063953b8fb8146103ae57806395d89b41146103cc578063a457c2d7146103ea57610173565b80633f4ba83a1461032457806370a082311461032e57806377262d381461035e5780637b3e5e7b146103685780637c0b8de2146103865780638456cb59146103a457610173565b806318160ddd1161013057806318160ddd146102505780632037fcbf1461026e57806323b872dd1461028a5780632afcf480146102ba578063313ce567146102d657806339509351146102f457610173565b806306fdde031461017857806306febe0014610196578063095ea7b3146101b457806311db3c16146101e4578063150b7a021461020257806316c61ccc14610232575b600080fd5b6101806104b6565b60405161018d9190611d62565b60405180910390f35b61019e610548565b6040516101ab9190611f84565b60405180910390f35b6101ce60048036038101906101c9919061192a565b61054e565b6040516101db9190611cf6565b60405180910390f35b6101ec610571565b6040516101f99190611cf6565b60405180910390f35b61021c600480360381019061021791906118a2565b610584565b6040516102299190611d11565b60405180910390f35b61023a610599565b6040516102479190611cf6565b60405180910390f35b6102586105ac565b6040516102659190611f84565b60405180910390f35b61028860048036038101906102839190611997565b6105b6565b005b6102a4600480360381019061029f919061184f565b610727565b6040516102b19190611cf6565b60405180910390f35b6102d460048036038101906102cf9190611997565b610756565b005b6102de610a26565b6040516102eb9190611f9f565b60405180910390f35b61030e6004803603810190610309919061192a565b610a2f565b60405161031b9190611cf6565b60405180910390f35b61032c610a66565b005b610348600480360381019061034391906117e2565b610b13565b6040516103559190611f84565b60405180910390f35b610366610b5b565b005b610370610c5f565b60405161037d9190611f84565b60405180910390f35b61038e610c65565b60405161039b9190611d47565b60405180910390f35b6103ac610c89565b005b6103b6610d36565b6040516103c39190611f84565b60405180910390f35b6103d4610d3c565b6040516103e19190611d62565b60405180910390f35b61040460048036038101906103ff919061192a565b610dce565b6040516104119190611cf6565b60405180910390f35b610434600480360381019061042f919061192a565b610e45565b6040516104419190611cf6565b60405180910390f35b610452610e68565b60405161045f9190611f84565b60405180910390f35b610482600480360381019061047d919061180f565b610e7f565b60405161048f9190611f84565b60405180910390f35b6104a0610f06565b6040516104ad9190611d2c565b60405180910390f35b6060600380546104c59061215c565b80601f01602080910402602001604051908101604052809291908181526020018280546104f19061215c565b801561053e5780601f106105135761010080835404028352916020019161053e565b820191906000526020600020905b81548152906001019060200180831161052157829003601f168201915b5050505050905090565b60085481565b600080610559610f2c565b9050610566818585610f34565b600191505092915050565b600960019054906101000a900460ff1681565b600063150b7a0260e01b905095945050505050565b600960009054906101000a900460ff1681565b6000600254905090565b600960019054906101000a900460ff1615610606576040517f08c379a00000000000000000000000000000000000000000000000000000000081526004016105fd90611e64565b60405180910390fd5b61060f33610b13565b811115610651576040517f08c379a000000000000000000000000000000000000000000000000000000000815260040161064890611ea4565b60405180910390fd5b600560009054906101000a900473ffffffffffffffffffffffffffffffffffffffff1673ffffffffffffffffffffffffffffffffffffffff1663a9059cbb33836040518363ffffffff1660e01b81526004016106ae929190611ccd565b602060405180830381600087803b1580156106c857600080fd5b505af11580156106dc573d6000803e3d6000fd5b505050506040513d601f19601f82011682018060405250810190610700919061196a565b508060076000828254610713919061202c565b9250508190555061072433826110ff565b50565b600080610732610f2c565b905061073f8582856112d6565b61074a858585611362565b60019150509392505050565b600960019054906101000a900460ff16156107a6576040517f08c379a000000000000000000000000000000000000000000000000000000000815260040161079d90611e64565b60405180910390fd5b6107ae6105ac565b6006546107bb919061202c565b8111156107fd576040517f08c379a00000000000000000000000000000000000000000000000000000000081526004016107f490611e24565b60405180910390fd5b600960009054906101000a900460ff161561084d576040517f08c379a000000000000000000000000000000000000000000000000000000000815260040161084490611e44565b60405180910390fd5b600560009054906101000a900473ffffffffffffffffffffffffffffffffffffffff1673ffffffffffffffffffffffffffffffffffffffff166323b872dd3330846040518463ffffffff1660e01b81526004016108ac93929190611c96565b602060405180830381600087803b1580156108c657600080fd5b505af11580156108da573d6000803e3d6000fd5b505050506040513d601f19601f820116820180604052508101906108fe919061196a565b5080600760008282546109119190611fd6565b9250508190555061092233826115e3565b61092a6105ac565b6006541415610a2357600560009054906101000a900473ffffffffffffffffffffffffffffffffffffffff1673ffffffffffffffffffffffffffffffffffffffff1663a9059cbb600960029054906101000a900473ffffffffffffffffffffffffffffffffffffffff166006546040518363ffffffff1660e01b81526004016109b4929190611ccd565b602060405180830381600087803b1580156109ce57600080fd5b505af11580156109e2573d6000803e3d6000fd5b505050506040513d601f19601f82011682018060405250810190610a06919061196a565b506001600960016101000a81548160ff0219169083151502179055505b50565b60006012905090565b600080610a3a610f2c565b9050610a5b818585610a4c8589610e7f565b610a569190611fd6565b610f34565b600191505092915050565b600960029054906101000a900473ffffffffffffffffffffffffffffffffffffffff1673ffffffffffffffffffffffffffffffffffffffff163373ffffffffffffffffffffffffffffffffffffffff1614610af6576040517f08c379a0000000000000000000000000000000000000000000000000000000008152600401610aed90611e84565b60405180910390fd5b6000600960006101000a81548160ff021916908315150217905550565b60008060008373ffffffffffffffffffffffffffffffffffffffff1673ffffffffffffffffffffffffffffffffffffffff168152602001908152602001600020549050919050565b600654610b6733610b13565b14610ba7576040517f08c379a0000000000000000000000000000000000000000000000000000000008152600401610b9e90611f24565b60405180910390fd5b610bb833610bb36105ac565b6110ff565b7f000000000000000000000000000000000000000000000000000000000000000073ffffffffffffffffffffffffffffffffffffffff166342842e0e30333073ffffffffffffffffffffffffffffffffffffffff166040518463ffffffff1660e01b8152600401610c2b93929190611c96565b600060405180830381600087803b158015610c4557600080fd5b505af1158015610c59573d6000803e3d6000fd5b50505050565b60075481565b7f000000000000000000000000000000000000000000000000000000000000000081565b600960029054906101000a900473ffffffffffffffffffffffffffffffffffffffff1673ffffffffffffffffffffffffffffffffffffffff163373ffffffffffffffffffffffffffffffffffffffff1614610d19576040517f08c379a0000000000000000000000000000000000000000000000000000000008152600401610d1090611e84565b60405180910390fd5b6001600960006101000a81548160ff021916908315150217905550565b60065481565b606060048054610d4b9061215c565b80601f0160208091040260200160405190810160405280929190818152602001828054610d779061215c565b8015610dc45780601f10610d9957610100808354040283529160200191610dc4565b820191906000526020600020905b815481529060010190602001808311610da757829003601f168201915b5050505050905090565b600080610dd9610f2c565b90506000610de78286610e7f565b905083811015610e2c576040517f08c379a0000000000000000000000000000000000000000000000000000000008152600401610e2390611f44565b60405180910390fd5b610e398286868403610f34565b60019250505092915050565b600080610e50610f2c565b9050610e5d818585611362565b600191505092915050565b6000600754600654610e7a919061202c565b905090565b6000600160008473ffffffffffffffffffffffffffffffffffffffff1673ffffffffffffffffffffffffffffffffffffffff16815260200190815260200160002060008373ffffffffffffffffffffffffffffffffffffffff1673ffffffffffffffffffffffffffffffffffffffff16815260200190815260200160002054905092915050565b600560009054906101000a900473ffffffffffffffffffffffffffffffffffffffff1681565b600033905090565b600073ffffffffffffffffffffffffffffffffffffffff168373ffffffffffffffffffffffffffffffffffffffff161415610fa4576040517f08c379a0000000000000000000000000000000000000000000000000000000008152600401610f9b90611f04565b60405180910390fd5b600073ffffffffffffffffffffffffffffffffffffffff168273ffffffffffffffffffffffffffffffffffffffff161415611014576040517f08c379a000000000000000000000000000000000000000000000000000000000815260040161100b90611dc4565b60405180910390fd5b80600160008573ffffffffffffffffffffffffffffffffffffffff1673ffffffffffffffffffffffffffffffffffffffff16815260200190815260200160002060008473ffffffffffffffffffffffffffffffffffffffff1673ffffffffffffffffffffffffffffffffffffffff168152602001908152602001600020819055508173ffffffffffffffffffffffffffffffffffffffff168373ffffffffffffffffffffffffffffffffffffffff167f8c5be1e5ebec7d5bd14f71427d1e84f3dd0314c0f7b2291e5b200ac8c7c3b925836040516110f29190611f84565b60405180910390a3505050565b600073ffffffffffffffffffffffffffffffffffffffff168273ffffffffffffffffffffffffffffffffffffffff16141561116f576040517f08c379a000000000000000000000000000000000000000000000000000000000815260040161116690611ec4565b60405180910390fd5b61117b82600083611743565b60008060008473ffffffffffffffffffffffffffffffffffffffff1673ffffffffffffffffffffffffffffffffffffffff16815260200190815260200160002054905081811015611201576040517f08c379a00000000000000000000000000000000000000000000000000000000081526004016111f890611da4565b60405180910390fd5b8181036000808573ffffffffffffffffffffffffffffffffffffffff1673ffffffffffffffffffffffffffffffffffffffff168152602001908152602001600020819055508160026000828254611258919061202c565b92505081905550600073ffffffffffffffffffffffffffffffffffffffff168373ffffffffffffffffffffffffffffffffffffffff167fddf252ad1be2c89b69c2b068fc378daa952ba7f163c4a11628f55a4df523b3ef846040516112bd9190611f84565b60405180910390a36112d183600084611748565b505050565b60006112e28484610e7f565b90507fffffffffffffffffffffffffffffffffffffffffffffffffffffffffffffffff811461135c578181101561134e576040517f08c379a000000000000000000000000000000000000000000000000000000000815260040161134590611de4565b60405180910390fd5b61135b8484848403610f34565b5b50505050565b600073ffffffffffffffffffffffffffffffffffffffff168373ffffffffffffffffffffffffffffffffffffffff1614156113d2576040517f08c379a00000000000000000000000000000000000000000000000000000000081526004016113c990611ee4565b60405180910390fd5b600073ffffffffffffffffffffffffffffffffffffffff168273ffffffffffffffffffffffffffffffffffffffff161415611442576040517f08c379a000000000000000000000000000000000000000000000000000000000815260040161143990611d84565b60405180910390fd5b61144d838383611743565b60008060008573ffffffffffffffffffffffffffffffffffffffff1673ffffffffffffffffffffffffffffffffffffffff168152602001908152602001600020549050818110156114d3576040517f08c379a00000000000000000000000000000000000000000000000000000000081526004016114ca90611e04565b60405180910390fd5b8181036000808673ffffffffffffffffffffffffffffffffffffffff1673ffffffffffffffffffffffffffffffffffffffff16815260200190815260200160002081905550816000808573ffffffffffffffffffffffffffffffffffffffff1673ffffffffffffffffffffffffffffffffffffffff16815260200190815260200160002060008282546115669190611fd6565b925050819055508273ffffffffffffffffffffffffffffffffffffffff168473ffffffffffffffffffffffffffffffffffffffff167fddf252ad1be2c89b69c2b068fc378daa952ba7f163c4a11628f55a4df523b3ef846040516115ca9190611f84565b60405180910390a36115dd848484611748565b50505050565b600073ffffffffffffffffffffffffffffffffffffffff168273ffffffffffffffffffffffffffffffffffffffff161415611653576040517f08c379a000000000000000000000000000000000000000000000000000000000815260040161164a90611f64565b60405180910390fd5b61165f60008383611743565b80600260008282546116719190611fd6565b92505081905550806000808473ffffffffffffffffffffffffffffffffffffffff1673ffffffffffffffffffffffffffffffffffffffff16815260200190815260200160002060008282546116c69190611fd6565b925050819055508173ffffffffffffffffffffffffffffffffffffffff16600073ffffffffffffffffffffffffffffffffffffffff167fddf252ad1be2c89b69c2b068fc378daa952ba7f163c4a11628f55a4df523b3ef8360405161172b9190611f84565b60405180910390a361173f60008383611748565b5050565b505050565b505050565b60008135905061175c816125d6565b92915050565b600081519050611771816125ed565b92915050565b60008083601f84011261178d5761178c6121f1565b5b8235905067ffffffffffffffff8111156117aa576117a96121ec565b5b6020830191508360018202830111156117c6576117c56121f6565b5b9250929050565b6000813590506117dc81612604565b92915050565b6000602082840312156117f8576117f7612200565b5b60006118068482850161174d565b91505092915050565b6000806040838503121561182657611825612200565b5b60006118348582860161174d565b92505060206118458582860161174d565b9150509250929050565b60008060006060848603121561186857611867612200565b5b60006118768682870161174d565b93505060206118878682870161174d565b9250506040611898868287016117cd565b9150509250925092565b6000806000806000608086880312156118be576118bd612200565b5b60006118cc8882890161174d565b95505060206118dd8882890161174d565b94505060406118ee888289016117cd565b935050606086013567ffffffffffffffff81111561190f5761190e6121fb565b5b61191b88828901611777565b92509250509295509295909350565b6000806040838503121561194157611940612200565b5b600061194f8582860161174d565b9250506020611960858286016117cd565b9150509250929050565b6000602082840312156119805761197f612200565b5b600061198e84828501611762565b91505092915050565b6000602082840312156119ad576119ac612200565b5b60006119bb848285016117cd565b91505092915050565b6119cd81612060565b82525050565b6119dc81612072565b82525050565b6119eb8161207e565b82525050565b6119fa816120e1565b82525050565b611a09816120f3565b82525050565b6000611a1a82611fba565b611a248185611fc5565b9350611a34818560208601612129565b611a3d81612205565b840191505092915050565b6000611a55602383611fc5565b9150611a6082612216565b604082019050919050565b6000611a78602283611fc5565b9150611a8382612265565b604082019050919050565b6000611a9b602283611fc5565b9150611aa6826122b4565b604082019050919050565b6000611abe601d83611fc5565b9150611ac982612303565b602082019050919050565b6000611ae1602683611fc5565b9150611aec8261232c565b604082019050919050565b6000611b04601783611fc5565b9150611b0f8261237b565b602082019050919050565b6000611b27601283611fc5565b9150611b32826123a4565b602082019050919050565b6000611b4a601583611fc5565b9150611b55826123cd565b602082019050919050565b6000611b6d601c83611fc5565b9150611b78826123f6565b602082019050919050565b6000611b90601983611fc5565b9150611b9b8261241f565b602082019050919050565b6000611bb3602183611fc5565b9150611bbe82612448565b604082019050919050565b6000611bd6602583611fc5565b9150611be182612497565b604082019050919050565b6000611bf9602483611fc5565b9150611c04826124e6565b604082019050919050565b6000611c1c601683611fc5565b9150611c2782612535565b602082019050919050565b6000611c3f602583611fc5565b9150611c4a8261255e565b604082019050919050565b6000611c62601f83611fc5565b9150611c6d826125ad565b602082019050919050565b611c81816120ca565b82525050565b611c90816120d4565b82525050565b6000606082019050611cab60008301866119c4565b611cb860208301856119c4565b611cc56040830184611c78565b949350505050565b6000604082019050611ce260008301856119c4565b611cef6020830184611c78565b9392505050565b6000602082019050611d0b60008301846119d3565b92915050565b6000602082019050611d2660008301846119e2565b92915050565b6000602082019050611d4160008301846119f1565b92915050565b6000602082019050611d5c6000830184611a00565b92915050565b60006020820190508181036000830152611d7c8184611a0f565b905092915050565b60006020820190508181036000830152611d9d81611a48565b9050919050565b60006020820190508181036000830152611dbd81611a6b565b9050919050565b60006020820190508181036000830152611ddd81611a8e565b9050919050565b60006020820190508181036000830152611dfd81611ab1565b9050919050565b60006020820190508181036000830152611e1d81611ad4565b9050919050565b60006020820190508181036000830152611e3d81611af7565b9050919050565b60006020820190508181036000830152611e5d81611b1a565b9050919050565b60006020820190508181036000830152611e7d81611b3d565b9050919050565b60006020820190508181036000830152611e9d81611b60565b9050919050565b60006020820190508181036000830152611ebd81611b83565b9050919050565b60006020820190508181036000830152611edd81611ba6565b9050919050565b60006020820190508181036000830152611efd81611bc9565b9050919050565b60006020820190508181036000830152611f1d81611bec565b9050919050565b60006020820190508181036000830152611f3d81611c0f565b9050919050565b60006020820190508181036000830152611f5d81611c32565b9050919050565b60006020820190508181036000830152611f7d81611c55565b9050919050565b6000602082019050611f996000830184611c78565b92915050565b6000602082019050611fb46000830184611c87565b92915050565b600081519050919050565b600082825260208201905092915050565b6000611fe1826120ca565b9150611fec836120ca565b9250827fffffffffffffffffffffffffffffffffffffffffffffffffffffffffffffffff038211156120215761202061218e565b5b828201905092915050565b6000612037826120ca565b9150612042836120ca565b9250828210156120555761205461218e565b5b828203905092915050565b600061206b826120aa565b9050919050565b60008115159050919050565b60007fffffffff0000000000000000000000000000000000000000000000000000000082169050919050565b600073ffffffffffffffffffffffffffffffffffffffff82169050919050565b6000819050919050565b600060ff82169050919050565b60006120ec82612105565b9050919050565b60006120fe82612105565b9050919050565b600061211082612117565b9050919050565b6000612122826120aa565b9050919050565b60005b8381101561214757808201518184015260208101905061212c565b83811115612156576000848401525b50505050565b6000600282049050600182168061217457607f821691505b60208210811415612188576121876121bd565b5b50919050565b7f4e487b7100000000000000000000000000000000000000000000000000000000600052601160045260246000fd5b7f4e487b7100000000000000000000000000000000000000000000000000000000600052602260045260246000fd5b600080fd5b600080fd5b600080fd5b600080fd5b600080fd5b6000601f19601f8301169050919050565b7f45524332303a207472616e7366657220746f20746865207a65726f206164647260008201527f6573730000000000000000000000000000000000000000000000000000000000602082015250565b7f45524332303a206275726e20616d6f756e7420657863656564732062616c616e60008201527f6365000000000000000000000000000000000000000000000000000000000000602082015250565b7f45524332303a20617070726f766520746f20746865207a65726f20616464726560008201527f7373000000000000000000000000000000000000000000000000000000000000602082015250565b7f45524332303a20696e73756666696369656e7420616c6c6f77616e6365000000600082015250565b7f45524332303a207472616e7366657220616d6f756e742065786365656473206260008201527f616c616e63650000000000000000000000000000000000000000000000000000602082015250565b7f4e6f7420656e6f75676820736861726573206c65667421000000000000000000600082015250565b7f436f6e7472616374204973205061757365640000000000000000000000000000600082015250565b7f54617267657420416c7265616479205261697365640000000000000000000000600082015250565b7f4f6e6c792041646d696e2043616e2050617573652f556e706175736500000000600082015250565b7f4e6f7420477265617420456e6f7567682042616c616e63652100000000000000600082015250565b7f45524332303a206275726e2066726f6d20746865207a65726f2061646472657360008201527f7300000000000000000000000000000000000000000000000000000000000000602082015250565b7f45524332303a207472616e736665722066726f6d20746865207a65726f20616460008201527f6472657373000000000000000000000000000000000000000000000000000000602082015250565b7f45524332303a20617070726f76652066726f6d20746865207a65726f2061646460008201527f7265737300000000000000000000000000000000000000000000000000000000602082015250565b7f446f204e6f7420486176652052465420537570706c7900000000000000000000600082015250565b7f45524332303a2064656372656173656420616c6c6f77616e63652062656c6f7760008201527f207a65726f000000000000000000000000000000000000000000000000000000602082015250565b7f45524332303a206d696e7420746f20746865207a65726f206164647265737300600082015250565b6125df81612060565b81146125ea57600080fd5b50565b6125f681612072565b811461260157600080fd5b50565b61260d816120ca565b811461261857600080fd5b5056fea2646970667358221220844515ac1a49d62e72967f23d8230898a7d0083bef62769149c6b04d006282dc64736f6c63430008070033a264697066735822122070951ec8ff28750b92352d920e324fb949320e0cfb5d24029e4beef0ca30c2d564736f6c63430008070033546865205370696e672044414f2050726f6a656374204d61726b6574706c6163652054657374",
  "immutableReferences": {},
  "source": "// SPDX-License-Identifier: UNLICENSED\npragma solidity 0.8.7;\n\n// import \"@openzeppelin/contracts/token/ERC721/IERC721.sol\";\n// import \"@openzeppelin/contracts/token/ERC721/extensions/ERC721Enumerable.sol\";\n\nimport \"../node_modules/openzeppelin-solidity/contracts/token/ERC721/IERC721.sol\";\nimport \"../node_modules/openzeppelin-solidity/contracts/token/ERC721/extensions/ERC721Enumerable.sol\";\nimport \"./FundRaising.sol\";\n\n// The terms \"project\" and \"projectMarketPlace\" are synonymous\ncontract ProjectMarketPlace is  ERC721Enumerable {\n    mapping(uint256 => string ) public idToTokenURI;\n\n    constructor() ERC721(\"The Sping DAO Project Marketplace Test\", \"SpringDAOtest\") {}\n\n    function createProject(uint256 targetAmount, string calldata projectName, string calldata projectSymbol, string calldata _tokenURI, uint256 dataAccessThreshold, address DAI) external returns (uint256) {\n        address newProjectAddress = address(new FundRaising(targetAmount, projectName, projectSymbol, dataAccessThreshold, msg.sender, DAI));\n        uint256 tokenID = uint256(uint160(newProjectAddress));\n        _safeMint( newProjectAddress , tokenID ); // think should transfer ownership to the projectfundraising contract\n        idToTokenURI[tokenID] = _tokenURI; \n        return tokenID;\n    }\n\n    function tokenURI( uint256 tokenID ) public view virtual override returns (string memory){\n        return idToTokenURI[tokenID];\n    }\n\n    function findprojectContract( uint256 tokenID ) public pure returns ( address ){\n        return address(uint160(tokenID));\n    }\n}",
  "sourcePath": "/Users/gus/springdao_nfts/ProjectMarketplace/contracts/ProjectMarketplace.sol",
  "compiler": {
    "name": "solc",
    "version": "0.8.7+commit.e28d00a7.Emscripten.clang"
  },
  "schemaVersion": "3.4.8",
  "updatedAt": "2022-08-05T10:38:49.401Z",
  "networkType": "ethereum",
  "devdoc": {
    "kind": "dev",
    "methods": {
      "approve(address,uint256)": {
        "details": "See {IERC721-approve}."
      },
      "balanceOf(address)": {
        "details": "See {IERC721-balanceOf}."
      },
      "getApproved(uint256)": {
        "details": "See {IERC721-getApproved}."
      },
      "isApprovedForAll(address,address)": {
        "details": "See {IERC721-isApprovedForAll}."
      },
      "name()": {
        "details": "See {IERC721Metadata-name}."
      },
      "ownerOf(uint256)": {
        "details": "See {IERC721-ownerOf}."
      },
      "safeTransferFrom(address,address,uint256)": {
        "details": "See {IERC721-safeTransferFrom}."
      },
      "safeTransferFrom(address,address,uint256,bytes)": {
        "details": "See {IERC721-safeTransferFrom}."
      },
      "setApprovalForAll(address,bool)": {
        "details": "See {IERC721-setApprovalForAll}."
      },
      "supportsInterface(bytes4)": {
        "details": "See {IERC165-supportsInterface}."
      },
      "symbol()": {
        "details": "See {IERC721Metadata-symbol}."
      },
      "tokenByIndex(uint256)": {
        "details": "See {IERC721Enumerable-tokenByIndex}."
      },
      "tokenOfOwnerByIndex(address,uint256)": {
        "details": "See {IERC721Enumerable-tokenOfOwnerByIndex}."
      },
      "totalSupply()": {
        "details": "See {IERC721Enumerable-totalSupply}."
      },
      "transferFrom(address,address,uint256)": {
        "details": "See {IERC721-transferFrom}."
      }
    },
    "version": 1
  },
  "userdoc": {
    "kind": "user",
    "methods": {},
    "version": 1
  }
}