{
  "contractName": "ProjectMarketPlace",
  "abi": [
    {
      "inputs": [
        {
          "internalType": "string",
          "name": "springDAOMetadataURI",
          "type": "string"
        }
      ],
      "stateMutability": "nonpayable",
      "type": "constructor"
    },
    {
      "anonymous": false,
      "inputs": [
        {
          "indexed": true,
          "internalType": "address",
          "name": "owner",
          "type": "address"
        },
        {
          "indexed": true,
          "internalType": "address",
          "name": "approved",
          "type": "address"
        },
        {
          "indexed": true,
          "internalType": "uint256",
          "name": "tokenId",
          "type": "uint256"
        }
      ],
      "name": "Approval",
      "type": "event"
    },
    {
      "anonymous": false,
      "inputs": [
        {
          "indexed": true,
          "internalType": "address",
          "name": "owner",
          "type": "address"
        },
        {
          "indexed": true,
          "internalType": "address",
          "name": "operator",
          "type": "address"
        },
        {
          "indexed": false,
          "internalType": "bool",
          "name": "approved",
          "type": "bool"
        }
      ],
      "name": "ApprovalForAll",
      "type": "event"
    },
    {
      "anonymous": false,
      "inputs": [
        {
          "indexed": true,
          "internalType": "address",
          "name": "from",
          "type": "address"
        },
        {
          "indexed": true,
          "internalType": "address",
          "name": "to",
          "type": "address"
        },
        {
          "indexed": true,
          "internalType": "uint256",
          "name": "tokenId",
          "type": "uint256"
        }
      ],
      "name": "Transfer",
      "type": "event"
    },
    {
      "inputs": [
        {
          "internalType": "address",
          "name": "to",
          "type": "address"
        },
        {
          "internalType": "uint256",
          "name": "tokenId",
          "type": "uint256"
        }
      ],
      "name": "approve",
      "outputs": [],
      "stateMutability": "nonpayable",
      "type": "function"
    },
    {
      "inputs": [
        {
          "internalType": "address",
          "name": "owner",
          "type": "address"
        }
      ],
      "name": "balanceOf",
      "outputs": [
        {
          "internalType": "uint256",
          "name": "",
          "type": "uint256"
        }
      ],
      "stateMutability": "view",
      "type": "function",
      "constant": true
    },
    {
      "inputs": [],
      "name": "baseURI",
      "outputs": [
        {
          "internalType": "string",
          "name": "",
          "type": "string"
        }
      ],
      "stateMutability": "view",
      "type": "function",
      "constant": true
    },
    {
      "inputs": [
        {
          "internalType": "uint256",
          "name": "tokenId",
          "type": "uint256"
        }
      ],
      "name": "getApproved",
      "outputs": [
        {
          "internalType": "address",
          "name": "",
          "type": "address"
        }
      ],
      "stateMutability": "view",
      "type": "function",
      "constant": true
    },
    {
      "inputs": [
        {
          "internalType": "address",
          "name": "owner",
          "type": "address"
        },
        {
          "internalType": "address",
          "name": "operator",
          "type": "address"
        }
      ],
      "name": "isApprovedForAll",
      "outputs": [
        {
          "internalType": "bool",
          "name": "",
          "type": "bool"
        }
      ],
      "stateMutability": "view",
      "type": "function",
      "constant": true
    },
    {
      "inputs": [],
      "name": "name",
      "outputs": [
        {
          "internalType": "string",
          "name": "",
          "type": "string"
        }
      ],
      "stateMutability": "view",
      "type": "function",
      "constant": true
    },
    {
      "inputs": [
        {
          "internalType": "uint256",
          "name": "tokenId",
          "type": "uint256"
        }
      ],
      "name": "ownerOf",
      "outputs": [
        {
          "internalType": "address",
          "name": "",
          "type": "address"
        }
      ],
      "stateMutability": "view",
      "type": "function",
      "constant": true
    },
    {
      "inputs": [
        {
          "internalType": "address",
          "name": "from",
          "type": "address"
        },
        {
          "internalType": "address",
          "name": "to",
          "type": "address"
        },
        {
          "internalType": "uint256",
          "name": "tokenId",
          "type": "uint256"
        }
      ],
      "name": "safeTransferFrom",
      "outputs": [],
      "stateMutability": "nonpayable",
      "type": "function"
    },
    {
      "inputs": [
        {
          "internalType": "address",
          "name": "from",
          "type": "address"
        },
        {
          "internalType": "address",
          "name": "to",
          "type": "address"
        },
        {
          "internalType": "uint256",
          "name": "tokenId",
          "type": "uint256"
        },
        {
          "internalType": "bytes",
          "name": "_data",
          "type": "bytes"
        }
      ],
      "name": "safeTransferFrom",
      "outputs": [],
      "stateMutability": "nonpayable",
      "type": "function"
    },
    {
      "inputs": [
        {
          "internalType": "address",
          "name": "operator",
          "type": "address"
        },
        {
          "internalType": "bool",
          "name": "approved",
          "type": "bool"
        }
      ],
      "name": "setApprovalForAll",
      "outputs": [],
      "stateMutability": "nonpayable",
      "type": "function"
    },
    {
      "inputs": [
        {
          "internalType": "bytes4",
          "name": "interfaceId",
          "type": "bytes4"
        }
      ],
      "name": "supportsInterface",
      "outputs": [
        {
          "internalType": "bool",
          "name": "",
          "type": "bool"
        }
      ],
      "stateMutability": "view",
      "type": "function",
      "constant": true
    },
    {
      "inputs": [],
      "name": "symbol",
      "outputs": [
        {
          "internalType": "string",
          "name": "",
          "type": "string"
        }
      ],
      "stateMutability": "view",
      "type": "function",
      "constant": true
    },
    {
      "inputs": [
        {
          "internalType": "uint256",
          "name": "index",
          "type": "uint256"
        }
      ],
      "name": "tokenByIndex",
      "outputs": [
        {
          "internalType": "uint256",
          "name": "",
          "type": "uint256"
        }
      ],
      "stateMutability": "view",
      "type": "function",
      "constant": true
    },
    {
      "inputs": [
        {
          "internalType": "address",
          "name": "owner",
          "type": "address"
        },
        {
          "internalType": "uint256",
          "name": "index",
          "type": "uint256"
        }
      ],
      "name": "tokenOfOwnerByIndex",
      "outputs": [
        {
          "internalType": "uint256",
          "name": "",
          "type": "uint256"
        }
      ],
      "stateMutability": "view",
      "type": "function",
      "constant": true
    },
    {
      "inputs": [
        {
          "internalType": "uint256",
          "name": "tokenId",
          "type": "uint256"
        }
      ],
      "name": "tokenURI",
      "outputs": [
        {
          "internalType": "string",
          "name": "",
          "type": "string"
        }
      ],
      "stateMutability": "view",
      "type": "function",
      "constant": true
    },
    {
      "inputs": [],
      "name": "totalSupply",
      "outputs": [
        {
          "internalType": "uint256",
          "name": "",
          "type": "uint256"
        }
      ],
      "stateMutability": "view",
      "type": "function",
      "constant": true
    },
    {
      "inputs": [
        {
          "internalType": "address",
          "name": "from",
          "type": "address"
        },
        {
          "internalType": "address",
          "name": "to",
          "type": "address"
        },
        {
          "internalType": "uint256",
          "name": "tokenId",
          "type": "uint256"
        }
      ],
      "name": "transferFrom",
      "outputs": [],
      "stateMutability": "nonpayable",
      "type": "function"
    },
    {
      "inputs": [
        {
          "internalType": "uint256",
          "name": "targetAmount",
          "type": "uint256"
        },
        {
          "internalType": "string",
          "name": "projectName",
          "type": "string"
        },
        {
          "internalType": "string",
          "name": "projectSymbol",
          "type": "string"
        },
        {
          "internalType": "address",
          "name": "testDAI",
          "type": "address"
        }
      ],
      "name": "createProject",
      "outputs": [],
      "stateMutability": "nonpayable",
      "type": "function"
    },
    {
      "inputs": [
        {
          "internalType": "uint256",
          "name": "tokenID",
          "type": "uint256"
        }
      ],
      "name": "findprojectContract",
      "outputs": [
        {
          "internalType": "address",
          "name": "",
          "type": "address"
        }
      ],
      "stateMutability": "pure",
      "type": "function",
      "constant": true
    }
  ],
  "bytecode": "0x60806040523480156200001157600080fd5b506040516200609438038062006094833981810160405281019062000037919062000209565b6040518060600160405280602681526020016200606e602691396040518060400160405280600d81526020017f537072696e6744414f746573740000000000000000000000000000000000000081525081600090805190602001906200009f929190620000db565b508060019080519060200190620000b8929190620000db565b50505080600a9080519060200190620000d3929190620000db565b5050620003de565b828054620000e990620002ef565b90600052602060002090601f0160209004810192826200010d576000855562000159565b82601f106200012857805160ff191683800117855562000159565b8280016001018555821562000159579182015b82811115620001585782518255916020019190600101906200013b565b5b5090506200016891906200016c565b5090565b5b80821115620001875760008160009055506001016200016d565b5090565b6000620001a26200019c8462000283565b6200025a565b905082815260208101848484011115620001c157620001c0620003be565b5b620001ce848285620002b9565b509392505050565b600082601f830112620001ee57620001ed620003b9565b5b8151620002008482602086016200018b565b91505092915050565b600060208284031215620002225762000221620003c8565b5b600082015167ffffffffffffffff811115620002435762000242620003c3565b5b6200025184828501620001d6565b91505092915050565b60006200026662000279565b905062000274828262000325565b919050565b6000604051905090565b600067ffffffffffffffff821115620002a157620002a06200038a565b5b620002ac82620003cd565b9050602081019050919050565b60005b83811015620002d9578082015181840152602081019050620002bc565b83811115620002e9576000848401525b50505050565b600060028204905060018216806200030857607f821691505b602082108114156200031f576200031e6200035b565b5b50919050565b6200033082620003cd565b810181811067ffffffffffffffff821117156200035257620003516200038a565b5b80604052505050565b7f4e487b7100000000000000000000000000000000000000000000000000000000600052602260045260246000fd5b7f4e487b7100000000000000000000000000000000000000000000000000000000600052604160045260246000fd5b600080fd5b600080fd5b600080fd5b600080fd5b6000601f19601f8301169050919050565b615c8080620003ee6000396000f3fe60806040523480156200001157600080fd5b50600436106200013c5760003560e01c80634f6ccce711620000bd57806395d89b41116200007b57806395d89b4114620003a1578063a22cb46514620003c3578063b88d4fde14620003e3578063c87b56dd1462000403578063e985e9c51462000439576200013c565b80634f6ccce714620002bd5780635ffa56e214620002f35780636352211e14620003135780636c0360eb146200034957806370a08231146200036b576200013c565b80631628a86f116200010b5780631628a86f14620001ef57806318160ddd146200022557806323b872dd14620002475780632f745c59146200026757806342842e0e146200029d576200013c565b806301ffc9a7146200014157806306fdde031462000177578063081812fc1462000199578063095ea7b314620001cf575b600080fd5b6200015f600480360381019062000159919062002379565b6200046f565b6040516200016e9190620028ef565b60405180910390f35b62000181620004ec565b6040516200019091906200290c565b60405180910390f35b620001b76004803603810190620001b19190620023dd565b62000586565b604051620001c691906200287e565b60405180910390f35b620001ed6004803603810190620001e7919062002332565b62000610565b005b6200020d6004803603810190620002079190620023dd565b62000739565b6040516200021c91906200287e565b60405180910390f35b6200022f62000743565b6040516200023e919062002b50565b60405180910390f35b6200026560048036038101906200025f9190620021fe565b62000750565b005b6200028560048036038101906200027f919062002332565b620007b9565b60405162000294919062002b50565b60405180910390f35b620002bb6004803603810190620002b59190620021fe565b62000863565b005b620002db6004803603810190620002d59190620023dd565b62000885565b604051620002ea919062002b50565b60405180910390f35b6200031160048036038101906200030b91906200240f565b620008fe565b005b6200033160048036038101906200032b9190620023dd565b62000972565b6040516200034091906200287e565b60405180910390f35b6200035362000a27565b6040516200036291906200290c565b60405180910390f35b62000389600480360381019062000383919062002185565b62000abd565b60405162000398919062002b50565b60405180910390f35b620003ab62000b78565b604051620003ba91906200290c565b60405180910390f35b620003e16004803603810190620003db9190620022eb565b62000c12565b005b620004016004803603810190620003fb91906200225a565b62000c2c565b005b6200042160048036038101906200041b9190620023dd565b62000c97565b6040516200043091906200290c565b60405180910390f35b620004576004803603810190620004519190620021b7565b62000d4b565b604051620004669190620028ef565b60405180910390f35b60007f780e9d63000000000000000000000000000000000000000000000000000000007bffffffffffffffffffffffffffffffffffffffffffffffffffffffff1916827bffffffffffffffffffffffffffffffffffffffffffffffffffffffff19161480620004e55750620004e48262000ddf565b5b9050919050565b606060008054620004fd9062002e09565b80601f01602080910402602001604051908101604052809291908181526020018280546200052b9062002e09565b80156200057c5780601f1062000550576101008083540402835291602001916200057c565b820191906000526020600020905b8154815290600101906020018083116200055e57829003601f168201915b5050505050905090565b6000620005938262000ec5565b620005d5576040517f08c379a0000000000000000000000000000000000000000000000000000000008152600401620005cc9062002aa6565b60405180910390fd5b6004600083815260200190815260200160002060009054906101000a900473ffffffffffffffffffffffffffffffffffffffff169050919050565b60006200061d8262000972565b90508073ffffffffffffffffffffffffffffffffffffffff168373ffffffffffffffffffffffffffffffffffffffff16141562000691576040517f08c379a0000000000000000000000000000000000000000000000000000000008152600401620006889062002aea565b60405180910390fd5b8073ffffffffffffffffffffffffffffffffffffffff16620006b262000f31565b73ffffffffffffffffffffffffffffffffffffffff161480620006e65750620006e581620006df62000f31565b62000d4b565b5b62000728576040517f08c379a00000000000000000000000000000000000000000000000000000000081526004016200071f9062002a1e565b60405180910390fd5b62000734838362000f39565b505050565b6000819050919050565b6000600880549050905090565b620007656200075e62000f31565b8262000ff4565b620007a7576040517f08c379a00000000000000000000000000000000000000000000000000000000081526004016200079e9062002b0c565b60405180910390fd5b620007b4838383620010df565b505050565b6000620007c68362000abd565b82106200080a576040517f08c379a0000000000000000000000000000000000000000000000000000000008152600401620008019062002930565b60405180910390fd5b600660008473ffffffffffffffffffffffffffffffffffffffff1673ffffffffffffffffffffffffffffffffffffffff168152602001908152602001600020600083815260200190815260200160002054905092915050565b620008808383836040518060200160405280600081525062000c2c565b505050565b60006200089162000743565b8210620008d5576040517f08c379a0000000000000000000000000000000000000000000000000000000008152600401620008cc9062002b2e565b60405180910390fd5b60088281548110620008ec57620008eb62002fb7565b5b90600052602060002001549050919050565b600086868686863387604051620009159062002027565b62000927979695949392919062002b6d565b604051809103906000f08015801562000944573d6000803e3d6000fd5b50905062000969818273ffffffffffffffffffffffffffffffffffffffff1662001358565b50505050505050565b6000806002600084815260200190815260200160002060009054906101000a900473ffffffffffffffffffffffffffffffffffffffff169050600073ffffffffffffffffffffffffffffffffffffffff168173ffffffffffffffffffffffffffffffffffffffff16141562000a1e576040517f08c379a000000000000000000000000000000000000000000000000000000000815260040162000a159062002a62565b60405180910390fd5b80915050919050565b600a805462000a369062002e09565b80601f016020809104026020016040519081016040528092919081815260200182805462000a649062002e09565b801562000ab55780601f1062000a895761010080835404028352916020019162000ab5565b820191906000526020600020905b81548152906001019060200180831162000a9757829003601f168201915b505050505081565b60008073ffffffffffffffffffffffffffffffffffffffff168273ffffffffffffffffffffffffffffffffffffffff16141562000b31576040517f08c379a000000000000000000000000000000000000000000000000000000000815260040162000b289062002a40565b60405180910390fd5b600360008373ffffffffffffffffffffffffffffffffffffffff1673ffffffffffffffffffffffffffffffffffffffff168152602001908152602001600020549050919050565b60606001805462000b899062002e09565b80601f016020809104026020016040519081016040528092919081815260200182805462000bb79062002e09565b801562000c085780601f1062000bdc5761010080835404028352916020019162000c08565b820191906000526020600020905b81548152906001019060200180831162000bea57829003601f168201915b5050505050905090565b62000c2862000c2062000f31565b838362001378565b5050565b62000c4162000c3a62000f31565b8362000ff4565b62000c83576040517f08c379a000000000000000000000000000000000000000000000000000000000815260040162000c7a9062002b0c565b60405180910390fd5b62000c9184848484620014ea565b50505050565b606062000ca48262000ec5565b62000ce6576040517f08c379a000000000000000000000000000000000000000000000000000000000815260040162000cdd9062002ac8565b60405180910390fd5b600062000cf26200154d565b9050600081511162000d14576040518060200160405280600081525062000d43565b8062000d2084620015e7565b60405160200162000d3392919062002856565b6040516020818303038152906040525b915050919050565b6000600560008473ffffffffffffffffffffffffffffffffffffffff1673ffffffffffffffffffffffffffffffffffffffff16815260200190815260200160002060008373ffffffffffffffffffffffffffffffffffffffff1673ffffffffffffffffffffffffffffffffffffffff16815260200190815260200160002060009054906101000a900460ff16905092915050565b60007f80ac58cd000000000000000000000000000000000000000000000000000000007bffffffffffffffffffffffffffffffffffffffffffffffffffffffff1916827bffffffffffffffffffffffffffffffffffffffffffffffffffffffff1916148062000eab57507f5b5e139f000000000000000000000000000000000000000000000000000000007bffffffffffffffffffffffffffffffffffffffffffffffffffffffff1916827bffffffffffffffffffffffffffffffffffffffffffffffffffffffff1916145b8062000ebe575062000ebd8262001761565b5b9050919050565b60008073ffffffffffffffffffffffffffffffffffffffff166002600084815260200190815260200160002060009054906101000a900473ffffffffffffffffffffffffffffffffffffffff1673ffffffffffffffffffffffffffffffffffffffff1614159050919050565b600033905090565b816004600083815260200190815260200160002060006101000a81548173ffffffffffffffffffffffffffffffffffffffff021916908373ffffffffffffffffffffffffffffffffffffffff160217905550808273ffffffffffffffffffffffffffffffffffffffff1662000fae8362000972565b73ffffffffffffffffffffffffffffffffffffffff167f8c5be1e5ebec7d5bd14f71427d1e84f3dd0314c0f7b2291e5b200ac8c7c3b92560405160405180910390a45050565b6000620010018262000ec5565b62001043576040517f08c379a00000000000000000000000000000000000000000000000000000000081526004016200103a90620029fc565b60405180910390fd5b6000620010508362000972565b90508073ffffffffffffffffffffffffffffffffffffffff168473ffffffffffffffffffffffffffffffffffffffff16148062001095575062001094818562000d4b565b5b80620010d657508373ffffffffffffffffffffffffffffffffffffffff16620010be8462000586565b73ffffffffffffffffffffffffffffffffffffffff16145b91505092915050565b8273ffffffffffffffffffffffffffffffffffffffff16620011018262000972565b73ffffffffffffffffffffffffffffffffffffffff16146200115a576040517f08c379a0000000000000000000000000000000000000000000000000000000008152600401620011519062002974565b60405180910390fd5b600073ffffffffffffffffffffffffffffffffffffffff168273ffffffffffffffffffffffffffffffffffffffff161415620011cd576040517f08c379a0000000000000000000000000000000000000000000000000000000008152600401620011c490620029b8565b60405180910390fd5b620011da838383620017cb565b620011e760008262000f39565b6001600360008573ffffffffffffffffffffffffffffffffffffffff1673ffffffffffffffffffffffffffffffffffffffff168152602001908152602001600020600082825462001239919062002d13565b925050819055506001600360008473ffffffffffffffffffffffffffffffffffffffff1673ffffffffffffffffffffffffffffffffffffffff168152602001908152602001600020600082825462001292919062002c7e565b92505081905550816002600083815260200190815260200160002060006101000a81548173ffffffffffffffffffffffffffffffffffffffff021916908373ffffffffffffffffffffffffffffffffffffffff160217905550808273ffffffffffffffffffffffffffffffffffffffff168473ffffffffffffffffffffffffffffffffffffffff167fddf252ad1be2c89b69c2b068fc378daa952ba7f163c4a11628f55a4df523b3ef60405160405180910390a462001353838383620018ef565b505050565b62001374828260405180602001604052806000815250620018f4565b5050565b8173ffffffffffffffffffffffffffffffffffffffff168373ffffffffffffffffffffffffffffffffffffffff161415620013ea576040517f08c379a0000000000000000000000000000000000000000000000000000000008152600401620013e190620029da565b60405180910390fd5b80600560008573ffffffffffffffffffffffffffffffffffffffff1673ffffffffffffffffffffffffffffffffffffffff16815260200190815260200160002060008473ffffffffffffffffffffffffffffffffffffffff1673ffffffffffffffffffffffffffffffffffffffff16815260200190815260200160002060006101000a81548160ff0219169083151502179055508173ffffffffffffffffffffffffffffffffffffffff168373ffffffffffffffffffffffffffffffffffffffff167f17307eab39ab6107e8899845ad3d59bd9653f200f220920489ca2b5937696c3183604051620014dd9190620028ef565b60405180910390a3505050565b620014f7848484620010df565b620015058484848462001956565b62001547576040517f08c379a00000000000000000000000000000000000000000000000000000000081526004016200153e9062002952565b60405180910390fd5b50505050565b6060600a80546200155e9062002e09565b80601f01602080910402602001604051908101604052809291908181526020018280546200158c9062002e09565b8015620015dd5780601f10620015b157610100808354040283529160200191620015dd565b820191906000526020600020905b815481529060010190602001808311620015bf57829003601f168201915b5050505050905090565b6060600082141562001631576040518060400160405280600181526020017f300000000000000000000000000000000000000000000000000000000000000081525090506200175c565b600082905060005b60008214620016695780806200164f9062002e75565b915050600a8262001661919062002cdb565b915062001639565b60008167ffffffffffffffff81111562001688576200168762002fe6565b5b6040519080825280601f01601f191660200182016040528015620016bb5781602001600182028036833780820191505090505b5090505b600085146200175557600182620016d7919062002d13565b9150600a85620016e8919062002ec3565b6030620016f6919062002c7e565b60f81b8183815181106200170f576200170e62002fb7565b5b60200101907effffffffffffffffffffffffffffffffffffffffffffffffffffffffffffff1916908160001a905350600a856200174d919062002cdb565b9450620016bf565b8093505050505b919050565b60007f01ffc9a7000000000000000000000000000000000000000000000000000000007bffffffffffffffffffffffffffffffffffffffffffffffffffffffff1916827bffffffffffffffffffffffffffffffffffffffffffffffffffffffff1916149050919050565b620017d883838362001aff565b600073ffffffffffffffffffffffffffffffffffffffff168373ffffffffffffffffffffffffffffffffffffffff1614156200181f57620018198162001b04565b62001861565b8173ffffffffffffffffffffffffffffffffffffffff168373ffffffffffffffffffffffffffffffffffffffff161462001860576200185f838262001b4d565b5b5b600073ffffffffffffffffffffffffffffffffffffffff168273ffffffffffffffffffffffffffffffffffffffff161415620018a857620018a28162001cbf565b620018ea565b8273ffffffffffffffffffffffffffffffffffffffff168273ffffffffffffffffffffffffffffffffffffffff1614620018e957620018e8828262001d9b565b5b5b505050565b505050565b62001900838362001e1c565b6200190f600084848462001956565b62001951576040517f08c379a0000000000000000000000000000000000000000000000000000000008152600401620019489062002952565b60405180910390fd5b505050565b6000620019798473ffffffffffffffffffffffffffffffffffffffff1662002004565b1562001af2578373ffffffffffffffffffffffffffffffffffffffff1663150b7a02620019a562000f31565b8786866040518563ffffffff1660e01b8152600401620019c994939291906200289b565b602060405180830381600087803b158015620019e457600080fd5b505af192505050801562001a1857506040513d601f19601f8201168201806040525081019062001a159190620023ab565b60015b62001aa1573d806000811462001a4b576040519150601f19603f3d011682016040523d82523d6000602084013e62001a50565b606091505b5060008151141562001a99576040517f08c379a000000000000000000000000000000000000000000000000000000000815260040162001a909062002952565b60405180910390fd5b805181602001fd5b63150b7a0260e01b7bffffffffffffffffffffffffffffffffffffffffffffffffffffffff1916817bffffffffffffffffffffffffffffffffffffffffffffffffffffffff19161491505062001af7565b600190505b949350505050565b505050565b6008805490506009600083815260200190815260200160002081905550600881908060018154018082558091505060019003906000526020600020016000909190919091505550565b6000600162001b5c8462000abd565b62001b68919062002d13565b905060006007600084815260200190815260200160002054905081811462001c4e576000600660008673ffffffffffffffffffffffffffffffffffffffff1673ffffffffffffffffffffffffffffffffffffffff168152602001908152602001600020600084815260200190815260200160002054905080600660008773ffffffffffffffffffffffffffffffffffffffff1673ffffffffffffffffffffffffffffffffffffffff168152602001908152602001600020600084815260200190815260200160002081905550816007600083815260200190815260200160002081905550505b6007600084815260200190815260200160002060009055600660008573ffffffffffffffffffffffffffffffffffffffff1673ffffffffffffffffffffffffffffffffffffffff16815260200190815260200160002060008381526020019081526020016000206000905550505050565b6000600160088054905062001cd5919062002d13565b905060006009600084815260200190815260200160002054905060006008838154811062001d085762001d0762002fb7565b5b90600052602060002001549050806008838154811062001d2d5762001d2c62002fb7565b5b90600052602060002001819055508160096000838152602001908152602001600020819055506009600085815260200190815260200160002060009055600880548062001d7f5762001d7e62002f88565b5b6001900381819060005260206000200160009055905550505050565b600062001da88362000abd565b905081600660008573ffffffffffffffffffffffffffffffffffffffff1673ffffffffffffffffffffffffffffffffffffffff168152602001908152602001600020600083815260200190815260200160002081905550806007600084815260200190815260200160002081905550505050565b600073ffffffffffffffffffffffffffffffffffffffff168273ffffffffffffffffffffffffffffffffffffffff16141562001e8f576040517f08c379a000000000000000000000000000000000000000000000000000000000815260040162001e869062002a84565b60405180910390fd5b62001e9a8162000ec5565b1562001edd576040517f08c379a000000000000000000000000000000000000000000000000000000000815260040162001ed49062002996565b60405180910390fd5b62001eeb60008383620017cb565b6001600360008473ffffffffffffffffffffffffffffffffffffffff1673ffffffffffffffffffffffffffffffffffffffff168152602001908152602001600020600082825462001f3d919062002c7e565b92505081905550816002600083815260200190815260200160002060006101000a81548173ffffffffffffffffffffffffffffffffffffffff021916908373ffffffffffffffffffffffffffffffffffffffff160217905550808273ffffffffffffffffffffffffffffffffffffffff16600073ffffffffffffffffffffffffffffffffffffffff167fddf252ad1be2c89b69c2b068fc378daa952ba7f163c4a11628f55a4df523b3ef60405160405180910390a46200200060008383620018ef565b5050565b6000808273ffffffffffffffffffffffffffffffffffffffff163b119050919050565b612720806200352b83390190565b60006200204c620020468462002c05565b62002bdc565b9050828152602081018484840111156200206b576200206a62003024565b5b6200207884828562002dc4565b509392505050565b6000813590506200209181620034c2565b92915050565b600081359050620020a881620034dc565b92915050565b600081359050620020bf81620034f6565b92915050565b600081519050620020d681620034f6565b92915050565b600082601f830112620020f457620020f36200301a565b5b81356200210684826020860162002035565b91505092915050565b60008083601f8401126200212857620021276200301a565b5b8235905067ffffffffffffffff81111562002148576200214762003015565b5b6020830191508360018202830111156200216757620021666200301f565b5b9250929050565b6000813590506200217f8162003510565b92915050565b6000602082840312156200219e576200219d6200302e565b5b6000620021ae8482850162002080565b91505092915050565b60008060408385031215620021d157620021d06200302e565b5b6000620021e18582860162002080565b9250506020620021f48582860162002080565b9150509250929050565b6000806000606084860312156200221a57620022196200302e565b5b60006200222a8682870162002080565b93505060206200223d8682870162002080565b925050604062002250868287016200216e565b9150509250925092565b600080600080608085870312156200227757620022766200302e565b5b6000620022878782880162002080565b94505060206200229a8782880162002080565b9350506040620022ad878288016200216e565b925050606085013567ffffffffffffffff811115620022d157620022d062003029565b5b620022df87828801620020dc565b91505092959194509250565b600080604083850312156200230557620023046200302e565b5b6000620023158582860162002080565b9250506020620023288582860162002097565b9150509250929050565b600080604083850312156200234c576200234b6200302e565b5b60006200235c8582860162002080565b92505060206200236f858286016200216e565b9150509250929050565b6000602082840312156200239257620023916200302e565b5b6000620023a284828501620020ae565b91505092915050565b600060208284031215620023c457620023c36200302e565b5b6000620023d484828501620020c5565b91505092915050565b600060208284031215620023f657620023f56200302e565b5b600062002406848285016200216e565b91505092915050565b600080600080600080608087890312156200242f576200242e6200302e565b5b60006200243f89828a016200216e565b965050602087013567ffffffffffffffff81111562002463576200246262003029565b5b6200247189828a016200210f565b9550955050604087013567ffffffffffffffff81111562002497576200249662003029565b5b620024a589828a016200210f565b93509350506060620024ba89828a0162002080565b9150509295509295509295565b620024d28162002d4e565b82525050565b620024e38162002d62565b82525050565b6000620024f68262002c3b565b62002502818562002c51565b93506200251481856020860162002dd3565b6200251f8162003033565b840191505092915050565b600062002538838562002c62565b93506200254783858462002dc4565b620025528362003033565b840190509392505050565b60006200256a8262002c46565b62002576818562002c62565b93506200258881856020860162002dd3565b620025938162003033565b840191505092915050565b6000620025ab8262002c46565b620025b7818562002c73565b9350620025c981856020860162002dd3565b80840191505092915050565b6000620025e4602b8362002c62565b9150620025f18262003044565b604082019050919050565b60006200260b60328362002c62565b9150620026188262003093565b604082019050919050565b60006200263260258362002c62565b91506200263f82620030e2565b604082019050919050565b600062002659601c8362002c62565b9150620026668262003131565b602082019050919050565b60006200268060248362002c62565b91506200268d826200315a565b604082019050919050565b6000620026a760198362002c62565b9150620026b482620031a9565b602082019050919050565b6000620026ce602c8362002c62565b9150620026db82620031d2565b604082019050919050565b6000620026f560388362002c62565b9150620027028262003221565b604082019050919050565b60006200271c602a8362002c62565b9150620027298262003270565b604082019050919050565b60006200274360298362002c62565b91506200275082620032bf565b604082019050919050565b60006200276a60208362002c62565b915062002777826200330e565b602082019050919050565b600062002791602c8362002c62565b91506200279e8262003337565b604082019050919050565b6000620027b8602f8362002c62565b9150620027c58262003386565b604082019050919050565b6000620027df60218362002c62565b9150620027ec82620033d5565b604082019050919050565b60006200280660318362002c62565b9150620028138262003424565b604082019050919050565b60006200282d602c8362002c62565b91506200283a8262003473565b604082019050919050565b620028508162002dba565b82525050565b60006200286482856200259e565b91506200287282846200259e565b91508190509392505050565b6000602082019050620028956000830184620024c7565b92915050565b6000608082019050620028b26000830187620024c7565b620028c16020830186620024c7565b620028d0604083018562002845565b8181036060830152620028e48184620024e9565b905095945050505050565b6000602082019050620029066000830184620024d8565b92915050565b600060208201905081810360008301526200292881846200255d565b905092915050565b600060208201905081810360008301526200294b81620025d5565b9050919050565b600060208201905081810360008301526200296d81620025fc565b9050919050565b600060208201905081810360008301526200298f8162002623565b9050919050565b60006020820190508181036000830152620029b1816200264a565b9050919050565b60006020820190508181036000830152620029d38162002671565b9050919050565b60006020820190508181036000830152620029f58162002698565b9050919050565b6000602082019050818103600083015262002a1781620026bf565b9050919050565b6000602082019050818103600083015262002a3981620026e6565b9050919050565b6000602082019050818103600083015262002a5b816200270d565b9050919050565b6000602082019050818103600083015262002a7d8162002734565b9050919050565b6000602082019050818103600083015262002a9f816200275b565b9050919050565b6000602082019050818103600083015262002ac18162002782565b9050919050565b6000602082019050818103600083015262002ae381620027a9565b9050919050565b6000602082019050818103600083015262002b0581620027d0565b9050919050565b6000602082019050818103600083015262002b2781620027f7565b9050919050565b6000602082019050818103600083015262002b49816200281e565b9050919050565b600060208201905062002b67600083018462002845565b92915050565b600060a08201905062002b84600083018a62002845565b818103602083015262002b9981888a6200252a565b9050818103604083015262002bb08186886200252a565b905062002bc16060830185620024c7565b62002bd06080830184620024c7565b98975050505050505050565b600062002be862002bfb565b905062002bf6828262002e3f565b919050565b6000604051905090565b600067ffffffffffffffff82111562002c235762002c2262002fe6565b5b62002c2e8262003033565b9050602081019050919050565b600081519050919050565b600081519050919050565b600082825260208201905092915050565b600082825260208201905092915050565b600081905092915050565b600062002c8b8262002dba565b915062002c988362002dba565b9250827fffffffffffffffffffffffffffffffffffffffffffffffffffffffffffffffff0382111562002cd05762002ccf62002efb565b5b828201905092915050565b600062002ce88262002dba565b915062002cf58362002dba565b92508262002d085762002d0762002f2a565b5b828204905092915050565b600062002d208262002dba565b915062002d2d8362002dba565b92508282101562002d435762002d4262002efb565b5b828203905092915050565b600062002d5b8262002d9a565b9050919050565b60008115159050919050565b60007fffffffff0000000000000000000000000000000000000000000000000000000082169050919050565b600073ffffffffffffffffffffffffffffffffffffffff82169050919050565b6000819050919050565b82818337600083830152505050565b60005b8381101562002df357808201518184015260208101905062002dd6565b8381111562002e03576000848401525b50505050565b6000600282049050600182168062002e2257607f821691505b6020821081141562002e395762002e3862002f59565b5b50919050565b62002e4a8262003033565b810181811067ffffffffffffffff8211171562002e6c5762002e6b62002fe6565b5b80604052505050565b600062002e828262002dba565b91507fffffffffffffffffffffffffffffffffffffffffffffffffffffffffffffffff82141562002eb85762002eb762002efb565b5b600182019050919050565b600062002ed08262002dba565b915062002edd8362002dba565b92508262002ef05762002eef62002f2a565b5b828206905092915050565b7f4e487b7100000000000000000000000000000000000000000000000000000000600052601160045260246000fd5b7f4e487b7100000000000000000000000000000000000000000000000000000000600052601260045260246000fd5b7f4e487b7100000000000000000000000000000000000000000000000000000000600052602260045260246000fd5b7f4e487b7100000000000000000000000000000000000000000000000000000000600052603160045260246000fd5b7f4e487b7100000000000000000000000000000000000000000000000000000000600052603260045260246000fd5b7f4e487b7100000000000000000000000000000000000000000000000000000000600052604160045260246000fd5b600080fd5b600080fd5b600080fd5b600080fd5b600080fd5b600080fd5b6000601f19601f8301169050919050565b7f455243373231456e756d657261626c653a206f776e657220696e646578206f7560008201527f74206f6620626f756e6473000000000000000000000000000000000000000000602082015250565b7f4552433732313a207472616e7366657220746f206e6f6e20455243373231526560008201527f63656976657220696d706c656d656e7465720000000000000000000000000000602082015250565b7f4552433732313a207472616e736665722066726f6d20696e636f72726563742060008201527f6f776e6572000000000000000000000000000000000000000000000000000000602082015250565b7f4552433732313a20746f6b656e20616c7265616479206d696e74656400000000600082015250565b7f4552433732313a207472616e7366657220746f20746865207a65726f2061646460008201527f7265737300000000000000000000000000000000000000000000000000000000602082015250565b7f4552433732313a20617070726f766520746f2063616c6c657200000000000000600082015250565b7f4552433732313a206f70657261746f7220717565727920666f72206e6f6e657860008201527f697374656e7420746f6b656e0000000000000000000000000000000000000000602082015250565b7f4552433732313a20617070726f76652063616c6c6572206973206e6f74206f7760008201527f6e6572206e6f7220617070726f76656420666f7220616c6c0000000000000000602082015250565b7f4552433732313a2062616c616e636520717565727920666f7220746865207a6560008201527f726f206164647265737300000000000000000000000000000000000000000000602082015250565b7f4552433732313a206f776e657220717565727920666f72206e6f6e657869737460008201527f656e7420746f6b656e0000000000000000000000000000000000000000000000602082015250565b7f4552433732313a206d696e7420746f20746865207a65726f2061646472657373600082015250565b7f4552433732313a20617070726f76656420717565727920666f72206e6f6e657860008201527f697374656e7420746f6b656e0000000000000000000000000000000000000000602082015250565b7f4552433732314d657461646174613a2055524920717565727920666f72206e6f60008201527f6e6578697374656e7420746f6b656e0000000000000000000000000000000000602082015250565b7f4552433732313a20617070726f76616c20746f2063757272656e74206f776e6560008201527f7200000000000000000000000000000000000000000000000000000000000000602082015250565b7f4552433732313a207472616e736665722063616c6c6572206973206e6f74206f60008201527f776e6572206e6f7220617070726f766564000000000000000000000000000000602082015250565b7f455243373231456e756d657261626c653a20676c6f62616c20696e646578206f60008201527f7574206f6620626f756e64730000000000000000000000000000000000000000602082015250565b620034cd8162002d4e565b8114620034d957600080fd5b50565b620034e78162002d62565b8114620034f357600080fd5b50565b620035018162002d6e565b81146200350d57600080fd5b50565b6200351b8162002dba565b81146200352757600080fd5b5056fe60a06040523480156200001157600080fd5b506040516200272038038062002720833981810160405281019062000037919062000294565b838381600390805190602001906200005192919062000138565b5080600490805190602001906200006a92919062000138565b5050508460068190555081600760016101000a81548173ffffffffffffffffffffffffffffffffffffffff021916908373ffffffffffffffffffffffffffffffffffffffff16021790555080600560006101000a81548173ffffffffffffffffffffffffffffffffffffffff021916908373ffffffffffffffffffffffffffffffffffffffff1602179055503373ffffffffffffffffffffffffffffffffffffffff1660808173ffffffffffffffffffffffffffffffffffffffff1660601b81525050505050505062000550565b82805462000146906200042d565b90600052602060002090601f0160209004810192826200016a5760008555620001b6565b82601f106200018557805160ff1916838001178555620001b6565b82800160010185558215620001b6579182015b82811115620001b557825182559160200191906001019062000198565b5b509050620001c59190620001c9565b5090565b5b80821115620001e4576000816000905550600101620001ca565b5090565b6000620001ff620001f98462000383565b6200035a565b9050828152602081018484840111156200021e576200021d620004fc565b5b6200022b848285620003f7565b509392505050565b60008151905062000244816200051c565b92915050565b600082601f830112620002625762000261620004f7565b5b815162000274848260208601620001e8565b91505092915050565b6000815190506200028e8162000536565b92915050565b600080600080600060a08688031215620002b357620002b262000506565b5b6000620002c3888289016200027d565b955050602086015167ffffffffffffffff811115620002e757620002e662000501565b5b620002f5888289016200024a565b945050604086015167ffffffffffffffff81111562000319576200031862000501565b5b62000327888289016200024a565b93505060606200033a8882890162000233565b92505060806200034d8882890162000233565b9150509295509295909350565b60006200036662000379565b905062000374828262000463565b919050565b6000604051905090565b600067ffffffffffffffff821115620003a157620003a0620004c8565b5b620003ac826200050b565b9050602081019050919050565b6000620003c682620003cd565b9050919050565b600073ffffffffffffffffffffffffffffffffffffffff82169050919050565b6000819050919050565b60005b8381101562000417578082015181840152602081019050620003fa565b8381111562000427576000848401525b50505050565b600060028204905060018216806200044657607f821691505b602082108114156200045d576200045c62000499565b5b50919050565b6200046e826200050b565b810181811067ffffffffffffffff8211171562000490576200048f620004c8565b5b80604052505050565b7f4e487b7100000000000000000000000000000000000000000000000000000000600052602260045260246000fd5b7f4e487b7100000000000000000000000000000000000000000000000000000000600052604160045260246000fd5b600080fd5b600080fd5b600080fd5b600080fd5b6000601f19601f8301169050919050565b6200052781620003b9565b81146200053357600080fd5b50565b6200054181620003ed565b81146200054d57600080fd5b50565b60805160601c6121b16200056f600039600061095801526121b16000f3fe608060405234801561001057600080fd5b506004361061012c5760003560e01c80633f4ba83a116100ad57806395d89b411161007157806395d89b4114610321578063a457c2d71461033f578063a9059cbb1461036f578063dd62ed3e1461039f578063e0bab4c4146103cf5761012c565b80633f4ba83a146102a157806370a08231146102ab5780637c0b8de2146102db5780638456cb59146102f9578063953b8fb8146103035761012c565b80632037fcbf116100f45780632037fcbf146101eb57806323b872dd146102075780632afcf48014610237578063313ce5671461025357806339509351146102715761012c565b806306fdde0314610131578063095ea7b31461014f578063150b7a021461017f57806316c61ccc146101af57806318160ddd146101cd575b600080fd5b6101396103ed565b604051610146919061199d565b60405180910390f35b610169600480360381019061016491906115ce565b61047f565b6040516101769190611931565b60405180910390f35b61019960048036038101906101949190611546565b6104a2565b6040516101a6919061194c565b60405180910390f35b6101b76104b7565b6040516101c49190611931565b60405180910390f35b6101d56104ca565b6040516101e29190611b5f565b60405180910390f35b6102056004803603810190610200919061163b565b6104d4565b005b610221600480360381019061021c91906114f3565b6105dc565b60405161022e9190611931565b60405180910390f35b610251600480360381019061024c919061163b565b61060b565b005b61025b610857565b6040516102689190611b7a565b60405180910390f35b61028b600480360381019061028691906115ce565b610860565b6040516102989190611931565b60405180910390f35b6102a9610897565b005b6102c560048036038101906102c09190611486565b61090e565b6040516102d29190611b5f565b60405180910390f35b6102e3610956565b6040516102f09190611982565b60405180910390f35b61030161097a565b005b61030b6109f1565b6040516103189190611b5f565b60405180910390f35b6103296109f7565b604051610336919061199d565b60405180910390f35b610359600480360381019061035491906115ce565b610a89565b6040516103669190611931565b60405180910390f35b610389600480360381019061038491906115ce565b610b00565b6040516103969190611931565b60405180910390f35b6103b960048036038101906103b491906114b3565b610b23565b6040516103c69190611b5f565b60405180910390f35b6103d7610baa565b6040516103e49190611967565b60405180910390f35b6060600380546103fc90611d37565b80601f016020809104026020016040519081016040528092919081815260200182805461042890611d37565b80156104755780601f1061044a57610100808354040283529160200191610475565b820191906000526020600020905b81548152906001019060200180831161045857829003601f168201915b5050505050905090565b60008061048a610bd0565b9050610497818585610bd8565b600191505092915050565b600063150b7a0260e01b905095945050505050565b600760009054906101000a900460ff1681565b6000600254905090565b6104dd3361090e565b81111561051f576040517f08c379a000000000000000000000000000000000000000000000000000000000815260040161051690611a9f565b60405180910390fd5b600560009054906101000a900473ffffffffffffffffffffffffffffffffffffffff1673ffffffffffffffffffffffffffffffffffffffff1663a9059cbb33836040518363ffffffff1660e01b815260040161057c929190611908565b602060405180830381600087803b15801561059657600080fd5b505af11580156105aa573d6000803e3d6000fd5b505050506040513d601f19601f820116820180604052508101906105ce919061160e565b506105d93382610da3565b50565b6000806105e7610bd0565b90506105f4858285610f7a565b6105ff858585611006565b60019150509392505050565b6106136104ca565b6006546106209190611c07565b811115610662576040517f08c379a000000000000000000000000000000000000000000000000000000000815260040161065990611a7f565b60405180910390fd5b600760009054906101000a900460ff16156106b2576040517f08c379a00000000000000000000000000000000000000000000000000000000081526004016106a9906119df565b60405180910390fd5b600560009054906101000a900473ffffffffffffffffffffffffffffffffffffffff1673ffffffffffffffffffffffffffffffffffffffff166323b872dd3330846040518463ffffffff1660e01b8152600401610711939291906118d1565b602060405180830381600087803b15801561072b57600080fd5b505af115801561073f573d6000803e3d6000fd5b505050506040513d601f19601f82011682018060405250810190610763919061160e565b5061076e3382611287565b6107766104ca565b600654141561085457600560009054906101000a900473ffffffffffffffffffffffffffffffffffffffff1673ffffffffffffffffffffffffffffffffffffffff1663a9059cbb600760019054906101000a900473ffffffffffffffffffffffffffffffffffffffff166006546040518363ffffffff1660e01b8152600401610800929190611908565b602060405180830381600087803b15801561081a57600080fd5b505af115801561082e573d6000803e3d6000fd5b505050506040513d601f19601f82011682018060405250810190610852919061160e565b505b50565b60006012905090565b60008061086b610bd0565b905061088c81858561087d8589610b23565b6108879190611bb1565b610bd8565b600191505092915050565b600760019054906101000a900473ffffffffffffffffffffffffffffffffffffffff1673ffffffffffffffffffffffffffffffffffffffff163373ffffffffffffffffffffffffffffffffffffffff16146108f157600080fd5b6000600760006101000a81548160ff021916908315150217905550565b60008060008373ffffffffffffffffffffffffffffffffffffffff1673ffffffffffffffffffffffffffffffffffffffff168152602001908152602001600020549050919050565b7f000000000000000000000000000000000000000000000000000000000000000081565b600760019054906101000a900473ffffffffffffffffffffffffffffffffffffffff1673ffffffffffffffffffffffffffffffffffffffff163373ffffffffffffffffffffffffffffffffffffffff16146109d457600080fd5b6001600760006101000a81548160ff021916908315150217905550565b60065481565b606060048054610a0690611d37565b80601f0160208091040260200160405190810160405280929190818152602001828054610a3290611d37565b8015610a7f5780601f10610a5457610100808354040283529160200191610a7f565b820191906000526020600020905b815481529060010190602001808311610a6257829003601f168201915b5050505050905090565b600080610a94610bd0565b90506000610aa28286610b23565b905083811015610ae7576040517f08c379a0000000000000000000000000000000000000000000000000000000008152600401610ade90611b1f565b60405180910390fd5b610af48286868403610bd8565b60019250505092915050565b600080610b0b610bd0565b9050610b18818585611006565b600191505092915050565b6000600160008473ffffffffffffffffffffffffffffffffffffffff1673ffffffffffffffffffffffffffffffffffffffff16815260200190815260200160002060008373ffffffffffffffffffffffffffffffffffffffff1673ffffffffffffffffffffffffffffffffffffffff16815260200190815260200160002054905092915050565b600560009054906101000a900473ffffffffffffffffffffffffffffffffffffffff1681565b600033905090565b600073ffffffffffffffffffffffffffffffffffffffff168373ffffffffffffffffffffffffffffffffffffffff161415610c48576040517f08c379a0000000000000000000000000000000000000000000000000000000008152600401610c3f90611aff565b60405180910390fd5b600073ffffffffffffffffffffffffffffffffffffffff168273ffffffffffffffffffffffffffffffffffffffff161415610cb8576040517f08c379a0000000000000000000000000000000000000000000000000000000008152600401610caf90611a1f565b60405180910390fd5b80600160008573ffffffffffffffffffffffffffffffffffffffff1673ffffffffffffffffffffffffffffffffffffffff16815260200190815260200160002060008473ffffffffffffffffffffffffffffffffffffffff1673ffffffffffffffffffffffffffffffffffffffff168152602001908152602001600020819055508173ffffffffffffffffffffffffffffffffffffffff168373ffffffffffffffffffffffffffffffffffffffff167f8c5be1e5ebec7d5bd14f71427d1e84f3dd0314c0f7b2291e5b200ac8c7c3b92583604051610d969190611b5f565b60405180910390a3505050565b600073ffffffffffffffffffffffffffffffffffffffff168273ffffffffffffffffffffffffffffffffffffffff161415610e13576040517f08c379a0000000000000000000000000000000000000000000000000000000008152600401610e0a90611abf565b60405180910390fd5b610e1f826000836113e7565b60008060008473ffffffffffffffffffffffffffffffffffffffff1673ffffffffffffffffffffffffffffffffffffffff16815260200190815260200160002054905081811015610ea5576040517f08c379a0000000000000000000000000000000000000000000000000000000008152600401610e9c906119ff565b60405180910390fd5b8181036000808573ffffffffffffffffffffffffffffffffffffffff1673ffffffffffffffffffffffffffffffffffffffff168152602001908152602001600020819055508160026000828254610efc9190611c07565b92505081905550600073ffffffffffffffffffffffffffffffffffffffff168373ffffffffffffffffffffffffffffffffffffffff167fddf252ad1be2c89b69c2b068fc378daa952ba7f163c4a11628f55a4df523b3ef84604051610f619190611b5f565b60405180910390a3610f75836000846113ec565b505050565b6000610f868484610b23565b90507fffffffffffffffffffffffffffffffffffffffffffffffffffffffffffffffff81146110005781811015610ff2576040517f08c379a0000000000000000000000000000000000000000000000000000000008152600401610fe990611a3f565b60405180910390fd5b610fff8484848403610bd8565b5b50505050565b600073ffffffffffffffffffffffffffffffffffffffff168373ffffffffffffffffffffffffffffffffffffffff161415611076576040517f08c379a000000000000000000000000000000000000000000000000000000000815260040161106d90611adf565b60405180910390fd5b600073ffffffffffffffffffffffffffffffffffffffff168273ffffffffffffffffffffffffffffffffffffffff1614156110e6576040517f08c379a00000000000000000000000000000000000000000000000000000000081526004016110dd906119bf565b60405180910390fd5b6110f18383836113e7565b60008060008573ffffffffffffffffffffffffffffffffffffffff1673ffffffffffffffffffffffffffffffffffffffff16815260200190815260200160002054905081811015611177576040517f08c379a000000000000000000000000000000000000000000000000000000000815260040161116e90611a5f565b60405180910390fd5b8181036000808673ffffffffffffffffffffffffffffffffffffffff1673ffffffffffffffffffffffffffffffffffffffff16815260200190815260200160002081905550816000808573ffffffffffffffffffffffffffffffffffffffff1673ffffffffffffffffffffffffffffffffffffffff168152602001908152602001600020600082825461120a9190611bb1565b925050819055508273ffffffffffffffffffffffffffffffffffffffff168473ffffffffffffffffffffffffffffffffffffffff167fddf252ad1be2c89b69c2b068fc378daa952ba7f163c4a11628f55a4df523b3ef8460405161126e9190611b5f565b60405180910390a36112818484846113ec565b50505050565b600073ffffffffffffffffffffffffffffffffffffffff168273ffffffffffffffffffffffffffffffffffffffff1614156112f7576040517f08c379a00000000000000000000000000000000000000000000000000000000081526004016112ee90611b3f565b60405180910390fd5b611303600083836113e7565b80600260008282546113159190611bb1565b92505081905550806000808473ffffffffffffffffffffffffffffffffffffffff1673ffffffffffffffffffffffffffffffffffffffff168152602001908152602001600020600082825461136a9190611bb1565b925050819055508173ffffffffffffffffffffffffffffffffffffffff16600073ffffffffffffffffffffffffffffffffffffffff167fddf252ad1be2c89b69c2b068fc378daa952ba7f163c4a11628f55a4df523b3ef836040516113cf9190611b5f565b60405180910390a36113e3600083836113ec565b5050565b505050565b505050565b60008135905061140081612136565b92915050565b6000815190506114158161214d565b92915050565b60008083601f84011261143157611430611dcc565b5b8235905067ffffffffffffffff81111561144e5761144d611dc7565b5b60208301915083600182028301111561146a57611469611dd1565b5b9250929050565b60008135905061148081612164565b92915050565b60006020828403121561149c5761149b611ddb565b5b60006114aa848285016113f1565b91505092915050565b600080604083850312156114ca576114c9611ddb565b5b60006114d8858286016113f1565b92505060206114e9858286016113f1565b9150509250929050565b60008060006060848603121561150c5761150b611ddb565b5b600061151a868287016113f1565b935050602061152b868287016113f1565b925050604061153c86828701611471565b9150509250925092565b60008060008060006080868803121561156257611561611ddb565b5b6000611570888289016113f1565b9550506020611581888289016113f1565b945050604061159288828901611471565b935050606086013567ffffffffffffffff8111156115b3576115b2611dd6565b5b6115bf8882890161141b565b92509250509295509295909350565b600080604083850312156115e5576115e4611ddb565b5b60006115f3858286016113f1565b925050602061160485828601611471565b9150509250929050565b60006020828403121561162457611623611ddb565b5b600061163284828501611406565b91505092915050565b60006020828403121561165157611650611ddb565b5b600061165f84828501611471565b91505092915050565b61167181611c3b565b82525050565b61168081611c4d565b82525050565b61168f81611c59565b82525050565b61169e81611cbc565b82525050565b6116ad81611cce565b82525050565b60006116be82611b95565b6116c88185611ba0565b93506116d8818560208601611d04565b6116e181611de0565b840191505092915050565b60006116f9602383611ba0565b915061170482611df1565b604082019050919050565b600061171c600683611ba0565b915061172782611e40565b602082019050919050565b600061173f602283611ba0565b915061174a82611e69565b604082019050919050565b6000611762602283611ba0565b915061176d82611eb8565b604082019050919050565b6000611785601d83611ba0565b915061179082611f07565b602082019050919050565b60006117a8602683611ba0565b91506117b382611f30565b604082019050919050565b60006117cb601783611ba0565b91506117d682611f7f565b602082019050919050565b60006117ee601a83611ba0565b91506117f982611fa8565b602082019050919050565b6000611811602183611ba0565b915061181c82611fd1565b604082019050919050565b6000611834602583611ba0565b915061183f82612020565b604082019050919050565b6000611857602483611ba0565b91506118628261206f565b604082019050919050565b600061187a602583611ba0565b9150611885826120be565b604082019050919050565b600061189d601f83611ba0565b91506118a88261210d565b602082019050919050565b6118bc81611ca5565b82525050565b6118cb81611caf565b82525050565b60006060820190506118e66000830186611668565b6118f36020830185611668565b61190060408301846118b3565b949350505050565b600060408201905061191d6000830185611668565b61192a60208301846118b3565b9392505050565b60006020820190506119466000830184611677565b92915050565b60006020820190506119616000830184611686565b92915050565b600060208201905061197c6000830184611695565b92915050565b600060208201905061199760008301846116a4565b92915050565b600060208201905081810360008301526119b781846116b3565b905092915050565b600060208201905081810360008301526119d8816116ec565b9050919050565b600060208201905081810360008301526119f88161170f565b9050919050565b60006020820190508181036000830152611a1881611732565b9050919050565b60006020820190508181036000830152611a3881611755565b9050919050565b60006020820190508181036000830152611a5881611778565b9050919050565b60006020820190508181036000830152611a788161179b565b9050919050565b60006020820190508181036000830152611a98816117be565b9050919050565b60006020820190508181036000830152611ab8816117e1565b9050919050565b60006020820190508181036000830152611ad881611804565b9050919050565b60006020820190508181036000830152611af881611827565b9050919050565b60006020820190508181036000830152611b188161184a565b9050919050565b60006020820190508181036000830152611b388161186d565b9050919050565b60006020820190508181036000830152611b5881611890565b9050919050565b6000602082019050611b7460008301846118b3565b92915050565b6000602082019050611b8f60008301846118c2565b92915050565b600081519050919050565b600082825260208201905092915050565b6000611bbc82611ca5565b9150611bc783611ca5565b9250827fffffffffffffffffffffffffffffffffffffffffffffffffffffffffffffffff03821115611bfc57611bfb611d69565b5b828201905092915050565b6000611c1282611ca5565b9150611c1d83611ca5565b925082821015611c3057611c2f611d69565b5b828203905092915050565b6000611c4682611c85565b9050919050565b60008115159050919050565b60007fffffffff0000000000000000000000000000000000000000000000000000000082169050919050565b600073ffffffffffffffffffffffffffffffffffffffff82169050919050565b6000819050919050565b600060ff82169050919050565b6000611cc782611ce0565b9050919050565b6000611cd982611ce0565b9050919050565b6000611ceb82611cf2565b9050919050565b6000611cfd82611c85565b9050919050565b60005b83811015611d22578082015181840152602081019050611d07565b83811115611d31576000848401525b50505050565b60006002820490506001821680611d4f57607f821691505b60208210811415611d6357611d62611d98565b5b50919050565b7f4e487b7100000000000000000000000000000000000000000000000000000000600052601160045260246000fd5b7f4e487b7100000000000000000000000000000000000000000000000000000000600052602260045260246000fd5b600080fd5b600080fd5b600080fd5b600080fd5b600080fd5b6000601f19601f8301169050919050565b7f45524332303a207472616e7366657220746f20746865207a65726f206164647260008201527f6573730000000000000000000000000000000000000000000000000000000000602082015250565b7f5061757365640000000000000000000000000000000000000000000000000000600082015250565b7f45524332303a206275726e20616d6f756e7420657863656564732062616c616e60008201527f6365000000000000000000000000000000000000000000000000000000000000602082015250565b7f45524332303a20617070726f766520746f20746865207a65726f20616464726560008201527f7373000000000000000000000000000000000000000000000000000000000000602082015250565b7f45524332303a20696e73756666696369656e7420616c6c6f77616e6365000000600082015250565b7f45524332303a207472616e7366657220616d6f756e742065786365656473206260008201527f616c616e63650000000000000000000000000000000000000000000000000000602082015250565b7f4e6f7420656e6f75676820736861726573206c65667421000000000000000000600082015250565b7f4e6f7420656e6f756768207368617265732062616c616e636521000000000000600082015250565b7f45524332303a206275726e2066726f6d20746865207a65726f2061646472657360008201527f7300000000000000000000000000000000000000000000000000000000000000602082015250565b7f45524332303a207472616e736665722066726f6d20746865207a65726f20616460008201527f6472657373000000000000000000000000000000000000000000000000000000602082015250565b7f45524332303a20617070726f76652066726f6d20746865207a65726f2061646460008201527f7265737300000000000000000000000000000000000000000000000000000000602082015250565b7f45524332303a2064656372656173656420616c6c6f77616e63652062656c6f7760008201527f207a65726f000000000000000000000000000000000000000000000000000000602082015250565b7f45524332303a206d696e7420746f20746865207a65726f206164647265737300600082015250565b61213f81611c3b565b811461214a57600080fd5b50565b61215681611c4d565b811461216157600080fd5b50565b61216d81611ca5565b811461217857600080fd5b5056fea26469706673582212201088cf343ee8fdd86d29f98bb5ab9e331792ff2743e74926a86f645e4e5178ad64736f6c63430008070033a2646970667358221220a0385c50054808efed887e7ec1e67ee873b4472163b5a6111b5bea450ddcb0a664736f6c63430008070033546865205370696e672044414f2050726f6a656374204d61726b6574706c6163652054657374",
  "immutableReferences": {},
  "source": "// SPDX-License-Identifier: UNLICENSED\npragma solidity 0.8.7;\n\n// import \"@openzeppelin/contracts/token/ERC721/IERC721.sol\";\n// import \"@openzeppelin/contracts/token/ERC721/extensions/ERC721Enumerable.sol\";\n\nimport \"../node_modules/openzeppelin-solidity/contracts/token/ERC721/IERC721.sol\";\nimport \"../node_modules/openzeppelin-solidity/contracts/token/ERC721/extensions/ERC721Enumerable.sol\";\nimport \"./FundRaising.sol\";\n\n// The terms \"project\" and \"projectMarketPlace\" are synonymous\ncontract ProjectMarketPlace is  ERC721Enumerable {\n    string public baseURI;\n\n    constructor(string memory springDAOMetadataURI) ERC721(\"The Sping DAO Project Marketplace Test\", \"SpringDAOtest\") {\n        baseURI = springDAOMetadataURI;\n    }\n\n    function _baseURI() internal view override returns (string memory) {\n        return baseURI;\n    }\n\n    function createProject(uint256 targetAmount, string calldata projectName, string calldata projectSymbol, address testDAI) external {\n        address newProjectAddress = address(new FundRaising(targetAmount, projectName, projectSymbol, msg.sender, testDAI));\n        _safeMint( newProjectAddress , uint256(uint160(newProjectAddress))); // think should transfer ownership to the projectfundraising contract\n    }\n\n    function findprojectContract( uint256 tokenID ) public pure returns ( address ){\n        return address(uint160(tokenID));\n    }\n}",
  "sourcePath": "/Users/gus/springdao_nfts/ProjectMarketplace/contracts/ProjectMarketplace.sol",
  "compiler": {
    "name": "solc",
    "version": "0.8.7+commit.e28d00a7.Emscripten.clang"
  },
  "schemaVersion": "3.4.8",
  "updatedAt": "2022-07-30T19:57:55.439Z",
  "networkType": "ethereum",
  "devdoc": {
    "kind": "dev",
    "methods": {
      "approve(address,uint256)": {
        "details": "See {IERC721-approve}."
      },
      "balanceOf(address)": {
        "details": "See {IERC721-balanceOf}."
      },
      "getApproved(uint256)": {
        "details": "See {IERC721-getApproved}."
      },
      "isApprovedForAll(address,address)": {
        "details": "See {IERC721-isApprovedForAll}."
      },
      "name()": {
        "details": "See {IERC721Metadata-name}."
      },
      "ownerOf(uint256)": {
        "details": "See {IERC721-ownerOf}."
      },
      "safeTransferFrom(address,address,uint256)": {
        "details": "See {IERC721-safeTransferFrom}."
      },
      "safeTransferFrom(address,address,uint256,bytes)": {
        "details": "See {IERC721-safeTransferFrom}."
      },
      "setApprovalForAll(address,bool)": {
        "details": "See {IERC721-setApprovalForAll}."
      },
      "supportsInterface(bytes4)": {
        "details": "See {IERC165-supportsInterface}."
      },
      "symbol()": {
        "details": "See {IERC721Metadata-symbol}."
      },
      "tokenByIndex(uint256)": {
        "details": "See {IERC721Enumerable-tokenByIndex}."
      },
      "tokenOfOwnerByIndex(address,uint256)": {
        "details": "See {IERC721Enumerable-tokenOfOwnerByIndex}."
      },
      "tokenURI(uint256)": {
        "details": "See {IERC721Metadata-tokenURI}."
      },
      "totalSupply()": {
        "details": "See {IERC721Enumerable-totalSupply}."
      },
      "transferFrom(address,address,uint256)": {
        "details": "See {IERC721-transferFrom}."
      }
    },
    "version": 1
  },
  "userdoc": {
    "kind": "user",
    "methods": {},
    "version": 1
  }
}