{
  "contractName": "testERC721",
  "abi": [
    {
      "inputs": [],
      "stateMutability": "nonpayable",
      "type": "constructor"
    },
    {
      "anonymous": false,
      "inputs": [
        {
          "indexed": true,
          "internalType": "address",
          "name": "owner",
          "type": "address"
        },
        {
          "indexed": true,
          "internalType": "address",
          "name": "approved",
          "type": "address"
        },
        {
          "indexed": true,
          "internalType": "uint256",
          "name": "tokenId",
          "type": "uint256"
        }
      ],
      "name": "Approval",
      "type": "event"
    },
    {
      "anonymous": false,
      "inputs": [
        {
          "indexed": true,
          "internalType": "address",
          "name": "owner",
          "type": "address"
        },
        {
          "indexed": true,
          "internalType": "address",
          "name": "operator",
          "type": "address"
        },
        {
          "indexed": false,
          "internalType": "bool",
          "name": "approved",
          "type": "bool"
        }
      ],
      "name": "ApprovalForAll",
      "type": "event"
    },
    {
      "anonymous": false,
      "inputs": [
        {
          "indexed": true,
          "internalType": "address",
          "name": "from",
          "type": "address"
        },
        {
          "indexed": true,
          "internalType": "address",
          "name": "to",
          "type": "address"
        },
        {
          "indexed": true,
          "internalType": "uint256",
          "name": "tokenId",
          "type": "uint256"
        }
      ],
      "name": "Transfer",
      "type": "event"
    },
    {
      "inputs": [
        {
          "internalType": "address",
          "name": "to",
          "type": "address"
        },
        {
          "internalType": "uint256",
          "name": "tokenId",
          "type": "uint256"
        }
      ],
      "name": "approve",
      "outputs": [],
      "stateMutability": "nonpayable",
      "type": "function"
    },
    {
      "inputs": [
        {
          "internalType": "address",
          "name": "owner",
          "type": "address"
        }
      ],
      "name": "balanceOf",
      "outputs": [
        {
          "internalType": "uint256",
          "name": "",
          "type": "uint256"
        }
      ],
      "stateMutability": "view",
      "type": "function"
    },
    {
      "inputs": [
        {
          "internalType": "uint256",
          "name": "tokenId",
          "type": "uint256"
        }
      ],
      "name": "getApproved",
      "outputs": [
        {
          "internalType": "address",
          "name": "",
          "type": "address"
        }
      ],
      "stateMutability": "view",
      "type": "function"
    },
    {
      "inputs": [
        {
          "internalType": "address",
          "name": "owner",
          "type": "address"
        },
        {
          "internalType": "address",
          "name": "operator",
          "type": "address"
        }
      ],
      "name": "isApprovedForAll",
      "outputs": [
        {
          "internalType": "bool",
          "name": "",
          "type": "bool"
        }
      ],
      "stateMutability": "view",
      "type": "function"
    },
    {
      "inputs": [],
      "name": "name",
      "outputs": [
        {
          "internalType": "string",
          "name": "",
          "type": "string"
        }
      ],
      "stateMutability": "view",
      "type": "function"
    },
    {
      "inputs": [
        {
          "internalType": "uint256",
          "name": "tokenId",
          "type": "uint256"
        }
      ],
      "name": "ownerOf",
      "outputs": [
        {
          "internalType": "address",
          "name": "",
          "type": "address"
        }
      ],
      "stateMutability": "view",
      "type": "function"
    },
    {
      "inputs": [
        {
          "internalType": "address",
          "name": "from",
          "type": "address"
        },
        {
          "internalType": "address",
          "name": "to",
          "type": "address"
        },
        {
          "internalType": "uint256",
          "name": "tokenId",
          "type": "uint256"
        }
      ],
      "name": "safeTransferFrom",
      "outputs": [],
      "stateMutability": "nonpayable",
      "type": "function"
    },
    {
      "inputs": [
        {
          "internalType": "address",
          "name": "from",
          "type": "address"
        },
        {
          "internalType": "address",
          "name": "to",
          "type": "address"
        },
        {
          "internalType": "uint256",
          "name": "tokenId",
          "type": "uint256"
        },
        {
          "internalType": "bytes",
          "name": "_data",
          "type": "bytes"
        }
      ],
      "name": "safeTransferFrom",
      "outputs": [],
      "stateMutability": "nonpayable",
      "type": "function"
    },
    {
      "inputs": [
        {
          "internalType": "address",
          "name": "operator",
          "type": "address"
        },
        {
          "internalType": "bool",
          "name": "approved",
          "type": "bool"
        }
      ],
      "name": "setApprovalForAll",
      "outputs": [],
      "stateMutability": "nonpayable",
      "type": "function"
    },
    {
      "inputs": [
        {
          "internalType": "bytes4",
          "name": "interfaceId",
          "type": "bytes4"
        }
      ],
      "name": "supportsInterface",
      "outputs": [
        {
          "internalType": "bool",
          "name": "",
          "type": "bool"
        }
      ],
      "stateMutability": "view",
      "type": "function"
    },
    {
      "inputs": [],
      "name": "symbol",
      "outputs": [
        {
          "internalType": "string",
          "name": "",
          "type": "string"
        }
      ],
      "stateMutability": "view",
      "type": "function"
    },
    {
      "inputs": [
        {
          "internalType": "uint256",
          "name": "index",
          "type": "uint256"
        }
      ],
      "name": "tokenByIndex",
      "outputs": [
        {
          "internalType": "uint256",
          "name": "",
          "type": "uint256"
        }
      ],
      "stateMutability": "view",
      "type": "function"
    },
    {
      "inputs": [
        {
          "internalType": "address",
          "name": "owner",
          "type": "address"
        },
        {
          "internalType": "uint256",
          "name": "index",
          "type": "uint256"
        }
      ],
      "name": "tokenOfOwnerByIndex",
      "outputs": [
        {
          "internalType": "uint256",
          "name": "",
          "type": "uint256"
        }
      ],
      "stateMutability": "view",
      "type": "function"
    },
    {
      "inputs": [
        {
          "internalType": "uint256",
          "name": "tokenId",
          "type": "uint256"
        }
      ],
      "name": "tokenURI",
      "outputs": [
        {
          "internalType": "string",
          "name": "",
          "type": "string"
        }
      ],
      "stateMutability": "view",
      "type": "function"
    },
    {
      "inputs": [],
      "name": "totalSupply",
      "outputs": [
        {
          "internalType": "uint256",
          "name": "",
          "type": "uint256"
        }
      ],
      "stateMutability": "view",
      "type": "function"
    },
    {
      "inputs": [
        {
          "internalType": "address",
          "name": "from",
          "type": "address"
        },
        {
          "internalType": "address",
          "name": "to",
          "type": "address"
        },
        {
          "internalType": "uint256",
          "name": "tokenId",
          "type": "uint256"
        }
      ],
      "name": "transferFrom",
      "outputs": [],
      "stateMutability": "nonpayable",
      "type": "function"
    },
    {
      "inputs": [
        {
          "internalType": "uint256",
          "name": "targetAmount",
          "type": "uint256"
        },
        {
          "internalType": "string",
          "name": "projectName",
          "type": "string"
        },
        {
          "internalType": "string",
          "name": "projectSymbol",
          "type": "string"
        },
        {
          "internalType": "string",
          "name": "_tokenURI",
          "type": "string"
        },
        {
          "internalType": "uint256",
          "name": "dataAccessThreshold",
          "type": "uint256"
        },
        {
          "internalType": "address",
          "name": "DAI",
          "type": "address"
        }
      ],
      "name": "createProject",
      "outputs": [
        {
          "internalType": "address",
          "name": "",
          "type": "address"
        }
      ],
      "stateMutability": "nonpayable",
      "type": "function"
    }
  ],
  "bytecode": "0x60806040523480156200001157600080fd5b50604051806060016040528060268152602001620061f7602691396040518060400160405280600d81526020017f537072696e6744414f746573740000000000000000000000000000000000000081525081600090805190602001906200007a9291906200009c565b508060019080519060200190620000939291906200009c565b505050620001b1565b828054620000aa906200014c565b90600052602060002090601f016020900481019282620000ce57600085556200011a565b82601f10620000e957805160ff19168380011785556200011a565b828001600101855582156200011a579182015b8281111562000119578251825591602001919060010190620000fc565b5b5090506200012991906200012d565b5090565b5b80821115620001485760008160009055506001016200012e565b5090565b600060028204905060018216806200016557607f821691505b602082108114156200017c576200017b62000182565b5b50919050565b7f4e487b7100000000000000000000000000000000000000000000000000000000600052602260045260246000fd5b61603680620001c16000396000f3fe60806040523480156200001157600080fd5b5060043610620001245760003560e01c80634f6ccce711620000b157806395d89b41116200007b57806395d89b411462000347578063a22cb4651462000369578063b88d4fde1462000389578063c87b56dd14620003a9578063e985e9c514620003df5762000124565b80634f6ccce7146200026f5780636352211e14620002a557806370a0823114620002db578063877afeeb14620003115762000124565b806318160ddd11620000f357806318160ddd14620001d757806323b872dd14620001f95780632f745c59146200021957806342842e0e146200024f5762000124565b806301ffc9a7146200012957806306fdde03146200015f578063081812fc1462000181578063095ea7b314620001b7575b600080fd5b6200014760048036038101906200014191906200220d565b62000415565b604051620001569190620027d2565b60405180910390f35b6200016962000492565b604051620001789190620027ef565b60405180910390f35b6200019f600480360381019062000199919062002271565b6200052c565b604051620001ae919062002761565b60405180910390f35b620001d56004803603810190620001cf9190620021c6565b620005b6565b005b620001e1620006df565b604051620001f0919062002a33565b60405180910390f35b62000217600480360381019062000211919062002092565b620006ec565b005b620002376004803603810190620002319190620021c6565b62000755565b60405162000246919062002a33565b60405180910390f35b6200026d600480360381019062000267919062002092565b620007ff565b005b6200028d600480360381019062000287919062002271565b62000821565b6040516200029c919062002a33565b60405180910390f35b620002c36004803603810190620002bd919062002271565b6200089a565b604051620002d2919062002761565b60405180910390f35b620002f96004803603810190620002f3919062002019565b6200094f565b60405162000308919062002a33565b60405180910390f35b6200032f6004803603810190620003299190620022a3565b62000a0a565b6040516200033e919062002761565b60405180910390f35b6200035162000a8f565b604051620003609190620027ef565b60405180910390f35b6200038760048036038101906200038191906200217f565b62000b29565b005b620003a76004803603810190620003a19190620020ee565b62000b43565b005b620003c76004803603810190620003c1919062002271565b62000bae565b604051620003d69190620027ef565b60405180910390f35b620003fd6004803603810190620003f791906200204b565b62000c62565b6040516200040c9190620027d2565b60405180910390f35b60007f780e9d63000000000000000000000000000000000000000000000000000000007bffffffffffffffffffffffffffffffffffffffffffffffffffffffff1916827bffffffffffffffffffffffffffffffffffffffffffffffffffffffff191614806200048b57506200048a8262000cf6565b5b9050919050565b606060008054620004a39062002cfc565b80601f0160208091040260200160405190810160405280929190818152602001828054620004d19062002cfc565b8015620005225780601f10620004f65761010080835404028352916020019162000522565b820191906000526020600020905b8154815290600101906020018083116200050457829003601f168201915b5050505050905090565b6000620005398262000ddc565b6200057b576040517f08c379a0000000000000000000000000000000000000000000000000000000008152600401620005729062002989565b60405180910390fd5b6004600083815260200190815260200160002060009054906101000a900473ffffffffffffffffffffffffffffffffffffffff169050919050565b6000620005c3826200089a565b90508073ffffffffffffffffffffffffffffffffffffffff168373ffffffffffffffffffffffffffffffffffffffff16141562000637576040517f08c379a00000000000000000000000000000000000000000000000000000000081526004016200062e90620029cd565b60405180910390fd5b8073ffffffffffffffffffffffffffffffffffffffff166200065862000e48565b73ffffffffffffffffffffffffffffffffffffffff1614806200068c57506200068b816200068562000e48565b62000c62565b5b620006ce576040517f08c379a0000000000000000000000000000000000000000000000000000000008152600401620006c59062002901565b60405180910390fd5b620006da838362000e50565b505050565b6000600880549050905090565b62000701620006fa62000e48565b8262000f0b565b62000743576040517f08c379a00000000000000000000000000000000000000000000000000000000081526004016200073a90620029ef565b60405180910390fd5b6200075083838362000ff6565b505050565b600062000762836200094f565b8210620007a6576040517f08c379a00000000000000000000000000000000000000000000000000000000081526004016200079d9062002813565b60405180910390fd5b600660008473ffffffffffffffffffffffffffffffffffffffff1673ffffffffffffffffffffffffffffffffffffffff168152602001908152602001600020600083815260200190815260200160002054905092915050565b6200081c8383836040518060200160405280600081525062000b43565b505050565b60006200082d620006df565b821062000871576040517f08c379a0000000000000000000000000000000000000000000000000000000008152600401620008689062002a11565b60405180910390fd5b6008828154811062000888576200088762002eaa565b5b90600052602060002001549050919050565b6000806002600084815260200190815260200160002060009054906101000a900473ffffffffffffffffffffffffffffffffffffffff169050600073ffffffffffffffffffffffffffffffffffffffff168173ffffffffffffffffffffffffffffffffffffffff16141562000946576040517f08c379a00000000000000000000000000000000000000000000000000000000081526004016200093d9062002945565b60405180910390fd5b80915050919050565b60008073ffffffffffffffffffffffffffffffffffffffff168273ffffffffffffffffffffffffffffffffffffffff161415620009c3576040517f08c379a0000000000000000000000000000000000000000000000000000000008152600401620009ba9062002923565b60405180910390fd5b600360008373ffffffffffffffffffffffffffffffffffffffff1673ffffffffffffffffffffffffffffffffffffffff168152602001908152602001600020549050919050565b6000808a8a8a8a8a88338960405162000a239062001ebb565b62000a3698979695949392919062002a50565b604051809103906000f08015801562000a53573d6000803e3d6000fd5b50905060008173ffffffffffffffffffffffffffffffffffffffff16905062000a7d82826200126f565b81925050509998505050505050505050565b60606001805462000aa09062002cfc565b80601f016020809104026020016040519081016040528092919081815260200182805462000ace9062002cfc565b801562000b1f5780601f1062000af35761010080835404028352916020019162000b1f565b820191906000526020600020905b81548152906001019060200180831162000b0157829003601f168201915b5050505050905090565b62000b3f62000b3762000e48565b83836200128f565b5050565b62000b5862000b5162000e48565b8362000f0b565b62000b9a576040517f08c379a000000000000000000000000000000000000000000000000000000000815260040162000b9190620029ef565b60405180910390fd5b62000ba88484848462001401565b50505050565b606062000bbb8262000ddc565b62000bfd576040517f08c379a000000000000000000000000000000000000000000000000000000000815260040162000bf490620029ab565b60405180910390fd5b600062000c0962001464565b9050600081511162000c2b576040518060200160405280600081525062000c5a565b8062000c37846200147b565b60405160200162000c4a92919062002739565b6040516020818303038152906040525b915050919050565b6000600560008473ffffffffffffffffffffffffffffffffffffffff1673ffffffffffffffffffffffffffffffffffffffff16815260200190815260200160002060008373ffffffffffffffffffffffffffffffffffffffff1673ffffffffffffffffffffffffffffffffffffffff16815260200190815260200160002060009054906101000a900460ff16905092915050565b60007f80ac58cd000000000000000000000000000000000000000000000000000000007bffffffffffffffffffffffffffffffffffffffffffffffffffffffff1916827bffffffffffffffffffffffffffffffffffffffffffffffffffffffff1916148062000dc257507f5b5e139f000000000000000000000000000000000000000000000000000000007bffffffffffffffffffffffffffffffffffffffffffffffffffffffff1916827bffffffffffffffffffffffffffffffffffffffffffffffffffffffff1916145b8062000dd5575062000dd482620015f5565b5b9050919050565b60008073ffffffffffffffffffffffffffffffffffffffff166002600084815260200190815260200160002060009054906101000a900473ffffffffffffffffffffffffffffffffffffffff1673ffffffffffffffffffffffffffffffffffffffff1614159050919050565b600033905090565b816004600083815260200190815260200160002060006101000a81548173ffffffffffffffffffffffffffffffffffffffff021916908373ffffffffffffffffffffffffffffffffffffffff160217905550808273ffffffffffffffffffffffffffffffffffffffff1662000ec5836200089a565b73ffffffffffffffffffffffffffffffffffffffff167f8c5be1e5ebec7d5bd14f71427d1e84f3dd0314c0f7b2291e5b200ac8c7c3b92560405160405180910390a45050565b600062000f188262000ddc565b62000f5a576040517f08c379a000000000000000000000000000000000000000000000000000000000815260040162000f5190620028df565b60405180910390fd5b600062000f67836200089a565b90508073ffffffffffffffffffffffffffffffffffffffff168473ffffffffffffffffffffffffffffffffffffffff16148062000fac575062000fab818562000c62565b5b8062000fed57508373ffffffffffffffffffffffffffffffffffffffff1662000fd5846200052c565b73ffffffffffffffffffffffffffffffffffffffff16145b91505092915050565b8273ffffffffffffffffffffffffffffffffffffffff1662001018826200089a565b73ffffffffffffffffffffffffffffffffffffffff161462001071576040517f08c379a0000000000000000000000000000000000000000000000000000000008152600401620010689062002857565b60405180910390fd5b600073ffffffffffffffffffffffffffffffffffffffff168273ffffffffffffffffffffffffffffffffffffffff161415620010e4576040517f08c379a0000000000000000000000000000000000000000000000000000000008152600401620010db906200289b565b60405180910390fd5b620010f18383836200165f565b620010fe60008262000e50565b6001600360008573ffffffffffffffffffffffffffffffffffffffff1673ffffffffffffffffffffffffffffffffffffffff168152602001908152602001600020600082825462001150919062002c06565b925050819055506001600360008473ffffffffffffffffffffffffffffffffffffffff1673ffffffffffffffffffffffffffffffffffffffff1681526020019081526020016000206000828254620011a9919062002b71565b92505081905550816002600083815260200190815260200160002060006101000a81548173ffffffffffffffffffffffffffffffffffffffff021916908373ffffffffffffffffffffffffffffffffffffffff160217905550808273ffffffffffffffffffffffffffffffffffffffff168473ffffffffffffffffffffffffffffffffffffffff167fddf252ad1be2c89b69c2b068fc378daa952ba7f163c4a11628f55a4df523b3ef60405160405180910390a46200126a83838362001783565b505050565b6200128b82826040518060200160405280600081525062001788565b5050565b8173ffffffffffffffffffffffffffffffffffffffff168373ffffffffffffffffffffffffffffffffffffffff16141562001301576040517f08c379a0000000000000000000000000000000000000000000000000000000008152600401620012f890620028bd565b60405180910390fd5b80600560008573ffffffffffffffffffffffffffffffffffffffff1673ffffffffffffffffffffffffffffffffffffffff16815260200190815260200160002060008473ffffffffffffffffffffffffffffffffffffffff1673ffffffffffffffffffffffffffffffffffffffff16815260200190815260200160002060006101000a81548160ff0219169083151502179055508173ffffffffffffffffffffffffffffffffffffffff168373ffffffffffffffffffffffffffffffffffffffff167f17307eab39ab6107e8899845ad3d59bd9653f200f220920489ca2b5937696c3183604051620013f49190620027d2565b60405180910390a3505050565b6200140e84848462000ff6565b6200141c84848484620017ea565b6200145e576040517f08c379a0000000000000000000000000000000000000000000000000000000008152600401620014559062002835565b60405180910390fd5b50505050565b606060405180602001604052806000815250905090565b60606000821415620014c5576040518060400160405280600181526020017f30000000000000000000000000000000000000000000000000000000000000008152509050620015f0565b600082905060005b60008214620014fd578080620014e39062002d68565b915050600a82620014f5919062002bce565b9150620014cd565b60008167ffffffffffffffff8111156200151c576200151b62002ed9565b5b6040519080825280601f01601f1916602001820160405280156200154f5781602001600182028036833780820191505090505b5090505b60008514620015e9576001826200156b919062002c06565b9150600a856200157c919062002db6565b60306200158a919062002b71565b60f81b818381518110620015a357620015a262002eaa565b5b60200101907effffffffffffffffffffffffffffffffffffffffffffffffffffffffffffff1916908160001a905350600a85620015e1919062002bce565b945062001553565b8093505050505b919050565b60007f01ffc9a7000000000000000000000000000000000000000000000000000000007bffffffffffffffffffffffffffffffffffffffffffffffffffffffff1916827bffffffffffffffffffffffffffffffffffffffffffffffffffffffff1916149050919050565b6200166c83838362001993565b600073ffffffffffffffffffffffffffffffffffffffff168373ffffffffffffffffffffffffffffffffffffffff161415620016b357620016ad8162001998565b620016f5565b8173ffffffffffffffffffffffffffffffffffffffff168373ffffffffffffffffffffffffffffffffffffffff1614620016f457620016f38382620019e1565b5b5b600073ffffffffffffffffffffffffffffffffffffffff168273ffffffffffffffffffffffffffffffffffffffff1614156200173c57620017368162001b53565b6200177e565b8273ffffffffffffffffffffffffffffffffffffffff168273ffffffffffffffffffffffffffffffffffffffff16146200177d576200177c828262001c2f565b5b5b505050565b505050565b62001794838362001cb0565b620017a36000848484620017ea565b620017e5576040517f08c379a0000000000000000000000000000000000000000000000000000000008152600401620017dc9062002835565b60405180910390fd5b505050565b60006200180d8473ffffffffffffffffffffffffffffffffffffffff1662001e98565b1562001986578373ffffffffffffffffffffffffffffffffffffffff1663150b7a026200183962000e48565b8786866040518563ffffffff1660e01b81526004016200185d94939291906200277e565b602060405180830381600087803b1580156200187857600080fd5b505af1925050508015620018ac57506040513d601f19601f82011682018060405250810190620018a991906200223f565b60015b62001935573d8060008114620018df576040519150601f19603f3d011682016040523d82523d6000602084013e620018e4565b606091505b506000815114156200192d576040517f08c379a0000000000000000000000000000000000000000000000000000000008152600401620019249062002835565b60405180910390fd5b805181602001fd5b63150b7a0260e01b7bffffffffffffffffffffffffffffffffffffffffffffffffffffffff1916817bffffffffffffffffffffffffffffffffffffffffffffffffffffffff1916149150506200198b565b600190505b949350505050565b505050565b6008805490506009600083815260200190815260200160002081905550600881908060018154018082558091505060019003906000526020600020016000909190919091505550565b60006001620019f0846200094f565b620019fc919062002c06565b905060006007600084815260200190815260200160002054905081811462001ae2576000600660008673ffffffffffffffffffffffffffffffffffffffff1673ffffffffffffffffffffffffffffffffffffffff168152602001908152602001600020600084815260200190815260200160002054905080600660008773ffffffffffffffffffffffffffffffffffffffff1673ffffffffffffffffffffffffffffffffffffffff168152602001908152602001600020600084815260200190815260200160002081905550816007600083815260200190815260200160002081905550505b6007600084815260200190815260200160002060009055600660008573ffffffffffffffffffffffffffffffffffffffff1673ffffffffffffffffffffffffffffffffffffffff16815260200190815260200160002060008381526020019081526020016000206000905550505050565b6000600160088054905062001b69919062002c06565b905060006009600084815260200190815260200160002054905060006008838154811062001b9c5762001b9b62002eaa565b5b90600052602060002001549050806008838154811062001bc15762001bc062002eaa565b5b90600052602060002001819055508160096000838152602001908152602001600020819055506009600085815260200190815260200160002060009055600880548062001c135762001c1262002e7b565b5b6001900381819060005260206000200160009055905550505050565b600062001c3c836200094f565b905081600660008573ffffffffffffffffffffffffffffffffffffffff1673ffffffffffffffffffffffffffffffffffffffff168152602001908152602001600020600083815260200190815260200160002081905550806007600084815260200190815260200160002081905550505050565b600073ffffffffffffffffffffffffffffffffffffffff168273ffffffffffffffffffffffffffffffffffffffff16141562001d23576040517f08c379a000000000000000000000000000000000000000000000000000000000815260040162001d1a9062002967565b60405180910390fd5b62001d2e8162000ddc565b1562001d71576040517f08c379a000000000000000000000000000000000000000000000000000000000815260040162001d689062002879565b60405180910390fd5b62001d7f600083836200165f565b6001600360008473ffffffffffffffffffffffffffffffffffffffff1673ffffffffffffffffffffffffffffffffffffffff168152602001908152602001600020600082825462001dd1919062002b71565b92505081905550816002600083815260200190815260200160002060006101000a81548173ffffffffffffffffffffffffffffffffffffffff021916908373ffffffffffffffffffffffffffffffffffffffff160217905550808273ffffffffffffffffffffffffffffffffffffffff16600073ffffffffffffffffffffffffffffffffffffffff167fddf252ad1be2c89b69c2b068fc378daa952ba7f163c4a11628f55a4df523b3ef60405160405180910390a462001e946000838362001783565b5050565b6000808273ffffffffffffffffffffffffffffffffffffffff163b119050919050565b612be3806200341e83390190565b600062001ee062001eda8462002af8565b62002acf565b90508281526020810184848401111562001eff5762001efe62002f17565b5b62001f0c84828562002cb7565b509392505050565b60008135905062001f2581620033b5565b92915050565b60008135905062001f3c81620033cf565b92915050565b60008135905062001f5381620033e9565b92915050565b60008151905062001f6a81620033e9565b92915050565b600082601f83011262001f885762001f8762002f0d565b5b813562001f9a84826020860162001ec9565b91505092915050565b60008083601f84011262001fbc5762001fbb62002f0d565b5b8235905067ffffffffffffffff81111562001fdc5762001fdb62002f08565b5b60208301915083600182028301111562001ffb5762001ffa62002f12565b5b9250929050565b600081359050620020138162003403565b92915050565b60006020828403121562002032576200203162002f21565b5b6000620020428482850162001f14565b91505092915050565b6000806040838503121562002065576200206462002f21565b5b6000620020758582860162001f14565b9250506020620020888582860162001f14565b9150509250929050565b600080600060608486031215620020ae57620020ad62002f21565b5b6000620020be8682870162001f14565b9350506020620020d18682870162001f14565b9250506040620020e48682870162002002565b9150509250925092565b600080600080608085870312156200210b576200210a62002f21565b5b60006200211b8782880162001f14565b94505060206200212e8782880162001f14565b9350506040620021418782880162002002565b925050606085013567ffffffffffffffff81111562002165576200216462002f1c565b5b620021738782880162001f70565b91505092959194509250565b6000806040838503121562002199576200219862002f21565b5b6000620021a98582860162001f14565b9250506020620021bc8582860162001f2b565b9150509250929050565b60008060408385031215620021e057620021df62002f21565b5b6000620021f08582860162001f14565b9250506020620022038582860162002002565b9150509250929050565b60006020828403121562002226576200222562002f21565b5b6000620022368482850162001f42565b91505092915050565b60006020828403121562002258576200225762002f21565b5b6000620022688482850162001f59565b91505092915050565b6000602082840312156200228a576200228962002f21565b5b60006200229a8482850162002002565b91505092915050565b600080600080600080600080600060c08a8c031215620022c857620022c762002f21565b5b6000620022d88c828d0162002002565b99505060208a013567ffffffffffffffff811115620022fc57620022fb62002f1c565b5b6200230a8c828d0162001fa3565b985098505060408a013567ffffffffffffffff81111562002330576200232f62002f1c565b5b6200233e8c828d0162001fa3565b965096505060608a013567ffffffffffffffff81111562002364576200236362002f1c565b5b620023728c828d0162001fa3565b94509450506080620023878c828d0162002002565b92505060a06200239a8c828d0162001f14565b9150509295985092959850929598565b620023b58162002c41565b82525050565b620023c68162002c55565b82525050565b6000620023d98262002b2e565b620023e5818562002b44565b9350620023f781856020860162002cc6565b620024028162002f26565b840191505092915050565b60006200241b838562002b55565b93506200242a83858462002cb7565b620024358362002f26565b840190509392505050565b60006200244d8262002b39565b62002459818562002b55565b93506200246b81856020860162002cc6565b620024768162002f26565b840191505092915050565b60006200248e8262002b39565b6200249a818562002b66565b9350620024ac81856020860162002cc6565b80840191505092915050565b6000620024c7602b8362002b55565b9150620024d48262002f37565b604082019050919050565b6000620024ee60328362002b55565b9150620024fb8262002f86565b604082019050919050565b60006200251560258362002b55565b9150620025228262002fd5565b604082019050919050565b60006200253c601c8362002b55565b9150620025498262003024565b602082019050919050565b60006200256360248362002b55565b915062002570826200304d565b604082019050919050565b60006200258a60198362002b55565b915062002597826200309c565b602082019050919050565b6000620025b1602c8362002b55565b9150620025be82620030c5565b604082019050919050565b6000620025d860388362002b55565b9150620025e58262003114565b604082019050919050565b6000620025ff602a8362002b55565b91506200260c8262003163565b604082019050919050565b60006200262660298362002b55565b91506200263382620031b2565b604082019050919050565b60006200264d60208362002b55565b91506200265a8262003201565b602082019050919050565b600062002674602c8362002b55565b915062002681826200322a565b604082019050919050565b60006200269b602f8362002b55565b9150620026a88262003279565b604082019050919050565b6000620026c260218362002b55565b9150620026cf82620032c8565b604082019050919050565b6000620026e960318362002b55565b9150620026f68262003317565b604082019050919050565b600062002710602c8362002b55565b91506200271d8262003366565b604082019050919050565b620027338162002cad565b82525050565b600062002747828562002481565b915062002755828462002481565b91508190509392505050565b6000602082019050620027786000830184620023aa565b92915050565b6000608082019050620027956000830187620023aa565b620027a46020830186620023aa565b620027b3604083018562002728565b8181036060830152620027c78184620023cc565b905095945050505050565b6000602082019050620027e96000830184620023bb565b92915050565b600060208201905081810360008301526200280b818462002440565b905092915050565b600060208201905081810360008301526200282e81620024b8565b9050919050565b600060208201905081810360008301526200285081620024df565b9050919050565b60006020820190508181036000830152620028728162002506565b9050919050565b6000602082019050818103600083015262002894816200252d565b9050919050565b60006020820190508181036000830152620028b68162002554565b9050919050565b60006020820190508181036000830152620028d8816200257b565b9050919050565b60006020820190508181036000830152620028fa81620025a2565b9050919050565b600060208201905081810360008301526200291c81620025c9565b9050919050565b600060208201905081810360008301526200293e81620025f0565b9050919050565b60006020820190508181036000830152620029608162002617565b9050919050565b6000602082019050818103600083015262002982816200263e565b9050919050565b60006020820190508181036000830152620029a48162002665565b9050919050565b60006020820190508181036000830152620029c6816200268c565b9050919050565b60006020820190508181036000830152620029e881620026b3565b9050919050565b6000602082019050818103600083015262002a0a81620026da565b9050919050565b6000602082019050818103600083015262002a2c8162002701565b9050919050565b600060208201905062002a4a600083018462002728565b92915050565b600060c08201905062002a67600083018b62002728565b818103602083015262002a7c81898b6200240d565b9050818103604083015262002a938187896200240d565b905062002aa4606083018662002728565b62002ab36080830185620023aa565b62002ac260a0830184620023aa565b9998505050505050505050565b600062002adb62002aee565b905062002ae9828262002d32565b919050565b6000604051905090565b600067ffffffffffffffff82111562002b165762002b1562002ed9565b5b62002b218262002f26565b9050602081019050919050565b600081519050919050565b600081519050919050565b600082825260208201905092915050565b600082825260208201905092915050565b600081905092915050565b600062002b7e8262002cad565b915062002b8b8362002cad565b9250827fffffffffffffffffffffffffffffffffffffffffffffffffffffffffffffffff0382111562002bc35762002bc262002dee565b5b828201905092915050565b600062002bdb8262002cad565b915062002be88362002cad565b92508262002bfb5762002bfa62002e1d565b5b828204905092915050565b600062002c138262002cad565b915062002c208362002cad565b92508282101562002c365762002c3562002dee565b5b828203905092915050565b600062002c4e8262002c8d565b9050919050565b60008115159050919050565b60007fffffffff0000000000000000000000000000000000000000000000000000000082169050919050565b600073ffffffffffffffffffffffffffffffffffffffff82169050919050565b6000819050919050565b82818337600083830152505050565b60005b8381101562002ce657808201518184015260208101905062002cc9565b8381111562002cf6576000848401525b50505050565b6000600282049050600182168062002d1557607f821691505b6020821081141562002d2c5762002d2b62002e4c565b5b50919050565b62002d3d8262002f26565b810181811067ffffffffffffffff8211171562002d5f5762002d5e62002ed9565b5b80604052505050565b600062002d758262002cad565b91507fffffffffffffffffffffffffffffffffffffffffffffffffffffffffffffffff82141562002dab5762002daa62002dee565b5b600182019050919050565b600062002dc38262002cad565b915062002dd08362002cad565b92508262002de35762002de262002e1d565b5b828206905092915050565b7f4e487b7100000000000000000000000000000000000000000000000000000000600052601160045260246000fd5b7f4e487b7100000000000000000000000000000000000000000000000000000000600052601260045260246000fd5b7f4e487b7100000000000000000000000000000000000000000000000000000000600052602260045260246000fd5b7f4e487b7100000000000000000000000000000000000000000000000000000000600052603160045260246000fd5b7f4e487b7100000000000000000000000000000000000000000000000000000000600052603260045260246000fd5b7f4e487b7100000000000000000000000000000000000000000000000000000000600052604160045260246000fd5b600080fd5b600080fd5b600080fd5b600080fd5b600080fd5b600080fd5b6000601f19601f8301169050919050565b7f455243373231456e756d657261626c653a206f776e657220696e646578206f7560008201527f74206f6620626f756e6473000000000000000000000000000000000000000000602082015250565b7f4552433732313a207472616e7366657220746f206e6f6e20455243373231526560008201527f63656976657220696d706c656d656e7465720000000000000000000000000000602082015250565b7f4552433732313a207472616e736665722066726f6d20696e636f72726563742060008201527f6f776e6572000000000000000000000000000000000000000000000000000000602082015250565b7f4552433732313a20746f6b656e20616c7265616479206d696e74656400000000600082015250565b7f4552433732313a207472616e7366657220746f20746865207a65726f2061646460008201527f7265737300000000000000000000000000000000000000000000000000000000602082015250565b7f4552433732313a20617070726f766520746f2063616c6c657200000000000000600082015250565b7f4552433732313a206f70657261746f7220717565727920666f72206e6f6e657860008201527f697374656e7420746f6b656e0000000000000000000000000000000000000000602082015250565b7f4552433732313a20617070726f76652063616c6c6572206973206e6f74206f7760008201527f6e6572206e6f7220617070726f76656420666f7220616c6c0000000000000000602082015250565b7f4552433732313a2062616c616e636520717565727920666f7220746865207a6560008201527f726f206164647265737300000000000000000000000000000000000000000000602082015250565b7f4552433732313a206f776e657220717565727920666f72206e6f6e657869737460008201527f656e7420746f6b656e0000000000000000000000000000000000000000000000602082015250565b7f4552433732313a206d696e7420746f20746865207a65726f2061646472657373600082015250565b7f4552433732313a20617070726f76656420717565727920666f72206e6f6e657860008201527f697374656e7420746f6b656e0000000000000000000000000000000000000000602082015250565b7f4552433732314d657461646174613a2055524920717565727920666f72206e6f60008201527f6e6578697374656e7420746f6b656e0000000000000000000000000000000000602082015250565b7f4552433732313a20617070726f76616c20746f2063757272656e74206f776e6560008201527f7200000000000000000000000000000000000000000000000000000000000000602082015250565b7f4552433732313a207472616e736665722063616c6c6572206973206e6f74206f60008201527f776e6572206e6f7220617070726f766564000000000000000000000000000000602082015250565b7f455243373231456e756d657261626c653a20676c6f62616c20696e646578206f60008201527f7574206f6620626f756e64730000000000000000000000000000000000000000602082015250565b620033c08162002c41565b8114620033cc57600080fd5b50565b620033da8162002c55565b8114620033e657600080fd5b50565b620033f48162002c61565b81146200340057600080fd5b50565b6200340e8162002cad565b81146200341a57600080fd5b5056fe60a06040523480156200001157600080fd5b5060405162002be338038062002be383398181016040528101906200003791906200029c565b848481600390805190602001906200005192919062000140565b5080600490805190602001906200006a92919062000140565b505050856006819055508260088190555081600960026101000a81548173ffffffffffffffffffffffffffffffffffffffff021916908373ffffffffffffffffffffffffffffffffffffffff16021790555080600560006101000a81548173ffffffffffffffffffffffffffffffffffffffff021916908373ffffffffffffffffffffffffffffffffffffffff1602179055503373ffffffffffffffffffffffffffffffffffffffff1660808173ffffffffffffffffffffffffffffffffffffffff1660601b815250505050505050506200056c565b8280546200014e9062000449565b90600052602060002090601f016020900481019282620001725760008555620001be565b82601f106200018d57805160ff1916838001178555620001be565b82800160010185558215620001be579182015b82811115620001bd578251825591602001919060010190620001a0565b5b509050620001cd9190620001d1565b5090565b5b80821115620001ec576000816000905550600101620001d2565b5090565b60006200020762000201846200039f565b62000376565b90508281526020810184848401111562000226576200022562000518565b5b6200023384828562000413565b509392505050565b6000815190506200024c8162000538565b92915050565b600082601f8301126200026a576200026962000513565b5b81516200027c848260208601620001f0565b91505092915050565b600081519050620002968162000552565b92915050565b60008060008060008060c08789031215620002bc57620002bb62000522565b5b6000620002cc89828a0162000285565b965050602087015167ffffffffffffffff811115620002f057620002ef6200051d565b5b620002fe89828a0162000252565b955050604087015167ffffffffffffffff8111156200032257620003216200051d565b5b6200033089828a0162000252565b94505060606200034389828a0162000285565b93505060806200035689828a016200023b565b92505060a06200036989828a016200023b565b9150509295509295509295565b60006200038262000395565b90506200039082826200047f565b919050565b6000604051905090565b600067ffffffffffffffff821115620003bd57620003bc620004e4565b5b620003c88262000527565b9050602081019050919050565b6000620003e282620003e9565b9050919050565b600073ffffffffffffffffffffffffffffffffffffffff82169050919050565b6000819050919050565b60005b838110156200043357808201518184015260208101905062000416565b8381111562000443576000848401525b50505050565b600060028204905060018216806200046257607f821691505b60208210811415620004795762000478620004b5565b5b50919050565b6200048a8262000527565b810181811067ffffffffffffffff82111715620004ac57620004ab620004e4565b5b80604052505050565b7f4e487b7100000000000000000000000000000000000000000000000000000000600052602260045260246000fd5b7f4e487b7100000000000000000000000000000000000000000000000000000000600052604160045260246000fd5b600080fd5b600080fd5b600080fd5b600080fd5b6000601f19601f8301169050919050565b6200054381620003d5565b81146200054f57600080fd5b50565b6200055d8162000409565b81146200056957600080fd5b50565b60805160601c6126516200059260003960008181610bba0152610c6701526126516000f3fe608060405234801561001057600080fd5b50600436106101735760003560e01c80633f4ba83a116100de578063953b8fb811610097578063a9059cbb11610071578063a9059cbb1461041a578063bdf896821461044a578063dd62ed3e14610468578063e0bab4c41461049857610173565b8063953b8fb8146103ae57806395d89b41146103cc578063a457c2d7146103ea57610173565b80633f4ba83a1461032457806370a082311461032e57806377262d381461035e5780637b3e5e7b146103685780637c0b8de2146103865780638456cb59146103a457610173565b806318160ddd1161013057806318160ddd146102505780632037fcbf1461026e57806323b872dd1461028a5780632afcf480146102ba578063313ce567146102d657806339509351146102f457610173565b806306fdde031461017857806306febe0014610196578063095ea7b3146101b457806311db3c16146101e4578063150b7a021461020257806316c61ccc14610232575b600080fd5b6101806104b6565b60405161018d9190611d62565b60405180910390f35b61019e610548565b6040516101ab9190611f84565b60405180910390f35b6101ce60048036038101906101c9919061192a565b61054e565b6040516101db9190611cf6565b60405180910390f35b6101ec610571565b6040516101f99190611cf6565b60405180910390f35b61021c600480360381019061021791906118a2565b610584565b6040516102299190611d11565b60405180910390f35b61023a610599565b6040516102479190611cf6565b60405180910390f35b6102586105ac565b6040516102659190611f84565b60405180910390f35b61028860048036038101906102839190611997565b6105b6565b005b6102a4600480360381019061029f919061184f565b610727565b6040516102b19190611cf6565b60405180910390f35b6102d460048036038101906102cf9190611997565b610756565b005b6102de610a26565b6040516102eb9190611f9f565b60405180910390f35b61030e6004803603810190610309919061192a565b610a2f565b60405161031b9190611cf6565b60405180910390f35b61032c610a66565b005b610348600480360381019061034391906117e2565b610b13565b6040516103559190611f84565b60405180910390f35b610366610b5b565b005b610370610c5f565b60405161037d9190611f84565b60405180910390f35b61038e610c65565b60405161039b9190611d47565b60405180910390f35b6103ac610c89565b005b6103b6610d36565b6040516103c39190611f84565b60405180910390f35b6103d4610d3c565b6040516103e19190611d62565b60405180910390f35b61040460048036038101906103ff919061192a565b610dce565b6040516104119190611cf6565b60405180910390f35b610434600480360381019061042f919061192a565b610e45565b6040516104419190611cf6565b60405180910390f35b610452610e68565b60405161045f9190611f84565b60405180910390f35b610482600480360381019061047d919061180f565b610e7f565b60405161048f9190611f84565b60405180910390f35b6104a0610f06565b6040516104ad9190611d2c565b60405180910390f35b6060600380546104c59061215c565b80601f01602080910402602001604051908101604052809291908181526020018280546104f19061215c565b801561053e5780601f106105135761010080835404028352916020019161053e565b820191906000526020600020905b81548152906001019060200180831161052157829003601f168201915b5050505050905090565b60085481565b600080610559610f2c565b9050610566818585610f34565b600191505092915050565b600960019054906101000a900460ff1681565b600063150b7a0260e01b905095945050505050565b600960009054906101000a900460ff1681565b6000600254905090565b600960019054906101000a900460ff1615610606576040517f08c379a00000000000000000000000000000000000000000000000000000000081526004016105fd90611e64565b60405180910390fd5b61060f33610b13565b811115610651576040517f08c379a000000000000000000000000000000000000000000000000000000000815260040161064890611ea4565b60405180910390fd5b600560009054906101000a900473ffffffffffffffffffffffffffffffffffffffff1673ffffffffffffffffffffffffffffffffffffffff1663a9059cbb33836040518363ffffffff1660e01b81526004016106ae929190611ccd565b602060405180830381600087803b1580156106c857600080fd5b505af11580156106dc573d6000803e3d6000fd5b505050506040513d601f19601f82011682018060405250810190610700919061196a565b508060076000828254610713919061202c565b9250508190555061072433826110ff565b50565b600080610732610f2c565b905061073f8582856112d6565b61074a858585611362565b60019150509392505050565b600960019054906101000a900460ff16156107a6576040517f08c379a000000000000000000000000000000000000000000000000000000000815260040161079d90611e64565b60405180910390fd5b6107ae6105ac565b6006546107bb919061202c565b8111156107fd576040517f08c379a00000000000000000000000000000000000000000000000000000000081526004016107f490611e24565b60405180910390fd5b600960009054906101000a900460ff161561084d576040517f08c379a000000000000000000000000000000000000000000000000000000000815260040161084490611e44565b60405180910390fd5b600560009054906101000a900473ffffffffffffffffffffffffffffffffffffffff1673ffffffffffffffffffffffffffffffffffffffff166323b872dd3330846040518463ffffffff1660e01b81526004016108ac93929190611c96565b602060405180830381600087803b1580156108c657600080fd5b505af11580156108da573d6000803e3d6000fd5b505050506040513d601f19601f820116820180604052508101906108fe919061196a565b5080600760008282546109119190611fd6565b9250508190555061092233826115e3565b61092a6105ac565b6006541415610a2357600560009054906101000a900473ffffffffffffffffffffffffffffffffffffffff1673ffffffffffffffffffffffffffffffffffffffff1663a9059cbb600960029054906101000a900473ffffffffffffffffffffffffffffffffffffffff166006546040518363ffffffff1660e01b81526004016109b4929190611ccd565b602060405180830381600087803b1580156109ce57600080fd5b505af11580156109e2573d6000803e3d6000fd5b505050506040513d601f19601f82011682018060405250810190610a06919061196a565b506001600960016101000a81548160ff0219169083151502179055505b50565b60006012905090565b600080610a3a610f2c565b9050610a5b818585610a4c8589610e7f565b610a569190611fd6565b610f34565b600191505092915050565b600960029054906101000a900473ffffffffffffffffffffffffffffffffffffffff1673ffffffffffffffffffffffffffffffffffffffff163373ffffffffffffffffffffffffffffffffffffffff1614610af6576040517f08c379a0000000000000000000000000000000000000000000000000000000008152600401610aed90611e84565b60405180910390fd5b6000600960006101000a81548160ff021916908315150217905550565b60008060008373ffffffffffffffffffffffffffffffffffffffff1673ffffffffffffffffffffffffffffffffffffffff168152602001908152602001600020549050919050565b600654610b6733610b13565b14610ba7576040517f08c379a0000000000000000000000000000000000000000000000000000000008152600401610b9e90611f24565b60405180910390fd5b610bb833610bb36105ac565b6110ff565b7f000000000000000000000000000000000000000000000000000000000000000073ffffffffffffffffffffffffffffffffffffffff166342842e0e30333073ffffffffffffffffffffffffffffffffffffffff166040518463ffffffff1660e01b8152600401610c2b93929190611c96565b600060405180830381600087803b158015610c4557600080fd5b505af1158015610c59573d6000803e3d6000fd5b50505050565b60075481565b7f000000000000000000000000000000000000000000000000000000000000000081565b600960029054906101000a900473ffffffffffffffffffffffffffffffffffffffff1673ffffffffffffffffffffffffffffffffffffffff163373ffffffffffffffffffffffffffffffffffffffff1614610d19576040517f08c379a0000000000000000000000000000000000000000000000000000000008152600401610d1090611e84565b60405180910390fd5b6001600960006101000a81548160ff021916908315150217905550565b60065481565b606060048054610d4b9061215c565b80601f0160208091040260200160405190810160405280929190818152602001828054610d779061215c565b8015610dc45780601f10610d9957610100808354040283529160200191610dc4565b820191906000526020600020905b815481529060010190602001808311610da757829003601f168201915b5050505050905090565b600080610dd9610f2c565b90506000610de78286610e7f565b905083811015610e2c576040517f08c379a0000000000000000000000000000000000000000000000000000000008152600401610e2390611f44565b60405180910390fd5b610e398286868403610f34565b60019250505092915050565b600080610e50610f2c565b9050610e5d818585611362565b600191505092915050565b6000600754600654610e7a919061202c565b905090565b6000600160008473ffffffffffffffffffffffffffffffffffffffff1673ffffffffffffffffffffffffffffffffffffffff16815260200190815260200160002060008373ffffffffffffffffffffffffffffffffffffffff1673ffffffffffffffffffffffffffffffffffffffff16815260200190815260200160002054905092915050565b600560009054906101000a900473ffffffffffffffffffffffffffffffffffffffff1681565b600033905090565b600073ffffffffffffffffffffffffffffffffffffffff168373ffffffffffffffffffffffffffffffffffffffff161415610fa4576040517f08c379a0000000000000000000000000000000000000000000000000000000008152600401610f9b90611f04565b60405180910390fd5b600073ffffffffffffffffffffffffffffffffffffffff168273ffffffffffffffffffffffffffffffffffffffff161415611014576040517f08c379a000000000000000000000000000000000000000000000000000000000815260040161100b90611dc4565b60405180910390fd5b80600160008573ffffffffffffffffffffffffffffffffffffffff1673ffffffffffffffffffffffffffffffffffffffff16815260200190815260200160002060008473ffffffffffffffffffffffffffffffffffffffff1673ffffffffffffffffffffffffffffffffffffffff168152602001908152602001600020819055508173ffffffffffffffffffffffffffffffffffffffff168373ffffffffffffffffffffffffffffffffffffffff167f8c5be1e5ebec7d5bd14f71427d1e84f3dd0314c0f7b2291e5b200ac8c7c3b925836040516110f29190611f84565b60405180910390a3505050565b600073ffffffffffffffffffffffffffffffffffffffff168273ffffffffffffffffffffffffffffffffffffffff16141561116f576040517f08c379a000000000000000000000000000000000000000000000000000000000815260040161116690611ec4565b60405180910390fd5b61117b82600083611743565b60008060008473ffffffffffffffffffffffffffffffffffffffff1673ffffffffffffffffffffffffffffffffffffffff16815260200190815260200160002054905081811015611201576040517f08c379a00000000000000000000000000000000000000000000000000000000081526004016111f890611da4565b60405180910390fd5b8181036000808573ffffffffffffffffffffffffffffffffffffffff1673ffffffffffffffffffffffffffffffffffffffff168152602001908152602001600020819055508160026000828254611258919061202c565b92505081905550600073ffffffffffffffffffffffffffffffffffffffff168373ffffffffffffffffffffffffffffffffffffffff167fddf252ad1be2c89b69c2b068fc378daa952ba7f163c4a11628f55a4df523b3ef846040516112bd9190611f84565b60405180910390a36112d183600084611748565b505050565b60006112e28484610e7f565b90507fffffffffffffffffffffffffffffffffffffffffffffffffffffffffffffffff811461135c578181101561134e576040517f08c379a000000000000000000000000000000000000000000000000000000000815260040161134590611de4565b60405180910390fd5b61135b8484848403610f34565b5b50505050565b600073ffffffffffffffffffffffffffffffffffffffff168373ffffffffffffffffffffffffffffffffffffffff1614156113d2576040517f08c379a00000000000000000000000000000000000000000000000000000000081526004016113c990611ee4565b60405180910390fd5b600073ffffffffffffffffffffffffffffffffffffffff168273ffffffffffffffffffffffffffffffffffffffff161415611442576040517f08c379a000000000000000000000000000000000000000000000000000000000815260040161143990611d84565b60405180910390fd5b61144d838383611743565b60008060008573ffffffffffffffffffffffffffffffffffffffff1673ffffffffffffffffffffffffffffffffffffffff168152602001908152602001600020549050818110156114d3576040517f08c379a00000000000000000000000000000000000000000000000000000000081526004016114ca90611e04565b60405180910390fd5b8181036000808673ffffffffffffffffffffffffffffffffffffffff1673ffffffffffffffffffffffffffffffffffffffff16815260200190815260200160002081905550816000808573ffffffffffffffffffffffffffffffffffffffff1673ffffffffffffffffffffffffffffffffffffffff16815260200190815260200160002060008282546115669190611fd6565b925050819055508273ffffffffffffffffffffffffffffffffffffffff168473ffffffffffffffffffffffffffffffffffffffff167fddf252ad1be2c89b69c2b068fc378daa952ba7f163c4a11628f55a4df523b3ef846040516115ca9190611f84565b60405180910390a36115dd848484611748565b50505050565b600073ffffffffffffffffffffffffffffffffffffffff168273ffffffffffffffffffffffffffffffffffffffff161415611653576040517f08c379a000000000000000000000000000000000000000000000000000000000815260040161164a90611f64565b60405180910390fd5b61165f60008383611743565b80600260008282546116719190611fd6565b92505081905550806000808473ffffffffffffffffffffffffffffffffffffffff1673ffffffffffffffffffffffffffffffffffffffff16815260200190815260200160002060008282546116c69190611fd6565b925050819055508173ffffffffffffffffffffffffffffffffffffffff16600073ffffffffffffffffffffffffffffffffffffffff167fddf252ad1be2c89b69c2b068fc378daa952ba7f163c4a11628f55a4df523b3ef8360405161172b9190611f84565b60405180910390a361173f60008383611748565b5050565b505050565b505050565b60008135905061175c816125d6565b92915050565b600081519050611771816125ed565b92915050565b60008083601f84011261178d5761178c6121f1565b5b8235905067ffffffffffffffff8111156117aa576117a96121ec565b5b6020830191508360018202830111156117c6576117c56121f6565b5b9250929050565b6000813590506117dc81612604565b92915050565b6000602082840312156117f8576117f7612200565b5b60006118068482850161174d565b91505092915050565b6000806040838503121561182657611825612200565b5b60006118348582860161174d565b92505060206118458582860161174d565b9150509250929050565b60008060006060848603121561186857611867612200565b5b60006118768682870161174d565b93505060206118878682870161174d565b9250506040611898868287016117cd565b9150509250925092565b6000806000806000608086880312156118be576118bd612200565b5b60006118cc8882890161174d565b95505060206118dd8882890161174d565b94505060406118ee888289016117cd565b935050606086013567ffffffffffffffff81111561190f5761190e6121fb565b5b61191b88828901611777565b92509250509295509295909350565b6000806040838503121561194157611940612200565b5b600061194f8582860161174d565b9250506020611960858286016117cd565b9150509250929050565b6000602082840312156119805761197f612200565b5b600061198e84828501611762565b91505092915050565b6000602082840312156119ad576119ac612200565b5b60006119bb848285016117cd565b91505092915050565b6119cd81612060565b82525050565b6119dc81612072565b82525050565b6119eb8161207e565b82525050565b6119fa816120e1565b82525050565b611a09816120f3565b82525050565b6000611a1a82611fba565b611a248185611fc5565b9350611a34818560208601612129565b611a3d81612205565b840191505092915050565b6000611a55602383611fc5565b9150611a6082612216565b604082019050919050565b6000611a78602283611fc5565b9150611a8382612265565b604082019050919050565b6000611a9b602283611fc5565b9150611aa6826122b4565b604082019050919050565b6000611abe601d83611fc5565b9150611ac982612303565b602082019050919050565b6000611ae1602683611fc5565b9150611aec8261232c565b604082019050919050565b6000611b04601783611fc5565b9150611b0f8261237b565b602082019050919050565b6000611b27601283611fc5565b9150611b32826123a4565b602082019050919050565b6000611b4a601583611fc5565b9150611b55826123cd565b602082019050919050565b6000611b6d601c83611fc5565b9150611b78826123f6565b602082019050919050565b6000611b90601983611fc5565b9150611b9b8261241f565b602082019050919050565b6000611bb3602183611fc5565b9150611bbe82612448565b604082019050919050565b6000611bd6602583611fc5565b9150611be182612497565b604082019050919050565b6000611bf9602483611fc5565b9150611c04826124e6565b604082019050919050565b6000611c1c601683611fc5565b9150611c2782612535565b602082019050919050565b6000611c3f602583611fc5565b9150611c4a8261255e565b604082019050919050565b6000611c62601f83611fc5565b9150611c6d826125ad565b602082019050919050565b611c81816120ca565b82525050565b611c90816120d4565b82525050565b6000606082019050611cab60008301866119c4565b611cb860208301856119c4565b611cc56040830184611c78565b949350505050565b6000604082019050611ce260008301856119c4565b611cef6020830184611c78565b9392505050565b6000602082019050611d0b60008301846119d3565b92915050565b6000602082019050611d2660008301846119e2565b92915050565b6000602082019050611d4160008301846119f1565b92915050565b6000602082019050611d5c6000830184611a00565b92915050565b60006020820190508181036000830152611d7c8184611a0f565b905092915050565b60006020820190508181036000830152611d9d81611a48565b9050919050565b60006020820190508181036000830152611dbd81611a6b565b9050919050565b60006020820190508181036000830152611ddd81611a8e565b9050919050565b60006020820190508181036000830152611dfd81611ab1565b9050919050565b60006020820190508181036000830152611e1d81611ad4565b9050919050565b60006020820190508181036000830152611e3d81611af7565b9050919050565b60006020820190508181036000830152611e5d81611b1a565b9050919050565b60006020820190508181036000830152611e7d81611b3d565b9050919050565b60006020820190508181036000830152611e9d81611b60565b9050919050565b60006020820190508181036000830152611ebd81611b83565b9050919050565b60006020820190508181036000830152611edd81611ba6565b9050919050565b60006020820190508181036000830152611efd81611bc9565b9050919050565b60006020820190508181036000830152611f1d81611bec565b9050919050565b60006020820190508181036000830152611f3d81611c0f565b9050919050565b60006020820190508181036000830152611f5d81611c32565b9050919050565b60006020820190508181036000830152611f7d81611c55565b9050919050565b6000602082019050611f996000830184611c78565b92915050565b6000602082019050611fb46000830184611c87565b92915050565b600081519050919050565b600082825260208201905092915050565b6000611fe1826120ca565b9150611fec836120ca565b9250827fffffffffffffffffffffffffffffffffffffffffffffffffffffffffffffffff038211156120215761202061218e565b5b828201905092915050565b6000612037826120ca565b9150612042836120ca565b9250828210156120555761205461218e565b5b828203905092915050565b600061206b826120aa565b9050919050565b60008115159050919050565b60007fffffffff0000000000000000000000000000000000000000000000000000000082169050919050565b600073ffffffffffffffffffffffffffffffffffffffff82169050919050565b6000819050919050565b600060ff82169050919050565b60006120ec82612105565b9050919050565b60006120fe82612105565b9050919050565b600061211082612117565b9050919050565b6000612122826120aa565b9050919050565b60005b8381101561214757808201518184015260208101905061212c565b83811115612156576000848401525b50505050565b6000600282049050600182168061217457607f821691505b60208210811415612188576121876121bd565b5b50919050565b7f4e487b7100000000000000000000000000000000000000000000000000000000600052601160045260246000fd5b7f4e487b7100000000000000000000000000000000000000000000000000000000600052602260045260246000fd5b600080fd5b600080fd5b600080fd5b600080fd5b600080fd5b6000601f19601f8301169050919050565b7f45524332303a207472616e7366657220746f20746865207a65726f206164647260008201527f6573730000000000000000000000000000000000000000000000000000000000602082015250565b7f45524332303a206275726e20616d6f756e7420657863656564732062616c616e60008201527f6365000000000000000000000000000000000000000000000000000000000000602082015250565b7f45524332303a20617070726f766520746f20746865207a65726f20616464726560008201527f7373000000000000000000000000000000000000000000000000000000000000602082015250565b7f45524332303a20696e73756666696369656e7420616c6c6f77616e6365000000600082015250565b7f45524332303a207472616e7366657220616d6f756e742065786365656473206260008201527f616c616e63650000000000000000000000000000000000000000000000000000602082015250565b7f4e6f7420656e6f75676820736861726573206c65667421000000000000000000600082015250565b7f436f6e7472616374204973205061757365640000000000000000000000000000600082015250565b7f54617267657420416c7265616479205261697365640000000000000000000000600082015250565b7f4f6e6c792041646d696e2043616e2050617573652f556e706175736500000000600082015250565b7f4e6f7420477265617420456e6f7567682042616c616e63652100000000000000600082015250565b7f45524332303a206275726e2066726f6d20746865207a65726f2061646472657360008201527f7300000000000000000000000000000000000000000000000000000000000000602082015250565b7f45524332303a207472616e736665722066726f6d20746865207a65726f20616460008201527f6472657373000000000000000000000000000000000000000000000000000000602082015250565b7f45524332303a20617070726f76652066726f6d20746865207a65726f2061646460008201527f7265737300000000000000000000000000000000000000000000000000000000602082015250565b7f446f204e6f7420486176652052465420537570706c7900000000000000000000600082015250565b7f45524332303a2064656372656173656420616c6c6f77616e63652062656c6f7760008201527f207a65726f000000000000000000000000000000000000000000000000000000602082015250565b7f45524332303a206d696e7420746f20746865207a65726f206164647265737300600082015250565b6125df81612060565b81146125ea57600080fd5b50565b6125f681612072565b811461260157600080fd5b50565b61260d816120ca565b811461261857600080fd5b5056fea2646970667358221220844515ac1a49d62e72967f23d8230898a7d0083bef62769149c6b04d006282dc64736f6c63430008070033a2646970667358221220dbb38b697f029d44927f0a38d826f5eb625ea6ed358de3dec2e3d81c92914bd864736f6c63430008070033546865205370696e672044414f2050726f6a656374204d61726b6574706c6163652054657374",
  "immutableReferences": {},
  "source": "// SPDX-License-Identifier: UNLICENSED\npragma solidity 0.8.7;\n\nimport \"../node_modules/openzeppelin-solidity/contracts/token/ERC721/IERC721.sol\";\nimport \"../node_modules/openzeppelin-solidity/contracts/token/ERC721/extensions/ERC721Enumerable.sol\";\nimport \"./FundRaising.sol\";\n\ncontract testERC721 is  ERC721Enumerable {\n\n    constructor() ERC721(\"The Sping DAO Project Marketplace Test\", \"SpringDAOtest\") {\n        // baseURI = springDAOMetadataURI;\n    }\n\n    function createProject(uint256 targetAmount, string calldata projectName, string calldata projectSymbol, string calldata _tokenURI, uint256 dataAccessThreshold, address DAI) external returns (address) {\n        address newProjectAddress = address(new FundRaising(targetAmount, projectName, projectSymbol, dataAccessThreshold, msg.sender, DAI));\n        uint256 tokenID = uint256(uint160(newProjectAddress));\n        _safeMint( newProjectAddress , tokenID ); // think should transfer ownership to the projectfundraising contract\n        return newProjectAddress;\n    }\n}\n",
  "sourcePath": "/Users/gus/springdao_nfts/ProjectMarketplace/contracts/testERC721.sol",
  "compiler": {
    "name": "solc",
    "version": "0.8.7+commit.e28d00a7.Emscripten.clang"
  },
  "schemaVersion": "3.4.8",
  "updatedAt": "2022-08-05T10:36:59.434Z",
  "devdoc": {
    "kind": "dev",
    "methods": {
      "approve(address,uint256)": {
        "details": "See {IERC721-approve}."
      },
      "balanceOf(address)": {
        "details": "See {IERC721-balanceOf}."
      },
      "getApproved(uint256)": {
        "details": "See {IERC721-getApproved}."
      },
      "isApprovedForAll(address,address)": {
        "details": "See {IERC721-isApprovedForAll}."
      },
      "name()": {
        "details": "See {IERC721Metadata-name}."
      },
      "ownerOf(uint256)": {
        "details": "See {IERC721-ownerOf}."
      },
      "safeTransferFrom(address,address,uint256)": {
        "details": "See {IERC721-safeTransferFrom}."
      },
      "safeTransferFrom(address,address,uint256,bytes)": {
        "details": "See {IERC721-safeTransferFrom}."
      },
      "setApprovalForAll(address,bool)": {
        "details": "See {IERC721-setApprovalForAll}."
      },
      "supportsInterface(bytes4)": {
        "details": "See {IERC165-supportsInterface}."
      },
      "symbol()": {
        "details": "See {IERC721Metadata-symbol}."
      },
      "tokenByIndex(uint256)": {
        "details": "See {IERC721Enumerable-tokenByIndex}."
      },
      "tokenOfOwnerByIndex(address,uint256)": {
        "details": "See {IERC721Enumerable-tokenOfOwnerByIndex}."
      },
      "tokenURI(uint256)": {
        "details": "See {IERC721Metadata-tokenURI}."
      },
      "totalSupply()": {
        "details": "See {IERC721Enumerable-totalSupply}."
      },
      "transferFrom(address,address,uint256)": {
        "details": "See {IERC721-transferFrom}."
      }
    },
    "version": 1
  },
  "userdoc": {
    "kind": "user",
    "methods": {},
    "version": 1
  }
}