{
  "contractName": "RFT",
  "abi": [
    {
      "inputs": [
        {
          "internalType": "string",
          "name": "_name",
          "type": "string"
        },
        {
          "internalType": "string",
          "name": "_symbol",
          "type": "string"
        },
        {
          "internalType": "address",
          "name": "_nftAddress",
          "type": "address"
        },
        {
          "internalType": "uint256",
          "name": "_nftId",
          "type": "uint256"
        },
        {
          "internalType": "uint256",
          "name": "_SharePrice",
          "type": "uint256"
        },
        {
          "internalType": "uint256",
          "name": "_ShareSupply",
          "type": "uint256"
        },
        {
          "internalType": "address",
          "name": "_daiAddress",
          "type": "address"
        }
      ],
      "stateMutability": "nonpayable",
      "type": "constructor"
    },
    {
      "anonymous": false,
      "inputs": [
        {
          "indexed": true,
          "internalType": "address",
          "name": "owner",
          "type": "address"
        },
        {
          "indexed": true,
          "internalType": "address",
          "name": "spender",
          "type": "address"
        },
        {
          "indexed": false,
          "internalType": "uint256",
          "name": "value",
          "type": "uint256"
        }
      ],
      "name": "Approval",
      "type": "event"
    },
    {
      "anonymous": false,
      "inputs": [
        {
          "indexed": true,
          "internalType": "address",
          "name": "from",
          "type": "address"
        },
        {
          "indexed": true,
          "internalType": "address",
          "name": "to",
          "type": "address"
        },
        {
          "indexed": false,
          "internalType": "uint256",
          "name": "value",
          "type": "uint256"
        }
      ],
      "name": "Transfer",
      "type": "event"
    },
    {
      "inputs": [],
      "name": "SharePrice",
      "outputs": [
        {
          "internalType": "uint256",
          "name": "",
          "type": "uint256"
        }
      ],
      "stateMutability": "view",
      "type": "function"
    },
    {
      "inputs": [],
      "name": "ShareSupply",
      "outputs": [
        {
          "internalType": "uint256",
          "name": "",
          "type": "uint256"
        }
      ],
      "stateMutability": "view",
      "type": "function"
    },
    {
      "inputs": [],
      "name": "Target",
      "outputs": [
        {
          "internalType": "uint256",
          "name": "",
          "type": "uint256"
        }
      ],
      "stateMutability": "view",
      "type": "function"
    },
    {
      "inputs": [],
      "name": "TargetRaised",
      "outputs": [
        {
          "internalType": "bool",
          "name": "",
          "type": "bool"
        }
      ],
      "stateMutability": "view",
      "type": "function"
    },
    {
      "inputs": [
        {
          "internalType": "address",
          "name": "",
          "type": "address"
        }
      ],
      "name": "addressToAmountFunded",
      "outputs": [
        {
          "internalType": "uint256",
          "name": "",
          "type": "uint256"
        }
      ],
      "stateMutability": "view",
      "type": "function"
    },
    {
      "inputs": [],
      "name": "admin",
      "outputs": [
        {
          "internalType": "address",
          "name": "",
          "type": "address"
        }
      ],
      "stateMutability": "view",
      "type": "function"
    },
    {
      "inputs": [
        {
          "internalType": "address",
          "name": "owner",
          "type": "address"
        },
        {
          "internalType": "address",
          "name": "spender",
          "type": "address"
        }
      ],
      "name": "allowance",
      "outputs": [
        {
          "internalType": "uint256",
          "name": "",
          "type": "uint256"
        }
      ],
      "stateMutability": "view",
      "type": "function"
    },
    {
      "inputs": [
        {
          "internalType": "address",
          "name": "spender",
          "type": "address"
        },
        {
          "internalType": "uint256",
          "name": "amount",
          "type": "uint256"
        }
      ],
      "name": "approve",
      "outputs": [
        {
          "internalType": "bool",
          "name": "",
          "type": "bool"
        }
      ],
      "stateMutability": "nonpayable",
      "type": "function"
    },
    {
      "inputs": [
        {
          "internalType": "address",
          "name": "account",
          "type": "address"
        }
      ],
      "name": "balanceOf",
      "outputs": [
        {
          "internalType": "uint256",
          "name": "",
          "type": "uint256"
        }
      ],
      "stateMutability": "view",
      "type": "function"
    },
    {
      "inputs": [],
      "name": "dai",
      "outputs": [
        {
          "internalType": "contract IERC20",
          "name": "",
          "type": "address"
        }
      ],
      "stateMutability": "view",
      "type": "function"
    },
    {
      "inputs": [],
      "name": "decimals",
      "outputs": [
        {
          "internalType": "uint8",
          "name": "",
          "type": "uint8"
        }
      ],
      "stateMutability": "view",
      "type": "function"
    },
    {
      "inputs": [
        {
          "internalType": "address",
          "name": "spender",
          "type": "address"
        },
        {
          "internalType": "uint256",
          "name": "subtractedValue",
          "type": "uint256"
        }
      ],
      "name": "decreaseAllowance",
      "outputs": [
        {
          "internalType": "bool",
          "name": "",
          "type": "bool"
        }
      ],
      "stateMutability": "nonpayable",
      "type": "function"
    },
    {
      "inputs": [
        {
          "internalType": "address",
          "name": "spender",
          "type": "address"
        },
        {
          "internalType": "uint256",
          "name": "addedValue",
          "type": "uint256"
        }
      ],
      "name": "increaseAllowance",
      "outputs": [
        {
          "internalType": "bool",
          "name": "",
          "type": "bool"
        }
      ],
      "stateMutability": "nonpayable",
      "type": "function"
    },
    {
      "inputs": [],
      "name": "name",
      "outputs": [
        {
          "internalType": "string",
          "name": "",
          "type": "string"
        }
      ],
      "stateMutability": "view",
      "type": "function"
    },
    {
      "inputs": [],
      "name": "nft",
      "outputs": [
        {
          "internalType": "contract IERC721",
          "name": "",
          "type": "address"
        }
      ],
      "stateMutability": "view",
      "type": "function"
    },
    {
      "inputs": [],
      "name": "nftId",
      "outputs": [
        {
          "internalType": "uint256",
          "name": "",
          "type": "uint256"
        }
      ],
      "stateMutability": "view",
      "type": "function"
    },
    {
      "inputs": [],
      "name": "symbol",
      "outputs": [
        {
          "internalType": "string",
          "name": "",
          "type": "string"
        }
      ],
      "stateMutability": "view",
      "type": "function"
    },
    {
      "inputs": [],
      "name": "totalSupply",
      "outputs": [
        {
          "internalType": "uint256",
          "name": "",
          "type": "uint256"
        }
      ],
      "stateMutability": "view",
      "type": "function"
    },
    {
      "inputs": [
        {
          "internalType": "address",
          "name": "to",
          "type": "address"
        },
        {
          "internalType": "uint256",
          "name": "amount",
          "type": "uint256"
        }
      ],
      "name": "transfer",
      "outputs": [
        {
          "internalType": "bool",
          "name": "",
          "type": "bool"
        }
      ],
      "stateMutability": "nonpayable",
      "type": "function"
    },
    {
      "inputs": [
        {
          "internalType": "address",
          "name": "from",
          "type": "address"
        },
        {
          "internalType": "address",
          "name": "to",
          "type": "address"
        },
        {
          "internalType": "uint256",
          "name": "amount",
          "type": "uint256"
        }
      ],
      "name": "transferFrom",
      "outputs": [
        {
          "internalType": "bool",
          "name": "",
          "type": "bool"
        }
      ],
      "stateMutability": "nonpayable",
      "type": "function"
    },
    {
      "inputs": [
        {
          "internalType": "uint256",
          "name": "shareAmount",
          "type": "uint256"
        }
      ],
      "name": "buyShare",
      "outputs": [],
      "stateMutability": "nonpayable",
      "type": "function"
    },
    {
      "inputs": [],
      "name": "withdrawIcoProfits",
      "outputs": [],
      "stateMutability": "nonpayable",
      "type": "function"
    }
  ],
  "bytecode": "0x60806040526000600b60146101000a81548160ff0219169083151502179055503480156200002c57600080fd5b5060405162002607380380620026078339818101604052810190620000529190620003b4565b86868160039081620000659190620006e6565b508060049081620000779190620006e6565b5050508360088190555084600960006101000a81548173ffffffffffffffffffffffffffffffffffffffff021916908373ffffffffffffffffffffffffffffffffffffffff160217905550826005819055508160068190555080600a60006101000a81548173ffffffffffffffffffffffffffffffffffffffff021916908373ffffffffffffffffffffffffffffffffffffffff16021790555033600b60006101000a81548173ffffffffffffffffffffffffffffffffffffffff021916908373ffffffffffffffffffffffffffffffffffffffff160217905550600554600654620001649190620007fc565b600781905550505050505050506200085d565b6000604051905090565b600080fd5b600080fd5b600080fd5b600080fd5b6000601f19601f8301169050919050565b7f4e487b7100000000000000000000000000000000000000000000000000000000600052604160045260246000fd5b620001e08262000195565b810181811067ffffffffffffffff82111715620002025762000201620001a6565b5b80604052505050565b60006200021762000177565b9050620002258282620001d5565b919050565b600067ffffffffffffffff821115620002485762000247620001a6565b5b620002538262000195565b9050602081019050919050565b60005b838110156200028057808201518184015260208101905062000263565b8381111562000290576000848401525b50505050565b6000620002ad620002a7846200022a565b6200020b565b905082815260208101848484011115620002cc57620002cb62000190565b5b620002d984828562000260565b509392505050565b600082601f830112620002f957620002f86200018b565b5b81516200030b84826020860162000296565b91505092915050565b600073ffffffffffffffffffffffffffffffffffffffff82169050919050565b6000620003418262000314565b9050919050565b620003538162000334565b81146200035f57600080fd5b50565b600081519050620003738162000348565b92915050565b6000819050919050565b6200038e8162000379565b81146200039a57600080fd5b50565b600081519050620003ae8162000383565b92915050565b600080600080600080600060e0888a031215620003d657620003d562000181565b5b600088015167ffffffffffffffff811115620003f757620003f662000186565b5b620004058a828b01620002e1565b975050602088015167ffffffffffffffff81111562000429576200042862000186565b5b620004378a828b01620002e1565b96505060406200044a8a828b0162000362565b95505060606200045d8a828b016200039d565b9450506080620004708a828b016200039d565b93505060a0620004838a828b016200039d565b92505060c0620004968a828b0162000362565b91505092959891949750929550565b600081519050919050565b7f4e487b7100000000000000000000000000000000000000000000000000000000600052602260045260246000fd5b60006002820490506001821680620004f857607f821691505b6020821081036200050e576200050d620004b0565b5b50919050565b60008190508160005260206000209050919050565b60006020601f8301049050919050565b600082821b905092915050565b600060088302620005787fffffffffffffffffffffffffffffffffffffffffffffffffffffffffffffffff8262000539565b62000584868362000539565b95508019841693508086168417925050509392505050565b6000819050919050565b6000620005c7620005c1620005bb8462000379565b6200059c565b62000379565b9050919050565b6000819050919050565b620005e383620005a6565b620005fb620005f282620005ce565b84845462000546565b825550505050565b600090565b6200061262000603565b6200061f818484620005d8565b505050565b5b8181101562000647576200063b60008262000608565b60018101905062000625565b5050565b601f8211156200069657620006608162000514565b6200066b8462000529565b810160208510156200067b578190505b620006936200068a8562000529565b83018262000624565b50505b505050565b600082821c905092915050565b6000620006bb600019846008026200069b565b1980831691505092915050565b6000620006d68383620006a8565b9150826002028217905092915050565b620006f182620004a5565b67ffffffffffffffff8111156200070d576200070c620001a6565b5b620007198254620004df565b620007268282856200064b565b600060209050601f8311600181146200075e576000841562000749578287015190505b620007558582620006c8565b865550620007c5565b601f1984166200076e8662000514565b60005b82811015620007985784890151825560018201915060208501945060208101905062000771565b86831015620007b85784890151620007b4601f891682620006a8565b8355505b6001600288020188555050505b505050505050565b7f4e487b7100000000000000000000000000000000000000000000000000000000600052601160045260246000fd5b6000620008098262000379565b9150620008168362000379565b9250817fffffffffffffffffffffffffffffffffffffffffffffffffffffffffffffffff0483118215151615620008525762000851620007cd565b5b828202905092915050565b611d9a806200086d6000396000f3fe608060405234801561001057600080fd5b50600436106101425760003560e01c80634fe6f55f116100b8578063a9059cbb1161007c578063a9059cbb1461037f578063a9ed6e9a146103af578063c6bc5182146103cb578063dd62ed3e146103e9578063f4b9fa7514610419578063f851a4401461043757610142565b80634fe6f55f146102c557806370a08231146102e357806395d89b41146103135780639ce15a3814610331578063a457c2d71461034f57610142565b8063313ce5671161010a578063313ce567146101ed578063395093511461020b5780633e47d6f31461023b578063479afbf91461026b57806347ccca021461028957806348c7a0bf146102a757610142565b806306fdde0314610147578063095ea7b31461016557806318160ddd146101955780631fed217d146101b357806323b872dd146101bd575b600080fd5b61014f610455565b60405161015c919061127b565b60405180910390f35b61017f600480360381019061017a9190611336565b6104e7565b60405161018c9190611391565b60405180910390f35b61019d61050a565b6040516101aa91906113bb565b60405180910390f35b6101bb610514565b005b6101d760048036038101906101d291906113d6565b610764565b6040516101e49190611391565b60405180910390f35b6101f5610793565b6040516102029190611445565b60405180910390f35b61022560048036038101906102209190611336565b61079c565b6040516102329190611391565b60405180910390f35b61025560048036038101906102509190611460565b6107d3565b60405161026291906113bb565b60405180910390f35b6102736107eb565b60405161028091906113bb565b60405180910390f35b6102916107f1565b60405161029e91906114ec565b60405180910390f35b6102af610817565b6040516102bc91906113bb565b60405180910390f35b6102cd61081d565b6040516102da91906113bb565b60405180910390f35b6102fd60048036038101906102f89190611460565b610823565b60405161030a91906113bb565b60405180910390f35b61031b61086b565b604051610328919061127b565b60405180910390f35b6103396108fd565b6040516103469190611391565b60405180910390f35b61036960048036038101906103649190611336565b610910565b6040516103769190611391565b60405180910390f35b61039960048036038101906103949190611336565b610987565b6040516103a69190611391565b60405180910390f35b6103c960048036038101906103c49190611507565b6109aa565b005b6103d3610ac4565b6040516103e091906113bb565b60405180910390f35b61040360048036038101906103fe9190611534565b610aca565b60405161041091906113bb565b60405180910390f35b610421610b51565b60405161042e9190611595565b60405180910390f35b61043f610b77565b60405161044c91906115bf565b60405180910390f35b60606003805461046490611609565b80601f016020809104026020016040519081016040528092919081815260200182805461049090611609565b80156104dd5780601f106104b2576101008083540402835291602001916104dd565b820191906000526020600020905b8154815290600101906020018083116104c057829003601f168201915b5050505050905090565b6000806104f2610b9d565b90506104ff818585610ba5565b600191505092915050565b6000600254905090565b600b60009054906101000a900473ffffffffffffffffffffffffffffffffffffffff1673ffffffffffffffffffffffffffffffffffffffff163373ffffffffffffffffffffffffffffffffffffffff16146105a4576040517f08c379a000000000000000000000000000000000000000000000000000000000815260040161059b90611686565b60405180910390fd5b6000600a60009054906101000a900473ffffffffffffffffffffffffffffffffffffffff1673ffffffffffffffffffffffffffffffffffffffff166370a08231306040518263ffffffff1660e01b815260040161060191906115bf565b602060405180830381865afa15801561061e573d6000803e3d6000fd5b505050506040513d601f19601f8201168201806040525081019061064291906116bb565b9050600081111561071157600a60009054906101000a900473ffffffffffffffffffffffffffffffffffffffff1673ffffffffffffffffffffffffffffffffffffffff1663a9059cbb600b60009054906101000a900473ffffffffffffffffffffffffffffffffffffffff16836040518363ffffffff1660e01b81526004016106cc9291906116e8565b6020604051808303816000875af11580156106eb573d6000803e3d6000fd5b505050506040513d601f19601f8201168201806040525081019061070f919061173d565b505b600061071b61050a565b6006546107289190611799565b905060008111156107605761075f600b60009054906101000a900473ffffffffffffffffffffffffffffffffffffffff1682610d6e565b5b5050565b60008061076f610b9d565b905061077c858285610ecd565b610787858585610f59565b60019150509392505050565b60006012905090565b6000806107a7610b9d565b90506107c88185856107b98589610aca565b6107c391906117cd565b610ba5565b600191505092915050565b600c6020528060005260406000206000915090505481565b60065481565b600960009054906101000a900473ffffffffffffffffffffffffffffffffffffffff1681565b60055481565b60075481565b60008060008373ffffffffffffffffffffffffffffffffffffffff1673ffffffffffffffffffffffffffffffffffffffff168152602001908152602001600020549050919050565b60606004805461087a90611609565b80601f01602080910402602001604051908101604052809291908181526020018280546108a690611609565b80156108f35780601f106108c8576101008083540402835291602001916108f3565b820191906000526020600020905b8154815290600101906020018083116108d657829003601f168201915b5050505050905090565b600b60149054906101000a900460ff1681565b60008061091b610b9d565b905060006109298286610aca565b90508381101561096e576040517f08c379a000000000000000000000000000000000000000000000000000000000815260040161096590611895565b60405180910390fd5b61097b8286868403610ba5565b60019250505092915050565b600080610992610b9d565b905061099f818585610f59565b600191505092915050565b600654816109b661050a565b6109c091906117cd565b1115610a01576040517f08c379a00000000000000000000000000000000000000000000000000000000081526004016109f890611901565b60405180910390fd5b600060055482610a119190611921565b9050600a60009054906101000a900473ffffffffffffffffffffffffffffffffffffffff1673ffffffffffffffffffffffffffffffffffffffff166323b872dd3330846040518463ffffffff1660e01b8152600401610a729392919061197b565b6020604051808303816000875af1158015610a91573d6000803e3d6000fd5b505050506040513d601f19601f82011682018060405250810190610ab5919061173d565b50610ac03383610d6e565b5050565b60085481565b6000600160008473ffffffffffffffffffffffffffffffffffffffff1673ffffffffffffffffffffffffffffffffffffffff16815260200190815260200160002060008373ffffffffffffffffffffffffffffffffffffffff1673ffffffffffffffffffffffffffffffffffffffff16815260200190815260200160002054905092915050565b600a60009054906101000a900473ffffffffffffffffffffffffffffffffffffffff1681565b600b60009054906101000a900473ffffffffffffffffffffffffffffffffffffffff1681565b600033905090565b600073ffffffffffffffffffffffffffffffffffffffff168373ffffffffffffffffffffffffffffffffffffffff1603610c14576040517f08c379a0000000000000000000000000000000000000000000000000000000008152600401610c0b90611a24565b60405180910390fd5b600073ffffffffffffffffffffffffffffffffffffffff168273ffffffffffffffffffffffffffffffffffffffff1603610c83576040517f08c379a0000000000000000000000000000000000000000000000000000000008152600401610c7a90611ab6565b60405180910390fd5b80600160008573ffffffffffffffffffffffffffffffffffffffff1673ffffffffffffffffffffffffffffffffffffffff16815260200190815260200160002060008473ffffffffffffffffffffffffffffffffffffffff1673ffffffffffffffffffffffffffffffffffffffff168152602001908152602001600020819055508173ffffffffffffffffffffffffffffffffffffffff168373ffffffffffffffffffffffffffffffffffffffff167f8c5be1e5ebec7d5bd14f71427d1e84f3dd0314c0f7b2291e5b200ac8c7c3b92583604051610d6191906113bb565b60405180910390a3505050565b600073ffffffffffffffffffffffffffffffffffffffff168273ffffffffffffffffffffffffffffffffffffffff1603610ddd576040517f08c379a0000000000000000000000000000000000000000000000000000000008152600401610dd490611b22565b60405180910390fd5b610de9600083836111d8565b8060026000828254610dfb91906117cd565b92505081905550806000808473ffffffffffffffffffffffffffffffffffffffff1673ffffffffffffffffffffffffffffffffffffffff1681526020019081526020016000206000828254610e5091906117cd565b925050819055508173ffffffffffffffffffffffffffffffffffffffff16600073ffffffffffffffffffffffffffffffffffffffff167fddf252ad1be2c89b69c2b068fc378daa952ba7f163c4a11628f55a4df523b3ef83604051610eb591906113bb565b60405180910390a3610ec9600083836111dd565b5050565b6000610ed98484610aca565b90507fffffffffffffffffffffffffffffffffffffffffffffffffffffffffffffffff8114610f535781811015610f45576040517f08c379a0000000000000000000000000000000000000000000000000000000008152600401610f3c90611b8e565b60405180910390fd5b610f528484848403610ba5565b5b50505050565b600073ffffffffffffffffffffffffffffffffffffffff168373ffffffffffffffffffffffffffffffffffffffff1603610fc8576040517f08c379a0000000000000000000000000000000000000000000000000000000008152600401610fbf90611c20565b60405180910390fd5b600073ffffffffffffffffffffffffffffffffffffffff168273ffffffffffffffffffffffffffffffffffffffff1603611037576040517f08c379a000000000000000000000000000000000000000000000000000000000815260040161102e90611cb2565b60405180910390fd5b6110428383836111d8565b60008060008573ffffffffffffffffffffffffffffffffffffffff1673ffffffffffffffffffffffffffffffffffffffff168152602001908152602001600020549050818110156110c8576040517f08c379a00000000000000000000000000000000000000000000000000000000081526004016110bf90611d44565b60405180910390fd5b8181036000808673ffffffffffffffffffffffffffffffffffffffff1673ffffffffffffffffffffffffffffffffffffffff16815260200190815260200160002081905550816000808573ffffffffffffffffffffffffffffffffffffffff1673ffffffffffffffffffffffffffffffffffffffff168152602001908152602001600020600082825461115b91906117cd565b925050819055508273ffffffffffffffffffffffffffffffffffffffff168473ffffffffffffffffffffffffffffffffffffffff167fddf252ad1be2c89b69c2b068fc378daa952ba7f163c4a11628f55a4df523b3ef846040516111bf91906113bb565b60405180910390a36111d28484846111dd565b50505050565b505050565b505050565b600081519050919050565b600082825260208201905092915050565b60005b8381101561121c578082015181840152602081019050611201565b8381111561122b576000848401525b50505050565b6000601f19601f8301169050919050565b600061124d826111e2565b61125781856111ed565b93506112678185602086016111fe565b61127081611231565b840191505092915050565b600060208201905081810360008301526112958184611242565b905092915050565b600080fd5b600073ffffffffffffffffffffffffffffffffffffffff82169050919050565b60006112cd826112a2565b9050919050565b6112dd816112c2565b81146112e857600080fd5b50565b6000813590506112fa816112d4565b92915050565b6000819050919050565b61131381611300565b811461131e57600080fd5b50565b6000813590506113308161130a565b92915050565b6000806040838503121561134d5761134c61129d565b5b600061135b858286016112eb565b925050602061136c85828601611321565b9150509250929050565b60008115159050919050565b61138b81611376565b82525050565b60006020820190506113a66000830184611382565b92915050565b6113b581611300565b82525050565b60006020820190506113d060008301846113ac565b92915050565b6000806000606084860312156113ef576113ee61129d565b5b60006113fd868287016112eb565b935050602061140e868287016112eb565b925050604061141f86828701611321565b9150509250925092565b600060ff82169050919050565b61143f81611429565b82525050565b600060208201905061145a6000830184611436565b92915050565b6000602082840312156114765761147561129d565b5b6000611484848285016112eb565b91505092915050565b6000819050919050565b60006114b26114ad6114a8846112a2565b61148d565b6112a2565b9050919050565b60006114c482611497565b9050919050565b60006114d6826114b9565b9050919050565b6114e6816114cb565b82525050565b600060208201905061150160008301846114dd565b92915050565b60006020828403121561151d5761151c61129d565b5b600061152b84828501611321565b91505092915050565b6000806040838503121561154b5761154a61129d565b5b6000611559858286016112eb565b925050602061156a858286016112eb565b9150509250929050565b600061157f826114b9565b9050919050565b61158f81611574565b82525050565b60006020820190506115aa6000830184611586565b92915050565b6115b9816112c2565b82525050565b60006020820190506115d460008301846115b0565b92915050565b7f4e487b7100000000000000000000000000000000000000000000000000000000600052602260045260246000fd5b6000600282049050600182168061162157607f821691505b602082108103611634576116336115da565b5b50919050565b7f6f6e6c792061646d696e00000000000000000000000000000000000000000000600082015250565b6000611670600a836111ed565b915061167b8261163a565b602082019050919050565b6000602082019050818103600083015261169f81611663565b9050919050565b6000815190506116b58161130a565b92915050565b6000602082840312156116d1576116d061129d565b5b60006116df848285016116a6565b91505092915050565b60006040820190506116fd60008301856115b0565b61170a60208301846113ac565b9392505050565b61171a81611376565b811461172557600080fd5b50565b60008151905061173781611711565b92915050565b6000602082840312156117535761175261129d565b5b600061176184828501611728565b91505092915050565b7f4e487b7100000000000000000000000000000000000000000000000000000000600052601160045260246000fd5b60006117a482611300565b91506117af83611300565b9250828210156117c2576117c161176a565b5b828203905092915050565b60006117d882611300565b91506117e383611300565b9250827fffffffffffffffffffffffffffffffffffffffffffffffffffffffffffffffff038211156118185761181761176a565b5b828201905092915050565b7f45524332303a2064656372656173656420616c6c6f77616e63652062656c6f7760008201527f207a65726f000000000000000000000000000000000000000000000000000000602082015250565b600061187f6025836111ed565b915061188a82611823565b604082019050919050565b600060208201905081810360008301526118ae81611872565b9050919050565b7f6e6f7420656e6f75676820736861726573206c65667400000000000000000000600082015250565b60006118eb6016836111ed565b91506118f6826118b5565b602082019050919050565b6000602082019050818103600083015261191a816118de565b9050919050565b600061192c82611300565b915061193783611300565b9250817fffffffffffffffffffffffffffffffffffffffffffffffffffffffffffffffff04831182151516156119705761196f61176a565b5b828202905092915050565b600060608201905061199060008301866115b0565b61199d60208301856115b0565b6119aa60408301846113ac565b949350505050565b7f45524332303a20617070726f76652066726f6d20746865207a65726f2061646460008201527f7265737300000000000000000000000000000000000000000000000000000000602082015250565b6000611a0e6024836111ed565b9150611a19826119b2565b604082019050919050565b60006020820190508181036000830152611a3d81611a01565b9050919050565b7f45524332303a20617070726f766520746f20746865207a65726f20616464726560008201527f7373000000000000000000000000000000000000000000000000000000000000602082015250565b6000611aa06022836111ed565b9150611aab82611a44565b604082019050919050565b60006020820190508181036000830152611acf81611a93565b9050919050565b7f45524332303a206d696e7420746f20746865207a65726f206164647265737300600082015250565b6000611b0c601f836111ed565b9150611b1782611ad6565b602082019050919050565b60006020820190508181036000830152611b3b81611aff565b9050919050565b7f45524332303a20696e73756666696369656e7420616c6c6f77616e6365000000600082015250565b6000611b78601d836111ed565b9150611b8382611b42565b602082019050919050565b60006020820190508181036000830152611ba781611b6b565b9050919050565b7f45524332303a207472616e736665722066726f6d20746865207a65726f20616460008201527f6472657373000000000000000000000000000000000000000000000000000000602082015250565b6000611c0a6025836111ed565b9150611c1582611bae565b604082019050919050565b60006020820190508181036000830152611c3981611bfd565b9050919050565b7f45524332303a207472616e7366657220746f20746865207a65726f206164647260008201527f6573730000000000000000000000000000000000000000000000000000000000602082015250565b6000611c9c6023836111ed565b9150611ca782611c40565b604082019050919050565b60006020820190508181036000830152611ccb81611c8f565b9050919050565b7f45524332303a207472616e7366657220616d6f756e742065786365656473206260008201527f616c616e63650000000000000000000000000000000000000000000000000000602082015250565b6000611d2e6026836111ed565b9150611d3982611cd2565b604082019050919050565b60006020820190508181036000830152611d5d81611d21565b905091905056fea264697066735822122055927803540da7be9d378e9a272379cd9e2872768232df8507bd4f178e8e058064736f6c634300080f0033",
  "immutableReferences": {},
  "source": "// SPDX-License-Identifier: MIT\npragma solidity ^0.8;\n\n// Majority of this lifted from: https://github.com/jklepatch/eattheblocks/blob/b9318560a7358847193ef5959c38c967999c7a71/screencast/241-re-fungible-tokens/contracts/RFT.sol\n//*****************************************************************************************************************\nimport '@openzeppelin/contracts/token/ERC721/IERC721.sol';\nimport '@openzeppelin/contracts/token/ERC20/IERC20.sol';\nimport '@openzeppelin/contracts/token/ERC20/ERC20.sol';\n\ncontract RFT is ERC20 {\n  //ICO & shares\n  uint public SharePrice;\n  uint public ShareSupply;\n  // uint public icoEnd;\n  uint public Target;\n\n  //NFT & DAI\n  uint public nftId;\n  IERC721 public nft;\n  IERC20 public dai;\n\n  //other\n  address public admin;\n  bool public TargetRaised = false;\n\n  // Mappings to keep track of investors:\n  mapping(address => uint256) public addressToAmountFunded; // So can process refunds\n\n  constructor(\n    string memory _name,\n    string memory _symbol,\n    address _nftAddress, \n    uint _nftId,\n    uint _SharePrice,\n    uint _ShareSupply,\n    address _daiAddress\n  ) \n  ERC20(_name, _symbol) \n  {\n    nftId = _nftId;\n    nft = IERC721(_nftAddress);\n    SharePrice = _SharePrice; \n    ShareSupply = _ShareSupply;\n    dai = IERC20(_daiAddress);\n    admin = msg.sender;\n\n    Target = (ShareSupply * SharePrice);\n  }\n\n  // DONT THINK NEED A START OR A END TO NECCESSARILY BE SPECIFIED\n  // function startIco() external {\n  //   require(msg.sender == admin, 'only admin');\n  //   nft.transferFrom(msg.sender, address(this), nftId);\n  //   icoEnd = block.timestamp + 7 * 86400;\n  // }\n\n  function buyShare(uint shareAmount) external {\n    // require(icoEnd > 0, 'ICO not started yet');\n    // require(block.timestamp <= icoEnd, 'ICO is finished');\n    require(totalSupply() + shareAmount <= ShareSupply, 'not enough shares left');\n    uint daiAmount = shareAmount * SharePrice;\n    dai.transferFrom(msg.sender, address(this), daiAmount);\n\n    // This minting should be saved for later\n    _mint(msg.sender, shareAmount);\n  }\n\n  function withdrawIcoProfits() external {\n    require(msg.sender == admin, 'only admin');\n    // require(block.timestamp > icoEnd, 'ICO not finished yet'); \n    uint daiBalance = dai.balanceOf(address(this));\n    if(daiBalance > 0) {\n      dai.transfer(admin, daiBalance);\n    }\n    uint unsoldShareBalance = ShareSupply - totalSupply();\n    if(unsoldShareBalance > 0) {\n      _mint(admin, unsoldShareBalance);\n    }\n  }\n}",
  "sourcePath": "/Users/gus/Re-fungible_Tokens/contracts/RFT.sol",
  "compiler": {
    "name": "solc",
    "version": "0.8.15+commit.e14f2714.Emscripten.clang"
  },
  "schemaVersion": "3.4.8",
  "updatedAt": "2022-07-20T14:52:29.865Z",
  "devdoc": {
    "kind": "dev",
    "methods": {
      "allowance(address,address)": {
        "details": "See {IERC20-allowance}."
      },
      "approve(address,uint256)": {
        "details": "See {IERC20-approve}. NOTE: If `amount` is the maximum `uint256`, the allowance is not updated on `transferFrom`. This is semantically equivalent to an infinite approval. Requirements: - `spender` cannot be the zero address."
      },
      "balanceOf(address)": {
        "details": "See {IERC20-balanceOf}."
      },
      "decimals()": {
        "details": "Returns the number of decimals used to get its user representation. For example, if `decimals` equals `2`, a balance of `505` tokens should be displayed to a user as `5.05` (`505 / 10 ** 2`). Tokens usually opt for a value of 18, imitating the relationship between Ether and Wei. This is the value {ERC20} uses, unless this function is overridden; NOTE: This information is only used for _display_ purposes: it in no way affects any of the arithmetic of the contract, including {IERC20-balanceOf} and {IERC20-transfer}."
      },
      "decreaseAllowance(address,uint256)": {
        "details": "Atomically decreases the allowance granted to `spender` by the caller. This is an alternative to {approve} that can be used as a mitigation for problems described in {IERC20-approve}. Emits an {Approval} event indicating the updated allowance. Requirements: - `spender` cannot be the zero address. - `spender` must have allowance for the caller of at least `subtractedValue`."
      },
      "increaseAllowance(address,uint256)": {
        "details": "Atomically increases the allowance granted to `spender` by the caller. This is an alternative to {approve} that can be used as a mitigation for problems described in {IERC20-approve}. Emits an {Approval} event indicating the updated allowance. Requirements: - `spender` cannot be the zero address."
      },
      "name()": {
        "details": "Returns the name of the token."
      },
      "symbol()": {
        "details": "Returns the symbol of the token, usually a shorter version of the name."
      },
      "totalSupply()": {
        "details": "See {IERC20-totalSupply}."
      },
      "transfer(address,uint256)": {
        "details": "See {IERC20-transfer}. Requirements: - `to` cannot be the zero address. - the caller must have a balance of at least `amount`."
      },
      "transferFrom(address,address,uint256)": {
        "details": "See {IERC20-transferFrom}. Emits an {Approval} event indicating the updated allowance. This is not required by the EIP. See the note at the beginning of {ERC20}. NOTE: Does not update the allowance if the current allowance is the maximum `uint256`. Requirements: - `from` and `to` cannot be the zero address. - `from` must have a balance of at least `amount`. - the caller must have allowance for ``from``'s tokens of at least `amount`."
      }
    },
    "version": 1
  },
  "userdoc": {
    "kind": "user",
    "methods": {},
    "version": 1
  }
}