{
	"data": {
		"bytecode": {
			"linkReferences": {},
			"object": "60806040523480156200001157600080fd5b5060405162004de638038062004de6833981016040819052620000349162000168565b60405180606001604052806023815260200162004dc3602391396040518060400160405280600d81526020016c14dc1c9a5b99d11053dd195cdd609a1b81525081600090805190602001906200008c929190620000c2565b508051620000a2906001906020840190620000c2565b50508151620000ba9150600a906020840190620000c2565b505062000297565b828054620000d09062000244565b90600052602060002090601f016020900481019282620000f457600085556200013f565b82601f106200010f57805160ff19168380011785556200013f565b828001600101855582156200013f579182015b828111156200013f57825182559160200191906001019062000122565b506200014d92915062000151565b5090565b5b808211156200014d576000815560010162000152565b600060208083850312156200017c57600080fd5b82516001600160401b03808211156200019457600080fd5b818501915085601f830112620001a957600080fd5b815181811115620001be57620001be62000281565b604051601f8201601f19908116603f01168101908382118183101715620001e957620001e962000281565b8160405282815288868487010111156200020257600080fd5b600093505b8284101562000226578484018601518185018701529285019262000207565b82841115620002385760008684830101525b98975050505050505050565b600181811c908216806200025957607f821691505b602082108114156200027b57634e487b7160e01b600052602260045260246000fd5b50919050565b634e487b7160e01b600052604160045260246000fd5b614b1c80620002a76000396000f3fe60806040523480156200001157600080fd5b5060043610620001395760003560e01c80634f6ccce711620000bb57806395d89b41116200007a57806395d89b41146200029e578063a22cb46514620002a8578063b88d4fde14620002bf578063c87b56dd14620002d6578063e985e9c514620002ed57600080fd5b80634f6ccce7146200023b57806362c348c514620002525780636352211e14620002665780636c0360eb146200027d57806370a08231146200028757600080fd5b806318160ddd116200010857806318160ddd14620001cc57806323b872dd14620001df57806327913fa014620001f65780632f745c59146200020d57806342842e0e146200022457600080fd5b806301ffc9a7146200013e57806306fdde03146200016a578063081812fc1462000183578063095ea7b314620001b3575b600080fd5b620001556200014f366004620016a6565b6200032c565b60405190151581526020015b60405180910390f35b620001746200035a565b604051620001619190620018bc565b6200019a620001943660046200178a565b620003f4565b6040516001600160a01b03909116815260200162000161565b620001ca620001c436600462001679565b6200041d565b005b6008545b60405190815260200162000161565b620001ca620001f03660046200150e565b62000542565b620001ca62000207366004620016e6565b6200057a565b620001d06200021e36600462001679565b620005df565b620001ca620002353660046200150e565b62000679565b620001d06200024c3660046200178a565b62000696565b6200019a620002633660046200178a565b90565b6200019a620002773660046200178a565b6200072f565b6200017462000791565b620001d062000298366004620014b8565b62000827565b62000174620008af565b620001ca620002b936600462001639565b620008c0565b620001ca620002d03660046200154f565b620008d1565b62000174620002e73660046200178a565b62000910565b62000155620002fe366004620014d6565b6001600160a01b03918216600090815260056020908152604080832093909416825291909152205460ff1690565b60006001600160e01b0319821663780e9d6360e01b1480620003545750620003548262000981565b92915050565b6060600080546200036b90620019ec565b80601f01602080910402602001604051908101604052809291908181526020018280546200039990620019ec565b8015620003ea5780601f10620003be57610100808354040283529160200191620003ea565b820191906000526020600020905b815481529060010190602001808311620003cc57829003601f168201915b5050505050905090565b60006200040182620009d4565b506000908152600460205260409020546001600160a01b031690565b60006200042a826200072f565b9050806001600160a01b0316836001600160a01b031614156200049e5760405162461bcd60e51b815260206004820152602160248201527f4552433732313a20617070726f76616c20746f2063757272656e74206f776e656044820152603960f91b60648201526084015b60405180910390fd5b336001600160a01b0382161480620004bd5750620004bd8133620002fe565b620005315760405162461bcd60e51b815260206004820152603e60248201527f4552433732313a20617070726f76652063616c6c6572206973206e6f7420746f60448201527f6b656e206f776e6572206e6f7220617070726f76656420666f7220616c6c0000606482015260840162000495565b6200053d838362000a38565b505050565b6200054e338262000aa8565b6200056d5760405162461bcd60e51b8152600401620004959062001923565b6200053d83838362000b2d565b6000868686868686604051620005909062001441565b620005a1969594939291906200186d565b604051809103906000f080158015620005be573d6000803e3d6000fd5b509050620005d633826001600160a01b031662000ce2565b50505050505050565b6000620005ec8362000827565b8210620006505760405162461bcd60e51b815260206004820152602b60248201527f455243373231456e756d657261626c653a206f776e657220696e646578206f7560448201526a74206f6620626f756e647360a81b606482015260840162000495565b506001600160a01b03919091166000908152600660209081526040808320938352929052205490565b6200053d83838360405180602001604052806000815250620008d1565b6000620006a260085490565b8210620007075760405162461bcd60e51b815260206004820152602c60248201527f455243373231456e756d657261626c653a20676c6f62616c20696e646578206f60448201526b7574206f6620626f756e647360a01b606482015260840162000495565b600882815481106200071d576200071d62001aa0565b90600052602060002001549050919050565b6000818152600260205260408120546001600160a01b031680620003545760405162461bcd60e51b8152602060048201526018602482015277115490cdcc8c4e881a5b9d985b1a59081d1bdad95b88125160421b604482015260640162000495565b600a8054620007a090620019ec565b80601f0160208091040260200160405190810160405280929190818152602001828054620007ce90620019ec565b80156200081f5780601f10620007f3576101008083540402835291602001916200081f565b820191906000526020600020905b8154815290600101906020018083116200080157829003601f168201915b505050505081565b60006001600160a01b038216620008935760405162461bcd60e51b815260206004820152602960248201527f4552433732313a2061646472657373207a65726f206973206e6f7420612076616044820152683634b21037bbb732b960b91b606482015260840162000495565b506001600160a01b031660009081526003602052604090205490565b6060600180546200036b90620019ec565b620008cd33838362000cfe565b5050565b620008dd338362000aa8565b620008fc5760405162461bcd60e51b8152600401620004959062001923565b6200090a8484848462000dcf565b50505050565b60606200091d82620009d4565b60006200092962000e09565b905060008151116200094b57604051806020016040528060008152506200097a565b80620009578462000e1a565b6040516020016200096a929190620017fb565b6040516020818303038152906040525b9392505050565b60006001600160e01b031982166380ac58cd60e01b1480620009b357506001600160e01b03198216635b5e139f60e01b145b806200035457506301ffc9a760e01b6001600160e01b031983161462000354565b6000818152600260205260409020546001600160a01b031662000a355760405162461bcd60e51b8152602060048201526018602482015277115490cdcc8c4e881a5b9d985b1a59081d1bdad95b88125160421b604482015260640162000495565b50565b600081815260046020526040902080546001600160a01b0319166001600160a01b038416908117909155819062000a6f826200072f565b6001600160a01b03167f8c5be1e5ebec7d5bd14f71427d1e84f3dd0314c0f7b2291e5b200ac8c7c3b92560405160405180910390a45050565b60008062000ab6836200072f565b9050806001600160a01b0316846001600160a01b0316148062000afe57506001600160a01b0380821660009081526005602090815260408083209388168352929052205460ff165b8062000b255750836001600160a01b031662000b1a84620003f4565b6001600160a01b0316145b949350505050565b826001600160a01b031662000b42826200072f565b6001600160a01b03161462000ba85760405162461bcd60e51b815260206004820152602560248201527f4552433732313a207472616e736665722066726f6d20696e636f72726563742060448201526437bbb732b960d91b606482015260840162000495565b6001600160a01b03821662000c0c5760405162461bcd60e51b8152602060048201526024808201527f4552433732313a207472616e7366657220746f20746865207a65726f206164646044820152637265737360e01b606482015260840162000495565b62000c1983838362000f30565b62000c2660008262000a38565b6001600160a01b038316600090815260036020526040812080546001929062000c51908490620019a3565b90915550506001600160a01b038216600090815260036020526040812080546001929062000c8190849062001971565b909155505060008181526002602052604080822080546001600160a01b0319166001600160a01b0386811691821790925591518493918716917fddf252ad1be2c89b69c2b068fc378daa952ba7f163c4a11628f55a4df523b3ef91a4505050565b620008cd82826040518060200160405280600081525062000ff4565b816001600160a01b0316836001600160a01b0316141562000d625760405162461bcd60e51b815260206004820152601960248201527f4552433732313a20617070726f766520746f2063616c6c657200000000000000604482015260640162000495565b6001600160a01b03838116600081815260056020908152604080832094871680845294825291829020805460ff191686151590811790915591519182527f17307eab39ab6107e8899845ad3d59bd9653f200f220920489ca2b5937696c31910160405180910390a3505050565b62000ddc84848462000b2d565b62000dea848484846200102e565b6200090a5760405162461bcd60e51b81526004016200049590620018d1565b6060600a80546200036b90620019ec565b60608162000e3f5750506040805180820190915260018152600360fc1b602082015290565b8160005b811562000e6f578062000e568162001a29565b915062000e679050600a836200198c565b915062000e43565b60008167ffffffffffffffff81111562000e8d5762000e8d62001ab6565b6040519080825280601f01601f19166020018201604052801562000eb8576020820181803683370190505b5090505b841562000b255762000ed0600183620019a3565b915062000edf600a8662001a47565b62000eec90603062001971565b60f81b81838151811062000f045762000f0462001aa0565b60200101906001600160f81b031916908160001a90535062000f28600a866200198c565b945062000ebc565b6001600160a01b03831662000f8e5762000f8881600880546000838152600960205260408120829055600182018355919091527ff3f7a9fe364faab93b216da50a3214154f22a0a2b415b23a84c8169e8b636ee30155565b62000fb4565b816001600160a01b0316836001600160a01b03161462000fb45762000fb4838262001149565b6001600160a01b03821662000fce576200053d81620011eb565b826001600160a01b0316826001600160a01b0316146200053d576200053d8282620012a5565b620010008383620012eb565b6200100f60008484846200102e565b6200053d5760405162461bcd60e51b81526004016200049590620018d1565b60006001600160a01b0384163b156200113e57604051630a85bd0160e11b81526001600160a01b0385169063150b7a0290620010759033908990889088906004016200182e565b602060405180830381600087803b1580156200109057600080fd5b505af1925050508015620010c3575060408051601f3d908101601f19168201909252620010c091810190620016c6565b60015b62001123573d808015620010f4576040519150601f19603f3d011682016040523d82523d6000602084013e620010f9565b606091505b5080516200111b5760405162461bcd60e51b81526004016200049590620018d1565b805181602001fd5b6001600160e01b031916630a85bd0160e11b14905062000b25565b506001949350505050565b60006001620011588462000827565b620011649190620019a3565b600083815260076020526040902054909150808214620011b8576001600160a01b03841660009081526006602090815260408083208584528252808320548484528184208190558352600790915290208190555b5060009182526007602090815260408084208490556001600160a01b039094168352600681528383209183525290812055565b600854600090620011ff90600190620019a3565b600083815260096020526040812054600880549394509092849081106200122a576200122a62001aa0565b9060005260206000200154905080600883815481106200124e576200124e62001aa0565b600091825260208083209091019290925582815260099091526040808220849055858252812055600880548062001289576200128962001a8a565b6001900381819060005260206000200160009055905550505050565b6000620012b28362000827565b6001600160a01b039093166000908152600660209081526040808320868452825280832085905593825260079052919091209190915550565b6001600160a01b038216620013435760405162461bcd60e51b815260206004820181905260248201527f4552433732313a206d696e7420746f20746865207a65726f2061646472657373604482015260640162000495565b6000818152600260205260409020546001600160a01b031615620013aa5760405162461bcd60e51b815260206004820152601c60248201527f4552433732313a20746f6b656e20616c7265616479206d696e74656400000000604482015260640162000495565b620013b86000838362000f30565b6001600160a01b0382166000908152600360205260408120805460019290620013e390849062001971565b909155505060008181526002602052604080822080546001600160a01b0319166001600160a01b03861690811790915590518392907fddf252ad1be2c89b69c2b068fc378daa952ba7f163c4a11628f55a4df523b3ef908290a45050565b6130038062001ae483390190565b80356001600160a01b03811681146200146757600080fd5b919050565b60008083601f8401126200147f57600080fd5b50813567ffffffffffffffff8111156200149857600080fd5b602083019150836020828501011115620014b157600080fd5b9250929050565b600060208284031215620014cb57600080fd5b6200097a826200144f565b60008060408385031215620014ea57600080fd5b620014f5836200144f565b915062001505602084016200144f565b90509250929050565b6000806000606084860312156200152457600080fd5b6200152f846200144f565b92506200153f602085016200144f565b9150604084013590509250925092565b600080600080608085870312156200156657600080fd5b62001571856200144f565b935062001581602086016200144f565b925060408501359150606085013567ffffffffffffffff80821115620015a657600080fd5b818701915087601f830112620015bb57600080fd5b813581811115620015d057620015d062001ab6565b604051601f8201601f19908116603f01168101908382118183101715620015fb57620015fb62001ab6565b816040528281528a60208487010111156200161557600080fd5b82602086016020830137600060208483010152809550505050505092959194509250565b600080604083850312156200164d57600080fd5b62001658836200144f565b9150602083013580151581146200166e57600080fd5b809150509250929050565b600080604083850312156200168d57600080fd5b62001698836200144f565b946020939093013593505050565b600060208284031215620016b957600080fd5b81356200097a8162001acc565b600060208284031215620016d957600080fd5b81516200097a8162001acc565b600080600080600080606087890312156200170057600080fd5b863567ffffffffffffffff808211156200171957600080fd5b620017278a838b016200146c565b909850965060208901359150808211156200174157600080fd5b6200174f8a838b016200146c565b909650945060408901359150808211156200176957600080fd5b506200177889828a016200146c565b979a9699509497509295939492505050565b6000602082840312156200179d57600080fd5b5035919050565b60008151808452620017be816020860160208601620019bd565b601f01601f19169290920160200192915050565b81835281816020850137506000828201602090810191909152601f909101601f19169091010190565b600083516200180f818460208801620019bd565b83519083019062001825818360208801620019bd565b01949350505050565b6001600160a01b03858116825284166020820152604081018390526080606082018190526000906200186390830184620017a4565b9695505050505050565b6060815260006200188360608301888a620017d2565b828103602084015262001898818789620017d2565b90508281036040840152620018af818587620017d2565b9998505050505050505050565b6020815260006200097a6020830184620017a4565b60208082526032908201527f4552433732313a207472616e7366657220746f206e6f6e20455243373231526560408201527131b2b4bb32b91034b6b83632b6b2b73a32b960711b606082015260800190565b6020808252602e908201527f4552433732313a2063616c6c6572206973206e6f7420746f6b656e206f776e6560408201526d1c881b9bdc88185c1c1c9bdd995960921b606082015260800190565b6000821982111562001987576200198762001a5e565b500190565b6000826200199e576200199e62001a74565b500490565b600082821015620019b857620019b862001a5e565b500390565b60005b83811015620019da578181015183820152602001620019c0565b838111156200090a5750506000910152565b600181811c9082168062001a0157607f821691505b6020821081141562001a2357634e487b7160e01b600052602260045260246000fd5b50919050565b600060001982141562001a405762001a4062001a5e565b5060010190565b60008262001a595762001a5962001a74565b500690565b634e487b7160e01b600052601160045260246000fd5b634e487b7160e01b600052601260045260246000fd5b634e487b7160e01b600052603160045260246000fd5b634e487b7160e01b600052603260045260246000fd5b634e487b7160e01b600052604160045260246000fd5b6001600160e01b03198116811462000a3557600080fdfe60806040523480156200001157600080fd5b5060405162003003380380620030038339810160408190526200003491620001e2565b8251839083906200004d90600090602085019062000085565b5080516200006390600190602084019062000085565b505081516200007b9150600a90602084019062000085565b50505050620002c6565b828054620000939062000273565b90600052602060002090601f016020900481019282620000b7576000855562000102565b82601f10620000d257805160ff191683800117855562000102565b8280016001018555821562000102579182015b8281111562000102578251825591602001919060010190620000e5565b506200011092915062000114565b5090565b5b8082111562000110576000815560010162000115565b600082601f8301126200013d57600080fd5b81516001600160401b03808211156200015a576200015a620002b0565b604051601f8301601f19908116603f01168101908282118183101715620001855762000185620002b0565b81604052838152602092508683858801011115620001a257600080fd5b600091505b83821015620001c65785820183015181830184015290820190620001a7565b83821115620001d85760008385830101525b9695505050505050565b600080600060608486031215620001f857600080fd5b83516001600160401b03808211156200021057600080fd5b6200021e878388016200012b565b945060208601519150808211156200023557600080fd5b62000243878388016200012b565b935060408601519150808211156200025a57600080fd5b5062000269868287016200012b565b9150509250925092565b600181811c908216806200028857607f821691505b60208210811415620002aa57634e487b7160e01b600052602260045260246000fd5b50919050565b634e487b7160e01b600052604160045260246000fd5b612d2d80620002d66000396000f3fe60806040523480156200001157600080fd5b5060043610620001395760003560e01c80634f6ccce711620000bb57806395d89b41116200007a57806395d89b41146200029e578063a22cb46514620002a8578063b88d4fde14620002bf578063c87b56dd14620002d6578063e985e9c514620002ed57600080fd5b80634f6ccce7146200023b5780636352211e1462000252578063699d810714620002695780636c0360eb146200027d57806370a08231146200028757600080fd5b806309866b3a116200010857806309866b3a14620001cc57806318160ddd14620001e357806323b872dd14620001f65780632f745c59146200020d57806342842e0e146200022457600080fd5b806301ffc9a7146200013e57806306fdde03146200016a578063081812fc1462000183578063095ea7b314620001b3575b600080fd5b620001556200014f366004620016a6565b6200032c565b60405190151581526020015b60405180910390f35b620001746200035a565b6040516200016191906200185b565b6200019a62000194366004620016e6565b620003f4565b6040516001600160a01b03909116815260200162000161565b620001ca620001c436600462001679565b6200041d565b005b620001ca620001dd36600462001700565b62000542565b6008545b60405190815260200162000161565b620001ca620002073660046200150e565b620005a7565b620001e76200021e36600462001679565b620005df565b620001ca620002353660046200150e565b62000679565b620001e76200024c366004620016e6565b62000696565b6200019a62000263366004620016e6565b6200072f565b6200019a6200027a366004620016e6565b90565b6200017462000791565b620001e762000298366004620014b8565b62000827565b62000174620008af565b620001ca620002b936600462001639565b620008c0565b620001ca620002d03660046200154f565b620008d1565b62000174620002e7366004620016e6565b62000910565b62000155620002fe366004620014d6565b6001600160a01b03918216600090815260056020908152604080832093909416825291909152205460ff1690565b60006001600160e01b0319821663780e9d6360e01b1480620003545750620003548262000981565b92915050565b6060600080546200036b90620019d8565b80601f01602080910402602001604051908101604052809291908181526020018280546200039990620019d8565b8015620003ea5780601f10620003be57610100808354040283529160200191620003ea565b820191906000526020600020905b815481529060010190602001808311620003cc57829003601f168201915b5050505050905090565b60006200040182620009d4565b506000908152600460205260409020546001600160a01b031690565b60006200042a826200072f565b9050806001600160a01b0316836001600160a01b031614156200049e5760405162461bcd60e51b815260206004820152602160248201527f4552433732313a20617070726f76616c20746f2063757272656e74206f776e656044820152603960f91b60648201526084015b60405180910390fd5b336001600160a01b0382161480620004bd5750620004bd8133620002fe565b620005315760405162461bcd60e51b815260206004820152603e60248201527f4552433732313a20617070726f76652063616c6c6572206973206e6f7420746f60448201527f6b656e206f776e6572206e6f7220617070726f76656420666f7220616c6c0000606482015260840162000495565b6200053d838362000a38565b505050565b6000868686868686604051620005589062001441565b620005699695949392919062001910565b604051809103906000f08015801562000586573d6000803e3d6000fd5b5090506200059e33826001600160a01b031662000aa8565b50505050505050565b620005b3338262000ac4565b620005d25760405162461bcd60e51b81526004016200049590620018c2565b6200053d83838362000b49565b6000620005ec8362000827565b8210620006505760405162461bcd60e51b815260206004820152602b60248201527f455243373231456e756d657261626c653a206f776e657220696e646578206f7560448201526a74206f6620626f756e647360a81b606482015260840162000495565b506001600160a01b03919091166000908152600660209081526040808320938352929052205490565b6200053d83838360405180602001604052806000815250620008d1565b6000620006a260085490565b8210620007075760405162461bcd60e51b815260206004820152602c60248201527f455243373231456e756d657261626c653a20676c6f62616c20696e646578206f60448201526b7574206f6620626f756e647360a01b606482015260840162000495565b600882815481106200071d576200071d62001a8c565b90600052602060002001549050919050565b6000818152600260205260408120546001600160a01b031680620003545760405162461bcd60e51b8152602060048201526018602482015277115490cdcc8c4e881a5b9d985b1a59081d1bdad95b88125160421b604482015260640162000495565b600a8054620007a090620019d8565b80601f0160208091040260200160405190810160405280929190818152602001828054620007ce90620019d8565b80156200081f5780601f10620007f3576101008083540402835291602001916200081f565b820191906000526020600020905b8154815290600101906020018083116200080157829003601f168201915b505050505081565b60006001600160a01b038216620008935760405162461bcd60e51b815260206004820152602960248201527f4552433732313a2061646472657373207a65726f206973206e6f7420612076616044820152683634b21037bbb732b960b91b606482015260840162000495565b506001600160a01b031660009081526003602052604090205490565b6060600180546200036b90620019d8565b620008cd33838362000cfe565b5050565b620008dd338362000ac4565b620008fc5760405162461bcd60e51b81526004016200049590620018c2565b6200090a8484848462000dcf565b50505050565b60606200091d82620009d4565b60006200092962000e09565b905060008151116200094b57604051806020016040528060008152506200097a565b80620009578462000e1a565b6040516020016200096a929190620017e9565b6040516020818303038152906040525b9392505050565b60006001600160e01b031982166380ac58cd60e01b1480620009b357506001600160e01b03198216635b5e139f60e01b145b806200035457506301ffc9a760e01b6001600160e01b031983161462000354565b6000818152600260205260409020546001600160a01b031662000a355760405162461bcd60e51b8152602060048201526018602482015277115490cdcc8c4e881a5b9d985b1a59081d1bdad95b88125160421b604482015260640162000495565b50565b600081815260046020526040902080546001600160a01b0319166001600160a01b038416908117909155819062000a6f826200072f565b6001600160a01b03167f8c5be1e5ebec7d5bd14f71427d1e84f3dd0314c0f7b2291e5b200ac8c7c3b92560405160405180910390a45050565b620008cd82826040518060200160405280600081525062000f30565b60008062000ad2836200072f565b9050806001600160a01b0316846001600160a01b0316148062000b1a57506001600160a01b0380821660009081526005602090815260408083209388168352929052205460ff165b8062000b415750836001600160a01b031662000b3684620003f4565b6001600160a01b0316145b949350505050565b826001600160a01b031662000b5e826200072f565b6001600160a01b03161462000bc45760405162461bcd60e51b815260206004820152602560248201527f4552433732313a207472616e736665722066726f6d20696e636f72726563742060448201526437bbb732b960d91b606482015260840162000495565b6001600160a01b03821662000c285760405162461bcd60e51b8152602060048201526024808201527f4552433732313a207472616e7366657220746f20746865207a65726f206164646044820152637265737360e01b606482015260840162000495565b62000c3583838362000f6a565b62000c4260008262000a38565b6001600160a01b038316600090815260036020526040812080546001929062000c6d9084906200198f565b90915550506001600160a01b038216600090815260036020526040812080546001929062000c9d9084906200195d565b909155505060008181526002602052604080822080546001600160a01b0319166001600160a01b0386811691821790925591518493918716917fddf252ad1be2c89b69c2b068fc378daa952ba7f163c4a11628f55a4df523b3ef91a4505050565b816001600160a01b0316836001600160a01b0316141562000d625760405162461bcd60e51b815260206004820152601960248201527f4552433732313a20617070726f766520746f2063616c6c657200000000000000604482015260640162000495565b6001600160a01b03838116600081815260056020908152604080832094871680845294825291829020805460ff191686151590811790915591519182527f17307eab39ab6107e8899845ad3d59bd9653f200f220920489ca2b5937696c31910160405180910390a3505050565b62000ddc84848462000b49565b62000dea848484846200102e565b6200090a5760405162461bcd60e51b8152600401620004959062001870565b6060600a80546200036b90620019d8565b60608162000e3f5750506040805180820190915260018152600360fc1b602082015290565b8160005b811562000e6f578062000e568162001a15565b915062000e679050600a8362001978565b915062000e43565b60008167ffffffffffffffff81111562000e8d5762000e8d62001aa2565b6040519080825280601f01601f19166020018201604052801562000eb8576020820181803683370190505b5090505b841562000b415762000ed06001836200198f565b915062000edf600a8662001a33565b62000eec9060306200195d565b60f81b81838151811062000f045762000f0462001a8c565b60200101906001600160f81b031916908160001a90535062000f28600a8662001978565b945062000ebc565b62000f3c838362001149565b62000f4b60008484846200102e565b6200053d5760405162461bcd60e51b8152600401620004959062001870565b6001600160a01b03831662000fc85762000fc281600880546000838152600960205260408120829055600182018355919091527ff3f7a9fe364faab93b216da50a3214154f22a0a2b415b23a84c8169e8b636ee30155565b62000fee565b816001600160a01b0316836001600160a01b03161462000fee5762000fee83826200129f565b6001600160a01b03821662001008576200053d8162001341565b826001600160a01b0316826001600160a01b0316146200053d576200053d8282620013fb565b60006001600160a01b0384163b156200113e57604051630a85bd0160e11b81526001600160a01b0385169063150b7a0290620010759033908990889088906004016200181c565b602060405180830381600087803b1580156200109057600080fd5b505af1925050508015620010c3575060408051601f3d908101601f19168201909252620010c091810190620016c6565b60015b62001123573d808015620010f4576040519150601f19603f3d011682016040523d82523d6000602084013e620010f9565b606091505b5080516200111b5760405162461bcd60e51b8152600401620004959062001870565b805181602001fd5b6001600160e01b031916630a85bd0160e11b14905062000b41565b506001949350505050565b6001600160a01b038216620011a15760405162461bcd60e51b815260206004820181905260248201527f4552433732313a206d696e7420746f20746865207a65726f2061646472657373604482015260640162000495565b6000818152600260205260409020546001600160a01b031615620012085760405162461bcd60e51b815260206004820152601c60248201527f4552433732313a20746f6b656e20616c7265616479206d696e74656400000000604482015260640162000495565b620012166000838362000f6a565b6001600160a01b0382166000908152600360205260408120805460019290620012419084906200195d565b909155505060008181526002602052604080822080546001600160a01b0319166001600160a01b03861690811790915590518392907fddf252ad1be2c89b69c2b068fc378daa952ba7f163c4a11628f55a4df523b3ef908290a45050565b60006001620012ae8462000827565b620012ba91906200198f565b6000838152600760205260409020549091508082146200130e576001600160a01b03841660009081526006602090815260408083208584528252808320548484528184208190558352600790915290208190555b5060009182526007602090815260408084208490556001600160a01b039094168352600681528383209183525290812055565b60085460009062001355906001906200198f565b6000838152600960205260408120546008805493945090928490811062001380576200138062001a8c565b906000526020600020015490508060088381548110620013a457620013a462001a8c565b6000918252602080832090910192909255828152600990915260408082208490558582528120556008805480620013df57620013df62001a76565b6001900381819060005260206000200160009055905550505050565b6000620014088362000827565b6001600160a01b039093166000908152600660209081526040808320868452825280832085905593825260079052919091209190915550565b6112288062001ad083390190565b80356001600160a01b03811681146200146757600080fd5b919050565b60008083601f8401126200147f57600080fd5b50813567ffffffffffffffff8111156200149857600080fd5b602083019150836020828501011115620014b157600080fd5b9250929050565b600060208284031215620014cb57600080fd5b6200097a826200144f565b60008060408385031215620014ea57600080fd5b620014f5836200144f565b915062001505602084016200144f565b90509250929050565b6000806000606084860312156200152457600080fd5b6200152f846200144f565b92506200153f602085016200144f565b9150604084013590509250925092565b600080600080608085870312156200156657600080fd5b62001571856200144f565b935062001581602086016200144f565b925060408501359150606085013567ffffffffffffffff80821115620015a657600080fd5b818701915087601f830112620015bb57600080fd5b813581811115620015d057620015d062001aa2565b604051601f8201601f19908116603f01168101908382118183101715620015fb57620015fb62001aa2565b816040528281528a60208487010111156200161557600080fd5b82602086016020830137600060208483010152809550505050505092959194509250565b600080604083850312156200164d57600080fd5b62001658836200144f565b9150602083013580151581146200166e57600080fd5b809150509250929050565b600080604083850312156200168d57600080fd5b62001698836200144f565b946020939093013593505050565b600060208284031215620016b957600080fd5b81356200097a8162001ab8565b600060208284031215620016d957600080fd5b81516200097a8162001ab8565b600060208284031215620016f957600080fd5b5035919050565b600080600080600080608087890312156200171a57600080fd5b86359550602087013567ffffffffffffffff808211156200173a57600080fd5b620017488a838b016200146c565b909750955060408901359150808211156200176257600080fd5b506200177189828a016200146c565b9094509250620017869050606088016200144f565b90509295509295509295565b60008151808452620017ac816020860160208601620019a9565b601f01601f19169290920160200192915050565b81835281816020850137506000828201602090810191909152601f909101601f19169091010190565b60008351620017fd818460208801620019a9565b83519083019062001813818360208801620019a9565b01949350505050565b6001600160a01b0385811682528416602082015260408101839052608060608201819052600090620018519083018462001792565b9695505050505050565b6020815260006200097a602083018462001792565b60208082526032908201527f4552433732313a207472616e7366657220746f206e6f6e20455243373231526560408201527131b2b4bb32b91034b6b83632b6b2b73a32b960711b606082015260800190565b6020808252602e908201527f4552433732313a2063616c6c6572206973206e6f7420746f6b656e206f776e6560408201526d1c881b9bdc88185c1c1c9bdd995960921b606082015260800190565b8681526080602082015260006200192c608083018789620017c0565b828103604084015262001941818688620017c0565b91505060018060a01b0383166060830152979650505050505050565b6000821982111562001973576200197362001a4a565b500190565b6000826200198a576200198a62001a60565b500490565b600082821015620019a457620019a462001a4a565b500390565b60005b83811015620019c6578181015183820152602001620019ac565b838111156200090a5750506000910152565b600181811c90821680620019ed57607f821691505b6020821081141562001a0f57634e487b7160e01b600052602260045260246000fd5b50919050565b600060001982141562001a2c5762001a2c62001a4a565b5060010190565b60008262001a455762001a4562001a60565b500690565b634e487b7160e01b600052601160045260246000fd5b634e487b7160e01b600052601260045260246000fd5b634e487b7160e01b600052603160045260246000fd5b634e487b7160e01b600052603260045260246000fd5b634e487b7160e01b600052604160045260246000fd5b6001600160e01b03198116811462000a3557600080fdfe60a06040523480156200001157600080fd5b5060405162001228380380620012288339810160408190526200003491620001f7565b8251839083906200004d9060039060208501906200009a565b508051620000639060049060208401906200009a565b5050506006939093555050600580546001600160a01b0319166001600160a01b039092169190911790553360601b608052620002e0565b828054620000a8906200028d565b90600052602060002090601f016020900481019282620000cc576000855562000117565b82601f10620000e757805160ff191683800117855562000117565b8280016001018555821562000117579182015b8281111562000117578251825591602001919060010190620000fa565b506200012592915062000129565b5090565b5b808211156200012557600081556001016200012a565b600082601f8301126200015257600080fd5b81516001600160401b03808211156200016f576200016f620002ca565b604051601f8301601f19908116603f011681019082821181831017156200019a576200019a620002ca565b81604052838152602092508683858801011115620001b757600080fd5b600091505b83821015620001db5785820183015181830184015290820190620001bc565b83821115620001ed5760008385830101525b9695505050505050565b600080600080608085870312156200020e57600080fd5b845160208601519094506001600160401b03808211156200022e57600080fd5b6200023c8883890162000140565b945060408701519150808211156200025357600080fd5b50620002628782880162000140565b606087015190935090506001600160a01b03811681146200028257600080fd5b939692955090935050565b600181811c90821680620002a257607f821691505b60208210811415620002c457634e487b7160e01b600052602260045260246000fd5b50919050565b634e487b7160e01b600052604160045260246000fd5b60805160601c610f2262000306600039600081816101e301526105680152610f226000f3fe608060405234801561001057600080fd5b50600436106101005760003560e01c806370a0823111610097578063a457c2d711610066578063a457c2d71461022e578063a9059cbb14610241578063dd62ed3e14610254578063e0bab4c41461026757600080fd5b806370a08231146101b55780637c0b8de2146101de578063953b8fb81461021d57806395d89b411461022657600080fd5b806323b872dd116100d357806323b872dd1461016d5780632afcf48014610180578063313ce5671461019357806339509351146101a257600080fd5b806306fdde0314610105578063095ea7b31461012357806318160ddd146101465780632037fcbf14610158575b600080fd5b61010d61027a565b60405161011a9190610e02565b60405180910390f35b610136610131366004610d9b565b61030c565b604051901515815260200161011a565b6002545b60405190815260200161011a565b61016b610166366004610de9565b610324565b005b61013661017b366004610d5a565b61041a565b61016b61018e366004610de9565b61043e565b6040516012815260200161011a565b6101366101b0366004610d9b565b610669565b61014a6101c3366004610ce0565b6001600160a01b031660009081526020819052604090205490565b6102057f000000000000000000000000000000000000000000000000000000000000000081565b6040516001600160a01b03909116815260200161011a565b61014a60065481565b61010d61068b565b61013661023c366004610d9b565b61069a565b61013661024f366004610d9b565b610715565b61014a610262366004610d21565b610723565b600554610205906001600160a01b031681565b60606003805461028990610e86565b80601f01602080910402602001604051908101604052809291908181526020018280546102b590610e86565b80156103025780601f106102d757610100808354040283529160200191610302565b820191906000526020600020905b8154815290600101906020018083116102e557829003601f168201915b5050505050905090565b60003361031a81858561074e565b5060019392505050565b336000908152602081905260409020548111156103885760405162461bcd60e51b815260206004820152601a60248201527f4e6f7420656e6f756768207368617265732062616c616e63652100000000000060448201526064015b60405180910390fd5b60055460405163a9059cbb60e01b8152336004820152602481018390526001600160a01b039091169063a9059cbb90604401602060405180830381600087803b1580156103d457600080fd5b505af11580156103e8573d6000803e3d6000fd5b505050506040513d601f19601f8201168201806040525081019061040c9190610dc7565b506104173382610873565b50565b6000336104288582856109b9565b610433858585610a33565b506001949350505050565b60025460065461044e9190610e6f565b81111561049d5760405162461bcd60e51b815260206004820152601760248201527f4e6f7420656e6f75676820736861726573206c65667421000000000000000000604482015260640161037f565b6005546040516323b872dd60e01b8152336004820152306024820152604481018390526001600160a01b03909116906323b872dd90606401602060405180830381600087803b1580156104ef57600080fd5b505af1158015610503573d6000803e3d6000fd5b505050506040513d601f19601f820116820180604052508101906105279190610dc7565b506105323382610c01565b6002546006541415610417576005546040516331a9108f60e11b81523060048201526001600160a01b039182169163a9059cbb917f000000000000000000000000000000000000000000000000000000000000000090911690636352211e9060240160206040518083038186803b1580156105ac57600080fd5b505afa1580156105c0573d6000803e3d6000fd5b505050506040513d601f19601f820116820180604052508101906105e49190610d04565b6006546040516001600160e01b031960e085901b1681526001600160a01b0390921660048301526024820152604401602060405180830381600087803b15801561062d57600080fd5b505af1158015610641573d6000803e3d6000fd5b505050506040513d601f19601f820116820180604052508101906106659190610dc7565b5050565b60003361031a81858561067c8383610723565b6106869190610e57565b61074e565b60606004805461028990610e86565b600033816106a88286610723565b9050838110156107085760405162461bcd60e51b815260206004820152602560248201527f45524332303a2064656372656173656420616c6c6f77616e63652062656c6f77604482015264207a65726f60d81b606482015260840161037f565b610433828686840361074e565b60003361031a818585610a33565b6001600160a01b03918216600090815260016020908152604080832093909416825291909152205490565b6001600160a01b0383166107b05760405162461bcd60e51b8152602060048201526024808201527f45524332303a20617070726f76652066726f6d20746865207a65726f206164646044820152637265737360e01b606482015260840161037f565b6001600160a01b0382166108115760405162461bcd60e51b815260206004820152602260248201527f45524332303a20617070726f766520746f20746865207a65726f206164647265604482015261737360f01b606482015260840161037f565b6001600160a01b0383811660008181526001602090815260408083209487168084529482529182902085905590518481527f8c5be1e5ebec7d5bd14f71427d1e84f3dd0314c0f7b2291e5b200ac8c7c3b92591015b60405180910390a3505050565b6001600160a01b0382166108d35760405162461bcd60e51b815260206004820152602160248201527f45524332303a206275726e2066726f6d20746865207a65726f206164647265736044820152607360f81b606482015260840161037f565b6001600160a01b038216600090815260208190526040902054818110156109475760405162461bcd60e51b815260206004820152602260248201527f45524332303a206275726e20616d6f756e7420657863656564732062616c616e604482015261636560f01b606482015260840161037f565b6001600160a01b0383166000908152602081905260408120838303905560028054849290610976908490610e6f565b90915550506040518281526000906001600160a01b038516907fddf252ad1be2c89b69c2b068fc378daa952ba7f163c4a11628f55a4df523b3ef90602001610866565b60006109c58484610723565b90506000198114610a2d5781811015610a205760405162461bcd60e51b815260206004820152601d60248201527f45524332303a20696e73756666696369656e7420616c6c6f77616e6365000000604482015260640161037f565b610a2d848484840361074e565b50505050565b6001600160a01b038316610a975760405162461bcd60e51b815260206004820152602560248201527f45524332303a207472616e736665722066726f6d20746865207a65726f206164604482015264647265737360d81b606482015260840161037f565b6001600160a01b038216610af95760405162461bcd60e51b815260206004820152602360248201527f45524332303a207472616e7366657220746f20746865207a65726f206164647260448201526265737360e81b606482015260840161037f565b6001600160a01b03831660009081526020819052604090205481811015610b715760405162461bcd60e51b815260206004820152602660248201527f45524332303a207472616e7366657220616d6f756e7420657863656564732062604482015265616c616e636560d01b606482015260840161037f565b6001600160a01b03808516600090815260208190526040808220858503905591851681529081208054849290610ba8908490610e57565b92505081905550826001600160a01b0316846001600160a01b03167fddf252ad1be2c89b69c2b068fc378daa952ba7f163c4a11628f55a4df523b3ef84604051610bf491815260200190565b60405180910390a3610a2d565b6001600160a01b038216610c575760405162461bcd60e51b815260206004820152601f60248201527f45524332303a206d696e7420746f20746865207a65726f206164647265737300604482015260640161037f565b8060026000828254610c699190610e57565b90915550506001600160a01b03821660009081526020819052604081208054839290610c96908490610e57565b90915550506040518181526001600160a01b038316906000907fddf252ad1be2c89b69c2b068fc378daa952ba7f163c4a11628f55a4df523b3ef9060200160405180910390a35050565b600060208284031215610cf257600080fd5b8135610cfd81610ed7565b9392505050565b600060208284031215610d1657600080fd5b8151610cfd81610ed7565b60008060408385031215610d3457600080fd5b8235610d3f81610ed7565b91506020830135610d4f81610ed7565b809150509250929050565b600080600060608486031215610d6f57600080fd5b8335610d7a81610ed7565b92506020840135610d8a81610ed7565b929592945050506040919091013590565b60008060408385031215610dae57600080fd5b8235610db981610ed7565b946020939093013593505050565b600060208284031215610dd957600080fd5b81518015158114610cfd57600080fd5b600060208284031215610dfb57600080fd5b5035919050565b600060208083528351808285015260005b81811015610e2f57858101830151858201604001528201610e13565b81811115610e41576000604083870101525b50601f01601f1916929092016040019392505050565b60008219821115610e6a57610e6a610ec1565b500190565b600082821015610e8157610e81610ec1565b500390565b600181811c90821680610e9a57607f821691505b60208210811415610ebb57634e487b7160e01b600052602260045260246000fd5b50919050565b634e487b7160e01b600052601160045260246000fd5b6001600160a01b038116811461041757600080fdfea2646970667358221220811872a04d5ed7d5f484baf8134af79176ca244618445f1ca9d556f45d081b2564736f6c63430008070033a26469706673582212200f7ec7322763c45a90fe884c7d1451e0c5284b93933e85af09c77571475b12c664736f6c63430008070033a2646970667358221220125ff631c1be77a15f890e1804086f39422d06692830bcc3ec487f1b014041cc64736f6c63430008070033537072696e672044616f2050726f6a656374204d61726b6574706c6163652054657374",
			"opcodes": "PUSH1 0x80 PUSH1 0x40 MSTORE CALLVALUE DUP1 ISZERO PUSH3 0x11 JUMPI PUSH1 0x0 DUP1 REVERT JUMPDEST POP PUSH1 0x40 MLOAD PUSH3 0x4DE6 CODESIZE SUB DUP1 PUSH3 0x4DE6 DUP4 CODECOPY DUP2 ADD PUSH1 0x40 DUP2 SWAP1 MSTORE PUSH3 0x34 SWAP2 PUSH3 0x168 JUMP JUMPDEST PUSH1 0x40 MLOAD DUP1 PUSH1 0x60 ADD PUSH1 0x40 MSTORE DUP1 PUSH1 0x23 DUP2 MSTORE PUSH1 0x20 ADD PUSH3 0x4DC3 PUSH1 0x23 SWAP2 CODECOPY PUSH1 0x40 MLOAD DUP1 PUSH1 0x40 ADD PUSH1 0x40 MSTORE DUP1 PUSH1 0xD DUP2 MSTORE PUSH1 0x20 ADD PUSH13 0x14DC1C9A5B99D11053DD195CDD PUSH1 0x9A SHL DUP2 MSTORE POP DUP2 PUSH1 0x0 SWAP1 DUP1 MLOAD SWAP1 PUSH1 0x20 ADD SWAP1 PUSH3 0x8C SWAP3 SWAP2 SWAP1 PUSH3 0xC2 JUMP JUMPDEST POP DUP1 MLOAD PUSH3 0xA2 SWAP1 PUSH1 0x1 SWAP1 PUSH1 0x20 DUP5 ADD SWAP1 PUSH3 0xC2 JUMP JUMPDEST POP POP DUP2 MLOAD PUSH3 0xBA SWAP2 POP PUSH1 0xA SWAP1 PUSH1 0x20 DUP5 ADD SWAP1 PUSH3 0xC2 JUMP JUMPDEST POP POP PUSH3 0x297 JUMP JUMPDEST DUP3 DUP1 SLOAD PUSH3 0xD0 SWAP1 PUSH3 0x244 JUMP JUMPDEST SWAP1 PUSH1 0x0 MSTORE PUSH1 0x20 PUSH1 0x0 KECCAK256 SWAP1 PUSH1 0x1F ADD PUSH1 0x20 SWAP1 DIV DUP2 ADD SWAP3 DUP3 PUSH3 0xF4 JUMPI PUSH1 0x0 DUP6 SSTORE PUSH3 0x13F JUMP JUMPDEST DUP3 PUSH1 0x1F LT PUSH3 0x10F JUMPI DUP1 MLOAD PUSH1 0xFF NOT AND DUP4 DUP1 ADD OR DUP6 SSTORE PUSH3 0x13F JUMP JUMPDEST DUP3 DUP1 ADD PUSH1 0x1 ADD DUP6 SSTORE DUP3 ISZERO PUSH3 0x13F JUMPI SWAP2 DUP3 ADD JUMPDEST DUP3 DUP2 GT ISZERO PUSH3 0x13F JUMPI DUP3 MLOAD DUP3 SSTORE SWAP2 PUSH1 0x20 ADD SWAP2 SWAP1 PUSH1 0x1 ADD SWAP1 PUSH3 0x122 JUMP JUMPDEST POP PUSH3 0x14D SWAP3 SWAP2 POP PUSH3 0x151 JUMP JUMPDEST POP SWAP1 JUMP JUMPDEST JUMPDEST DUP1 DUP3 GT ISZERO PUSH3 0x14D JUMPI PUSH1 0x0 DUP2 SSTORE PUSH1 0x1 ADD PUSH3 0x152 JUMP JUMPDEST PUSH1 0x0 PUSH1 0x20 DUP1 DUP4 DUP6 SUB SLT ISZERO PUSH3 0x17C JUMPI PUSH1 0x0 DUP1 REVERT JUMPDEST DUP3 MLOAD PUSH1 0x1 PUSH1 0x1 PUSH1 0x40 SHL SUB DUP1 DUP3 GT ISZERO PUSH3 0x194 JUMPI PUSH1 0x0 DUP1 REVERT JUMPDEST DUP2 DUP6 ADD SWAP2 POP DUP6 PUSH1 0x1F DUP4 ADD SLT PUSH3 0x1A9 JUMPI PUSH1 0x0 DUP1 REVERT JUMPDEST DUP2 MLOAD DUP2 DUP2 GT ISZERO PUSH3 0x1BE JUMPI PUSH3 0x1BE PUSH3 0x281 JUMP JUMPDEST PUSH1 0x40 MLOAD PUSH1 0x1F DUP3 ADD PUSH1 0x1F NOT SWAP1 DUP2 AND PUSH1 0x3F ADD AND DUP2 ADD SWAP1 DUP4 DUP3 GT DUP2 DUP4 LT OR ISZERO PUSH3 0x1E9 JUMPI PUSH3 0x1E9 PUSH3 0x281 JUMP JUMPDEST DUP2 PUSH1 0x40 MSTORE DUP3 DUP2 MSTORE DUP9 DUP7 DUP5 DUP8 ADD ADD GT ISZERO PUSH3 0x202 JUMPI PUSH1 0x0 DUP1 REVERT JUMPDEST PUSH1 0x0 SWAP4 POP JUMPDEST DUP3 DUP5 LT ISZERO PUSH3 0x226 JUMPI DUP5 DUP5 ADD DUP7 ADD MLOAD DUP2 DUP6 ADD DUP8 ADD MSTORE SWAP3 DUP6 ADD SWAP3 PUSH3 0x207 JUMP JUMPDEST DUP3 DUP5 GT ISZERO PUSH3 0x238 JUMPI PUSH1 0x0 DUP7 DUP5 DUP4 ADD ADD MSTORE JUMPDEST SWAP9 SWAP8 POP POP POP POP POP POP POP POP JUMP JUMPDEST PUSH1 0x1 DUP2 DUP2 SHR SWAP1 DUP3 AND DUP1 PUSH3 0x259 JUMPI PUSH1 0x7F DUP3 AND SWAP2 POP JUMPDEST PUSH1 0x20 DUP3 LT DUP2 EQ ISZERO PUSH3 0x27B JUMPI PUSH4 0x4E487B71 PUSH1 0xE0 SHL PUSH1 0x0 MSTORE PUSH1 0x22 PUSH1 0x4 MSTORE PUSH1 0x24 PUSH1 0x0 REVERT JUMPDEST POP SWAP2 SWAP1 POP JUMP JUMPDEST PUSH4 0x4E487B71 PUSH1 0xE0 SHL PUSH1 0x0 MSTORE PUSH1 0x41 PUSH1 0x4 MSTORE PUSH1 0x24 PUSH1 0x0 REVERT JUMPDEST PUSH2 0x4B1C DUP1 PUSH3 0x2A7 PUSH1 0x0 CODECOPY PUSH1 0x0 RETURN INVALID PUSH1 0x80 PUSH1 0x40 MSTORE CALLVALUE DUP1 ISZERO PUSH3 0x11 JUMPI PUSH1 0x0 DUP1 REVERT JUMPDEST POP PUSH1 0x4 CALLDATASIZE LT PUSH3 0x139 JUMPI PUSH1 0x0 CALLDATALOAD PUSH1 0xE0 SHR DUP1 PUSH4 0x4F6CCCE7 GT PUSH3 0xBB JUMPI DUP1 PUSH4 0x95D89B41 GT PUSH3 0x7A JUMPI DUP1 PUSH4 0x95D89B41 EQ PUSH3 0x29E JUMPI DUP1 PUSH4 0xA22CB465 EQ PUSH3 0x2A8 JUMPI DUP1 PUSH4 0xB88D4FDE EQ PUSH3 0x2BF JUMPI DUP1 PUSH4 0xC87B56DD EQ PUSH3 0x2D6 JUMPI DUP1 PUSH4 0xE985E9C5 EQ PUSH3 0x2ED JUMPI PUSH1 0x0 DUP1 REVERT JUMPDEST DUP1 PUSH4 0x4F6CCCE7 EQ PUSH3 0x23B JUMPI DUP1 PUSH4 0x62C348C5 EQ PUSH3 0x252 JUMPI DUP1 PUSH4 0x6352211E EQ PUSH3 0x266 JUMPI DUP1 PUSH4 0x6C0360EB EQ PUSH3 0x27D JUMPI DUP1 PUSH4 0x70A08231 EQ PUSH3 0x287 JUMPI PUSH1 0x0 DUP1 REVERT JUMPDEST DUP1 PUSH4 0x18160DDD GT PUSH3 0x108 JUMPI DUP1 PUSH4 0x18160DDD EQ PUSH3 0x1CC JUMPI DUP1 PUSH4 0x23B872DD EQ PUSH3 0x1DF JUMPI DUP1 PUSH4 0x27913FA0 EQ PUSH3 0x1F6 JUMPI DUP1 PUSH4 0x2F745C59 EQ PUSH3 0x20D JUMPI DUP1 PUSH4 0x42842E0E EQ PUSH3 0x224 JUMPI PUSH1 0x0 DUP1 REVERT JUMPDEST DUP1 PUSH4 0x1FFC9A7 EQ PUSH3 0x13E JUMPI DUP1 PUSH4 0x6FDDE03 EQ PUSH3 0x16A JUMPI DUP1 PUSH4 0x81812FC EQ PUSH3 0x183 JUMPI DUP1 PUSH4 0x95EA7B3 EQ PUSH3 0x1B3 JUMPI JUMPDEST PUSH1 0x0 DUP1 REVERT JUMPDEST PUSH3 0x155 PUSH3 0x14F CALLDATASIZE PUSH1 0x4 PUSH3 0x16A6 JUMP JUMPDEST PUSH3 0x32C JUMP JUMPDEST PUSH1 0x40 MLOAD SWAP1 ISZERO ISZERO DUP2 MSTORE PUSH1 0x20 ADD JUMPDEST PUSH1 0x40 MLOAD DUP1 SWAP2 SUB SWAP1 RETURN JUMPDEST PUSH3 0x174 PUSH3 0x35A JUMP JUMPDEST PUSH1 0x40 MLOAD PUSH3 0x161 SWAP2 SWAP1 PUSH3 0x18BC JUMP JUMPDEST PUSH3 0x19A PUSH3 0x194 CALLDATASIZE PUSH1 0x4 PUSH3 0x178A JUMP JUMPDEST PUSH3 0x3F4 JUMP JUMPDEST PUSH1 0x40 MLOAD PUSH1 0x1 PUSH1 0x1 PUSH1 0xA0 SHL SUB SWAP1 SWAP2 AND DUP2 MSTORE PUSH1 0x20 ADD PUSH3 0x161 JUMP JUMPDEST PUSH3 0x1CA PUSH3 0x1C4 CALLDATASIZE PUSH1 0x4 PUSH3 0x1679 JUMP JUMPDEST PUSH3 0x41D JUMP JUMPDEST STOP JUMPDEST PUSH1 0x8 SLOAD JUMPDEST PUSH1 0x40 MLOAD SWAP1 DUP2 MSTORE PUSH1 0x20 ADD PUSH3 0x161 JUMP JUMPDEST PUSH3 0x1CA PUSH3 0x1F0 CALLDATASIZE PUSH1 0x4 PUSH3 0x150E JUMP JUMPDEST PUSH3 0x542 JUMP JUMPDEST PUSH3 0x1CA PUSH3 0x207 CALLDATASIZE PUSH1 0x4 PUSH3 0x16E6 JUMP JUMPDEST PUSH3 0x57A JUMP JUMPDEST PUSH3 0x1D0 PUSH3 0x21E CALLDATASIZE PUSH1 0x4 PUSH3 0x1679 JUMP JUMPDEST PUSH3 0x5DF JUMP JUMPDEST PUSH3 0x1CA PUSH3 0x235 CALLDATASIZE PUSH1 0x4 PUSH3 0x150E JUMP JUMPDEST PUSH3 0x679 JUMP JUMPDEST PUSH3 0x1D0 PUSH3 0x24C CALLDATASIZE PUSH1 0x4 PUSH3 0x178A JUMP JUMPDEST PUSH3 0x696 JUMP JUMPDEST PUSH3 0x19A PUSH3 0x263 CALLDATASIZE PUSH1 0x4 PUSH3 0x178A JUMP JUMPDEST SWAP1 JUMP JUMPDEST PUSH3 0x19A PUSH3 0x277 CALLDATASIZE PUSH1 0x4 PUSH3 0x178A JUMP JUMPDEST PUSH3 0x72F JUMP JUMPDEST PUSH3 0x174 PUSH3 0x791 JUMP JUMPDEST PUSH3 0x1D0 PUSH3 0x298 CALLDATASIZE PUSH1 0x4 PUSH3 0x14B8 JUMP JUMPDEST PUSH3 0x827 JUMP JUMPDEST PUSH3 0x174 PUSH3 0x8AF JUMP JUMPDEST PUSH3 0x1CA PUSH3 0x2B9 CALLDATASIZE PUSH1 0x4 PUSH3 0x1639 JUMP JUMPDEST PUSH3 0x8C0 JUMP JUMPDEST PUSH3 0x1CA PUSH3 0x2D0 CALLDATASIZE PUSH1 0x4 PUSH3 0x154F JUMP JUMPDEST PUSH3 0x8D1 JUMP JUMPDEST PUSH3 0x174 PUSH3 0x2E7 CALLDATASIZE PUSH1 0x4 PUSH3 0x178A JUMP JUMPDEST PUSH3 0x910 JUMP JUMPDEST PUSH3 0x155 PUSH3 0x2FE CALLDATASIZE PUSH1 0x4 PUSH3 0x14D6 JUMP JUMPDEST PUSH1 0x1 PUSH1 0x1 PUSH1 0xA0 SHL SUB SWAP2 DUP3 AND PUSH1 0x0 SWAP1 DUP2 MSTORE PUSH1 0x5 PUSH1 0x20 SWAP1 DUP2 MSTORE PUSH1 0x40 DUP1 DUP4 KECCAK256 SWAP4 SWAP1 SWAP5 AND DUP3 MSTORE SWAP2 SWAP1 SWAP2 MSTORE KECCAK256 SLOAD PUSH1 0xFF AND SWAP1 JUMP JUMPDEST PUSH1 0x0 PUSH1 0x1 PUSH1 0x1 PUSH1 0xE0 SHL SUB NOT DUP3 AND PUSH4 0x780E9D63 PUSH1 0xE0 SHL EQ DUP1 PUSH3 0x354 JUMPI POP PUSH3 0x354 DUP3 PUSH3 0x981 JUMP JUMPDEST SWAP3 SWAP2 POP POP JUMP JUMPDEST PUSH1 0x60 PUSH1 0x0 DUP1 SLOAD PUSH3 0x36B SWAP1 PUSH3 0x19EC JUMP JUMPDEST DUP1 PUSH1 0x1F ADD PUSH1 0x20 DUP1 SWAP2 DIV MUL PUSH1 0x20 ADD PUSH1 0x40 MLOAD SWAP1 DUP2 ADD PUSH1 0x40 MSTORE DUP1 SWAP3 SWAP2 SWAP1 DUP2 DUP2 MSTORE PUSH1 0x20 ADD DUP3 DUP1 SLOAD PUSH3 0x399 SWAP1 PUSH3 0x19EC JUMP JUMPDEST DUP1 ISZERO PUSH3 0x3EA JUMPI DUP1 PUSH1 0x1F LT PUSH3 0x3BE JUMPI PUSH2 0x100 DUP1 DUP4 SLOAD DIV MUL DUP4 MSTORE SWAP2 PUSH1 0x20 ADD SWAP2 PUSH3 0x3EA JUMP JUMPDEST DUP3 ADD SWAP2 SWAP1 PUSH1 0x0 MSTORE PUSH1 0x20 PUSH1 0x0 KECCAK256 SWAP1 JUMPDEST DUP2 SLOAD DUP2 MSTORE SWAP1 PUSH1 0x1 ADD SWAP1 PUSH1 0x20 ADD DUP1 DUP4 GT PUSH3 0x3CC JUMPI DUP3 SWAP1 SUB PUSH1 0x1F AND DUP3 ADD SWAP2 JUMPDEST POP POP POP POP POP SWAP1 POP SWAP1 JUMP JUMPDEST PUSH1 0x0 PUSH3 0x401 DUP3 PUSH3 0x9D4 JUMP JUMPDEST POP PUSH1 0x0 SWAP1 DUP2 MSTORE PUSH1 0x4 PUSH1 0x20 MSTORE PUSH1 0x40 SWAP1 KECCAK256 SLOAD PUSH1 0x1 PUSH1 0x1 PUSH1 0xA0 SHL SUB AND SWAP1 JUMP JUMPDEST PUSH1 0x0 PUSH3 0x42A DUP3 PUSH3 0x72F JUMP JUMPDEST SWAP1 POP DUP1 PUSH1 0x1 PUSH1 0x1 PUSH1 0xA0 SHL SUB AND DUP4 PUSH1 0x1 PUSH1 0x1 PUSH1 0xA0 SHL SUB AND EQ ISZERO PUSH3 0x49E JUMPI PUSH1 0x40 MLOAD PUSH3 0x461BCD PUSH1 0xE5 SHL DUP2 MSTORE PUSH1 0x20 PUSH1 0x4 DUP3 ADD MSTORE PUSH1 0x21 PUSH1 0x24 DUP3 ADD MSTORE PUSH32 0x4552433732313A20617070726F76616C20746F2063757272656E74206F776E65 PUSH1 0x44 DUP3 ADD MSTORE PUSH1 0x39 PUSH1 0xF9 SHL PUSH1 0x64 DUP3 ADD MSTORE PUSH1 0x84 ADD JUMPDEST PUSH1 0x40 MLOAD DUP1 SWAP2 SUB SWAP1 REVERT JUMPDEST CALLER PUSH1 0x1 PUSH1 0x1 PUSH1 0xA0 SHL SUB DUP3 AND EQ DUP1 PUSH3 0x4BD JUMPI POP PUSH3 0x4BD DUP2 CALLER PUSH3 0x2FE JUMP JUMPDEST PUSH3 0x531 JUMPI PUSH1 0x40 MLOAD PUSH3 0x461BCD PUSH1 0xE5 SHL DUP2 MSTORE PUSH1 0x20 PUSH1 0x4 DUP3 ADD MSTORE PUSH1 0x3E PUSH1 0x24 DUP3 ADD MSTORE PUSH32 0x4552433732313A20617070726F76652063616C6C6572206973206E6F7420746F PUSH1 0x44 DUP3 ADD MSTORE PUSH32 0x6B656E206F776E6572206E6F7220617070726F76656420666F7220616C6C0000 PUSH1 0x64 DUP3 ADD MSTORE PUSH1 0x84 ADD PUSH3 0x495 JUMP JUMPDEST PUSH3 0x53D DUP4 DUP4 PUSH3 0xA38 JUMP JUMPDEST POP POP POP JUMP JUMPDEST PUSH3 0x54E CALLER DUP3 PUSH3 0xAA8 JUMP JUMPDEST PUSH3 0x56D JUMPI PUSH1 0x40 MLOAD PUSH3 0x461BCD PUSH1 0xE5 SHL DUP2 MSTORE PUSH1 0x4 ADD PUSH3 0x495 SWAP1 PUSH3 0x1923 JUMP JUMPDEST PUSH3 0x53D DUP4 DUP4 DUP4 PUSH3 0xB2D JUMP JUMPDEST PUSH1 0x0 DUP7 DUP7 DUP7 DUP7 DUP7 DUP7 PUSH1 0x40 MLOAD PUSH3 0x590 SWAP1 PUSH3 0x1441 JUMP JUMPDEST PUSH3 0x5A1 SWAP7 SWAP6 SWAP5 SWAP4 SWAP3 SWAP2 SWAP1 PUSH3 0x186D JUMP JUMPDEST PUSH1 0x40 MLOAD DUP1 SWAP2 SUB SWAP1 PUSH1 0x0 CREATE DUP1 ISZERO DUP1 ISZERO PUSH3 0x5BE JUMPI RETURNDATASIZE PUSH1 0x0 DUP1 RETURNDATACOPY RETURNDATASIZE PUSH1 0x0 REVERT JUMPDEST POP SWAP1 POP PUSH3 0x5D6 CALLER DUP3 PUSH1 0x1 PUSH1 0x1 PUSH1 0xA0 SHL SUB AND PUSH3 0xCE2 JUMP JUMPDEST POP POP POP POP POP POP POP JUMP JUMPDEST PUSH1 0x0 PUSH3 0x5EC DUP4 PUSH3 0x827 JUMP JUMPDEST DUP3 LT PUSH3 0x650 JUMPI PUSH1 0x40 MLOAD PUSH3 0x461BCD PUSH1 0xE5 SHL DUP2 MSTORE PUSH1 0x20 PUSH1 0x4 DUP3 ADD MSTORE PUSH1 0x2B PUSH1 0x24 DUP3 ADD MSTORE PUSH32 0x455243373231456E756D657261626C653A206F776E657220696E646578206F75 PUSH1 0x44 DUP3 ADD MSTORE PUSH11 0x74206F6620626F756E6473 PUSH1 0xA8 SHL PUSH1 0x64 DUP3 ADD MSTORE PUSH1 0x84 ADD PUSH3 0x495 JUMP JUMPDEST POP PUSH1 0x1 PUSH1 0x1 PUSH1 0xA0 SHL SUB SWAP2 SWAP1 SWAP2 AND PUSH1 0x0 SWAP1 DUP2 MSTORE PUSH1 0x6 PUSH1 0x20 SWAP1 DUP2 MSTORE PUSH1 0x40 DUP1 DUP4 KECCAK256 SWAP4 DUP4 MSTORE SWAP3 SWAP1 MSTORE KECCAK256 SLOAD SWAP1 JUMP JUMPDEST PUSH3 0x53D DUP4 DUP4 DUP4 PUSH1 0x40 MLOAD DUP1 PUSH1 0x20 ADD PUSH1 0x40 MSTORE DUP1 PUSH1 0x0 DUP2 MSTORE POP PUSH3 0x8D1 JUMP JUMPDEST PUSH1 0x0 PUSH3 0x6A2 PUSH1 0x8 SLOAD SWAP1 JUMP JUMPDEST DUP3 LT PUSH3 0x707 JUMPI PUSH1 0x40 MLOAD PUSH3 0x461BCD PUSH1 0xE5 SHL DUP2 MSTORE PUSH1 0x20 PUSH1 0x4 DUP3 ADD MSTORE PUSH1 0x2C PUSH1 0x24 DUP3 ADD MSTORE PUSH32 0x455243373231456E756D657261626C653A20676C6F62616C20696E646578206F PUSH1 0x44 DUP3 ADD MSTORE PUSH12 0x7574206F6620626F756E6473 PUSH1 0xA0 SHL PUSH1 0x64 DUP3 ADD MSTORE PUSH1 0x84 ADD PUSH3 0x495 JUMP JUMPDEST PUSH1 0x8 DUP3 DUP2 SLOAD DUP2 LT PUSH3 0x71D JUMPI PUSH3 0x71D PUSH3 0x1AA0 JUMP JUMPDEST SWAP1 PUSH1 0x0 MSTORE PUSH1 0x20 PUSH1 0x0 KECCAK256 ADD SLOAD SWAP1 POP SWAP2 SWAP1 POP JUMP JUMPDEST PUSH1 0x0 DUP2 DUP2 MSTORE PUSH1 0x2 PUSH1 0x20 MSTORE PUSH1 0x40 DUP2 KECCAK256 SLOAD PUSH1 0x1 PUSH1 0x1 PUSH1 0xA0 SHL SUB AND DUP1 PUSH3 0x354 JUMPI PUSH1 0x40 MLOAD PUSH3 0x461BCD PUSH1 0xE5 SHL DUP2 MSTORE PUSH1 0x20 PUSH1 0x4 DUP3 ADD MSTORE PUSH1 0x18 PUSH1 0x24 DUP3 ADD MSTORE PUSH24 0x115490CDCC8C4E881A5B9D985B1A59081D1BDAD95B881251 PUSH1 0x42 SHL PUSH1 0x44 DUP3 ADD MSTORE PUSH1 0x64 ADD PUSH3 0x495 JUMP JUMPDEST PUSH1 0xA DUP1 SLOAD PUSH3 0x7A0 SWAP1 PUSH3 0x19EC JUMP JUMPDEST DUP1 PUSH1 0x1F ADD PUSH1 0x20 DUP1 SWAP2 DIV MUL PUSH1 0x20 ADD PUSH1 0x40 MLOAD SWAP1 DUP2 ADD PUSH1 0x40 MSTORE DUP1 SWAP3 SWAP2 SWAP1 DUP2 DUP2 MSTORE PUSH1 0x20 ADD DUP3 DUP1 SLOAD PUSH3 0x7CE SWAP1 PUSH3 0x19EC JUMP JUMPDEST DUP1 ISZERO PUSH3 0x81F JUMPI DUP1 PUSH1 0x1F LT PUSH3 0x7F3 JUMPI PUSH2 0x100 DUP1 DUP4 SLOAD DIV MUL DUP4 MSTORE SWAP2 PUSH1 0x20 ADD SWAP2 PUSH3 0x81F JUMP JUMPDEST DUP3 ADD SWAP2 SWAP1 PUSH1 0x0 MSTORE PUSH1 0x20 PUSH1 0x0 KECCAK256 SWAP1 JUMPDEST DUP2 SLOAD DUP2 MSTORE SWAP1 PUSH1 0x1 ADD SWAP1 PUSH1 0x20 ADD DUP1 DUP4 GT PUSH3 0x801 JUMPI DUP3 SWAP1 SUB PUSH1 0x1F AND DUP3 ADD SWAP2 JUMPDEST POP POP POP POP POP DUP2 JUMP JUMPDEST PUSH1 0x0 PUSH1 0x1 PUSH1 0x1 PUSH1 0xA0 SHL SUB DUP3 AND PUSH3 0x893 JUMPI PUSH1 0x40 MLOAD PUSH3 0x461BCD PUSH1 0xE5 SHL DUP2 MSTORE PUSH1 0x20 PUSH1 0x4 DUP3 ADD MSTORE PUSH1 0x29 PUSH1 0x24 DUP3 ADD MSTORE PUSH32 0x4552433732313A2061646472657373207A65726F206973206E6F742061207661 PUSH1 0x44 DUP3 ADD MSTORE PUSH9 0x3634B21037BBB732B9 PUSH1 0xB9 SHL PUSH1 0x64 DUP3 ADD MSTORE PUSH1 0x84 ADD PUSH3 0x495 JUMP JUMPDEST POP PUSH1 0x1 PUSH1 0x1 PUSH1 0xA0 SHL SUB AND PUSH1 0x0 SWAP1 DUP2 MSTORE PUSH1 0x3 PUSH1 0x20 MSTORE PUSH1 0x40 SWAP1 KECCAK256 SLOAD SWAP1 JUMP JUMPDEST PUSH1 0x60 PUSH1 0x1 DUP1 SLOAD PUSH3 0x36B SWAP1 PUSH3 0x19EC JUMP JUMPDEST PUSH3 0x8CD CALLER DUP4 DUP4 PUSH3 0xCFE JUMP JUMPDEST POP POP JUMP JUMPDEST PUSH3 0x8DD CALLER DUP4 PUSH3 0xAA8 JUMP JUMPDEST PUSH3 0x8FC JUMPI PUSH1 0x40 MLOAD PUSH3 0x461BCD PUSH1 0xE5 SHL DUP2 MSTORE PUSH1 0x4 ADD PUSH3 0x495 SWAP1 PUSH3 0x1923 JUMP JUMPDEST PUSH3 0x90A DUP5 DUP5 DUP5 DUP5 PUSH3 0xDCF JUMP JUMPDEST POP POP POP POP JUMP JUMPDEST PUSH1 0x60 PUSH3 0x91D DUP3 PUSH3 0x9D4 JUMP JUMPDEST PUSH1 0x0 PUSH3 0x929 PUSH3 0xE09 JUMP JUMPDEST SWAP1 POP PUSH1 0x0 DUP2 MLOAD GT PUSH3 0x94B JUMPI PUSH1 0x40 MLOAD DUP1 PUSH1 0x20 ADD PUSH1 0x40 MSTORE DUP1 PUSH1 0x0 DUP2 MSTORE POP PUSH3 0x97A JUMP JUMPDEST DUP1 PUSH3 0x957 DUP5 PUSH3 0xE1A JUMP JUMPDEST PUSH1 0x40 MLOAD PUSH1 0x20 ADD PUSH3 0x96A SWAP3 SWAP2 SWAP1 PUSH3 0x17FB JUMP JUMPDEST PUSH1 0x40 MLOAD PUSH1 0x20 DUP2 DUP4 SUB SUB DUP2 MSTORE SWAP1 PUSH1 0x40 MSTORE JUMPDEST SWAP4 SWAP3 POP POP POP JUMP JUMPDEST PUSH1 0x0 PUSH1 0x1 PUSH1 0x1 PUSH1 0xE0 SHL SUB NOT DUP3 AND PUSH4 0x80AC58CD PUSH1 0xE0 SHL EQ DUP1 PUSH3 0x9B3 JUMPI POP PUSH1 0x1 PUSH1 0x1 PUSH1 0xE0 SHL SUB NOT DUP3 AND PUSH4 0x5B5E139F PUSH1 0xE0 SHL EQ JUMPDEST DUP1 PUSH3 0x354 JUMPI POP PUSH4 0x1FFC9A7 PUSH1 0xE0 SHL PUSH1 0x1 PUSH1 0x1 PUSH1 0xE0 SHL SUB NOT DUP4 AND EQ PUSH3 0x354 JUMP JUMPDEST PUSH1 0x0 DUP2 DUP2 MSTORE PUSH1 0x2 PUSH1 0x20 MSTORE PUSH1 0x40 SWAP1 KECCAK256 SLOAD PUSH1 0x1 PUSH1 0x1 PUSH1 0xA0 SHL SUB AND PUSH3 0xA35 JUMPI PUSH1 0x40 MLOAD PUSH3 0x461BCD PUSH1 0xE5 SHL DUP2 MSTORE PUSH1 0x20 PUSH1 0x4 DUP3 ADD MSTORE PUSH1 0x18 PUSH1 0x24 DUP3 ADD MSTORE PUSH24 0x115490CDCC8C4E881A5B9D985B1A59081D1BDAD95B881251 PUSH1 0x42 SHL PUSH1 0x44 DUP3 ADD MSTORE PUSH1 0x64 ADD PUSH3 0x495 JUMP JUMPDEST POP JUMP JUMPDEST PUSH1 0x0 DUP2 DUP2 MSTORE PUSH1 0x4 PUSH1 0x20 MSTORE PUSH1 0x40 SWAP1 KECCAK256 DUP1 SLOAD PUSH1 0x1 PUSH1 0x1 PUSH1 0xA0 SHL SUB NOT AND PUSH1 0x1 PUSH1 0x1 PUSH1 0xA0 SHL SUB DUP5 AND SWAP1 DUP2 OR SWAP1 SWAP2 SSTORE DUP2 SWAP1 PUSH3 0xA6F DUP3 PUSH3 0x72F JUMP JUMPDEST PUSH1 0x1 PUSH1 0x1 PUSH1 0xA0 SHL SUB AND PUSH32 0x8C5BE1E5EBEC7D5BD14F71427D1E84F3DD0314C0F7B2291E5B200AC8C7C3B925 PUSH1 0x40 MLOAD PUSH1 0x40 MLOAD DUP1 SWAP2 SUB SWAP1 LOG4 POP POP JUMP JUMPDEST PUSH1 0x0 DUP1 PUSH3 0xAB6 DUP4 PUSH3 0x72F JUMP JUMPDEST SWAP1 POP DUP1 PUSH1 0x1 PUSH1 0x1 PUSH1 0xA0 SHL SUB AND DUP5 PUSH1 0x1 PUSH1 0x1 PUSH1 0xA0 SHL SUB AND EQ DUP1 PUSH3 0xAFE JUMPI POP PUSH1 0x1 PUSH1 0x1 PUSH1 0xA0 SHL SUB DUP1 DUP3 AND PUSH1 0x0 SWAP1 DUP2 MSTORE PUSH1 0x5 PUSH1 0x20 SWAP1 DUP2 MSTORE PUSH1 0x40 DUP1 DUP4 KECCAK256 SWAP4 DUP9 AND DUP4 MSTORE SWAP3 SWAP1 MSTORE KECCAK256 SLOAD PUSH1 0xFF AND JUMPDEST DUP1 PUSH3 0xB25 JUMPI POP DUP4 PUSH1 0x1 PUSH1 0x1 PUSH1 0xA0 SHL SUB AND PUSH3 0xB1A DUP5 PUSH3 0x3F4 JUMP JUMPDEST PUSH1 0x1 PUSH1 0x1 PUSH1 0xA0 SHL SUB AND EQ JUMPDEST SWAP5 SWAP4 POP POP POP POP JUMP JUMPDEST DUP3 PUSH1 0x1 PUSH1 0x1 PUSH1 0xA0 SHL SUB AND PUSH3 0xB42 DUP3 PUSH3 0x72F JUMP JUMPDEST PUSH1 0x1 PUSH1 0x1 PUSH1 0xA0 SHL SUB AND EQ PUSH3 0xBA8 JUMPI PUSH1 0x40 MLOAD PUSH3 0x461BCD PUSH1 0xE5 SHL DUP2 MSTORE PUSH1 0x20 PUSH1 0x4 DUP3 ADD MSTORE PUSH1 0x25 PUSH1 0x24 DUP3 ADD MSTORE PUSH32 0x4552433732313A207472616E736665722066726F6D20696E636F727265637420 PUSH1 0x44 DUP3 ADD MSTORE PUSH5 0x37BBB732B9 PUSH1 0xD9 SHL PUSH1 0x64 DUP3 ADD MSTORE PUSH1 0x84 ADD PUSH3 0x495 JUMP JUMPDEST PUSH1 0x1 PUSH1 0x1 PUSH1 0xA0 SHL SUB DUP3 AND PUSH3 0xC0C JUMPI PUSH1 0x40 MLOAD PUSH3 0x461BCD PUSH1 0xE5 SHL DUP2 MSTORE PUSH1 0x20 PUSH1 0x4 DUP3 ADD MSTORE PUSH1 0x24 DUP1 DUP3 ADD MSTORE PUSH32 0x4552433732313A207472616E7366657220746F20746865207A65726F20616464 PUSH1 0x44 DUP3 ADD MSTORE PUSH4 0x72657373 PUSH1 0xE0 SHL PUSH1 0x64 DUP3 ADD MSTORE PUSH1 0x84 ADD PUSH3 0x495 JUMP JUMPDEST PUSH3 0xC19 DUP4 DUP4 DUP4 PUSH3 0xF30 JUMP JUMPDEST PUSH3 0xC26 PUSH1 0x0 DUP3 PUSH3 0xA38 JUMP JUMPDEST PUSH1 0x1 PUSH1 0x1 PUSH1 0xA0 SHL SUB DUP4 AND PUSH1 0x0 SWAP1 DUP2 MSTORE PUSH1 0x3 PUSH1 0x20 MSTORE PUSH1 0x40 DUP2 KECCAK256 DUP1 SLOAD PUSH1 0x1 SWAP3 SWAP1 PUSH3 0xC51 SWAP1 DUP5 SWAP1 PUSH3 0x19A3 JUMP JUMPDEST SWAP1 SWAP2 SSTORE POP POP PUSH1 0x1 PUSH1 0x1 PUSH1 0xA0 SHL SUB DUP3 AND PUSH1 0x0 SWAP1 DUP2 MSTORE PUSH1 0x3 PUSH1 0x20 MSTORE PUSH1 0x40 DUP2 KECCAK256 DUP1 SLOAD PUSH1 0x1 SWAP3 SWAP1 PUSH3 0xC81 SWAP1 DUP5 SWAP1 PUSH3 0x1971 JUMP JUMPDEST SWAP1 SWAP2 SSTORE POP POP PUSH1 0x0 DUP2 DUP2 MSTORE PUSH1 0x2 PUSH1 0x20 MSTORE PUSH1 0x40 DUP1 DUP3 KECCAK256 DUP1 SLOAD PUSH1 0x1 PUSH1 0x1 PUSH1 0xA0 SHL SUB NOT AND PUSH1 0x1 PUSH1 0x1 PUSH1 0xA0 SHL SUB DUP7 DUP2 AND SWAP2 DUP3 OR SWAP1 SWAP3 SSTORE SWAP2 MLOAD DUP5 SWAP4 SWAP2 DUP8 AND SWAP2 PUSH32 0xDDF252AD1BE2C89B69C2B068FC378DAA952BA7F163C4A11628F55A4DF523B3EF SWAP2 LOG4 POP POP POP JUMP JUMPDEST PUSH3 0x8CD DUP3 DUP3 PUSH1 0x40 MLOAD DUP1 PUSH1 0x20 ADD PUSH1 0x40 MSTORE DUP1 PUSH1 0x0 DUP2 MSTORE POP PUSH3 0xFF4 JUMP JUMPDEST DUP2 PUSH1 0x1 PUSH1 0x1 PUSH1 0xA0 SHL SUB AND DUP4 PUSH1 0x1 PUSH1 0x1 PUSH1 0xA0 SHL SUB AND EQ ISZERO PUSH3 0xD62 JUMPI PUSH1 0x40 MLOAD PUSH3 0x461BCD PUSH1 0xE5 SHL DUP2 MSTORE PUSH1 0x20 PUSH1 0x4 DUP3 ADD MSTORE PUSH1 0x19 PUSH1 0x24 DUP3 ADD MSTORE PUSH32 0x4552433732313A20617070726F766520746F2063616C6C657200000000000000 PUSH1 0x44 DUP3 ADD MSTORE PUSH1 0x64 ADD PUSH3 0x495 JUMP JUMPDEST PUSH1 0x1 PUSH1 0x1 PUSH1 0xA0 SHL SUB DUP4 DUP2 AND PUSH1 0x0 DUP2 DUP2 MSTORE PUSH1 0x5 PUSH1 0x20 SWAP1 DUP2 MSTORE PUSH1 0x40 DUP1 DUP4 KECCAK256 SWAP5 DUP8 AND DUP1 DUP5 MSTORE SWAP5 DUP3 MSTORE SWAP2 DUP3 SWAP1 KECCAK256 DUP1 SLOAD PUSH1 0xFF NOT AND DUP7 ISZERO ISZERO SWAP1 DUP2 OR SWAP1 SWAP2 SSTORE SWAP2 MLOAD SWAP2 DUP3 MSTORE PUSH32 0x17307EAB39AB6107E8899845AD3D59BD9653F200F220920489CA2B5937696C31 SWAP2 ADD PUSH1 0x40 MLOAD DUP1 SWAP2 SUB SWAP1 LOG3 POP POP POP JUMP JUMPDEST PUSH3 0xDDC DUP5 DUP5 DUP5 PUSH3 0xB2D JUMP JUMPDEST PUSH3 0xDEA DUP5 DUP5 DUP5 DUP5 PUSH3 0x102E JUMP JUMPDEST PUSH3 0x90A JUMPI PUSH1 0x40 MLOAD PUSH3 0x461BCD PUSH1 0xE5 SHL DUP2 MSTORE PUSH1 0x4 ADD PUSH3 0x495 SWAP1 PUSH3 0x18D1 JUMP JUMPDEST PUSH1 0x60 PUSH1 0xA DUP1 SLOAD PUSH3 0x36B SWAP1 PUSH3 0x19EC JUMP JUMPDEST PUSH1 0x60 DUP2 PUSH3 0xE3F JUMPI POP POP PUSH1 0x40 DUP1 MLOAD DUP1 DUP3 ADD SWAP1 SWAP2 MSTORE PUSH1 0x1 DUP2 MSTORE PUSH1 0x3 PUSH1 0xFC SHL PUSH1 0x20 DUP3 ADD MSTORE SWAP1 JUMP JUMPDEST DUP2 PUSH1 0x0 JUMPDEST DUP2 ISZERO PUSH3 0xE6F JUMPI DUP1 PUSH3 0xE56 DUP2 PUSH3 0x1A29 JUMP JUMPDEST SWAP2 POP PUSH3 0xE67 SWAP1 POP PUSH1 0xA DUP4 PUSH3 0x198C JUMP JUMPDEST SWAP2 POP PUSH3 0xE43 JUMP JUMPDEST PUSH1 0x0 DUP2 PUSH8 0xFFFFFFFFFFFFFFFF DUP2 GT ISZERO PUSH3 0xE8D JUMPI PUSH3 0xE8D PUSH3 0x1AB6 JUMP JUMPDEST PUSH1 0x40 MLOAD SWAP1 DUP1 DUP3 MSTORE DUP1 PUSH1 0x1F ADD PUSH1 0x1F NOT AND PUSH1 0x20 ADD DUP3 ADD PUSH1 0x40 MSTORE DUP1 ISZERO PUSH3 0xEB8 JUMPI PUSH1 0x20 DUP3 ADD DUP2 DUP1 CALLDATASIZE DUP4 CALLDATACOPY ADD SWAP1 POP JUMPDEST POP SWAP1 POP JUMPDEST DUP5 ISZERO PUSH3 0xB25 JUMPI PUSH3 0xED0 PUSH1 0x1 DUP4 PUSH3 0x19A3 JUMP JUMPDEST SWAP2 POP PUSH3 0xEDF PUSH1 0xA DUP7 PUSH3 0x1A47 JUMP JUMPDEST PUSH3 0xEEC SWAP1 PUSH1 0x30 PUSH3 0x1971 JUMP JUMPDEST PUSH1 0xF8 SHL DUP2 DUP4 DUP2 MLOAD DUP2 LT PUSH3 0xF04 JUMPI PUSH3 0xF04 PUSH3 0x1AA0 JUMP JUMPDEST PUSH1 0x20 ADD ADD SWAP1 PUSH1 0x1 PUSH1 0x1 PUSH1 0xF8 SHL SUB NOT AND SWAP1 DUP2 PUSH1 0x0 BYTE SWAP1 MSTORE8 POP PUSH3 0xF28 PUSH1 0xA DUP7 PUSH3 0x198C JUMP JUMPDEST SWAP5 POP PUSH3 0xEBC JUMP JUMPDEST PUSH1 0x1 PUSH1 0x1 PUSH1 0xA0 SHL SUB DUP4 AND PUSH3 0xF8E JUMPI PUSH3 0xF88 DUP2 PUSH1 0x8 DUP1 SLOAD PUSH1 0x0 DUP4 DUP2 MSTORE PUSH1 0x9 PUSH1 0x20 MSTORE PUSH1 0x40 DUP2 KECCAK256 DUP3 SWAP1 SSTORE PUSH1 0x1 DUP3 ADD DUP4 SSTORE SWAP2 SWAP1 SWAP2 MSTORE PUSH32 0xF3F7A9FE364FAAB93B216DA50A3214154F22A0A2B415B23A84C8169E8B636EE3 ADD SSTORE JUMP JUMPDEST PUSH3 0xFB4 JUMP JUMPDEST DUP2 PUSH1 0x1 PUSH1 0x1 PUSH1 0xA0 SHL SUB AND DUP4 PUSH1 0x1 PUSH1 0x1 PUSH1 0xA0 SHL SUB AND EQ PUSH3 0xFB4 JUMPI PUSH3 0xFB4 DUP4 DUP3 PUSH3 0x1149 JUMP JUMPDEST PUSH1 0x1 PUSH1 0x1 PUSH1 0xA0 SHL SUB DUP3 AND PUSH3 0xFCE JUMPI PUSH3 0x53D DUP2 PUSH3 0x11EB JUMP JUMPDEST DUP3 PUSH1 0x1 PUSH1 0x1 PUSH1 0xA0 SHL SUB AND DUP3 PUSH1 0x1 PUSH1 0x1 PUSH1 0xA0 SHL SUB AND EQ PUSH3 0x53D JUMPI PUSH3 0x53D DUP3 DUP3 PUSH3 0x12A5 JUMP JUMPDEST PUSH3 0x1000 DUP4 DUP4 PUSH3 0x12EB JUMP JUMPDEST PUSH3 0x100F PUSH1 0x0 DUP5 DUP5 DUP5 PUSH3 0x102E JUMP JUMPDEST PUSH3 0x53D JUMPI PUSH1 0x40 MLOAD PUSH3 0x461BCD PUSH1 0xE5 SHL DUP2 MSTORE PUSH1 0x4 ADD PUSH3 0x495 SWAP1 PUSH3 0x18D1 JUMP JUMPDEST PUSH1 0x0 PUSH1 0x1 PUSH1 0x1 PUSH1 0xA0 SHL SUB DUP5 AND EXTCODESIZE ISZERO PUSH3 0x113E JUMPI PUSH1 0x40 MLOAD PUSH4 0xA85BD01 PUSH1 0xE1 SHL DUP2 MSTORE PUSH1 0x1 PUSH1 0x1 PUSH1 0xA0 SHL SUB DUP6 AND SWAP1 PUSH4 0x150B7A02 SWAP1 PUSH3 0x1075 SWAP1 CALLER SWAP1 DUP10 SWAP1 DUP9 SWAP1 DUP9 SWAP1 PUSH1 0x4 ADD PUSH3 0x182E JUMP JUMPDEST PUSH1 0x20 PUSH1 0x40 MLOAD DUP1 DUP4 SUB DUP2 PUSH1 0x0 DUP8 DUP1 EXTCODESIZE ISZERO DUP1 ISZERO PUSH3 0x1090 JUMPI PUSH1 0x0 DUP1 REVERT JUMPDEST POP GAS CALL SWAP3 POP POP POP DUP1 ISZERO PUSH3 0x10C3 JUMPI POP PUSH1 0x40 DUP1 MLOAD PUSH1 0x1F RETURNDATASIZE SWAP1 DUP2 ADD PUSH1 0x1F NOT AND DUP3 ADD SWAP1 SWAP3 MSTORE PUSH3 0x10C0 SWAP2 DUP2 ADD SWAP1 PUSH3 0x16C6 JUMP JUMPDEST PUSH1 0x1 JUMPDEST PUSH3 0x1123 JUMPI RETURNDATASIZE DUP1 DUP1 ISZERO PUSH3 0x10F4 JUMPI PUSH1 0x40 MLOAD SWAP2 POP PUSH1 0x1F NOT PUSH1 0x3F RETURNDATASIZE ADD AND DUP3 ADD PUSH1 0x40 MSTORE RETURNDATASIZE DUP3 MSTORE RETURNDATASIZE PUSH1 0x0 PUSH1 0x20 DUP5 ADD RETURNDATACOPY PUSH3 0x10F9 JUMP JUMPDEST PUSH1 0x60 SWAP2 POP JUMPDEST POP DUP1 MLOAD PUSH3 0x111B JUMPI PUSH1 0x40 MLOAD PUSH3 0x461BCD PUSH1 0xE5 SHL DUP2 MSTORE PUSH1 0x4 ADD PUSH3 0x495 SWAP1 PUSH3 0x18D1 JUMP JUMPDEST DUP1 MLOAD DUP2 PUSH1 0x20 ADD REVERT JUMPDEST PUSH1 0x1 PUSH1 0x1 PUSH1 0xE0 SHL SUB NOT AND PUSH4 0xA85BD01 PUSH1 0xE1 SHL EQ SWAP1 POP PUSH3 0xB25 JUMP JUMPDEST POP PUSH1 0x1 SWAP5 SWAP4 POP POP POP POP JUMP JUMPDEST PUSH1 0x0 PUSH1 0x1 PUSH3 0x1158 DUP5 PUSH3 0x827 JUMP JUMPDEST PUSH3 0x1164 SWAP2 SWAP1 PUSH3 0x19A3 JUMP JUMPDEST PUSH1 0x0 DUP4 DUP2 MSTORE PUSH1 0x7 PUSH1 0x20 MSTORE PUSH1 0x40 SWAP1 KECCAK256 SLOAD SWAP1 SWAP2 POP DUP1 DUP3 EQ PUSH3 0x11B8 JUMPI PUSH1 0x1 PUSH1 0x1 PUSH1 0xA0 SHL SUB DUP5 AND PUSH1 0x0 SWAP1 DUP2 MSTORE PUSH1 0x6 PUSH1 0x20 SWAP1 DUP2 MSTORE PUSH1 0x40 DUP1 DUP4 KECCAK256 DUP6 DUP5 MSTORE DUP3 MSTORE DUP1 DUP4 KECCAK256 SLOAD DUP5 DUP5 MSTORE DUP2 DUP5 KECCAK256 DUP2 SWAP1 SSTORE DUP4 MSTORE PUSH1 0x7 SWAP1 SWAP2 MSTORE SWAP1 KECCAK256 DUP2 SWAP1 SSTORE JUMPDEST POP PUSH1 0x0 SWAP2 DUP3 MSTORE PUSH1 0x7 PUSH1 0x20 SWAP1 DUP2 MSTORE PUSH1 0x40 DUP1 DUP5 KECCAK256 DUP5 SWAP1 SSTORE PUSH1 0x1 PUSH1 0x1 PUSH1 0xA0 SHL SUB SWAP1 SWAP5 AND DUP4 MSTORE PUSH1 0x6 DUP2 MSTORE DUP4 DUP4 KECCAK256 SWAP2 DUP4 MSTORE MSTORE SWAP1 DUP2 KECCAK256 SSTORE JUMP JUMPDEST PUSH1 0x8 SLOAD PUSH1 0x0 SWAP1 PUSH3 0x11FF SWAP1 PUSH1 0x1 SWAP1 PUSH3 0x19A3 JUMP JUMPDEST PUSH1 0x0 DUP4 DUP2 MSTORE PUSH1 0x9 PUSH1 0x20 MSTORE PUSH1 0x40 DUP2 KECCAK256 SLOAD PUSH1 0x8 DUP1 SLOAD SWAP4 SWAP5 POP SWAP1 SWAP3 DUP5 SWAP1 DUP2 LT PUSH3 0x122A JUMPI PUSH3 0x122A PUSH3 0x1AA0 JUMP JUMPDEST SWAP1 PUSH1 0x0 MSTORE PUSH1 0x20 PUSH1 0x0 KECCAK256 ADD SLOAD SWAP1 POP DUP1 PUSH1 0x8 DUP4 DUP2 SLOAD DUP2 LT PUSH3 0x124E JUMPI PUSH3 0x124E PUSH3 0x1AA0 JUMP JUMPDEST PUSH1 0x0 SWAP2 DUP3 MSTORE PUSH1 0x20 DUP1 DUP4 KECCAK256 SWAP1 SWAP2 ADD SWAP3 SWAP1 SWAP3 SSTORE DUP3 DUP2 MSTORE PUSH1 0x9 SWAP1 SWAP2 MSTORE PUSH1 0x40 DUP1 DUP3 KECCAK256 DUP5 SWAP1 SSTORE DUP6 DUP3 MSTORE DUP2 KECCAK256 SSTORE PUSH1 0x8 DUP1 SLOAD DUP1 PUSH3 0x1289 JUMPI PUSH3 0x1289 PUSH3 0x1A8A JUMP JUMPDEST PUSH1 0x1 SWAP1 SUB DUP2 DUP2 SWAP1 PUSH1 0x0 MSTORE PUSH1 0x20 PUSH1 0x0 KECCAK256 ADD PUSH1 0x0 SWAP1 SSTORE SWAP1 SSTORE POP POP POP POP JUMP JUMPDEST PUSH1 0x0 PUSH3 0x12B2 DUP4 PUSH3 0x827 JUMP JUMPDEST PUSH1 0x1 PUSH1 0x1 PUSH1 0xA0 SHL SUB SWAP1 SWAP4 AND PUSH1 0x0 SWAP1 DUP2 MSTORE PUSH1 0x6 PUSH1 0x20 SWAP1 DUP2 MSTORE PUSH1 0x40 DUP1 DUP4 KECCAK256 DUP7 DUP5 MSTORE DUP3 MSTORE DUP1 DUP4 KECCAK256 DUP6 SWAP1 SSTORE SWAP4 DUP3 MSTORE PUSH1 0x7 SWAP1 MSTORE SWAP2 SWAP1 SWAP2 KECCAK256 SWAP2 SWAP1 SWAP2 SSTORE POP JUMP JUMPDEST PUSH1 0x1 PUSH1 0x1 PUSH1 0xA0 SHL SUB DUP3 AND PUSH3 0x1343 JUMPI PUSH1 0x40 MLOAD PUSH3 0x461BCD PUSH1 0xE5 SHL DUP2 MSTORE PUSH1 0x20 PUSH1 0x4 DUP3 ADD DUP2 SWAP1 MSTORE PUSH1 0x24 DUP3 ADD MSTORE PUSH32 0x4552433732313A206D696E7420746F20746865207A65726F2061646472657373 PUSH1 0x44 DUP3 ADD MSTORE PUSH1 0x64 ADD PUSH3 0x495 JUMP JUMPDEST PUSH1 0x0 DUP2 DUP2 MSTORE PUSH1 0x2 PUSH1 0x20 MSTORE PUSH1 0x40 SWAP1 KECCAK256 SLOAD PUSH1 0x1 PUSH1 0x1 PUSH1 0xA0 SHL SUB AND ISZERO PUSH3 0x13AA JUMPI PUSH1 0x40 MLOAD PUSH3 0x461BCD PUSH1 0xE5 SHL DUP2 MSTORE PUSH1 0x20 PUSH1 0x4 DUP3 ADD MSTORE PUSH1 0x1C PUSH1 0x24 DUP3 ADD MSTORE PUSH32 0x4552433732313A20746F6B656E20616C7265616479206D696E74656400000000 PUSH1 0x44 DUP3 ADD MSTORE PUSH1 0x64 ADD PUSH3 0x495 JUMP JUMPDEST PUSH3 0x13B8 PUSH1 0x0 DUP4 DUP4 PUSH3 0xF30 JUMP JUMPDEST PUSH1 0x1 PUSH1 0x1 PUSH1 0xA0 SHL SUB DUP3 AND PUSH1 0x0 SWAP1 DUP2 MSTORE PUSH1 0x3 PUSH1 0x20 MSTORE PUSH1 0x40 DUP2 KECCAK256 DUP1 SLOAD PUSH1 0x1 SWAP3 SWAP1 PUSH3 0x13E3 SWAP1 DUP5 SWAP1 PUSH3 0x1971 JUMP JUMPDEST SWAP1 SWAP2 SSTORE POP POP PUSH1 0x0 DUP2 DUP2 MSTORE PUSH1 0x2 PUSH1 0x20 MSTORE PUSH1 0x40 DUP1 DUP3 KECCAK256 DUP1 SLOAD PUSH1 0x1 PUSH1 0x1 PUSH1 0xA0 SHL SUB NOT AND PUSH1 0x1 PUSH1 0x1 PUSH1 0xA0 SHL SUB DUP7 AND SWAP1 DUP2 OR SWAP1 SWAP2 SSTORE SWAP1 MLOAD DUP4 SWAP3 SWAP1 PUSH32 0xDDF252AD1BE2C89B69C2B068FC378DAA952BA7F163C4A11628F55A4DF523B3EF SWAP1 DUP3 SWAP1 LOG4 POP POP JUMP JUMPDEST PUSH2 0x3003 DUP1 PUSH3 0x1AE4 DUP4 CODECOPY ADD SWAP1 JUMP JUMPDEST DUP1 CALLDATALOAD PUSH1 0x1 PUSH1 0x1 PUSH1 0xA0 SHL SUB DUP2 AND DUP2 EQ PUSH3 0x1467 JUMPI PUSH1 0x0 DUP1 REVERT JUMPDEST SWAP2 SWAP1 POP JUMP JUMPDEST PUSH1 0x0 DUP1 DUP4 PUSH1 0x1F DUP5 ADD SLT PUSH3 0x147F JUMPI PUSH1 0x0 DUP1 REVERT JUMPDEST POP DUP2 CALLDATALOAD PUSH8 0xFFFFFFFFFFFFFFFF DUP2 GT ISZERO PUSH3 0x1498 JUMPI PUSH1 0x0 DUP1 REVERT JUMPDEST PUSH1 0x20 DUP4 ADD SWAP2 POP DUP4 PUSH1 0x20 DUP3 DUP6 ADD ADD GT ISZERO PUSH3 0x14B1 JUMPI PUSH1 0x0 DUP1 REVERT JUMPDEST SWAP3 POP SWAP3 SWAP1 POP JUMP JUMPDEST PUSH1 0x0 PUSH1 0x20 DUP3 DUP5 SUB SLT ISZERO PUSH3 0x14CB JUMPI PUSH1 0x0 DUP1 REVERT JUMPDEST PUSH3 0x97A DUP3 PUSH3 0x144F JUMP JUMPDEST PUSH1 0x0 DUP1 PUSH1 0x40 DUP4 DUP6 SUB SLT ISZERO PUSH3 0x14EA JUMPI PUSH1 0x0 DUP1 REVERT JUMPDEST PUSH3 0x14F5 DUP4 PUSH3 0x144F JUMP JUMPDEST SWAP2 POP PUSH3 0x1505 PUSH1 0x20 DUP5 ADD PUSH3 0x144F JUMP JUMPDEST SWAP1 POP SWAP3 POP SWAP3 SWAP1 POP JUMP JUMPDEST PUSH1 0x0 DUP1 PUSH1 0x0 PUSH1 0x60 DUP5 DUP7 SUB SLT ISZERO PUSH3 0x1524 JUMPI PUSH1 0x0 DUP1 REVERT JUMPDEST PUSH3 0x152F DUP5 PUSH3 0x144F JUMP JUMPDEST SWAP3 POP PUSH3 0x153F PUSH1 0x20 DUP6 ADD PUSH3 0x144F JUMP JUMPDEST SWAP2 POP PUSH1 0x40 DUP5 ADD CALLDATALOAD SWAP1 POP SWAP3 POP SWAP3 POP SWAP3 JUMP JUMPDEST PUSH1 0x0 DUP1 PUSH1 0x0 DUP1 PUSH1 0x80 DUP6 DUP8 SUB SLT ISZERO PUSH3 0x1566 JUMPI PUSH1 0x0 DUP1 REVERT JUMPDEST PUSH3 0x1571 DUP6 PUSH3 0x144F JUMP JUMPDEST SWAP4 POP PUSH3 0x1581 PUSH1 0x20 DUP7 ADD PUSH3 0x144F JUMP JUMPDEST SWAP3 POP PUSH1 0x40 DUP6 ADD CALLDATALOAD SWAP2 POP PUSH1 0x60 DUP6 ADD CALLDATALOAD PUSH8 0xFFFFFFFFFFFFFFFF DUP1 DUP3 GT ISZERO PUSH3 0x15A6 JUMPI PUSH1 0x0 DUP1 REVERT JUMPDEST DUP2 DUP8 ADD SWAP2 POP DUP8 PUSH1 0x1F DUP4 ADD SLT PUSH3 0x15BB JUMPI PUSH1 0x0 DUP1 REVERT JUMPDEST DUP2 CALLDATALOAD DUP2 DUP2 GT ISZERO PUSH3 0x15D0 JUMPI PUSH3 0x15D0 PUSH3 0x1AB6 JUMP JUMPDEST PUSH1 0x40 MLOAD PUSH1 0x1F DUP3 ADD PUSH1 0x1F NOT SWAP1 DUP2 AND PUSH1 0x3F ADD AND DUP2 ADD SWAP1 DUP4 DUP3 GT DUP2 DUP4 LT OR ISZERO PUSH3 0x15FB JUMPI PUSH3 0x15FB PUSH3 0x1AB6 JUMP JUMPDEST DUP2 PUSH1 0x40 MSTORE DUP3 DUP2 MSTORE DUP11 PUSH1 0x20 DUP5 DUP8 ADD ADD GT ISZERO PUSH3 0x1615 JUMPI PUSH1 0x0 DUP1 REVERT JUMPDEST DUP3 PUSH1 0x20 DUP7 ADD PUSH1 0x20 DUP4 ADD CALLDATACOPY PUSH1 0x0 PUSH1 0x20 DUP5 DUP4 ADD ADD MSTORE DUP1 SWAP6 POP POP POP POP POP POP SWAP3 SWAP6 SWAP2 SWAP5 POP SWAP3 POP JUMP JUMPDEST PUSH1 0x0 DUP1 PUSH1 0x40 DUP4 DUP6 SUB SLT ISZERO PUSH3 0x164D JUMPI PUSH1 0x0 DUP1 REVERT JUMPDEST PUSH3 0x1658 DUP4 PUSH3 0x144F JUMP JUMPDEST SWAP2 POP PUSH1 0x20 DUP4 ADD CALLDATALOAD DUP1 ISZERO ISZERO DUP2 EQ PUSH3 0x166E JUMPI PUSH1 0x0 DUP1 REVERT JUMPDEST DUP1 SWAP2 POP POP SWAP3 POP SWAP3 SWAP1 POP JUMP JUMPDEST PUSH1 0x0 DUP1 PUSH1 0x40 DUP4 DUP6 SUB SLT ISZERO PUSH3 0x168D JUMPI PUSH1 0x0 DUP1 REVERT JUMPDEST PUSH3 0x1698 DUP4 PUSH3 0x144F JUMP JUMPDEST SWAP5 PUSH1 0x20 SWAP4 SWAP1 SWAP4 ADD CALLDATALOAD SWAP4 POP POP POP JUMP JUMPDEST PUSH1 0x0 PUSH1 0x20 DUP3 DUP5 SUB SLT ISZERO PUSH3 0x16B9 JUMPI PUSH1 0x0 DUP1 REVERT JUMPDEST DUP2 CALLDATALOAD PUSH3 0x97A DUP2 PUSH3 0x1ACC JUMP JUMPDEST PUSH1 0x0 PUSH1 0x20 DUP3 DUP5 SUB SLT ISZERO PUSH3 0x16D9 JUMPI PUSH1 0x0 DUP1 REVERT JUMPDEST DUP2 MLOAD PUSH3 0x97A DUP2 PUSH3 0x1ACC JUMP JUMPDEST PUSH1 0x0 DUP1 PUSH1 0x0 DUP1 PUSH1 0x0 DUP1 PUSH1 0x60 DUP8 DUP10 SUB SLT ISZERO PUSH3 0x1700 JUMPI PUSH1 0x0 DUP1 REVERT JUMPDEST DUP7 CALLDATALOAD PUSH8 0xFFFFFFFFFFFFFFFF DUP1 DUP3 GT ISZERO PUSH3 0x1719 JUMPI PUSH1 0x0 DUP1 REVERT JUMPDEST PUSH3 0x1727 DUP11 DUP4 DUP12 ADD PUSH3 0x146C JUMP JUMPDEST SWAP1 SWAP9 POP SWAP7 POP PUSH1 0x20 DUP10 ADD CALLDATALOAD SWAP2 POP DUP1 DUP3 GT ISZERO PUSH3 0x1741 JUMPI PUSH1 0x0 DUP1 REVERT JUMPDEST PUSH3 0x174F DUP11 DUP4 DUP12 ADD PUSH3 0x146C JUMP JUMPDEST SWAP1 SWAP7 POP SWAP5 POP PUSH1 0x40 DUP10 ADD CALLDATALOAD SWAP2 POP DUP1 DUP3 GT ISZERO PUSH3 0x1769 JUMPI PUSH1 0x0 DUP1 REVERT JUMPDEST POP PUSH3 0x1778 DUP10 DUP3 DUP11 ADD PUSH3 0x146C JUMP JUMPDEST SWAP8 SWAP11 SWAP7 SWAP10 POP SWAP5 SWAP8 POP SWAP3 SWAP6 SWAP4 SWAP5 SWAP3 POP POP POP JUMP JUMPDEST PUSH1 0x0 PUSH1 0x20 DUP3 DUP5 SUB SLT ISZERO PUSH3 0x179D JUMPI PUSH1 0x0 DUP1 REVERT JUMPDEST POP CALLDATALOAD SWAP2 SWAP1 POP JUMP JUMPDEST PUSH1 0x0 DUP2 MLOAD DUP1 DUP5 MSTORE PUSH3 0x17BE DUP2 PUSH1 0x20 DUP7 ADD PUSH1 0x20 DUP7 ADD PUSH3 0x19BD JUMP JUMPDEST PUSH1 0x1F ADD PUSH1 0x1F NOT AND SWAP3 SWAP1 SWAP3 ADD PUSH1 0x20 ADD SWAP3 SWAP2 POP POP JUMP JUMPDEST DUP2 DUP4 MSTORE DUP2 DUP2 PUSH1 0x20 DUP6 ADD CALLDATACOPY POP PUSH1 0x0 DUP3 DUP3 ADD PUSH1 0x20 SWAP1 DUP2 ADD SWAP2 SWAP1 SWAP2 MSTORE PUSH1 0x1F SWAP1 SWAP2 ADD PUSH1 0x1F NOT AND SWAP1 SWAP2 ADD ADD SWAP1 JUMP JUMPDEST PUSH1 0x0 DUP4 MLOAD PUSH3 0x180F DUP2 DUP5 PUSH1 0x20 DUP9 ADD PUSH3 0x19BD JUMP JUMPDEST DUP4 MLOAD SWAP1 DUP4 ADD SWAP1 PUSH3 0x1825 DUP2 DUP4 PUSH1 0x20 DUP9 ADD PUSH3 0x19BD JUMP JUMPDEST ADD SWAP5 SWAP4 POP POP POP POP JUMP JUMPDEST PUSH1 0x1 PUSH1 0x1 PUSH1 0xA0 SHL SUB DUP6 DUP2 AND DUP3 MSTORE DUP5 AND PUSH1 0x20 DUP3 ADD MSTORE PUSH1 0x40 DUP2 ADD DUP4 SWAP1 MSTORE PUSH1 0x80 PUSH1 0x60 DUP3 ADD DUP2 SWAP1 MSTORE PUSH1 0x0 SWAP1 PUSH3 0x1863 SWAP1 DUP4 ADD DUP5 PUSH3 0x17A4 JUMP JUMPDEST SWAP7 SWAP6 POP POP POP POP POP POP JUMP JUMPDEST PUSH1 0x60 DUP2 MSTORE PUSH1 0x0 PUSH3 0x1883 PUSH1 0x60 DUP4 ADD DUP9 DUP11 PUSH3 0x17D2 JUMP JUMPDEST DUP3 DUP2 SUB PUSH1 0x20 DUP5 ADD MSTORE PUSH3 0x1898 DUP2 DUP8 DUP10 PUSH3 0x17D2 JUMP JUMPDEST SWAP1 POP DUP3 DUP2 SUB PUSH1 0x40 DUP5 ADD MSTORE PUSH3 0x18AF DUP2 DUP6 DUP8 PUSH3 0x17D2 JUMP JUMPDEST SWAP10 SWAP9 POP POP POP POP POP POP POP POP POP JUMP JUMPDEST PUSH1 0x20 DUP2 MSTORE PUSH1 0x0 PUSH3 0x97A PUSH1 0x20 DUP4 ADD DUP5 PUSH3 0x17A4 JUMP JUMPDEST PUSH1 0x20 DUP1 DUP3 MSTORE PUSH1 0x32 SWAP1 DUP3 ADD MSTORE PUSH32 0x4552433732313A207472616E7366657220746F206E6F6E204552433732315265 PUSH1 0x40 DUP3 ADD MSTORE PUSH18 0x31B2B4BB32B91034B6B83632B6B2B73A32B9 PUSH1 0x71 SHL PUSH1 0x60 DUP3 ADD MSTORE PUSH1 0x80 ADD SWAP1 JUMP JUMPDEST PUSH1 0x20 DUP1 DUP3 MSTORE PUSH1 0x2E SWAP1 DUP3 ADD MSTORE PUSH32 0x4552433732313A2063616C6C6572206973206E6F7420746F6B656E206F776E65 PUSH1 0x40 DUP3 ADD MSTORE PUSH14 0x1C881B9BDC88185C1C1C9BDD9959 PUSH1 0x92 SHL PUSH1 0x60 DUP3 ADD MSTORE PUSH1 0x80 ADD SWAP1 JUMP JUMPDEST PUSH1 0x0 DUP3 NOT DUP3 GT ISZERO PUSH3 0x1987 JUMPI PUSH3 0x1987 PUSH3 0x1A5E JUMP JUMPDEST POP ADD SWAP1 JUMP JUMPDEST PUSH1 0x0 DUP3 PUSH3 0x199E JUMPI PUSH3 0x199E PUSH3 0x1A74 JUMP JUMPDEST POP DIV SWAP1 JUMP JUMPDEST PUSH1 0x0 DUP3 DUP3 LT ISZERO PUSH3 0x19B8 JUMPI PUSH3 0x19B8 PUSH3 0x1A5E JUMP JUMPDEST POP SUB SWAP1 JUMP JUMPDEST PUSH1 0x0 JUMPDEST DUP4 DUP2 LT ISZERO PUSH3 0x19DA JUMPI DUP2 DUP2 ADD MLOAD DUP4 DUP3 ADD MSTORE PUSH1 0x20 ADD PUSH3 0x19C0 JUMP JUMPDEST DUP4 DUP2 GT ISZERO PUSH3 0x90A JUMPI POP POP PUSH1 0x0 SWAP2 ADD MSTORE JUMP JUMPDEST PUSH1 0x1 DUP2 DUP2 SHR SWAP1 DUP3 AND DUP1 PUSH3 0x1A01 JUMPI PUSH1 0x7F DUP3 AND SWAP2 POP JUMPDEST PUSH1 0x20 DUP3 LT DUP2 EQ ISZERO PUSH3 0x1A23 JUMPI PUSH4 0x4E487B71 PUSH1 0xE0 SHL PUSH1 0x0 MSTORE PUSH1 0x22 PUSH1 0x4 MSTORE PUSH1 0x24 PUSH1 0x0 REVERT JUMPDEST POP SWAP2 SWAP1 POP JUMP JUMPDEST PUSH1 0x0 PUSH1 0x0 NOT DUP3 EQ ISZERO PUSH3 0x1A40 JUMPI PUSH3 0x1A40 PUSH3 0x1A5E JUMP JUMPDEST POP PUSH1 0x1 ADD SWAP1 JUMP JUMPDEST PUSH1 0x0 DUP3 PUSH3 0x1A59 JUMPI PUSH3 0x1A59 PUSH3 0x1A74 JUMP JUMPDEST POP MOD SWAP1 JUMP JUMPDEST PUSH4 0x4E487B71 PUSH1 0xE0 SHL PUSH1 0x0 MSTORE PUSH1 0x11 PUSH1 0x4 MSTORE PUSH1 0x24 PUSH1 0x0 REVERT JUMPDEST PUSH4 0x4E487B71 PUSH1 0xE0 SHL PUSH1 0x0 MSTORE PUSH1 0x12 PUSH1 0x4 MSTORE PUSH1 0x24 PUSH1 0x0 REVERT JUMPDEST PUSH4 0x4E487B71 PUSH1 0xE0 SHL PUSH1 0x0 MSTORE PUSH1 0x31 PUSH1 0x4 MSTORE PUSH1 0x24 PUSH1 0x0 REVERT JUMPDEST PUSH4 0x4E487B71 PUSH1 0xE0 SHL PUSH1 0x0 MSTORE PUSH1 0x32 PUSH1 0x4 MSTORE PUSH1 0x24 PUSH1 0x0 REVERT JUMPDEST PUSH4 0x4E487B71 PUSH1 0xE0 SHL PUSH1 0x0 MSTORE PUSH1 0x41 PUSH1 0x4 MSTORE PUSH1 0x24 PUSH1 0x0 REVERT JUMPDEST PUSH1 0x1 PUSH1 0x1 PUSH1 0xE0 SHL SUB NOT DUP2 AND DUP2 EQ PUSH3 0xA35 JUMPI PUSH1 0x0 DUP1 REVERT INVALID PUSH1 0x80 PUSH1 0x40 MSTORE CALLVALUE DUP1 ISZERO PUSH3 0x11 JUMPI PUSH1 0x0 DUP1 REVERT JUMPDEST POP PUSH1 0x40 MLOAD PUSH3 0x3003 CODESIZE SUB DUP1 PUSH3 0x3003 DUP4 CODECOPY DUP2 ADD PUSH1 0x40 DUP2 SWAP1 MSTORE PUSH3 0x34 SWAP2 PUSH3 0x1E2 JUMP JUMPDEST DUP3 MLOAD DUP4 SWAP1 DUP4 SWAP1 PUSH3 0x4D SWAP1 PUSH1 0x0 SWAP1 PUSH1 0x20 DUP6 ADD SWAP1 PUSH3 0x85 JUMP JUMPDEST POP DUP1 MLOAD PUSH3 0x63 SWAP1 PUSH1 0x1 SWAP1 PUSH1 0x20 DUP5 ADD SWAP1 PUSH3 0x85 JUMP JUMPDEST POP POP DUP2 MLOAD PUSH3 0x7B SWAP2 POP PUSH1 0xA SWAP1 PUSH1 0x20 DUP5 ADD SWAP1 PUSH3 0x85 JUMP JUMPDEST POP POP POP POP PUSH3 0x2C6 JUMP JUMPDEST DUP3 DUP1 SLOAD PUSH3 0x93 SWAP1 PUSH3 0x273 JUMP JUMPDEST SWAP1 PUSH1 0x0 MSTORE PUSH1 0x20 PUSH1 0x0 KECCAK256 SWAP1 PUSH1 0x1F ADD PUSH1 0x20 SWAP1 DIV DUP2 ADD SWAP3 DUP3 PUSH3 0xB7 JUMPI PUSH1 0x0 DUP6 SSTORE PUSH3 0x102 JUMP JUMPDEST DUP3 PUSH1 0x1F LT PUSH3 0xD2 JUMPI DUP1 MLOAD PUSH1 0xFF NOT AND DUP4 DUP1 ADD OR DUP6 SSTORE PUSH3 0x102 JUMP JUMPDEST DUP3 DUP1 ADD PUSH1 0x1 ADD DUP6 SSTORE DUP3 ISZERO PUSH3 0x102 JUMPI SWAP2 DUP3 ADD JUMPDEST DUP3 DUP2 GT ISZERO PUSH3 0x102 JUMPI DUP3 MLOAD DUP3 SSTORE SWAP2 PUSH1 0x20 ADD SWAP2 SWAP1 PUSH1 0x1 ADD SWAP1 PUSH3 0xE5 JUMP JUMPDEST POP PUSH3 0x110 SWAP3 SWAP2 POP PUSH3 0x114 JUMP JUMPDEST POP SWAP1 JUMP JUMPDEST JUMPDEST DUP1 DUP3 GT ISZERO PUSH3 0x110 JUMPI PUSH1 0x0 DUP2 SSTORE PUSH1 0x1 ADD PUSH3 0x115 JUMP JUMPDEST PUSH1 0x0 DUP3 PUSH1 0x1F DUP4 ADD SLT PUSH3 0x13D JUMPI PUSH1 0x0 DUP1 REVERT JUMPDEST DUP2 MLOAD PUSH1 0x1 PUSH1 0x1 PUSH1 0x40 SHL SUB DUP1 DUP3 GT ISZERO PUSH3 0x15A JUMPI PUSH3 0x15A PUSH3 0x2B0 JUMP JUMPDEST PUSH1 0x40 MLOAD PUSH1 0x1F DUP4 ADD PUSH1 0x1F NOT SWAP1 DUP2 AND PUSH1 0x3F ADD AND DUP2 ADD SWAP1 DUP3 DUP3 GT DUP2 DUP4 LT OR ISZERO PUSH3 0x185 JUMPI PUSH3 0x185 PUSH3 0x2B0 JUMP JUMPDEST DUP2 PUSH1 0x40 MSTORE DUP4 DUP2 MSTORE PUSH1 0x20 SWAP3 POP DUP7 DUP4 DUP6 DUP9 ADD ADD GT ISZERO PUSH3 0x1A2 JUMPI PUSH1 0x0 DUP1 REVERT JUMPDEST PUSH1 0x0 SWAP2 POP JUMPDEST DUP4 DUP3 LT ISZERO PUSH3 0x1C6 JUMPI DUP6 DUP3 ADD DUP4 ADD MLOAD DUP2 DUP4 ADD DUP5 ADD MSTORE SWAP1 DUP3 ADD SWAP1 PUSH3 0x1A7 JUMP JUMPDEST DUP4 DUP3 GT ISZERO PUSH3 0x1D8 JUMPI PUSH1 0x0 DUP4 DUP6 DUP4 ADD ADD MSTORE JUMPDEST SWAP7 SWAP6 POP POP POP POP POP POP JUMP JUMPDEST PUSH1 0x0 DUP1 PUSH1 0x0 PUSH1 0x60 DUP5 DUP7 SUB SLT ISZERO PUSH3 0x1F8 JUMPI PUSH1 0x0 DUP1 REVERT JUMPDEST DUP4 MLOAD PUSH1 0x1 PUSH1 0x1 PUSH1 0x40 SHL SUB DUP1 DUP3 GT ISZERO PUSH3 0x210 JUMPI PUSH1 0x0 DUP1 REVERT JUMPDEST PUSH3 0x21E DUP8 DUP4 DUP9 ADD PUSH3 0x12B JUMP JUMPDEST SWAP5 POP PUSH1 0x20 DUP7 ADD MLOAD SWAP2 POP DUP1 DUP3 GT ISZERO PUSH3 0x235 JUMPI PUSH1 0x0 DUP1 REVERT JUMPDEST PUSH3 0x243 DUP8 DUP4 DUP9 ADD PUSH3 0x12B JUMP JUMPDEST SWAP4 POP PUSH1 0x40 DUP7 ADD MLOAD SWAP2 POP DUP1 DUP3 GT ISZERO PUSH3 0x25A JUMPI PUSH1 0x0 DUP1 REVERT JUMPDEST POP PUSH3 0x269 DUP7 DUP3 DUP8 ADD PUSH3 0x12B JUMP JUMPDEST SWAP2 POP POP SWAP3 POP SWAP3 POP SWAP3 JUMP JUMPDEST PUSH1 0x1 DUP2 DUP2 SHR SWAP1 DUP3 AND DUP1 PUSH3 0x288 JUMPI PUSH1 0x7F DUP3 AND SWAP2 POP JUMPDEST PUSH1 0x20 DUP3 LT DUP2 EQ ISZERO PUSH3 0x2AA JUMPI PUSH4 0x4E487B71 PUSH1 0xE0 SHL PUSH1 0x0 MSTORE PUSH1 0x22 PUSH1 0x4 MSTORE PUSH1 0x24 PUSH1 0x0 REVERT JUMPDEST POP SWAP2 SWAP1 POP JUMP JUMPDEST PUSH4 0x4E487B71 PUSH1 0xE0 SHL PUSH1 0x0 MSTORE PUSH1 0x41 PUSH1 0x4 MSTORE PUSH1 0x24 PUSH1 0x0 REVERT JUMPDEST PUSH2 0x2D2D DUP1 PUSH3 0x2D6 PUSH1 0x0 CODECOPY PUSH1 0x0 RETURN INVALID PUSH1 0x80 PUSH1 0x40 MSTORE CALLVALUE DUP1 ISZERO PUSH3 0x11 JUMPI PUSH1 0x0 DUP1 REVERT JUMPDEST POP PUSH1 0x4 CALLDATASIZE LT PUSH3 0x139 JUMPI PUSH1 0x0 CALLDATALOAD PUSH1 0xE0 SHR DUP1 PUSH4 0x4F6CCCE7 GT PUSH3 0xBB JUMPI DUP1 PUSH4 0x95D89B41 GT PUSH3 0x7A JUMPI DUP1 PUSH4 0x95D89B41 EQ PUSH3 0x29E JUMPI DUP1 PUSH4 0xA22CB465 EQ PUSH3 0x2A8 JUMPI DUP1 PUSH4 0xB88D4FDE EQ PUSH3 0x2BF JUMPI DUP1 PUSH4 0xC87B56DD EQ PUSH3 0x2D6 JUMPI DUP1 PUSH4 0xE985E9C5 EQ PUSH3 0x2ED JUMPI PUSH1 0x0 DUP1 REVERT JUMPDEST DUP1 PUSH4 0x4F6CCCE7 EQ PUSH3 0x23B JUMPI DUP1 PUSH4 0x6352211E EQ PUSH3 0x252 JUMPI DUP1 PUSH4 0x699D8107 EQ PUSH3 0x269 JUMPI DUP1 PUSH4 0x6C0360EB EQ PUSH3 0x27D JUMPI DUP1 PUSH4 0x70A08231 EQ PUSH3 0x287 JUMPI PUSH1 0x0 DUP1 REVERT JUMPDEST DUP1 PUSH4 0x9866B3A GT PUSH3 0x108 JUMPI DUP1 PUSH4 0x9866B3A EQ PUSH3 0x1CC JUMPI DUP1 PUSH4 0x18160DDD EQ PUSH3 0x1E3 JUMPI DUP1 PUSH4 0x23B872DD EQ PUSH3 0x1F6 JUMPI DUP1 PUSH4 0x2F745C59 EQ PUSH3 0x20D JUMPI DUP1 PUSH4 0x42842E0E EQ PUSH3 0x224 JUMPI PUSH1 0x0 DUP1 REVERT JUMPDEST DUP1 PUSH4 0x1FFC9A7 EQ PUSH3 0x13E JUMPI DUP1 PUSH4 0x6FDDE03 EQ PUSH3 0x16A JUMPI DUP1 PUSH4 0x81812FC EQ PUSH3 0x183 JUMPI DUP1 PUSH4 0x95EA7B3 EQ PUSH3 0x1B3 JUMPI JUMPDEST PUSH1 0x0 DUP1 REVERT JUMPDEST PUSH3 0x155 PUSH3 0x14F CALLDATASIZE PUSH1 0x4 PUSH3 0x16A6 JUMP JUMPDEST PUSH3 0x32C JUMP JUMPDEST PUSH1 0x40 MLOAD SWAP1 ISZERO ISZERO DUP2 MSTORE PUSH1 0x20 ADD JUMPDEST PUSH1 0x40 MLOAD DUP1 SWAP2 SUB SWAP1 RETURN JUMPDEST PUSH3 0x174 PUSH3 0x35A JUMP JUMPDEST PUSH1 0x40 MLOAD PUSH3 0x161 SWAP2 SWAP1 PUSH3 0x185B JUMP JUMPDEST PUSH3 0x19A PUSH3 0x194 CALLDATASIZE PUSH1 0x4 PUSH3 0x16E6 JUMP JUMPDEST PUSH3 0x3F4 JUMP JUMPDEST PUSH1 0x40 MLOAD PUSH1 0x1 PUSH1 0x1 PUSH1 0xA0 SHL SUB SWAP1 SWAP2 AND DUP2 MSTORE PUSH1 0x20 ADD PUSH3 0x161 JUMP JUMPDEST PUSH3 0x1CA PUSH3 0x1C4 CALLDATASIZE PUSH1 0x4 PUSH3 0x1679 JUMP JUMPDEST PUSH3 0x41D JUMP JUMPDEST STOP JUMPDEST PUSH3 0x1CA PUSH3 0x1DD CALLDATASIZE PUSH1 0x4 PUSH3 0x1700 JUMP JUMPDEST PUSH3 0x542 JUMP JUMPDEST PUSH1 0x8 SLOAD JUMPDEST PUSH1 0x40 MLOAD SWAP1 DUP2 MSTORE PUSH1 0x20 ADD PUSH3 0x161 JUMP JUMPDEST PUSH3 0x1CA PUSH3 0x207 CALLDATASIZE PUSH1 0x4 PUSH3 0x150E JUMP JUMPDEST PUSH3 0x5A7 JUMP JUMPDEST PUSH3 0x1E7 PUSH3 0x21E CALLDATASIZE PUSH1 0x4 PUSH3 0x1679 JUMP JUMPDEST PUSH3 0x5DF JUMP JUMPDEST PUSH3 0x1CA PUSH3 0x235 CALLDATASIZE PUSH1 0x4 PUSH3 0x150E JUMP JUMPDEST PUSH3 0x679 JUMP JUMPDEST PUSH3 0x1E7 PUSH3 0x24C CALLDATASIZE PUSH1 0x4 PUSH3 0x16E6 JUMP JUMPDEST PUSH3 0x696 JUMP JUMPDEST PUSH3 0x19A PUSH3 0x263 CALLDATASIZE PUSH1 0x4 PUSH3 0x16E6 JUMP JUMPDEST PUSH3 0x72F JUMP JUMPDEST PUSH3 0x19A PUSH3 0x27A CALLDATASIZE PUSH1 0x4 PUSH3 0x16E6 JUMP JUMPDEST SWAP1 JUMP JUMPDEST PUSH3 0x174 PUSH3 0x791 JUMP JUMPDEST PUSH3 0x1E7 PUSH3 0x298 CALLDATASIZE PUSH1 0x4 PUSH3 0x14B8 JUMP JUMPDEST PUSH3 0x827 JUMP JUMPDEST PUSH3 0x174 PUSH3 0x8AF JUMP JUMPDEST PUSH3 0x1CA PUSH3 0x2B9 CALLDATASIZE PUSH1 0x4 PUSH3 0x1639 JUMP JUMPDEST PUSH3 0x8C0 JUMP JUMPDEST PUSH3 0x1CA PUSH3 0x2D0 CALLDATASIZE PUSH1 0x4 PUSH3 0x154F JUMP JUMPDEST PUSH3 0x8D1 JUMP JUMPDEST PUSH3 0x174 PUSH3 0x2E7 CALLDATASIZE PUSH1 0x4 PUSH3 0x16E6 JUMP JUMPDEST PUSH3 0x910 JUMP JUMPDEST PUSH3 0x155 PUSH3 0x2FE CALLDATASIZE PUSH1 0x4 PUSH3 0x14D6 JUMP JUMPDEST PUSH1 0x1 PUSH1 0x1 PUSH1 0xA0 SHL SUB SWAP2 DUP3 AND PUSH1 0x0 SWAP1 DUP2 MSTORE PUSH1 0x5 PUSH1 0x20 SWAP1 DUP2 MSTORE PUSH1 0x40 DUP1 DUP4 KECCAK256 SWAP4 SWAP1 SWAP5 AND DUP3 MSTORE SWAP2 SWAP1 SWAP2 MSTORE KECCAK256 SLOAD PUSH1 0xFF AND SWAP1 JUMP JUMPDEST PUSH1 0x0 PUSH1 0x1 PUSH1 0x1 PUSH1 0xE0 SHL SUB NOT DUP3 AND PUSH4 0x780E9D63 PUSH1 0xE0 SHL EQ DUP1 PUSH3 0x354 JUMPI POP PUSH3 0x354 DUP3 PUSH3 0x981 JUMP JUMPDEST SWAP3 SWAP2 POP POP JUMP JUMPDEST PUSH1 0x60 PUSH1 0x0 DUP1 SLOAD PUSH3 0x36B SWAP1 PUSH3 0x19D8 JUMP JUMPDEST DUP1 PUSH1 0x1F ADD PUSH1 0x20 DUP1 SWAP2 DIV MUL PUSH1 0x20 ADD PUSH1 0x40 MLOAD SWAP1 DUP2 ADD PUSH1 0x40 MSTORE DUP1 SWAP3 SWAP2 SWAP1 DUP2 DUP2 MSTORE PUSH1 0x20 ADD DUP3 DUP1 SLOAD PUSH3 0x399 SWAP1 PUSH3 0x19D8 JUMP JUMPDEST DUP1 ISZERO PUSH3 0x3EA JUMPI DUP1 PUSH1 0x1F LT PUSH3 0x3BE JUMPI PUSH2 0x100 DUP1 DUP4 SLOAD DIV MUL DUP4 MSTORE SWAP2 PUSH1 0x20 ADD SWAP2 PUSH3 0x3EA JUMP JUMPDEST DUP3 ADD SWAP2 SWAP1 PUSH1 0x0 MSTORE PUSH1 0x20 PUSH1 0x0 KECCAK256 SWAP1 JUMPDEST DUP2 SLOAD DUP2 MSTORE SWAP1 PUSH1 0x1 ADD SWAP1 PUSH1 0x20 ADD DUP1 DUP4 GT PUSH3 0x3CC JUMPI DUP3 SWAP1 SUB PUSH1 0x1F AND DUP3 ADD SWAP2 JUMPDEST POP POP POP POP POP SWAP1 POP SWAP1 JUMP JUMPDEST PUSH1 0x0 PUSH3 0x401 DUP3 PUSH3 0x9D4 JUMP JUMPDEST POP PUSH1 0x0 SWAP1 DUP2 MSTORE PUSH1 0x4 PUSH1 0x20 MSTORE PUSH1 0x40 SWAP1 KECCAK256 SLOAD PUSH1 0x1 PUSH1 0x1 PUSH1 0xA0 SHL SUB AND SWAP1 JUMP JUMPDEST PUSH1 0x0 PUSH3 0x42A DUP3 PUSH3 0x72F JUMP JUMPDEST SWAP1 POP DUP1 PUSH1 0x1 PUSH1 0x1 PUSH1 0xA0 SHL SUB AND DUP4 PUSH1 0x1 PUSH1 0x1 PUSH1 0xA0 SHL SUB AND EQ ISZERO PUSH3 0x49E JUMPI PUSH1 0x40 MLOAD PUSH3 0x461BCD PUSH1 0xE5 SHL DUP2 MSTORE PUSH1 0x20 PUSH1 0x4 DUP3 ADD MSTORE PUSH1 0x21 PUSH1 0x24 DUP3 ADD MSTORE PUSH32 0x4552433732313A20617070726F76616C20746F2063757272656E74206F776E65 PUSH1 0x44 DUP3 ADD MSTORE PUSH1 0x39 PUSH1 0xF9 SHL PUSH1 0x64 DUP3 ADD MSTORE PUSH1 0x84 ADD JUMPDEST PUSH1 0x40 MLOAD DUP1 SWAP2 SUB SWAP1 REVERT JUMPDEST CALLER PUSH1 0x1 PUSH1 0x1 PUSH1 0xA0 SHL SUB DUP3 AND EQ DUP1 PUSH3 0x4BD JUMPI POP PUSH3 0x4BD DUP2 CALLER PUSH3 0x2FE JUMP JUMPDEST PUSH3 0x531 JUMPI PUSH1 0x40 MLOAD PUSH3 0x461BCD PUSH1 0xE5 SHL DUP2 MSTORE PUSH1 0x20 PUSH1 0x4 DUP3 ADD MSTORE PUSH1 0x3E PUSH1 0x24 DUP3 ADD MSTORE PUSH32 0x4552433732313A20617070726F76652063616C6C6572206973206E6F7420746F PUSH1 0x44 DUP3 ADD MSTORE PUSH32 0x6B656E206F776E6572206E6F7220617070726F76656420666F7220616C6C0000 PUSH1 0x64 DUP3 ADD MSTORE PUSH1 0x84 ADD PUSH3 0x495 JUMP JUMPDEST PUSH3 0x53D DUP4 DUP4 PUSH3 0xA38 JUMP JUMPDEST POP POP POP JUMP JUMPDEST PUSH1 0x0 DUP7 DUP7 DUP7 DUP7 DUP7 DUP7 PUSH1 0x40 MLOAD PUSH3 0x558 SWAP1 PUSH3 0x1441 JUMP JUMPDEST PUSH3 0x569 SWAP7 SWAP6 SWAP5 SWAP4 SWAP3 SWAP2 SWAP1 PUSH3 0x1910 JUMP JUMPDEST PUSH1 0x40 MLOAD DUP1 SWAP2 SUB SWAP1 PUSH1 0x0 CREATE DUP1 ISZERO DUP1 ISZERO PUSH3 0x586 JUMPI RETURNDATASIZE PUSH1 0x0 DUP1 RETURNDATACOPY RETURNDATASIZE PUSH1 0x0 REVERT JUMPDEST POP SWAP1 POP PUSH3 0x59E CALLER DUP3 PUSH1 0x1 PUSH1 0x1 PUSH1 0xA0 SHL SUB AND PUSH3 0xAA8 JUMP JUMPDEST POP POP POP POP POP POP POP JUMP JUMPDEST PUSH3 0x5B3 CALLER DUP3 PUSH3 0xAC4 JUMP JUMPDEST PUSH3 0x5D2 JUMPI PUSH1 0x40 MLOAD PUSH3 0x461BCD PUSH1 0xE5 SHL DUP2 MSTORE PUSH1 0x4 ADD PUSH3 0x495 SWAP1 PUSH3 0x18C2 JUMP JUMPDEST PUSH3 0x53D DUP4 DUP4 DUP4 PUSH3 0xB49 JUMP JUMPDEST PUSH1 0x0 PUSH3 0x5EC DUP4 PUSH3 0x827 JUMP JUMPDEST DUP3 LT PUSH3 0x650 JUMPI PUSH1 0x40 MLOAD PUSH3 0x461BCD PUSH1 0xE5 SHL DUP2 MSTORE PUSH1 0x20 PUSH1 0x4 DUP3 ADD MSTORE PUSH1 0x2B PUSH1 0x24 DUP3 ADD MSTORE PUSH32 0x455243373231456E756D657261626C653A206F776E657220696E646578206F75 PUSH1 0x44 DUP3 ADD MSTORE PUSH11 0x74206F6620626F756E6473 PUSH1 0xA8 SHL PUSH1 0x64 DUP3 ADD MSTORE PUSH1 0x84 ADD PUSH3 0x495 JUMP JUMPDEST POP PUSH1 0x1 PUSH1 0x1 PUSH1 0xA0 SHL SUB SWAP2 SWAP1 SWAP2 AND PUSH1 0x0 SWAP1 DUP2 MSTORE PUSH1 0x6 PUSH1 0x20 SWAP1 DUP2 MSTORE PUSH1 0x40 DUP1 DUP4 KECCAK256 SWAP4 DUP4 MSTORE SWAP3 SWAP1 MSTORE KECCAK256 SLOAD SWAP1 JUMP JUMPDEST PUSH3 0x53D DUP4 DUP4 DUP4 PUSH1 0x40 MLOAD DUP1 PUSH1 0x20 ADD PUSH1 0x40 MSTORE DUP1 PUSH1 0x0 DUP2 MSTORE POP PUSH3 0x8D1 JUMP JUMPDEST PUSH1 0x0 PUSH3 0x6A2 PUSH1 0x8 SLOAD SWAP1 JUMP JUMPDEST DUP3 LT PUSH3 0x707 JUMPI PUSH1 0x40 MLOAD PUSH3 0x461BCD PUSH1 0xE5 SHL DUP2 MSTORE PUSH1 0x20 PUSH1 0x4 DUP3 ADD MSTORE PUSH1 0x2C PUSH1 0x24 DUP3 ADD MSTORE PUSH32 0x455243373231456E756D657261626C653A20676C6F62616C20696E646578206F PUSH1 0x44 DUP3 ADD MSTORE PUSH12 0x7574206F6620626F756E6473 PUSH1 0xA0 SHL PUSH1 0x64 DUP3 ADD MSTORE PUSH1 0x84 ADD PUSH3 0x495 JUMP JUMPDEST PUSH1 0x8 DUP3 DUP2 SLOAD DUP2 LT PUSH3 0x71D JUMPI PUSH3 0x71D PUSH3 0x1A8C JUMP JUMPDEST SWAP1 PUSH1 0x0 MSTORE PUSH1 0x20 PUSH1 0x0 KECCAK256 ADD SLOAD SWAP1 POP SWAP2 SWAP1 POP JUMP JUMPDEST PUSH1 0x0 DUP2 DUP2 MSTORE PUSH1 0x2 PUSH1 0x20 MSTORE PUSH1 0x40 DUP2 KECCAK256 SLOAD PUSH1 0x1 PUSH1 0x1 PUSH1 0xA0 SHL SUB AND DUP1 PUSH3 0x354 JUMPI PUSH1 0x40 MLOAD PUSH3 0x461BCD PUSH1 0xE5 SHL DUP2 MSTORE PUSH1 0x20 PUSH1 0x4 DUP3 ADD MSTORE PUSH1 0x18 PUSH1 0x24 DUP3 ADD MSTORE PUSH24 0x115490CDCC8C4E881A5B9D985B1A59081D1BDAD95B881251 PUSH1 0x42 SHL PUSH1 0x44 DUP3 ADD MSTORE PUSH1 0x64 ADD PUSH3 0x495 JUMP JUMPDEST PUSH1 0xA DUP1 SLOAD PUSH3 0x7A0 SWAP1 PUSH3 0x19D8 JUMP JUMPDEST DUP1 PUSH1 0x1F ADD PUSH1 0x20 DUP1 SWAP2 DIV MUL PUSH1 0x20 ADD PUSH1 0x40 MLOAD SWAP1 DUP2 ADD PUSH1 0x40 MSTORE DUP1 SWAP3 SWAP2 SWAP1 DUP2 DUP2 MSTORE PUSH1 0x20 ADD DUP3 DUP1 SLOAD PUSH3 0x7CE SWAP1 PUSH3 0x19D8 JUMP JUMPDEST DUP1 ISZERO PUSH3 0x81F JUMPI DUP1 PUSH1 0x1F LT PUSH3 0x7F3 JUMPI PUSH2 0x100 DUP1 DUP4 SLOAD DIV MUL DUP4 MSTORE SWAP2 PUSH1 0x20 ADD SWAP2 PUSH3 0x81F JUMP JUMPDEST DUP3 ADD SWAP2 SWAP1 PUSH1 0x0 MSTORE PUSH1 0x20 PUSH1 0x0 KECCAK256 SWAP1 JUMPDEST DUP2 SLOAD DUP2 MSTORE SWAP1 PUSH1 0x1 ADD SWAP1 PUSH1 0x20 ADD DUP1 DUP4 GT PUSH3 0x801 JUMPI DUP3 SWAP1 SUB PUSH1 0x1F AND DUP3 ADD SWAP2 JUMPDEST POP POP POP POP POP DUP2 JUMP JUMPDEST PUSH1 0x0 PUSH1 0x1 PUSH1 0x1 PUSH1 0xA0 SHL SUB DUP3 AND PUSH3 0x893 JUMPI PUSH1 0x40 MLOAD PUSH3 0x461BCD PUSH1 0xE5 SHL DUP2 MSTORE PUSH1 0x20 PUSH1 0x4 DUP3 ADD MSTORE PUSH1 0x29 PUSH1 0x24 DUP3 ADD MSTORE PUSH32 0x4552433732313A2061646472657373207A65726F206973206E6F742061207661 PUSH1 0x44 DUP3 ADD MSTORE PUSH9 0x3634B21037BBB732B9 PUSH1 0xB9 SHL PUSH1 0x64 DUP3 ADD MSTORE PUSH1 0x84 ADD PUSH3 0x495 JUMP JUMPDEST POP PUSH1 0x1 PUSH1 0x1 PUSH1 0xA0 SHL SUB AND PUSH1 0x0 SWAP1 DUP2 MSTORE PUSH1 0x3 PUSH1 0x20 MSTORE PUSH1 0x40 SWAP1 KECCAK256 SLOAD SWAP1 JUMP JUMPDEST PUSH1 0x60 PUSH1 0x1 DUP1 SLOAD PUSH3 0x36B SWAP1 PUSH3 0x19D8 JUMP JUMPDEST PUSH3 0x8CD CALLER DUP4 DUP4 PUSH3 0xCFE JUMP JUMPDEST POP POP JUMP JUMPDEST PUSH3 0x8DD CALLER DUP4 PUSH3 0xAC4 JUMP JUMPDEST PUSH3 0x8FC JUMPI PUSH1 0x40 MLOAD PUSH3 0x461BCD PUSH1 0xE5 SHL DUP2 MSTORE PUSH1 0x4 ADD PUSH3 0x495 SWAP1 PUSH3 0x18C2 JUMP JUMPDEST PUSH3 0x90A DUP5 DUP5 DUP5 DUP5 PUSH3 0xDCF JUMP JUMPDEST POP POP POP POP JUMP JUMPDEST PUSH1 0x60 PUSH3 0x91D DUP3 PUSH3 0x9D4 JUMP JUMPDEST PUSH1 0x0 PUSH3 0x929 PUSH3 0xE09 JUMP JUMPDEST SWAP1 POP PUSH1 0x0 DUP2 MLOAD GT PUSH3 0x94B JUMPI PUSH1 0x40 MLOAD DUP1 PUSH1 0x20 ADD PUSH1 0x40 MSTORE DUP1 PUSH1 0x0 DUP2 MSTORE POP PUSH3 0x97A JUMP JUMPDEST DUP1 PUSH3 0x957 DUP5 PUSH3 0xE1A JUMP JUMPDEST PUSH1 0x40 MLOAD PUSH1 0x20 ADD PUSH3 0x96A SWAP3 SWAP2 SWAP1 PUSH3 0x17E9 JUMP JUMPDEST PUSH1 0x40 MLOAD PUSH1 0x20 DUP2 DUP4 SUB SUB DUP2 MSTORE SWAP1 PUSH1 0x40 MSTORE JUMPDEST SWAP4 SWAP3 POP POP POP JUMP JUMPDEST PUSH1 0x0 PUSH1 0x1 PUSH1 0x1 PUSH1 0xE0 SHL SUB NOT DUP3 AND PUSH4 0x80AC58CD PUSH1 0xE0 SHL EQ DUP1 PUSH3 0x9B3 JUMPI POP PUSH1 0x1 PUSH1 0x1 PUSH1 0xE0 SHL SUB NOT DUP3 AND PUSH4 0x5B5E139F PUSH1 0xE0 SHL EQ JUMPDEST DUP1 PUSH3 0x354 JUMPI POP PUSH4 0x1FFC9A7 PUSH1 0xE0 SHL PUSH1 0x1 PUSH1 0x1 PUSH1 0xE0 SHL SUB NOT DUP4 AND EQ PUSH3 0x354 JUMP JUMPDEST PUSH1 0x0 DUP2 DUP2 MSTORE PUSH1 0x2 PUSH1 0x20 MSTORE PUSH1 0x40 SWAP1 KECCAK256 SLOAD PUSH1 0x1 PUSH1 0x1 PUSH1 0xA0 SHL SUB AND PUSH3 0xA35 JUMPI PUSH1 0x40 MLOAD PUSH3 0x461BCD PUSH1 0xE5 SHL DUP2 MSTORE PUSH1 0x20 PUSH1 0x4 DUP3 ADD MSTORE PUSH1 0x18 PUSH1 0x24 DUP3 ADD MSTORE PUSH24 0x115490CDCC8C4E881A5B9D985B1A59081D1BDAD95B881251 PUSH1 0x42 SHL PUSH1 0x44 DUP3 ADD MSTORE PUSH1 0x64 ADD PUSH3 0x495 JUMP JUMPDEST POP JUMP JUMPDEST PUSH1 0x0 DUP2 DUP2 MSTORE PUSH1 0x4 PUSH1 0x20 MSTORE PUSH1 0x40 SWAP1 KECCAK256 DUP1 SLOAD PUSH1 0x1 PUSH1 0x1 PUSH1 0xA0 SHL SUB NOT AND PUSH1 0x1 PUSH1 0x1 PUSH1 0xA0 SHL SUB DUP5 AND SWAP1 DUP2 OR SWAP1 SWAP2 SSTORE DUP2 SWAP1 PUSH3 0xA6F DUP3 PUSH3 0x72F JUMP JUMPDEST PUSH1 0x1 PUSH1 0x1 PUSH1 0xA0 SHL SUB AND PUSH32 0x8C5BE1E5EBEC7D5BD14F71427D1E84F3DD0314C0F7B2291E5B200AC8C7C3B925 PUSH1 0x40 MLOAD PUSH1 0x40 MLOAD DUP1 SWAP2 SUB SWAP1 LOG4 POP POP JUMP JUMPDEST PUSH3 0x8CD DUP3 DUP3 PUSH1 0x40 MLOAD DUP1 PUSH1 0x20 ADD PUSH1 0x40 MSTORE DUP1 PUSH1 0x0 DUP2 MSTORE POP PUSH3 0xF30 JUMP JUMPDEST PUSH1 0x0 DUP1 PUSH3 0xAD2 DUP4 PUSH3 0x72F JUMP JUMPDEST SWAP1 POP DUP1 PUSH1 0x1 PUSH1 0x1 PUSH1 0xA0 SHL SUB AND DUP5 PUSH1 0x1 PUSH1 0x1 PUSH1 0xA0 SHL SUB AND EQ DUP1 PUSH3 0xB1A JUMPI POP PUSH1 0x1 PUSH1 0x1 PUSH1 0xA0 SHL SUB DUP1 DUP3 AND PUSH1 0x0 SWAP1 DUP2 MSTORE PUSH1 0x5 PUSH1 0x20 SWAP1 DUP2 MSTORE PUSH1 0x40 DUP1 DUP4 KECCAK256 SWAP4 DUP9 AND DUP4 MSTORE SWAP3 SWAP1 MSTORE KECCAK256 SLOAD PUSH1 0xFF AND JUMPDEST DUP1 PUSH3 0xB41 JUMPI POP DUP4 PUSH1 0x1 PUSH1 0x1 PUSH1 0xA0 SHL SUB AND PUSH3 0xB36 DUP5 PUSH3 0x3F4 JUMP JUMPDEST PUSH1 0x1 PUSH1 0x1 PUSH1 0xA0 SHL SUB AND EQ JUMPDEST SWAP5 SWAP4 POP POP POP POP JUMP JUMPDEST DUP3 PUSH1 0x1 PUSH1 0x1 PUSH1 0xA0 SHL SUB AND PUSH3 0xB5E DUP3 PUSH3 0x72F JUMP JUMPDEST PUSH1 0x1 PUSH1 0x1 PUSH1 0xA0 SHL SUB AND EQ PUSH3 0xBC4 JUMPI PUSH1 0x40 MLOAD PUSH3 0x461BCD PUSH1 0xE5 SHL DUP2 MSTORE PUSH1 0x20 PUSH1 0x4 DUP3 ADD MSTORE PUSH1 0x25 PUSH1 0x24 DUP3 ADD MSTORE PUSH32 0x4552433732313A207472616E736665722066726F6D20696E636F727265637420 PUSH1 0x44 DUP3 ADD MSTORE PUSH5 0x37BBB732B9 PUSH1 0xD9 SHL PUSH1 0x64 DUP3 ADD MSTORE PUSH1 0x84 ADD PUSH3 0x495 JUMP JUMPDEST PUSH1 0x1 PUSH1 0x1 PUSH1 0xA0 SHL SUB DUP3 AND PUSH3 0xC28 JUMPI PUSH1 0x40 MLOAD PUSH3 0x461BCD PUSH1 0xE5 SHL DUP2 MSTORE PUSH1 0x20 PUSH1 0x4 DUP3 ADD MSTORE PUSH1 0x24 DUP1 DUP3 ADD MSTORE PUSH32 0x4552433732313A207472616E7366657220746F20746865207A65726F20616464 PUSH1 0x44 DUP3 ADD MSTORE PUSH4 0x72657373 PUSH1 0xE0 SHL PUSH1 0x64 DUP3 ADD MSTORE PUSH1 0x84 ADD PUSH3 0x495 JUMP JUMPDEST PUSH3 0xC35 DUP4 DUP4 DUP4 PUSH3 0xF6A JUMP JUMPDEST PUSH3 0xC42 PUSH1 0x0 DUP3 PUSH3 0xA38 JUMP JUMPDEST PUSH1 0x1 PUSH1 0x1 PUSH1 0xA0 SHL SUB DUP4 AND PUSH1 0x0 SWAP1 DUP2 MSTORE PUSH1 0x3 PUSH1 0x20 MSTORE PUSH1 0x40 DUP2 KECCAK256 DUP1 SLOAD PUSH1 0x1 SWAP3 SWAP1 PUSH3 0xC6D SWAP1 DUP5 SWAP1 PUSH3 0x198F JUMP JUMPDEST SWAP1 SWAP2 SSTORE POP POP PUSH1 0x1 PUSH1 0x1 PUSH1 0xA0 SHL SUB DUP3 AND PUSH1 0x0 SWAP1 DUP2 MSTORE PUSH1 0x3 PUSH1 0x20 MSTORE PUSH1 0x40 DUP2 KECCAK256 DUP1 SLOAD PUSH1 0x1 SWAP3 SWAP1 PUSH3 0xC9D SWAP1 DUP5 SWAP1 PUSH3 0x195D JUMP JUMPDEST SWAP1 SWAP2 SSTORE POP POP PUSH1 0x0 DUP2 DUP2 MSTORE PUSH1 0x2 PUSH1 0x20 MSTORE PUSH1 0x40 DUP1 DUP3 KECCAK256 DUP1 SLOAD PUSH1 0x1 PUSH1 0x1 PUSH1 0xA0 SHL SUB NOT AND PUSH1 0x1 PUSH1 0x1 PUSH1 0xA0 SHL SUB DUP7 DUP2 AND SWAP2 DUP3 OR SWAP1 SWAP3 SSTORE SWAP2 MLOAD DUP5 SWAP4 SWAP2 DUP8 AND SWAP2 PUSH32 0xDDF252AD1BE2C89B69C2B068FC378DAA952BA7F163C4A11628F55A4DF523B3EF SWAP2 LOG4 POP POP POP JUMP JUMPDEST DUP2 PUSH1 0x1 PUSH1 0x1 PUSH1 0xA0 SHL SUB AND DUP4 PUSH1 0x1 PUSH1 0x1 PUSH1 0xA0 SHL SUB AND EQ ISZERO PUSH3 0xD62 JUMPI PUSH1 0x40 MLOAD PUSH3 0x461BCD PUSH1 0xE5 SHL DUP2 MSTORE PUSH1 0x20 PUSH1 0x4 DUP3 ADD MSTORE PUSH1 0x19 PUSH1 0x24 DUP3 ADD MSTORE PUSH32 0x4552433732313A20617070726F766520746F2063616C6C657200000000000000 PUSH1 0x44 DUP3 ADD MSTORE PUSH1 0x64 ADD PUSH3 0x495 JUMP JUMPDEST PUSH1 0x1 PUSH1 0x1 PUSH1 0xA0 SHL SUB DUP4 DUP2 AND PUSH1 0x0 DUP2 DUP2 MSTORE PUSH1 0x5 PUSH1 0x20 SWAP1 DUP2 MSTORE PUSH1 0x40 DUP1 DUP4 KECCAK256 SWAP5 DUP8 AND DUP1 DUP5 MSTORE SWAP5 DUP3 MSTORE SWAP2 DUP3 SWAP1 KECCAK256 DUP1 SLOAD PUSH1 0xFF NOT AND DUP7 ISZERO ISZERO SWAP1 DUP2 OR SWAP1 SWAP2 SSTORE SWAP2 MLOAD SWAP2 DUP3 MSTORE PUSH32 0x17307EAB39AB6107E8899845AD3D59BD9653F200F220920489CA2B5937696C31 SWAP2 ADD PUSH1 0x40 MLOAD DUP1 SWAP2 SUB SWAP1 LOG3 POP POP POP JUMP JUMPDEST PUSH3 0xDDC DUP5 DUP5 DUP5 PUSH3 0xB49 JUMP JUMPDEST PUSH3 0xDEA DUP5 DUP5 DUP5 DUP5 PUSH3 0x102E JUMP JUMPDEST PUSH3 0x90A JUMPI PUSH1 0x40 MLOAD PUSH3 0x461BCD PUSH1 0xE5 SHL DUP2 MSTORE PUSH1 0x4 ADD PUSH3 0x495 SWAP1 PUSH3 0x1870 JUMP JUMPDEST PUSH1 0x60 PUSH1 0xA DUP1 SLOAD PUSH3 0x36B SWAP1 PUSH3 0x19D8 JUMP JUMPDEST PUSH1 0x60 DUP2 PUSH3 0xE3F JUMPI POP POP PUSH1 0x40 DUP1 MLOAD DUP1 DUP3 ADD SWAP1 SWAP2 MSTORE PUSH1 0x1 DUP2 MSTORE PUSH1 0x3 PUSH1 0xFC SHL PUSH1 0x20 DUP3 ADD MSTORE SWAP1 JUMP JUMPDEST DUP2 PUSH1 0x0 JUMPDEST DUP2 ISZERO PUSH3 0xE6F JUMPI DUP1 PUSH3 0xE56 DUP2 PUSH3 0x1A15 JUMP JUMPDEST SWAP2 POP PUSH3 0xE67 SWAP1 POP PUSH1 0xA DUP4 PUSH3 0x1978 JUMP JUMPDEST SWAP2 POP PUSH3 0xE43 JUMP JUMPDEST PUSH1 0x0 DUP2 PUSH8 0xFFFFFFFFFFFFFFFF DUP2 GT ISZERO PUSH3 0xE8D JUMPI PUSH3 0xE8D PUSH3 0x1AA2 JUMP JUMPDEST PUSH1 0x40 MLOAD SWAP1 DUP1 DUP3 MSTORE DUP1 PUSH1 0x1F ADD PUSH1 0x1F NOT AND PUSH1 0x20 ADD DUP3 ADD PUSH1 0x40 MSTORE DUP1 ISZERO PUSH3 0xEB8 JUMPI PUSH1 0x20 DUP3 ADD DUP2 DUP1 CALLDATASIZE DUP4 CALLDATACOPY ADD SWAP1 POP JUMPDEST POP SWAP1 POP JUMPDEST DUP5 ISZERO PUSH3 0xB41 JUMPI PUSH3 0xED0 PUSH1 0x1 DUP4 PUSH3 0x198F JUMP JUMPDEST SWAP2 POP PUSH3 0xEDF PUSH1 0xA DUP7 PUSH3 0x1A33 JUMP JUMPDEST PUSH3 0xEEC SWAP1 PUSH1 0x30 PUSH3 0x195D JUMP JUMPDEST PUSH1 0xF8 SHL DUP2 DUP4 DUP2 MLOAD DUP2 LT PUSH3 0xF04 JUMPI PUSH3 0xF04 PUSH3 0x1A8C JUMP JUMPDEST PUSH1 0x20 ADD ADD SWAP1 PUSH1 0x1 PUSH1 0x1 PUSH1 0xF8 SHL SUB NOT AND SWAP1 DUP2 PUSH1 0x0 BYTE SWAP1 MSTORE8 POP PUSH3 0xF28 PUSH1 0xA DUP7 PUSH3 0x1978 JUMP JUMPDEST SWAP5 POP PUSH3 0xEBC JUMP JUMPDEST PUSH3 0xF3C DUP4 DUP4 PUSH3 0x1149 JUMP JUMPDEST PUSH3 0xF4B PUSH1 0x0 DUP5 DUP5 DUP5 PUSH3 0x102E JUMP JUMPDEST PUSH3 0x53D JUMPI PUSH1 0x40 MLOAD PUSH3 0x461BCD PUSH1 0xE5 SHL DUP2 MSTORE PUSH1 0x4 ADD PUSH3 0x495 SWAP1 PUSH3 0x1870 JUMP JUMPDEST PUSH1 0x1 PUSH1 0x1 PUSH1 0xA0 SHL SUB DUP4 AND PUSH3 0xFC8 JUMPI PUSH3 0xFC2 DUP2 PUSH1 0x8 DUP1 SLOAD PUSH1 0x0 DUP4 DUP2 MSTORE PUSH1 0x9 PUSH1 0x20 MSTORE PUSH1 0x40 DUP2 KECCAK256 DUP3 SWAP1 SSTORE PUSH1 0x1 DUP3 ADD DUP4 SSTORE SWAP2 SWAP1 SWAP2 MSTORE PUSH32 0xF3F7A9FE364FAAB93B216DA50A3214154F22A0A2B415B23A84C8169E8B636EE3 ADD SSTORE JUMP JUMPDEST PUSH3 0xFEE JUMP JUMPDEST DUP2 PUSH1 0x1 PUSH1 0x1 PUSH1 0xA0 SHL SUB AND DUP4 PUSH1 0x1 PUSH1 0x1 PUSH1 0xA0 SHL SUB AND EQ PUSH3 0xFEE JUMPI PUSH3 0xFEE DUP4 DUP3 PUSH3 0x129F JUMP JUMPDEST PUSH1 0x1 PUSH1 0x1 PUSH1 0xA0 SHL SUB DUP3 AND PUSH3 0x1008 JUMPI PUSH3 0x53D DUP2 PUSH3 0x1341 JUMP JUMPDEST DUP3 PUSH1 0x1 PUSH1 0x1 PUSH1 0xA0 SHL SUB AND DUP3 PUSH1 0x1 PUSH1 0x1 PUSH1 0xA0 SHL SUB AND EQ PUSH3 0x53D JUMPI PUSH3 0x53D DUP3 DUP3 PUSH3 0x13FB JUMP JUMPDEST PUSH1 0x0 PUSH1 0x1 PUSH1 0x1 PUSH1 0xA0 SHL SUB DUP5 AND EXTCODESIZE ISZERO PUSH3 0x113E JUMPI PUSH1 0x40 MLOAD PUSH4 0xA85BD01 PUSH1 0xE1 SHL DUP2 MSTORE PUSH1 0x1 PUSH1 0x1 PUSH1 0xA0 SHL SUB DUP6 AND SWAP1 PUSH4 0x150B7A02 SWAP1 PUSH3 0x1075 SWAP1 CALLER SWAP1 DUP10 SWAP1 DUP9 SWAP1 DUP9 SWAP1 PUSH1 0x4 ADD PUSH3 0x181C JUMP JUMPDEST PUSH1 0x20 PUSH1 0x40 MLOAD DUP1 DUP4 SUB DUP2 PUSH1 0x0 DUP8 DUP1 EXTCODESIZE ISZERO DUP1 ISZERO PUSH3 0x1090 JUMPI PUSH1 0x0 DUP1 REVERT JUMPDEST POP GAS CALL SWAP3 POP POP POP DUP1 ISZERO PUSH3 0x10C3 JUMPI POP PUSH1 0x40 DUP1 MLOAD PUSH1 0x1F RETURNDATASIZE SWAP1 DUP2 ADD PUSH1 0x1F NOT AND DUP3 ADD SWAP1 SWAP3 MSTORE PUSH3 0x10C0 SWAP2 DUP2 ADD SWAP1 PUSH3 0x16C6 JUMP JUMPDEST PUSH1 0x1 JUMPDEST PUSH3 0x1123 JUMPI RETURNDATASIZE DUP1 DUP1 ISZERO PUSH3 0x10F4 JUMPI PUSH1 0x40 MLOAD SWAP2 POP PUSH1 0x1F NOT PUSH1 0x3F RETURNDATASIZE ADD AND DUP3 ADD PUSH1 0x40 MSTORE RETURNDATASIZE DUP3 MSTORE RETURNDATASIZE PUSH1 0x0 PUSH1 0x20 DUP5 ADD RETURNDATACOPY PUSH3 0x10F9 JUMP JUMPDEST PUSH1 0x60 SWAP2 POP JUMPDEST POP DUP1 MLOAD PUSH3 0x111B JUMPI PUSH1 0x40 MLOAD PUSH3 0x461BCD PUSH1 0xE5 SHL DUP2 MSTORE PUSH1 0x4 ADD PUSH3 0x495 SWAP1 PUSH3 0x1870 JUMP JUMPDEST DUP1 MLOAD DUP2 PUSH1 0x20 ADD REVERT JUMPDEST PUSH1 0x1 PUSH1 0x1 PUSH1 0xE0 SHL SUB NOT AND PUSH4 0xA85BD01 PUSH1 0xE1 SHL EQ SWAP1 POP PUSH3 0xB41 JUMP JUMPDEST POP PUSH1 0x1 SWAP5 SWAP4 POP POP POP POP JUMP JUMPDEST PUSH1 0x1 PUSH1 0x1 PUSH1 0xA0 SHL SUB DUP3 AND PUSH3 0x11A1 JUMPI PUSH1 0x40 MLOAD PUSH3 0x461BCD PUSH1 0xE5 SHL DUP2 MSTORE PUSH1 0x20 PUSH1 0x4 DUP3 ADD DUP2 SWAP1 MSTORE PUSH1 0x24 DUP3 ADD MSTORE PUSH32 0x4552433732313A206D696E7420746F20746865207A65726F2061646472657373 PUSH1 0x44 DUP3 ADD MSTORE PUSH1 0x64 ADD PUSH3 0x495 JUMP JUMPDEST PUSH1 0x0 DUP2 DUP2 MSTORE PUSH1 0x2 PUSH1 0x20 MSTORE PUSH1 0x40 SWAP1 KECCAK256 SLOAD PUSH1 0x1 PUSH1 0x1 PUSH1 0xA0 SHL SUB AND ISZERO PUSH3 0x1208 JUMPI PUSH1 0x40 MLOAD PUSH3 0x461BCD PUSH1 0xE5 SHL DUP2 MSTORE PUSH1 0x20 PUSH1 0x4 DUP3 ADD MSTORE PUSH1 0x1C PUSH1 0x24 DUP3 ADD MSTORE PUSH32 0x4552433732313A20746F6B656E20616C7265616479206D696E74656400000000 PUSH1 0x44 DUP3 ADD MSTORE PUSH1 0x64 ADD PUSH3 0x495 JUMP JUMPDEST PUSH3 0x1216 PUSH1 0x0 DUP4 DUP4 PUSH3 0xF6A JUMP JUMPDEST PUSH1 0x1 PUSH1 0x1 PUSH1 0xA0 SHL SUB DUP3 AND PUSH1 0x0 SWAP1 DUP2 MSTORE PUSH1 0x3 PUSH1 0x20 MSTORE PUSH1 0x40 DUP2 KECCAK256 DUP1 SLOAD PUSH1 0x1 SWAP3 SWAP1 PUSH3 0x1241 SWAP1 DUP5 SWAP1 PUSH3 0x195D JUMP JUMPDEST SWAP1 SWAP2 SSTORE POP POP PUSH1 0x0 DUP2 DUP2 MSTORE PUSH1 0x2 PUSH1 0x20 MSTORE PUSH1 0x40 DUP1 DUP3 KECCAK256 DUP1 SLOAD PUSH1 0x1 PUSH1 0x1 PUSH1 0xA0 SHL SUB NOT AND PUSH1 0x1 PUSH1 0x1 PUSH1 0xA0 SHL SUB DUP7 AND SWAP1 DUP2 OR SWAP1 SWAP2 SSTORE SWAP1 MLOAD DUP4 SWAP3 SWAP1 PUSH32 0xDDF252AD1BE2C89B69C2B068FC378DAA952BA7F163C4A11628F55A4DF523B3EF SWAP1 DUP3 SWAP1 LOG4 POP POP JUMP JUMPDEST PUSH1 0x0 PUSH1 0x1 PUSH3 0x12AE DUP5 PUSH3 0x827 JUMP JUMPDEST PUSH3 0x12BA SWAP2 SWAP1 PUSH3 0x198F JUMP JUMPDEST PUSH1 0x0 DUP4 DUP2 MSTORE PUSH1 0x7 PUSH1 0x20 MSTORE PUSH1 0x40 SWAP1 KECCAK256 SLOAD SWAP1 SWAP2 POP DUP1 DUP3 EQ PUSH3 0x130E JUMPI PUSH1 0x1 PUSH1 0x1 PUSH1 0xA0 SHL SUB DUP5 AND PUSH1 0x0 SWAP1 DUP2 MSTORE PUSH1 0x6 PUSH1 0x20 SWAP1 DUP2 MSTORE PUSH1 0x40 DUP1 DUP4 KECCAK256 DUP6 DUP5 MSTORE DUP3 MSTORE DUP1 DUP4 KECCAK256 SLOAD DUP5 DUP5 MSTORE DUP2 DUP5 KECCAK256 DUP2 SWAP1 SSTORE DUP4 MSTORE PUSH1 0x7 SWAP1 SWAP2 MSTORE SWAP1 KECCAK256 DUP2 SWAP1 SSTORE JUMPDEST POP PUSH1 0x0 SWAP2 DUP3 MSTORE PUSH1 0x7 PUSH1 0x20 SWAP1 DUP2 MSTORE PUSH1 0x40 DUP1 DUP5 KECCAK256 DUP5 SWAP1 SSTORE PUSH1 0x1 PUSH1 0x1 PUSH1 0xA0 SHL SUB SWAP1 SWAP5 AND DUP4 MSTORE PUSH1 0x6 DUP2 MSTORE DUP4 DUP4 KECCAK256 SWAP2 DUP4 MSTORE MSTORE SWAP1 DUP2 KECCAK256 SSTORE JUMP JUMPDEST PUSH1 0x8 SLOAD PUSH1 0x0 SWAP1 PUSH3 0x1355 SWAP1 PUSH1 0x1 SWAP1 PUSH3 0x198F JUMP JUMPDEST PUSH1 0x0 DUP4 DUP2 MSTORE PUSH1 0x9 PUSH1 0x20 MSTORE PUSH1 0x40 DUP2 KECCAK256 SLOAD PUSH1 0x8 DUP1 SLOAD SWAP4 SWAP5 POP SWAP1 SWAP3 DUP5 SWAP1 DUP2 LT PUSH3 0x1380 JUMPI PUSH3 0x1380 PUSH3 0x1A8C JUMP JUMPDEST SWAP1 PUSH1 0x0 MSTORE PUSH1 0x20 PUSH1 0x0 KECCAK256 ADD SLOAD SWAP1 POP DUP1 PUSH1 0x8 DUP4 DUP2 SLOAD DUP2 LT PUSH3 0x13A4 JUMPI PUSH3 0x13A4 PUSH3 0x1A8C JUMP JUMPDEST PUSH1 0x0 SWAP2 DUP3 MSTORE PUSH1 0x20 DUP1 DUP4 KECCAK256 SWAP1 SWAP2 ADD SWAP3 SWAP1 SWAP3 SSTORE DUP3 DUP2 MSTORE PUSH1 0x9 SWAP1 SWAP2 MSTORE PUSH1 0x40 DUP1 DUP3 KECCAK256 DUP5 SWAP1 SSTORE DUP6 DUP3 MSTORE DUP2 KECCAK256 SSTORE PUSH1 0x8 DUP1 SLOAD DUP1 PUSH3 0x13DF JUMPI PUSH3 0x13DF PUSH3 0x1A76 JUMP JUMPDEST PUSH1 0x1 SWAP1 SUB DUP2 DUP2 SWAP1 PUSH1 0x0 MSTORE PUSH1 0x20 PUSH1 0x0 KECCAK256 ADD PUSH1 0x0 SWAP1 SSTORE SWAP1 SSTORE POP POP POP POP JUMP JUMPDEST PUSH1 0x0 PUSH3 0x1408 DUP4 PUSH3 0x827 JUMP JUMPDEST PUSH1 0x1 PUSH1 0x1 PUSH1 0xA0 SHL SUB SWAP1 SWAP4 AND PUSH1 0x0 SWAP1 DUP2 MSTORE PUSH1 0x6 PUSH1 0x20 SWAP1 DUP2 MSTORE PUSH1 0x40 DUP1 DUP4 KECCAK256 DUP7 DUP5 MSTORE DUP3 MSTORE DUP1 DUP4 KECCAK256 DUP6 SWAP1 SSTORE SWAP4 DUP3 MSTORE PUSH1 0x7 SWAP1 MSTORE SWAP2 SWAP1 SWAP2 KECCAK256 SWAP2 SWAP1 SWAP2 SSTORE POP JUMP JUMPDEST PUSH2 0x1228 DUP1 PUSH3 0x1AD0 DUP4 CODECOPY ADD SWAP1 JUMP JUMPDEST DUP1 CALLDATALOAD PUSH1 0x1 PUSH1 0x1 PUSH1 0xA0 SHL SUB DUP2 AND DUP2 EQ PUSH3 0x1467 JUMPI PUSH1 0x0 DUP1 REVERT JUMPDEST SWAP2 SWAP1 POP JUMP JUMPDEST PUSH1 0x0 DUP1 DUP4 PUSH1 0x1F DUP5 ADD SLT PUSH3 0x147F JUMPI PUSH1 0x0 DUP1 REVERT JUMPDEST POP DUP2 CALLDATALOAD PUSH8 0xFFFFFFFFFFFFFFFF DUP2 GT ISZERO PUSH3 0x1498 JUMPI PUSH1 0x0 DUP1 REVERT JUMPDEST PUSH1 0x20 DUP4 ADD SWAP2 POP DUP4 PUSH1 0x20 DUP3 DUP6 ADD ADD GT ISZERO PUSH3 0x14B1 JUMPI PUSH1 0x0 DUP1 REVERT JUMPDEST SWAP3 POP SWAP3 SWAP1 POP JUMP JUMPDEST PUSH1 0x0 PUSH1 0x20 DUP3 DUP5 SUB SLT ISZERO PUSH3 0x14CB JUMPI PUSH1 0x0 DUP1 REVERT JUMPDEST PUSH3 0x97A DUP3 PUSH3 0x144F JUMP JUMPDEST PUSH1 0x0 DUP1 PUSH1 0x40 DUP4 DUP6 SUB SLT ISZERO PUSH3 0x14EA JUMPI PUSH1 0x0 DUP1 REVERT JUMPDEST PUSH3 0x14F5 DUP4 PUSH3 0x144F JUMP JUMPDEST SWAP2 POP PUSH3 0x1505 PUSH1 0x20 DUP5 ADD PUSH3 0x144F JUMP JUMPDEST SWAP1 POP SWAP3 POP SWAP3 SWAP1 POP JUMP JUMPDEST PUSH1 0x0 DUP1 PUSH1 0x0 PUSH1 0x60 DUP5 DUP7 SUB SLT ISZERO PUSH3 0x1524 JUMPI PUSH1 0x0 DUP1 REVERT JUMPDEST PUSH3 0x152F DUP5 PUSH3 0x144F JUMP JUMPDEST SWAP3 POP PUSH3 0x153F PUSH1 0x20 DUP6 ADD PUSH3 0x144F JUMP JUMPDEST SWAP2 POP PUSH1 0x40 DUP5 ADD CALLDATALOAD SWAP1 POP SWAP3 POP SWAP3 POP SWAP3 JUMP JUMPDEST PUSH1 0x0 DUP1 PUSH1 0x0 DUP1 PUSH1 0x80 DUP6 DUP8 SUB SLT ISZERO PUSH3 0x1566 JUMPI PUSH1 0x0 DUP1 REVERT JUMPDEST PUSH3 0x1571 DUP6 PUSH3 0x144F JUMP JUMPDEST SWAP4 POP PUSH3 0x1581 PUSH1 0x20 DUP7 ADD PUSH3 0x144F JUMP JUMPDEST SWAP3 POP PUSH1 0x40 DUP6 ADD CALLDATALOAD SWAP2 POP PUSH1 0x60 DUP6 ADD CALLDATALOAD PUSH8 0xFFFFFFFFFFFFFFFF DUP1 DUP3 GT ISZERO PUSH3 0x15A6 JUMPI PUSH1 0x0 DUP1 REVERT JUMPDEST DUP2 DUP8 ADD SWAP2 POP DUP8 PUSH1 0x1F DUP4 ADD SLT PUSH3 0x15BB JUMPI PUSH1 0x0 DUP1 REVERT JUMPDEST DUP2 CALLDATALOAD DUP2 DUP2 GT ISZERO PUSH3 0x15D0 JUMPI PUSH3 0x15D0 PUSH3 0x1AA2 JUMP JUMPDEST PUSH1 0x40 MLOAD PUSH1 0x1F DUP3 ADD PUSH1 0x1F NOT SWAP1 DUP2 AND PUSH1 0x3F ADD AND DUP2 ADD SWAP1 DUP4 DUP3 GT DUP2 DUP4 LT OR ISZERO PUSH3 0x15FB JUMPI PUSH3 0x15FB PUSH3 0x1AA2 JUMP JUMPDEST DUP2 PUSH1 0x40 MSTORE DUP3 DUP2 MSTORE DUP11 PUSH1 0x20 DUP5 DUP8 ADD ADD GT ISZERO PUSH3 0x1615 JUMPI PUSH1 0x0 DUP1 REVERT JUMPDEST DUP3 PUSH1 0x20 DUP7 ADD PUSH1 0x20 DUP4 ADD CALLDATACOPY PUSH1 0x0 PUSH1 0x20 DUP5 DUP4 ADD ADD MSTORE DUP1 SWAP6 POP POP POP POP POP POP SWAP3 SWAP6 SWAP2 SWAP5 POP SWAP3 POP JUMP JUMPDEST PUSH1 0x0 DUP1 PUSH1 0x40 DUP4 DUP6 SUB SLT ISZERO PUSH3 0x164D JUMPI PUSH1 0x0 DUP1 REVERT JUMPDEST PUSH3 0x1658 DUP4 PUSH3 0x144F JUMP JUMPDEST SWAP2 POP PUSH1 0x20 DUP4 ADD CALLDATALOAD DUP1 ISZERO ISZERO DUP2 EQ PUSH3 0x166E JUMPI PUSH1 0x0 DUP1 REVERT JUMPDEST DUP1 SWAP2 POP POP SWAP3 POP SWAP3 SWAP1 POP JUMP JUMPDEST PUSH1 0x0 DUP1 PUSH1 0x40 DUP4 DUP6 SUB SLT ISZERO PUSH3 0x168D JUMPI PUSH1 0x0 DUP1 REVERT JUMPDEST PUSH3 0x1698 DUP4 PUSH3 0x144F JUMP JUMPDEST SWAP5 PUSH1 0x20 SWAP4 SWAP1 SWAP4 ADD CALLDATALOAD SWAP4 POP POP POP JUMP JUMPDEST PUSH1 0x0 PUSH1 0x20 DUP3 DUP5 SUB SLT ISZERO PUSH3 0x16B9 JUMPI PUSH1 0x0 DUP1 REVERT JUMPDEST DUP2 CALLDATALOAD PUSH3 0x97A DUP2 PUSH3 0x1AB8 JUMP JUMPDEST PUSH1 0x0 PUSH1 0x20 DUP3 DUP5 SUB SLT ISZERO PUSH3 0x16D9 JUMPI PUSH1 0x0 DUP1 REVERT JUMPDEST DUP2 MLOAD PUSH3 0x97A DUP2 PUSH3 0x1AB8 JUMP JUMPDEST PUSH1 0x0 PUSH1 0x20 DUP3 DUP5 SUB SLT ISZERO PUSH3 0x16F9 JUMPI PUSH1 0x0 DUP1 REVERT JUMPDEST POP CALLDATALOAD SWAP2 SWAP1 POP JUMP JUMPDEST PUSH1 0x0 DUP1 PUSH1 0x0 DUP1 PUSH1 0x0 DUP1 PUSH1 0x80 DUP8 DUP10 SUB SLT ISZERO PUSH3 0x171A JUMPI PUSH1 0x0 DUP1 REVERT JUMPDEST DUP7 CALLDATALOAD SWAP6 POP PUSH1 0x20 DUP8 ADD CALLDATALOAD PUSH8 0xFFFFFFFFFFFFFFFF DUP1 DUP3 GT ISZERO PUSH3 0x173A JUMPI PUSH1 0x0 DUP1 REVERT JUMPDEST PUSH3 0x1748 DUP11 DUP4 DUP12 ADD PUSH3 0x146C JUMP JUMPDEST SWAP1 SWAP8 POP SWAP6 POP PUSH1 0x40 DUP10 ADD CALLDATALOAD SWAP2 POP DUP1 DUP3 GT ISZERO PUSH3 0x1762 JUMPI PUSH1 0x0 DUP1 REVERT JUMPDEST POP PUSH3 0x1771 DUP10 DUP3 DUP11 ADD PUSH3 0x146C JUMP JUMPDEST SWAP1 SWAP5 POP SWAP3 POP PUSH3 0x1786 SWAP1 POP PUSH1 0x60 DUP9 ADD PUSH3 0x144F JUMP JUMPDEST SWAP1 POP SWAP3 SWAP6 POP SWAP3 SWAP6 POP SWAP3 SWAP6 JUMP JUMPDEST PUSH1 0x0 DUP2 MLOAD DUP1 DUP5 MSTORE PUSH3 0x17AC DUP2 PUSH1 0x20 DUP7 ADD PUSH1 0x20 DUP7 ADD PUSH3 0x19A9 JUMP JUMPDEST PUSH1 0x1F ADD PUSH1 0x1F NOT AND SWAP3 SWAP1 SWAP3 ADD PUSH1 0x20 ADD SWAP3 SWAP2 POP POP JUMP JUMPDEST DUP2 DUP4 MSTORE DUP2 DUP2 PUSH1 0x20 DUP6 ADD CALLDATACOPY POP PUSH1 0x0 DUP3 DUP3 ADD PUSH1 0x20 SWAP1 DUP2 ADD SWAP2 SWAP1 SWAP2 MSTORE PUSH1 0x1F SWAP1 SWAP2 ADD PUSH1 0x1F NOT AND SWAP1 SWAP2 ADD ADD SWAP1 JUMP JUMPDEST PUSH1 0x0 DUP4 MLOAD PUSH3 0x17FD DUP2 DUP5 PUSH1 0x20 DUP9 ADD PUSH3 0x19A9 JUMP JUMPDEST DUP4 MLOAD SWAP1 DUP4 ADD SWAP1 PUSH3 0x1813 DUP2 DUP4 PUSH1 0x20 DUP9 ADD PUSH3 0x19A9 JUMP JUMPDEST ADD SWAP5 SWAP4 POP POP POP POP JUMP JUMPDEST PUSH1 0x1 PUSH1 0x1 PUSH1 0xA0 SHL SUB DUP6 DUP2 AND DUP3 MSTORE DUP5 AND PUSH1 0x20 DUP3 ADD MSTORE PUSH1 0x40 DUP2 ADD DUP4 SWAP1 MSTORE PUSH1 0x80 PUSH1 0x60 DUP3 ADD DUP2 SWAP1 MSTORE PUSH1 0x0 SWAP1 PUSH3 0x1851 SWAP1 DUP4 ADD DUP5 PUSH3 0x1792 JUMP JUMPDEST SWAP7 SWAP6 POP POP POP POP POP POP JUMP JUMPDEST PUSH1 0x20 DUP2 MSTORE PUSH1 0x0 PUSH3 0x97A PUSH1 0x20 DUP4 ADD DUP5 PUSH3 0x1792 JUMP JUMPDEST PUSH1 0x20 DUP1 DUP3 MSTORE PUSH1 0x32 SWAP1 DUP3 ADD MSTORE PUSH32 0x4552433732313A207472616E7366657220746F206E6F6E204552433732315265 PUSH1 0x40 DUP3 ADD MSTORE PUSH18 0x31B2B4BB32B91034B6B83632B6B2B73A32B9 PUSH1 0x71 SHL PUSH1 0x60 DUP3 ADD MSTORE PUSH1 0x80 ADD SWAP1 JUMP JUMPDEST PUSH1 0x20 DUP1 DUP3 MSTORE PUSH1 0x2E SWAP1 DUP3 ADD MSTORE PUSH32 0x4552433732313A2063616C6C6572206973206E6F7420746F6B656E206F776E65 PUSH1 0x40 DUP3 ADD MSTORE PUSH14 0x1C881B9BDC88185C1C1C9BDD9959 PUSH1 0x92 SHL PUSH1 0x60 DUP3 ADD MSTORE PUSH1 0x80 ADD SWAP1 JUMP JUMPDEST DUP7 DUP2 MSTORE PUSH1 0x80 PUSH1 0x20 DUP3 ADD MSTORE PUSH1 0x0 PUSH3 0x192C PUSH1 0x80 DUP4 ADD DUP8 DUP10 PUSH3 0x17C0 JUMP JUMPDEST DUP3 DUP2 SUB PUSH1 0x40 DUP5 ADD MSTORE PUSH3 0x1941 DUP2 DUP7 DUP9 PUSH3 0x17C0 JUMP JUMPDEST SWAP2 POP POP PUSH1 0x1 DUP1 PUSH1 0xA0 SHL SUB DUP4 AND PUSH1 0x60 DUP4 ADD MSTORE SWAP8 SWAP7 POP POP POP POP POP POP POP JUMP JUMPDEST PUSH1 0x0 DUP3 NOT DUP3 GT ISZERO PUSH3 0x1973 JUMPI PUSH3 0x1973 PUSH3 0x1A4A JUMP JUMPDEST POP ADD SWAP1 JUMP JUMPDEST PUSH1 0x0 DUP3 PUSH3 0x198A JUMPI PUSH3 0x198A PUSH3 0x1A60 JUMP JUMPDEST POP DIV SWAP1 JUMP JUMPDEST PUSH1 0x0 DUP3 DUP3 LT ISZERO PUSH3 0x19A4 JUMPI PUSH3 0x19A4 PUSH3 0x1A4A JUMP JUMPDEST POP SUB SWAP1 JUMP JUMPDEST PUSH1 0x0 JUMPDEST DUP4 DUP2 LT ISZERO PUSH3 0x19C6 JUMPI DUP2 DUP2 ADD MLOAD DUP4 DUP3 ADD MSTORE PUSH1 0x20 ADD PUSH3 0x19AC JUMP JUMPDEST DUP4 DUP2 GT ISZERO PUSH3 0x90A JUMPI POP POP PUSH1 0x0 SWAP2 ADD MSTORE JUMP JUMPDEST PUSH1 0x1 DUP2 DUP2 SHR SWAP1 DUP3 AND DUP1 PUSH3 0x19ED JUMPI PUSH1 0x7F DUP3 AND SWAP2 POP JUMPDEST PUSH1 0x20 DUP3 LT DUP2 EQ ISZERO PUSH3 0x1A0F JUMPI PUSH4 0x4E487B71 PUSH1 0xE0 SHL PUSH1 0x0 MSTORE PUSH1 0x22 PUSH1 0x4 MSTORE PUSH1 0x24 PUSH1 0x0 REVERT JUMPDEST POP SWAP2 SWAP1 POP JUMP JUMPDEST PUSH1 0x0 PUSH1 0x0 NOT DUP3 EQ ISZERO PUSH3 0x1A2C JUMPI PUSH3 0x1A2C PUSH3 0x1A4A JUMP JUMPDEST POP PUSH1 0x1 ADD SWAP1 JUMP JUMPDEST PUSH1 0x0 DUP3 PUSH3 0x1A45 JUMPI PUSH3 0x1A45 PUSH3 0x1A60 JUMP JUMPDEST POP MOD SWAP1 JUMP JUMPDEST PUSH4 0x4E487B71 PUSH1 0xE0 SHL PUSH1 0x0 MSTORE PUSH1 0x11 PUSH1 0x4 MSTORE PUSH1 0x24 PUSH1 0x0 REVERT JUMPDEST PUSH4 0x4E487B71 PUSH1 0xE0 SHL PUSH1 0x0 MSTORE PUSH1 0x12 PUSH1 0x4 MSTORE PUSH1 0x24 PUSH1 0x0 REVERT JUMPDEST PUSH4 0x4E487B71 PUSH1 0xE0 SHL PUSH1 0x0 MSTORE PUSH1 0x31 PUSH1 0x4 MSTORE PUSH1 0x24 PUSH1 0x0 REVERT JUMPDEST PUSH4 0x4E487B71 PUSH1 0xE0 SHL PUSH1 0x0 MSTORE PUSH1 0x32 PUSH1 0x4 MSTORE PUSH1 0x24 PUSH1 0x0 REVERT JUMPDEST PUSH4 0x4E487B71 PUSH1 0xE0 SHL PUSH1 0x0 MSTORE PUSH1 0x41 PUSH1 0x4 MSTORE PUSH1 0x24 PUSH1 0x0 REVERT JUMPDEST PUSH1 0x1 PUSH1 0x1 PUSH1 0xE0 SHL SUB NOT DUP2 AND DUP2 EQ PUSH3 0xA35 JUMPI PUSH1 0x0 DUP1 REVERT INVALID PUSH1 0xA0 PUSH1 0x40 MSTORE CALLVALUE DUP1 ISZERO PUSH3 0x11 JUMPI PUSH1 0x0 DUP1 REVERT JUMPDEST POP PUSH1 0x40 MLOAD PUSH3 0x1228 CODESIZE SUB DUP1 PUSH3 0x1228 DUP4 CODECOPY DUP2 ADD PUSH1 0x40 DUP2 SWAP1 MSTORE PUSH3 0x34 SWAP2 PUSH3 0x1F7 JUMP JUMPDEST DUP3 MLOAD DUP4 SWAP1 DUP4 SWAP1 PUSH3 0x4D SWAP1 PUSH1 0x3 SWAP1 PUSH1 0x20 DUP6 ADD SWAP1 PUSH3 0x9A JUMP JUMPDEST POP DUP1 MLOAD PUSH3 0x63 SWAP1 PUSH1 0x4 SWAP1 PUSH1 0x20 DUP5 ADD SWAP1 PUSH3 0x9A JUMP JUMPDEST POP POP POP PUSH1 0x6 SWAP4 SWAP1 SWAP4 SSTORE POP POP PUSH1 0x5 DUP1 SLOAD PUSH1 0x1 PUSH1 0x1 PUSH1 0xA0 SHL SUB NOT AND PUSH1 0x1 PUSH1 0x1 PUSH1 0xA0 SHL SUB SWAP1 SWAP3 AND SWAP2 SWAP1 SWAP2 OR SWAP1 SSTORE CALLER PUSH1 0x60 SHL PUSH1 0x80 MSTORE PUSH3 0x2E0 JUMP JUMPDEST DUP3 DUP1 SLOAD PUSH3 0xA8 SWAP1 PUSH3 0x28D JUMP JUMPDEST SWAP1 PUSH1 0x0 MSTORE PUSH1 0x20 PUSH1 0x0 KECCAK256 SWAP1 PUSH1 0x1F ADD PUSH1 0x20 SWAP1 DIV DUP2 ADD SWAP3 DUP3 PUSH3 0xCC JUMPI PUSH1 0x0 DUP6 SSTORE PUSH3 0x117 JUMP JUMPDEST DUP3 PUSH1 0x1F LT PUSH3 0xE7 JUMPI DUP1 MLOAD PUSH1 0xFF NOT AND DUP4 DUP1 ADD OR DUP6 SSTORE PUSH3 0x117 JUMP JUMPDEST DUP3 DUP1 ADD PUSH1 0x1 ADD DUP6 SSTORE DUP3 ISZERO PUSH3 0x117 JUMPI SWAP2 DUP3 ADD JUMPDEST DUP3 DUP2 GT ISZERO PUSH3 0x117 JUMPI DUP3 MLOAD DUP3 SSTORE SWAP2 PUSH1 0x20 ADD SWAP2 SWAP1 PUSH1 0x1 ADD SWAP1 PUSH3 0xFA JUMP JUMPDEST POP PUSH3 0x125 SWAP3 SWAP2 POP PUSH3 0x129 JUMP JUMPDEST POP SWAP1 JUMP JUMPDEST JUMPDEST DUP1 DUP3 GT ISZERO PUSH3 0x125 JUMPI PUSH1 0x0 DUP2 SSTORE PUSH1 0x1 ADD PUSH3 0x12A JUMP JUMPDEST PUSH1 0x0 DUP3 PUSH1 0x1F DUP4 ADD SLT PUSH3 0x152 JUMPI PUSH1 0x0 DUP1 REVERT JUMPDEST DUP2 MLOAD PUSH1 0x1 PUSH1 0x1 PUSH1 0x40 SHL SUB DUP1 DUP3 GT ISZERO PUSH3 0x16F JUMPI PUSH3 0x16F PUSH3 0x2CA JUMP JUMPDEST PUSH1 0x40 MLOAD PUSH1 0x1F DUP4 ADD PUSH1 0x1F NOT SWAP1 DUP2 AND PUSH1 0x3F ADD AND DUP2 ADD SWAP1 DUP3 DUP3 GT DUP2 DUP4 LT OR ISZERO PUSH3 0x19A JUMPI PUSH3 0x19A PUSH3 0x2CA JUMP JUMPDEST DUP2 PUSH1 0x40 MSTORE DUP4 DUP2 MSTORE PUSH1 0x20 SWAP3 POP DUP7 DUP4 DUP6 DUP9 ADD ADD GT ISZERO PUSH3 0x1B7 JUMPI PUSH1 0x0 DUP1 REVERT JUMPDEST PUSH1 0x0 SWAP2 POP JUMPDEST DUP4 DUP3 LT ISZERO PUSH3 0x1DB JUMPI DUP6 DUP3 ADD DUP4 ADD MLOAD DUP2 DUP4 ADD DUP5 ADD MSTORE SWAP1 DUP3 ADD SWAP1 PUSH3 0x1BC JUMP JUMPDEST DUP4 DUP3 GT ISZERO PUSH3 0x1ED JUMPI PUSH1 0x0 DUP4 DUP6 DUP4 ADD ADD MSTORE JUMPDEST SWAP7 SWAP6 POP POP POP POP POP POP JUMP JUMPDEST PUSH1 0x0 DUP1 PUSH1 0x0 DUP1 PUSH1 0x80 DUP6 DUP8 SUB SLT ISZERO PUSH3 0x20E JUMPI PUSH1 0x0 DUP1 REVERT JUMPDEST DUP5 MLOAD PUSH1 0x20 DUP7 ADD MLOAD SWAP1 SWAP5 POP PUSH1 0x1 PUSH1 0x1 PUSH1 0x40 SHL SUB DUP1 DUP3 GT ISZERO PUSH3 0x22E JUMPI PUSH1 0x0 DUP1 REVERT JUMPDEST PUSH3 0x23C DUP9 DUP4 DUP10 ADD PUSH3 0x140 JUMP JUMPDEST SWAP5 POP PUSH1 0x40 DUP8 ADD MLOAD SWAP2 POP DUP1 DUP3 GT ISZERO PUSH3 0x253 JUMPI PUSH1 0x0 DUP1 REVERT JUMPDEST POP PUSH3 0x262 DUP8 DUP3 DUP9 ADD PUSH3 0x140 JUMP JUMPDEST PUSH1 0x60 DUP8 ADD MLOAD SWAP1 SWAP4 POP SWAP1 POP PUSH1 0x1 PUSH1 0x1 PUSH1 0xA0 SHL SUB DUP2 AND DUP2 EQ PUSH3 0x282 JUMPI PUSH1 0x0 DUP1 REVERT JUMPDEST SWAP4 SWAP7 SWAP3 SWAP6 POP SWAP1 SWAP4 POP POP JUMP JUMPDEST PUSH1 0x1 DUP2 DUP2 SHR SWAP1 DUP3 AND DUP1 PUSH3 0x2A2 JUMPI PUSH1 0x7F DUP3 AND SWAP2 POP JUMPDEST PUSH1 0x20 DUP3 LT DUP2 EQ ISZERO PUSH3 0x2C4 JUMPI PUSH4 0x4E487B71 PUSH1 0xE0 SHL PUSH1 0x0 MSTORE PUSH1 0x22 PUSH1 0x4 MSTORE PUSH1 0x24 PUSH1 0x0 REVERT JUMPDEST POP SWAP2 SWAP1 POP JUMP JUMPDEST PUSH4 0x4E487B71 PUSH1 0xE0 SHL PUSH1 0x0 MSTORE PUSH1 0x41 PUSH1 0x4 MSTORE PUSH1 0x24 PUSH1 0x0 REVERT JUMPDEST PUSH1 0x80 MLOAD PUSH1 0x60 SHR PUSH2 0xF22 PUSH3 0x306 PUSH1 0x0 CODECOPY PUSH1 0x0 DUP2 DUP2 PUSH2 0x1E3 ADD MSTORE PUSH2 0x568 ADD MSTORE PUSH2 0xF22 PUSH1 0x0 RETURN INVALID PUSH1 0x80 PUSH1 0x40 MSTORE CALLVALUE DUP1 ISZERO PUSH2 0x10 JUMPI PUSH1 0x0 DUP1 REVERT JUMPDEST POP PUSH1 0x4 CALLDATASIZE LT PUSH2 0x100 JUMPI PUSH1 0x0 CALLDATALOAD PUSH1 0xE0 SHR DUP1 PUSH4 0x70A08231 GT PUSH2 0x97 JUMPI DUP1 PUSH4 0xA457C2D7 GT PUSH2 0x66 JUMPI DUP1 PUSH4 0xA457C2D7 EQ PUSH2 0x22E JUMPI DUP1 PUSH4 0xA9059CBB EQ PUSH2 0x241 JUMPI DUP1 PUSH4 0xDD62ED3E EQ PUSH2 0x254 JUMPI DUP1 PUSH4 0xE0BAB4C4 EQ PUSH2 0x267 JUMPI PUSH1 0x0 DUP1 REVERT JUMPDEST DUP1 PUSH4 0x70A08231 EQ PUSH2 0x1B5 JUMPI DUP1 PUSH4 0x7C0B8DE2 EQ PUSH2 0x1DE JUMPI DUP1 PUSH4 0x953B8FB8 EQ PUSH2 0x21D JUMPI DUP1 PUSH4 0x95D89B41 EQ PUSH2 0x226 JUMPI PUSH1 0x0 DUP1 REVERT JUMPDEST DUP1 PUSH4 0x23B872DD GT PUSH2 0xD3 JUMPI DUP1 PUSH4 0x23B872DD EQ PUSH2 0x16D JUMPI DUP1 PUSH4 0x2AFCF480 EQ PUSH2 0x180 JUMPI DUP1 PUSH4 0x313CE567 EQ PUSH2 0x193 JUMPI DUP1 PUSH4 0x39509351 EQ PUSH2 0x1A2 JUMPI PUSH1 0x0 DUP1 REVERT JUMPDEST DUP1 PUSH4 0x6FDDE03 EQ PUSH2 0x105 JUMPI DUP1 PUSH4 0x95EA7B3 EQ PUSH2 0x123 JUMPI DUP1 PUSH4 0x18160DDD EQ PUSH2 0x146 JUMPI DUP1 PUSH4 0x2037FCBF EQ PUSH2 0x158 JUMPI JUMPDEST PUSH1 0x0 DUP1 REVERT JUMPDEST PUSH2 0x10D PUSH2 0x27A JUMP JUMPDEST PUSH1 0x40 MLOAD PUSH2 0x11A SWAP2 SWAP1 PUSH2 0xE02 JUMP JUMPDEST PUSH1 0x40 MLOAD DUP1 SWAP2 SUB SWAP1 RETURN JUMPDEST PUSH2 0x136 PUSH2 0x131 CALLDATASIZE PUSH1 0x4 PUSH2 0xD9B JUMP JUMPDEST PUSH2 0x30C JUMP JUMPDEST PUSH1 0x40 MLOAD SWAP1 ISZERO ISZERO DUP2 MSTORE PUSH1 0x20 ADD PUSH2 0x11A JUMP JUMPDEST PUSH1 0x2 SLOAD JUMPDEST PUSH1 0x40 MLOAD SWAP1 DUP2 MSTORE PUSH1 0x20 ADD PUSH2 0x11A JUMP JUMPDEST PUSH2 0x16B PUSH2 0x166 CALLDATASIZE PUSH1 0x4 PUSH2 0xDE9 JUMP JUMPDEST PUSH2 0x324 JUMP JUMPDEST STOP JUMPDEST PUSH2 0x136 PUSH2 0x17B CALLDATASIZE PUSH1 0x4 PUSH2 0xD5A JUMP JUMPDEST PUSH2 0x41A JUMP JUMPDEST PUSH2 0x16B PUSH2 0x18E CALLDATASIZE PUSH1 0x4 PUSH2 0xDE9 JUMP JUMPDEST PUSH2 0x43E JUMP JUMPDEST PUSH1 0x40 MLOAD PUSH1 0x12 DUP2 MSTORE PUSH1 0x20 ADD PUSH2 0x11A JUMP JUMPDEST PUSH2 0x136 PUSH2 0x1B0 CALLDATASIZE PUSH1 0x4 PUSH2 0xD9B JUMP JUMPDEST PUSH2 0x669 JUMP JUMPDEST PUSH2 0x14A PUSH2 0x1C3 CALLDATASIZE PUSH1 0x4 PUSH2 0xCE0 JUMP JUMPDEST PUSH1 0x1 PUSH1 0x1 PUSH1 0xA0 SHL SUB AND PUSH1 0x0 SWAP1 DUP2 MSTORE PUSH1 0x20 DUP2 SWAP1 MSTORE PUSH1 0x40 SWAP1 KECCAK256 SLOAD SWAP1 JUMP JUMPDEST PUSH2 0x205 PUSH32 0x0 DUP2 JUMP JUMPDEST PUSH1 0x40 MLOAD PUSH1 0x1 PUSH1 0x1 PUSH1 0xA0 SHL SUB SWAP1 SWAP2 AND DUP2 MSTORE PUSH1 0x20 ADD PUSH2 0x11A JUMP JUMPDEST PUSH2 0x14A PUSH1 0x6 SLOAD DUP2 JUMP JUMPDEST PUSH2 0x10D PUSH2 0x68B JUMP JUMPDEST PUSH2 0x136 PUSH2 0x23C CALLDATASIZE PUSH1 0x4 PUSH2 0xD9B JUMP JUMPDEST PUSH2 0x69A JUMP JUMPDEST PUSH2 0x136 PUSH2 0x24F CALLDATASIZE PUSH1 0x4 PUSH2 0xD9B JUMP JUMPDEST PUSH2 0x715 JUMP JUMPDEST PUSH2 0x14A PUSH2 0x262 CALLDATASIZE PUSH1 0x4 PUSH2 0xD21 JUMP JUMPDEST PUSH2 0x723 JUMP JUMPDEST PUSH1 0x5 SLOAD PUSH2 0x205 SWAP1 PUSH1 0x1 PUSH1 0x1 PUSH1 0xA0 SHL SUB AND DUP2 JUMP JUMPDEST PUSH1 0x60 PUSH1 0x3 DUP1 SLOAD PUSH2 0x289 SWAP1 PUSH2 0xE86 JUMP JUMPDEST DUP1 PUSH1 0x1F ADD PUSH1 0x20 DUP1 SWAP2 DIV MUL PUSH1 0x20 ADD PUSH1 0x40 MLOAD SWAP1 DUP2 ADD PUSH1 0x40 MSTORE DUP1 SWAP3 SWAP2 SWAP1 DUP2 DUP2 MSTORE PUSH1 0x20 ADD DUP3 DUP1 SLOAD PUSH2 0x2B5 SWAP1 PUSH2 0xE86 JUMP JUMPDEST DUP1 ISZERO PUSH2 0x302 JUMPI DUP1 PUSH1 0x1F LT PUSH2 0x2D7 JUMPI PUSH2 0x100 DUP1 DUP4 SLOAD DIV MUL DUP4 MSTORE SWAP2 PUSH1 0x20 ADD SWAP2 PUSH2 0x302 JUMP JUMPDEST DUP3 ADD SWAP2 SWAP1 PUSH1 0x0 MSTORE PUSH1 0x20 PUSH1 0x0 KECCAK256 SWAP1 JUMPDEST DUP2 SLOAD DUP2 MSTORE SWAP1 PUSH1 0x1 ADD SWAP1 PUSH1 0x20 ADD DUP1 DUP4 GT PUSH2 0x2E5 JUMPI DUP3 SWAP1 SUB PUSH1 0x1F AND DUP3 ADD SWAP2 JUMPDEST POP POP POP POP POP SWAP1 POP SWAP1 JUMP JUMPDEST PUSH1 0x0 CALLER PUSH2 0x31A DUP2 DUP6 DUP6 PUSH2 0x74E JUMP JUMPDEST POP PUSH1 0x1 SWAP4 SWAP3 POP POP POP JUMP JUMPDEST CALLER PUSH1 0x0 SWAP1 DUP2 MSTORE PUSH1 0x20 DUP2 SWAP1 MSTORE PUSH1 0x40 SWAP1 KECCAK256 SLOAD DUP2 GT ISZERO PUSH2 0x388 JUMPI PUSH1 0x40 MLOAD PUSH3 0x461BCD PUSH1 0xE5 SHL DUP2 MSTORE PUSH1 0x20 PUSH1 0x4 DUP3 ADD MSTORE PUSH1 0x1A PUSH1 0x24 DUP3 ADD MSTORE PUSH32 0x4E6F7420656E6F756768207368617265732062616C616E636521000000000000 PUSH1 0x44 DUP3 ADD MSTORE PUSH1 0x64 ADD JUMPDEST PUSH1 0x40 MLOAD DUP1 SWAP2 SUB SWAP1 REVERT JUMPDEST PUSH1 0x5 SLOAD PUSH1 0x40 MLOAD PUSH4 0xA9059CBB PUSH1 0xE0 SHL DUP2 MSTORE CALLER PUSH1 0x4 DUP3 ADD MSTORE PUSH1 0x24 DUP2 ADD DUP4 SWAP1 MSTORE PUSH1 0x1 PUSH1 0x1 PUSH1 0xA0 SHL SUB SWAP1 SWAP2 AND SWAP1 PUSH4 0xA9059CBB SWAP1 PUSH1 0x44 ADD PUSH1 0x20 PUSH1 0x40 MLOAD DUP1 DUP4 SUB DUP2 PUSH1 0x0 DUP8 DUP1 EXTCODESIZE ISZERO DUP1 ISZERO PUSH2 0x3D4 JUMPI PUSH1 0x0 DUP1 REVERT JUMPDEST POP GAS CALL ISZERO DUP1 ISZERO PUSH2 0x3E8 JUMPI RETURNDATASIZE PUSH1 0x0 DUP1 RETURNDATACOPY RETURNDATASIZE PUSH1 0x0 REVERT JUMPDEST POP POP POP POP PUSH1 0x40 MLOAD RETURNDATASIZE PUSH1 0x1F NOT PUSH1 0x1F DUP3 ADD AND DUP3 ADD DUP1 PUSH1 0x40 MSTORE POP DUP2 ADD SWAP1 PUSH2 0x40C SWAP2 SWAP1 PUSH2 0xDC7 JUMP JUMPDEST POP PUSH2 0x417 CALLER DUP3 PUSH2 0x873 JUMP JUMPDEST POP JUMP JUMPDEST PUSH1 0x0 CALLER PUSH2 0x428 DUP6 DUP3 DUP6 PUSH2 0x9B9 JUMP JUMPDEST PUSH2 0x433 DUP6 DUP6 DUP6 PUSH2 0xA33 JUMP JUMPDEST POP PUSH1 0x1 SWAP5 SWAP4 POP POP POP POP JUMP JUMPDEST PUSH1 0x2 SLOAD PUSH1 0x6 SLOAD PUSH2 0x44E SWAP2 SWAP1 PUSH2 0xE6F JUMP JUMPDEST DUP2 GT ISZERO PUSH2 0x49D JUMPI PUSH1 0x40 MLOAD PUSH3 0x461BCD PUSH1 0xE5 SHL DUP2 MSTORE PUSH1 0x20 PUSH1 0x4 DUP3 ADD MSTORE PUSH1 0x17 PUSH1 0x24 DUP3 ADD MSTORE PUSH32 0x4E6F7420656E6F75676820736861726573206C65667421000000000000000000 PUSH1 0x44 DUP3 ADD MSTORE PUSH1 0x64 ADD PUSH2 0x37F JUMP JUMPDEST PUSH1 0x5 SLOAD PUSH1 0x40 MLOAD PUSH4 0x23B872DD PUSH1 0xE0 SHL DUP2 MSTORE CALLER PUSH1 0x4 DUP3 ADD MSTORE ADDRESS PUSH1 0x24 DUP3 ADD MSTORE PUSH1 0x44 DUP2 ADD DUP4 SWAP1 MSTORE PUSH1 0x1 PUSH1 0x1 PUSH1 0xA0 SHL SUB SWAP1 SWAP2 AND SWAP1 PUSH4 0x23B872DD SWAP1 PUSH1 0x64 ADD PUSH1 0x20 PUSH1 0x40 MLOAD DUP1 DUP4 SUB DUP2 PUSH1 0x0 DUP8 DUP1 EXTCODESIZE ISZERO DUP1 ISZERO PUSH2 0x4EF JUMPI PUSH1 0x0 DUP1 REVERT JUMPDEST POP GAS CALL ISZERO DUP1 ISZERO PUSH2 0x503 JUMPI RETURNDATASIZE PUSH1 0x0 DUP1 RETURNDATACOPY RETURNDATASIZE PUSH1 0x0 REVERT JUMPDEST POP POP POP POP PUSH1 0x40 MLOAD RETURNDATASIZE PUSH1 0x1F NOT PUSH1 0x1F DUP3 ADD AND DUP3 ADD DUP1 PUSH1 0x40 MSTORE POP DUP2 ADD SWAP1 PUSH2 0x527 SWAP2 SWAP1 PUSH2 0xDC7 JUMP JUMPDEST POP PUSH2 0x532 CALLER DUP3 PUSH2 0xC01 JUMP JUMPDEST PUSH1 0x2 SLOAD PUSH1 0x6 SLOAD EQ ISZERO PUSH2 0x417 JUMPI PUSH1 0x5 SLOAD PUSH1 0x40 MLOAD PUSH4 0x31A9108F PUSH1 0xE1 SHL DUP2 MSTORE ADDRESS PUSH1 0x4 DUP3 ADD MSTORE PUSH1 0x1 PUSH1 0x1 PUSH1 0xA0 SHL SUB SWAP2 DUP3 AND SWAP2 PUSH4 0xA9059CBB SWAP2 PUSH32 0x0 SWAP1 SWAP2 AND SWAP1 PUSH4 0x6352211E SWAP1 PUSH1 0x24 ADD PUSH1 0x20 PUSH1 0x40 MLOAD DUP1 DUP4 SUB DUP2 DUP7 DUP1 EXTCODESIZE ISZERO DUP1 ISZERO PUSH2 0x5AC JUMPI PUSH1 0x0 DUP1 REVERT JUMPDEST POP GAS STATICCALL ISZERO DUP1 ISZERO PUSH2 0x5C0 JUMPI RETURNDATASIZE PUSH1 0x0 DUP1 RETURNDATACOPY RETURNDATASIZE PUSH1 0x0 REVERT JUMPDEST POP POP POP POP PUSH1 0x40 MLOAD RETURNDATASIZE PUSH1 0x1F NOT PUSH1 0x1F DUP3 ADD AND DUP3 ADD DUP1 PUSH1 0x40 MSTORE POP DUP2 ADD SWAP1 PUSH2 0x5E4 SWAP2 SWAP1 PUSH2 0xD04 JUMP JUMPDEST PUSH1 0x6 SLOAD PUSH1 0x40 MLOAD PUSH1 0x1 PUSH1 0x1 PUSH1 0xE0 SHL SUB NOT PUSH1 0xE0 DUP6 SWAP1 SHL AND DUP2 MSTORE PUSH1 0x1 PUSH1 0x1 PUSH1 0xA0 SHL SUB SWAP1 SWAP3 AND PUSH1 0x4 DUP4 ADD MSTORE PUSH1 0x24 DUP3 ADD MSTORE PUSH1 0x44 ADD PUSH1 0x20 PUSH1 0x40 MLOAD DUP1 DUP4 SUB DUP2 PUSH1 0x0 DUP8 DUP1 EXTCODESIZE ISZERO DUP1 ISZERO PUSH2 0x62D JUMPI PUSH1 0x0 DUP1 REVERT JUMPDEST POP GAS CALL ISZERO DUP1 ISZERO PUSH2 0x641 JUMPI RETURNDATASIZE PUSH1 0x0 DUP1 RETURNDATACOPY RETURNDATASIZE PUSH1 0x0 REVERT JUMPDEST POP POP POP POP PUSH1 0x40 MLOAD RETURNDATASIZE PUSH1 0x1F NOT PUSH1 0x1F DUP3 ADD AND DUP3 ADD DUP1 PUSH1 0x40 MSTORE POP DUP2 ADD SWAP1 PUSH2 0x665 SWAP2 SWAP1 PUSH2 0xDC7 JUMP JUMPDEST POP POP JUMP JUMPDEST PUSH1 0x0 CALLER PUSH2 0x31A DUP2 DUP6 DUP6 PUSH2 0x67C DUP4 DUP4 PUSH2 0x723 JUMP JUMPDEST PUSH2 0x686 SWAP2 SWAP1 PUSH2 0xE57 JUMP JUMPDEST PUSH2 0x74E JUMP JUMPDEST PUSH1 0x60 PUSH1 0x4 DUP1 SLOAD PUSH2 0x289 SWAP1 PUSH2 0xE86 JUMP JUMPDEST PUSH1 0x0 CALLER DUP2 PUSH2 0x6A8 DUP3 DUP7 PUSH2 0x723 JUMP JUMPDEST SWAP1 POP DUP4 DUP2 LT ISZERO PUSH2 0x708 JUMPI PUSH1 0x40 MLOAD PUSH3 0x461BCD PUSH1 0xE5 SHL DUP2 MSTORE PUSH1 0x20 PUSH1 0x4 DUP3 ADD MSTORE PUSH1 0x25 PUSH1 0x24 DUP3 ADD MSTORE PUSH32 0x45524332303A2064656372656173656420616C6C6F77616E63652062656C6F77 PUSH1 0x44 DUP3 ADD MSTORE PUSH5 0x207A65726F PUSH1 0xD8 SHL PUSH1 0x64 DUP3 ADD MSTORE PUSH1 0x84 ADD PUSH2 0x37F JUMP JUMPDEST PUSH2 0x433 DUP3 DUP7 DUP7 DUP5 SUB PUSH2 0x74E JUMP JUMPDEST PUSH1 0x0 CALLER PUSH2 0x31A DUP2 DUP6 DUP6 PUSH2 0xA33 JUMP JUMPDEST PUSH1 0x1 PUSH1 0x1 PUSH1 0xA0 SHL SUB SWAP2 DUP3 AND PUSH1 0x0 SWAP1 DUP2 MSTORE PUSH1 0x1 PUSH1 0x20 SWAP1 DUP2 MSTORE PUSH1 0x40 DUP1 DUP4 KECCAK256 SWAP4 SWAP1 SWAP5 AND DUP3 MSTORE SWAP2 SWAP1 SWAP2 MSTORE KECCAK256 SLOAD SWAP1 JUMP JUMPDEST PUSH1 0x1 PUSH1 0x1 PUSH1 0xA0 SHL SUB DUP4 AND PUSH2 0x7B0 JUMPI PUSH1 0x40 MLOAD PUSH3 0x461BCD PUSH1 0xE5 SHL DUP2 MSTORE PUSH1 0x20 PUSH1 0x4 DUP3 ADD MSTORE PUSH1 0x24 DUP1 DUP3 ADD MSTORE PUSH32 0x45524332303A20617070726F76652066726F6D20746865207A65726F20616464 PUSH1 0x44 DUP3 ADD MSTORE PUSH4 0x72657373 PUSH1 0xE0 SHL PUSH1 0x64 DUP3 ADD MSTORE PUSH1 0x84 ADD PUSH2 0x37F JUMP JUMPDEST PUSH1 0x1 PUSH1 0x1 PUSH1 0xA0 SHL SUB DUP3 AND PUSH2 0x811 JUMPI PUSH1 0x40 MLOAD PUSH3 0x461BCD PUSH1 0xE5 SHL DUP2 MSTORE PUSH1 0x20 PUSH1 0x4 DUP3 ADD MSTORE PUSH1 0x22 PUSH1 0x24 DUP3 ADD MSTORE PUSH32 0x45524332303A20617070726F766520746F20746865207A65726F206164647265 PUSH1 0x44 DUP3 ADD MSTORE PUSH2 0x7373 PUSH1 0xF0 SHL PUSH1 0x64 DUP3 ADD MSTORE PUSH1 0x84 ADD PUSH2 0x37F JUMP JUMPDEST PUSH1 0x1 PUSH1 0x1 PUSH1 0xA0 SHL SUB DUP4 DUP2 AND PUSH1 0x0 DUP2 DUP2 MSTORE PUSH1 0x1 PUSH1 0x20 SWAP1 DUP2 MSTORE PUSH1 0x40 DUP1 DUP4 KECCAK256 SWAP5 DUP8 AND DUP1 DUP5 MSTORE SWAP5 DUP3 MSTORE SWAP2 DUP3 SWAP1 KECCAK256 DUP6 SWAP1 SSTORE SWAP1 MLOAD DUP5 DUP2 MSTORE PUSH32 0x8C5BE1E5EBEC7D5BD14F71427D1E84F3DD0314C0F7B2291E5B200AC8C7C3B925 SWAP2 ADD JUMPDEST PUSH1 0x40 MLOAD DUP1 SWAP2 SUB SWAP1 LOG3 POP POP POP JUMP JUMPDEST PUSH1 0x1 PUSH1 0x1 PUSH1 0xA0 SHL SUB DUP3 AND PUSH2 0x8D3 JUMPI PUSH1 0x40 MLOAD PUSH3 0x461BCD PUSH1 0xE5 SHL DUP2 MSTORE PUSH1 0x20 PUSH1 0x4 DUP3 ADD MSTORE PUSH1 0x21 PUSH1 0x24 DUP3 ADD MSTORE PUSH32 0x45524332303A206275726E2066726F6D20746865207A65726F20616464726573 PUSH1 0x44 DUP3 ADD MSTORE PUSH1 0x73 PUSH1 0xF8 SHL PUSH1 0x64 DUP3 ADD MSTORE PUSH1 0x84 ADD PUSH2 0x37F JUMP JUMPDEST PUSH1 0x1 PUSH1 0x1 PUSH1 0xA0 SHL SUB DUP3 AND PUSH1 0x0 SWAP1 DUP2 MSTORE PUSH1 0x20 DUP2 SWAP1 MSTORE PUSH1 0x40 SWAP1 KECCAK256 SLOAD DUP2 DUP2 LT ISZERO PUSH2 0x947 JUMPI PUSH1 0x40 MLOAD PUSH3 0x461BCD PUSH1 0xE5 SHL DUP2 MSTORE PUSH1 0x20 PUSH1 0x4 DUP3 ADD MSTORE PUSH1 0x22 PUSH1 0x24 DUP3 ADD MSTORE PUSH32 0x45524332303A206275726E20616D6F756E7420657863656564732062616C616E PUSH1 0x44 DUP3 ADD MSTORE PUSH2 0x6365 PUSH1 0xF0 SHL PUSH1 0x64 DUP3 ADD MSTORE PUSH1 0x84 ADD PUSH2 0x37F JUMP JUMPDEST PUSH1 0x1 PUSH1 0x1 PUSH1 0xA0 SHL SUB DUP4 AND PUSH1 0x0 SWAP1 DUP2 MSTORE PUSH1 0x20 DUP2 SWAP1 MSTORE PUSH1 0x40 DUP2 KECCAK256 DUP4 DUP4 SUB SWAP1 SSTORE PUSH1 0x2 DUP1 SLOAD DUP5 SWAP3 SWAP1 PUSH2 0x976 SWAP1 DUP5 SWAP1 PUSH2 0xE6F JUMP JUMPDEST SWAP1 SWAP2 SSTORE POP POP PUSH1 0x40 MLOAD DUP3 DUP2 MSTORE PUSH1 0x0 SWAP1 PUSH1 0x1 PUSH1 0x1 PUSH1 0xA0 SHL SUB DUP6 AND SWAP1 PUSH32 0xDDF252AD1BE2C89B69C2B068FC378DAA952BA7F163C4A11628F55A4DF523B3EF SWAP1 PUSH1 0x20 ADD PUSH2 0x866 JUMP JUMPDEST PUSH1 0x0 PUSH2 0x9C5 DUP5 DUP5 PUSH2 0x723 JUMP JUMPDEST SWAP1 POP PUSH1 0x0 NOT DUP2 EQ PUSH2 0xA2D JUMPI DUP2 DUP2 LT ISZERO PUSH2 0xA20 JUMPI PUSH1 0x40 MLOAD PUSH3 0x461BCD PUSH1 0xE5 SHL DUP2 MSTORE PUSH1 0x20 PUSH1 0x4 DUP3 ADD MSTORE PUSH1 0x1D PUSH1 0x24 DUP3 ADD MSTORE PUSH32 0x45524332303A20696E73756666696369656E7420616C6C6F77616E6365000000 PUSH1 0x44 DUP3 ADD MSTORE PUSH1 0x64 ADD PUSH2 0x37F JUMP JUMPDEST PUSH2 0xA2D DUP5 DUP5 DUP5 DUP5 SUB PUSH2 0x74E JUMP JUMPDEST POP POP POP POP JUMP JUMPDEST PUSH1 0x1 PUSH1 0x1 PUSH1 0xA0 SHL SUB DUP4 AND PUSH2 0xA97 JUMPI PUSH1 0x40 MLOAD PUSH3 0x461BCD PUSH1 0xE5 SHL DUP2 MSTORE PUSH1 0x20 PUSH1 0x4 DUP3 ADD MSTORE PUSH1 0x25 PUSH1 0x24 DUP3 ADD MSTORE PUSH32 0x45524332303A207472616E736665722066726F6D20746865207A65726F206164 PUSH1 0x44 DUP3 ADD MSTORE PUSH5 0x6472657373 PUSH1 0xD8 SHL PUSH1 0x64 DUP3 ADD MSTORE PUSH1 0x84 ADD PUSH2 0x37F JUMP JUMPDEST PUSH1 0x1 PUSH1 0x1 PUSH1 0xA0 SHL SUB DUP3 AND PUSH2 0xAF9 JUMPI PUSH1 0x40 MLOAD PUSH3 0x461BCD PUSH1 0xE5 SHL DUP2 MSTORE PUSH1 0x20 PUSH1 0x4 DUP3 ADD MSTORE PUSH1 0x23 PUSH1 0x24 DUP3 ADD MSTORE PUSH32 0x45524332303A207472616E7366657220746F20746865207A65726F2061646472 PUSH1 0x44 DUP3 ADD MSTORE PUSH3 0x657373 PUSH1 0xE8 SHL PUSH1 0x64 DUP3 ADD MSTORE PUSH1 0x84 ADD PUSH2 0x37F JUMP JUMPDEST PUSH1 0x1 PUSH1 0x1 PUSH1 0xA0 SHL SUB DUP4 AND PUSH1 0x0 SWAP1 DUP2 MSTORE PUSH1 0x20 DUP2 SWAP1 MSTORE PUSH1 0x40 SWAP1 KECCAK256 SLOAD DUP2 DUP2 LT ISZERO PUSH2 0xB71 JUMPI PUSH1 0x40 MLOAD PUSH3 0x461BCD PUSH1 0xE5 SHL DUP2 MSTORE PUSH1 0x20 PUSH1 0x4 DUP3 ADD MSTORE PUSH1 0x26 PUSH1 0x24 DUP3 ADD MSTORE PUSH32 0x45524332303A207472616E7366657220616D6F756E7420657863656564732062 PUSH1 0x44 DUP3 ADD MSTORE PUSH6 0x616C616E6365 PUSH1 0xD0 SHL PUSH1 0x64 DUP3 ADD MSTORE PUSH1 0x84 ADD PUSH2 0x37F JUMP JUMPDEST PUSH1 0x1 PUSH1 0x1 PUSH1 0xA0 SHL SUB DUP1 DUP6 AND PUSH1 0x0 SWAP1 DUP2 MSTORE PUSH1 0x20 DUP2 SWAP1 MSTORE PUSH1 0x40 DUP1 DUP3 KECCAK256 DUP6 DUP6 SUB SWAP1 SSTORE SWAP2 DUP6 AND DUP2 MSTORE SWAP1 DUP2 KECCAK256 DUP1 SLOAD DUP5 SWAP3 SWAP1 PUSH2 0xBA8 SWAP1 DUP5 SWAP1 PUSH2 0xE57 JUMP JUMPDEST SWAP3 POP POP DUP2 SWAP1 SSTORE POP DUP3 PUSH1 0x1 PUSH1 0x1 PUSH1 0xA0 SHL SUB AND DUP5 PUSH1 0x1 PUSH1 0x1 PUSH1 0xA0 SHL SUB AND PUSH32 0xDDF252AD1BE2C89B69C2B068FC378DAA952BA7F163C4A11628F55A4DF523B3EF DUP5 PUSH1 0x40 MLOAD PUSH2 0xBF4 SWAP2 DUP2 MSTORE PUSH1 0x20 ADD SWAP1 JUMP JUMPDEST PUSH1 0x40 MLOAD DUP1 SWAP2 SUB SWAP1 LOG3 PUSH2 0xA2D JUMP JUMPDEST PUSH1 0x1 PUSH1 0x1 PUSH1 0xA0 SHL SUB DUP3 AND PUSH2 0xC57 JUMPI PUSH1 0x40 MLOAD PUSH3 0x461BCD PUSH1 0xE5 SHL DUP2 MSTORE PUSH1 0x20 PUSH1 0x4 DUP3 ADD MSTORE PUSH1 0x1F PUSH1 0x24 DUP3 ADD MSTORE PUSH32 0x45524332303A206D696E7420746F20746865207A65726F206164647265737300 PUSH1 0x44 DUP3 ADD MSTORE PUSH1 0x64 ADD PUSH2 0x37F JUMP JUMPDEST DUP1 PUSH1 0x2 PUSH1 0x0 DUP3 DUP3 SLOAD PUSH2 0xC69 SWAP2 SWAP1 PUSH2 0xE57 JUMP JUMPDEST SWAP1 SWAP2 SSTORE POP POP PUSH1 0x1 PUSH1 0x1 PUSH1 0xA0 SHL SUB DUP3 AND PUSH1 0x0 SWAP1 DUP2 MSTORE PUSH1 0x20 DUP2 SWAP1 MSTORE PUSH1 0x40 DUP2 KECCAK256 DUP1 SLOAD DUP4 SWAP3 SWAP1 PUSH2 0xC96 SWAP1 DUP5 SWAP1 PUSH2 0xE57 JUMP JUMPDEST SWAP1 SWAP2 SSTORE POP POP PUSH1 0x40 MLOAD DUP2 DUP2 MSTORE PUSH1 0x1 PUSH1 0x1 PUSH1 0xA0 SHL SUB DUP4 AND SWAP1 PUSH1 0x0 SWAP1 PUSH32 0xDDF252AD1BE2C89B69C2B068FC378DAA952BA7F163C4A11628F55A4DF523B3EF SWAP1 PUSH1 0x20 ADD PUSH1 0x40 MLOAD DUP1 SWAP2 SUB SWAP1 LOG3 POP POP JUMP JUMPDEST PUSH1 0x0 PUSH1 0x20 DUP3 DUP5 SUB SLT ISZERO PUSH2 0xCF2 JUMPI PUSH1 0x0 DUP1 REVERT JUMPDEST DUP2 CALLDATALOAD PUSH2 0xCFD DUP2 PUSH2 0xED7 JUMP JUMPDEST SWAP4 SWAP3 POP POP POP JUMP JUMPDEST PUSH1 0x0 PUSH1 0x20 DUP3 DUP5 SUB SLT ISZERO PUSH2 0xD16 JUMPI PUSH1 0x0 DUP1 REVERT JUMPDEST DUP2 MLOAD PUSH2 0xCFD DUP2 PUSH2 0xED7 JUMP JUMPDEST PUSH1 0x0 DUP1 PUSH1 0x40 DUP4 DUP6 SUB SLT ISZERO PUSH2 0xD34 JUMPI PUSH1 0x0 DUP1 REVERT JUMPDEST DUP3 CALLDATALOAD PUSH2 0xD3F DUP2 PUSH2 0xED7 JUMP JUMPDEST SWAP2 POP PUSH1 0x20 DUP4 ADD CALLDATALOAD PUSH2 0xD4F DUP2 PUSH2 0xED7 JUMP JUMPDEST DUP1 SWAP2 POP POP SWAP3 POP SWAP3 SWAP1 POP JUMP JUMPDEST PUSH1 0x0 DUP1 PUSH1 0x0 PUSH1 0x60 DUP5 DUP7 SUB SLT ISZERO PUSH2 0xD6F JUMPI PUSH1 0x0 DUP1 REVERT JUMPDEST DUP4 CALLDATALOAD PUSH2 0xD7A DUP2 PUSH2 0xED7 JUMP JUMPDEST SWAP3 POP PUSH1 0x20 DUP5 ADD CALLDATALOAD PUSH2 0xD8A DUP2 PUSH2 0xED7 JUMP JUMPDEST SWAP3 SWAP6 SWAP3 SWAP5 POP POP POP PUSH1 0x40 SWAP2 SWAP1 SWAP2 ADD CALLDATALOAD SWAP1 JUMP JUMPDEST PUSH1 0x0 DUP1 PUSH1 0x40 DUP4 DUP6 SUB SLT ISZERO PUSH2 0xDAE JUMPI PUSH1 0x0 DUP1 REVERT JUMPDEST DUP3 CALLDATALOAD PUSH2 0xDB9 DUP2 PUSH2 0xED7 JUMP JUMPDEST SWAP5 PUSH1 0x20 SWAP4 SWAP1 SWAP4 ADD CALLDATALOAD SWAP4 POP POP POP JUMP JUMPDEST PUSH1 0x0 PUSH1 0x20 DUP3 DUP5 SUB SLT ISZERO PUSH2 0xDD9 JUMPI PUSH1 0x0 DUP1 REVERT JUMPDEST DUP2 MLOAD DUP1 ISZERO ISZERO DUP2 EQ PUSH2 0xCFD JUMPI PUSH1 0x0 DUP1 REVERT JUMPDEST PUSH1 0x0 PUSH1 0x20 DUP3 DUP5 SUB SLT ISZERO PUSH2 0xDFB JUMPI PUSH1 0x0 DUP1 REVERT JUMPDEST POP CALLDATALOAD SWAP2 SWAP1 POP JUMP JUMPDEST PUSH1 0x0 PUSH1 0x20 DUP1 DUP4 MSTORE DUP4 MLOAD DUP1 DUP3 DUP6 ADD MSTORE PUSH1 0x0 JUMPDEST DUP2 DUP2 LT ISZERO PUSH2 0xE2F JUMPI DUP6 DUP2 ADD DUP4 ADD MLOAD DUP6 DUP3 ADD PUSH1 0x40 ADD MSTORE DUP3 ADD PUSH2 0xE13 JUMP JUMPDEST DUP2 DUP2 GT ISZERO PUSH2 0xE41 JUMPI PUSH1 0x0 PUSH1 0x40 DUP4 DUP8 ADD ADD MSTORE JUMPDEST POP PUSH1 0x1F ADD PUSH1 0x1F NOT AND SWAP3 SWAP1 SWAP3 ADD PUSH1 0x40 ADD SWAP4 SWAP3 POP POP POP JUMP JUMPDEST PUSH1 0x0 DUP3 NOT DUP3 GT ISZERO PUSH2 0xE6A JUMPI PUSH2 0xE6A PUSH2 0xEC1 JUMP JUMPDEST POP ADD SWAP1 JUMP JUMPDEST PUSH1 0x0 DUP3 DUP3 LT ISZERO PUSH2 0xE81 JUMPI PUSH2 0xE81 PUSH2 0xEC1 JUMP JUMPDEST POP SUB SWAP1 JUMP JUMPDEST PUSH1 0x1 DUP2 DUP2 SHR SWAP1 DUP3 AND DUP1 PUSH2 0xE9A JUMPI PUSH1 0x7F DUP3 AND SWAP2 POP JUMPDEST PUSH1 0x20 DUP3 LT DUP2 EQ ISZERO PUSH2 0xEBB JUMPI PUSH4 0x4E487B71 PUSH1 0xE0 SHL PUSH1 0x0 MSTORE PUSH1 0x22 PUSH1 0x4 MSTORE PUSH1 0x24 PUSH1 0x0 REVERT JUMPDEST POP SWAP2 SWAP1 POP JUMP JUMPDEST PUSH4 0x4E487B71 PUSH1 0xE0 SHL PUSH1 0x0 MSTORE PUSH1 0x11 PUSH1 0x4 MSTORE PUSH1 0x24 PUSH1 0x0 REVERT JUMPDEST PUSH1 0x1 PUSH1 0x1 PUSH1 0xA0 SHL SUB DUP2 AND DUP2 EQ PUSH2 0x417 JUMPI PUSH1 0x0 DUP1 REVERT INVALID LOG2 PUSH5 0x6970667358 0x22 SLT KECCAK256 DUP2 XOR PUSH19 0xA04D5ED7D5F484BAF8134AF79176CA24461844 0x5F SHR 0xA9 0xD5 JUMP DELEGATECALL 0x5D ADDMOD SHL 0x25 PUSH5 0x736F6C6343 STOP ADDMOD SMOD STOP CALLER LOG2 PUSH5 0x6970667358 0x22 SLT KECCAK256 0xF PUSH31 0xC7322763C45A90FE884C7D1451E0C5284B93933E85AF09C77571475B12C664 PUSH20 0x6F6C63430008070033A264697066735822122012 0x5F 0xF6 BALANCE 0xC1 0xBE PUSH24 0xA15F890E1804086F39422D06692830BCC3EC487F1B014041 0xCC PUSH5 0x736F6C6343 STOP ADDMOD SMOD STOP CALLER MSTORE8 PUSH17 0x72696E672044616F2050726F6A65637420 0x4D PUSH2 0x726B PUSH6 0x74706C616365 KECCAK256 SLOAD PUSH6 0x737400000000 "
		},
		"gasEstimates": {
			"creation": {
				"codeDepositCost": "3845600",
				"executionCost": "infinite",
				"totalCost": "infinite"
			},
			"external": {
				"approve(address,uint256)": "infinite",
				"balanceOf(address)": "2700",
				"baseURI()": "infinite",
				"findProjectContract(uint256)": "335",
				"getApproved(uint256)": "4792",
				"isApprovedForAll(address,address)": "infinite",
				"name()": "infinite",
				"newProject(string,string,string)": "infinite",
				"ownerOf(uint256)": "2605",
				"safeTransferFrom(address,address,uint256)": "infinite",
				"safeTransferFrom(address,address,uint256,bytes)": "infinite",
				"setApprovalForAll(address,bool)": "26730",
				"supportsInterface(bytes4)": "infinite",
				"symbol()": "infinite",
				"tokenByIndex(uint256)": "6738",
				"tokenOfOwnerByIndex(address,uint256)": "5019",
				"tokenURI(uint256)": "infinite",
				"totalSupply()": "2304",
				"transferFrom(address,address,uint256)": "infinite"
			},
			"internal": {
				"_baseURI()": "infinite"
			}
		},
		"methodIdentifiers": {
			"approve(address,uint256)": "095ea7b3",
			"balanceOf(address)": "70a08231",
			"baseURI()": "6c0360eb",
			"findProjectContract(uint256)": "62c348c5",
			"getApproved(uint256)": "081812fc",
			"isApprovedForAll(address,address)": "e985e9c5",
			"name()": "06fdde03",
			"newProject(string,string,string)": "27913fa0",
			"ownerOf(uint256)": "6352211e",
			"safeTransferFrom(address,address,uint256)": "42842e0e",
			"safeTransferFrom(address,address,uint256,bytes)": "b88d4fde",
			"setApprovalForAll(address,bool)": "a22cb465",
			"supportsInterface(bytes4)": "01ffc9a7",
			"symbol()": "95d89b41",
			"tokenByIndex(uint256)": "4f6ccce7",
			"tokenOfOwnerByIndex(address,uint256)": "2f745c59",
			"tokenURI(uint256)": "c87b56dd",
			"totalSupply()": "18160ddd",
			"transferFrom(address,address,uint256)": "23b872dd"
		}
	},
	"abi": [
		{
			"inputs": [
				{
					"internalType": "string",
					"name": "projectMetadataURI",
					"type": "string"
				}
			],
			"stateMutability": "nonpayable",
			"type": "constructor"
		},
		{
			"anonymous": false,
			"inputs": [
				{
					"indexed": true,
					"internalType": "address",
					"name": "owner",
					"type": "address"
				},
				{
					"indexed": true,
					"internalType": "address",
					"name": "approved",
					"type": "address"
				},
				{
					"indexed": true,
					"internalType": "uint256",
					"name": "tokenId",
					"type": "uint256"
				}
			],
			"name": "Approval",
			"type": "event"
		},
		{
			"anonymous": false,
			"inputs": [
				{
					"indexed": true,
					"internalType": "address",
					"name": "owner",
					"type": "address"
				},
				{
					"indexed": true,
					"internalType": "address",
					"name": "operator",
					"type": "address"
				},
				{
					"indexed": false,
					"internalType": "bool",
					"name": "approved",
					"type": "bool"
				}
			],
			"name": "ApprovalForAll",
			"type": "event"
		},
		{
			"anonymous": false,
			"inputs": [
				{
					"indexed": true,
					"internalType": "address",
					"name": "from",
					"type": "address"
				},
				{
					"indexed": true,
					"internalType": "address",
					"name": "to",
					"type": "address"
				},
				{
					"indexed": true,
					"internalType": "uint256",
					"name": "tokenId",
					"type": "uint256"
				}
			],
			"name": "Transfer",
			"type": "event"
		},
		{
			"inputs": [
				{
					"internalType": "address",
					"name": "to",
					"type": "address"
				},
				{
					"internalType": "uint256",
					"name": "tokenId",
					"type": "uint256"
				}
			],
			"name": "approve",
			"outputs": [],
			"stateMutability": "nonpayable",
			"type": "function"
		},
		{
			"inputs": [
				{
					"internalType": "address",
					"name": "owner",
					"type": "address"
				}
			],
			"name": "balanceOf",
			"outputs": [
				{
					"internalType": "uint256",
					"name": "",
					"type": "uint256"
				}
			],
			"stateMutability": "view",
			"type": "function"
		},
		{
			"inputs": [],
			"name": "baseURI",
			"outputs": [
				{
					"internalType": "string",
					"name": "",
					"type": "string"
				}
			],
			"stateMutability": "view",
			"type": "function"
		},
		{
			"inputs": [
				{
					"internalType": "uint256",
					"name": "tokenID",
					"type": "uint256"
				}
			],
			"name": "findProjectContract",
			"outputs": [
				{
					"internalType": "address",
					"name": "",
					"type": "address"
				}
			],
			"stateMutability": "pure",
			"type": "function"
		},
		{
			"inputs": [
				{
					"internalType": "uint256",
					"name": "tokenId",
					"type": "uint256"
				}
			],
			"name": "getApproved",
			"outputs": [
				{
					"internalType": "address",
					"name": "",
					"type": "address"
				}
			],
			"stateMutability": "view",
			"type": "function"
		},
		{
			"inputs": [
				{
					"internalType": "address",
					"name": "owner",
					"type": "address"
				},
				{
					"internalType": "address",
					"name": "operator",
					"type": "address"
				}
			],
			"name": "isApprovedForAll",
			"outputs": [
				{
					"internalType": "bool",
					"name": "",
					"type": "bool"
				}
			],
			"stateMutability": "view",
			"type": "function"
		},
		{
			"inputs": [],
			"name": "name",
			"outputs": [
				{
					"internalType": "string",
					"name": "",
					"type": "string"
				}
			],
			"stateMutability": "view",
			"type": "function"
		},
		{
			"inputs": [
				{
					"internalType": "string",
					"name": "projectName",
					"type": "string"
				},
				{
					"internalType": "string",
					"name": "projectSymbol",
					"type": "string"
				},
				{
					"internalType": "string",
					"name": "assetMetadataURI",
					"type": "string"
				}
			],
			"name": "newProject",
			"outputs": [],
			"stateMutability": "nonpayable",
			"type": "function"
		},
		{
			"inputs": [
				{
					"internalType": "uint256",
					"name": "tokenId",
					"type": "uint256"
				}
			],
			"name": "ownerOf",
			"outputs": [
				{
					"internalType": "address",
					"name": "",
					"type": "address"
				}
			],
			"stateMutability": "view",
			"type": "function"
		},
		{
			"inputs": [
				{
					"internalType": "address",
					"name": "from",
					"type": "address"
				},
				{
					"internalType": "address",
					"name": "to",
					"type": "address"
				},
				{
					"internalType": "uint256",
					"name": "tokenId",
					"type": "uint256"
				}
			],
			"name": "safeTransferFrom",
			"outputs": [],
			"stateMutability": "nonpayable",
			"type": "function"
		},
		{
			"inputs": [
				{
					"internalType": "address",
					"name": "from",
					"type": "address"
				},
				{
					"internalType": "address",
					"name": "to",
					"type": "address"
				},
				{
					"internalType": "uint256",
					"name": "tokenId",
					"type": "uint256"
				},
				{
					"internalType": "bytes",
					"name": "data",
					"type": "bytes"
				}
			],
			"name": "safeTransferFrom",
			"outputs": [],
			"stateMutability": "nonpayable",
			"type": "function"
		},
		{
			"inputs": [
				{
					"internalType": "address",
					"name": "operator",
					"type": "address"
				},
				{
					"internalType": "bool",
					"name": "approved",
					"type": "bool"
				}
			],
			"name": "setApprovalForAll",
			"outputs": [],
			"stateMutability": "nonpayable",
			"type": "function"
		},
		{
			"inputs": [
				{
					"internalType": "bytes4",
					"name": "interfaceId",
					"type": "bytes4"
				}
			],
			"name": "supportsInterface",
			"outputs": [
				{
					"internalType": "bool",
					"name": "",
					"type": "bool"
				}
			],
			"stateMutability": "view",
			"type": "function"
		},
		{
			"inputs": [],
			"name": "symbol",
			"outputs": [
				{
					"internalType": "string",
					"name": "",
					"type": "string"
				}
			],
			"stateMutability": "view",
			"type": "function"
		},
		{
			"inputs": [
				{
					"internalType": "uint256",
					"name": "index",
					"type": "uint256"
				}
			],
			"name": "tokenByIndex",
			"outputs": [
				{
					"internalType": "uint256",
					"name": "",
					"type": "uint256"
				}
			],
			"stateMutability": "view",
			"type": "function"
		},
		{
			"inputs": [
				{
					"internalType": "address",
					"name": "owner",
					"type": "address"
				},
				{
					"internalType": "uint256",
					"name": "index",
					"type": "uint256"
				}
			],
			"name": "tokenOfOwnerByIndex",
			"outputs": [
				{
					"internalType": "uint256",
					"name": "",
					"type": "uint256"
				}
			],
			"stateMutability": "view",
			"type": "function"
		},
		{
			"inputs": [
				{
					"internalType": "uint256",
					"name": "tokenId",
					"type": "uint256"
				}
			],
			"name": "tokenURI",
			"outputs": [
				{
					"internalType": "string",
					"name": "",
					"type": "string"
				}
			],
			"stateMutability": "view",
			"type": "function"
		},
		{
			"inputs": [],
			"name": "totalSupply",
			"outputs": [
				{
					"internalType": "uint256",
					"name": "",
					"type": "uint256"
				}
			],
			"stateMutability": "view",
			"type": "function"
		},
		{
			"inputs": [
				{
					"internalType": "address",
					"name": "from",
					"type": "address"
				},
				{
					"internalType": "address",
					"name": "to",
					"type": "address"
				},
				{
					"internalType": "uint256",
					"name": "tokenId",
					"type": "uint256"
				}
			],
			"name": "transferFrom",
			"outputs": [],
			"stateMutability": "nonpayable",
			"type": "function"
		}
	]
}