{
	"Re-fungible_Tokens/contracts/AssetFundRaising.sol": {
		"AssetFundRaising": {
			"abi": [
				{
					"inputs": [
						{
							"internalType": "uint256",
							"name": "amount",
							"type": "uint256"
						},
						{
							"internalType": "string",
							"name": "name",
							"type": "string"
						},
						{
							"internalType": "string",
							"name": "symbol",
							"type": "string"
						},
						{
							"internalType": "address",
							"name": "daiAddress",
							"type": "address"
						}
					],
					"stateMutability": "nonpayable",
					"type": "constructor"
				},
				{
					"anonymous": false,
					"inputs": [
						{
							"indexed": true,
							"internalType": "address",
							"name": "owner",
							"type": "address"
						},
						{
							"indexed": true,
							"internalType": "address",
							"name": "spender",
							"type": "address"
						},
						{
							"indexed": false,
							"internalType": "uint256",
							"name": "value",
							"type": "uint256"
						}
					],
					"name": "Approval",
					"type": "event"
				},
				{
					"anonymous": false,
					"inputs": [
						{
							"indexed": true,
							"internalType": "address",
							"name": "from",
							"type": "address"
						},
						{
							"indexed": true,
							"internalType": "address",
							"name": "to",
							"type": "address"
						},
						{
							"indexed": false,
							"internalType": "uint256",
							"name": "value",
							"type": "uint256"
						}
					],
					"name": "Transfer",
					"type": "event"
				},
				{
					"inputs": [],
					"name": "DAI",
					"outputs": [
						{
							"internalType": "contract IERC20",
							"name": "",
							"type": "address"
						}
					],
					"stateMutability": "view",
					"type": "function"
				},
				{
					"inputs": [],
					"name": "NFT",
					"outputs": [
						{
							"internalType": "contract IERC721",
							"name": "",
							"type": "address"
						}
					],
					"stateMutability": "view",
					"type": "function"
				},
				{
					"inputs": [
						{
							"internalType": "address",
							"name": "owner",
							"type": "address"
						},
						{
							"internalType": "address",
							"name": "spender",
							"type": "address"
						}
					],
					"name": "allowance",
					"outputs": [
						{
							"internalType": "uint256",
							"name": "",
							"type": "uint256"
						}
					],
					"stateMutability": "view",
					"type": "function"
				},
				{
					"inputs": [
						{
							"internalType": "address",
							"name": "spender",
							"type": "address"
						},
						{
							"internalType": "uint256",
							"name": "amount",
							"type": "uint256"
						}
					],
					"name": "approve",
					"outputs": [
						{
							"internalType": "bool",
							"name": "",
							"type": "bool"
						}
					],
					"stateMutability": "nonpayable",
					"type": "function"
				},
				{
					"inputs": [
						{
							"internalType": "address",
							"name": "account",
							"type": "address"
						}
					],
					"name": "balanceOf",
					"outputs": [
						{
							"internalType": "uint256",
							"name": "",
							"type": "uint256"
						}
					],
					"stateMutability": "view",
					"type": "function"
				},
				{
					"inputs": [],
					"name": "decimals",
					"outputs": [
						{
							"internalType": "uint8",
							"name": "",
							"type": "uint8"
						}
					],
					"stateMutability": "view",
					"type": "function"
				},
				{
					"inputs": [
						{
							"internalType": "address",
							"name": "spender",
							"type": "address"
						},
						{
							"internalType": "uint256",
							"name": "subtractedValue",
							"type": "uint256"
						}
					],
					"name": "decreaseAllowance",
					"outputs": [
						{
							"internalType": "bool",
							"name": "",
							"type": "bool"
						}
					],
					"stateMutability": "nonpayable",
					"type": "function"
				},
				{
					"inputs": [
						{
							"internalType": "address",
							"name": "spender",
							"type": "address"
						},
						{
							"internalType": "uint256",
							"name": "addedValue",
							"type": "uint256"
						}
					],
					"name": "increaseAllowance",
					"outputs": [
						{
							"internalType": "bool",
							"name": "",
							"type": "bool"
						}
					],
					"stateMutability": "nonpayable",
					"type": "function"
				},
				{
					"inputs": [
						{
							"internalType": "uint256",
							"name": "value",
							"type": "uint256"
						}
					],
					"name": "invest",
					"outputs": [],
					"stateMutability": "nonpayable",
					"type": "function"
				},
				{
					"inputs": [],
					"name": "name",
					"outputs": [
						{
							"internalType": "string",
							"name": "",
							"type": "string"
						}
					],
					"stateMutability": "view",
					"type": "function"
				},
				{
					"inputs": [],
					"name": "symbol",
					"outputs": [
						{
							"internalType": "string",
							"name": "",
							"type": "string"
						}
					],
					"stateMutability": "view",
					"type": "function"
				},
				{
					"inputs": [],
					"name": "targetAmount",
					"outputs": [
						{
							"internalType": "uint256",
							"name": "",
							"type": "uint256"
						}
					],
					"stateMutability": "view",
					"type": "function"
				},
				{
					"inputs": [],
					"name": "totalSupply",
					"outputs": [
						{
							"internalType": "uint256",
							"name": "",
							"type": "uint256"
						}
					],
					"stateMutability": "view",
					"type": "function"
				},
				{
					"inputs": [
						{
							"internalType": "address",
							"name": "to",
							"type": "address"
						},
						{
							"internalType": "uint256",
							"name": "amount",
							"type": "uint256"
						}
					],
					"name": "transfer",
					"outputs": [
						{
							"internalType": "bool",
							"name": "",
							"type": "bool"
						}
					],
					"stateMutability": "nonpayable",
					"type": "function"
				},
				{
					"inputs": [
						{
							"internalType": "address",
							"name": "from",
							"type": "address"
						},
						{
							"internalType": "address",
							"name": "to",
							"type": "address"
						},
						{
							"internalType": "uint256",
							"name": "amount",
							"type": "uint256"
						}
					],
					"name": "transferFrom",
					"outputs": [
						{
							"internalType": "bool",
							"name": "",
							"type": "bool"
						}
					],
					"stateMutability": "nonpayable",
					"type": "function"
				},
				{
					"inputs": [
						{
							"internalType": "uint256",
							"name": "value",
							"type": "uint256"
						}
					],
					"name": "withdrawInvestment",
					"outputs": [],
					"stateMutability": "nonpayable",
					"type": "function"
				}
			],
			"devdoc": {
				"kind": "dev",
				"methods": {
					"allowance(address,address)": {
						"details": "See {IERC20-allowance}."
					},
					"approve(address,uint256)": {
						"details": "See {IERC20-approve}. NOTE: If `amount` is the maximum `uint256`, the allowance is not updated on `transferFrom`. This is semantically equivalent to an infinite approval. Requirements: - `spender` cannot be the zero address."
					},
					"balanceOf(address)": {
						"details": "See {IERC20-balanceOf}."
					},
					"decimals()": {
						"details": "Returns the number of decimals used to get its user representation. For example, if `decimals` equals `2`, a balance of `505` tokens should be displayed to a user as `5.05` (`505 / 10 ** 2`). Tokens usually opt for a value of 18, imitating the relationship between Ether and Wei. This is the value {ERC20} uses, unless this function is overridden; NOTE: This information is only used for _display_ purposes: it in no way affects any of the arithmetic of the contract, including {IERC20-balanceOf} and {IERC20-transfer}."
					},
					"decreaseAllowance(address,uint256)": {
						"details": "Atomically decreases the allowance granted to `spender` by the caller. This is an alternative to {approve} that can be used as a mitigation for problems described in {IERC20-approve}. Emits an {Approval} event indicating the updated allowance. Requirements: - `spender` cannot be the zero address. - `spender` must have allowance for the caller of at least `subtractedValue`."
					},
					"increaseAllowance(address,uint256)": {
						"details": "Atomically increases the allowance granted to `spender` by the caller. This is an alternative to {approve} that can be used as a mitigation for problems described in {IERC20-approve}. Emits an {Approval} event indicating the updated allowance. Requirements: - `spender` cannot be the zero address."
					},
					"name()": {
						"details": "Returns the name of the token."
					},
					"symbol()": {
						"details": "Returns the symbol of the token, usually a shorter version of the name."
					},
					"totalSupply()": {
						"details": "See {IERC20-totalSupply}."
					},
					"transfer(address,uint256)": {
						"details": "See {IERC20-transfer}. Requirements: - `to` cannot be the zero address. - the caller must have a balance of at least `amount`."
					},
					"transferFrom(address,address,uint256)": {
						"details": "See {IERC20-transferFrom}. Emits an {Approval} event indicating the updated allowance. This is not required by the EIP. See the note at the beginning of {ERC20}. NOTE: Does not update the allowance if the current allowance is the maximum `uint256`. Requirements: - `from` and `to` cannot be the zero address. - `from` must have a balance of at least `amount`. - the caller must have allowance for ``from``'s tokens of at least `amount`."
					}
				},
				"version": 1
			},
			"evm": {
				"assembly": "    /* \"Re-fungible_Tokens/contracts/AssetFundRaising.sol\":236:1402  contract AssetFundRaising is ERC20 {... */\n  mstore(0x40, 0xa0)\n    /* \"Re-fungible_Tokens/contracts/AssetFundRaising.sol\":564:781  constructor(uint256 amount, string memory name, string memory symbol, address daiAddress) ERC20(name, symbol) {... */\n  callvalue\n  dup1\n  iszero\n  tag_1\n  jumpi\n  0x00\n  dup1\n  revert\ntag_1:\n  pop\n  mload(0x40)\n  sub(codesize, bytecodeSize)\n  dup1\n  bytecodeSize\n  dup4\n  codecopy\n  dup2\n  add\n  0x40\n  dup2\n  swap1\n  mstore\n  tag_2\n  swap2\n  tag_3\n  jump\t// in\ntag_2:\n    /* \"@openzeppelin/contracts/token/ERC20/ERC20.sol\":2044:2057  _name = name_ */\n  dup3\n  mload\n    /* \"Re-fungible_Tokens/contracts/AssetFundRaising.sol\":660:664  name */\n  dup4\n  swap1\n    /* \"Re-fungible_Tokens/contracts/AssetFundRaising.sol\":666:672  symbol */\n  dup4\n  swap1\n    /* \"@openzeppelin/contracts/token/ERC20/ERC20.sol\":2044:2057  _name = name_ */\n  tag_7\n  swap1\n    /* \"@openzeppelin/contracts/token/ERC20/ERC20.sol\":2044:2049  _name */\n  0x03\n  swap1\n    /* \"@openzeppelin/contracts/token/ERC20/ERC20.sol\":2044:2057  _name = name_ */\n  0x20\n  dup6\n  add\n  swap1\n  tag_8\n  jump\t// in\ntag_7:\n  pop\n    /* \"@openzeppelin/contracts/token/ERC20/ERC20.sol\":2067:2084  _symbol = symbol_ */\n  dup1\n  mload\n  tag_9\n  swap1\n    /* \"@openzeppelin/contracts/token/ERC20/ERC20.sol\":2067:2074  _symbol */\n  0x04\n  swap1\n    /* \"@openzeppelin/contracts/token/ERC20/ERC20.sol\":2067:2084  _symbol = symbol_ */\n  0x20\n  dup5\n  add\n  swap1\n  tag_8\n  jump\t// in\ntag_9:\n  pop\n  pop\n  pop\n    /* \"Re-fungible_Tokens/contracts/AssetFundRaising.sol\":684:696  targetAmount */\n  0x06\n    /* \"Re-fungible_Tokens/contracts/AssetFundRaising.sol\":684:705  targetAmount = amount */\n  swap4\n  swap1\n  swap4\n  sstore\n  pop\n  pop\n    /* \"Re-fungible_Tokens/contracts/AssetFundRaising.sol\":715:718  DAI */\n  0x05\n    /* \"Re-fungible_Tokens/contracts/AssetFundRaising.sol\":715:739  DAI = IERC20(daiAddress) */\n  dup1\n  sload\n  not(sub(shl(0xa0, 0x01), 0x01))\n  and\n  sub(shl(0xa0, 0x01), 0x01)\n  swap1\n  swap3\n  and\n  swap2\n  swap1\n  swap2\n  or\n  swap1\n  sstore\n    /* \"Re-fungible_Tokens/contracts/AssetFundRaising.sol\":763:773  msg.sender */\n  caller\n    /* \"Re-fungible_Tokens/contracts/AssetFundRaising.sol\":749:774  NFT = IERC721(msg.sender) */\n  0x60\n  shl\n  0x80\n  mstore\n    /* \"Re-fungible_Tokens/contracts/AssetFundRaising.sol\":236:1402  contract AssetFundRaising is ERC20 {... */\n  jump(tag_23)\ntag_8:\n  dup3\n  dup1\n  sload\n  tag_12\n  swap1\n  tag_13\n  jump\t// in\ntag_12:\n  swap1\n  0x00\n  mstore\n  keccak256(0x00, 0x20)\n  swap1\n  0x1f\n  add\n  0x20\n  swap1\n  div\n  dup2\n  add\n  swap3\n  dup3\n  tag_15\n  jumpi\n  0x00\n  dup6\n  sstore\n  jump(tag_18)\ntag_15:\n  dup3\n  0x1f\n  lt\n  tag_16\n  jumpi\n  dup1\n  mload\n  not(0xff)\n  and\n  dup4\n  dup1\n  add\n  or\n  dup6\n  sstore\n  jump(tag_18)\ntag_16:\n  dup3\n  dup1\n  add\n  0x01\n  add\n  dup6\n  sstore\n  dup3\n  iszero\n  tag_18\n  jumpi\n  swap2\n  dup3\n  add\ntag_17:\n  dup3\n  dup2\n  gt\n  iszero\n  tag_18\n  jumpi\n  dup3\n  mload\n  dup3\n  sstore\n  swap2\n  0x20\n  add\n  swap2\n  swap1\n  0x01\n  add\n  swap1\n  jump(tag_17)\ntag_18:\n  pop\n  tag_19\n  swap3\n  swap2\n  pop\n  tag_20\n  jump\t// in\ntag_19:\n  pop\n  swap1\n  jump\t// out\ntag_20:\ntag_21:\n  dup1\n  dup3\n  gt\n  iszero\n  tag_19\n  jumpi\n  0x00\n  dup2\n  sstore\n  0x01\n  add\n  jump(tag_21)\n    /* \"#utility.yul\":14:899   */\ntag_24:\n    /* \"#utility.yul\":68:73   */\n  0x00\n    /* \"#utility.yul\":121:124   */\n  dup3\n    /* \"#utility.yul\":114:118   */\n  0x1f\n    /* \"#utility.yul\":106:112   */\n  dup4\n    /* \"#utility.yul\":102:119   */\n  add\n    /* \"#utility.yul\":98:125   */\n  slt\n    /* \"#utility.yul\":88:143   */\n  tag_26\n  jumpi\n    /* \"#utility.yul\":139:140   */\n  0x00\n    /* \"#utility.yul\":136:137   */\n  dup1\n    /* \"#utility.yul\":129:141   */\n  revert\n    /* \"#utility.yul\":88:143   */\ntag_26:\n    /* \"#utility.yul\":162:175   */\n  dup2\n  mload\n  sub(shl(0x40, 0x01), 0x01)\n    /* \"#utility.yul\":224:234   */\n  dup1\n  dup3\n  gt\n    /* \"#utility.yul\":221:257   */\n  iszero\n  tag_28\n  jumpi\n    /* \"#utility.yul\":237:255   */\n  tag_28\n  tag_29\n  jump\t// in\ntag_28:\n    /* \"#utility.yul\":312:314   */\n  0x40\n    /* \"#utility.yul\":306:315   */\n  mload\n    /* \"#utility.yul\":280:282   */\n  0x1f\n    /* \"#utility.yul\":366:379   */\n  dup4\n  add\n  not(0x1f)\n    /* \"#utility.yul\":362:384   */\n  swap1\n  dup2\n  and\n    /* \"#utility.yul\":386:388   */\n  0x3f\n    /* \"#utility.yul\":358:389   */\n  add\n    /* \"#utility.yul\":354:394   */\n  and\n    /* \"#utility.yul\":342:395   */\n  dup2\n  add\n  swap1\n    /* \"#utility.yul\":410:428   */\n  dup3\n  dup3\n  gt\n    /* \"#utility.yul\":430:452   */\n  dup2\n  dup4\n  lt\n    /* \"#utility.yul\":407:453   */\n  or\n    /* \"#utility.yul\":404:476   */\n  iszero\n  tag_31\n  jumpi\n    /* \"#utility.yul\":456:474   */\n  tag_31\n  tag_29\n  jump\t// in\ntag_31:\n    /* \"#utility.yul\":496:506   */\n  dup2\n    /* \"#utility.yul\":492:494   */\n  0x40\n    /* \"#utility.yul\":485:507   */\n  mstore\n    /* \"#utility.yul\":531:533   */\n  dup4\n    /* \"#utility.yul\":523:529   */\n  dup2\n    /* \"#utility.yul\":516:534   */\n  mstore\n    /* \"#utility.yul\":553:557   */\n  0x20\n    /* \"#utility.yul\":543:557   */\n  swap3\n  pop\n    /* \"#utility.yul\":598:601   */\n  dup7\n    /* \"#utility.yul\":593:595   */\n  dup4\n    /* \"#utility.yul\":588:590   */\n  dup6\n    /* \"#utility.yul\":580:586   */\n  dup9\n    /* \"#utility.yul\":576:591   */\n  add\n    /* \"#utility.yul\":572:596   */\n  add\n    /* \"#utility.yul\":569:602   */\n  gt\n    /* \"#utility.yul\":566:619   */\n  iszero\n  tag_32\n  jumpi\n    /* \"#utility.yul\":615:616   */\n  0x00\n    /* \"#utility.yul\":612:613   */\n  dup1\n    /* \"#utility.yul\":605:617   */\n  revert\n    /* \"#utility.yul\":566:619   */\ntag_32:\n    /* \"#utility.yul\":637:638   */\n  0x00\n    /* \"#utility.yul\":628:638   */\n  swap2\n  pop\n    /* \"#utility.yul\":647:780   */\ntag_33:\n    /* \"#utility.yul\":661:663   */\n  dup4\n    /* \"#utility.yul\":658:659   */\n  dup3\n    /* \"#utility.yul\":655:664   */\n  lt\n    /* \"#utility.yul\":647:780   */\n  iszero\n  tag_35\n  jumpi\n    /* \"#utility.yul\":749:763   */\n  dup6\n  dup3\n  add\n    /* \"#utility.yul\":745:768   */\n  dup4\n  add\n    /* \"#utility.yul\":739:769   */\n  mload\n    /* \"#utility.yul\":718:732   */\n  dup2\n  dup4\n  add\n    /* \"#utility.yul\":714:737   */\n  dup5\n  add\n    /* \"#utility.yul\":707:770   */\n  mstore\n    /* \"#utility.yul\":672:682   */\n  swap1\n  dup3\n  add\n  swap1\n    /* \"#utility.yul\":647:780   */\n  jump(tag_33)\ntag_35:\n    /* \"#utility.yul\":798:800   */\n  dup4\n    /* \"#utility.yul\":795:796   */\n  dup3\n    /* \"#utility.yul\":792:801   */\n  gt\n    /* \"#utility.yul\":789:869   */\n  iszero\n  tag_36\n  jumpi\n    /* \"#utility.yul\":857:858   */\n  0x00\n    /* \"#utility.yul\":852:854   */\n  dup4\n    /* \"#utility.yul\":847:849   */\n  dup6\n    /* \"#utility.yul\":839:845   */\n  dup4\n    /* \"#utility.yul\":835:850   */\n  add\n    /* \"#utility.yul\":831:855   */\n  add\n    /* \"#utility.yul\":824:859   */\n  mstore\n    /* \"#utility.yul\":789:869   */\ntag_36:\n    /* \"#utility.yul\":887:893   */\n  swap7\n    /* \"#utility.yul\":14:899   */\n  swap6\n  pop\n  pop\n  pop\n  pop\n  pop\n  pop\n  jump\t// out\n    /* \"#utility.yul\":904:1695   */\ntag_3:\n    /* \"#utility.yul\":1021:1027   */\n  0x00\n    /* \"#utility.yul\":1029:1035   */\n  dup1\n    /* \"#utility.yul\":1037:1043   */\n  0x00\n    /* \"#utility.yul\":1045:1051   */\n  dup1\n    /* \"#utility.yul\":1098:1101   */\n  0x80\n    /* \"#utility.yul\":1086:1095   */\n  dup6\n    /* \"#utility.yul\":1077:1084   */\n  dup8\n    /* \"#utility.yul\":1073:1096   */\n  sub\n    /* \"#utility.yul\":1069:1102   */\n  slt\n    /* \"#utility.yul\":1066:1119   */\n  iszero\n  tag_38\n  jumpi\n    /* \"#utility.yul\":1115:1116   */\n  0x00\n    /* \"#utility.yul\":1112:1113   */\n  dup1\n    /* \"#utility.yul\":1105:1117   */\n  revert\n    /* \"#utility.yul\":1066:1119   */\ntag_38:\n    /* \"#utility.yul\":1138:1154   */\n  dup5\n  mload\n    /* \"#utility.yul\":1198:1200   */\n  0x20\n    /* \"#utility.yul\":1183:1201   */\n  dup7\n  add\n    /* \"#utility.yul\":1177:1202   */\n  mload\n    /* \"#utility.yul\":1138:1154   */\n  swap1\n  swap5\n  pop\n  sub(shl(0x40, 0x01), 0x01)\n    /* \"#utility.yul\":1251:1265   */\n  dup1\n  dup3\n  gt\n    /* \"#utility.yul\":1248:1282   */\n  iszero\n  tag_39\n  jumpi\n    /* \"#utility.yul\":1278:1279   */\n  0x00\n    /* \"#utility.yul\":1275:1276   */\n  dup1\n    /* \"#utility.yul\":1268:1280   */\n  revert\n    /* \"#utility.yul\":1248:1282   */\ntag_39:\n    /* \"#utility.yul\":1301:1362   */\n  tag_40\n    /* \"#utility.yul\":1354:1361   */\n  dup9\n    /* \"#utility.yul\":1345:1351   */\n  dup4\n    /* \"#utility.yul\":1334:1343   */\n  dup10\n    /* \"#utility.yul\":1330:1352   */\n  add\n    /* \"#utility.yul\":1301:1362   */\n  tag_24\n  jump\t// in\ntag_40:\n    /* \"#utility.yul\":1291:1362   */\n  swap5\n  pop\n    /* \"#utility.yul\":1408:1410   */\n  0x40\n    /* \"#utility.yul\":1397:1406   */\n  dup8\n    /* \"#utility.yul\":1393:1411   */\n  add\n    /* \"#utility.yul\":1387:1412   */\n  mload\n    /* \"#utility.yul\":1371:1412   */\n  swap2\n  pop\n    /* \"#utility.yul\":1437:1439   */\n  dup1\n    /* \"#utility.yul\":1427:1435   */\n  dup3\n    /* \"#utility.yul\":1424:1440   */\n  gt\n    /* \"#utility.yul\":1421:1457   */\n  iszero\n  tag_41\n  jumpi\n    /* \"#utility.yul\":1453:1454   */\n  0x00\n    /* \"#utility.yul\":1450:1451   */\n  dup1\n    /* \"#utility.yul\":1443:1455   */\n  revert\n    /* \"#utility.yul\":1421:1457   */\ntag_41:\n  pop\n    /* \"#utility.yul\":1476:1539   */\n  tag_42\n    /* \"#utility.yul\":1531:1538   */\n  dup8\n    /* \"#utility.yul\":1520:1528   */\n  dup3\n    /* \"#utility.yul\":1509:1518   */\n  dup9\n    /* \"#utility.yul\":1505:1529   */\n  add\n    /* \"#utility.yul\":1476:1539   */\n  tag_24\n  jump\t// in\ntag_42:\n    /* \"#utility.yul\":1582:1584   */\n  0x60\n    /* \"#utility.yul\":1567:1585   */\n  dup8\n  add\n    /* \"#utility.yul\":1561:1586   */\n  mload\n    /* \"#utility.yul\":1466:1539   */\n  swap1\n  swap4\n  pop\n    /* \"#utility.yul\":1561:1586   */\n  swap1\n  pop\n  sub(shl(0xa0, 0x01), 0x01)\n    /* \"#utility.yul\":1615:1646   */\n  dup2\n  and\n    /* \"#utility.yul\":1605:1647   */\n  dup2\n  eq\n    /* \"#utility.yul\":1595:1665   */\n  tag_43\n  jumpi\n    /* \"#utility.yul\":1661:1662   */\n  0x00\n    /* \"#utility.yul\":1658:1659   */\n  dup1\n    /* \"#utility.yul\":1651:1663   */\n  revert\n    /* \"#utility.yul\":1595:1665   */\ntag_43:\n    /* \"#utility.yul\":904:1695   */\n  swap4\n  swap7\n  swap3\n  swap6\n  pop\n  swap1\n  swap4\n  pop\n  pop\n  jump\t// out\n    /* \"#utility.yul\":1700:2080   */\ntag_13:\n    /* \"#utility.yul\":1779:1780   */\n  0x01\n    /* \"#utility.yul\":1775:1787   */\n  dup2\n  dup2\n  shr\n  swap1\n    /* \"#utility.yul\":1822:1834   */\n  dup3\n  and\n  dup1\n    /* \"#utility.yul\":1843:1904   */\n  tag_45\n  jumpi\n    /* \"#utility.yul\":1897:1901   */\n  0x7f\n    /* \"#utility.yul\":1889:1895   */\n  dup3\n    /* \"#utility.yul\":1885:1902   */\n  and\n    /* \"#utility.yul\":1875:1902   */\n  swap2\n  pop\n    /* \"#utility.yul\":1843:1904   */\ntag_45:\n    /* \"#utility.yul\":1950:1952   */\n  0x20\n    /* \"#utility.yul\":1942:1948   */\n  dup3\n    /* \"#utility.yul\":1939:1953   */\n  lt\n    /* \"#utility.yul\":1919:1937   */\n  dup2\n    /* \"#utility.yul\":1916:1954   */\n  eq\n    /* \"#utility.yul\":1913:2074   */\n  iszero\n  tag_46\n  jumpi\n    /* \"#utility.yul\":1996:2006   */\n  0x4e487b71\n    /* \"#utility.yul\":1991:1994   */\n  0xe0\n    /* \"#utility.yul\":1987:2007   */\n  shl\n    /* \"#utility.yul\":1984:1985   */\n  0x00\n    /* \"#utility.yul\":1977:2008   */\n  mstore\n    /* \"#utility.yul\":2031:2035   */\n  0x22\n    /* \"#utility.yul\":2028:2029   */\n  0x04\n    /* \"#utility.yul\":2021:2036   */\n  mstore\n    /* \"#utility.yul\":2059:2063   */\n  0x24\n    /* \"#utility.yul\":2056:2057   */\n  0x00\n    /* \"#utility.yul\":2049:2064   */\n  revert\n    /* \"#utility.yul\":1913:2074   */\ntag_46:\n  pop\n    /* \"#utility.yul\":1700:2080   */\n  swap2\n  swap1\n  pop\n  jump\t// out\n    /* \"#utility.yul\":2085:2212   */\ntag_29:\n    /* \"#utility.yul\":2146:2156   */\n  0x4e487b71\n    /* \"#utility.yul\":2141:2144   */\n  0xe0\n    /* \"#utility.yul\":2137:2157   */\n  shl\n    /* \"#utility.yul\":2134:2135   */\n  0x00\n    /* \"#utility.yul\":2127:2158   */\n  mstore\n    /* \"#utility.yul\":2177:2181   */\n  0x41\n    /* \"#utility.yul\":2174:2175   */\n  0x04\n    /* \"#utility.yul\":2167:2182   */\n  mstore\n    /* \"#utility.yul\":2201:2205   */\n  0x24\n    /* \"#utility.yul\":2198:2199   */\n  0x00\n    /* \"#utility.yul\":2191:2206   */\n  revert\n    /* \"#utility.yul\":2085:2212   */\ntag_23:\n    /* \"Re-fungible_Tokens/contracts/AssetFundRaising.sol\":236:1402  contract AssetFundRaising is ERC20 {... */\n  shr(0x60, mload(0x80))\n  codecopy(0x00, dataOffset(sub_0), dataSize(sub_0))\n  0x00\n  assignImmutable(\"0xceebc1e79b37113a3784d9bbf48b7ad015159a0fad39f370ddaba6e9581bdbc5\")\n  return(0x00, dataSize(sub_0))\nstop\n\nsub_0: assembly {\n        /* \"Re-fungible_Tokens/contracts/AssetFundRaising.sol\":236:1402  contract AssetFundRaising is ERC20 {... */\n      mstore(0x40, 0x80)\n      callvalue\n      dup1\n      iszero\n      tag_1\n      jumpi\n      0x00\n      dup1\n      revert\n    tag_1:\n      pop\n      jumpi(tag_2, lt(calldatasize, 0x04))\n      shr(0xe0, calldataload(0x00))\n      dup1\n      0x70a08231\n      gt\n      tag_19\n      jumpi\n      dup1\n      0xa457c2d7\n      gt\n      tag_20\n      jumpi\n      dup1\n      0xa457c2d7\n      eq\n      tag_15\n      jumpi\n      dup1\n      0xa9059cbb\n      eq\n      tag_16\n      jumpi\n      dup1\n      0xdd62ed3e\n      eq\n      tag_17\n      jumpi\n      dup1\n      0xe0bab4c4\n      eq\n      tag_18\n      jumpi\n      0x00\n      dup1\n      revert\n    tag_20:\n      dup1\n      0x70a08231\n      eq\n      tag_11\n      jumpi\n      dup1\n      0x7c0b8de2\n      eq\n      tag_12\n      jumpi\n      dup1\n      0x953b8fb8\n      eq\n      tag_13\n      jumpi\n      dup1\n      0x95d89b41\n      eq\n      tag_14\n      jumpi\n      0x00\n      dup1\n      revert\n    tag_19:\n      dup1\n      0x23b872dd\n      gt\n      tag_21\n      jumpi\n      dup1\n      0x23b872dd\n      eq\n      tag_7\n      jumpi\n      dup1\n      0x2afcf480\n      eq\n      tag_8\n      jumpi\n      dup1\n      0x313ce567\n      eq\n      tag_9\n      jumpi\n      dup1\n      0x39509351\n      eq\n      tag_10\n      jumpi\n      0x00\n      dup1\n      revert\n    tag_21:\n      dup1\n      0x06fdde03\n      eq\n      tag_3\n      jumpi\n      dup1\n      0x095ea7b3\n      eq\n      tag_4\n      jumpi\n      dup1\n      0x18160ddd\n      eq\n      tag_5\n      jumpi\n      dup1\n      0x2037fcbf\n      eq\n      tag_6\n      jumpi\n    tag_2:\n      0x00\n      dup1\n      revert\n        /* \"@openzeppelin/contracts/token/ERC20/ERC20.sol\":2156:2254  function name() public view virtual override returns (string memory) {... */\n    tag_3:\n      tag_22\n      tag_23\n      jump\t// in\n    tag_22:\n      mload(0x40)\n      tag_24\n      swap2\n      swap1\n      tag_25\n      jump\t// in\n    tag_24:\n      mload(0x40)\n      dup1\n      swap2\n      sub\n      swap1\n      return\n        /* \"@openzeppelin/contracts/token/ERC20/ERC20.sol\":4433:4630  function approve(address spender, uint256 amount) public virtual override returns (bool) {... */\n    tag_4:\n      tag_26\n      tag_27\n      calldatasize\n      0x04\n      tag_28\n      jump\t// in\n    tag_27:\n      tag_29\n      jump\t// in\n    tag_26:\n      mload(0x40)\n        /* \"#utility.yul\":2987:3001   */\n      swap1\n      iszero\n        /* \"#utility.yul\":2980:3002   */\n      iszero\n        /* \"#utility.yul\":2962:3003   */\n      dup2\n      mstore\n        /* \"#utility.yul\":2950:2952   */\n      0x20\n        /* \"#utility.yul\":2935:2953   */\n      add\n        /* \"@openzeppelin/contracts/token/ERC20/ERC20.sol\":4433:4630  function approve(address spender, uint256 amount) public virtual override returns (bool) {... */\n      tag_24\n        /* \"#utility.yul\":2822:3009   */\n      jump\n        /* \"@openzeppelin/contracts/token/ERC20/ERC20.sol\":3244:3350  function totalSupply() public view virtual override returns (uint256) {... */\n    tag_5:\n        /* \"@openzeppelin/contracts/token/ERC20/ERC20.sol\":3331:3343  _totalSupply */\n      sload(0x02)\n        /* \"@openzeppelin/contracts/token/ERC20/ERC20.sol\":3244:3350  function totalSupply() public view virtual override returns (uint256) {... */\n    tag_32:\n      mload(0x40)\n        /* \"#utility.yul\":8868:8893   */\n      swap1\n      dup2\n      mstore\n        /* \"#utility.yul\":8856:8858   */\n      0x20\n        /* \"#utility.yul\":8841:8859   */\n      add\n        /* \"@openzeppelin/contracts/token/ERC20/ERC20.sol\":3244:3350  function totalSupply() public view virtual override returns (uint256) {... */\n      tag_24\n        /* \"#utility.yul\":8722:8899   */\n      jump\n        /* \"Re-fungible_Tokens/contracts/AssetFundRaising.sol\":1187:1400  function withdrawInvestment(uint256 value) external {... */\n    tag_6:\n      tag_36\n      tag_37\n      calldatasize\n      0x04\n      tag_38\n      jump\t// in\n    tag_37:\n      tag_39\n      jump\t// in\n    tag_36:\n      stop\n        /* \"@openzeppelin/contracts/token/ERC20/ERC20.sol\":5192:5478  function transferFrom(... */\n    tag_7:\n      tag_26\n      tag_41\n      calldatasize\n      0x04\n      tag_42\n      jump\t// in\n    tag_41:\n      tag_43\n      jump\t// in\n        /* \"Re-fungible_Tokens/contracts/AssetFundRaising.sol\":787:1181  function invest(uint256 value) external {... */\n    tag_8:\n      tag_36\n      tag_46\n      calldatasize\n      0x04\n      tag_38\n      jump\t// in\n    tag_46:\n      tag_47\n      jump\t// in\n        /* \"@openzeppelin/contracts/token/ERC20/ERC20.sol\":3093:3184  function decimals() public view virtual override returns (uint8) {... */\n    tag_9:\n      mload(0x40)\n        /* \"@openzeppelin/contracts/token/ERC20/ERC20.sol\":3175:3177  18 */\n      0x12\n        /* \"#utility.yul\":9046:9082   */\n      dup2\n      mstore\n        /* \"#utility.yul\":9034:9036   */\n      0x20\n        /* \"#utility.yul\":9019:9037   */\n      add\n        /* \"@openzeppelin/contracts/token/ERC20/ERC20.sol\":3093:3184  function decimals() public view virtual override returns (uint8) {... */\n      tag_24\n        /* \"#utility.yul\":8904:9088   */\n      jump\n        /* \"@openzeppelin/contracts/token/ERC20/ERC20.sol\":5873:6107  function increaseAllowance(address spender, uint256 addedValue) public virtual returns (bool) {... */\n    tag_10:\n      tag_26\n      tag_53\n      calldatasize\n      0x04\n      tag_28\n      jump\t// in\n    tag_53:\n      tag_54\n      jump\t// in\n        /* \"@openzeppelin/contracts/token/ERC20/ERC20.sol\":3408:3533  function balanceOf(address account) public view virtual override returns (uint256) {... */\n    tag_11:\n      tag_32\n      tag_57\n      calldatasize\n      0x04\n      tag_58\n      jump\t// in\n    tag_57:\n      sub(shl(0xa0, 0x01), 0x01)\n        /* \"@openzeppelin/contracts/token/ERC20/ERC20.sol\":3508:3526  _balances[account] */\n      and\n        /* \"@openzeppelin/contracts/token/ERC20/ERC20.sol\":3482:3489  uint256 */\n      0x00\n        /* \"@openzeppelin/contracts/token/ERC20/ERC20.sol\":3508:3526  _balances[account] */\n      swap1\n      dup2\n      mstore\n      0x20\n      dup2\n      swap1\n      mstore\n      0x40\n      swap1\n      keccak256\n      sload\n      swap1\n        /* \"@openzeppelin/contracts/token/ERC20/ERC20.sol\":3408:3533  function balanceOf(address account) public view virtual override returns (uint256) {... */\n      jump\n        /* \"Re-fungible_Tokens/contracts/AssetFundRaising.sol\":410:438  IERC721 public immutable NFT */\n    tag_12:\n      tag_61\n      immutable(\"0xceebc1e79b37113a3784d9bbf48b7ad015159a0fad39f370ddaba6e9581bdbc5\")\n      dup2\n      jump\n    tag_61:\n      mload(0x40)\n      sub(shl(0xa0, 0x01), 0x01)\n        /* \"#utility.yul\":3192:3224   */\n      swap1\n      swap2\n      and\n        /* \"#utility.yul\":3174:3225   */\n      dup2\n      mstore\n        /* \"#utility.yul\":3162:3164   */\n      0x20\n        /* \"#utility.yul\":3147:3165   */\n      add\n        /* \"Re-fungible_Tokens/contracts/AssetFundRaising.sol\":410:438  IERC721 public immutable NFT */\n      tag_24\n        /* \"#utility.yul\":3014:3231   */\n      jump\n        /* \"Re-fungible_Tokens/contracts/AssetFundRaising.sol\":493:520  uint256 public targetAmount */\n    tag_13:\n      tag_32\n      sload(0x06)\n      dup2\n      jump\n        /* \"@openzeppelin/contracts/token/ERC20/ERC20.sol\":2367:2469  function symbol() public view virtual override returns (string memory) {... */\n    tag_14:\n      tag_22\n      tag_69\n      jump\t// in\n        /* \"@openzeppelin/contracts/token/ERC20/ERC20.sol\":6594:7021  function decreaseAllowance(address spender, uint256 subtractedValue) public virtual returns (bool) {... */\n    tag_15:\n      tag_26\n      tag_72\n      calldatasize\n      0x04\n      tag_28\n      jump\t// in\n    tag_72:\n      tag_73\n      jump\t// in\n        /* \"@openzeppelin/contracts/token/ERC20/ERC20.sol\":3729:3918  function transfer(address to, uint256 amount) public virtual override returns (bool) {... */\n    tag_16:\n      tag_26\n      tag_76\n      calldatasize\n      0x04\n      tag_28\n      jump\t// in\n    tag_76:\n      tag_77\n      jump\t// in\n        /* \"@openzeppelin/contracts/token/ERC20/ERC20.sol\":3976:4125  function allowance(address owner, address spender) public view virtual override returns (uint256) {... */\n    tag_17:\n      tag_32\n      tag_80\n      calldatasize\n      0x04\n      tag_81\n      jump\t// in\n    tag_80:\n      tag_82\n      jump\t// in\n        /* \"Re-fungible_Tokens/contracts/AssetFundRaising.sol\":387:404  IERC20 public DAI */\n    tag_18:\n      sload(0x05)\n      tag_61\n      swap1\n      sub(shl(0xa0, 0x01), 0x01)\n      and\n      dup2\n      jump\n        /* \"@openzeppelin/contracts/token/ERC20/ERC20.sol\":2156:2254  function name() public view virtual override returns (string memory) {... */\n    tag_23:\n        /* \"@openzeppelin/contracts/token/ERC20/ERC20.sol\":2210:2223  string memory */\n      0x60\n        /* \"@openzeppelin/contracts/token/ERC20/ERC20.sol\":2242:2247  _name */\n      0x03\n        /* \"@openzeppelin/contracts/token/ERC20/ERC20.sol\":2235:2247  return _name */\n      dup1\n      sload\n      tag_89\n      swap1\n      tag_90\n      jump\t// in\n    tag_89:\n      dup1\n      0x1f\n      add\n      0x20\n      dup1\n      swap2\n      div\n      mul\n      0x20\n      add\n      mload(0x40)\n      swap1\n      dup2\n      add\n      0x40\n      mstore\n      dup1\n      swap3\n      swap2\n      swap1\n      dup2\n      dup2\n      mstore\n      0x20\n      add\n      dup3\n      dup1\n      sload\n      tag_91\n      swap1\n      tag_90\n      jump\t// in\n    tag_91:\n      dup1\n      iszero\n      tag_92\n      jumpi\n      dup1\n      0x1f\n      lt\n      tag_93\n      jumpi\n      0x0100\n      dup1\n      dup4\n      sload\n      div\n      mul\n      dup4\n      mstore\n      swap2\n      0x20\n      add\n      swap2\n      jump(tag_92)\n    tag_93:\n      dup3\n      add\n      swap2\n      swap1\n      0x00\n      mstore\n      keccak256(0x00, 0x20)\n      swap1\n    tag_94:\n      dup2\n      sload\n      dup2\n      mstore\n      swap1\n      0x01\n      add\n      swap1\n      0x20\n      add\n      dup1\n      dup4\n      gt\n      tag_94\n      jumpi\n      dup3\n      swap1\n      sub\n      0x1f\n      and\n      dup3\n      add\n      swap2\n    tag_92:\n      pop\n      pop\n      pop\n      pop\n      pop\n      swap1\n      pop\n        /* \"@openzeppelin/contracts/token/ERC20/ERC20.sol\":2156:2254  function name() public view virtual override returns (string memory) {... */\n      swap1\n      jump\t// out\n        /* \"@openzeppelin/contracts/token/ERC20/ERC20.sol\":4433:4630  function approve(address spender, uint256 amount) public virtual override returns (bool) {... */\n    tag_29:\n        /* \"@openzeppelin/contracts/token/ERC20/ERC20.sol\":4516:4520  bool */\n      0x00\n        /* \"@openzeppelin/contracts/utils/Context.sol\":719:729  msg.sender */\n      caller\n        /* \"@openzeppelin/contracts/token/ERC20/ERC20.sol\":4570:4602  _approve(owner, spender, amount) */\n      tag_98\n        /* \"@openzeppelin/contracts/utils/Context.sol\":719:729  msg.sender */\n      dup2\n        /* \"@openzeppelin/contracts/token/ERC20/ERC20.sol\":4586:4593  spender */\n      dup6\n        /* \"@openzeppelin/contracts/token/ERC20/ERC20.sol\":4595:4601  amount */\n      dup6\n        /* \"@openzeppelin/contracts/token/ERC20/ERC20.sol\":4570:4578  _approve */\n      tag_99\n        /* \"@openzeppelin/contracts/token/ERC20/ERC20.sol\":4570:4602  _approve(owner, spender, amount) */\n      jump\t// in\n    tag_98:\n      pop\n        /* \"@openzeppelin/contracts/token/ERC20/ERC20.sol\":4619:4623  true */\n      0x01\n      swap4\n        /* \"@openzeppelin/contracts/token/ERC20/ERC20.sol\":4433:4630  function approve(address spender, uint256 amount) public virtual override returns (bool) {... */\n      swap3\n      pop\n      pop\n      pop\n      jump\t// out\n        /* \"Re-fungible_Tokens/contracts/AssetFundRaising.sol\":1187:1400  function withdrawInvestment(uint256 value) external {... */\n    tag_39:\n        /* \"Re-fungible_Tokens/contracts/AssetFundRaising.sol\":1276:1286  msg.sender */\n      caller\n        /* \"@openzeppelin/contracts/token/ERC20/ERC20.sol\":3482:3489  uint256 */\n      0x00\n        /* \"@openzeppelin/contracts/token/ERC20/ERC20.sol\":3508:3526  _balances[account] */\n      swap1\n      dup2\n      mstore\n      0x20\n      dup2\n      swap1\n      mstore\n      0x40\n      swap1\n      keccak256\n      sload\n        /* \"Re-fungible_Tokens/contracts/AssetFundRaising.sol\":1257:1262  value */\n      dup2\n        /* \"Re-fungible_Tokens/contracts/AssetFundRaising.sol\":1257:1287  value <= balanceOf(msg.sender) */\n      gt\n      iszero\n        /* \"Re-fungible_Tokens/contracts/AssetFundRaising.sol\":1249:1318  require(value <= balanceOf(msg.sender), \"Not enough shares balance!\") */\n      tag_103\n      jumpi\n      mload(0x40)\n      shl(0xe5, 0x461bcd)\n      dup2\n      mstore\n        /* \"#utility.yul\":6590:6592   */\n      0x20\n        /* \"Re-fungible_Tokens/contracts/AssetFundRaising.sol\":1249:1318  require(value <= balanceOf(msg.sender), \"Not enough shares balance!\") */\n      0x04\n      dup3\n      add\n        /* \"#utility.yul\":6572:6593   */\n      mstore\n        /* \"#utility.yul\":6629:6631   */\n      0x1a\n        /* \"#utility.yul\":6609:6627   */\n      0x24\n      dup3\n      add\n        /* \"#utility.yul\":6602:6632   */\n      mstore\n        /* \"#utility.yul\":6668:6696   */\n      0x4e6f7420656e6f756768207368617265732062616c616e636521000000000000\n        /* \"#utility.yul\":6648:6666   */\n      0x44\n      dup3\n      add\n        /* \"#utility.yul\":6641:6697   */\n      mstore\n        /* \"#utility.yul\":6714:6732   */\n      0x64\n      add\n        /* \"Re-fungible_Tokens/contracts/AssetFundRaising.sol\":1249:1318  require(value <= balanceOf(msg.sender), \"Not enough shares balance!\") */\n    tag_104:\n      mload(0x40)\n      dup1\n      swap2\n      sub\n      swap1\n      revert\n    tag_103:\n        /* \"Re-fungible_Tokens/contracts/AssetFundRaising.sol\":1328:1331  DAI */\n      sload(0x05)\n        /* \"Re-fungible_Tokens/contracts/AssetFundRaising.sol\":1328:1359  DAI.transfer(msg.sender, value) */\n      mload(0x40)\n      shl(0xe0, 0xa9059cbb)\n      dup2\n      mstore\n        /* \"Re-fungible_Tokens/contracts/AssetFundRaising.sol\":1341:1351  msg.sender */\n      caller\n        /* \"Re-fungible_Tokens/contracts/AssetFundRaising.sol\":1328:1359  DAI.transfer(msg.sender, value) */\n      0x04\n      dup3\n      add\n        /* \"#utility.yul\":2717:2768   */\n      mstore\n        /* \"#utility.yul\":2784:2802   */\n      0x24\n      dup2\n      add\n        /* \"#utility.yul\":2777:2811   */\n      dup4\n      swap1\n      mstore\n      sub(shl(0xa0, 0x01), 0x01)\n        /* \"Re-fungible_Tokens/contracts/AssetFundRaising.sol\":1328:1331  DAI */\n      swap1\n      swap2\n      and\n      swap1\n        /* \"Re-fungible_Tokens/contracts/AssetFundRaising.sol\":1328:1340  DAI.transfer */\n      0xa9059cbb\n      swap1\n        /* \"#utility.yul\":2690:2708   */\n      0x44\n      add\n        /* \"Re-fungible_Tokens/contracts/AssetFundRaising.sol\":1328:1359  DAI.transfer(msg.sender, value) */\n      0x20\n      mload(0x40)\n      dup1\n      dup4\n      sub\n      dup2\n      0x00\n      dup8\n      dup1\n      extcodesize\n      iszero\n      dup1\n      iszero\n      tag_108\n      jumpi\n      0x00\n      dup1\n      revert\n    tag_108:\n      pop\n      gas\n      call\n      iszero\n      dup1\n      iszero\n      tag_110\n      jumpi\n      returndatasize\n      0x00\n      dup1\n      returndatacopy\n      revert(0x00, returndatasize)\n    tag_110:\n      pop\n      pop\n      pop\n      pop\n      mload(0x40)\n      returndatasize\n      not(0x1f)\n      0x1f\n      dup3\n      add\n      and\n      dup3\n      add\n      dup1\n      0x40\n      mstore\n      pop\n      dup2\n      add\n      swap1\n      tag_111\n      swap2\n      swap1\n      tag_112\n      jump\t// in\n    tag_111:\n      pop\n        /* \"Re-fungible_Tokens/contracts/AssetFundRaising.sol\":1369:1393  _burn(msg.sender, value) */\n      tag_113\n        /* \"Re-fungible_Tokens/contracts/AssetFundRaising.sol\":1375:1385  msg.sender */\n      caller\n        /* \"Re-fungible_Tokens/contracts/AssetFundRaising.sol\":1387:1392  value */\n      dup3\n        /* \"Re-fungible_Tokens/contracts/AssetFundRaising.sol\":1369:1374  _burn */\n      tag_114\n        /* \"Re-fungible_Tokens/contracts/AssetFundRaising.sol\":1369:1393  _burn(msg.sender, value) */\n      jump\t// in\n    tag_113:\n        /* \"Re-fungible_Tokens/contracts/AssetFundRaising.sol\":1187:1400  function withdrawInvestment(uint256 value) external {... */\n      pop\n      jump\t// out\n        /* \"@openzeppelin/contracts/token/ERC20/ERC20.sol\":5192:5478  function transferFrom(... */\n    tag_43:\n        /* \"@openzeppelin/contracts/token/ERC20/ERC20.sol\":5319:5323  bool */\n      0x00\n        /* \"@openzeppelin/contracts/utils/Context.sol\":719:729  msg.sender */\n      caller\n        /* \"@openzeppelin/contracts/token/ERC20/ERC20.sol\":5375:5413  _spendAllowance(from, spender, amount) */\n      tag_117\n        /* \"@openzeppelin/contracts/token/ERC20/ERC20.sol\":5391:5395  from */\n      dup6\n        /* \"@openzeppelin/contracts/utils/Context.sol\":719:729  msg.sender */\n      dup3\n        /* \"@openzeppelin/contracts/token/ERC20/ERC20.sol\":5406:5412  amount */\n      dup6\n        /* \"@openzeppelin/contracts/token/ERC20/ERC20.sol\":5375:5390  _spendAllowance */\n      tag_118\n        /* \"@openzeppelin/contracts/token/ERC20/ERC20.sol\":5375:5413  _spendAllowance(from, spender, amount) */\n      jump\t// in\n    tag_117:\n        /* \"@openzeppelin/contracts/token/ERC20/ERC20.sol\":5423:5450  _transfer(from, to, amount) */\n      tag_119\n        /* \"@openzeppelin/contracts/token/ERC20/ERC20.sol\":5433:5437  from */\n      dup6\n        /* \"@openzeppelin/contracts/token/ERC20/ERC20.sol\":5439:5441  to */\n      dup6\n        /* \"@openzeppelin/contracts/token/ERC20/ERC20.sol\":5443:5449  amount */\n      dup6\n        /* \"@openzeppelin/contracts/token/ERC20/ERC20.sol\":5423:5432  _transfer */\n      tag_120\n        /* \"@openzeppelin/contracts/token/ERC20/ERC20.sol\":5423:5450  _transfer(from, to, amount) */\n      jump\t// in\n    tag_119:\n      pop\n        /* \"@openzeppelin/contracts/token/ERC20/ERC20.sol\":5467:5471  true */\n      0x01\n      swap5\n        /* \"@openzeppelin/contracts/token/ERC20/ERC20.sol\":5192:5478  function transferFrom(... */\n      swap4\n      pop\n      pop\n      pop\n      pop\n      jump\t// out\n        /* \"Re-fungible_Tokens/contracts/AssetFundRaising.sol\":787:1181  function invest(uint256 value) external {... */\n    tag_47:\n        /* \"@openzeppelin/contracts/token/ERC20/ERC20.sol\":3331:3343  _totalSupply */\n      sload(0x02)\n        /* \"Re-fungible_Tokens/contracts/AssetFundRaising.sol\":854:866  targetAmount */\n      sload(0x06)\n        /* \"Re-fungible_Tokens/contracts/AssetFundRaising.sol\":854:882  targetAmount - totalSupply() */\n      tag_123\n      swap2\n      swap1\n      tag_124\n      jump\t// in\n    tag_123:\n        /* \"Re-fungible_Tokens/contracts/AssetFundRaising.sol\":845:850  value */\n      dup2\n        /* \"Re-fungible_Tokens/contracts/AssetFundRaising.sol\":845:882  value <= targetAmount - totalSupply() */\n      gt\n      iszero\n        /* \"Re-fungible_Tokens/contracts/AssetFundRaising.sol\":837:910  require(value <= targetAmount - totalSupply(), \"Not enough shares left!\") */\n      tag_125\n      jumpi\n      mload(0x40)\n      shl(0xe5, 0x461bcd)\n      dup2\n      mstore\n        /* \"#utility.yul\":6238:6240   */\n      0x20\n        /* \"Re-fungible_Tokens/contracts/AssetFundRaising.sol\":837:910  require(value <= targetAmount - totalSupply(), \"Not enough shares left!\") */\n      0x04\n      dup3\n      add\n        /* \"#utility.yul\":6220:6241   */\n      mstore\n        /* \"#utility.yul\":6277:6279   */\n      0x17\n        /* \"#utility.yul\":6257:6275   */\n      0x24\n      dup3\n      add\n        /* \"#utility.yul\":6250:6280   */\n      mstore\n        /* \"#utility.yul\":6316:6341   */\n      0x4e6f7420656e6f75676820736861726573206c65667421000000000000000000\n        /* \"#utility.yul\":6296:6314   */\n      0x44\n      dup3\n      add\n        /* \"#utility.yul\":6289:6342   */\n      mstore\n        /* \"#utility.yul\":6359:6377   */\n      0x64\n      add\n        /* \"Re-fungible_Tokens/contracts/AssetFundRaising.sol\":837:910  require(value <= targetAmount - totalSupply(), \"Not enough shares left!\") */\n      tag_104\n        /* \"#utility.yul\":6036:6383   */\n      jump\n        /* \"Re-fungible_Tokens/contracts/AssetFundRaising.sol\":837:910  require(value <= targetAmount - totalSupply(), \"Not enough shares left!\") */\n    tag_125:\n        /* \"Re-fungible_Tokens/contracts/AssetFundRaising.sol\":920:923  DAI */\n      sload(0x05)\n        /* \"Re-fungible_Tokens/contracts/AssetFundRaising.sol\":920:970  DAI.transferFrom(msg.sender, address(this), value) */\n      mload(0x40)\n      shl(0xe0, 0x23b872dd)\n      dup2\n      mstore\n        /* \"Re-fungible_Tokens/contracts/AssetFundRaising.sol\":937:947  msg.sender */\n      caller\n        /* \"Re-fungible_Tokens/contracts/AssetFundRaising.sol\":920:970  DAI.transferFrom(msg.sender, address(this), value) */\n      0x04\n      dup3\n      add\n        /* \"#utility.yul\":2403:2437   */\n      mstore\n        /* \"Re-fungible_Tokens/contracts/AssetFundRaising.sol\":957:961  this */\n      address\n        /* \"#utility.yul\":2453:2471   */\n      0x24\n      dup3\n      add\n        /* \"#utility.yul\":2446:2489   */\n      mstore\n        /* \"#utility.yul\":2505:2523   */\n      0x44\n      dup2\n      add\n        /* \"#utility.yul\":2498:2532   */\n      dup4\n      swap1\n      mstore\n      sub(shl(0xa0, 0x01), 0x01)\n        /* \"Re-fungible_Tokens/contracts/AssetFundRaising.sol\":920:923  DAI */\n      swap1\n      swap2\n      and\n      swap1\n        /* \"Re-fungible_Tokens/contracts/AssetFundRaising.sol\":920:936  DAI.transferFrom */\n      0x23b872dd\n      swap1\n        /* \"#utility.yul\":2338:2356   */\n      0x64\n      add\n        /* \"Re-fungible_Tokens/contracts/AssetFundRaising.sol\":920:970  DAI.transferFrom(msg.sender, address(this), value) */\n      0x20\n      mload(0x40)\n      dup1\n      dup4\n      sub\n      dup2\n      0x00\n      dup8\n      dup1\n      extcodesize\n      iszero\n      dup1\n      iszero\n      tag_130\n      jumpi\n      0x00\n      dup1\n      revert\n    tag_130:\n      pop\n      gas\n      call\n      iszero\n      dup1\n      iszero\n      tag_132\n      jumpi\n      returndatasize\n      0x00\n      dup1\n      returndatacopy\n      revert(0x00, returndatasize)\n    tag_132:\n      pop\n      pop\n      pop\n      pop\n      mload(0x40)\n      returndatasize\n      not(0x1f)\n      0x1f\n      dup3\n      add\n      and\n      dup3\n      add\n      dup1\n      0x40\n      mstore\n      pop\n      dup2\n      add\n      swap1\n      tag_133\n      swap2\n      swap1\n      tag_112\n      jump\t// in\n    tag_133:\n      pop\n        /* \"Re-fungible_Tokens/contracts/AssetFundRaising.sol\":980:1004  _mint(msg.sender, value) */\n      tag_134\n        /* \"Re-fungible_Tokens/contracts/AssetFundRaising.sol\":986:996  msg.sender */\n      caller\n        /* \"Re-fungible_Tokens/contracts/AssetFundRaising.sol\":998:1003  value */\n      dup3\n        /* \"Re-fungible_Tokens/contracts/AssetFundRaising.sol\":980:985  _mint */\n      tag_135\n        /* \"Re-fungible_Tokens/contracts/AssetFundRaising.sol\":980:1004  _mint(msg.sender, value) */\n      jump\t// in\n    tag_134:\n        /* \"@openzeppelin/contracts/token/ERC20/ERC20.sol\":3331:3343  _totalSupply */\n      sload(0x02)\n        /* \"Re-fungible_Tokens/contracts/AssetFundRaising.sol\":1018:1030  targetAmount */\n      sload(0x06)\n        /* \"Re-fungible_Tokens/contracts/AssetFundRaising.sol\":1018:1047  targetAmount == totalSupply() */\n      eq\n        /* \"Re-fungible_Tokens/contracts/AssetFundRaising.sol\":1014:1175  if (targetAmount == totalSupply()) { ... */\n      iszero\n      tag_113\n      jumpi\n        /* \"Re-fungible_Tokens/contracts/AssetFundRaising.sol\":1064:1067  DAI */\n      sload(0x05)\n        /* \"Re-fungible_Tokens/contracts/AssetFundRaising.sol\":1077:1121  NFT.ownerOf(uint256(uint160(address(this)))) */\n      mload(0x40)\n      shl(0xe1, 0x31a9108f)\n      dup2\n      mstore\n        /* \"Re-fungible_Tokens/contracts/AssetFundRaising.sol\":1113:1117  this */\n      address\n        /* \"Re-fungible_Tokens/contracts/AssetFundRaising.sol\":1077:1121  NFT.ownerOf(uint256(uint160(address(this)))) */\n      0x04\n      dup3\n      add\n        /* \"#utility.yul\":8868:8893   */\n      mstore\n      sub(shl(0xa0, 0x01), 0x01)\n        /* \"Re-fungible_Tokens/contracts/AssetFundRaising.sol\":1064:1067  DAI */\n      swap2\n      dup3\n      and\n      swap2\n        /* \"Re-fungible_Tokens/contracts/AssetFundRaising.sol\":1064:1076  DAI.transfer */\n      0xa9059cbb\n      swap2\n        /* \"Re-fungible_Tokens/contracts/AssetFundRaising.sol\":1077:1080  NFT */\n      immutable(\"0xceebc1e79b37113a3784d9bbf48b7ad015159a0fad39f370ddaba6e9581bdbc5\")\n        /* \"Re-fungible_Tokens/contracts/AssetFundRaising.sol\":1077:1088  NFT.ownerOf */\n      swap1\n      swap2\n      and\n      swap1\n      0x6352211e\n      swap1\n        /* \"#utility.yul\":8841:8859   */\n      0x24\n      add\n        /* \"Re-fungible_Tokens/contracts/AssetFundRaising.sol\":1077:1121  NFT.ownerOf(uint256(uint160(address(this)))) */\n      0x20\n      mload(0x40)\n      dup1\n      dup4\n      sub\n      dup2\n      dup7\n      dup1\n      extcodesize\n      iszero\n      dup1\n      iszero\n      tag_139\n      jumpi\n      0x00\n      dup1\n      revert\n    tag_139:\n      pop\n      gas\n      staticcall\n      iszero\n      dup1\n      iszero\n      tag_141\n      jumpi\n      returndatasize\n      0x00\n      dup1\n      returndatacopy\n      revert(0x00, returndatasize)\n    tag_141:\n      pop\n      pop\n      pop\n      pop\n      mload(0x40)\n      returndatasize\n      not(0x1f)\n      0x1f\n      dup3\n      add\n      and\n      dup3\n      add\n      dup1\n      0x40\n      mstore\n      pop\n      dup2\n      add\n      swap1\n      tag_142\n      swap2\n      swap1\n      tag_143\n      jump\t// in\n    tag_142:\n        /* \"Re-fungible_Tokens/contracts/AssetFundRaising.sol\":1123:1135  targetAmount */\n      sload(0x06)\n        /* \"Re-fungible_Tokens/contracts/AssetFundRaising.sol\":1064:1136  DAI.transfer(NFT.ownerOf(uint256(uint160(address(this)))), targetAmount) */\n      mload(0x40)\n      not(sub(shl(0xe0, 0x01), 0x01))\n      0xe0\n      dup6\n      swap1\n      shl\n      and\n      dup2\n      mstore\n      sub(shl(0xa0, 0x01), 0x01)\n        /* \"#utility.yul\":2735:2767   */\n      swap1\n      swap3\n      and\n        /* \"Re-fungible_Tokens/contracts/AssetFundRaising.sol\":1064:1136  DAI.transfer(NFT.ownerOf(uint256(uint160(address(this)))), targetAmount) */\n      0x04\n      dup4\n      add\n        /* \"#utility.yul\":2717:2768   */\n      mstore\n        /* \"#utility.yul\":2784:2802   */\n      0x24\n      dup3\n      add\n        /* \"#utility.yul\":2777:2811   */\n      mstore\n        /* \"#utility.yul\":2690:2708   */\n      0x44\n      add\n        /* \"Re-fungible_Tokens/contracts/AssetFundRaising.sol\":1064:1136  DAI.transfer(NFT.ownerOf(uint256(uint160(address(this)))), targetAmount) */\n      0x20\n      mload(0x40)\n      dup1\n      dup4\n      sub\n      dup2\n      0x00\n      dup8\n      dup1\n      extcodesize\n      iszero\n      dup1\n      iszero\n      tag_145\n      jumpi\n      0x00\n      dup1\n      revert\n    tag_145:\n      pop\n      gas\n      call\n      iszero\n      dup1\n      iszero\n      tag_147\n      jumpi\n      returndatasize\n      0x00\n      dup1\n      returndatacopy\n      revert(0x00, returndatasize)\n    tag_147:\n      pop\n      pop\n      pop\n      pop\n      mload(0x40)\n      returndatasize\n      not(0x1f)\n      0x1f\n      dup3\n      add\n      and\n      dup3\n      add\n      dup1\n      0x40\n      mstore\n      pop\n      dup2\n      add\n      swap1\n      tag_148\n      swap2\n      swap1\n      tag_112\n      jump\t// in\n    tag_148:\n      pop\n        /* \"Re-fungible_Tokens/contracts/AssetFundRaising.sol\":787:1181  function invest(uint256 value) external {... */\n      pop\n      jump\t// out\n        /* \"@openzeppelin/contracts/token/ERC20/ERC20.sol\":5873:6107  function increaseAllowance(address spender, uint256 addedValue) public virtual returns (bool) {... */\n    tag_54:\n        /* \"@openzeppelin/contracts/token/ERC20/ERC20.sol\":5961:5965  bool */\n      0x00\n        /* \"@openzeppelin/contracts/utils/Context.sol\":719:729  msg.sender */\n      caller\n        /* \"@openzeppelin/contracts/token/ERC20/ERC20.sol\":6015:6079  _approve(owner, spender, allowance(owner, spender) + addedValue) */\n      tag_98\n        /* \"@openzeppelin/contracts/utils/Context.sol\":719:729  msg.sender */\n      dup2\n        /* \"@openzeppelin/contracts/token/ERC20/ERC20.sol\":6031:6038  spender */\n      dup6\n        /* \"@openzeppelin/contracts/token/ERC20/ERC20.sol\":6068:6078  addedValue */\n      dup6\n        /* \"@openzeppelin/contracts/token/ERC20/ERC20.sol\":6040:6065  allowance(owner, spender) */\n      tag_153\n        /* \"@openzeppelin/contracts/utils/Context.sol\":719:729  msg.sender */\n      dup4\n        /* \"@openzeppelin/contracts/token/ERC20/ERC20.sol\":6031:6038  spender */\n      dup4\n        /* \"@openzeppelin/contracts/token/ERC20/ERC20.sol\":6040:6049  allowance */\n      tag_82\n        /* \"@openzeppelin/contracts/token/ERC20/ERC20.sol\":6040:6065  allowance(owner, spender) */\n      jump\t// in\n    tag_153:\n        /* \"@openzeppelin/contracts/token/ERC20/ERC20.sol\":6040:6078  allowance(owner, spender) + addedValue */\n      tag_154\n      swap2\n      swap1\n      tag_155\n      jump\t// in\n    tag_154:\n        /* \"@openzeppelin/contracts/token/ERC20/ERC20.sol\":6015:6023  _approve */\n      tag_99\n        /* \"@openzeppelin/contracts/token/ERC20/ERC20.sol\":6015:6079  _approve(owner, spender, allowance(owner, spender) + addedValue) */\n      jump\t// in\n        /* \"@openzeppelin/contracts/token/ERC20/ERC20.sol\":2367:2469  function symbol() public view virtual override returns (string memory) {... */\n    tag_69:\n        /* \"@openzeppelin/contracts/token/ERC20/ERC20.sol\":2423:2436  string memory */\n      0x60\n        /* \"@openzeppelin/contracts/token/ERC20/ERC20.sol\":2455:2462  _symbol */\n      0x04\n        /* \"@openzeppelin/contracts/token/ERC20/ERC20.sol\":2448:2462  return _symbol */\n      dup1\n      sload\n      tag_89\n      swap1\n      tag_90\n      jump\t// in\n        /* \"@openzeppelin/contracts/token/ERC20/ERC20.sol\":6594:7021  function decreaseAllowance(address spender, uint256 subtractedValue) public virtual returns (bool) {... */\n    tag_73:\n        /* \"@openzeppelin/contracts/token/ERC20/ERC20.sol\":6687:6691  bool */\n      0x00\n        /* \"@openzeppelin/contracts/utils/Context.sol\":719:729  msg.sender */\n      caller\n        /* \"@openzeppelin/contracts/token/ERC20/ERC20.sol\":6687:6691  bool */\n      dup2\n        /* \"@openzeppelin/contracts/token/ERC20/ERC20.sol\":6768:6793  allowance(owner, spender) */\n      tag_165\n        /* \"@openzeppelin/contracts/utils/Context.sol\":719:729  msg.sender */\n      dup3\n        /* \"@openzeppelin/contracts/token/ERC20/ERC20.sol\":6785:6792  spender */\n      dup7\n        /* \"@openzeppelin/contracts/token/ERC20/ERC20.sol\":6768:6777  allowance */\n      tag_82\n        /* \"@openzeppelin/contracts/token/ERC20/ERC20.sol\":6768:6793  allowance(owner, spender) */\n      jump\t// in\n    tag_165:\n        /* \"@openzeppelin/contracts/token/ERC20/ERC20.sol\":6741:6793  uint256 currentAllowance = allowance(owner, spender) */\n      swap1\n      pop\n        /* \"@openzeppelin/contracts/token/ERC20/ERC20.sol\":6831:6846  subtractedValue */\n      dup4\n        /* \"@openzeppelin/contracts/token/ERC20/ERC20.sol\":6811:6827  currentAllowance */\n      dup2\n        /* \"@openzeppelin/contracts/token/ERC20/ERC20.sol\":6811:6846  currentAllowance >= subtractedValue */\n      lt\n      iszero\n        /* \"@openzeppelin/contracts/token/ERC20/ERC20.sol\":6803:6888  require(currentAllowance >= subtractedValue, \"ERC20: decreased allowance below zero\") */\n      tag_166\n      jumpi\n      mload(0x40)\n      shl(0xe5, 0x461bcd)\n      dup2\n      mstore\n        /* \"#utility.yul\":8158:8160   */\n      0x20\n        /* \"@openzeppelin/contracts/token/ERC20/ERC20.sol\":6803:6888  require(currentAllowance >= subtractedValue, \"ERC20: decreased allowance below zero\") */\n      0x04\n      dup3\n      add\n        /* \"#utility.yul\":8140:8161   */\n      mstore\n        /* \"#utility.yul\":8197:8199   */\n      0x25\n        /* \"#utility.yul\":8177:8195   */\n      0x24\n      dup3\n      add\n        /* \"#utility.yul\":8170:8200   */\n      mstore\n        /* \"#utility.yul\":8236:8270   */\n      0x45524332303a2064656372656173656420616c6c6f77616e63652062656c6f77\n        /* \"#utility.yul\":8216:8234   */\n      0x44\n      dup3\n      add\n        /* \"#utility.yul\":8209:8271   */\n      mstore\n      shl(0xd8, 0x207a65726f)\n        /* \"#utility.yul\":8287:8305   */\n      0x64\n      dup3\n      add\n        /* \"#utility.yul\":8280:8315   */\n      mstore\n        /* \"#utility.yul\":8332:8351   */\n      0x84\n      add\n        /* \"@openzeppelin/contracts/token/ERC20/ERC20.sol\":6803:6888  require(currentAllowance >= subtractedValue, \"ERC20: decreased allowance below zero\") */\n      tag_104\n        /* \"#utility.yul\":7956:8357   */\n      jump\n        /* \"@openzeppelin/contracts/token/ERC20/ERC20.sol\":6803:6888  require(currentAllowance >= subtractedValue, \"ERC20: decreased allowance below zero\") */\n    tag_166:\n        /* \"@openzeppelin/contracts/token/ERC20/ERC20.sol\":6922:6982  _approve(owner, spender, currentAllowance - subtractedValue) */\n      tag_119\n        /* \"@openzeppelin/contracts/token/ERC20/ERC20.sol\":6931:6936  owner */\n      dup3\n        /* \"@openzeppelin/contracts/token/ERC20/ERC20.sol\":6938:6945  spender */\n      dup7\n        /* \"@openzeppelin/contracts/token/ERC20/ERC20.sol\":6966:6981  subtractedValue */\n      dup7\n        /* \"@openzeppelin/contracts/token/ERC20/ERC20.sol\":6947:6963  currentAllowance */\n      dup5\n        /* \"@openzeppelin/contracts/token/ERC20/ERC20.sol\":6947:6981  currentAllowance - subtractedValue */\n      sub\n        /* \"@openzeppelin/contracts/token/ERC20/ERC20.sol\":6922:6930  _approve */\n      tag_99\n        /* \"@openzeppelin/contracts/token/ERC20/ERC20.sol\":6922:6982  _approve(owner, spender, currentAllowance - subtractedValue) */\n      jump\t// in\n        /* \"@openzeppelin/contracts/token/ERC20/ERC20.sol\":3729:3918  function transfer(address to, uint256 amount) public virtual override returns (bool) {... */\n    tag_77:\n        /* \"@openzeppelin/contracts/token/ERC20/ERC20.sol\":3808:3812  bool */\n      0x00\n        /* \"@openzeppelin/contracts/utils/Context.sol\":719:729  msg.sender */\n      caller\n        /* \"@openzeppelin/contracts/token/ERC20/ERC20.sol\":3862:3890  _transfer(owner, to, amount) */\n      tag_98\n        /* \"@openzeppelin/contracts/utils/Context.sol\":719:729  msg.sender */\n      dup2\n        /* \"@openzeppelin/contracts/token/ERC20/ERC20.sol\":3879:3881  to */\n      dup6\n        /* \"@openzeppelin/contracts/token/ERC20/ERC20.sol\":3883:3889  amount */\n      dup6\n        /* \"@openzeppelin/contracts/token/ERC20/ERC20.sol\":3862:3871  _transfer */\n      tag_120\n        /* \"@openzeppelin/contracts/token/ERC20/ERC20.sol\":3862:3890  _transfer(owner, to, amount) */\n      jump\t// in\n        /* \"@openzeppelin/contracts/token/ERC20/ERC20.sol\":3976:4125  function allowance(address owner, address spender) public view virtual override returns (uint256) {... */\n    tag_82:\n      sub(shl(0xa0, 0x01), 0x01)\n        /* \"@openzeppelin/contracts/token/ERC20/ERC20.sol\":4091:4109  _allowances[owner] */\n      swap2\n      dup3\n      and\n        /* \"@openzeppelin/contracts/token/ERC20/ERC20.sol\":4065:4072  uint256 */\n      0x00\n        /* \"@openzeppelin/contracts/token/ERC20/ERC20.sol\":4091:4109  _allowances[owner] */\n      swap1\n      dup2\n      mstore\n        /* \"@openzeppelin/contracts/token/ERC20/ERC20.sol\":4091:4102  _allowances */\n      0x01\n        /* \"@openzeppelin/contracts/token/ERC20/ERC20.sol\":4091:4109  _allowances[owner] */\n      0x20\n      swap1\n      dup2\n      mstore\n      0x40\n      dup1\n      dup4\n      keccak256\n        /* \"@openzeppelin/contracts/token/ERC20/ERC20.sol\":4091:4118  _allowances[owner][spender] */\n      swap4\n      swap1\n      swap5\n      and\n      dup3\n      mstore\n      swap2\n      swap1\n      swap2\n      mstore\n      keccak256\n      sload\n      swap1\n        /* \"@openzeppelin/contracts/token/ERC20/ERC20.sol\":3976:4125  function allowance(address owner, address spender) public view virtual override returns (uint256) {... */\n      jump\t// out\n        /* \"@openzeppelin/contracts/token/ERC20/ERC20.sol\":10110:10480  function _approve(... */\n    tag_99:\n      sub(shl(0xa0, 0x01), 0x01)\n        /* \"@openzeppelin/contracts/token/ERC20/ERC20.sol\":10241:10260  owner != address(0) */\n      dup4\n      and\n        /* \"@openzeppelin/contracts/token/ERC20/ERC20.sol\":10233:10301  require(owner != address(0), \"ERC20: approve from the zero address\") */\n      tag_176\n      jumpi\n      mload(0x40)\n      shl(0xe5, 0x461bcd)\n      dup2\n      mstore\n        /* \"#utility.yul\":7753:7755   */\n      0x20\n        /* \"@openzeppelin/contracts/token/ERC20/ERC20.sol\":10233:10301  require(owner != address(0), \"ERC20: approve from the zero address\") */\n      0x04\n      dup3\n      add\n        /* \"#utility.yul\":7735:7756   */\n      mstore\n        /* \"#utility.yul\":7792:7794   */\n      0x24\n        /* \"#utility.yul\":7772:7790   */\n      dup1\n      dup3\n      add\n        /* \"#utility.yul\":7765:7795   */\n      mstore\n        /* \"#utility.yul\":7831:7865   */\n      0x45524332303a20617070726f76652066726f6d20746865207a65726f20616464\n        /* \"#utility.yul\":7811:7829   */\n      0x44\n      dup3\n      add\n        /* \"#utility.yul\":7804:7866   */\n      mstore\n      shl(0xe0, 0x72657373)\n        /* \"#utility.yul\":7882:7900   */\n      0x64\n      dup3\n      add\n        /* \"#utility.yul\":7875:7909   */\n      mstore\n        /* \"#utility.yul\":7926:7945   */\n      0x84\n      add\n        /* \"@openzeppelin/contracts/token/ERC20/ERC20.sol\":10233:10301  require(owner != address(0), \"ERC20: approve from the zero address\") */\n      tag_104\n        /* \"#utility.yul\":7551:7951   */\n      jump\n        /* \"@openzeppelin/contracts/token/ERC20/ERC20.sol\":10233:10301  require(owner != address(0), \"ERC20: approve from the zero address\") */\n    tag_176:\n      sub(shl(0xa0, 0x01), 0x01)\n        /* \"@openzeppelin/contracts/token/ERC20/ERC20.sol\":10319:10340  spender != address(0) */\n      dup3\n      and\n        /* \"@openzeppelin/contracts/token/ERC20/ERC20.sol\":10311:10379  require(spender != address(0), \"ERC20: approve to the zero address\") */\n      tag_179\n      jumpi\n      mload(0x40)\n      shl(0xe5, 0x461bcd)\n      dup2\n      mstore\n        /* \"#utility.yul\":5070:5072   */\n      0x20\n        /* \"@openzeppelin/contracts/token/ERC20/ERC20.sol\":10311:10379  require(spender != address(0), \"ERC20: approve to the zero address\") */\n      0x04\n      dup3\n      add\n        /* \"#utility.yul\":5052:5073   */\n      mstore\n        /* \"#utility.yul\":5109:5111   */\n      0x22\n        /* \"#utility.yul\":5089:5107   */\n      0x24\n      dup3\n      add\n        /* \"#utility.yul\":5082:5112   */\n      mstore\n        /* \"#utility.yul\":5148:5182   */\n      0x45524332303a20617070726f766520746f20746865207a65726f206164647265\n        /* \"#utility.yul\":5128:5146   */\n      0x44\n      dup3\n      add\n        /* \"#utility.yul\":5121:5183   */\n      mstore\n      shl(0xf0, 0x7373)\n        /* \"#utility.yul\":5199:5217   */\n      0x64\n      dup3\n      add\n        /* \"#utility.yul\":5192:5224   */\n      mstore\n        /* \"#utility.yul\":5241:5260   */\n      0x84\n      add\n        /* \"@openzeppelin/contracts/token/ERC20/ERC20.sol\":10311:10379  require(spender != address(0), \"ERC20: approve to the zero address\") */\n      tag_104\n        /* \"#utility.yul\":4868:5266   */\n      jump\n        /* \"@openzeppelin/contracts/token/ERC20/ERC20.sol\":10311:10379  require(spender != address(0), \"ERC20: approve to the zero address\") */\n    tag_179:\n      sub(shl(0xa0, 0x01), 0x01)\n        /* \"@openzeppelin/contracts/token/ERC20/ERC20.sol\":10390:10408  _allowances[owner] */\n      dup4\n      dup2\n      and\n      0x00\n      dup2\n      dup2\n      mstore\n        /* \"@openzeppelin/contracts/token/ERC20/ERC20.sol\":10390:10401  _allowances */\n      0x01\n        /* \"@openzeppelin/contracts/token/ERC20/ERC20.sol\":10390:10408  _allowances[owner] */\n      0x20\n      swap1\n      dup2\n      mstore\n      0x40\n      dup1\n      dup4\n      keccak256\n        /* \"@openzeppelin/contracts/token/ERC20/ERC20.sol\":10390:10417  _allowances[owner][spender] */\n      swap5\n      dup8\n      and\n      dup1\n      dup5\n      mstore\n      swap5\n      dup3\n      mstore\n      swap2\n      dup3\n      swap1\n      keccak256\n        /* \"@openzeppelin/contracts/token/ERC20/ERC20.sol\":10390:10426  _allowances[owner][spender] = amount */\n      dup6\n      swap1\n      sstore\n        /* \"@openzeppelin/contracts/token/ERC20/ERC20.sol\":10441:10473  Approval(owner, spender, amount) */\n      swap1\n      mload\n        /* \"#utility.yul\":8868:8893   */\n      dup5\n      dup2\n      mstore\n        /* \"@openzeppelin/contracts/token/ERC20/ERC20.sol\":10441:10473  Approval(owner, spender, amount) */\n      0x8c5be1e5ebec7d5bd14f71427d1e84f3dd0314c0f7b2291e5b200ac8c7c3b925\n      swap2\n        /* \"#utility.yul\":8841:8859   */\n      add\n        /* \"@openzeppelin/contracts/token/ERC20/ERC20.sol\":10441:10473  Approval(owner, spender, amount) */\n    tag_182:\n      mload(0x40)\n      dup1\n      swap2\n      sub\n      swap1\n      log3\n        /* \"@openzeppelin/contracts/token/ERC20/ERC20.sol\":10110:10480  function _approve(... */\n      pop\n      pop\n      pop\n      jump\t// out\n        /* \"@openzeppelin/contracts/token/ERC20/ERC20.sol\":9111:9687  function _burn(address account, uint256 amount) internal virtual {... */\n    tag_114:\n      sub(shl(0xa0, 0x01), 0x01)\n        /* \"@openzeppelin/contracts/token/ERC20/ERC20.sol\":9194:9215  account != address(0) */\n      dup3\n      and\n        /* \"@openzeppelin/contracts/token/ERC20/ERC20.sol\":9186:9253  require(account != address(0), \"ERC20: burn from the zero address\") */\n      tag_184\n      jumpi\n      mload(0x40)\n      shl(0xe5, 0x461bcd)\n      dup2\n      mstore\n        /* \"#utility.yul\":6945:6947   */\n      0x20\n        /* \"@openzeppelin/contracts/token/ERC20/ERC20.sol\":9186:9253  require(account != address(0), \"ERC20: burn from the zero address\") */\n      0x04\n      dup3\n      add\n        /* \"#utility.yul\":6927:6948   */\n      mstore\n        /* \"#utility.yul\":6984:6986   */\n      0x21\n        /* \"#utility.yul\":6964:6982   */\n      0x24\n      dup3\n      add\n        /* \"#utility.yul\":6957:6987   */\n      mstore\n        /* \"#utility.yul\":7023:7057   */\n      0x45524332303a206275726e2066726f6d20746865207a65726f20616464726573\n        /* \"#utility.yul\":7003:7021   */\n      0x44\n      dup3\n      add\n        /* \"#utility.yul\":6996:7058   */\n      mstore\n      shl(0xf8, 0x73)\n        /* \"#utility.yul\":7074:7092   */\n      0x64\n      dup3\n      add\n        /* \"#utility.yul\":7067:7098   */\n      mstore\n        /* \"#utility.yul\":7115:7134   */\n      0x84\n      add\n        /* \"@openzeppelin/contracts/token/ERC20/ERC20.sol\":9186:9253  require(account != address(0), \"ERC20: burn from the zero address\") */\n      tag_104\n        /* \"#utility.yul\":6743:7140   */\n      jump\n        /* \"@openzeppelin/contracts/token/ERC20/ERC20.sol\":9186:9253  require(account != address(0), \"ERC20: burn from the zero address\") */\n    tag_184:\n      sub(shl(0xa0, 0x01), 0x01)\n        /* \"@openzeppelin/contracts/token/ERC20/ERC20.sol\":9349:9367  _balances[account] */\n      dup3\n      and\n        /* \"@openzeppelin/contracts/token/ERC20/ERC20.sol\":9324:9346  uint256 accountBalance */\n      0x00\n        /* \"@openzeppelin/contracts/token/ERC20/ERC20.sol\":9349:9367  _balances[account] */\n      swap1\n      dup2\n      mstore\n      0x20\n      dup2\n      swap1\n      mstore\n      0x40\n      swap1\n      keccak256\n      sload\n        /* \"@openzeppelin/contracts/token/ERC20/ERC20.sol\":9385:9409  accountBalance >= amount */\n      dup2\n      dup2\n      lt\n      iszero\n        /* \"@openzeppelin/contracts/token/ERC20/ERC20.sol\":9377:9448  require(accountBalance >= amount, \"ERC20: burn amount exceeds balance\") */\n      tag_189\n      jumpi\n      mload(0x40)\n      shl(0xe5, 0x461bcd)\n      dup2\n      mstore\n        /* \"#utility.yul\":4667:4669   */\n      0x20\n        /* \"@openzeppelin/contracts/token/ERC20/ERC20.sol\":9377:9448  require(accountBalance >= amount, \"ERC20: burn amount exceeds balance\") */\n      0x04\n      dup3\n      add\n        /* \"#utility.yul\":4649:4670   */\n      mstore\n        /* \"#utility.yul\":4706:4708   */\n      0x22\n        /* \"#utility.yul\":4686:4704   */\n      0x24\n      dup3\n      add\n        /* \"#utility.yul\":4679:4709   */\n      mstore\n        /* \"#utility.yul\":4745:4779   */\n      0x45524332303a206275726e20616d6f756e7420657863656564732062616c616e\n        /* \"#utility.yul\":4725:4743   */\n      0x44\n      dup3\n      add\n        /* \"#utility.yul\":4718:4780   */\n      mstore\n      shl(0xf0, 0x6365)\n        /* \"#utility.yul\":4796:4814   */\n      0x64\n      dup3\n      add\n        /* \"#utility.yul\":4789:4821   */\n      mstore\n        /* \"#utility.yul\":4838:4857   */\n      0x84\n      add\n        /* \"@openzeppelin/contracts/token/ERC20/ERC20.sol\":9377:9448  require(accountBalance >= amount, \"ERC20: burn amount exceeds balance\") */\n      tag_104\n        /* \"#utility.yul\":4465:4863   */\n      jump\n        /* \"@openzeppelin/contracts/token/ERC20/ERC20.sol\":9377:9448  require(accountBalance >= amount, \"ERC20: burn amount exceeds balance\") */\n    tag_189:\n      sub(shl(0xa0, 0x01), 0x01)\n        /* \"@openzeppelin/contracts/token/ERC20/ERC20.sol\":9482:9500  _balances[account] */\n      dup4\n      and\n        /* \"@openzeppelin/contracts/token/ERC20/ERC20.sol\":9482:9491  _balances */\n      0x00\n        /* \"@openzeppelin/contracts/token/ERC20/ERC20.sol\":9482:9500  _balances[account] */\n      swap1\n      dup2\n      mstore\n      0x20\n      dup2\n      swap1\n      mstore\n      0x40\n      dup2\n      keccak256\n        /* \"@openzeppelin/contracts/token/ERC20/ERC20.sol\":9503:9526  accountBalance - amount */\n      dup4\n      dup4\n      sub\n        /* \"@openzeppelin/contracts/token/ERC20/ERC20.sol\":9482:9526  _balances[account] = accountBalance - amount */\n      swap1\n      sstore\n        /* \"@openzeppelin/contracts/token/ERC20/ERC20.sol\":9546:9558  _totalSupply */\n      0x02\n        /* \"@openzeppelin/contracts/token/ERC20/ERC20.sol\":9546:9568  _totalSupply -= amount */\n      dup1\n      sload\n        /* \"@openzeppelin/contracts/token/ERC20/ERC20.sol\":9520:9526  amount */\n      dup5\n      swap3\n        /* \"@openzeppelin/contracts/token/ERC20/ERC20.sol\":9482:9491  _balances */\n      swap1\n        /* \"@openzeppelin/contracts/token/ERC20/ERC20.sol\":9546:9568  _totalSupply -= amount */\n      tag_192\n      swap1\n        /* \"@openzeppelin/contracts/token/ERC20/ERC20.sol\":9520:9526  amount */\n      dup5\n      swap1\n        /* \"@openzeppelin/contracts/token/ERC20/ERC20.sol\":9546:9568  _totalSupply -= amount */\n      tag_124\n      jump\t// in\n    tag_192:\n      swap1\n      swap2\n      sstore\n      pop\n      pop\n        /* \"@openzeppelin/contracts/token/ERC20/ERC20.sol\":9584:9621  Transfer(account, address(0), amount) */\n      mload(0x40)\n        /* \"#utility.yul\":8868:8893   */\n      dup3\n      dup2\n      mstore\n        /* \"@openzeppelin/contracts/token/ERC20/ERC20.sol\":9610:9611  0 */\n      0x00\n      swap1\n      sub(shl(0xa0, 0x01), 0x01)\n        /* \"@openzeppelin/contracts/token/ERC20/ERC20.sol\":9584:9621  Transfer(account, address(0), amount) */\n      dup6\n      and\n      swap1\n      0xddf252ad1be2c89b69c2b068fc378daa952ba7f163c4a11628f55a4df523b3ef\n      swap1\n        /* \"#utility.yul\":8856:8858   */\n      0x20\n        /* \"#utility.yul\":8841:8859   */\n      add\n        /* \"@openzeppelin/contracts/token/ERC20/ERC20.sol\":9584:9621  Transfer(account, address(0), amount) */\n      tag_182\n        /* \"#utility.yul\":8722:8899   */\n      jump\n        /* \"@openzeppelin/contracts/token/ERC20/ERC20.sol\":10761:11202  function _spendAllowance(... */\n    tag_118:\n        /* \"@openzeppelin/contracts/token/ERC20/ERC20.sol\":10891:10915  uint256 currentAllowance */\n      0x00\n        /* \"@openzeppelin/contracts/token/ERC20/ERC20.sol\":10918:10943  allowance(owner, spender) */\n      tag_197\n        /* \"@openzeppelin/contracts/token/ERC20/ERC20.sol\":10928:10933  owner */\n      dup5\n        /* \"@openzeppelin/contracts/token/ERC20/ERC20.sol\":10935:10942  spender */\n      dup5\n        /* \"@openzeppelin/contracts/token/ERC20/ERC20.sol\":10918:10927  allowance */\n      tag_82\n        /* \"@openzeppelin/contracts/token/ERC20/ERC20.sol\":10918:10943  allowance(owner, spender) */\n      jump\t// in\n    tag_197:\n        /* \"@openzeppelin/contracts/token/ERC20/ERC20.sol\":10891:10943  uint256 currentAllowance = allowance(owner, spender) */\n      swap1\n      pop\n      not(0x00)\n        /* \"@openzeppelin/contracts/token/ERC20/ERC20.sol\":10957:10973  currentAllowance */\n      dup2\n        /* \"@openzeppelin/contracts/token/ERC20/ERC20.sol\":10957:10994  currentAllowance != type(uint256).max */\n      eq\n        /* \"@openzeppelin/contracts/token/ERC20/ERC20.sol\":10953:11196  if (currentAllowance != type(uint256).max) {... */\n      tag_202\n      jumpi\n        /* \"@openzeppelin/contracts/token/ERC20/ERC20.sol\":11038:11044  amount */\n      dup2\n        /* \"@openzeppelin/contracts/token/ERC20/ERC20.sol\":11018:11034  currentAllowance */\n      dup2\n        /* \"@openzeppelin/contracts/token/ERC20/ERC20.sol\":11018:11044  currentAllowance >= amount */\n      lt\n      iszero\n        /* \"@openzeppelin/contracts/token/ERC20/ERC20.sol\":11010:11078  require(currentAllowance >= amount, \"ERC20: insufficient allowance\") */\n      tag_199\n      jumpi\n      mload(0x40)\n      shl(0xe5, 0x461bcd)\n      dup2\n      mstore\n        /* \"#utility.yul\":5473:5475   */\n      0x20\n        /* \"@openzeppelin/contracts/token/ERC20/ERC20.sol\":11010:11078  require(currentAllowance >= amount, \"ERC20: insufficient allowance\") */\n      0x04\n      dup3\n      add\n        /* \"#utility.yul\":5455:5476   */\n      mstore\n        /* \"#utility.yul\":5512:5514   */\n      0x1d\n        /* \"#utility.yul\":5492:5510   */\n      0x24\n      dup3\n      add\n        /* \"#utility.yul\":5485:5515   */\n      mstore\n        /* \"#utility.yul\":5551:5582   */\n      0x45524332303a20696e73756666696369656e7420616c6c6f77616e6365000000\n        /* \"#utility.yul\":5531:5549   */\n      0x44\n      dup3\n      add\n        /* \"#utility.yul\":5524:5583   */\n      mstore\n        /* \"#utility.yul\":5600:5618   */\n      0x64\n      add\n        /* \"@openzeppelin/contracts/token/ERC20/ERC20.sol\":11010:11078  require(currentAllowance >= amount, \"ERC20: insufficient allowance\") */\n      tag_104\n        /* \"#utility.yul\":5271:5624   */\n      jump\n        /* \"@openzeppelin/contracts/token/ERC20/ERC20.sol\":11010:11078  require(currentAllowance >= amount, \"ERC20: insufficient allowance\") */\n    tag_199:\n        /* \"@openzeppelin/contracts/token/ERC20/ERC20.sol\":11120:11171  _approve(owner, spender, currentAllowance - amount) */\n      tag_202\n        /* \"@openzeppelin/contracts/token/ERC20/ERC20.sol\":11129:11134  owner */\n      dup5\n        /* \"@openzeppelin/contracts/token/ERC20/ERC20.sol\":11136:11143  spender */\n      dup5\n        /* \"@openzeppelin/contracts/token/ERC20/ERC20.sol\":11164:11170  amount */\n      dup5\n        /* \"@openzeppelin/contracts/token/ERC20/ERC20.sol\":11145:11161  currentAllowance */\n      dup5\n        /* \"@openzeppelin/contracts/token/ERC20/ERC20.sol\":11145:11170  currentAllowance - amount */\n      sub\n        /* \"@openzeppelin/contracts/token/ERC20/ERC20.sol\":11120:11128  _approve */\n      tag_99\n        /* \"@openzeppelin/contracts/token/ERC20/ERC20.sol\":11120:11171  _approve(owner, spender, currentAllowance - amount) */\n      jump\t// in\n    tag_202:\n        /* \"@openzeppelin/contracts/token/ERC20/ERC20.sol\":10881:11202  {... */\n      pop\n        /* \"@openzeppelin/contracts/token/ERC20/ERC20.sol\":10761:11202  function _spendAllowance(... */\n      pop\n      pop\n      pop\n      jump\t// out\n        /* \"@openzeppelin/contracts/token/ERC20/ERC20.sol\":7475:8126  function _transfer(... */\n    tag_120:\n      sub(shl(0xa0, 0x01), 0x01)\n        /* \"@openzeppelin/contracts/token/ERC20/ERC20.sol\":7601:7619  from != address(0) */\n      dup4\n      and\n        /* \"@openzeppelin/contracts/token/ERC20/ERC20.sol\":7593:7661  require(from != address(0), \"ERC20: transfer from the zero address\") */\n      tag_204\n      jumpi\n      mload(0x40)\n      shl(0xe5, 0x461bcd)\n      dup2\n      mstore\n        /* \"#utility.yul\":7347:7349   */\n      0x20\n        /* \"@openzeppelin/contracts/token/ERC20/ERC20.sol\":7593:7661  require(from != address(0), \"ERC20: transfer from the zero address\") */\n      0x04\n      dup3\n      add\n        /* \"#utility.yul\":7329:7350   */\n      mstore\n        /* \"#utility.yul\":7386:7388   */\n      0x25\n        /* \"#utility.yul\":7366:7384   */\n      0x24\n      dup3\n      add\n        /* \"#utility.yul\":7359:7389   */\n      mstore\n        /* \"#utility.yul\":7425:7459   */\n      0x45524332303a207472616e736665722066726f6d20746865207a65726f206164\n        /* \"#utility.yul\":7405:7423   */\n      0x44\n      dup3\n      add\n        /* \"#utility.yul\":7398:7460   */\n      mstore\n      shl(0xd8, 0x6472657373)\n        /* \"#utility.yul\":7476:7494   */\n      0x64\n      dup3\n      add\n        /* \"#utility.yul\":7469:7504   */\n      mstore\n        /* \"#utility.yul\":7521:7540   */\n      0x84\n      add\n        /* \"@openzeppelin/contracts/token/ERC20/ERC20.sol\":7593:7661  require(from != address(0), \"ERC20: transfer from the zero address\") */\n      tag_104\n        /* \"#utility.yul\":7145:7546   */\n      jump\n        /* \"@openzeppelin/contracts/token/ERC20/ERC20.sol\":7593:7661  require(from != address(0), \"ERC20: transfer from the zero address\") */\n    tag_204:\n      sub(shl(0xa0, 0x01), 0x01)\n        /* \"@openzeppelin/contracts/token/ERC20/ERC20.sol\":7679:7695  to != address(0) */\n      dup3\n      and\n        /* \"@openzeppelin/contracts/token/ERC20/ERC20.sol\":7671:7735  require(to != address(0), \"ERC20: transfer to the zero address\") */\n      tag_207\n      jumpi\n      mload(0x40)\n      shl(0xe5, 0x461bcd)\n      dup2\n      mstore\n        /* \"#utility.yul\":4263:4265   */\n      0x20\n        /* \"@openzeppelin/contracts/token/ERC20/ERC20.sol\":7671:7735  require(to != address(0), \"ERC20: transfer to the zero address\") */\n      0x04\n      dup3\n      add\n        /* \"#utility.yul\":4245:4266   */\n      mstore\n        /* \"#utility.yul\":4302:4304   */\n      0x23\n        /* \"#utility.yul\":4282:4300   */\n      0x24\n      dup3\n      add\n        /* \"#utility.yul\":4275:4305   */\n      mstore\n        /* \"#utility.yul\":4341:4375   */\n      0x45524332303a207472616e7366657220746f20746865207a65726f2061646472\n        /* \"#utility.yul\":4321:4339   */\n      0x44\n      dup3\n      add\n        /* \"#utility.yul\":4314:4376   */\n      mstore\n      shl(0xe8, 0x657373)\n        /* \"#utility.yul\":4392:4410   */\n      0x64\n      dup3\n      add\n        /* \"#utility.yul\":4385:4418   */\n      mstore\n        /* \"#utility.yul\":4435:4454   */\n      0x84\n      add\n        /* \"@openzeppelin/contracts/token/ERC20/ERC20.sol\":7671:7735  require(to != address(0), \"ERC20: transfer to the zero address\") */\n      tag_104\n        /* \"#utility.yul\":4061:4460   */\n      jump\n        /* \"@openzeppelin/contracts/token/ERC20/ERC20.sol\":7671:7735  require(to != address(0), \"ERC20: transfer to the zero address\") */\n    tag_207:\n      sub(shl(0xa0, 0x01), 0x01)\n        /* \"@openzeppelin/contracts/token/ERC20/ERC20.sol\":7817:7832  _balances[from] */\n      dup4\n      and\n        /* \"@openzeppelin/contracts/token/ERC20/ERC20.sol\":7795:7814  uint256 fromBalance */\n      0x00\n        /* \"@openzeppelin/contracts/token/ERC20/ERC20.sol\":7817:7832  _balances[from] */\n      swap1\n      dup2\n      mstore\n      0x20\n      dup2\n      swap1\n      mstore\n      0x40\n      swap1\n      keccak256\n      sload\n        /* \"@openzeppelin/contracts/token/ERC20/ERC20.sol\":7850:7871  fromBalance >= amount */\n      dup2\n      dup2\n      lt\n      iszero\n        /* \"@openzeppelin/contracts/token/ERC20/ERC20.sol\":7842:7914  require(fromBalance >= amount, \"ERC20: transfer amount exceeds balance\") */\n      tag_211\n      jumpi\n      mload(0x40)\n      shl(0xe5, 0x461bcd)\n      dup2\n      mstore\n        /* \"#utility.yul\":5831:5833   */\n      0x20\n        /* \"@openzeppelin/contracts/token/ERC20/ERC20.sol\":7842:7914  require(fromBalance >= amount, \"ERC20: transfer amount exceeds balance\") */\n      0x04\n      dup3\n      add\n        /* \"#utility.yul\":5813:5834   */\n      mstore\n        /* \"#utility.yul\":5870:5872   */\n      0x26\n        /* \"#utility.yul\":5850:5868   */\n      0x24\n      dup3\n      add\n        /* \"#utility.yul\":5843:5873   */\n      mstore\n        /* \"#utility.yul\":5909:5943   */\n      0x45524332303a207472616e7366657220616d6f756e7420657863656564732062\n        /* \"#utility.yul\":5889:5907   */\n      0x44\n      dup3\n      add\n        /* \"#utility.yul\":5882:5944   */\n      mstore\n      shl(0xd0, 0x616c616e6365)\n        /* \"#utility.yul\":5960:5978   */\n      0x64\n      dup3\n      add\n        /* \"#utility.yul\":5953:5989   */\n      mstore\n        /* \"#utility.yul\":6006:6025   */\n      0x84\n      add\n        /* \"@openzeppelin/contracts/token/ERC20/ERC20.sol\":7842:7914  require(fromBalance >= amount, \"ERC20: transfer amount exceeds balance\") */\n      tag_104\n        /* \"#utility.yul\":5629:6031   */\n      jump\n        /* \"@openzeppelin/contracts/token/ERC20/ERC20.sol\":7842:7914  require(fromBalance >= amount, \"ERC20: transfer amount exceeds balance\") */\n    tag_211:\n      sub(shl(0xa0, 0x01), 0x01)\n        /* \"@openzeppelin/contracts/token/ERC20/ERC20.sol\":7948:7963  _balances[from] */\n      dup1\n      dup6\n      and\n        /* \"@openzeppelin/contracts/token/ERC20/ERC20.sol\":7948:7957  _balances */\n      0x00\n        /* \"@openzeppelin/contracts/token/ERC20/ERC20.sol\":7948:7963  _balances[from] */\n      swap1\n      dup2\n      mstore\n      0x20\n      dup2\n      swap1\n      mstore\n      0x40\n      dup1\n      dup3\n      keccak256\n        /* \"@openzeppelin/contracts/token/ERC20/ERC20.sol\":7966:7986  fromBalance - amount */\n      dup6\n      dup6\n      sub\n        /* \"@openzeppelin/contracts/token/ERC20/ERC20.sol\":7948:7986  _balances[from] = fromBalance - amount */\n      swap1\n      sstore\n        /* \"@openzeppelin/contracts/token/ERC20/ERC20.sol\":8006:8019  _balances[to] */\n      swap2\n      dup6\n      and\n      dup2\n      mstore\n      swap1\n      dup2\n      keccak256\n        /* \"@openzeppelin/contracts/token/ERC20/ERC20.sol\":8006:8029  _balances[to] += amount */\n      dup1\n      sload\n        /* \"@openzeppelin/contracts/token/ERC20/ERC20.sol\":7980:7986  amount */\n      dup5\n      swap3\n        /* \"@openzeppelin/contracts/token/ERC20/ERC20.sol\":7948:7957  _balances */\n      swap1\n        /* \"@openzeppelin/contracts/token/ERC20/ERC20.sol\":8006:8029  _balances[to] += amount */\n      tag_214\n      swap1\n        /* \"@openzeppelin/contracts/token/ERC20/ERC20.sol\":7980:7986  amount */\n      dup5\n      swap1\n        /* \"@openzeppelin/contracts/token/ERC20/ERC20.sol\":8006:8029  _balances[to] += amount */\n      tag_155\n      jump\t// in\n    tag_214:\n      swap3\n      pop\n      pop\n      dup2\n      swap1\n      sstore\n      pop\n        /* \"@openzeppelin/contracts/token/ERC20/ERC20.sol\":8060:8062  to */\n      dup3\n      sub(shl(0xa0, 0x01), 0x01)\n        /* \"@openzeppelin/contracts/token/ERC20/ERC20.sol\":8045:8071  Transfer(from, to, amount) */\n      and\n        /* \"@openzeppelin/contracts/token/ERC20/ERC20.sol\":8054:8058  from */\n      dup5\n      sub(shl(0xa0, 0x01), 0x01)\n        /* \"@openzeppelin/contracts/token/ERC20/ERC20.sol\":8045:8071  Transfer(from, to, amount) */\n      and\n      0xddf252ad1be2c89b69c2b068fc378daa952ba7f163c4a11628f55a4df523b3ef\n        /* \"@openzeppelin/contracts/token/ERC20/ERC20.sol\":8064:8070  amount */\n      dup5\n        /* \"@openzeppelin/contracts/token/ERC20/ERC20.sol\":8045:8071  Transfer(from, to, amount) */\n      mload(0x40)\n      tag_215\n      swap2\n        /* \"#utility.yul\":8868:8893   */\n      dup2\n      mstore\n        /* \"#utility.yul\":8856:8858   */\n      0x20\n        /* \"#utility.yul\":8841:8859   */\n      add\n      swap1\n        /* \"#utility.yul\":8722:8899   */\n      jump\n        /* \"@openzeppelin/contracts/token/ERC20/ERC20.sol\":8045:8071  Transfer(from, to, amount) */\n    tag_215:\n      mload(0x40)\n      dup1\n      swap2\n      sub\n      swap1\n      log3\n        /* \"@openzeppelin/contracts/token/ERC20/ERC20.sol\":8082:8119  _afterTokenTransfer(from, to, amount) */\n      tag_202\n        /* \"@openzeppelin/contracts/token/ERC20/ERC20.sol\":9111:9687  function _burn(address account, uint256 amount) internal virtual {... */\n      jump\n        /* \"@openzeppelin/contracts/token/ERC20/ERC20.sol\":8402:8791  function _mint(address account, uint256 amount) internal virtual {... */\n    tag_135:\n      sub(shl(0xa0, 0x01), 0x01)\n        /* \"@openzeppelin/contracts/token/ERC20/ERC20.sol\":8485:8506  account != address(0) */\n      dup3\n      and\n        /* \"@openzeppelin/contracts/token/ERC20/ERC20.sol\":8477:8542  require(account != address(0), \"ERC20: mint to the zero address\") */\n      tag_218\n      jumpi\n      mload(0x40)\n      shl(0xe5, 0x461bcd)\n      dup2\n      mstore\n        /* \"#utility.yul\":8564:8566   */\n      0x20\n        /* \"@openzeppelin/contracts/token/ERC20/ERC20.sol\":8477:8542  require(account != address(0), \"ERC20: mint to the zero address\") */\n      0x04\n      dup3\n      add\n        /* \"#utility.yul\":8546:8567   */\n      mstore\n        /* \"#utility.yul\":8603:8605   */\n      0x1f\n        /* \"#utility.yul\":8583:8601   */\n      0x24\n      dup3\n      add\n        /* \"#utility.yul\":8576:8606   */\n      mstore\n        /* \"#utility.yul\":8642:8675   */\n      0x45524332303a206d696e7420746f20746865207a65726f206164647265737300\n        /* \"#utility.yul\":8622:8640   */\n      0x44\n      dup3\n      add\n        /* \"#utility.yul\":8615:8676   */\n      mstore\n        /* \"#utility.yul\":8693:8711   */\n      0x64\n      add\n        /* \"@openzeppelin/contracts/token/ERC20/ERC20.sol\":8477:8542  require(account != address(0), \"ERC20: mint to the zero address\") */\n      tag_104\n        /* \"#utility.yul\":8362:8717   */\n      jump\n        /* \"@openzeppelin/contracts/token/ERC20/ERC20.sol\":8477:8542  require(account != address(0), \"ERC20: mint to the zero address\") */\n    tag_218:\n        /* \"@openzeppelin/contracts/token/ERC20/ERC20.sol\":8629:8635  amount */\n      dup1\n        /* \"@openzeppelin/contracts/token/ERC20/ERC20.sol\":8613:8625  _totalSupply */\n      0x02\n      0x00\n        /* \"@openzeppelin/contracts/token/ERC20/ERC20.sol\":8613:8635  _totalSupply += amount */\n      dup3\n      dup3\n      sload\n      tag_222\n      swap2\n      swap1\n      tag_155\n      jump\t// in\n    tag_222:\n      swap1\n      swap2\n      sstore\n      pop\n      pop\n      sub(shl(0xa0, 0x01), 0x01)\n        /* \"@openzeppelin/contracts/token/ERC20/ERC20.sol\":8645:8663  _balances[account] */\n      dup3\n      and\n        /* \"@openzeppelin/contracts/token/ERC20/ERC20.sol\":8645:8654  _balances */\n      0x00\n        /* \"@openzeppelin/contracts/token/ERC20/ERC20.sol\":8645:8663  _balances[account] */\n      swap1\n      dup2\n      mstore\n      0x20\n      dup2\n      swap1\n      mstore\n      0x40\n      dup2\n      keccak256\n        /* \"@openzeppelin/contracts/token/ERC20/ERC20.sol\":8645:8673  _balances[account] += amount */\n      dup1\n      sload\n        /* \"@openzeppelin/contracts/token/ERC20/ERC20.sol\":8667:8673  amount */\n      dup4\n      swap3\n        /* \"@openzeppelin/contracts/token/ERC20/ERC20.sol\":8645:8654  _balances */\n      swap1\n        /* \"@openzeppelin/contracts/token/ERC20/ERC20.sol\":8645:8673  _balances[account] += amount */\n      tag_223\n      swap1\n        /* \"@openzeppelin/contracts/token/ERC20/ERC20.sol\":8667:8673  amount */\n      dup5\n      swap1\n        /* \"@openzeppelin/contracts/token/ERC20/ERC20.sol\":8645:8673  _balances[account] += amount */\n      tag_155\n      jump\t// in\n    tag_223:\n      swap1\n      swap2\n      sstore\n      pop\n      pop\n        /* \"@openzeppelin/contracts/token/ERC20/ERC20.sol\":8688:8725  Transfer(address(0), account, amount) */\n      mload(0x40)\n        /* \"#utility.yul\":8868:8893   */\n      dup2\n      dup2\n      mstore\n      sub(shl(0xa0, 0x01), 0x01)\n        /* \"@openzeppelin/contracts/token/ERC20/ERC20.sol\":8688:8725  Transfer(address(0), account, amount) */\n      dup4\n      and\n      swap1\n        /* \"@openzeppelin/contracts/token/ERC20/ERC20.sol\":8705:8706  0 */\n      0x00\n      swap1\n        /* \"@openzeppelin/contracts/token/ERC20/ERC20.sol\":8688:8725  Transfer(address(0), account, amount) */\n      0xddf252ad1be2c89b69c2b068fc378daa952ba7f163c4a11628f55a4df523b3ef\n      swap1\n        /* \"#utility.yul\":8856:8858   */\n      0x20\n        /* \"#utility.yul\":8841:8859   */\n      add\n        /* \"@openzeppelin/contracts/token/ERC20/ERC20.sol\":8688:8725  Transfer(address(0), account, amount) */\n      mload(0x40)\n      dup1\n      swap2\n      sub\n      swap1\n      log3\n        /* \"Re-fungible_Tokens/contracts/AssetFundRaising.sol\":1064:1136  DAI.transfer(NFT.ownerOf(uint256(uint160(address(this)))), targetAmount) */\n      pop\n        /* \"Re-fungible_Tokens/contracts/AssetFundRaising.sol\":787:1181  function invest(uint256 value) external {... */\n      pop\n      jump\t// out\n        /* \"#utility.yul\":14:261   */\n    tag_58:\n        /* \"#utility.yul\":73:79   */\n      0x00\n        /* \"#utility.yul\":126:128   */\n      0x20\n        /* \"#utility.yul\":114:123   */\n      dup3\n        /* \"#utility.yul\":105:112   */\n      dup5\n        /* \"#utility.yul\":101:124   */\n      sub\n        /* \"#utility.yul\":97:129   */\n      slt\n        /* \"#utility.yul\":94:146   */\n      iszero\n      tag_230\n      jumpi\n        /* \"#utility.yul\":142:143   */\n      0x00\n        /* \"#utility.yul\":139:140   */\n      dup1\n        /* \"#utility.yul\":132:144   */\n      revert\n        /* \"#utility.yul\":94:146   */\n    tag_230:\n        /* \"#utility.yul\":181:190   */\n      dup2\n        /* \"#utility.yul\":168:191   */\n      calldataload\n        /* \"#utility.yul\":200:231   */\n      tag_231\n        /* \"#utility.yul\":225:230   */\n      dup2\n        /* \"#utility.yul\":200:231   */\n      tag_232\n      jump\t// in\n    tag_231:\n        /* \"#utility.yul\":250:255   */\n      swap4\n        /* \"#utility.yul\":14:261   */\n      swap3\n      pop\n      pop\n      pop\n      jump\t// out\n        /* \"#utility.yul\":266:517   */\n    tag_143:\n        /* \"#utility.yul\":336:342   */\n      0x00\n        /* \"#utility.yul\":389:391   */\n      0x20\n        /* \"#utility.yul\":377:386   */\n      dup3\n        /* \"#utility.yul\":368:375   */\n      dup5\n        /* \"#utility.yul\":364:387   */\n      sub\n        /* \"#utility.yul\":360:392   */\n      slt\n        /* \"#utility.yul\":357:409   */\n      iszero\n      tag_234\n      jumpi\n        /* \"#utility.yul\":405:406   */\n      0x00\n        /* \"#utility.yul\":402:403   */\n      dup1\n        /* \"#utility.yul\":395:407   */\n      revert\n        /* \"#utility.yul\":357:409   */\n    tag_234:\n        /* \"#utility.yul\":437:446   */\n      dup2\n        /* \"#utility.yul\":431:447   */\n      mload\n        /* \"#utility.yul\":456:487   */\n      tag_231\n        /* \"#utility.yul\":481:486   */\n      dup2\n        /* \"#utility.yul\":456:487   */\n      tag_232\n      jump\t// in\n        /* \"#utility.yul\":522:910   */\n    tag_81:\n        /* \"#utility.yul\":590:596   */\n      0x00\n        /* \"#utility.yul\":598:604   */\n      dup1\n        /* \"#utility.yul\":651:653   */\n      0x40\n        /* \"#utility.yul\":639:648   */\n      dup4\n        /* \"#utility.yul\":630:637   */\n      dup6\n        /* \"#utility.yul\":626:649   */\n      sub\n        /* \"#utility.yul\":622:654   */\n      slt\n        /* \"#utility.yul\":619:671   */\n      iszero\n      tag_237\n      jumpi\n        /* \"#utility.yul\":667:668   */\n      0x00\n        /* \"#utility.yul\":664:665   */\n      dup1\n        /* \"#utility.yul\":657:669   */\n      revert\n        /* \"#utility.yul\":619:671   */\n    tag_237:\n        /* \"#utility.yul\":706:715   */\n      dup3\n        /* \"#utility.yul\":693:716   */\n      calldataload\n        /* \"#utility.yul\":725:756   */\n      tag_238\n        /* \"#utility.yul\":750:755   */\n      dup2\n        /* \"#utility.yul\":725:756   */\n      tag_232\n      jump\t// in\n    tag_238:\n        /* \"#utility.yul\":775:780   */\n      swap2\n      pop\n        /* \"#utility.yul\":832:834   */\n      0x20\n        /* \"#utility.yul\":817:835   */\n      dup4\n      add\n        /* \"#utility.yul\":804:836   */\n      calldataload\n        /* \"#utility.yul\":845:878   */\n      tag_239\n        /* \"#utility.yul\":804:836   */\n      dup2\n        /* \"#utility.yul\":845:878   */\n      tag_232\n      jump\t// in\n    tag_239:\n        /* \"#utility.yul\":897:904   */\n      dup1\n        /* \"#utility.yul\":887:904   */\n      swap2\n      pop\n      pop\n        /* \"#utility.yul\":522:910   */\n      swap3\n      pop\n      swap3\n      swap1\n      pop\n      jump\t// out\n        /* \"#utility.yul\":915:1371   */\n    tag_42:\n        /* \"#utility.yul\":992:998   */\n      0x00\n        /* \"#utility.yul\":1000:1006   */\n      dup1\n        /* \"#utility.yul\":1008:1014   */\n      0x00\n        /* \"#utility.yul\":1061:1063   */\n      0x60\n        /* \"#utility.yul\":1049:1058   */\n      dup5\n        /* \"#utility.yul\":1040:1047   */\n      dup7\n        /* \"#utility.yul\":1036:1059   */\n      sub\n        /* \"#utility.yul\":1032:1064   */\n      slt\n        /* \"#utility.yul\":1029:1081   */\n      iszero\n      tag_241\n      jumpi\n        /* \"#utility.yul\":1077:1078   */\n      0x00\n        /* \"#utility.yul\":1074:1075   */\n      dup1\n        /* \"#utility.yul\":1067:1079   */\n      revert\n        /* \"#utility.yul\":1029:1081   */\n    tag_241:\n        /* \"#utility.yul\":1116:1125   */\n      dup4\n        /* \"#utility.yul\":1103:1126   */\n      calldataload\n        /* \"#utility.yul\":1135:1166   */\n      tag_242\n        /* \"#utility.yul\":1160:1165   */\n      dup2\n        /* \"#utility.yul\":1135:1166   */\n      tag_232\n      jump\t// in\n    tag_242:\n        /* \"#utility.yul\":1185:1190   */\n      swap3\n      pop\n        /* \"#utility.yul\":1242:1244   */\n      0x20\n        /* \"#utility.yul\":1227:1245   */\n      dup5\n      add\n        /* \"#utility.yul\":1214:1246   */\n      calldataload\n        /* \"#utility.yul\":1255:1288   */\n      tag_243\n        /* \"#utility.yul\":1214:1246   */\n      dup2\n        /* \"#utility.yul\":1255:1288   */\n      tag_232\n      jump\t// in\n    tag_243:\n        /* \"#utility.yul\":915:1371   */\n      swap3\n      swap6\n        /* \"#utility.yul\":1307:1314   */\n      swap3\n      swap5\n      pop\n      pop\n      pop\n        /* \"#utility.yul\":1361:1363   */\n      0x40\n        /* \"#utility.yul\":1346:1364   */\n      swap2\n      swap1\n      swap2\n      add\n        /* \"#utility.yul\":1333:1365   */\n      calldataload\n      swap1\n        /* \"#utility.yul\":915:1371   */\n      jump\t// out\n        /* \"#utility.yul\":1376:1691   */\n    tag_28:\n        /* \"#utility.yul\":1444:1450   */\n      0x00\n        /* \"#utility.yul\":1452:1458   */\n      dup1\n        /* \"#utility.yul\":1505:1507   */\n      0x40\n        /* \"#utility.yul\":1493:1502   */\n      dup4\n        /* \"#utility.yul\":1484:1491   */\n      dup6\n        /* \"#utility.yul\":1480:1503   */\n      sub\n        /* \"#utility.yul\":1476:1508   */\n      slt\n        /* \"#utility.yul\":1473:1525   */\n      iszero\n      tag_245\n      jumpi\n        /* \"#utility.yul\":1521:1522   */\n      0x00\n        /* \"#utility.yul\":1518:1519   */\n      dup1\n        /* \"#utility.yul\":1511:1523   */\n      revert\n        /* \"#utility.yul\":1473:1525   */\n    tag_245:\n        /* \"#utility.yul\":1560:1569   */\n      dup3\n        /* \"#utility.yul\":1547:1570   */\n      calldataload\n        /* \"#utility.yul\":1579:1610   */\n      tag_246\n        /* \"#utility.yul\":1604:1609   */\n      dup2\n        /* \"#utility.yul\":1579:1610   */\n      tag_232\n      jump\t// in\n    tag_246:\n        /* \"#utility.yul\":1629:1634   */\n      swap5\n        /* \"#utility.yul\":1681:1683   */\n      0x20\n        /* \"#utility.yul\":1666:1684   */\n      swap4\n      swap1\n      swap4\n      add\n        /* \"#utility.yul\":1653:1685   */\n      calldataload\n      swap4\n      pop\n      pop\n      pop\n        /* \"#utility.yul\":1376:1691   */\n      jump\t// out\n        /* \"#utility.yul\":1696:1973   */\n    tag_112:\n        /* \"#utility.yul\":1763:1769   */\n      0x00\n        /* \"#utility.yul\":1816:1818   */\n      0x20\n        /* \"#utility.yul\":1804:1813   */\n      dup3\n        /* \"#utility.yul\":1795:1802   */\n      dup5\n        /* \"#utility.yul\":1791:1814   */\n      sub\n        /* \"#utility.yul\":1787:1819   */\n      slt\n        /* \"#utility.yul\":1784:1836   */\n      iszero\n      tag_248\n      jumpi\n        /* \"#utility.yul\":1832:1833   */\n      0x00\n        /* \"#utility.yul\":1829:1830   */\n      dup1\n        /* \"#utility.yul\":1822:1834   */\n      revert\n        /* \"#utility.yul\":1784:1836   */\n    tag_248:\n        /* \"#utility.yul\":1864:1873   */\n      dup2\n        /* \"#utility.yul\":1858:1874   */\n      mload\n        /* \"#utility.yul\":1917:1922   */\n      dup1\n        /* \"#utility.yul\":1910:1923   */\n      iszero\n        /* \"#utility.yul\":1903:1924   */\n      iszero\n        /* \"#utility.yul\":1896:1901   */\n      dup2\n        /* \"#utility.yul\":1893:1925   */\n      eq\n        /* \"#utility.yul\":1883:1943   */\n      tag_231\n      jumpi\n        /* \"#utility.yul\":1939:1940   */\n      0x00\n        /* \"#utility.yul\":1936:1937   */\n      dup1\n        /* \"#utility.yul\":1929:1941   */\n      revert\n        /* \"#utility.yul\":1978:2158   */\n    tag_38:\n        /* \"#utility.yul\":2037:2043   */\n      0x00\n        /* \"#utility.yul\":2090:2092   */\n      0x20\n        /* \"#utility.yul\":2078:2087   */\n      dup3\n        /* \"#utility.yul\":2069:2076   */\n      dup5\n        /* \"#utility.yul\":2065:2088   */\n      sub\n        /* \"#utility.yul\":2061:2093   */\n      slt\n        /* \"#utility.yul\":2058:2110   */\n      iszero\n      tag_251\n      jumpi\n        /* \"#utility.yul\":2106:2107   */\n      0x00\n        /* \"#utility.yul\":2103:2104   */\n      dup1\n        /* \"#utility.yul\":2096:2108   */\n      revert\n        /* \"#utility.yul\":2058:2110   */\n    tag_251:\n      pop\n        /* \"#utility.yul\":2129:2152   */\n      calldataload\n      swap2\n        /* \"#utility.yul\":1978:2158   */\n      swap1\n      pop\n      jump\t// out\n        /* \"#utility.yul\":3459:4056   */\n    tag_25:\n        /* \"#utility.yul\":3571:3575   */\n      0x00\n        /* \"#utility.yul\":3600:3602   */\n      0x20\n        /* \"#utility.yul\":3629:3631   */\n      dup1\n        /* \"#utility.yul\":3618:3627   */\n      dup4\n        /* \"#utility.yul\":3611:3632   */\n      mstore\n        /* \"#utility.yul\":3661:3667   */\n      dup4\n        /* \"#utility.yul\":3655:3668   */\n      mload\n        /* \"#utility.yul\":3704:3710   */\n      dup1\n        /* \"#utility.yul\":3699:3701   */\n      dup3\n        /* \"#utility.yul\":3688:3697   */\n      dup6\n        /* \"#utility.yul\":3684:3702   */\n      add\n        /* \"#utility.yul\":3677:3711   */\n      mstore\n        /* \"#utility.yul\":3729:3730   */\n      0x00\n        /* \"#utility.yul\":3739:3879   */\n    tag_258:\n        /* \"#utility.yul\":3753:3759   */\n      dup2\n        /* \"#utility.yul\":3750:3751   */\n      dup2\n        /* \"#utility.yul\":3747:3760   */\n      lt\n        /* \"#utility.yul\":3739:3879   */\n      iszero\n      tag_260\n      jumpi\n        /* \"#utility.yul\":3848:3862   */\n      dup6\n      dup2\n      add\n        /* \"#utility.yul\":3844:3867   */\n      dup4\n      add\n        /* \"#utility.yul\":3838:3868   */\n      mload\n        /* \"#utility.yul\":3814:3831   */\n      dup6\n      dup3\n      add\n        /* \"#utility.yul\":3833:3835   */\n      0x40\n        /* \"#utility.yul\":3810:3836   */\n      add\n        /* \"#utility.yul\":3803:3869   */\n      mstore\n        /* \"#utility.yul\":3768:3778   */\n      dup3\n      add\n        /* \"#utility.yul\":3739:3879   */\n      jump(tag_258)\n    tag_260:\n        /* \"#utility.yul\":3897:3903   */\n      dup2\n        /* \"#utility.yul\":3894:3895   */\n      dup2\n        /* \"#utility.yul\":3891:3904   */\n      gt\n        /* \"#utility.yul\":3888:3979   */\n      iszero\n      tag_261\n      jumpi\n        /* \"#utility.yul\":3967:3968   */\n      0x00\n        /* \"#utility.yul\":3962:3964   */\n      0x40\n        /* \"#utility.yul\":3953:3959   */\n      dup4\n        /* \"#utility.yul\":3942:3951   */\n      dup8\n        /* \"#utility.yul\":3938:3960   */\n      add\n        /* \"#utility.yul\":3934:3965   */\n      add\n        /* \"#utility.yul\":3927:3969   */\n      mstore\n        /* \"#utility.yul\":3888:3979   */\n    tag_261:\n      pop\n        /* \"#utility.yul\":4040:4042   */\n      0x1f\n        /* \"#utility.yul\":4019:4034   */\n      add\n      not(0x1f)\n        /* \"#utility.yul\":4015:4044   */\n      and\n        /* \"#utility.yul\":4000:4045   */\n      swap3\n      swap1\n      swap3\n      add\n        /* \"#utility.yul\":4047:4049   */\n      0x40\n        /* \"#utility.yul\":3996:4050   */\n      add\n      swap4\n        /* \"#utility.yul\":3459:4056   */\n      swap3\n      pop\n      pop\n      pop\n      jump\t// out\n        /* \"#utility.yul\":9093:9221   */\n    tag_155:\n        /* \"#utility.yul\":9133:9136   */\n      0x00\n        /* \"#utility.yul\":9164:9165   */\n      dup3\n        /* \"#utility.yul\":9160:9166   */\n      not\n        /* \"#utility.yul\":9157:9158   */\n      dup3\n        /* \"#utility.yul\":9154:9167   */\n      gt\n        /* \"#utility.yul\":9151:9190   */\n      iszero\n      tag_278\n      jumpi\n        /* \"#utility.yul\":9170:9188   */\n      tag_278\n      tag_279\n      jump\t// in\n    tag_278:\n      pop\n        /* \"#utility.yul\":9206:9215   */\n      add\n      swap1\n        /* \"#utility.yul\":9093:9221   */\n      jump\t// out\n        /* \"#utility.yul\":9226:9351   */\n    tag_124:\n        /* \"#utility.yul\":9266:9270   */\n      0x00\n        /* \"#utility.yul\":9294:9295   */\n      dup3\n        /* \"#utility.yul\":9291:9292   */\n      dup3\n        /* \"#utility.yul\":9288:9296   */\n      lt\n        /* \"#utility.yul\":9285:9319   */\n      iszero\n      tag_282\n      jumpi\n        /* \"#utility.yul\":9299:9317   */\n      tag_282\n      tag_279\n      jump\t// in\n    tag_282:\n      pop\n        /* \"#utility.yul\":9336:9345   */\n      sub\n      swap1\n        /* \"#utility.yul\":9226:9351   */\n      jump\t// out\n        /* \"#utility.yul\":9356:9736   */\n    tag_90:\n        /* \"#utility.yul\":9435:9436   */\n      0x01\n        /* \"#utility.yul\":9431:9443   */\n      dup2\n      dup2\n      shr\n      swap1\n        /* \"#utility.yul\":9478:9490   */\n      dup3\n      and\n      dup1\n        /* \"#utility.yul\":9499:9560   */\n      tag_284\n      jumpi\n        /* \"#utility.yul\":9553:9557   */\n      0x7f\n        /* \"#utility.yul\":9545:9551   */\n      dup3\n        /* \"#utility.yul\":9541:9558   */\n      and\n        /* \"#utility.yul\":9531:9558   */\n      swap2\n      pop\n        /* \"#utility.yul\":9499:9560   */\n    tag_284:\n        /* \"#utility.yul\":9606:9608   */\n      0x20\n        /* \"#utility.yul\":9598:9604   */\n      dup3\n        /* \"#utility.yul\":9595:9609   */\n      lt\n        /* \"#utility.yul\":9575:9593   */\n      dup2\n        /* \"#utility.yul\":9572:9610   */\n      eq\n        /* \"#utility.yul\":9569:9730   */\n      iszero\n      tag_285\n      jumpi\n        /* \"#utility.yul\":9652:9662   */\n      0x4e487b71\n        /* \"#utility.yul\":9647:9650   */\n      0xe0\n        /* \"#utility.yul\":9643:9663   */\n      shl\n        /* \"#utility.yul\":9640:9641   */\n      0x00\n        /* \"#utility.yul\":9633:9664   */\n      mstore\n        /* \"#utility.yul\":9687:9691   */\n      0x22\n        /* \"#utility.yul\":9684:9685   */\n      0x04\n        /* \"#utility.yul\":9677:9692   */\n      mstore\n        /* \"#utility.yul\":9715:9719   */\n      0x24\n        /* \"#utility.yul\":9712:9713   */\n      0x00\n        /* \"#utility.yul\":9705:9720   */\n      revert\n        /* \"#utility.yul\":9569:9730   */\n    tag_285:\n      pop\n        /* \"#utility.yul\":9356:9736   */\n      swap2\n      swap1\n      pop\n      jump\t// out\n        /* \"#utility.yul\":9741:9868   */\n    tag_279:\n        /* \"#utility.yul\":9802:9812   */\n      0x4e487b71\n        /* \"#utility.yul\":9797:9800   */\n      0xe0\n        /* \"#utility.yul\":9793:9813   */\n      shl\n        /* \"#utility.yul\":9790:9791   */\n      0x00\n        /* \"#utility.yul\":9783:9814   */\n      mstore\n        /* \"#utility.yul\":9833:9837   */\n      0x11\n        /* \"#utility.yul\":9830:9831   */\n      0x04\n        /* \"#utility.yul\":9823:9838   */\n      mstore\n        /* \"#utility.yul\":9857:9861   */\n      0x24\n        /* \"#utility.yul\":9854:9855   */\n      0x00\n        /* \"#utility.yul\":9847:9862   */\n      revert\n        /* \"#utility.yul\":9873:10004   */\n    tag_232:\n      sub(shl(0xa0, 0x01), 0x01)\n        /* \"#utility.yul\":9948:9979   */\n      dup2\n      and\n        /* \"#utility.yul\":9938:9980   */\n      dup2\n      eq\n        /* \"#utility.yul\":9928:9998   */\n      tag_113\n      jumpi\n        /* \"#utility.yul\":9994:9995   */\n      0x00\n        /* \"#utility.yul\":9991:9992   */\n      dup1\n        /* \"#utility.yul\":9984:9996   */\n      revert\n\n    auxdata: 0xa2646970667358221220811872a04d5ed7d5f484baf8134af79176ca244618445f1ca9d556f45d081b2564736f6c63430008070033\n}\n",
				"bytecode": {
					"linkReferences": {},
					"object": "60a06040523480156200001157600080fd5b5060405162001228380380620012288339810160408190526200003491620001f7565b8251839083906200004d9060039060208501906200009a565b508051620000639060049060208401906200009a565b5050506006939093555050600580546001600160a01b0319166001600160a01b039092169190911790553360601b608052620002e0565b828054620000a8906200028d565b90600052602060002090601f016020900481019282620000cc576000855562000117565b82601f10620000e757805160ff191683800117855562000117565b8280016001018555821562000117579182015b8281111562000117578251825591602001919060010190620000fa565b506200012592915062000129565b5090565b5b808211156200012557600081556001016200012a565b600082601f8301126200015257600080fd5b81516001600160401b03808211156200016f576200016f620002ca565b604051601f8301601f19908116603f011681019082821181831017156200019a576200019a620002ca565b81604052838152602092508683858801011115620001b757600080fd5b600091505b83821015620001db5785820183015181830184015290820190620001bc565b83821115620001ed5760008385830101525b9695505050505050565b600080600080608085870312156200020e57600080fd5b845160208601519094506001600160401b03808211156200022e57600080fd5b6200023c8883890162000140565b945060408701519150808211156200025357600080fd5b50620002628782880162000140565b606087015190935090506001600160a01b03811681146200028257600080fd5b939692955090935050565b600181811c90821680620002a257607f821691505b60208210811415620002c457634e487b7160e01b600052602260045260246000fd5b50919050565b634e487b7160e01b600052604160045260246000fd5b60805160601c610f2262000306600039600081816101e301526105680152610f226000f3fe608060405234801561001057600080fd5b50600436106101005760003560e01c806370a0823111610097578063a457c2d711610066578063a457c2d71461022e578063a9059cbb14610241578063dd62ed3e14610254578063e0bab4c41461026757600080fd5b806370a08231146101b55780637c0b8de2146101de578063953b8fb81461021d57806395d89b411461022657600080fd5b806323b872dd116100d357806323b872dd1461016d5780632afcf48014610180578063313ce5671461019357806339509351146101a257600080fd5b806306fdde0314610105578063095ea7b31461012357806318160ddd146101465780632037fcbf14610158575b600080fd5b61010d61027a565b60405161011a9190610e02565b60405180910390f35b610136610131366004610d9b565b61030c565b604051901515815260200161011a565b6002545b60405190815260200161011a565b61016b610166366004610de9565b610324565b005b61013661017b366004610d5a565b61041a565b61016b61018e366004610de9565b61043e565b6040516012815260200161011a565b6101366101b0366004610d9b565b610669565b61014a6101c3366004610ce0565b6001600160a01b031660009081526020819052604090205490565b6102057f000000000000000000000000000000000000000000000000000000000000000081565b6040516001600160a01b03909116815260200161011a565b61014a60065481565b61010d61068b565b61013661023c366004610d9b565b61069a565b61013661024f366004610d9b565b610715565b61014a610262366004610d21565b610723565b600554610205906001600160a01b031681565b60606003805461028990610e86565b80601f01602080910402602001604051908101604052809291908181526020018280546102b590610e86565b80156103025780601f106102d757610100808354040283529160200191610302565b820191906000526020600020905b8154815290600101906020018083116102e557829003601f168201915b5050505050905090565b60003361031a81858561074e565b5060019392505050565b336000908152602081905260409020548111156103885760405162461bcd60e51b815260206004820152601a60248201527f4e6f7420656e6f756768207368617265732062616c616e63652100000000000060448201526064015b60405180910390fd5b60055460405163a9059cbb60e01b8152336004820152602481018390526001600160a01b039091169063a9059cbb90604401602060405180830381600087803b1580156103d457600080fd5b505af11580156103e8573d6000803e3d6000fd5b505050506040513d601f19601f8201168201806040525081019061040c9190610dc7565b506104173382610873565b50565b6000336104288582856109b9565b610433858585610a33565b506001949350505050565b60025460065461044e9190610e6f565b81111561049d5760405162461bcd60e51b815260206004820152601760248201527f4e6f7420656e6f75676820736861726573206c65667421000000000000000000604482015260640161037f565b6005546040516323b872dd60e01b8152336004820152306024820152604481018390526001600160a01b03909116906323b872dd90606401602060405180830381600087803b1580156104ef57600080fd5b505af1158015610503573d6000803e3d6000fd5b505050506040513d601f19601f820116820180604052508101906105279190610dc7565b506105323382610c01565b6002546006541415610417576005546040516331a9108f60e11b81523060048201526001600160a01b039182169163a9059cbb917f000000000000000000000000000000000000000000000000000000000000000090911690636352211e9060240160206040518083038186803b1580156105ac57600080fd5b505afa1580156105c0573d6000803e3d6000fd5b505050506040513d601f19601f820116820180604052508101906105e49190610d04565b6006546040516001600160e01b031960e085901b1681526001600160a01b0390921660048301526024820152604401602060405180830381600087803b15801561062d57600080fd5b505af1158015610641573d6000803e3d6000fd5b505050506040513d601f19601f820116820180604052508101906106659190610dc7565b5050565b60003361031a81858561067c8383610723565b6106869190610e57565b61074e565b60606004805461028990610e86565b600033816106a88286610723565b9050838110156107085760405162461bcd60e51b815260206004820152602560248201527f45524332303a2064656372656173656420616c6c6f77616e63652062656c6f77604482015264207a65726f60d81b606482015260840161037f565b610433828686840361074e565b60003361031a818585610a33565b6001600160a01b03918216600090815260016020908152604080832093909416825291909152205490565b6001600160a01b0383166107b05760405162461bcd60e51b8152602060048201526024808201527f45524332303a20617070726f76652066726f6d20746865207a65726f206164646044820152637265737360e01b606482015260840161037f565b6001600160a01b0382166108115760405162461bcd60e51b815260206004820152602260248201527f45524332303a20617070726f766520746f20746865207a65726f206164647265604482015261737360f01b606482015260840161037f565b6001600160a01b0383811660008181526001602090815260408083209487168084529482529182902085905590518481527f8c5be1e5ebec7d5bd14f71427d1e84f3dd0314c0f7b2291e5b200ac8c7c3b92591015b60405180910390a3505050565b6001600160a01b0382166108d35760405162461bcd60e51b815260206004820152602160248201527f45524332303a206275726e2066726f6d20746865207a65726f206164647265736044820152607360f81b606482015260840161037f565b6001600160a01b038216600090815260208190526040902054818110156109475760405162461bcd60e51b815260206004820152602260248201527f45524332303a206275726e20616d6f756e7420657863656564732062616c616e604482015261636560f01b606482015260840161037f565b6001600160a01b0383166000908152602081905260408120838303905560028054849290610976908490610e6f565b90915550506040518281526000906001600160a01b038516907fddf252ad1be2c89b69c2b068fc378daa952ba7f163c4a11628f55a4df523b3ef90602001610866565b60006109c58484610723565b90506000198114610a2d5781811015610a205760405162461bcd60e51b815260206004820152601d60248201527f45524332303a20696e73756666696369656e7420616c6c6f77616e6365000000604482015260640161037f565b610a2d848484840361074e565b50505050565b6001600160a01b038316610a975760405162461bcd60e51b815260206004820152602560248201527f45524332303a207472616e736665722066726f6d20746865207a65726f206164604482015264647265737360d81b606482015260840161037f565b6001600160a01b038216610af95760405162461bcd60e51b815260206004820152602360248201527f45524332303a207472616e7366657220746f20746865207a65726f206164647260448201526265737360e81b606482015260840161037f565b6001600160a01b03831660009081526020819052604090205481811015610b715760405162461bcd60e51b815260206004820152602660248201527f45524332303a207472616e7366657220616d6f756e7420657863656564732062604482015265616c616e636560d01b606482015260840161037f565b6001600160a01b03808516600090815260208190526040808220858503905591851681529081208054849290610ba8908490610e57565b92505081905550826001600160a01b0316846001600160a01b03167fddf252ad1be2c89b69c2b068fc378daa952ba7f163c4a11628f55a4df523b3ef84604051610bf491815260200190565b60405180910390a3610a2d565b6001600160a01b038216610c575760405162461bcd60e51b815260206004820152601f60248201527f45524332303a206d696e7420746f20746865207a65726f206164647265737300604482015260640161037f565b8060026000828254610c699190610e57565b90915550506001600160a01b03821660009081526020819052604081208054839290610c96908490610e57565b90915550506040518181526001600160a01b038316906000907fddf252ad1be2c89b69c2b068fc378daa952ba7f163c4a11628f55a4df523b3ef9060200160405180910390a35050565b600060208284031215610cf257600080fd5b8135610cfd81610ed7565b9392505050565b600060208284031215610d1657600080fd5b8151610cfd81610ed7565b60008060408385031215610d3457600080fd5b8235610d3f81610ed7565b91506020830135610d4f81610ed7565b809150509250929050565b600080600060608486031215610d6f57600080fd5b8335610d7a81610ed7565b92506020840135610d8a81610ed7565b929592945050506040919091013590565b60008060408385031215610dae57600080fd5b8235610db981610ed7565b946020939093013593505050565b600060208284031215610dd957600080fd5b81518015158114610cfd57600080fd5b600060208284031215610dfb57600080fd5b5035919050565b600060208083528351808285015260005b81811015610e2f57858101830151858201604001528201610e13565b81811115610e41576000604083870101525b50601f01601f1916929092016040019392505050565b60008219821115610e6a57610e6a610ec1565b500190565b600082821015610e8157610e81610ec1565b500390565b600181811c90821680610e9a57607f821691505b60208210811415610ebb57634e487b7160e01b600052602260045260246000fd5b50919050565b634e487b7160e01b600052601160045260246000fd5b6001600160a01b038116811461041757600080fdfea2646970667358221220811872a04d5ed7d5f484baf8134af79176ca244618445f1ca9d556f45d081b2564736f6c63430008070033",
					"opcodes": "PUSH1 0xA0 PUSH1 0x40 MSTORE CALLVALUE DUP1 ISZERO PUSH3 0x11 JUMPI PUSH1 0x0 DUP1 REVERT JUMPDEST POP PUSH1 0x40 MLOAD PUSH3 0x1228 CODESIZE SUB DUP1 PUSH3 0x1228 DUP4 CODECOPY DUP2 ADD PUSH1 0x40 DUP2 SWAP1 MSTORE PUSH3 0x34 SWAP2 PUSH3 0x1F7 JUMP JUMPDEST DUP3 MLOAD DUP4 SWAP1 DUP4 SWAP1 PUSH3 0x4D SWAP1 PUSH1 0x3 SWAP1 PUSH1 0x20 DUP6 ADD SWAP1 PUSH3 0x9A JUMP JUMPDEST POP DUP1 MLOAD PUSH3 0x63 SWAP1 PUSH1 0x4 SWAP1 PUSH1 0x20 DUP5 ADD SWAP1 PUSH3 0x9A JUMP JUMPDEST POP POP POP PUSH1 0x6 SWAP4 SWAP1 SWAP4 SSTORE POP POP PUSH1 0x5 DUP1 SLOAD PUSH1 0x1 PUSH1 0x1 PUSH1 0xA0 SHL SUB NOT AND PUSH1 0x1 PUSH1 0x1 PUSH1 0xA0 SHL SUB SWAP1 SWAP3 AND SWAP2 SWAP1 SWAP2 OR SWAP1 SSTORE CALLER PUSH1 0x60 SHL PUSH1 0x80 MSTORE PUSH3 0x2E0 JUMP JUMPDEST DUP3 DUP1 SLOAD PUSH3 0xA8 SWAP1 PUSH3 0x28D JUMP JUMPDEST SWAP1 PUSH1 0x0 MSTORE PUSH1 0x20 PUSH1 0x0 KECCAK256 SWAP1 PUSH1 0x1F ADD PUSH1 0x20 SWAP1 DIV DUP2 ADD SWAP3 DUP3 PUSH3 0xCC JUMPI PUSH1 0x0 DUP6 SSTORE PUSH3 0x117 JUMP JUMPDEST DUP3 PUSH1 0x1F LT PUSH3 0xE7 JUMPI DUP1 MLOAD PUSH1 0xFF NOT AND DUP4 DUP1 ADD OR DUP6 SSTORE PUSH3 0x117 JUMP JUMPDEST DUP3 DUP1 ADD PUSH1 0x1 ADD DUP6 SSTORE DUP3 ISZERO PUSH3 0x117 JUMPI SWAP2 DUP3 ADD JUMPDEST DUP3 DUP2 GT ISZERO PUSH3 0x117 JUMPI DUP3 MLOAD DUP3 SSTORE SWAP2 PUSH1 0x20 ADD SWAP2 SWAP1 PUSH1 0x1 ADD SWAP1 PUSH3 0xFA JUMP JUMPDEST POP PUSH3 0x125 SWAP3 SWAP2 POP PUSH3 0x129 JUMP JUMPDEST POP SWAP1 JUMP JUMPDEST JUMPDEST DUP1 DUP3 GT ISZERO PUSH3 0x125 JUMPI PUSH1 0x0 DUP2 SSTORE PUSH1 0x1 ADD PUSH3 0x12A JUMP JUMPDEST PUSH1 0x0 DUP3 PUSH1 0x1F DUP4 ADD SLT PUSH3 0x152 JUMPI PUSH1 0x0 DUP1 REVERT JUMPDEST DUP2 MLOAD PUSH1 0x1 PUSH1 0x1 PUSH1 0x40 SHL SUB DUP1 DUP3 GT ISZERO PUSH3 0x16F JUMPI PUSH3 0x16F PUSH3 0x2CA JUMP JUMPDEST PUSH1 0x40 MLOAD PUSH1 0x1F DUP4 ADD PUSH1 0x1F NOT SWAP1 DUP2 AND PUSH1 0x3F ADD AND DUP2 ADD SWAP1 DUP3 DUP3 GT DUP2 DUP4 LT OR ISZERO PUSH3 0x19A JUMPI PUSH3 0x19A PUSH3 0x2CA JUMP JUMPDEST DUP2 PUSH1 0x40 MSTORE DUP4 DUP2 MSTORE PUSH1 0x20 SWAP3 POP DUP7 DUP4 DUP6 DUP9 ADD ADD GT ISZERO PUSH3 0x1B7 JUMPI PUSH1 0x0 DUP1 REVERT JUMPDEST PUSH1 0x0 SWAP2 POP JUMPDEST DUP4 DUP3 LT ISZERO PUSH3 0x1DB JUMPI DUP6 DUP3 ADD DUP4 ADD MLOAD DUP2 DUP4 ADD DUP5 ADD MSTORE SWAP1 DUP3 ADD SWAP1 PUSH3 0x1BC JUMP JUMPDEST DUP4 DUP3 GT ISZERO PUSH3 0x1ED JUMPI PUSH1 0x0 DUP4 DUP6 DUP4 ADD ADD MSTORE JUMPDEST SWAP7 SWAP6 POP POP POP POP POP POP JUMP JUMPDEST PUSH1 0x0 DUP1 PUSH1 0x0 DUP1 PUSH1 0x80 DUP6 DUP8 SUB SLT ISZERO PUSH3 0x20E JUMPI PUSH1 0x0 DUP1 REVERT JUMPDEST DUP5 MLOAD PUSH1 0x20 DUP7 ADD MLOAD SWAP1 SWAP5 POP PUSH1 0x1 PUSH1 0x1 PUSH1 0x40 SHL SUB DUP1 DUP3 GT ISZERO PUSH3 0x22E JUMPI PUSH1 0x0 DUP1 REVERT JUMPDEST PUSH3 0x23C DUP9 DUP4 DUP10 ADD PUSH3 0x140 JUMP JUMPDEST SWAP5 POP PUSH1 0x40 DUP8 ADD MLOAD SWAP2 POP DUP1 DUP3 GT ISZERO PUSH3 0x253 JUMPI PUSH1 0x0 DUP1 REVERT JUMPDEST POP PUSH3 0x262 DUP8 DUP3 DUP9 ADD PUSH3 0x140 JUMP JUMPDEST PUSH1 0x60 DUP8 ADD MLOAD SWAP1 SWAP4 POP SWAP1 POP PUSH1 0x1 PUSH1 0x1 PUSH1 0xA0 SHL SUB DUP2 AND DUP2 EQ PUSH3 0x282 JUMPI PUSH1 0x0 DUP1 REVERT JUMPDEST SWAP4 SWAP7 SWAP3 SWAP6 POP SWAP1 SWAP4 POP POP JUMP JUMPDEST PUSH1 0x1 DUP2 DUP2 SHR SWAP1 DUP3 AND DUP1 PUSH3 0x2A2 JUMPI PUSH1 0x7F DUP3 AND SWAP2 POP JUMPDEST PUSH1 0x20 DUP3 LT DUP2 EQ ISZERO PUSH3 0x2C4 JUMPI PUSH4 0x4E487B71 PUSH1 0xE0 SHL PUSH1 0x0 MSTORE PUSH1 0x22 PUSH1 0x4 MSTORE PUSH1 0x24 PUSH1 0x0 REVERT JUMPDEST POP SWAP2 SWAP1 POP JUMP JUMPDEST PUSH4 0x4E487B71 PUSH1 0xE0 SHL PUSH1 0x0 MSTORE PUSH1 0x41 PUSH1 0x4 MSTORE PUSH1 0x24 PUSH1 0x0 REVERT JUMPDEST PUSH1 0x80 MLOAD PUSH1 0x60 SHR PUSH2 0xF22 PUSH3 0x306 PUSH1 0x0 CODECOPY PUSH1 0x0 DUP2 DUP2 PUSH2 0x1E3 ADD MSTORE PUSH2 0x568 ADD MSTORE PUSH2 0xF22 PUSH1 0x0 RETURN INVALID PUSH1 0x80 PUSH1 0x40 MSTORE CALLVALUE DUP1 ISZERO PUSH2 0x10 JUMPI PUSH1 0x0 DUP1 REVERT JUMPDEST POP PUSH1 0x4 CALLDATASIZE LT PUSH2 0x100 JUMPI PUSH1 0x0 CALLDATALOAD PUSH1 0xE0 SHR DUP1 PUSH4 0x70A08231 GT PUSH2 0x97 JUMPI DUP1 PUSH4 0xA457C2D7 GT PUSH2 0x66 JUMPI DUP1 PUSH4 0xA457C2D7 EQ PUSH2 0x22E JUMPI DUP1 PUSH4 0xA9059CBB EQ PUSH2 0x241 JUMPI DUP1 PUSH4 0xDD62ED3E EQ PUSH2 0x254 JUMPI DUP1 PUSH4 0xE0BAB4C4 EQ PUSH2 0x267 JUMPI PUSH1 0x0 DUP1 REVERT JUMPDEST DUP1 PUSH4 0x70A08231 EQ PUSH2 0x1B5 JUMPI DUP1 PUSH4 0x7C0B8DE2 EQ PUSH2 0x1DE JUMPI DUP1 PUSH4 0x953B8FB8 EQ PUSH2 0x21D JUMPI DUP1 PUSH4 0x95D89B41 EQ PUSH2 0x226 JUMPI PUSH1 0x0 DUP1 REVERT JUMPDEST DUP1 PUSH4 0x23B872DD GT PUSH2 0xD3 JUMPI DUP1 PUSH4 0x23B872DD EQ PUSH2 0x16D JUMPI DUP1 PUSH4 0x2AFCF480 EQ PUSH2 0x180 JUMPI DUP1 PUSH4 0x313CE567 EQ PUSH2 0x193 JUMPI DUP1 PUSH4 0x39509351 EQ PUSH2 0x1A2 JUMPI PUSH1 0x0 DUP1 REVERT JUMPDEST DUP1 PUSH4 0x6FDDE03 EQ PUSH2 0x105 JUMPI DUP1 PUSH4 0x95EA7B3 EQ PUSH2 0x123 JUMPI DUP1 PUSH4 0x18160DDD EQ PUSH2 0x146 JUMPI DUP1 PUSH4 0x2037FCBF EQ PUSH2 0x158 JUMPI JUMPDEST PUSH1 0x0 DUP1 REVERT JUMPDEST PUSH2 0x10D PUSH2 0x27A JUMP JUMPDEST PUSH1 0x40 MLOAD PUSH2 0x11A SWAP2 SWAP1 PUSH2 0xE02 JUMP JUMPDEST PUSH1 0x40 MLOAD DUP1 SWAP2 SUB SWAP1 RETURN JUMPDEST PUSH2 0x136 PUSH2 0x131 CALLDATASIZE PUSH1 0x4 PUSH2 0xD9B JUMP JUMPDEST PUSH2 0x30C JUMP JUMPDEST PUSH1 0x40 MLOAD SWAP1 ISZERO ISZERO DUP2 MSTORE PUSH1 0x20 ADD PUSH2 0x11A JUMP JUMPDEST PUSH1 0x2 SLOAD JUMPDEST PUSH1 0x40 MLOAD SWAP1 DUP2 MSTORE PUSH1 0x20 ADD PUSH2 0x11A JUMP JUMPDEST PUSH2 0x16B PUSH2 0x166 CALLDATASIZE PUSH1 0x4 PUSH2 0xDE9 JUMP JUMPDEST PUSH2 0x324 JUMP JUMPDEST STOP JUMPDEST PUSH2 0x136 PUSH2 0x17B CALLDATASIZE PUSH1 0x4 PUSH2 0xD5A JUMP JUMPDEST PUSH2 0x41A JUMP JUMPDEST PUSH2 0x16B PUSH2 0x18E CALLDATASIZE PUSH1 0x4 PUSH2 0xDE9 JUMP JUMPDEST PUSH2 0x43E JUMP JUMPDEST PUSH1 0x40 MLOAD PUSH1 0x12 DUP2 MSTORE PUSH1 0x20 ADD PUSH2 0x11A JUMP JUMPDEST PUSH2 0x136 PUSH2 0x1B0 CALLDATASIZE PUSH1 0x4 PUSH2 0xD9B JUMP JUMPDEST PUSH2 0x669 JUMP JUMPDEST PUSH2 0x14A PUSH2 0x1C3 CALLDATASIZE PUSH1 0x4 PUSH2 0xCE0 JUMP JUMPDEST PUSH1 0x1 PUSH1 0x1 PUSH1 0xA0 SHL SUB AND PUSH1 0x0 SWAP1 DUP2 MSTORE PUSH1 0x20 DUP2 SWAP1 MSTORE PUSH1 0x40 SWAP1 KECCAK256 SLOAD SWAP1 JUMP JUMPDEST PUSH2 0x205 PUSH32 0x0 DUP2 JUMP JUMPDEST PUSH1 0x40 MLOAD PUSH1 0x1 PUSH1 0x1 PUSH1 0xA0 SHL SUB SWAP1 SWAP2 AND DUP2 MSTORE PUSH1 0x20 ADD PUSH2 0x11A JUMP JUMPDEST PUSH2 0x14A PUSH1 0x6 SLOAD DUP2 JUMP JUMPDEST PUSH2 0x10D PUSH2 0x68B JUMP JUMPDEST PUSH2 0x136 PUSH2 0x23C CALLDATASIZE PUSH1 0x4 PUSH2 0xD9B JUMP JUMPDEST PUSH2 0x69A JUMP JUMPDEST PUSH2 0x136 PUSH2 0x24F CALLDATASIZE PUSH1 0x4 PUSH2 0xD9B JUMP JUMPDEST PUSH2 0x715 JUMP JUMPDEST PUSH2 0x14A PUSH2 0x262 CALLDATASIZE PUSH1 0x4 PUSH2 0xD21 JUMP JUMPDEST PUSH2 0x723 JUMP JUMPDEST PUSH1 0x5 SLOAD PUSH2 0x205 SWAP1 PUSH1 0x1 PUSH1 0x1 PUSH1 0xA0 SHL SUB AND DUP2 JUMP JUMPDEST PUSH1 0x60 PUSH1 0x3 DUP1 SLOAD PUSH2 0x289 SWAP1 PUSH2 0xE86 JUMP JUMPDEST DUP1 PUSH1 0x1F ADD PUSH1 0x20 DUP1 SWAP2 DIV MUL PUSH1 0x20 ADD PUSH1 0x40 MLOAD SWAP1 DUP2 ADD PUSH1 0x40 MSTORE DUP1 SWAP3 SWAP2 SWAP1 DUP2 DUP2 MSTORE PUSH1 0x20 ADD DUP3 DUP1 SLOAD PUSH2 0x2B5 SWAP1 PUSH2 0xE86 JUMP JUMPDEST DUP1 ISZERO PUSH2 0x302 JUMPI DUP1 PUSH1 0x1F LT PUSH2 0x2D7 JUMPI PUSH2 0x100 DUP1 DUP4 SLOAD DIV MUL DUP4 MSTORE SWAP2 PUSH1 0x20 ADD SWAP2 PUSH2 0x302 JUMP JUMPDEST DUP3 ADD SWAP2 SWAP1 PUSH1 0x0 MSTORE PUSH1 0x20 PUSH1 0x0 KECCAK256 SWAP1 JUMPDEST DUP2 SLOAD DUP2 MSTORE SWAP1 PUSH1 0x1 ADD SWAP1 PUSH1 0x20 ADD DUP1 DUP4 GT PUSH2 0x2E5 JUMPI DUP3 SWAP1 SUB PUSH1 0x1F AND DUP3 ADD SWAP2 JUMPDEST POP POP POP POP POP SWAP1 POP SWAP1 JUMP JUMPDEST PUSH1 0x0 CALLER PUSH2 0x31A DUP2 DUP6 DUP6 PUSH2 0x74E JUMP JUMPDEST POP PUSH1 0x1 SWAP4 SWAP3 POP POP POP JUMP JUMPDEST CALLER PUSH1 0x0 SWAP1 DUP2 MSTORE PUSH1 0x20 DUP2 SWAP1 MSTORE PUSH1 0x40 SWAP1 KECCAK256 SLOAD DUP2 GT ISZERO PUSH2 0x388 JUMPI PUSH1 0x40 MLOAD PUSH3 0x461BCD PUSH1 0xE5 SHL DUP2 MSTORE PUSH1 0x20 PUSH1 0x4 DUP3 ADD MSTORE PUSH1 0x1A PUSH1 0x24 DUP3 ADD MSTORE PUSH32 0x4E6F7420656E6F756768207368617265732062616C616E636521000000000000 PUSH1 0x44 DUP3 ADD MSTORE PUSH1 0x64 ADD JUMPDEST PUSH1 0x40 MLOAD DUP1 SWAP2 SUB SWAP1 REVERT JUMPDEST PUSH1 0x5 SLOAD PUSH1 0x40 MLOAD PUSH4 0xA9059CBB PUSH1 0xE0 SHL DUP2 MSTORE CALLER PUSH1 0x4 DUP3 ADD MSTORE PUSH1 0x24 DUP2 ADD DUP4 SWAP1 MSTORE PUSH1 0x1 PUSH1 0x1 PUSH1 0xA0 SHL SUB SWAP1 SWAP2 AND SWAP1 PUSH4 0xA9059CBB SWAP1 PUSH1 0x44 ADD PUSH1 0x20 PUSH1 0x40 MLOAD DUP1 DUP4 SUB DUP2 PUSH1 0x0 DUP8 DUP1 EXTCODESIZE ISZERO DUP1 ISZERO PUSH2 0x3D4 JUMPI PUSH1 0x0 DUP1 REVERT JUMPDEST POP GAS CALL ISZERO DUP1 ISZERO PUSH2 0x3E8 JUMPI RETURNDATASIZE PUSH1 0x0 DUP1 RETURNDATACOPY RETURNDATASIZE PUSH1 0x0 REVERT JUMPDEST POP POP POP POP PUSH1 0x40 MLOAD RETURNDATASIZE PUSH1 0x1F NOT PUSH1 0x1F DUP3 ADD AND DUP3 ADD DUP1 PUSH1 0x40 MSTORE POP DUP2 ADD SWAP1 PUSH2 0x40C SWAP2 SWAP1 PUSH2 0xDC7 JUMP JUMPDEST POP PUSH2 0x417 CALLER DUP3 PUSH2 0x873 JUMP JUMPDEST POP JUMP JUMPDEST PUSH1 0x0 CALLER PUSH2 0x428 DUP6 DUP3 DUP6 PUSH2 0x9B9 JUMP JUMPDEST PUSH2 0x433 DUP6 DUP6 DUP6 PUSH2 0xA33 JUMP JUMPDEST POP PUSH1 0x1 SWAP5 SWAP4 POP POP POP POP JUMP JUMPDEST PUSH1 0x2 SLOAD PUSH1 0x6 SLOAD PUSH2 0x44E SWAP2 SWAP1 PUSH2 0xE6F JUMP JUMPDEST DUP2 GT ISZERO PUSH2 0x49D JUMPI PUSH1 0x40 MLOAD PUSH3 0x461BCD PUSH1 0xE5 SHL DUP2 MSTORE PUSH1 0x20 PUSH1 0x4 DUP3 ADD MSTORE PUSH1 0x17 PUSH1 0x24 DUP3 ADD MSTORE PUSH32 0x4E6F7420656E6F75676820736861726573206C65667421000000000000000000 PUSH1 0x44 DUP3 ADD MSTORE PUSH1 0x64 ADD PUSH2 0x37F JUMP JUMPDEST PUSH1 0x5 SLOAD PUSH1 0x40 MLOAD PUSH4 0x23B872DD PUSH1 0xE0 SHL DUP2 MSTORE CALLER PUSH1 0x4 DUP3 ADD MSTORE ADDRESS PUSH1 0x24 DUP3 ADD MSTORE PUSH1 0x44 DUP2 ADD DUP4 SWAP1 MSTORE PUSH1 0x1 PUSH1 0x1 PUSH1 0xA0 SHL SUB SWAP1 SWAP2 AND SWAP1 PUSH4 0x23B872DD SWAP1 PUSH1 0x64 ADD PUSH1 0x20 PUSH1 0x40 MLOAD DUP1 DUP4 SUB DUP2 PUSH1 0x0 DUP8 DUP1 EXTCODESIZE ISZERO DUP1 ISZERO PUSH2 0x4EF JUMPI PUSH1 0x0 DUP1 REVERT JUMPDEST POP GAS CALL ISZERO DUP1 ISZERO PUSH2 0x503 JUMPI RETURNDATASIZE PUSH1 0x0 DUP1 RETURNDATACOPY RETURNDATASIZE PUSH1 0x0 REVERT JUMPDEST POP POP POP POP PUSH1 0x40 MLOAD RETURNDATASIZE PUSH1 0x1F NOT PUSH1 0x1F DUP3 ADD AND DUP3 ADD DUP1 PUSH1 0x40 MSTORE POP DUP2 ADD SWAP1 PUSH2 0x527 SWAP2 SWAP1 PUSH2 0xDC7 JUMP JUMPDEST POP PUSH2 0x532 CALLER DUP3 PUSH2 0xC01 JUMP JUMPDEST PUSH1 0x2 SLOAD PUSH1 0x6 SLOAD EQ ISZERO PUSH2 0x417 JUMPI PUSH1 0x5 SLOAD PUSH1 0x40 MLOAD PUSH4 0x31A9108F PUSH1 0xE1 SHL DUP2 MSTORE ADDRESS PUSH1 0x4 DUP3 ADD MSTORE PUSH1 0x1 PUSH1 0x1 PUSH1 0xA0 SHL SUB SWAP2 DUP3 AND SWAP2 PUSH4 0xA9059CBB SWAP2 PUSH32 0x0 SWAP1 SWAP2 AND SWAP1 PUSH4 0x6352211E SWAP1 PUSH1 0x24 ADD PUSH1 0x20 PUSH1 0x40 MLOAD DUP1 DUP4 SUB DUP2 DUP7 DUP1 EXTCODESIZE ISZERO DUP1 ISZERO PUSH2 0x5AC JUMPI PUSH1 0x0 DUP1 REVERT JUMPDEST POP GAS STATICCALL ISZERO DUP1 ISZERO PUSH2 0x5C0 JUMPI RETURNDATASIZE PUSH1 0x0 DUP1 RETURNDATACOPY RETURNDATASIZE PUSH1 0x0 REVERT JUMPDEST POP POP POP POP PUSH1 0x40 MLOAD RETURNDATASIZE PUSH1 0x1F NOT PUSH1 0x1F DUP3 ADD AND DUP3 ADD DUP1 PUSH1 0x40 MSTORE POP DUP2 ADD SWAP1 PUSH2 0x5E4 SWAP2 SWAP1 PUSH2 0xD04 JUMP JUMPDEST PUSH1 0x6 SLOAD PUSH1 0x40 MLOAD PUSH1 0x1 PUSH1 0x1 PUSH1 0xE0 SHL SUB NOT PUSH1 0xE0 DUP6 SWAP1 SHL AND DUP2 MSTORE PUSH1 0x1 PUSH1 0x1 PUSH1 0xA0 SHL SUB SWAP1 SWAP3 AND PUSH1 0x4 DUP4 ADD MSTORE PUSH1 0x24 DUP3 ADD MSTORE PUSH1 0x44 ADD PUSH1 0x20 PUSH1 0x40 MLOAD DUP1 DUP4 SUB DUP2 PUSH1 0x0 DUP8 DUP1 EXTCODESIZE ISZERO DUP1 ISZERO PUSH2 0x62D JUMPI PUSH1 0x0 DUP1 REVERT JUMPDEST POP GAS CALL ISZERO DUP1 ISZERO PUSH2 0x641 JUMPI RETURNDATASIZE PUSH1 0x0 DUP1 RETURNDATACOPY RETURNDATASIZE PUSH1 0x0 REVERT JUMPDEST POP POP POP POP PUSH1 0x40 MLOAD RETURNDATASIZE PUSH1 0x1F NOT PUSH1 0x1F DUP3 ADD AND DUP3 ADD DUP1 PUSH1 0x40 MSTORE POP DUP2 ADD SWAP1 PUSH2 0x665 SWAP2 SWAP1 PUSH2 0xDC7 JUMP JUMPDEST POP POP JUMP JUMPDEST PUSH1 0x0 CALLER PUSH2 0x31A DUP2 DUP6 DUP6 PUSH2 0x67C DUP4 DUP4 PUSH2 0x723 JUMP JUMPDEST PUSH2 0x686 SWAP2 SWAP1 PUSH2 0xE57 JUMP JUMPDEST PUSH2 0x74E JUMP JUMPDEST PUSH1 0x60 PUSH1 0x4 DUP1 SLOAD PUSH2 0x289 SWAP1 PUSH2 0xE86 JUMP JUMPDEST PUSH1 0x0 CALLER DUP2 PUSH2 0x6A8 DUP3 DUP7 PUSH2 0x723 JUMP JUMPDEST SWAP1 POP DUP4 DUP2 LT ISZERO PUSH2 0x708 JUMPI PUSH1 0x40 MLOAD PUSH3 0x461BCD PUSH1 0xE5 SHL DUP2 MSTORE PUSH1 0x20 PUSH1 0x4 DUP3 ADD MSTORE PUSH1 0x25 PUSH1 0x24 DUP3 ADD MSTORE PUSH32 0x45524332303A2064656372656173656420616C6C6F77616E63652062656C6F77 PUSH1 0x44 DUP3 ADD MSTORE PUSH5 0x207A65726F PUSH1 0xD8 SHL PUSH1 0x64 DUP3 ADD MSTORE PUSH1 0x84 ADD PUSH2 0x37F JUMP JUMPDEST PUSH2 0x433 DUP3 DUP7 DUP7 DUP5 SUB PUSH2 0x74E JUMP JUMPDEST PUSH1 0x0 CALLER PUSH2 0x31A DUP2 DUP6 DUP6 PUSH2 0xA33 JUMP JUMPDEST PUSH1 0x1 PUSH1 0x1 PUSH1 0xA0 SHL SUB SWAP2 DUP3 AND PUSH1 0x0 SWAP1 DUP2 MSTORE PUSH1 0x1 PUSH1 0x20 SWAP1 DUP2 MSTORE PUSH1 0x40 DUP1 DUP4 KECCAK256 SWAP4 SWAP1 SWAP5 AND DUP3 MSTORE SWAP2 SWAP1 SWAP2 MSTORE KECCAK256 SLOAD SWAP1 JUMP JUMPDEST PUSH1 0x1 PUSH1 0x1 PUSH1 0xA0 SHL SUB DUP4 AND PUSH2 0x7B0 JUMPI PUSH1 0x40 MLOAD PUSH3 0x461BCD PUSH1 0xE5 SHL DUP2 MSTORE PUSH1 0x20 PUSH1 0x4 DUP3 ADD MSTORE PUSH1 0x24 DUP1 DUP3 ADD MSTORE PUSH32 0x45524332303A20617070726F76652066726F6D20746865207A65726F20616464 PUSH1 0x44 DUP3 ADD MSTORE PUSH4 0x72657373 PUSH1 0xE0 SHL PUSH1 0x64 DUP3 ADD MSTORE PUSH1 0x84 ADD PUSH2 0x37F JUMP JUMPDEST PUSH1 0x1 PUSH1 0x1 PUSH1 0xA0 SHL SUB DUP3 AND PUSH2 0x811 JUMPI PUSH1 0x40 MLOAD PUSH3 0x461BCD PUSH1 0xE5 SHL DUP2 MSTORE PUSH1 0x20 PUSH1 0x4 DUP3 ADD MSTORE PUSH1 0x22 PUSH1 0x24 DUP3 ADD MSTORE PUSH32 0x45524332303A20617070726F766520746F20746865207A65726F206164647265 PUSH1 0x44 DUP3 ADD MSTORE PUSH2 0x7373 PUSH1 0xF0 SHL PUSH1 0x64 DUP3 ADD MSTORE PUSH1 0x84 ADD PUSH2 0x37F JUMP JUMPDEST PUSH1 0x1 PUSH1 0x1 PUSH1 0xA0 SHL SUB DUP4 DUP2 AND PUSH1 0x0 DUP2 DUP2 MSTORE PUSH1 0x1 PUSH1 0x20 SWAP1 DUP2 MSTORE PUSH1 0x40 DUP1 DUP4 KECCAK256 SWAP5 DUP8 AND DUP1 DUP5 MSTORE SWAP5 DUP3 MSTORE SWAP2 DUP3 SWAP1 KECCAK256 DUP6 SWAP1 SSTORE SWAP1 MLOAD DUP5 DUP2 MSTORE PUSH32 0x8C5BE1E5EBEC7D5BD14F71427D1E84F3DD0314C0F7B2291E5B200AC8C7C3B925 SWAP2 ADD JUMPDEST PUSH1 0x40 MLOAD DUP1 SWAP2 SUB SWAP1 LOG3 POP POP POP JUMP JUMPDEST PUSH1 0x1 PUSH1 0x1 PUSH1 0xA0 SHL SUB DUP3 AND PUSH2 0x8D3 JUMPI PUSH1 0x40 MLOAD PUSH3 0x461BCD PUSH1 0xE5 SHL DUP2 MSTORE PUSH1 0x20 PUSH1 0x4 DUP3 ADD MSTORE PUSH1 0x21 PUSH1 0x24 DUP3 ADD MSTORE PUSH32 0x45524332303A206275726E2066726F6D20746865207A65726F20616464726573 PUSH1 0x44 DUP3 ADD MSTORE PUSH1 0x73 PUSH1 0xF8 SHL PUSH1 0x64 DUP3 ADD MSTORE PUSH1 0x84 ADD PUSH2 0x37F JUMP JUMPDEST PUSH1 0x1 PUSH1 0x1 PUSH1 0xA0 SHL SUB DUP3 AND PUSH1 0x0 SWAP1 DUP2 MSTORE PUSH1 0x20 DUP2 SWAP1 MSTORE PUSH1 0x40 SWAP1 KECCAK256 SLOAD DUP2 DUP2 LT ISZERO PUSH2 0x947 JUMPI PUSH1 0x40 MLOAD PUSH3 0x461BCD PUSH1 0xE5 SHL DUP2 MSTORE PUSH1 0x20 PUSH1 0x4 DUP3 ADD MSTORE PUSH1 0x22 PUSH1 0x24 DUP3 ADD MSTORE PUSH32 0x45524332303A206275726E20616D6F756E7420657863656564732062616C616E PUSH1 0x44 DUP3 ADD MSTORE PUSH2 0x6365 PUSH1 0xF0 SHL PUSH1 0x64 DUP3 ADD MSTORE PUSH1 0x84 ADD PUSH2 0x37F JUMP JUMPDEST PUSH1 0x1 PUSH1 0x1 PUSH1 0xA0 SHL SUB DUP4 AND PUSH1 0x0 SWAP1 DUP2 MSTORE PUSH1 0x20 DUP2 SWAP1 MSTORE PUSH1 0x40 DUP2 KECCAK256 DUP4 DUP4 SUB SWAP1 SSTORE PUSH1 0x2 DUP1 SLOAD DUP5 SWAP3 SWAP1 PUSH2 0x976 SWAP1 DUP5 SWAP1 PUSH2 0xE6F JUMP JUMPDEST SWAP1 SWAP2 SSTORE POP POP PUSH1 0x40 MLOAD DUP3 DUP2 MSTORE PUSH1 0x0 SWAP1 PUSH1 0x1 PUSH1 0x1 PUSH1 0xA0 SHL SUB DUP6 AND SWAP1 PUSH32 0xDDF252AD1BE2C89B69C2B068FC378DAA952BA7F163C4A11628F55A4DF523B3EF SWAP1 PUSH1 0x20 ADD PUSH2 0x866 JUMP JUMPDEST PUSH1 0x0 PUSH2 0x9C5 DUP5 DUP5 PUSH2 0x723 JUMP JUMPDEST SWAP1 POP PUSH1 0x0 NOT DUP2 EQ PUSH2 0xA2D JUMPI DUP2 DUP2 LT ISZERO PUSH2 0xA20 JUMPI PUSH1 0x40 MLOAD PUSH3 0x461BCD PUSH1 0xE5 SHL DUP2 MSTORE PUSH1 0x20 PUSH1 0x4 DUP3 ADD MSTORE PUSH1 0x1D PUSH1 0x24 DUP3 ADD MSTORE PUSH32 0x45524332303A20696E73756666696369656E7420616C6C6F77616E6365000000 PUSH1 0x44 DUP3 ADD MSTORE PUSH1 0x64 ADD PUSH2 0x37F JUMP JUMPDEST PUSH2 0xA2D DUP5 DUP5 DUP5 DUP5 SUB PUSH2 0x74E JUMP JUMPDEST POP POP POP POP JUMP JUMPDEST PUSH1 0x1 PUSH1 0x1 PUSH1 0xA0 SHL SUB DUP4 AND PUSH2 0xA97 JUMPI PUSH1 0x40 MLOAD PUSH3 0x461BCD PUSH1 0xE5 SHL DUP2 MSTORE PUSH1 0x20 PUSH1 0x4 DUP3 ADD MSTORE PUSH1 0x25 PUSH1 0x24 DUP3 ADD MSTORE PUSH32 0x45524332303A207472616E736665722066726F6D20746865207A65726F206164 PUSH1 0x44 DUP3 ADD MSTORE PUSH5 0x6472657373 PUSH1 0xD8 SHL PUSH1 0x64 DUP3 ADD MSTORE PUSH1 0x84 ADD PUSH2 0x37F JUMP JUMPDEST PUSH1 0x1 PUSH1 0x1 PUSH1 0xA0 SHL SUB DUP3 AND PUSH2 0xAF9 JUMPI PUSH1 0x40 MLOAD PUSH3 0x461BCD PUSH1 0xE5 SHL DUP2 MSTORE PUSH1 0x20 PUSH1 0x4 DUP3 ADD MSTORE PUSH1 0x23 PUSH1 0x24 DUP3 ADD MSTORE PUSH32 0x45524332303A207472616E7366657220746F20746865207A65726F2061646472 PUSH1 0x44 DUP3 ADD MSTORE PUSH3 0x657373 PUSH1 0xE8 SHL PUSH1 0x64 DUP3 ADD MSTORE PUSH1 0x84 ADD PUSH2 0x37F JUMP JUMPDEST PUSH1 0x1 PUSH1 0x1 PUSH1 0xA0 SHL SUB DUP4 AND PUSH1 0x0 SWAP1 DUP2 MSTORE PUSH1 0x20 DUP2 SWAP1 MSTORE PUSH1 0x40 SWAP1 KECCAK256 SLOAD DUP2 DUP2 LT ISZERO PUSH2 0xB71 JUMPI PUSH1 0x40 MLOAD PUSH3 0x461BCD PUSH1 0xE5 SHL DUP2 MSTORE PUSH1 0x20 PUSH1 0x4 DUP3 ADD MSTORE PUSH1 0x26 PUSH1 0x24 DUP3 ADD MSTORE PUSH32 0x45524332303A207472616E7366657220616D6F756E7420657863656564732062 PUSH1 0x44 DUP3 ADD MSTORE PUSH6 0x616C616E6365 PUSH1 0xD0 SHL PUSH1 0x64 DUP3 ADD MSTORE PUSH1 0x84 ADD PUSH2 0x37F JUMP JUMPDEST PUSH1 0x1 PUSH1 0x1 PUSH1 0xA0 SHL SUB DUP1 DUP6 AND PUSH1 0x0 SWAP1 DUP2 MSTORE PUSH1 0x20 DUP2 SWAP1 MSTORE PUSH1 0x40 DUP1 DUP3 KECCAK256 DUP6 DUP6 SUB SWAP1 SSTORE SWAP2 DUP6 AND DUP2 MSTORE SWAP1 DUP2 KECCAK256 DUP1 SLOAD DUP5 SWAP3 SWAP1 PUSH2 0xBA8 SWAP1 DUP5 SWAP1 PUSH2 0xE57 JUMP JUMPDEST SWAP3 POP POP DUP2 SWAP1 SSTORE POP DUP3 PUSH1 0x1 PUSH1 0x1 PUSH1 0xA0 SHL SUB AND DUP5 PUSH1 0x1 PUSH1 0x1 PUSH1 0xA0 SHL SUB AND PUSH32 0xDDF252AD1BE2C89B69C2B068FC378DAA952BA7F163C4A11628F55A4DF523B3EF DUP5 PUSH1 0x40 MLOAD PUSH2 0xBF4 SWAP2 DUP2 MSTORE PUSH1 0x20 ADD SWAP1 JUMP JUMPDEST PUSH1 0x40 MLOAD DUP1 SWAP2 SUB SWAP1 LOG3 PUSH2 0xA2D JUMP JUMPDEST PUSH1 0x1 PUSH1 0x1 PUSH1 0xA0 SHL SUB DUP3 AND PUSH2 0xC57 JUMPI PUSH1 0x40 MLOAD PUSH3 0x461BCD PUSH1 0xE5 SHL DUP2 MSTORE PUSH1 0x20 PUSH1 0x4 DUP3 ADD MSTORE PUSH1 0x1F PUSH1 0x24 DUP3 ADD MSTORE PUSH32 0x45524332303A206D696E7420746F20746865207A65726F206164647265737300 PUSH1 0x44 DUP3 ADD MSTORE PUSH1 0x64 ADD PUSH2 0x37F JUMP JUMPDEST DUP1 PUSH1 0x2 PUSH1 0x0 DUP3 DUP3 SLOAD PUSH2 0xC69 SWAP2 SWAP1 PUSH2 0xE57 JUMP JUMPDEST SWAP1 SWAP2 SSTORE POP POP PUSH1 0x1 PUSH1 0x1 PUSH1 0xA0 SHL SUB DUP3 AND PUSH1 0x0 SWAP1 DUP2 MSTORE PUSH1 0x20 DUP2 SWAP1 MSTORE PUSH1 0x40 DUP2 KECCAK256 DUP1 SLOAD DUP4 SWAP3 SWAP1 PUSH2 0xC96 SWAP1 DUP5 SWAP1 PUSH2 0xE57 JUMP JUMPDEST SWAP1 SWAP2 SSTORE POP POP PUSH1 0x40 MLOAD DUP2 DUP2 MSTORE PUSH1 0x1 PUSH1 0x1 PUSH1 0xA0 SHL SUB DUP4 AND SWAP1 PUSH1 0x0 SWAP1 PUSH32 0xDDF252AD1BE2C89B69C2B068FC378DAA952BA7F163C4A11628F55A4DF523B3EF SWAP1 PUSH1 0x20 ADD PUSH1 0x40 MLOAD DUP1 SWAP2 SUB SWAP1 LOG3 POP POP JUMP JUMPDEST PUSH1 0x0 PUSH1 0x20 DUP3 DUP5 SUB SLT ISZERO PUSH2 0xCF2 JUMPI PUSH1 0x0 DUP1 REVERT JUMPDEST DUP2 CALLDATALOAD PUSH2 0xCFD DUP2 PUSH2 0xED7 JUMP JUMPDEST SWAP4 SWAP3 POP POP POP JUMP JUMPDEST PUSH1 0x0 PUSH1 0x20 DUP3 DUP5 SUB SLT ISZERO PUSH2 0xD16 JUMPI PUSH1 0x0 DUP1 REVERT JUMPDEST DUP2 MLOAD PUSH2 0xCFD DUP2 PUSH2 0xED7 JUMP JUMPDEST PUSH1 0x0 DUP1 PUSH1 0x40 DUP4 DUP6 SUB SLT ISZERO PUSH2 0xD34 JUMPI PUSH1 0x0 DUP1 REVERT JUMPDEST DUP3 CALLDATALOAD PUSH2 0xD3F DUP2 PUSH2 0xED7 JUMP JUMPDEST SWAP2 POP PUSH1 0x20 DUP4 ADD CALLDATALOAD PUSH2 0xD4F DUP2 PUSH2 0xED7 JUMP JUMPDEST DUP1 SWAP2 POP POP SWAP3 POP SWAP3 SWAP1 POP JUMP JUMPDEST PUSH1 0x0 DUP1 PUSH1 0x0 PUSH1 0x60 DUP5 DUP7 SUB SLT ISZERO PUSH2 0xD6F JUMPI PUSH1 0x0 DUP1 REVERT JUMPDEST DUP4 CALLDATALOAD PUSH2 0xD7A DUP2 PUSH2 0xED7 JUMP JUMPDEST SWAP3 POP PUSH1 0x20 DUP5 ADD CALLDATALOAD PUSH2 0xD8A DUP2 PUSH2 0xED7 JUMP JUMPDEST SWAP3 SWAP6 SWAP3 SWAP5 POP POP POP PUSH1 0x40 SWAP2 SWAP1 SWAP2 ADD CALLDATALOAD SWAP1 JUMP JUMPDEST PUSH1 0x0 DUP1 PUSH1 0x40 DUP4 DUP6 SUB SLT ISZERO PUSH2 0xDAE JUMPI PUSH1 0x0 DUP1 REVERT JUMPDEST DUP3 CALLDATALOAD PUSH2 0xDB9 DUP2 PUSH2 0xED7 JUMP JUMPDEST SWAP5 PUSH1 0x20 SWAP4 SWAP1 SWAP4 ADD CALLDATALOAD SWAP4 POP POP POP JUMP JUMPDEST PUSH1 0x0 PUSH1 0x20 DUP3 DUP5 SUB SLT ISZERO PUSH2 0xDD9 JUMPI PUSH1 0x0 DUP1 REVERT JUMPDEST DUP2 MLOAD DUP1 ISZERO ISZERO DUP2 EQ PUSH2 0xCFD JUMPI PUSH1 0x0 DUP1 REVERT JUMPDEST PUSH1 0x0 PUSH1 0x20 DUP3 DUP5 SUB SLT ISZERO PUSH2 0xDFB JUMPI PUSH1 0x0 DUP1 REVERT JUMPDEST POP CALLDATALOAD SWAP2 SWAP1 POP JUMP JUMPDEST PUSH1 0x0 PUSH1 0x20 DUP1 DUP4 MSTORE DUP4 MLOAD DUP1 DUP3 DUP6 ADD MSTORE PUSH1 0x0 JUMPDEST DUP2 DUP2 LT ISZERO PUSH2 0xE2F JUMPI DUP6 DUP2 ADD DUP4 ADD MLOAD DUP6 DUP3 ADD PUSH1 0x40 ADD MSTORE DUP3 ADD PUSH2 0xE13 JUMP JUMPDEST DUP2 DUP2 GT ISZERO PUSH2 0xE41 JUMPI PUSH1 0x0 PUSH1 0x40 DUP4 DUP8 ADD ADD MSTORE JUMPDEST POP PUSH1 0x1F ADD PUSH1 0x1F NOT AND SWAP3 SWAP1 SWAP3 ADD PUSH1 0x40 ADD SWAP4 SWAP3 POP POP POP JUMP JUMPDEST PUSH1 0x0 DUP3 NOT DUP3 GT ISZERO PUSH2 0xE6A JUMPI PUSH2 0xE6A PUSH2 0xEC1 JUMP JUMPDEST POP ADD SWAP1 JUMP JUMPDEST PUSH1 0x0 DUP3 DUP3 LT ISZERO PUSH2 0xE81 JUMPI PUSH2 0xE81 PUSH2 0xEC1 JUMP JUMPDEST POP SUB SWAP1 JUMP JUMPDEST PUSH1 0x1 DUP2 DUP2 SHR SWAP1 DUP3 AND DUP1 PUSH2 0xE9A JUMPI PUSH1 0x7F DUP3 AND SWAP2 POP JUMPDEST PUSH1 0x20 DUP3 LT DUP2 EQ ISZERO PUSH2 0xEBB JUMPI PUSH4 0x4E487B71 PUSH1 0xE0 SHL PUSH1 0x0 MSTORE PUSH1 0x22 PUSH1 0x4 MSTORE PUSH1 0x24 PUSH1 0x0 REVERT JUMPDEST POP SWAP2 SWAP1 POP JUMP JUMPDEST PUSH4 0x4E487B71 PUSH1 0xE0 SHL PUSH1 0x0 MSTORE PUSH1 0x11 PUSH1 0x4 MSTORE PUSH1 0x24 PUSH1 0x0 REVERT JUMPDEST PUSH1 0x1 PUSH1 0x1 PUSH1 0xA0 SHL SUB DUP2 AND DUP2 EQ PUSH2 0x417 JUMPI PUSH1 0x0 DUP1 REVERT INVALID LOG2 PUSH5 0x6970667358 0x22 SLT KECCAK256 DUP2 XOR PUSH19 0xA04D5ED7D5F484BAF8134AF79176CA24461844 0x5F SHR 0xA9 0xD5 JUMP DELEGATECALL 0x5D ADDMOD SHL 0x25 PUSH5 0x736F6C6343 STOP ADDMOD SMOD STOP CALLER "
				},
				"gasEstimates": {
					"creation": {
						"codeDepositCost": "774800",
						"executionCost": "infinite",
						"totalCost": "infinite"
					},
					"external": {
						"DAI()": "2425",
						"NFT()": "infinite",
						"allowance(address,address)": "infinite",
						"approve(address,uint256)": "24642",
						"balanceOf(address)": "2557",
						"decimals()": "244",
						"decreaseAllowance(address,uint256)": "26967",
						"increaseAllowance(address,uint256)": "27062",
						"invest(uint256)": "infinite",
						"name()": "infinite",
						"symbol()": "infinite",
						"targetAmount()": "2362",
						"totalSupply()": "2349",
						"transfer(address,uint256)": "51220",
						"transferFrom(address,address,uint256)": "infinite",
						"withdrawInvestment(uint256)": "infinite"
					}
				},
				"methodIdentifiers": {
					"DAI()": "e0bab4c4",
					"NFT()": "7c0b8de2",
					"allowance(address,address)": "dd62ed3e",
					"approve(address,uint256)": "095ea7b3",
					"balanceOf(address)": "70a08231",
					"decimals()": "313ce567",
					"decreaseAllowance(address,uint256)": "a457c2d7",
					"increaseAllowance(address,uint256)": "39509351",
					"invest(uint256)": "2afcf480",
					"name()": "06fdde03",
					"symbol()": "95d89b41",
					"targetAmount()": "953b8fb8",
					"totalSupply()": "18160ddd",
					"transfer(address,uint256)": "a9059cbb",
					"transferFrom(address,address,uint256)": "23b872dd",
					"withdrawInvestment(uint256)": "2037fcbf"
				}
			},
			"storageLayout": {
				"storage": [
					{
						"astId": 15,
						"contract": "Re-fungible_Tokens/contracts/AssetFundRaising.sol:AssetFundRaising",
						"label": "_balances",
						"offset": 0,
						"slot": "0",
						"type": "t_mapping(t_address,t_uint256)"
					},
					{
						"astId": 21,
						"contract": "Re-fungible_Tokens/contracts/AssetFundRaising.sol:AssetFundRaising",
						"label": "_allowances",
						"offset": 0,
						"slot": "1",
						"type": "t_mapping(t_address,t_mapping(t_address,t_uint256))"
					},
					{
						"astId": 23,
						"contract": "Re-fungible_Tokens/contracts/AssetFundRaising.sol:AssetFundRaising",
						"label": "_totalSupply",
						"offset": 0,
						"slot": "2",
						"type": "t_uint256"
					},
					{
						"astId": 25,
						"contract": "Re-fungible_Tokens/contracts/AssetFundRaising.sol:AssetFundRaising",
						"label": "_name",
						"offset": 0,
						"slot": "3",
						"type": "t_string_storage"
					},
					{
						"astId": 27,
						"contract": "Re-fungible_Tokens/contracts/AssetFundRaising.sol:AssetFundRaising",
						"label": "_symbol",
						"offset": 0,
						"slot": "4",
						"type": "t_string_storage"
					},
					{
						"astId": 848,
						"contract": "Re-fungible_Tokens/contracts/AssetFundRaising.sol:AssetFundRaising",
						"label": "DAI",
						"offset": 0,
						"slot": "5",
						"type": "t_contract(IERC20)663"
					},
					{
						"astId": 853,
						"contract": "Re-fungible_Tokens/contracts/AssetFundRaising.sol:AssetFundRaising",
						"label": "targetAmount",
						"offset": 0,
						"slot": "6",
						"type": "t_uint256"
					}
				],
				"types": {
					"t_address": {
						"encoding": "inplace",
						"label": "address",
						"numberOfBytes": "20"
					},
					"t_contract(IERC20)663": {
						"encoding": "inplace",
						"label": "contract IERC20",
						"numberOfBytes": "20"
					},
					"t_mapping(t_address,t_mapping(t_address,t_uint256))": {
						"encoding": "mapping",
						"key": "t_address",
						"label": "mapping(address => mapping(address => uint256))",
						"numberOfBytes": "32",
						"value": "t_mapping(t_address,t_uint256)"
					},
					"t_mapping(t_address,t_uint256)": {
						"encoding": "mapping",
						"key": "t_address",
						"label": "mapping(address => uint256)",
						"numberOfBytes": "32",
						"value": "t_uint256"
					},
					"t_string_storage": {
						"encoding": "bytes",
						"label": "string",
						"numberOfBytes": "32"
					},
					"t_uint256": {
						"encoding": "inplace",
						"label": "uint256",
						"numberOfBytes": "32"
					}
				}
			},
			"userdoc": {
				"kind": "user",
				"methods": {},
				"version": 1
			}
		}
	}
}