{
	"contracts/RFT.sol": {
		"RFT": {
			"abi": [
				{
					"inputs": [
						{
							"internalType": "string",
							"name": "_name",
							"type": "string"
						},
						{
							"internalType": "string",
							"name": "_symbol",
							"type": "string"
						},
						{
							"internalType": "address",
							"name": "_nftAddress",
							"type": "address"
						},
						{
							"internalType": "uint256",
							"name": "_nftId",
							"type": "uint256"
						},
						{
							"internalType": "uint256",
							"name": "_SharePrice",
							"type": "uint256"
						},
						{
							"internalType": "uint256",
							"name": "_ShareSupply",
							"type": "uint256"
						},
						{
							"internalType": "address",
							"name": "_daiAddress",
							"type": "address"
						}
					],
					"stateMutability": "nonpayable",
					"type": "constructor"
				},
				{
					"anonymous": false,
					"inputs": [
						{
							"indexed": true,
							"internalType": "address",
							"name": "owner",
							"type": "address"
						},
						{
							"indexed": true,
							"internalType": "address",
							"name": "spender",
							"type": "address"
						},
						{
							"indexed": false,
							"internalType": "uint256",
							"name": "value",
							"type": "uint256"
						}
					],
					"name": "Approval",
					"type": "event"
				},
				{
					"anonymous": false,
					"inputs": [
						{
							"indexed": true,
							"internalType": "address",
							"name": "from",
							"type": "address"
						},
						{
							"indexed": true,
							"internalType": "address",
							"name": "to",
							"type": "address"
						},
						{
							"indexed": false,
							"internalType": "uint256",
							"name": "value",
							"type": "uint256"
						}
					],
					"name": "Transfer",
					"type": "event"
				},
				{
					"inputs": [],
					"name": "SharePrice",
					"outputs": [
						{
							"internalType": "uint256",
							"name": "",
							"type": "uint256"
						}
					],
					"stateMutability": "view",
					"type": "function"
				},
				{
					"inputs": [],
					"name": "ShareSupply",
					"outputs": [
						{
							"internalType": "uint256",
							"name": "",
							"type": "uint256"
						}
					],
					"stateMutability": "view",
					"type": "function"
				},
				{
					"inputs": [],
					"name": "Target",
					"outputs": [
						{
							"internalType": "uint256",
							"name": "",
							"type": "uint256"
						}
					],
					"stateMutability": "view",
					"type": "function"
				},
				{
					"inputs": [],
					"name": "TargetRaised",
					"outputs": [
						{
							"internalType": "bool",
							"name": "",
							"type": "bool"
						}
					],
					"stateMutability": "view",
					"type": "function"
				},
				{
					"inputs": [
						{
							"internalType": "address",
							"name": "",
							"type": "address"
						}
					],
					"name": "addressToAmountFunded",
					"outputs": [
						{
							"internalType": "uint256",
							"name": "",
							"type": "uint256"
						}
					],
					"stateMutability": "view",
					"type": "function"
				},
				{
					"inputs": [],
					"name": "admin",
					"outputs": [
						{
							"internalType": "address",
							"name": "",
							"type": "address"
						}
					],
					"stateMutability": "view",
					"type": "function"
				},
				{
					"inputs": [
						{
							"internalType": "address",
							"name": "owner",
							"type": "address"
						},
						{
							"internalType": "address",
							"name": "spender",
							"type": "address"
						}
					],
					"name": "allowance",
					"outputs": [
						{
							"internalType": "uint256",
							"name": "",
							"type": "uint256"
						}
					],
					"stateMutability": "view",
					"type": "function"
				},
				{
					"inputs": [
						{
							"internalType": "address",
							"name": "spender",
							"type": "address"
						},
						{
							"internalType": "uint256",
							"name": "amount",
							"type": "uint256"
						}
					],
					"name": "approve",
					"outputs": [
						{
							"internalType": "bool",
							"name": "",
							"type": "bool"
						}
					],
					"stateMutability": "nonpayable",
					"type": "function"
				},
				{
					"inputs": [
						{
							"internalType": "address",
							"name": "account",
							"type": "address"
						}
					],
					"name": "balanceOf",
					"outputs": [
						{
							"internalType": "uint256",
							"name": "",
							"type": "uint256"
						}
					],
					"stateMutability": "view",
					"type": "function"
				},
				{
					"inputs": [
						{
							"internalType": "uint256",
							"name": "shareAmount",
							"type": "uint256"
						}
					],
					"name": "buyShare",
					"outputs": [],
					"stateMutability": "nonpayable",
					"type": "function"
				},
				{
					"inputs": [],
					"name": "dai",
					"outputs": [
						{
							"internalType": "contract IERC20",
							"name": "",
							"type": "address"
						}
					],
					"stateMutability": "view",
					"type": "function"
				},
				{
					"inputs": [],
					"name": "decimals",
					"outputs": [
						{
							"internalType": "uint8",
							"name": "",
							"type": "uint8"
						}
					],
					"stateMutability": "view",
					"type": "function"
				},
				{
					"inputs": [
						{
							"internalType": "address",
							"name": "spender",
							"type": "address"
						},
						{
							"internalType": "uint256",
							"name": "subtractedValue",
							"type": "uint256"
						}
					],
					"name": "decreaseAllowance",
					"outputs": [
						{
							"internalType": "bool",
							"name": "",
							"type": "bool"
						}
					],
					"stateMutability": "nonpayable",
					"type": "function"
				},
				{
					"inputs": [
						{
							"internalType": "address",
							"name": "spender",
							"type": "address"
						},
						{
							"internalType": "uint256",
							"name": "addedValue",
							"type": "uint256"
						}
					],
					"name": "increaseAllowance",
					"outputs": [
						{
							"internalType": "bool",
							"name": "",
							"type": "bool"
						}
					],
					"stateMutability": "nonpayable",
					"type": "function"
				},
				{
					"inputs": [],
					"name": "name",
					"outputs": [
						{
							"internalType": "string",
							"name": "",
							"type": "string"
						}
					],
					"stateMutability": "view",
					"type": "function"
				},
				{
					"inputs": [],
					"name": "nft",
					"outputs": [
						{
							"internalType": "contract IERC721",
							"name": "",
							"type": "address"
						}
					],
					"stateMutability": "view",
					"type": "function"
				},
				{
					"inputs": [],
					"name": "nftId",
					"outputs": [
						{
							"internalType": "uint256",
							"name": "",
							"type": "uint256"
						}
					],
					"stateMutability": "view",
					"type": "function"
				},
				{
					"inputs": [],
					"name": "symbol",
					"outputs": [
						{
							"internalType": "string",
							"name": "",
							"type": "string"
						}
					],
					"stateMutability": "view",
					"type": "function"
				},
				{
					"inputs": [],
					"name": "totalSupply",
					"outputs": [
						{
							"internalType": "uint256",
							"name": "",
							"type": "uint256"
						}
					],
					"stateMutability": "view",
					"type": "function"
				},
				{
					"inputs": [
						{
							"internalType": "address",
							"name": "to",
							"type": "address"
						},
						{
							"internalType": "uint256",
							"name": "amount",
							"type": "uint256"
						}
					],
					"name": "transfer",
					"outputs": [
						{
							"internalType": "bool",
							"name": "",
							"type": "bool"
						}
					],
					"stateMutability": "nonpayable",
					"type": "function"
				},
				{
					"inputs": [
						{
							"internalType": "address",
							"name": "from",
							"type": "address"
						},
						{
							"internalType": "address",
							"name": "to",
							"type": "address"
						},
						{
							"internalType": "uint256",
							"name": "amount",
							"type": "uint256"
						}
					],
					"name": "transferFrom",
					"outputs": [
						{
							"internalType": "bool",
							"name": "",
							"type": "bool"
						}
					],
					"stateMutability": "nonpayable",
					"type": "function"
				},
				{
					"inputs": [],
					"name": "withdrawIcoProfits",
					"outputs": [],
					"stateMutability": "nonpayable",
					"type": "function"
				}
			],
			"devdoc": {
				"kind": "dev",
				"methods": {
					"allowance(address,address)": {
						"details": "See {IERC20-allowance}."
					},
					"approve(address,uint256)": {
						"details": "See {IERC20-approve}. NOTE: If `amount` is the maximum `uint256`, the allowance is not updated on `transferFrom`. This is semantically equivalent to an infinite approval. Requirements: - `spender` cannot be the zero address."
					},
					"balanceOf(address)": {
						"details": "See {IERC20-balanceOf}."
					},
					"decimals()": {
						"details": "Returns the number of decimals used to get its user representation. For example, if `decimals` equals `2`, a balance of `505` tokens should be displayed to a user as `5.05` (`505 / 10 ** 2`). Tokens usually opt for a value of 18, imitating the relationship between Ether and Wei. This is the value {ERC20} uses, unless this function is overridden; NOTE: This information is only used for _display_ purposes: it in no way affects any of the arithmetic of the contract, including {IERC20-balanceOf} and {IERC20-transfer}."
					},
					"decreaseAllowance(address,uint256)": {
						"details": "Atomically decreases the allowance granted to `spender` by the caller. This is an alternative to {approve} that can be used as a mitigation for problems described in {IERC20-approve}. Emits an {Approval} event indicating the updated allowance. Requirements: - `spender` cannot be the zero address. - `spender` must have allowance for the caller of at least `subtractedValue`."
					},
					"increaseAllowance(address,uint256)": {
						"details": "Atomically increases the allowance granted to `spender` by the caller. This is an alternative to {approve} that can be used as a mitigation for problems described in {IERC20-approve}. Emits an {Approval} event indicating the updated allowance. Requirements: - `spender` cannot be the zero address."
					},
					"name()": {
						"details": "Returns the name of the token."
					},
					"symbol()": {
						"details": "Returns the symbol of the token, usually a shorter version of the name."
					},
					"totalSupply()": {
						"details": "See {IERC20-totalSupply}."
					},
					"transfer(address,uint256)": {
						"details": "See {IERC20-transfer}. Requirements: - `to` cannot be the zero address. - the caller must have a balance of at least `amount`."
					},
					"transferFrom(address,address,uint256)": {
						"details": "See {IERC20-transferFrom}. Emits an {Approval} event indicating the updated allowance. This is not required by the EIP. See the note at the beginning of {ERC20}. NOTE: Does not update the allowance if the current allowance is the maximum `uint256`. Requirements: - `from` and `to` cannot be the zero address. - `from` must have a balance of at least `amount`. - the caller must have allowance for ``from``'s tokens of at least `amount`."
					}
				},
				"version": 1
			},
			"evm": {
				"assembly": "    /* \"contracts/RFT.sol\":517:2497  contract RFT is ERC20 {... */\n  mstore(0x40, 0x80)\n    /* \"contracts/RFT.sol\":801:806  false */\n  0x00\n    /* \"contracts/RFT.sol\":774:806  bool public TargetRaised = false */\n  0x0b\n  exp(0x0100, 0x14)\n  dup2\n  sload\n  dup2\n  0xff\n  mul\n  not\n  and\n  swap1\n  dup4\n  iszero\n  iszero\n  mul\n  or\n  swap1\n  sstore\n  pop\n    /* \"contracts/RFT.sol\":940:1366  constructor(... */\n  callvalue\n  dup1\n  iszero\n  tag_1\n  jumpi\n  0x00\n  dup1\n  revert\ntag_1:\n  pop\n  mload(0x40)\n  sub(codesize, bytecodeSize)\n  dup1\n  bytecodeSize\n  dup4\n  codecopy\n  dup2\n  dup2\n  add\n  0x40\n  mstore\n  dup2\n  add\n  swap1\n  tag_2\n  swap2\n  swap1\n  tag_3\n  jump\t// in\ntag_2:\n    /* \"contracts/RFT.sol\":1130:1135  _name */\n  dup7\n    /* \"contracts/RFT.sol\":1137:1144  _symbol */\n  dup7\n    /* \"@openzeppelin/contracts/token/ERC20/ERC20.sol\":2052:2057  name_ */\n  dup2\n    /* \"@openzeppelin/contracts/token/ERC20/ERC20.sol\":2044:2049  _name */\n  0x03\n    /* \"@openzeppelin/contracts/token/ERC20/ERC20.sol\":2044:2057  _name = name_ */\n  swap1\n  dup1\n  mload\n  swap1\n  0x20\n  add\n  swap1\n  tag_7\n  swap3\n  swap2\n  swap1\n  tag_8\n  jump\t// in\ntag_7:\n  pop\n    /* \"@openzeppelin/contracts/token/ERC20/ERC20.sol\":2077:2084  symbol_ */\n  dup1\n    /* \"@openzeppelin/contracts/token/ERC20/ERC20.sol\":2067:2074  _symbol */\n  0x04\n    /* \"@openzeppelin/contracts/token/ERC20/ERC20.sol\":2067:2084  _symbol = symbol_ */\n  swap1\n  dup1\n  mload\n  swap1\n  0x20\n  add\n  swap1\n  tag_9\n  swap3\n  swap2\n  swap1\n  tag_8\n  jump\t// in\ntag_9:\n  pop\n    /* \"@openzeppelin/contracts/token/ERC20/ERC20.sol\":1978:2091  constructor(string memory name_, string memory symbol_) {... */\n  pop\n  pop\n    /* \"contracts/RFT.sol\":1163:1169  _nftId */\n  dup4\n    /* \"contracts/RFT.sol\":1155:1160  nftId */\n  0x08\n    /* \"contracts/RFT.sol\":1155:1169  nftId = _nftId */\n  dup2\n  swap1\n  sstore\n  pop\n    /* \"contracts/RFT.sol\":1189:1200  _nftAddress */\n  dup5\n    /* \"contracts/RFT.sol\":1175:1178  nft */\n  0x09\n  0x00\n    /* \"contracts/RFT.sol\":1175:1201  nft = IERC721(_nftAddress) */\n  0x0100\n  exp\n  dup2\n  sload\n  dup2\n  0xffffffffffffffffffffffffffffffffffffffff\n  mul\n  not\n  and\n  swap1\n  dup4\n  0xffffffffffffffffffffffffffffffffffffffff\n  and\n  mul\n  or\n  swap1\n  sstore\n  pop\n    /* \"contracts/RFT.sol\":1220:1231  _SharePrice */\n  dup3\n    /* \"contracts/RFT.sol\":1207:1217  SharePrice */\n  0x05\n    /* \"contracts/RFT.sol\":1207:1231  SharePrice = _SharePrice */\n  dup2\n  swap1\n  sstore\n  pop\n    /* \"contracts/RFT.sol\":1252:1264  _ShareSupply */\n  dup2\n    /* \"contracts/RFT.sol\":1238:1249  ShareSupply */\n  0x06\n    /* \"contracts/RFT.sol\":1238:1264  ShareSupply = _ShareSupply */\n  dup2\n  swap1\n  sstore\n  pop\n    /* \"contracts/RFT.sol\":1283:1294  _daiAddress */\n  dup1\n    /* \"contracts/RFT.sol\":1270:1273  dai */\n  0x0a\n  0x00\n    /* \"contracts/RFT.sol\":1270:1295  dai = IERC20(_daiAddress) */\n  0x0100\n  exp\n  dup2\n  sload\n  dup2\n  0xffffffffffffffffffffffffffffffffffffffff\n  mul\n  not\n  and\n  swap1\n  dup4\n  0xffffffffffffffffffffffffffffffffffffffff\n  and\n  mul\n  or\n  swap1\n  sstore\n  pop\n    /* \"contracts/RFT.sol\":1309:1319  msg.sender */\n  caller\n    /* \"contracts/RFT.sol\":1301:1306  admin */\n  0x0b\n  0x00\n    /* \"contracts/RFT.sol\":1301:1319  admin = msg.sender */\n  0x0100\n  exp\n  dup2\n  sload\n  dup2\n  0xffffffffffffffffffffffffffffffffffffffff\n  mul\n  not\n  and\n  swap1\n  dup4\n  0xffffffffffffffffffffffffffffffffffffffff\n  and\n  mul\n  or\n  swap1\n  sstore\n  pop\n    /* \"contracts/RFT.sol\":1350:1360  SharePrice */\n  sload(0x05)\n    /* \"contracts/RFT.sol\":1336:1347  ShareSupply */\n  sload(0x06)\n    /* \"contracts/RFT.sol\":1336:1360  ShareSupply * SharePrice */\n  tag_11\n  swap2\n  swap1\n  tag_12\n  jump\t// in\ntag_11:\n    /* \"contracts/RFT.sol\":1326:1332  Target */\n  0x07\n    /* \"contracts/RFT.sol\":1326:1361  Target = (ShareSupply * SharePrice) */\n  dup2\n  swap1\n  sstore\n  pop\n    /* \"contracts/RFT.sol\":940:1366  constructor(... */\n  pop\n  pop\n  pop\n  pop\n  pop\n  pop\n  pop\n    /* \"contracts/RFT.sol\":517:2497  contract RFT is ERC20 {... */\n  jump(tag_13)\ntag_8:\n  dup3\n  dup1\n  sload\n  tag_14\n  swap1\n  tag_15\n  jump\t// in\ntag_14:\n  swap1\n  0x00\n  mstore\n  keccak256(0x00, 0x20)\n  swap1\n  0x1f\n  add\n  0x20\n  swap1\n  div\n  dup2\n  add\n  swap3\n  dup3\n  tag_17\n  jumpi\n  0x00\n  dup6\n  sstore\n  jump(tag_16)\ntag_17:\n  dup3\n  0x1f\n  lt\n  tag_18\n  jumpi\n  dup1\n  mload\n  not(0xff)\n  and\n  dup4\n  dup1\n  add\n  or\n  dup6\n  sstore\n  jump(tag_16)\ntag_18:\n  dup3\n  dup1\n  add\n  0x01\n  add\n  dup6\n  sstore\n  dup3\n  iszero\n  tag_16\n  jumpi\n  swap2\n  dup3\n  add\ntag_19:\n  dup3\n  dup2\n  gt\n  iszero\n  tag_20\n  jumpi\n  dup3\n  mload\n  dup3\n  sstore\n  swap2\n  0x20\n  add\n  swap2\n  swap1\n  0x01\n  add\n  swap1\n  jump(tag_19)\ntag_20:\ntag_16:\n  pop\n  swap1\n  pop\n  tag_21\n  swap2\n  swap1\n  tag_22\n  jump\t// in\ntag_21:\n  pop\n  swap1\n  jump\t// out\ntag_22:\ntag_23:\n  dup1\n  dup3\n  gt\n  iszero\n  tag_24\n  jumpi\n  0x00\n  dup2\n  0x00\n  swap1\n  sstore\n  pop\n  0x01\n  add\n  jump(tag_23)\ntag_24:\n  pop\n  swap1\n  jump\t// out\n    /* \"#utility.yul\":7:428   */\ntag_26:\n    /* \"#utility.yul\":96:101   */\n  0x00\n    /* \"#utility.yul\":121:187   */\n  tag_28\n    /* \"#utility.yul\":137:186   */\n  tag_29\n    /* \"#utility.yul\":179:185   */\n  dup5\n    /* \"#utility.yul\":137:186   */\n  tag_30\n  jump\t// in\ntag_29:\n    /* \"#utility.yul\":121:187   */\n  tag_31\n  jump\t// in\ntag_28:\n    /* \"#utility.yul\":112:187   */\n  swap1\n  pop\n    /* \"#utility.yul\":210:216   */\n  dup3\n    /* \"#utility.yul\":203:208   */\n  dup2\n    /* \"#utility.yul\":196:217   */\n  mstore\n    /* \"#utility.yul\":248:252   */\n  0x20\n    /* \"#utility.yul\":241:246   */\n  dup2\n    /* \"#utility.yul\":237:253   */\n  add\n    /* \"#utility.yul\":286:289   */\n  dup5\n    /* \"#utility.yul\":277:283   */\n  dup5\n    /* \"#utility.yul\":272:275   */\n  dup5\n    /* \"#utility.yul\":268:284   */\n  add\n    /* \"#utility.yul\":265:290   */\n  gt\n    /* \"#utility.yul\":262:374   */\n  iszero\n  tag_32\n  jumpi\n    /* \"#utility.yul\":293:372   */\n  tag_33\n  tag_34\n  jump\t// in\ntag_33:\n    /* \"#utility.yul\":262:374   */\ntag_32:\n    /* \"#utility.yul\":383:422   */\n  tag_35\n    /* \"#utility.yul\":415:421   */\n  dup5\n    /* \"#utility.yul\":410:413   */\n  dup3\n    /* \"#utility.yul\":405:408   */\n  dup6\n    /* \"#utility.yul\":383:422   */\n  tag_36\n  jump\t// in\ntag_35:\n    /* \"#utility.yul\":102:428   */\n  pop\n    /* \"#utility.yul\":7:428   */\n  swap4\n  swap3\n  pop\n  pop\n  pop\n  jump\t// out\n    /* \"#utility.yul\":434:577   */\ntag_37:\n    /* \"#utility.yul\":491:496   */\n  0x00\n    /* \"#utility.yul\":522:528   */\n  dup2\n    /* \"#utility.yul\":516:529   */\n  mload\n    /* \"#utility.yul\":507:529   */\n  swap1\n  pop\n    /* \"#utility.yul\":538:571   */\n  tag_39\n    /* \"#utility.yul\":565:570   */\n  dup2\n    /* \"#utility.yul\":538:571   */\n  tag_40\n  jump\t// in\ntag_39:\n    /* \"#utility.yul\":434:577   */\n  swap3\n  swap2\n  pop\n  pop\n  jump\t// out\n    /* \"#utility.yul\":597:952   */\ntag_41:\n    /* \"#utility.yul\":664:669   */\n  0x00\n    /* \"#utility.yul\":713:716   */\n  dup3\n    /* \"#utility.yul\":706:710   */\n  0x1f\n    /* \"#utility.yul\":698:704   */\n  dup4\n    /* \"#utility.yul\":694:711   */\n  add\n    /* \"#utility.yul\":690:717   */\n  slt\n    /* \"#utility.yul\":680:802   */\n  tag_43\n  jumpi\n    /* \"#utility.yul\":721:800   */\n  tag_44\n  tag_45\n  jump\t// in\ntag_44:\n    /* \"#utility.yul\":680:802   */\ntag_43:\n    /* \"#utility.yul\":831:837   */\n  dup2\n    /* \"#utility.yul\":825:838   */\n  mload\n    /* \"#utility.yul\":856:946   */\n  tag_46\n    /* \"#utility.yul\":942:945   */\n  dup5\n    /* \"#utility.yul\":934:940   */\n  dup3\n    /* \"#utility.yul\":927:931   */\n  0x20\n    /* \"#utility.yul\":919:925   */\n  dup7\n    /* \"#utility.yul\":915:932   */\n  add\n    /* \"#utility.yul\":856:946   */\n  tag_26\n  jump\t// in\ntag_46:\n    /* \"#utility.yul\":847:946   */\n  swap2\n  pop\n    /* \"#utility.yul\":670:952   */\n  pop\n    /* \"#utility.yul\":597:952   */\n  swap3\n  swap2\n  pop\n  pop\n  jump\t// out\n    /* \"#utility.yul\":958:1101   */\ntag_47:\n    /* \"#utility.yul\":1015:1020   */\n  0x00\n    /* \"#utility.yul\":1046:1052   */\n  dup2\n    /* \"#utility.yul\":1040:1053   */\n  mload\n    /* \"#utility.yul\":1031:1053   */\n  swap1\n  pop\n    /* \"#utility.yul\":1062:1095   */\n  tag_49\n    /* \"#utility.yul\":1089:1094   */\n  dup2\n    /* \"#utility.yul\":1062:1095   */\n  tag_50\n  jump\t// in\ntag_49:\n    /* \"#utility.yul\":958:1101   */\n  swap3\n  swap2\n  pop\n  pop\n  jump\t// out\n    /* \"#utility.yul\":1107:2744   */\ntag_3:\n    /* \"#utility.yul\":1251:1257   */\n  0x00\n    /* \"#utility.yul\":1259:1265   */\n  dup1\n    /* \"#utility.yul\":1267:1273   */\n  0x00\n    /* \"#utility.yul\":1275:1281   */\n  dup1\n    /* \"#utility.yul\":1283:1289   */\n  0x00\n    /* \"#utility.yul\":1291:1297   */\n  dup1\n    /* \"#utility.yul\":1299:1305   */\n  0x00\n    /* \"#utility.yul\":1348:1351   */\n  0xe0\n    /* \"#utility.yul\":1336:1345   */\n  dup9\n    /* \"#utility.yul\":1327:1334   */\n  dup11\n    /* \"#utility.yul\":1323:1346   */\n  sub\n    /* \"#utility.yul\":1319:1352   */\n  slt\n    /* \"#utility.yul\":1316:1436   */\n  iszero\n  tag_52\n  jumpi\n    /* \"#utility.yul\":1355:1434   */\n  tag_53\n  tag_54\n  jump\t// in\ntag_53:\n    /* \"#utility.yul\":1316:1436   */\ntag_52:\n    /* \"#utility.yul\":1496:1497   */\n  0x00\n    /* \"#utility.yul\":1485:1494   */\n  dup9\n    /* \"#utility.yul\":1481:1498   */\n  add\n    /* \"#utility.yul\":1475:1499   */\n  mload\n    /* \"#utility.yul\":1526:1544   */\n  0xffffffffffffffff\n    /* \"#utility.yul\":1518:1524   */\n  dup2\n    /* \"#utility.yul\":1515:1545   */\n  gt\n    /* \"#utility.yul\":1512:1629   */\n  iszero\n  tag_55\n  jumpi\n    /* \"#utility.yul\":1548:1627   */\n  tag_56\n  tag_57\n  jump\t// in\ntag_56:\n    /* \"#utility.yul\":1512:1629   */\ntag_55:\n    /* \"#utility.yul\":1653:1727   */\n  tag_58\n    /* \"#utility.yul\":1719:1726   */\n  dup11\n    /* \"#utility.yul\":1710:1716   */\n  dup3\n    /* \"#utility.yul\":1699:1708   */\n  dup12\n    /* \"#utility.yul\":1695:1717   */\n  add\n    /* \"#utility.yul\":1653:1727   */\n  tag_41\n  jump\t// in\ntag_58:\n    /* \"#utility.yul\":1643:1727   */\n  swap8\n  pop\n    /* \"#utility.yul\":1446:1737   */\n  pop\n    /* \"#utility.yul\":1797:1799   */\n  0x20\n    /* \"#utility.yul\":1786:1795   */\n  dup9\n    /* \"#utility.yul\":1782:1800   */\n  add\n    /* \"#utility.yul\":1776:1801   */\n  mload\n    /* \"#utility.yul\":1828:1846   */\n  0xffffffffffffffff\n    /* \"#utility.yul\":1820:1826   */\n  dup2\n    /* \"#utility.yul\":1817:1847   */\n  gt\n    /* \"#utility.yul\":1814:1931   */\n  iszero\n  tag_59\n  jumpi\n    /* \"#utility.yul\":1850:1929   */\n  tag_60\n  tag_57\n  jump\t// in\ntag_60:\n    /* \"#utility.yul\":1814:1931   */\ntag_59:\n    /* \"#utility.yul\":1955:2029   */\n  tag_61\n    /* \"#utility.yul\":2021:2028   */\n  dup11\n    /* \"#utility.yul\":2012:2018   */\n  dup3\n    /* \"#utility.yul\":2001:2010   */\n  dup12\n    /* \"#utility.yul\":1997:2019   */\n  add\n    /* \"#utility.yul\":1955:2029   */\n  tag_41\n  jump\t// in\ntag_61:\n    /* \"#utility.yul\":1945:2029   */\n  swap7\n  pop\n    /* \"#utility.yul\":1747:2039   */\n  pop\n    /* \"#utility.yul\":2078:2080   */\n  0x40\n    /* \"#utility.yul\":2104:2168   */\n  tag_62\n    /* \"#utility.yul\":2160:2167   */\n  dup11\n    /* \"#utility.yul\":2151:2157   */\n  dup3\n    /* \"#utility.yul\":2140:2149   */\n  dup12\n    /* \"#utility.yul\":2136:2158   */\n  add\n    /* \"#utility.yul\":2104:2168   */\n  tag_37\n  jump\t// in\ntag_62:\n    /* \"#utility.yul\":2094:2168   */\n  swap6\n  pop\n    /* \"#utility.yul\":2049:2178   */\n  pop\n    /* \"#utility.yul\":2217:2219   */\n  0x60\n    /* \"#utility.yul\":2243:2307   */\n  tag_63\n    /* \"#utility.yul\":2299:2306   */\n  dup11\n    /* \"#utility.yul\":2290:2296   */\n  dup3\n    /* \"#utility.yul\":2279:2288   */\n  dup12\n    /* \"#utility.yul\":2275:2297   */\n  add\n    /* \"#utility.yul\":2243:2307   */\n  tag_47\n  jump\t// in\ntag_63:\n    /* \"#utility.yul\":2233:2307   */\n  swap5\n  pop\n    /* \"#utility.yul\":2188:2317   */\n  pop\n    /* \"#utility.yul\":2356:2359   */\n  0x80\n    /* \"#utility.yul\":2383:2447   */\n  tag_64\n    /* \"#utility.yul\":2439:2446   */\n  dup11\n    /* \"#utility.yul\":2430:2436   */\n  dup3\n    /* \"#utility.yul\":2419:2428   */\n  dup12\n    /* \"#utility.yul\":2415:2437   */\n  add\n    /* \"#utility.yul\":2383:2447   */\n  tag_47\n  jump\t// in\ntag_64:\n    /* \"#utility.yul\":2373:2447   */\n  swap4\n  pop\n    /* \"#utility.yul\":2327:2457   */\n  pop\n    /* \"#utility.yul\":2496:2499   */\n  0xa0\n    /* \"#utility.yul\":2523:2587   */\n  tag_65\n    /* \"#utility.yul\":2579:2586   */\n  dup11\n    /* \"#utility.yul\":2570:2576   */\n  dup3\n    /* \"#utility.yul\":2559:2568   */\n  dup12\n    /* \"#utility.yul\":2555:2577   */\n  add\n    /* \"#utility.yul\":2523:2587   */\n  tag_47\n  jump\t// in\ntag_65:\n    /* \"#utility.yul\":2513:2587   */\n  swap3\n  pop\n    /* \"#utility.yul\":2467:2597   */\n  pop\n    /* \"#utility.yul\":2636:2639   */\n  0xc0\n    /* \"#utility.yul\":2663:2727   */\n  tag_66\n    /* \"#utility.yul\":2719:2726   */\n  dup11\n    /* \"#utility.yul\":2710:2716   */\n  dup3\n    /* \"#utility.yul\":2699:2708   */\n  dup12\n    /* \"#utility.yul\":2695:2717   */\n  add\n    /* \"#utility.yul\":2663:2727   */\n  tag_37\n  jump\t// in\ntag_66:\n    /* \"#utility.yul\":2653:2727   */\n  swap2\n  pop\n    /* \"#utility.yul\":2607:2737   */\n  pop\n    /* \"#utility.yul\":1107:2744   */\n  swap3\n  swap6\n  swap9\n  swap2\n  swap5\n  swap8\n  pop\n  swap3\n  swap6\n  pop\n  jump\t// out\n    /* \"#utility.yul\":2750:2879   */\ntag_31:\n    /* \"#utility.yul\":2784:2790   */\n  0x00\n    /* \"#utility.yul\":2811:2831   */\n  tag_68\n  tag_69\n  jump\t// in\ntag_68:\n    /* \"#utility.yul\":2801:2831   */\n  swap1\n  pop\n    /* \"#utility.yul\":2840:2873   */\n  tag_70\n    /* \"#utility.yul\":2868:2872   */\n  dup3\n    /* \"#utility.yul\":2860:2866   */\n  dup3\n    /* \"#utility.yul\":2840:2873   */\n  tag_71\n  jump\t// in\ntag_70:\n    /* \"#utility.yul\":2750:2879   */\n  swap2\n  swap1\n  pop\n  jump\t// out\n    /* \"#utility.yul\":2885:2960   */\ntag_69:\n    /* \"#utility.yul\":2918:2924   */\n  0x00\n    /* \"#utility.yul\":2951:2953   */\n  0x40\n    /* \"#utility.yul\":2945:2954   */\n  mload\n    /* \"#utility.yul\":2935:2954   */\n  swap1\n  pop\n    /* \"#utility.yul\":2885:2960   */\n  swap1\n  jump\t// out\n    /* \"#utility.yul\":2966:3274   */\ntag_30:\n    /* \"#utility.yul\":3028:3032   */\n  0x00\n    /* \"#utility.yul\":3118:3136   */\n  0xffffffffffffffff\n    /* \"#utility.yul\":3110:3116   */\n  dup3\n    /* \"#utility.yul\":3107:3137   */\n  gt\n    /* \"#utility.yul\":3104:3160   */\n  iszero\n  tag_74\n  jumpi\n    /* \"#utility.yul\":3140:3158   */\n  tag_75\n  tag_76\n  jump\t// in\ntag_75:\n    /* \"#utility.yul\":3104:3160   */\ntag_74:\n    /* \"#utility.yul\":3178:3207   */\n  tag_77\n    /* \"#utility.yul\":3200:3206   */\n  dup3\n    /* \"#utility.yul\":3178:3207   */\n  tag_78\n  jump\t// in\ntag_77:\n    /* \"#utility.yul\":3170:3207   */\n  swap1\n  pop\n    /* \"#utility.yul\":3262:3266   */\n  0x20\n    /* \"#utility.yul\":3256:3260   */\n  dup2\n    /* \"#utility.yul\":3252:3267   */\n  add\n    /* \"#utility.yul\":3244:3267   */\n  swap1\n  pop\n    /* \"#utility.yul\":2966:3274   */\n  swap2\n  swap1\n  pop\n  jump\t// out\n    /* \"#utility.yul\":3280:3628   */\ntag_12:\n    /* \"#utility.yul\":3320:3327   */\n  0x00\n    /* \"#utility.yul\":3343:3363   */\n  tag_80\n    /* \"#utility.yul\":3361:3362   */\n  dup3\n    /* \"#utility.yul\":3343:3363   */\n  tag_81\n  jump\t// in\ntag_80:\n    /* \"#utility.yul\":3338:3363   */\n  swap2\n  pop\n    /* \"#utility.yul\":3377:3397   */\n  tag_82\n    /* \"#utility.yul\":3395:3396   */\n  dup4\n    /* \"#utility.yul\":3377:3397   */\n  tag_81\n  jump\t// in\ntag_82:\n    /* \"#utility.yul\":3372:3397   */\n  swap3\n  pop\n    /* \"#utility.yul\":3565:3566   */\n  dup2\n    /* \"#utility.yul\":3497:3563   */\n  0xffffffffffffffffffffffffffffffffffffffffffffffffffffffffffffffff\n    /* \"#utility.yul\":3493:3567   */\n  div\n    /* \"#utility.yul\":3490:3491   */\n  dup4\n    /* \"#utility.yul\":3487:3568   */\n  gt\n    /* \"#utility.yul\":3482:3483   */\n  dup3\n    /* \"#utility.yul\":3475:3484   */\n  iszero\n    /* \"#utility.yul\":3468:3485   */\n  iszero\n    /* \"#utility.yul\":3464:3569   */\n  and\n    /* \"#utility.yul\":3461:3592   */\n  iszero\n  tag_83\n  jumpi\n    /* \"#utility.yul\":3572:3590   */\n  tag_84\n  tag_85\n  jump\t// in\ntag_84:\n    /* \"#utility.yul\":3461:3592   */\ntag_83:\n    /* \"#utility.yul\":3620:3621   */\n  dup3\n    /* \"#utility.yul\":3617:3618   */\n  dup3\n    /* \"#utility.yul\":3613:3622   */\n  mul\n    /* \"#utility.yul\":3602:3622   */\n  swap1\n  pop\n    /* \"#utility.yul\":3280:3628   */\n  swap3\n  swap2\n  pop\n  pop\n  jump\t// out\n    /* \"#utility.yul\":3634:3730   */\ntag_86:\n    /* \"#utility.yul\":3671:3678   */\n  0x00\n    /* \"#utility.yul\":3700:3724   */\n  tag_88\n    /* \"#utility.yul\":3718:3723   */\n  dup3\n    /* \"#utility.yul\":3700:3724   */\n  tag_89\n  jump\t// in\ntag_88:\n    /* \"#utility.yul\":3689:3724   */\n  swap1\n  pop\n    /* \"#utility.yul\":3634:3730   */\n  swap2\n  swap1\n  pop\n  jump\t// out\n    /* \"#utility.yul\":3736:3862   */\ntag_89:\n    /* \"#utility.yul\":3773:3780   */\n  0x00\n    /* \"#utility.yul\":3813:3855   */\n  0xffffffffffffffffffffffffffffffffffffffff\n    /* \"#utility.yul\":3806:3811   */\n  dup3\n    /* \"#utility.yul\":3802:3856   */\n  and\n    /* \"#utility.yul\":3791:3856   */\n  swap1\n  pop\n    /* \"#utility.yul\":3736:3862   */\n  swap2\n  swap1\n  pop\n  jump\t// out\n    /* \"#utility.yul\":3868:3945   */\ntag_81:\n    /* \"#utility.yul\":3905:3912   */\n  0x00\n    /* \"#utility.yul\":3934:3939   */\n  dup2\n    /* \"#utility.yul\":3923:3939   */\n  swap1\n  pop\n    /* \"#utility.yul\":3868:3945   */\n  swap2\n  swap1\n  pop\n  jump\t// out\n    /* \"#utility.yul\":3951:4258   */\ntag_36:\n    /* \"#utility.yul\":4019:4020   */\n  0x00\n    /* \"#utility.yul\":4029:4142   */\ntag_93:\n    /* \"#utility.yul\":4043:4049   */\n  dup4\n    /* \"#utility.yul\":4040:4041   */\n  dup2\n    /* \"#utility.yul\":4037:4050   */\n  lt\n    /* \"#utility.yul\":4029:4142   */\n  iszero\n  tag_95\n  jumpi\n    /* \"#utility.yul\":4128:4129   */\n  dup1\n    /* \"#utility.yul\":4123:4126   */\n  dup3\n    /* \"#utility.yul\":4119:4130   */\n  add\n    /* \"#utility.yul\":4113:4131   */\n  mload\n    /* \"#utility.yul\":4109:4110   */\n  dup2\n    /* \"#utility.yul\":4104:4107   */\n  dup5\n    /* \"#utility.yul\":4100:4111   */\n  add\n    /* \"#utility.yul\":4093:4132   */\n  mstore\n    /* \"#utility.yul\":4065:4067   */\n  0x20\n    /* \"#utility.yul\":4062:4063   */\n  dup2\n    /* \"#utility.yul\":4058:4068   */\n  add\n    /* \"#utility.yul\":4053:4068   */\n  swap1\n  pop\n    /* \"#utility.yul\":4029:4142   */\n  jump(tag_93)\ntag_95:\n    /* \"#utility.yul\":4160:4166   */\n  dup4\n    /* \"#utility.yul\":4157:4158   */\n  dup2\n    /* \"#utility.yul\":4154:4167   */\n  gt\n    /* \"#utility.yul\":4151:4252   */\n  iszero\n  tag_96\n  jumpi\n    /* \"#utility.yul\":4240:4241   */\n  0x00\n    /* \"#utility.yul\":4231:4237   */\n  dup5\n    /* \"#utility.yul\":4226:4229   */\n  dup5\n    /* \"#utility.yul\":4222:4238   */\n  add\n    /* \"#utility.yul\":4215:4242   */\n  mstore\n    /* \"#utility.yul\":4151:4252   */\ntag_96:\n    /* \"#utility.yul\":4000:4258   */\n  pop\n    /* \"#utility.yul\":3951:4258   */\n  pop\n  pop\n  pop\n  jump\t// out\n    /* \"#utility.yul\":4264:4584   */\ntag_15:\n    /* \"#utility.yul\":4308:4314   */\n  0x00\n    /* \"#utility.yul\":4345:4346   */\n  0x02\n    /* \"#utility.yul\":4339:4343   */\n  dup3\n    /* \"#utility.yul\":4335:4347   */\n  div\n    /* \"#utility.yul\":4325:4347   */\n  swap1\n  pop\n    /* \"#utility.yul\":4392:4393   */\n  0x01\n    /* \"#utility.yul\":4386:4390   */\n  dup3\n    /* \"#utility.yul\":4382:4394   */\n  and\n    /* \"#utility.yul\":4413:4431   */\n  dup1\n    /* \"#utility.yul\":4403:4484   */\n  tag_98\n  jumpi\n    /* \"#utility.yul\":4469:4473   */\n  0x7f\n    /* \"#utility.yul\":4461:4467   */\n  dup3\n    /* \"#utility.yul\":4457:4474   */\n  and\n    /* \"#utility.yul\":4447:4474   */\n  swap2\n  pop\n    /* \"#utility.yul\":4403:4484   */\ntag_98:\n    /* \"#utility.yul\":4531:4533   */\n  0x20\n    /* \"#utility.yul\":4523:4529   */\n  dup3\n    /* \"#utility.yul\":4520:4534   */\n  lt\n    /* \"#utility.yul\":4500:4518   */\n  dup2\n    /* \"#utility.yul\":4497:4535   */\n  eq\n    /* \"#utility.yul\":4494:4578   */\n  iszero\n  tag_99\n  jumpi\n    /* \"#utility.yul\":4550:4568   */\n  tag_100\n  tag_101\n  jump\t// in\ntag_100:\n    /* \"#utility.yul\":4494:4578   */\ntag_99:\n    /* \"#utility.yul\":4315:4584   */\n  pop\n    /* \"#utility.yul\":4264:4584   */\n  swap2\n  swap1\n  pop\n  jump\t// out\n    /* \"#utility.yul\":4590:4871   */\ntag_71:\n    /* \"#utility.yul\":4673:4700   */\n  tag_103\n    /* \"#utility.yul\":4695:4699   */\n  dup3\n    /* \"#utility.yul\":4673:4700   */\n  tag_78\n  jump\t// in\ntag_103:\n    /* \"#utility.yul\":4665:4671   */\n  dup2\n    /* \"#utility.yul\":4661:4701   */\n  add\n    /* \"#utility.yul\":4803:4809   */\n  dup2\n    /* \"#utility.yul\":4791:4801   */\n  dup2\n    /* \"#utility.yul\":4788:4810   */\n  lt\n    /* \"#utility.yul\":4767:4785   */\n  0xffffffffffffffff\n    /* \"#utility.yul\":4755:4765   */\n  dup3\n    /* \"#utility.yul\":4752:4786   */\n  gt\n    /* \"#utility.yul\":4749:4811   */\n  or\n    /* \"#utility.yul\":4746:4834   */\n  iszero\n  tag_104\n  jumpi\n    /* \"#utility.yul\":4814:4832   */\n  tag_105\n  tag_76\n  jump\t// in\ntag_105:\n    /* \"#utility.yul\":4746:4834   */\ntag_104:\n    /* \"#utility.yul\":4854:4864   */\n  dup1\n    /* \"#utility.yul\":4850:4852   */\n  0x40\n    /* \"#utility.yul\":4843:4865   */\n  mstore\n    /* \"#utility.yul\":4633:4871   */\n  pop\n    /* \"#utility.yul\":4590:4871   */\n  pop\n  pop\n  jump\t// out\n    /* \"#utility.yul\":4877:5057   */\ntag_85:\n    /* \"#utility.yul\":4925:5002   */\n  0x4e487b7100000000000000000000000000000000000000000000000000000000\n    /* \"#utility.yul\":4922:4923   */\n  0x00\n    /* \"#utility.yul\":4915:5003   */\n  mstore\n    /* \"#utility.yul\":5022:5026   */\n  0x11\n    /* \"#utility.yul\":5019:5020   */\n  0x04\n    /* \"#utility.yul\":5012:5027   */\n  mstore\n    /* \"#utility.yul\":5046:5050   */\n  0x24\n    /* \"#utility.yul\":5043:5044   */\n  0x00\n    /* \"#utility.yul\":5036:5051   */\n  revert\n    /* \"#utility.yul\":5063:5243   */\ntag_101:\n    /* \"#utility.yul\":5111:5188   */\n  0x4e487b7100000000000000000000000000000000000000000000000000000000\n    /* \"#utility.yul\":5108:5109   */\n  0x00\n    /* \"#utility.yul\":5101:5189   */\n  mstore\n    /* \"#utility.yul\":5208:5212   */\n  0x22\n    /* \"#utility.yul\":5205:5206   */\n  0x04\n    /* \"#utility.yul\":5198:5213   */\n  mstore\n    /* \"#utility.yul\":5232:5236   */\n  0x24\n    /* \"#utility.yul\":5229:5230   */\n  0x00\n    /* \"#utility.yul\":5222:5237   */\n  revert\n    /* \"#utility.yul\":5249:5429   */\ntag_76:\n    /* \"#utility.yul\":5297:5374   */\n  0x4e487b7100000000000000000000000000000000000000000000000000000000\n    /* \"#utility.yul\":5294:5295   */\n  0x00\n    /* \"#utility.yul\":5287:5375   */\n  mstore\n    /* \"#utility.yul\":5394:5398   */\n  0x41\n    /* \"#utility.yul\":5391:5392   */\n  0x04\n    /* \"#utility.yul\":5384:5399   */\n  mstore\n    /* \"#utility.yul\":5418:5422   */\n  0x24\n    /* \"#utility.yul\":5415:5416   */\n  0x00\n    /* \"#utility.yul\":5408:5423   */\n  revert\n    /* \"#utility.yul\":5435:5552   */\ntag_45:\n    /* \"#utility.yul\":5544:5545   */\n  0x00\n    /* \"#utility.yul\":5541:5542   */\n  dup1\n    /* \"#utility.yul\":5534:5546   */\n  revert\n    /* \"#utility.yul\":5558:5675   */\ntag_34:\n    /* \"#utility.yul\":5667:5668   */\n  0x00\n    /* \"#utility.yul\":5664:5665   */\n  dup1\n    /* \"#utility.yul\":5657:5669   */\n  revert\n    /* \"#utility.yul\":5681:5798   */\ntag_57:\n    /* \"#utility.yul\":5790:5791   */\n  0x00\n    /* \"#utility.yul\":5787:5788   */\n  dup1\n    /* \"#utility.yul\":5780:5792   */\n  revert\n    /* \"#utility.yul\":5804:5921   */\ntag_54:\n    /* \"#utility.yul\":5913:5914   */\n  0x00\n    /* \"#utility.yul\":5910:5911   */\n  dup1\n    /* \"#utility.yul\":5903:5915   */\n  revert\n    /* \"#utility.yul\":5927:6029   */\ntag_78:\n    /* \"#utility.yul\":5968:5974   */\n  0x00\n    /* \"#utility.yul\":6019:6021   */\n  0x1f\n    /* \"#utility.yul\":6015:6022   */\n  not\n    /* \"#utility.yul\":6010:6012   */\n  0x1f\n    /* \"#utility.yul\":6003:6008   */\n  dup4\n    /* \"#utility.yul\":5999:6013   */\n  add\n    /* \"#utility.yul\":5995:6023   */\n  and\n    /* \"#utility.yul\":5985:6023   */\n  swap1\n  pop\n    /* \"#utility.yul\":5927:6029   */\n  swap2\n  swap1\n  pop\n  jump\t// out\n    /* \"#utility.yul\":6035:6157   */\ntag_40:\n    /* \"#utility.yul\":6108:6132   */\n  tag_115\n    /* \"#utility.yul\":6126:6131   */\n  dup2\n    /* \"#utility.yul\":6108:6132   */\n  tag_86\n  jump\t// in\ntag_115:\n    /* \"#utility.yul\":6101:6106   */\n  dup2\n    /* \"#utility.yul\":6098:6133   */\n  eq\n    /* \"#utility.yul\":6088:6151   */\n  tag_116\n  jumpi\n    /* \"#utility.yul\":6147:6148   */\n  0x00\n    /* \"#utility.yul\":6144:6145   */\n  dup1\n    /* \"#utility.yul\":6137:6149   */\n  revert\n    /* \"#utility.yul\":6088:6151   */\ntag_116:\n    /* \"#utility.yul\":6035:6157   */\n  pop\n  jump\t// out\n    /* \"#utility.yul\":6163:6285   */\ntag_50:\n    /* \"#utility.yul\":6236:6260   */\n  tag_118\n    /* \"#utility.yul\":6254:6259   */\n  dup2\n    /* \"#utility.yul\":6236:6260   */\n  tag_81\n  jump\t// in\ntag_118:\n    /* \"#utility.yul\":6229:6234   */\n  dup2\n    /* \"#utility.yul\":6226:6261   */\n  eq\n    /* \"#utility.yul\":6216:6279   */\n  tag_119\n  jumpi\n    /* \"#utility.yul\":6275:6276   */\n  0x00\n    /* \"#utility.yul\":6272:6273   */\n  dup1\n    /* \"#utility.yul\":6265:6277   */\n  revert\n    /* \"#utility.yul\":6216:6279   */\ntag_119:\n    /* \"#utility.yul\":6163:6285   */\n  pop\n  jump\t// out\n    /* \"contracts/RFT.sol\":517:2497  contract RFT is ERC20 {... */\ntag_13:\n  dataSize(sub_0)\n  dup1\n  dataOffset(sub_0)\n  0x00\n  codecopy\n  0x00\n  return\nstop\n\nsub_0: assembly {\n        /* \"contracts/RFT.sol\":517:2497  contract RFT is ERC20 {... */\n      mstore(0x40, 0x80)\n      callvalue\n      dup1\n      iszero\n      tag_1\n      jumpi\n      0x00\n      dup1\n      revert\n    tag_1:\n      pop\n      jumpi(tag_2, lt(calldatasize, 0x04))\n      shr(0xe0, calldataload(0x00))\n      dup1\n      0x4fe6f55f\n      gt\n      tag_25\n      jumpi\n      dup1\n      0xa9059cbb\n      gt\n      tag_26\n      jumpi\n      dup1\n      0xa9059cbb\n      eq\n      tag_19\n      jumpi\n      dup1\n      0xa9ed6e9a\n      eq\n      tag_20\n      jumpi\n      dup1\n      0xc6bc5182\n      eq\n      tag_21\n      jumpi\n      dup1\n      0xdd62ed3e\n      eq\n      tag_22\n      jumpi\n      dup1\n      0xf4b9fa75\n      eq\n      tag_23\n      jumpi\n      dup1\n      0xf851a440\n      eq\n      tag_24\n      jumpi\n      jump(tag_2)\n    tag_26:\n      dup1\n      0x4fe6f55f\n      eq\n      tag_14\n      jumpi\n      dup1\n      0x70a08231\n      eq\n      tag_15\n      jumpi\n      dup1\n      0x95d89b41\n      eq\n      tag_16\n      jumpi\n      dup1\n      0x9ce15a38\n      eq\n      tag_17\n      jumpi\n      dup1\n      0xa457c2d7\n      eq\n      tag_18\n      jumpi\n      jump(tag_2)\n    tag_25:\n      dup1\n      0x313ce567\n      gt\n      tag_27\n      jumpi\n      dup1\n      0x313ce567\n      eq\n      tag_8\n      jumpi\n      dup1\n      0x39509351\n      eq\n      tag_9\n      jumpi\n      dup1\n      0x3e47d6f3\n      eq\n      tag_10\n      jumpi\n      dup1\n      0x479afbf9\n      eq\n      tag_11\n      jumpi\n      dup1\n      0x47ccca02\n      eq\n      tag_12\n      jumpi\n      dup1\n      0x48c7a0bf\n      eq\n      tag_13\n      jumpi\n      jump(tag_2)\n    tag_27:\n      dup1\n      0x06fdde03\n      eq\n      tag_3\n      jumpi\n      dup1\n      0x095ea7b3\n      eq\n      tag_4\n      jumpi\n      dup1\n      0x18160ddd\n      eq\n      tag_5\n      jumpi\n      dup1\n      0x1fed217d\n      eq\n      tag_6\n      jumpi\n      dup1\n      0x23b872dd\n      eq\n      tag_7\n      jumpi\n    tag_2:\n      0x00\n      dup1\n      revert\n        /* \"@openzeppelin/contracts/token/ERC20/ERC20.sol\":2156:2254  function name() public view virtual override returns (string memory) {... */\n    tag_3:\n      tag_28\n      tag_29\n      jump\t// in\n    tag_28:\n      mload(0x40)\n      tag_30\n      swap2\n      swap1\n      tag_31\n      jump\t// in\n    tag_30:\n      mload(0x40)\n      dup1\n      swap2\n      sub\n      swap1\n      return\n        /* \"@openzeppelin/contracts/token/ERC20/ERC20.sol\":4433:4630  function approve(address spender, uint256 amount) public virtual override returns (bool) {... */\n    tag_4:\n      tag_32\n      0x04\n      dup1\n      calldatasize\n      sub\n      dup2\n      add\n      swap1\n      tag_33\n      swap2\n      swap1\n      tag_34\n      jump\t// in\n    tag_33:\n      tag_35\n      jump\t// in\n    tag_32:\n      mload(0x40)\n      tag_36\n      swap2\n      swap1\n      tag_37\n      jump\t// in\n    tag_36:\n      mload(0x40)\n      dup1\n      swap2\n      sub\n      swap1\n      return\n        /* \"@openzeppelin/contracts/token/ERC20/ERC20.sol\":3244:3350  function totalSupply() public view virtual override returns (uint256) {... */\n    tag_5:\n      tag_38\n      tag_39\n      jump\t// in\n    tag_38:\n      mload(0x40)\n      tag_40\n      swap2\n      swap1\n      tag_41\n      jump\t// in\n    tag_40:\n      mload(0x40)\n      dup1\n      swap2\n      sub\n      swap1\n      return\n        /* \"contracts/RFT.sol\":2076:2495  function withdrawIcoProfits() external {... */\n    tag_6:\n      tag_42\n      tag_43\n      jump\t// in\n    tag_42:\n      stop\n        /* \"@openzeppelin/contracts/token/ERC20/ERC20.sol\":5192:5478  function transferFrom(... */\n    tag_7:\n      tag_44\n      0x04\n      dup1\n      calldatasize\n      sub\n      dup2\n      add\n      swap1\n      tag_45\n      swap2\n      swap1\n      tag_46\n      jump\t// in\n    tag_45:\n      tag_47\n      jump\t// in\n    tag_44:\n      mload(0x40)\n      tag_48\n      swap2\n      swap1\n      tag_37\n      jump\t// in\n    tag_48:\n      mload(0x40)\n      dup1\n      swap2\n      sub\n      swap1\n      return\n        /* \"@openzeppelin/contracts/token/ERC20/ERC20.sol\":3093:3184  function decimals() public view virtual override returns (uint8) {... */\n    tag_8:\n      tag_49\n      tag_50\n      jump\t// in\n    tag_49:\n      mload(0x40)\n      tag_51\n      swap2\n      swap1\n      tag_52\n      jump\t// in\n    tag_51:\n      mload(0x40)\n      dup1\n      swap2\n      sub\n      swap1\n      return\n        /* \"@openzeppelin/contracts/token/ERC20/ERC20.sol\":5873:6107  function increaseAllowance(address spender, uint256 addedValue) public virtual returns (bool) {... */\n    tag_9:\n      tag_53\n      0x04\n      dup1\n      calldatasize\n      sub\n      dup2\n      add\n      swap1\n      tag_54\n      swap2\n      swap1\n      tag_34\n      jump\t// in\n    tag_54:\n      tag_55\n      jump\t// in\n    tag_53:\n      mload(0x40)\n      tag_56\n      swap2\n      swap1\n      tag_37\n      jump\t// in\n    tag_56:\n      mload(0x40)\n      dup1\n      swap2\n      sub\n      swap1\n      return\n        /* \"contracts/RFT.sol\":853:909  mapping(address => uint256) public addressToAmountFunded */\n    tag_10:\n      tag_57\n      0x04\n      dup1\n      calldatasize\n      sub\n      dup2\n      add\n      swap1\n      tag_58\n      swap2\n      swap1\n      tag_59\n      jump\t// in\n    tag_58:\n      tag_60\n      jump\t// in\n    tag_57:\n      mload(0x40)\n      tag_61\n      swap2\n      swap1\n      tag_41\n      jump\t// in\n    tag_61:\n      mload(0x40)\n      dup1\n      swap2\n      sub\n      swap1\n      return\n        /* \"contracts/RFT.sol\":586:609  uint public ShareSupply */\n    tag_11:\n      tag_62\n      tag_63\n      jump\t// in\n    tag_62:\n      mload(0x40)\n      tag_64\n      swap2\n      swap1\n      tag_41\n      jump\t// in\n    tag_64:\n      mload(0x40)\n      dup1\n      swap2\n      sub\n      swap1\n      return\n        /* \"contracts/RFT.sol\":696:714  IERC721 public nft */\n    tag_12:\n      tag_65\n      tag_66\n      jump\t// in\n    tag_65:\n      mload(0x40)\n      tag_67\n      swap2\n      swap1\n      tag_68\n      jump\t// in\n    tag_67:\n      mload(0x40)\n      dup1\n      swap2\n      sub\n      swap1\n      return\n        /* \"contracts/RFT.sol\":560:582  uint public SharePrice */\n    tag_13:\n      tag_69\n      tag_70\n      jump\t// in\n    tag_69:\n      mload(0x40)\n      tag_71\n      swap2\n      swap1\n      tag_41\n      jump\t// in\n    tag_71:\n      mload(0x40)\n      dup1\n      swap2\n      sub\n      swap1\n      return\n        /* \"contracts/RFT.sol\":638:656  uint public Target */\n    tag_14:\n      tag_72\n      tag_73\n      jump\t// in\n    tag_72:\n      mload(0x40)\n      tag_74\n      swap2\n      swap1\n      tag_41\n      jump\t// in\n    tag_74:\n      mload(0x40)\n      dup1\n      swap2\n      sub\n      swap1\n      return\n        /* \"@openzeppelin/contracts/token/ERC20/ERC20.sol\":3408:3533  function balanceOf(address account) public view virtual override returns (uint256) {... */\n    tag_15:\n      tag_75\n      0x04\n      dup1\n      calldatasize\n      sub\n      dup2\n      add\n      swap1\n      tag_76\n      swap2\n      swap1\n      tag_59\n      jump\t// in\n    tag_76:\n      tag_77\n      jump\t// in\n    tag_75:\n      mload(0x40)\n      tag_78\n      swap2\n      swap1\n      tag_41\n      jump\t// in\n    tag_78:\n      mload(0x40)\n      dup1\n      swap2\n      sub\n      swap1\n      return\n        /* \"@openzeppelin/contracts/token/ERC20/ERC20.sol\":2367:2469  function symbol() public view virtual override returns (string memory) {... */\n    tag_16:\n      tag_79\n      tag_80\n      jump\t// in\n    tag_79:\n      mload(0x40)\n      tag_81\n      swap2\n      swap1\n      tag_31\n      jump\t// in\n    tag_81:\n      mload(0x40)\n      dup1\n      swap2\n      sub\n      swap1\n      return\n        /* \"contracts/RFT.sol\":774:806  bool public TargetRaised = false */\n    tag_17:\n      tag_82\n      tag_83\n      jump\t// in\n    tag_82:\n      mload(0x40)\n      tag_84\n      swap2\n      swap1\n      tag_37\n      jump\t// in\n    tag_84:\n      mload(0x40)\n      dup1\n      swap2\n      sub\n      swap1\n      return\n        /* \"@openzeppelin/contracts/token/ERC20/ERC20.sol\":6594:7021  function decreaseAllowance(address spender, uint256 subtractedValue) public virtual returns (bool) {... */\n    tag_18:\n      tag_85\n      0x04\n      dup1\n      calldatasize\n      sub\n      dup2\n      add\n      swap1\n      tag_86\n      swap2\n      swap1\n      tag_34\n      jump\t// in\n    tag_86:\n      tag_87\n      jump\t// in\n    tag_85:\n      mload(0x40)\n      tag_88\n      swap2\n      swap1\n      tag_37\n      jump\t// in\n    tag_88:\n      mload(0x40)\n      dup1\n      swap2\n      sub\n      swap1\n      return\n        /* \"@openzeppelin/contracts/token/ERC20/ERC20.sol\":3729:3918  function transfer(address to, uint256 amount) public virtual override returns (bool) {... */\n    tag_19:\n      tag_89\n      0x04\n      dup1\n      calldatasize\n      sub\n      dup2\n      add\n      swap1\n      tag_90\n      swap2\n      swap1\n      tag_34\n      jump\t// in\n    tag_90:\n      tag_91\n      jump\t// in\n    tag_89:\n      mload(0x40)\n      tag_92\n      swap2\n      swap1\n      tag_37\n      jump\t// in\n    tag_92:\n      mload(0x40)\n      dup1\n      swap2\n      sub\n      swap1\n      return\n        /* \"contracts/RFT.sol\":1636:2072  function buyShare(uint shareAmount) external {... */\n    tag_20:\n      tag_93\n      0x04\n      dup1\n      calldatasize\n      sub\n      dup2\n      add\n      swap1\n      tag_94\n      swap2\n      swap1\n      tag_95\n      jump\t// in\n    tag_94:\n      tag_96\n      jump\t// in\n    tag_93:\n      stop\n        /* \"contracts/RFT.sol\":675:692  uint public nftId */\n    tag_21:\n      tag_97\n      tag_98\n      jump\t// in\n    tag_97:\n      mload(0x40)\n      tag_99\n      swap2\n      swap1\n      tag_41\n      jump\t// in\n    tag_99:\n      mload(0x40)\n      dup1\n      swap2\n      sub\n      swap1\n      return\n        /* \"@openzeppelin/contracts/token/ERC20/ERC20.sol\":3976:4125  function allowance(address owner, address spender) public view virtual override returns (uint256) {... */\n    tag_22:\n      tag_100\n      0x04\n      dup1\n      calldatasize\n      sub\n      dup2\n      add\n      swap1\n      tag_101\n      swap2\n      swap1\n      tag_102\n      jump\t// in\n    tag_101:\n      tag_103\n      jump\t// in\n    tag_100:\n      mload(0x40)\n      tag_104\n      swap2\n      swap1\n      tag_41\n      jump\t// in\n    tag_104:\n      mload(0x40)\n      dup1\n      swap2\n      sub\n      swap1\n      return\n        /* \"contracts/RFT.sol\":718:735  IERC20 public dai */\n    tag_23:\n      tag_105\n      tag_106\n      jump\t// in\n    tag_105:\n      mload(0x40)\n      tag_107\n      swap2\n      swap1\n      tag_108\n      jump\t// in\n    tag_107:\n      mload(0x40)\n      dup1\n      swap2\n      sub\n      swap1\n      return\n        /* \"contracts/RFT.sol\":750:770  address public admin */\n    tag_24:\n      tag_109\n      tag_110\n      jump\t// in\n    tag_109:\n      mload(0x40)\n      tag_111\n      swap2\n      swap1\n      tag_112\n      jump\t// in\n    tag_111:\n      mload(0x40)\n      dup1\n      swap2\n      sub\n      swap1\n      return\n        /* \"@openzeppelin/contracts/token/ERC20/ERC20.sol\":2156:2254  function name() public view virtual override returns (string memory) {... */\n    tag_29:\n        /* \"@openzeppelin/contracts/token/ERC20/ERC20.sol\":2210:2223  string memory */\n      0x60\n        /* \"@openzeppelin/contracts/token/ERC20/ERC20.sol\":2242:2247  _name */\n      0x03\n        /* \"@openzeppelin/contracts/token/ERC20/ERC20.sol\":2235:2247  return _name */\n      dup1\n      sload\n      tag_114\n      swap1\n      tag_115\n      jump\t// in\n    tag_114:\n      dup1\n      0x1f\n      add\n      0x20\n      dup1\n      swap2\n      div\n      mul\n      0x20\n      add\n      mload(0x40)\n      swap1\n      dup2\n      add\n      0x40\n      mstore\n      dup1\n      swap3\n      swap2\n      swap1\n      dup2\n      dup2\n      mstore\n      0x20\n      add\n      dup3\n      dup1\n      sload\n      tag_116\n      swap1\n      tag_115\n      jump\t// in\n    tag_116:\n      dup1\n      iszero\n      tag_117\n      jumpi\n      dup1\n      0x1f\n      lt\n      tag_118\n      jumpi\n      0x0100\n      dup1\n      dup4\n      sload\n      div\n      mul\n      dup4\n      mstore\n      swap2\n      0x20\n      add\n      swap2\n      jump(tag_117)\n    tag_118:\n      dup3\n      add\n      swap2\n      swap1\n      0x00\n      mstore\n      keccak256(0x00, 0x20)\n      swap1\n    tag_119:\n      dup2\n      sload\n      dup2\n      mstore\n      swap1\n      0x01\n      add\n      swap1\n      0x20\n      add\n      dup1\n      dup4\n      gt\n      tag_119\n      jumpi\n      dup3\n      swap1\n      sub\n      0x1f\n      and\n      dup3\n      add\n      swap2\n    tag_117:\n      pop\n      pop\n      pop\n      pop\n      pop\n      swap1\n      pop\n        /* \"@openzeppelin/contracts/token/ERC20/ERC20.sol\":2156:2254  function name() public view virtual override returns (string memory) {... */\n      swap1\n      jump\t// out\n        /* \"@openzeppelin/contracts/token/ERC20/ERC20.sol\":4433:4630  function approve(address spender, uint256 amount) public virtual override returns (bool) {... */\n    tag_35:\n        /* \"@openzeppelin/contracts/token/ERC20/ERC20.sol\":4516:4520  bool */\n      0x00\n        /* \"@openzeppelin/contracts/token/ERC20/ERC20.sol\":4532:4545  address owner */\n      dup1\n        /* \"@openzeppelin/contracts/token/ERC20/ERC20.sol\":4548:4560  _msgSender() */\n      tag_121\n        /* \"@openzeppelin/contracts/token/ERC20/ERC20.sol\":4548:4558  _msgSender */\n      tag_122\n        /* \"@openzeppelin/contracts/token/ERC20/ERC20.sol\":4548:4560  _msgSender() */\n      jump\t// in\n    tag_121:\n        /* \"@openzeppelin/contracts/token/ERC20/ERC20.sol\":4532:4560  address owner = _msgSender() */\n      swap1\n      pop\n        /* \"@openzeppelin/contracts/token/ERC20/ERC20.sol\":4570:4602  _approve(owner, spender, amount) */\n      tag_123\n        /* \"@openzeppelin/contracts/token/ERC20/ERC20.sol\":4579:4584  owner */\n      dup2\n        /* \"@openzeppelin/contracts/token/ERC20/ERC20.sol\":4586:4593  spender */\n      dup6\n        /* \"@openzeppelin/contracts/token/ERC20/ERC20.sol\":4595:4601  amount */\n      dup6\n        /* \"@openzeppelin/contracts/token/ERC20/ERC20.sol\":4570:4578  _approve */\n      tag_124\n        /* \"@openzeppelin/contracts/token/ERC20/ERC20.sol\":4570:4602  _approve(owner, spender, amount) */\n      jump\t// in\n    tag_123:\n        /* \"@openzeppelin/contracts/token/ERC20/ERC20.sol\":4619:4623  true */\n      0x01\n        /* \"@openzeppelin/contracts/token/ERC20/ERC20.sol\":4612:4623  return true */\n      swap2\n      pop\n      pop\n        /* \"@openzeppelin/contracts/token/ERC20/ERC20.sol\":4433:4630  function approve(address spender, uint256 amount) public virtual override returns (bool) {... */\n      swap3\n      swap2\n      pop\n      pop\n      jump\t// out\n        /* \"@openzeppelin/contracts/token/ERC20/ERC20.sol\":3244:3350  function totalSupply() public view virtual override returns (uint256) {... */\n    tag_39:\n        /* \"@openzeppelin/contracts/token/ERC20/ERC20.sol\":3305:3312  uint256 */\n      0x00\n        /* \"@openzeppelin/contracts/token/ERC20/ERC20.sol\":3331:3343  _totalSupply */\n      sload(0x02)\n        /* \"@openzeppelin/contracts/token/ERC20/ERC20.sol\":3324:3343  return _totalSupply */\n      swap1\n      pop\n        /* \"@openzeppelin/contracts/token/ERC20/ERC20.sol\":3244:3350  function totalSupply() public view virtual override returns (uint256) {... */\n      swap1\n      jump\t// out\n        /* \"contracts/RFT.sol\":2076:2495  function withdrawIcoProfits() external {... */\n    tag_43:\n        /* \"contracts/RFT.sol\":2143:2148  admin */\n      0x0b\n      0x00\n      swap1\n      sload\n      swap1\n      0x0100\n      exp\n      swap1\n      div\n      0xffffffffffffffffffffffffffffffffffffffff\n      and\n        /* \"contracts/RFT.sol\":2129:2148  msg.sender == admin */\n      0xffffffffffffffffffffffffffffffffffffffff\n      and\n        /* \"contracts/RFT.sol\":2129:2139  msg.sender */\n      caller\n        /* \"contracts/RFT.sol\":2129:2148  msg.sender == admin */\n      0xffffffffffffffffffffffffffffffffffffffff\n      and\n      eq\n        /* \"contracts/RFT.sol\":2121:2163  require(msg.sender == admin, 'only admin') */\n      tag_127\n      jumpi\n      mload(0x40)\n      0x08c379a000000000000000000000000000000000000000000000000000000000\n      dup2\n      mstore\n      0x04\n      add\n      tag_128\n      swap1\n      tag_129\n      jump\t// in\n    tag_128:\n      mload(0x40)\n      dup1\n      swap2\n      sub\n      swap1\n      revert\n    tag_127:\n        /* \"contracts/RFT.sol\":2236:2251  uint daiBalance */\n      0x00\n        /* \"contracts/RFT.sol\":2254:2257  dai */\n      0x0a\n      0x00\n      swap1\n      sload\n      swap1\n      0x0100\n      exp\n      swap1\n      div\n      0xffffffffffffffffffffffffffffffffffffffff\n      and\n        /* \"contracts/RFT.sol\":2254:2267  dai.balanceOf */\n      0xffffffffffffffffffffffffffffffffffffffff\n      and\n      0x70a08231\n        /* \"contracts/RFT.sol\":2276:2280  this */\n      address\n        /* \"contracts/RFT.sol\":2254:2282  dai.balanceOf(address(this)) */\n      mload(0x40)\n      dup3\n      0xffffffff\n      and\n      0xe0\n      shl\n      dup2\n      mstore\n      0x04\n      add\n      tag_130\n      swap2\n      swap1\n      tag_112\n      jump\t// in\n    tag_130:\n      0x20\n      mload(0x40)\n      dup1\n      dup4\n      sub\n      dup2\n      dup7\n      dup1\n      extcodesize\n      iszero\n      dup1\n      iszero\n      tag_131\n      jumpi\n      0x00\n      dup1\n      revert\n    tag_131:\n      pop\n      gas\n      staticcall\n      iszero\n      dup1\n      iszero\n      tag_133\n      jumpi\n      returndatasize\n      0x00\n      dup1\n      returndatacopy\n      revert(0x00, returndatasize)\n    tag_133:\n      pop\n      pop\n      pop\n      pop\n      mload(0x40)\n      returndatasize\n      not(0x1f)\n      0x1f\n      dup3\n      add\n      and\n      dup3\n      add\n      dup1\n      0x40\n      mstore\n      pop\n      dup2\n      add\n      swap1\n      tag_134\n      swap2\n      swap1\n      tag_135\n      jump\t// in\n    tag_134:\n        /* \"contracts/RFT.sol\":2236:2282  uint daiBalance = dai.balanceOf(address(this)) */\n      swap1\n      pop\n        /* \"contracts/RFT.sol\":2304:2305  0 */\n      0x00\n        /* \"contracts/RFT.sol\":2291:2301  daiBalance */\n      dup2\n        /* \"contracts/RFT.sol\":2291:2305  daiBalance > 0 */\n      gt\n        /* \"contracts/RFT.sol\":2288:2353  if(daiBalance > 0) {... */\n      iszero\n      tag_136\n      jumpi\n        /* \"contracts/RFT.sol\":2315:2318  dai */\n      0x0a\n      0x00\n      swap1\n      sload\n      swap1\n      0x0100\n      exp\n      swap1\n      div\n      0xffffffffffffffffffffffffffffffffffffffff\n      and\n        /* \"contracts/RFT.sol\":2315:2327  dai.transfer */\n      0xffffffffffffffffffffffffffffffffffffffff\n      and\n      0xa9059cbb\n        /* \"contracts/RFT.sol\":2328:2333  admin */\n      0x0b\n      0x00\n      swap1\n      sload\n      swap1\n      0x0100\n      exp\n      swap1\n      div\n      0xffffffffffffffffffffffffffffffffffffffff\n      and\n        /* \"contracts/RFT.sol\":2335:2345  daiBalance */\n      dup4\n        /* \"contracts/RFT.sol\":2315:2346  dai.transfer(admin, daiBalance) */\n      mload(0x40)\n      dup4\n      0xffffffff\n      and\n      0xe0\n      shl\n      dup2\n      mstore\n      0x04\n      add\n      tag_137\n      swap3\n      swap2\n      swap1\n      tag_138\n      jump\t// in\n    tag_137:\n      0x20\n      mload(0x40)\n      dup1\n      dup4\n      sub\n      dup2\n      0x00\n      dup8\n      dup1\n      extcodesize\n      iszero\n      dup1\n      iszero\n      tag_139\n      jumpi\n      0x00\n      dup1\n      revert\n    tag_139:\n      pop\n      gas\n      call\n      iszero\n      dup1\n      iszero\n      tag_141\n      jumpi\n      returndatasize\n      0x00\n      dup1\n      returndatacopy\n      revert(0x00, returndatasize)\n    tag_141:\n      pop\n      pop\n      pop\n      pop\n      mload(0x40)\n      returndatasize\n      not(0x1f)\n      0x1f\n      dup3\n      add\n      and\n      dup3\n      add\n      dup1\n      0x40\n      mstore\n      pop\n      dup2\n      add\n      swap1\n      tag_142\n      swap2\n      swap1\n      tag_143\n      jump\t// in\n    tag_142:\n      pop\n        /* \"contracts/RFT.sol\":2288:2353  if(daiBalance > 0) {... */\n    tag_136:\n        /* \"contracts/RFT.sol\":2358:2381  uint unsoldShareBalance */\n      0x00\n        /* \"contracts/RFT.sol\":2398:2411  totalSupply() */\n      tag_144\n        /* \"contracts/RFT.sol\":2398:2409  totalSupply */\n      tag_39\n        /* \"contracts/RFT.sol\":2398:2411  totalSupply() */\n      jump\t// in\n    tag_144:\n        /* \"contracts/RFT.sol\":2384:2395  ShareSupply */\n      sload(0x06)\n        /* \"contracts/RFT.sol\":2384:2411  ShareSupply - totalSupply() */\n      tag_145\n      swap2\n      swap1\n      tag_146\n      jump\t// in\n    tag_145:\n        /* \"contracts/RFT.sol\":2358:2411  uint unsoldShareBalance = ShareSupply - totalSupply() */\n      swap1\n      pop\n        /* \"contracts/RFT.sol\":2441:2442  0 */\n      0x00\n        /* \"contracts/RFT.sol\":2420:2438  unsoldShareBalance */\n      dup2\n        /* \"contracts/RFT.sol\":2420:2442  unsoldShareBalance > 0 */\n      gt\n        /* \"contracts/RFT.sol\":2417:2491  if(unsoldShareBalance > 0) {... */\n      iszero\n      tag_147\n      jumpi\n        /* \"contracts/RFT.sol\":2452:2484  _mint(admin, unsoldShareBalance) */\n      tag_148\n        /* \"contracts/RFT.sol\":2458:2463  admin */\n      0x0b\n      0x00\n      swap1\n      sload\n      swap1\n      0x0100\n      exp\n      swap1\n      div\n      0xffffffffffffffffffffffffffffffffffffffff\n      and\n        /* \"contracts/RFT.sol\":2465:2483  unsoldShareBalance */\n      dup3\n        /* \"contracts/RFT.sol\":2452:2457  _mint */\n      tag_149\n        /* \"contracts/RFT.sol\":2452:2484  _mint(admin, unsoldShareBalance) */\n      jump\t// in\n    tag_148:\n        /* \"contracts/RFT.sol\":2417:2491  if(unsoldShareBalance > 0) {... */\n    tag_147:\n        /* \"contracts/RFT.sol\":2115:2495  {... */\n      pop\n      pop\n        /* \"contracts/RFT.sol\":2076:2495  function withdrawIcoProfits() external {... */\n      jump\t// out\n        /* \"@openzeppelin/contracts/token/ERC20/ERC20.sol\":5192:5478  function transferFrom(... */\n    tag_47:\n        /* \"@openzeppelin/contracts/token/ERC20/ERC20.sol\":5319:5323  bool */\n      0x00\n        /* \"@openzeppelin/contracts/token/ERC20/ERC20.sol\":5335:5350  address spender */\n      dup1\n        /* \"@openzeppelin/contracts/token/ERC20/ERC20.sol\":5353:5365  _msgSender() */\n      tag_151\n        /* \"@openzeppelin/contracts/token/ERC20/ERC20.sol\":5353:5363  _msgSender */\n      tag_122\n        /* \"@openzeppelin/contracts/token/ERC20/ERC20.sol\":5353:5365  _msgSender() */\n      jump\t// in\n    tag_151:\n        /* \"@openzeppelin/contracts/token/ERC20/ERC20.sol\":5335:5365  address spender = _msgSender() */\n      swap1\n      pop\n        /* \"@openzeppelin/contracts/token/ERC20/ERC20.sol\":5375:5413  _spendAllowance(from, spender, amount) */\n      tag_152\n        /* \"@openzeppelin/contracts/token/ERC20/ERC20.sol\":5391:5395  from */\n      dup6\n        /* \"@openzeppelin/contracts/token/ERC20/ERC20.sol\":5397:5404  spender */\n      dup3\n        /* \"@openzeppelin/contracts/token/ERC20/ERC20.sol\":5406:5412  amount */\n      dup6\n        /* \"@openzeppelin/contracts/token/ERC20/ERC20.sol\":5375:5390  _spendAllowance */\n      tag_153\n        /* \"@openzeppelin/contracts/token/ERC20/ERC20.sol\":5375:5413  _spendAllowance(from, spender, amount) */\n      jump\t// in\n    tag_152:\n        /* \"@openzeppelin/contracts/token/ERC20/ERC20.sol\":5423:5450  _transfer(from, to, amount) */\n      tag_154\n        /* \"@openzeppelin/contracts/token/ERC20/ERC20.sol\":5433:5437  from */\n      dup6\n        /* \"@openzeppelin/contracts/token/ERC20/ERC20.sol\":5439:5441  to */\n      dup6\n        /* \"@openzeppelin/contracts/token/ERC20/ERC20.sol\":5443:5449  amount */\n      dup6\n        /* \"@openzeppelin/contracts/token/ERC20/ERC20.sol\":5423:5432  _transfer */\n      tag_155\n        /* \"@openzeppelin/contracts/token/ERC20/ERC20.sol\":5423:5450  _transfer(from, to, amount) */\n      jump\t// in\n    tag_154:\n        /* \"@openzeppelin/contracts/token/ERC20/ERC20.sol\":5467:5471  true */\n      0x01\n        /* \"@openzeppelin/contracts/token/ERC20/ERC20.sol\":5460:5471  return true */\n      swap2\n      pop\n      pop\n        /* \"@openzeppelin/contracts/token/ERC20/ERC20.sol\":5192:5478  function transferFrom(... */\n      swap4\n      swap3\n      pop\n      pop\n      pop\n      jump\t// out\n        /* \"@openzeppelin/contracts/token/ERC20/ERC20.sol\":3093:3184  function decimals() public view virtual override returns (uint8) {... */\n    tag_50:\n        /* \"@openzeppelin/contracts/token/ERC20/ERC20.sol\":3151:3156  uint8 */\n      0x00\n        /* \"@openzeppelin/contracts/token/ERC20/ERC20.sol\":3175:3177  18 */\n      0x12\n        /* \"@openzeppelin/contracts/token/ERC20/ERC20.sol\":3168:3177  return 18 */\n      swap1\n      pop\n        /* \"@openzeppelin/contracts/token/ERC20/ERC20.sol\":3093:3184  function decimals() public view virtual override returns (uint8) {... */\n      swap1\n      jump\t// out\n        /* \"@openzeppelin/contracts/token/ERC20/ERC20.sol\":5873:6107  function increaseAllowance(address spender, uint256 addedValue) public virtual returns (bool) {... */\n    tag_55:\n        /* \"@openzeppelin/contracts/token/ERC20/ERC20.sol\":5961:5965  bool */\n      0x00\n        /* \"@openzeppelin/contracts/token/ERC20/ERC20.sol\":5977:5990  address owner */\n      dup1\n        /* \"@openzeppelin/contracts/token/ERC20/ERC20.sol\":5993:6005  _msgSender() */\n      tag_158\n        /* \"@openzeppelin/contracts/token/ERC20/ERC20.sol\":5993:6003  _msgSender */\n      tag_122\n        /* \"@openzeppelin/contracts/token/ERC20/ERC20.sol\":5993:6005  _msgSender() */\n      jump\t// in\n    tag_158:\n        /* \"@openzeppelin/contracts/token/ERC20/ERC20.sol\":5977:6005  address owner = _msgSender() */\n      swap1\n      pop\n        /* \"@openzeppelin/contracts/token/ERC20/ERC20.sol\":6015:6079  _approve(owner, spender, allowance(owner, spender) + addedValue) */\n      tag_159\n        /* \"@openzeppelin/contracts/token/ERC20/ERC20.sol\":6024:6029  owner */\n      dup2\n        /* \"@openzeppelin/contracts/token/ERC20/ERC20.sol\":6031:6038  spender */\n      dup6\n        /* \"@openzeppelin/contracts/token/ERC20/ERC20.sol\":6068:6078  addedValue */\n      dup6\n        /* \"@openzeppelin/contracts/token/ERC20/ERC20.sol\":6040:6065  allowance(owner, spender) */\n      tag_160\n        /* \"@openzeppelin/contracts/token/ERC20/ERC20.sol\":6050:6055  owner */\n      dup6\n        /* \"@openzeppelin/contracts/token/ERC20/ERC20.sol\":6057:6064  spender */\n      dup10\n        /* \"@openzeppelin/contracts/token/ERC20/ERC20.sol\":6040:6049  allowance */\n      tag_103\n        /* \"@openzeppelin/contracts/token/ERC20/ERC20.sol\":6040:6065  allowance(owner, spender) */\n      jump\t// in\n    tag_160:\n        /* \"@openzeppelin/contracts/token/ERC20/ERC20.sol\":6040:6078  allowance(owner, spender) + addedValue */\n      tag_161\n      swap2\n      swap1\n      tag_162\n      jump\t// in\n    tag_161:\n        /* \"@openzeppelin/contracts/token/ERC20/ERC20.sol\":6015:6023  _approve */\n      tag_124\n        /* \"@openzeppelin/contracts/token/ERC20/ERC20.sol\":6015:6079  _approve(owner, spender, allowance(owner, spender) + addedValue) */\n      jump\t// in\n    tag_159:\n        /* \"@openzeppelin/contracts/token/ERC20/ERC20.sol\":6096:6100  true */\n      0x01\n        /* \"@openzeppelin/contracts/token/ERC20/ERC20.sol\":6089:6100  return true */\n      swap2\n      pop\n      pop\n        /* \"@openzeppelin/contracts/token/ERC20/ERC20.sol\":5873:6107  function increaseAllowance(address spender, uint256 addedValue) public virtual returns (bool) {... */\n      swap3\n      swap2\n      pop\n      pop\n      jump\t// out\n        /* \"contracts/RFT.sol\":853:909  mapping(address => uint256) public addressToAmountFunded */\n    tag_60:\n      mstore(0x20, 0x0c)\n      dup1\n      0x00\n      mstore\n      keccak256(0x00, 0x40)\n      0x00\n      swap2\n      pop\n      swap1\n      pop\n      sload\n      dup2\n      jump\t// out\n        /* \"contracts/RFT.sol\":586:609  uint public ShareSupply */\n    tag_63:\n      sload(0x06)\n      dup2\n      jump\t// out\n        /* \"contracts/RFT.sol\":696:714  IERC721 public nft */\n    tag_66:\n      0x09\n      0x00\n      swap1\n      sload\n      swap1\n      0x0100\n      exp\n      swap1\n      div\n      0xffffffffffffffffffffffffffffffffffffffff\n      and\n      dup2\n      jump\t// out\n        /* \"contracts/RFT.sol\":560:582  uint public SharePrice */\n    tag_70:\n      sload(0x05)\n      dup2\n      jump\t// out\n        /* \"contracts/RFT.sol\":638:656  uint public Target */\n    tag_73:\n      sload(0x07)\n      dup2\n      jump\t// out\n        /* \"@openzeppelin/contracts/token/ERC20/ERC20.sol\":3408:3533  function balanceOf(address account) public view virtual override returns (uint256) {... */\n    tag_77:\n        /* \"@openzeppelin/contracts/token/ERC20/ERC20.sol\":3482:3489  uint256 */\n      0x00\n        /* \"@openzeppelin/contracts/token/ERC20/ERC20.sol\":3508:3517  _balances */\n      dup1\n        /* \"@openzeppelin/contracts/token/ERC20/ERC20.sol\":3508:3526  _balances[account] */\n      0x00\n        /* \"@openzeppelin/contracts/token/ERC20/ERC20.sol\":3518:3525  account */\n      dup4\n        /* \"@openzeppelin/contracts/token/ERC20/ERC20.sol\":3508:3526  _balances[account] */\n      0xffffffffffffffffffffffffffffffffffffffff\n      and\n      0xffffffffffffffffffffffffffffffffffffffff\n      and\n      dup2\n      mstore\n      0x20\n      add\n      swap1\n      dup2\n      mstore\n      0x20\n      add\n      0x00\n      keccak256\n      sload\n        /* \"@openzeppelin/contracts/token/ERC20/ERC20.sol\":3501:3526  return _balances[account] */\n      swap1\n      pop\n        /* \"@openzeppelin/contracts/token/ERC20/ERC20.sol\":3408:3533  function balanceOf(address account) public view virtual override returns (uint256) {... */\n      swap2\n      swap1\n      pop\n      jump\t// out\n        /* \"@openzeppelin/contracts/token/ERC20/ERC20.sol\":2367:2469  function symbol() public view virtual override returns (string memory) {... */\n    tag_80:\n        /* \"@openzeppelin/contracts/token/ERC20/ERC20.sol\":2423:2436  string memory */\n      0x60\n        /* \"@openzeppelin/contracts/token/ERC20/ERC20.sol\":2455:2462  _symbol */\n      0x04\n        /* \"@openzeppelin/contracts/token/ERC20/ERC20.sol\":2448:2462  return _symbol */\n      dup1\n      sload\n      tag_165\n      swap1\n      tag_115\n      jump\t// in\n    tag_165:\n      dup1\n      0x1f\n      add\n      0x20\n      dup1\n      swap2\n      div\n      mul\n      0x20\n      add\n      mload(0x40)\n      swap1\n      dup2\n      add\n      0x40\n      mstore\n      dup1\n      swap3\n      swap2\n      swap1\n      dup2\n      dup2\n      mstore\n      0x20\n      add\n      dup3\n      dup1\n      sload\n      tag_166\n      swap1\n      tag_115\n      jump\t// in\n    tag_166:\n      dup1\n      iszero\n      tag_167\n      jumpi\n      dup1\n      0x1f\n      lt\n      tag_168\n      jumpi\n      0x0100\n      dup1\n      dup4\n      sload\n      div\n      mul\n      dup4\n      mstore\n      swap2\n      0x20\n      add\n      swap2\n      jump(tag_167)\n    tag_168:\n      dup3\n      add\n      swap2\n      swap1\n      0x00\n      mstore\n      keccak256(0x00, 0x20)\n      swap1\n    tag_169:\n      dup2\n      sload\n      dup2\n      mstore\n      swap1\n      0x01\n      add\n      swap1\n      0x20\n      add\n      dup1\n      dup4\n      gt\n      tag_169\n      jumpi\n      dup3\n      swap1\n      sub\n      0x1f\n      and\n      dup3\n      add\n      swap2\n    tag_167:\n      pop\n      pop\n      pop\n      pop\n      pop\n      swap1\n      pop\n        /* \"@openzeppelin/contracts/token/ERC20/ERC20.sol\":2367:2469  function symbol() public view virtual override returns (string memory) {... */\n      swap1\n      jump\t// out\n        /* \"contracts/RFT.sol\":774:806  bool public TargetRaised = false */\n    tag_83:\n      0x0b\n      0x14\n      swap1\n      sload\n      swap1\n      0x0100\n      exp\n      swap1\n      div\n      0xff\n      and\n      dup2\n      jump\t// out\n        /* \"@openzeppelin/contracts/token/ERC20/ERC20.sol\":6594:7021  function decreaseAllowance(address spender, uint256 subtractedValue) public virtual returns (bool) {... */\n    tag_87:\n        /* \"@openzeppelin/contracts/token/ERC20/ERC20.sol\":6687:6691  bool */\n      0x00\n        /* \"@openzeppelin/contracts/token/ERC20/ERC20.sol\":6703:6716  address owner */\n      dup1\n        /* \"@openzeppelin/contracts/token/ERC20/ERC20.sol\":6719:6731  _msgSender() */\n      tag_171\n        /* \"@openzeppelin/contracts/token/ERC20/ERC20.sol\":6719:6729  _msgSender */\n      tag_122\n        /* \"@openzeppelin/contracts/token/ERC20/ERC20.sol\":6719:6731  _msgSender() */\n      jump\t// in\n    tag_171:\n        /* \"@openzeppelin/contracts/token/ERC20/ERC20.sol\":6703:6731  address owner = _msgSender() */\n      swap1\n      pop\n        /* \"@openzeppelin/contracts/token/ERC20/ERC20.sol\":6741:6765  uint256 currentAllowance */\n      0x00\n        /* \"@openzeppelin/contracts/token/ERC20/ERC20.sol\":6768:6793  allowance(owner, spender) */\n      tag_172\n        /* \"@openzeppelin/contracts/token/ERC20/ERC20.sol\":6778:6783  owner */\n      dup3\n        /* \"@openzeppelin/contracts/token/ERC20/ERC20.sol\":6785:6792  spender */\n      dup7\n        /* \"@openzeppelin/contracts/token/ERC20/ERC20.sol\":6768:6777  allowance */\n      tag_103\n        /* \"@openzeppelin/contracts/token/ERC20/ERC20.sol\":6768:6793  allowance(owner, spender) */\n      jump\t// in\n    tag_172:\n        /* \"@openzeppelin/contracts/token/ERC20/ERC20.sol\":6741:6793  uint256 currentAllowance = allowance(owner, spender) */\n      swap1\n      pop\n        /* \"@openzeppelin/contracts/token/ERC20/ERC20.sol\":6831:6846  subtractedValue */\n      dup4\n        /* \"@openzeppelin/contracts/token/ERC20/ERC20.sol\":6811:6827  currentAllowance */\n      dup2\n        /* \"@openzeppelin/contracts/token/ERC20/ERC20.sol\":6811:6846  currentAllowance >= subtractedValue */\n      lt\n      iszero\n        /* \"@openzeppelin/contracts/token/ERC20/ERC20.sol\":6803:6888  require(currentAllowance >= subtractedValue, \"ERC20: decreased allowance below zero\") */\n      tag_173\n      jumpi\n      mload(0x40)\n      0x08c379a000000000000000000000000000000000000000000000000000000000\n      dup2\n      mstore\n      0x04\n      add\n      tag_174\n      swap1\n      tag_175\n      jump\t// in\n    tag_174:\n      mload(0x40)\n      dup1\n      swap2\n      sub\n      swap1\n      revert\n    tag_173:\n        /* \"@openzeppelin/contracts/token/ERC20/ERC20.sol\":6922:6982  _approve(owner, spender, currentAllowance - subtractedValue) */\n      tag_176\n        /* \"@openzeppelin/contracts/token/ERC20/ERC20.sol\":6931:6936  owner */\n      dup3\n        /* \"@openzeppelin/contracts/token/ERC20/ERC20.sol\":6938:6945  spender */\n      dup7\n        /* \"@openzeppelin/contracts/token/ERC20/ERC20.sol\":6966:6981  subtractedValue */\n      dup7\n        /* \"@openzeppelin/contracts/token/ERC20/ERC20.sol\":6947:6963  currentAllowance */\n      dup5\n        /* \"@openzeppelin/contracts/token/ERC20/ERC20.sol\":6947:6981  currentAllowance - subtractedValue */\n      sub\n        /* \"@openzeppelin/contracts/token/ERC20/ERC20.sol\":6922:6930  _approve */\n      tag_124\n        /* \"@openzeppelin/contracts/token/ERC20/ERC20.sol\":6922:6982  _approve(owner, spender, currentAllowance - subtractedValue) */\n      jump\t// in\n    tag_176:\n        /* \"@openzeppelin/contracts/token/ERC20/ERC20.sol\":7010:7014  true */\n      0x01\n        /* \"@openzeppelin/contracts/token/ERC20/ERC20.sol\":7003:7014  return true */\n      swap3\n      pop\n      pop\n      pop\n        /* \"@openzeppelin/contracts/token/ERC20/ERC20.sol\":6594:7021  function decreaseAllowance(address spender, uint256 subtractedValue) public virtual returns (bool) {... */\n      swap3\n      swap2\n      pop\n      pop\n      jump\t// out\n        /* \"@openzeppelin/contracts/token/ERC20/ERC20.sol\":3729:3918  function transfer(address to, uint256 amount) public virtual override returns (bool) {... */\n    tag_91:\n        /* \"@openzeppelin/contracts/token/ERC20/ERC20.sol\":3808:3812  bool */\n      0x00\n        /* \"@openzeppelin/contracts/token/ERC20/ERC20.sol\":3824:3837  address owner */\n      dup1\n        /* \"@openzeppelin/contracts/token/ERC20/ERC20.sol\":3840:3852  _msgSender() */\n      tag_178\n        /* \"@openzeppelin/contracts/token/ERC20/ERC20.sol\":3840:3850  _msgSender */\n      tag_122\n        /* \"@openzeppelin/contracts/token/ERC20/ERC20.sol\":3840:3852  _msgSender() */\n      jump\t// in\n    tag_178:\n        /* \"@openzeppelin/contracts/token/ERC20/ERC20.sol\":3824:3852  address owner = _msgSender() */\n      swap1\n      pop\n        /* \"@openzeppelin/contracts/token/ERC20/ERC20.sol\":3862:3890  _transfer(owner, to, amount) */\n      tag_179\n        /* \"@openzeppelin/contracts/token/ERC20/ERC20.sol\":3872:3877  owner */\n      dup2\n        /* \"@openzeppelin/contracts/token/ERC20/ERC20.sol\":3879:3881  to */\n      dup6\n        /* \"@openzeppelin/contracts/token/ERC20/ERC20.sol\":3883:3889  amount */\n      dup6\n        /* \"@openzeppelin/contracts/token/ERC20/ERC20.sol\":3862:3871  _transfer */\n      tag_155\n        /* \"@openzeppelin/contracts/token/ERC20/ERC20.sol\":3862:3890  _transfer(owner, to, amount) */\n      jump\t// in\n    tag_179:\n        /* \"@openzeppelin/contracts/token/ERC20/ERC20.sol\":3907:3911  true */\n      0x01\n        /* \"@openzeppelin/contracts/token/ERC20/ERC20.sol\":3900:3911  return true */\n      swap2\n      pop\n      pop\n        /* \"@openzeppelin/contracts/token/ERC20/ERC20.sol\":3729:3918  function transfer(address to, uint256 amount) public virtual override returns (bool) {... */\n      swap3\n      swap2\n      pop\n      pop\n      jump\t// out\n        /* \"contracts/RFT.sol\":1636:2072  function buyShare(uint shareAmount) external {... */\n    tag_96:\n        /* \"contracts/RFT.sol\":1839:1850  ShareSupply */\n      sload(0x06)\n        /* \"contracts/RFT.sol\":1824:1835  shareAmount */\n      dup2\n        /* \"contracts/RFT.sol\":1808:1821  totalSupply() */\n      tag_181\n        /* \"contracts/RFT.sol\":1808:1819  totalSupply */\n      tag_39\n        /* \"contracts/RFT.sol\":1808:1821  totalSupply() */\n      jump\t// in\n    tag_181:\n        /* \"contracts/RFT.sol\":1808:1835  totalSupply() + shareAmount */\n      tag_182\n      swap2\n      swap1\n      tag_162\n      jump\t// in\n    tag_182:\n        /* \"contracts/RFT.sol\":1808:1850  totalSupply() + shareAmount <= ShareSupply */\n      gt\n      iszero\n        /* \"contracts/RFT.sol\":1800:1877  require(totalSupply() + shareAmount <= ShareSupply, 'not enough shares left') */\n      tag_183\n      jumpi\n      mload(0x40)\n      0x08c379a000000000000000000000000000000000000000000000000000000000\n      dup2\n      mstore\n      0x04\n      add\n      tag_184\n      swap1\n      tag_185\n      jump\t// in\n    tag_184:\n      mload(0x40)\n      dup1\n      swap2\n      sub\n      swap1\n      revert\n    tag_183:\n        /* \"contracts/RFT.sol\":1883:1897  uint daiAmount */\n      0x00\n        /* \"contracts/RFT.sol\":1914:1924  SharePrice */\n      sload(0x05)\n        /* \"contracts/RFT.sol\":1900:1911  shareAmount */\n      dup3\n        /* \"contracts/RFT.sol\":1900:1924  shareAmount * SharePrice */\n      tag_186\n      swap2\n      swap1\n      tag_187\n      jump\t// in\n    tag_186:\n        /* \"contracts/RFT.sol\":1883:1924  uint daiAmount = shareAmount * SharePrice */\n      swap1\n      pop\n        /* \"contracts/RFT.sol\":1930:1933  dai */\n      0x0a\n      0x00\n      swap1\n      sload\n      swap1\n      0x0100\n      exp\n      swap1\n      div\n      0xffffffffffffffffffffffffffffffffffffffff\n      and\n        /* \"contracts/RFT.sol\":1930:1946  dai.transferFrom */\n      0xffffffffffffffffffffffffffffffffffffffff\n      and\n      0x23b872dd\n        /* \"contracts/RFT.sol\":1947:1957  msg.sender */\n      caller\n        /* \"contracts/RFT.sol\":1967:1971  this */\n      address\n        /* \"contracts/RFT.sol\":1974:1983  daiAmount */\n      dup5\n        /* \"contracts/RFT.sol\":1930:1984  dai.transferFrom(msg.sender, address(this), daiAmount) */\n      mload(0x40)\n      dup5\n      0xffffffff\n      and\n      0xe0\n      shl\n      dup2\n      mstore\n      0x04\n      add\n      tag_188\n      swap4\n      swap3\n      swap2\n      swap1\n      tag_189\n      jump\t// in\n    tag_188:\n      0x20\n      mload(0x40)\n      dup1\n      dup4\n      sub\n      dup2\n      0x00\n      dup8\n      dup1\n      extcodesize\n      iszero\n      dup1\n      iszero\n      tag_190\n      jumpi\n      0x00\n      dup1\n      revert\n    tag_190:\n      pop\n      gas\n      call\n      iszero\n      dup1\n      iszero\n      tag_192\n      jumpi\n      returndatasize\n      0x00\n      dup1\n      returndatacopy\n      revert(0x00, returndatasize)\n    tag_192:\n      pop\n      pop\n      pop\n      pop\n      mload(0x40)\n      returndatasize\n      not(0x1f)\n      0x1f\n      dup3\n      add\n      and\n      dup3\n      add\n      dup1\n      0x40\n      mstore\n      pop\n      dup2\n      add\n      swap1\n      tag_193\n      swap2\n      swap1\n      tag_143\n      jump\t// in\n    tag_193:\n      pop\n        /* \"contracts/RFT.sol\":2037:2067  _mint(msg.sender, shareAmount) */\n      tag_194\n        /* \"contracts/RFT.sol\":2043:2053  msg.sender */\n      caller\n        /* \"contracts/RFT.sol\":2055:2066  shareAmount */\n      dup4\n        /* \"contracts/RFT.sol\":2037:2042  _mint */\n      tag_149\n        /* \"contracts/RFT.sol\":2037:2067  _mint(msg.sender, shareAmount) */\n      jump\t// in\n    tag_194:\n        /* \"contracts/RFT.sol\":1681:2072  {... */\n      pop\n        /* \"contracts/RFT.sol\":1636:2072  function buyShare(uint shareAmount) external {... */\n      pop\n      jump\t// out\n        /* \"contracts/RFT.sol\":675:692  uint public nftId */\n    tag_98:\n      sload(0x08)\n      dup2\n      jump\t// out\n        /* \"@openzeppelin/contracts/token/ERC20/ERC20.sol\":3976:4125  function allowance(address owner, address spender) public view virtual override returns (uint256) {... */\n    tag_103:\n        /* \"@openzeppelin/contracts/token/ERC20/ERC20.sol\":4065:4072  uint256 */\n      0x00\n        /* \"@openzeppelin/contracts/token/ERC20/ERC20.sol\":4091:4102  _allowances */\n      0x01\n        /* \"@openzeppelin/contracts/token/ERC20/ERC20.sol\":4091:4109  _allowances[owner] */\n      0x00\n        /* \"@openzeppelin/contracts/token/ERC20/ERC20.sol\":4103:4108  owner */\n      dup5\n        /* \"@openzeppelin/contracts/token/ERC20/ERC20.sol\":4091:4109  _allowances[owner] */\n      0xffffffffffffffffffffffffffffffffffffffff\n      and\n      0xffffffffffffffffffffffffffffffffffffffff\n      and\n      dup2\n      mstore\n      0x20\n      add\n      swap1\n      dup2\n      mstore\n      0x20\n      add\n      0x00\n      keccak256\n        /* \"@openzeppelin/contracts/token/ERC20/ERC20.sol\":4091:4118  _allowances[owner][spender] */\n      0x00\n        /* \"@openzeppelin/contracts/token/ERC20/ERC20.sol\":4110:4117  spender */\n      dup4\n        /* \"@openzeppelin/contracts/token/ERC20/ERC20.sol\":4091:4118  _allowances[owner][spender] */\n      0xffffffffffffffffffffffffffffffffffffffff\n      and\n      0xffffffffffffffffffffffffffffffffffffffff\n      and\n      dup2\n      mstore\n      0x20\n      add\n      swap1\n      dup2\n      mstore\n      0x20\n      add\n      0x00\n      keccak256\n      sload\n        /* \"@openzeppelin/contracts/token/ERC20/ERC20.sol\":4084:4118  return _allowances[owner][spender] */\n      swap1\n      pop\n        /* \"@openzeppelin/contracts/token/ERC20/ERC20.sol\":3976:4125  function allowance(address owner, address spender) public view virtual override returns (uint256) {... */\n      swap3\n      swap2\n      pop\n      pop\n      jump\t// out\n        /* \"contracts/RFT.sol\":718:735  IERC20 public dai */\n    tag_106:\n      0x0a\n      0x00\n      swap1\n      sload\n      swap1\n      0x0100\n      exp\n      swap1\n      div\n      0xffffffffffffffffffffffffffffffffffffffff\n      and\n      dup2\n      jump\t// out\n        /* \"contracts/RFT.sol\":750:770  address public admin */\n    tag_110:\n      0x0b\n      0x00\n      swap1\n      sload\n      swap1\n      0x0100\n      exp\n      swap1\n      div\n      0xffffffffffffffffffffffffffffffffffffffff\n      and\n      dup2\n      jump\t// out\n        /* \"@openzeppelin/contracts/utils/Context.sol\":640:736  function _msgSender() internal view virtual returns (address) {... */\n    tag_122:\n        /* \"@openzeppelin/contracts/utils/Context.sol\":693:700  address */\n      0x00\n        /* \"@openzeppelin/contracts/utils/Context.sol\":719:729  msg.sender */\n      caller\n        /* \"@openzeppelin/contracts/utils/Context.sol\":712:729  return msg.sender */\n      swap1\n      pop\n        /* \"@openzeppelin/contracts/utils/Context.sol\":640:736  function _msgSender() internal view virtual returns (address) {... */\n      swap1\n      jump\t// out\n        /* \"@openzeppelin/contracts/token/ERC20/ERC20.sol\":10110:10480  function _approve(... */\n    tag_124:\n        /* \"@openzeppelin/contracts/token/ERC20/ERC20.sol\":10258:10259  0 */\n      0x00\n        /* \"@openzeppelin/contracts/token/ERC20/ERC20.sol\":10241:10260  owner != address(0) */\n      0xffffffffffffffffffffffffffffffffffffffff\n      and\n        /* \"@openzeppelin/contracts/token/ERC20/ERC20.sol\":10241:10246  owner */\n      dup4\n        /* \"@openzeppelin/contracts/token/ERC20/ERC20.sol\":10241:10260  owner != address(0) */\n      0xffffffffffffffffffffffffffffffffffffffff\n      and\n      eq\n      iszero\n        /* \"@openzeppelin/contracts/token/ERC20/ERC20.sol\":10233:10301  require(owner != address(0), \"ERC20: approve from the zero address\") */\n      tag_198\n      jumpi\n      mload(0x40)\n      0x08c379a000000000000000000000000000000000000000000000000000000000\n      dup2\n      mstore\n      0x04\n      add\n      tag_199\n      swap1\n      tag_200\n      jump\t// in\n    tag_199:\n      mload(0x40)\n      dup1\n      swap2\n      sub\n      swap1\n      revert\n    tag_198:\n        /* \"@openzeppelin/contracts/token/ERC20/ERC20.sol\":10338:10339  0 */\n      0x00\n        /* \"@openzeppelin/contracts/token/ERC20/ERC20.sol\":10319:10340  spender != address(0) */\n      0xffffffffffffffffffffffffffffffffffffffff\n      and\n        /* \"@openzeppelin/contracts/token/ERC20/ERC20.sol\":10319:10326  spender */\n      dup3\n        /* \"@openzeppelin/contracts/token/ERC20/ERC20.sol\":10319:10340  spender != address(0) */\n      0xffffffffffffffffffffffffffffffffffffffff\n      and\n      eq\n      iszero\n        /* \"@openzeppelin/contracts/token/ERC20/ERC20.sol\":10311:10379  require(spender != address(0), \"ERC20: approve to the zero address\") */\n      tag_201\n      jumpi\n      mload(0x40)\n      0x08c379a000000000000000000000000000000000000000000000000000000000\n      dup2\n      mstore\n      0x04\n      add\n      tag_202\n      swap1\n      tag_203\n      jump\t// in\n    tag_202:\n      mload(0x40)\n      dup1\n      swap2\n      sub\n      swap1\n      revert\n    tag_201:\n        /* \"@openzeppelin/contracts/token/ERC20/ERC20.sol\":10420:10426  amount */\n      dup1\n        /* \"@openzeppelin/contracts/token/ERC20/ERC20.sol\":10390:10401  _allowances */\n      0x01\n        /* \"@openzeppelin/contracts/token/ERC20/ERC20.sol\":10390:10408  _allowances[owner] */\n      0x00\n        /* \"@openzeppelin/contracts/token/ERC20/ERC20.sol\":10402:10407  owner */\n      dup6\n        /* \"@openzeppelin/contracts/token/ERC20/ERC20.sol\":10390:10408  _allowances[owner] */\n      0xffffffffffffffffffffffffffffffffffffffff\n      and\n      0xffffffffffffffffffffffffffffffffffffffff\n      and\n      dup2\n      mstore\n      0x20\n      add\n      swap1\n      dup2\n      mstore\n      0x20\n      add\n      0x00\n      keccak256\n        /* \"@openzeppelin/contracts/token/ERC20/ERC20.sol\":10390:10417  _allowances[owner][spender] */\n      0x00\n        /* \"@openzeppelin/contracts/token/ERC20/ERC20.sol\":10409:10416  spender */\n      dup5\n        /* \"@openzeppelin/contracts/token/ERC20/ERC20.sol\":10390:10417  _allowances[owner][spender] */\n      0xffffffffffffffffffffffffffffffffffffffff\n      and\n      0xffffffffffffffffffffffffffffffffffffffff\n      and\n      dup2\n      mstore\n      0x20\n      add\n      swap1\n      dup2\n      mstore\n      0x20\n      add\n      0x00\n      keccak256\n        /* \"@openzeppelin/contracts/token/ERC20/ERC20.sol\":10390:10426  _allowances[owner][spender] = amount */\n      dup2\n      swap1\n      sstore\n      pop\n        /* \"@openzeppelin/contracts/token/ERC20/ERC20.sol\":10457:10464  spender */\n      dup2\n        /* \"@openzeppelin/contracts/token/ERC20/ERC20.sol\":10441:10473  Approval(owner, spender, amount) */\n      0xffffffffffffffffffffffffffffffffffffffff\n      and\n        /* \"@openzeppelin/contracts/token/ERC20/ERC20.sol\":10450:10455  owner */\n      dup4\n        /* \"@openzeppelin/contracts/token/ERC20/ERC20.sol\":10441:10473  Approval(owner, spender, amount) */\n      0xffffffffffffffffffffffffffffffffffffffff\n      and\n      0x8c5be1e5ebec7d5bd14f71427d1e84f3dd0314c0f7b2291e5b200ac8c7c3b925\n        /* \"@openzeppelin/contracts/token/ERC20/ERC20.sol\":10466:10472  amount */\n      dup4\n        /* \"@openzeppelin/contracts/token/ERC20/ERC20.sol\":10441:10473  Approval(owner, spender, amount) */\n      mload(0x40)\n      tag_204\n      swap2\n      swap1\n      tag_41\n      jump\t// in\n    tag_204:\n      mload(0x40)\n      dup1\n      swap2\n      sub\n      swap1\n      log3\n        /* \"@openzeppelin/contracts/token/ERC20/ERC20.sol\":10110:10480  function _approve(... */\n      pop\n      pop\n      pop\n      jump\t// out\n        /* \"@openzeppelin/contracts/token/ERC20/ERC20.sol\":8402:8791  function _mint(address account, uint256 amount) internal virtual {... */\n    tag_149:\n        /* \"@openzeppelin/contracts/token/ERC20/ERC20.sol\":8504:8505  0 */\n      0x00\n        /* \"@openzeppelin/contracts/token/ERC20/ERC20.sol\":8485:8506  account != address(0) */\n      0xffffffffffffffffffffffffffffffffffffffff\n      and\n        /* \"@openzeppelin/contracts/token/ERC20/ERC20.sol\":8485:8492  account */\n      dup3\n        /* \"@openzeppelin/contracts/token/ERC20/ERC20.sol\":8485:8506  account != address(0) */\n      0xffffffffffffffffffffffffffffffffffffffff\n      and\n      eq\n      iszero\n        /* \"@openzeppelin/contracts/token/ERC20/ERC20.sol\":8477:8542  require(account != address(0), \"ERC20: mint to the zero address\") */\n      tag_206\n      jumpi\n      mload(0x40)\n      0x08c379a000000000000000000000000000000000000000000000000000000000\n      dup2\n      mstore\n      0x04\n      add\n      tag_207\n      swap1\n      tag_208\n      jump\t// in\n    tag_207:\n      mload(0x40)\n      dup1\n      swap2\n      sub\n      swap1\n      revert\n    tag_206:\n        /* \"@openzeppelin/contracts/token/ERC20/ERC20.sol\":8553:8602  _beforeTokenTransfer(address(0), account, amount) */\n      tag_209\n        /* \"@openzeppelin/contracts/token/ERC20/ERC20.sol\":8582:8583  0 */\n      0x00\n        /* \"@openzeppelin/contracts/token/ERC20/ERC20.sol\":8586:8593  account */\n      dup4\n        /* \"@openzeppelin/contracts/token/ERC20/ERC20.sol\":8595:8601  amount */\n      dup4\n        /* \"@openzeppelin/contracts/token/ERC20/ERC20.sol\":8553:8573  _beforeTokenTransfer */\n      tag_210\n        /* \"@openzeppelin/contracts/token/ERC20/ERC20.sol\":8553:8602  _beforeTokenTransfer(address(0), account, amount) */\n      jump\t// in\n    tag_209:\n        /* \"@openzeppelin/contracts/token/ERC20/ERC20.sol\":8629:8635  amount */\n      dup1\n        /* \"@openzeppelin/contracts/token/ERC20/ERC20.sol\":8613:8625  _totalSupply */\n      0x02\n      0x00\n        /* \"@openzeppelin/contracts/token/ERC20/ERC20.sol\":8613:8635  _totalSupply += amount */\n      dup3\n      dup3\n      sload\n      tag_211\n      swap2\n      swap1\n      tag_162\n      jump\t// in\n    tag_211:\n      swap3\n      pop\n      pop\n      dup2\n      swap1\n      sstore\n      pop\n        /* \"@openzeppelin/contracts/token/ERC20/ERC20.sol\":8667:8673  amount */\n      dup1\n        /* \"@openzeppelin/contracts/token/ERC20/ERC20.sol\":8645:8654  _balances */\n      0x00\n        /* \"@openzeppelin/contracts/token/ERC20/ERC20.sol\":8645:8663  _balances[account] */\n      dup1\n        /* \"@openzeppelin/contracts/token/ERC20/ERC20.sol\":8655:8662  account */\n      dup5\n        /* \"@openzeppelin/contracts/token/ERC20/ERC20.sol\":8645:8663  _balances[account] */\n      0xffffffffffffffffffffffffffffffffffffffff\n      and\n      0xffffffffffffffffffffffffffffffffffffffff\n      and\n      dup2\n      mstore\n      0x20\n      add\n      swap1\n      dup2\n      mstore\n      0x20\n      add\n      0x00\n      keccak256\n      0x00\n        /* \"@openzeppelin/contracts/token/ERC20/ERC20.sol\":8645:8673  _balances[account] += amount */\n      dup3\n      dup3\n      sload\n      tag_212\n      swap2\n      swap1\n      tag_162\n      jump\t// in\n    tag_212:\n      swap3\n      pop\n      pop\n      dup2\n      swap1\n      sstore\n      pop\n        /* \"@openzeppelin/contracts/token/ERC20/ERC20.sol\":8709:8716  account */\n      dup2\n        /* \"@openzeppelin/contracts/token/ERC20/ERC20.sol\":8688:8725  Transfer(address(0), account, amount) */\n      0xffffffffffffffffffffffffffffffffffffffff\n      and\n        /* \"@openzeppelin/contracts/token/ERC20/ERC20.sol\":8705:8706  0 */\n      0x00\n        /* \"@openzeppelin/contracts/token/ERC20/ERC20.sol\":8688:8725  Transfer(address(0), account, amount) */\n      0xffffffffffffffffffffffffffffffffffffffff\n      and\n      0xddf252ad1be2c89b69c2b068fc378daa952ba7f163c4a11628f55a4df523b3ef\n        /* \"@openzeppelin/contracts/token/ERC20/ERC20.sol\":8718:8724  amount */\n      dup4\n        /* \"@openzeppelin/contracts/token/ERC20/ERC20.sol\":8688:8725  Transfer(address(0), account, amount) */\n      mload(0x40)\n      tag_213\n      swap2\n      swap1\n      tag_41\n      jump\t// in\n    tag_213:\n      mload(0x40)\n      dup1\n      swap2\n      sub\n      swap1\n      log3\n        /* \"@openzeppelin/contracts/token/ERC20/ERC20.sol\":8736:8784  _afterTokenTransfer(address(0), account, amount) */\n      tag_214\n        /* \"@openzeppelin/contracts/token/ERC20/ERC20.sol\":8764:8765  0 */\n      0x00\n        /* \"@openzeppelin/contracts/token/ERC20/ERC20.sol\":8768:8775  account */\n      dup4\n        /* \"@openzeppelin/contracts/token/ERC20/ERC20.sol\":8777:8783  amount */\n      dup4\n        /* \"@openzeppelin/contracts/token/ERC20/ERC20.sol\":8736:8755  _afterTokenTransfer */\n      tag_215\n        /* \"@openzeppelin/contracts/token/ERC20/ERC20.sol\":8736:8784  _afterTokenTransfer(address(0), account, amount) */\n      jump\t// in\n    tag_214:\n        /* \"@openzeppelin/contracts/token/ERC20/ERC20.sol\":8402:8791  function _mint(address account, uint256 amount) internal virtual {... */\n      pop\n      pop\n      jump\t// out\n        /* \"@openzeppelin/contracts/token/ERC20/ERC20.sol\":10761:11202  function _spendAllowance(... */\n    tag_153:\n        /* \"@openzeppelin/contracts/token/ERC20/ERC20.sol\":10891:10915  uint256 currentAllowance */\n      0x00\n        /* \"@openzeppelin/contracts/token/ERC20/ERC20.sol\":10918:10943  allowance(owner, spender) */\n      tag_217\n        /* \"@openzeppelin/contracts/token/ERC20/ERC20.sol\":10928:10933  owner */\n      dup5\n        /* \"@openzeppelin/contracts/token/ERC20/ERC20.sol\":10935:10942  spender */\n      dup5\n        /* \"@openzeppelin/contracts/token/ERC20/ERC20.sol\":10918:10927  allowance */\n      tag_103\n        /* \"@openzeppelin/contracts/token/ERC20/ERC20.sol\":10918:10943  allowance(owner, spender) */\n      jump\t// in\n    tag_217:\n        /* \"@openzeppelin/contracts/token/ERC20/ERC20.sol\":10891:10943  uint256 currentAllowance = allowance(owner, spender) */\n      swap1\n      pop\n        /* \"@openzeppelin/contracts/token/ERC20/ERC20.sol\":10977:10994  type(uint256).max */\n      0xffffffffffffffffffffffffffffffffffffffffffffffffffffffffffffffff\n        /* \"@openzeppelin/contracts/token/ERC20/ERC20.sol\":10957:10973  currentAllowance */\n      dup2\n        /* \"@openzeppelin/contracts/token/ERC20/ERC20.sol\":10957:10994  currentAllowance != type(uint256).max */\n      eq\n        /* \"@openzeppelin/contracts/token/ERC20/ERC20.sol\":10953:11196  if (currentAllowance != type(uint256).max) {... */\n      tag_218\n      jumpi\n        /* \"@openzeppelin/contracts/token/ERC20/ERC20.sol\":11038:11044  amount */\n      dup2\n        /* \"@openzeppelin/contracts/token/ERC20/ERC20.sol\":11018:11034  currentAllowance */\n      dup2\n        /* \"@openzeppelin/contracts/token/ERC20/ERC20.sol\":11018:11044  currentAllowance >= amount */\n      lt\n      iszero\n        /* \"@openzeppelin/contracts/token/ERC20/ERC20.sol\":11010:11078  require(currentAllowance >= amount, \"ERC20: insufficient allowance\") */\n      tag_219\n      jumpi\n      mload(0x40)\n      0x08c379a000000000000000000000000000000000000000000000000000000000\n      dup2\n      mstore\n      0x04\n      add\n      tag_220\n      swap1\n      tag_221\n      jump\t// in\n    tag_220:\n      mload(0x40)\n      dup1\n      swap2\n      sub\n      swap1\n      revert\n    tag_219:\n        /* \"@openzeppelin/contracts/token/ERC20/ERC20.sol\":11120:11171  _approve(owner, spender, currentAllowance - amount) */\n      tag_222\n        /* \"@openzeppelin/contracts/token/ERC20/ERC20.sol\":11129:11134  owner */\n      dup5\n        /* \"@openzeppelin/contracts/token/ERC20/ERC20.sol\":11136:11143  spender */\n      dup5\n        /* \"@openzeppelin/contracts/token/ERC20/ERC20.sol\":11164:11170  amount */\n      dup5\n        /* \"@openzeppelin/contracts/token/ERC20/ERC20.sol\":11145:11161  currentAllowance */\n      dup5\n        /* \"@openzeppelin/contracts/token/ERC20/ERC20.sol\":11145:11170  currentAllowance - amount */\n      sub\n        /* \"@openzeppelin/contracts/token/ERC20/ERC20.sol\":11120:11128  _approve */\n      tag_124\n        /* \"@openzeppelin/contracts/token/ERC20/ERC20.sol\":11120:11171  _approve(owner, spender, currentAllowance - amount) */\n      jump\t// in\n    tag_222:\n        /* \"@openzeppelin/contracts/token/ERC20/ERC20.sol\":10953:11196  if (currentAllowance != type(uint256).max) {... */\n    tag_218:\n        /* \"@openzeppelin/contracts/token/ERC20/ERC20.sol\":10881:11202  {... */\n      pop\n        /* \"@openzeppelin/contracts/token/ERC20/ERC20.sol\":10761:11202  function _spendAllowance(... */\n      pop\n      pop\n      pop\n      jump\t// out\n        /* \"@openzeppelin/contracts/token/ERC20/ERC20.sol\":7475:8126  function _transfer(... */\n    tag_155:\n        /* \"@openzeppelin/contracts/token/ERC20/ERC20.sol\":7617:7618  0 */\n      0x00\n        /* \"@openzeppelin/contracts/token/ERC20/ERC20.sol\":7601:7619  from != address(0) */\n      0xffffffffffffffffffffffffffffffffffffffff\n      and\n        /* \"@openzeppelin/contracts/token/ERC20/ERC20.sol\":7601:7605  from */\n      dup4\n        /* \"@openzeppelin/contracts/token/ERC20/ERC20.sol\":7601:7619  from != address(0) */\n      0xffffffffffffffffffffffffffffffffffffffff\n      and\n      eq\n      iszero\n        /* \"@openzeppelin/contracts/token/ERC20/ERC20.sol\":7593:7661  require(from != address(0), \"ERC20: transfer from the zero address\") */\n      tag_224\n      jumpi\n      mload(0x40)\n      0x08c379a000000000000000000000000000000000000000000000000000000000\n      dup2\n      mstore\n      0x04\n      add\n      tag_225\n      swap1\n      tag_226\n      jump\t// in\n    tag_225:\n      mload(0x40)\n      dup1\n      swap2\n      sub\n      swap1\n      revert\n    tag_224:\n        /* \"@openzeppelin/contracts/token/ERC20/ERC20.sol\":7693:7694  0 */\n      0x00\n        /* \"@openzeppelin/contracts/token/ERC20/ERC20.sol\":7679:7695  to != address(0) */\n      0xffffffffffffffffffffffffffffffffffffffff\n      and\n        /* \"@openzeppelin/contracts/token/ERC20/ERC20.sol\":7679:7681  to */\n      dup3\n        /* \"@openzeppelin/contracts/token/ERC20/ERC20.sol\":7679:7695  to != address(0) */\n      0xffffffffffffffffffffffffffffffffffffffff\n      and\n      eq\n      iszero\n        /* \"@openzeppelin/contracts/token/ERC20/ERC20.sol\":7671:7735  require(to != address(0), \"ERC20: transfer to the zero address\") */\n      tag_227\n      jumpi\n      mload(0x40)\n      0x08c379a000000000000000000000000000000000000000000000000000000000\n      dup2\n      mstore\n      0x04\n      add\n      tag_228\n      swap1\n      tag_229\n      jump\t// in\n    tag_228:\n      mload(0x40)\n      dup1\n      swap2\n      sub\n      swap1\n      revert\n    tag_227:\n        /* \"@openzeppelin/contracts/token/ERC20/ERC20.sol\":7746:7784  _beforeTokenTransfer(from, to, amount) */\n      tag_230\n        /* \"@openzeppelin/contracts/token/ERC20/ERC20.sol\":7767:7771  from */\n      dup4\n        /* \"@openzeppelin/contracts/token/ERC20/ERC20.sol\":7773:7775  to */\n      dup4\n        /* \"@openzeppelin/contracts/token/ERC20/ERC20.sol\":7777:7783  amount */\n      dup4\n        /* \"@openzeppelin/contracts/token/ERC20/ERC20.sol\":7746:7766  _beforeTokenTransfer */\n      tag_210\n        /* \"@openzeppelin/contracts/token/ERC20/ERC20.sol\":7746:7784  _beforeTokenTransfer(from, to, amount) */\n      jump\t// in\n    tag_230:\n        /* \"@openzeppelin/contracts/token/ERC20/ERC20.sol\":7795:7814  uint256 fromBalance */\n      0x00\n        /* \"@openzeppelin/contracts/token/ERC20/ERC20.sol\":7817:7826  _balances */\n      dup1\n        /* \"@openzeppelin/contracts/token/ERC20/ERC20.sol\":7817:7832  _balances[from] */\n      0x00\n        /* \"@openzeppelin/contracts/token/ERC20/ERC20.sol\":7827:7831  from */\n      dup6\n        /* \"@openzeppelin/contracts/token/ERC20/ERC20.sol\":7817:7832  _balances[from] */\n      0xffffffffffffffffffffffffffffffffffffffff\n      and\n      0xffffffffffffffffffffffffffffffffffffffff\n      and\n      dup2\n      mstore\n      0x20\n      add\n      swap1\n      dup2\n      mstore\n      0x20\n      add\n      0x00\n      keccak256\n      sload\n        /* \"@openzeppelin/contracts/token/ERC20/ERC20.sol\":7795:7832  uint256 fromBalance = _balances[from] */\n      swap1\n      pop\n        /* \"@openzeppelin/contracts/token/ERC20/ERC20.sol\":7865:7871  amount */\n      dup2\n        /* \"@openzeppelin/contracts/token/ERC20/ERC20.sol\":7850:7861  fromBalance */\n      dup2\n        /* \"@openzeppelin/contracts/token/ERC20/ERC20.sol\":7850:7871  fromBalance >= amount */\n      lt\n      iszero\n        /* \"@openzeppelin/contracts/token/ERC20/ERC20.sol\":7842:7914  require(fromBalance >= amount, \"ERC20: transfer amount exceeds balance\") */\n      tag_231\n      jumpi\n      mload(0x40)\n      0x08c379a000000000000000000000000000000000000000000000000000000000\n      dup2\n      mstore\n      0x04\n      add\n      tag_232\n      swap1\n      tag_233\n      jump\t// in\n    tag_232:\n      mload(0x40)\n      dup1\n      swap2\n      sub\n      swap1\n      revert\n    tag_231:\n        /* \"@openzeppelin/contracts/token/ERC20/ERC20.sol\":7980:7986  amount */\n      dup2\n        /* \"@openzeppelin/contracts/token/ERC20/ERC20.sol\":7966:7977  fromBalance */\n      dup2\n        /* \"@openzeppelin/contracts/token/ERC20/ERC20.sol\":7966:7986  fromBalance - amount */\n      sub\n        /* \"@openzeppelin/contracts/token/ERC20/ERC20.sol\":7948:7957  _balances */\n      0x00\n        /* \"@openzeppelin/contracts/token/ERC20/ERC20.sol\":7948:7963  _balances[from] */\n      dup1\n        /* \"@openzeppelin/contracts/token/ERC20/ERC20.sol\":7958:7962  from */\n      dup7\n        /* \"@openzeppelin/contracts/token/ERC20/ERC20.sol\":7948:7963  _balances[from] */\n      0xffffffffffffffffffffffffffffffffffffffff\n      and\n      0xffffffffffffffffffffffffffffffffffffffff\n      and\n      dup2\n      mstore\n      0x20\n      add\n      swap1\n      dup2\n      mstore\n      0x20\n      add\n      0x00\n      keccak256\n        /* \"@openzeppelin/contracts/token/ERC20/ERC20.sol\":7948:7986  _balances[from] = fromBalance - amount */\n      dup2\n      swap1\n      sstore\n      pop\n        /* \"@openzeppelin/contracts/token/ERC20/ERC20.sol\":8023:8029  amount */\n      dup2\n        /* \"@openzeppelin/contracts/token/ERC20/ERC20.sol\":8006:8015  _balances */\n      0x00\n        /* \"@openzeppelin/contracts/token/ERC20/ERC20.sol\":8006:8019  _balances[to] */\n      dup1\n        /* \"@openzeppelin/contracts/token/ERC20/ERC20.sol\":8016:8018  to */\n      dup6\n        /* \"@openzeppelin/contracts/token/ERC20/ERC20.sol\":8006:8019  _balances[to] */\n      0xffffffffffffffffffffffffffffffffffffffff\n      and\n      0xffffffffffffffffffffffffffffffffffffffff\n      and\n      dup2\n      mstore\n      0x20\n      add\n      swap1\n      dup2\n      mstore\n      0x20\n      add\n      0x00\n      keccak256\n      0x00\n        /* \"@openzeppelin/contracts/token/ERC20/ERC20.sol\":8006:8029  _balances[to] += amount */\n      dup3\n      dup3\n      sload\n      tag_234\n      swap2\n      swap1\n      tag_162\n      jump\t// in\n    tag_234:\n      swap3\n      pop\n      pop\n      dup2\n      swap1\n      sstore\n      pop\n        /* \"@openzeppelin/contracts/token/ERC20/ERC20.sol\":8060:8062  to */\n      dup3\n        /* \"@openzeppelin/contracts/token/ERC20/ERC20.sol\":8045:8071  Transfer(from, to, amount) */\n      0xffffffffffffffffffffffffffffffffffffffff\n      and\n        /* \"@openzeppelin/contracts/token/ERC20/ERC20.sol\":8054:8058  from */\n      dup5\n        /* \"@openzeppelin/contracts/token/ERC20/ERC20.sol\":8045:8071  Transfer(from, to, amount) */\n      0xffffffffffffffffffffffffffffffffffffffff\n      and\n      0xddf252ad1be2c89b69c2b068fc378daa952ba7f163c4a11628f55a4df523b3ef\n        /* \"@openzeppelin/contracts/token/ERC20/ERC20.sol\":8064:8070  amount */\n      dup5\n        /* \"@openzeppelin/contracts/token/ERC20/ERC20.sol\":8045:8071  Transfer(from, to, amount) */\n      mload(0x40)\n      tag_235\n      swap2\n      swap1\n      tag_41\n      jump\t// in\n    tag_235:\n      mload(0x40)\n      dup1\n      swap2\n      sub\n      swap1\n      log3\n        /* \"@openzeppelin/contracts/token/ERC20/ERC20.sol\":8082:8119  _afterTokenTransfer(from, to, amount) */\n      tag_236\n        /* \"@openzeppelin/contracts/token/ERC20/ERC20.sol\":8102:8106  from */\n      dup5\n        /* \"@openzeppelin/contracts/token/ERC20/ERC20.sol\":8108:8110  to */\n      dup5\n        /* \"@openzeppelin/contracts/token/ERC20/ERC20.sol\":8112:8118  amount */\n      dup5\n        /* \"@openzeppelin/contracts/token/ERC20/ERC20.sol\":8082:8101  _afterTokenTransfer */\n      tag_215\n        /* \"@openzeppelin/contracts/token/ERC20/ERC20.sol\":8082:8119  _afterTokenTransfer(from, to, amount) */\n      jump\t// in\n    tag_236:\n        /* \"@openzeppelin/contracts/token/ERC20/ERC20.sol\":7583:8126  {... */\n      pop\n        /* \"@openzeppelin/contracts/token/ERC20/ERC20.sol\":7475:8126  function _transfer(... */\n      pop\n      pop\n      pop\n      jump\t// out\n        /* \"@openzeppelin/contracts/token/ERC20/ERC20.sol\":11786:11907  function _beforeTokenTransfer(... */\n    tag_210:\n      pop\n      pop\n      pop\n      jump\t// out\n        /* \"@openzeppelin/contracts/token/ERC20/ERC20.sol\":12495:12615  function _afterTokenTransfer(... */\n    tag_215:\n      pop\n      pop\n      pop\n      jump\t// out\n        /* \"#utility.yul\":7:146   */\n    tag_240:\n        /* \"#utility.yul\":53:58   */\n      0x00\n        /* \"#utility.yul\":91:97   */\n      dup2\n        /* \"#utility.yul\":78:98   */\n      calldataload\n        /* \"#utility.yul\":69:98   */\n      swap1\n      pop\n        /* \"#utility.yul\":107:140   */\n      tag_242\n        /* \"#utility.yul\":134:139   */\n      dup2\n        /* \"#utility.yul\":107:140   */\n      tag_243\n      jump\t// in\n    tag_242:\n        /* \"#utility.yul\":7:146   */\n      swap3\n      swap2\n      pop\n      pop\n      jump\t// out\n        /* \"#utility.yul\":152:289   */\n    tag_244:\n        /* \"#utility.yul\":206:211   */\n      0x00\n        /* \"#utility.yul\":237:243   */\n      dup2\n        /* \"#utility.yul\":231:244   */\n      mload\n        /* \"#utility.yul\":222:244   */\n      swap1\n      pop\n        /* \"#utility.yul\":253:283   */\n      tag_246\n        /* \"#utility.yul\":277:282   */\n      dup2\n        /* \"#utility.yul\":253:283   */\n      tag_247\n      jump\t// in\n    tag_246:\n        /* \"#utility.yul\":152:289   */\n      swap3\n      swap2\n      pop\n      pop\n      jump\t// out\n        /* \"#utility.yul\":295:434   */\n    tag_248:\n        /* \"#utility.yul\":341:346   */\n      0x00\n        /* \"#utility.yul\":379:385   */\n      dup2\n        /* \"#utility.yul\":366:386   */\n      calldataload\n        /* \"#utility.yul\":357:386   */\n      swap1\n      pop\n        /* \"#utility.yul\":395:428   */\n      tag_250\n        /* \"#utility.yul\":422:427   */\n      dup2\n        /* \"#utility.yul\":395:428   */\n      tag_251\n      jump\t// in\n    tag_250:\n        /* \"#utility.yul\":295:434   */\n      swap3\n      swap2\n      pop\n      pop\n      jump\t// out\n        /* \"#utility.yul\":440:583   */\n    tag_252:\n        /* \"#utility.yul\":497:502   */\n      0x00\n        /* \"#utility.yul\":528:534   */\n      dup2\n        /* \"#utility.yul\":522:535   */\n      mload\n        /* \"#utility.yul\":513:535   */\n      swap1\n      pop\n        /* \"#utility.yul\":544:577   */\n      tag_254\n        /* \"#utility.yul\":571:576   */\n      dup2\n        /* \"#utility.yul\":544:577   */\n      tag_251\n      jump\t// in\n    tag_254:\n        /* \"#utility.yul\":440:583   */\n      swap3\n      swap2\n      pop\n      pop\n      jump\t// out\n        /* \"#utility.yul\":589:918   */\n    tag_59:\n        /* \"#utility.yul\":648:654   */\n      0x00\n        /* \"#utility.yul\":697:699   */\n      0x20\n        /* \"#utility.yul\":685:694   */\n      dup3\n        /* \"#utility.yul\":676:683   */\n      dup5\n        /* \"#utility.yul\":672:695   */\n      sub\n        /* \"#utility.yul\":668:700   */\n      slt\n        /* \"#utility.yul\":665:784   */\n      iszero\n      tag_256\n      jumpi\n        /* \"#utility.yul\":703:782   */\n      tag_257\n      tag_258\n      jump\t// in\n    tag_257:\n        /* \"#utility.yul\":665:784   */\n    tag_256:\n        /* \"#utility.yul\":823:824   */\n      0x00\n        /* \"#utility.yul\":848:901   */\n      tag_259\n        /* \"#utility.yul\":893:900   */\n      dup5\n        /* \"#utility.yul\":884:890   */\n      dup3\n        /* \"#utility.yul\":873:882   */\n      dup6\n        /* \"#utility.yul\":869:891   */\n      add\n        /* \"#utility.yul\":848:901   */\n      tag_240\n      jump\t// in\n    tag_259:\n        /* \"#utility.yul\":838:901   */\n      swap2\n      pop\n        /* \"#utility.yul\":794:911   */\n      pop\n        /* \"#utility.yul\":589:918   */\n      swap3\n      swap2\n      pop\n      pop\n      jump\t// out\n        /* \"#utility.yul\":924:1398   */\n    tag_102:\n        /* \"#utility.yul\":992:998   */\n      0x00\n        /* \"#utility.yul\":1000:1006   */\n      dup1\n        /* \"#utility.yul\":1049:1051   */\n      0x40\n        /* \"#utility.yul\":1037:1046   */\n      dup4\n        /* \"#utility.yul\":1028:1035   */\n      dup6\n        /* \"#utility.yul\":1024:1047   */\n      sub\n        /* \"#utility.yul\":1020:1052   */\n      slt\n        /* \"#utility.yul\":1017:1136   */\n      iszero\n      tag_261\n      jumpi\n        /* \"#utility.yul\":1055:1134   */\n      tag_262\n      tag_258\n      jump\t// in\n    tag_262:\n        /* \"#utility.yul\":1017:1136   */\n    tag_261:\n        /* \"#utility.yul\":1175:1176   */\n      0x00\n        /* \"#utility.yul\":1200:1253   */\n      tag_263\n        /* \"#utility.yul\":1245:1252   */\n      dup6\n        /* \"#utility.yul\":1236:1242   */\n      dup3\n        /* \"#utility.yul\":1225:1234   */\n      dup7\n        /* \"#utility.yul\":1221:1243   */\n      add\n        /* \"#utility.yul\":1200:1253   */\n      tag_240\n      jump\t// in\n    tag_263:\n        /* \"#utility.yul\":1190:1253   */\n      swap3\n      pop\n        /* \"#utility.yul\":1146:1263   */\n      pop\n        /* \"#utility.yul\":1302:1304   */\n      0x20\n        /* \"#utility.yul\":1328:1381   */\n      tag_264\n        /* \"#utility.yul\":1373:1380   */\n      dup6\n        /* \"#utility.yul\":1364:1370   */\n      dup3\n        /* \"#utility.yul\":1353:1362   */\n      dup7\n        /* \"#utility.yul\":1349:1371   */\n      add\n        /* \"#utility.yul\":1328:1381   */\n      tag_240\n      jump\t// in\n    tag_264:\n        /* \"#utility.yul\":1318:1381   */\n      swap2\n      pop\n        /* \"#utility.yul\":1273:1391   */\n      pop\n        /* \"#utility.yul\":924:1398   */\n      swap3\n      pop\n      swap3\n      swap1\n      pop\n      jump\t// out\n        /* \"#utility.yul\":1404:2023   */\n    tag_46:\n        /* \"#utility.yul\":1481:1487   */\n      0x00\n        /* \"#utility.yul\":1489:1495   */\n      dup1\n        /* \"#utility.yul\":1497:1503   */\n      0x00\n        /* \"#utility.yul\":1546:1548   */\n      0x60\n        /* \"#utility.yul\":1534:1543   */\n      dup5\n        /* \"#utility.yul\":1525:1532   */\n      dup7\n        /* \"#utility.yul\":1521:1544   */\n      sub\n        /* \"#utility.yul\":1517:1549   */\n      slt\n        /* \"#utility.yul\":1514:1633   */\n      iszero\n      tag_266\n      jumpi\n        /* \"#utility.yul\":1552:1631   */\n      tag_267\n      tag_258\n      jump\t// in\n    tag_267:\n        /* \"#utility.yul\":1514:1633   */\n    tag_266:\n        /* \"#utility.yul\":1672:1673   */\n      0x00\n        /* \"#utility.yul\":1697:1750   */\n      tag_268\n        /* \"#utility.yul\":1742:1749   */\n      dup7\n        /* \"#utility.yul\":1733:1739   */\n      dup3\n        /* \"#utility.yul\":1722:1731   */\n      dup8\n        /* \"#utility.yul\":1718:1740   */\n      add\n        /* \"#utility.yul\":1697:1750   */\n      tag_240\n      jump\t// in\n    tag_268:\n        /* \"#utility.yul\":1687:1750   */\n      swap4\n      pop\n        /* \"#utility.yul\":1643:1760   */\n      pop\n        /* \"#utility.yul\":1799:1801   */\n      0x20\n        /* \"#utility.yul\":1825:1878   */\n      tag_269\n        /* \"#utility.yul\":1870:1877   */\n      dup7\n        /* \"#utility.yul\":1861:1867   */\n      dup3\n        /* \"#utility.yul\":1850:1859   */\n      dup8\n        /* \"#utility.yul\":1846:1868   */\n      add\n        /* \"#utility.yul\":1825:1878   */\n      tag_240\n      jump\t// in\n    tag_269:\n        /* \"#utility.yul\":1815:1878   */\n      swap3\n      pop\n        /* \"#utility.yul\":1770:1888   */\n      pop\n        /* \"#utility.yul\":1927:1929   */\n      0x40\n        /* \"#utility.yul\":1953:2006   */\n      tag_270\n        /* \"#utility.yul\":1998:2005   */\n      dup7\n        /* \"#utility.yul\":1989:1995   */\n      dup3\n        /* \"#utility.yul\":1978:1987   */\n      dup8\n        /* \"#utility.yul\":1974:1996   */\n      add\n        /* \"#utility.yul\":1953:2006   */\n      tag_248\n      jump\t// in\n    tag_270:\n        /* \"#utility.yul\":1943:2006   */\n      swap2\n      pop\n        /* \"#utility.yul\":1898:2016   */\n      pop\n        /* \"#utility.yul\":1404:2023   */\n      swap3\n      pop\n      swap3\n      pop\n      swap3\n      jump\t// out\n        /* \"#utility.yul\":2029:2503   */\n    tag_34:\n        /* \"#utility.yul\":2097:2103   */\n      0x00\n        /* \"#utility.yul\":2105:2111   */\n      dup1\n        /* \"#utility.yul\":2154:2156   */\n      0x40\n        /* \"#utility.yul\":2142:2151   */\n      dup4\n        /* \"#utility.yul\":2133:2140   */\n      dup6\n        /* \"#utility.yul\":2129:2152   */\n      sub\n        /* \"#utility.yul\":2125:2157   */\n      slt\n        /* \"#utility.yul\":2122:2241   */\n      iszero\n      tag_272\n      jumpi\n        /* \"#utility.yul\":2160:2239   */\n      tag_273\n      tag_258\n      jump\t// in\n    tag_273:\n        /* \"#utility.yul\":2122:2241   */\n    tag_272:\n        /* \"#utility.yul\":2280:2281   */\n      0x00\n        /* \"#utility.yul\":2305:2358   */\n      tag_274\n        /* \"#utility.yul\":2350:2357   */\n      dup6\n        /* \"#utility.yul\":2341:2347   */\n      dup3\n        /* \"#utility.yul\":2330:2339   */\n      dup7\n        /* \"#utility.yul\":2326:2348   */\n      add\n        /* \"#utility.yul\":2305:2358   */\n      tag_240\n      jump\t// in\n    tag_274:\n        /* \"#utility.yul\":2295:2358   */\n      swap3\n      pop\n        /* \"#utility.yul\":2251:2368   */\n      pop\n        /* \"#utility.yul\":2407:2409   */\n      0x20\n        /* \"#utility.yul\":2433:2486   */\n      tag_275\n        /* \"#utility.yul\":2478:2485   */\n      dup6\n        /* \"#utility.yul\":2469:2475   */\n      dup3\n        /* \"#utility.yul\":2458:2467   */\n      dup7\n        /* \"#utility.yul\":2454:2476   */\n      add\n        /* \"#utility.yul\":2433:2486   */\n      tag_248\n      jump\t// in\n    tag_275:\n        /* \"#utility.yul\":2423:2486   */\n      swap2\n      pop\n        /* \"#utility.yul\":2378:2496   */\n      pop\n        /* \"#utility.yul\":2029:2503   */\n      swap3\n      pop\n      swap3\n      swap1\n      pop\n      jump\t// out\n        /* \"#utility.yul\":2509:2854   */\n    tag_143:\n        /* \"#utility.yul\":2576:2582   */\n      0x00\n        /* \"#utility.yul\":2625:2627   */\n      0x20\n        /* \"#utility.yul\":2613:2622   */\n      dup3\n        /* \"#utility.yul\":2604:2611   */\n      dup5\n        /* \"#utility.yul\":2600:2623   */\n      sub\n        /* \"#utility.yul\":2596:2628   */\n      slt\n        /* \"#utility.yul\":2593:2712   */\n      iszero\n      tag_277\n      jumpi\n        /* \"#utility.yul\":2631:2710   */\n      tag_278\n      tag_258\n      jump\t// in\n    tag_278:\n        /* \"#utility.yul\":2593:2712   */\n    tag_277:\n        /* \"#utility.yul\":2751:2752   */\n      0x00\n        /* \"#utility.yul\":2776:2837   */\n      tag_279\n        /* \"#utility.yul\":2829:2836   */\n      dup5\n        /* \"#utility.yul\":2820:2826   */\n      dup3\n        /* \"#utility.yul\":2809:2818   */\n      dup6\n        /* \"#utility.yul\":2805:2827   */\n      add\n        /* \"#utility.yul\":2776:2837   */\n      tag_244\n      jump\t// in\n    tag_279:\n        /* \"#utility.yul\":2766:2837   */\n      swap2\n      pop\n        /* \"#utility.yul\":2722:2847   */\n      pop\n        /* \"#utility.yul\":2509:2854   */\n      swap3\n      swap2\n      pop\n      pop\n      jump\t// out\n        /* \"#utility.yul\":2860:3189   */\n    tag_95:\n        /* \"#utility.yul\":2919:2925   */\n      0x00\n        /* \"#utility.yul\":2968:2970   */\n      0x20\n        /* \"#utility.yul\":2956:2965   */\n      dup3\n        /* \"#utility.yul\":2947:2954   */\n      dup5\n        /* \"#utility.yul\":2943:2966   */\n      sub\n        /* \"#utility.yul\":2939:2971   */\n      slt\n        /* \"#utility.yul\":2936:3055   */\n      iszero\n      tag_281\n      jumpi\n        /* \"#utility.yul\":2974:3053   */\n      tag_282\n      tag_258\n      jump\t// in\n    tag_282:\n        /* \"#utility.yul\":2936:3055   */\n    tag_281:\n        /* \"#utility.yul\":3094:3095   */\n      0x00\n        /* \"#utility.yul\":3119:3172   */\n      tag_283\n        /* \"#utility.yul\":3164:3171   */\n      dup5\n        /* \"#utility.yul\":3155:3161   */\n      dup3\n        /* \"#utility.yul\":3144:3153   */\n      dup6\n        /* \"#utility.yul\":3140:3162   */\n      add\n        /* \"#utility.yul\":3119:3172   */\n      tag_248\n      jump\t// in\n    tag_283:\n        /* \"#utility.yul\":3109:3172   */\n      swap2\n      pop\n        /* \"#utility.yul\":3065:3182   */\n      pop\n        /* \"#utility.yul\":2860:3189   */\n      swap3\n      swap2\n      pop\n      pop\n      jump\t// out\n        /* \"#utility.yul\":3195:3546   */\n    tag_135:\n        /* \"#utility.yul\":3265:3271   */\n      0x00\n        /* \"#utility.yul\":3314:3316   */\n      0x20\n        /* \"#utility.yul\":3302:3311   */\n      dup3\n        /* \"#utility.yul\":3293:3300   */\n      dup5\n        /* \"#utility.yul\":3289:3312   */\n      sub\n        /* \"#utility.yul\":3285:3317   */\n      slt\n        /* \"#utility.yul\":3282:3401   */\n      iszero\n      tag_285\n      jumpi\n        /* \"#utility.yul\":3320:3399   */\n      tag_286\n      tag_258\n      jump\t// in\n    tag_286:\n        /* \"#utility.yul\":3282:3401   */\n    tag_285:\n        /* \"#utility.yul\":3440:3441   */\n      0x00\n        /* \"#utility.yul\":3465:3529   */\n      tag_287\n        /* \"#utility.yul\":3521:3528   */\n      dup5\n        /* \"#utility.yul\":3512:3518   */\n      dup3\n        /* \"#utility.yul\":3501:3510   */\n      dup6\n        /* \"#utility.yul\":3497:3519   */\n      add\n        /* \"#utility.yul\":3465:3529   */\n      tag_252\n      jump\t// in\n    tag_287:\n        /* \"#utility.yul\":3455:3529   */\n      swap2\n      pop\n        /* \"#utility.yul\":3411:3539   */\n      pop\n        /* \"#utility.yul\":3195:3546   */\n      swap3\n      swap2\n      pop\n      pop\n      jump\t// out\n        /* \"#utility.yul\":3552:3670   */\n    tag_288:\n        /* \"#utility.yul\":3639:3663   */\n      tag_290\n        /* \"#utility.yul\":3657:3662   */\n      dup2\n        /* \"#utility.yul\":3639:3663   */\n      tag_291\n      jump\t// in\n    tag_290:\n        /* \"#utility.yul\":3634:3637   */\n      dup3\n        /* \"#utility.yul\":3627:3664   */\n      mstore\n        /* \"#utility.yul\":3552:3670   */\n      pop\n      pop\n      jump\t// out\n        /* \"#utility.yul\":3676:3785   */\n    tag_292:\n        /* \"#utility.yul\":3757:3778   */\n      tag_294\n        /* \"#utility.yul\":3772:3777   */\n      dup2\n        /* \"#utility.yul\":3757:3778   */\n      tag_295\n      jump\t// in\n    tag_294:\n        /* \"#utility.yul\":3752:3755   */\n      dup3\n        /* \"#utility.yul\":3745:3779   */\n      mstore\n        /* \"#utility.yul\":3676:3785   */\n      pop\n      pop\n      jump\t// out\n        /* \"#utility.yul\":3791:3950   */\n    tag_296:\n        /* \"#utility.yul\":3892:3943   */\n      tag_298\n        /* \"#utility.yul\":3937:3942   */\n      dup2\n        /* \"#utility.yul\":3892:3943   */\n      tag_299\n      jump\t// in\n    tag_298:\n        /* \"#utility.yul\":3887:3890   */\n      dup3\n        /* \"#utility.yul\":3880:3944   */\n      mstore\n        /* \"#utility.yul\":3791:3950   */\n      pop\n      pop\n      jump\t// out\n        /* \"#utility.yul\":3956:4117   */\n    tag_300:\n        /* \"#utility.yul\":4058:4110   */\n      tag_302\n        /* \"#utility.yul\":4104:4109   */\n      dup2\n        /* \"#utility.yul\":4058:4110   */\n      tag_303\n      jump\t// in\n    tag_302:\n        /* \"#utility.yul\":4053:4056   */\n      dup3\n        /* \"#utility.yul\":4046:4111   */\n      mstore\n        /* \"#utility.yul\":3956:4117   */\n      pop\n      pop\n      jump\t// out\n        /* \"#utility.yul\":4123:4487   */\n    tag_304:\n        /* \"#utility.yul\":4211:4214   */\n      0x00\n        /* \"#utility.yul\":4239:4278   */\n      tag_306\n        /* \"#utility.yul\":4272:4277   */\n      dup3\n        /* \"#utility.yul\":4239:4278   */\n      tag_307\n      jump\t// in\n    tag_306:\n        /* \"#utility.yul\":4294:4365   */\n      tag_308\n        /* \"#utility.yul\":4358:4364   */\n      dup2\n        /* \"#utility.yul\":4353:4356   */\n      dup6\n        /* \"#utility.yul\":4294:4365   */\n      tag_309\n      jump\t// in\n    tag_308:\n        /* \"#utility.yul\":4287:4365   */\n      swap4\n      pop\n        /* \"#utility.yul\":4374:4426   */\n      tag_310\n        /* \"#utility.yul\":4419:4425   */\n      dup2\n        /* \"#utility.yul\":4414:4417   */\n      dup6\n        /* \"#utility.yul\":4407:4411   */\n      0x20\n        /* \"#utility.yul\":4400:4405   */\n      dup7\n        /* \"#utility.yul\":4396:4412   */\n      add\n        /* \"#utility.yul\":4374:4426   */\n      tag_311\n      jump\t// in\n    tag_310:\n        /* \"#utility.yul\":4451:4480   */\n      tag_312\n        /* \"#utility.yul\":4473:4479   */\n      dup2\n        /* \"#utility.yul\":4451:4480   */\n      tag_313\n      jump\t// in\n    tag_312:\n        /* \"#utility.yul\":4446:4449   */\n      dup5\n        /* \"#utility.yul\":4442:4481   */\n      add\n        /* \"#utility.yul\":4435:4481   */\n      swap2\n      pop\n        /* \"#utility.yul\":4215:4487   */\n      pop\n        /* \"#utility.yul\":4123:4487   */\n      swap3\n      swap2\n      pop\n      pop\n      jump\t// out\n        /* \"#utility.yul\":4493:4859   */\n    tag_314:\n        /* \"#utility.yul\":4635:4638   */\n      0x00\n        /* \"#utility.yul\":4656:4723   */\n      tag_316\n        /* \"#utility.yul\":4720:4722   */\n      0x23\n        /* \"#utility.yul\":4715:4718   */\n      dup4\n        /* \"#utility.yul\":4656:4723   */\n      tag_309\n      jump\t// in\n    tag_316:\n        /* \"#utility.yul\":4649:4723   */\n      swap2\n      pop\n        /* \"#utility.yul\":4732:4825   */\n      tag_317\n        /* \"#utility.yul\":4821:4824   */\n      dup3\n        /* \"#utility.yul\":4732:4825   */\n      tag_318\n      jump\t// in\n    tag_317:\n        /* \"#utility.yul\":4850:4852   */\n      0x40\n        /* \"#utility.yul\":4845:4848   */\n      dup3\n        /* \"#utility.yul\":4841:4853   */\n      add\n        /* \"#utility.yul\":4834:4853   */\n      swap1\n      pop\n        /* \"#utility.yul\":4493:4859   */\n      swap2\n      swap1\n      pop\n      jump\t// out\n        /* \"#utility.yul\":4865:5231   */\n    tag_319:\n        /* \"#utility.yul\":5007:5010   */\n      0x00\n        /* \"#utility.yul\":5028:5095   */\n      tag_321\n        /* \"#utility.yul\":5092:5094   */\n      0x22\n        /* \"#utility.yul\":5087:5090   */\n      dup4\n        /* \"#utility.yul\":5028:5095   */\n      tag_309\n      jump\t// in\n    tag_321:\n        /* \"#utility.yul\":5021:5095   */\n      swap2\n      pop\n        /* \"#utility.yul\":5104:5197   */\n      tag_322\n        /* \"#utility.yul\":5193:5196   */\n      dup3\n        /* \"#utility.yul\":5104:5197   */\n      tag_323\n      jump\t// in\n    tag_322:\n        /* \"#utility.yul\":5222:5224   */\n      0x40\n        /* \"#utility.yul\":5217:5220   */\n      dup3\n        /* \"#utility.yul\":5213:5225   */\n      add\n        /* \"#utility.yul\":5206:5225   */\n      swap1\n      pop\n        /* \"#utility.yul\":4865:5231   */\n      swap2\n      swap1\n      pop\n      jump\t// out\n        /* \"#utility.yul\":5237:5603   */\n    tag_324:\n        /* \"#utility.yul\":5379:5382   */\n      0x00\n        /* \"#utility.yul\":5400:5467   */\n      tag_326\n        /* \"#utility.yul\":5464:5466   */\n      0x1d\n        /* \"#utility.yul\":5459:5462   */\n      dup4\n        /* \"#utility.yul\":5400:5467   */\n      tag_309\n      jump\t// in\n    tag_326:\n        /* \"#utility.yul\":5393:5467   */\n      swap2\n      pop\n        /* \"#utility.yul\":5476:5569   */\n      tag_327\n        /* \"#utility.yul\":5565:5568   */\n      dup3\n        /* \"#utility.yul\":5476:5569   */\n      tag_328\n      jump\t// in\n    tag_327:\n        /* \"#utility.yul\":5594:5596   */\n      0x20\n        /* \"#utility.yul\":5589:5592   */\n      dup3\n        /* \"#utility.yul\":5585:5597   */\n      add\n        /* \"#utility.yul\":5578:5597   */\n      swap1\n      pop\n        /* \"#utility.yul\":5237:5603   */\n      swap2\n      swap1\n      pop\n      jump\t// out\n        /* \"#utility.yul\":5609:5975   */\n    tag_329:\n        /* \"#utility.yul\":5751:5754   */\n      0x00\n        /* \"#utility.yul\":5772:5839   */\n      tag_331\n        /* \"#utility.yul\":5836:5838   */\n      0x26\n        /* \"#utility.yul\":5831:5834   */\n      dup4\n        /* \"#utility.yul\":5772:5839   */\n      tag_309\n      jump\t// in\n    tag_331:\n        /* \"#utility.yul\":5765:5839   */\n      swap2\n      pop\n        /* \"#utility.yul\":5848:5941   */\n      tag_332\n        /* \"#utility.yul\":5937:5940   */\n      dup3\n        /* \"#utility.yul\":5848:5941   */\n      tag_333\n      jump\t// in\n    tag_332:\n        /* \"#utility.yul\":5966:5968   */\n      0x40\n        /* \"#utility.yul\":5961:5964   */\n      dup3\n        /* \"#utility.yul\":5957:5969   */\n      add\n        /* \"#utility.yul\":5950:5969   */\n      swap1\n      pop\n        /* \"#utility.yul\":5609:5975   */\n      swap2\n      swap1\n      pop\n      jump\t// out\n        /* \"#utility.yul\":5981:6347   */\n    tag_334:\n        /* \"#utility.yul\":6123:6126   */\n      0x00\n        /* \"#utility.yul\":6144:6211   */\n      tag_336\n        /* \"#utility.yul\":6208:6210   */\n      0x0a\n        /* \"#utility.yul\":6203:6206   */\n      dup4\n        /* \"#utility.yul\":6144:6211   */\n      tag_309\n      jump\t// in\n    tag_336:\n        /* \"#utility.yul\":6137:6211   */\n      swap2\n      pop\n        /* \"#utility.yul\":6220:6313   */\n      tag_337\n        /* \"#utility.yul\":6309:6312   */\n      dup3\n        /* \"#utility.yul\":6220:6313   */\n      tag_338\n      jump\t// in\n    tag_337:\n        /* \"#utility.yul\":6338:6340   */\n      0x20\n        /* \"#utility.yul\":6333:6336   */\n      dup3\n        /* \"#utility.yul\":6329:6341   */\n      add\n        /* \"#utility.yul\":6322:6341   */\n      swap1\n      pop\n        /* \"#utility.yul\":5981:6347   */\n      swap2\n      swap1\n      pop\n      jump\t// out\n        /* \"#utility.yul\":6353:6719   */\n    tag_339:\n        /* \"#utility.yul\":6495:6498   */\n      0x00\n        /* \"#utility.yul\":6516:6583   */\n      tag_341\n        /* \"#utility.yul\":6580:6582   */\n      0x25\n        /* \"#utility.yul\":6575:6578   */\n      dup4\n        /* \"#utility.yul\":6516:6583   */\n      tag_309\n      jump\t// in\n    tag_341:\n        /* \"#utility.yul\":6509:6583   */\n      swap2\n      pop\n        /* \"#utility.yul\":6592:6685   */\n      tag_342\n        /* \"#utility.yul\":6681:6684   */\n      dup3\n        /* \"#utility.yul\":6592:6685   */\n      tag_343\n      jump\t// in\n    tag_342:\n        /* \"#utility.yul\":6710:6712   */\n      0x40\n        /* \"#utility.yul\":6705:6708   */\n      dup3\n        /* \"#utility.yul\":6701:6713   */\n      add\n        /* \"#utility.yul\":6694:6713   */\n      swap1\n      pop\n        /* \"#utility.yul\":6353:6719   */\n      swap2\n      swap1\n      pop\n      jump\t// out\n        /* \"#utility.yul\":6725:7091   */\n    tag_344:\n        /* \"#utility.yul\":6867:6870   */\n      0x00\n        /* \"#utility.yul\":6888:6955   */\n      tag_346\n        /* \"#utility.yul\":6952:6954   */\n      0x24\n        /* \"#utility.yul\":6947:6950   */\n      dup4\n        /* \"#utility.yul\":6888:6955   */\n      tag_309\n      jump\t// in\n    tag_346:\n        /* \"#utility.yul\":6881:6955   */\n      swap2\n      pop\n        /* \"#utility.yul\":6964:7057   */\n      tag_347\n        /* \"#utility.yul\":7053:7056   */\n      dup3\n        /* \"#utility.yul\":6964:7057   */\n      tag_348\n      jump\t// in\n    tag_347:\n        /* \"#utility.yul\":7082:7084   */\n      0x40\n        /* \"#utility.yul\":7077:7080   */\n      dup3\n        /* \"#utility.yul\":7073:7085   */\n      add\n        /* \"#utility.yul\":7066:7085   */\n      swap1\n      pop\n        /* \"#utility.yul\":6725:7091   */\n      swap2\n      swap1\n      pop\n      jump\t// out\n        /* \"#utility.yul\":7097:7463   */\n    tag_349:\n        /* \"#utility.yul\":7239:7242   */\n      0x00\n        /* \"#utility.yul\":7260:7327   */\n      tag_351\n        /* \"#utility.yul\":7324:7326   */\n      0x16\n        /* \"#utility.yul\":7319:7322   */\n      dup4\n        /* \"#utility.yul\":7260:7327   */\n      tag_309\n      jump\t// in\n    tag_351:\n        /* \"#utility.yul\":7253:7327   */\n      swap2\n      pop\n        /* \"#utility.yul\":7336:7429   */\n      tag_352\n        /* \"#utility.yul\":7425:7428   */\n      dup3\n        /* \"#utility.yul\":7336:7429   */\n      tag_353\n      jump\t// in\n    tag_352:\n        /* \"#utility.yul\":7454:7456   */\n      0x20\n        /* \"#utility.yul\":7449:7452   */\n      dup3\n        /* \"#utility.yul\":7445:7457   */\n      add\n        /* \"#utility.yul\":7438:7457   */\n      swap1\n      pop\n        /* \"#utility.yul\":7097:7463   */\n      swap2\n      swap1\n      pop\n      jump\t// out\n        /* \"#utility.yul\":7469:7835   */\n    tag_354:\n        /* \"#utility.yul\":7611:7614   */\n      0x00\n        /* \"#utility.yul\":7632:7699   */\n      tag_356\n        /* \"#utility.yul\":7696:7698   */\n      0x25\n        /* \"#utility.yul\":7691:7694   */\n      dup4\n        /* \"#utility.yul\":7632:7699   */\n      tag_309\n      jump\t// in\n    tag_356:\n        /* \"#utility.yul\":7625:7699   */\n      swap2\n      pop\n        /* \"#utility.yul\":7708:7801   */\n      tag_357\n        /* \"#utility.yul\":7797:7800   */\n      dup3\n        /* \"#utility.yul\":7708:7801   */\n      tag_358\n      jump\t// in\n    tag_357:\n        /* \"#utility.yul\":7826:7828   */\n      0x40\n        /* \"#utility.yul\":7821:7824   */\n      dup3\n        /* \"#utility.yul\":7817:7829   */\n      add\n        /* \"#utility.yul\":7810:7829   */\n      swap1\n      pop\n        /* \"#utility.yul\":7469:7835   */\n      swap2\n      swap1\n      pop\n      jump\t// out\n        /* \"#utility.yul\":7841:8207   */\n    tag_359:\n        /* \"#utility.yul\":7983:7986   */\n      0x00\n        /* \"#utility.yul\":8004:8071   */\n      tag_361\n        /* \"#utility.yul\":8068:8070   */\n      0x1f\n        /* \"#utility.yul\":8063:8066   */\n      dup4\n        /* \"#utility.yul\":8004:8071   */\n      tag_309\n      jump\t// in\n    tag_361:\n        /* \"#utility.yul\":7997:8071   */\n      swap2\n      pop\n        /* \"#utility.yul\":8080:8173   */\n      tag_362\n        /* \"#utility.yul\":8169:8172   */\n      dup3\n        /* \"#utility.yul\":8080:8173   */\n      tag_363\n      jump\t// in\n    tag_362:\n        /* \"#utility.yul\":8198:8200   */\n      0x20\n        /* \"#utility.yul\":8193:8196   */\n      dup3\n        /* \"#utility.yul\":8189:8201   */\n      add\n        /* \"#utility.yul\":8182:8201   */\n      swap1\n      pop\n        /* \"#utility.yul\":7841:8207   */\n      swap2\n      swap1\n      pop\n      jump\t// out\n        /* \"#utility.yul\":8213:8331   */\n    tag_364:\n        /* \"#utility.yul\":8300:8324   */\n      tag_366\n        /* \"#utility.yul\":8318:8323   */\n      dup2\n        /* \"#utility.yul\":8300:8324   */\n      tag_367\n      jump\t// in\n    tag_366:\n        /* \"#utility.yul\":8295:8298   */\n      dup3\n        /* \"#utility.yul\":8288:8325   */\n      mstore\n        /* \"#utility.yul\":8213:8331   */\n      pop\n      pop\n      jump\t// out\n        /* \"#utility.yul\":8337:8449   */\n    tag_368:\n        /* \"#utility.yul\":8420:8442   */\n      tag_370\n        /* \"#utility.yul\":8436:8441   */\n      dup2\n        /* \"#utility.yul\":8420:8442   */\n      tag_371\n      jump\t// in\n    tag_370:\n        /* \"#utility.yul\":8415:8418   */\n      dup3\n        /* \"#utility.yul\":8408:8443   */\n      mstore\n        /* \"#utility.yul\":8337:8449   */\n      pop\n      pop\n      jump\t// out\n        /* \"#utility.yul\":8455:8677   */\n    tag_112:\n        /* \"#utility.yul\":8548:8552   */\n      0x00\n        /* \"#utility.yul\":8586:8588   */\n      0x20\n        /* \"#utility.yul\":8575:8584   */\n      dup3\n        /* \"#utility.yul\":8571:8589   */\n      add\n        /* \"#utility.yul\":8563:8589   */\n      swap1\n      pop\n        /* \"#utility.yul\":8599:8670   */\n      tag_373\n        /* \"#utility.yul\":8667:8668   */\n      0x00\n        /* \"#utility.yul\":8656:8665   */\n      dup4\n        /* \"#utility.yul\":8652:8669   */\n      add\n        /* \"#utility.yul\":8643:8649   */\n      dup5\n        /* \"#utility.yul\":8599:8670   */\n      tag_288\n      jump\t// in\n    tag_373:\n        /* \"#utility.yul\":8455:8677   */\n      swap3\n      swap2\n      pop\n      pop\n      jump\t// out\n        /* \"#utility.yul\":8683:9125   */\n    tag_189:\n        /* \"#utility.yul\":8832:8836   */\n      0x00\n        /* \"#utility.yul\":8870:8872   */\n      0x60\n        /* \"#utility.yul\":8859:8868   */\n      dup3\n        /* \"#utility.yul\":8855:8873   */\n      add\n        /* \"#utility.yul\":8847:8873   */\n      swap1\n      pop\n        /* \"#utility.yul\":8883:8954   */\n      tag_375\n        /* \"#utility.yul\":8951:8952   */\n      0x00\n        /* \"#utility.yul\":8940:8949   */\n      dup4\n        /* \"#utility.yul\":8936:8953   */\n      add\n        /* \"#utility.yul\":8927:8933   */\n      dup7\n        /* \"#utility.yul\":8883:8954   */\n      tag_288\n      jump\t// in\n    tag_375:\n        /* \"#utility.yul\":8964:9036   */\n      tag_376\n        /* \"#utility.yul\":9032:9034   */\n      0x20\n        /* \"#utility.yul\":9021:9030   */\n      dup4\n        /* \"#utility.yul\":9017:9035   */\n      add\n        /* \"#utility.yul\":9008:9014   */\n      dup6\n        /* \"#utility.yul\":8964:9036   */\n      tag_288\n      jump\t// in\n    tag_376:\n        /* \"#utility.yul\":9046:9118   */\n      tag_377\n        /* \"#utility.yul\":9114:9116   */\n      0x40\n        /* \"#utility.yul\":9103:9112   */\n      dup4\n        /* \"#utility.yul\":9099:9117   */\n      add\n        /* \"#utility.yul\":9090:9096   */\n      dup5\n        /* \"#utility.yul\":9046:9118   */\n      tag_364\n      jump\t// in\n    tag_377:\n        /* \"#utility.yul\":8683:9125   */\n      swap5\n      swap4\n      pop\n      pop\n      pop\n      pop\n      jump\t// out\n        /* \"#utility.yul\":9131:9463   */\n    tag_138:\n        /* \"#utility.yul\":9252:9256   */\n      0x00\n        /* \"#utility.yul\":9290:9292   */\n      0x40\n        /* \"#utility.yul\":9279:9288   */\n      dup3\n        /* \"#utility.yul\":9275:9293   */\n      add\n        /* \"#utility.yul\":9267:9293   */\n      swap1\n      pop\n        /* \"#utility.yul\":9303:9374   */\n      tag_379\n        /* \"#utility.yul\":9371:9372   */\n      0x00\n        /* \"#utility.yul\":9360:9369   */\n      dup4\n        /* \"#utility.yul\":9356:9373   */\n      add\n        /* \"#utility.yul\":9347:9353   */\n      dup6\n        /* \"#utility.yul\":9303:9374   */\n      tag_288\n      jump\t// in\n    tag_379:\n        /* \"#utility.yul\":9384:9456   */\n      tag_380\n        /* \"#utility.yul\":9452:9454   */\n      0x20\n        /* \"#utility.yul\":9441:9450   */\n      dup4\n        /* \"#utility.yul\":9437:9455   */\n      add\n        /* \"#utility.yul\":9428:9434   */\n      dup5\n        /* \"#utility.yul\":9384:9456   */\n      tag_364\n      jump\t// in\n    tag_380:\n        /* \"#utility.yul\":9131:9463   */\n      swap4\n      swap3\n      pop\n      pop\n      pop\n      jump\t// out\n        /* \"#utility.yul\":9469:9679   */\n    tag_37:\n        /* \"#utility.yul\":9556:9560   */\n      0x00\n        /* \"#utility.yul\":9594:9596   */\n      0x20\n        /* \"#utility.yul\":9583:9592   */\n      dup3\n        /* \"#utility.yul\":9579:9597   */\n      add\n        /* \"#utility.yul\":9571:9597   */\n      swap1\n      pop\n        /* \"#utility.yul\":9607:9672   */\n      tag_382\n        /* \"#utility.yul\":9669:9670   */\n      0x00\n        /* \"#utility.yul\":9658:9667   */\n      dup4\n        /* \"#utility.yul\":9654:9671   */\n      add\n        /* \"#utility.yul\":9645:9651   */\n      dup5\n        /* \"#utility.yul\":9607:9672   */\n      tag_292\n      jump\t// in\n    tag_382:\n        /* \"#utility.yul\":9469:9679   */\n      swap3\n      swap2\n      pop\n      pop\n      jump\t// out\n        /* \"#utility.yul\":9685:9935   */\n    tag_108:\n        /* \"#utility.yul\":9792:9796   */\n      0x00\n        /* \"#utility.yul\":9830:9832   */\n      0x20\n        /* \"#utility.yul\":9819:9828   */\n      dup3\n        /* \"#utility.yul\":9815:9833   */\n      add\n        /* \"#utility.yul\":9807:9833   */\n      swap1\n      pop\n        /* \"#utility.yul\":9843:9928   */\n      tag_384\n        /* \"#utility.yul\":9925:9926   */\n      0x00\n        /* \"#utility.yul\":9914:9923   */\n      dup4\n        /* \"#utility.yul\":9910:9927   */\n      add\n        /* \"#utility.yul\":9901:9907   */\n      dup5\n        /* \"#utility.yul\":9843:9928   */\n      tag_296\n      jump\t// in\n    tag_384:\n        /* \"#utility.yul\":9685:9935   */\n      swap3\n      swap2\n      pop\n      pop\n      jump\t// out\n        /* \"#utility.yul\":9941:10193   */\n    tag_68:\n        /* \"#utility.yul\":10049:10053   */\n      0x00\n        /* \"#utility.yul\":10087:10089   */\n      0x20\n        /* \"#utility.yul\":10076:10085   */\n      dup3\n        /* \"#utility.yul\":10072:10090   */\n      add\n        /* \"#utility.yul\":10064:10090   */\n      swap1\n      pop\n        /* \"#utility.yul\":10100:10186   */\n      tag_386\n        /* \"#utility.yul\":10183:10184   */\n      0x00\n        /* \"#utility.yul\":10172:10181   */\n      dup4\n        /* \"#utility.yul\":10168:10185   */\n      add\n        /* \"#utility.yul\":10159:10165   */\n      dup5\n        /* \"#utility.yul\":10100:10186   */\n      tag_300\n      jump\t// in\n    tag_386:\n        /* \"#utility.yul\":9941:10193   */\n      swap3\n      swap2\n      pop\n      pop\n      jump\t// out\n        /* \"#utility.yul\":10199:10512   */\n    tag_31:\n        /* \"#utility.yul\":10312:10316   */\n      0x00\n        /* \"#utility.yul\":10350:10352   */\n      0x20\n        /* \"#utility.yul\":10339:10348   */\n      dup3\n        /* \"#utility.yul\":10335:10353   */\n      add\n        /* \"#utility.yul\":10327:10353   */\n      swap1\n      pop\n        /* \"#utility.yul\":10399:10408   */\n      dup2\n        /* \"#utility.yul\":10393:10397   */\n      dup2\n        /* \"#utility.yul\":10389:10409   */\n      sub\n        /* \"#utility.yul\":10385:10386   */\n      0x00\n        /* \"#utility.yul\":10374:10383   */\n      dup4\n        /* \"#utility.yul\":10370:10387   */\n      add\n        /* \"#utility.yul\":10363:10410   */\n      mstore\n        /* \"#utility.yul\":10427:10505   */\n      tag_388\n        /* \"#utility.yul\":10500:10504   */\n      dup2\n        /* \"#utility.yul\":10491:10497   */\n      dup5\n        /* \"#utility.yul\":10427:10505   */\n      tag_304\n      jump\t// in\n    tag_388:\n        /* \"#utility.yul\":10419:10505   */\n      swap1\n      pop\n        /* \"#utility.yul\":10199:10512   */\n      swap3\n      swap2\n      pop\n      pop\n      jump\t// out\n        /* \"#utility.yul\":10518:10937   */\n    tag_229:\n        /* \"#utility.yul\":10684:10688   */\n      0x00\n        /* \"#utility.yul\":10722:10724   */\n      0x20\n        /* \"#utility.yul\":10711:10720   */\n      dup3\n        /* \"#utility.yul\":10707:10725   */\n      add\n        /* \"#utility.yul\":10699:10725   */\n      swap1\n      pop\n        /* \"#utility.yul\":10771:10780   */\n      dup2\n        /* \"#utility.yul\":10765:10769   */\n      dup2\n        /* \"#utility.yul\":10761:10781   */\n      sub\n        /* \"#utility.yul\":10757:10758   */\n      0x00\n        /* \"#utility.yul\":10746:10755   */\n      dup4\n        /* \"#utility.yul\":10742:10759   */\n      add\n        /* \"#utility.yul\":10735:10782   */\n      mstore\n        /* \"#utility.yul\":10799:10930   */\n      tag_390\n        /* \"#utility.yul\":10925:10929   */\n      dup2\n        /* \"#utility.yul\":10799:10930   */\n      tag_314\n      jump\t// in\n    tag_390:\n        /* \"#utility.yul\":10791:10930   */\n      swap1\n      pop\n        /* \"#utility.yul\":10518:10937   */\n      swap2\n      swap1\n      pop\n      jump\t// out\n        /* \"#utility.yul\":10943:11362   */\n    tag_203:\n        /* \"#utility.yul\":11109:11113   */\n      0x00\n        /* \"#utility.yul\":11147:11149   */\n      0x20\n        /* \"#utility.yul\":11136:11145   */\n      dup3\n        /* \"#utility.yul\":11132:11150   */\n      add\n        /* \"#utility.yul\":11124:11150   */\n      swap1\n      pop\n        /* \"#utility.yul\":11196:11205   */\n      dup2\n        /* \"#utility.yul\":11190:11194   */\n      dup2\n        /* \"#utility.yul\":11186:11206   */\n      sub\n        /* \"#utility.yul\":11182:11183   */\n      0x00\n        /* \"#utility.yul\":11171:11180   */\n      dup4\n        /* \"#utility.yul\":11167:11184   */\n      add\n        /* \"#utility.yul\":11160:11207   */\n      mstore\n        /* \"#utility.yul\":11224:11355   */\n      tag_392\n        /* \"#utility.yul\":11350:11354   */\n      dup2\n        /* \"#utility.yul\":11224:11355   */\n      tag_319\n      jump\t// in\n    tag_392:\n        /* \"#utility.yul\":11216:11355   */\n      swap1\n      pop\n        /* \"#utility.yul\":10943:11362   */\n      swap2\n      swap1\n      pop\n      jump\t// out\n        /* \"#utility.yul\":11368:11787   */\n    tag_221:\n        /* \"#utility.yul\":11534:11538   */\n      0x00\n        /* \"#utility.yul\":11572:11574   */\n      0x20\n        /* \"#utility.yul\":11561:11570   */\n      dup3\n        /* \"#utility.yul\":11557:11575   */\n      add\n        /* \"#utility.yul\":11549:11575   */\n      swap1\n      pop\n        /* \"#utility.yul\":11621:11630   */\n      dup2\n        /* \"#utility.yul\":11615:11619   */\n      dup2\n        /* \"#utility.yul\":11611:11631   */\n      sub\n        /* \"#utility.yul\":11607:11608   */\n      0x00\n        /* \"#utility.yul\":11596:11605   */\n      dup4\n        /* \"#utility.yul\":11592:11609   */\n      add\n        /* \"#utility.yul\":11585:11632   */\n      mstore\n        /* \"#utility.yul\":11649:11780   */\n      tag_394\n        /* \"#utility.yul\":11775:11779   */\n      dup2\n        /* \"#utility.yul\":11649:11780   */\n      tag_324\n      jump\t// in\n    tag_394:\n        /* \"#utility.yul\":11641:11780   */\n      swap1\n      pop\n        /* \"#utility.yul\":11368:11787   */\n      swap2\n      swap1\n      pop\n      jump\t// out\n        /* \"#utility.yul\":11793:12212   */\n    tag_233:\n        /* \"#utility.yul\":11959:11963   */\n      0x00\n        /* \"#utility.yul\":11997:11999   */\n      0x20\n        /* \"#utility.yul\":11986:11995   */\n      dup3\n        /* \"#utility.yul\":11982:12000   */\n      add\n        /* \"#utility.yul\":11974:12000   */\n      swap1\n      pop\n        /* \"#utility.yul\":12046:12055   */\n      dup2\n        /* \"#utility.yul\":12040:12044   */\n      dup2\n        /* \"#utility.yul\":12036:12056   */\n      sub\n        /* \"#utility.yul\":12032:12033   */\n      0x00\n        /* \"#utility.yul\":12021:12030   */\n      dup4\n        /* \"#utility.yul\":12017:12034   */\n      add\n        /* \"#utility.yul\":12010:12057   */\n      mstore\n        /* \"#utility.yul\":12074:12205   */\n      tag_396\n        /* \"#utility.yul\":12200:12204   */\n      dup2\n        /* \"#utility.yul\":12074:12205   */\n      tag_329\n      jump\t// in\n    tag_396:\n        /* \"#utility.yul\":12066:12205   */\n      swap1\n      pop\n        /* \"#utility.yul\":11793:12212   */\n      swap2\n      swap1\n      pop\n      jump\t// out\n        /* \"#utility.yul\":12218:12637   */\n    tag_129:\n        /* \"#utility.yul\":12384:12388   */\n      0x00\n        /* \"#utility.yul\":12422:12424   */\n      0x20\n        /* \"#utility.yul\":12411:12420   */\n      dup3\n        /* \"#utility.yul\":12407:12425   */\n      add\n        /* \"#utility.yul\":12399:12425   */\n      swap1\n      pop\n        /* \"#utility.yul\":12471:12480   */\n      dup2\n        /* \"#utility.yul\":12465:12469   */\n      dup2\n        /* \"#utility.yul\":12461:12481   */\n      sub\n        /* \"#utility.yul\":12457:12458   */\n      0x00\n        /* \"#utility.yul\":12446:12455   */\n      dup4\n        /* \"#utility.yul\":12442:12459   */\n      add\n        /* \"#utility.yul\":12435:12482   */\n      mstore\n        /* \"#utility.yul\":12499:12630   */\n      tag_398\n        /* \"#utility.yul\":12625:12629   */\n      dup2\n        /* \"#utility.yul\":12499:12630   */\n      tag_334\n      jump\t// in\n    tag_398:\n        /* \"#utility.yul\":12491:12630   */\n      swap1\n      pop\n        /* \"#utility.yul\":12218:12637   */\n      swap2\n      swap1\n      pop\n      jump\t// out\n        /* \"#utility.yul\":12643:13062   */\n    tag_226:\n        /* \"#utility.yul\":12809:12813   */\n      0x00\n        /* \"#utility.yul\":12847:12849   */\n      0x20\n        /* \"#utility.yul\":12836:12845   */\n      dup3\n        /* \"#utility.yul\":12832:12850   */\n      add\n        /* \"#utility.yul\":12824:12850   */\n      swap1\n      pop\n        /* \"#utility.yul\":12896:12905   */\n      dup2\n        /* \"#utility.yul\":12890:12894   */\n      dup2\n        /* \"#utility.yul\":12886:12906   */\n      sub\n        /* \"#utility.yul\":12882:12883   */\n      0x00\n        /* \"#utility.yul\":12871:12880   */\n      dup4\n        /* \"#utility.yul\":12867:12884   */\n      add\n        /* \"#utility.yul\":12860:12907   */\n      mstore\n        /* \"#utility.yul\":12924:13055   */\n      tag_400\n        /* \"#utility.yul\":13050:13054   */\n      dup2\n        /* \"#utility.yul\":12924:13055   */\n      tag_339\n      jump\t// in\n    tag_400:\n        /* \"#utility.yul\":12916:13055   */\n      swap1\n      pop\n        /* \"#utility.yul\":12643:13062   */\n      swap2\n      swap1\n      pop\n      jump\t// out\n        /* \"#utility.yul\":13068:13487   */\n    tag_200:\n        /* \"#utility.yul\":13234:13238   */\n      0x00\n        /* \"#utility.yul\":13272:13274   */\n      0x20\n        /* \"#utility.yul\":13261:13270   */\n      dup3\n        /* \"#utility.yul\":13257:13275   */\n      add\n        /* \"#utility.yul\":13249:13275   */\n      swap1\n      pop\n        /* \"#utility.yul\":13321:13330   */\n      dup2\n        /* \"#utility.yul\":13315:13319   */\n      dup2\n        /* \"#utility.yul\":13311:13331   */\n      sub\n        /* \"#utility.yul\":13307:13308   */\n      0x00\n        /* \"#utility.yul\":13296:13305   */\n      dup4\n        /* \"#utility.yul\":13292:13309   */\n      add\n        /* \"#utility.yul\":13285:13332   */\n      mstore\n        /* \"#utility.yul\":13349:13480   */\n      tag_402\n        /* \"#utility.yul\":13475:13479   */\n      dup2\n        /* \"#utility.yul\":13349:13480   */\n      tag_344\n      jump\t// in\n    tag_402:\n        /* \"#utility.yul\":13341:13480   */\n      swap1\n      pop\n        /* \"#utility.yul\":13068:13487   */\n      swap2\n      swap1\n      pop\n      jump\t// out\n        /* \"#utility.yul\":13493:13912   */\n    tag_185:\n        /* \"#utility.yul\":13659:13663   */\n      0x00\n        /* \"#utility.yul\":13697:13699   */\n      0x20\n        /* \"#utility.yul\":13686:13695   */\n      dup3\n        /* \"#utility.yul\":13682:13700   */\n      add\n        /* \"#utility.yul\":13674:13700   */\n      swap1\n      pop\n        /* \"#utility.yul\":13746:13755   */\n      dup2\n        /* \"#utility.yul\":13740:13744   */\n      dup2\n        /* \"#utility.yul\":13736:13756   */\n      sub\n        /* \"#utility.yul\":13732:13733   */\n      0x00\n        /* \"#utility.yul\":13721:13730   */\n      dup4\n        /* \"#utility.yul\":13717:13734   */\n      add\n        /* \"#utility.yul\":13710:13757   */\n      mstore\n        /* \"#utility.yul\":13774:13905   */\n      tag_404\n        /* \"#utility.yul\":13900:13904   */\n      dup2\n        /* \"#utility.yul\":13774:13905   */\n      tag_349\n      jump\t// in\n    tag_404:\n        /* \"#utility.yul\":13766:13905   */\n      swap1\n      pop\n        /* \"#utility.yul\":13493:13912   */\n      swap2\n      swap1\n      pop\n      jump\t// out\n        /* \"#utility.yul\":13918:14337   */\n    tag_175:\n        /* \"#utility.yul\":14084:14088   */\n      0x00\n        /* \"#utility.yul\":14122:14124   */\n      0x20\n        /* \"#utility.yul\":14111:14120   */\n      dup3\n        /* \"#utility.yul\":14107:14125   */\n      add\n        /* \"#utility.yul\":14099:14125   */\n      swap1\n      pop\n        /* \"#utility.yul\":14171:14180   */\n      dup2\n        /* \"#utility.yul\":14165:14169   */\n      dup2\n        /* \"#utility.yul\":14161:14181   */\n      sub\n        /* \"#utility.yul\":14157:14158   */\n      0x00\n        /* \"#utility.yul\":14146:14155   */\n      dup4\n        /* \"#utility.yul\":14142:14159   */\n      add\n        /* \"#utility.yul\":14135:14182   */\n      mstore\n        /* \"#utility.yul\":14199:14330   */\n      tag_406\n        /* \"#utility.yul\":14325:14329   */\n      dup2\n        /* \"#utility.yul\":14199:14330   */\n      tag_354\n      jump\t// in\n    tag_406:\n        /* \"#utility.yul\":14191:14330   */\n      swap1\n      pop\n        /* \"#utility.yul\":13918:14337   */\n      swap2\n      swap1\n      pop\n      jump\t// out\n        /* \"#utility.yul\":14343:14762   */\n    tag_208:\n        /* \"#utility.yul\":14509:14513   */\n      0x00\n        /* \"#utility.yul\":14547:14549   */\n      0x20\n        /* \"#utility.yul\":14536:14545   */\n      dup3\n        /* \"#utility.yul\":14532:14550   */\n      add\n        /* \"#utility.yul\":14524:14550   */\n      swap1\n      pop\n        /* \"#utility.yul\":14596:14605   */\n      dup2\n        /* \"#utility.yul\":14590:14594   */\n      dup2\n        /* \"#utility.yul\":14586:14606   */\n      sub\n        /* \"#utility.yul\":14582:14583   */\n      0x00\n        /* \"#utility.yul\":14571:14580   */\n      dup4\n        /* \"#utility.yul\":14567:14584   */\n      add\n        /* \"#utility.yul\":14560:14607   */\n      mstore\n        /* \"#utility.yul\":14624:14755   */\n      tag_408\n        /* \"#utility.yul\":14750:14754   */\n      dup2\n        /* \"#utility.yul\":14624:14755   */\n      tag_359\n      jump\t// in\n    tag_408:\n        /* \"#utility.yul\":14616:14755   */\n      swap1\n      pop\n        /* \"#utility.yul\":14343:14762   */\n      swap2\n      swap1\n      pop\n      jump\t// out\n        /* \"#utility.yul\":14768:14990   */\n    tag_41:\n        /* \"#utility.yul\":14861:14865   */\n      0x00\n        /* \"#utility.yul\":14899:14901   */\n      0x20\n        /* \"#utility.yul\":14888:14897   */\n      dup3\n        /* \"#utility.yul\":14884:14902   */\n      add\n        /* \"#utility.yul\":14876:14902   */\n      swap1\n      pop\n        /* \"#utility.yul\":14912:14983   */\n      tag_410\n        /* \"#utility.yul\":14980:14981   */\n      0x00\n        /* \"#utility.yul\":14969:14978   */\n      dup4\n        /* \"#utility.yul\":14965:14982   */\n      add\n        /* \"#utility.yul\":14956:14962   */\n      dup5\n        /* \"#utility.yul\":14912:14983   */\n      tag_364\n      jump\t// in\n    tag_410:\n        /* \"#utility.yul\":14768:14990   */\n      swap3\n      swap2\n      pop\n      pop\n      jump\t// out\n        /* \"#utility.yul\":14996:15210   */\n    tag_52:\n        /* \"#utility.yul\":15085:15089   */\n      0x00\n        /* \"#utility.yul\":15123:15125   */\n      0x20\n        /* \"#utility.yul\":15112:15121   */\n      dup3\n        /* \"#utility.yul\":15108:15126   */\n      add\n        /* \"#utility.yul\":15100:15126   */\n      swap1\n      pop\n        /* \"#utility.yul\":15136:15203   */\n      tag_412\n        /* \"#utility.yul\":15200:15201   */\n      0x00\n        /* \"#utility.yul\":15189:15198   */\n      dup4\n        /* \"#utility.yul\":15185:15202   */\n      add\n        /* \"#utility.yul\":15176:15182   */\n      dup5\n        /* \"#utility.yul\":15136:15203   */\n      tag_368\n      jump\t// in\n    tag_412:\n        /* \"#utility.yul\":14996:15210   */\n      swap3\n      swap2\n      pop\n      pop\n      jump\t// out\n        /* \"#utility.yul\":15297:15396   */\n    tag_307:\n        /* \"#utility.yul\":15349:15355   */\n      0x00\n        /* \"#utility.yul\":15383:15388   */\n      dup2\n        /* \"#utility.yul\":15377:15389   */\n      mload\n        /* \"#utility.yul\":15367:15389   */\n      swap1\n      pop\n        /* \"#utility.yul\":15297:15396   */\n      swap2\n      swap1\n      pop\n      jump\t// out\n        /* \"#utility.yul\":15402:15571   */\n    tag_309:\n        /* \"#utility.yul\":15486:15497   */\n      0x00\n        /* \"#utility.yul\":15520:15526   */\n      dup3\n        /* \"#utility.yul\":15515:15518   */\n      dup3\n        /* \"#utility.yul\":15508:15527   */\n      mstore\n        /* \"#utility.yul\":15560:15564   */\n      0x20\n        /* \"#utility.yul\":15555:15558   */\n      dup3\n        /* \"#utility.yul\":15551:15565   */\n      add\n        /* \"#utility.yul\":15536:15565   */\n      swap1\n      pop\n        /* \"#utility.yul\":15402:15571   */\n      swap3\n      swap2\n      pop\n      pop\n      jump\t// out\n        /* \"#utility.yul\":15577:15882   */\n    tag_162:\n        /* \"#utility.yul\":15617:15620   */\n      0x00\n        /* \"#utility.yul\":15636:15656   */\n      tag_418\n        /* \"#utility.yul\":15654:15655   */\n      dup3\n        /* \"#utility.yul\":15636:15656   */\n      tag_367\n      jump\t// in\n    tag_418:\n        /* \"#utility.yul\":15631:15656   */\n      swap2\n      pop\n        /* \"#utility.yul\":15670:15690   */\n      tag_419\n        /* \"#utility.yul\":15688:15689   */\n      dup4\n        /* \"#utility.yul\":15670:15690   */\n      tag_367\n      jump\t// in\n    tag_419:\n        /* \"#utility.yul\":15665:15690   */\n      swap3\n      pop\n        /* \"#utility.yul\":15824:15825   */\n      dup3\n        /* \"#utility.yul\":15756:15822   */\n      0xffffffffffffffffffffffffffffffffffffffffffffffffffffffffffffffff\n        /* \"#utility.yul\":15752:15826   */\n      sub\n        /* \"#utility.yul\":15749:15750   */\n      dup3\n        /* \"#utility.yul\":15746:15827   */\n      gt\n        /* \"#utility.yul\":15743:15850   */\n      iszero\n      tag_420\n      jumpi\n        /* \"#utility.yul\":15830:15848   */\n      tag_421\n      tag_422\n      jump\t// in\n    tag_421:\n        /* \"#utility.yul\":15743:15850   */\n    tag_420:\n        /* \"#utility.yul\":15874:15875   */\n      dup3\n        /* \"#utility.yul\":15871:15872   */\n      dup3\n        /* \"#utility.yul\":15867:15876   */\n      add\n        /* \"#utility.yul\":15860:15876   */\n      swap1\n      pop\n        /* \"#utility.yul\":15577:15882   */\n      swap3\n      swap2\n      pop\n      pop\n      jump\t// out\n        /* \"#utility.yul\":15888:16236   */\n    tag_187:\n        /* \"#utility.yul\":15928:15935   */\n      0x00\n        /* \"#utility.yul\":15951:15971   */\n      tag_424\n        /* \"#utility.yul\":15969:15970   */\n      dup3\n        /* \"#utility.yul\":15951:15971   */\n      tag_367\n      jump\t// in\n    tag_424:\n        /* \"#utility.yul\":15946:15971   */\n      swap2\n      pop\n        /* \"#utility.yul\":15985:16005   */\n      tag_425\n        /* \"#utility.yul\":16003:16004   */\n      dup4\n        /* \"#utility.yul\":15985:16005   */\n      tag_367\n      jump\t// in\n    tag_425:\n        /* \"#utility.yul\":15980:16005   */\n      swap3\n      pop\n        /* \"#utility.yul\":16173:16174   */\n      dup2\n        /* \"#utility.yul\":16105:16171   */\n      0xffffffffffffffffffffffffffffffffffffffffffffffffffffffffffffffff\n        /* \"#utility.yul\":16101:16175   */\n      div\n        /* \"#utility.yul\":16098:16099   */\n      dup4\n        /* \"#utility.yul\":16095:16176   */\n      gt\n        /* \"#utility.yul\":16090:16091   */\n      dup3\n        /* \"#utility.yul\":16083:16092   */\n      iszero\n        /* \"#utility.yul\":16076:16093   */\n      iszero\n        /* \"#utility.yul\":16072:16177   */\n      and\n        /* \"#utility.yul\":16069:16200   */\n      iszero\n      tag_426\n      jumpi\n        /* \"#utility.yul\":16180:16198   */\n      tag_427\n      tag_422\n      jump\t// in\n    tag_427:\n        /* \"#utility.yul\":16069:16200   */\n    tag_426:\n        /* \"#utility.yul\":16228:16229   */\n      dup3\n        /* \"#utility.yul\":16225:16226   */\n      dup3\n        /* \"#utility.yul\":16221:16230   */\n      mul\n        /* \"#utility.yul\":16210:16230   */\n      swap1\n      pop\n        /* \"#utility.yul\":15888:16236   */\n      swap3\n      swap2\n      pop\n      pop\n      jump\t// out\n        /* \"#utility.yul\":16242:16433   */\n    tag_146:\n        /* \"#utility.yul\":16282:16286   */\n      0x00\n        /* \"#utility.yul\":16302:16322   */\n      tag_429\n        /* \"#utility.yul\":16320:16321   */\n      dup3\n        /* \"#utility.yul\":16302:16322   */\n      tag_367\n      jump\t// in\n    tag_429:\n        /* \"#utility.yul\":16297:16322   */\n      swap2\n      pop\n        /* \"#utility.yul\":16336:16356   */\n      tag_430\n        /* \"#utility.yul\":16354:16355   */\n      dup4\n        /* \"#utility.yul\":16336:16356   */\n      tag_367\n      jump\t// in\n    tag_430:\n        /* \"#utility.yul\":16331:16356   */\n      swap3\n      pop\n        /* \"#utility.yul\":16375:16376   */\n      dup3\n        /* \"#utility.yul\":16372:16373   */\n      dup3\n        /* \"#utility.yul\":16369:16377   */\n      lt\n        /* \"#utility.yul\":16366:16400   */\n      iszero\n      tag_431\n      jumpi\n        /* \"#utility.yul\":16380:16398   */\n      tag_432\n      tag_422\n      jump\t// in\n    tag_432:\n        /* \"#utility.yul\":16366:16400   */\n    tag_431:\n        /* \"#utility.yul\":16425:16426   */\n      dup3\n        /* \"#utility.yul\":16422:16423   */\n      dup3\n        /* \"#utility.yul\":16418:16427   */\n      sub\n        /* \"#utility.yul\":16410:16427   */\n      swap1\n      pop\n        /* \"#utility.yul\":16242:16433   */\n      swap3\n      swap2\n      pop\n      pop\n      jump\t// out\n        /* \"#utility.yul\":16439:16535   */\n    tag_291:\n        /* \"#utility.yul\":16476:16483   */\n      0x00\n        /* \"#utility.yul\":16505:16529   */\n      tag_434\n        /* \"#utility.yul\":16523:16528   */\n      dup3\n        /* \"#utility.yul\":16505:16529   */\n      tag_435\n      jump\t// in\n    tag_434:\n        /* \"#utility.yul\":16494:16529   */\n      swap1\n      pop\n        /* \"#utility.yul\":16439:16535   */\n      swap2\n      swap1\n      pop\n      jump\t// out\n        /* \"#utility.yul\":16541:16631   */\n    tag_295:\n        /* \"#utility.yul\":16575:16582   */\n      0x00\n        /* \"#utility.yul\":16618:16623   */\n      dup2\n        /* \"#utility.yul\":16611:16624   */\n      iszero\n        /* \"#utility.yul\":16604:16625   */\n      iszero\n        /* \"#utility.yul\":16593:16625   */\n      swap1\n      pop\n        /* \"#utility.yul\":16541:16631   */\n      swap2\n      swap1\n      pop\n      jump\t// out\n        /* \"#utility.yul\":16637:16763   */\n    tag_435:\n        /* \"#utility.yul\":16674:16681   */\n      0x00\n        /* \"#utility.yul\":16714:16756   */\n      0xffffffffffffffffffffffffffffffffffffffff\n        /* \"#utility.yul\":16707:16712   */\n      dup3\n        /* \"#utility.yul\":16703:16757   */\n      and\n        /* \"#utility.yul\":16692:16757   */\n      swap1\n      pop\n        /* \"#utility.yul\":16637:16763   */\n      swap2\n      swap1\n      pop\n      jump\t// out\n        /* \"#utility.yul\":16769:16846   */\n    tag_367:\n        /* \"#utility.yul\":16806:16813   */\n      0x00\n        /* \"#utility.yul\":16835:16840   */\n      dup2\n        /* \"#utility.yul\":16824:16840   */\n      swap1\n      pop\n        /* \"#utility.yul\":16769:16846   */\n      swap2\n      swap1\n      pop\n      jump\t// out\n        /* \"#utility.yul\":16852:16938   */\n    tag_371:\n        /* \"#utility.yul\":16887:16894   */\n      0x00\n        /* \"#utility.yul\":16927:16931   */\n      0xff\n        /* \"#utility.yul\":16920:16925   */\n      dup3\n        /* \"#utility.yul\":16916:16932   */\n      and\n        /* \"#utility.yul\":16905:16932   */\n      swap1\n      pop\n        /* \"#utility.yul\":16852:16938   */\n      swap2\n      swap1\n      pop\n      jump\t// out\n        /* \"#utility.yul\":16944:17084   */\n    tag_299:\n        /* \"#utility.yul\":17008:17017   */\n      0x00\n        /* \"#utility.yul\":17041:17078   */\n      tag_441\n        /* \"#utility.yul\":17072:17077   */\n      dup3\n        /* \"#utility.yul\":17041:17078   */\n      tag_442\n      jump\t// in\n    tag_441:\n        /* \"#utility.yul\":17028:17078   */\n      swap1\n      pop\n        /* \"#utility.yul\":16944:17084   */\n      swap2\n      swap1\n      pop\n      jump\t// out\n        /* \"#utility.yul\":17090:17231   */\n    tag_303:\n        /* \"#utility.yul\":17155:17164   */\n      0x00\n        /* \"#utility.yul\":17188:17225   */\n      tag_444\n        /* \"#utility.yul\":17219:17224   */\n      dup3\n        /* \"#utility.yul\":17188:17225   */\n      tag_442\n      jump\t// in\n    tag_444:\n        /* \"#utility.yul\":17175:17225   */\n      swap1\n      pop\n        /* \"#utility.yul\":17090:17231   */\n      swap2\n      swap1\n      pop\n      jump\t// out\n        /* \"#utility.yul\":17237:17363   */\n    tag_442:\n        /* \"#utility.yul\":17287:17296   */\n      0x00\n        /* \"#utility.yul\":17320:17357   */\n      tag_446\n        /* \"#utility.yul\":17351:17356   */\n      dup3\n        /* \"#utility.yul\":17320:17357   */\n      tag_447\n      jump\t// in\n    tag_446:\n        /* \"#utility.yul\":17307:17357   */\n      swap1\n      pop\n        /* \"#utility.yul\":17237:17363   */\n      swap2\n      swap1\n      pop\n      jump\t// out\n        /* \"#utility.yul\":17369:17482   */\n    tag_447:\n        /* \"#utility.yul\":17419:17428   */\n      0x00\n        /* \"#utility.yul\":17452:17476   */\n      tag_449\n        /* \"#utility.yul\":17470:17475   */\n      dup3\n        /* \"#utility.yul\":17452:17476   */\n      tag_435\n      jump\t// in\n    tag_449:\n        /* \"#utility.yul\":17439:17476   */\n      swap1\n      pop\n        /* \"#utility.yul\":17369:17482   */\n      swap2\n      swap1\n      pop\n      jump\t// out\n        /* \"#utility.yul\":17488:17795   */\n    tag_311:\n        /* \"#utility.yul\":17556:17557   */\n      0x00\n        /* \"#utility.yul\":17566:17679   */\n    tag_451:\n        /* \"#utility.yul\":17580:17586   */\n      dup4\n        /* \"#utility.yul\":17577:17578   */\n      dup2\n        /* \"#utility.yul\":17574:17587   */\n      lt\n        /* \"#utility.yul\":17566:17679   */\n      iszero\n      tag_453\n      jumpi\n        /* \"#utility.yul\":17665:17666   */\n      dup1\n        /* \"#utility.yul\":17660:17663   */\n      dup3\n        /* \"#utility.yul\":17656:17667   */\n      add\n        /* \"#utility.yul\":17650:17668   */\n      mload\n        /* \"#utility.yul\":17646:17647   */\n      dup2\n        /* \"#utility.yul\":17641:17644   */\n      dup5\n        /* \"#utility.yul\":17637:17648   */\n      add\n        /* \"#utility.yul\":17630:17669   */\n      mstore\n        /* \"#utility.yul\":17602:17604   */\n      0x20\n        /* \"#utility.yul\":17599:17600   */\n      dup2\n        /* \"#utility.yul\":17595:17605   */\n      add\n        /* \"#utility.yul\":17590:17605   */\n      swap1\n      pop\n        /* \"#utility.yul\":17566:17679   */\n      jump(tag_451)\n    tag_453:\n        /* \"#utility.yul\":17697:17703   */\n      dup4\n        /* \"#utility.yul\":17694:17695   */\n      dup2\n        /* \"#utility.yul\":17691:17704   */\n      gt\n        /* \"#utility.yul\":17688:17789   */\n      iszero\n      tag_454\n      jumpi\n        /* \"#utility.yul\":17777:17778   */\n      0x00\n        /* \"#utility.yul\":17768:17774   */\n      dup5\n        /* \"#utility.yul\":17763:17766   */\n      dup5\n        /* \"#utility.yul\":17759:17775   */\n      add\n        /* \"#utility.yul\":17752:17779   */\n      mstore\n        /* \"#utility.yul\":17688:17789   */\n    tag_454:\n        /* \"#utility.yul\":17537:17795   */\n      pop\n        /* \"#utility.yul\":17488:17795   */\n      pop\n      pop\n      pop\n      jump\t// out\n        /* \"#utility.yul\":17801:18121   */\n    tag_115:\n        /* \"#utility.yul\":17845:17851   */\n      0x00\n        /* \"#utility.yul\":17882:17883   */\n      0x02\n        /* \"#utility.yul\":17876:17880   */\n      dup3\n        /* \"#utility.yul\":17872:17884   */\n      div\n        /* \"#utility.yul\":17862:17884   */\n      swap1\n      pop\n        /* \"#utility.yul\":17929:17930   */\n      0x01\n        /* \"#utility.yul\":17923:17927   */\n      dup3\n        /* \"#utility.yul\":17919:17931   */\n      and\n        /* \"#utility.yul\":17950:17968   */\n      dup1\n        /* \"#utility.yul\":17940:18021   */\n      tag_456\n      jumpi\n        /* \"#utility.yul\":18006:18010   */\n      0x7f\n        /* \"#utility.yul\":17998:18004   */\n      dup3\n        /* \"#utility.yul\":17994:18011   */\n      and\n        /* \"#utility.yul\":17984:18011   */\n      swap2\n      pop\n        /* \"#utility.yul\":17940:18021   */\n    tag_456:\n        /* \"#utility.yul\":18068:18070   */\n      0x20\n        /* \"#utility.yul\":18060:18066   */\n      dup3\n        /* \"#utility.yul\":18057:18071   */\n      lt\n        /* \"#utility.yul\":18037:18055   */\n      dup2\n        /* \"#utility.yul\":18034:18072   */\n      eq\n        /* \"#utility.yul\":18031:18115   */\n      iszero\n      tag_457\n      jumpi\n        /* \"#utility.yul\":18087:18105   */\n      tag_458\n      tag_459\n      jump\t// in\n    tag_458:\n        /* \"#utility.yul\":18031:18115   */\n    tag_457:\n        /* \"#utility.yul\":17852:18121   */\n      pop\n        /* \"#utility.yul\":17801:18121   */\n      swap2\n      swap1\n      pop\n      jump\t// out\n        /* \"#utility.yul\":18127:18307   */\n    tag_422:\n        /* \"#utility.yul\":18175:18252   */\n      0x4e487b7100000000000000000000000000000000000000000000000000000000\n        /* \"#utility.yul\":18172:18173   */\n      0x00\n        /* \"#utility.yul\":18165:18253   */\n      mstore\n        /* \"#utility.yul\":18272:18276   */\n      0x11\n        /* \"#utility.yul\":18269:18270   */\n      0x04\n        /* \"#utility.yul\":18262:18277   */\n      mstore\n        /* \"#utility.yul\":18296:18300   */\n      0x24\n        /* \"#utility.yul\":18293:18294   */\n      0x00\n        /* \"#utility.yul\":18286:18301   */\n      revert\n        /* \"#utility.yul\":18313:18493   */\n    tag_459:\n        /* \"#utility.yul\":18361:18438   */\n      0x4e487b7100000000000000000000000000000000000000000000000000000000\n        /* \"#utility.yul\":18358:18359   */\n      0x00\n        /* \"#utility.yul\":18351:18439   */\n      mstore\n        /* \"#utility.yul\":18458:18462   */\n      0x22\n        /* \"#utility.yul\":18455:18456   */\n      0x04\n        /* \"#utility.yul\":18448:18463   */\n      mstore\n        /* \"#utility.yul\":18482:18486   */\n      0x24\n        /* \"#utility.yul\":18479:18480   */\n      0x00\n        /* \"#utility.yul\":18472:18487   */\n      revert\n        /* \"#utility.yul\":18622:18739   */\n    tag_258:\n        /* \"#utility.yul\":18731:18732   */\n      0x00\n        /* \"#utility.yul\":18728:18729   */\n      dup1\n        /* \"#utility.yul\":18721:18733   */\n      revert\n        /* \"#utility.yul\":18745:18847   */\n    tag_313:\n        /* \"#utility.yul\":18786:18792   */\n      0x00\n        /* \"#utility.yul\":18837:18839   */\n      0x1f\n        /* \"#utility.yul\":18833:18840   */\n      not\n        /* \"#utility.yul\":18828:18830   */\n      0x1f\n        /* \"#utility.yul\":18821:18826   */\n      dup4\n        /* \"#utility.yul\":18817:18831   */\n      add\n        /* \"#utility.yul\":18813:18841   */\n      and\n        /* \"#utility.yul\":18803:18841   */\n      swap1\n      pop\n        /* \"#utility.yul\":18745:18847   */\n      swap2\n      swap1\n      pop\n      jump\t// out\n        /* \"#utility.yul\":18853:19075   */\n    tag_318:\n        /* \"#utility.yul\":18993:19027   */\n      0x45524332303a207472616e7366657220746f20746865207a65726f2061646472\n        /* \"#utility.yul\":18989:18990   */\n      0x00\n        /* \"#utility.yul\":18981:18987   */\n      dup3\n        /* \"#utility.yul\":18977:18991   */\n      add\n        /* \"#utility.yul\":18970:19028   */\n      mstore\n        /* \"#utility.yul\":19062:19067   */\n      0x6573730000000000000000000000000000000000000000000000000000000000\n        /* \"#utility.yul\":19057:19059   */\n      0x20\n        /* \"#utility.yul\":19049:19055   */\n      dup3\n        /* \"#utility.yul\":19045:19060   */\n      add\n        /* \"#utility.yul\":19038:19068   */\n      mstore\n        /* \"#utility.yul\":18853:19075   */\n      pop\n      jump\t// out\n        /* \"#utility.yul\":19081:19302   */\n    tag_323:\n        /* \"#utility.yul\":19221:19255   */\n      0x45524332303a20617070726f766520746f20746865207a65726f206164647265\n        /* \"#utility.yul\":19217:19218   */\n      0x00\n        /* \"#utility.yul\":19209:19215   */\n      dup3\n        /* \"#utility.yul\":19205:19219   */\n      add\n        /* \"#utility.yul\":19198:19256   */\n      mstore\n        /* \"#utility.yul\":19290:19294   */\n      0x7373000000000000000000000000000000000000000000000000000000000000\n        /* \"#utility.yul\":19285:19287   */\n      0x20\n        /* \"#utility.yul\":19277:19283   */\n      dup3\n        /* \"#utility.yul\":19273:19288   */\n      add\n        /* \"#utility.yul\":19266:19295   */\n      mstore\n        /* \"#utility.yul\":19081:19302   */\n      pop\n      jump\t// out\n        /* \"#utility.yul\":19308:19487   */\n    tag_328:\n        /* \"#utility.yul\":19448:19479   */\n      0x45524332303a20696e73756666696369656e7420616c6c6f77616e6365000000\n        /* \"#utility.yul\":19444:19445   */\n      0x00\n        /* \"#utility.yul\":19436:19442   */\n      dup3\n        /* \"#utility.yul\":19432:19446   */\n      add\n        /* \"#utility.yul\":19425:19480   */\n      mstore\n        /* \"#utility.yul\":19308:19487   */\n      pop\n      jump\t// out\n        /* \"#utility.yul\":19493:19718   */\n    tag_333:\n        /* \"#utility.yul\":19633:19667   */\n      0x45524332303a207472616e7366657220616d6f756e7420657863656564732062\n        /* \"#utility.yul\":19629:19630   */\n      0x00\n        /* \"#utility.yul\":19621:19627   */\n      dup3\n        /* \"#utility.yul\":19617:19631   */\n      add\n        /* \"#utility.yul\":19610:19668   */\n      mstore\n        /* \"#utility.yul\":19702:19710   */\n      0x616c616e63650000000000000000000000000000000000000000000000000000\n        /* \"#utility.yul\":19697:19699   */\n      0x20\n        /* \"#utility.yul\":19689:19695   */\n      dup3\n        /* \"#utility.yul\":19685:19700   */\n      add\n        /* \"#utility.yul\":19678:19711   */\n      mstore\n        /* \"#utility.yul\":19493:19718   */\n      pop\n      jump\t// out\n        /* \"#utility.yul\":19724:19884   */\n    tag_338:\n        /* \"#utility.yul\":19864:19876   */\n      0x6f6e6c792061646d696e00000000000000000000000000000000000000000000\n        /* \"#utility.yul\":19860:19861   */\n      0x00\n        /* \"#utility.yul\":19852:19858   */\n      dup3\n        /* \"#utility.yul\":19848:19862   */\n      add\n        /* \"#utility.yul\":19841:19877   */\n      mstore\n        /* \"#utility.yul\":19724:19884   */\n      pop\n      jump\t// out\n        /* \"#utility.yul\":19890:20114   */\n    tag_343:\n        /* \"#utility.yul\":20030:20064   */\n      0x45524332303a207472616e736665722066726f6d20746865207a65726f206164\n        /* \"#utility.yul\":20026:20027   */\n      0x00\n        /* \"#utility.yul\":20018:20024   */\n      dup3\n        /* \"#utility.yul\":20014:20028   */\n      add\n        /* \"#utility.yul\":20007:20065   */\n      mstore\n        /* \"#utility.yul\":20099:20106   */\n      0x6472657373000000000000000000000000000000000000000000000000000000\n        /* \"#utility.yul\":20094:20096   */\n      0x20\n        /* \"#utility.yul\":20086:20092   */\n      dup3\n        /* \"#utility.yul\":20082:20097   */\n      add\n        /* \"#utility.yul\":20075:20107   */\n      mstore\n        /* \"#utility.yul\":19890:20114   */\n      pop\n      jump\t// out\n        /* \"#utility.yul\":20120:20343   */\n    tag_348:\n        /* \"#utility.yul\":20260:20294   */\n      0x45524332303a20617070726f76652066726f6d20746865207a65726f20616464\n        /* \"#utility.yul\":20256:20257   */\n      0x00\n        /* \"#utility.yul\":20248:20254   */\n      dup3\n        /* \"#utility.yul\":20244:20258   */\n      add\n        /* \"#utility.yul\":20237:20295   */\n      mstore\n        /* \"#utility.yul\":20329:20335   */\n      0x7265737300000000000000000000000000000000000000000000000000000000\n        /* \"#utility.yul\":20324:20326   */\n      0x20\n        /* \"#utility.yul\":20316:20322   */\n      dup3\n        /* \"#utility.yul\":20312:20327   */\n      add\n        /* \"#utility.yul\":20305:20336   */\n      mstore\n        /* \"#utility.yul\":20120:20343   */\n      pop\n      jump\t// out\n        /* \"#utility.yul\":20349:20521   */\n    tag_353:\n        /* \"#utility.yul\":20489:20513   */\n      0x6e6f7420656e6f75676820736861726573206c65667400000000000000000000\n        /* \"#utility.yul\":20485:20486   */\n      0x00\n        /* \"#utility.yul\":20477:20483   */\n      dup3\n        /* \"#utility.yul\":20473:20487   */\n      add\n        /* \"#utility.yul\":20466:20514   */\n      mstore\n        /* \"#utility.yul\":20349:20521   */\n      pop\n      jump\t// out\n        /* \"#utility.yul\":20527:20751   */\n    tag_358:\n        /* \"#utility.yul\":20667:20701   */\n      0x45524332303a2064656372656173656420616c6c6f77616e63652062656c6f77\n        /* \"#utility.yul\":20663:20664   */\n      0x00\n        /* \"#utility.yul\":20655:20661   */\n      dup3\n        /* \"#utility.yul\":20651:20665   */\n      add\n        /* \"#utility.yul\":20644:20702   */\n      mstore\n        /* \"#utility.yul\":20736:20743   */\n      0x207a65726f000000000000000000000000000000000000000000000000000000\n        /* \"#utility.yul\":20731:20733   */\n      0x20\n        /* \"#utility.yul\":20723:20729   */\n      dup3\n        /* \"#utility.yul\":20719:20734   */\n      add\n        /* \"#utility.yul\":20712:20744   */\n      mstore\n        /* \"#utility.yul\":20527:20751   */\n      pop\n      jump\t// out\n        /* \"#utility.yul\":20757:20938   */\n    tag_363:\n        /* \"#utility.yul\":20897:20930   */\n      0x45524332303a206d696e7420746f20746865207a65726f206164647265737300\n        /* \"#utility.yul\":20893:20894   */\n      0x00\n        /* \"#utility.yul\":20885:20891   */\n      dup3\n        /* \"#utility.yul\":20881:20895   */\n      add\n        /* \"#utility.yul\":20874:20931   */\n      mstore\n        /* \"#utility.yul\":20757:20938   */\n      pop\n      jump\t// out\n        /* \"#utility.yul\":20944:21066   */\n    tag_243:\n        /* \"#utility.yul\":21017:21041   */\n      tag_477\n        /* \"#utility.yul\":21035:21040   */\n      dup2\n        /* \"#utility.yul\":21017:21041   */\n      tag_291\n      jump\t// in\n    tag_477:\n        /* \"#utility.yul\":21010:21015   */\n      dup2\n        /* \"#utility.yul\":21007:21042   */\n      eq\n        /* \"#utility.yul\":20997:21060   */\n      tag_478\n      jumpi\n        /* \"#utility.yul\":21056:21057   */\n      0x00\n        /* \"#utility.yul\":21053:21054   */\n      dup1\n        /* \"#utility.yul\":21046:21058   */\n      revert\n        /* \"#utility.yul\":20997:21060   */\n    tag_478:\n        /* \"#utility.yul\":20944:21066   */\n      pop\n      jump\t// out\n        /* \"#utility.yul\":21072:21188   */\n    tag_247:\n        /* \"#utility.yul\":21142:21163   */\n      tag_480\n        /* \"#utility.yul\":21157:21162   */\n      dup2\n        /* \"#utility.yul\":21142:21163   */\n      tag_295\n      jump\t// in\n    tag_480:\n        /* \"#utility.yul\":21135:21140   */\n      dup2\n        /* \"#utility.yul\":21132:21164   */\n      eq\n        /* \"#utility.yul\":21122:21182   */\n      tag_481\n      jumpi\n        /* \"#utility.yul\":21178:21179   */\n      0x00\n        /* \"#utility.yul\":21175:21176   */\n      dup1\n        /* \"#utility.yul\":21168:21180   */\n      revert\n        /* \"#utility.yul\":21122:21182   */\n    tag_481:\n        /* \"#utility.yul\":21072:21188   */\n      pop\n      jump\t// out\n        /* \"#utility.yul\":21194:21316   */\n    tag_251:\n        /* \"#utility.yul\":21267:21291   */\n      tag_483\n        /* \"#utility.yul\":21285:21290   */\n      dup2\n        /* \"#utility.yul\":21267:21291   */\n      tag_367\n      jump\t// in\n    tag_483:\n        /* \"#utility.yul\":21260:21265   */\n      dup2\n        /* \"#utility.yul\":21257:21292   */\n      eq\n        /* \"#utility.yul\":21247:21310   */\n      tag_484\n      jumpi\n        /* \"#utility.yul\":21306:21307   */\n      0x00\n        /* \"#utility.yul\":21303:21304   */\n      dup1\n        /* \"#utility.yul\":21296:21308   */\n      revert\n        /* \"#utility.yul\":21247:21310   */\n    tag_484:\n        /* \"#utility.yul\":21194:21316   */\n      pop\n      jump\t// out\n\n    auxdata: 0xa26469706673582212207b5beec637ccdb143bd21557284b8f4d30613987e7813490eef50db3375bdb4764736f6c63430008070033\n}\n",
				"bytecode": {
					"linkReferences": {},
					"object": "60806040526000600b60146101000a81548160ff0219169083151502179055503480156200002c57600080fd5b506040516200241b3803806200241b8339818101604052810190620000529190620002e1565b868681600390805190602001906200006c92919062000185565b5080600490805190602001906200008592919062000185565b5050508360088190555084600960006101000a81548173ffffffffffffffffffffffffffffffffffffffff021916908373ffffffffffffffffffffffffffffffffffffffff160217905550826005819055508160068190555080600a60006101000a81548173ffffffffffffffffffffffffffffffffffffffff021916908373ffffffffffffffffffffffffffffffffffffffff16021790555033600b60006101000a81548173ffffffffffffffffffffffffffffffffffffffff021916908373ffffffffffffffffffffffffffffffffffffffff16021790555060055460065462000172919062000431565b6007819055505050505050505062000658565b828054620001939062000506565b90600052602060002090601f016020900481019282620001b7576000855562000203565b82601f10620001d257805160ff191683800117855562000203565b8280016001018555821562000203579182015b8281111562000202578251825591602001919060010190620001e5565b5b50905062000212919062000216565b5090565b5b808211156200023157600081600090555060010162000217565b5090565b60006200024c6200024684620003fb565b620003d2565b9050828152602081018484840111156200026b576200026a62000604565b5b62000278848285620004d0565b509392505050565b600081519050620002918162000624565b92915050565b600082601f830112620002af57620002ae620005ff565b5b8151620002c184826020860162000235565b91505092915050565b600081519050620002db816200063e565b92915050565b600080600080600080600060e0888a0312156200030357620003026200060e565b5b600088015167ffffffffffffffff81111562000324576200032362000609565b5b620003328a828b0162000297565b975050602088015167ffffffffffffffff81111562000356576200035562000609565b5b620003648a828b0162000297565b9650506040620003778a828b0162000280565b95505060606200038a8a828b01620002ca565b94505060806200039d8a828b01620002ca565b93505060a0620003b08a828b01620002ca565b92505060c0620003c38a828b0162000280565b91505092959891949750929550565b6000620003de620003f1565b9050620003ec82826200053c565b919050565b6000604051905090565b600067ffffffffffffffff821115620004195762000418620005d0565b5b620004248262000613565b9050602081019050919050565b60006200043e82620004c6565b91506200044b83620004c6565b9250817fffffffffffffffffffffffffffffffffffffffffffffffffffffffffffffffff048311821515161562000487576200048662000572565b5b828202905092915050565b60006200049f82620004a6565b9050919050565b600073ffffffffffffffffffffffffffffffffffffffff82169050919050565b6000819050919050565b60005b83811015620004f0578082015181840152602081019050620004d3565b8381111562000500576000848401525b50505050565b600060028204905060018216806200051f57607f821691505b60208210811415620005365762000535620005a1565b5b50919050565b620005478262000613565b810181811067ffffffffffffffff82111715620005695762000568620005d0565b5b80604052505050565b7f4e487b7100000000000000000000000000000000000000000000000000000000600052601160045260246000fd5b7f4e487b7100000000000000000000000000000000000000000000000000000000600052602260045260246000fd5b7f4e487b7100000000000000000000000000000000000000000000000000000000600052604160045260246000fd5b600080fd5b600080fd5b600080fd5b600080fd5b6000601f19601f8301169050919050565b6200062f8162000492565b81146200063b57600080fd5b50565b6200064981620004c6565b81146200065557600080fd5b50565b611db380620006686000396000f3fe608060405234801561001057600080fd5b50600436106101425760003560e01c80634fe6f55f116100b8578063a9059cbb1161007c578063a9059cbb1461037f578063a9ed6e9a146103af578063c6bc5182146103cb578063dd62ed3e146103e9578063f4b9fa7514610419578063f851a4401461043757610142565b80634fe6f55f146102c557806370a08231146102e357806395d89b41146103135780639ce15a3814610331578063a457c2d71461034f57610142565b8063313ce5671161010a578063313ce567146101ed578063395093511461020b5780633e47d6f31461023b578063479afbf91461026b57806347ccca021461028957806348c7a0bf146102a757610142565b806306fdde0314610147578063095ea7b31461016557806318160ddd146101955780631fed217d146101b357806323b872dd146101bd575b600080fd5b61014f610455565b60405161015c91906116ac565b60405180910390f35b61017f600480360381019061017a9190611328565b6104e7565b60405161018c919061165b565b60405180910390f35b61019d61050a565b6040516101aa919061180e565b60405180910390f35b6101bb610514565b005b6101d760048036038101906101d291906112d5565b610782565b6040516101e4919061165b565b60405180910390f35b6101f56107b1565b6040516102029190611829565b60405180910390f35b61022560048036038101906102209190611328565b6107ba565b604051610232919061165b565b60405180910390f35b61025560048036038101906102509190611268565b6107f1565b604051610262919061180e565b60405180910390f35b610273610809565b604051610280919061180e565b60405180910390f35b61029161080f565b60405161029e9190611691565b60405180910390f35b6102af610835565b6040516102bc919061180e565b60405180910390f35b6102cd61083b565b6040516102da919061180e565b60405180910390f35b6102fd60048036038101906102f89190611268565b610841565b60405161030a919061180e565b60405180910390f35b61031b610889565b60405161032891906116ac565b60405180910390f35b61033961091b565b604051610346919061165b565b60405180910390f35b61036960048036038101906103649190611328565b61092e565b604051610376919061165b565b60405180910390f35b61039960048036038101906103949190611328565b6109a5565b6040516103a6919061165b565b60405180910390f35b6103c960048036038101906103c49190611395565b6109c8565b005b6103d3610af1565b6040516103e0919061180e565b60405180910390f35b61040360048036038101906103fe9190611295565b610af7565b604051610410919061180e565b60405180910390f35b610421610b7e565b60405161042e9190611676565b60405180910390f35b61043f610ba4565b60405161044c91906115e0565b60405180910390f35b60606003805461046490611a14565b80601f016020809104026020016040519081016040528092919081815260200182805461049090611a14565b80156104dd5780601f106104b2576101008083540402835291602001916104dd565b820191906000526020600020905b8154815290600101906020018083116104c057829003601f168201915b5050505050905090565b6000806104f2610bca565b90506104ff818585610bd2565b600191505092915050565b6000600254905090565b600b60009054906101000a900473ffffffffffffffffffffffffffffffffffffffff1673ffffffffffffffffffffffffffffffffffffffff163373ffffffffffffffffffffffffffffffffffffffff16146105a4576040517f08c379a000000000000000000000000000000000000000000000000000000000815260040161059b9061174e565b60405180910390fd5b6000600a60009054906101000a900473ffffffffffffffffffffffffffffffffffffffff1673ffffffffffffffffffffffffffffffffffffffff166370a08231306040518263ffffffff1660e01b815260040161060191906115e0565b60206040518083038186803b15801561061957600080fd5b505afa15801561062d573d6000803e3d6000fd5b505050506040513d601f19601f8201168201806040525081019061065191906113c2565b9050600081111561072f57600a60009054906101000a900473ffffffffffffffffffffffffffffffffffffffff1673ffffffffffffffffffffffffffffffffffffffff1663a9059cbb600b60009054906101000a900473ffffffffffffffffffffffffffffffffffffffff16836040518363ffffffff1660e01b81526004016106db929190611632565b602060405180830381600087803b1580156106f557600080fd5b505af1158015610709573d6000803e3d6000fd5b505050506040513d601f19601f8201168201806040525081019061072d9190611368565b505b600061073961050a565b6006546107469190611910565b9050600081111561077e5761077d600b60009054906101000a900473ffffffffffffffffffffffffffffffffffffffff1682610d9d565b5b5050565b60008061078d610bca565b905061079a858285610efd565b6107a5858585610f89565b60019150509392505050565b60006012905090565b6000806107c5610bca565b90506107e68185856107d78589610af7565b6107e19190611860565b610bd2565b600191505092915050565b600c6020528060005260406000206000915090505481565b60065481565b600960009054906101000a900473ffffffffffffffffffffffffffffffffffffffff1681565b60055481565b60075481565b60008060008373ffffffffffffffffffffffffffffffffffffffff1673ffffffffffffffffffffffffffffffffffffffff168152602001908152602001600020549050919050565b60606004805461089890611a14565b80601f01602080910402602001604051908101604052809291908181526020018280546108c490611a14565b80156109115780601f106108e657610100808354040283529160200191610911565b820191906000526020600020905b8154815290600101906020018083116108f457829003601f168201915b5050505050905090565b600b60149054906101000a900460ff1681565b600080610939610bca565b905060006109478286610af7565b90508381101561098c576040517f08c379a0000000000000000000000000000000000000000000000000000000008152600401610983906117ce565b60405180910390fd5b6109998286868403610bd2565b60019250505092915050565b6000806109b0610bca565b90506109bd818585610f89565b600191505092915050565b600654816109d461050a565b6109de9190611860565b1115610a1f576040517f08c379a0000000000000000000000000000000000000000000000000000000008152600401610a16906117ae565b60405180910390fd5b600060055482610a2f91906118b6565b9050600a60009054906101000a900473ffffffffffffffffffffffffffffffffffffffff1673ffffffffffffffffffffffffffffffffffffffff166323b872dd3330846040518463ffffffff1660e01b8152600401610a90939291906115fb565b602060405180830381600087803b158015610aaa57600080fd5b505af1158015610abe573d6000803e3d6000fd5b505050506040513d601f19601f82011682018060405250810190610ae29190611368565b50610aed3383610d9d565b5050565b60085481565b6000600160008473ffffffffffffffffffffffffffffffffffffffff1673ffffffffffffffffffffffffffffffffffffffff16815260200190815260200160002060008373ffffffffffffffffffffffffffffffffffffffff1673ffffffffffffffffffffffffffffffffffffffff16815260200190815260200160002054905092915050565b600a60009054906101000a900473ffffffffffffffffffffffffffffffffffffffff1681565b600b60009054906101000a900473ffffffffffffffffffffffffffffffffffffffff1681565b600033905090565b600073ffffffffffffffffffffffffffffffffffffffff168373ffffffffffffffffffffffffffffffffffffffff161415610c42576040517f08c379a0000000000000000000000000000000000000000000000000000000008152600401610c399061178e565b60405180910390fd5b600073ffffffffffffffffffffffffffffffffffffffff168273ffffffffffffffffffffffffffffffffffffffff161415610cb2576040517f08c379a0000000000000000000000000000000000000000000000000000000008152600401610ca9906116ee565b60405180910390fd5b80600160008573ffffffffffffffffffffffffffffffffffffffff1673ffffffffffffffffffffffffffffffffffffffff16815260200190815260200160002060008473ffffffffffffffffffffffffffffffffffffffff1673ffffffffffffffffffffffffffffffffffffffff168152602001908152602001600020819055508173ffffffffffffffffffffffffffffffffffffffff168373ffffffffffffffffffffffffffffffffffffffff167f8c5be1e5ebec7d5bd14f71427d1e84f3dd0314c0f7b2291e5b200ac8c7c3b92583604051610d90919061180e565b60405180910390a3505050565b600073ffffffffffffffffffffffffffffffffffffffff168273ffffffffffffffffffffffffffffffffffffffff161415610e0d576040517f08c379a0000000000000000000000000000000000000000000000000000000008152600401610e04906117ee565b60405180910390fd5b610e196000838361120a565b8060026000828254610e2b9190611860565b92505081905550806000808473ffffffffffffffffffffffffffffffffffffffff1673ffffffffffffffffffffffffffffffffffffffff1681526020019081526020016000206000828254610e809190611860565b925050819055508173ffffffffffffffffffffffffffffffffffffffff16600073ffffffffffffffffffffffffffffffffffffffff167fddf252ad1be2c89b69c2b068fc378daa952ba7f163c4a11628f55a4df523b3ef83604051610ee5919061180e565b60405180910390a3610ef96000838361120f565b5050565b6000610f098484610af7565b90507fffffffffffffffffffffffffffffffffffffffffffffffffffffffffffffffff8114610f835781811015610f75576040517f08c379a0000000000000000000000000000000000000000000000000000000008152600401610f6c9061170e565b60405180910390fd5b610f828484848403610bd2565b5b50505050565b600073ffffffffffffffffffffffffffffffffffffffff168373ffffffffffffffffffffffffffffffffffffffff161415610ff9576040517f08c379a0000000000000000000000000000000000000000000000000000000008152600401610ff09061176e565b60405180910390fd5b600073ffffffffffffffffffffffffffffffffffffffff168273ffffffffffffffffffffffffffffffffffffffff161415611069576040517f08c379a0000000000000000000000000000000000000000000000000000000008152600401611060906116ce565b60405180910390fd5b61107483838361120a565b60008060008573ffffffffffffffffffffffffffffffffffffffff1673ffffffffffffffffffffffffffffffffffffffff168152602001908152602001600020549050818110156110fa576040517f08c379a00000000000000000000000000000000000000000000000000000000081526004016110f19061172e565b60405180910390fd5b8181036000808673ffffffffffffffffffffffffffffffffffffffff1673ffffffffffffffffffffffffffffffffffffffff16815260200190815260200160002081905550816000808573ffffffffffffffffffffffffffffffffffffffff1673ffffffffffffffffffffffffffffffffffffffff168152602001908152602001600020600082825461118d9190611860565b925050819055508273ffffffffffffffffffffffffffffffffffffffff168473ffffffffffffffffffffffffffffffffffffffff167fddf252ad1be2c89b69c2b068fc378daa952ba7f163c4a11628f55a4df523b3ef846040516111f1919061180e565b60405180910390a361120484848461120f565b50505050565b505050565b505050565b60008135905061122381611d38565b92915050565b60008151905061123881611d4f565b92915050565b60008135905061124d81611d66565b92915050565b60008151905061126281611d66565b92915050565b60006020828403121561127e5761127d611aa4565b5b600061128c84828501611214565b91505092915050565b600080604083850312156112ac576112ab611aa4565b5b60006112ba85828601611214565b92505060206112cb85828601611214565b9150509250929050565b6000806000606084860312156112ee576112ed611aa4565b5b60006112fc86828701611214565b935050602061130d86828701611214565b925050604061131e8682870161123e565b9150509250925092565b6000806040838503121561133f5761133e611aa4565b5b600061134d85828601611214565b925050602061135e8582860161123e565b9150509250929050565b60006020828403121561137e5761137d611aa4565b5b600061138c84828501611229565b91505092915050565b6000602082840312156113ab576113aa611aa4565b5b60006113b98482850161123e565b91505092915050565b6000602082840312156113d8576113d7611aa4565b5b60006113e684828501611253565b91505092915050565b6113f881611944565b82525050565b61140781611956565b82525050565b61141681611999565b82525050565b611425816119ab565b82525050565b600061143682611844565b611440818561184f565b93506114508185602086016119e1565b61145981611aa9565b840191505092915050565b600061147160238361184f565b915061147c82611aba565b604082019050919050565b600061149460228361184f565b915061149f82611b09565b604082019050919050565b60006114b7601d8361184f565b91506114c282611b58565b602082019050919050565b60006114da60268361184f565b91506114e582611b81565b604082019050919050565b60006114fd600a8361184f565b915061150882611bd0565b602082019050919050565b600061152060258361184f565b915061152b82611bf9565b604082019050919050565b600061154360248361184f565b915061154e82611c48565b604082019050919050565b600061156660168361184f565b915061157182611c97565b602082019050919050565b600061158960258361184f565b915061159482611cc0565b604082019050919050565b60006115ac601f8361184f565b91506115b782611d0f565b602082019050919050565b6115cb81611982565b82525050565b6115da8161198c565b82525050565b60006020820190506115f560008301846113ef565b92915050565b600060608201905061161060008301866113ef565b61161d60208301856113ef565b61162a60408301846115c2565b949350505050565b600060408201905061164760008301856113ef565b61165460208301846115c2565b9392505050565b600060208201905061167060008301846113fe565b92915050565b600060208201905061168b600083018461140d565b92915050565b60006020820190506116a6600083018461141c565b92915050565b600060208201905081810360008301526116c6818461142b565b905092915050565b600060208201905081810360008301526116e781611464565b9050919050565b6000602082019050818103600083015261170781611487565b9050919050565b60006020820190508181036000830152611727816114aa565b9050919050565b60006020820190508181036000830152611747816114cd565b9050919050565b60006020820190508181036000830152611767816114f0565b9050919050565b6000602082019050818103600083015261178781611513565b9050919050565b600060208201905081810360008301526117a781611536565b9050919050565b600060208201905081810360008301526117c781611559565b9050919050565b600060208201905081810360008301526117e78161157c565b9050919050565b600060208201905081810360008301526118078161159f565b9050919050565b600060208201905061182360008301846115c2565b92915050565b600060208201905061183e60008301846115d1565b92915050565b600081519050919050565b600082825260208201905092915050565b600061186b82611982565b915061187683611982565b9250827fffffffffffffffffffffffffffffffffffffffffffffffffffffffffffffffff038211156118ab576118aa611a46565b5b828201905092915050565b60006118c182611982565b91506118cc83611982565b9250817fffffffffffffffffffffffffffffffffffffffffffffffffffffffffffffffff048311821515161561190557611904611a46565b5b828202905092915050565b600061191b82611982565b915061192683611982565b92508282101561193957611938611a46565b5b828203905092915050565b600061194f82611962565b9050919050565b60008115159050919050565b600073ffffffffffffffffffffffffffffffffffffffff82169050919050565b6000819050919050565b600060ff82169050919050565b60006119a4826119bd565b9050919050565b60006119b6826119bd565b9050919050565b60006119c8826119cf565b9050919050565b60006119da82611962565b9050919050565b60005b838110156119ff5780820151818401526020810190506119e4565b83811115611a0e576000848401525b50505050565b60006002820490506001821680611a2c57607f821691505b60208210811415611a4057611a3f611a75565b5b50919050565b7f4e487b7100000000000000000000000000000000000000000000000000000000600052601160045260246000fd5b7f4e487b7100000000000000000000000000000000000000000000000000000000600052602260045260246000fd5b600080fd5b6000601f19601f8301169050919050565b7f45524332303a207472616e7366657220746f20746865207a65726f206164647260008201527f6573730000000000000000000000000000000000000000000000000000000000602082015250565b7f45524332303a20617070726f766520746f20746865207a65726f20616464726560008201527f7373000000000000000000000000000000000000000000000000000000000000602082015250565b7f45524332303a20696e73756666696369656e7420616c6c6f77616e6365000000600082015250565b7f45524332303a207472616e7366657220616d6f756e742065786365656473206260008201527f616c616e63650000000000000000000000000000000000000000000000000000602082015250565b7f6f6e6c792061646d696e00000000000000000000000000000000000000000000600082015250565b7f45524332303a207472616e736665722066726f6d20746865207a65726f20616460008201527f6472657373000000000000000000000000000000000000000000000000000000602082015250565b7f45524332303a20617070726f76652066726f6d20746865207a65726f2061646460008201527f7265737300000000000000000000000000000000000000000000000000000000602082015250565b7f6e6f7420656e6f75676820736861726573206c65667400000000000000000000600082015250565b7f45524332303a2064656372656173656420616c6c6f77616e63652062656c6f7760008201527f207a65726f000000000000000000000000000000000000000000000000000000602082015250565b7f45524332303a206d696e7420746f20746865207a65726f206164647265737300600082015250565b611d4181611944565b8114611d4c57600080fd5b50565b611d5881611956565b8114611d6357600080fd5b50565b611d6f81611982565b8114611d7a57600080fd5b5056fea26469706673582212207b5beec637ccdb143bd21557284b8f4d30613987e7813490eef50db3375bdb4764736f6c63430008070033",
					"opcodes": "PUSH1 0x80 PUSH1 0x40 MSTORE PUSH1 0x0 PUSH1 0xB PUSH1 0x14 PUSH2 0x100 EXP DUP2 SLOAD DUP2 PUSH1 0xFF MUL NOT AND SWAP1 DUP4 ISZERO ISZERO MUL OR SWAP1 SSTORE POP CALLVALUE DUP1 ISZERO PUSH3 0x2C JUMPI PUSH1 0x0 DUP1 REVERT JUMPDEST POP PUSH1 0x40 MLOAD PUSH3 0x241B CODESIZE SUB DUP1 PUSH3 0x241B DUP4 CODECOPY DUP2 DUP2 ADD PUSH1 0x40 MSTORE DUP2 ADD SWAP1 PUSH3 0x52 SWAP2 SWAP1 PUSH3 0x2E1 JUMP JUMPDEST DUP7 DUP7 DUP2 PUSH1 0x3 SWAP1 DUP1 MLOAD SWAP1 PUSH1 0x20 ADD SWAP1 PUSH3 0x6C SWAP3 SWAP2 SWAP1 PUSH3 0x185 JUMP JUMPDEST POP DUP1 PUSH1 0x4 SWAP1 DUP1 MLOAD SWAP1 PUSH1 0x20 ADD SWAP1 PUSH3 0x85 SWAP3 SWAP2 SWAP1 PUSH3 0x185 JUMP JUMPDEST POP POP POP DUP4 PUSH1 0x8 DUP2 SWAP1 SSTORE POP DUP5 PUSH1 0x9 PUSH1 0x0 PUSH2 0x100 EXP DUP2 SLOAD DUP2 PUSH20 0xFFFFFFFFFFFFFFFFFFFFFFFFFFFFFFFFFFFFFFFF MUL NOT AND SWAP1 DUP4 PUSH20 0xFFFFFFFFFFFFFFFFFFFFFFFFFFFFFFFFFFFFFFFF AND MUL OR SWAP1 SSTORE POP DUP3 PUSH1 0x5 DUP2 SWAP1 SSTORE POP DUP2 PUSH1 0x6 DUP2 SWAP1 SSTORE POP DUP1 PUSH1 0xA PUSH1 0x0 PUSH2 0x100 EXP DUP2 SLOAD DUP2 PUSH20 0xFFFFFFFFFFFFFFFFFFFFFFFFFFFFFFFFFFFFFFFF MUL NOT AND SWAP1 DUP4 PUSH20 0xFFFFFFFFFFFFFFFFFFFFFFFFFFFFFFFFFFFFFFFF AND MUL OR SWAP1 SSTORE POP CALLER PUSH1 0xB PUSH1 0x0 PUSH2 0x100 EXP DUP2 SLOAD DUP2 PUSH20 0xFFFFFFFFFFFFFFFFFFFFFFFFFFFFFFFFFFFFFFFF MUL NOT AND SWAP1 DUP4 PUSH20 0xFFFFFFFFFFFFFFFFFFFFFFFFFFFFFFFFFFFFFFFF AND MUL OR SWAP1 SSTORE POP PUSH1 0x5 SLOAD PUSH1 0x6 SLOAD PUSH3 0x172 SWAP2 SWAP1 PUSH3 0x431 JUMP JUMPDEST PUSH1 0x7 DUP2 SWAP1 SSTORE POP POP POP POP POP POP POP POP PUSH3 0x658 JUMP JUMPDEST DUP3 DUP1 SLOAD PUSH3 0x193 SWAP1 PUSH3 0x506 JUMP JUMPDEST SWAP1 PUSH1 0x0 MSTORE PUSH1 0x20 PUSH1 0x0 KECCAK256 SWAP1 PUSH1 0x1F ADD PUSH1 0x20 SWAP1 DIV DUP2 ADD SWAP3 DUP3 PUSH3 0x1B7 JUMPI PUSH1 0x0 DUP6 SSTORE PUSH3 0x203 JUMP JUMPDEST DUP3 PUSH1 0x1F LT PUSH3 0x1D2 JUMPI DUP1 MLOAD PUSH1 0xFF NOT AND DUP4 DUP1 ADD OR DUP6 SSTORE PUSH3 0x203 JUMP JUMPDEST DUP3 DUP1 ADD PUSH1 0x1 ADD DUP6 SSTORE DUP3 ISZERO PUSH3 0x203 JUMPI SWAP2 DUP3 ADD JUMPDEST DUP3 DUP2 GT ISZERO PUSH3 0x202 JUMPI DUP3 MLOAD DUP3 SSTORE SWAP2 PUSH1 0x20 ADD SWAP2 SWAP1 PUSH1 0x1 ADD SWAP1 PUSH3 0x1E5 JUMP JUMPDEST JUMPDEST POP SWAP1 POP PUSH3 0x212 SWAP2 SWAP1 PUSH3 0x216 JUMP JUMPDEST POP SWAP1 JUMP JUMPDEST JUMPDEST DUP1 DUP3 GT ISZERO PUSH3 0x231 JUMPI PUSH1 0x0 DUP2 PUSH1 0x0 SWAP1 SSTORE POP PUSH1 0x1 ADD PUSH3 0x217 JUMP JUMPDEST POP SWAP1 JUMP JUMPDEST PUSH1 0x0 PUSH3 0x24C PUSH3 0x246 DUP5 PUSH3 0x3FB JUMP JUMPDEST PUSH3 0x3D2 JUMP JUMPDEST SWAP1 POP DUP3 DUP2 MSTORE PUSH1 0x20 DUP2 ADD DUP5 DUP5 DUP5 ADD GT ISZERO PUSH3 0x26B JUMPI PUSH3 0x26A PUSH3 0x604 JUMP JUMPDEST JUMPDEST PUSH3 0x278 DUP5 DUP3 DUP6 PUSH3 0x4D0 JUMP JUMPDEST POP SWAP4 SWAP3 POP POP POP JUMP JUMPDEST PUSH1 0x0 DUP2 MLOAD SWAP1 POP PUSH3 0x291 DUP2 PUSH3 0x624 JUMP JUMPDEST SWAP3 SWAP2 POP POP JUMP JUMPDEST PUSH1 0x0 DUP3 PUSH1 0x1F DUP4 ADD SLT PUSH3 0x2AF JUMPI PUSH3 0x2AE PUSH3 0x5FF JUMP JUMPDEST JUMPDEST DUP2 MLOAD PUSH3 0x2C1 DUP5 DUP3 PUSH1 0x20 DUP7 ADD PUSH3 0x235 JUMP JUMPDEST SWAP2 POP POP SWAP3 SWAP2 POP POP JUMP JUMPDEST PUSH1 0x0 DUP2 MLOAD SWAP1 POP PUSH3 0x2DB DUP2 PUSH3 0x63E JUMP JUMPDEST SWAP3 SWAP2 POP POP JUMP JUMPDEST PUSH1 0x0 DUP1 PUSH1 0x0 DUP1 PUSH1 0x0 DUP1 PUSH1 0x0 PUSH1 0xE0 DUP9 DUP11 SUB SLT ISZERO PUSH3 0x303 JUMPI PUSH3 0x302 PUSH3 0x60E JUMP JUMPDEST JUMPDEST PUSH1 0x0 DUP9 ADD MLOAD PUSH8 0xFFFFFFFFFFFFFFFF DUP2 GT ISZERO PUSH3 0x324 JUMPI PUSH3 0x323 PUSH3 0x609 JUMP JUMPDEST JUMPDEST PUSH3 0x332 DUP11 DUP3 DUP12 ADD PUSH3 0x297 JUMP JUMPDEST SWAP8 POP POP PUSH1 0x20 DUP9 ADD MLOAD PUSH8 0xFFFFFFFFFFFFFFFF DUP2 GT ISZERO PUSH3 0x356 JUMPI PUSH3 0x355 PUSH3 0x609 JUMP JUMPDEST JUMPDEST PUSH3 0x364 DUP11 DUP3 DUP12 ADD PUSH3 0x297 JUMP JUMPDEST SWAP7 POP POP PUSH1 0x40 PUSH3 0x377 DUP11 DUP3 DUP12 ADD PUSH3 0x280 JUMP JUMPDEST SWAP6 POP POP PUSH1 0x60 PUSH3 0x38A DUP11 DUP3 DUP12 ADD PUSH3 0x2CA JUMP JUMPDEST SWAP5 POP POP PUSH1 0x80 PUSH3 0x39D DUP11 DUP3 DUP12 ADD PUSH3 0x2CA JUMP JUMPDEST SWAP4 POP POP PUSH1 0xA0 PUSH3 0x3B0 DUP11 DUP3 DUP12 ADD PUSH3 0x2CA JUMP JUMPDEST SWAP3 POP POP PUSH1 0xC0 PUSH3 0x3C3 DUP11 DUP3 DUP12 ADD PUSH3 0x280 JUMP JUMPDEST SWAP2 POP POP SWAP3 SWAP6 SWAP9 SWAP2 SWAP5 SWAP8 POP SWAP3 SWAP6 POP JUMP JUMPDEST PUSH1 0x0 PUSH3 0x3DE PUSH3 0x3F1 JUMP JUMPDEST SWAP1 POP PUSH3 0x3EC DUP3 DUP3 PUSH3 0x53C JUMP JUMPDEST SWAP2 SWAP1 POP JUMP JUMPDEST PUSH1 0x0 PUSH1 0x40 MLOAD SWAP1 POP SWAP1 JUMP JUMPDEST PUSH1 0x0 PUSH8 0xFFFFFFFFFFFFFFFF DUP3 GT ISZERO PUSH3 0x419 JUMPI PUSH3 0x418 PUSH3 0x5D0 JUMP JUMPDEST JUMPDEST PUSH3 0x424 DUP3 PUSH3 0x613 JUMP JUMPDEST SWAP1 POP PUSH1 0x20 DUP2 ADD SWAP1 POP SWAP2 SWAP1 POP JUMP JUMPDEST PUSH1 0x0 PUSH3 0x43E DUP3 PUSH3 0x4C6 JUMP JUMPDEST SWAP2 POP PUSH3 0x44B DUP4 PUSH3 0x4C6 JUMP JUMPDEST SWAP3 POP DUP2 PUSH32 0xFFFFFFFFFFFFFFFFFFFFFFFFFFFFFFFFFFFFFFFFFFFFFFFFFFFFFFFFFFFFFFFF DIV DUP4 GT DUP3 ISZERO ISZERO AND ISZERO PUSH3 0x487 JUMPI PUSH3 0x486 PUSH3 0x572 JUMP JUMPDEST JUMPDEST DUP3 DUP3 MUL SWAP1 POP SWAP3 SWAP2 POP POP JUMP JUMPDEST PUSH1 0x0 PUSH3 0x49F DUP3 PUSH3 0x4A6 JUMP JUMPDEST SWAP1 POP SWAP2 SWAP1 POP JUMP JUMPDEST PUSH1 0x0 PUSH20 0xFFFFFFFFFFFFFFFFFFFFFFFFFFFFFFFFFFFFFFFF DUP3 AND SWAP1 POP SWAP2 SWAP1 POP JUMP JUMPDEST PUSH1 0x0 DUP2 SWAP1 POP SWAP2 SWAP1 POP JUMP JUMPDEST PUSH1 0x0 JUMPDEST DUP4 DUP2 LT ISZERO PUSH3 0x4F0 JUMPI DUP1 DUP3 ADD MLOAD DUP2 DUP5 ADD MSTORE PUSH1 0x20 DUP2 ADD SWAP1 POP PUSH3 0x4D3 JUMP JUMPDEST DUP4 DUP2 GT ISZERO PUSH3 0x500 JUMPI PUSH1 0x0 DUP5 DUP5 ADD MSTORE JUMPDEST POP POP POP POP JUMP JUMPDEST PUSH1 0x0 PUSH1 0x2 DUP3 DIV SWAP1 POP PUSH1 0x1 DUP3 AND DUP1 PUSH3 0x51F JUMPI PUSH1 0x7F DUP3 AND SWAP2 POP JUMPDEST PUSH1 0x20 DUP3 LT DUP2 EQ ISZERO PUSH3 0x536 JUMPI PUSH3 0x535 PUSH3 0x5A1 JUMP JUMPDEST JUMPDEST POP SWAP2 SWAP1 POP JUMP JUMPDEST PUSH3 0x547 DUP3 PUSH3 0x613 JUMP JUMPDEST DUP2 ADD DUP2 DUP2 LT PUSH8 0xFFFFFFFFFFFFFFFF DUP3 GT OR ISZERO PUSH3 0x569 JUMPI PUSH3 0x568 PUSH3 0x5D0 JUMP JUMPDEST JUMPDEST DUP1 PUSH1 0x40 MSTORE POP POP POP JUMP JUMPDEST PUSH32 0x4E487B7100000000000000000000000000000000000000000000000000000000 PUSH1 0x0 MSTORE PUSH1 0x11 PUSH1 0x4 MSTORE PUSH1 0x24 PUSH1 0x0 REVERT JUMPDEST PUSH32 0x4E487B7100000000000000000000000000000000000000000000000000000000 PUSH1 0x0 MSTORE PUSH1 0x22 PUSH1 0x4 MSTORE PUSH1 0x24 PUSH1 0x0 REVERT JUMPDEST PUSH32 0x4E487B7100000000000000000000000000000000000000000000000000000000 PUSH1 0x0 MSTORE PUSH1 0x41 PUSH1 0x4 MSTORE PUSH1 0x24 PUSH1 0x0 REVERT JUMPDEST PUSH1 0x0 DUP1 REVERT JUMPDEST PUSH1 0x0 DUP1 REVERT JUMPDEST PUSH1 0x0 DUP1 REVERT JUMPDEST PUSH1 0x0 DUP1 REVERT JUMPDEST PUSH1 0x0 PUSH1 0x1F NOT PUSH1 0x1F DUP4 ADD AND SWAP1 POP SWAP2 SWAP1 POP JUMP JUMPDEST PUSH3 0x62F DUP2 PUSH3 0x492 JUMP JUMPDEST DUP2 EQ PUSH3 0x63B JUMPI PUSH1 0x0 DUP1 REVERT JUMPDEST POP JUMP JUMPDEST PUSH3 0x649 DUP2 PUSH3 0x4C6 JUMP JUMPDEST DUP2 EQ PUSH3 0x655 JUMPI PUSH1 0x0 DUP1 REVERT JUMPDEST POP JUMP JUMPDEST PUSH2 0x1DB3 DUP1 PUSH3 0x668 PUSH1 0x0 CODECOPY PUSH1 0x0 RETURN INVALID PUSH1 0x80 PUSH1 0x40 MSTORE CALLVALUE DUP1 ISZERO PUSH2 0x10 JUMPI PUSH1 0x0 DUP1 REVERT JUMPDEST POP PUSH1 0x4 CALLDATASIZE LT PUSH2 0x142 JUMPI PUSH1 0x0 CALLDATALOAD PUSH1 0xE0 SHR DUP1 PUSH4 0x4FE6F55F GT PUSH2 0xB8 JUMPI DUP1 PUSH4 0xA9059CBB GT PUSH2 0x7C JUMPI DUP1 PUSH4 0xA9059CBB EQ PUSH2 0x37F JUMPI DUP1 PUSH4 0xA9ED6E9A EQ PUSH2 0x3AF JUMPI DUP1 PUSH4 0xC6BC5182 EQ PUSH2 0x3CB JUMPI DUP1 PUSH4 0xDD62ED3E EQ PUSH2 0x3E9 JUMPI DUP1 PUSH4 0xF4B9FA75 EQ PUSH2 0x419 JUMPI DUP1 PUSH4 0xF851A440 EQ PUSH2 0x437 JUMPI PUSH2 0x142 JUMP JUMPDEST DUP1 PUSH4 0x4FE6F55F EQ PUSH2 0x2C5 JUMPI DUP1 PUSH4 0x70A08231 EQ PUSH2 0x2E3 JUMPI DUP1 PUSH4 0x95D89B41 EQ PUSH2 0x313 JUMPI DUP1 PUSH4 0x9CE15A38 EQ PUSH2 0x331 JUMPI DUP1 PUSH4 0xA457C2D7 EQ PUSH2 0x34F JUMPI PUSH2 0x142 JUMP JUMPDEST DUP1 PUSH4 0x313CE567 GT PUSH2 0x10A JUMPI DUP1 PUSH4 0x313CE567 EQ PUSH2 0x1ED JUMPI DUP1 PUSH4 0x39509351 EQ PUSH2 0x20B JUMPI DUP1 PUSH4 0x3E47D6F3 EQ PUSH2 0x23B JUMPI DUP1 PUSH4 0x479AFBF9 EQ PUSH2 0x26B JUMPI DUP1 PUSH4 0x47CCCA02 EQ PUSH2 0x289 JUMPI DUP1 PUSH4 0x48C7A0BF EQ PUSH2 0x2A7 JUMPI PUSH2 0x142 JUMP JUMPDEST DUP1 PUSH4 0x6FDDE03 EQ PUSH2 0x147 JUMPI DUP1 PUSH4 0x95EA7B3 EQ PUSH2 0x165 JUMPI DUP1 PUSH4 0x18160DDD EQ PUSH2 0x195 JUMPI DUP1 PUSH4 0x1FED217D EQ PUSH2 0x1B3 JUMPI DUP1 PUSH4 0x23B872DD EQ PUSH2 0x1BD JUMPI JUMPDEST PUSH1 0x0 DUP1 REVERT JUMPDEST PUSH2 0x14F PUSH2 0x455 JUMP JUMPDEST PUSH1 0x40 MLOAD PUSH2 0x15C SWAP2 SWAP1 PUSH2 0x16AC JUMP JUMPDEST PUSH1 0x40 MLOAD DUP1 SWAP2 SUB SWAP1 RETURN JUMPDEST PUSH2 0x17F PUSH1 0x4 DUP1 CALLDATASIZE SUB DUP2 ADD SWAP1 PUSH2 0x17A SWAP2 SWAP1 PUSH2 0x1328 JUMP JUMPDEST PUSH2 0x4E7 JUMP JUMPDEST PUSH1 0x40 MLOAD PUSH2 0x18C SWAP2 SWAP1 PUSH2 0x165B JUMP JUMPDEST PUSH1 0x40 MLOAD DUP1 SWAP2 SUB SWAP1 RETURN JUMPDEST PUSH2 0x19D PUSH2 0x50A JUMP JUMPDEST PUSH1 0x40 MLOAD PUSH2 0x1AA SWAP2 SWAP1 PUSH2 0x180E JUMP JUMPDEST PUSH1 0x40 MLOAD DUP1 SWAP2 SUB SWAP1 RETURN JUMPDEST PUSH2 0x1BB PUSH2 0x514 JUMP JUMPDEST STOP JUMPDEST PUSH2 0x1D7 PUSH1 0x4 DUP1 CALLDATASIZE SUB DUP2 ADD SWAP1 PUSH2 0x1D2 SWAP2 SWAP1 PUSH2 0x12D5 JUMP JUMPDEST PUSH2 0x782 JUMP JUMPDEST PUSH1 0x40 MLOAD PUSH2 0x1E4 SWAP2 SWAP1 PUSH2 0x165B JUMP JUMPDEST PUSH1 0x40 MLOAD DUP1 SWAP2 SUB SWAP1 RETURN JUMPDEST PUSH2 0x1F5 PUSH2 0x7B1 JUMP JUMPDEST PUSH1 0x40 MLOAD PUSH2 0x202 SWAP2 SWAP1 PUSH2 0x1829 JUMP JUMPDEST PUSH1 0x40 MLOAD DUP1 SWAP2 SUB SWAP1 RETURN JUMPDEST PUSH2 0x225 PUSH1 0x4 DUP1 CALLDATASIZE SUB DUP2 ADD SWAP1 PUSH2 0x220 SWAP2 SWAP1 PUSH2 0x1328 JUMP JUMPDEST PUSH2 0x7BA JUMP JUMPDEST PUSH1 0x40 MLOAD PUSH2 0x232 SWAP2 SWAP1 PUSH2 0x165B JUMP JUMPDEST PUSH1 0x40 MLOAD DUP1 SWAP2 SUB SWAP1 RETURN JUMPDEST PUSH2 0x255 PUSH1 0x4 DUP1 CALLDATASIZE SUB DUP2 ADD SWAP1 PUSH2 0x250 SWAP2 SWAP1 PUSH2 0x1268 JUMP JUMPDEST PUSH2 0x7F1 JUMP JUMPDEST PUSH1 0x40 MLOAD PUSH2 0x262 SWAP2 SWAP1 PUSH2 0x180E JUMP JUMPDEST PUSH1 0x40 MLOAD DUP1 SWAP2 SUB SWAP1 RETURN JUMPDEST PUSH2 0x273 PUSH2 0x809 JUMP JUMPDEST PUSH1 0x40 MLOAD PUSH2 0x280 SWAP2 SWAP1 PUSH2 0x180E JUMP JUMPDEST PUSH1 0x40 MLOAD DUP1 SWAP2 SUB SWAP1 RETURN JUMPDEST PUSH2 0x291 PUSH2 0x80F JUMP JUMPDEST PUSH1 0x40 MLOAD PUSH2 0x29E SWAP2 SWAP1 PUSH2 0x1691 JUMP JUMPDEST PUSH1 0x40 MLOAD DUP1 SWAP2 SUB SWAP1 RETURN JUMPDEST PUSH2 0x2AF PUSH2 0x835 JUMP JUMPDEST PUSH1 0x40 MLOAD PUSH2 0x2BC SWAP2 SWAP1 PUSH2 0x180E JUMP JUMPDEST PUSH1 0x40 MLOAD DUP1 SWAP2 SUB SWAP1 RETURN JUMPDEST PUSH2 0x2CD PUSH2 0x83B JUMP JUMPDEST PUSH1 0x40 MLOAD PUSH2 0x2DA SWAP2 SWAP1 PUSH2 0x180E JUMP JUMPDEST PUSH1 0x40 MLOAD DUP1 SWAP2 SUB SWAP1 RETURN JUMPDEST PUSH2 0x2FD PUSH1 0x4 DUP1 CALLDATASIZE SUB DUP2 ADD SWAP1 PUSH2 0x2F8 SWAP2 SWAP1 PUSH2 0x1268 JUMP JUMPDEST PUSH2 0x841 JUMP JUMPDEST PUSH1 0x40 MLOAD PUSH2 0x30A SWAP2 SWAP1 PUSH2 0x180E JUMP JUMPDEST PUSH1 0x40 MLOAD DUP1 SWAP2 SUB SWAP1 RETURN JUMPDEST PUSH2 0x31B PUSH2 0x889 JUMP JUMPDEST PUSH1 0x40 MLOAD PUSH2 0x328 SWAP2 SWAP1 PUSH2 0x16AC JUMP JUMPDEST PUSH1 0x40 MLOAD DUP1 SWAP2 SUB SWAP1 RETURN JUMPDEST PUSH2 0x339 PUSH2 0x91B JUMP JUMPDEST PUSH1 0x40 MLOAD PUSH2 0x346 SWAP2 SWAP1 PUSH2 0x165B JUMP JUMPDEST PUSH1 0x40 MLOAD DUP1 SWAP2 SUB SWAP1 RETURN JUMPDEST PUSH2 0x369 PUSH1 0x4 DUP1 CALLDATASIZE SUB DUP2 ADD SWAP1 PUSH2 0x364 SWAP2 SWAP1 PUSH2 0x1328 JUMP JUMPDEST PUSH2 0x92E JUMP JUMPDEST PUSH1 0x40 MLOAD PUSH2 0x376 SWAP2 SWAP1 PUSH2 0x165B JUMP JUMPDEST PUSH1 0x40 MLOAD DUP1 SWAP2 SUB SWAP1 RETURN JUMPDEST PUSH2 0x399 PUSH1 0x4 DUP1 CALLDATASIZE SUB DUP2 ADD SWAP1 PUSH2 0x394 SWAP2 SWAP1 PUSH2 0x1328 JUMP JUMPDEST PUSH2 0x9A5 JUMP JUMPDEST PUSH1 0x40 MLOAD PUSH2 0x3A6 SWAP2 SWAP1 PUSH2 0x165B JUMP JUMPDEST PUSH1 0x40 MLOAD DUP1 SWAP2 SUB SWAP1 RETURN JUMPDEST PUSH2 0x3C9 PUSH1 0x4 DUP1 CALLDATASIZE SUB DUP2 ADD SWAP1 PUSH2 0x3C4 SWAP2 SWAP1 PUSH2 0x1395 JUMP JUMPDEST PUSH2 0x9C8 JUMP JUMPDEST STOP JUMPDEST PUSH2 0x3D3 PUSH2 0xAF1 JUMP JUMPDEST PUSH1 0x40 MLOAD PUSH2 0x3E0 SWAP2 SWAP1 PUSH2 0x180E JUMP JUMPDEST PUSH1 0x40 MLOAD DUP1 SWAP2 SUB SWAP1 RETURN JUMPDEST PUSH2 0x403 PUSH1 0x4 DUP1 CALLDATASIZE SUB DUP2 ADD SWAP1 PUSH2 0x3FE SWAP2 SWAP1 PUSH2 0x1295 JUMP JUMPDEST PUSH2 0xAF7 JUMP JUMPDEST PUSH1 0x40 MLOAD PUSH2 0x410 SWAP2 SWAP1 PUSH2 0x180E JUMP JUMPDEST PUSH1 0x40 MLOAD DUP1 SWAP2 SUB SWAP1 RETURN JUMPDEST PUSH2 0x421 PUSH2 0xB7E JUMP JUMPDEST PUSH1 0x40 MLOAD PUSH2 0x42E SWAP2 SWAP1 PUSH2 0x1676 JUMP JUMPDEST PUSH1 0x40 MLOAD DUP1 SWAP2 SUB SWAP1 RETURN JUMPDEST PUSH2 0x43F PUSH2 0xBA4 JUMP JUMPDEST PUSH1 0x40 MLOAD PUSH2 0x44C SWAP2 SWAP1 PUSH2 0x15E0 JUMP JUMPDEST PUSH1 0x40 MLOAD DUP1 SWAP2 SUB SWAP1 RETURN JUMPDEST PUSH1 0x60 PUSH1 0x3 DUP1 SLOAD PUSH2 0x464 SWAP1 PUSH2 0x1A14 JUMP JUMPDEST DUP1 PUSH1 0x1F ADD PUSH1 0x20 DUP1 SWAP2 DIV MUL PUSH1 0x20 ADD PUSH1 0x40 MLOAD SWAP1 DUP2 ADD PUSH1 0x40 MSTORE DUP1 SWAP3 SWAP2 SWAP1 DUP2 DUP2 MSTORE PUSH1 0x20 ADD DUP3 DUP1 SLOAD PUSH2 0x490 SWAP1 PUSH2 0x1A14 JUMP JUMPDEST DUP1 ISZERO PUSH2 0x4DD JUMPI DUP1 PUSH1 0x1F LT PUSH2 0x4B2 JUMPI PUSH2 0x100 DUP1 DUP4 SLOAD DIV MUL DUP4 MSTORE SWAP2 PUSH1 0x20 ADD SWAP2 PUSH2 0x4DD JUMP JUMPDEST DUP3 ADD SWAP2 SWAP1 PUSH1 0x0 MSTORE PUSH1 0x20 PUSH1 0x0 KECCAK256 SWAP1 JUMPDEST DUP2 SLOAD DUP2 MSTORE SWAP1 PUSH1 0x1 ADD SWAP1 PUSH1 0x20 ADD DUP1 DUP4 GT PUSH2 0x4C0 JUMPI DUP3 SWAP1 SUB PUSH1 0x1F AND DUP3 ADD SWAP2 JUMPDEST POP POP POP POP POP SWAP1 POP SWAP1 JUMP JUMPDEST PUSH1 0x0 DUP1 PUSH2 0x4F2 PUSH2 0xBCA JUMP JUMPDEST SWAP1 POP PUSH2 0x4FF DUP2 DUP6 DUP6 PUSH2 0xBD2 JUMP JUMPDEST PUSH1 0x1 SWAP2 POP POP SWAP3 SWAP2 POP POP JUMP JUMPDEST PUSH1 0x0 PUSH1 0x2 SLOAD SWAP1 POP SWAP1 JUMP JUMPDEST PUSH1 0xB PUSH1 0x0 SWAP1 SLOAD SWAP1 PUSH2 0x100 EXP SWAP1 DIV PUSH20 0xFFFFFFFFFFFFFFFFFFFFFFFFFFFFFFFFFFFFFFFF AND PUSH20 0xFFFFFFFFFFFFFFFFFFFFFFFFFFFFFFFFFFFFFFFF AND CALLER PUSH20 0xFFFFFFFFFFFFFFFFFFFFFFFFFFFFFFFFFFFFFFFF AND EQ PUSH2 0x5A4 JUMPI PUSH1 0x40 MLOAD PUSH32 0x8C379A000000000000000000000000000000000000000000000000000000000 DUP2 MSTORE PUSH1 0x4 ADD PUSH2 0x59B SWAP1 PUSH2 0x174E JUMP JUMPDEST PUSH1 0x40 MLOAD DUP1 SWAP2 SUB SWAP1 REVERT JUMPDEST PUSH1 0x0 PUSH1 0xA PUSH1 0x0 SWAP1 SLOAD SWAP1 PUSH2 0x100 EXP SWAP1 DIV PUSH20 0xFFFFFFFFFFFFFFFFFFFFFFFFFFFFFFFFFFFFFFFF AND PUSH20 0xFFFFFFFFFFFFFFFFFFFFFFFFFFFFFFFFFFFFFFFF AND PUSH4 0x70A08231 ADDRESS PUSH1 0x40 MLOAD DUP3 PUSH4 0xFFFFFFFF AND PUSH1 0xE0 SHL DUP2 MSTORE PUSH1 0x4 ADD PUSH2 0x601 SWAP2 SWAP1 PUSH2 0x15E0 JUMP JUMPDEST PUSH1 0x20 PUSH1 0x40 MLOAD DUP1 DUP4 SUB DUP2 DUP7 DUP1 EXTCODESIZE ISZERO DUP1 ISZERO PUSH2 0x619 JUMPI PUSH1 0x0 DUP1 REVERT JUMPDEST POP GAS STATICCALL ISZERO DUP1 ISZERO PUSH2 0x62D JUMPI RETURNDATASIZE PUSH1 0x0 DUP1 RETURNDATACOPY RETURNDATASIZE PUSH1 0x0 REVERT JUMPDEST POP POP POP POP PUSH1 0x40 MLOAD RETURNDATASIZE PUSH1 0x1F NOT PUSH1 0x1F DUP3 ADD AND DUP3 ADD DUP1 PUSH1 0x40 MSTORE POP DUP2 ADD SWAP1 PUSH2 0x651 SWAP2 SWAP1 PUSH2 0x13C2 JUMP JUMPDEST SWAP1 POP PUSH1 0x0 DUP2 GT ISZERO PUSH2 0x72F JUMPI PUSH1 0xA PUSH1 0x0 SWAP1 SLOAD SWAP1 PUSH2 0x100 EXP SWAP1 DIV PUSH20 0xFFFFFFFFFFFFFFFFFFFFFFFFFFFFFFFFFFFFFFFF AND PUSH20 0xFFFFFFFFFFFFFFFFFFFFFFFFFFFFFFFFFFFFFFFF AND PUSH4 0xA9059CBB PUSH1 0xB PUSH1 0x0 SWAP1 SLOAD SWAP1 PUSH2 0x100 EXP SWAP1 DIV PUSH20 0xFFFFFFFFFFFFFFFFFFFFFFFFFFFFFFFFFFFFFFFF AND DUP4 PUSH1 0x40 MLOAD DUP4 PUSH4 0xFFFFFFFF AND PUSH1 0xE0 SHL DUP2 MSTORE PUSH1 0x4 ADD PUSH2 0x6DB SWAP3 SWAP2 SWAP1 PUSH2 0x1632 JUMP JUMPDEST PUSH1 0x20 PUSH1 0x40 MLOAD DUP1 DUP4 SUB DUP2 PUSH1 0x0 DUP8 DUP1 EXTCODESIZE ISZERO DUP1 ISZERO PUSH2 0x6F5 JUMPI PUSH1 0x0 DUP1 REVERT JUMPDEST POP GAS CALL ISZERO DUP1 ISZERO PUSH2 0x709 JUMPI RETURNDATASIZE PUSH1 0x0 DUP1 RETURNDATACOPY RETURNDATASIZE PUSH1 0x0 REVERT JUMPDEST POP POP POP POP PUSH1 0x40 MLOAD RETURNDATASIZE PUSH1 0x1F NOT PUSH1 0x1F DUP3 ADD AND DUP3 ADD DUP1 PUSH1 0x40 MSTORE POP DUP2 ADD SWAP1 PUSH2 0x72D SWAP2 SWAP1 PUSH2 0x1368 JUMP JUMPDEST POP JUMPDEST PUSH1 0x0 PUSH2 0x739 PUSH2 0x50A JUMP JUMPDEST PUSH1 0x6 SLOAD PUSH2 0x746 SWAP2 SWAP1 PUSH2 0x1910 JUMP JUMPDEST SWAP1 POP PUSH1 0x0 DUP2 GT ISZERO PUSH2 0x77E JUMPI PUSH2 0x77D PUSH1 0xB PUSH1 0x0 SWAP1 SLOAD SWAP1 PUSH2 0x100 EXP SWAP1 DIV PUSH20 0xFFFFFFFFFFFFFFFFFFFFFFFFFFFFFFFFFFFFFFFF AND DUP3 PUSH2 0xD9D JUMP JUMPDEST JUMPDEST POP POP JUMP JUMPDEST PUSH1 0x0 DUP1 PUSH2 0x78D PUSH2 0xBCA JUMP JUMPDEST SWAP1 POP PUSH2 0x79A DUP6 DUP3 DUP6 PUSH2 0xEFD JUMP JUMPDEST PUSH2 0x7A5 DUP6 DUP6 DUP6 PUSH2 0xF89 JUMP JUMPDEST PUSH1 0x1 SWAP2 POP POP SWAP4 SWAP3 POP POP POP JUMP JUMPDEST PUSH1 0x0 PUSH1 0x12 SWAP1 POP SWAP1 JUMP JUMPDEST PUSH1 0x0 DUP1 PUSH2 0x7C5 PUSH2 0xBCA JUMP JUMPDEST SWAP1 POP PUSH2 0x7E6 DUP2 DUP6 DUP6 PUSH2 0x7D7 DUP6 DUP10 PUSH2 0xAF7 JUMP JUMPDEST PUSH2 0x7E1 SWAP2 SWAP1 PUSH2 0x1860 JUMP JUMPDEST PUSH2 0xBD2 JUMP JUMPDEST PUSH1 0x1 SWAP2 POP POP SWAP3 SWAP2 POP POP JUMP JUMPDEST PUSH1 0xC PUSH1 0x20 MSTORE DUP1 PUSH1 0x0 MSTORE PUSH1 0x40 PUSH1 0x0 KECCAK256 PUSH1 0x0 SWAP2 POP SWAP1 POP SLOAD DUP2 JUMP JUMPDEST PUSH1 0x6 SLOAD DUP2 JUMP JUMPDEST PUSH1 0x9 PUSH1 0x0 SWAP1 SLOAD SWAP1 PUSH2 0x100 EXP SWAP1 DIV PUSH20 0xFFFFFFFFFFFFFFFFFFFFFFFFFFFFFFFFFFFFFFFF AND DUP2 JUMP JUMPDEST PUSH1 0x5 SLOAD DUP2 JUMP JUMPDEST PUSH1 0x7 SLOAD DUP2 JUMP JUMPDEST PUSH1 0x0 DUP1 PUSH1 0x0 DUP4 PUSH20 0xFFFFFFFFFFFFFFFFFFFFFFFFFFFFFFFFFFFFFFFF AND PUSH20 0xFFFFFFFFFFFFFFFFFFFFFFFFFFFFFFFFFFFFFFFF AND DUP2 MSTORE PUSH1 0x20 ADD SWAP1 DUP2 MSTORE PUSH1 0x20 ADD PUSH1 0x0 KECCAK256 SLOAD SWAP1 POP SWAP2 SWAP1 POP JUMP JUMPDEST PUSH1 0x60 PUSH1 0x4 DUP1 SLOAD PUSH2 0x898 SWAP1 PUSH2 0x1A14 JUMP JUMPDEST DUP1 PUSH1 0x1F ADD PUSH1 0x20 DUP1 SWAP2 DIV MUL PUSH1 0x20 ADD PUSH1 0x40 MLOAD SWAP1 DUP2 ADD PUSH1 0x40 MSTORE DUP1 SWAP3 SWAP2 SWAP1 DUP2 DUP2 MSTORE PUSH1 0x20 ADD DUP3 DUP1 SLOAD PUSH2 0x8C4 SWAP1 PUSH2 0x1A14 JUMP JUMPDEST DUP1 ISZERO PUSH2 0x911 JUMPI DUP1 PUSH1 0x1F LT PUSH2 0x8E6 JUMPI PUSH2 0x100 DUP1 DUP4 SLOAD DIV MUL DUP4 MSTORE SWAP2 PUSH1 0x20 ADD SWAP2 PUSH2 0x911 JUMP JUMPDEST DUP3 ADD SWAP2 SWAP1 PUSH1 0x0 MSTORE PUSH1 0x20 PUSH1 0x0 KECCAK256 SWAP1 JUMPDEST DUP2 SLOAD DUP2 MSTORE SWAP1 PUSH1 0x1 ADD SWAP1 PUSH1 0x20 ADD DUP1 DUP4 GT PUSH2 0x8F4 JUMPI DUP3 SWAP1 SUB PUSH1 0x1F AND DUP3 ADD SWAP2 JUMPDEST POP POP POP POP POP SWAP1 POP SWAP1 JUMP JUMPDEST PUSH1 0xB PUSH1 0x14 SWAP1 SLOAD SWAP1 PUSH2 0x100 EXP SWAP1 DIV PUSH1 0xFF AND DUP2 JUMP JUMPDEST PUSH1 0x0 DUP1 PUSH2 0x939 PUSH2 0xBCA JUMP JUMPDEST SWAP1 POP PUSH1 0x0 PUSH2 0x947 DUP3 DUP7 PUSH2 0xAF7 JUMP JUMPDEST SWAP1 POP DUP4 DUP2 LT ISZERO PUSH2 0x98C JUMPI PUSH1 0x40 MLOAD PUSH32 0x8C379A000000000000000000000000000000000000000000000000000000000 DUP2 MSTORE PUSH1 0x4 ADD PUSH2 0x983 SWAP1 PUSH2 0x17CE JUMP JUMPDEST PUSH1 0x40 MLOAD DUP1 SWAP2 SUB SWAP1 REVERT JUMPDEST PUSH2 0x999 DUP3 DUP7 DUP7 DUP5 SUB PUSH2 0xBD2 JUMP JUMPDEST PUSH1 0x1 SWAP3 POP POP POP SWAP3 SWAP2 POP POP JUMP JUMPDEST PUSH1 0x0 DUP1 PUSH2 0x9B0 PUSH2 0xBCA JUMP JUMPDEST SWAP1 POP PUSH2 0x9BD DUP2 DUP6 DUP6 PUSH2 0xF89 JUMP JUMPDEST PUSH1 0x1 SWAP2 POP POP SWAP3 SWAP2 POP POP JUMP JUMPDEST PUSH1 0x6 SLOAD DUP2 PUSH2 0x9D4 PUSH2 0x50A JUMP JUMPDEST PUSH2 0x9DE SWAP2 SWAP1 PUSH2 0x1860 JUMP JUMPDEST GT ISZERO PUSH2 0xA1F JUMPI PUSH1 0x40 MLOAD PUSH32 0x8C379A000000000000000000000000000000000000000000000000000000000 DUP2 MSTORE PUSH1 0x4 ADD PUSH2 0xA16 SWAP1 PUSH2 0x17AE JUMP JUMPDEST PUSH1 0x40 MLOAD DUP1 SWAP2 SUB SWAP1 REVERT JUMPDEST PUSH1 0x0 PUSH1 0x5 SLOAD DUP3 PUSH2 0xA2F SWAP2 SWAP1 PUSH2 0x18B6 JUMP JUMPDEST SWAP1 POP PUSH1 0xA PUSH1 0x0 SWAP1 SLOAD SWAP1 PUSH2 0x100 EXP SWAP1 DIV PUSH20 0xFFFFFFFFFFFFFFFFFFFFFFFFFFFFFFFFFFFFFFFF AND PUSH20 0xFFFFFFFFFFFFFFFFFFFFFFFFFFFFFFFFFFFFFFFF AND PUSH4 0x23B872DD CALLER ADDRESS DUP5 PUSH1 0x40 MLOAD DUP5 PUSH4 0xFFFFFFFF AND PUSH1 0xE0 SHL DUP2 MSTORE PUSH1 0x4 ADD PUSH2 0xA90 SWAP4 SWAP3 SWAP2 SWAP1 PUSH2 0x15FB JUMP JUMPDEST PUSH1 0x20 PUSH1 0x40 MLOAD DUP1 DUP4 SUB DUP2 PUSH1 0x0 DUP8 DUP1 EXTCODESIZE ISZERO DUP1 ISZERO PUSH2 0xAAA JUMPI PUSH1 0x0 DUP1 REVERT JUMPDEST POP GAS CALL ISZERO DUP1 ISZERO PUSH2 0xABE JUMPI RETURNDATASIZE PUSH1 0x0 DUP1 RETURNDATACOPY RETURNDATASIZE PUSH1 0x0 REVERT JUMPDEST POP POP POP POP PUSH1 0x40 MLOAD RETURNDATASIZE PUSH1 0x1F NOT PUSH1 0x1F DUP3 ADD AND DUP3 ADD DUP1 PUSH1 0x40 MSTORE POP DUP2 ADD SWAP1 PUSH2 0xAE2 SWAP2 SWAP1 PUSH2 0x1368 JUMP JUMPDEST POP PUSH2 0xAED CALLER DUP4 PUSH2 0xD9D JUMP JUMPDEST POP POP JUMP JUMPDEST PUSH1 0x8 SLOAD DUP2 JUMP JUMPDEST PUSH1 0x0 PUSH1 0x1 PUSH1 0x0 DUP5 PUSH20 0xFFFFFFFFFFFFFFFFFFFFFFFFFFFFFFFFFFFFFFFF AND PUSH20 0xFFFFFFFFFFFFFFFFFFFFFFFFFFFFFFFFFFFFFFFF AND DUP2 MSTORE PUSH1 0x20 ADD SWAP1 DUP2 MSTORE PUSH1 0x20 ADD PUSH1 0x0 KECCAK256 PUSH1 0x0 DUP4 PUSH20 0xFFFFFFFFFFFFFFFFFFFFFFFFFFFFFFFFFFFFFFFF AND PUSH20 0xFFFFFFFFFFFFFFFFFFFFFFFFFFFFFFFFFFFFFFFF AND DUP2 MSTORE PUSH1 0x20 ADD SWAP1 DUP2 MSTORE PUSH1 0x20 ADD PUSH1 0x0 KECCAK256 SLOAD SWAP1 POP SWAP3 SWAP2 POP POP JUMP JUMPDEST PUSH1 0xA PUSH1 0x0 SWAP1 SLOAD SWAP1 PUSH2 0x100 EXP SWAP1 DIV PUSH20 0xFFFFFFFFFFFFFFFFFFFFFFFFFFFFFFFFFFFFFFFF AND DUP2 JUMP JUMPDEST PUSH1 0xB PUSH1 0x0 SWAP1 SLOAD SWAP1 PUSH2 0x100 EXP SWAP1 DIV PUSH20 0xFFFFFFFFFFFFFFFFFFFFFFFFFFFFFFFFFFFFFFFF AND DUP2 JUMP JUMPDEST PUSH1 0x0 CALLER SWAP1 POP SWAP1 JUMP JUMPDEST PUSH1 0x0 PUSH20 0xFFFFFFFFFFFFFFFFFFFFFFFFFFFFFFFFFFFFFFFF AND DUP4 PUSH20 0xFFFFFFFFFFFFFFFFFFFFFFFFFFFFFFFFFFFFFFFF AND EQ ISZERO PUSH2 0xC42 JUMPI PUSH1 0x40 MLOAD PUSH32 0x8C379A000000000000000000000000000000000000000000000000000000000 DUP2 MSTORE PUSH1 0x4 ADD PUSH2 0xC39 SWAP1 PUSH2 0x178E JUMP JUMPDEST PUSH1 0x40 MLOAD DUP1 SWAP2 SUB SWAP1 REVERT JUMPDEST PUSH1 0x0 PUSH20 0xFFFFFFFFFFFFFFFFFFFFFFFFFFFFFFFFFFFFFFFF AND DUP3 PUSH20 0xFFFFFFFFFFFFFFFFFFFFFFFFFFFFFFFFFFFFFFFF AND EQ ISZERO PUSH2 0xCB2 JUMPI PUSH1 0x40 MLOAD PUSH32 0x8C379A000000000000000000000000000000000000000000000000000000000 DUP2 MSTORE PUSH1 0x4 ADD PUSH2 0xCA9 SWAP1 PUSH2 0x16EE JUMP JUMPDEST PUSH1 0x40 MLOAD DUP1 SWAP2 SUB SWAP1 REVERT JUMPDEST DUP1 PUSH1 0x1 PUSH1 0x0 DUP6 PUSH20 0xFFFFFFFFFFFFFFFFFFFFFFFFFFFFFFFFFFFFFFFF AND PUSH20 0xFFFFFFFFFFFFFFFFFFFFFFFFFFFFFFFFFFFFFFFF AND DUP2 MSTORE PUSH1 0x20 ADD SWAP1 DUP2 MSTORE PUSH1 0x20 ADD PUSH1 0x0 KECCAK256 PUSH1 0x0 DUP5 PUSH20 0xFFFFFFFFFFFFFFFFFFFFFFFFFFFFFFFFFFFFFFFF AND PUSH20 0xFFFFFFFFFFFFFFFFFFFFFFFFFFFFFFFFFFFFFFFF AND DUP2 MSTORE PUSH1 0x20 ADD SWAP1 DUP2 MSTORE PUSH1 0x20 ADD PUSH1 0x0 KECCAK256 DUP2 SWAP1 SSTORE POP DUP2 PUSH20 0xFFFFFFFFFFFFFFFFFFFFFFFFFFFFFFFFFFFFFFFF AND DUP4 PUSH20 0xFFFFFFFFFFFFFFFFFFFFFFFFFFFFFFFFFFFFFFFF AND PUSH32 0x8C5BE1E5EBEC7D5BD14F71427D1E84F3DD0314C0F7B2291E5B200AC8C7C3B925 DUP4 PUSH1 0x40 MLOAD PUSH2 0xD90 SWAP2 SWAP1 PUSH2 0x180E JUMP JUMPDEST PUSH1 0x40 MLOAD DUP1 SWAP2 SUB SWAP1 LOG3 POP POP POP JUMP JUMPDEST PUSH1 0x0 PUSH20 0xFFFFFFFFFFFFFFFFFFFFFFFFFFFFFFFFFFFFFFFF AND DUP3 PUSH20 0xFFFFFFFFFFFFFFFFFFFFFFFFFFFFFFFFFFFFFFFF AND EQ ISZERO PUSH2 0xE0D JUMPI PUSH1 0x40 MLOAD PUSH32 0x8C379A000000000000000000000000000000000000000000000000000000000 DUP2 MSTORE PUSH1 0x4 ADD PUSH2 0xE04 SWAP1 PUSH2 0x17EE JUMP JUMPDEST PUSH1 0x40 MLOAD DUP1 SWAP2 SUB SWAP1 REVERT JUMPDEST PUSH2 0xE19 PUSH1 0x0 DUP4 DUP4 PUSH2 0x120A JUMP JUMPDEST DUP1 PUSH1 0x2 PUSH1 0x0 DUP3 DUP3 SLOAD PUSH2 0xE2B SWAP2 SWAP1 PUSH2 0x1860 JUMP JUMPDEST SWAP3 POP POP DUP2 SWAP1 SSTORE POP DUP1 PUSH1 0x0 DUP1 DUP5 PUSH20 0xFFFFFFFFFFFFFFFFFFFFFFFFFFFFFFFFFFFFFFFF AND PUSH20 0xFFFFFFFFFFFFFFFFFFFFFFFFFFFFFFFFFFFFFFFF AND DUP2 MSTORE PUSH1 0x20 ADD SWAP1 DUP2 MSTORE PUSH1 0x20 ADD PUSH1 0x0 KECCAK256 PUSH1 0x0 DUP3 DUP3 SLOAD PUSH2 0xE80 SWAP2 SWAP1 PUSH2 0x1860 JUMP JUMPDEST SWAP3 POP POP DUP2 SWAP1 SSTORE POP DUP2 PUSH20 0xFFFFFFFFFFFFFFFFFFFFFFFFFFFFFFFFFFFFFFFF AND PUSH1 0x0 PUSH20 0xFFFFFFFFFFFFFFFFFFFFFFFFFFFFFFFFFFFFFFFF AND PUSH32 0xDDF252AD1BE2C89B69C2B068FC378DAA952BA7F163C4A11628F55A4DF523B3EF DUP4 PUSH1 0x40 MLOAD PUSH2 0xEE5 SWAP2 SWAP1 PUSH2 0x180E JUMP JUMPDEST PUSH1 0x40 MLOAD DUP1 SWAP2 SUB SWAP1 LOG3 PUSH2 0xEF9 PUSH1 0x0 DUP4 DUP4 PUSH2 0x120F JUMP JUMPDEST POP POP JUMP JUMPDEST PUSH1 0x0 PUSH2 0xF09 DUP5 DUP5 PUSH2 0xAF7 JUMP JUMPDEST SWAP1 POP PUSH32 0xFFFFFFFFFFFFFFFFFFFFFFFFFFFFFFFFFFFFFFFFFFFFFFFFFFFFFFFFFFFFFFFF DUP2 EQ PUSH2 0xF83 JUMPI DUP2 DUP2 LT ISZERO PUSH2 0xF75 JUMPI PUSH1 0x40 MLOAD PUSH32 0x8C379A000000000000000000000000000000000000000000000000000000000 DUP2 MSTORE PUSH1 0x4 ADD PUSH2 0xF6C SWAP1 PUSH2 0x170E JUMP JUMPDEST PUSH1 0x40 MLOAD DUP1 SWAP2 SUB SWAP1 REVERT JUMPDEST PUSH2 0xF82 DUP5 DUP5 DUP5 DUP5 SUB PUSH2 0xBD2 JUMP JUMPDEST JUMPDEST POP POP POP POP JUMP JUMPDEST PUSH1 0x0 PUSH20 0xFFFFFFFFFFFFFFFFFFFFFFFFFFFFFFFFFFFFFFFF AND DUP4 PUSH20 0xFFFFFFFFFFFFFFFFFFFFFFFFFFFFFFFFFFFFFFFF AND EQ ISZERO PUSH2 0xFF9 JUMPI PUSH1 0x40 MLOAD PUSH32 0x8C379A000000000000000000000000000000000000000000000000000000000 DUP2 MSTORE PUSH1 0x4 ADD PUSH2 0xFF0 SWAP1 PUSH2 0x176E JUMP JUMPDEST PUSH1 0x40 MLOAD DUP1 SWAP2 SUB SWAP1 REVERT JUMPDEST PUSH1 0x0 PUSH20 0xFFFFFFFFFFFFFFFFFFFFFFFFFFFFFFFFFFFFFFFF AND DUP3 PUSH20 0xFFFFFFFFFFFFFFFFFFFFFFFFFFFFFFFFFFFFFFFF AND EQ ISZERO PUSH2 0x1069 JUMPI PUSH1 0x40 MLOAD PUSH32 0x8C379A000000000000000000000000000000000000000000000000000000000 DUP2 MSTORE PUSH1 0x4 ADD PUSH2 0x1060 SWAP1 PUSH2 0x16CE JUMP JUMPDEST PUSH1 0x40 MLOAD DUP1 SWAP2 SUB SWAP1 REVERT JUMPDEST PUSH2 0x1074 DUP4 DUP4 DUP4 PUSH2 0x120A JUMP JUMPDEST PUSH1 0x0 DUP1 PUSH1 0x0 DUP6 PUSH20 0xFFFFFFFFFFFFFFFFFFFFFFFFFFFFFFFFFFFFFFFF AND PUSH20 0xFFFFFFFFFFFFFFFFFFFFFFFFFFFFFFFFFFFFFFFF AND DUP2 MSTORE PUSH1 0x20 ADD SWAP1 DUP2 MSTORE PUSH1 0x20 ADD PUSH1 0x0 KECCAK256 SLOAD SWAP1 POP DUP2 DUP2 LT ISZERO PUSH2 0x10FA JUMPI PUSH1 0x40 MLOAD PUSH32 0x8C379A000000000000000000000000000000000000000000000000000000000 DUP2 MSTORE PUSH1 0x4 ADD PUSH2 0x10F1 SWAP1 PUSH2 0x172E JUMP JUMPDEST PUSH1 0x40 MLOAD DUP1 SWAP2 SUB SWAP1 REVERT JUMPDEST DUP2 DUP2 SUB PUSH1 0x0 DUP1 DUP7 PUSH20 0xFFFFFFFFFFFFFFFFFFFFFFFFFFFFFFFFFFFFFFFF AND PUSH20 0xFFFFFFFFFFFFFFFFFFFFFFFFFFFFFFFFFFFFFFFF AND DUP2 MSTORE PUSH1 0x20 ADD SWAP1 DUP2 MSTORE PUSH1 0x20 ADD PUSH1 0x0 KECCAK256 DUP2 SWAP1 SSTORE POP DUP2 PUSH1 0x0 DUP1 DUP6 PUSH20 0xFFFFFFFFFFFFFFFFFFFFFFFFFFFFFFFFFFFFFFFF AND PUSH20 0xFFFFFFFFFFFFFFFFFFFFFFFFFFFFFFFFFFFFFFFF AND DUP2 MSTORE PUSH1 0x20 ADD SWAP1 DUP2 MSTORE PUSH1 0x20 ADD PUSH1 0x0 KECCAK256 PUSH1 0x0 DUP3 DUP3 SLOAD PUSH2 0x118D SWAP2 SWAP1 PUSH2 0x1860 JUMP JUMPDEST SWAP3 POP POP DUP2 SWAP1 SSTORE POP DUP3 PUSH20 0xFFFFFFFFFFFFFFFFFFFFFFFFFFFFFFFFFFFFFFFF AND DUP5 PUSH20 0xFFFFFFFFFFFFFFFFFFFFFFFFFFFFFFFFFFFFFFFF AND PUSH32 0xDDF252AD1BE2C89B69C2B068FC378DAA952BA7F163C4A11628F55A4DF523B3EF DUP5 PUSH1 0x40 MLOAD PUSH2 0x11F1 SWAP2 SWAP1 PUSH2 0x180E JUMP JUMPDEST PUSH1 0x40 MLOAD DUP1 SWAP2 SUB SWAP1 LOG3 PUSH2 0x1204 DUP5 DUP5 DUP5 PUSH2 0x120F JUMP JUMPDEST POP POP POP POP JUMP JUMPDEST POP POP POP JUMP JUMPDEST POP POP POP JUMP JUMPDEST PUSH1 0x0 DUP2 CALLDATALOAD SWAP1 POP PUSH2 0x1223 DUP2 PUSH2 0x1D38 JUMP JUMPDEST SWAP3 SWAP2 POP POP JUMP JUMPDEST PUSH1 0x0 DUP2 MLOAD SWAP1 POP PUSH2 0x1238 DUP2 PUSH2 0x1D4F JUMP JUMPDEST SWAP3 SWAP2 POP POP JUMP JUMPDEST PUSH1 0x0 DUP2 CALLDATALOAD SWAP1 POP PUSH2 0x124D DUP2 PUSH2 0x1D66 JUMP JUMPDEST SWAP3 SWAP2 POP POP JUMP JUMPDEST PUSH1 0x0 DUP2 MLOAD SWAP1 POP PUSH2 0x1262 DUP2 PUSH2 0x1D66 JUMP JUMPDEST SWAP3 SWAP2 POP POP JUMP JUMPDEST PUSH1 0x0 PUSH1 0x20 DUP3 DUP5 SUB SLT ISZERO PUSH2 0x127E JUMPI PUSH2 0x127D PUSH2 0x1AA4 JUMP JUMPDEST JUMPDEST PUSH1 0x0 PUSH2 0x128C DUP5 DUP3 DUP6 ADD PUSH2 0x1214 JUMP JUMPDEST SWAP2 POP POP SWAP3 SWAP2 POP POP JUMP JUMPDEST PUSH1 0x0 DUP1 PUSH1 0x40 DUP4 DUP6 SUB SLT ISZERO PUSH2 0x12AC JUMPI PUSH2 0x12AB PUSH2 0x1AA4 JUMP JUMPDEST JUMPDEST PUSH1 0x0 PUSH2 0x12BA DUP6 DUP3 DUP7 ADD PUSH2 0x1214 JUMP JUMPDEST SWAP3 POP POP PUSH1 0x20 PUSH2 0x12CB DUP6 DUP3 DUP7 ADD PUSH2 0x1214 JUMP JUMPDEST SWAP2 POP POP SWAP3 POP SWAP3 SWAP1 POP JUMP JUMPDEST PUSH1 0x0 DUP1 PUSH1 0x0 PUSH1 0x60 DUP5 DUP7 SUB SLT ISZERO PUSH2 0x12EE JUMPI PUSH2 0x12ED PUSH2 0x1AA4 JUMP JUMPDEST JUMPDEST PUSH1 0x0 PUSH2 0x12FC DUP7 DUP3 DUP8 ADD PUSH2 0x1214 JUMP JUMPDEST SWAP4 POP POP PUSH1 0x20 PUSH2 0x130D DUP7 DUP3 DUP8 ADD PUSH2 0x1214 JUMP JUMPDEST SWAP3 POP POP PUSH1 0x40 PUSH2 0x131E DUP7 DUP3 DUP8 ADD PUSH2 0x123E JUMP JUMPDEST SWAP2 POP POP SWAP3 POP SWAP3 POP SWAP3 JUMP JUMPDEST PUSH1 0x0 DUP1 PUSH1 0x40 DUP4 DUP6 SUB SLT ISZERO PUSH2 0x133F JUMPI PUSH2 0x133E PUSH2 0x1AA4 JUMP JUMPDEST JUMPDEST PUSH1 0x0 PUSH2 0x134D DUP6 DUP3 DUP7 ADD PUSH2 0x1214 JUMP JUMPDEST SWAP3 POP POP PUSH1 0x20 PUSH2 0x135E DUP6 DUP3 DUP7 ADD PUSH2 0x123E JUMP JUMPDEST SWAP2 POP POP SWAP3 POP SWAP3 SWAP1 POP JUMP JUMPDEST PUSH1 0x0 PUSH1 0x20 DUP3 DUP5 SUB SLT ISZERO PUSH2 0x137E JUMPI PUSH2 0x137D PUSH2 0x1AA4 JUMP JUMPDEST JUMPDEST PUSH1 0x0 PUSH2 0x138C DUP5 DUP3 DUP6 ADD PUSH2 0x1229 JUMP JUMPDEST SWAP2 POP POP SWAP3 SWAP2 POP POP JUMP JUMPDEST PUSH1 0x0 PUSH1 0x20 DUP3 DUP5 SUB SLT ISZERO PUSH2 0x13AB JUMPI PUSH2 0x13AA PUSH2 0x1AA4 JUMP JUMPDEST JUMPDEST PUSH1 0x0 PUSH2 0x13B9 DUP5 DUP3 DUP6 ADD PUSH2 0x123E JUMP JUMPDEST SWAP2 POP POP SWAP3 SWAP2 POP POP JUMP JUMPDEST PUSH1 0x0 PUSH1 0x20 DUP3 DUP5 SUB SLT ISZERO PUSH2 0x13D8 JUMPI PUSH2 0x13D7 PUSH2 0x1AA4 JUMP JUMPDEST JUMPDEST PUSH1 0x0 PUSH2 0x13E6 DUP5 DUP3 DUP6 ADD PUSH2 0x1253 JUMP JUMPDEST SWAP2 POP POP SWAP3 SWAP2 POP POP JUMP JUMPDEST PUSH2 0x13F8 DUP2 PUSH2 0x1944 JUMP JUMPDEST DUP3 MSTORE POP POP JUMP JUMPDEST PUSH2 0x1407 DUP2 PUSH2 0x1956 JUMP JUMPDEST DUP3 MSTORE POP POP JUMP JUMPDEST PUSH2 0x1416 DUP2 PUSH2 0x1999 JUMP JUMPDEST DUP3 MSTORE POP POP JUMP JUMPDEST PUSH2 0x1425 DUP2 PUSH2 0x19AB JUMP JUMPDEST DUP3 MSTORE POP POP JUMP JUMPDEST PUSH1 0x0 PUSH2 0x1436 DUP3 PUSH2 0x1844 JUMP JUMPDEST PUSH2 0x1440 DUP2 DUP6 PUSH2 0x184F JUMP JUMPDEST SWAP4 POP PUSH2 0x1450 DUP2 DUP6 PUSH1 0x20 DUP7 ADD PUSH2 0x19E1 JUMP JUMPDEST PUSH2 0x1459 DUP2 PUSH2 0x1AA9 JUMP JUMPDEST DUP5 ADD SWAP2 POP POP SWAP3 SWAP2 POP POP JUMP JUMPDEST PUSH1 0x0 PUSH2 0x1471 PUSH1 0x23 DUP4 PUSH2 0x184F JUMP JUMPDEST SWAP2 POP PUSH2 0x147C DUP3 PUSH2 0x1ABA JUMP JUMPDEST PUSH1 0x40 DUP3 ADD SWAP1 POP SWAP2 SWAP1 POP JUMP JUMPDEST PUSH1 0x0 PUSH2 0x1494 PUSH1 0x22 DUP4 PUSH2 0x184F JUMP JUMPDEST SWAP2 POP PUSH2 0x149F DUP3 PUSH2 0x1B09 JUMP JUMPDEST PUSH1 0x40 DUP3 ADD SWAP1 POP SWAP2 SWAP1 POP JUMP JUMPDEST PUSH1 0x0 PUSH2 0x14B7 PUSH1 0x1D DUP4 PUSH2 0x184F JUMP JUMPDEST SWAP2 POP PUSH2 0x14C2 DUP3 PUSH2 0x1B58 JUMP JUMPDEST PUSH1 0x20 DUP3 ADD SWAP1 POP SWAP2 SWAP1 POP JUMP JUMPDEST PUSH1 0x0 PUSH2 0x14DA PUSH1 0x26 DUP4 PUSH2 0x184F JUMP JUMPDEST SWAP2 POP PUSH2 0x14E5 DUP3 PUSH2 0x1B81 JUMP JUMPDEST PUSH1 0x40 DUP3 ADD SWAP1 POP SWAP2 SWAP1 POP JUMP JUMPDEST PUSH1 0x0 PUSH2 0x14FD PUSH1 0xA DUP4 PUSH2 0x184F JUMP JUMPDEST SWAP2 POP PUSH2 0x1508 DUP3 PUSH2 0x1BD0 JUMP JUMPDEST PUSH1 0x20 DUP3 ADD SWAP1 POP SWAP2 SWAP1 POP JUMP JUMPDEST PUSH1 0x0 PUSH2 0x1520 PUSH1 0x25 DUP4 PUSH2 0x184F JUMP JUMPDEST SWAP2 POP PUSH2 0x152B DUP3 PUSH2 0x1BF9 JUMP JUMPDEST PUSH1 0x40 DUP3 ADD SWAP1 POP SWAP2 SWAP1 POP JUMP JUMPDEST PUSH1 0x0 PUSH2 0x1543 PUSH1 0x24 DUP4 PUSH2 0x184F JUMP JUMPDEST SWAP2 POP PUSH2 0x154E DUP3 PUSH2 0x1C48 JUMP JUMPDEST PUSH1 0x40 DUP3 ADD SWAP1 POP SWAP2 SWAP1 POP JUMP JUMPDEST PUSH1 0x0 PUSH2 0x1566 PUSH1 0x16 DUP4 PUSH2 0x184F JUMP JUMPDEST SWAP2 POP PUSH2 0x1571 DUP3 PUSH2 0x1C97 JUMP JUMPDEST PUSH1 0x20 DUP3 ADD SWAP1 POP SWAP2 SWAP1 POP JUMP JUMPDEST PUSH1 0x0 PUSH2 0x1589 PUSH1 0x25 DUP4 PUSH2 0x184F JUMP JUMPDEST SWAP2 POP PUSH2 0x1594 DUP3 PUSH2 0x1CC0 JUMP JUMPDEST PUSH1 0x40 DUP3 ADD SWAP1 POP SWAP2 SWAP1 POP JUMP JUMPDEST PUSH1 0x0 PUSH2 0x15AC PUSH1 0x1F DUP4 PUSH2 0x184F JUMP JUMPDEST SWAP2 POP PUSH2 0x15B7 DUP3 PUSH2 0x1D0F JUMP JUMPDEST PUSH1 0x20 DUP3 ADD SWAP1 POP SWAP2 SWAP1 POP JUMP JUMPDEST PUSH2 0x15CB DUP2 PUSH2 0x1982 JUMP JUMPDEST DUP3 MSTORE POP POP JUMP JUMPDEST PUSH2 0x15DA DUP2 PUSH2 0x198C JUMP JUMPDEST DUP3 MSTORE POP POP JUMP JUMPDEST PUSH1 0x0 PUSH1 0x20 DUP3 ADD SWAP1 POP PUSH2 0x15F5 PUSH1 0x0 DUP4 ADD DUP5 PUSH2 0x13EF JUMP JUMPDEST SWAP3 SWAP2 POP POP JUMP JUMPDEST PUSH1 0x0 PUSH1 0x60 DUP3 ADD SWAP1 POP PUSH2 0x1610 PUSH1 0x0 DUP4 ADD DUP7 PUSH2 0x13EF JUMP JUMPDEST PUSH2 0x161D PUSH1 0x20 DUP4 ADD DUP6 PUSH2 0x13EF JUMP JUMPDEST PUSH2 0x162A PUSH1 0x40 DUP4 ADD DUP5 PUSH2 0x15C2 JUMP JUMPDEST SWAP5 SWAP4 POP POP POP POP JUMP JUMPDEST PUSH1 0x0 PUSH1 0x40 DUP3 ADD SWAP1 POP PUSH2 0x1647 PUSH1 0x0 DUP4 ADD DUP6 PUSH2 0x13EF JUMP JUMPDEST PUSH2 0x1654 PUSH1 0x20 DUP4 ADD DUP5 PUSH2 0x15C2 JUMP JUMPDEST SWAP4 SWAP3 POP POP POP JUMP JUMPDEST PUSH1 0x0 PUSH1 0x20 DUP3 ADD SWAP1 POP PUSH2 0x1670 PUSH1 0x0 DUP4 ADD DUP5 PUSH2 0x13FE JUMP JUMPDEST SWAP3 SWAP2 POP POP JUMP JUMPDEST PUSH1 0x0 PUSH1 0x20 DUP3 ADD SWAP1 POP PUSH2 0x168B PUSH1 0x0 DUP4 ADD DUP5 PUSH2 0x140D JUMP JUMPDEST SWAP3 SWAP2 POP POP JUMP JUMPDEST PUSH1 0x0 PUSH1 0x20 DUP3 ADD SWAP1 POP PUSH2 0x16A6 PUSH1 0x0 DUP4 ADD DUP5 PUSH2 0x141C JUMP JUMPDEST SWAP3 SWAP2 POP POP JUMP JUMPDEST PUSH1 0x0 PUSH1 0x20 DUP3 ADD SWAP1 POP DUP2 DUP2 SUB PUSH1 0x0 DUP4 ADD MSTORE PUSH2 0x16C6 DUP2 DUP5 PUSH2 0x142B JUMP JUMPDEST SWAP1 POP SWAP3 SWAP2 POP POP JUMP JUMPDEST PUSH1 0x0 PUSH1 0x20 DUP3 ADD SWAP1 POP DUP2 DUP2 SUB PUSH1 0x0 DUP4 ADD MSTORE PUSH2 0x16E7 DUP2 PUSH2 0x1464 JUMP JUMPDEST SWAP1 POP SWAP2 SWAP1 POP JUMP JUMPDEST PUSH1 0x0 PUSH1 0x20 DUP3 ADD SWAP1 POP DUP2 DUP2 SUB PUSH1 0x0 DUP4 ADD MSTORE PUSH2 0x1707 DUP2 PUSH2 0x1487 JUMP JUMPDEST SWAP1 POP SWAP2 SWAP1 POP JUMP JUMPDEST PUSH1 0x0 PUSH1 0x20 DUP3 ADD SWAP1 POP DUP2 DUP2 SUB PUSH1 0x0 DUP4 ADD MSTORE PUSH2 0x1727 DUP2 PUSH2 0x14AA JUMP JUMPDEST SWAP1 POP SWAP2 SWAP1 POP JUMP JUMPDEST PUSH1 0x0 PUSH1 0x20 DUP3 ADD SWAP1 POP DUP2 DUP2 SUB PUSH1 0x0 DUP4 ADD MSTORE PUSH2 0x1747 DUP2 PUSH2 0x14CD JUMP JUMPDEST SWAP1 POP SWAP2 SWAP1 POP JUMP JUMPDEST PUSH1 0x0 PUSH1 0x20 DUP3 ADD SWAP1 POP DUP2 DUP2 SUB PUSH1 0x0 DUP4 ADD MSTORE PUSH2 0x1767 DUP2 PUSH2 0x14F0 JUMP JUMPDEST SWAP1 POP SWAP2 SWAP1 POP JUMP JUMPDEST PUSH1 0x0 PUSH1 0x20 DUP3 ADD SWAP1 POP DUP2 DUP2 SUB PUSH1 0x0 DUP4 ADD MSTORE PUSH2 0x1787 DUP2 PUSH2 0x1513 JUMP JUMPDEST SWAP1 POP SWAP2 SWAP1 POP JUMP JUMPDEST PUSH1 0x0 PUSH1 0x20 DUP3 ADD SWAP1 POP DUP2 DUP2 SUB PUSH1 0x0 DUP4 ADD MSTORE PUSH2 0x17A7 DUP2 PUSH2 0x1536 JUMP JUMPDEST SWAP1 POP SWAP2 SWAP1 POP JUMP JUMPDEST PUSH1 0x0 PUSH1 0x20 DUP3 ADD SWAP1 POP DUP2 DUP2 SUB PUSH1 0x0 DUP4 ADD MSTORE PUSH2 0x17C7 DUP2 PUSH2 0x1559 JUMP JUMPDEST SWAP1 POP SWAP2 SWAP1 POP JUMP JUMPDEST PUSH1 0x0 PUSH1 0x20 DUP3 ADD SWAP1 POP DUP2 DUP2 SUB PUSH1 0x0 DUP4 ADD MSTORE PUSH2 0x17E7 DUP2 PUSH2 0x157C JUMP JUMPDEST SWAP1 POP SWAP2 SWAP1 POP JUMP JUMPDEST PUSH1 0x0 PUSH1 0x20 DUP3 ADD SWAP1 POP DUP2 DUP2 SUB PUSH1 0x0 DUP4 ADD MSTORE PUSH2 0x1807 DUP2 PUSH2 0x159F JUMP JUMPDEST SWAP1 POP SWAP2 SWAP1 POP JUMP JUMPDEST PUSH1 0x0 PUSH1 0x20 DUP3 ADD SWAP1 POP PUSH2 0x1823 PUSH1 0x0 DUP4 ADD DUP5 PUSH2 0x15C2 JUMP JUMPDEST SWAP3 SWAP2 POP POP JUMP JUMPDEST PUSH1 0x0 PUSH1 0x20 DUP3 ADD SWAP1 POP PUSH2 0x183E PUSH1 0x0 DUP4 ADD DUP5 PUSH2 0x15D1 JUMP JUMPDEST SWAP3 SWAP2 POP POP JUMP JUMPDEST PUSH1 0x0 DUP2 MLOAD SWAP1 POP SWAP2 SWAP1 POP JUMP JUMPDEST PUSH1 0x0 DUP3 DUP3 MSTORE PUSH1 0x20 DUP3 ADD SWAP1 POP SWAP3 SWAP2 POP POP JUMP JUMPDEST PUSH1 0x0 PUSH2 0x186B DUP3 PUSH2 0x1982 JUMP JUMPDEST SWAP2 POP PUSH2 0x1876 DUP4 PUSH2 0x1982 JUMP JUMPDEST SWAP3 POP DUP3 PUSH32 0xFFFFFFFFFFFFFFFFFFFFFFFFFFFFFFFFFFFFFFFFFFFFFFFFFFFFFFFFFFFFFFFF SUB DUP3 GT ISZERO PUSH2 0x18AB JUMPI PUSH2 0x18AA PUSH2 0x1A46 JUMP JUMPDEST JUMPDEST DUP3 DUP3 ADD SWAP1 POP SWAP3 SWAP2 POP POP JUMP JUMPDEST PUSH1 0x0 PUSH2 0x18C1 DUP3 PUSH2 0x1982 JUMP JUMPDEST SWAP2 POP PUSH2 0x18CC DUP4 PUSH2 0x1982 JUMP JUMPDEST SWAP3 POP DUP2 PUSH32 0xFFFFFFFFFFFFFFFFFFFFFFFFFFFFFFFFFFFFFFFFFFFFFFFFFFFFFFFFFFFFFFFF DIV DUP4 GT DUP3 ISZERO ISZERO AND ISZERO PUSH2 0x1905 JUMPI PUSH2 0x1904 PUSH2 0x1A46 JUMP JUMPDEST JUMPDEST DUP3 DUP3 MUL SWAP1 POP SWAP3 SWAP2 POP POP JUMP JUMPDEST PUSH1 0x0 PUSH2 0x191B DUP3 PUSH2 0x1982 JUMP JUMPDEST SWAP2 POP PUSH2 0x1926 DUP4 PUSH2 0x1982 JUMP JUMPDEST SWAP3 POP DUP3 DUP3 LT ISZERO PUSH2 0x1939 JUMPI PUSH2 0x1938 PUSH2 0x1A46 JUMP JUMPDEST JUMPDEST DUP3 DUP3 SUB SWAP1 POP SWAP3 SWAP2 POP POP JUMP JUMPDEST PUSH1 0x0 PUSH2 0x194F DUP3 PUSH2 0x1962 JUMP JUMPDEST SWAP1 POP SWAP2 SWAP1 POP JUMP JUMPDEST PUSH1 0x0 DUP2 ISZERO ISZERO SWAP1 POP SWAP2 SWAP1 POP JUMP JUMPDEST PUSH1 0x0 PUSH20 0xFFFFFFFFFFFFFFFFFFFFFFFFFFFFFFFFFFFFFFFF DUP3 AND SWAP1 POP SWAP2 SWAP1 POP JUMP JUMPDEST PUSH1 0x0 DUP2 SWAP1 POP SWAP2 SWAP1 POP JUMP JUMPDEST PUSH1 0x0 PUSH1 0xFF DUP3 AND SWAP1 POP SWAP2 SWAP1 POP JUMP JUMPDEST PUSH1 0x0 PUSH2 0x19A4 DUP3 PUSH2 0x19BD JUMP JUMPDEST SWAP1 POP SWAP2 SWAP1 POP JUMP JUMPDEST PUSH1 0x0 PUSH2 0x19B6 DUP3 PUSH2 0x19BD JUMP JUMPDEST SWAP1 POP SWAP2 SWAP1 POP JUMP JUMPDEST PUSH1 0x0 PUSH2 0x19C8 DUP3 PUSH2 0x19CF JUMP JUMPDEST SWAP1 POP SWAP2 SWAP1 POP JUMP JUMPDEST PUSH1 0x0 PUSH2 0x19DA DUP3 PUSH2 0x1962 JUMP JUMPDEST SWAP1 POP SWAP2 SWAP1 POP JUMP JUMPDEST PUSH1 0x0 JUMPDEST DUP4 DUP2 LT ISZERO PUSH2 0x19FF JUMPI DUP1 DUP3 ADD MLOAD DUP2 DUP5 ADD MSTORE PUSH1 0x20 DUP2 ADD SWAP1 POP PUSH2 0x19E4 JUMP JUMPDEST DUP4 DUP2 GT ISZERO PUSH2 0x1A0E JUMPI PUSH1 0x0 DUP5 DUP5 ADD MSTORE JUMPDEST POP POP POP POP JUMP JUMPDEST PUSH1 0x0 PUSH1 0x2 DUP3 DIV SWAP1 POP PUSH1 0x1 DUP3 AND DUP1 PUSH2 0x1A2C JUMPI PUSH1 0x7F DUP3 AND SWAP2 POP JUMPDEST PUSH1 0x20 DUP3 LT DUP2 EQ ISZERO PUSH2 0x1A40 JUMPI PUSH2 0x1A3F PUSH2 0x1A75 JUMP JUMPDEST JUMPDEST POP SWAP2 SWAP1 POP JUMP JUMPDEST PUSH32 0x4E487B7100000000000000000000000000000000000000000000000000000000 PUSH1 0x0 MSTORE PUSH1 0x11 PUSH1 0x4 MSTORE PUSH1 0x24 PUSH1 0x0 REVERT JUMPDEST PUSH32 0x4E487B7100000000000000000000000000000000000000000000000000000000 PUSH1 0x0 MSTORE PUSH1 0x22 PUSH1 0x4 MSTORE PUSH1 0x24 PUSH1 0x0 REVERT JUMPDEST PUSH1 0x0 DUP1 REVERT JUMPDEST PUSH1 0x0 PUSH1 0x1F NOT PUSH1 0x1F DUP4 ADD AND SWAP1 POP SWAP2 SWAP1 POP JUMP JUMPDEST PUSH32 0x45524332303A207472616E7366657220746F20746865207A65726F2061646472 PUSH1 0x0 DUP3 ADD MSTORE PUSH32 0x6573730000000000000000000000000000000000000000000000000000000000 PUSH1 0x20 DUP3 ADD MSTORE POP JUMP JUMPDEST PUSH32 0x45524332303A20617070726F766520746F20746865207A65726F206164647265 PUSH1 0x0 DUP3 ADD MSTORE PUSH32 0x7373000000000000000000000000000000000000000000000000000000000000 PUSH1 0x20 DUP3 ADD MSTORE POP JUMP JUMPDEST PUSH32 0x45524332303A20696E73756666696369656E7420616C6C6F77616E6365000000 PUSH1 0x0 DUP3 ADD MSTORE POP JUMP JUMPDEST PUSH32 0x45524332303A207472616E7366657220616D6F756E7420657863656564732062 PUSH1 0x0 DUP3 ADD MSTORE PUSH32 0x616C616E63650000000000000000000000000000000000000000000000000000 PUSH1 0x20 DUP3 ADD MSTORE POP JUMP JUMPDEST PUSH32 0x6F6E6C792061646D696E00000000000000000000000000000000000000000000 PUSH1 0x0 DUP3 ADD MSTORE POP JUMP JUMPDEST PUSH32 0x45524332303A207472616E736665722066726F6D20746865207A65726F206164 PUSH1 0x0 DUP3 ADD MSTORE PUSH32 0x6472657373000000000000000000000000000000000000000000000000000000 PUSH1 0x20 DUP3 ADD MSTORE POP JUMP JUMPDEST PUSH32 0x45524332303A20617070726F76652066726F6D20746865207A65726F20616464 PUSH1 0x0 DUP3 ADD MSTORE PUSH32 0x7265737300000000000000000000000000000000000000000000000000000000 PUSH1 0x20 DUP3 ADD MSTORE POP JUMP JUMPDEST PUSH32 0x6E6F7420656E6F75676820736861726573206C65667400000000000000000000 PUSH1 0x0 DUP3 ADD MSTORE POP JUMP JUMPDEST PUSH32 0x45524332303A2064656372656173656420616C6C6F77616E63652062656C6F77 PUSH1 0x0 DUP3 ADD MSTORE PUSH32 0x207A65726F000000000000000000000000000000000000000000000000000000 PUSH1 0x20 DUP3 ADD MSTORE POP JUMP JUMPDEST PUSH32 0x45524332303A206D696E7420746F20746865207A65726F206164647265737300 PUSH1 0x0 DUP3 ADD MSTORE POP JUMP JUMPDEST PUSH2 0x1D41 DUP2 PUSH2 0x1944 JUMP JUMPDEST DUP2 EQ PUSH2 0x1D4C JUMPI PUSH1 0x0 DUP1 REVERT JUMPDEST POP JUMP JUMPDEST PUSH2 0x1D58 DUP2 PUSH2 0x1956 JUMP JUMPDEST DUP2 EQ PUSH2 0x1D63 JUMPI PUSH1 0x0 DUP1 REVERT JUMPDEST POP JUMP JUMPDEST PUSH2 0x1D6F DUP2 PUSH2 0x1982 JUMP JUMPDEST DUP2 EQ PUSH2 0x1D7A JUMPI PUSH1 0x0 DUP1 REVERT JUMPDEST POP JUMP INVALID LOG2 PUSH5 0x6970667358 0x22 SLT KECCAK256 PUSH28 0x5BEEC637CCDB143BD21557284B8F4D30613987E7813490EEF50DB337 JUMPDEST 0xDB SELFBALANCE PUSH5 0x736F6C6343 STOP ADDMOD SMOD STOP CALLER "
				},
				"gasEstimates": {
					"creation": {
						"codeDepositCost": "1520600",
						"executionCost": "infinite",
						"totalCost": "infinite"
					},
					"external": {
						"SharePrice()": "2562",
						"ShareSupply()": "2518",
						"Target()": "2452",
						"TargetRaised()": "2610",
						"addressToAmountFunded(address)": "2881",
						"admin()": "2646",
						"allowance(address,address)": "infinite",
						"approve(address,uint256)": "infinite",
						"balanceOf(address)": "2886",
						"buyShare(uint256)": "infinite",
						"dai()": "2710",
						"decimals()": "366",
						"decreaseAllowance(address,uint256)": "infinite",
						"increaseAllowance(address,uint256)": "infinite",
						"name()": "infinite",
						"nft()": "2711",
						"nftId()": "2495",
						"symbol()": "infinite",
						"totalSupply()": "2505",
						"transfer(address,uint256)": "infinite",
						"transferFrom(address,address,uint256)": "infinite",
						"withdrawIcoProfits()": "infinite"
					}
				},
				"methodIdentifiers": {
					"SharePrice()": "48c7a0bf",
					"ShareSupply()": "479afbf9",
					"Target()": "4fe6f55f",
					"TargetRaised()": "9ce15a38",
					"addressToAmountFunded(address)": "3e47d6f3",
					"admin()": "f851a440",
					"allowance(address,address)": "dd62ed3e",
					"approve(address,uint256)": "095ea7b3",
					"balanceOf(address)": "70a08231",
					"buyShare(uint256)": "a9ed6e9a",
					"dai()": "f4b9fa75",
					"decimals()": "313ce567",
					"decreaseAllowance(address,uint256)": "a457c2d7",
					"increaseAllowance(address,uint256)": "39509351",
					"name()": "06fdde03",
					"nft()": "47ccca02",
					"nftId()": "c6bc5182",
					"symbol()": "95d89b41",
					"totalSupply()": "18160ddd",
					"transfer(address,uint256)": "a9059cbb",
					"transferFrom(address,address,uint256)": "23b872dd",
					"withdrawIcoProfits()": "1fed217d"
				}
			},
			"storageLayout": {
				"storage": [
					{
						"astId": 15,
						"contract": "contracts/RFT.sol:RFT",
						"label": "_balances",
						"offset": 0,
						"slot": "0",
						"type": "t_mapping(t_address,t_uint256)"
					},
					{
						"astId": 21,
						"contract": "contracts/RFT.sol:RFT",
						"label": "_allowances",
						"offset": 0,
						"slot": "1",
						"type": "t_mapping(t_address,t_mapping(t_address,t_uint256))"
					},
					{
						"astId": 23,
						"contract": "contracts/RFT.sol:RFT",
						"label": "_totalSupply",
						"offset": 0,
						"slot": "2",
						"type": "t_uint256"
					},
					{
						"astId": 25,
						"contract": "contracts/RFT.sol:RFT",
						"label": "_name",
						"offset": 0,
						"slot": "3",
						"type": "t_string_storage"
					},
					{
						"astId": 27,
						"contract": "contracts/RFT.sol:RFT",
						"label": "_symbol",
						"offset": 0,
						"slot": "4",
						"type": "t_string_storage"
					},
					{
						"astId": 847,
						"contract": "contracts/RFT.sol:RFT",
						"label": "SharePrice",
						"offset": 0,
						"slot": "5",
						"type": "t_uint256"
					},
					{
						"astId": 849,
						"contract": "contracts/RFT.sol:RFT",
						"label": "ShareSupply",
						"offset": 0,
						"slot": "6",
						"type": "t_uint256"
					},
					{
						"astId": 851,
						"contract": "contracts/RFT.sol:RFT",
						"label": "Target",
						"offset": 0,
						"slot": "7",
						"type": "t_uint256"
					},
					{
						"astId": 853,
						"contract": "contracts/RFT.sol:RFT",
						"label": "nftId",
						"offset": 0,
						"slot": "8",
						"type": "t_uint256"
					},
					{
						"astId": 856,
						"contract": "contracts/RFT.sol:RFT",
						"label": "nft",
						"offset": 0,
						"slot": "9",
						"type": "t_contract(IERC721)804"
					},
					{
						"astId": 859,
						"contract": "contracts/RFT.sol:RFT",
						"label": "dai",
						"offset": 0,
						"slot": "10",
						"type": "t_contract(IERC20)663"
					},
					{
						"astId": 861,
						"contract": "contracts/RFT.sol:RFT",
						"label": "admin",
						"offset": 0,
						"slot": "11",
						"type": "t_address"
					},
					{
						"astId": 864,
						"contract": "contracts/RFT.sol:RFT",
						"label": "TargetRaised",
						"offset": 20,
						"slot": "11",
						"type": "t_bool"
					},
					{
						"astId": 868,
						"contract": "contracts/RFT.sol:RFT",
						"label": "addressToAmountFunded",
						"offset": 0,
						"slot": "12",
						"type": "t_mapping(t_address,t_uint256)"
					}
				],
				"types": {
					"t_address": {
						"encoding": "inplace",
						"label": "address",
						"numberOfBytes": "20"
					},
					"t_bool": {
						"encoding": "inplace",
						"label": "bool",
						"numberOfBytes": "1"
					},
					"t_contract(IERC20)663": {
						"encoding": "inplace",
						"label": "contract IERC20",
						"numberOfBytes": "20"
					},
					"t_contract(IERC721)804": {
						"encoding": "inplace",
						"label": "contract IERC721",
						"numberOfBytes": "20"
					},
					"t_mapping(t_address,t_mapping(t_address,t_uint256))": {
						"encoding": "mapping",
						"key": "t_address",
						"label": "mapping(address => mapping(address => uint256))",
						"numberOfBytes": "32",
						"value": "t_mapping(t_address,t_uint256)"
					},
					"t_mapping(t_address,t_uint256)": {
						"encoding": "mapping",
						"key": "t_address",
						"label": "mapping(address => uint256)",
						"numberOfBytes": "32",
						"value": "t_uint256"
					},
					"t_string_storage": {
						"encoding": "bytes",
						"label": "string",
						"numberOfBytes": "32"
					},
					"t_uint256": {
						"encoding": "inplace",
						"label": "uint256",
						"numberOfBytes": "32"
					}
				}
			},
			"userdoc": {
				"kind": "user",
				"methods": {},
				"version": 1
			}
		}
	}
}