{
	"Re-fungible_Tokens/contracts/AssetFundRaising.sol": {
		"AssetFundRaising": {
			"abi": [
				{
					"inputs": [
						{
							"internalType": "uint256",
							"name": "amount",
							"type": "uint256"
						},
						{
							"internalType": "string",
							"name": "name",
							"type": "string"
						},
						{
							"internalType": "string",
							"name": "symbol",
							"type": "string"
						},
						{
							"internalType": "address",
							"name": "_admin",
							"type": "address"
						},
						{
							"internalType": "address",
							"name": "daiAddress",
							"type": "address"
						}
					],
					"stateMutability": "nonpayable",
					"type": "constructor"
				},
				{
					"anonymous": false,
					"inputs": [
						{
							"indexed": true,
							"internalType": "address",
							"name": "owner",
							"type": "address"
						},
						{
							"indexed": true,
							"internalType": "address",
							"name": "spender",
							"type": "address"
						},
						{
							"indexed": false,
							"internalType": "uint256",
							"name": "value",
							"type": "uint256"
						}
					],
					"name": "Approval",
					"type": "event"
				},
				{
					"anonymous": false,
					"inputs": [
						{
							"indexed": true,
							"internalType": "address",
							"name": "from",
							"type": "address"
						},
						{
							"indexed": true,
							"internalType": "address",
							"name": "to",
							"type": "address"
						},
						{
							"indexed": false,
							"internalType": "uint256",
							"name": "value",
							"type": "uint256"
						}
					],
					"name": "Transfer",
					"type": "event"
				},
				{
					"inputs": [],
					"name": "DAI",
					"outputs": [
						{
							"internalType": "contract IERC20",
							"name": "",
							"type": "address"
						}
					],
					"stateMutability": "view",
					"type": "function"
				},
				{
					"inputs": [],
					"name": "NFT",
					"outputs": [
						{
							"internalType": "contract IERC721",
							"name": "",
							"type": "address"
						}
					],
					"stateMutability": "view",
					"type": "function"
				},
				{
					"inputs": [],
					"name": "_paused",
					"outputs": [
						{
							"internalType": "bool",
							"name": "",
							"type": "bool"
						}
					],
					"stateMutability": "view",
					"type": "function"
				},
				{
					"inputs": [
						{
							"internalType": "address",
							"name": "owner",
							"type": "address"
						},
						{
							"internalType": "address",
							"name": "spender",
							"type": "address"
						}
					],
					"name": "allowance",
					"outputs": [
						{
							"internalType": "uint256",
							"name": "",
							"type": "uint256"
						}
					],
					"stateMutability": "view",
					"type": "function"
				},
				{
					"inputs": [
						{
							"internalType": "address",
							"name": "spender",
							"type": "address"
						},
						{
							"internalType": "uint256",
							"name": "amount",
							"type": "uint256"
						}
					],
					"name": "approve",
					"outputs": [
						{
							"internalType": "bool",
							"name": "",
							"type": "bool"
						}
					],
					"stateMutability": "nonpayable",
					"type": "function"
				},
				{
					"inputs": [
						{
							"internalType": "address",
							"name": "account",
							"type": "address"
						}
					],
					"name": "balanceOf",
					"outputs": [
						{
							"internalType": "uint256",
							"name": "",
							"type": "uint256"
						}
					],
					"stateMutability": "view",
					"type": "function"
				},
				{
					"inputs": [],
					"name": "decimals",
					"outputs": [
						{
							"internalType": "uint8",
							"name": "",
							"type": "uint8"
						}
					],
					"stateMutability": "view",
					"type": "function"
				},
				{
					"inputs": [
						{
							"internalType": "address",
							"name": "spender",
							"type": "address"
						},
						{
							"internalType": "uint256",
							"name": "subtractedValue",
							"type": "uint256"
						}
					],
					"name": "decreaseAllowance",
					"outputs": [
						{
							"internalType": "bool",
							"name": "",
							"type": "bool"
						}
					],
					"stateMutability": "nonpayable",
					"type": "function"
				},
				{
					"inputs": [
						{
							"internalType": "address",
							"name": "spender",
							"type": "address"
						},
						{
							"internalType": "uint256",
							"name": "addedValue",
							"type": "uint256"
						}
					],
					"name": "increaseAllowance",
					"outputs": [
						{
							"internalType": "bool",
							"name": "",
							"type": "bool"
						}
					],
					"stateMutability": "nonpayable",
					"type": "function"
				},
				{
					"inputs": [
						{
							"internalType": "uint256",
							"name": "value",
							"type": "uint256"
						}
					],
					"name": "invest",
					"outputs": [],
					"stateMutability": "nonpayable",
					"type": "function"
				},
				{
					"inputs": [],
					"name": "name",
					"outputs": [
						{
							"internalType": "string",
							"name": "",
							"type": "string"
						}
					],
					"stateMutability": "view",
					"type": "function"
				},
				{
					"inputs": [],
					"name": "pause",
					"outputs": [],
					"stateMutability": "nonpayable",
					"type": "function"
				},
				{
					"inputs": [],
					"name": "symbol",
					"outputs": [
						{
							"internalType": "string",
							"name": "",
							"type": "string"
						}
					],
					"stateMutability": "view",
					"type": "function"
				},
				{
					"inputs": [],
					"name": "targetAmount",
					"outputs": [
						{
							"internalType": "uint256",
							"name": "",
							"type": "uint256"
						}
					],
					"stateMutability": "view",
					"type": "function"
				},
				{
					"inputs": [],
					"name": "totalSupply",
					"outputs": [
						{
							"internalType": "uint256",
							"name": "",
							"type": "uint256"
						}
					],
					"stateMutability": "view",
					"type": "function"
				},
				{
					"inputs": [
						{
							"internalType": "address",
							"name": "to",
							"type": "address"
						},
						{
							"internalType": "uint256",
							"name": "amount",
							"type": "uint256"
						}
					],
					"name": "transfer",
					"outputs": [
						{
							"internalType": "bool",
							"name": "",
							"type": "bool"
						}
					],
					"stateMutability": "nonpayable",
					"type": "function"
				},
				{
					"inputs": [
						{
							"internalType": "address",
							"name": "from",
							"type": "address"
						},
						{
							"internalType": "address",
							"name": "to",
							"type": "address"
						},
						{
							"internalType": "uint256",
							"name": "amount",
							"type": "uint256"
						}
					],
					"name": "transferFrom",
					"outputs": [
						{
							"internalType": "bool",
							"name": "",
							"type": "bool"
						}
					],
					"stateMutability": "nonpayable",
					"type": "function"
				},
				{
					"inputs": [],
					"name": "unpause",
					"outputs": [],
					"stateMutability": "nonpayable",
					"type": "function"
				},
				{
					"inputs": [
						{
							"internalType": "uint256",
							"name": "value",
							"type": "uint256"
						}
					],
					"name": "withdrawInvestment",
					"outputs": [],
					"stateMutability": "nonpayable",
					"type": "function"
				}
			],
			"devdoc": {
				"kind": "dev",
				"methods": {
					"allowance(address,address)": {
						"details": "See {IERC20-allowance}."
					},
					"approve(address,uint256)": {
						"details": "See {IERC20-approve}. NOTE: If `amount` is the maximum `uint256`, the allowance is not updated on `transferFrom`. This is semantically equivalent to an infinite approval. Requirements: - `spender` cannot be the zero address."
					},
					"balanceOf(address)": {
						"details": "See {IERC20-balanceOf}."
					},
					"decimals()": {
						"details": "Returns the number of decimals used to get its user representation. For example, if `decimals` equals `2`, a balance of `505` tokens should be displayed to a user as `5.05` (`505 / 10 ** 2`). Tokens usually opt for a value of 18, imitating the relationship between Ether and Wei. This is the value {ERC20} uses, unless this function is overridden; NOTE: This information is only used for _display_ purposes: it in no way affects any of the arithmetic of the contract, including {IERC20-balanceOf} and {IERC20-transfer}."
					},
					"decreaseAllowance(address,uint256)": {
						"details": "Atomically decreases the allowance granted to `spender` by the caller. This is an alternative to {approve} that can be used as a mitigation for problems described in {IERC20-approve}. Emits an {Approval} event indicating the updated allowance. Requirements: - `spender` cannot be the zero address. - `spender` must have allowance for the caller of at least `subtractedValue`."
					},
					"increaseAllowance(address,uint256)": {
						"details": "Atomically increases the allowance granted to `spender` by the caller. This is an alternative to {approve} that can be used as a mitigation for problems described in {IERC20-approve}. Emits an {Approval} event indicating the updated allowance. Requirements: - `spender` cannot be the zero address."
					},
					"name()": {
						"details": "Returns the name of the token."
					},
					"symbol()": {
						"details": "Returns the symbol of the token, usually a shorter version of the name."
					},
					"totalSupply()": {
						"details": "See {IERC20-totalSupply}."
					},
					"transfer(address,uint256)": {
						"details": "See {IERC20-transfer}. Requirements: - `to` cannot be the zero address. - the caller must have a balance of at least `amount`."
					},
					"transferFrom(address,address,uint256)": {
						"details": "See {IERC20-transferFrom}. Emits an {Approval} event indicating the updated allowance. This is not required by the EIP. See the note at the beginning of {ERC20}. NOTE: Does not update the allowance if the current allowance is the maximum `uint256`. Requirements: - `from` and `to` cannot be the zero address. - `from` must have a balance of at least `amount`. - the caller must have allowance for ``from``'s tokens of at least `amount`."
					}
				},
				"version": 1
			},
			"evm": {
				"assembly": "    /* \"Re-fungible_Tokens/contracts/AssetFundRaising.sol\":236:1763  contract AssetFundRaising is ERC20 {... */\n  mstore(0x40, 0xa0)\n    /* \"Re-fungible_Tokens/contracts/AssetFundRaising.sol\":608:865  constructor(uint256 amount, string memory name, string memory symbol, address _admin, address daiAddress) ERC20(name, symbol) {... */\n  callvalue\n  dup1\n  iszero\n  tag_1\n  jumpi\n  0x00\n  dup1\n  revert\ntag_1:\n  pop\n  mload(0x40)\n  sub(codesize, bytecodeSize)\n  dup1\n  bytecodeSize\n  dup4\n  codecopy\n  dup2\n  add\n  0x40\n  dup2\n  swap1\n  mstore\n  tag_2\n  swap2\n  tag_3\n  jump\t// in\ntag_2:\n    /* \"@openzeppelin/contracts/token/ERC20/ERC20.sol\":2044:2057  _name = name_ */\n  dup4\n  mload\n    /* \"Re-fungible_Tokens/contracts/AssetFundRaising.sol\":720:724  name */\n  dup5\n  swap1\n    /* \"Re-fungible_Tokens/contracts/AssetFundRaising.sol\":726:732  symbol */\n  dup5\n  swap1\n    /* \"@openzeppelin/contracts/token/ERC20/ERC20.sol\":2044:2057  _name = name_ */\n  tag_7\n  swap1\n    /* \"@openzeppelin/contracts/token/ERC20/ERC20.sol\":2044:2049  _name */\n  0x03\n  swap1\n    /* \"@openzeppelin/contracts/token/ERC20/ERC20.sol\":2044:2057  _name = name_ */\n  0x20\n  dup6\n  add\n  swap1\n  tag_8\n  jump\t// in\ntag_7:\n  pop\n    /* \"@openzeppelin/contracts/token/ERC20/ERC20.sol\":2067:2084  _symbol = symbol_ */\n  dup1\n  mload\n  tag_9\n  swap1\n    /* \"@openzeppelin/contracts/token/ERC20/ERC20.sol\":2067:2074  _symbol */\n  0x04\n  swap1\n    /* \"@openzeppelin/contracts/token/ERC20/ERC20.sol\":2067:2084  _symbol = symbol_ */\n  0x20\n  dup5\n  add\n  swap1\n  tag_8\n  jump\t// in\ntag_9:\n  pop\n  pop\n  pop\n    /* \"Re-fungible_Tokens/contracts/AssetFundRaising.sol\":744:756  targetAmount */\n  0x06\n    /* \"Re-fungible_Tokens/contracts/AssetFundRaising.sol\":744:765  targetAmount = amount */\n  swap5\n  swap1\n  swap5\n  sstore\n    /* \"Re-fungible_Tokens/contracts/AssetFundRaising.sol\":775:780  admin */\n  0x07\n    /* \"Re-fungible_Tokens/contracts/AssetFundRaising.sol\":775:789  admin = _admin */\n  dup1\n  sload\n  not(sub(shl(0xa8, 0x01), 0x0100))\n  and\n  0x0100\n  sub(shl(0xa0, 0x01), 0x01)\n  swap4\n  dup5\n  and\n  mul\n  or\n  swap1\n  sstore\n    /* \"Re-fungible_Tokens/contracts/AssetFundRaising.sol\":799:802  DAI */\n  0x05\n    /* \"Re-fungible_Tokens/contracts/AssetFundRaising.sol\":799:823  DAI = IERC20(daiAddress) */\n  dup1\n  sload\n  not(sub(shl(0xa0, 0x01), 0x01))\n  and\n  swap2\n  swap1\n  swap5\n  and\n  or\n  swap1\n  swap3\n  sstore\n  pop\n  pop\n    /* \"Re-fungible_Tokens/contracts/AssetFundRaising.sol\":847:857  msg.sender */\n  caller\n    /* \"Re-fungible_Tokens/contracts/AssetFundRaising.sol\":833:858  NFT = IERC721(msg.sender) */\n  0x60\n  shl\n  0x80\n  mstore\n    /* \"Re-fungible_Tokens/contracts/AssetFundRaising.sol\":236:1763  contract AssetFundRaising is ERC20 {... */\n  jump(tag_23)\ntag_8:\n  dup3\n  dup1\n  sload\n  tag_12\n  swap1\n  tag_13\n  jump\t// in\ntag_12:\n  swap1\n  0x00\n  mstore\n  keccak256(0x00, 0x20)\n  swap1\n  0x1f\n  add\n  0x20\n  swap1\n  div\n  dup2\n  add\n  swap3\n  dup3\n  tag_15\n  jumpi\n  0x00\n  dup6\n  sstore\n  jump(tag_18)\ntag_15:\n  dup3\n  0x1f\n  lt\n  tag_16\n  jumpi\n  dup1\n  mload\n  not(0xff)\n  and\n  dup4\n  dup1\n  add\n  or\n  dup6\n  sstore\n  jump(tag_18)\ntag_16:\n  dup3\n  dup1\n  add\n  0x01\n  add\n  dup6\n  sstore\n  dup3\n  iszero\n  tag_18\n  jumpi\n  swap2\n  dup3\n  add\ntag_17:\n  dup3\n  dup2\n  gt\n  iszero\n  tag_18\n  jumpi\n  dup3\n  mload\n  dup3\n  sstore\n  swap2\n  0x20\n  add\n  swap2\n  swap1\n  0x01\n  add\n  swap1\n  jump(tag_17)\ntag_18:\n  pop\n  tag_19\n  swap3\n  swap2\n  pop\n  tag_20\n  jump\t// in\ntag_19:\n  pop\n  swap1\n  jump\t// out\ntag_20:\ntag_21:\n  dup1\n  dup3\n  gt\n  iszero\n  tag_19\n  jumpi\n  0x00\n  dup2\n  sstore\n  0x01\n  add\n  jump(tag_21)\n    /* \"#utility.yul\":14:191   */\ntag_24:\n    /* \"#utility.yul\":93:106   */\n  dup1\n  mload\n  sub(shl(0xa0, 0x01), 0x01)\n    /* \"#utility.yul\":135:166   */\n  dup2\n  and\n    /* \"#utility.yul\":125:167   */\n  dup2\n  eq\n    /* \"#utility.yul\":115:185   */\n  tag_26\n  jumpi\n    /* \"#utility.yul\":181:182   */\n  0x00\n    /* \"#utility.yul\":178:179   */\n  dup1\n    /* \"#utility.yul\":171:183   */\n  revert\n    /* \"#utility.yul\":115:185   */\ntag_26:\n    /* \"#utility.yul\":14:191   */\n  swap2\n  swap1\n  pop\n  jump\t// out\n    /* \"#utility.yul\":196:1081   */\ntag_27:\n    /* \"#utility.yul\":250:255   */\n  0x00\n    /* \"#utility.yul\":303:306   */\n  dup3\n    /* \"#utility.yul\":296:300   */\n  0x1f\n    /* \"#utility.yul\":288:294   */\n  dup4\n    /* \"#utility.yul\":284:301   */\n  add\n    /* \"#utility.yul\":280:307   */\n  slt\n    /* \"#utility.yul\":270:325   */\n  tag_29\n  jumpi\n    /* \"#utility.yul\":321:322   */\n  0x00\n    /* \"#utility.yul\":318:319   */\n  dup1\n    /* \"#utility.yul\":311:323   */\n  revert\n    /* \"#utility.yul\":270:325   */\ntag_29:\n    /* \"#utility.yul\":344:357   */\n  dup2\n  mload\n  sub(shl(0x40, 0x01), 0x01)\n    /* \"#utility.yul\":406:416   */\n  dup1\n  dup3\n  gt\n    /* \"#utility.yul\":403:439   */\n  iszero\n  tag_31\n  jumpi\n    /* \"#utility.yul\":419:437   */\n  tag_31\n  tag_32\n  jump\t// in\ntag_31:\n    /* \"#utility.yul\":494:496   */\n  0x40\n    /* \"#utility.yul\":488:497   */\n  mload\n    /* \"#utility.yul\":462:464   */\n  0x1f\n    /* \"#utility.yul\":548:561   */\n  dup4\n  add\n  not(0x1f)\n    /* \"#utility.yul\":544:566   */\n  swap1\n  dup2\n  and\n    /* \"#utility.yul\":568:570   */\n  0x3f\n    /* \"#utility.yul\":540:571   */\n  add\n    /* \"#utility.yul\":536:576   */\n  and\n    /* \"#utility.yul\":524:577   */\n  dup2\n  add\n  swap1\n    /* \"#utility.yul\":592:610   */\n  dup3\n  dup3\n  gt\n    /* \"#utility.yul\":612:634   */\n  dup2\n  dup4\n  lt\n    /* \"#utility.yul\":589:635   */\n  or\n    /* \"#utility.yul\":586:658   */\n  iszero\n  tag_34\n  jumpi\n    /* \"#utility.yul\":638:656   */\n  tag_34\n  tag_32\n  jump\t// in\ntag_34:\n    /* \"#utility.yul\":678:688   */\n  dup2\n    /* \"#utility.yul\":674:676   */\n  0x40\n    /* \"#utility.yul\":667:689   */\n  mstore\n    /* \"#utility.yul\":713:715   */\n  dup4\n    /* \"#utility.yul\":705:711   */\n  dup2\n    /* \"#utility.yul\":698:716   */\n  mstore\n    /* \"#utility.yul\":735:739   */\n  0x20\n    /* \"#utility.yul\":725:739   */\n  swap3\n  pop\n    /* \"#utility.yul\":780:783   */\n  dup7\n    /* \"#utility.yul\":775:777   */\n  dup4\n    /* \"#utility.yul\":770:772   */\n  dup6\n    /* \"#utility.yul\":762:768   */\n  dup9\n    /* \"#utility.yul\":758:773   */\n  add\n    /* \"#utility.yul\":754:778   */\n  add\n    /* \"#utility.yul\":751:784   */\n  gt\n    /* \"#utility.yul\":748:801   */\n  iszero\n  tag_35\n  jumpi\n    /* \"#utility.yul\":797:798   */\n  0x00\n    /* \"#utility.yul\":794:795   */\n  dup1\n    /* \"#utility.yul\":787:799   */\n  revert\n    /* \"#utility.yul\":748:801   */\ntag_35:\n    /* \"#utility.yul\":819:820   */\n  0x00\n    /* \"#utility.yul\":810:820   */\n  swap2\n  pop\n    /* \"#utility.yul\":829:962   */\ntag_36:\n    /* \"#utility.yul\":843:845   */\n  dup4\n    /* \"#utility.yul\":840:841   */\n  dup3\n    /* \"#utility.yul\":837:846   */\n  lt\n    /* \"#utility.yul\":829:962   */\n  iszero\n  tag_38\n  jumpi\n    /* \"#utility.yul\":931:945   */\n  dup6\n  dup3\n  add\n    /* \"#utility.yul\":927:950   */\n  dup4\n  add\n    /* \"#utility.yul\":921:951   */\n  mload\n    /* \"#utility.yul\":900:914   */\n  dup2\n  dup4\n  add\n    /* \"#utility.yul\":896:919   */\n  dup5\n  add\n    /* \"#utility.yul\":889:952   */\n  mstore\n    /* \"#utility.yul\":854:864   */\n  swap1\n  dup3\n  add\n  swap1\n    /* \"#utility.yul\":829:962   */\n  jump(tag_36)\ntag_38:\n    /* \"#utility.yul\":980:982   */\n  dup4\n    /* \"#utility.yul\":977:978   */\n  dup3\n    /* \"#utility.yul\":974:983   */\n  gt\n    /* \"#utility.yul\":971:1051   */\n  iszero\n  tag_39\n  jumpi\n    /* \"#utility.yul\":1039:1040   */\n  0x00\n    /* \"#utility.yul\":1034:1036   */\n  dup4\n    /* \"#utility.yul\":1029:1031   */\n  dup6\n    /* \"#utility.yul\":1021:1027   */\n  dup4\n    /* \"#utility.yul\":1017:1032   */\n  add\n    /* \"#utility.yul\":1013:1037   */\n  add\n    /* \"#utility.yul\":1006:1041   */\n  mstore\n    /* \"#utility.yul\":971:1051   */\ntag_39:\n    /* \"#utility.yul\":1069:1075   */\n  swap7\n    /* \"#utility.yul\":196:1081   */\n  swap6\n  pop\n  pop\n  pop\n  pop\n  pop\n  pop\n  jump\t// out\n    /* \"#utility.yul\":1086:1881   */\ntag_3:\n    /* \"#utility.yul\":1212:1218   */\n  0x00\n    /* \"#utility.yul\":1220:1226   */\n  dup1\n    /* \"#utility.yul\":1228:1234   */\n  0x00\n    /* \"#utility.yul\":1236:1242   */\n  dup1\n    /* \"#utility.yul\":1244:1250   */\n  0x00\n    /* \"#utility.yul\":1297:1300   */\n  0xa0\n    /* \"#utility.yul\":1285:1294   */\n  dup7\n    /* \"#utility.yul\":1276:1283   */\n  dup9\n    /* \"#utility.yul\":1272:1295   */\n  sub\n    /* \"#utility.yul\":1268:1301   */\n  slt\n    /* \"#utility.yul\":1265:1318   */\n  iszero\n  tag_41\n  jumpi\n    /* \"#utility.yul\":1314:1315   */\n  0x00\n    /* \"#utility.yul\":1311:1312   */\n  dup1\n    /* \"#utility.yul\":1304:1316   */\n  revert\n    /* \"#utility.yul\":1265:1318   */\ntag_41:\n    /* \"#utility.yul\":1337:1353   */\n  dup6\n  mload\n    /* \"#utility.yul\":1397:1399   */\n  0x20\n    /* \"#utility.yul\":1382:1400   */\n  dup8\n  add\n    /* \"#utility.yul\":1376:1401   */\n  mload\n    /* \"#utility.yul\":1337:1353   */\n  swap1\n  swap6\n  pop\n  sub(shl(0x40, 0x01), 0x01)\n    /* \"#utility.yul\":1450:1464   */\n  dup1\n  dup3\n  gt\n    /* \"#utility.yul\":1447:1481   */\n  iszero\n  tag_42\n  jumpi\n    /* \"#utility.yul\":1477:1478   */\n  0x00\n    /* \"#utility.yul\":1474:1475   */\n  dup1\n    /* \"#utility.yul\":1467:1479   */\n  revert\n    /* \"#utility.yul\":1447:1481   */\ntag_42:\n    /* \"#utility.yul\":1500:1561   */\n  tag_43\n    /* \"#utility.yul\":1553:1560   */\n  dup10\n    /* \"#utility.yul\":1544:1550   */\n  dup4\n    /* \"#utility.yul\":1533:1542   */\n  dup11\n    /* \"#utility.yul\":1529:1551   */\n  add\n    /* \"#utility.yul\":1500:1561   */\n  tag_27\n  jump\t// in\ntag_43:\n    /* \"#utility.yul\":1490:1561   */\n  swap6\n  pop\n    /* \"#utility.yul\":1607:1609   */\n  0x40\n    /* \"#utility.yul\":1596:1605   */\n  dup9\n    /* \"#utility.yul\":1592:1610   */\n  add\n    /* \"#utility.yul\":1586:1611   */\n  mload\n    /* \"#utility.yul\":1570:1611   */\n  swap2\n  pop\n    /* \"#utility.yul\":1636:1638   */\n  dup1\n    /* \"#utility.yul\":1626:1634   */\n  dup3\n    /* \"#utility.yul\":1623:1639   */\n  gt\n    /* \"#utility.yul\":1620:1656   */\n  iszero\n  tag_44\n  jumpi\n    /* \"#utility.yul\":1652:1653   */\n  0x00\n    /* \"#utility.yul\":1649:1650   */\n  dup1\n    /* \"#utility.yul\":1642:1654   */\n  revert\n    /* \"#utility.yul\":1620:1656   */\ntag_44:\n  pop\n    /* \"#utility.yul\":1675:1738   */\n  tag_45\n    /* \"#utility.yul\":1730:1737   */\n  dup9\n    /* \"#utility.yul\":1719:1727   */\n  dup3\n    /* \"#utility.yul\":1708:1717   */\n  dup10\n    /* \"#utility.yul\":1704:1728   */\n  add\n    /* \"#utility.yul\":1675:1738   */\n  tag_27\n  jump\t// in\ntag_45:\n    /* \"#utility.yul\":1665:1738   */\n  swap4\n  pop\n  pop\n    /* \"#utility.yul\":1757:1806   */\n  tag_46\n    /* \"#utility.yul\":1802:1804   */\n  0x60\n    /* \"#utility.yul\":1791:1800   */\n  dup8\n    /* \"#utility.yul\":1787:1805   */\n  add\n    /* \"#utility.yul\":1757:1806   */\n  tag_24\n  jump\t// in\ntag_46:\n    /* \"#utility.yul\":1747:1806   */\n  swap2\n  pop\n    /* \"#utility.yul\":1825:1875   */\n  tag_47\n    /* \"#utility.yul\":1870:1873   */\n  0x80\n    /* \"#utility.yul\":1859:1868   */\n  dup8\n    /* \"#utility.yul\":1855:1874   */\n  add\n    /* \"#utility.yul\":1825:1875   */\n  tag_24\n  jump\t// in\ntag_47:\n    /* \"#utility.yul\":1815:1875   */\n  swap1\n  pop\n    /* \"#utility.yul\":1086:1881   */\n  swap3\n  swap6\n  pop\n  swap3\n  swap6\n  swap1\n  swap4\n  pop\n  jump\t// out\n    /* \"#utility.yul\":1886:2266   */\ntag_13:\n    /* \"#utility.yul\":1965:1966   */\n  0x01\n    /* \"#utility.yul\":1961:1973   */\n  dup2\n  dup2\n  shr\n  swap1\n    /* \"#utility.yul\":2008:2020   */\n  dup3\n  and\n  dup1\n    /* \"#utility.yul\":2029:2090   */\n  tag_49\n  jumpi\n    /* \"#utility.yul\":2083:2087   */\n  0x7f\n    /* \"#utility.yul\":2075:2081   */\n  dup3\n    /* \"#utility.yul\":2071:2088   */\n  and\n    /* \"#utility.yul\":2061:2088   */\n  swap2\n  pop\n    /* \"#utility.yul\":2029:2090   */\ntag_49:\n    /* \"#utility.yul\":2136:2138   */\n  0x20\n    /* \"#utility.yul\":2128:2134   */\n  dup3\n    /* \"#utility.yul\":2125:2139   */\n  lt\n    /* \"#utility.yul\":2105:2123   */\n  dup2\n    /* \"#utility.yul\":2102:2140   */\n  eq\n    /* \"#utility.yul\":2099:2260   */\n  iszero\n  tag_50\n  jumpi\n    /* \"#utility.yul\":2182:2192   */\n  0x4e487b71\n    /* \"#utility.yul\":2177:2180   */\n  0xe0\n    /* \"#utility.yul\":2173:2193   */\n  shl\n    /* \"#utility.yul\":2170:2171   */\n  0x00\n    /* \"#utility.yul\":2163:2194   */\n  mstore\n    /* \"#utility.yul\":2217:2221   */\n  0x22\n    /* \"#utility.yul\":2214:2215   */\n  0x04\n    /* \"#utility.yul\":2207:2222   */\n  mstore\n    /* \"#utility.yul\":2245:2249   */\n  0x24\n    /* \"#utility.yul\":2242:2243   */\n  0x00\n    /* \"#utility.yul\":2235:2250   */\n  revert\n    /* \"#utility.yul\":2099:2260   */\ntag_50:\n  pop\n    /* \"#utility.yul\":1886:2266   */\n  swap2\n  swap1\n  pop\n  jump\t// out\n    /* \"#utility.yul\":2271:2398   */\ntag_32:\n    /* \"#utility.yul\":2332:2342   */\n  0x4e487b71\n    /* \"#utility.yul\":2327:2330   */\n  0xe0\n    /* \"#utility.yul\":2323:2343   */\n  shl\n    /* \"#utility.yul\":2320:2321   */\n  0x00\n    /* \"#utility.yul\":2313:2344   */\n  mstore\n    /* \"#utility.yul\":2363:2367   */\n  0x41\n    /* \"#utility.yul\":2360:2361   */\n  0x04\n    /* \"#utility.yul\":2353:2368   */\n  mstore\n    /* \"#utility.yul\":2387:2391   */\n  0x24\n    /* \"#utility.yul\":2384:2385   */\n  0x00\n    /* \"#utility.yul\":2377:2392   */\n  revert\n    /* \"#utility.yul\":2271:2398   */\ntag_23:\n    /* \"Re-fungible_Tokens/contracts/AssetFundRaising.sol\":236:1763  contract AssetFundRaising is ERC20 {... */\n  shr(0x60, mload(0x80))\n  codecopy(0x00, dataOffset(sub_0), dataSize(sub_0))\n  0x00\n  assignImmutable(\"0xceebc1e79b37113a3784d9bbf48b7ad015159a0fad39f370ddaba6e9581bdbc5\")\n  return(0x00, dataSize(sub_0))\nstop\n\nsub_0: assembly {\n        /* \"Re-fungible_Tokens/contracts/AssetFundRaising.sol\":236:1763  contract AssetFundRaising is ERC20 {... */\n      mstore(0x40, 0x80)\n      callvalue\n      dup1\n      iszero\n      tag_1\n      jumpi\n      0x00\n      dup1\n      revert\n    tag_1:\n      pop\n      jumpi(tag_2, lt(calldatasize, 0x04))\n      shr(0xe0, calldataload(0x00))\n      dup1\n      0x3f4ba83a\n      gt\n      tag_22\n      jumpi\n      dup1\n      0x95d89b41\n      gt\n      tag_23\n      jumpi\n      dup1\n      0x95d89b41\n      eq\n      tag_17\n      jumpi\n      dup1\n      0xa457c2d7\n      eq\n      tag_18\n      jumpi\n      dup1\n      0xa9059cbb\n      eq\n      tag_19\n      jumpi\n      dup1\n      0xdd62ed3e\n      eq\n      tag_20\n      jumpi\n      dup1\n      0xe0bab4c4\n      eq\n      tag_21\n      jumpi\n      0x00\n      dup1\n      revert\n    tag_23:\n      dup1\n      0x3f4ba83a\n      eq\n      tag_12\n      jumpi\n      dup1\n      0x70a08231\n      eq\n      tag_13\n      jumpi\n      dup1\n      0x7c0b8de2\n      eq\n      tag_14\n      jumpi\n      dup1\n      0x8456cb59\n      eq\n      tag_15\n      jumpi\n      dup1\n      0x953b8fb8\n      eq\n      tag_16\n      jumpi\n      0x00\n      dup1\n      revert\n    tag_22:\n      dup1\n      0x2037fcbf\n      gt\n      tag_24\n      jumpi\n      dup1\n      0x2037fcbf\n      eq\n      tag_7\n      jumpi\n      dup1\n      0x23b872dd\n      eq\n      tag_8\n      jumpi\n      dup1\n      0x2afcf480\n      eq\n      tag_9\n      jumpi\n      dup1\n      0x313ce567\n      eq\n      tag_10\n      jumpi\n      dup1\n      0x39509351\n      eq\n      tag_11\n      jumpi\n      0x00\n      dup1\n      revert\n    tag_24:\n      dup1\n      0x06fdde03\n      eq\n      tag_3\n      jumpi\n      dup1\n      0x095ea7b3\n      eq\n      tag_4\n      jumpi\n      dup1\n      0x16c61ccc\n      eq\n      tag_5\n      jumpi\n      dup1\n      0x18160ddd\n      eq\n      tag_6\n      jumpi\n    tag_2:\n      0x00\n      dup1\n      revert\n        /* \"@openzeppelin/contracts/token/ERC20/ERC20.sol\":2156:2254  function name() public view virtual override returns (string memory) {... */\n    tag_3:\n      tag_25\n      tag_26\n      jump\t// in\n    tag_25:\n      mload(0x40)\n      tag_27\n      swap2\n      swap1\n      tag_28\n      jump\t// in\n    tag_27:\n      mload(0x40)\n      dup1\n      swap2\n      sub\n      swap1\n      return\n        /* \"@openzeppelin/contracts/token/ERC20/ERC20.sol\":4433:4630  function approve(address spender, uint256 amount) public virtual override returns (bool) {... */\n    tag_4:\n      tag_29\n      tag_30\n      calldatasize\n      0x04\n      tag_31\n      jump\t// in\n    tag_30:\n      tag_32\n      jump\t// in\n    tag_29:\n      mload(0x40)\n        /* \"#utility.yul\":2987:3001   */\n      swap1\n      iszero\n        /* \"#utility.yul\":2980:3002   */\n      iszero\n        /* \"#utility.yul\":2962:3003   */\n      dup2\n      mstore\n        /* \"#utility.yul\":2950:2952   */\n      0x20\n        /* \"#utility.yul\":2935:2953   */\n      add\n        /* \"@openzeppelin/contracts/token/ERC20/ERC20.sol\":4433:4630  function approve(address spender, uint256 amount) public virtual override returns (bool) {... */\n      tag_27\n        /* \"#utility.yul\":2822:3009   */\n      jump\n        /* \"Re-fungible_Tokens/contracts/AssetFundRaising.sol\":563:582  bool public _paused */\n    tag_5:\n      sload(0x07)\n      tag_29\n      swap1\n      0xff\n      and\n      dup2\n      jump\n        /* \"@openzeppelin/contracts/token/ERC20/ERC20.sol\":3244:3350  function totalSupply() public view virtual override returns (uint256) {... */\n    tag_6:\n        /* \"@openzeppelin/contracts/token/ERC20/ERC20.sol\":3331:3343  _totalSupply */\n      sload(0x02)\n        /* \"@openzeppelin/contracts/token/ERC20/ERC20.sol\":3244:3350  function totalSupply() public view virtual override returns (uint256) {... */\n    tag_38:\n      mload(0x40)\n        /* \"#utility.yul\":9202:9227   */\n      swap1\n      dup2\n      mstore\n        /* \"#utility.yul\":9190:9192   */\n      0x20\n        /* \"#utility.yul\":9175:9193   */\n      add\n        /* \"@openzeppelin/contracts/token/ERC20/ERC20.sol\":3244:3350  function totalSupply() public view virtual override returns (uint256) {... */\n      tag_27\n        /* \"#utility.yul\":9056:9233   */\n      jump\n        /* \"Re-fungible_Tokens/contracts/AssetFundRaising.sol\":1400:1613  function withdrawInvestment(uint256 value) external {... */\n    tag_7:\n      tag_42\n      tag_43\n      calldatasize\n      0x04\n      tag_44\n      jump\t// in\n    tag_43:\n      tag_45\n      jump\t// in\n    tag_42:\n      stop\n        /* \"@openzeppelin/contracts/token/ERC20/ERC20.sol\":5192:5478  function transferFrom(... */\n    tag_8:\n      tag_29\n      tag_47\n      calldatasize\n      0x04\n      tag_48\n      jump\t// in\n    tag_47:\n      tag_49\n      jump\t// in\n        /* \"Re-fungible_Tokens/contracts/AssetFundRaising.sol\":961:1394  function invest(uint256 value) external {... */\n    tag_9:\n      tag_42\n      tag_52\n      calldatasize\n      0x04\n      tag_44\n      jump\t// in\n    tag_52:\n      tag_53\n      jump\t// in\n        /* \"@openzeppelin/contracts/token/ERC20/ERC20.sol\":3093:3184  function decimals() public view virtual override returns (uint8) {... */\n    tag_10:\n      mload(0x40)\n        /* \"@openzeppelin/contracts/token/ERC20/ERC20.sol\":3175:3177  18 */\n      0x12\n        /* \"#utility.yul\":9380:9416   */\n      dup2\n      mstore\n        /* \"#utility.yul\":9368:9370   */\n      0x20\n        /* \"#utility.yul\":9353:9371   */\n      add\n        /* \"@openzeppelin/contracts/token/ERC20/ERC20.sol\":3093:3184  function decimals() public view virtual override returns (uint8) {... */\n      tag_27\n        /* \"#utility.yul\":9238:9422   */\n      jump\n        /* \"@openzeppelin/contracts/token/ERC20/ERC20.sol\":5873:6107  function increaseAllowance(address spender, uint256 addedValue) public virtual returns (bool) {... */\n    tag_11:\n      tag_29\n      tag_59\n      calldatasize\n      0x04\n      tag_31\n      jump\t// in\n    tag_59:\n      tag_60\n      jump\t// in\n        /* \"Re-fungible_Tokens/contracts/AssetFundRaising.sol\":1692:1761  function unpause() onlyOwner external{... */\n    tag_12:\n      tag_42\n      tag_63\n      jump\t// in\n        /* \"@openzeppelin/contracts/token/ERC20/ERC20.sol\":3408:3533  function balanceOf(address account) public view virtual override returns (uint256) {... */\n    tag_13:\n      tag_38\n      tag_65\n      calldatasize\n      0x04\n      tag_66\n      jump\t// in\n    tag_65:\n      sub(shl(0xa0, 0x01), 0x01)\n        /* \"@openzeppelin/contracts/token/ERC20/ERC20.sol\":3508:3526  _balances[account] */\n      and\n        /* \"@openzeppelin/contracts/token/ERC20/ERC20.sol\":3482:3489  uint256 */\n      0x00\n        /* \"@openzeppelin/contracts/token/ERC20/ERC20.sol\":3508:3526  _balances[account] */\n      swap1\n      dup2\n      mstore\n      0x20\n      dup2\n      swap1\n      mstore\n      0x40\n      swap1\n      keccak256\n      sload\n      swap1\n        /* \"@openzeppelin/contracts/token/ERC20/ERC20.sol\":3408:3533  function balanceOf(address account) public view virtual override returns (uint256) {... */\n      jump\n        /* \"Re-fungible_Tokens/contracts/AssetFundRaising.sol\":410:438  IERC721 public immutable NFT */\n    tag_14:\n      tag_69\n      immutable(\"0xceebc1e79b37113a3784d9bbf48b7ad015159a0fad39f370ddaba6e9581bdbc5\")\n      dup2\n      jump\n    tag_69:\n      mload(0x40)\n      sub(shl(0xa0, 0x01), 0x01)\n        /* \"#utility.yul\":3192:3224   */\n      swap1\n      swap2\n      and\n        /* \"#utility.yul\":3174:3225   */\n      dup2\n      mstore\n        /* \"#utility.yul\":3162:3164   */\n      0x20\n        /* \"#utility.yul\":3147:3165   */\n      add\n        /* \"Re-fungible_Tokens/contracts/AssetFundRaising.sol\":410:438  IERC721 public immutable NFT */\n      tag_27\n        /* \"#utility.yul\":3014:3231   */\n      jump\n        /* \"Re-fungible_Tokens/contracts/AssetFundRaising.sol\":1619:1686  function pause() onlyOwner external {... */\n    tag_15:\n      tag_42\n      tag_74\n      jump\t// in\n        /* \"Re-fungible_Tokens/contracts/AssetFundRaising.sol\":493:520  uint256 public targetAmount */\n    tag_16:\n      tag_38\n      sload(0x06)\n      dup2\n      jump\n        /* \"@openzeppelin/contracts/token/ERC20/ERC20.sol\":2367:2469  function symbol() public view virtual override returns (string memory) {... */\n    tag_17:\n      tag_25\n      tag_79\n      jump\t// in\n        /* \"@openzeppelin/contracts/token/ERC20/ERC20.sol\":6594:7021  function decreaseAllowance(address spender, uint256 subtractedValue) public virtual returns (bool) {... */\n    tag_18:\n      tag_29\n      tag_82\n      calldatasize\n      0x04\n      tag_31\n      jump\t// in\n    tag_82:\n      tag_83\n      jump\t// in\n        /* \"@openzeppelin/contracts/token/ERC20/ERC20.sol\":3729:3918  function transfer(address to, uint256 amount) public virtual override returns (bool) {... */\n    tag_19:\n      tag_29\n      tag_86\n      calldatasize\n      0x04\n      tag_31\n      jump\t// in\n    tag_86:\n      tag_87\n      jump\t// in\n        /* \"@openzeppelin/contracts/token/ERC20/ERC20.sol\":3976:4125  function allowance(address owner, address spender) public view virtual override returns (uint256) {... */\n    tag_20:\n      tag_38\n      tag_90\n      calldatasize\n      0x04\n      tag_91\n      jump\t// in\n    tag_90:\n      tag_92\n      jump\t// in\n        /* \"Re-fungible_Tokens/contracts/AssetFundRaising.sol\":387:404  IERC20 public DAI */\n    tag_21:\n      sload(0x05)\n      tag_69\n      swap1\n      sub(shl(0xa0, 0x01), 0x01)\n      and\n      dup2\n      jump\n        /* \"@openzeppelin/contracts/token/ERC20/ERC20.sol\":2156:2254  function name() public view virtual override returns (string memory) {... */\n    tag_26:\n        /* \"@openzeppelin/contracts/token/ERC20/ERC20.sol\":2210:2223  string memory */\n      0x60\n        /* \"@openzeppelin/contracts/token/ERC20/ERC20.sol\":2242:2247  _name */\n      0x03\n        /* \"@openzeppelin/contracts/token/ERC20/ERC20.sol\":2235:2247  return _name */\n      dup1\n      sload\n      tag_99\n      swap1\n      tag_100\n      jump\t// in\n    tag_99:\n      dup1\n      0x1f\n      add\n      0x20\n      dup1\n      swap2\n      div\n      mul\n      0x20\n      add\n      mload(0x40)\n      swap1\n      dup2\n      add\n      0x40\n      mstore\n      dup1\n      swap3\n      swap2\n      swap1\n      dup2\n      dup2\n      mstore\n      0x20\n      add\n      dup3\n      dup1\n      sload\n      tag_101\n      swap1\n      tag_100\n      jump\t// in\n    tag_101:\n      dup1\n      iszero\n      tag_102\n      jumpi\n      dup1\n      0x1f\n      lt\n      tag_103\n      jumpi\n      0x0100\n      dup1\n      dup4\n      sload\n      div\n      mul\n      dup4\n      mstore\n      swap2\n      0x20\n      add\n      swap2\n      jump(tag_102)\n    tag_103:\n      dup3\n      add\n      swap2\n      swap1\n      0x00\n      mstore\n      keccak256(0x00, 0x20)\n      swap1\n    tag_104:\n      dup2\n      sload\n      dup2\n      mstore\n      swap1\n      0x01\n      add\n      swap1\n      0x20\n      add\n      dup1\n      dup4\n      gt\n      tag_104\n      jumpi\n      dup3\n      swap1\n      sub\n      0x1f\n      and\n      dup3\n      add\n      swap2\n    tag_102:\n      pop\n      pop\n      pop\n      pop\n      pop\n      swap1\n      pop\n        /* \"@openzeppelin/contracts/token/ERC20/ERC20.sol\":2156:2254  function name() public view virtual override returns (string memory) {... */\n      swap1\n      jump\t// out\n        /* \"@openzeppelin/contracts/token/ERC20/ERC20.sol\":4433:4630  function approve(address spender, uint256 amount) public virtual override returns (bool) {... */\n    tag_32:\n        /* \"@openzeppelin/contracts/token/ERC20/ERC20.sol\":4516:4520  bool */\n      0x00\n        /* \"@openzeppelin/contracts/utils/Context.sol\":719:729  msg.sender */\n      caller\n        /* \"@openzeppelin/contracts/token/ERC20/ERC20.sol\":4570:4602  _approve(owner, spender, amount) */\n      tag_108\n        /* \"@openzeppelin/contracts/utils/Context.sol\":719:729  msg.sender */\n      dup2\n        /* \"@openzeppelin/contracts/token/ERC20/ERC20.sol\":4586:4593  spender */\n      dup6\n        /* \"@openzeppelin/contracts/token/ERC20/ERC20.sol\":4595:4601  amount */\n      dup6\n        /* \"@openzeppelin/contracts/token/ERC20/ERC20.sol\":4570:4578  _approve */\n      tag_109\n        /* \"@openzeppelin/contracts/token/ERC20/ERC20.sol\":4570:4602  _approve(owner, spender, amount) */\n      jump\t// in\n    tag_108:\n      pop\n        /* \"@openzeppelin/contracts/token/ERC20/ERC20.sol\":4619:4623  true */\n      0x01\n      swap4\n        /* \"@openzeppelin/contracts/token/ERC20/ERC20.sol\":4433:4630  function approve(address spender, uint256 amount) public virtual override returns (bool) {... */\n      swap3\n      pop\n      pop\n      pop\n      jump\t// out\n        /* \"Re-fungible_Tokens/contracts/AssetFundRaising.sol\":1400:1613  function withdrawInvestment(uint256 value) external {... */\n    tag_45:\n        /* \"Re-fungible_Tokens/contracts/AssetFundRaising.sol\":1489:1499  msg.sender */\n      caller\n        /* \"@openzeppelin/contracts/token/ERC20/ERC20.sol\":3482:3489  uint256 */\n      0x00\n        /* \"@openzeppelin/contracts/token/ERC20/ERC20.sol\":3508:3526  _balances[account] */\n      swap1\n      dup2\n      mstore\n      0x20\n      dup2\n      swap1\n      mstore\n      0x40\n      swap1\n      keccak256\n      sload\n        /* \"Re-fungible_Tokens/contracts/AssetFundRaising.sol\":1470:1475  value */\n      dup2\n        /* \"Re-fungible_Tokens/contracts/AssetFundRaising.sol\":1470:1500  value <= balanceOf(msg.sender) */\n      gt\n      iszero\n        /* \"Re-fungible_Tokens/contracts/AssetFundRaising.sol\":1462:1531  require(value <= balanceOf(msg.sender), \"Not enough shares balance!\") */\n      tag_113\n      jumpi\n      mload(0x40)\n      shl(0xe5, 0x461bcd)\n      dup2\n      mstore\n        /* \"#utility.yul\":6924:6926   */\n      0x20\n        /* \"Re-fungible_Tokens/contracts/AssetFundRaising.sol\":1462:1531  require(value <= balanceOf(msg.sender), \"Not enough shares balance!\") */\n      0x04\n      dup3\n      add\n        /* \"#utility.yul\":6906:6927   */\n      mstore\n        /* \"#utility.yul\":6963:6965   */\n      0x1a\n        /* \"#utility.yul\":6943:6961   */\n      0x24\n      dup3\n      add\n        /* \"#utility.yul\":6936:6966   */\n      mstore\n        /* \"#utility.yul\":7002:7030   */\n      0x4e6f7420656e6f756768207368617265732062616c616e636521000000000000\n        /* \"#utility.yul\":6982:7000   */\n      0x44\n      dup3\n      add\n        /* \"#utility.yul\":6975:7031   */\n      mstore\n        /* \"#utility.yul\":7048:7066   */\n      0x64\n      add\n        /* \"Re-fungible_Tokens/contracts/AssetFundRaising.sol\":1462:1531  require(value <= balanceOf(msg.sender), \"Not enough shares balance!\") */\n    tag_114:\n      mload(0x40)\n      dup1\n      swap2\n      sub\n      swap1\n      revert\n    tag_113:\n        /* \"Re-fungible_Tokens/contracts/AssetFundRaising.sol\":1541:1544  DAI */\n      sload(0x05)\n        /* \"Re-fungible_Tokens/contracts/AssetFundRaising.sol\":1541:1572  DAI.transfer(msg.sender, value) */\n      mload(0x40)\n      shl(0xe0, 0xa9059cbb)\n      dup2\n      mstore\n        /* \"Re-fungible_Tokens/contracts/AssetFundRaising.sol\":1554:1564  msg.sender */\n      caller\n        /* \"Re-fungible_Tokens/contracts/AssetFundRaising.sol\":1541:1572  DAI.transfer(msg.sender, value) */\n      0x04\n      dup3\n      add\n        /* \"#utility.yul\":2717:2768   */\n      mstore\n        /* \"#utility.yul\":2784:2802   */\n      0x24\n      dup2\n      add\n        /* \"#utility.yul\":2777:2811   */\n      dup4\n      swap1\n      mstore\n      sub(shl(0xa0, 0x01), 0x01)\n        /* \"Re-fungible_Tokens/contracts/AssetFundRaising.sol\":1541:1544  DAI */\n      swap1\n      swap2\n      and\n      swap1\n        /* \"Re-fungible_Tokens/contracts/AssetFundRaising.sol\":1541:1553  DAI.transfer */\n      0xa9059cbb\n      swap1\n        /* \"#utility.yul\":2690:2708   */\n      0x44\n      add\n        /* \"Re-fungible_Tokens/contracts/AssetFundRaising.sol\":1541:1572  DAI.transfer(msg.sender, value) */\n      0x20\n      mload(0x40)\n      dup1\n      dup4\n      sub\n      dup2\n      0x00\n      dup8\n      dup1\n      extcodesize\n      iszero\n      dup1\n      iszero\n      tag_118\n      jumpi\n      0x00\n      dup1\n      revert\n    tag_118:\n      pop\n      gas\n      call\n      iszero\n      dup1\n      iszero\n      tag_120\n      jumpi\n      returndatasize\n      0x00\n      dup1\n      returndatacopy\n      revert(0x00, returndatasize)\n    tag_120:\n      pop\n      pop\n      pop\n      pop\n      mload(0x40)\n      returndatasize\n      not(0x1f)\n      0x1f\n      dup3\n      add\n      and\n      dup3\n      add\n      dup1\n      0x40\n      mstore\n      pop\n      dup2\n      add\n      swap1\n      tag_121\n      swap2\n      swap1\n      tag_122\n      jump\t// in\n    tag_121:\n      pop\n        /* \"Re-fungible_Tokens/contracts/AssetFundRaising.sol\":1582:1606  _burn(msg.sender, value) */\n      tag_123\n        /* \"Re-fungible_Tokens/contracts/AssetFundRaising.sol\":1588:1598  msg.sender */\n      caller\n        /* \"Re-fungible_Tokens/contracts/AssetFundRaising.sol\":1600:1605  value */\n      dup3\n        /* \"Re-fungible_Tokens/contracts/AssetFundRaising.sol\":1582:1587  _burn */\n      tag_124\n        /* \"Re-fungible_Tokens/contracts/AssetFundRaising.sol\":1582:1606  _burn(msg.sender, value) */\n      jump\t// in\n    tag_123:\n        /* \"Re-fungible_Tokens/contracts/AssetFundRaising.sol\":1400:1613  function withdrawInvestment(uint256 value) external {... */\n      pop\n      jump\t// out\n        /* \"@openzeppelin/contracts/token/ERC20/ERC20.sol\":5192:5478  function transferFrom(... */\n    tag_49:\n        /* \"@openzeppelin/contracts/token/ERC20/ERC20.sol\":5319:5323  bool */\n      0x00\n        /* \"@openzeppelin/contracts/utils/Context.sol\":719:729  msg.sender */\n      caller\n        /* \"@openzeppelin/contracts/token/ERC20/ERC20.sol\":5375:5413  _spendAllowance(from, spender, amount) */\n      tag_127\n        /* \"@openzeppelin/contracts/token/ERC20/ERC20.sol\":5391:5395  from */\n      dup6\n        /* \"@openzeppelin/contracts/utils/Context.sol\":719:729  msg.sender */\n      dup3\n        /* \"@openzeppelin/contracts/token/ERC20/ERC20.sol\":5406:5412  amount */\n      dup6\n        /* \"@openzeppelin/contracts/token/ERC20/ERC20.sol\":5375:5390  _spendAllowance */\n      tag_128\n        /* \"@openzeppelin/contracts/token/ERC20/ERC20.sol\":5375:5413  _spendAllowance(from, spender, amount) */\n      jump\t// in\n    tag_127:\n        /* \"@openzeppelin/contracts/token/ERC20/ERC20.sol\":5423:5450  _transfer(from, to, amount) */\n      tag_129\n        /* \"@openzeppelin/contracts/token/ERC20/ERC20.sol\":5433:5437  from */\n      dup6\n        /* \"@openzeppelin/contracts/token/ERC20/ERC20.sol\":5439:5441  to */\n      dup6\n        /* \"@openzeppelin/contracts/token/ERC20/ERC20.sol\":5443:5449  amount */\n      dup6\n        /* \"@openzeppelin/contracts/token/ERC20/ERC20.sol\":5423:5432  _transfer */\n      tag_130\n        /* \"@openzeppelin/contracts/token/ERC20/ERC20.sol\":5423:5450  _transfer(from, to, amount) */\n      jump\t// in\n    tag_129:\n      pop\n        /* \"@openzeppelin/contracts/token/ERC20/ERC20.sol\":5467:5471  true */\n      0x01\n      swap5\n        /* \"@openzeppelin/contracts/token/ERC20/ERC20.sol\":5192:5478  function transferFrom(... */\n      swap4\n      pop\n      pop\n      pop\n      pop\n      jump\t// out\n        /* \"Re-fungible_Tokens/contracts/AssetFundRaising.sol\":961:1394  function invest(uint256 value) external {... */\n    tag_53:\n        /* \"@openzeppelin/contracts/token/ERC20/ERC20.sol\":3331:3343  _totalSupply */\n      sload(0x02)\n        /* \"Re-fungible_Tokens/contracts/AssetFundRaising.sol\":1028:1040  targetAmount */\n      sload(0x06)\n        /* \"Re-fungible_Tokens/contracts/AssetFundRaising.sol\":1028:1056  targetAmount - totalSupply() */\n      tag_133\n      swap2\n      swap1\n      tag_134\n      jump\t// in\n    tag_133:\n        /* \"Re-fungible_Tokens/contracts/AssetFundRaising.sol\":1019:1024  value */\n      dup2\n        /* \"Re-fungible_Tokens/contracts/AssetFundRaising.sol\":1019:1056  value <= targetAmount - totalSupply() */\n      gt\n      iszero\n        /* \"Re-fungible_Tokens/contracts/AssetFundRaising.sol\":1011:1084  require(value <= targetAmount - totalSupply(), \"Not enough shares left!\") */\n      tag_135\n      jumpi\n      mload(0x40)\n      shl(0xe5, 0x461bcd)\n      dup2\n      mstore\n        /* \"#utility.yul\":6572:6574   */\n      0x20\n        /* \"Re-fungible_Tokens/contracts/AssetFundRaising.sol\":1011:1084  require(value <= targetAmount - totalSupply(), \"Not enough shares left!\") */\n      0x04\n      dup3\n      add\n        /* \"#utility.yul\":6554:6575   */\n      mstore\n        /* \"#utility.yul\":6611:6613   */\n      0x17\n        /* \"#utility.yul\":6591:6609   */\n      0x24\n      dup3\n      add\n        /* \"#utility.yul\":6584:6614   */\n      mstore\n        /* \"#utility.yul\":6650:6675   */\n      0x4e6f7420656e6f75676820736861726573206c65667421000000000000000000\n        /* \"#utility.yul\":6630:6648   */\n      0x44\n      dup3\n      add\n        /* \"#utility.yul\":6623:6676   */\n      mstore\n        /* \"#utility.yul\":6693:6711   */\n      0x64\n      add\n        /* \"Re-fungible_Tokens/contracts/AssetFundRaising.sol\":1011:1084  require(value <= targetAmount - totalSupply(), \"Not enough shares left!\") */\n      tag_114\n        /* \"#utility.yul\":6370:6717   */\n      jump\n        /* \"Re-fungible_Tokens/contracts/AssetFundRaising.sol\":1011:1084  require(value <= targetAmount - totalSupply(), \"Not enough shares left!\") */\n    tag_135:\n        /* \"Re-fungible_Tokens/contracts/AssetFundRaising.sol\":1104:1111  _paused */\n      and(0xff, sload(0x07))\n        /* \"Re-fungible_Tokens/contracts/AssetFundRaising.sol\":1103:1111  !_paused */\n      iszero\n        /* \"Re-fungible_Tokens/contracts/AssetFundRaising.sol\":1094:1123  require( !_paused, \"Paused\" ) */\n      tag_138\n      jumpi\n      mload(0x40)\n      shl(0xe5, 0x461bcd)\n      dup2\n      mstore\n        /* \"#utility.yul\":4667:4669   */\n      0x20\n        /* \"Re-fungible_Tokens/contracts/AssetFundRaising.sol\":1094:1123  require( !_paused, \"Paused\" ) */\n      0x04\n      dup3\n      add\n        /* \"#utility.yul\":4649:4670   */\n      mstore\n        /* \"#utility.yul\":4706:4707   */\n      0x06\n        /* \"#utility.yul\":4686:4704   */\n      0x24\n      dup3\n      add\n        /* \"#utility.yul\":4679:4708   */\n      mstore\n      shl(0xd2, 0x14185d5cd959)\n        /* \"#utility.yul\":4724:4742   */\n      0x44\n      dup3\n      add\n        /* \"#utility.yul\":4717:4753   */\n      mstore\n        /* \"#utility.yul\":4770:4788   */\n      0x64\n      add\n        /* \"Re-fungible_Tokens/contracts/AssetFundRaising.sol\":1094:1123  require( !_paused, \"Paused\" ) */\n      tag_114\n        /* \"#utility.yul\":4465:4794   */\n      jump\n        /* \"Re-fungible_Tokens/contracts/AssetFundRaising.sol\":1094:1123  require( !_paused, \"Paused\" ) */\n    tag_138:\n        /* \"Re-fungible_Tokens/contracts/AssetFundRaising.sol\":1133:1136  DAI */\n      sload(0x05)\n        /* \"Re-fungible_Tokens/contracts/AssetFundRaising.sol\":1133:1183  DAI.transferFrom(msg.sender, address(this), value) */\n      mload(0x40)\n      shl(0xe0, 0x23b872dd)\n      dup2\n      mstore\n        /* \"Re-fungible_Tokens/contracts/AssetFundRaising.sol\":1150:1160  msg.sender */\n      caller\n        /* \"Re-fungible_Tokens/contracts/AssetFundRaising.sol\":1133:1183  DAI.transferFrom(msg.sender, address(this), value) */\n      0x04\n      dup3\n      add\n        /* \"#utility.yul\":2403:2437   */\n      mstore\n        /* \"Re-fungible_Tokens/contracts/AssetFundRaising.sol\":1170:1174  this */\n      address\n        /* \"#utility.yul\":2453:2471   */\n      0x24\n      dup3\n      add\n        /* \"#utility.yul\":2446:2489   */\n      mstore\n        /* \"#utility.yul\":2505:2523   */\n      0x44\n      dup2\n      add\n        /* \"#utility.yul\":2498:2532   */\n      dup4\n      swap1\n      mstore\n      sub(shl(0xa0, 0x01), 0x01)\n        /* \"Re-fungible_Tokens/contracts/AssetFundRaising.sol\":1133:1136  DAI */\n      swap1\n      swap2\n      and\n      swap1\n        /* \"Re-fungible_Tokens/contracts/AssetFundRaising.sol\":1133:1149  DAI.transferFrom */\n      0x23b872dd\n      swap1\n        /* \"#utility.yul\":2338:2356   */\n      0x64\n      add\n        /* \"Re-fungible_Tokens/contracts/AssetFundRaising.sol\":1133:1183  DAI.transferFrom(msg.sender, address(this), value) */\n      0x20\n      mload(0x40)\n      dup1\n      dup4\n      sub\n      dup2\n      0x00\n      dup8\n      dup1\n      extcodesize\n      iszero\n      dup1\n      iszero\n      tag_143\n      jumpi\n      0x00\n      dup1\n      revert\n    tag_143:\n      pop\n      gas\n      call\n      iszero\n      dup1\n      iszero\n      tag_145\n      jumpi\n      returndatasize\n      0x00\n      dup1\n      returndatacopy\n      revert(0x00, returndatasize)\n    tag_145:\n      pop\n      pop\n      pop\n      pop\n      mload(0x40)\n      returndatasize\n      not(0x1f)\n      0x1f\n      dup3\n      add\n      and\n      dup3\n      add\n      dup1\n      0x40\n      mstore\n      pop\n      dup2\n      add\n      swap1\n      tag_146\n      swap2\n      swap1\n      tag_122\n      jump\t// in\n    tag_146:\n      pop\n        /* \"Re-fungible_Tokens/contracts/AssetFundRaising.sol\":1193:1217  _mint(msg.sender, value) */\n      tag_147\n        /* \"Re-fungible_Tokens/contracts/AssetFundRaising.sol\":1199:1209  msg.sender */\n      caller\n        /* \"Re-fungible_Tokens/contracts/AssetFundRaising.sol\":1211:1216  value */\n      dup3\n        /* \"Re-fungible_Tokens/contracts/AssetFundRaising.sol\":1193:1198  _mint */\n      tag_148\n        /* \"Re-fungible_Tokens/contracts/AssetFundRaising.sol\":1193:1217  _mint(msg.sender, value) */\n      jump\t// in\n    tag_147:\n        /* \"@openzeppelin/contracts/token/ERC20/ERC20.sol\":3331:3343  _totalSupply */\n      sload(0x02)\n        /* \"Re-fungible_Tokens/contracts/AssetFundRaising.sol\":1231:1243  targetAmount */\n      sload(0x06)\n        /* \"Re-fungible_Tokens/contracts/AssetFundRaising.sol\":1231:1260  targetAmount == totalSupply() */\n      eq\n        /* \"Re-fungible_Tokens/contracts/AssetFundRaising.sol\":1227:1388  if (targetAmount == totalSupply()) { ... */\n      iszero\n      tag_123\n      jumpi\n        /* \"Re-fungible_Tokens/contracts/AssetFundRaising.sol\":1277:1280  DAI */\n      sload(0x05)\n        /* \"Re-fungible_Tokens/contracts/AssetFundRaising.sol\":1290:1334  NFT.ownerOf(uint256(uint160(address(this)))) */\n      mload(0x40)\n      shl(0xe1, 0x31a9108f)\n      dup2\n      mstore\n        /* \"Re-fungible_Tokens/contracts/AssetFundRaising.sol\":1326:1330  this */\n      address\n        /* \"Re-fungible_Tokens/contracts/AssetFundRaising.sol\":1290:1334  NFT.ownerOf(uint256(uint160(address(this)))) */\n      0x04\n      dup3\n      add\n        /* \"#utility.yul\":9202:9227   */\n      mstore\n      sub(shl(0xa0, 0x01), 0x01)\n        /* \"Re-fungible_Tokens/contracts/AssetFundRaising.sol\":1277:1280  DAI */\n      swap2\n      dup3\n      and\n      swap2\n        /* \"Re-fungible_Tokens/contracts/AssetFundRaising.sol\":1277:1289  DAI.transfer */\n      0xa9059cbb\n      swap2\n        /* \"Re-fungible_Tokens/contracts/AssetFundRaising.sol\":1290:1293  NFT */\n      immutable(\"0xceebc1e79b37113a3784d9bbf48b7ad015159a0fad39f370ddaba6e9581bdbc5\")\n        /* \"Re-fungible_Tokens/contracts/AssetFundRaising.sol\":1290:1301  NFT.ownerOf */\n      swap1\n      swap2\n      and\n      swap1\n      0x6352211e\n      swap1\n        /* \"#utility.yul\":9175:9193   */\n      0x24\n      add\n        /* \"Re-fungible_Tokens/contracts/AssetFundRaising.sol\":1290:1334  NFT.ownerOf(uint256(uint160(address(this)))) */\n      0x20\n      mload(0x40)\n      dup1\n      dup4\n      sub\n      dup2\n      dup7\n      dup1\n      extcodesize\n      iszero\n      dup1\n      iszero\n      tag_152\n      jumpi\n      0x00\n      dup1\n      revert\n    tag_152:\n      pop\n      gas\n      staticcall\n      iszero\n      dup1\n      iszero\n      tag_154\n      jumpi\n      returndatasize\n      0x00\n      dup1\n      returndatacopy\n      revert(0x00, returndatasize)\n    tag_154:\n      pop\n      pop\n      pop\n      pop\n      mload(0x40)\n      returndatasize\n      not(0x1f)\n      0x1f\n      dup3\n      add\n      and\n      dup3\n      add\n      dup1\n      0x40\n      mstore\n      pop\n      dup2\n      add\n      swap1\n      tag_155\n      swap2\n      swap1\n      tag_156\n      jump\t// in\n    tag_155:\n        /* \"Re-fungible_Tokens/contracts/AssetFundRaising.sol\":1336:1348  targetAmount */\n      sload(0x06)\n        /* \"Re-fungible_Tokens/contracts/AssetFundRaising.sol\":1277:1349  DAI.transfer(NFT.ownerOf(uint256(uint160(address(this)))), targetAmount) */\n      mload(0x40)\n      not(sub(shl(0xe0, 0x01), 0x01))\n      0xe0\n      dup6\n      swap1\n      shl\n      and\n      dup2\n      mstore\n      sub(shl(0xa0, 0x01), 0x01)\n        /* \"#utility.yul\":2735:2767   */\n      swap1\n      swap3\n      and\n        /* \"Re-fungible_Tokens/contracts/AssetFundRaising.sol\":1277:1349  DAI.transfer(NFT.ownerOf(uint256(uint160(address(this)))), targetAmount) */\n      0x04\n      dup4\n      add\n        /* \"#utility.yul\":2717:2768   */\n      mstore\n        /* \"#utility.yul\":2784:2802   */\n      0x24\n      dup3\n      add\n        /* \"#utility.yul\":2777:2811   */\n      mstore\n        /* \"#utility.yul\":2690:2708   */\n      0x44\n      add\n        /* \"Re-fungible_Tokens/contracts/AssetFundRaising.sol\":1277:1349  DAI.transfer(NFT.ownerOf(uint256(uint160(address(this)))), targetAmount) */\n      0x20\n      mload(0x40)\n      dup1\n      dup4\n      sub\n      dup2\n      0x00\n      dup8\n      dup1\n      extcodesize\n      iszero\n      dup1\n      iszero\n      tag_158\n      jumpi\n      0x00\n      dup1\n      revert\n    tag_158:\n      pop\n      gas\n      call\n      iszero\n      dup1\n      iszero\n      tag_160\n      jumpi\n      returndatasize\n      0x00\n      dup1\n      returndatacopy\n      revert(0x00, returndatasize)\n    tag_160:\n      pop\n      pop\n      pop\n      pop\n      mload(0x40)\n      returndatasize\n      not(0x1f)\n      0x1f\n      dup3\n      add\n      and\n      dup3\n      add\n      dup1\n      0x40\n      mstore\n      pop\n      dup2\n      add\n      swap1\n      tag_161\n      swap2\n      swap1\n      tag_122\n      jump\t// in\n    tag_161:\n      pop\n        /* \"Re-fungible_Tokens/contracts/AssetFundRaising.sol\":961:1394  function invest(uint256 value) external {... */\n      pop\n      jump\t// out\n        /* \"@openzeppelin/contracts/token/ERC20/ERC20.sol\":5873:6107  function increaseAllowance(address spender, uint256 addedValue) public virtual returns (bool) {... */\n    tag_60:\n        /* \"@openzeppelin/contracts/token/ERC20/ERC20.sol\":5961:5965  bool */\n      0x00\n        /* \"@openzeppelin/contracts/utils/Context.sol\":719:729  msg.sender */\n      caller\n        /* \"@openzeppelin/contracts/token/ERC20/ERC20.sol\":6015:6079  _approve(owner, spender, allowance(owner, spender) + addedValue) */\n      tag_108\n        /* \"@openzeppelin/contracts/utils/Context.sol\":719:729  msg.sender */\n      dup2\n        /* \"@openzeppelin/contracts/token/ERC20/ERC20.sol\":6031:6038  spender */\n      dup6\n        /* \"@openzeppelin/contracts/token/ERC20/ERC20.sol\":6068:6078  addedValue */\n      dup6\n        /* \"@openzeppelin/contracts/token/ERC20/ERC20.sol\":6040:6065  allowance(owner, spender) */\n      tag_166\n        /* \"@openzeppelin/contracts/utils/Context.sol\":719:729  msg.sender */\n      dup4\n        /* \"@openzeppelin/contracts/token/ERC20/ERC20.sol\":6031:6038  spender */\n      dup4\n        /* \"@openzeppelin/contracts/token/ERC20/ERC20.sol\":6040:6049  allowance */\n      tag_92\n        /* \"@openzeppelin/contracts/token/ERC20/ERC20.sol\":6040:6065  allowance(owner, spender) */\n      jump\t// in\n    tag_166:\n        /* \"@openzeppelin/contracts/token/ERC20/ERC20.sol\":6040:6078  allowance(owner, spender) + addedValue */\n      tag_167\n      swap2\n      swap1\n      tag_168\n      jump\t// in\n    tag_167:\n        /* \"@openzeppelin/contracts/token/ERC20/ERC20.sol\":6015:6023  _approve */\n      tag_109\n        /* \"@openzeppelin/contracts/token/ERC20/ERC20.sol\":6015:6079  _approve(owner, spender, allowance(owner, spender) + addedValue) */\n      jump\t// in\n        /* \"Re-fungible_Tokens/contracts/AssetFundRaising.sol\":1692:1761  function unpause() onlyOwner external{... */\n    tag_63:\n        /* \"Re-fungible_Tokens/contracts/AssetFundRaising.sol\":927:932  admin */\n      sload(0x07)\n      0x0100\n      swap1\n      div\n      sub(shl(0xa0, 0x01), 0x01)\n      and\n        /* \"Re-fungible_Tokens/contracts/AssetFundRaising.sol\":913:923  msg.sender */\n      caller\n        /* \"Re-fungible_Tokens/contracts/AssetFundRaising.sol\":913:932  msg.sender == admin */\n      eq\n        /* \"Re-fungible_Tokens/contracts/AssetFundRaising.sol\":905:933  require(msg.sender == admin) */\n      tag_170\n      jumpi\n      0x00\n      dup1\n      revert\n    tag_170:\n        /* \"Re-fungible_Tokens/contracts/AssetFundRaising.sol\":1739:1746  _paused */\n      0x07\n        /* \"Re-fungible_Tokens/contracts/AssetFundRaising.sol\":1739:1754  _paused = false */\n      dup1\n      sload\n      not(0xff)\n      and\n      swap1\n      sstore\n        /* \"Re-fungible_Tokens/contracts/AssetFundRaising.sol\":1692:1761  function unpause() onlyOwner external{... */\n      jump\t// out\n        /* \"Re-fungible_Tokens/contracts/AssetFundRaising.sol\":1619:1686  function pause() onlyOwner external {... */\n    tag_74:\n        /* \"Re-fungible_Tokens/contracts/AssetFundRaising.sol\":927:932  admin */\n      sload(0x07)\n      0x0100\n      swap1\n      div\n      sub(shl(0xa0, 0x01), 0x01)\n      and\n        /* \"Re-fungible_Tokens/contracts/AssetFundRaising.sol\":913:923  msg.sender */\n      caller\n        /* \"Re-fungible_Tokens/contracts/AssetFundRaising.sol\":913:932  msg.sender == admin */\n      eq\n        /* \"Re-fungible_Tokens/contracts/AssetFundRaising.sol\":905:933  require(msg.sender == admin) */\n      tag_174\n      jumpi\n      0x00\n      dup1\n      revert\n    tag_174:\n        /* \"Re-fungible_Tokens/contracts/AssetFundRaising.sol\":1665:1672  _paused */\n      0x07\n        /* \"Re-fungible_Tokens/contracts/AssetFundRaising.sol\":1665:1679  _paused = true */\n      dup1\n      sload\n      not(0xff)\n      and\n        /* \"Re-fungible_Tokens/contracts/AssetFundRaising.sol\":1675:1679  true */\n      0x01\n        /* \"Re-fungible_Tokens/contracts/AssetFundRaising.sol\":1665:1679  _paused = true */\n      or\n      swap1\n      sstore\n        /* \"Re-fungible_Tokens/contracts/AssetFundRaising.sol\":1619:1686  function pause() onlyOwner external {... */\n      jump\t// out\n        /* \"@openzeppelin/contracts/token/ERC20/ERC20.sol\":2367:2469  function symbol() public view virtual override returns (string memory) {... */\n    tag_79:\n        /* \"@openzeppelin/contracts/token/ERC20/ERC20.sol\":2423:2436  string memory */\n      0x60\n        /* \"@openzeppelin/contracts/token/ERC20/ERC20.sol\":2455:2462  _symbol */\n      0x04\n        /* \"@openzeppelin/contracts/token/ERC20/ERC20.sol\":2448:2462  return _symbol */\n      dup1\n      sload\n      tag_99\n      swap1\n      tag_100\n      jump\t// in\n        /* \"@openzeppelin/contracts/token/ERC20/ERC20.sol\":6594:7021  function decreaseAllowance(address spender, uint256 subtractedValue) public virtual returns (bool) {... */\n    tag_83:\n        /* \"@openzeppelin/contracts/token/ERC20/ERC20.sol\":6687:6691  bool */\n      0x00\n        /* \"@openzeppelin/contracts/utils/Context.sol\":719:729  msg.sender */\n      caller\n        /* \"@openzeppelin/contracts/token/ERC20/ERC20.sol\":6687:6691  bool */\n      dup2\n        /* \"@openzeppelin/contracts/token/ERC20/ERC20.sol\":6768:6793  allowance(owner, spender) */\n      tag_184\n        /* \"@openzeppelin/contracts/utils/Context.sol\":719:729  msg.sender */\n      dup3\n        /* \"@openzeppelin/contracts/token/ERC20/ERC20.sol\":6785:6792  spender */\n      dup7\n        /* \"@openzeppelin/contracts/token/ERC20/ERC20.sol\":6768:6777  allowance */\n      tag_92\n        /* \"@openzeppelin/contracts/token/ERC20/ERC20.sol\":6768:6793  allowance(owner, spender) */\n      jump\t// in\n    tag_184:\n        /* \"@openzeppelin/contracts/token/ERC20/ERC20.sol\":6741:6793  uint256 currentAllowance = allowance(owner, spender) */\n      swap1\n      pop\n        /* \"@openzeppelin/contracts/token/ERC20/ERC20.sol\":6831:6846  subtractedValue */\n      dup4\n        /* \"@openzeppelin/contracts/token/ERC20/ERC20.sol\":6811:6827  currentAllowance */\n      dup2\n        /* \"@openzeppelin/contracts/token/ERC20/ERC20.sol\":6811:6846  currentAllowance >= subtractedValue */\n      lt\n      iszero\n        /* \"@openzeppelin/contracts/token/ERC20/ERC20.sol\":6803:6888  require(currentAllowance >= subtractedValue, \"ERC20: decreased allowance below zero\") */\n      tag_185\n      jumpi\n      mload(0x40)\n      shl(0xe5, 0x461bcd)\n      dup2\n      mstore\n        /* \"#utility.yul\":8492:8494   */\n      0x20\n        /* \"@openzeppelin/contracts/token/ERC20/ERC20.sol\":6803:6888  require(currentAllowance >= subtractedValue, \"ERC20: decreased allowance below zero\") */\n      0x04\n      dup3\n      add\n        /* \"#utility.yul\":8474:8495   */\n      mstore\n        /* \"#utility.yul\":8531:8533   */\n      0x25\n        /* \"#utility.yul\":8511:8529   */\n      0x24\n      dup3\n      add\n        /* \"#utility.yul\":8504:8534   */\n      mstore\n        /* \"#utility.yul\":8570:8604   */\n      0x45524332303a2064656372656173656420616c6c6f77616e63652062656c6f77\n        /* \"#utility.yul\":8550:8568   */\n      0x44\n      dup3\n      add\n        /* \"#utility.yul\":8543:8605   */\n      mstore\n      shl(0xd8, 0x207a65726f)\n        /* \"#utility.yul\":8621:8639   */\n      0x64\n      dup3\n      add\n        /* \"#utility.yul\":8614:8649   */\n      mstore\n        /* \"#utility.yul\":8666:8685   */\n      0x84\n      add\n        /* \"@openzeppelin/contracts/token/ERC20/ERC20.sol\":6803:6888  require(currentAllowance >= subtractedValue, \"ERC20: decreased allowance below zero\") */\n      tag_114\n        /* \"#utility.yul\":8290:8691   */\n      jump\n        /* \"@openzeppelin/contracts/token/ERC20/ERC20.sol\":6803:6888  require(currentAllowance >= subtractedValue, \"ERC20: decreased allowance below zero\") */\n    tag_185:\n        /* \"@openzeppelin/contracts/token/ERC20/ERC20.sol\":6922:6982  _approve(owner, spender, currentAllowance - subtractedValue) */\n      tag_129\n        /* \"@openzeppelin/contracts/token/ERC20/ERC20.sol\":6931:6936  owner */\n      dup3\n        /* \"@openzeppelin/contracts/token/ERC20/ERC20.sol\":6938:6945  spender */\n      dup7\n        /* \"@openzeppelin/contracts/token/ERC20/ERC20.sol\":6966:6981  subtractedValue */\n      dup7\n        /* \"@openzeppelin/contracts/token/ERC20/ERC20.sol\":6947:6963  currentAllowance */\n      dup5\n        /* \"@openzeppelin/contracts/token/ERC20/ERC20.sol\":6947:6981  currentAllowance - subtractedValue */\n      sub\n        /* \"@openzeppelin/contracts/token/ERC20/ERC20.sol\":6922:6930  _approve */\n      tag_109\n        /* \"@openzeppelin/contracts/token/ERC20/ERC20.sol\":6922:6982  _approve(owner, spender, currentAllowance - subtractedValue) */\n      jump\t// in\n        /* \"@openzeppelin/contracts/token/ERC20/ERC20.sol\":3729:3918  function transfer(address to, uint256 amount) public virtual override returns (bool) {... */\n    tag_87:\n        /* \"@openzeppelin/contracts/token/ERC20/ERC20.sol\":3808:3812  bool */\n      0x00\n        /* \"@openzeppelin/contracts/utils/Context.sol\":719:729  msg.sender */\n      caller\n        /* \"@openzeppelin/contracts/token/ERC20/ERC20.sol\":3862:3890  _transfer(owner, to, amount) */\n      tag_108\n        /* \"@openzeppelin/contracts/utils/Context.sol\":719:729  msg.sender */\n      dup2\n        /* \"@openzeppelin/contracts/token/ERC20/ERC20.sol\":3879:3881  to */\n      dup6\n        /* \"@openzeppelin/contracts/token/ERC20/ERC20.sol\":3883:3889  amount */\n      dup6\n        /* \"@openzeppelin/contracts/token/ERC20/ERC20.sol\":3862:3871  _transfer */\n      tag_130\n        /* \"@openzeppelin/contracts/token/ERC20/ERC20.sol\":3862:3890  _transfer(owner, to, amount) */\n      jump\t// in\n        /* \"@openzeppelin/contracts/token/ERC20/ERC20.sol\":3976:4125  function allowance(address owner, address spender) public view virtual override returns (uint256) {... */\n    tag_92:\n      sub(shl(0xa0, 0x01), 0x01)\n        /* \"@openzeppelin/contracts/token/ERC20/ERC20.sol\":4091:4109  _allowances[owner] */\n      swap2\n      dup3\n      and\n        /* \"@openzeppelin/contracts/token/ERC20/ERC20.sol\":4065:4072  uint256 */\n      0x00\n        /* \"@openzeppelin/contracts/token/ERC20/ERC20.sol\":4091:4109  _allowances[owner] */\n      swap1\n      dup2\n      mstore\n        /* \"@openzeppelin/contracts/token/ERC20/ERC20.sol\":4091:4102  _allowances */\n      0x01\n        /* \"@openzeppelin/contracts/token/ERC20/ERC20.sol\":4091:4109  _allowances[owner] */\n      0x20\n      swap1\n      dup2\n      mstore\n      0x40\n      dup1\n      dup4\n      keccak256\n        /* \"@openzeppelin/contracts/token/ERC20/ERC20.sol\":4091:4118  _allowances[owner][spender] */\n      swap4\n      swap1\n      swap5\n      and\n      dup3\n      mstore\n      swap2\n      swap1\n      swap2\n      mstore\n      keccak256\n      sload\n      swap1\n        /* \"@openzeppelin/contracts/token/ERC20/ERC20.sol\":3976:4125  function allowance(address owner, address spender) public view virtual override returns (uint256) {... */\n      jump\t// out\n        /* \"@openzeppelin/contracts/token/ERC20/ERC20.sol\":10110:10480  function _approve(... */\n    tag_109:\n      sub(shl(0xa0, 0x01), 0x01)\n        /* \"@openzeppelin/contracts/token/ERC20/ERC20.sol\":10241:10260  owner != address(0) */\n      dup4\n      and\n        /* \"@openzeppelin/contracts/token/ERC20/ERC20.sol\":10233:10301  require(owner != address(0), \"ERC20: approve from the zero address\") */\n      tag_195\n      jumpi\n      mload(0x40)\n      shl(0xe5, 0x461bcd)\n      dup2\n      mstore\n        /* \"#utility.yul\":8087:8089   */\n      0x20\n        /* \"@openzeppelin/contracts/token/ERC20/ERC20.sol\":10233:10301  require(owner != address(0), \"ERC20: approve from the zero address\") */\n      0x04\n      dup3\n      add\n        /* \"#utility.yul\":8069:8090   */\n      mstore\n        /* \"#utility.yul\":8126:8128   */\n      0x24\n        /* \"#utility.yul\":8106:8124   */\n      dup1\n      dup3\n      add\n        /* \"#utility.yul\":8099:8129   */\n      mstore\n        /* \"#utility.yul\":8165:8199   */\n      0x45524332303a20617070726f76652066726f6d20746865207a65726f20616464\n        /* \"#utility.yul\":8145:8163   */\n      0x44\n      dup3\n      add\n        /* \"#utility.yul\":8138:8200   */\n      mstore\n      shl(0xe0, 0x72657373)\n        /* \"#utility.yul\":8216:8234   */\n      0x64\n      dup3\n      add\n        /* \"#utility.yul\":8209:8243   */\n      mstore\n        /* \"#utility.yul\":8260:8279   */\n      0x84\n      add\n        /* \"@openzeppelin/contracts/token/ERC20/ERC20.sol\":10233:10301  require(owner != address(0), \"ERC20: approve from the zero address\") */\n      tag_114\n        /* \"#utility.yul\":7885:8285   */\n      jump\n        /* \"@openzeppelin/contracts/token/ERC20/ERC20.sol\":10233:10301  require(owner != address(0), \"ERC20: approve from the zero address\") */\n    tag_195:\n      sub(shl(0xa0, 0x01), 0x01)\n        /* \"@openzeppelin/contracts/token/ERC20/ERC20.sol\":10319:10340  spender != address(0) */\n      dup3\n      and\n        /* \"@openzeppelin/contracts/token/ERC20/ERC20.sol\":10311:10379  require(spender != address(0), \"ERC20: approve to the zero address\") */\n      tag_198\n      jumpi\n      mload(0x40)\n      shl(0xe5, 0x461bcd)\n      dup2\n      mstore\n        /* \"#utility.yul\":5404:5406   */\n      0x20\n        /* \"@openzeppelin/contracts/token/ERC20/ERC20.sol\":10311:10379  require(spender != address(0), \"ERC20: approve to the zero address\") */\n      0x04\n      dup3\n      add\n        /* \"#utility.yul\":5386:5407   */\n      mstore\n        /* \"#utility.yul\":5443:5445   */\n      0x22\n        /* \"#utility.yul\":5423:5441   */\n      0x24\n      dup3\n      add\n        /* \"#utility.yul\":5416:5446   */\n      mstore\n        /* \"#utility.yul\":5482:5516   */\n      0x45524332303a20617070726f766520746f20746865207a65726f206164647265\n        /* \"#utility.yul\":5462:5480   */\n      0x44\n      dup3\n      add\n        /* \"#utility.yul\":5455:5517   */\n      mstore\n      shl(0xf0, 0x7373)\n        /* \"#utility.yul\":5533:5551   */\n      0x64\n      dup3\n      add\n        /* \"#utility.yul\":5526:5558   */\n      mstore\n        /* \"#utility.yul\":5575:5594   */\n      0x84\n      add\n        /* \"@openzeppelin/contracts/token/ERC20/ERC20.sol\":10311:10379  require(spender != address(0), \"ERC20: approve to the zero address\") */\n      tag_114\n        /* \"#utility.yul\":5202:5600   */\n      jump\n        /* \"@openzeppelin/contracts/token/ERC20/ERC20.sol\":10311:10379  require(spender != address(0), \"ERC20: approve to the zero address\") */\n    tag_198:\n      sub(shl(0xa0, 0x01), 0x01)\n        /* \"@openzeppelin/contracts/token/ERC20/ERC20.sol\":10390:10408  _allowances[owner] */\n      dup4\n      dup2\n      and\n      0x00\n      dup2\n      dup2\n      mstore\n        /* \"@openzeppelin/contracts/token/ERC20/ERC20.sol\":10390:10401  _allowances */\n      0x01\n        /* \"@openzeppelin/contracts/token/ERC20/ERC20.sol\":10390:10408  _allowances[owner] */\n      0x20\n      swap1\n      dup2\n      mstore\n      0x40\n      dup1\n      dup4\n      keccak256\n        /* \"@openzeppelin/contracts/token/ERC20/ERC20.sol\":10390:10417  _allowances[owner][spender] */\n      swap5\n      dup8\n      and\n      dup1\n      dup5\n      mstore\n      swap5\n      dup3\n      mstore\n      swap2\n      dup3\n      swap1\n      keccak256\n        /* \"@openzeppelin/contracts/token/ERC20/ERC20.sol\":10390:10426  _allowances[owner][spender] = amount */\n      dup6\n      swap1\n      sstore\n        /* \"@openzeppelin/contracts/token/ERC20/ERC20.sol\":10441:10473  Approval(owner, spender, amount) */\n      swap1\n      mload\n        /* \"#utility.yul\":9202:9227   */\n      dup5\n      dup2\n      mstore\n        /* \"@openzeppelin/contracts/token/ERC20/ERC20.sol\":10441:10473  Approval(owner, spender, amount) */\n      0x8c5be1e5ebec7d5bd14f71427d1e84f3dd0314c0f7b2291e5b200ac8c7c3b925\n      swap2\n        /* \"#utility.yul\":9175:9193   */\n      add\n        /* \"@openzeppelin/contracts/token/ERC20/ERC20.sol\":10441:10473  Approval(owner, spender, amount) */\n    tag_201:\n      mload(0x40)\n      dup1\n      swap2\n      sub\n      swap1\n      log3\n        /* \"@openzeppelin/contracts/token/ERC20/ERC20.sol\":10110:10480  function _approve(... */\n      pop\n      pop\n      pop\n      jump\t// out\n        /* \"@openzeppelin/contracts/token/ERC20/ERC20.sol\":9111:9687  function _burn(address account, uint256 amount) internal virtual {... */\n    tag_124:\n      sub(shl(0xa0, 0x01), 0x01)\n        /* \"@openzeppelin/contracts/token/ERC20/ERC20.sol\":9194:9215  account != address(0) */\n      dup3\n      and\n        /* \"@openzeppelin/contracts/token/ERC20/ERC20.sol\":9186:9253  require(account != address(0), \"ERC20: burn from the zero address\") */\n      tag_203\n      jumpi\n      mload(0x40)\n      shl(0xe5, 0x461bcd)\n      dup2\n      mstore\n        /* \"#utility.yul\":7279:7281   */\n      0x20\n        /* \"@openzeppelin/contracts/token/ERC20/ERC20.sol\":9186:9253  require(account != address(0), \"ERC20: burn from the zero address\") */\n      0x04\n      dup3\n      add\n        /* \"#utility.yul\":7261:7282   */\n      mstore\n        /* \"#utility.yul\":7318:7320   */\n      0x21\n        /* \"#utility.yul\":7298:7316   */\n      0x24\n      dup3\n      add\n        /* \"#utility.yul\":7291:7321   */\n      mstore\n        /* \"#utility.yul\":7357:7391   */\n      0x45524332303a206275726e2066726f6d20746865207a65726f20616464726573\n        /* \"#utility.yul\":7337:7355   */\n      0x44\n      dup3\n      add\n        /* \"#utility.yul\":7330:7392   */\n      mstore\n      shl(0xf8, 0x73)\n        /* \"#utility.yul\":7408:7426   */\n      0x64\n      dup3\n      add\n        /* \"#utility.yul\":7401:7432   */\n      mstore\n        /* \"#utility.yul\":7449:7468   */\n      0x84\n      add\n        /* \"@openzeppelin/contracts/token/ERC20/ERC20.sol\":9186:9253  require(account != address(0), \"ERC20: burn from the zero address\") */\n      tag_114\n        /* \"#utility.yul\":7077:7474   */\n      jump\n        /* \"@openzeppelin/contracts/token/ERC20/ERC20.sol\":9186:9253  require(account != address(0), \"ERC20: burn from the zero address\") */\n    tag_203:\n      sub(shl(0xa0, 0x01), 0x01)\n        /* \"@openzeppelin/contracts/token/ERC20/ERC20.sol\":9349:9367  _balances[account] */\n      dup3\n      and\n        /* \"@openzeppelin/contracts/token/ERC20/ERC20.sol\":9324:9346  uint256 accountBalance */\n      0x00\n        /* \"@openzeppelin/contracts/token/ERC20/ERC20.sol\":9349:9367  _balances[account] */\n      swap1\n      dup2\n      mstore\n      0x20\n      dup2\n      swap1\n      mstore\n      0x40\n      swap1\n      keccak256\n      sload\n        /* \"@openzeppelin/contracts/token/ERC20/ERC20.sol\":9385:9409  accountBalance >= amount */\n      dup2\n      dup2\n      lt\n      iszero\n        /* \"@openzeppelin/contracts/token/ERC20/ERC20.sol\":9377:9448  require(accountBalance >= amount, \"ERC20: burn amount exceeds balance\") */\n      tag_208\n      jumpi\n      mload(0x40)\n      shl(0xe5, 0x461bcd)\n      dup2\n      mstore\n        /* \"#utility.yul\":5001:5003   */\n      0x20\n        /* \"@openzeppelin/contracts/token/ERC20/ERC20.sol\":9377:9448  require(accountBalance >= amount, \"ERC20: burn amount exceeds balance\") */\n      0x04\n      dup3\n      add\n        /* \"#utility.yul\":4983:5004   */\n      mstore\n        /* \"#utility.yul\":5040:5042   */\n      0x22\n        /* \"#utility.yul\":5020:5038   */\n      0x24\n      dup3\n      add\n        /* \"#utility.yul\":5013:5043   */\n      mstore\n        /* \"#utility.yul\":5079:5113   */\n      0x45524332303a206275726e20616d6f756e7420657863656564732062616c616e\n        /* \"#utility.yul\":5059:5077   */\n      0x44\n      dup3\n      add\n        /* \"#utility.yul\":5052:5114   */\n      mstore\n      shl(0xf0, 0x6365)\n        /* \"#utility.yul\":5130:5148   */\n      0x64\n      dup3\n      add\n        /* \"#utility.yul\":5123:5155   */\n      mstore\n        /* \"#utility.yul\":5172:5191   */\n      0x84\n      add\n        /* \"@openzeppelin/contracts/token/ERC20/ERC20.sol\":9377:9448  require(accountBalance >= amount, \"ERC20: burn amount exceeds balance\") */\n      tag_114\n        /* \"#utility.yul\":4799:5197   */\n      jump\n        /* \"@openzeppelin/contracts/token/ERC20/ERC20.sol\":9377:9448  require(accountBalance >= amount, \"ERC20: burn amount exceeds balance\") */\n    tag_208:\n      sub(shl(0xa0, 0x01), 0x01)\n        /* \"@openzeppelin/contracts/token/ERC20/ERC20.sol\":9482:9500  _balances[account] */\n      dup4\n      and\n        /* \"@openzeppelin/contracts/token/ERC20/ERC20.sol\":9482:9491  _balances */\n      0x00\n        /* \"@openzeppelin/contracts/token/ERC20/ERC20.sol\":9482:9500  _balances[account] */\n      swap1\n      dup2\n      mstore\n      0x20\n      dup2\n      swap1\n      mstore\n      0x40\n      dup2\n      keccak256\n        /* \"@openzeppelin/contracts/token/ERC20/ERC20.sol\":9503:9526  accountBalance - amount */\n      dup4\n      dup4\n      sub\n        /* \"@openzeppelin/contracts/token/ERC20/ERC20.sol\":9482:9526  _balances[account] = accountBalance - amount */\n      swap1\n      sstore\n        /* \"@openzeppelin/contracts/token/ERC20/ERC20.sol\":9546:9558  _totalSupply */\n      0x02\n        /* \"@openzeppelin/contracts/token/ERC20/ERC20.sol\":9546:9568  _totalSupply -= amount */\n      dup1\n      sload\n        /* \"@openzeppelin/contracts/token/ERC20/ERC20.sol\":9520:9526  amount */\n      dup5\n      swap3\n        /* \"@openzeppelin/contracts/token/ERC20/ERC20.sol\":9482:9491  _balances */\n      swap1\n        /* \"@openzeppelin/contracts/token/ERC20/ERC20.sol\":9546:9568  _totalSupply -= amount */\n      tag_211\n      swap1\n        /* \"@openzeppelin/contracts/token/ERC20/ERC20.sol\":9520:9526  amount */\n      dup5\n      swap1\n        /* \"@openzeppelin/contracts/token/ERC20/ERC20.sol\":9546:9568  _totalSupply -= amount */\n      tag_134\n      jump\t// in\n    tag_211:\n      swap1\n      swap2\n      sstore\n      pop\n      pop\n        /* \"@openzeppelin/contracts/token/ERC20/ERC20.sol\":9584:9621  Transfer(account, address(0), amount) */\n      mload(0x40)\n        /* \"#utility.yul\":9202:9227   */\n      dup3\n      dup2\n      mstore\n        /* \"@openzeppelin/contracts/token/ERC20/ERC20.sol\":9610:9611  0 */\n      0x00\n      swap1\n      sub(shl(0xa0, 0x01), 0x01)\n        /* \"@openzeppelin/contracts/token/ERC20/ERC20.sol\":9584:9621  Transfer(account, address(0), amount) */\n      dup6\n      and\n      swap1\n      0xddf252ad1be2c89b69c2b068fc378daa952ba7f163c4a11628f55a4df523b3ef\n      swap1\n        /* \"#utility.yul\":9190:9192   */\n      0x20\n        /* \"#utility.yul\":9175:9193   */\n      add\n        /* \"@openzeppelin/contracts/token/ERC20/ERC20.sol\":9584:9621  Transfer(account, address(0), amount) */\n      tag_201\n        /* \"#utility.yul\":9056:9233   */\n      jump\n        /* \"@openzeppelin/contracts/token/ERC20/ERC20.sol\":10761:11202  function _spendAllowance(... */\n    tag_128:\n        /* \"@openzeppelin/contracts/token/ERC20/ERC20.sol\":10891:10915  uint256 currentAllowance */\n      0x00\n        /* \"@openzeppelin/contracts/token/ERC20/ERC20.sol\":10918:10943  allowance(owner, spender) */\n      tag_216\n        /* \"@openzeppelin/contracts/token/ERC20/ERC20.sol\":10928:10933  owner */\n      dup5\n        /* \"@openzeppelin/contracts/token/ERC20/ERC20.sol\":10935:10942  spender */\n      dup5\n        /* \"@openzeppelin/contracts/token/ERC20/ERC20.sol\":10918:10927  allowance */\n      tag_92\n        /* \"@openzeppelin/contracts/token/ERC20/ERC20.sol\":10918:10943  allowance(owner, spender) */\n      jump\t// in\n    tag_216:\n        /* \"@openzeppelin/contracts/token/ERC20/ERC20.sol\":10891:10943  uint256 currentAllowance = allowance(owner, spender) */\n      swap1\n      pop\n      not(0x00)\n        /* \"@openzeppelin/contracts/token/ERC20/ERC20.sol\":10957:10973  currentAllowance */\n      dup2\n        /* \"@openzeppelin/contracts/token/ERC20/ERC20.sol\":10957:10994  currentAllowance != type(uint256).max */\n      eq\n        /* \"@openzeppelin/contracts/token/ERC20/ERC20.sol\":10953:11196  if (currentAllowance != type(uint256).max) {... */\n      tag_221\n      jumpi\n        /* \"@openzeppelin/contracts/token/ERC20/ERC20.sol\":11038:11044  amount */\n      dup2\n        /* \"@openzeppelin/contracts/token/ERC20/ERC20.sol\":11018:11034  currentAllowance */\n      dup2\n        /* \"@openzeppelin/contracts/token/ERC20/ERC20.sol\":11018:11044  currentAllowance >= amount */\n      lt\n      iszero\n        /* \"@openzeppelin/contracts/token/ERC20/ERC20.sol\":11010:11078  require(currentAllowance >= amount, \"ERC20: insufficient allowance\") */\n      tag_218\n      jumpi\n      mload(0x40)\n      shl(0xe5, 0x461bcd)\n      dup2\n      mstore\n        /* \"#utility.yul\":5807:5809   */\n      0x20\n        /* \"@openzeppelin/contracts/token/ERC20/ERC20.sol\":11010:11078  require(currentAllowance >= amount, \"ERC20: insufficient allowance\") */\n      0x04\n      dup3\n      add\n        /* \"#utility.yul\":5789:5810   */\n      mstore\n        /* \"#utility.yul\":5846:5848   */\n      0x1d\n        /* \"#utility.yul\":5826:5844   */\n      0x24\n      dup3\n      add\n        /* \"#utility.yul\":5819:5849   */\n      mstore\n        /* \"#utility.yul\":5885:5916   */\n      0x45524332303a20696e73756666696369656e7420616c6c6f77616e6365000000\n        /* \"#utility.yul\":5865:5883   */\n      0x44\n      dup3\n      add\n        /* \"#utility.yul\":5858:5917   */\n      mstore\n        /* \"#utility.yul\":5934:5952   */\n      0x64\n      add\n        /* \"@openzeppelin/contracts/token/ERC20/ERC20.sol\":11010:11078  require(currentAllowance >= amount, \"ERC20: insufficient allowance\") */\n      tag_114\n        /* \"#utility.yul\":5605:5958   */\n      jump\n        /* \"@openzeppelin/contracts/token/ERC20/ERC20.sol\":11010:11078  require(currentAllowance >= amount, \"ERC20: insufficient allowance\") */\n    tag_218:\n        /* \"@openzeppelin/contracts/token/ERC20/ERC20.sol\":11120:11171  _approve(owner, spender, currentAllowance - amount) */\n      tag_221\n        /* \"@openzeppelin/contracts/token/ERC20/ERC20.sol\":11129:11134  owner */\n      dup5\n        /* \"@openzeppelin/contracts/token/ERC20/ERC20.sol\":11136:11143  spender */\n      dup5\n        /* \"@openzeppelin/contracts/token/ERC20/ERC20.sol\":11164:11170  amount */\n      dup5\n        /* \"@openzeppelin/contracts/token/ERC20/ERC20.sol\":11145:11161  currentAllowance */\n      dup5\n        /* \"@openzeppelin/contracts/token/ERC20/ERC20.sol\":11145:11170  currentAllowance - amount */\n      sub\n        /* \"@openzeppelin/contracts/token/ERC20/ERC20.sol\":11120:11128  _approve */\n      tag_109\n        /* \"@openzeppelin/contracts/token/ERC20/ERC20.sol\":11120:11171  _approve(owner, spender, currentAllowance - amount) */\n      jump\t// in\n    tag_221:\n        /* \"@openzeppelin/contracts/token/ERC20/ERC20.sol\":10881:11202  {... */\n      pop\n        /* \"@openzeppelin/contracts/token/ERC20/ERC20.sol\":10761:11202  function _spendAllowance(... */\n      pop\n      pop\n      pop\n      jump\t// out\n        /* \"@openzeppelin/contracts/token/ERC20/ERC20.sol\":7475:8126  function _transfer(... */\n    tag_130:\n      sub(shl(0xa0, 0x01), 0x01)\n        /* \"@openzeppelin/contracts/token/ERC20/ERC20.sol\":7601:7619  from != address(0) */\n      dup4\n      and\n        /* \"@openzeppelin/contracts/token/ERC20/ERC20.sol\":7593:7661  require(from != address(0), \"ERC20: transfer from the zero address\") */\n      tag_223\n      jumpi\n      mload(0x40)\n      shl(0xe5, 0x461bcd)\n      dup2\n      mstore\n        /* \"#utility.yul\":7681:7683   */\n      0x20\n        /* \"@openzeppelin/contracts/token/ERC20/ERC20.sol\":7593:7661  require(from != address(0), \"ERC20: transfer from the zero address\") */\n      0x04\n      dup3\n      add\n        /* \"#utility.yul\":7663:7684   */\n      mstore\n        /* \"#utility.yul\":7720:7722   */\n      0x25\n        /* \"#utility.yul\":7700:7718   */\n      0x24\n      dup3\n      add\n        /* \"#utility.yul\":7693:7723   */\n      mstore\n        /* \"#utility.yul\":7759:7793   */\n      0x45524332303a207472616e736665722066726f6d20746865207a65726f206164\n        /* \"#utility.yul\":7739:7757   */\n      0x44\n      dup3\n      add\n        /* \"#utility.yul\":7732:7794   */\n      mstore\n      shl(0xd8, 0x6472657373)\n        /* \"#utility.yul\":7810:7828   */\n      0x64\n      dup3\n      add\n        /* \"#utility.yul\":7803:7838   */\n      mstore\n        /* \"#utility.yul\":7855:7874   */\n      0x84\n      add\n        /* \"@openzeppelin/contracts/token/ERC20/ERC20.sol\":7593:7661  require(from != address(0), \"ERC20: transfer from the zero address\") */\n      tag_114\n        /* \"#utility.yul\":7479:7880   */\n      jump\n        /* \"@openzeppelin/contracts/token/ERC20/ERC20.sol\":7593:7661  require(from != address(0), \"ERC20: transfer from the zero address\") */\n    tag_223:\n      sub(shl(0xa0, 0x01), 0x01)\n        /* \"@openzeppelin/contracts/token/ERC20/ERC20.sol\":7679:7695  to != address(0) */\n      dup3\n      and\n        /* \"@openzeppelin/contracts/token/ERC20/ERC20.sol\":7671:7735  require(to != address(0), \"ERC20: transfer to the zero address\") */\n      tag_226\n      jumpi\n      mload(0x40)\n      shl(0xe5, 0x461bcd)\n      dup2\n      mstore\n        /* \"#utility.yul\":4263:4265   */\n      0x20\n        /* \"@openzeppelin/contracts/token/ERC20/ERC20.sol\":7671:7735  require(to != address(0), \"ERC20: transfer to the zero address\") */\n      0x04\n      dup3\n      add\n        /* \"#utility.yul\":4245:4266   */\n      mstore\n        /* \"#utility.yul\":4302:4304   */\n      0x23\n        /* \"#utility.yul\":4282:4300   */\n      0x24\n      dup3\n      add\n        /* \"#utility.yul\":4275:4305   */\n      mstore\n        /* \"#utility.yul\":4341:4375   */\n      0x45524332303a207472616e7366657220746f20746865207a65726f2061646472\n        /* \"#utility.yul\":4321:4339   */\n      0x44\n      dup3\n      add\n        /* \"#utility.yul\":4314:4376   */\n      mstore\n      shl(0xe8, 0x657373)\n        /* \"#utility.yul\":4392:4410   */\n      0x64\n      dup3\n      add\n        /* \"#utility.yul\":4385:4418   */\n      mstore\n        /* \"#utility.yul\":4435:4454   */\n      0x84\n      add\n        /* \"@openzeppelin/contracts/token/ERC20/ERC20.sol\":7671:7735  require(to != address(0), \"ERC20: transfer to the zero address\") */\n      tag_114\n        /* \"#utility.yul\":4061:4460   */\n      jump\n        /* \"@openzeppelin/contracts/token/ERC20/ERC20.sol\":7671:7735  require(to != address(0), \"ERC20: transfer to the zero address\") */\n    tag_226:\n      sub(shl(0xa0, 0x01), 0x01)\n        /* \"@openzeppelin/contracts/token/ERC20/ERC20.sol\":7817:7832  _balances[from] */\n      dup4\n      and\n        /* \"@openzeppelin/contracts/token/ERC20/ERC20.sol\":7795:7814  uint256 fromBalance */\n      0x00\n        /* \"@openzeppelin/contracts/token/ERC20/ERC20.sol\":7817:7832  _balances[from] */\n      swap1\n      dup2\n      mstore\n      0x20\n      dup2\n      swap1\n      mstore\n      0x40\n      swap1\n      keccak256\n      sload\n        /* \"@openzeppelin/contracts/token/ERC20/ERC20.sol\":7850:7871  fromBalance >= amount */\n      dup2\n      dup2\n      lt\n      iszero\n        /* \"@openzeppelin/contracts/token/ERC20/ERC20.sol\":7842:7914  require(fromBalance >= amount, \"ERC20: transfer amount exceeds balance\") */\n      tag_230\n      jumpi\n      mload(0x40)\n      shl(0xe5, 0x461bcd)\n      dup2\n      mstore\n        /* \"#utility.yul\":6165:6167   */\n      0x20\n        /* \"@openzeppelin/contracts/token/ERC20/ERC20.sol\":7842:7914  require(fromBalance >= amount, \"ERC20: transfer amount exceeds balance\") */\n      0x04\n      dup3\n      add\n        /* \"#utility.yul\":6147:6168   */\n      mstore\n        /* \"#utility.yul\":6204:6206   */\n      0x26\n        /* \"#utility.yul\":6184:6202   */\n      0x24\n      dup3\n      add\n        /* \"#utility.yul\":6177:6207   */\n      mstore\n        /* \"#utility.yul\":6243:6277   */\n      0x45524332303a207472616e7366657220616d6f756e7420657863656564732062\n        /* \"#utility.yul\":6223:6241   */\n      0x44\n      dup3\n      add\n        /* \"#utility.yul\":6216:6278   */\n      mstore\n      shl(0xd0, 0x616c616e6365)\n        /* \"#utility.yul\":6294:6312   */\n      0x64\n      dup3\n      add\n        /* \"#utility.yul\":6287:6323   */\n      mstore\n        /* \"#utility.yul\":6340:6359   */\n      0x84\n      add\n        /* \"@openzeppelin/contracts/token/ERC20/ERC20.sol\":7842:7914  require(fromBalance >= amount, \"ERC20: transfer amount exceeds balance\") */\n      tag_114\n        /* \"#utility.yul\":5963:6365   */\n      jump\n        /* \"@openzeppelin/contracts/token/ERC20/ERC20.sol\":7842:7914  require(fromBalance >= amount, \"ERC20: transfer amount exceeds balance\") */\n    tag_230:\n      sub(shl(0xa0, 0x01), 0x01)\n        /* \"@openzeppelin/contracts/token/ERC20/ERC20.sol\":7948:7963  _balances[from] */\n      dup1\n      dup6\n      and\n        /* \"@openzeppelin/contracts/token/ERC20/ERC20.sol\":7948:7957  _balances */\n      0x00\n        /* \"@openzeppelin/contracts/token/ERC20/ERC20.sol\":7948:7963  _balances[from] */\n      swap1\n      dup2\n      mstore\n      0x20\n      dup2\n      swap1\n      mstore\n      0x40\n      dup1\n      dup3\n      keccak256\n        /* \"@openzeppelin/contracts/token/ERC20/ERC20.sol\":7966:7986  fromBalance - amount */\n      dup6\n      dup6\n      sub\n        /* \"@openzeppelin/contracts/token/ERC20/ERC20.sol\":7948:7986  _balances[from] = fromBalance - amount */\n      swap1\n      sstore\n        /* \"@openzeppelin/contracts/token/ERC20/ERC20.sol\":8006:8019  _balances[to] */\n      swap2\n      dup6\n      and\n      dup2\n      mstore\n      swap1\n      dup2\n      keccak256\n        /* \"@openzeppelin/contracts/token/ERC20/ERC20.sol\":8006:8029  _balances[to] += amount */\n      dup1\n      sload\n        /* \"@openzeppelin/contracts/token/ERC20/ERC20.sol\":7980:7986  amount */\n      dup5\n      swap3\n        /* \"@openzeppelin/contracts/token/ERC20/ERC20.sol\":7948:7957  _balances */\n      swap1\n        /* \"@openzeppelin/contracts/token/ERC20/ERC20.sol\":8006:8029  _balances[to] += amount */\n      tag_233\n      swap1\n        /* \"@openzeppelin/contracts/token/ERC20/ERC20.sol\":7980:7986  amount */\n      dup5\n      swap1\n        /* \"@openzeppelin/contracts/token/ERC20/ERC20.sol\":8006:8029  _balances[to] += amount */\n      tag_168\n      jump\t// in\n    tag_233:\n      swap3\n      pop\n      pop\n      dup2\n      swap1\n      sstore\n      pop\n        /* \"@openzeppelin/contracts/token/ERC20/ERC20.sol\":8060:8062  to */\n      dup3\n      sub(shl(0xa0, 0x01), 0x01)\n        /* \"@openzeppelin/contracts/token/ERC20/ERC20.sol\":8045:8071  Transfer(from, to, amount) */\n      and\n        /* \"@openzeppelin/contracts/token/ERC20/ERC20.sol\":8054:8058  from */\n      dup5\n      sub(shl(0xa0, 0x01), 0x01)\n        /* \"@openzeppelin/contracts/token/ERC20/ERC20.sol\":8045:8071  Transfer(from, to, amount) */\n      and\n      0xddf252ad1be2c89b69c2b068fc378daa952ba7f163c4a11628f55a4df523b3ef\n        /* \"@openzeppelin/contracts/token/ERC20/ERC20.sol\":8064:8070  amount */\n      dup5\n        /* \"@openzeppelin/contracts/token/ERC20/ERC20.sol\":8045:8071  Transfer(from, to, amount) */\n      mload(0x40)\n      tag_234\n      swap2\n        /* \"#utility.yul\":9202:9227   */\n      dup2\n      mstore\n        /* \"#utility.yul\":9190:9192   */\n      0x20\n        /* \"#utility.yul\":9175:9193   */\n      add\n      swap1\n        /* \"#utility.yul\":9056:9233   */\n      jump\n        /* \"@openzeppelin/contracts/token/ERC20/ERC20.sol\":8045:8071  Transfer(from, to, amount) */\n    tag_234:\n      mload(0x40)\n      dup1\n      swap2\n      sub\n      swap1\n      log3\n        /* \"@openzeppelin/contracts/token/ERC20/ERC20.sol\":8082:8119  _afterTokenTransfer(from, to, amount) */\n      tag_221\n        /* \"@openzeppelin/contracts/token/ERC20/ERC20.sol\":9111:9687  function _burn(address account, uint256 amount) internal virtual {... */\n      jump\n        /* \"@openzeppelin/contracts/token/ERC20/ERC20.sol\":8402:8791  function _mint(address account, uint256 amount) internal virtual {... */\n    tag_148:\n      sub(shl(0xa0, 0x01), 0x01)\n        /* \"@openzeppelin/contracts/token/ERC20/ERC20.sol\":8485:8506  account != address(0) */\n      dup3\n      and\n        /* \"@openzeppelin/contracts/token/ERC20/ERC20.sol\":8477:8542  require(account != address(0), \"ERC20: mint to the zero address\") */\n      tag_237\n      jumpi\n      mload(0x40)\n      shl(0xe5, 0x461bcd)\n      dup2\n      mstore\n        /* \"#utility.yul\":8898:8900   */\n      0x20\n        /* \"@openzeppelin/contracts/token/ERC20/ERC20.sol\":8477:8542  require(account != address(0), \"ERC20: mint to the zero address\") */\n      0x04\n      dup3\n      add\n        /* \"#utility.yul\":8880:8901   */\n      mstore\n        /* \"#utility.yul\":8937:8939   */\n      0x1f\n        /* \"#utility.yul\":8917:8935   */\n      0x24\n      dup3\n      add\n        /* \"#utility.yul\":8910:8940   */\n      mstore\n        /* \"#utility.yul\":8976:9009   */\n      0x45524332303a206d696e7420746f20746865207a65726f206164647265737300\n        /* \"#utility.yul\":8956:8974   */\n      0x44\n      dup3\n      add\n        /* \"#utility.yul\":8949:9010   */\n      mstore\n        /* \"#utility.yul\":9027:9045   */\n      0x64\n      add\n        /* \"@openzeppelin/contracts/token/ERC20/ERC20.sol\":8477:8542  require(account != address(0), \"ERC20: mint to the zero address\") */\n      tag_114\n        /* \"#utility.yul\":8696:9051   */\n      jump\n        /* \"@openzeppelin/contracts/token/ERC20/ERC20.sol\":8477:8542  require(account != address(0), \"ERC20: mint to the zero address\") */\n    tag_237:\n        /* \"@openzeppelin/contracts/token/ERC20/ERC20.sol\":8629:8635  amount */\n      dup1\n        /* \"@openzeppelin/contracts/token/ERC20/ERC20.sol\":8613:8625  _totalSupply */\n      0x02\n      0x00\n        /* \"@openzeppelin/contracts/token/ERC20/ERC20.sol\":8613:8635  _totalSupply += amount */\n      dup3\n      dup3\n      sload\n      tag_241\n      swap2\n      swap1\n      tag_168\n      jump\t// in\n    tag_241:\n      swap1\n      swap2\n      sstore\n      pop\n      pop\n      sub(shl(0xa0, 0x01), 0x01)\n        /* \"@openzeppelin/contracts/token/ERC20/ERC20.sol\":8645:8663  _balances[account] */\n      dup3\n      and\n        /* \"@openzeppelin/contracts/token/ERC20/ERC20.sol\":8645:8654  _balances */\n      0x00\n        /* \"@openzeppelin/contracts/token/ERC20/ERC20.sol\":8645:8663  _balances[account] */\n      swap1\n      dup2\n      mstore\n      0x20\n      dup2\n      swap1\n      mstore\n      0x40\n      dup2\n      keccak256\n        /* \"@openzeppelin/contracts/token/ERC20/ERC20.sol\":8645:8673  _balances[account] += amount */\n      dup1\n      sload\n        /* \"@openzeppelin/contracts/token/ERC20/ERC20.sol\":8667:8673  amount */\n      dup4\n      swap3\n        /* \"@openzeppelin/contracts/token/ERC20/ERC20.sol\":8645:8654  _balances */\n      swap1\n        /* \"@openzeppelin/contracts/token/ERC20/ERC20.sol\":8645:8673  _balances[account] += amount */\n      tag_242\n      swap1\n        /* \"@openzeppelin/contracts/token/ERC20/ERC20.sol\":8667:8673  amount */\n      dup5\n      swap1\n        /* \"@openzeppelin/contracts/token/ERC20/ERC20.sol\":8645:8673  _balances[account] += amount */\n      tag_168\n      jump\t// in\n    tag_242:\n      swap1\n      swap2\n      sstore\n      pop\n      pop\n        /* \"@openzeppelin/contracts/token/ERC20/ERC20.sol\":8688:8725  Transfer(address(0), account, amount) */\n      mload(0x40)\n        /* \"#utility.yul\":9202:9227   */\n      dup2\n      dup2\n      mstore\n      sub(shl(0xa0, 0x01), 0x01)\n        /* \"@openzeppelin/contracts/token/ERC20/ERC20.sol\":8688:8725  Transfer(address(0), account, amount) */\n      dup4\n      and\n      swap1\n        /* \"@openzeppelin/contracts/token/ERC20/ERC20.sol\":8705:8706  0 */\n      0x00\n      swap1\n        /* \"@openzeppelin/contracts/token/ERC20/ERC20.sol\":8688:8725  Transfer(address(0), account, amount) */\n      0xddf252ad1be2c89b69c2b068fc378daa952ba7f163c4a11628f55a4df523b3ef\n      swap1\n        /* \"#utility.yul\":9190:9192   */\n      0x20\n        /* \"#utility.yul\":9175:9193   */\n      add\n        /* \"@openzeppelin/contracts/token/ERC20/ERC20.sol\":8688:8725  Transfer(address(0), account, amount) */\n      mload(0x40)\n      dup1\n      swap2\n      sub\n      swap1\n      log3\n        /* \"Re-fungible_Tokens/contracts/AssetFundRaising.sol\":1277:1349  DAI.transfer(NFT.ownerOf(uint256(uint160(address(this)))), targetAmount) */\n      pop\n        /* \"Re-fungible_Tokens/contracts/AssetFundRaising.sol\":961:1394  function invest(uint256 value) external {... */\n      pop\n      jump\t// out\n        /* \"#utility.yul\":14:261   */\n    tag_66:\n        /* \"#utility.yul\":73:79   */\n      0x00\n        /* \"#utility.yul\":126:128   */\n      0x20\n        /* \"#utility.yul\":114:123   */\n      dup3\n        /* \"#utility.yul\":105:112   */\n      dup5\n        /* \"#utility.yul\":101:124   */\n      sub\n        /* \"#utility.yul\":97:129   */\n      slt\n        /* \"#utility.yul\":94:146   */\n      iszero\n      tag_249\n      jumpi\n        /* \"#utility.yul\":142:143   */\n      0x00\n        /* \"#utility.yul\":139:140   */\n      dup1\n        /* \"#utility.yul\":132:144   */\n      revert\n        /* \"#utility.yul\":94:146   */\n    tag_249:\n        /* \"#utility.yul\":181:190   */\n      dup2\n        /* \"#utility.yul\":168:191   */\n      calldataload\n        /* \"#utility.yul\":200:231   */\n      tag_250\n        /* \"#utility.yul\":225:230   */\n      dup2\n        /* \"#utility.yul\":200:231   */\n      tag_251\n      jump\t// in\n    tag_250:\n        /* \"#utility.yul\":250:255   */\n      swap4\n        /* \"#utility.yul\":14:261   */\n      swap3\n      pop\n      pop\n      pop\n      jump\t// out\n        /* \"#utility.yul\":266:517   */\n    tag_156:\n        /* \"#utility.yul\":336:342   */\n      0x00\n        /* \"#utility.yul\":389:391   */\n      0x20\n        /* \"#utility.yul\":377:386   */\n      dup3\n        /* \"#utility.yul\":368:375   */\n      dup5\n        /* \"#utility.yul\":364:387   */\n      sub\n        /* \"#utility.yul\":360:392   */\n      slt\n        /* \"#utility.yul\":357:409   */\n      iszero\n      tag_253\n      jumpi\n        /* \"#utility.yul\":405:406   */\n      0x00\n        /* \"#utility.yul\":402:403   */\n      dup1\n        /* \"#utility.yul\":395:407   */\n      revert\n        /* \"#utility.yul\":357:409   */\n    tag_253:\n        /* \"#utility.yul\":437:446   */\n      dup2\n        /* \"#utility.yul\":431:447   */\n      mload\n        /* \"#utility.yul\":456:487   */\n      tag_250\n        /* \"#utility.yul\":481:486   */\n      dup2\n        /* \"#utility.yul\":456:487   */\n      tag_251\n      jump\t// in\n        /* \"#utility.yul\":522:910   */\n    tag_91:\n        /* \"#utility.yul\":590:596   */\n      0x00\n        /* \"#utility.yul\":598:604   */\n      dup1\n        /* \"#utility.yul\":651:653   */\n      0x40\n        /* \"#utility.yul\":639:648   */\n      dup4\n        /* \"#utility.yul\":630:637   */\n      dup6\n        /* \"#utility.yul\":626:649   */\n      sub\n        /* \"#utility.yul\":622:654   */\n      slt\n        /* \"#utility.yul\":619:671   */\n      iszero\n      tag_256\n      jumpi\n        /* \"#utility.yul\":667:668   */\n      0x00\n        /* \"#utility.yul\":664:665   */\n      dup1\n        /* \"#utility.yul\":657:669   */\n      revert\n        /* \"#utility.yul\":619:671   */\n    tag_256:\n        /* \"#utility.yul\":706:715   */\n      dup3\n        /* \"#utility.yul\":693:716   */\n      calldataload\n        /* \"#utility.yul\":725:756   */\n      tag_257\n        /* \"#utility.yul\":750:755   */\n      dup2\n        /* \"#utility.yul\":725:756   */\n      tag_251\n      jump\t// in\n    tag_257:\n        /* \"#utility.yul\":775:780   */\n      swap2\n      pop\n        /* \"#utility.yul\":832:834   */\n      0x20\n        /* \"#utility.yul\":817:835   */\n      dup4\n      add\n        /* \"#utility.yul\":804:836   */\n      calldataload\n        /* \"#utility.yul\":845:878   */\n      tag_258\n        /* \"#utility.yul\":804:836   */\n      dup2\n        /* \"#utility.yul\":845:878   */\n      tag_251\n      jump\t// in\n    tag_258:\n        /* \"#utility.yul\":897:904   */\n      dup1\n        /* \"#utility.yul\":887:904   */\n      swap2\n      pop\n      pop\n        /* \"#utility.yul\":522:910   */\n      swap3\n      pop\n      swap3\n      swap1\n      pop\n      jump\t// out\n        /* \"#utility.yul\":915:1371   */\n    tag_48:\n        /* \"#utility.yul\":992:998   */\n      0x00\n        /* \"#utility.yul\":1000:1006   */\n      dup1\n        /* \"#utility.yul\":1008:1014   */\n      0x00\n        /* \"#utility.yul\":1061:1063   */\n      0x60\n        /* \"#utility.yul\":1049:1058   */\n      dup5\n        /* \"#utility.yul\":1040:1047   */\n      dup7\n        /* \"#utility.yul\":1036:1059   */\n      sub\n        /* \"#utility.yul\":1032:1064   */\n      slt\n        /* \"#utility.yul\":1029:1081   */\n      iszero\n      tag_260\n      jumpi\n        /* \"#utility.yul\":1077:1078   */\n      0x00\n        /* \"#utility.yul\":1074:1075   */\n      dup1\n        /* \"#utility.yul\":1067:1079   */\n      revert\n        /* \"#utility.yul\":1029:1081   */\n    tag_260:\n        /* \"#utility.yul\":1116:1125   */\n      dup4\n        /* \"#utility.yul\":1103:1126   */\n      calldataload\n        /* \"#utility.yul\":1135:1166   */\n      tag_261\n        /* \"#utility.yul\":1160:1165   */\n      dup2\n        /* \"#utility.yul\":1135:1166   */\n      tag_251\n      jump\t// in\n    tag_261:\n        /* \"#utility.yul\":1185:1190   */\n      swap3\n      pop\n        /* \"#utility.yul\":1242:1244   */\n      0x20\n        /* \"#utility.yul\":1227:1245   */\n      dup5\n      add\n        /* \"#utility.yul\":1214:1246   */\n      calldataload\n        /* \"#utility.yul\":1255:1288   */\n      tag_262\n        /* \"#utility.yul\":1214:1246   */\n      dup2\n        /* \"#utility.yul\":1255:1288   */\n      tag_251\n      jump\t// in\n    tag_262:\n        /* \"#utility.yul\":915:1371   */\n      swap3\n      swap6\n        /* \"#utility.yul\":1307:1314   */\n      swap3\n      swap5\n      pop\n      pop\n      pop\n        /* \"#utility.yul\":1361:1363   */\n      0x40\n        /* \"#utility.yul\":1346:1364   */\n      swap2\n      swap1\n      swap2\n      add\n        /* \"#utility.yul\":1333:1365   */\n      calldataload\n      swap1\n        /* \"#utility.yul\":915:1371   */\n      jump\t// out\n        /* \"#utility.yul\":1376:1691   */\n    tag_31:\n        /* \"#utility.yul\":1444:1450   */\n      0x00\n        /* \"#utility.yul\":1452:1458   */\n      dup1\n        /* \"#utility.yul\":1505:1507   */\n      0x40\n        /* \"#utility.yul\":1493:1502   */\n      dup4\n        /* \"#utility.yul\":1484:1491   */\n      dup6\n        /* \"#utility.yul\":1480:1503   */\n      sub\n        /* \"#utility.yul\":1476:1508   */\n      slt\n        /* \"#utility.yul\":1473:1525   */\n      iszero\n      tag_264\n      jumpi\n        /* \"#utility.yul\":1521:1522   */\n      0x00\n        /* \"#utility.yul\":1518:1519   */\n      dup1\n        /* \"#utility.yul\":1511:1523   */\n      revert\n        /* \"#utility.yul\":1473:1525   */\n    tag_264:\n        /* \"#utility.yul\":1560:1569   */\n      dup3\n        /* \"#utility.yul\":1547:1570   */\n      calldataload\n        /* \"#utility.yul\":1579:1610   */\n      tag_265\n        /* \"#utility.yul\":1604:1609   */\n      dup2\n        /* \"#utility.yul\":1579:1610   */\n      tag_251\n      jump\t// in\n    tag_265:\n        /* \"#utility.yul\":1629:1634   */\n      swap5\n        /* \"#utility.yul\":1681:1683   */\n      0x20\n        /* \"#utility.yul\":1666:1684   */\n      swap4\n      swap1\n      swap4\n      add\n        /* \"#utility.yul\":1653:1685   */\n      calldataload\n      swap4\n      pop\n      pop\n      pop\n        /* \"#utility.yul\":1376:1691   */\n      jump\t// out\n        /* \"#utility.yul\":1696:1973   */\n    tag_122:\n        /* \"#utility.yul\":1763:1769   */\n      0x00\n        /* \"#utility.yul\":1816:1818   */\n      0x20\n        /* \"#utility.yul\":1804:1813   */\n      dup3\n        /* \"#utility.yul\":1795:1802   */\n      dup5\n        /* \"#utility.yul\":1791:1814   */\n      sub\n        /* \"#utility.yul\":1787:1819   */\n      slt\n        /* \"#utility.yul\":1784:1836   */\n      iszero\n      tag_267\n      jumpi\n        /* \"#utility.yul\":1832:1833   */\n      0x00\n        /* \"#utility.yul\":1829:1830   */\n      dup1\n        /* \"#utility.yul\":1822:1834   */\n      revert\n        /* \"#utility.yul\":1784:1836   */\n    tag_267:\n        /* \"#utility.yul\":1864:1873   */\n      dup2\n        /* \"#utility.yul\":1858:1874   */\n      mload\n        /* \"#utility.yul\":1917:1922   */\n      dup1\n        /* \"#utility.yul\":1910:1923   */\n      iszero\n        /* \"#utility.yul\":1903:1924   */\n      iszero\n        /* \"#utility.yul\":1896:1901   */\n      dup2\n        /* \"#utility.yul\":1893:1925   */\n      eq\n        /* \"#utility.yul\":1883:1943   */\n      tag_250\n      jumpi\n        /* \"#utility.yul\":1939:1940   */\n      0x00\n        /* \"#utility.yul\":1936:1937   */\n      dup1\n        /* \"#utility.yul\":1929:1941   */\n      revert\n        /* \"#utility.yul\":1978:2158   */\n    tag_44:\n        /* \"#utility.yul\":2037:2043   */\n      0x00\n        /* \"#utility.yul\":2090:2092   */\n      0x20\n        /* \"#utility.yul\":2078:2087   */\n      dup3\n        /* \"#utility.yul\":2069:2076   */\n      dup5\n        /* \"#utility.yul\":2065:2088   */\n      sub\n        /* \"#utility.yul\":2061:2093   */\n      slt\n        /* \"#utility.yul\":2058:2110   */\n      iszero\n      tag_270\n      jumpi\n        /* \"#utility.yul\":2106:2107   */\n      0x00\n        /* \"#utility.yul\":2103:2104   */\n      dup1\n        /* \"#utility.yul\":2096:2108   */\n      revert\n        /* \"#utility.yul\":2058:2110   */\n    tag_270:\n      pop\n        /* \"#utility.yul\":2129:2152   */\n      calldataload\n      swap2\n        /* \"#utility.yul\":1978:2158   */\n      swap1\n      pop\n      jump\t// out\n        /* \"#utility.yul\":3459:4056   */\n    tag_28:\n        /* \"#utility.yul\":3571:3575   */\n      0x00\n        /* \"#utility.yul\":3600:3602   */\n      0x20\n        /* \"#utility.yul\":3629:3631   */\n      dup1\n        /* \"#utility.yul\":3618:3627   */\n      dup4\n        /* \"#utility.yul\":3611:3632   */\n      mstore\n        /* \"#utility.yul\":3661:3667   */\n      dup4\n        /* \"#utility.yul\":3655:3668   */\n      mload\n        /* \"#utility.yul\":3704:3710   */\n      dup1\n        /* \"#utility.yul\":3699:3701   */\n      dup3\n        /* \"#utility.yul\":3688:3697   */\n      dup6\n        /* \"#utility.yul\":3684:3702   */\n      add\n        /* \"#utility.yul\":3677:3711   */\n      mstore\n        /* \"#utility.yul\":3729:3730   */\n      0x00\n        /* \"#utility.yul\":3739:3879   */\n    tag_277:\n        /* \"#utility.yul\":3753:3759   */\n      dup2\n        /* \"#utility.yul\":3750:3751   */\n      dup2\n        /* \"#utility.yul\":3747:3760   */\n      lt\n        /* \"#utility.yul\":3739:3879   */\n      iszero\n      tag_279\n      jumpi\n        /* \"#utility.yul\":3848:3862   */\n      dup6\n      dup2\n      add\n        /* \"#utility.yul\":3844:3867   */\n      dup4\n      add\n        /* \"#utility.yul\":3838:3868   */\n      mload\n        /* \"#utility.yul\":3814:3831   */\n      dup6\n      dup3\n      add\n        /* \"#utility.yul\":3833:3835   */\n      0x40\n        /* \"#utility.yul\":3810:3836   */\n      add\n        /* \"#utility.yul\":3803:3869   */\n      mstore\n        /* \"#utility.yul\":3768:3778   */\n      dup3\n      add\n        /* \"#utility.yul\":3739:3879   */\n      jump(tag_277)\n    tag_279:\n        /* \"#utility.yul\":3897:3903   */\n      dup2\n        /* \"#utility.yul\":3894:3895   */\n      dup2\n        /* \"#utility.yul\":3891:3904   */\n      gt\n        /* \"#utility.yul\":3888:3979   */\n      iszero\n      tag_280\n      jumpi\n        /* \"#utility.yul\":3967:3968   */\n      0x00\n        /* \"#utility.yul\":3962:3964   */\n      0x40\n        /* \"#utility.yul\":3953:3959   */\n      dup4\n        /* \"#utility.yul\":3942:3951   */\n      dup8\n        /* \"#utility.yul\":3938:3960   */\n      add\n        /* \"#utility.yul\":3934:3965   */\n      add\n        /* \"#utility.yul\":3927:3969   */\n      mstore\n        /* \"#utility.yul\":3888:3979   */\n    tag_280:\n      pop\n        /* \"#utility.yul\":4040:4042   */\n      0x1f\n        /* \"#utility.yul\":4019:4034   */\n      add\n      not(0x1f)\n        /* \"#utility.yul\":4015:4044   */\n      and\n        /* \"#utility.yul\":4000:4045   */\n      swap3\n      swap1\n      swap3\n      add\n        /* \"#utility.yul\":4047:4049   */\n      0x40\n        /* \"#utility.yul\":3996:4050   */\n      add\n      swap4\n        /* \"#utility.yul\":3459:4056   */\n      swap3\n      pop\n      pop\n      pop\n      jump\t// out\n        /* \"#utility.yul\":9427:9555   */\n    tag_168:\n        /* \"#utility.yul\":9467:9470   */\n      0x00\n        /* \"#utility.yul\":9498:9499   */\n      dup3\n        /* \"#utility.yul\":9494:9500   */\n      not\n        /* \"#utility.yul\":9491:9492   */\n      dup3\n        /* \"#utility.yul\":9488:9501   */\n      gt\n        /* \"#utility.yul\":9485:9524   */\n      iszero\n      tag_298\n      jumpi\n        /* \"#utility.yul\":9504:9522   */\n      tag_298\n      tag_299\n      jump\t// in\n    tag_298:\n      pop\n        /* \"#utility.yul\":9540:9549   */\n      add\n      swap1\n        /* \"#utility.yul\":9427:9555   */\n      jump\t// out\n        /* \"#utility.yul\":9560:9685   */\n    tag_134:\n        /* \"#utility.yul\":9600:9604   */\n      0x00\n        /* \"#utility.yul\":9628:9629   */\n      dup3\n        /* \"#utility.yul\":9625:9626   */\n      dup3\n        /* \"#utility.yul\":9622:9630   */\n      lt\n        /* \"#utility.yul\":9619:9653   */\n      iszero\n      tag_302\n      jumpi\n        /* \"#utility.yul\":9633:9651   */\n      tag_302\n      tag_299\n      jump\t// in\n    tag_302:\n      pop\n        /* \"#utility.yul\":9670:9679   */\n      sub\n      swap1\n        /* \"#utility.yul\":9560:9685   */\n      jump\t// out\n        /* \"#utility.yul\":9690:10070   */\n    tag_100:\n        /* \"#utility.yul\":9769:9770   */\n      0x01\n        /* \"#utility.yul\":9765:9777   */\n      dup2\n      dup2\n      shr\n      swap1\n        /* \"#utility.yul\":9812:9824   */\n      dup3\n      and\n      dup1\n        /* \"#utility.yul\":9833:9894   */\n      tag_304\n      jumpi\n        /* \"#utility.yul\":9887:9891   */\n      0x7f\n        /* \"#utility.yul\":9879:9885   */\n      dup3\n        /* \"#utility.yul\":9875:9892   */\n      and\n        /* \"#utility.yul\":9865:9892   */\n      swap2\n      pop\n        /* \"#utility.yul\":9833:9894   */\n    tag_304:\n        /* \"#utility.yul\":9940:9942   */\n      0x20\n        /* \"#utility.yul\":9932:9938   */\n      dup3\n        /* \"#utility.yul\":9929:9943   */\n      lt\n        /* \"#utility.yul\":9909:9927   */\n      dup2\n        /* \"#utility.yul\":9906:9944   */\n      eq\n        /* \"#utility.yul\":9903:10064   */\n      iszero\n      tag_305\n      jumpi\n        /* \"#utility.yul\":9986:9996   */\n      0x4e487b71\n        /* \"#utility.yul\":9981:9984   */\n      0xe0\n        /* \"#utility.yul\":9977:9997   */\n      shl\n        /* \"#utility.yul\":9974:9975   */\n      0x00\n        /* \"#utility.yul\":9967:9998   */\n      mstore\n        /* \"#utility.yul\":10021:10025   */\n      0x22\n        /* \"#utility.yul\":10018:10019   */\n      0x04\n        /* \"#utility.yul\":10011:10026   */\n      mstore\n        /* \"#utility.yul\":10049:10053   */\n      0x24\n        /* \"#utility.yul\":10046:10047   */\n      0x00\n        /* \"#utility.yul\":10039:10054   */\n      revert\n        /* \"#utility.yul\":9903:10064   */\n    tag_305:\n      pop\n        /* \"#utility.yul\":9690:10070   */\n      swap2\n      swap1\n      pop\n      jump\t// out\n        /* \"#utility.yul\":10075:10202   */\n    tag_299:\n        /* \"#utility.yul\":10136:10146   */\n      0x4e487b71\n        /* \"#utility.yul\":10131:10134   */\n      0xe0\n        /* \"#utility.yul\":10127:10147   */\n      shl\n        /* \"#utility.yul\":10124:10125   */\n      0x00\n        /* \"#utility.yul\":10117:10148   */\n      mstore\n        /* \"#utility.yul\":10167:10171   */\n      0x11\n        /* \"#utility.yul\":10164:10165   */\n      0x04\n        /* \"#utility.yul\":10157:10172   */\n      mstore\n        /* \"#utility.yul\":10191:10195   */\n      0x24\n        /* \"#utility.yul\":10188:10189   */\n      0x00\n        /* \"#utility.yul\":10181:10196   */\n      revert\n        /* \"#utility.yul\":10207:10338   */\n    tag_251:\n      sub(shl(0xa0, 0x01), 0x01)\n        /* \"#utility.yul\":10282:10313   */\n      dup2\n      and\n        /* \"#utility.yul\":10272:10314   */\n      dup2\n      eq\n        /* \"#utility.yul\":10262:10332   */\n      tag_123\n      jumpi\n        /* \"#utility.yul\":10328:10329   */\n      0x00\n        /* \"#utility.yul\":10325:10326   */\n      dup1\n        /* \"#utility.yul\":10318:10330   */\n      revert\n\n    auxdata: 0xa26469706673582212204f4b152d0eb3a2aab4e42d7d12b14dfca59f90c04d3be5c3df18e8aa0073589964736f6c63430008070033\n}\n",
				"bytecode": {
					"linkReferences": {},
					"object": "60a06040523480156200001157600080fd5b506040516200132e3803806200132e83398101604081905262000034916200022c565b8351849084906200004d906003906020850190620000b2565b50805162000063906004906020840190620000b2565b50505060069490945560078054610100600160a81b0319166101006001600160a01b0393841602179055600580546001600160a01b031916919094161790925550503360601b60805262000319565b828054620000c090620002c6565b90600052602060002090601f016020900481019282620000e457600085556200012f565b82601f10620000ff57805160ff19168380011785556200012f565b828001600101855582156200012f579182015b828111156200012f57825182559160200191906001019062000112565b506200013d92915062000141565b5090565b5b808211156200013d576000815560010162000142565b80516001600160a01b03811681146200017057600080fd5b919050565b600082601f8301126200018757600080fd5b81516001600160401b0380821115620001a457620001a462000303565b604051601f8301601f19908116603f01168101908282118183101715620001cf57620001cf62000303565b81604052838152602092508683858801011115620001ec57600080fd5b600091505b83821015620002105785820183015181830184015290820190620001f1565b83821115620002225760008385830101525b9695505050505050565b600080600080600060a086880312156200024557600080fd5b855160208701519095506001600160401b03808211156200026557600080fd5b6200027389838a0162000175565b955060408801519150808211156200028a57600080fd5b50620002998882890162000175565b935050620002aa6060870162000158565b9150620002ba6080870162000158565b90509295509295909350565b600181811c90821680620002db57607f821691505b60208210811415620002fd57634e487b7160e01b600052602260045260246000fd5b50919050565b634e487b7160e01b600052604160045260246000fd5b60805160601c610fef6200033f6000396000818161021901526105e20152610fef6000f3fe608060405234801561001057600080fd5b50600436106101215760003560e01c80633f4ba83a116100ad57806395d89b411161007157806395d89b4114610264578063a457c2d71461026c578063a9059cbb1461027f578063dd62ed3e14610292578063e0bab4c4146102a557600080fd5b80633f4ba83a146101e357806370a08231146101eb5780637c0b8de2146102145780638456cb5914610253578063953b8fb81461025b57600080fd5b80632037fcbf116100f45780632037fcbf1461018657806323b872dd1461019b5780632afcf480146101ae578063313ce567146101c157806339509351146101d057600080fd5b806306fdde0314610126578063095ea7b31461014457806316c61ccc1461016757806318160ddd14610174575b600080fd5b61012e6102b8565b60405161013b9190610ecf565b60405180910390f35b610157610152366004610e68565b61034a565b604051901515815260200161013b565b6007546101579060ff1681565b6002545b60405190815260200161013b565b610199610194366004610eb6565b610362565b005b6101576101a9366004610e27565b610458565b6101996101bc366004610eb6565b61047c565b6040516012815260200161013b565b6101576101de366004610e68565b6106e3565b610199610705565b6101786101f9366004610dad565b6001600160a01b031660009081526020819052604090205490565b61023b7f000000000000000000000000000000000000000000000000000000000000000081565b6040516001600160a01b03909116815260200161013b565b61019961072d565b61017860065481565b61012e610758565b61015761027a366004610e68565b610767565b61015761028d366004610e68565b6107e2565b6101786102a0366004610dee565b6107f0565b60055461023b906001600160a01b031681565b6060600380546102c790610f53565b80601f01602080910402602001604051908101604052809291908181526020018280546102f390610f53565b80156103405780601f1061031557610100808354040283529160200191610340565b820191906000526020600020905b81548152906001019060200180831161032357829003601f168201915b5050505050905090565b60003361035881858561081b565b5060019392505050565b336000908152602081905260409020548111156103c65760405162461bcd60e51b815260206004820152601a60248201527f4e6f7420656e6f756768207368617265732062616c616e63652100000000000060448201526064015b60405180910390fd5b60055460405163a9059cbb60e01b8152336004820152602481018390526001600160a01b039091169063a9059cbb90604401602060405180830381600087803b15801561041257600080fd5b505af1158015610426573d6000803e3d6000fd5b505050506040513d601f19601f8201168201806040525081019061044a9190610e94565b506104553382610940565b50565b600033610466858285610a86565b610471858585610b00565b506001949350505050565b60025460065461048c9190610f3c565b8111156104db5760405162461bcd60e51b815260206004820152601760248201527f4e6f7420656e6f75676820736861726573206c6566742100000000000000000060448201526064016103bd565b60075460ff16156105175760405162461bcd60e51b815260206004820152600660248201526514185d5cd95960d21b60448201526064016103bd565b6005546040516323b872dd60e01b8152336004820152306024820152604481018390526001600160a01b03909116906323b872dd90606401602060405180830381600087803b15801561056957600080fd5b505af115801561057d573d6000803e3d6000fd5b505050506040513d601f19601f820116820180604052508101906105a19190610e94565b506105ac3382610cce565b6002546006541415610455576005546040516331a9108f60e11b81523060048201526001600160a01b039182169163a9059cbb917f000000000000000000000000000000000000000000000000000000000000000090911690636352211e9060240160206040518083038186803b15801561062657600080fd5b505afa15801561063a573d6000803e3d6000fd5b505050506040513d601f19601f8201168201806040525081019061065e9190610dd1565b6006546040516001600160e01b031960e085901b1681526001600160a01b0390921660048301526024820152604401602060405180830381600087803b1580156106a757600080fd5b505af11580156106bb573d6000803e3d6000fd5b505050506040513d601f19601f820116820180604052508101906106df9190610e94565b5050565b6000336103588185856106f683836107f0565b6107009190610f24565b61081b565b60075461010090046001600160a01b0316331461072157600080fd5b6007805460ff19169055565b60075461010090046001600160a01b0316331461074957600080fd5b6007805460ff19166001179055565b6060600480546102c790610f53565b6000338161077582866107f0565b9050838110156107d55760405162461bcd60e51b815260206004820152602560248201527f45524332303a2064656372656173656420616c6c6f77616e63652062656c6f77604482015264207a65726f60d81b60648201526084016103bd565b610471828686840361081b565b600033610358818585610b00565b6001600160a01b03918216600090815260016020908152604080832093909416825291909152205490565b6001600160a01b03831661087d5760405162461bcd60e51b8152602060048201526024808201527f45524332303a20617070726f76652066726f6d20746865207a65726f206164646044820152637265737360e01b60648201526084016103bd565b6001600160a01b0382166108de5760405162461bcd60e51b815260206004820152602260248201527f45524332303a20617070726f766520746f20746865207a65726f206164647265604482015261737360f01b60648201526084016103bd565b6001600160a01b0383811660008181526001602090815260408083209487168084529482529182902085905590518481527f8c5be1e5ebec7d5bd14f71427d1e84f3dd0314c0f7b2291e5b200ac8c7c3b92591015b60405180910390a3505050565b6001600160a01b0382166109a05760405162461bcd60e51b815260206004820152602160248201527f45524332303a206275726e2066726f6d20746865207a65726f206164647265736044820152607360f81b60648201526084016103bd565b6001600160a01b03821660009081526020819052604090205481811015610a145760405162461bcd60e51b815260206004820152602260248201527f45524332303a206275726e20616d6f756e7420657863656564732062616c616e604482015261636560f01b60648201526084016103bd565b6001600160a01b0383166000908152602081905260408120838303905560028054849290610a43908490610f3c565b90915550506040518281526000906001600160a01b038516907fddf252ad1be2c89b69c2b068fc378daa952ba7f163c4a11628f55a4df523b3ef90602001610933565b6000610a9284846107f0565b90506000198114610afa5781811015610aed5760405162461bcd60e51b815260206004820152601d60248201527f45524332303a20696e73756666696369656e7420616c6c6f77616e636500000060448201526064016103bd565b610afa848484840361081b565b50505050565b6001600160a01b038316610b645760405162461bcd60e51b815260206004820152602560248201527f45524332303a207472616e736665722066726f6d20746865207a65726f206164604482015264647265737360d81b60648201526084016103bd565b6001600160a01b038216610bc65760405162461bcd60e51b815260206004820152602360248201527f45524332303a207472616e7366657220746f20746865207a65726f206164647260448201526265737360e81b60648201526084016103bd565b6001600160a01b03831660009081526020819052604090205481811015610c3e5760405162461bcd60e51b815260206004820152602660248201527f45524332303a207472616e7366657220616d6f756e7420657863656564732062604482015265616c616e636560d01b60648201526084016103bd565b6001600160a01b03808516600090815260208190526040808220858503905591851681529081208054849290610c75908490610f24565b92505081905550826001600160a01b0316846001600160a01b03167fddf252ad1be2c89b69c2b068fc378daa952ba7f163c4a11628f55a4df523b3ef84604051610cc191815260200190565b60405180910390a3610afa565b6001600160a01b038216610d245760405162461bcd60e51b815260206004820152601f60248201527f45524332303a206d696e7420746f20746865207a65726f20616464726573730060448201526064016103bd565b8060026000828254610d369190610f24565b90915550506001600160a01b03821660009081526020819052604081208054839290610d63908490610f24565b90915550506040518181526001600160a01b038316906000907fddf252ad1be2c89b69c2b068fc378daa952ba7f163c4a11628f55a4df523b3ef9060200160405180910390a35050565b600060208284031215610dbf57600080fd5b8135610dca81610fa4565b9392505050565b600060208284031215610de357600080fd5b8151610dca81610fa4565b60008060408385031215610e0157600080fd5b8235610e0c81610fa4565b91506020830135610e1c81610fa4565b809150509250929050565b600080600060608486031215610e3c57600080fd5b8335610e4781610fa4565b92506020840135610e5781610fa4565b929592945050506040919091013590565b60008060408385031215610e7b57600080fd5b8235610e8681610fa4565b946020939093013593505050565b600060208284031215610ea657600080fd5b81518015158114610dca57600080fd5b600060208284031215610ec857600080fd5b5035919050565b600060208083528351808285015260005b81811015610efc57858101830151858201604001528201610ee0565b81811115610f0e576000604083870101525b50601f01601f1916929092016040019392505050565b60008219821115610f3757610f37610f8e565b500190565b600082821015610f4e57610f4e610f8e565b500390565b600181811c90821680610f6757607f821691505b60208210811415610f8857634e487b7160e01b600052602260045260246000fd5b50919050565b634e487b7160e01b600052601160045260246000fd5b6001600160a01b038116811461045557600080fdfea26469706673582212204f4b152d0eb3a2aab4e42d7d12b14dfca59f90c04d3be5c3df18e8aa0073589964736f6c63430008070033",
					"opcodes": "PUSH1 0xA0 PUSH1 0x40 MSTORE CALLVALUE DUP1 ISZERO PUSH3 0x11 JUMPI PUSH1 0x0 DUP1 REVERT JUMPDEST POP PUSH1 0x40 MLOAD PUSH3 0x132E CODESIZE SUB DUP1 PUSH3 0x132E DUP4 CODECOPY DUP2 ADD PUSH1 0x40 DUP2 SWAP1 MSTORE PUSH3 0x34 SWAP2 PUSH3 0x22C JUMP JUMPDEST DUP4 MLOAD DUP5 SWAP1 DUP5 SWAP1 PUSH3 0x4D SWAP1 PUSH1 0x3 SWAP1 PUSH1 0x20 DUP6 ADD SWAP1 PUSH3 0xB2 JUMP JUMPDEST POP DUP1 MLOAD PUSH3 0x63 SWAP1 PUSH1 0x4 SWAP1 PUSH1 0x20 DUP5 ADD SWAP1 PUSH3 0xB2 JUMP JUMPDEST POP POP POP PUSH1 0x6 SWAP5 SWAP1 SWAP5 SSTORE PUSH1 0x7 DUP1 SLOAD PUSH2 0x100 PUSH1 0x1 PUSH1 0xA8 SHL SUB NOT AND PUSH2 0x100 PUSH1 0x1 PUSH1 0x1 PUSH1 0xA0 SHL SUB SWAP4 DUP5 AND MUL OR SWAP1 SSTORE PUSH1 0x5 DUP1 SLOAD PUSH1 0x1 PUSH1 0x1 PUSH1 0xA0 SHL SUB NOT AND SWAP2 SWAP1 SWAP5 AND OR SWAP1 SWAP3 SSTORE POP POP CALLER PUSH1 0x60 SHL PUSH1 0x80 MSTORE PUSH3 0x319 JUMP JUMPDEST DUP3 DUP1 SLOAD PUSH3 0xC0 SWAP1 PUSH3 0x2C6 JUMP JUMPDEST SWAP1 PUSH1 0x0 MSTORE PUSH1 0x20 PUSH1 0x0 KECCAK256 SWAP1 PUSH1 0x1F ADD PUSH1 0x20 SWAP1 DIV DUP2 ADD SWAP3 DUP3 PUSH3 0xE4 JUMPI PUSH1 0x0 DUP6 SSTORE PUSH3 0x12F JUMP JUMPDEST DUP3 PUSH1 0x1F LT PUSH3 0xFF JUMPI DUP1 MLOAD PUSH1 0xFF NOT AND DUP4 DUP1 ADD OR DUP6 SSTORE PUSH3 0x12F JUMP JUMPDEST DUP3 DUP1 ADD PUSH1 0x1 ADD DUP6 SSTORE DUP3 ISZERO PUSH3 0x12F JUMPI SWAP2 DUP3 ADD JUMPDEST DUP3 DUP2 GT ISZERO PUSH3 0x12F JUMPI DUP3 MLOAD DUP3 SSTORE SWAP2 PUSH1 0x20 ADD SWAP2 SWAP1 PUSH1 0x1 ADD SWAP1 PUSH3 0x112 JUMP JUMPDEST POP PUSH3 0x13D SWAP3 SWAP2 POP PUSH3 0x141 JUMP JUMPDEST POP SWAP1 JUMP JUMPDEST JUMPDEST DUP1 DUP3 GT ISZERO PUSH3 0x13D JUMPI PUSH1 0x0 DUP2 SSTORE PUSH1 0x1 ADD PUSH3 0x142 JUMP JUMPDEST DUP1 MLOAD PUSH1 0x1 PUSH1 0x1 PUSH1 0xA0 SHL SUB DUP2 AND DUP2 EQ PUSH3 0x170 JUMPI PUSH1 0x0 DUP1 REVERT JUMPDEST SWAP2 SWAP1 POP JUMP JUMPDEST PUSH1 0x0 DUP3 PUSH1 0x1F DUP4 ADD SLT PUSH3 0x187 JUMPI PUSH1 0x0 DUP1 REVERT JUMPDEST DUP2 MLOAD PUSH1 0x1 PUSH1 0x1 PUSH1 0x40 SHL SUB DUP1 DUP3 GT ISZERO PUSH3 0x1A4 JUMPI PUSH3 0x1A4 PUSH3 0x303 JUMP JUMPDEST PUSH1 0x40 MLOAD PUSH1 0x1F DUP4 ADD PUSH1 0x1F NOT SWAP1 DUP2 AND PUSH1 0x3F ADD AND DUP2 ADD SWAP1 DUP3 DUP3 GT DUP2 DUP4 LT OR ISZERO PUSH3 0x1CF JUMPI PUSH3 0x1CF PUSH3 0x303 JUMP JUMPDEST DUP2 PUSH1 0x40 MSTORE DUP4 DUP2 MSTORE PUSH1 0x20 SWAP3 POP DUP7 DUP4 DUP6 DUP9 ADD ADD GT ISZERO PUSH3 0x1EC JUMPI PUSH1 0x0 DUP1 REVERT JUMPDEST PUSH1 0x0 SWAP2 POP JUMPDEST DUP4 DUP3 LT ISZERO PUSH3 0x210 JUMPI DUP6 DUP3 ADD DUP4 ADD MLOAD DUP2 DUP4 ADD DUP5 ADD MSTORE SWAP1 DUP3 ADD SWAP1 PUSH3 0x1F1 JUMP JUMPDEST DUP4 DUP3 GT ISZERO PUSH3 0x222 JUMPI PUSH1 0x0 DUP4 DUP6 DUP4 ADD ADD MSTORE JUMPDEST SWAP7 SWAP6 POP POP POP POP POP POP JUMP JUMPDEST PUSH1 0x0 DUP1 PUSH1 0x0 DUP1 PUSH1 0x0 PUSH1 0xA0 DUP7 DUP9 SUB SLT ISZERO PUSH3 0x245 JUMPI PUSH1 0x0 DUP1 REVERT JUMPDEST DUP6 MLOAD PUSH1 0x20 DUP8 ADD MLOAD SWAP1 SWAP6 POP PUSH1 0x1 PUSH1 0x1 PUSH1 0x40 SHL SUB DUP1 DUP3 GT ISZERO PUSH3 0x265 JUMPI PUSH1 0x0 DUP1 REVERT JUMPDEST PUSH3 0x273 DUP10 DUP4 DUP11 ADD PUSH3 0x175 JUMP JUMPDEST SWAP6 POP PUSH1 0x40 DUP9 ADD MLOAD SWAP2 POP DUP1 DUP3 GT ISZERO PUSH3 0x28A JUMPI PUSH1 0x0 DUP1 REVERT JUMPDEST POP PUSH3 0x299 DUP9 DUP3 DUP10 ADD PUSH3 0x175 JUMP JUMPDEST SWAP4 POP POP PUSH3 0x2AA PUSH1 0x60 DUP8 ADD PUSH3 0x158 JUMP JUMPDEST SWAP2 POP PUSH3 0x2BA PUSH1 0x80 DUP8 ADD PUSH3 0x158 JUMP JUMPDEST SWAP1 POP SWAP3 SWAP6 POP SWAP3 SWAP6 SWAP1 SWAP4 POP JUMP JUMPDEST PUSH1 0x1 DUP2 DUP2 SHR SWAP1 DUP3 AND DUP1 PUSH3 0x2DB JUMPI PUSH1 0x7F DUP3 AND SWAP2 POP JUMPDEST PUSH1 0x20 DUP3 LT DUP2 EQ ISZERO PUSH3 0x2FD JUMPI PUSH4 0x4E487B71 PUSH1 0xE0 SHL PUSH1 0x0 MSTORE PUSH1 0x22 PUSH1 0x4 MSTORE PUSH1 0x24 PUSH1 0x0 REVERT JUMPDEST POP SWAP2 SWAP1 POP JUMP JUMPDEST PUSH4 0x4E487B71 PUSH1 0xE0 SHL PUSH1 0x0 MSTORE PUSH1 0x41 PUSH1 0x4 MSTORE PUSH1 0x24 PUSH1 0x0 REVERT JUMPDEST PUSH1 0x80 MLOAD PUSH1 0x60 SHR PUSH2 0xFEF PUSH3 0x33F PUSH1 0x0 CODECOPY PUSH1 0x0 DUP2 DUP2 PUSH2 0x219 ADD MSTORE PUSH2 0x5E2 ADD MSTORE PUSH2 0xFEF PUSH1 0x0 RETURN INVALID PUSH1 0x80 PUSH1 0x40 MSTORE CALLVALUE DUP1 ISZERO PUSH2 0x10 JUMPI PUSH1 0x0 DUP1 REVERT JUMPDEST POP PUSH1 0x4 CALLDATASIZE LT PUSH2 0x121 JUMPI PUSH1 0x0 CALLDATALOAD PUSH1 0xE0 SHR DUP1 PUSH4 0x3F4BA83A GT PUSH2 0xAD JUMPI DUP1 PUSH4 0x95D89B41 GT PUSH2 0x71 JUMPI DUP1 PUSH4 0x95D89B41 EQ PUSH2 0x264 JUMPI DUP1 PUSH4 0xA457C2D7 EQ PUSH2 0x26C JUMPI DUP1 PUSH4 0xA9059CBB EQ PUSH2 0x27F JUMPI DUP1 PUSH4 0xDD62ED3E EQ PUSH2 0x292 JUMPI DUP1 PUSH4 0xE0BAB4C4 EQ PUSH2 0x2A5 JUMPI PUSH1 0x0 DUP1 REVERT JUMPDEST DUP1 PUSH4 0x3F4BA83A EQ PUSH2 0x1E3 JUMPI DUP1 PUSH4 0x70A08231 EQ PUSH2 0x1EB JUMPI DUP1 PUSH4 0x7C0B8DE2 EQ PUSH2 0x214 JUMPI DUP1 PUSH4 0x8456CB59 EQ PUSH2 0x253 JUMPI DUP1 PUSH4 0x953B8FB8 EQ PUSH2 0x25B JUMPI PUSH1 0x0 DUP1 REVERT JUMPDEST DUP1 PUSH4 0x2037FCBF GT PUSH2 0xF4 JUMPI DUP1 PUSH4 0x2037FCBF EQ PUSH2 0x186 JUMPI DUP1 PUSH4 0x23B872DD EQ PUSH2 0x19B JUMPI DUP1 PUSH4 0x2AFCF480 EQ PUSH2 0x1AE JUMPI DUP1 PUSH4 0x313CE567 EQ PUSH2 0x1C1 JUMPI DUP1 PUSH4 0x39509351 EQ PUSH2 0x1D0 JUMPI PUSH1 0x0 DUP1 REVERT JUMPDEST DUP1 PUSH4 0x6FDDE03 EQ PUSH2 0x126 JUMPI DUP1 PUSH4 0x95EA7B3 EQ PUSH2 0x144 JUMPI DUP1 PUSH4 0x16C61CCC EQ PUSH2 0x167 JUMPI DUP1 PUSH4 0x18160DDD EQ PUSH2 0x174 JUMPI JUMPDEST PUSH1 0x0 DUP1 REVERT JUMPDEST PUSH2 0x12E PUSH2 0x2B8 JUMP JUMPDEST PUSH1 0x40 MLOAD PUSH2 0x13B SWAP2 SWAP1 PUSH2 0xECF JUMP JUMPDEST PUSH1 0x40 MLOAD DUP1 SWAP2 SUB SWAP1 RETURN JUMPDEST PUSH2 0x157 PUSH2 0x152 CALLDATASIZE PUSH1 0x4 PUSH2 0xE68 JUMP JUMPDEST PUSH2 0x34A JUMP JUMPDEST PUSH1 0x40 MLOAD SWAP1 ISZERO ISZERO DUP2 MSTORE PUSH1 0x20 ADD PUSH2 0x13B JUMP JUMPDEST PUSH1 0x7 SLOAD PUSH2 0x157 SWAP1 PUSH1 0xFF AND DUP2 JUMP JUMPDEST PUSH1 0x2 SLOAD JUMPDEST PUSH1 0x40 MLOAD SWAP1 DUP2 MSTORE PUSH1 0x20 ADD PUSH2 0x13B JUMP JUMPDEST PUSH2 0x199 PUSH2 0x194 CALLDATASIZE PUSH1 0x4 PUSH2 0xEB6 JUMP JUMPDEST PUSH2 0x362 JUMP JUMPDEST STOP JUMPDEST PUSH2 0x157 PUSH2 0x1A9 CALLDATASIZE PUSH1 0x4 PUSH2 0xE27 JUMP JUMPDEST PUSH2 0x458 JUMP JUMPDEST PUSH2 0x199 PUSH2 0x1BC CALLDATASIZE PUSH1 0x4 PUSH2 0xEB6 JUMP JUMPDEST PUSH2 0x47C JUMP JUMPDEST PUSH1 0x40 MLOAD PUSH1 0x12 DUP2 MSTORE PUSH1 0x20 ADD PUSH2 0x13B JUMP JUMPDEST PUSH2 0x157 PUSH2 0x1DE CALLDATASIZE PUSH1 0x4 PUSH2 0xE68 JUMP JUMPDEST PUSH2 0x6E3 JUMP JUMPDEST PUSH2 0x199 PUSH2 0x705 JUMP JUMPDEST PUSH2 0x178 PUSH2 0x1F9 CALLDATASIZE PUSH1 0x4 PUSH2 0xDAD JUMP JUMPDEST PUSH1 0x1 PUSH1 0x1 PUSH1 0xA0 SHL SUB AND PUSH1 0x0 SWAP1 DUP2 MSTORE PUSH1 0x20 DUP2 SWAP1 MSTORE PUSH1 0x40 SWAP1 KECCAK256 SLOAD SWAP1 JUMP JUMPDEST PUSH2 0x23B PUSH32 0x0 DUP2 JUMP JUMPDEST PUSH1 0x40 MLOAD PUSH1 0x1 PUSH1 0x1 PUSH1 0xA0 SHL SUB SWAP1 SWAP2 AND DUP2 MSTORE PUSH1 0x20 ADD PUSH2 0x13B JUMP JUMPDEST PUSH2 0x199 PUSH2 0x72D JUMP JUMPDEST PUSH2 0x178 PUSH1 0x6 SLOAD DUP2 JUMP JUMPDEST PUSH2 0x12E PUSH2 0x758 JUMP JUMPDEST PUSH2 0x157 PUSH2 0x27A CALLDATASIZE PUSH1 0x4 PUSH2 0xE68 JUMP JUMPDEST PUSH2 0x767 JUMP JUMPDEST PUSH2 0x157 PUSH2 0x28D CALLDATASIZE PUSH1 0x4 PUSH2 0xE68 JUMP JUMPDEST PUSH2 0x7E2 JUMP JUMPDEST PUSH2 0x178 PUSH2 0x2A0 CALLDATASIZE PUSH1 0x4 PUSH2 0xDEE JUMP JUMPDEST PUSH2 0x7F0 JUMP JUMPDEST PUSH1 0x5 SLOAD PUSH2 0x23B SWAP1 PUSH1 0x1 PUSH1 0x1 PUSH1 0xA0 SHL SUB AND DUP2 JUMP JUMPDEST PUSH1 0x60 PUSH1 0x3 DUP1 SLOAD PUSH2 0x2C7 SWAP1 PUSH2 0xF53 JUMP JUMPDEST DUP1 PUSH1 0x1F ADD PUSH1 0x20 DUP1 SWAP2 DIV MUL PUSH1 0x20 ADD PUSH1 0x40 MLOAD SWAP1 DUP2 ADD PUSH1 0x40 MSTORE DUP1 SWAP3 SWAP2 SWAP1 DUP2 DUP2 MSTORE PUSH1 0x20 ADD DUP3 DUP1 SLOAD PUSH2 0x2F3 SWAP1 PUSH2 0xF53 JUMP JUMPDEST DUP1 ISZERO PUSH2 0x340 JUMPI DUP1 PUSH1 0x1F LT PUSH2 0x315 JUMPI PUSH2 0x100 DUP1 DUP4 SLOAD DIV MUL DUP4 MSTORE SWAP2 PUSH1 0x20 ADD SWAP2 PUSH2 0x340 JUMP JUMPDEST DUP3 ADD SWAP2 SWAP1 PUSH1 0x0 MSTORE PUSH1 0x20 PUSH1 0x0 KECCAK256 SWAP1 JUMPDEST DUP2 SLOAD DUP2 MSTORE SWAP1 PUSH1 0x1 ADD SWAP1 PUSH1 0x20 ADD DUP1 DUP4 GT PUSH2 0x323 JUMPI DUP3 SWAP1 SUB PUSH1 0x1F AND DUP3 ADD SWAP2 JUMPDEST POP POP POP POP POP SWAP1 POP SWAP1 JUMP JUMPDEST PUSH1 0x0 CALLER PUSH2 0x358 DUP2 DUP6 DUP6 PUSH2 0x81B JUMP JUMPDEST POP PUSH1 0x1 SWAP4 SWAP3 POP POP POP JUMP JUMPDEST CALLER PUSH1 0x0 SWAP1 DUP2 MSTORE PUSH1 0x20 DUP2 SWAP1 MSTORE PUSH1 0x40 SWAP1 KECCAK256 SLOAD DUP2 GT ISZERO PUSH2 0x3C6 JUMPI PUSH1 0x40 MLOAD PUSH3 0x461BCD PUSH1 0xE5 SHL DUP2 MSTORE PUSH1 0x20 PUSH1 0x4 DUP3 ADD MSTORE PUSH1 0x1A PUSH1 0x24 DUP3 ADD MSTORE PUSH32 0x4E6F7420656E6F756768207368617265732062616C616E636521000000000000 PUSH1 0x44 DUP3 ADD MSTORE PUSH1 0x64 ADD JUMPDEST PUSH1 0x40 MLOAD DUP1 SWAP2 SUB SWAP1 REVERT JUMPDEST PUSH1 0x5 SLOAD PUSH1 0x40 MLOAD PUSH4 0xA9059CBB PUSH1 0xE0 SHL DUP2 MSTORE CALLER PUSH1 0x4 DUP3 ADD MSTORE PUSH1 0x24 DUP2 ADD DUP4 SWAP1 MSTORE PUSH1 0x1 PUSH1 0x1 PUSH1 0xA0 SHL SUB SWAP1 SWAP2 AND SWAP1 PUSH4 0xA9059CBB SWAP1 PUSH1 0x44 ADD PUSH1 0x20 PUSH1 0x40 MLOAD DUP1 DUP4 SUB DUP2 PUSH1 0x0 DUP8 DUP1 EXTCODESIZE ISZERO DUP1 ISZERO PUSH2 0x412 JUMPI PUSH1 0x0 DUP1 REVERT JUMPDEST POP GAS CALL ISZERO DUP1 ISZERO PUSH2 0x426 JUMPI RETURNDATASIZE PUSH1 0x0 DUP1 RETURNDATACOPY RETURNDATASIZE PUSH1 0x0 REVERT JUMPDEST POP POP POP POP PUSH1 0x40 MLOAD RETURNDATASIZE PUSH1 0x1F NOT PUSH1 0x1F DUP3 ADD AND DUP3 ADD DUP1 PUSH1 0x40 MSTORE POP DUP2 ADD SWAP1 PUSH2 0x44A SWAP2 SWAP1 PUSH2 0xE94 JUMP JUMPDEST POP PUSH2 0x455 CALLER DUP3 PUSH2 0x940 JUMP JUMPDEST POP JUMP JUMPDEST PUSH1 0x0 CALLER PUSH2 0x466 DUP6 DUP3 DUP6 PUSH2 0xA86 JUMP JUMPDEST PUSH2 0x471 DUP6 DUP6 DUP6 PUSH2 0xB00 JUMP JUMPDEST POP PUSH1 0x1 SWAP5 SWAP4 POP POP POP POP JUMP JUMPDEST PUSH1 0x2 SLOAD PUSH1 0x6 SLOAD PUSH2 0x48C SWAP2 SWAP1 PUSH2 0xF3C JUMP JUMPDEST DUP2 GT ISZERO PUSH2 0x4DB JUMPI PUSH1 0x40 MLOAD PUSH3 0x461BCD PUSH1 0xE5 SHL DUP2 MSTORE PUSH1 0x20 PUSH1 0x4 DUP3 ADD MSTORE PUSH1 0x17 PUSH1 0x24 DUP3 ADD MSTORE PUSH32 0x4E6F7420656E6F75676820736861726573206C65667421000000000000000000 PUSH1 0x44 DUP3 ADD MSTORE PUSH1 0x64 ADD PUSH2 0x3BD JUMP JUMPDEST PUSH1 0x7 SLOAD PUSH1 0xFF AND ISZERO PUSH2 0x517 JUMPI PUSH1 0x40 MLOAD PUSH3 0x461BCD PUSH1 0xE5 SHL DUP2 MSTORE PUSH1 0x20 PUSH1 0x4 DUP3 ADD MSTORE PUSH1 0x6 PUSH1 0x24 DUP3 ADD MSTORE PUSH6 0x14185D5CD959 PUSH1 0xD2 SHL PUSH1 0x44 DUP3 ADD MSTORE PUSH1 0x64 ADD PUSH2 0x3BD JUMP JUMPDEST PUSH1 0x5 SLOAD PUSH1 0x40 MLOAD PUSH4 0x23B872DD PUSH1 0xE0 SHL DUP2 MSTORE CALLER PUSH1 0x4 DUP3 ADD MSTORE ADDRESS PUSH1 0x24 DUP3 ADD MSTORE PUSH1 0x44 DUP2 ADD DUP4 SWAP1 MSTORE PUSH1 0x1 PUSH1 0x1 PUSH1 0xA0 SHL SUB SWAP1 SWAP2 AND SWAP1 PUSH4 0x23B872DD SWAP1 PUSH1 0x64 ADD PUSH1 0x20 PUSH1 0x40 MLOAD DUP1 DUP4 SUB DUP2 PUSH1 0x0 DUP8 DUP1 EXTCODESIZE ISZERO DUP1 ISZERO PUSH2 0x569 JUMPI PUSH1 0x0 DUP1 REVERT JUMPDEST POP GAS CALL ISZERO DUP1 ISZERO PUSH2 0x57D JUMPI RETURNDATASIZE PUSH1 0x0 DUP1 RETURNDATACOPY RETURNDATASIZE PUSH1 0x0 REVERT JUMPDEST POP POP POP POP PUSH1 0x40 MLOAD RETURNDATASIZE PUSH1 0x1F NOT PUSH1 0x1F DUP3 ADD AND DUP3 ADD DUP1 PUSH1 0x40 MSTORE POP DUP2 ADD SWAP1 PUSH2 0x5A1 SWAP2 SWAP1 PUSH2 0xE94 JUMP JUMPDEST POP PUSH2 0x5AC CALLER DUP3 PUSH2 0xCCE JUMP JUMPDEST PUSH1 0x2 SLOAD PUSH1 0x6 SLOAD EQ ISZERO PUSH2 0x455 JUMPI PUSH1 0x5 SLOAD PUSH1 0x40 MLOAD PUSH4 0x31A9108F PUSH1 0xE1 SHL DUP2 MSTORE ADDRESS PUSH1 0x4 DUP3 ADD MSTORE PUSH1 0x1 PUSH1 0x1 PUSH1 0xA0 SHL SUB SWAP2 DUP3 AND SWAP2 PUSH4 0xA9059CBB SWAP2 PUSH32 0x0 SWAP1 SWAP2 AND SWAP1 PUSH4 0x6352211E SWAP1 PUSH1 0x24 ADD PUSH1 0x20 PUSH1 0x40 MLOAD DUP1 DUP4 SUB DUP2 DUP7 DUP1 EXTCODESIZE ISZERO DUP1 ISZERO PUSH2 0x626 JUMPI PUSH1 0x0 DUP1 REVERT JUMPDEST POP GAS STATICCALL ISZERO DUP1 ISZERO PUSH2 0x63A JUMPI RETURNDATASIZE PUSH1 0x0 DUP1 RETURNDATACOPY RETURNDATASIZE PUSH1 0x0 REVERT JUMPDEST POP POP POP POP PUSH1 0x40 MLOAD RETURNDATASIZE PUSH1 0x1F NOT PUSH1 0x1F DUP3 ADD AND DUP3 ADD DUP1 PUSH1 0x40 MSTORE POP DUP2 ADD SWAP1 PUSH2 0x65E SWAP2 SWAP1 PUSH2 0xDD1 JUMP JUMPDEST PUSH1 0x6 SLOAD PUSH1 0x40 MLOAD PUSH1 0x1 PUSH1 0x1 PUSH1 0xE0 SHL SUB NOT PUSH1 0xE0 DUP6 SWAP1 SHL AND DUP2 MSTORE PUSH1 0x1 PUSH1 0x1 PUSH1 0xA0 SHL SUB SWAP1 SWAP3 AND PUSH1 0x4 DUP4 ADD MSTORE PUSH1 0x24 DUP3 ADD MSTORE PUSH1 0x44 ADD PUSH1 0x20 PUSH1 0x40 MLOAD DUP1 DUP4 SUB DUP2 PUSH1 0x0 DUP8 DUP1 EXTCODESIZE ISZERO DUP1 ISZERO PUSH2 0x6A7 JUMPI PUSH1 0x0 DUP1 REVERT JUMPDEST POP GAS CALL ISZERO DUP1 ISZERO PUSH2 0x6BB JUMPI RETURNDATASIZE PUSH1 0x0 DUP1 RETURNDATACOPY RETURNDATASIZE PUSH1 0x0 REVERT JUMPDEST POP POP POP POP PUSH1 0x40 MLOAD RETURNDATASIZE PUSH1 0x1F NOT PUSH1 0x1F DUP3 ADD AND DUP3 ADD DUP1 PUSH1 0x40 MSTORE POP DUP2 ADD SWAP1 PUSH2 0x6DF SWAP2 SWAP1 PUSH2 0xE94 JUMP JUMPDEST POP POP JUMP JUMPDEST PUSH1 0x0 CALLER PUSH2 0x358 DUP2 DUP6 DUP6 PUSH2 0x6F6 DUP4 DUP4 PUSH2 0x7F0 JUMP JUMPDEST PUSH2 0x700 SWAP2 SWAP1 PUSH2 0xF24 JUMP JUMPDEST PUSH2 0x81B JUMP JUMPDEST PUSH1 0x7 SLOAD PUSH2 0x100 SWAP1 DIV PUSH1 0x1 PUSH1 0x1 PUSH1 0xA0 SHL SUB AND CALLER EQ PUSH2 0x721 JUMPI PUSH1 0x0 DUP1 REVERT JUMPDEST PUSH1 0x7 DUP1 SLOAD PUSH1 0xFF NOT AND SWAP1 SSTORE JUMP JUMPDEST PUSH1 0x7 SLOAD PUSH2 0x100 SWAP1 DIV PUSH1 0x1 PUSH1 0x1 PUSH1 0xA0 SHL SUB AND CALLER EQ PUSH2 0x749 JUMPI PUSH1 0x0 DUP1 REVERT JUMPDEST PUSH1 0x7 DUP1 SLOAD PUSH1 0xFF NOT AND PUSH1 0x1 OR SWAP1 SSTORE JUMP JUMPDEST PUSH1 0x60 PUSH1 0x4 DUP1 SLOAD PUSH2 0x2C7 SWAP1 PUSH2 0xF53 JUMP JUMPDEST PUSH1 0x0 CALLER DUP2 PUSH2 0x775 DUP3 DUP7 PUSH2 0x7F0 JUMP JUMPDEST SWAP1 POP DUP4 DUP2 LT ISZERO PUSH2 0x7D5 JUMPI PUSH1 0x40 MLOAD PUSH3 0x461BCD PUSH1 0xE5 SHL DUP2 MSTORE PUSH1 0x20 PUSH1 0x4 DUP3 ADD MSTORE PUSH1 0x25 PUSH1 0x24 DUP3 ADD MSTORE PUSH32 0x45524332303A2064656372656173656420616C6C6F77616E63652062656C6F77 PUSH1 0x44 DUP3 ADD MSTORE PUSH5 0x207A65726F PUSH1 0xD8 SHL PUSH1 0x64 DUP3 ADD MSTORE PUSH1 0x84 ADD PUSH2 0x3BD JUMP JUMPDEST PUSH2 0x471 DUP3 DUP7 DUP7 DUP5 SUB PUSH2 0x81B JUMP JUMPDEST PUSH1 0x0 CALLER PUSH2 0x358 DUP2 DUP6 DUP6 PUSH2 0xB00 JUMP JUMPDEST PUSH1 0x1 PUSH1 0x1 PUSH1 0xA0 SHL SUB SWAP2 DUP3 AND PUSH1 0x0 SWAP1 DUP2 MSTORE PUSH1 0x1 PUSH1 0x20 SWAP1 DUP2 MSTORE PUSH1 0x40 DUP1 DUP4 KECCAK256 SWAP4 SWAP1 SWAP5 AND DUP3 MSTORE SWAP2 SWAP1 SWAP2 MSTORE KECCAK256 SLOAD SWAP1 JUMP JUMPDEST PUSH1 0x1 PUSH1 0x1 PUSH1 0xA0 SHL SUB DUP4 AND PUSH2 0x87D JUMPI PUSH1 0x40 MLOAD PUSH3 0x461BCD PUSH1 0xE5 SHL DUP2 MSTORE PUSH1 0x20 PUSH1 0x4 DUP3 ADD MSTORE PUSH1 0x24 DUP1 DUP3 ADD MSTORE PUSH32 0x45524332303A20617070726F76652066726F6D20746865207A65726F20616464 PUSH1 0x44 DUP3 ADD MSTORE PUSH4 0x72657373 PUSH1 0xE0 SHL PUSH1 0x64 DUP3 ADD MSTORE PUSH1 0x84 ADD PUSH2 0x3BD JUMP JUMPDEST PUSH1 0x1 PUSH1 0x1 PUSH1 0xA0 SHL SUB DUP3 AND PUSH2 0x8DE JUMPI PUSH1 0x40 MLOAD PUSH3 0x461BCD PUSH1 0xE5 SHL DUP2 MSTORE PUSH1 0x20 PUSH1 0x4 DUP3 ADD MSTORE PUSH1 0x22 PUSH1 0x24 DUP3 ADD MSTORE PUSH32 0x45524332303A20617070726F766520746F20746865207A65726F206164647265 PUSH1 0x44 DUP3 ADD MSTORE PUSH2 0x7373 PUSH1 0xF0 SHL PUSH1 0x64 DUP3 ADD MSTORE PUSH1 0x84 ADD PUSH2 0x3BD JUMP JUMPDEST PUSH1 0x1 PUSH1 0x1 PUSH1 0xA0 SHL SUB DUP4 DUP2 AND PUSH1 0x0 DUP2 DUP2 MSTORE PUSH1 0x1 PUSH1 0x20 SWAP1 DUP2 MSTORE PUSH1 0x40 DUP1 DUP4 KECCAK256 SWAP5 DUP8 AND DUP1 DUP5 MSTORE SWAP5 DUP3 MSTORE SWAP2 DUP3 SWAP1 KECCAK256 DUP6 SWAP1 SSTORE SWAP1 MLOAD DUP5 DUP2 MSTORE PUSH32 0x8C5BE1E5EBEC7D5BD14F71427D1E84F3DD0314C0F7B2291E5B200AC8C7C3B925 SWAP2 ADD JUMPDEST PUSH1 0x40 MLOAD DUP1 SWAP2 SUB SWAP1 LOG3 POP POP POP JUMP JUMPDEST PUSH1 0x1 PUSH1 0x1 PUSH1 0xA0 SHL SUB DUP3 AND PUSH2 0x9A0 JUMPI PUSH1 0x40 MLOAD PUSH3 0x461BCD PUSH1 0xE5 SHL DUP2 MSTORE PUSH1 0x20 PUSH1 0x4 DUP3 ADD MSTORE PUSH1 0x21 PUSH1 0x24 DUP3 ADD MSTORE PUSH32 0x45524332303A206275726E2066726F6D20746865207A65726F20616464726573 PUSH1 0x44 DUP3 ADD MSTORE PUSH1 0x73 PUSH1 0xF8 SHL PUSH1 0x64 DUP3 ADD MSTORE PUSH1 0x84 ADD PUSH2 0x3BD JUMP JUMPDEST PUSH1 0x1 PUSH1 0x1 PUSH1 0xA0 SHL SUB DUP3 AND PUSH1 0x0 SWAP1 DUP2 MSTORE PUSH1 0x20 DUP2 SWAP1 MSTORE PUSH1 0x40 SWAP1 KECCAK256 SLOAD DUP2 DUP2 LT ISZERO PUSH2 0xA14 JUMPI PUSH1 0x40 MLOAD PUSH3 0x461BCD PUSH1 0xE5 SHL DUP2 MSTORE PUSH1 0x20 PUSH1 0x4 DUP3 ADD MSTORE PUSH1 0x22 PUSH1 0x24 DUP3 ADD MSTORE PUSH32 0x45524332303A206275726E20616D6F756E7420657863656564732062616C616E PUSH1 0x44 DUP3 ADD MSTORE PUSH2 0x6365 PUSH1 0xF0 SHL PUSH1 0x64 DUP3 ADD MSTORE PUSH1 0x84 ADD PUSH2 0x3BD JUMP JUMPDEST PUSH1 0x1 PUSH1 0x1 PUSH1 0xA0 SHL SUB DUP4 AND PUSH1 0x0 SWAP1 DUP2 MSTORE PUSH1 0x20 DUP2 SWAP1 MSTORE PUSH1 0x40 DUP2 KECCAK256 DUP4 DUP4 SUB SWAP1 SSTORE PUSH1 0x2 DUP1 SLOAD DUP5 SWAP3 SWAP1 PUSH2 0xA43 SWAP1 DUP5 SWAP1 PUSH2 0xF3C JUMP JUMPDEST SWAP1 SWAP2 SSTORE POP POP PUSH1 0x40 MLOAD DUP3 DUP2 MSTORE PUSH1 0x0 SWAP1 PUSH1 0x1 PUSH1 0x1 PUSH1 0xA0 SHL SUB DUP6 AND SWAP1 PUSH32 0xDDF252AD1BE2C89B69C2B068FC378DAA952BA7F163C4A11628F55A4DF523B3EF SWAP1 PUSH1 0x20 ADD PUSH2 0x933 JUMP JUMPDEST PUSH1 0x0 PUSH2 0xA92 DUP5 DUP5 PUSH2 0x7F0 JUMP JUMPDEST SWAP1 POP PUSH1 0x0 NOT DUP2 EQ PUSH2 0xAFA JUMPI DUP2 DUP2 LT ISZERO PUSH2 0xAED JUMPI PUSH1 0x40 MLOAD PUSH3 0x461BCD PUSH1 0xE5 SHL DUP2 MSTORE PUSH1 0x20 PUSH1 0x4 DUP3 ADD MSTORE PUSH1 0x1D PUSH1 0x24 DUP3 ADD MSTORE PUSH32 0x45524332303A20696E73756666696369656E7420616C6C6F77616E6365000000 PUSH1 0x44 DUP3 ADD MSTORE PUSH1 0x64 ADD PUSH2 0x3BD JUMP JUMPDEST PUSH2 0xAFA DUP5 DUP5 DUP5 DUP5 SUB PUSH2 0x81B JUMP JUMPDEST POP POP POP POP JUMP JUMPDEST PUSH1 0x1 PUSH1 0x1 PUSH1 0xA0 SHL SUB DUP4 AND PUSH2 0xB64 JUMPI PUSH1 0x40 MLOAD PUSH3 0x461BCD PUSH1 0xE5 SHL DUP2 MSTORE PUSH1 0x20 PUSH1 0x4 DUP3 ADD MSTORE PUSH1 0x25 PUSH1 0x24 DUP3 ADD MSTORE PUSH32 0x45524332303A207472616E736665722066726F6D20746865207A65726F206164 PUSH1 0x44 DUP3 ADD MSTORE PUSH5 0x6472657373 PUSH1 0xD8 SHL PUSH1 0x64 DUP3 ADD MSTORE PUSH1 0x84 ADD PUSH2 0x3BD JUMP JUMPDEST PUSH1 0x1 PUSH1 0x1 PUSH1 0xA0 SHL SUB DUP3 AND PUSH2 0xBC6 JUMPI PUSH1 0x40 MLOAD PUSH3 0x461BCD PUSH1 0xE5 SHL DUP2 MSTORE PUSH1 0x20 PUSH1 0x4 DUP3 ADD MSTORE PUSH1 0x23 PUSH1 0x24 DUP3 ADD MSTORE PUSH32 0x45524332303A207472616E7366657220746F20746865207A65726F2061646472 PUSH1 0x44 DUP3 ADD MSTORE PUSH3 0x657373 PUSH1 0xE8 SHL PUSH1 0x64 DUP3 ADD MSTORE PUSH1 0x84 ADD PUSH2 0x3BD JUMP JUMPDEST PUSH1 0x1 PUSH1 0x1 PUSH1 0xA0 SHL SUB DUP4 AND PUSH1 0x0 SWAP1 DUP2 MSTORE PUSH1 0x20 DUP2 SWAP1 MSTORE PUSH1 0x40 SWAP1 KECCAK256 SLOAD DUP2 DUP2 LT ISZERO PUSH2 0xC3E JUMPI PUSH1 0x40 MLOAD PUSH3 0x461BCD PUSH1 0xE5 SHL DUP2 MSTORE PUSH1 0x20 PUSH1 0x4 DUP3 ADD MSTORE PUSH1 0x26 PUSH1 0x24 DUP3 ADD MSTORE PUSH32 0x45524332303A207472616E7366657220616D6F756E7420657863656564732062 PUSH1 0x44 DUP3 ADD MSTORE PUSH6 0x616C616E6365 PUSH1 0xD0 SHL PUSH1 0x64 DUP3 ADD MSTORE PUSH1 0x84 ADD PUSH2 0x3BD JUMP JUMPDEST PUSH1 0x1 PUSH1 0x1 PUSH1 0xA0 SHL SUB DUP1 DUP6 AND PUSH1 0x0 SWAP1 DUP2 MSTORE PUSH1 0x20 DUP2 SWAP1 MSTORE PUSH1 0x40 DUP1 DUP3 KECCAK256 DUP6 DUP6 SUB SWAP1 SSTORE SWAP2 DUP6 AND DUP2 MSTORE SWAP1 DUP2 KECCAK256 DUP1 SLOAD DUP5 SWAP3 SWAP1 PUSH2 0xC75 SWAP1 DUP5 SWAP1 PUSH2 0xF24 JUMP JUMPDEST SWAP3 POP POP DUP2 SWAP1 SSTORE POP DUP3 PUSH1 0x1 PUSH1 0x1 PUSH1 0xA0 SHL SUB AND DUP5 PUSH1 0x1 PUSH1 0x1 PUSH1 0xA0 SHL SUB AND PUSH32 0xDDF252AD1BE2C89B69C2B068FC378DAA952BA7F163C4A11628F55A4DF523B3EF DUP5 PUSH1 0x40 MLOAD PUSH2 0xCC1 SWAP2 DUP2 MSTORE PUSH1 0x20 ADD SWAP1 JUMP JUMPDEST PUSH1 0x40 MLOAD DUP1 SWAP2 SUB SWAP1 LOG3 PUSH2 0xAFA JUMP JUMPDEST PUSH1 0x1 PUSH1 0x1 PUSH1 0xA0 SHL SUB DUP3 AND PUSH2 0xD24 JUMPI PUSH1 0x40 MLOAD PUSH3 0x461BCD PUSH1 0xE5 SHL DUP2 MSTORE PUSH1 0x20 PUSH1 0x4 DUP3 ADD MSTORE PUSH1 0x1F PUSH1 0x24 DUP3 ADD MSTORE PUSH32 0x45524332303A206D696E7420746F20746865207A65726F206164647265737300 PUSH1 0x44 DUP3 ADD MSTORE PUSH1 0x64 ADD PUSH2 0x3BD JUMP JUMPDEST DUP1 PUSH1 0x2 PUSH1 0x0 DUP3 DUP3 SLOAD PUSH2 0xD36 SWAP2 SWAP1 PUSH2 0xF24 JUMP JUMPDEST SWAP1 SWAP2 SSTORE POP POP PUSH1 0x1 PUSH1 0x1 PUSH1 0xA0 SHL SUB DUP3 AND PUSH1 0x0 SWAP1 DUP2 MSTORE PUSH1 0x20 DUP2 SWAP1 MSTORE PUSH1 0x40 DUP2 KECCAK256 DUP1 SLOAD DUP4 SWAP3 SWAP1 PUSH2 0xD63 SWAP1 DUP5 SWAP1 PUSH2 0xF24 JUMP JUMPDEST SWAP1 SWAP2 SSTORE POP POP PUSH1 0x40 MLOAD DUP2 DUP2 MSTORE PUSH1 0x1 PUSH1 0x1 PUSH1 0xA0 SHL SUB DUP4 AND SWAP1 PUSH1 0x0 SWAP1 PUSH32 0xDDF252AD1BE2C89B69C2B068FC378DAA952BA7F163C4A11628F55A4DF523B3EF SWAP1 PUSH1 0x20 ADD PUSH1 0x40 MLOAD DUP1 SWAP2 SUB SWAP1 LOG3 POP POP JUMP JUMPDEST PUSH1 0x0 PUSH1 0x20 DUP3 DUP5 SUB SLT ISZERO PUSH2 0xDBF JUMPI PUSH1 0x0 DUP1 REVERT JUMPDEST DUP2 CALLDATALOAD PUSH2 0xDCA DUP2 PUSH2 0xFA4 JUMP JUMPDEST SWAP4 SWAP3 POP POP POP JUMP JUMPDEST PUSH1 0x0 PUSH1 0x20 DUP3 DUP5 SUB SLT ISZERO PUSH2 0xDE3 JUMPI PUSH1 0x0 DUP1 REVERT JUMPDEST DUP2 MLOAD PUSH2 0xDCA DUP2 PUSH2 0xFA4 JUMP JUMPDEST PUSH1 0x0 DUP1 PUSH1 0x40 DUP4 DUP6 SUB SLT ISZERO PUSH2 0xE01 JUMPI PUSH1 0x0 DUP1 REVERT JUMPDEST DUP3 CALLDATALOAD PUSH2 0xE0C DUP2 PUSH2 0xFA4 JUMP JUMPDEST SWAP2 POP PUSH1 0x20 DUP4 ADD CALLDATALOAD PUSH2 0xE1C DUP2 PUSH2 0xFA4 JUMP JUMPDEST DUP1 SWAP2 POP POP SWAP3 POP SWAP3 SWAP1 POP JUMP JUMPDEST PUSH1 0x0 DUP1 PUSH1 0x0 PUSH1 0x60 DUP5 DUP7 SUB SLT ISZERO PUSH2 0xE3C JUMPI PUSH1 0x0 DUP1 REVERT JUMPDEST DUP4 CALLDATALOAD PUSH2 0xE47 DUP2 PUSH2 0xFA4 JUMP JUMPDEST SWAP3 POP PUSH1 0x20 DUP5 ADD CALLDATALOAD PUSH2 0xE57 DUP2 PUSH2 0xFA4 JUMP JUMPDEST SWAP3 SWAP6 SWAP3 SWAP5 POP POP POP PUSH1 0x40 SWAP2 SWAP1 SWAP2 ADD CALLDATALOAD SWAP1 JUMP JUMPDEST PUSH1 0x0 DUP1 PUSH1 0x40 DUP4 DUP6 SUB SLT ISZERO PUSH2 0xE7B JUMPI PUSH1 0x0 DUP1 REVERT JUMPDEST DUP3 CALLDATALOAD PUSH2 0xE86 DUP2 PUSH2 0xFA4 JUMP JUMPDEST SWAP5 PUSH1 0x20 SWAP4 SWAP1 SWAP4 ADD CALLDATALOAD SWAP4 POP POP POP JUMP JUMPDEST PUSH1 0x0 PUSH1 0x20 DUP3 DUP5 SUB SLT ISZERO PUSH2 0xEA6 JUMPI PUSH1 0x0 DUP1 REVERT JUMPDEST DUP2 MLOAD DUP1 ISZERO ISZERO DUP2 EQ PUSH2 0xDCA JUMPI PUSH1 0x0 DUP1 REVERT JUMPDEST PUSH1 0x0 PUSH1 0x20 DUP3 DUP5 SUB SLT ISZERO PUSH2 0xEC8 JUMPI PUSH1 0x0 DUP1 REVERT JUMPDEST POP CALLDATALOAD SWAP2 SWAP1 POP JUMP JUMPDEST PUSH1 0x0 PUSH1 0x20 DUP1 DUP4 MSTORE DUP4 MLOAD DUP1 DUP3 DUP6 ADD MSTORE PUSH1 0x0 JUMPDEST DUP2 DUP2 LT ISZERO PUSH2 0xEFC JUMPI DUP6 DUP2 ADD DUP4 ADD MLOAD DUP6 DUP3 ADD PUSH1 0x40 ADD MSTORE DUP3 ADD PUSH2 0xEE0 JUMP JUMPDEST DUP2 DUP2 GT ISZERO PUSH2 0xF0E JUMPI PUSH1 0x0 PUSH1 0x40 DUP4 DUP8 ADD ADD MSTORE JUMPDEST POP PUSH1 0x1F ADD PUSH1 0x1F NOT AND SWAP3 SWAP1 SWAP3 ADD PUSH1 0x40 ADD SWAP4 SWAP3 POP POP POP JUMP JUMPDEST PUSH1 0x0 DUP3 NOT DUP3 GT ISZERO PUSH2 0xF37 JUMPI PUSH2 0xF37 PUSH2 0xF8E JUMP JUMPDEST POP ADD SWAP1 JUMP JUMPDEST PUSH1 0x0 DUP3 DUP3 LT ISZERO PUSH2 0xF4E JUMPI PUSH2 0xF4E PUSH2 0xF8E JUMP JUMPDEST POP SUB SWAP1 JUMP JUMPDEST PUSH1 0x1 DUP2 DUP2 SHR SWAP1 DUP3 AND DUP1 PUSH2 0xF67 JUMPI PUSH1 0x7F DUP3 AND SWAP2 POP JUMPDEST PUSH1 0x20 DUP3 LT DUP2 EQ ISZERO PUSH2 0xF88 JUMPI PUSH4 0x4E487B71 PUSH1 0xE0 SHL PUSH1 0x0 MSTORE PUSH1 0x22 PUSH1 0x4 MSTORE PUSH1 0x24 PUSH1 0x0 REVERT JUMPDEST POP SWAP2 SWAP1 POP JUMP JUMPDEST PUSH4 0x4E487B71 PUSH1 0xE0 SHL PUSH1 0x0 MSTORE PUSH1 0x11 PUSH1 0x4 MSTORE PUSH1 0x24 PUSH1 0x0 REVERT JUMPDEST PUSH1 0x1 PUSH1 0x1 PUSH1 0xA0 SHL SUB DUP2 AND DUP2 EQ PUSH2 0x455 JUMPI PUSH1 0x0 DUP1 REVERT INVALID LOG2 PUSH5 0x6970667358 0x22 SLT KECCAK256 0x4F 0x4B ISZERO 0x2D 0xE 0xB3 LOG2 0xAA 0xB4 0xE4 0x2D PUSH30 0x12B14DFCA59F90C04D3BE5C3DF18E8AA0073589964736F6C634300080700 CALLER "
				},
				"gasEstimates": {
					"creation": {
						"codeDepositCost": "815800",
						"executionCost": "infinite",
						"totalCost": "infinite"
					},
					"external": {
						"DAI()": "2447",
						"NFT()": "infinite",
						"_paused()": "2378",
						"allowance(address,address)": "infinite",
						"approve(address,uint256)": "24642",
						"balanceOf(address)": "2579",
						"decimals()": "266",
						"decreaseAllowance(address,uint256)": "26989",
						"increaseAllowance(address,uint256)": "27084",
						"invest(uint256)": "infinite",
						"name()": "infinite",
						"pause()": "26608",
						"symbol()": "infinite",
						"targetAmount()": "2406",
						"totalSupply()": "2371",
						"transfer(address,uint256)": "51242",
						"transferFrom(address,address,uint256)": "infinite",
						"unpause()": "26536",
						"withdrawInvestment(uint256)": "infinite"
					}
				},
				"methodIdentifiers": {
					"DAI()": "e0bab4c4",
					"NFT()": "7c0b8de2",
					"_paused()": "16c61ccc",
					"allowance(address,address)": "dd62ed3e",
					"approve(address,uint256)": "095ea7b3",
					"balanceOf(address)": "70a08231",
					"decimals()": "313ce567",
					"decreaseAllowance(address,uint256)": "a457c2d7",
					"increaseAllowance(address,uint256)": "39509351",
					"invest(uint256)": "2afcf480",
					"name()": "06fdde03",
					"pause()": "8456cb59",
					"symbol()": "95d89b41",
					"targetAmount()": "953b8fb8",
					"totalSupply()": "18160ddd",
					"transfer(address,uint256)": "a9059cbb",
					"transferFrom(address,address,uint256)": "23b872dd",
					"unpause()": "3f4ba83a",
					"withdrawInvestment(uint256)": "2037fcbf"
				}
			},
			"storageLayout": {
				"storage": [
					{
						"astId": 15,
						"contract": "Re-fungible_Tokens/contracts/AssetFundRaising.sol:AssetFundRaising",
						"label": "_balances",
						"offset": 0,
						"slot": "0",
						"type": "t_mapping(t_address,t_uint256)"
					},
					{
						"astId": 21,
						"contract": "Re-fungible_Tokens/contracts/AssetFundRaising.sol:AssetFundRaising",
						"label": "_allowances",
						"offset": 0,
						"slot": "1",
						"type": "t_mapping(t_address,t_mapping(t_address,t_uint256))"
					},
					{
						"astId": 23,
						"contract": "Re-fungible_Tokens/contracts/AssetFundRaising.sol:AssetFundRaising",
						"label": "_totalSupply",
						"offset": 0,
						"slot": "2",
						"type": "t_uint256"
					},
					{
						"astId": 25,
						"contract": "Re-fungible_Tokens/contracts/AssetFundRaising.sol:AssetFundRaising",
						"label": "_name",
						"offset": 0,
						"slot": "3",
						"type": "t_string_storage"
					},
					{
						"astId": 27,
						"contract": "Re-fungible_Tokens/contracts/AssetFundRaising.sol:AssetFundRaising",
						"label": "_symbol",
						"offset": 0,
						"slot": "4",
						"type": "t_string_storage"
					},
					{
						"astId": 848,
						"contract": "Re-fungible_Tokens/contracts/AssetFundRaising.sol:AssetFundRaising",
						"label": "DAI",
						"offset": 0,
						"slot": "5",
						"type": "t_contract(IERC20)663"
					},
					{
						"astId": 853,
						"contract": "Re-fungible_Tokens/contracts/AssetFundRaising.sol:AssetFundRaising",
						"label": "targetAmount",
						"offset": 0,
						"slot": "6",
						"type": "t_uint256"
					},
					{
						"astId": 855,
						"contract": "Re-fungible_Tokens/contracts/AssetFundRaising.sol:AssetFundRaising",
						"label": "_paused",
						"offset": 0,
						"slot": "7",
						"type": "t_bool"
					},
					{
						"astId": 857,
						"contract": "Re-fungible_Tokens/contracts/AssetFundRaising.sol:AssetFundRaising",
						"label": "admin",
						"offset": 1,
						"slot": "7",
						"type": "t_address"
					}
				],
				"types": {
					"t_address": {
						"encoding": "inplace",
						"label": "address",
						"numberOfBytes": "20"
					},
					"t_bool": {
						"encoding": "inplace",
						"label": "bool",
						"numberOfBytes": "1"
					},
					"t_contract(IERC20)663": {
						"encoding": "inplace",
						"label": "contract IERC20",
						"numberOfBytes": "20"
					},
					"t_mapping(t_address,t_mapping(t_address,t_uint256))": {
						"encoding": "mapping",
						"key": "t_address",
						"label": "mapping(address => mapping(address => uint256))",
						"numberOfBytes": "32",
						"value": "t_mapping(t_address,t_uint256)"
					},
					"t_mapping(t_address,t_uint256)": {
						"encoding": "mapping",
						"key": "t_address",
						"label": "mapping(address => uint256)",
						"numberOfBytes": "32",
						"value": "t_uint256"
					},
					"t_string_storage": {
						"encoding": "bytes",
						"label": "string",
						"numberOfBytes": "32"
					},
					"t_uint256": {
						"encoding": "inplace",
						"label": "uint256",
						"numberOfBytes": "32"
					}
				}
			},
			"userdoc": {
				"kind": "user",
				"methods": {},
				"version": 1
			}
		}
	}
}