{
	"NFTFractionalization/contracts/src/fundraise.sol": {
		"fundraise": {
			"abi": [
				{
					"inputs": [],
					"stateMutability": "nonpayable",
					"type": "constructor"
				},
				{
					"stateMutability": "payable",
					"type": "fallback"
				},
				{
					"inputs": [
						{
							"internalType": "address",
							"name": "",
							"type": "address"
						}
					],
					"name": "addressToAmountFunded",
					"outputs": [
						{
							"internalType": "uint256",
							"name": "",
							"type": "uint256"
						}
					],
					"stateMutability": "view",
					"type": "function"
				},
				{
					"inputs": [],
					"name": "balance",
					"outputs": [
						{
							"internalType": "uint256",
							"name": "",
							"type": "uint256"
						}
					],
					"stateMutability": "view",
					"type": "function"
				},
				{
					"inputs": [],
					"name": "fund",
					"outputs": [],
					"stateMutability": "payable",
					"type": "function"
				},
				{
					"inputs": [
						{
							"internalType": "uint256",
							"name": "",
							"type": "uint256"
						}
					],
					"name": "funders",
					"outputs": [
						{
							"internalType": "address",
							"name": "",
							"type": "address"
						}
					],
					"stateMutability": "view",
					"type": "function"
				},
				{
					"inputs": [
						{
							"internalType": "uint256",
							"name": "ethAmount",
							"type": "uint256"
						}
					],
					"name": "getConversionRate",
					"outputs": [
						{
							"internalType": "uint256",
							"name": "",
							"type": "uint256"
						}
					],
					"stateMutability": "view",
					"type": "function"
				},
				{
					"inputs": [],
					"name": "getPrice",
					"outputs": [
						{
							"internalType": "uint256",
							"name": "",
							"type": "uint256"
						}
					],
					"stateMutability": "view",
					"type": "function"
				},
				{
					"inputs": [],
					"name": "owner",
					"outputs": [
						{
							"internalType": "address",
							"name": "",
							"type": "address"
						}
					],
					"stateMutability": "view",
					"type": "function"
				},
				{
					"inputs": [],
					"name": "withdraw",
					"outputs": [],
					"stateMutability": "payable",
					"type": "function"
				},
				{
					"stateMutability": "payable",
					"type": "receive"
				}
			],
			"devdoc": {
				"kind": "dev",
				"methods": {},
				"version": 1
			},
			"evm": {
				"assembly": "    /* \"NFTFractionalization/contracts/src/fundraise.sol\":344:2752  contract fundraise {... */\n  mstore(0x40, 0x80)\n    /* \"NFTFractionalization/contracts/src/fundraise.sol\":585:719  constructor() {... */\n  callvalue\n  dup1\n  iszero\n  tag_1\n  jumpi\n  0x00\n  dup1\n  revert\ntag_1:\n  pop\n    /* \"NFTFractionalization/contracts/src/fundraise.sol\":617:627  msg.sender */\n  caller\n    /* \"NFTFractionalization/contracts/src/fundraise.sol\":609:614  owner */\n  0x02\n  0x00\n    /* \"NFTFractionalization/contracts/src/fundraise.sol\":609:627  owner = msg.sender */\n  0x0100\n  exp\n  dup2\n  sload\n  dup2\n  0xffffffffffffffffffffffffffffffffffffffff\n  mul\n  not\n  and\n  swap1\n  dup4\n  0xffffffffffffffffffffffffffffffffffffffff\n  and\n  mul\n  or\n  swap1\n  sstore\n  pop\n    /* \"NFTFractionalization/contracts/src/fundraise.sol\":669:711  0x9326BFA02ADD2366b30bacB125260Af641031331 */\n  0x9326bfa02add2366b30bacb125260af641031331\n    /* \"NFTFractionalization/contracts/src/fundraise.sol\":637:644  ethFeed */\n  0x03\n  0x00\n    /* \"NFTFractionalization/contracts/src/fundraise.sol\":637:712  ethFeed = AggregatorV3Interface(0x9326BFA02ADD2366b30bacB125260Af641031331) */\n  0x0100\n  exp\n  dup2\n  sload\n  dup2\n  0xffffffffffffffffffffffffffffffffffffffff\n  mul\n  not\n  and\n  swap1\n  dup4\n  0xffffffffffffffffffffffffffffffffffffffff\n  and\n  mul\n  or\n  swap1\n  sstore\n  pop\n    /* \"NFTFractionalization/contracts/src/fundraise.sol\":344:2752  contract fundraise {... */\n  dataSize(sub_0)\n  dup1\n  dataOffset(sub_0)\n  0x00\n  codecopy\n  0x00\n  return\nstop\n\nsub_0: assembly {\n        /* \"NFTFractionalization/contracts/src/fundraise.sol\":344:2752  contract fundraise {... */\n      mstore(0x40, 0x80)\n      jumpi(tag_1, lt(calldatasize, 0x04))\n      shr(0xe0, calldataload(0x00))\n      dup1\n      0x98d5fdca\n      gt\n      tag_11\n      jumpi\n      dup1\n      0x98d5fdca\n      eq\n      tag_7\n      jumpi\n      dup1\n      0xb60d4288\n      eq\n      tag_8\n      jumpi\n      dup1\n      0xb69ef8a8\n      eq\n      tag_9\n      jumpi\n      dup1\n      0xdc0d3dff\n      eq\n      tag_10\n      jumpi\n      jump(tag_2)\n    tag_11:\n      dup1\n      0x3ccfd60b\n      eq\n      tag_3\n      jumpi\n      dup1\n      0x3e47d6f3\n      eq\n      tag_4\n      jumpi\n      dup1\n      0x6e5b6b28\n      eq\n      tag_5\n      jumpi\n      dup1\n      0x8da5cb5b\n      eq\n      tag_6\n      jumpi\n      jump(tag_2)\n    tag_1:\n      jumpi(tag_2, calldatasize)\n      stop\n    tag_2:\n      stop\n        /* \"NFTFractionalization/contracts/src/fundraise.sol\":2230:2539  function withdraw() payable onlyOwner public {... */\n    tag_3:\n      tag_16\n      tag_17\n      jump\t// in\n    tag_16:\n      stop\n        /* \"NFTFractionalization/contracts/src/fundraise.sol\":418:474  mapping(address => uint256) public addressToAmountFunded */\n    tag_4:\n      callvalue\n      dup1\n      iszero\n      tag_18\n      jumpi\n      0x00\n      dup1\n      revert\n    tag_18:\n      pop\n      tag_19\n      0x04\n      dup1\n      calldatasize\n      sub\n      dup2\n      add\n      swap1\n      tag_20\n      swap2\n      swap1\n      tag_21\n      jump\t// in\n    tag_20:\n      tag_22\n      jump\t// in\n    tag_19:\n      mload(0x40)\n      tag_23\n      swap2\n      swap1\n      tag_24\n      jump\t// in\n    tag_23:\n      mload(0x40)\n      dup1\n      swap2\n      sub\n      swap1\n      return\n        /* \"NFTFractionalization/contracts/src/fundraise.sol\":1003:1235  function getConversionRate(uint256 ethAmount) public view returns (uint256) {... */\n    tag_5:\n      callvalue\n      dup1\n      iszero\n      tag_25\n      jumpi\n      0x00\n      dup1\n      revert\n    tag_25:\n      pop\n      tag_26\n      0x04\n      dup1\n      calldatasize\n      sub\n      dup2\n      add\n      swap1\n      tag_27\n      swap2\n      swap1\n      tag_28\n      jump\t// in\n    tag_27:\n      tag_29\n      jump\t// in\n    tag_26:\n      mload(0x40)\n      tag_30\n      swap2\n      swap1\n      tag_24\n      jump\t// in\n    tag_30:\n      mload(0x40)\n      dup1\n      swap2\n      sub\n      swap1\n      return\n        /* \"NFTFractionalization/contracts/src/fundraise.sol\":510:530  address public owner */\n    tag_6:\n      callvalue\n      dup1\n      iszero\n      tag_31\n      jumpi\n      0x00\n      dup1\n      revert\n    tag_31:\n      pop\n      tag_32\n      tag_33\n      jump\t// in\n    tag_32:\n      mload(0x40)\n      tag_34\n      swap2\n      swap1\n      tag_35\n      jump\t// in\n    tag_34:\n      mload(0x40)\n      dup1\n      swap2\n      sub\n      swap1\n      return\n        /* \"NFTFractionalization/contracts/src/fundraise.sol\":1846:2137  function getPrice() public view returns (uint256) {... */\n    tag_7:\n      callvalue\n      dup1\n      iszero\n      tag_36\n      jumpi\n      0x00\n      dup1\n      revert\n    tag_36:\n      pop\n      tag_37\n      tag_38\n      jump\t// in\n    tag_37:\n      mload(0x40)\n      tag_39\n      swap2\n      swap1\n      tag_24\n      jump\t// in\n    tag_39:\n      mload(0x40)\n      dup1\n      swap2\n      sub\n      swap1\n      return\n        /* \"NFTFractionalization/contracts/src/fundraise.sol\":729:993  function fund() public payable {... */\n    tag_8:\n      tag_40\n      tag_41\n      jump\t// in\n    tag_40:\n      stop\n        /* \"NFTFractionalization/contracts/src/fundraise.sol\":2548:2638  function balance() public view returns (uint){... */\n    tag_9:\n      callvalue\n      dup1\n      iszero\n      tag_42\n      jumpi\n      0x00\n      dup1\n      revert\n    tag_42:\n      pop\n      tag_43\n      tag_44\n      jump\t// in\n    tag_43:\n      mload(0x40)\n      tag_45\n      swap2\n      swap1\n      tag_24\n      jump\t// in\n    tag_45:\n      mload(0x40)\n      dup1\n      swap2\n      sub\n      swap1\n      return\n        /* \"NFTFractionalization/contracts/src/fundraise.sol\":480:504  address[] public funders */\n    tag_10:\n      callvalue\n      dup1\n      iszero\n      tag_46\n      jumpi\n      0x00\n      dup1\n      revert\n    tag_46:\n      pop\n      tag_47\n      0x04\n      dup1\n      calldatasize\n      sub\n      dup2\n      add\n      swap1\n      tag_48\n      swap2\n      swap1\n      tag_28\n      jump\t// in\n    tag_48:\n      tag_49\n      jump\t// in\n    tag_47:\n      mload(0x40)\n      tag_50\n      swap2\n      swap1\n      tag_35\n      jump\t// in\n    tag_50:\n      mload(0x40)\n      dup1\n      swap2\n      sub\n      swap1\n      return\n        /* \"NFTFractionalization/contracts/src/fundraise.sol\":2230:2539  function withdraw() payable onlyOwner public {... */\n    tag_17:\n        /* \"NFTFractionalization/contracts/src/fundraise.sol\":2196:2201  owner */\n      0x02\n      0x00\n      swap1\n      sload\n      swap1\n      0x0100\n      exp\n      swap1\n      div\n      0xffffffffffffffffffffffffffffffffffffffff\n      and\n        /* \"NFTFractionalization/contracts/src/fundraise.sol\":2182:2201  msg.sender == owner */\n      0xffffffffffffffffffffffffffffffffffffffff\n      and\n        /* \"NFTFractionalization/contracts/src/fundraise.sol\":2182:2192  msg.sender */\n      caller\n        /* \"NFTFractionalization/contracts/src/fundraise.sol\":2182:2201  msg.sender == owner */\n      0xffffffffffffffffffffffffffffffffffffffff\n      and\n      eq\n        /* \"NFTFractionalization/contracts/src/fundraise.sol\":2174:2202  require(msg.sender == owner) */\n      tag_52\n      jumpi\n      0x00\n      dup1\n      revert\n    tag_52:\n        /* \"NFTFractionalization/contracts/src/fundraise.sol\":2293:2303  msg.sender */\n      caller\n        /* \"NFTFractionalization/contracts/src/fundraise.sol\":2285:2313  payable(msg.sender).transfer */\n      0xffffffffffffffffffffffffffffffffffffffff\n      and\n        /* \"NFTFractionalization/contracts/src/fundraise.sol\":2285:2336  payable(msg.sender).transfer(address(this).balance) */\n      0x08fc\n        /* \"NFTFractionalization/contracts/src/fundraise.sol\":2314:2335  address(this).balance */\n      selfbalance\n        /* \"NFTFractionalization/contracts/src/fundraise.sol\":2285:2336  payable(msg.sender).transfer(address(this).balance) */\n      swap1\n      dup2\n      iszero\n      mul\n      swap1\n      mload(0x40)\n      0x00\n      mload(0x40)\n      dup1\n      dup4\n      sub\n      dup2\n      dup6\n      dup9\n      dup9\n      call\n      swap4\n      pop\n      pop\n      pop\n      pop\n      iszero\n      dup1\n      iszero\n      tag_55\n      jumpi\n      returndatasize\n      0x00\n      dup1\n      returndatacopy\n      revert(0x00, returndatasize)\n    tag_55:\n      pop\n        /* \"NFTFractionalization/contracts/src/fundraise.sol\":2360:2369  uint256 i */\n      0x00\n        /* \"NFTFractionalization/contracts/src/fundraise.sol\":2355:2497  for (uint256 i=0; i < funders.length; i++) {... */\n    tag_56:\n        /* \"NFTFractionalization/contracts/src/fundraise.sol\":2377:2384  funders */\n      0x01\n        /* \"NFTFractionalization/contracts/src/fundraise.sol\":2377:2391  funders.length */\n      dup1\n      sload\n      swap1\n      pop\n        /* \"NFTFractionalization/contracts/src/fundraise.sol\":2373:2374  i */\n      dup2\n        /* \"NFTFractionalization/contracts/src/fundraise.sol\":2373:2391  i < funders.length */\n      lt\n        /* \"NFTFractionalization/contracts/src/fundraise.sol\":2355:2497  for (uint256 i=0; i < funders.length; i++) {... */\n      iszero\n      tag_57\n      jumpi\n        /* \"NFTFractionalization/contracts/src/fundraise.sol\":2412:2426  address funder */\n      0x00\n        /* \"NFTFractionalization/contracts/src/fundraise.sol\":2429:2436  funders */\n      0x01\n        /* \"NFTFractionalization/contracts/src/fundraise.sol\":2437:2438  i */\n      dup3\n        /* \"NFTFractionalization/contracts/src/fundraise.sol\":2429:2439  funders[i] */\n      dup2\n      sload\n      dup2\n      lt\n      tag_59\n      jumpi\n      tag_60\n      tag_61\n      jump\t// in\n    tag_60:\n    tag_59:\n      swap1\n      0x00\n      mstore\n      keccak256(0x00, 0x20)\n      add\n      0x00\n      swap1\n      sload\n      swap1\n      0x0100\n      exp\n      swap1\n      div\n      0xffffffffffffffffffffffffffffffffffffffff\n      and\n        /* \"NFTFractionalization/contracts/src/fundraise.sol\":2412:2439  address funder = funders[i] */\n      swap1\n      pop\n        /* \"NFTFractionalization/contracts/src/fundraise.sol\":2485:2486  0 */\n      0x00\n        /* \"NFTFractionalization/contracts/src/fundraise.sol\":2453:2474  addressToAmountFunded */\n      dup1\n        /* \"NFTFractionalization/contracts/src/fundraise.sol\":2453:2482  addressToAmountFunded[funder] */\n      0x00\n        /* \"NFTFractionalization/contracts/src/fundraise.sol\":2475:2481  funder */\n      dup4\n        /* \"NFTFractionalization/contracts/src/fundraise.sol\":2453:2482  addressToAmountFunded[funder] */\n      0xffffffffffffffffffffffffffffffffffffffff\n      and\n      0xffffffffffffffffffffffffffffffffffffffff\n      and\n      dup2\n      mstore\n      0x20\n      add\n      swap1\n      dup2\n      mstore\n      0x20\n      add\n      0x00\n      keccak256\n        /* \"NFTFractionalization/contracts/src/fundraise.sol\":2453:2486  addressToAmountFunded[funder] = 0 */\n      dup2\n      swap1\n      sstore\n      pop\n        /* \"NFTFractionalization/contracts/src/fundraise.sol\":2398:2497  {... */\n      pop\n        /* \"NFTFractionalization/contracts/src/fundraise.sol\":2393:2396  i++ */\n      dup1\n      dup1\n      tag_63\n      swap1\n      tag_64\n      jump\t// in\n    tag_63:\n      swap2\n      pop\n      pop\n        /* \"NFTFractionalization/contracts/src/fundraise.sol\":2355:2497  for (uint256 i=0; i < funders.length; i++) {... */\n      jump(tag_56)\n    tag_57:\n      pop\n        /* \"NFTFractionalization/contracts/src/fundraise.sol\":2530:2531  0 */\n      0x00\n        /* \"NFTFractionalization/contracts/src/fundraise.sol\":2516:2532  new address[](0) */\n      0xffffffffffffffff\n      dup2\n      gt\n      iszero\n      tag_65\n      jumpi\n      tag_66\n      tag_67\n      jump\t// in\n    tag_66:\n    tag_65:\n      mload(0x40)\n      swap1\n      dup1\n      dup3\n      mstore\n      dup1\n      0x20\n      mul\n      0x20\n      add\n      dup3\n      add\n      0x40\n      mstore\n      dup1\n      iszero\n      tag_68\n      jumpi\n      dup2\n      0x20\n      add\n      0x20\n      dup3\n      mul\n      dup1\n      calldatasize\n      dup4\n      calldatacopy\n      dup1\n      dup3\n      add\n      swap2\n      pop\n      pop\n      swap1\n      pop\n    tag_68:\n      pop\n        /* \"NFTFractionalization/contracts/src/fundraise.sol\":2506:2513  funders */\n      0x01\n        /* \"NFTFractionalization/contracts/src/fundraise.sol\":2506:2532  funders = new address[](0) */\n      swap1\n      dup1\n      mload\n      swap1\n      0x20\n      add\n      swap1\n      tag_69\n      swap3\n      swap2\n      swap1\n      tag_70\n      jump\t// in\n    tag_69:\n      pop\n        /* \"NFTFractionalization/contracts/src/fundraise.sol\":2230:2539  function withdraw() payable onlyOwner public {... */\n      jump\t// out\n        /* \"NFTFractionalization/contracts/src/fundraise.sol\":418:474  mapping(address => uint256) public addressToAmountFunded */\n    tag_22:\n      mstore(0x20, 0x00)\n      dup1\n      0x00\n      mstore\n      keccak256(0x00, 0x40)\n      0x00\n      swap2\n      pop\n      swap1\n      pop\n      sload\n      dup2\n      jump\t// out\n        /* \"NFTFractionalization/contracts/src/fundraise.sol\":1003:1235  function getConversionRate(uint256 ethAmount) public view returns (uint256) {... */\n    tag_29:\n        /* \"NFTFractionalization/contracts/src/fundraise.sol\":1070:1077  uint256 */\n      0x00\n        /* \"NFTFractionalization/contracts/src/fundraise.sol\":1089:1105  uint256 ethPrice */\n      dup1\n        /* \"NFTFractionalization/contracts/src/fundraise.sol\":1108:1118  getPrice() */\n      tag_72\n        /* \"NFTFractionalization/contracts/src/fundraise.sol\":1108:1116  getPrice */\n      tag_38\n        /* \"NFTFractionalization/contracts/src/fundraise.sol\":1108:1118  getPrice() */\n      jump\t// in\n    tag_72:\n        /* \"NFTFractionalization/contracts/src/fundraise.sol\":1089:1118  uint256 ethPrice = getPrice() */\n      swap1\n      pop\n        /* \"NFTFractionalization/contracts/src/fundraise.sol\":1128:1150  uint256 ethAmountInUsd */\n      0x00\n        /* \"NFTFractionalization/contracts/src/fundraise.sol\":1178:1197  1000000000000000000 */\n      0x0de0b6b3a7640000\n        /* \"NFTFractionalization/contracts/src/fundraise.sol\":1165:1174  ethAmount */\n      dup5\n        /* \"NFTFractionalization/contracts/src/fundraise.sol\":1154:1162  ethPrice */\n      dup4\n        /* \"NFTFractionalization/contracts/src/fundraise.sol\":1154:1174  ethPrice * ethAmount */\n      tag_73\n      swap2\n      swap1\n      tag_74\n      jump\t// in\n    tag_73:\n        /* \"NFTFractionalization/contracts/src/fundraise.sol\":1153:1197  (ethPrice * ethAmount) / 1000000000000000000 */\n      tag_75\n      swap2\n      swap1\n      tag_76\n      jump\t// in\n    tag_75:\n        /* \"NFTFractionalization/contracts/src/fundraise.sol\":1128:1197  uint256 ethAmountInUsd = (ethPrice * ethAmount) / 1000000000000000000 */\n      swap1\n      pop\n        /* \"NFTFractionalization/contracts/src/fundraise.sol\":1214:1228  ethAmountInUsd */\n      dup1\n        /* \"NFTFractionalization/contracts/src/fundraise.sol\":1207:1228  return ethAmountInUsd */\n      swap3\n      pop\n      pop\n      pop\n        /* \"NFTFractionalization/contracts/src/fundraise.sol\":1003:1235  function getConversionRate(uint256 ethAmount) public view returns (uint256) {... */\n      swap2\n      swap1\n      pop\n      jump\t// out\n        /* \"NFTFractionalization/contracts/src/fundraise.sol\":510:530  address public owner */\n    tag_33:\n      0x02\n      0x00\n      swap1\n      sload\n      swap1\n      0x0100\n      exp\n      swap1\n      div\n      0xffffffffffffffffffffffffffffffffffffffff\n      and\n      dup2\n      jump\t// out\n        /* \"NFTFractionalization/contracts/src/fundraise.sol\":1846:2137  function getPrice() public view returns (uint256) {... */\n    tag_38:\n        /* \"NFTFractionalization/contracts/src/fundraise.sol\":1887:1894  uint256 */\n      0x00\n        /* \"NFTFractionalization/contracts/src/fundraise.sol\":1920:1934  uint80 roundID */\n      dup1\n        /* \"NFTFractionalization/contracts/src/fundraise.sol\":1948:1960  int256 price */\n      0x00\n        /* \"NFTFractionalization/contracts/src/fundraise.sol\":1974:1988  uint startedAt */\n      dup1\n        /* \"NFTFractionalization/contracts/src/fundraise.sol\":2002:2016  uint timeStamp */\n      0x00\n        /* \"NFTFractionalization/contracts/src/fundraise.sol\":2030:2052  uint80 answeredInRound */\n      dup1\n        /* \"NFTFractionalization/contracts/src/fundraise.sol\":2065:2072  ethFeed */\n      0x03\n      0x00\n      swap1\n      sload\n      swap1\n      0x0100\n      exp\n      swap1\n      div\n      0xffffffffffffffffffffffffffffffffffffffff\n      and\n        /* \"NFTFractionalization/contracts/src/fundraise.sol\":2065:2088  ethFeed.latestRoundData */\n      0xffffffffffffffffffffffffffffffffffffffff\n      and\n      0xfeaf968c\n        /* \"NFTFractionalization/contracts/src/fundraise.sol\":2065:2090  ethFeed.latestRoundData() */\n      mload(0x40)\n      dup2\n      0xffffffff\n      and\n      0xe0\n      shl\n      dup2\n      mstore\n      0x04\n      add\n      0xa0\n      mload(0x40)\n      dup1\n      dup4\n      sub\n      dup2\n      dup7\n      dup1\n      extcodesize\n      iszero\n      dup1\n      iszero\n      tag_78\n      jumpi\n      0x00\n      dup1\n      revert\n    tag_78:\n      pop\n      gas\n      staticcall\n      iszero\n      dup1\n      iszero\n      tag_80\n      jumpi\n      returndatasize\n      0x00\n      dup1\n      returndatacopy\n      revert(0x00, returndatasize)\n    tag_80:\n      pop\n      pop\n      pop\n      pop\n      mload(0x40)\n      returndatasize\n      not(0x1f)\n      0x1f\n      dup3\n      add\n      and\n      dup3\n      add\n      dup1\n      0x40\n      mstore\n      pop\n      dup2\n      add\n      swap1\n      tag_81\n      swap2\n      swap1\n      tag_82\n      jump\t// in\n    tag_81:\n        /* \"NFTFractionalization/contracts/src/fundraise.sol\":1906:2090  (... */\n      swap5\n      pop\n      swap5\n      pop\n      swap5\n      pop\n      swap5\n      pop\n      swap5\n      pop\n        /* \"NFTFractionalization/contracts/src/fundraise.sol\":2115:2120  price */\n      dup4\n        /* \"NFTFractionalization/contracts/src/fundraise.sol\":2100:2121  return uint256(price) */\n      swap6\n      pop\n      pop\n      pop\n      pop\n      pop\n      pop\n        /* \"NFTFractionalization/contracts/src/fundraise.sol\":1846:2137  function getPrice() public view returns (uint256) {... */\n      swap1\n      jump\t// out\n        /* \"NFTFractionalization/contracts/src/fundraise.sol\":729:993  function fund() public payable {... */\n    tag_41:\n        /* \"NFTFractionalization/contracts/src/fundraise.sol\":770:788  uint256 minimumUSD */\n      0x00\n        /* \"NFTFractionalization/contracts/src/fundraise.sol\":791:804  50 * 10 ** 18 */\n      0x02b5e3af16b1880000\n        /* \"NFTFractionalization/contracts/src/fundraise.sol\":770:804  uint256 minimumUSD = 50 * 10 ** 18 */\n      swap1\n      pop\n        /* \"NFTFractionalization/contracts/src/fundraise.sol\":854:864  minimumUSD */\n      dup1\n        /* \"NFTFractionalization/contracts/src/fundraise.sol\":822:850  getConversionRate(msg.value) */\n      tag_84\n        /* \"NFTFractionalization/contracts/src/fundraise.sol\":840:849  msg.value */\n      callvalue\n        /* \"NFTFractionalization/contracts/src/fundraise.sol\":822:839  getConversionRate */\n      tag_29\n        /* \"NFTFractionalization/contracts/src/fundraise.sol\":822:850  getConversionRate(msg.value) */\n      jump\t// in\n    tag_84:\n        /* \"NFTFractionalization/contracts/src/fundraise.sol\":822:864  getConversionRate(msg.value) >= minimumUSD */\n      lt\n      iszero\n        /* \"NFTFractionalization/contracts/src/fundraise.sol\":814:896  require(getConversionRate(msg.value) >= minimumUSD, \"You need to spend more ETH!\") */\n      tag_85\n      jumpi\n      mload(0x40)\n      0x08c379a000000000000000000000000000000000000000000000000000000000\n      dup2\n      mstore\n      0x04\n      add\n      tag_86\n      swap1\n      tag_87\n      jump\t// in\n    tag_86:\n      mload(0x40)\n      dup1\n      swap2\n      sub\n      swap1\n      revert\n    tag_85:\n        /* \"NFTFractionalization/contracts/src/fundraise.sol\":943:952  msg.value */\n      callvalue\n        /* \"NFTFractionalization/contracts/src/fundraise.sol\":906:927  addressToAmountFunded */\n      0x00\n        /* \"NFTFractionalization/contracts/src/fundraise.sol\":906:939  addressToAmountFunded[msg.sender] */\n      dup1\n        /* \"NFTFractionalization/contracts/src/fundraise.sol\":928:938  msg.sender */\n      caller\n        /* \"NFTFractionalization/contracts/src/fundraise.sol\":906:939  addressToAmountFunded[msg.sender] */\n      0xffffffffffffffffffffffffffffffffffffffff\n      and\n      0xffffffffffffffffffffffffffffffffffffffff\n      and\n      dup2\n      mstore\n      0x20\n      add\n      swap1\n      dup2\n      mstore\n      0x20\n      add\n      0x00\n      keccak256\n      0x00\n        /* \"NFTFractionalization/contracts/src/fundraise.sol\":906:952  addressToAmountFunded[msg.sender] += msg.value */\n      dup3\n      dup3\n      sload\n      tag_88\n      swap2\n      swap1\n      tag_89\n      jump\t// in\n    tag_88:\n      swap3\n      pop\n      pop\n      dup2\n      swap1\n      sstore\n      pop\n        /* \"NFTFractionalization/contracts/src/fundraise.sol\":962:969  funders */\n      0x01\n        /* \"NFTFractionalization/contracts/src/fundraise.sol\":975:985  msg.sender */\n      caller\n        /* \"NFTFractionalization/contracts/src/fundraise.sol\":962:986  funders.push(msg.sender) */\n      swap1\n      dup1\n      0x01\n      dup2\n      sload\n      add\n      dup1\n      dup3\n      sstore\n      dup1\n      swap2\n      pop\n      pop\n      0x01\n      swap1\n      sub\n      swap1\n      0x00\n      mstore\n      keccak256(0x00, 0x20)\n      add\n      0x00\n      swap1\n      swap2\n      swap1\n      swap2\n      swap1\n      swap2\n      0x0100\n      exp\n      dup2\n      sload\n      dup2\n      0xffffffffffffffffffffffffffffffffffffffff\n      mul\n      not\n      and\n      swap1\n      dup4\n      0xffffffffffffffffffffffffffffffffffffffff\n      and\n      mul\n      or\n      swap1\n      sstore\n      pop\n        /* \"NFTFractionalization/contracts/src/fundraise.sol\":760:993  {... */\n      pop\n        /* \"NFTFractionalization/contracts/src/fundraise.sol\":729:993  function fund() public payable {... */\n      jump\t// out\n        /* \"NFTFractionalization/contracts/src/fundraise.sol\":2548:2638  function balance() public view returns (uint){... */\n    tag_44:\n        /* \"NFTFractionalization/contracts/src/fundraise.sol\":2588:2592  uint */\n      0x00\n        /* \"NFTFractionalization/contracts/src/fundraise.sol\":2610:2631  address(this).balance */\n      selfbalance\n        /* \"NFTFractionalization/contracts/src/fundraise.sol\":2603:2631  return address(this).balance */\n      swap1\n      pop\n        /* \"NFTFractionalization/contracts/src/fundraise.sol\":2548:2638  function balance() public view returns (uint){... */\n      swap1\n      jump\t// out\n        /* \"NFTFractionalization/contracts/src/fundraise.sol\":480:504  address[] public funders */\n    tag_49:\n      0x01\n      dup2\n      dup2\n      sload\n      dup2\n      lt\n      tag_92\n      jumpi\n      0x00\n      dup1\n      revert\n    tag_92:\n      swap1\n      0x00\n      mstore\n      keccak256(0x00, 0x20)\n      add\n      0x00\n      swap2\n      pop\n      sload\n      swap1\n      0x0100\n      exp\n      swap1\n      div\n      0xffffffffffffffffffffffffffffffffffffffff\n      and\n      dup2\n      jump\t// out\n    tag_70:\n      dup3\n      dup1\n      sload\n      dup3\n      dup3\n      sstore\n      swap1\n      0x00\n      mstore\n      keccak256(0x00, 0x20)\n      swap1\n      dup2\n      add\n      swap3\n      dup3\n      iszero\n      tag_94\n      jumpi\n      swap2\n      0x20\n      mul\n      dup3\n      add\n    tag_95:\n      dup3\n      dup2\n      gt\n      iszero\n      tag_96\n      jumpi\n      dup3\n      mload\n      dup3\n      exp(0x0100, 0x00)\n      dup2\n      sload\n      dup2\n      0xffffffffffffffffffffffffffffffffffffffff\n      mul\n      not\n      and\n      swap1\n      dup4\n      0xffffffffffffffffffffffffffffffffffffffff\n      and\n      mul\n      or\n      swap1\n      sstore\n      pop\n      swap2\n      0x20\n      add\n      swap2\n      swap1\n      0x01\n      add\n      swap1\n      jump(tag_95)\n    tag_96:\n    tag_94:\n      pop\n      swap1\n      pop\n      tag_97\n      swap2\n      swap1\n      tag_98\n      jump\t// in\n    tag_97:\n      pop\n      swap1\n      jump\t// out\n    tag_98:\n    tag_99:\n      dup1\n      dup3\n      gt\n      iszero\n      tag_100\n      jumpi\n      0x00\n      dup2\n      0x00\n      swap1\n      sstore\n      pop\n      0x01\n      add\n      jump(tag_99)\n    tag_100:\n      pop\n      swap1\n      jump\t// out\n        /* \"#utility.yul\":7:146   */\n    tag_102:\n        /* \"#utility.yul\":53:58   */\n      0x00\n        /* \"#utility.yul\":91:97   */\n      dup2\n        /* \"#utility.yul\":78:98   */\n      calldataload\n        /* \"#utility.yul\":69:98   */\n      swap1\n      pop\n        /* \"#utility.yul\":107:140   */\n      tag_104\n        /* \"#utility.yul\":134:139   */\n      dup2\n        /* \"#utility.yul\":107:140   */\n      tag_105\n      jump\t// in\n    tag_104:\n        /* \"#utility.yul\":7:146   */\n      swap3\n      swap2\n      pop\n      pop\n      jump\t// out\n        /* \"#utility.yul\":152:293   */\n    tag_106:\n        /* \"#utility.yul\":208:213   */\n      0x00\n        /* \"#utility.yul\":239:245   */\n      dup2\n        /* \"#utility.yul\":233:246   */\n      mload\n        /* \"#utility.yul\":224:246   */\n      swap1\n      pop\n        /* \"#utility.yul\":255:287   */\n      tag_108\n        /* \"#utility.yul\":281:286   */\n      dup2\n        /* \"#utility.yul\":255:287   */\n      tag_109\n      jump\t// in\n    tag_108:\n        /* \"#utility.yul\":152:293   */\n      swap3\n      swap2\n      pop\n      pop\n      jump\t// out\n        /* \"#utility.yul\":299:438   */\n    tag_110:\n        /* \"#utility.yul\":345:350   */\n      0x00\n        /* \"#utility.yul\":383:389   */\n      dup2\n        /* \"#utility.yul\":370:390   */\n      calldataload\n        /* \"#utility.yul\":361:390   */\n      swap1\n      pop\n        /* \"#utility.yul\":399:432   */\n      tag_112\n        /* \"#utility.yul\":426:431   */\n      dup2\n        /* \"#utility.yul\":399:432   */\n      tag_113\n      jump\t// in\n    tag_112:\n        /* \"#utility.yul\":299:438   */\n      swap3\n      swap2\n      pop\n      pop\n      jump\t// out\n        /* \"#utility.yul\":444:587   */\n    tag_114:\n        /* \"#utility.yul\":501:506   */\n      0x00\n        /* \"#utility.yul\":532:538   */\n      dup2\n        /* \"#utility.yul\":526:539   */\n      mload\n        /* \"#utility.yul\":517:539   */\n      swap1\n      pop\n        /* \"#utility.yul\":548:581   */\n      tag_116\n        /* \"#utility.yul\":575:580   */\n      dup2\n        /* \"#utility.yul\":548:581   */\n      tag_113\n      jump\t// in\n    tag_116:\n        /* \"#utility.yul\":444:587   */\n      swap3\n      swap2\n      pop\n      pop\n      jump\t// out\n        /* \"#utility.yul\":593:734   */\n    tag_117:\n        /* \"#utility.yul\":649:654   */\n      0x00\n        /* \"#utility.yul\":680:686   */\n      dup2\n        /* \"#utility.yul\":674:687   */\n      mload\n        /* \"#utility.yul\":665:687   */\n      swap1\n      pop\n        /* \"#utility.yul\":696:728   */\n      tag_119\n        /* \"#utility.yul\":722:727   */\n      dup2\n        /* \"#utility.yul\":696:728   */\n      tag_120\n      jump\t// in\n    tag_119:\n        /* \"#utility.yul\":593:734   */\n      swap3\n      swap2\n      pop\n      pop\n      jump\t// out\n        /* \"#utility.yul\":740:1069   */\n    tag_21:\n        /* \"#utility.yul\":799:805   */\n      0x00\n        /* \"#utility.yul\":848:850   */\n      0x20\n        /* \"#utility.yul\":836:845   */\n      dup3\n        /* \"#utility.yul\":827:834   */\n      dup5\n        /* \"#utility.yul\":823:846   */\n      sub\n        /* \"#utility.yul\":819:851   */\n      slt\n        /* \"#utility.yul\":816:935   */\n      iszero\n      tag_122\n      jumpi\n        /* \"#utility.yul\":854:933   */\n      tag_123\n      tag_124\n      jump\t// in\n    tag_123:\n        /* \"#utility.yul\":816:935   */\n    tag_122:\n        /* \"#utility.yul\":974:975   */\n      0x00\n        /* \"#utility.yul\":999:1052   */\n      tag_125\n        /* \"#utility.yul\":1044:1051   */\n      dup5\n        /* \"#utility.yul\":1035:1041   */\n      dup3\n        /* \"#utility.yul\":1024:1033   */\n      dup6\n        /* \"#utility.yul\":1020:1042   */\n      add\n        /* \"#utility.yul\":999:1052   */\n      tag_102\n      jump\t// in\n    tag_125:\n        /* \"#utility.yul\":989:1052   */\n      swap2\n      pop\n        /* \"#utility.yul\":945:1062   */\n      pop\n        /* \"#utility.yul\":740:1069   */\n      swap3\n      swap2\n      pop\n      pop\n      jump\t// out\n        /* \"#utility.yul\":1075:1404   */\n    tag_28:\n        /* \"#utility.yul\":1134:1140   */\n      0x00\n        /* \"#utility.yul\":1183:1185   */\n      0x20\n        /* \"#utility.yul\":1171:1180   */\n      dup3\n        /* \"#utility.yul\":1162:1169   */\n      dup5\n        /* \"#utility.yul\":1158:1181   */\n      sub\n        /* \"#utility.yul\":1154:1186   */\n      slt\n        /* \"#utility.yul\":1151:1270   */\n      iszero\n      tag_127\n      jumpi\n        /* \"#utility.yul\":1189:1268   */\n      tag_128\n      tag_124\n      jump\t// in\n    tag_128:\n        /* \"#utility.yul\":1151:1270   */\n    tag_127:\n        /* \"#utility.yul\":1309:1310   */\n      0x00\n        /* \"#utility.yul\":1334:1387   */\n      tag_129\n        /* \"#utility.yul\":1379:1386   */\n      dup5\n        /* \"#utility.yul\":1370:1376   */\n      dup3\n        /* \"#utility.yul\":1359:1368   */\n      dup6\n        /* \"#utility.yul\":1355:1377   */\n      add\n        /* \"#utility.yul\":1334:1387   */\n      tag_110\n      jump\t// in\n    tag_129:\n        /* \"#utility.yul\":1324:1387   */\n      swap2\n      pop\n        /* \"#utility.yul\":1280:1397   */\n      pop\n        /* \"#utility.yul\":1075:1404   */\n      swap3\n      swap2\n      pop\n      pop\n      jump\t// out\n        /* \"#utility.yul\":1410:2381   */\n    tag_82:\n        /* \"#utility.yul\":1513:1519   */\n      0x00\n        /* \"#utility.yul\":1521:1527   */\n      dup1\n        /* \"#utility.yul\":1529:1535   */\n      0x00\n        /* \"#utility.yul\":1537:1543   */\n      dup1\n        /* \"#utility.yul\":1545:1551   */\n      0x00\n        /* \"#utility.yul\":1594:1597   */\n      0xa0\n        /* \"#utility.yul\":1582:1591   */\n      dup7\n        /* \"#utility.yul\":1573:1580   */\n      dup9\n        /* \"#utility.yul\":1569:1592   */\n      sub\n        /* \"#utility.yul\":1565:1598   */\n      slt\n        /* \"#utility.yul\":1562:1682   */\n      iszero\n      tag_131\n      jumpi\n        /* \"#utility.yul\":1601:1680   */\n      tag_132\n      tag_124\n      jump\t// in\n    tag_132:\n        /* \"#utility.yul\":1562:1682   */\n    tag_131:\n        /* \"#utility.yul\":1721:1722   */\n      0x00\n        /* \"#utility.yul\":1746:1809   */\n      tag_133\n        /* \"#utility.yul\":1801:1808   */\n      dup9\n        /* \"#utility.yul\":1792:1798   */\n      dup3\n        /* \"#utility.yul\":1781:1790   */\n      dup10\n        /* \"#utility.yul\":1777:1799   */\n      add\n        /* \"#utility.yul\":1746:1809   */\n      tag_117\n      jump\t// in\n    tag_133:\n        /* \"#utility.yul\":1736:1809   */\n      swap6\n      pop\n        /* \"#utility.yul\":1692:1819   */\n      pop\n        /* \"#utility.yul\":1858:1860   */\n      0x20\n        /* \"#utility.yul\":1884:1947   */\n      tag_134\n        /* \"#utility.yul\":1939:1946   */\n      dup9\n        /* \"#utility.yul\":1930:1936   */\n      dup3\n        /* \"#utility.yul\":1919:1928   */\n      dup10\n        /* \"#utility.yul\":1915:1937   */\n      add\n        /* \"#utility.yul\":1884:1947   */\n      tag_106\n      jump\t// in\n    tag_134:\n        /* \"#utility.yul\":1874:1947   */\n      swap5\n      pop\n        /* \"#utility.yul\":1829:1957   */\n      pop\n        /* \"#utility.yul\":1996:1998   */\n      0x40\n        /* \"#utility.yul\":2022:2086   */\n      tag_135\n        /* \"#utility.yul\":2078:2085   */\n      dup9\n        /* \"#utility.yul\":2069:2075   */\n      dup3\n        /* \"#utility.yul\":2058:2067   */\n      dup10\n        /* \"#utility.yul\":2054:2076   */\n      add\n        /* \"#utility.yul\":2022:2086   */\n      tag_114\n      jump\t// in\n    tag_135:\n        /* \"#utility.yul\":2012:2086   */\n      swap4\n      pop\n        /* \"#utility.yul\":1967:2096   */\n      pop\n        /* \"#utility.yul\":2135:2137   */\n      0x60\n        /* \"#utility.yul\":2161:2225   */\n      tag_136\n        /* \"#utility.yul\":2217:2224   */\n      dup9\n        /* \"#utility.yul\":2208:2214   */\n      dup3\n        /* \"#utility.yul\":2197:2206   */\n      dup10\n        /* \"#utility.yul\":2193:2215   */\n      add\n        /* \"#utility.yul\":2161:2225   */\n      tag_114\n      jump\t// in\n    tag_136:\n        /* \"#utility.yul\":2151:2225   */\n      swap3\n      pop\n        /* \"#utility.yul\":2106:2235   */\n      pop\n        /* \"#utility.yul\":2274:2277   */\n      0x80\n        /* \"#utility.yul\":2301:2364   */\n      tag_137\n        /* \"#utility.yul\":2356:2363   */\n      dup9\n        /* \"#utility.yul\":2347:2353   */\n      dup3\n        /* \"#utility.yul\":2336:2345   */\n      dup10\n        /* \"#utility.yul\":2332:2354   */\n      add\n        /* \"#utility.yul\":2301:2364   */\n      tag_117\n      jump\t// in\n    tag_137:\n        /* \"#utility.yul\":2291:2364   */\n      swap2\n      pop\n        /* \"#utility.yul\":2245:2374   */\n      pop\n        /* \"#utility.yul\":1410:2381   */\n      swap3\n      swap6\n      pop\n      swap3\n      swap6\n      swap1\n      swap4\n      pop\n      jump\t// out\n        /* \"#utility.yul\":2387:2505   */\n    tag_138:\n        /* \"#utility.yul\":2474:2498   */\n      tag_140\n        /* \"#utility.yul\":2492:2497   */\n      dup2\n        /* \"#utility.yul\":2474:2498   */\n      tag_141\n      jump\t// in\n    tag_140:\n        /* \"#utility.yul\":2469:2472   */\n      dup3\n        /* \"#utility.yul\":2462:2499   */\n      mstore\n        /* \"#utility.yul\":2387:2505   */\n      pop\n      pop\n      jump\t// out\n        /* \"#utility.yul\":2511:2877   */\n    tag_142:\n        /* \"#utility.yul\":2653:2656   */\n      0x00\n        /* \"#utility.yul\":2674:2741   */\n      tag_144\n        /* \"#utility.yul\":2738:2740   */\n      0x1b\n        /* \"#utility.yul\":2733:2736   */\n      dup4\n        /* \"#utility.yul\":2674:2741   */\n      tag_145\n      jump\t// in\n    tag_144:\n        /* \"#utility.yul\":2667:2741   */\n      swap2\n      pop\n        /* \"#utility.yul\":2750:2843   */\n      tag_146\n        /* \"#utility.yul\":2839:2842   */\n      dup3\n        /* \"#utility.yul\":2750:2843   */\n      tag_147\n      jump\t// in\n    tag_146:\n        /* \"#utility.yul\":2868:2870   */\n      0x20\n        /* \"#utility.yul\":2863:2866   */\n      dup3\n        /* \"#utility.yul\":2859:2871   */\n      add\n        /* \"#utility.yul\":2852:2871   */\n      swap1\n      pop\n        /* \"#utility.yul\":2511:2877   */\n      swap2\n      swap1\n      pop\n      jump\t// out\n        /* \"#utility.yul\":2883:3001   */\n    tag_148:\n        /* \"#utility.yul\":2970:2994   */\n      tag_150\n        /* \"#utility.yul\":2988:2993   */\n      dup2\n        /* \"#utility.yul\":2970:2994   */\n      tag_151\n      jump\t// in\n    tag_150:\n        /* \"#utility.yul\":2965:2968   */\n      dup3\n        /* \"#utility.yul\":2958:2995   */\n      mstore\n        /* \"#utility.yul\":2883:3001   */\n      pop\n      pop\n      jump\t// out\n        /* \"#utility.yul\":3007:3229   */\n    tag_35:\n        /* \"#utility.yul\":3100:3104   */\n      0x00\n        /* \"#utility.yul\":3138:3140   */\n      0x20\n        /* \"#utility.yul\":3127:3136   */\n      dup3\n        /* \"#utility.yul\":3123:3141   */\n      add\n        /* \"#utility.yul\":3115:3141   */\n      swap1\n      pop\n        /* \"#utility.yul\":3151:3222   */\n      tag_153\n        /* \"#utility.yul\":3219:3220   */\n      0x00\n        /* \"#utility.yul\":3208:3217   */\n      dup4\n        /* \"#utility.yul\":3204:3221   */\n      add\n        /* \"#utility.yul\":3195:3201   */\n      dup5\n        /* \"#utility.yul\":3151:3222   */\n      tag_138\n      jump\t// in\n    tag_153:\n        /* \"#utility.yul\":3007:3229   */\n      swap3\n      swap2\n      pop\n      pop\n      jump\t// out\n        /* \"#utility.yul\":3235:3654   */\n    tag_87:\n        /* \"#utility.yul\":3401:3405   */\n      0x00\n        /* \"#utility.yul\":3439:3441   */\n      0x20\n        /* \"#utility.yul\":3428:3437   */\n      dup3\n        /* \"#utility.yul\":3424:3442   */\n      add\n        /* \"#utility.yul\":3416:3442   */\n      swap1\n      pop\n        /* \"#utility.yul\":3488:3497   */\n      dup2\n        /* \"#utility.yul\":3482:3486   */\n      dup2\n        /* \"#utility.yul\":3478:3498   */\n      sub\n        /* \"#utility.yul\":3474:3475   */\n      0x00\n        /* \"#utility.yul\":3463:3472   */\n      dup4\n        /* \"#utility.yul\":3459:3476   */\n      add\n        /* \"#utility.yul\":3452:3499   */\n      mstore\n        /* \"#utility.yul\":3516:3647   */\n      tag_155\n        /* \"#utility.yul\":3642:3646   */\n      dup2\n        /* \"#utility.yul\":3516:3647   */\n      tag_142\n      jump\t// in\n    tag_155:\n        /* \"#utility.yul\":3508:3647   */\n      swap1\n      pop\n        /* \"#utility.yul\":3235:3654   */\n      swap2\n      swap1\n      pop\n      jump\t// out\n        /* \"#utility.yul\":3660:3882   */\n    tag_24:\n        /* \"#utility.yul\":3753:3757   */\n      0x00\n        /* \"#utility.yul\":3791:3793   */\n      0x20\n        /* \"#utility.yul\":3780:3789   */\n      dup3\n        /* \"#utility.yul\":3776:3794   */\n      add\n        /* \"#utility.yul\":3768:3794   */\n      swap1\n      pop\n        /* \"#utility.yul\":3804:3875   */\n      tag_157\n        /* \"#utility.yul\":3872:3873   */\n      0x00\n        /* \"#utility.yul\":3861:3870   */\n      dup4\n        /* \"#utility.yul\":3857:3874   */\n      add\n        /* \"#utility.yul\":3848:3854   */\n      dup5\n        /* \"#utility.yul\":3804:3875   */\n      tag_148\n      jump\t// in\n    tag_157:\n        /* \"#utility.yul\":3660:3882   */\n      swap3\n      swap2\n      pop\n      pop\n      jump\t// out\n        /* \"#utility.yul\":3969:4138   */\n    tag_145:\n        /* \"#utility.yul\":4053:4064   */\n      0x00\n        /* \"#utility.yul\":4087:4093   */\n      dup3\n        /* \"#utility.yul\":4082:4085   */\n      dup3\n        /* \"#utility.yul\":4075:4094   */\n      mstore\n        /* \"#utility.yul\":4127:4131   */\n      0x20\n        /* \"#utility.yul\":4122:4125   */\n      dup3\n        /* \"#utility.yul\":4118:4132   */\n      add\n        /* \"#utility.yul\":4103:4132   */\n      swap1\n      pop\n        /* \"#utility.yul\":3969:4138   */\n      swap3\n      swap2\n      pop\n      pop\n      jump\t// out\n        /* \"#utility.yul\":4144:4449   */\n    tag_89:\n        /* \"#utility.yul\":4184:4187   */\n      0x00\n        /* \"#utility.yul\":4203:4223   */\n      tag_162\n        /* \"#utility.yul\":4221:4222   */\n      dup3\n        /* \"#utility.yul\":4203:4223   */\n      tag_151\n      jump\t// in\n    tag_162:\n        /* \"#utility.yul\":4198:4223   */\n      swap2\n      pop\n        /* \"#utility.yul\":4237:4257   */\n      tag_163\n        /* \"#utility.yul\":4255:4256   */\n      dup4\n        /* \"#utility.yul\":4237:4257   */\n      tag_151\n      jump\t// in\n    tag_163:\n        /* \"#utility.yul\":4232:4257   */\n      swap3\n      pop\n        /* \"#utility.yul\":4391:4392   */\n      dup3\n        /* \"#utility.yul\":4323:4389   */\n      0xffffffffffffffffffffffffffffffffffffffffffffffffffffffffffffffff\n        /* \"#utility.yul\":4319:4393   */\n      sub\n        /* \"#utility.yul\":4316:4317   */\n      dup3\n        /* \"#utility.yul\":4313:4394   */\n      gt\n        /* \"#utility.yul\":4310:4417   */\n      iszero\n      tag_164\n      jumpi\n        /* \"#utility.yul\":4397:4415   */\n      tag_165\n      tag_166\n      jump\t// in\n    tag_165:\n        /* \"#utility.yul\":4310:4417   */\n    tag_164:\n        /* \"#utility.yul\":4441:4442   */\n      dup3\n        /* \"#utility.yul\":4438:4439   */\n      dup3\n        /* \"#utility.yul\":4434:4443   */\n      add\n        /* \"#utility.yul\":4427:4443   */\n      swap1\n      pop\n        /* \"#utility.yul\":4144:4449   */\n      swap3\n      swap2\n      pop\n      pop\n      jump\t// out\n        /* \"#utility.yul\":4455:4640   */\n    tag_76:\n        /* \"#utility.yul\":4495:4496   */\n      0x00\n        /* \"#utility.yul\":4512:4532   */\n      tag_168\n        /* \"#utility.yul\":4530:4531   */\n      dup3\n        /* \"#utility.yul\":4512:4532   */\n      tag_151\n      jump\t// in\n    tag_168:\n        /* \"#utility.yul\":4507:4532   */\n      swap2\n      pop\n        /* \"#utility.yul\":4546:4566   */\n      tag_169\n        /* \"#utility.yul\":4564:4565   */\n      dup4\n        /* \"#utility.yul\":4546:4566   */\n      tag_151\n      jump\t// in\n    tag_169:\n        /* \"#utility.yul\":4541:4566   */\n      swap3\n      pop\n        /* \"#utility.yul\":4585:4586   */\n      dup3\n        /* \"#utility.yul\":4575:4610   */\n      tag_170\n      jumpi\n        /* \"#utility.yul\":4590:4608   */\n      tag_171\n      tag_172\n      jump\t// in\n    tag_171:\n        /* \"#utility.yul\":4575:4610   */\n    tag_170:\n        /* \"#utility.yul\":4632:4633   */\n      dup3\n        /* \"#utility.yul\":4629:4630   */\n      dup3\n        /* \"#utility.yul\":4625:4634   */\n      div\n        /* \"#utility.yul\":4620:4634   */\n      swap1\n      pop\n        /* \"#utility.yul\":4455:4640   */\n      swap3\n      swap2\n      pop\n      pop\n      jump\t// out\n        /* \"#utility.yul\":4646:4994   */\n    tag_74:\n        /* \"#utility.yul\":4686:4693   */\n      0x00\n        /* \"#utility.yul\":4709:4729   */\n      tag_174\n        /* \"#utility.yul\":4727:4728   */\n      dup3\n        /* \"#utility.yul\":4709:4729   */\n      tag_151\n      jump\t// in\n    tag_174:\n        /* \"#utility.yul\":4704:4729   */\n      swap2\n      pop\n        /* \"#utility.yul\":4743:4763   */\n      tag_175\n        /* \"#utility.yul\":4761:4762   */\n      dup4\n        /* \"#utility.yul\":4743:4763   */\n      tag_151\n      jump\t// in\n    tag_175:\n        /* \"#utility.yul\":4738:4763   */\n      swap3\n      pop\n        /* \"#utility.yul\":4931:4932   */\n      dup2\n        /* \"#utility.yul\":4863:4929   */\n      0xffffffffffffffffffffffffffffffffffffffffffffffffffffffffffffffff\n        /* \"#utility.yul\":4859:4933   */\n      div\n        /* \"#utility.yul\":4856:4857   */\n      dup4\n        /* \"#utility.yul\":4853:4934   */\n      gt\n        /* \"#utility.yul\":4848:4849   */\n      dup3\n        /* \"#utility.yul\":4841:4850   */\n      iszero\n        /* \"#utility.yul\":4834:4851   */\n      iszero\n        /* \"#utility.yul\":4830:4935   */\n      and\n        /* \"#utility.yul\":4827:4958   */\n      iszero\n      tag_176\n      jumpi\n        /* \"#utility.yul\":4938:4956   */\n      tag_177\n      tag_166\n      jump\t// in\n    tag_177:\n        /* \"#utility.yul\":4827:4958   */\n    tag_176:\n        /* \"#utility.yul\":4986:4987   */\n      dup3\n        /* \"#utility.yul\":4983:4984   */\n      dup3\n        /* \"#utility.yul\":4979:4988   */\n      mul\n        /* \"#utility.yul\":4968:4988   */\n      swap1\n      pop\n        /* \"#utility.yul\":4646:4994   */\n      swap3\n      swap2\n      pop\n      pop\n      jump\t// out\n        /* \"#utility.yul\":5000:5096   */\n    tag_141:\n        /* \"#utility.yul\":5037:5044   */\n      0x00\n        /* \"#utility.yul\":5066:5090   */\n      tag_179\n        /* \"#utility.yul\":5084:5089   */\n      dup3\n        /* \"#utility.yul\":5066:5090   */\n      tag_180\n      jump\t// in\n    tag_179:\n        /* \"#utility.yul\":5055:5090   */\n      swap1\n      pop\n        /* \"#utility.yul\":5000:5096   */\n      swap2\n      swap1\n      pop\n      jump\t// out\n        /* \"#utility.yul\":5102:5178   */\n    tag_181:\n        /* \"#utility.yul\":5138:5145   */\n      0x00\n        /* \"#utility.yul\":5167:5172   */\n      dup2\n        /* \"#utility.yul\":5156:5172   */\n      swap1\n      pop\n        /* \"#utility.yul\":5102:5178   */\n      swap2\n      swap1\n      pop\n      jump\t// out\n        /* \"#utility.yul\":5184:5310   */\n    tag_180:\n        /* \"#utility.yul\":5221:5228   */\n      0x00\n        /* \"#utility.yul\":5261:5303   */\n      0xffffffffffffffffffffffffffffffffffffffff\n        /* \"#utility.yul\":5254:5259   */\n      dup3\n        /* \"#utility.yul\":5250:5304   */\n      and\n        /* \"#utility.yul\":5239:5304   */\n      swap1\n      pop\n        /* \"#utility.yul\":5184:5310   */\n      swap2\n      swap1\n      pop\n      jump\t// out\n        /* \"#utility.yul\":5316:5393   */\n    tag_151:\n        /* \"#utility.yul\":5353:5360   */\n      0x00\n        /* \"#utility.yul\":5382:5387   */\n      dup2\n        /* \"#utility.yul\":5371:5387   */\n      swap1\n      pop\n        /* \"#utility.yul\":5316:5393   */\n      swap2\n      swap1\n      pop\n      jump\t// out\n        /* \"#utility.yul\":5399:5504   */\n    tag_185:\n        /* \"#utility.yul\":5435:5442   */\n      0x00\n        /* \"#utility.yul\":5475:5497   */\n      0xffffffffffffffffffff\n        /* \"#utility.yul\":5468:5473   */\n      dup3\n        /* \"#utility.yul\":5464:5498   */\n      and\n        /* \"#utility.yul\":5453:5498   */\n      swap1\n      pop\n        /* \"#utility.yul\":5399:5504   */\n      swap2\n      swap1\n      pop\n      jump\t// out\n        /* \"#utility.yul\":5510:5743   */\n    tag_64:\n        /* \"#utility.yul\":5549:5552   */\n      0x00\n        /* \"#utility.yul\":5572:5596   */\n      tag_188\n        /* \"#utility.yul\":5590:5595   */\n      dup3\n        /* \"#utility.yul\":5572:5596   */\n      tag_151\n      jump\t// in\n    tag_188:\n        /* \"#utility.yul\":5563:5596   */\n      swap2\n      pop\n        /* \"#utility.yul\":5618:5684   */\n      0xffffffffffffffffffffffffffffffffffffffffffffffffffffffffffffffff\n        /* \"#utility.yul\":5611:5616   */\n      dup3\n        /* \"#utility.yul\":5608:5685   */\n      eq\n        /* \"#utility.yul\":5605:5708   */\n      iszero\n      tag_189\n      jumpi\n        /* \"#utility.yul\":5688:5706   */\n      tag_190\n      tag_166\n      jump\t// in\n    tag_190:\n        /* \"#utility.yul\":5605:5708   */\n    tag_189:\n        /* \"#utility.yul\":5735:5736   */\n      0x01\n        /* \"#utility.yul\":5728:5733   */\n      dup3\n        /* \"#utility.yul\":5724:5737   */\n      add\n        /* \"#utility.yul\":5717:5737   */\n      swap1\n      pop\n        /* \"#utility.yul\":5510:5743   */\n      swap2\n      swap1\n      pop\n      jump\t// out\n        /* \"#utility.yul\":5749:5929   */\n    tag_166:\n        /* \"#utility.yul\":5797:5874   */\n      0x4e487b7100000000000000000000000000000000000000000000000000000000\n        /* \"#utility.yul\":5794:5795   */\n      0x00\n        /* \"#utility.yul\":5787:5875   */\n      mstore\n        /* \"#utility.yul\":5894:5898   */\n      0x11\n        /* \"#utility.yul\":5891:5892   */\n      0x04\n        /* \"#utility.yul\":5884:5899   */\n      mstore\n        /* \"#utility.yul\":5918:5922   */\n      0x24\n        /* \"#utility.yul\":5915:5916   */\n      0x00\n        /* \"#utility.yul\":5908:5923   */\n      revert\n        /* \"#utility.yul\":5935:6115   */\n    tag_172:\n        /* \"#utility.yul\":5983:6060   */\n      0x4e487b7100000000000000000000000000000000000000000000000000000000\n        /* \"#utility.yul\":5980:5981   */\n      0x00\n        /* \"#utility.yul\":5973:6061   */\n      mstore\n        /* \"#utility.yul\":6080:6084   */\n      0x12\n        /* \"#utility.yul\":6077:6078   */\n      0x04\n        /* \"#utility.yul\":6070:6085   */\n      mstore\n        /* \"#utility.yul\":6104:6108   */\n      0x24\n        /* \"#utility.yul\":6101:6102   */\n      0x00\n        /* \"#utility.yul\":6094:6109   */\n      revert\n        /* \"#utility.yul\":6121:6301   */\n    tag_61:\n        /* \"#utility.yul\":6169:6246   */\n      0x4e487b7100000000000000000000000000000000000000000000000000000000\n        /* \"#utility.yul\":6166:6167   */\n      0x00\n        /* \"#utility.yul\":6159:6247   */\n      mstore\n        /* \"#utility.yul\":6266:6270   */\n      0x32\n        /* \"#utility.yul\":6263:6264   */\n      0x04\n        /* \"#utility.yul\":6256:6271   */\n      mstore\n        /* \"#utility.yul\":6290:6294   */\n      0x24\n        /* \"#utility.yul\":6287:6288   */\n      0x00\n        /* \"#utility.yul\":6280:6295   */\n      revert\n        /* \"#utility.yul\":6307:6487   */\n    tag_67:\n        /* \"#utility.yul\":6355:6432   */\n      0x4e487b7100000000000000000000000000000000000000000000000000000000\n        /* \"#utility.yul\":6352:6353   */\n      0x00\n        /* \"#utility.yul\":6345:6433   */\n      mstore\n        /* \"#utility.yul\":6452:6456   */\n      0x41\n        /* \"#utility.yul\":6449:6450   */\n      0x04\n        /* \"#utility.yul\":6442:6457   */\n      mstore\n        /* \"#utility.yul\":6476:6480   */\n      0x24\n        /* \"#utility.yul\":6473:6474   */\n      0x00\n        /* \"#utility.yul\":6466:6481   */\n      revert\n        /* \"#utility.yul\":6616:6733   */\n    tag_124:\n        /* \"#utility.yul\":6725:6726   */\n      0x00\n        /* \"#utility.yul\":6722:6723   */\n      dup1\n        /* \"#utility.yul\":6715:6727   */\n      revert\n        /* \"#utility.yul\":6739:6916   */\n    tag_147:\n        /* \"#utility.yul\":6879:6908   */\n      0x596f75206e65656420746f207370656e64206d6f726520455448210000000000\n        /* \"#utility.yul\":6875:6876   */\n      0x00\n        /* \"#utility.yul\":6867:6873   */\n      dup3\n        /* \"#utility.yul\":6863:6877   */\n      add\n        /* \"#utility.yul\":6856:6909   */\n      mstore\n        /* \"#utility.yul\":6739:6916   */\n      pop\n      jump\t// out\n        /* \"#utility.yul\":6922:7044   */\n    tag_105:\n        /* \"#utility.yul\":6995:7019   */\n      tag_200\n        /* \"#utility.yul\":7013:7018   */\n      dup2\n        /* \"#utility.yul\":6995:7019   */\n      tag_141\n      jump\t// in\n    tag_200:\n        /* \"#utility.yul\":6988:6993   */\n      dup2\n        /* \"#utility.yul\":6985:7020   */\n      eq\n        /* \"#utility.yul\":6975:7038   */\n      tag_201\n      jumpi\n        /* \"#utility.yul\":7034:7035   */\n      0x00\n        /* \"#utility.yul\":7031:7032   */\n      dup1\n        /* \"#utility.yul\":7024:7036   */\n      revert\n        /* \"#utility.yul\":6975:7038   */\n    tag_201:\n        /* \"#utility.yul\":6922:7044   */\n      pop\n      jump\t// out\n        /* \"#utility.yul\":7050:7170   */\n    tag_109:\n        /* \"#utility.yul\":7122:7145   */\n      tag_203\n        /* \"#utility.yul\":7139:7144   */\n      dup2\n        /* \"#utility.yul\":7122:7145   */\n      tag_181\n      jump\t// in\n    tag_203:\n        /* \"#utility.yul\":7115:7120   */\n      dup2\n        /* \"#utility.yul\":7112:7146   */\n      eq\n        /* \"#utility.yul\":7102:7164   */\n      tag_204\n      jumpi\n        /* \"#utility.yul\":7160:7161   */\n      0x00\n        /* \"#utility.yul\":7157:7158   */\n      dup1\n        /* \"#utility.yul\":7150:7162   */\n      revert\n        /* \"#utility.yul\":7102:7164   */\n    tag_204:\n        /* \"#utility.yul\":7050:7170   */\n      pop\n      jump\t// out\n        /* \"#utility.yul\":7176:7298   */\n    tag_113:\n        /* \"#utility.yul\":7249:7273   */\n      tag_206\n        /* \"#utility.yul\":7267:7272   */\n      dup2\n        /* \"#utility.yul\":7249:7273   */\n      tag_151\n      jump\t// in\n    tag_206:\n        /* \"#utility.yul\":7242:7247   */\n      dup2\n        /* \"#utility.yul\":7239:7274   */\n      eq\n        /* \"#utility.yul\":7229:7292   */\n      tag_207\n      jumpi\n        /* \"#utility.yul\":7288:7289   */\n      0x00\n        /* \"#utility.yul\":7285:7286   */\n      dup1\n        /* \"#utility.yul\":7278:7290   */\n      revert\n        /* \"#utility.yul\":7229:7292   */\n    tag_207:\n        /* \"#utility.yul\":7176:7298   */\n      pop\n      jump\t// out\n        /* \"#utility.yul\":7304:7424   */\n    tag_120:\n        /* \"#utility.yul\":7376:7399   */\n      tag_209\n        /* \"#utility.yul\":7393:7398   */\n      dup2\n        /* \"#utility.yul\":7376:7399   */\n      tag_185\n      jump\t// in\n    tag_209:\n        /* \"#utility.yul\":7369:7374   */\n      dup2\n        /* \"#utility.yul\":7366:7400   */\n      eq\n        /* \"#utility.yul\":7356:7418   */\n      tag_210\n      jumpi\n        /* \"#utility.yul\":7414:7415   */\n      0x00\n        /* \"#utility.yul\":7411:7412   */\n      dup1\n        /* \"#utility.yul\":7404:7416   */\n      revert\n        /* \"#utility.yul\":7356:7418   */\n    tag_210:\n        /* \"#utility.yul\":7304:7424   */\n      pop\n      jump\t// out\n\n    auxdata: 0xa26469706673582212208027430d82ad9b6be8205f7aa08aa25dfeecd20c8ef0b54e9b48d58dfd3b9d0764736f6c63430008070033\n}\n",
				"bytecode": {
					"linkReferences": {},
					"object": "608060405234801561001057600080fd5b5033600260006101000a81548173ffffffffffffffffffffffffffffffffffffffff021916908373ffffffffffffffffffffffffffffffffffffffff160217905550739326bfa02add2366b30bacb125260af641031331600360006101000a81548173ffffffffffffffffffffffffffffffffffffffff021916908373ffffffffffffffffffffffffffffffffffffffff160217905550610ba3806100b66000396000f3fe60806040526004361061007f5760003560e01c806398d5fdca1161004e57806398d5fdca14610137578063b60d428814610162578063b69ef8a81461016c578063dc0d3dff1461019757610086565b80633ccfd60b146100885780633e47d6f3146100925780636e5b6b28146100cf5780638da5cb5b1461010c57610086565b3661008657005b005b6100906101d4565b005b34801561009e57600080fd5b506100b960048036038101906100b49190610724565b610383565b6040516100c69190610875565b60405180910390f35b3480156100db57600080fd5b506100f660048036038101906100f19190610751565b61039b565b6040516101039190610875565b60405180910390f35b34801561011857600080fd5b506101216103d5565b60405161012e919061083a565b60405180910390f35b34801561014357600080fd5b5061014c6103fb565b6040516101599190610875565b60405180910390f35b61016a6104b9565b005b34801561017857600080fd5b506101816105cd565b60405161018e9190610875565b60405180910390f35b3480156101a357600080fd5b506101be60048036038101906101b99190610751565b6105d5565b6040516101cb919061083a565b60405180910390f35b600260009054906101000a900473ffffffffffffffffffffffffffffffffffffffff1673ffffffffffffffffffffffffffffffffffffffff163373ffffffffffffffffffffffffffffffffffffffff161461022e57600080fd5b3373ffffffffffffffffffffffffffffffffffffffff166108fc479081150290604051600060405180830381858888f19350505050158015610274573d6000803e3d6000fd5b5060005b6001805490508110156103205760006001828154811061029b5761029a610a85565b5b9060005260206000200160009054906101000a900473ffffffffffffffffffffffffffffffffffffffff16905060008060008373ffffffffffffffffffffffffffffffffffffffff1673ffffffffffffffffffffffffffffffffffffffff16815260200190815260200160002081905550508080610318906109de565b915050610278565b50600067ffffffffffffffff81111561033c5761033b610ab4565b5b60405190808252806020026020018201604052801561036a5781602001602082028036833780820191505090505b5060019080519060200190610380929190610614565b50565b60006020528060005260406000206000915090505481565b6000806103a66103fb565b90506000670de0b6b3a764000084836103bf9190610928565b6103c991906108f7565b90508092505050919050565b600260009054906101000a900473ffffffffffffffffffffffffffffffffffffffff1681565b600080600080600080600360009054906101000a900473ffffffffffffffffffffffffffffffffffffffff1673ffffffffffffffffffffffffffffffffffffffff1663feaf968c6040518163ffffffff1660e01b815260040160a06040518083038186803b15801561046c57600080fd5b505afa158015610480573d6000803e3d6000fd5b505050506040513d601f19601f820116820180604052508101906104a4919061077e565b94509450945094509450839550505050505090565b60006802b5e3af16b18800009050806104d13461039b565b1015610512576040517f08c379a000000000000000000000000000000000000000000000000000000000815260040161050990610855565b60405180910390fd5b346000803373ffffffffffffffffffffffffffffffffffffffff1673ffffffffffffffffffffffffffffffffffffffff168152602001908152602001600020600082825461056091906108a1565b925050819055506001339080600181540180825580915050600190039060005260206000200160009091909190916101000a81548173ffffffffffffffffffffffffffffffffffffffff021916908373ffffffffffffffffffffffffffffffffffffffff16021790555050565b600047905090565b600181815481106105e557600080fd5b906000526020600020016000915054906101000a900473ffffffffffffffffffffffffffffffffffffffff1681565b82805482825590600052602060002090810192821561068d579160200282015b8281111561068c5782518260006101000a81548173ffffffffffffffffffffffffffffffffffffffff021916908373ffffffffffffffffffffffffffffffffffffffff16021790555091602001919060010190610634565b5b50905061069a919061069e565b5090565b5b808211156106b757600081600090555060010161069f565b5090565b6000813590506106ca81610b11565b92915050565b6000815190506106df81610b28565b92915050565b6000813590506106f481610b3f565b92915050565b60008151905061070981610b3f565b92915050565b60008151905061071e81610b56565b92915050565b60006020828403121561073a57610739610ae3565b5b6000610748848285016106bb565b91505092915050565b60006020828403121561076757610766610ae3565b5b6000610775848285016106e5565b91505092915050565b600080600080600060a0868803121561079a57610799610ae3565b5b60006107a88882890161070f565b95505060206107b9888289016106d0565b94505060406107ca888289016106fa565b93505060606107db888289016106fa565b92505060806107ec8882890161070f565b9150509295509295909350565b61080281610982565b82525050565b6000610815601b83610890565b915061082082610ae8565b602082019050919050565b610834816109be565b82525050565b600060208201905061084f60008301846107f9565b92915050565b6000602082019050818103600083015261086e81610808565b9050919050565b600060208201905061088a600083018461082b565b92915050565b600082825260208201905092915050565b60006108ac826109be565b91506108b7836109be565b9250827fffffffffffffffffffffffffffffffffffffffffffffffffffffffffffffffff038211156108ec576108eb610a27565b5b828201905092915050565b6000610902826109be565b915061090d836109be565b92508261091d5761091c610a56565b5b828204905092915050565b6000610933826109be565b915061093e836109be565b9250817fffffffffffffffffffffffffffffffffffffffffffffffffffffffffffffffff048311821515161561097757610976610a27565b5b828202905092915050565b600061098d8261099e565b9050919050565b6000819050919050565b600073ffffffffffffffffffffffffffffffffffffffff82169050919050565b6000819050919050565b600069ffffffffffffffffffff82169050919050565b60006109e9826109be565b91507fffffffffffffffffffffffffffffffffffffffffffffffffffffffffffffffff821415610a1c57610a1b610a27565b5b600182019050919050565b7f4e487b7100000000000000000000000000000000000000000000000000000000600052601160045260246000fd5b7f4e487b7100000000000000000000000000000000000000000000000000000000600052601260045260246000fd5b7f4e487b7100000000000000000000000000000000000000000000000000000000600052603260045260246000fd5b7f4e487b7100000000000000000000000000000000000000000000000000000000600052604160045260246000fd5b600080fd5b7f596f75206e65656420746f207370656e64206d6f726520455448210000000000600082015250565b610b1a81610982565b8114610b2557600080fd5b50565b610b3181610994565b8114610b3c57600080fd5b50565b610b48816109be565b8114610b5357600080fd5b50565b610b5f816109c8565b8114610b6a57600080fd5b5056fea26469706673582212208027430d82ad9b6be8205f7aa08aa25dfeecd20c8ef0b54e9b48d58dfd3b9d0764736f6c63430008070033",
					"opcodes": "PUSH1 0x80 PUSH1 0x40 MSTORE CALLVALUE DUP1 ISZERO PUSH2 0x10 JUMPI PUSH1 0x0 DUP1 REVERT JUMPDEST POP CALLER PUSH1 0x2 PUSH1 0x0 PUSH2 0x100 EXP DUP2 SLOAD DUP2 PUSH20 0xFFFFFFFFFFFFFFFFFFFFFFFFFFFFFFFFFFFFFFFF MUL NOT AND SWAP1 DUP4 PUSH20 0xFFFFFFFFFFFFFFFFFFFFFFFFFFFFFFFFFFFFFFFF AND MUL OR SWAP1 SSTORE POP PUSH20 0x9326BFA02ADD2366B30BACB125260AF641031331 PUSH1 0x3 PUSH1 0x0 PUSH2 0x100 EXP DUP2 SLOAD DUP2 PUSH20 0xFFFFFFFFFFFFFFFFFFFFFFFFFFFFFFFFFFFFFFFF MUL NOT AND SWAP1 DUP4 PUSH20 0xFFFFFFFFFFFFFFFFFFFFFFFFFFFFFFFFFFFFFFFF AND MUL OR SWAP1 SSTORE POP PUSH2 0xBA3 DUP1 PUSH2 0xB6 PUSH1 0x0 CODECOPY PUSH1 0x0 RETURN INVALID PUSH1 0x80 PUSH1 0x40 MSTORE PUSH1 0x4 CALLDATASIZE LT PUSH2 0x7F JUMPI PUSH1 0x0 CALLDATALOAD PUSH1 0xE0 SHR DUP1 PUSH4 0x98D5FDCA GT PUSH2 0x4E JUMPI DUP1 PUSH4 0x98D5FDCA EQ PUSH2 0x137 JUMPI DUP1 PUSH4 0xB60D4288 EQ PUSH2 0x162 JUMPI DUP1 PUSH4 0xB69EF8A8 EQ PUSH2 0x16C JUMPI DUP1 PUSH4 0xDC0D3DFF EQ PUSH2 0x197 JUMPI PUSH2 0x86 JUMP JUMPDEST DUP1 PUSH4 0x3CCFD60B EQ PUSH2 0x88 JUMPI DUP1 PUSH4 0x3E47D6F3 EQ PUSH2 0x92 JUMPI DUP1 PUSH4 0x6E5B6B28 EQ PUSH2 0xCF JUMPI DUP1 PUSH4 0x8DA5CB5B EQ PUSH2 0x10C JUMPI PUSH2 0x86 JUMP JUMPDEST CALLDATASIZE PUSH2 0x86 JUMPI STOP JUMPDEST STOP JUMPDEST PUSH2 0x90 PUSH2 0x1D4 JUMP JUMPDEST STOP JUMPDEST CALLVALUE DUP1 ISZERO PUSH2 0x9E JUMPI PUSH1 0x0 DUP1 REVERT JUMPDEST POP PUSH2 0xB9 PUSH1 0x4 DUP1 CALLDATASIZE SUB DUP2 ADD SWAP1 PUSH2 0xB4 SWAP2 SWAP1 PUSH2 0x724 JUMP JUMPDEST PUSH2 0x383 JUMP JUMPDEST PUSH1 0x40 MLOAD PUSH2 0xC6 SWAP2 SWAP1 PUSH2 0x875 JUMP JUMPDEST PUSH1 0x40 MLOAD DUP1 SWAP2 SUB SWAP1 RETURN JUMPDEST CALLVALUE DUP1 ISZERO PUSH2 0xDB JUMPI PUSH1 0x0 DUP1 REVERT JUMPDEST POP PUSH2 0xF6 PUSH1 0x4 DUP1 CALLDATASIZE SUB DUP2 ADD SWAP1 PUSH2 0xF1 SWAP2 SWAP1 PUSH2 0x751 JUMP JUMPDEST PUSH2 0x39B JUMP JUMPDEST PUSH1 0x40 MLOAD PUSH2 0x103 SWAP2 SWAP1 PUSH2 0x875 JUMP JUMPDEST PUSH1 0x40 MLOAD DUP1 SWAP2 SUB SWAP1 RETURN JUMPDEST CALLVALUE DUP1 ISZERO PUSH2 0x118 JUMPI PUSH1 0x0 DUP1 REVERT JUMPDEST POP PUSH2 0x121 PUSH2 0x3D5 JUMP JUMPDEST PUSH1 0x40 MLOAD PUSH2 0x12E SWAP2 SWAP1 PUSH2 0x83A JUMP JUMPDEST PUSH1 0x40 MLOAD DUP1 SWAP2 SUB SWAP1 RETURN JUMPDEST CALLVALUE DUP1 ISZERO PUSH2 0x143 JUMPI PUSH1 0x0 DUP1 REVERT JUMPDEST POP PUSH2 0x14C PUSH2 0x3FB JUMP JUMPDEST PUSH1 0x40 MLOAD PUSH2 0x159 SWAP2 SWAP1 PUSH2 0x875 JUMP JUMPDEST PUSH1 0x40 MLOAD DUP1 SWAP2 SUB SWAP1 RETURN JUMPDEST PUSH2 0x16A PUSH2 0x4B9 JUMP JUMPDEST STOP JUMPDEST CALLVALUE DUP1 ISZERO PUSH2 0x178 JUMPI PUSH1 0x0 DUP1 REVERT JUMPDEST POP PUSH2 0x181 PUSH2 0x5CD JUMP JUMPDEST PUSH1 0x40 MLOAD PUSH2 0x18E SWAP2 SWAP1 PUSH2 0x875 JUMP JUMPDEST PUSH1 0x40 MLOAD DUP1 SWAP2 SUB SWAP1 RETURN JUMPDEST CALLVALUE DUP1 ISZERO PUSH2 0x1A3 JUMPI PUSH1 0x0 DUP1 REVERT JUMPDEST POP PUSH2 0x1BE PUSH1 0x4 DUP1 CALLDATASIZE SUB DUP2 ADD SWAP1 PUSH2 0x1B9 SWAP2 SWAP1 PUSH2 0x751 JUMP JUMPDEST PUSH2 0x5D5 JUMP JUMPDEST PUSH1 0x40 MLOAD PUSH2 0x1CB SWAP2 SWAP1 PUSH2 0x83A JUMP JUMPDEST PUSH1 0x40 MLOAD DUP1 SWAP2 SUB SWAP1 RETURN JUMPDEST PUSH1 0x2 PUSH1 0x0 SWAP1 SLOAD SWAP1 PUSH2 0x100 EXP SWAP1 DIV PUSH20 0xFFFFFFFFFFFFFFFFFFFFFFFFFFFFFFFFFFFFFFFF AND PUSH20 0xFFFFFFFFFFFFFFFFFFFFFFFFFFFFFFFFFFFFFFFF AND CALLER PUSH20 0xFFFFFFFFFFFFFFFFFFFFFFFFFFFFFFFFFFFFFFFF AND EQ PUSH2 0x22E JUMPI PUSH1 0x0 DUP1 REVERT JUMPDEST CALLER PUSH20 0xFFFFFFFFFFFFFFFFFFFFFFFFFFFFFFFFFFFFFFFF AND PUSH2 0x8FC SELFBALANCE SWAP1 DUP2 ISZERO MUL SWAP1 PUSH1 0x40 MLOAD PUSH1 0x0 PUSH1 0x40 MLOAD DUP1 DUP4 SUB DUP2 DUP6 DUP9 DUP9 CALL SWAP4 POP POP POP POP ISZERO DUP1 ISZERO PUSH2 0x274 JUMPI RETURNDATASIZE PUSH1 0x0 DUP1 RETURNDATACOPY RETURNDATASIZE PUSH1 0x0 REVERT JUMPDEST POP PUSH1 0x0 JUMPDEST PUSH1 0x1 DUP1 SLOAD SWAP1 POP DUP2 LT ISZERO PUSH2 0x320 JUMPI PUSH1 0x0 PUSH1 0x1 DUP3 DUP2 SLOAD DUP2 LT PUSH2 0x29B JUMPI PUSH2 0x29A PUSH2 0xA85 JUMP JUMPDEST JUMPDEST SWAP1 PUSH1 0x0 MSTORE PUSH1 0x20 PUSH1 0x0 KECCAK256 ADD PUSH1 0x0 SWAP1 SLOAD SWAP1 PUSH2 0x100 EXP SWAP1 DIV PUSH20 0xFFFFFFFFFFFFFFFFFFFFFFFFFFFFFFFFFFFFFFFF AND SWAP1 POP PUSH1 0x0 DUP1 PUSH1 0x0 DUP4 PUSH20 0xFFFFFFFFFFFFFFFFFFFFFFFFFFFFFFFFFFFFFFFF AND PUSH20 0xFFFFFFFFFFFFFFFFFFFFFFFFFFFFFFFFFFFFFFFF AND DUP2 MSTORE PUSH1 0x20 ADD SWAP1 DUP2 MSTORE PUSH1 0x20 ADD PUSH1 0x0 KECCAK256 DUP2 SWAP1 SSTORE POP POP DUP1 DUP1 PUSH2 0x318 SWAP1 PUSH2 0x9DE JUMP JUMPDEST SWAP2 POP POP PUSH2 0x278 JUMP JUMPDEST POP PUSH1 0x0 PUSH8 0xFFFFFFFFFFFFFFFF DUP2 GT ISZERO PUSH2 0x33C JUMPI PUSH2 0x33B PUSH2 0xAB4 JUMP JUMPDEST JUMPDEST PUSH1 0x40 MLOAD SWAP1 DUP1 DUP3 MSTORE DUP1 PUSH1 0x20 MUL PUSH1 0x20 ADD DUP3 ADD PUSH1 0x40 MSTORE DUP1 ISZERO PUSH2 0x36A JUMPI DUP2 PUSH1 0x20 ADD PUSH1 0x20 DUP3 MUL DUP1 CALLDATASIZE DUP4 CALLDATACOPY DUP1 DUP3 ADD SWAP2 POP POP SWAP1 POP JUMPDEST POP PUSH1 0x1 SWAP1 DUP1 MLOAD SWAP1 PUSH1 0x20 ADD SWAP1 PUSH2 0x380 SWAP3 SWAP2 SWAP1 PUSH2 0x614 JUMP JUMPDEST POP JUMP JUMPDEST PUSH1 0x0 PUSH1 0x20 MSTORE DUP1 PUSH1 0x0 MSTORE PUSH1 0x40 PUSH1 0x0 KECCAK256 PUSH1 0x0 SWAP2 POP SWAP1 POP SLOAD DUP2 JUMP JUMPDEST PUSH1 0x0 DUP1 PUSH2 0x3A6 PUSH2 0x3FB JUMP JUMPDEST SWAP1 POP PUSH1 0x0 PUSH8 0xDE0B6B3A7640000 DUP5 DUP4 PUSH2 0x3BF SWAP2 SWAP1 PUSH2 0x928 JUMP JUMPDEST PUSH2 0x3C9 SWAP2 SWAP1 PUSH2 0x8F7 JUMP JUMPDEST SWAP1 POP DUP1 SWAP3 POP POP POP SWAP2 SWAP1 POP JUMP JUMPDEST PUSH1 0x2 PUSH1 0x0 SWAP1 SLOAD SWAP1 PUSH2 0x100 EXP SWAP1 DIV PUSH20 0xFFFFFFFFFFFFFFFFFFFFFFFFFFFFFFFFFFFFFFFF AND DUP2 JUMP JUMPDEST PUSH1 0x0 DUP1 PUSH1 0x0 DUP1 PUSH1 0x0 DUP1 PUSH1 0x3 PUSH1 0x0 SWAP1 SLOAD SWAP1 PUSH2 0x100 EXP SWAP1 DIV PUSH20 0xFFFFFFFFFFFFFFFFFFFFFFFFFFFFFFFFFFFFFFFF AND PUSH20 0xFFFFFFFFFFFFFFFFFFFFFFFFFFFFFFFFFFFFFFFF AND PUSH4 0xFEAF968C PUSH1 0x40 MLOAD DUP2 PUSH4 0xFFFFFFFF AND PUSH1 0xE0 SHL DUP2 MSTORE PUSH1 0x4 ADD PUSH1 0xA0 PUSH1 0x40 MLOAD DUP1 DUP4 SUB DUP2 DUP7 DUP1 EXTCODESIZE ISZERO DUP1 ISZERO PUSH2 0x46C JUMPI PUSH1 0x0 DUP1 REVERT JUMPDEST POP GAS STATICCALL ISZERO DUP1 ISZERO PUSH2 0x480 JUMPI RETURNDATASIZE PUSH1 0x0 DUP1 RETURNDATACOPY RETURNDATASIZE PUSH1 0x0 REVERT JUMPDEST POP POP POP POP PUSH1 0x40 MLOAD RETURNDATASIZE PUSH1 0x1F NOT PUSH1 0x1F DUP3 ADD AND DUP3 ADD DUP1 PUSH1 0x40 MSTORE POP DUP2 ADD SWAP1 PUSH2 0x4A4 SWAP2 SWAP1 PUSH2 0x77E JUMP JUMPDEST SWAP5 POP SWAP5 POP SWAP5 POP SWAP5 POP SWAP5 POP DUP4 SWAP6 POP POP POP POP POP POP SWAP1 JUMP JUMPDEST PUSH1 0x0 PUSH9 0x2B5E3AF16B1880000 SWAP1 POP DUP1 PUSH2 0x4D1 CALLVALUE PUSH2 0x39B JUMP JUMPDEST LT ISZERO PUSH2 0x512 JUMPI PUSH1 0x40 MLOAD PUSH32 0x8C379A000000000000000000000000000000000000000000000000000000000 DUP2 MSTORE PUSH1 0x4 ADD PUSH2 0x509 SWAP1 PUSH2 0x855 JUMP JUMPDEST PUSH1 0x40 MLOAD DUP1 SWAP2 SUB SWAP1 REVERT JUMPDEST CALLVALUE PUSH1 0x0 DUP1 CALLER PUSH20 0xFFFFFFFFFFFFFFFFFFFFFFFFFFFFFFFFFFFFFFFF AND PUSH20 0xFFFFFFFFFFFFFFFFFFFFFFFFFFFFFFFFFFFFFFFF AND DUP2 MSTORE PUSH1 0x20 ADD SWAP1 DUP2 MSTORE PUSH1 0x20 ADD PUSH1 0x0 KECCAK256 PUSH1 0x0 DUP3 DUP3 SLOAD PUSH2 0x560 SWAP2 SWAP1 PUSH2 0x8A1 JUMP JUMPDEST SWAP3 POP POP DUP2 SWAP1 SSTORE POP PUSH1 0x1 CALLER SWAP1 DUP1 PUSH1 0x1 DUP2 SLOAD ADD DUP1 DUP3 SSTORE DUP1 SWAP2 POP POP PUSH1 0x1 SWAP1 SUB SWAP1 PUSH1 0x0 MSTORE PUSH1 0x20 PUSH1 0x0 KECCAK256 ADD PUSH1 0x0 SWAP1 SWAP2 SWAP1 SWAP2 SWAP1 SWAP2 PUSH2 0x100 EXP DUP2 SLOAD DUP2 PUSH20 0xFFFFFFFFFFFFFFFFFFFFFFFFFFFFFFFFFFFFFFFF MUL NOT AND SWAP1 DUP4 PUSH20 0xFFFFFFFFFFFFFFFFFFFFFFFFFFFFFFFFFFFFFFFF AND MUL OR SWAP1 SSTORE POP POP JUMP JUMPDEST PUSH1 0x0 SELFBALANCE SWAP1 POP SWAP1 JUMP JUMPDEST PUSH1 0x1 DUP2 DUP2 SLOAD DUP2 LT PUSH2 0x5E5 JUMPI PUSH1 0x0 DUP1 REVERT JUMPDEST SWAP1 PUSH1 0x0 MSTORE PUSH1 0x20 PUSH1 0x0 KECCAK256 ADD PUSH1 0x0 SWAP2 POP SLOAD SWAP1 PUSH2 0x100 EXP SWAP1 DIV PUSH20 0xFFFFFFFFFFFFFFFFFFFFFFFFFFFFFFFFFFFFFFFF AND DUP2 JUMP JUMPDEST DUP3 DUP1 SLOAD DUP3 DUP3 SSTORE SWAP1 PUSH1 0x0 MSTORE PUSH1 0x20 PUSH1 0x0 KECCAK256 SWAP1 DUP2 ADD SWAP3 DUP3 ISZERO PUSH2 0x68D JUMPI SWAP2 PUSH1 0x20 MUL DUP3 ADD JUMPDEST DUP3 DUP2 GT ISZERO PUSH2 0x68C JUMPI DUP3 MLOAD DUP3 PUSH1 0x0 PUSH2 0x100 EXP DUP2 SLOAD DUP2 PUSH20 0xFFFFFFFFFFFFFFFFFFFFFFFFFFFFFFFFFFFFFFFF MUL NOT AND SWAP1 DUP4 PUSH20 0xFFFFFFFFFFFFFFFFFFFFFFFFFFFFFFFFFFFFFFFF AND MUL OR SWAP1 SSTORE POP SWAP2 PUSH1 0x20 ADD SWAP2 SWAP1 PUSH1 0x1 ADD SWAP1 PUSH2 0x634 JUMP JUMPDEST JUMPDEST POP SWAP1 POP PUSH2 0x69A SWAP2 SWAP1 PUSH2 0x69E JUMP JUMPDEST POP SWAP1 JUMP JUMPDEST JUMPDEST DUP1 DUP3 GT ISZERO PUSH2 0x6B7 JUMPI PUSH1 0x0 DUP2 PUSH1 0x0 SWAP1 SSTORE POP PUSH1 0x1 ADD PUSH2 0x69F JUMP JUMPDEST POP SWAP1 JUMP JUMPDEST PUSH1 0x0 DUP2 CALLDATALOAD SWAP1 POP PUSH2 0x6CA DUP2 PUSH2 0xB11 JUMP JUMPDEST SWAP3 SWAP2 POP POP JUMP JUMPDEST PUSH1 0x0 DUP2 MLOAD SWAP1 POP PUSH2 0x6DF DUP2 PUSH2 0xB28 JUMP JUMPDEST SWAP3 SWAP2 POP POP JUMP JUMPDEST PUSH1 0x0 DUP2 CALLDATALOAD SWAP1 POP PUSH2 0x6F4 DUP2 PUSH2 0xB3F JUMP JUMPDEST SWAP3 SWAP2 POP POP JUMP JUMPDEST PUSH1 0x0 DUP2 MLOAD SWAP1 POP PUSH2 0x709 DUP2 PUSH2 0xB3F JUMP JUMPDEST SWAP3 SWAP2 POP POP JUMP JUMPDEST PUSH1 0x0 DUP2 MLOAD SWAP1 POP PUSH2 0x71E DUP2 PUSH2 0xB56 JUMP JUMPDEST SWAP3 SWAP2 POP POP JUMP JUMPDEST PUSH1 0x0 PUSH1 0x20 DUP3 DUP5 SUB SLT ISZERO PUSH2 0x73A JUMPI PUSH2 0x739 PUSH2 0xAE3 JUMP JUMPDEST JUMPDEST PUSH1 0x0 PUSH2 0x748 DUP5 DUP3 DUP6 ADD PUSH2 0x6BB JUMP JUMPDEST SWAP2 POP POP SWAP3 SWAP2 POP POP JUMP JUMPDEST PUSH1 0x0 PUSH1 0x20 DUP3 DUP5 SUB SLT ISZERO PUSH2 0x767 JUMPI PUSH2 0x766 PUSH2 0xAE3 JUMP JUMPDEST JUMPDEST PUSH1 0x0 PUSH2 0x775 DUP5 DUP3 DUP6 ADD PUSH2 0x6E5 JUMP JUMPDEST SWAP2 POP POP SWAP3 SWAP2 POP POP JUMP JUMPDEST PUSH1 0x0 DUP1 PUSH1 0x0 DUP1 PUSH1 0x0 PUSH1 0xA0 DUP7 DUP9 SUB SLT ISZERO PUSH2 0x79A JUMPI PUSH2 0x799 PUSH2 0xAE3 JUMP JUMPDEST JUMPDEST PUSH1 0x0 PUSH2 0x7A8 DUP9 DUP3 DUP10 ADD PUSH2 0x70F JUMP JUMPDEST SWAP6 POP POP PUSH1 0x20 PUSH2 0x7B9 DUP9 DUP3 DUP10 ADD PUSH2 0x6D0 JUMP JUMPDEST SWAP5 POP POP PUSH1 0x40 PUSH2 0x7CA DUP9 DUP3 DUP10 ADD PUSH2 0x6FA JUMP JUMPDEST SWAP4 POP POP PUSH1 0x60 PUSH2 0x7DB DUP9 DUP3 DUP10 ADD PUSH2 0x6FA JUMP JUMPDEST SWAP3 POP POP PUSH1 0x80 PUSH2 0x7EC DUP9 DUP3 DUP10 ADD PUSH2 0x70F JUMP JUMPDEST SWAP2 POP POP SWAP3 SWAP6 POP SWAP3 SWAP6 SWAP1 SWAP4 POP JUMP JUMPDEST PUSH2 0x802 DUP2 PUSH2 0x982 JUMP JUMPDEST DUP3 MSTORE POP POP JUMP JUMPDEST PUSH1 0x0 PUSH2 0x815 PUSH1 0x1B DUP4 PUSH2 0x890 JUMP JUMPDEST SWAP2 POP PUSH2 0x820 DUP3 PUSH2 0xAE8 JUMP JUMPDEST PUSH1 0x20 DUP3 ADD SWAP1 POP SWAP2 SWAP1 POP JUMP JUMPDEST PUSH2 0x834 DUP2 PUSH2 0x9BE JUMP JUMPDEST DUP3 MSTORE POP POP JUMP JUMPDEST PUSH1 0x0 PUSH1 0x20 DUP3 ADD SWAP1 POP PUSH2 0x84F PUSH1 0x0 DUP4 ADD DUP5 PUSH2 0x7F9 JUMP JUMPDEST SWAP3 SWAP2 POP POP JUMP JUMPDEST PUSH1 0x0 PUSH1 0x20 DUP3 ADD SWAP1 POP DUP2 DUP2 SUB PUSH1 0x0 DUP4 ADD MSTORE PUSH2 0x86E DUP2 PUSH2 0x808 JUMP JUMPDEST SWAP1 POP SWAP2 SWAP1 POP JUMP JUMPDEST PUSH1 0x0 PUSH1 0x20 DUP3 ADD SWAP1 POP PUSH2 0x88A PUSH1 0x0 DUP4 ADD DUP5 PUSH2 0x82B JUMP JUMPDEST SWAP3 SWAP2 POP POP JUMP JUMPDEST PUSH1 0x0 DUP3 DUP3 MSTORE PUSH1 0x20 DUP3 ADD SWAP1 POP SWAP3 SWAP2 POP POP JUMP JUMPDEST PUSH1 0x0 PUSH2 0x8AC DUP3 PUSH2 0x9BE JUMP JUMPDEST SWAP2 POP PUSH2 0x8B7 DUP4 PUSH2 0x9BE JUMP JUMPDEST SWAP3 POP DUP3 PUSH32 0xFFFFFFFFFFFFFFFFFFFFFFFFFFFFFFFFFFFFFFFFFFFFFFFFFFFFFFFFFFFFFFFF SUB DUP3 GT ISZERO PUSH2 0x8EC JUMPI PUSH2 0x8EB PUSH2 0xA27 JUMP JUMPDEST JUMPDEST DUP3 DUP3 ADD SWAP1 POP SWAP3 SWAP2 POP POP JUMP JUMPDEST PUSH1 0x0 PUSH2 0x902 DUP3 PUSH2 0x9BE JUMP JUMPDEST SWAP2 POP PUSH2 0x90D DUP4 PUSH2 0x9BE JUMP JUMPDEST SWAP3 POP DUP3 PUSH2 0x91D JUMPI PUSH2 0x91C PUSH2 0xA56 JUMP JUMPDEST JUMPDEST DUP3 DUP3 DIV SWAP1 POP SWAP3 SWAP2 POP POP JUMP JUMPDEST PUSH1 0x0 PUSH2 0x933 DUP3 PUSH2 0x9BE JUMP JUMPDEST SWAP2 POP PUSH2 0x93E DUP4 PUSH2 0x9BE JUMP JUMPDEST SWAP3 POP DUP2 PUSH32 0xFFFFFFFFFFFFFFFFFFFFFFFFFFFFFFFFFFFFFFFFFFFFFFFFFFFFFFFFFFFFFFFF DIV DUP4 GT DUP3 ISZERO ISZERO AND ISZERO PUSH2 0x977 JUMPI PUSH2 0x976 PUSH2 0xA27 JUMP JUMPDEST JUMPDEST DUP3 DUP3 MUL SWAP1 POP SWAP3 SWAP2 POP POP JUMP JUMPDEST PUSH1 0x0 PUSH2 0x98D DUP3 PUSH2 0x99E JUMP JUMPDEST SWAP1 POP SWAP2 SWAP1 POP JUMP JUMPDEST PUSH1 0x0 DUP2 SWAP1 POP SWAP2 SWAP1 POP JUMP JUMPDEST PUSH1 0x0 PUSH20 0xFFFFFFFFFFFFFFFFFFFFFFFFFFFFFFFFFFFFFFFF DUP3 AND SWAP1 POP SWAP2 SWAP1 POP JUMP JUMPDEST PUSH1 0x0 DUP2 SWAP1 POP SWAP2 SWAP1 POP JUMP JUMPDEST PUSH1 0x0 PUSH10 0xFFFFFFFFFFFFFFFFFFFF DUP3 AND SWAP1 POP SWAP2 SWAP1 POP JUMP JUMPDEST PUSH1 0x0 PUSH2 0x9E9 DUP3 PUSH2 0x9BE JUMP JUMPDEST SWAP2 POP PUSH32 0xFFFFFFFFFFFFFFFFFFFFFFFFFFFFFFFFFFFFFFFFFFFFFFFFFFFFFFFFFFFFFFFF DUP3 EQ ISZERO PUSH2 0xA1C JUMPI PUSH2 0xA1B PUSH2 0xA27 JUMP JUMPDEST JUMPDEST PUSH1 0x1 DUP3 ADD SWAP1 POP SWAP2 SWAP1 POP JUMP JUMPDEST PUSH32 0x4E487B7100000000000000000000000000000000000000000000000000000000 PUSH1 0x0 MSTORE PUSH1 0x11 PUSH1 0x4 MSTORE PUSH1 0x24 PUSH1 0x0 REVERT JUMPDEST PUSH32 0x4E487B7100000000000000000000000000000000000000000000000000000000 PUSH1 0x0 MSTORE PUSH1 0x12 PUSH1 0x4 MSTORE PUSH1 0x24 PUSH1 0x0 REVERT JUMPDEST PUSH32 0x4E487B7100000000000000000000000000000000000000000000000000000000 PUSH1 0x0 MSTORE PUSH1 0x32 PUSH1 0x4 MSTORE PUSH1 0x24 PUSH1 0x0 REVERT JUMPDEST PUSH32 0x4E487B7100000000000000000000000000000000000000000000000000000000 PUSH1 0x0 MSTORE PUSH1 0x41 PUSH1 0x4 MSTORE PUSH1 0x24 PUSH1 0x0 REVERT JUMPDEST PUSH1 0x0 DUP1 REVERT JUMPDEST PUSH32 0x596F75206E65656420746F207370656E64206D6F726520455448210000000000 PUSH1 0x0 DUP3 ADD MSTORE POP JUMP JUMPDEST PUSH2 0xB1A DUP2 PUSH2 0x982 JUMP JUMPDEST DUP2 EQ PUSH2 0xB25 JUMPI PUSH1 0x0 DUP1 REVERT JUMPDEST POP JUMP JUMPDEST PUSH2 0xB31 DUP2 PUSH2 0x994 JUMP JUMPDEST DUP2 EQ PUSH2 0xB3C JUMPI PUSH1 0x0 DUP1 REVERT JUMPDEST POP JUMP JUMPDEST PUSH2 0xB48 DUP2 PUSH2 0x9BE JUMP JUMPDEST DUP2 EQ PUSH2 0xB53 JUMPI PUSH1 0x0 DUP1 REVERT JUMPDEST POP JUMP JUMPDEST PUSH2 0xB5F DUP2 PUSH2 0x9C8 JUMP JUMPDEST DUP2 EQ PUSH2 0xB6A JUMPI PUSH1 0x0 DUP1 REVERT JUMPDEST POP JUMP INVALID LOG2 PUSH5 0x6970667358 0x22 SLT KECCAK256 DUP1 0x27 NUMBER 0xD DUP3 0xAD SWAP12 PUSH12 0xE8205F7AA08AA25DFEECD20C DUP15 CREATE 0xB5 0x4E SWAP12 BASEFEE 0xD5 DUP14 REVERT EXTCODESIZE SWAP14 SMOD PUSH5 0x736F6C6343 STOP ADDMOD SMOD STOP CALLER "
				},
				"gasEstimates": {
					"creation": {
						"codeDepositCost": "595800",
						"executionCost": "49165",
						"totalCost": "644965"
					},
					"external": {
						"": "174",
						"addressToAmountFunded(address)": "2837",
						"balance()": "383",
						"fund()": "infinite",
						"funders(uint256)": "5022",
						"getConversionRate(uint256)": "infinite",
						"getPrice()": "infinite",
						"owner()": "2581",
						"withdraw()": "infinite"
					}
				},
				"methodIdentifiers": {
					"addressToAmountFunded(address)": "3e47d6f3",
					"balance()": "b69ef8a8",
					"fund()": "b60d4288",
					"funders(uint256)": "dc0d3dff",
					"getConversionRate(uint256)": "6e5b6b28",
					"getPrice()": "98d5fdca",
					"owner()": "8da5cb5b",
					"withdraw()": "3ccfd60b"
				}
			},
			"storageLayout": {
				"storage": [
					{
						"astId": 52,
						"contract": "NFTFractionalization/contracts/src/fundraise.sol:fundraise",
						"label": "addressToAmountFunded",
						"offset": 0,
						"slot": "0",
						"type": "t_mapping(t_address,t_uint256)"
					},
					{
						"astId": 55,
						"contract": "NFTFractionalization/contracts/src/fundraise.sol:fundraise",
						"label": "funders",
						"offset": 0,
						"slot": "1",
						"type": "t_array(t_address)dyn_storage"
					},
					{
						"astId": 57,
						"contract": "NFTFractionalization/contracts/src/fundraise.sol:fundraise",
						"label": "owner",
						"offset": 0,
						"slot": "2",
						"type": "t_address"
					},
					{
						"astId": 60,
						"contract": "NFTFractionalization/contracts/src/fundraise.sol:fundraise",
						"label": "ethFeed",
						"offset": 0,
						"slot": "3",
						"type": "t_contract(AggregatorV3Interface)45"
					}
				],
				"types": {
					"t_address": {
						"encoding": "inplace",
						"label": "address",
						"numberOfBytes": "20"
					},
					"t_array(t_address)dyn_storage": {
						"base": "t_address",
						"encoding": "dynamic_array",
						"label": "address[]",
						"numberOfBytes": "32"
					},
					"t_contract(AggregatorV3Interface)45": {
						"encoding": "inplace",
						"label": "contract AggregatorV3Interface",
						"numberOfBytes": "20"
					},
					"t_mapping(t_address,t_uint256)": {
						"encoding": "mapping",
						"key": "t_address",
						"label": "mapping(address => uint256)",
						"numberOfBytes": "32",
						"value": "t_uint256"
					},
					"t_uint256": {
						"encoding": "inplace",
						"label": "uint256",
						"numberOfBytes": "32"
					}
				}
			},
			"userdoc": {
				"kind": "user",
				"methods": {
					"getPrice()": {
						"notice": "Returns the latest price"
					}
				},
				"version": 1
			}
		}
	}
}