{
	"NFTFractionalization/contracts/src/fundraise.sol": {
		"fundraise": {
			"abi": [
				{
					"inputs": [],
					"stateMutability": "nonpayable",
					"type": "constructor"
				},
				{
					"stateMutability": "payable",
					"type": "fallback"
				},
				{
					"inputs": [
						{
							"internalType": "address",
							"name": "",
							"type": "address"
						}
					],
					"name": "addressToAmountFunded",
					"outputs": [
						{
							"internalType": "uint256",
							"name": "",
							"type": "uint256"
						}
					],
					"stateMutability": "view",
					"type": "function"
				},
				{
					"inputs": [],
					"name": "fund",
					"outputs": [],
					"stateMutability": "payable",
					"type": "function"
				},
				{
					"inputs": [
						{
							"internalType": "uint256",
							"name": "",
							"type": "uint256"
						}
					],
					"name": "funders",
					"outputs": [
						{
							"internalType": "address",
							"name": "",
							"type": "address"
						}
					],
					"stateMutability": "view",
					"type": "function"
				},
				{
					"inputs": [],
					"name": "owner",
					"outputs": [
						{
							"internalType": "address",
							"name": "",
							"type": "address"
						}
					],
					"stateMutability": "view",
					"type": "function"
				},
				{
					"inputs": [],
					"name": "withdraw",
					"outputs": [],
					"stateMutability": "payable",
					"type": "function"
				},
				{
					"stateMutability": "payable",
					"type": "receive"
				}
			],
			"devdoc": {
				"kind": "dev",
				"methods": {},
				"version": 1
			},
			"evm": {
				"assembly": "    /* \"NFTFractionalization/contracts/src/fundraise.sol\":344:2812  contract fundraise {... */\n  mstore(0x40, 0x80)\n    /* \"NFTFractionalization/contracts/src/fundraise.sol\":585:719  constructor() {... */\n  callvalue\n  dup1\n  iszero\n  tag_1\n  jumpi\n  0x00\n  dup1\n  revert\ntag_1:\n  pop\n    /* \"NFTFractionalization/contracts/src/fundraise.sol\":617:627  msg.sender */\n  caller\n    /* \"NFTFractionalization/contracts/src/fundraise.sol\":609:614  owner */\n  0x02\n  0x00\n    /* \"NFTFractionalization/contracts/src/fundraise.sol\":609:627  owner = msg.sender */\n  0x0100\n  exp\n  dup2\n  sload\n  dup2\n  0xffffffffffffffffffffffffffffffffffffffff\n  mul\n  not\n  and\n  swap1\n  dup4\n  0xffffffffffffffffffffffffffffffffffffffff\n  and\n  mul\n  or\n  swap1\n  sstore\n  pop\n    /* \"NFTFractionalization/contracts/src/fundraise.sol\":669:711  0x9326BFA02ADD2366b30bacB125260Af641031331 */\n  0x9326bfa02add2366b30bacb125260af641031331\n    /* \"NFTFractionalization/contracts/src/fundraise.sol\":637:644  ethFeed */\n  0x03\n  0x00\n    /* \"NFTFractionalization/contracts/src/fundraise.sol\":637:712  ethFeed = AggregatorV3Interface(0x9326BFA02ADD2366b30bacB125260Af641031331) */\n  0x0100\n  exp\n  dup2\n  sload\n  dup2\n  0xffffffffffffffffffffffffffffffffffffffff\n  mul\n  not\n  and\n  swap1\n  dup4\n  0xffffffffffffffffffffffffffffffffffffffff\n  and\n  mul\n  or\n  swap1\n  sstore\n  pop\n    /* \"NFTFractionalization/contracts/src/fundraise.sol\":344:2812  contract fundraise {... */\n  dataSize(sub_0)\n  dup1\n  dataOffset(sub_0)\n  0x00\n  codecopy\n  0x00\n  return\nstop\n\nsub_0: assembly {\n        /* \"NFTFractionalization/contracts/src/fundraise.sol\":344:2812  contract fundraise {... */\n      mstore(0x40, 0x80)\n      jumpi(tag_1, lt(calldatasize, 0x04))\n      shr(0xe0, calldataload(0x00))\n      dup1\n      0x3ccfd60b\n      eq\n      tag_3\n      jumpi\n      dup1\n      0x3e47d6f3\n      eq\n      tag_4\n      jumpi\n      dup1\n      0x8da5cb5b\n      eq\n      tag_5\n      jumpi\n      dup1\n      0xb60d4288\n      eq\n      tag_6\n      jumpi\n      dup1\n      0xdc0d3dff\n      eq\n      tag_7\n      jumpi\n      jump(tag_2)\n    tag_1:\n      jumpi(tag_2, calldatasize)\n      stop\n    tag_2:\n      stop\n        /* \"NFTFractionalization/contracts/src/fundraise.sol\":2281:2590  function withdraw() payable onlyOwner public {... */\n    tag_3:\n      tag_12\n      tag_13\n      jump\t// in\n    tag_12:\n      stop\n        /* \"NFTFractionalization/contracts/src/fundraise.sol\":418:474  mapping(address => uint256) public addressToAmountFunded */\n    tag_4:\n      callvalue\n      dup1\n      iszero\n      tag_14\n      jumpi\n      0x00\n      dup1\n      revert\n    tag_14:\n      pop\n      tag_15\n      0x04\n      dup1\n      calldatasize\n      sub\n      dup2\n      add\n      swap1\n      tag_16\n      swap2\n      swap1\n      tag_17\n      jump\t// in\n    tag_16:\n      tag_18\n      jump\t// in\n    tag_15:\n      mload(0x40)\n      tag_19\n      swap2\n      swap1\n      tag_20\n      jump\t// in\n    tag_19:\n      mload(0x40)\n      dup1\n      swap2\n      sub\n      swap1\n      return\n        /* \"NFTFractionalization/contracts/src/fundraise.sol\":510:530  address public owner */\n    tag_5:\n      callvalue\n      dup1\n      iszero\n      tag_21\n      jumpi\n      0x00\n      dup1\n      revert\n    tag_21:\n      pop\n      tag_22\n      tag_23\n      jump\t// in\n    tag_22:\n      mload(0x40)\n      tag_24\n      swap2\n      swap1\n      tag_25\n      jump\t// in\n    tag_24:\n      mload(0x40)\n      dup1\n      swap2\n      sub\n      swap1\n      return\n        /* \"NFTFractionalization/contracts/src/fundraise.sol\":729:996  function fund() public payable {... */\n    tag_6:\n      tag_26\n      tag_27\n      jump\t// in\n    tag_26:\n      stop\n        /* \"NFTFractionalization/contracts/src/fundraise.sol\":480:504  address[] public funders */\n    tag_7:\n      callvalue\n      dup1\n      iszero\n      tag_28\n      jumpi\n      0x00\n      dup1\n      revert\n    tag_28:\n      pop\n      tag_29\n      0x04\n      dup1\n      calldatasize\n      sub\n      dup2\n      add\n      swap1\n      tag_30\n      swap2\n      swap1\n      tag_31\n      jump\t// in\n    tag_30:\n      tag_32\n      jump\t// in\n    tag_29:\n      mload(0x40)\n      tag_33\n      swap2\n      swap1\n      tag_25\n      jump\t// in\n    tag_33:\n      mload(0x40)\n      dup1\n      swap2\n      sub\n      swap1\n      return\n        /* \"NFTFractionalization/contracts/src/fundraise.sol\":2281:2590  function withdraw() payable onlyOwner public {... */\n    tag_13:\n        /* \"NFTFractionalization/contracts/src/fundraise.sol\":2247:2252  owner */\n      0x02\n      0x00\n      swap1\n      sload\n      swap1\n      0x0100\n      exp\n      swap1\n      div\n      0xffffffffffffffffffffffffffffffffffffffff\n      and\n        /* \"NFTFractionalization/contracts/src/fundraise.sol\":2233:2252  msg.sender == owner */\n      0xffffffffffffffffffffffffffffffffffffffff\n      and\n        /* \"NFTFractionalization/contracts/src/fundraise.sol\":2233:2243  msg.sender */\n      caller\n        /* \"NFTFractionalization/contracts/src/fundraise.sol\":2233:2252  msg.sender == owner */\n      0xffffffffffffffffffffffffffffffffffffffff\n      and\n      eq\n        /* \"NFTFractionalization/contracts/src/fundraise.sol\":2225:2253  require(msg.sender == owner) */\n      tag_35\n      jumpi\n      0x00\n      dup1\n      revert\n    tag_35:\n        /* \"NFTFractionalization/contracts/src/fundraise.sol\":2344:2354  msg.sender */\n      caller\n        /* \"NFTFractionalization/contracts/src/fundraise.sol\":2336:2364  payable(msg.sender).transfer */\n      0xffffffffffffffffffffffffffffffffffffffff\n      and\n        /* \"NFTFractionalization/contracts/src/fundraise.sol\":2336:2387  payable(msg.sender).transfer(address(this).balance) */\n      0x08fc\n        /* \"NFTFractionalization/contracts/src/fundraise.sol\":2365:2386  address(this).balance */\n      selfbalance\n        /* \"NFTFractionalization/contracts/src/fundraise.sol\":2336:2387  payable(msg.sender).transfer(address(this).balance) */\n      swap1\n      dup2\n      iszero\n      mul\n      swap1\n      mload(0x40)\n      0x00\n      mload(0x40)\n      dup1\n      dup4\n      sub\n      dup2\n      dup6\n      dup9\n      dup9\n      call\n      swap4\n      pop\n      pop\n      pop\n      pop\n      iszero\n      dup1\n      iszero\n      tag_38\n      jumpi\n      returndatasize\n      0x00\n      dup1\n      returndatacopy\n      revert(0x00, returndatasize)\n    tag_38:\n      pop\n        /* \"NFTFractionalization/contracts/src/fundraise.sol\":2411:2420  uint256 i */\n      0x00\n        /* \"NFTFractionalization/contracts/src/fundraise.sol\":2406:2548  for (uint256 i=0; i < funders.length; i++) {... */\n    tag_39:\n        /* \"NFTFractionalization/contracts/src/fundraise.sol\":2428:2435  funders */\n      0x01\n        /* \"NFTFractionalization/contracts/src/fundraise.sol\":2428:2442  funders.length */\n      dup1\n      sload\n      swap1\n      pop\n        /* \"NFTFractionalization/contracts/src/fundraise.sol\":2424:2425  i */\n      dup2\n        /* \"NFTFractionalization/contracts/src/fundraise.sol\":2424:2442  i < funders.length */\n      lt\n        /* \"NFTFractionalization/contracts/src/fundraise.sol\":2406:2548  for (uint256 i=0; i < funders.length; i++) {... */\n      iszero\n      tag_40\n      jumpi\n        /* \"NFTFractionalization/contracts/src/fundraise.sol\":2463:2477  address funder */\n      0x00\n        /* \"NFTFractionalization/contracts/src/fundraise.sol\":2480:2487  funders */\n      0x01\n        /* \"NFTFractionalization/contracts/src/fundraise.sol\":2488:2489  i */\n      dup3\n        /* \"NFTFractionalization/contracts/src/fundraise.sol\":2480:2490  funders[i] */\n      dup2\n      sload\n      dup2\n      lt\n      tag_42\n      jumpi\n      tag_43\n      tag_44\n      jump\t// in\n    tag_43:\n    tag_42:\n      swap1\n      0x00\n      mstore\n      keccak256(0x00, 0x20)\n      add\n      0x00\n      swap1\n      sload\n      swap1\n      0x0100\n      exp\n      swap1\n      div\n      0xffffffffffffffffffffffffffffffffffffffff\n      and\n        /* \"NFTFractionalization/contracts/src/fundraise.sol\":2463:2490  address funder = funders[i] */\n      swap1\n      pop\n        /* \"NFTFractionalization/contracts/src/fundraise.sol\":2536:2537  0 */\n      0x00\n        /* \"NFTFractionalization/contracts/src/fundraise.sol\":2504:2525  addressToAmountFunded */\n      dup1\n        /* \"NFTFractionalization/contracts/src/fundraise.sol\":2504:2533  addressToAmountFunded[funder] */\n      0x00\n        /* \"NFTFractionalization/contracts/src/fundraise.sol\":2526:2532  funder */\n      dup4\n        /* \"NFTFractionalization/contracts/src/fundraise.sol\":2504:2533  addressToAmountFunded[funder] */\n      0xffffffffffffffffffffffffffffffffffffffff\n      and\n      0xffffffffffffffffffffffffffffffffffffffff\n      and\n      dup2\n      mstore\n      0x20\n      add\n      swap1\n      dup2\n      mstore\n      0x20\n      add\n      0x00\n      keccak256\n        /* \"NFTFractionalization/contracts/src/fundraise.sol\":2504:2537  addressToAmountFunded[funder] = 0 */\n      dup2\n      swap1\n      sstore\n      pop\n        /* \"NFTFractionalization/contracts/src/fundraise.sol\":2449:2548  {... */\n      pop\n        /* \"NFTFractionalization/contracts/src/fundraise.sol\":2444:2447  i++ */\n      dup1\n      dup1\n      tag_46\n      swap1\n      tag_47\n      jump\t// in\n    tag_46:\n      swap2\n      pop\n      pop\n        /* \"NFTFractionalization/contracts/src/fundraise.sol\":2406:2548  for (uint256 i=0; i < funders.length; i++) {... */\n      jump(tag_39)\n    tag_40:\n      pop\n        /* \"NFTFractionalization/contracts/src/fundraise.sol\":2581:2582  0 */\n      0x00\n        /* \"NFTFractionalization/contracts/src/fundraise.sol\":2567:2583  new address[](0) */\n      0xffffffffffffffff\n      dup2\n      gt\n      iszero\n      tag_48\n      jumpi\n      tag_49\n      tag_50\n      jump\t// in\n    tag_49:\n    tag_48:\n      mload(0x40)\n      swap1\n      dup1\n      dup3\n      mstore\n      dup1\n      0x20\n      mul\n      0x20\n      add\n      dup3\n      add\n      0x40\n      mstore\n      dup1\n      iszero\n      tag_51\n      jumpi\n      dup2\n      0x20\n      add\n      0x20\n      dup3\n      mul\n      dup1\n      calldatasize\n      dup4\n      calldatacopy\n      dup1\n      dup3\n      add\n      swap2\n      pop\n      pop\n      swap1\n      pop\n    tag_51:\n      pop\n        /* \"NFTFractionalization/contracts/src/fundraise.sol\":2557:2564  funders */\n      0x01\n        /* \"NFTFractionalization/contracts/src/fundraise.sol\":2557:2583  funders = new address[](0) */\n      swap1\n      dup1\n      mload\n      swap1\n      0x20\n      add\n      swap1\n      tag_52\n      swap3\n      swap2\n      swap1\n      tag_53\n      jump\t// in\n    tag_52:\n      pop\n        /* \"NFTFractionalization/contracts/src/fundraise.sol\":2281:2590  function withdraw() payable onlyOwner public {... */\n      jump\t// out\n        /* \"NFTFractionalization/contracts/src/fundraise.sol\":418:474  mapping(address => uint256) public addressToAmountFunded */\n    tag_18:\n      mstore(0x20, 0x00)\n      dup1\n      0x00\n      mstore\n      keccak256(0x00, 0x40)\n      0x00\n      swap2\n      pop\n      swap1\n      pop\n      sload\n      dup2\n      jump\t// out\n        /* \"NFTFractionalization/contracts/src/fundraise.sol\":510:530  address public owner */\n    tag_23:\n      0x02\n      0x00\n      swap1\n      sload\n      swap1\n      0x0100\n      exp\n      swap1\n      div\n      0xffffffffffffffffffffffffffffffffffffffff\n      and\n      dup2\n      jump\t// out\n        /* \"NFTFractionalization/contracts/src/fundraise.sol\":729:996  function fund() public payable {... */\n    tag_27:\n        /* \"NFTFractionalization/contracts/src/fundraise.sol\":770:788  uint256 minimumUSD */\n      0x00\n        /* \"NFTFractionalization/contracts/src/fundraise.sol\":791:804  50 * 10 ** 18 */\n      0x02b5e3af16b1880000\n        /* \"NFTFractionalization/contracts/src/fundraise.sol\":770:804  uint256 minimumUSD = 50 * 10 ** 18 */\n      swap1\n      pop\n        /* \"NFTFractionalization/contracts/src/fundraise.sol\":946:955  msg.value */\n      callvalue\n        /* \"NFTFractionalization/contracts/src/fundraise.sol\":909:930  addressToAmountFunded */\n      0x00\n        /* \"NFTFractionalization/contracts/src/fundraise.sol\":909:942  addressToAmountFunded[msg.sender] */\n      dup1\n        /* \"NFTFractionalization/contracts/src/fundraise.sol\":931:941  msg.sender */\n      caller\n        /* \"NFTFractionalization/contracts/src/fundraise.sol\":909:942  addressToAmountFunded[msg.sender] */\n      0xffffffffffffffffffffffffffffffffffffffff\n      and\n      0xffffffffffffffffffffffffffffffffffffffff\n      and\n      dup2\n      mstore\n      0x20\n      add\n      swap1\n      dup2\n      mstore\n      0x20\n      add\n      0x00\n      keccak256\n      0x00\n        /* \"NFTFractionalization/contracts/src/fundraise.sol\":909:955  addressToAmountFunded[msg.sender] += msg.value */\n      dup3\n      dup3\n      sload\n      tag_55\n      swap2\n      swap1\n      tag_56\n      jump\t// in\n    tag_55:\n      swap3\n      pop\n      pop\n      dup2\n      swap1\n      sstore\n      pop\n        /* \"NFTFractionalization/contracts/src/fundraise.sol\":965:972  funders */\n      0x01\n        /* \"NFTFractionalization/contracts/src/fundraise.sol\":978:988  msg.sender */\n      caller\n        /* \"NFTFractionalization/contracts/src/fundraise.sol\":965:989  funders.push(msg.sender) */\n      swap1\n      dup1\n      0x01\n      dup2\n      sload\n      add\n      dup1\n      dup3\n      sstore\n      dup1\n      swap2\n      pop\n      pop\n      0x01\n      swap1\n      sub\n      swap1\n      0x00\n      mstore\n      keccak256(0x00, 0x20)\n      add\n      0x00\n      swap1\n      swap2\n      swap1\n      swap2\n      swap1\n      swap2\n      0x0100\n      exp\n      dup2\n      sload\n      dup2\n      0xffffffffffffffffffffffffffffffffffffffff\n      mul\n      not\n      and\n      swap1\n      dup4\n      0xffffffffffffffffffffffffffffffffffffffff\n      and\n      mul\n      or\n      swap1\n      sstore\n      pop\n        /* \"NFTFractionalization/contracts/src/fundraise.sol\":760:996  {... */\n      pop\n        /* \"NFTFractionalization/contracts/src/fundraise.sol\":729:996  function fund() public payable {... */\n      jump\t// out\n        /* \"NFTFractionalization/contracts/src/fundraise.sol\":480:504  address[] public funders */\n    tag_32:\n      0x01\n      dup2\n      dup2\n      sload\n      dup2\n      lt\n      tag_58\n      jumpi\n      0x00\n      dup1\n      revert\n    tag_58:\n      swap1\n      0x00\n      mstore\n      keccak256(0x00, 0x20)\n      add\n      0x00\n      swap2\n      pop\n      sload\n      swap1\n      0x0100\n      exp\n      swap1\n      div\n      0xffffffffffffffffffffffffffffffffffffffff\n      and\n      dup2\n      jump\t// out\n    tag_53:\n      dup3\n      dup1\n      sload\n      dup3\n      dup3\n      sstore\n      swap1\n      0x00\n      mstore\n      keccak256(0x00, 0x20)\n      swap1\n      dup2\n      add\n      swap3\n      dup3\n      iszero\n      tag_60\n      jumpi\n      swap2\n      0x20\n      mul\n      dup3\n      add\n    tag_61:\n      dup3\n      dup2\n      gt\n      iszero\n      tag_62\n      jumpi\n      dup3\n      mload\n      dup3\n      exp(0x0100, 0x00)\n      dup2\n      sload\n      dup2\n      0xffffffffffffffffffffffffffffffffffffffff\n      mul\n      not\n      and\n      swap1\n      dup4\n      0xffffffffffffffffffffffffffffffffffffffff\n      and\n      mul\n      or\n      swap1\n      sstore\n      pop\n      swap2\n      0x20\n      add\n      swap2\n      swap1\n      0x01\n      add\n      swap1\n      jump(tag_61)\n    tag_62:\n    tag_60:\n      pop\n      swap1\n      pop\n      tag_63\n      swap2\n      swap1\n      tag_64\n      jump\t// in\n    tag_63:\n      pop\n      swap1\n      jump\t// out\n    tag_64:\n    tag_65:\n      dup1\n      dup3\n      gt\n      iszero\n      tag_66\n      jumpi\n      0x00\n      dup2\n      0x00\n      swap1\n      sstore\n      pop\n      0x01\n      add\n      jump(tag_65)\n    tag_66:\n      pop\n      swap1\n      jump\t// out\n        /* \"#utility.yul\":7:146   */\n    tag_68:\n        /* \"#utility.yul\":53:58   */\n      0x00\n        /* \"#utility.yul\":91:97   */\n      dup2\n        /* \"#utility.yul\":78:98   */\n      calldataload\n        /* \"#utility.yul\":69:98   */\n      swap1\n      pop\n        /* \"#utility.yul\":107:140   */\n      tag_70\n        /* \"#utility.yul\":134:139   */\n      dup2\n        /* \"#utility.yul\":107:140   */\n      tag_71\n      jump\t// in\n    tag_70:\n        /* \"#utility.yul\":7:146   */\n      swap3\n      swap2\n      pop\n      pop\n      jump\t// out\n        /* \"#utility.yul\":152:291   */\n    tag_72:\n        /* \"#utility.yul\":198:203   */\n      0x00\n        /* \"#utility.yul\":236:242   */\n      dup2\n        /* \"#utility.yul\":223:243   */\n      calldataload\n        /* \"#utility.yul\":214:243   */\n      swap1\n      pop\n        /* \"#utility.yul\":252:285   */\n      tag_74\n        /* \"#utility.yul\":279:284   */\n      dup2\n        /* \"#utility.yul\":252:285   */\n      tag_75\n      jump\t// in\n    tag_74:\n        /* \"#utility.yul\":152:291   */\n      swap3\n      swap2\n      pop\n      pop\n      jump\t// out\n        /* \"#utility.yul\":297:626   */\n    tag_17:\n        /* \"#utility.yul\":356:362   */\n      0x00\n        /* \"#utility.yul\":405:407   */\n      0x20\n        /* \"#utility.yul\":393:402   */\n      dup3\n        /* \"#utility.yul\":384:391   */\n      dup5\n        /* \"#utility.yul\":380:403   */\n      sub\n        /* \"#utility.yul\":376:408   */\n      slt\n        /* \"#utility.yul\":373:492   */\n      iszero\n      tag_77\n      jumpi\n        /* \"#utility.yul\":411:490   */\n      tag_78\n      tag_79\n      jump\t// in\n    tag_78:\n        /* \"#utility.yul\":373:492   */\n    tag_77:\n        /* \"#utility.yul\":531:532   */\n      0x00\n        /* \"#utility.yul\":556:609   */\n      tag_80\n        /* \"#utility.yul\":601:608   */\n      dup5\n        /* \"#utility.yul\":592:598   */\n      dup3\n        /* \"#utility.yul\":581:590   */\n      dup6\n        /* \"#utility.yul\":577:599   */\n      add\n        /* \"#utility.yul\":556:609   */\n      tag_68\n      jump\t// in\n    tag_80:\n        /* \"#utility.yul\":546:609   */\n      swap2\n      pop\n        /* \"#utility.yul\":502:619   */\n      pop\n        /* \"#utility.yul\":297:626   */\n      swap3\n      swap2\n      pop\n      pop\n      jump\t// out\n        /* \"#utility.yul\":632:961   */\n    tag_31:\n        /* \"#utility.yul\":691:697   */\n      0x00\n        /* \"#utility.yul\":740:742   */\n      0x20\n        /* \"#utility.yul\":728:737   */\n      dup3\n        /* \"#utility.yul\":719:726   */\n      dup5\n        /* \"#utility.yul\":715:738   */\n      sub\n        /* \"#utility.yul\":711:743   */\n      slt\n        /* \"#utility.yul\":708:827   */\n      iszero\n      tag_82\n      jumpi\n        /* \"#utility.yul\":746:825   */\n      tag_83\n      tag_79\n      jump\t// in\n    tag_83:\n        /* \"#utility.yul\":708:827   */\n    tag_82:\n        /* \"#utility.yul\":866:867   */\n      0x00\n        /* \"#utility.yul\":891:944   */\n      tag_84\n        /* \"#utility.yul\":936:943   */\n      dup5\n        /* \"#utility.yul\":927:933   */\n      dup3\n        /* \"#utility.yul\":916:925   */\n      dup6\n        /* \"#utility.yul\":912:934   */\n      add\n        /* \"#utility.yul\":891:944   */\n      tag_72\n      jump\t// in\n    tag_84:\n        /* \"#utility.yul\":881:944   */\n      swap2\n      pop\n        /* \"#utility.yul\":837:954   */\n      pop\n        /* \"#utility.yul\":632:961   */\n      swap3\n      swap2\n      pop\n      pop\n      jump\t// out\n        /* \"#utility.yul\":967:1085   */\n    tag_85:\n        /* \"#utility.yul\":1054:1078   */\n      tag_87\n        /* \"#utility.yul\":1072:1077   */\n      dup2\n        /* \"#utility.yul\":1054:1078   */\n      tag_88\n      jump\t// in\n    tag_87:\n        /* \"#utility.yul\":1049:1052   */\n      dup3\n        /* \"#utility.yul\":1042:1079   */\n      mstore\n        /* \"#utility.yul\":967:1085   */\n      pop\n      pop\n      jump\t// out\n        /* \"#utility.yul\":1091:1209   */\n    tag_89:\n        /* \"#utility.yul\":1178:1202   */\n      tag_91\n        /* \"#utility.yul\":1196:1201   */\n      dup2\n        /* \"#utility.yul\":1178:1202   */\n      tag_92\n      jump\t// in\n    tag_91:\n        /* \"#utility.yul\":1173:1176   */\n      dup3\n        /* \"#utility.yul\":1166:1203   */\n      mstore\n        /* \"#utility.yul\":1091:1209   */\n      pop\n      pop\n      jump\t// out\n        /* \"#utility.yul\":1215:1437   */\n    tag_25:\n        /* \"#utility.yul\":1308:1312   */\n      0x00\n        /* \"#utility.yul\":1346:1348   */\n      0x20\n        /* \"#utility.yul\":1335:1344   */\n      dup3\n        /* \"#utility.yul\":1331:1349   */\n      add\n        /* \"#utility.yul\":1323:1349   */\n      swap1\n      pop\n        /* \"#utility.yul\":1359:1430   */\n      tag_94\n        /* \"#utility.yul\":1427:1428   */\n      0x00\n        /* \"#utility.yul\":1416:1425   */\n      dup4\n        /* \"#utility.yul\":1412:1429   */\n      add\n        /* \"#utility.yul\":1403:1409   */\n      dup5\n        /* \"#utility.yul\":1359:1430   */\n      tag_85\n      jump\t// in\n    tag_94:\n        /* \"#utility.yul\":1215:1437   */\n      swap3\n      swap2\n      pop\n      pop\n      jump\t// out\n        /* \"#utility.yul\":1443:1665   */\n    tag_20:\n        /* \"#utility.yul\":1536:1540   */\n      0x00\n        /* \"#utility.yul\":1574:1576   */\n      0x20\n        /* \"#utility.yul\":1563:1572   */\n      dup3\n        /* \"#utility.yul\":1559:1577   */\n      add\n        /* \"#utility.yul\":1551:1577   */\n      swap1\n      pop\n        /* \"#utility.yul\":1587:1658   */\n      tag_96\n        /* \"#utility.yul\":1655:1656   */\n      0x00\n        /* \"#utility.yul\":1644:1653   */\n      dup4\n        /* \"#utility.yul\":1640:1657   */\n      add\n        /* \"#utility.yul\":1631:1637   */\n      dup5\n        /* \"#utility.yul\":1587:1658   */\n      tag_89\n      jump\t// in\n    tag_96:\n        /* \"#utility.yul\":1443:1665   */\n      swap3\n      swap2\n      pop\n      pop\n      jump\t// out\n        /* \"#utility.yul\":1752:2057   */\n    tag_56:\n        /* \"#utility.yul\":1792:1795   */\n      0x00\n        /* \"#utility.yul\":1811:1831   */\n      tag_100\n        /* \"#utility.yul\":1829:1830   */\n      dup3\n        /* \"#utility.yul\":1811:1831   */\n      tag_92\n      jump\t// in\n    tag_100:\n        /* \"#utility.yul\":1806:1831   */\n      swap2\n      pop\n        /* \"#utility.yul\":1845:1865   */\n      tag_101\n        /* \"#utility.yul\":1863:1864   */\n      dup4\n        /* \"#utility.yul\":1845:1865   */\n      tag_92\n      jump\t// in\n    tag_101:\n        /* \"#utility.yul\":1840:1865   */\n      swap3\n      pop\n        /* \"#utility.yul\":1999:2000   */\n      dup3\n        /* \"#utility.yul\":1931:1997   */\n      0xffffffffffffffffffffffffffffffffffffffffffffffffffffffffffffffff\n        /* \"#utility.yul\":1927:2001   */\n      sub\n        /* \"#utility.yul\":1924:1925   */\n      dup3\n        /* \"#utility.yul\":1921:2002   */\n      gt\n        /* \"#utility.yul\":1918:2025   */\n      iszero\n      tag_102\n      jumpi\n        /* \"#utility.yul\":2005:2023   */\n      tag_103\n      tag_104\n      jump\t// in\n    tag_103:\n        /* \"#utility.yul\":1918:2025   */\n    tag_102:\n        /* \"#utility.yul\":2049:2050   */\n      dup3\n        /* \"#utility.yul\":2046:2047   */\n      dup3\n        /* \"#utility.yul\":2042:2051   */\n      add\n        /* \"#utility.yul\":2035:2051   */\n      swap1\n      pop\n        /* \"#utility.yul\":1752:2057   */\n      swap3\n      swap2\n      pop\n      pop\n      jump\t// out\n        /* \"#utility.yul\":2063:2159   */\n    tag_88:\n        /* \"#utility.yul\":2100:2107   */\n      0x00\n        /* \"#utility.yul\":2129:2153   */\n      tag_106\n        /* \"#utility.yul\":2147:2152   */\n      dup3\n        /* \"#utility.yul\":2129:2153   */\n      tag_107\n      jump\t// in\n    tag_106:\n        /* \"#utility.yul\":2118:2153   */\n      swap1\n      pop\n        /* \"#utility.yul\":2063:2159   */\n      swap2\n      swap1\n      pop\n      jump\t// out\n        /* \"#utility.yul\":2165:2291   */\n    tag_107:\n        /* \"#utility.yul\":2202:2209   */\n      0x00\n        /* \"#utility.yul\":2242:2284   */\n      0xffffffffffffffffffffffffffffffffffffffff\n        /* \"#utility.yul\":2235:2240   */\n      dup3\n        /* \"#utility.yul\":2231:2285   */\n      and\n        /* \"#utility.yul\":2220:2285   */\n      swap1\n      pop\n        /* \"#utility.yul\":2165:2291   */\n      swap2\n      swap1\n      pop\n      jump\t// out\n        /* \"#utility.yul\":2297:2374   */\n    tag_92:\n        /* \"#utility.yul\":2334:2341   */\n      0x00\n        /* \"#utility.yul\":2363:2368   */\n      dup2\n        /* \"#utility.yul\":2352:2368   */\n      swap1\n      pop\n        /* \"#utility.yul\":2297:2374   */\n      swap2\n      swap1\n      pop\n      jump\t// out\n        /* \"#utility.yul\":2380:2613   */\n    tag_47:\n        /* \"#utility.yul\":2419:2422   */\n      0x00\n        /* \"#utility.yul\":2442:2466   */\n      tag_111\n        /* \"#utility.yul\":2460:2465   */\n      dup3\n        /* \"#utility.yul\":2442:2466   */\n      tag_92\n      jump\t// in\n    tag_111:\n        /* \"#utility.yul\":2433:2466   */\n      swap2\n      pop\n        /* \"#utility.yul\":2488:2554   */\n      0xffffffffffffffffffffffffffffffffffffffffffffffffffffffffffffffff\n        /* \"#utility.yul\":2481:2486   */\n      dup3\n        /* \"#utility.yul\":2478:2555   */\n      eq\n        /* \"#utility.yul\":2475:2578   */\n      iszero\n      tag_112\n      jumpi\n        /* \"#utility.yul\":2558:2576   */\n      tag_113\n      tag_104\n      jump\t// in\n    tag_113:\n        /* \"#utility.yul\":2475:2578   */\n    tag_112:\n        /* \"#utility.yul\":2605:2606   */\n      0x01\n        /* \"#utility.yul\":2598:2603   */\n      dup3\n        /* \"#utility.yul\":2594:2607   */\n      add\n        /* \"#utility.yul\":2587:2607   */\n      swap1\n      pop\n        /* \"#utility.yul\":2380:2613   */\n      swap2\n      swap1\n      pop\n      jump\t// out\n        /* \"#utility.yul\":2619:2799   */\n    tag_104:\n        /* \"#utility.yul\":2667:2744   */\n      0x4e487b7100000000000000000000000000000000000000000000000000000000\n        /* \"#utility.yul\":2664:2665   */\n      0x00\n        /* \"#utility.yul\":2657:2745   */\n      mstore\n        /* \"#utility.yul\":2764:2768   */\n      0x11\n        /* \"#utility.yul\":2761:2762   */\n      0x04\n        /* \"#utility.yul\":2754:2769   */\n      mstore\n        /* \"#utility.yul\":2788:2792   */\n      0x24\n        /* \"#utility.yul\":2785:2786   */\n      0x00\n        /* \"#utility.yul\":2778:2793   */\n      revert\n        /* \"#utility.yul\":2805:2985   */\n    tag_44:\n        /* \"#utility.yul\":2853:2930   */\n      0x4e487b7100000000000000000000000000000000000000000000000000000000\n        /* \"#utility.yul\":2850:2851   */\n      0x00\n        /* \"#utility.yul\":2843:2931   */\n      mstore\n        /* \"#utility.yul\":2950:2954   */\n      0x32\n        /* \"#utility.yul\":2947:2948   */\n      0x04\n        /* \"#utility.yul\":2940:2955   */\n      mstore\n        /* \"#utility.yul\":2974:2978   */\n      0x24\n        /* \"#utility.yul\":2971:2972   */\n      0x00\n        /* \"#utility.yul\":2964:2979   */\n      revert\n        /* \"#utility.yul\":2991:3171   */\n    tag_50:\n        /* \"#utility.yul\":3039:3116   */\n      0x4e487b7100000000000000000000000000000000000000000000000000000000\n        /* \"#utility.yul\":3036:3037   */\n      0x00\n        /* \"#utility.yul\":3029:3117   */\n      mstore\n        /* \"#utility.yul\":3136:3140   */\n      0x41\n        /* \"#utility.yul\":3133:3134   */\n      0x04\n        /* \"#utility.yul\":3126:3141   */\n      mstore\n        /* \"#utility.yul\":3160:3164   */\n      0x24\n        /* \"#utility.yul\":3157:3158   */\n      0x00\n        /* \"#utility.yul\":3150:3165   */\n      revert\n        /* \"#utility.yul\":3300:3417   */\n    tag_79:\n        /* \"#utility.yul\":3409:3410   */\n      0x00\n        /* \"#utility.yul\":3406:3407   */\n      dup1\n        /* \"#utility.yul\":3399:3411   */\n      revert\n        /* \"#utility.yul\":3423:3545   */\n    tag_71:\n        /* \"#utility.yul\":3496:3520   */\n      tag_121\n        /* \"#utility.yul\":3514:3519   */\n      dup2\n        /* \"#utility.yul\":3496:3520   */\n      tag_88\n      jump\t// in\n    tag_121:\n        /* \"#utility.yul\":3489:3494   */\n      dup2\n        /* \"#utility.yul\":3486:3521   */\n      eq\n        /* \"#utility.yul\":3476:3539   */\n      tag_122\n      jumpi\n        /* \"#utility.yul\":3535:3536   */\n      0x00\n        /* \"#utility.yul\":3532:3533   */\n      dup1\n        /* \"#utility.yul\":3525:3537   */\n      revert\n        /* \"#utility.yul\":3476:3539   */\n    tag_122:\n        /* \"#utility.yul\":3423:3545   */\n      pop\n      jump\t// out\n        /* \"#utility.yul\":3551:3673   */\n    tag_75:\n        /* \"#utility.yul\":3624:3648   */\n      tag_124\n        /* \"#utility.yul\":3642:3647   */\n      dup2\n        /* \"#utility.yul\":3624:3648   */\n      tag_92\n      jump\t// in\n    tag_124:\n        /* \"#utility.yul\":3617:3622   */\n      dup2\n        /* \"#utility.yul\":3614:3649   */\n      eq\n        /* \"#utility.yul\":3604:3667   */\n      tag_125\n      jumpi\n        /* \"#utility.yul\":3663:3664   */\n      0x00\n        /* \"#utility.yul\":3660:3661   */\n      dup1\n        /* \"#utility.yul\":3653:3665   */\n      revert\n        /* \"#utility.yul\":3604:3667   */\n    tag_125:\n        /* \"#utility.yul\":3551:3673   */\n      pop\n      jump\t// out\n\n    auxdata: 0xa26469706673582212203eebe4711bb0462bfb59654a406993f206c1cf926727afdc19348d1984cca0e264736f6c63430008070033\n}\n",
				"bytecode": {
					"linkReferences": {},
					"object": "608060405234801561001057600080fd5b5033600260006101000a81548173ffffffffffffffffffffffffffffffffffffffff021916908373ffffffffffffffffffffffffffffffffffffffff160217905550739326bfa02add2366b30bacb125260af641031331600360006101000a81548173ffffffffffffffffffffffffffffffffffffffff021916908373ffffffffffffffffffffffffffffffffffffffff160217905550610755806100b66000396000f3fe60806040526004361061004e5760003560e01c80633ccfd60b146100575780633e47d6f3146100615780638da5cb5b1461009e578063b60d4288146100c9578063dc0d3dff146100d357610055565b3661005557005b005b61005f610110565b005b34801561006d57600080fd5b50610088600480360381019061008391906104d6565b6102bf565b6040516100959190610569565b60405180910390f35b3480156100aa57600080fd5b506100b36102d7565b6040516100c0919061054e565b60405180910390f35b6100d16102fd565b005b3480156100df57600080fd5b506100fa60048036038101906100f59190610503565b6103c6565b604051610107919061054e565b60405180910390f35b600260009054906101000a900473ffffffffffffffffffffffffffffffffffffffff1673ffffffffffffffffffffffffffffffffffffffff163373ffffffffffffffffffffffffffffffffffffffff161461016a57600080fd5b3373ffffffffffffffffffffffffffffffffffffffff166108fc479081150290604051600060405180830381858888f193505050501580156101b0573d6000803e3d6000fd5b5060005b60018054905081101561025c576000600182815481106101d7576101d661068e565b5b9060005260206000200160009054906101000a900473ffffffffffffffffffffffffffffffffffffffff16905060008060008373ffffffffffffffffffffffffffffffffffffffff1673ffffffffffffffffffffffffffffffffffffffff1681526020019081526020016000208190555050808061025490610616565b9150506101b4565b50600067ffffffffffffffff811115610278576102776106bd565b5b6040519080825280602002602001820160405280156102a65781602001602082028036833780820191505090505b50600190805190602001906102bc929190610405565b50565b60006020528060005260406000206000915090505481565b600260009054906101000a900473ffffffffffffffffffffffffffffffffffffffff1681565b60006802b5e3af16b18800009050346000803373ffffffffffffffffffffffffffffffffffffffff1673ffffffffffffffffffffffffffffffffffffffff16815260200190815260200160002060008282546103599190610584565b925050819055506001339080600181540180825580915050600190039060005260206000200160009091909190916101000a81548173ffffffffffffffffffffffffffffffffffffffff021916908373ffffffffffffffffffffffffffffffffffffffff16021790555050565b600181815481106103d657600080fd5b906000526020600020016000915054906101000a900473ffffffffffffffffffffffffffffffffffffffff1681565b82805482825590600052602060002090810192821561047e579160200282015b8281111561047d5782518260006101000a81548173ffffffffffffffffffffffffffffffffffffffff021916908373ffffffffffffffffffffffffffffffffffffffff16021790555091602001919060010190610425565b5b50905061048b919061048f565b5090565b5b808211156104a8576000816000905550600101610490565b5090565b6000813590506104bb816106f1565b92915050565b6000813590506104d081610708565b92915050565b6000602082840312156104ec576104eb6106ec565b5b60006104fa848285016104ac565b91505092915050565b600060208284031215610519576105186106ec565b5b6000610527848285016104c1565b91505092915050565b610539816105da565b82525050565b6105488161060c565b82525050565b60006020820190506105636000830184610530565b92915050565b600060208201905061057e600083018461053f565b92915050565b600061058f8261060c565b915061059a8361060c565b9250827fffffffffffffffffffffffffffffffffffffffffffffffffffffffffffffffff038211156105cf576105ce61065f565b5b828201905092915050565b60006105e5826105ec565b9050919050565b600073ffffffffffffffffffffffffffffffffffffffff82169050919050565b6000819050919050565b60006106218261060c565b91507fffffffffffffffffffffffffffffffffffffffffffffffffffffffffffffffff8214156106545761065361065f565b5b600182019050919050565b7f4e487b7100000000000000000000000000000000000000000000000000000000600052601160045260246000fd5b7f4e487b7100000000000000000000000000000000000000000000000000000000600052603260045260246000fd5b7f4e487b7100000000000000000000000000000000000000000000000000000000600052604160045260246000fd5b600080fd5b6106fa816105da565b811461070557600080fd5b50565b6107118161060c565b811461071c57600080fd5b5056fea26469706673582212203eebe4711bb0462bfb59654a406993f206c1cf926727afdc19348d1984cca0e264736f6c63430008070033",
					"opcodes": "PUSH1 0x80 PUSH1 0x40 MSTORE CALLVALUE DUP1 ISZERO PUSH2 0x10 JUMPI PUSH1 0x0 DUP1 REVERT JUMPDEST POP CALLER PUSH1 0x2 PUSH1 0x0 PUSH2 0x100 EXP DUP2 SLOAD DUP2 PUSH20 0xFFFFFFFFFFFFFFFFFFFFFFFFFFFFFFFFFFFFFFFF MUL NOT AND SWAP1 DUP4 PUSH20 0xFFFFFFFFFFFFFFFFFFFFFFFFFFFFFFFFFFFFFFFF AND MUL OR SWAP1 SSTORE POP PUSH20 0x9326BFA02ADD2366B30BACB125260AF641031331 PUSH1 0x3 PUSH1 0x0 PUSH2 0x100 EXP DUP2 SLOAD DUP2 PUSH20 0xFFFFFFFFFFFFFFFFFFFFFFFFFFFFFFFFFFFFFFFF MUL NOT AND SWAP1 DUP4 PUSH20 0xFFFFFFFFFFFFFFFFFFFFFFFFFFFFFFFFFFFFFFFF AND MUL OR SWAP1 SSTORE POP PUSH2 0x755 DUP1 PUSH2 0xB6 PUSH1 0x0 CODECOPY PUSH1 0x0 RETURN INVALID PUSH1 0x80 PUSH1 0x40 MSTORE PUSH1 0x4 CALLDATASIZE LT PUSH2 0x4E JUMPI PUSH1 0x0 CALLDATALOAD PUSH1 0xE0 SHR DUP1 PUSH4 0x3CCFD60B EQ PUSH2 0x57 JUMPI DUP1 PUSH4 0x3E47D6F3 EQ PUSH2 0x61 JUMPI DUP1 PUSH4 0x8DA5CB5B EQ PUSH2 0x9E JUMPI DUP1 PUSH4 0xB60D4288 EQ PUSH2 0xC9 JUMPI DUP1 PUSH4 0xDC0D3DFF EQ PUSH2 0xD3 JUMPI PUSH2 0x55 JUMP JUMPDEST CALLDATASIZE PUSH2 0x55 JUMPI STOP JUMPDEST STOP JUMPDEST PUSH2 0x5F PUSH2 0x110 JUMP JUMPDEST STOP JUMPDEST CALLVALUE DUP1 ISZERO PUSH2 0x6D JUMPI PUSH1 0x0 DUP1 REVERT JUMPDEST POP PUSH2 0x88 PUSH1 0x4 DUP1 CALLDATASIZE SUB DUP2 ADD SWAP1 PUSH2 0x83 SWAP2 SWAP1 PUSH2 0x4D6 JUMP JUMPDEST PUSH2 0x2BF JUMP JUMPDEST PUSH1 0x40 MLOAD PUSH2 0x95 SWAP2 SWAP1 PUSH2 0x569 JUMP JUMPDEST PUSH1 0x40 MLOAD DUP1 SWAP2 SUB SWAP1 RETURN JUMPDEST CALLVALUE DUP1 ISZERO PUSH2 0xAA JUMPI PUSH1 0x0 DUP1 REVERT JUMPDEST POP PUSH2 0xB3 PUSH2 0x2D7 JUMP JUMPDEST PUSH1 0x40 MLOAD PUSH2 0xC0 SWAP2 SWAP1 PUSH2 0x54E JUMP JUMPDEST PUSH1 0x40 MLOAD DUP1 SWAP2 SUB SWAP1 RETURN JUMPDEST PUSH2 0xD1 PUSH2 0x2FD JUMP JUMPDEST STOP JUMPDEST CALLVALUE DUP1 ISZERO PUSH2 0xDF JUMPI PUSH1 0x0 DUP1 REVERT JUMPDEST POP PUSH2 0xFA PUSH1 0x4 DUP1 CALLDATASIZE SUB DUP2 ADD SWAP1 PUSH2 0xF5 SWAP2 SWAP1 PUSH2 0x503 JUMP JUMPDEST PUSH2 0x3C6 JUMP JUMPDEST PUSH1 0x40 MLOAD PUSH2 0x107 SWAP2 SWAP1 PUSH2 0x54E JUMP JUMPDEST PUSH1 0x40 MLOAD DUP1 SWAP2 SUB SWAP1 RETURN JUMPDEST PUSH1 0x2 PUSH1 0x0 SWAP1 SLOAD SWAP1 PUSH2 0x100 EXP SWAP1 DIV PUSH20 0xFFFFFFFFFFFFFFFFFFFFFFFFFFFFFFFFFFFFFFFF AND PUSH20 0xFFFFFFFFFFFFFFFFFFFFFFFFFFFFFFFFFFFFFFFF AND CALLER PUSH20 0xFFFFFFFFFFFFFFFFFFFFFFFFFFFFFFFFFFFFFFFF AND EQ PUSH2 0x16A JUMPI PUSH1 0x0 DUP1 REVERT JUMPDEST CALLER PUSH20 0xFFFFFFFFFFFFFFFFFFFFFFFFFFFFFFFFFFFFFFFF AND PUSH2 0x8FC SELFBALANCE SWAP1 DUP2 ISZERO MUL SWAP1 PUSH1 0x40 MLOAD PUSH1 0x0 PUSH1 0x40 MLOAD DUP1 DUP4 SUB DUP2 DUP6 DUP9 DUP9 CALL SWAP4 POP POP POP POP ISZERO DUP1 ISZERO PUSH2 0x1B0 JUMPI RETURNDATASIZE PUSH1 0x0 DUP1 RETURNDATACOPY RETURNDATASIZE PUSH1 0x0 REVERT JUMPDEST POP PUSH1 0x0 JUMPDEST PUSH1 0x1 DUP1 SLOAD SWAP1 POP DUP2 LT ISZERO PUSH2 0x25C JUMPI PUSH1 0x0 PUSH1 0x1 DUP3 DUP2 SLOAD DUP2 LT PUSH2 0x1D7 JUMPI PUSH2 0x1D6 PUSH2 0x68E JUMP JUMPDEST JUMPDEST SWAP1 PUSH1 0x0 MSTORE PUSH1 0x20 PUSH1 0x0 KECCAK256 ADD PUSH1 0x0 SWAP1 SLOAD SWAP1 PUSH2 0x100 EXP SWAP1 DIV PUSH20 0xFFFFFFFFFFFFFFFFFFFFFFFFFFFFFFFFFFFFFFFF AND SWAP1 POP PUSH1 0x0 DUP1 PUSH1 0x0 DUP4 PUSH20 0xFFFFFFFFFFFFFFFFFFFFFFFFFFFFFFFFFFFFFFFF AND PUSH20 0xFFFFFFFFFFFFFFFFFFFFFFFFFFFFFFFFFFFFFFFF AND DUP2 MSTORE PUSH1 0x20 ADD SWAP1 DUP2 MSTORE PUSH1 0x20 ADD PUSH1 0x0 KECCAK256 DUP2 SWAP1 SSTORE POP POP DUP1 DUP1 PUSH2 0x254 SWAP1 PUSH2 0x616 JUMP JUMPDEST SWAP2 POP POP PUSH2 0x1B4 JUMP JUMPDEST POP PUSH1 0x0 PUSH8 0xFFFFFFFFFFFFFFFF DUP2 GT ISZERO PUSH2 0x278 JUMPI PUSH2 0x277 PUSH2 0x6BD JUMP JUMPDEST JUMPDEST PUSH1 0x40 MLOAD SWAP1 DUP1 DUP3 MSTORE DUP1 PUSH1 0x20 MUL PUSH1 0x20 ADD DUP3 ADD PUSH1 0x40 MSTORE DUP1 ISZERO PUSH2 0x2A6 JUMPI DUP2 PUSH1 0x20 ADD PUSH1 0x20 DUP3 MUL DUP1 CALLDATASIZE DUP4 CALLDATACOPY DUP1 DUP3 ADD SWAP2 POP POP SWAP1 POP JUMPDEST POP PUSH1 0x1 SWAP1 DUP1 MLOAD SWAP1 PUSH1 0x20 ADD SWAP1 PUSH2 0x2BC SWAP3 SWAP2 SWAP1 PUSH2 0x405 JUMP JUMPDEST POP JUMP JUMPDEST PUSH1 0x0 PUSH1 0x20 MSTORE DUP1 PUSH1 0x0 MSTORE PUSH1 0x40 PUSH1 0x0 KECCAK256 PUSH1 0x0 SWAP2 POP SWAP1 POP SLOAD DUP2 JUMP JUMPDEST PUSH1 0x2 PUSH1 0x0 SWAP1 SLOAD SWAP1 PUSH2 0x100 EXP SWAP1 DIV PUSH20 0xFFFFFFFFFFFFFFFFFFFFFFFFFFFFFFFFFFFFFFFF AND DUP2 JUMP JUMPDEST PUSH1 0x0 PUSH9 0x2B5E3AF16B1880000 SWAP1 POP CALLVALUE PUSH1 0x0 DUP1 CALLER PUSH20 0xFFFFFFFFFFFFFFFFFFFFFFFFFFFFFFFFFFFFFFFF AND PUSH20 0xFFFFFFFFFFFFFFFFFFFFFFFFFFFFFFFFFFFFFFFF AND DUP2 MSTORE PUSH1 0x20 ADD SWAP1 DUP2 MSTORE PUSH1 0x20 ADD PUSH1 0x0 KECCAK256 PUSH1 0x0 DUP3 DUP3 SLOAD PUSH2 0x359 SWAP2 SWAP1 PUSH2 0x584 JUMP JUMPDEST SWAP3 POP POP DUP2 SWAP1 SSTORE POP PUSH1 0x1 CALLER SWAP1 DUP1 PUSH1 0x1 DUP2 SLOAD ADD DUP1 DUP3 SSTORE DUP1 SWAP2 POP POP PUSH1 0x1 SWAP1 SUB SWAP1 PUSH1 0x0 MSTORE PUSH1 0x20 PUSH1 0x0 KECCAK256 ADD PUSH1 0x0 SWAP1 SWAP2 SWAP1 SWAP2 SWAP1 SWAP2 PUSH2 0x100 EXP DUP2 SLOAD DUP2 PUSH20 0xFFFFFFFFFFFFFFFFFFFFFFFFFFFFFFFFFFFFFFFF MUL NOT AND SWAP1 DUP4 PUSH20 0xFFFFFFFFFFFFFFFFFFFFFFFFFFFFFFFFFFFFFFFF AND MUL OR SWAP1 SSTORE POP POP JUMP JUMPDEST PUSH1 0x1 DUP2 DUP2 SLOAD DUP2 LT PUSH2 0x3D6 JUMPI PUSH1 0x0 DUP1 REVERT JUMPDEST SWAP1 PUSH1 0x0 MSTORE PUSH1 0x20 PUSH1 0x0 KECCAK256 ADD PUSH1 0x0 SWAP2 POP SLOAD SWAP1 PUSH2 0x100 EXP SWAP1 DIV PUSH20 0xFFFFFFFFFFFFFFFFFFFFFFFFFFFFFFFFFFFFFFFF AND DUP2 JUMP JUMPDEST DUP3 DUP1 SLOAD DUP3 DUP3 SSTORE SWAP1 PUSH1 0x0 MSTORE PUSH1 0x20 PUSH1 0x0 KECCAK256 SWAP1 DUP2 ADD SWAP3 DUP3 ISZERO PUSH2 0x47E JUMPI SWAP2 PUSH1 0x20 MUL DUP3 ADD JUMPDEST DUP3 DUP2 GT ISZERO PUSH2 0x47D JUMPI DUP3 MLOAD DUP3 PUSH1 0x0 PUSH2 0x100 EXP DUP2 SLOAD DUP2 PUSH20 0xFFFFFFFFFFFFFFFFFFFFFFFFFFFFFFFFFFFFFFFF MUL NOT AND SWAP1 DUP4 PUSH20 0xFFFFFFFFFFFFFFFFFFFFFFFFFFFFFFFFFFFFFFFF AND MUL OR SWAP1 SSTORE POP SWAP2 PUSH1 0x20 ADD SWAP2 SWAP1 PUSH1 0x1 ADD SWAP1 PUSH2 0x425 JUMP JUMPDEST JUMPDEST POP SWAP1 POP PUSH2 0x48B SWAP2 SWAP1 PUSH2 0x48F JUMP JUMPDEST POP SWAP1 JUMP JUMPDEST JUMPDEST DUP1 DUP3 GT ISZERO PUSH2 0x4A8 JUMPI PUSH1 0x0 DUP2 PUSH1 0x0 SWAP1 SSTORE POP PUSH1 0x1 ADD PUSH2 0x490 JUMP JUMPDEST POP SWAP1 JUMP JUMPDEST PUSH1 0x0 DUP2 CALLDATALOAD SWAP1 POP PUSH2 0x4BB DUP2 PUSH2 0x6F1 JUMP JUMPDEST SWAP3 SWAP2 POP POP JUMP JUMPDEST PUSH1 0x0 DUP2 CALLDATALOAD SWAP1 POP PUSH2 0x4D0 DUP2 PUSH2 0x708 JUMP JUMPDEST SWAP3 SWAP2 POP POP JUMP JUMPDEST PUSH1 0x0 PUSH1 0x20 DUP3 DUP5 SUB SLT ISZERO PUSH2 0x4EC JUMPI PUSH2 0x4EB PUSH2 0x6EC JUMP JUMPDEST JUMPDEST PUSH1 0x0 PUSH2 0x4FA DUP5 DUP3 DUP6 ADD PUSH2 0x4AC JUMP JUMPDEST SWAP2 POP POP SWAP3 SWAP2 POP POP JUMP JUMPDEST PUSH1 0x0 PUSH1 0x20 DUP3 DUP5 SUB SLT ISZERO PUSH2 0x519 JUMPI PUSH2 0x518 PUSH2 0x6EC JUMP JUMPDEST JUMPDEST PUSH1 0x0 PUSH2 0x527 DUP5 DUP3 DUP6 ADD PUSH2 0x4C1 JUMP JUMPDEST SWAP2 POP POP SWAP3 SWAP2 POP POP JUMP JUMPDEST PUSH2 0x539 DUP2 PUSH2 0x5DA JUMP JUMPDEST DUP3 MSTORE POP POP JUMP JUMPDEST PUSH2 0x548 DUP2 PUSH2 0x60C JUMP JUMPDEST DUP3 MSTORE POP POP JUMP JUMPDEST PUSH1 0x0 PUSH1 0x20 DUP3 ADD SWAP1 POP PUSH2 0x563 PUSH1 0x0 DUP4 ADD DUP5 PUSH2 0x530 JUMP JUMPDEST SWAP3 SWAP2 POP POP JUMP JUMPDEST PUSH1 0x0 PUSH1 0x20 DUP3 ADD SWAP1 POP PUSH2 0x57E PUSH1 0x0 DUP4 ADD DUP5 PUSH2 0x53F JUMP JUMPDEST SWAP3 SWAP2 POP POP JUMP JUMPDEST PUSH1 0x0 PUSH2 0x58F DUP3 PUSH2 0x60C JUMP JUMPDEST SWAP2 POP PUSH2 0x59A DUP4 PUSH2 0x60C JUMP JUMPDEST SWAP3 POP DUP3 PUSH32 0xFFFFFFFFFFFFFFFFFFFFFFFFFFFFFFFFFFFFFFFFFFFFFFFFFFFFFFFFFFFFFFFF SUB DUP3 GT ISZERO PUSH2 0x5CF JUMPI PUSH2 0x5CE PUSH2 0x65F JUMP JUMPDEST JUMPDEST DUP3 DUP3 ADD SWAP1 POP SWAP3 SWAP2 POP POP JUMP JUMPDEST PUSH1 0x0 PUSH2 0x5E5 DUP3 PUSH2 0x5EC JUMP JUMPDEST SWAP1 POP SWAP2 SWAP1 POP JUMP JUMPDEST PUSH1 0x0 PUSH20 0xFFFFFFFFFFFFFFFFFFFFFFFFFFFFFFFFFFFFFFFF DUP3 AND SWAP1 POP SWAP2 SWAP1 POP JUMP JUMPDEST PUSH1 0x0 DUP2 SWAP1 POP SWAP2 SWAP1 POP JUMP JUMPDEST PUSH1 0x0 PUSH2 0x621 DUP3 PUSH2 0x60C JUMP JUMPDEST SWAP2 POP PUSH32 0xFFFFFFFFFFFFFFFFFFFFFFFFFFFFFFFFFFFFFFFFFFFFFFFFFFFFFFFFFFFFFFFF DUP3 EQ ISZERO PUSH2 0x654 JUMPI PUSH2 0x653 PUSH2 0x65F JUMP JUMPDEST JUMPDEST PUSH1 0x1 DUP3 ADD SWAP1 POP SWAP2 SWAP1 POP JUMP JUMPDEST PUSH32 0x4E487B7100000000000000000000000000000000000000000000000000000000 PUSH1 0x0 MSTORE PUSH1 0x11 PUSH1 0x4 MSTORE PUSH1 0x24 PUSH1 0x0 REVERT JUMPDEST PUSH32 0x4E487B7100000000000000000000000000000000000000000000000000000000 PUSH1 0x0 MSTORE PUSH1 0x32 PUSH1 0x4 MSTORE PUSH1 0x24 PUSH1 0x0 REVERT JUMPDEST PUSH32 0x4E487B7100000000000000000000000000000000000000000000000000000000 PUSH1 0x0 MSTORE PUSH1 0x41 PUSH1 0x4 MSTORE PUSH1 0x24 PUSH1 0x0 REVERT JUMPDEST PUSH1 0x0 DUP1 REVERT JUMPDEST PUSH2 0x6FA DUP2 PUSH2 0x5DA JUMP JUMPDEST DUP2 EQ PUSH2 0x705 JUMPI PUSH1 0x0 DUP1 REVERT JUMPDEST POP JUMP JUMPDEST PUSH2 0x711 DUP2 PUSH2 0x60C JUMP JUMPDEST DUP2 EQ PUSH2 0x71C JUMPI PUSH1 0x0 DUP1 REVERT JUMPDEST POP JUMP INVALID LOG2 PUSH5 0x6970667358 0x22 SLT KECCAK256 RETURNDATACOPY 0xEB 0xE4 PUSH18 0x1BB0462BFB59654A406993F206C1CF926727 0xAF 0xDC NOT CALLVALUE DUP14 NOT DUP5 0xCC LOG0 0xE2 PUSH5 0x736F6C6343 STOP ADDMOD SMOD STOP CALLER "
				},
				"gasEstimates": {
					"creation": {
						"codeDepositCost": "375400",
						"executionCost": "48944",
						"totalCost": "424344"
					},
					"external": {
						"": "173",
						"addressToAmountFunded(address)": "2814",
						"fund()": "infinite",
						"funders(uint256)": "5022",
						"owner()": "2536",
						"withdraw()": "infinite"
					}
				},
				"methodIdentifiers": {
					"addressToAmountFunded(address)": "3e47d6f3",
					"fund()": "b60d4288",
					"funders(uint256)": "dc0d3dff",
					"owner()": "8da5cb5b",
					"withdraw()": "3ccfd60b"
				}
			},
			"storageLayout": {
				"storage": [
					{
						"astId": 52,
						"contract": "NFTFractionalization/contracts/src/fundraise.sol:fundraise",
						"label": "addressToAmountFunded",
						"offset": 0,
						"slot": "0",
						"type": "t_mapping(t_address,t_uint256)"
					},
					{
						"astId": 55,
						"contract": "NFTFractionalization/contracts/src/fundraise.sol:fundraise",
						"label": "funders",
						"offset": 0,
						"slot": "1",
						"type": "t_array(t_address)dyn_storage"
					},
					{
						"astId": 57,
						"contract": "NFTFractionalization/contracts/src/fundraise.sol:fundraise",
						"label": "owner",
						"offset": 0,
						"slot": "2",
						"type": "t_address"
					},
					{
						"astId": 60,
						"contract": "NFTFractionalization/contracts/src/fundraise.sol:fundraise",
						"label": "ethFeed",
						"offset": 0,
						"slot": "3",
						"type": "t_contract(AggregatorV3Interface)45"
					}
				],
				"types": {
					"t_address": {
						"encoding": "inplace",
						"label": "address",
						"numberOfBytes": "20"
					},
					"t_array(t_address)dyn_storage": {
						"base": "t_address",
						"encoding": "dynamic_array",
						"label": "address[]",
						"numberOfBytes": "32"
					},
					"t_contract(AggregatorV3Interface)45": {
						"encoding": "inplace",
						"label": "contract AggregatorV3Interface",
						"numberOfBytes": "20"
					},
					"t_mapping(t_address,t_uint256)": {
						"encoding": "mapping",
						"key": "t_address",
						"label": "mapping(address => uint256)",
						"numberOfBytes": "32",
						"value": "t_uint256"
					},
					"t_uint256": {
						"encoding": "inplace",
						"label": "uint256",
						"numberOfBytes": "32"
					}
				}
			},
			"userdoc": {
				"kind": "user",
				"methods": {},
				"version": 1
			}
		}
	}
}