{
	"ProjectMarketplace/contracts/Fundraising.sol": {
		"Fundraising": {
			"abi": [
				{
					"inputs": [
						{
							"internalType": "uint256",
							"name": "amount",
							"type": "uint256"
						},
						{
							"internalType": "string",
							"name": "name",
							"type": "string"
						},
						{
							"internalType": "string",
							"name": "symbol",
							"type": "string"
						},
						{
							"internalType": "uint256",
							"name": "_dataAccessThreshold",
							"type": "uint256"
						},
						{
							"internalType": "address",
							"name": "_admin",
							"type": "address"
						},
						{
							"internalType": "address",
							"name": "coinAddress",
							"type": "address"
						}
					],
					"stateMutability": "nonpayable",
					"type": "constructor"
				},
				{
					"anonymous": false,
					"inputs": [
						{
							"indexed": true,
							"internalType": "address",
							"name": "owner",
							"type": "address"
						},
						{
							"indexed": true,
							"internalType": "address",
							"name": "spender",
							"type": "address"
						},
						{
							"indexed": false,
							"internalType": "uint256",
							"name": "value",
							"type": "uint256"
						}
					],
					"name": "Approval",
					"type": "event"
				},
				{
					"anonymous": false,
					"inputs": [
						{
							"indexed": true,
							"internalType": "address",
							"name": "from",
							"type": "address"
						},
						{
							"indexed": true,
							"internalType": "address",
							"name": "to",
							"type": "address"
						},
						{
							"indexed": false,
							"internalType": "uint256",
							"name": "value",
							"type": "uint256"
						}
					],
					"name": "Transfer",
					"type": "event"
				},
				{
					"inputs": [
						{
							"internalType": "address",
							"name": "owner",
							"type": "address"
						},
						{
							"internalType": "address",
							"name": "spender",
							"type": "address"
						}
					],
					"name": "allowance",
					"outputs": [
						{
							"internalType": "uint256",
							"name": "",
							"type": "uint256"
						}
					],
					"stateMutability": "view",
					"type": "function"
				},
				{
					"inputs": [],
					"name": "amountRaised",
					"outputs": [
						{
							"internalType": "uint256",
							"name": "",
							"type": "uint256"
						}
					],
					"stateMutability": "view",
					"type": "function"
				},
				{
					"inputs": [],
					"name": "amountUntilReachTarget",
					"outputs": [
						{
							"internalType": "uint256",
							"name": "",
							"type": "uint256"
						}
					],
					"stateMutability": "view",
					"type": "function"
				},
				{
					"inputs": [
						{
							"internalType": "address",
							"name": "spender",
							"type": "address"
						},
						{
							"internalType": "uint256",
							"name": "amount",
							"type": "uint256"
						}
					],
					"name": "approve",
					"outputs": [
						{
							"internalType": "bool",
							"name": "",
							"type": "bool"
						}
					],
					"stateMutability": "nonpayable",
					"type": "function"
				},
				{
					"inputs": [
						{
							"internalType": "address",
							"name": "account",
							"type": "address"
						}
					],
					"name": "balanceOf",
					"outputs": [
						{
							"internalType": "uint256",
							"name": "",
							"type": "uint256"
						}
					],
					"stateMutability": "view",
					"type": "function"
				},
				{
					"inputs": [],
					"name": "coin",
					"outputs": [
						{
							"internalType": "contract IERC20",
							"name": "",
							"type": "address"
						}
					],
					"stateMutability": "view",
					"type": "function"
				},
				{
					"inputs": [],
					"name": "dataAccessThreshold",
					"outputs": [
						{
							"internalType": "uint256",
							"name": "",
							"type": "uint256"
						}
					],
					"stateMutability": "view",
					"type": "function"
				},
				{
					"inputs": [],
					"name": "decimals",
					"outputs": [
						{
							"internalType": "uint8",
							"name": "",
							"type": "uint8"
						}
					],
					"stateMutability": "view",
					"type": "function"
				},
				{
					"inputs": [
						{
							"internalType": "address",
							"name": "spender",
							"type": "address"
						},
						{
							"internalType": "uint256",
							"name": "subtractedValue",
							"type": "uint256"
						}
					],
					"name": "decreaseAllowance",
					"outputs": [
						{
							"internalType": "bool",
							"name": "",
							"type": "bool"
						}
					],
					"stateMutability": "nonpayable",
					"type": "function"
				},
				{
					"inputs": [
						{
							"internalType": "address",
							"name": "spender",
							"type": "address"
						},
						{
							"internalType": "uint256",
							"name": "addedValue",
							"type": "uint256"
						}
					],
					"name": "increaseAllowance",
					"outputs": [
						{
							"internalType": "bool",
							"name": "",
							"type": "bool"
						}
					],
					"stateMutability": "nonpayable",
					"type": "function"
				},
				{
					"inputs": [
						{
							"internalType": "uint256",
							"name": "value",
							"type": "uint256"
						}
					],
					"name": "invest",
					"outputs": [],
					"stateMutability": "nonpayable",
					"type": "function"
				},
				{
					"inputs": [],
					"name": "kill",
					"outputs": [],
					"stateMutability": "nonpayable",
					"type": "function"
				},
				{
					"inputs": [],
					"name": "killed",
					"outputs": [
						{
							"internalType": "bool",
							"name": "",
							"type": "bool"
						}
					],
					"stateMutability": "view",
					"type": "function"
				},
				{
					"inputs": [],
					"name": "name",
					"outputs": [
						{
							"internalType": "string",
							"name": "",
							"type": "string"
						}
					],
					"stateMutability": "view",
					"type": "function"
				},
				{
					"inputs": [
						{
							"internalType": "address",
							"name": "",
							"type": "address"
						},
						{
							"internalType": "address",
							"name": "",
							"type": "address"
						},
						{
							"internalType": "uint256",
							"name": "",
							"type": "uint256"
						},
						{
							"internalType": "bytes",
							"name": "",
							"type": "bytes"
						}
					],
					"name": "onERC721Received",
					"outputs": [
						{
							"internalType": "bytes4",
							"name": "",
							"type": "bytes4"
						}
					],
					"stateMutability": "pure",
					"type": "function"
				},
				{
					"inputs": [],
					"name": "pause",
					"outputs": [],
					"stateMutability": "nonpayable",
					"type": "function"
				},
				{
					"inputs": [],
					"name": "paused",
					"outputs": [
						{
							"internalType": "bool",
							"name": "",
							"type": "bool"
						}
					],
					"stateMutability": "view",
					"type": "function"
				},
				{
					"inputs": [],
					"name": "projectMarketplace",
					"outputs": [
						{
							"internalType": "contract IERC721",
							"name": "",
							"type": "address"
						}
					],
					"stateMutability": "view",
					"type": "function"
				},
				{
					"inputs": [],
					"name": "redeemNFT",
					"outputs": [],
					"stateMutability": "nonpayable",
					"type": "function"
				},
				{
					"inputs": [],
					"name": "symbol",
					"outputs": [
						{
							"internalType": "string",
							"name": "",
							"type": "string"
						}
					],
					"stateMutability": "view",
					"type": "function"
				},
				{
					"inputs": [],
					"name": "targetAmount",
					"outputs": [
						{
							"internalType": "uint256",
							"name": "",
							"type": "uint256"
						}
					],
					"stateMutability": "view",
					"type": "function"
				},
				{
					"inputs": [],
					"name": "totalSupply",
					"outputs": [
						{
							"internalType": "uint256",
							"name": "",
							"type": "uint256"
						}
					],
					"stateMutability": "view",
					"type": "function"
				},
				{
					"inputs": [
						{
							"internalType": "address",
							"name": "to",
							"type": "address"
						},
						{
							"internalType": "uint256",
							"name": "amount",
							"type": "uint256"
						}
					],
					"name": "transfer",
					"outputs": [
						{
							"internalType": "bool",
							"name": "",
							"type": "bool"
						}
					],
					"stateMutability": "nonpayable",
					"type": "function"
				},
				{
					"inputs": [
						{
							"internalType": "address",
							"name": "from",
							"type": "address"
						},
						{
							"internalType": "address",
							"name": "to",
							"type": "address"
						},
						{
							"internalType": "uint256",
							"name": "amount",
							"type": "uint256"
						}
					],
					"name": "transferFrom",
					"outputs": [
						{
							"internalType": "bool",
							"name": "",
							"type": "bool"
						}
					],
					"stateMutability": "nonpayable",
					"type": "function"
				},
				{
					"inputs": [
						{
							"internalType": "uint256",
							"name": "value",
							"type": "uint256"
						}
					],
					"name": "withdrawInvestment",
					"outputs": [],
					"stateMutability": "nonpayable",
					"type": "function"
				}
			],
			"devdoc": {
				"kind": "dev",
				"methods": {
					"allowance(address,address)": {
						"details": "See {IERC20-allowance}."
					},
					"approve(address,uint256)": {
						"details": "See {IERC20-approve}. NOTE: If `amount` is the maximum `uint256`, the allowance is not updated on `transferFrom`. This is semantically equivalent to an infinite approval. Requirements: - `spender` cannot be the zero address."
					},
					"balanceOf(address)": {
						"details": "See {IERC20-balanceOf}."
					},
					"decimals()": {
						"details": "Returns the number of decimals used to get its user representation. For example, if `decimals` equals `2`, a balance of `505` tokens should be displayed to a user as `5.05` (`505 / 10 ** 2`). Tokens usually opt for a value of 18, imitating the relationship between Ether and Wei. This is the value {ERC20} uses, unless this function is overridden; NOTE: This information is only used for _display_ purposes: it in no way affects any of the arithmetic of the contract, including {IERC20-balanceOf} and {IERC20-transfer}."
					},
					"decreaseAllowance(address,uint256)": {
						"details": "Atomically decreases the allowance granted to `spender` by the caller. This is an alternative to {approve} that can be used as a mitigation for problems described in {IERC20-approve}. Emits an {Approval} event indicating the updated allowance. Requirements: - `spender` cannot be the zero address. - `spender` must have allowance for the caller of at least `subtractedValue`."
					},
					"increaseAllowance(address,uint256)": {
						"details": "Atomically increases the allowance granted to `spender` by the caller. This is an alternative to {approve} that can be used as a mitigation for problems described in {IERC20-approve}. Emits an {Approval} event indicating the updated allowance. Requirements: - `spender` cannot be the zero address."
					},
					"name()": {
						"details": "Returns the name of the token."
					},
					"symbol()": {
						"details": "Returns the symbol of the token, usually a shorter version of the name."
					},
					"totalSupply()": {
						"details": "See {IERC20-totalSupply}."
					},
					"transfer(address,uint256)": {
						"details": "See {IERC20-transfer}. Requirements: - `to` cannot be the zero address. - the caller must have a balance of at least `amount`."
					},
					"transferFrom(address,address,uint256)": {
						"details": "See {IERC20-transferFrom}. Emits an {Approval} event indicating the updated allowance. This is not required by the EIP. See the note at the beginning of {ERC20}. NOTE: Does not update the allowance if the current allowance is the maximum `uint256`. Requirements: - `from` and `to` cannot be the zero address. - `from` must have a balance of at least `amount`. - the caller must have allowance for ``from``'s tokens of at least `amount`."
					}
				},
				"version": 1
			},
			"evm": {
				"assembly": "    /* \"ProjectMarketplace/contracts/Fundraising.sol\":1023:4215  contract Fundraising is ERC20 {... */\n  mstore(0x40, 0xa0)\n    /* \"ProjectMarketplace/contracts/Fundraising.sol\":1478:1483  false */\n  0x00\n    /* \"ProjectMarketplace/contracts/Fundraising.sol\":1457:1483  bool public paused = false */\n  0x09\n  exp(0x0100, 0x00)\n  dup2\n  sload\n  dup2\n  0xff\n  mul\n  not\n  and\n  swap1\n  dup4\n  iszero\n  iszero\n  mul\n  or\n  swap1\n  sstore\n  pop\n    /* \"ProjectMarketplace/contracts/Fundraising.sol\":1511:1516  false */\n  0x00\n    /* \"ProjectMarketplace/contracts/Fundraising.sol\":1490:1516  bool public killed = false */\n  0x09\n  exp(0x0100, 0x01)\n  dup2\n  sload\n  dup2\n  0xff\n  mul\n  not\n  and\n  swap1\n  dup4\n  iszero\n  iszero\n  mul\n  or\n  swap1\n  sstore\n  pop\n    /* \"ProjectMarketplace/contracts/Fundraising.sol\":1542:1899  constructor(uint256 amount, string memory name, string memory symbol, uint256 _dataAccessThreshold, address _admin, address coinAddress) ERC20(name, symbol) {... */\n  callvalue\n  dup1\n  iszero\n  tag_1\n  jumpi\n  0x00\n  dup1\n  revert\ntag_1:\n  pop\n  mload(0x40)\n  sub(codesize, bytecodeSize)\n  dup1\n  bytecodeSize\n  dup4\n  codecopy\n  dup2\n  dup2\n  add\n  0x40\n  mstore\n  dup2\n  add\n  swap1\n  tag_2\n  swap2\n  swap1\n  tag_3\n  jump\t// in\ntag_2:\n    /* \"ProjectMarketplace/contracts/Fundraising.sol\":1685:1689  name */\n  dup5\n    /* \"ProjectMarketplace/contracts/Fundraising.sol\":1691:1697  symbol */\n  dup5\n    /* \"@openzeppelin/contracts/token/ERC20/ERC20.sol\":2052:2057  name_ */\n  dup2\n    /* \"@openzeppelin/contracts/token/ERC20/ERC20.sol\":2044:2049  _name */\n  0x03\n    /* \"@openzeppelin/contracts/token/ERC20/ERC20.sol\":2044:2057  _name = name_ */\n  swap1\n  dup1\n  mload\n  swap1\n  0x20\n  add\n  swap1\n  tag_7\n  swap3\n  swap2\n  swap1\n  tag_8\n  jump\t// in\ntag_7:\n  pop\n    /* \"@openzeppelin/contracts/token/ERC20/ERC20.sol\":2077:2084  symbol_ */\n  dup1\n    /* \"@openzeppelin/contracts/token/ERC20/ERC20.sol\":2067:2074  _symbol */\n  0x04\n    /* \"@openzeppelin/contracts/token/ERC20/ERC20.sol\":2067:2084  _symbol = symbol_ */\n  swap1\n  dup1\n  mload\n  swap1\n  0x20\n  add\n  swap1\n  tag_9\n  swap3\n  swap2\n  swap1\n  tag_8\n  jump\t// in\ntag_9:\n  pop\n    /* \"@openzeppelin/contracts/token/ERC20/ERC20.sol\":1978:2091  constructor(string memory name_, string memory symbol_) {... */\n  pop\n  pop\n    /* \"ProjectMarketplace/contracts/Fundraising.sol\":1724:1730  amount */\n  dup6\n    /* \"ProjectMarketplace/contracts/Fundraising.sol\":1709:1721  targetAmount */\n  0x06\n    /* \"ProjectMarketplace/contracts/Fundraising.sol\":1709:1730  targetAmount = amount */\n  dup2\n  swap1\n  sstore\n  pop\n    /* \"ProjectMarketplace/contracts/Fundraising.sol\":1762:1782  _dataAccessThreshold */\n  dup3\n    /* \"ProjectMarketplace/contracts/Fundraising.sol\":1740:1759  dataAccessThreshold */\n  0x08\n    /* \"ProjectMarketplace/contracts/Fundraising.sol\":1740:1782  dataAccessThreshold = _dataAccessThreshold */\n  dup2\n  swap1\n  sstore\n  pop\n    /* \"ProjectMarketplace/contracts/Fundraising.sol\":1800:1806  _admin */\n  dup2\n    /* \"ProjectMarketplace/contracts/Fundraising.sol\":1792:1797  admin */\n  0x09\n  0x02\n    /* \"ProjectMarketplace/contracts/Fundraising.sol\":1792:1806  admin = _admin */\n  0x0100\n  exp\n  dup2\n  sload\n  dup2\n  0xffffffffffffffffffffffffffffffffffffffff\n  mul\n  not\n  and\n  swap1\n  dup4\n  0xffffffffffffffffffffffffffffffffffffffff\n  and\n  mul\n  or\n  swap1\n  sstore\n  pop\n    /* \"ProjectMarketplace/contracts/Fundraising.sol\":1830:1841  coinAddress */\n  dup1\n    /* \"ProjectMarketplace/contracts/Fundraising.sol\":1816:1820  coin */\n  0x05\n  0x00\n    /* \"ProjectMarketplace/contracts/Fundraising.sol\":1816:1842  coin = IERC20(coinAddress) */\n  0x0100\n  exp\n  dup2\n  sload\n  dup2\n  0xffffffffffffffffffffffffffffffffffffffff\n  mul\n  not\n  and\n  swap1\n  dup4\n  0xffffffffffffffffffffffffffffffffffffffff\n  and\n  mul\n  or\n  swap1\n  sstore\n  pop\n    /* \"ProjectMarketplace/contracts/Fundraising.sol\":1881:1891  msg.sender */\n  caller\n    /* \"ProjectMarketplace/contracts/Fundraising.sol\":1852:1892  projectMarketplace = IERC721(msg.sender) */\n  0xffffffffffffffffffffffffffffffffffffffff\n  and\n  0x80\n  dup2\n  0xffffffffffffffffffffffffffffffffffffffff\n  and\n  0x60\n  shl\n  dup2\n  mstore\n  pop\n  pop\n    /* \"ProjectMarketplace/contracts/Fundraising.sol\":1542:1899  constructor(uint256 amount, string memory name, string memory symbol, uint256 _dataAccessThreshold, address _admin, address coinAddress) ERC20(name, symbol) {... */\n  pop\n  pop\n  pop\n  pop\n  pop\n  pop\n    /* \"ProjectMarketplace/contracts/Fundraising.sol\":1023:4215  contract Fundraising is ERC20 {... */\n  jump(tag_11)\ntag_8:\n  dup3\n  dup1\n  sload\n  tag_12\n  swap1\n  tag_13\n  jump\t// in\ntag_12:\n  swap1\n  0x00\n  mstore\n  keccak256(0x00, 0x20)\n  swap1\n  0x1f\n  add\n  0x20\n  swap1\n  div\n  dup2\n  add\n  swap3\n  dup3\n  tag_15\n  jumpi\n  0x00\n  dup6\n  sstore\n  jump(tag_14)\ntag_15:\n  dup3\n  0x1f\n  lt\n  tag_16\n  jumpi\n  dup1\n  mload\n  not(0xff)\n  and\n  dup4\n  dup1\n  add\n  or\n  dup6\n  sstore\n  jump(tag_14)\ntag_16:\n  dup3\n  dup1\n  add\n  0x01\n  add\n  dup6\n  sstore\n  dup3\n  iszero\n  tag_14\n  jumpi\n  swap2\n  dup3\n  add\ntag_17:\n  dup3\n  dup2\n  gt\n  iszero\n  tag_18\n  jumpi\n  dup3\n  mload\n  dup3\n  sstore\n  swap2\n  0x20\n  add\n  swap2\n  swap1\n  0x01\n  add\n  swap1\n  jump(tag_17)\ntag_18:\ntag_14:\n  pop\n  swap1\n  pop\n  tag_19\n  swap2\n  swap1\n  tag_20\n  jump\t// in\ntag_19:\n  pop\n  swap1\n  jump\t// out\ntag_20:\ntag_21:\n  dup1\n  dup3\n  gt\n  iszero\n  tag_22\n  jumpi\n  0x00\n  dup2\n  0x00\n  swap1\n  sstore\n  pop\n  0x01\n  add\n  jump(tag_21)\ntag_22:\n  pop\n  swap1\n  jump\t// out\n    /* \"#utility.yul\":7:428   */\ntag_24:\n    /* \"#utility.yul\":96:101   */\n  0x00\n    /* \"#utility.yul\":121:187   */\n  tag_26\n    /* \"#utility.yul\":137:186   */\n  tag_27\n    /* \"#utility.yul\":179:185   */\n  dup5\n    /* \"#utility.yul\":137:186   */\n  tag_28\n  jump\t// in\ntag_27:\n    /* \"#utility.yul\":121:187   */\n  tag_29\n  jump\t// in\ntag_26:\n    /* \"#utility.yul\":112:187   */\n  swap1\n  pop\n    /* \"#utility.yul\":210:216   */\n  dup3\n    /* \"#utility.yul\":203:208   */\n  dup2\n    /* \"#utility.yul\":196:217   */\n  mstore\n    /* \"#utility.yul\":248:252   */\n  0x20\n    /* \"#utility.yul\":241:246   */\n  dup2\n    /* \"#utility.yul\":237:253   */\n  add\n    /* \"#utility.yul\":286:289   */\n  dup5\n    /* \"#utility.yul\":277:283   */\n  dup5\n    /* \"#utility.yul\":272:275   */\n  dup5\n    /* \"#utility.yul\":268:284   */\n  add\n    /* \"#utility.yul\":265:290   */\n  gt\n    /* \"#utility.yul\":262:374   */\n  iszero\n  tag_30\n  jumpi\n    /* \"#utility.yul\":293:372   */\n  tag_31\n  tag_32\n  jump\t// in\ntag_31:\n    /* \"#utility.yul\":262:374   */\ntag_30:\n    /* \"#utility.yul\":383:422   */\n  tag_33\n    /* \"#utility.yul\":415:421   */\n  dup5\n    /* \"#utility.yul\":410:413   */\n  dup3\n    /* \"#utility.yul\":405:408   */\n  dup6\n    /* \"#utility.yul\":383:422   */\n  tag_34\n  jump\t// in\ntag_33:\n    /* \"#utility.yul\":102:428   */\n  pop\n    /* \"#utility.yul\":7:428   */\n  swap4\n  swap3\n  pop\n  pop\n  pop\n  jump\t// out\n    /* \"#utility.yul\":434:577   */\ntag_35:\n    /* \"#utility.yul\":491:496   */\n  0x00\n    /* \"#utility.yul\":522:528   */\n  dup2\n    /* \"#utility.yul\":516:529   */\n  mload\n    /* \"#utility.yul\":507:529   */\n  swap1\n  pop\n    /* \"#utility.yul\":538:571   */\n  tag_37\n    /* \"#utility.yul\":565:570   */\n  dup2\n    /* \"#utility.yul\":538:571   */\n  tag_38\n  jump\t// in\ntag_37:\n    /* \"#utility.yul\":434:577   */\n  swap3\n  swap2\n  pop\n  pop\n  jump\t// out\n    /* \"#utility.yul\":597:952   */\ntag_39:\n    /* \"#utility.yul\":664:669   */\n  0x00\n    /* \"#utility.yul\":713:716   */\n  dup3\n    /* \"#utility.yul\":706:710   */\n  0x1f\n    /* \"#utility.yul\":698:704   */\n  dup4\n    /* \"#utility.yul\":694:711   */\n  add\n    /* \"#utility.yul\":690:717   */\n  slt\n    /* \"#utility.yul\":680:802   */\n  tag_41\n  jumpi\n    /* \"#utility.yul\":721:800   */\n  tag_42\n  tag_43\n  jump\t// in\ntag_42:\n    /* \"#utility.yul\":680:802   */\ntag_41:\n    /* \"#utility.yul\":831:837   */\n  dup2\n    /* \"#utility.yul\":825:838   */\n  mload\n    /* \"#utility.yul\":856:946   */\n  tag_44\n    /* \"#utility.yul\":942:945   */\n  dup5\n    /* \"#utility.yul\":934:940   */\n  dup3\n    /* \"#utility.yul\":927:931   */\n  0x20\n    /* \"#utility.yul\":919:925   */\n  dup7\n    /* \"#utility.yul\":915:932   */\n  add\n    /* \"#utility.yul\":856:946   */\n  tag_24\n  jump\t// in\ntag_44:\n    /* \"#utility.yul\":847:946   */\n  swap2\n  pop\n    /* \"#utility.yul\":670:952   */\n  pop\n    /* \"#utility.yul\":597:952   */\n  swap3\n  swap2\n  pop\n  pop\n  jump\t// out\n    /* \"#utility.yul\":958:1101   */\ntag_45:\n    /* \"#utility.yul\":1015:1020   */\n  0x00\n    /* \"#utility.yul\":1046:1052   */\n  dup2\n    /* \"#utility.yul\":1040:1053   */\n  mload\n    /* \"#utility.yul\":1031:1053   */\n  swap1\n  pop\n    /* \"#utility.yul\":1062:1095   */\n  tag_47\n    /* \"#utility.yul\":1089:1094   */\n  dup2\n    /* \"#utility.yul\":1062:1095   */\n  tag_48\n  jump\t// in\ntag_47:\n    /* \"#utility.yul\":958:1101   */\n  swap3\n  swap2\n  pop\n  pop\n  jump\t// out\n    /* \"#utility.yul\":1107:2587   */\ntag_3:\n    /* \"#utility.yul\":1242:1248   */\n  0x00\n    /* \"#utility.yul\":1250:1256   */\n  dup1\n    /* \"#utility.yul\":1258:1264   */\n  0x00\n    /* \"#utility.yul\":1266:1272   */\n  dup1\n    /* \"#utility.yul\":1274:1280   */\n  0x00\n    /* \"#utility.yul\":1282:1288   */\n  dup1\n    /* \"#utility.yul\":1331:1334   */\n  0xc0\n    /* \"#utility.yul\":1319:1328   */\n  dup8\n    /* \"#utility.yul\":1310:1317   */\n  dup10\n    /* \"#utility.yul\":1306:1329   */\n  sub\n    /* \"#utility.yul\":1302:1335   */\n  slt\n    /* \"#utility.yul\":1299:1419   */\n  iszero\n  tag_50\n  jumpi\n    /* \"#utility.yul\":1338:1417   */\n  tag_51\n  tag_52\n  jump\t// in\ntag_51:\n    /* \"#utility.yul\":1299:1419   */\ntag_50:\n    /* \"#utility.yul\":1458:1459   */\n  0x00\n    /* \"#utility.yul\":1483:1547   */\n  tag_53\n    /* \"#utility.yul\":1539:1546   */\n  dup10\n    /* \"#utility.yul\":1530:1536   */\n  dup3\n    /* \"#utility.yul\":1519:1528   */\n  dup11\n    /* \"#utility.yul\":1515:1537   */\n  add\n    /* \"#utility.yul\":1483:1547   */\n  tag_45\n  jump\t// in\ntag_53:\n    /* \"#utility.yul\":1473:1547   */\n  swap7\n  pop\n    /* \"#utility.yul\":1429:1557   */\n  pop\n    /* \"#utility.yul\":1617:1619   */\n  0x20\n    /* \"#utility.yul\":1606:1615   */\n  dup8\n    /* \"#utility.yul\":1602:1620   */\n  add\n    /* \"#utility.yul\":1596:1621   */\n  mload\n    /* \"#utility.yul\":1648:1666   */\n  0xffffffffffffffff\n    /* \"#utility.yul\":1640:1646   */\n  dup2\n    /* \"#utility.yul\":1637:1667   */\n  gt\n    /* \"#utility.yul\":1634:1751   */\n  iszero\n  tag_54\n  jumpi\n    /* \"#utility.yul\":1670:1749   */\n  tag_55\n  tag_56\n  jump\t// in\ntag_55:\n    /* \"#utility.yul\":1634:1751   */\ntag_54:\n    /* \"#utility.yul\":1775:1849   */\n  tag_57\n    /* \"#utility.yul\":1841:1848   */\n  dup10\n    /* \"#utility.yul\":1832:1838   */\n  dup3\n    /* \"#utility.yul\":1821:1830   */\n  dup11\n    /* \"#utility.yul\":1817:1839   */\n  add\n    /* \"#utility.yul\":1775:1849   */\n  tag_39\n  jump\t// in\ntag_57:\n    /* \"#utility.yul\":1765:1849   */\n  swap6\n  pop\n    /* \"#utility.yul\":1567:1859   */\n  pop\n    /* \"#utility.yul\":1919:1921   */\n  0x40\n    /* \"#utility.yul\":1908:1917   */\n  dup8\n    /* \"#utility.yul\":1904:1922   */\n  add\n    /* \"#utility.yul\":1898:1923   */\n  mload\n    /* \"#utility.yul\":1950:1968   */\n  0xffffffffffffffff\n    /* \"#utility.yul\":1942:1948   */\n  dup2\n    /* \"#utility.yul\":1939:1969   */\n  gt\n    /* \"#utility.yul\":1936:2053   */\n  iszero\n  tag_58\n  jumpi\n    /* \"#utility.yul\":1972:2051   */\n  tag_59\n  tag_56\n  jump\t// in\ntag_59:\n    /* \"#utility.yul\":1936:2053   */\ntag_58:\n    /* \"#utility.yul\":2077:2151   */\n  tag_60\n    /* \"#utility.yul\":2143:2150   */\n  dup10\n    /* \"#utility.yul\":2134:2140   */\n  dup3\n    /* \"#utility.yul\":2123:2132   */\n  dup11\n    /* \"#utility.yul\":2119:2141   */\n  add\n    /* \"#utility.yul\":2077:2151   */\n  tag_39\n  jump\t// in\ntag_60:\n    /* \"#utility.yul\":2067:2151   */\n  swap5\n  pop\n    /* \"#utility.yul\":1869:2161   */\n  pop\n    /* \"#utility.yul\":2200:2202   */\n  0x60\n    /* \"#utility.yul\":2226:2290   */\n  tag_61\n    /* \"#utility.yul\":2282:2289   */\n  dup10\n    /* \"#utility.yul\":2273:2279   */\n  dup3\n    /* \"#utility.yul\":2262:2271   */\n  dup11\n    /* \"#utility.yul\":2258:2280   */\n  add\n    /* \"#utility.yul\":2226:2290   */\n  tag_45\n  jump\t// in\ntag_61:\n    /* \"#utility.yul\":2216:2290   */\n  swap4\n  pop\n    /* \"#utility.yul\":2171:2300   */\n  pop\n    /* \"#utility.yul\":2339:2342   */\n  0x80\n    /* \"#utility.yul\":2366:2430   */\n  tag_62\n    /* \"#utility.yul\":2422:2429   */\n  dup10\n    /* \"#utility.yul\":2413:2419   */\n  dup3\n    /* \"#utility.yul\":2402:2411   */\n  dup11\n    /* \"#utility.yul\":2398:2420   */\n  add\n    /* \"#utility.yul\":2366:2430   */\n  tag_35\n  jump\t// in\ntag_62:\n    /* \"#utility.yul\":2356:2430   */\n  swap3\n  pop\n    /* \"#utility.yul\":2310:2440   */\n  pop\n    /* \"#utility.yul\":2479:2482   */\n  0xa0\n    /* \"#utility.yul\":2506:2570   */\n  tag_63\n    /* \"#utility.yul\":2562:2569   */\n  dup10\n    /* \"#utility.yul\":2553:2559   */\n  dup3\n    /* \"#utility.yul\":2542:2551   */\n  dup11\n    /* \"#utility.yul\":2538:2560   */\n  add\n    /* \"#utility.yul\":2506:2570   */\n  tag_35\n  jump\t// in\ntag_63:\n    /* \"#utility.yul\":2496:2570   */\n  swap2\n  pop\n    /* \"#utility.yul\":2450:2580   */\n  pop\n    /* \"#utility.yul\":1107:2587   */\n  swap3\n  swap6\n  pop\n  swap3\n  swap6\n  pop\n  swap3\n  swap6\n  jump\t// out\n    /* \"#utility.yul\":2593:2722   */\ntag_29:\n    /* \"#utility.yul\":2627:2633   */\n  0x00\n    /* \"#utility.yul\":2654:2674   */\n  tag_65\n  tag_66\n  jump\t// in\ntag_65:\n    /* \"#utility.yul\":2644:2674   */\n  swap1\n  pop\n    /* \"#utility.yul\":2683:2716   */\n  tag_67\n    /* \"#utility.yul\":2711:2715   */\n  dup3\n    /* \"#utility.yul\":2703:2709   */\n  dup3\n    /* \"#utility.yul\":2683:2716   */\n  tag_68\n  jump\t// in\ntag_67:\n    /* \"#utility.yul\":2593:2722   */\n  swap2\n  swap1\n  pop\n  jump\t// out\n    /* \"#utility.yul\":2728:2803   */\ntag_66:\n    /* \"#utility.yul\":2761:2767   */\n  0x00\n    /* \"#utility.yul\":2794:2796   */\n  0x40\n    /* \"#utility.yul\":2788:2797   */\n  mload\n    /* \"#utility.yul\":2778:2797   */\n  swap1\n  pop\n    /* \"#utility.yul\":2728:2803   */\n  swap1\n  jump\t// out\n    /* \"#utility.yul\":2809:3117   */\ntag_28:\n    /* \"#utility.yul\":2871:2875   */\n  0x00\n    /* \"#utility.yul\":2961:2979   */\n  0xffffffffffffffff\n    /* \"#utility.yul\":2953:2959   */\n  dup3\n    /* \"#utility.yul\":2950:2980   */\n  gt\n    /* \"#utility.yul\":2947:3003   */\n  iszero\n  tag_71\n  jumpi\n    /* \"#utility.yul\":2983:3001   */\n  tag_72\n  tag_73\n  jump\t// in\ntag_72:\n    /* \"#utility.yul\":2947:3003   */\ntag_71:\n    /* \"#utility.yul\":3021:3050   */\n  tag_74\n    /* \"#utility.yul\":3043:3049   */\n  dup3\n    /* \"#utility.yul\":3021:3050   */\n  tag_75\n  jump\t// in\ntag_74:\n    /* \"#utility.yul\":3013:3050   */\n  swap1\n  pop\n    /* \"#utility.yul\":3105:3109   */\n  0x20\n    /* \"#utility.yul\":3099:3103   */\n  dup2\n    /* \"#utility.yul\":3095:3110   */\n  add\n    /* \"#utility.yul\":3087:3110   */\n  swap1\n  pop\n    /* \"#utility.yul\":2809:3117   */\n  swap2\n  swap1\n  pop\n  jump\t// out\n    /* \"#utility.yul\":3123:3219   */\ntag_76:\n    /* \"#utility.yul\":3160:3167   */\n  0x00\n    /* \"#utility.yul\":3189:3213   */\n  tag_78\n    /* \"#utility.yul\":3207:3212   */\n  dup3\n    /* \"#utility.yul\":3189:3213   */\n  tag_79\n  jump\t// in\ntag_78:\n    /* \"#utility.yul\":3178:3213   */\n  swap1\n  pop\n    /* \"#utility.yul\":3123:3219   */\n  swap2\n  swap1\n  pop\n  jump\t// out\n    /* \"#utility.yul\":3225:3351   */\ntag_79:\n    /* \"#utility.yul\":3262:3269   */\n  0x00\n    /* \"#utility.yul\":3302:3344   */\n  0xffffffffffffffffffffffffffffffffffffffff\n    /* \"#utility.yul\":3295:3300   */\n  dup3\n    /* \"#utility.yul\":3291:3345   */\n  and\n    /* \"#utility.yul\":3280:3345   */\n  swap1\n  pop\n    /* \"#utility.yul\":3225:3351   */\n  swap2\n  swap1\n  pop\n  jump\t// out\n    /* \"#utility.yul\":3357:3434   */\ntag_81:\n    /* \"#utility.yul\":3394:3401   */\n  0x00\n    /* \"#utility.yul\":3423:3428   */\n  dup2\n    /* \"#utility.yul\":3412:3428   */\n  swap1\n  pop\n    /* \"#utility.yul\":3357:3434   */\n  swap2\n  swap1\n  pop\n  jump\t// out\n    /* \"#utility.yul\":3440:3747   */\ntag_34:\n    /* \"#utility.yul\":3508:3509   */\n  0x00\n    /* \"#utility.yul\":3518:3631   */\ntag_84:\n    /* \"#utility.yul\":3532:3538   */\n  dup4\n    /* \"#utility.yul\":3529:3530   */\n  dup2\n    /* \"#utility.yul\":3526:3539   */\n  lt\n    /* \"#utility.yul\":3518:3631   */\n  iszero\n  tag_86\n  jumpi\n    /* \"#utility.yul\":3617:3618   */\n  dup1\n    /* \"#utility.yul\":3612:3615   */\n  dup3\n    /* \"#utility.yul\":3608:3619   */\n  add\n    /* \"#utility.yul\":3602:3620   */\n  mload\n    /* \"#utility.yul\":3598:3599   */\n  dup2\n    /* \"#utility.yul\":3593:3596   */\n  dup5\n    /* \"#utility.yul\":3589:3600   */\n  add\n    /* \"#utility.yul\":3582:3621   */\n  mstore\n    /* \"#utility.yul\":3554:3556   */\n  0x20\n    /* \"#utility.yul\":3551:3552   */\n  dup2\n    /* \"#utility.yul\":3547:3557   */\n  add\n    /* \"#utility.yul\":3542:3557   */\n  swap1\n  pop\n    /* \"#utility.yul\":3518:3631   */\n  jump(tag_84)\ntag_86:\n    /* \"#utility.yul\":3649:3655   */\n  dup4\n    /* \"#utility.yul\":3646:3647   */\n  dup2\n    /* \"#utility.yul\":3643:3656   */\n  gt\n    /* \"#utility.yul\":3640:3741   */\n  iszero\n  tag_87\n  jumpi\n    /* \"#utility.yul\":3729:3730   */\n  0x00\n    /* \"#utility.yul\":3720:3726   */\n  dup5\n    /* \"#utility.yul\":3715:3718   */\n  dup5\n    /* \"#utility.yul\":3711:3727   */\n  add\n    /* \"#utility.yul\":3704:3731   */\n  mstore\n    /* \"#utility.yul\":3640:3741   */\ntag_87:\n    /* \"#utility.yul\":3489:3747   */\n  pop\n    /* \"#utility.yul\":3440:3747   */\n  pop\n  pop\n  pop\n  jump\t// out\n    /* \"#utility.yul\":3753:4073   */\ntag_13:\n    /* \"#utility.yul\":3797:3803   */\n  0x00\n    /* \"#utility.yul\":3834:3835   */\n  0x02\n    /* \"#utility.yul\":3828:3832   */\n  dup3\n    /* \"#utility.yul\":3824:3836   */\n  div\n    /* \"#utility.yul\":3814:3836   */\n  swap1\n  pop\n    /* \"#utility.yul\":3881:3882   */\n  0x01\n    /* \"#utility.yul\":3875:3879   */\n  dup3\n    /* \"#utility.yul\":3871:3883   */\n  and\n    /* \"#utility.yul\":3902:3920   */\n  dup1\n    /* \"#utility.yul\":3892:3973   */\n  tag_89\n  jumpi\n    /* \"#utility.yul\":3958:3962   */\n  0x7f\n    /* \"#utility.yul\":3950:3956   */\n  dup3\n    /* \"#utility.yul\":3946:3963   */\n  and\n    /* \"#utility.yul\":3936:3963   */\n  swap2\n  pop\n    /* \"#utility.yul\":3892:3973   */\ntag_89:\n    /* \"#utility.yul\":4020:4022   */\n  0x20\n    /* \"#utility.yul\":4012:4018   */\n  dup3\n    /* \"#utility.yul\":4009:4023   */\n  lt\n    /* \"#utility.yul\":3989:4007   */\n  dup2\n    /* \"#utility.yul\":3986:4024   */\n  eq\n    /* \"#utility.yul\":3983:4067   */\n  iszero\n  tag_90\n  jumpi\n    /* \"#utility.yul\":4039:4057   */\n  tag_91\n  tag_92\n  jump\t// in\ntag_91:\n    /* \"#utility.yul\":3983:4067   */\ntag_90:\n    /* \"#utility.yul\":3804:4073   */\n  pop\n    /* \"#utility.yul\":3753:4073   */\n  swap2\n  swap1\n  pop\n  jump\t// out\n    /* \"#utility.yul\":4079:4360   */\ntag_68:\n    /* \"#utility.yul\":4162:4189   */\n  tag_94\n    /* \"#utility.yul\":4184:4188   */\n  dup3\n    /* \"#utility.yul\":4162:4189   */\n  tag_75\n  jump\t// in\ntag_94:\n    /* \"#utility.yul\":4154:4160   */\n  dup2\n    /* \"#utility.yul\":4150:4190   */\n  add\n    /* \"#utility.yul\":4292:4298   */\n  dup2\n    /* \"#utility.yul\":4280:4290   */\n  dup2\n    /* \"#utility.yul\":4277:4299   */\n  lt\n    /* \"#utility.yul\":4256:4274   */\n  0xffffffffffffffff\n    /* \"#utility.yul\":4244:4254   */\n  dup3\n    /* \"#utility.yul\":4241:4275   */\n  gt\n    /* \"#utility.yul\":4238:4300   */\n  or\n    /* \"#utility.yul\":4235:4323   */\n  iszero\n  tag_95\n  jumpi\n    /* \"#utility.yul\":4303:4321   */\n  tag_96\n  tag_73\n  jump\t// in\ntag_96:\n    /* \"#utility.yul\":4235:4323   */\ntag_95:\n    /* \"#utility.yul\":4343:4353   */\n  dup1\n    /* \"#utility.yul\":4339:4341   */\n  0x40\n    /* \"#utility.yul\":4332:4354   */\n  mstore\n    /* \"#utility.yul\":4122:4360   */\n  pop\n    /* \"#utility.yul\":4079:4360   */\n  pop\n  pop\n  jump\t// out\n    /* \"#utility.yul\":4366:4546   */\ntag_92:\n    /* \"#utility.yul\":4414:4491   */\n  0x4e487b7100000000000000000000000000000000000000000000000000000000\n    /* \"#utility.yul\":4411:4412   */\n  0x00\n    /* \"#utility.yul\":4404:4492   */\n  mstore\n    /* \"#utility.yul\":4511:4515   */\n  0x22\n    /* \"#utility.yul\":4508:4509   */\n  0x04\n    /* \"#utility.yul\":4501:4516   */\n  mstore\n    /* \"#utility.yul\":4535:4539   */\n  0x24\n    /* \"#utility.yul\":4532:4533   */\n  0x00\n    /* \"#utility.yul\":4525:4540   */\n  revert\n    /* \"#utility.yul\":4552:4732   */\ntag_73:\n    /* \"#utility.yul\":4600:4677   */\n  0x4e487b7100000000000000000000000000000000000000000000000000000000\n    /* \"#utility.yul\":4597:4598   */\n  0x00\n    /* \"#utility.yul\":4590:4678   */\n  mstore\n    /* \"#utility.yul\":4697:4701   */\n  0x41\n    /* \"#utility.yul\":4694:4695   */\n  0x04\n    /* \"#utility.yul\":4687:4702   */\n  mstore\n    /* \"#utility.yul\":4721:4725   */\n  0x24\n    /* \"#utility.yul\":4718:4719   */\n  0x00\n    /* \"#utility.yul\":4711:4726   */\n  revert\n    /* \"#utility.yul\":4738:4855   */\ntag_43:\n    /* \"#utility.yul\":4847:4848   */\n  0x00\n    /* \"#utility.yul\":4844:4845   */\n  dup1\n    /* \"#utility.yul\":4837:4849   */\n  revert\n    /* \"#utility.yul\":4861:4978   */\ntag_32:\n    /* \"#utility.yul\":4970:4971   */\n  0x00\n    /* \"#utility.yul\":4967:4968   */\n  dup1\n    /* \"#utility.yul\":4960:4972   */\n  revert\n    /* \"#utility.yul\":4984:5101   */\ntag_56:\n    /* \"#utility.yul\":5093:5094   */\n  0x00\n    /* \"#utility.yul\":5090:5091   */\n  dup1\n    /* \"#utility.yul\":5083:5095   */\n  revert\n    /* \"#utility.yul\":5107:5224   */\ntag_52:\n    /* \"#utility.yul\":5216:5217   */\n  0x00\n    /* \"#utility.yul\":5213:5214   */\n  dup1\n    /* \"#utility.yul\":5206:5218   */\n  revert\n    /* \"#utility.yul\":5230:5332   */\ntag_75:\n    /* \"#utility.yul\":5271:5277   */\n  0x00\n    /* \"#utility.yul\":5322:5324   */\n  0x1f\n    /* \"#utility.yul\":5318:5325   */\n  not\n    /* \"#utility.yul\":5313:5315   */\n  0x1f\n    /* \"#utility.yul\":5306:5311   */\n  dup4\n    /* \"#utility.yul\":5302:5316   */\n  add\n    /* \"#utility.yul\":5298:5326   */\n  and\n    /* \"#utility.yul\":5288:5326   */\n  swap1\n  pop\n    /* \"#utility.yul\":5230:5332   */\n  swap2\n  swap1\n  pop\n  jump\t// out\n    /* \"#utility.yul\":5338:5460   */\ntag_38:\n    /* \"#utility.yul\":5411:5435   */\n  tag_105\n    /* \"#utility.yul\":5429:5434   */\n  dup2\n    /* \"#utility.yul\":5411:5435   */\n  tag_76\n  jump\t// in\ntag_105:\n    /* \"#utility.yul\":5404:5409   */\n  dup2\n    /* \"#utility.yul\":5401:5436   */\n  eq\n    /* \"#utility.yul\":5391:5454   */\n  tag_106\n  jumpi\n    /* \"#utility.yul\":5450:5451   */\n  0x00\n    /* \"#utility.yul\":5447:5448   */\n  dup1\n    /* \"#utility.yul\":5440:5452   */\n  revert\n    /* \"#utility.yul\":5391:5454   */\ntag_106:\n    /* \"#utility.yul\":5338:5460   */\n  pop\n  jump\t// out\n    /* \"#utility.yul\":5466:5588   */\ntag_48:\n    /* \"#utility.yul\":5539:5563   */\n  tag_108\n    /* \"#utility.yul\":5557:5562   */\n  dup2\n    /* \"#utility.yul\":5539:5563   */\n  tag_81\n  jump\t// in\ntag_108:\n    /* \"#utility.yul\":5532:5537   */\n  dup2\n    /* \"#utility.yul\":5529:5564   */\n  eq\n    /* \"#utility.yul\":5519:5582   */\n  tag_109\n  jumpi\n    /* \"#utility.yul\":5578:5579   */\n  0x00\n    /* \"#utility.yul\":5575:5576   */\n  dup1\n    /* \"#utility.yul\":5568:5580   */\n  revert\n    /* \"#utility.yul\":5519:5582   */\ntag_109:\n    /* \"#utility.yul\":5466:5588   */\n  pop\n  jump\t// out\n    /* \"ProjectMarketplace/contracts/Fundraising.sol\":1023:4215  contract Fundraising is ERC20 {... */\ntag_11:\n  shr(0x60, mload(0x80))\n  codecopy(0x00, dataOffset(sub_0), dataSize(sub_0))\n  0x00\n  assignImmutable(\"0x5237c12354bd492f949054b8f8788aab2998a1669c684d3e036f6f16d4b53e03\")\n  return(0x00, dataSize(sub_0))\nstop\n\nsub_0: assembly {\n        /* \"ProjectMarketplace/contracts/Fundraising.sol\":1023:4215  contract Fundraising is ERC20 {... */\n      mstore(0x40, 0x80)\n      callvalue\n      dup1\n      iszero\n      tag_1\n      jumpi\n      0x00\n      dup1\n      revert\n    tag_1:\n      pop\n      jumpi(tag_2, lt(calldatasize, 0x04))\n      shr(0xe0, calldataload(0x00))\n      dup1\n      0x41c0e1b5\n      gt\n      tag_28\n      jumpi\n      dup1\n      0x8456cb59\n      gt\n      tag_29\n      jumpi\n      dup1\n      0xa457c2d7\n      gt\n      tag_30\n      jumpi\n      dup1\n      0xa457c2d7\n      eq\n      tag_24\n      jumpi\n      dup1\n      0xa9059cbb\n      eq\n      tag_25\n      jumpi\n      dup1\n      0xbdf89682\n      eq\n      tag_26\n      jumpi\n      dup1\n      0xdd62ed3e\n      eq\n      tag_27\n      jumpi\n      jump(tag_2)\n    tag_30:\n      dup1\n      0x8456cb59\n      eq\n      tag_21\n      jumpi\n      dup1\n      0x953b8fb8\n      eq\n      tag_22\n      jumpi\n      dup1\n      0x95d89b41\n      eq\n      tag_23\n      jumpi\n      jump(tag_2)\n    tag_29:\n      dup1\n      0x41c0e1b5\n      eq\n      tag_15\n      jumpi\n      dup1\n      0x5c975abb\n      eq\n      tag_16\n      jumpi\n      dup1\n      0x70a08231\n      eq\n      tag_17\n      jumpi\n      dup1\n      0x77262d38\n      eq\n      tag_18\n      jumpi\n      dup1\n      0x7b3e5e7b\n      eq\n      tag_19\n      jumpi\n      dup1\n      0x7e0d73d4\n      eq\n      tag_20\n      jumpi\n      jump(tag_2)\n    tag_28:\n      dup1\n      0x1f3a0e41\n      gt\n      tag_31\n      jumpi\n      dup1\n      0x1f3a0e41\n      eq\n      tag_9\n      jumpi\n      dup1\n      0x2037fcbf\n      eq\n      tag_10\n      jumpi\n      dup1\n      0x23b872dd\n      eq\n      tag_11\n      jumpi\n      dup1\n      0x2afcf480\n      eq\n      tag_12\n      jumpi\n      dup1\n      0x313ce567\n      eq\n      tag_13\n      jumpi\n      dup1\n      0x39509351\n      eq\n      tag_14\n      jumpi\n      jump(tag_2)\n    tag_31:\n      dup1\n      0x06fdde03\n      eq\n      tag_3\n      jumpi\n      dup1\n      0x06febe00\n      eq\n      tag_4\n      jumpi\n      dup1\n      0x095ea7b3\n      eq\n      tag_5\n      jumpi\n      dup1\n      0x11df9995\n      eq\n      tag_6\n      jumpi\n      dup1\n      0x150b7a02\n      eq\n      tag_7\n      jumpi\n      dup1\n      0x18160ddd\n      eq\n      tag_8\n      jumpi\n    tag_2:\n      0x00\n      dup1\n      revert\n        /* \"@openzeppelin/contracts/token/ERC20/ERC20.sol\":2156:2254  function name() public view virtual override returns (string memory) {... */\n    tag_3:\n      tag_32\n      tag_33\n      jump\t// in\n    tag_32:\n      mload(0x40)\n      tag_34\n      swap2\n      swap1\n      tag_35\n      jump\t// in\n    tag_34:\n      mload(0x40)\n      dup1\n      swap2\n      sub\n      swap1\n      return\n        /* \"ProjectMarketplace/contracts/Fundraising.sol\":1332:1366  uint256 public dataAccessThreshold */\n    tag_4:\n      tag_36\n      tag_37\n      jump\t// in\n    tag_36:\n      mload(0x40)\n      tag_38\n      swap2\n      swap1\n      tag_39\n      jump\t// in\n    tag_38:\n      mload(0x40)\n      dup1\n      swap2\n      sub\n      swap1\n      return\n        /* \"@openzeppelin/contracts/token/ERC20/ERC20.sol\":4433:4630  function approve(address spender, uint256 amount) public virtual override returns (bool) {... */\n    tag_5:\n      tag_40\n      0x04\n      dup1\n      calldatasize\n      sub\n      dup2\n      add\n      swap1\n      tag_41\n      swap2\n      swap1\n      tag_42\n      jump\t// in\n    tag_41:\n      tag_43\n      jump\t// in\n    tag_40:\n      mload(0x40)\n      tag_44\n      swap2\n      swap1\n      tag_45\n      jump\t// in\n    tag_44:\n      mload(0x40)\n      dup1\n      swap2\n      sub\n      swap1\n      return\n        /* \"ProjectMarketplace/contracts/Fundraising.sol\":1059:1077  IERC20 public coin */\n    tag_6:\n      tag_46\n      tag_47\n      jump\t// in\n    tag_46:\n      mload(0x40)\n      tag_48\n      swap2\n      swap1\n      tag_49\n      jump\t// in\n    tag_48:\n      mload(0x40)\n      dup1\n      swap2\n      sub\n      swap1\n      return\n        /* \"ProjectMarketplace/contracts/Fundraising.sol\":2192:2357  function onERC721Received(address, address, uint256, bytes calldata) external pure returns (bytes4) {... */\n    tag_7:\n      tag_50\n      0x04\n      dup1\n      calldatasize\n      sub\n      dup2\n      add\n      swap1\n      tag_51\n      swap2\n      swap1\n      tag_52\n      jump\t// in\n    tag_51:\n      tag_53\n      jump\t// in\n    tag_50:\n      mload(0x40)\n      tag_54\n      swap2\n      swap1\n      tag_55\n      jump\t// in\n    tag_54:\n      mload(0x40)\n      dup1\n      swap2\n      sub\n      swap1\n      return\n        /* \"@openzeppelin/contracts/token/ERC20/ERC20.sol\":3244:3350  function totalSupply() public view virtual override returns (uint256) {... */\n    tag_8:\n      tag_56\n      tag_57\n      jump\t// in\n    tag_56:\n      mload(0x40)\n      tag_58\n      swap2\n      swap1\n      tag_39\n      jump\t// in\n    tag_58:\n      mload(0x40)\n      dup1\n      swap2\n      sub\n      swap1\n      return\n        /* \"ProjectMarketplace/contracts/Fundraising.sol\":1490:1516  bool public killed = false */\n    tag_9:\n      tag_59\n      tag_60\n      jump\t// in\n    tag_59:\n      mload(0x40)\n      tag_61\n      swap2\n      swap1\n      tag_45\n      jump\t// in\n    tag_61:\n      mload(0x40)\n      dup1\n      swap2\n      sub\n      swap1\n      return\n        /* \"ProjectMarketplace/contracts/Fundraising.sol\":3411:3819  function withdrawInvestment(uint256 value) external {... */\n    tag_10:\n      tag_62\n      0x04\n      dup1\n      calldatasize\n      sub\n      dup2\n      add\n      swap1\n      tag_63\n      swap2\n      swap1\n      tag_64\n      jump\t// in\n    tag_63:\n      tag_65\n      jump\t// in\n    tag_62:\n      stop\n        /* \"@openzeppelin/contracts/token/ERC20/ERC20.sol\":5192:5478  function transferFrom(... */\n    tag_11:\n      tag_66\n      0x04\n      dup1\n      calldatasize\n      sub\n      dup2\n      add\n      swap1\n      tag_67\n      swap2\n      swap1\n      tag_68\n      jump\t// in\n    tag_67:\n      tag_69\n      jump\t// in\n    tag_66:\n      mload(0x40)\n      tag_70\n      swap2\n      swap1\n      tag_45\n      jump\t// in\n    tag_70:\n      mload(0x40)\n      dup1\n      swap2\n      sub\n      swap1\n      return\n        /* \"ProjectMarketplace/contracts/Fundraising.sol\":2773:3308  function invest(uint256 value) external {... */\n    tag_12:\n      tag_71\n      0x04\n      dup1\n      calldatasize\n      sub\n      dup2\n      add\n      swap1\n      tag_72\n      swap2\n      swap1\n      tag_64\n      jump\t// in\n    tag_72:\n      tag_73\n      jump\t// in\n    tag_71:\n      stop\n        /* \"ProjectMarketplace/contracts/Fundraising.sol\":1905:1995  function decimals() public view virtual override returns (uint8) {... */\n    tag_13:\n      tag_74\n      tag_75\n      jump\t// in\n    tag_74:\n      mload(0x40)\n      tag_76\n      swap2\n      swap1\n      tag_77\n      jump\t// in\n    tag_76:\n      mload(0x40)\n      dup1\n      swap2\n      sub\n      swap1\n      return\n        /* \"@openzeppelin/contracts/token/ERC20/ERC20.sol\":5873:6107  function increaseAllowance(address spender, uint256 addedValue) public virtual returns (bool) {... */\n    tag_14:\n      tag_78\n      0x04\n      dup1\n      calldatasize\n      sub\n      dup2\n      add\n      swap1\n      tag_79\n      swap2\n      swap1\n      tag_42\n      jump\t// in\n    tag_79:\n      tag_80\n      jump\t// in\n    tag_78:\n      mload(0x40)\n      tag_81\n      swap2\n      swap1\n      tag_45\n      jump\t// in\n    tag_81:\n      mload(0x40)\n      dup1\n      swap2\n      sub\n      swap1\n      return\n        /* \"ProjectMarketplace/contracts/Fundraising.sol\":2523:2588  function kill() onlyOwner external {... */\n    tag_15:\n      tag_82\n      tag_83\n      jump\t// in\n    tag_82:\n      stop\n        /* \"ProjectMarketplace/contracts/Fundraising.sol\":1457:1483  bool public paused = false */\n    tag_16:\n      tag_84\n      tag_85\n      jump\t// in\n    tag_84:\n      mload(0x40)\n      tag_86\n      swap2\n      swap1\n      tag_45\n      jump\t// in\n    tag_86:\n      mload(0x40)\n      dup1\n      swap2\n      sub\n      swap1\n      return\n        /* \"@openzeppelin/contracts/token/ERC20/ERC20.sol\":3408:3533  function balanceOf(address account) public view virtual override returns (uint256) {... */\n    tag_17:\n      tag_87\n      0x04\n      dup1\n      calldatasize\n      sub\n      dup2\n      add\n      swap1\n      tag_88\n      swap2\n      swap1\n      tag_89\n      jump\t// in\n    tag_88:\n      tag_90\n      jump\t// in\n    tag_87:\n      mload(0x40)\n      tag_91\n      swap2\n      swap1\n      tag_39\n      jump\t// in\n    tag_91:\n      mload(0x40)\n      dup1\n      swap2\n      sub\n      swap1\n      return\n        /* \"ProjectMarketplace/contracts/Fundraising.sol\":3937:4213  function redeemNFT() external {... */\n    tag_18:\n      tag_92\n      tag_93\n      jump\t// in\n    tag_92:\n      stop\n        /* \"ProjectMarketplace/contracts/Fundraising.sol\":1299:1326  uint256 public amountRaised */\n    tag_19:\n      tag_94\n      tag_95\n      jump\t// in\n    tag_94:\n      mload(0x40)\n      tag_96\n      swap2\n      swap1\n      tag_39\n      jump\t// in\n    tag_96:\n      mload(0x40)\n      dup1\n      swap2\n      sub\n      swap1\n      return\n        /* \"ProjectMarketplace/contracts/Fundraising.sol\":1143:1186  IERC721 public immutable projectMarketplace */\n    tag_20:\n      tag_97\n      tag_98\n      jump\t// in\n    tag_97:\n      mload(0x40)\n      tag_99\n      swap2\n      swap1\n      tag_100\n      jump\t// in\n    tag_99:\n      mload(0x40)\n      dup1\n      swap2\n      sub\n      swap1\n      return\n        /* \"ProjectMarketplace/contracts/Fundraising.sol\":2363:2517  function pause() onlyOwner external {... */\n    tag_21:\n      tag_101\n      tag_102\n      jump\t// in\n    tag_101:\n      stop\n        /* \"ProjectMarketplace/contracts/Fundraising.sol\":1266:1293  uint256 public targetAmount */\n    tag_22:\n      tag_103\n      tag_104\n      jump\t// in\n    tag_103:\n      mload(0x40)\n      tag_105\n      swap2\n      swap1\n      tag_39\n      jump\t// in\n    tag_105:\n      mload(0x40)\n      dup1\n      swap2\n      sub\n      swap1\n      return\n        /* \"@openzeppelin/contracts/token/ERC20/ERC20.sol\":2367:2469  function symbol() public view virtual override returns (string memory) {... */\n    tag_23:\n      tag_106\n      tag_107\n      jump\t// in\n    tag_106:\n      mload(0x40)\n      tag_108\n      swap2\n      swap1\n      tag_35\n      jump\t// in\n    tag_108:\n      mload(0x40)\n      dup1\n      swap2\n      sub\n      swap1\n      return\n        /* \"@openzeppelin/contracts/token/ERC20/ERC20.sol\":6594:7021  function decreaseAllowance(address spender, uint256 subtractedValue) public virtual returns (bool) {... */\n    tag_24:\n      tag_109\n      0x04\n      dup1\n      calldatasize\n      sub\n      dup2\n      add\n      swap1\n      tag_110\n      swap2\n      swap1\n      tag_42\n      jump\t// in\n    tag_110:\n      tag_111\n      jump\t// in\n    tag_109:\n      mload(0x40)\n      tag_112\n      swap2\n      swap1\n      tag_45\n      jump\t// in\n    tag_112:\n      mload(0x40)\n      dup1\n      swap2\n      sub\n      swap1\n      return\n        /* \"@openzeppelin/contracts/token/ERC20/ERC20.sol\":3729:3918  function transfer(address to, uint256 amount) public virtual override returns (bool) {... */\n    tag_25:\n      tag_113\n      0x04\n      dup1\n      calldatasize\n      sub\n      dup2\n      add\n      swap1\n      tag_114\n      swap2\n      swap1\n      tag_42\n      jump\t// in\n    tag_114:\n      tag_115\n      jump\t// in\n    tag_113:\n      mload(0x40)\n      tag_116\n      swap2\n      swap1\n      tag_45\n      jump\t// in\n    tag_116:\n      mload(0x40)\n      dup1\n      swap2\n      sub\n      swap1\n      return\n        /* \"ProjectMarketplace/contracts/Fundraising.sol\":2594:2711  function amountUntilReachTarget() public view returns (uint256){... */\n    tag_26:\n      tag_117\n      tag_118\n      jump\t// in\n    tag_117:\n      mload(0x40)\n      tag_119\n      swap2\n      swap1\n      tag_39\n      jump\t// in\n    tag_119:\n      mload(0x40)\n      dup1\n      swap2\n      sub\n      swap1\n      return\n        /* \"@openzeppelin/contracts/token/ERC20/ERC20.sol\":3976:4125  function allowance(address owner, address spender) public view virtual override returns (uint256) {... */\n    tag_27:\n      tag_120\n      0x04\n      dup1\n      calldatasize\n      sub\n      dup2\n      add\n      swap1\n      tag_121\n      swap2\n      swap1\n      tag_122\n      jump\t// in\n    tag_121:\n      tag_123\n      jump\t// in\n    tag_120:\n      mload(0x40)\n      tag_124\n      swap2\n      swap1\n      tag_39\n      jump\t// in\n    tag_124:\n      mload(0x40)\n      dup1\n      swap2\n      sub\n      swap1\n      return\n        /* \"@openzeppelin/contracts/token/ERC20/ERC20.sol\":2156:2254  function name() public view virtual override returns (string memory) {... */\n    tag_33:\n        /* \"@openzeppelin/contracts/token/ERC20/ERC20.sol\":2210:2223  string memory */\n      0x60\n        /* \"@openzeppelin/contracts/token/ERC20/ERC20.sol\":2242:2247  _name */\n      0x03\n        /* \"@openzeppelin/contracts/token/ERC20/ERC20.sol\":2235:2247  return _name */\n      dup1\n      sload\n      tag_126\n      swap1\n      tag_127\n      jump\t// in\n    tag_126:\n      dup1\n      0x1f\n      add\n      0x20\n      dup1\n      swap2\n      div\n      mul\n      0x20\n      add\n      mload(0x40)\n      swap1\n      dup2\n      add\n      0x40\n      mstore\n      dup1\n      swap3\n      swap2\n      swap1\n      dup2\n      dup2\n      mstore\n      0x20\n      add\n      dup3\n      dup1\n      sload\n      tag_128\n      swap1\n      tag_127\n      jump\t// in\n    tag_128:\n      dup1\n      iszero\n      tag_129\n      jumpi\n      dup1\n      0x1f\n      lt\n      tag_130\n      jumpi\n      0x0100\n      dup1\n      dup4\n      sload\n      div\n      mul\n      dup4\n      mstore\n      swap2\n      0x20\n      add\n      swap2\n      jump(tag_129)\n    tag_130:\n      dup3\n      add\n      swap2\n      swap1\n      0x00\n      mstore\n      keccak256(0x00, 0x20)\n      swap1\n    tag_131:\n      dup2\n      sload\n      dup2\n      mstore\n      swap1\n      0x01\n      add\n      swap1\n      0x20\n      add\n      dup1\n      dup4\n      gt\n      tag_131\n      jumpi\n      dup3\n      swap1\n      sub\n      0x1f\n      and\n      dup3\n      add\n      swap2\n    tag_129:\n      pop\n      pop\n      pop\n      pop\n      pop\n      swap1\n      pop\n        /* \"@openzeppelin/contracts/token/ERC20/ERC20.sol\":2156:2254  function name() public view virtual override returns (string memory) {... */\n      swap1\n      jump\t// out\n        /* \"ProjectMarketplace/contracts/Fundraising.sol\":1332:1366  uint256 public dataAccessThreshold */\n    tag_37:\n      sload(0x08)\n      dup2\n      jump\t// out\n        /* \"@openzeppelin/contracts/token/ERC20/ERC20.sol\":4433:4630  function approve(address spender, uint256 amount) public virtual override returns (bool) {... */\n    tag_43:\n        /* \"@openzeppelin/contracts/token/ERC20/ERC20.sol\":4516:4520  bool */\n      0x00\n        /* \"@openzeppelin/contracts/token/ERC20/ERC20.sol\":4532:4545  address owner */\n      dup1\n        /* \"@openzeppelin/contracts/token/ERC20/ERC20.sol\":4548:4560  _msgSender() */\n      tag_133\n        /* \"@openzeppelin/contracts/token/ERC20/ERC20.sol\":4548:4558  _msgSender */\n      tag_134\n        /* \"@openzeppelin/contracts/token/ERC20/ERC20.sol\":4548:4560  _msgSender() */\n      jump\t// in\n    tag_133:\n        /* \"@openzeppelin/contracts/token/ERC20/ERC20.sol\":4532:4560  address owner = _msgSender() */\n      swap1\n      pop\n        /* \"@openzeppelin/contracts/token/ERC20/ERC20.sol\":4570:4602  _approve(owner, spender, amount) */\n      tag_135\n        /* \"@openzeppelin/contracts/token/ERC20/ERC20.sol\":4579:4584  owner */\n      dup2\n        /* \"@openzeppelin/contracts/token/ERC20/ERC20.sol\":4586:4593  spender */\n      dup6\n        /* \"@openzeppelin/contracts/token/ERC20/ERC20.sol\":4595:4601  amount */\n      dup6\n        /* \"@openzeppelin/contracts/token/ERC20/ERC20.sol\":4570:4578  _approve */\n      tag_136\n        /* \"@openzeppelin/contracts/token/ERC20/ERC20.sol\":4570:4602  _approve(owner, spender, amount) */\n      jump\t// in\n    tag_135:\n        /* \"@openzeppelin/contracts/token/ERC20/ERC20.sol\":4619:4623  true */\n      0x01\n        /* \"@openzeppelin/contracts/token/ERC20/ERC20.sol\":4612:4623  return true */\n      swap2\n      pop\n      pop\n        /* \"@openzeppelin/contracts/token/ERC20/ERC20.sol\":4433:4630  function approve(address spender, uint256 amount) public virtual override returns (bool) {... */\n      swap3\n      swap2\n      pop\n      pop\n      jump\t// out\n        /* \"ProjectMarketplace/contracts/Fundraising.sol\":1059:1077  IERC20 public coin */\n    tag_47:\n      0x05\n      0x00\n      swap1\n      sload\n      swap1\n      0x0100\n      exp\n      swap1\n      div\n      0xffffffffffffffffffffffffffffffffffffffff\n      and\n      dup2\n      jump\t// out\n        /* \"ProjectMarketplace/contracts/Fundraising.sol\":2192:2357  function onERC721Received(address, address, uint256, bytes calldata) external pure returns (bytes4) {... */\n    tag_53:\n        /* \"ProjectMarketplace/contracts/Fundraising.sol\":2284:2290  bytes4 */\n      0x00\n        /* \"ProjectMarketplace/contracts/Fundraising.sol\":2309:2350  IERC721Receiver.onERC721Received.selector */\n      shl(0xe0, 0x150b7a02)\n        /* \"ProjectMarketplace/contracts/Fundraising.sol\":2302:2350  return IERC721Receiver.onERC721Received.selector */\n      swap1\n      pop\n        /* \"ProjectMarketplace/contracts/Fundraising.sol\":2192:2357  function onERC721Received(address, address, uint256, bytes calldata) external pure returns (bytes4) {... */\n      swap6\n      swap5\n      pop\n      pop\n      pop\n      pop\n      pop\n      jump\t// out\n        /* \"@openzeppelin/contracts/token/ERC20/ERC20.sol\":3244:3350  function totalSupply() public view virtual override returns (uint256) {... */\n    tag_57:\n        /* \"@openzeppelin/contracts/token/ERC20/ERC20.sol\":3305:3312  uint256 */\n      0x00\n        /* \"@openzeppelin/contracts/token/ERC20/ERC20.sol\":3331:3343  _totalSupply */\n      sload(0x02)\n        /* \"@openzeppelin/contracts/token/ERC20/ERC20.sol\":3324:3343  return _totalSupply */\n      swap1\n      pop\n        /* \"@openzeppelin/contracts/token/ERC20/ERC20.sol\":3244:3350  function totalSupply() public view virtual override returns (uint256) {... */\n      swap1\n      jump\t// out\n        /* \"ProjectMarketplace/contracts/Fundraising.sol\":1490:1516  bool public killed = false */\n    tag_60:\n      0x09\n      0x01\n      swap1\n      sload\n      swap1\n      0x0100\n      exp\n      swap1\n      div\n      0xff\n      and\n      dup2\n      jump\t// out\n        /* \"ProjectMarketplace/contracts/Fundraising.sol\":3411:3819  function withdrawInvestment(uint256 value) external {... */\n    tag_65:\n        /* \"ProjectMarketplace/contracts/Fundraising.sol\":3498:3510  targetAmount */\n      sload(0x06)\n        /* \"ProjectMarketplace/contracts/Fundraising.sol\":3482:3495  totalSupply() */\n      tag_140\n        /* \"ProjectMarketplace/contracts/Fundraising.sol\":3482:3493  totalSupply */\n      tag_57\n        /* \"ProjectMarketplace/contracts/Fundraising.sol\":3482:3495  totalSupply() */\n      jump\t// in\n    tag_140:\n        /* \"ProjectMarketplace/contracts/Fundraising.sol\":3482:3510  totalSupply() < targetAmount */\n      lt\n        /* \"ProjectMarketplace/contracts/Fundraising.sol\":3473:3538  require( totalSupply() < targetAmount , \"Target Already Raised\" ) */\n      tag_141\n      jumpi\n      mload(0x40)\n      0x08c379a000000000000000000000000000000000000000000000000000000000\n      dup2\n      mstore\n      0x04\n      add\n      tag_142\n      swap1\n      tag_143\n      jump\t// in\n    tag_142:\n      mload(0x40)\n      dup1\n      swap2\n      sub\n      swap1\n      revert\n    tag_141:\n        /* \"ProjectMarketplace/contracts/Fundraising.sol\":3565:3586  balanceOf(msg.sender) */\n      tag_144\n        /* \"ProjectMarketplace/contracts/Fundraising.sol\":3575:3585  msg.sender */\n      caller\n        /* \"ProjectMarketplace/contracts/Fundraising.sol\":3565:3574  balanceOf */\n      tag_90\n        /* \"ProjectMarketplace/contracts/Fundraising.sol\":3565:3586  balanceOf(msg.sender) */\n      jump\t// in\n    tag_144:\n        /* \"ProjectMarketplace/contracts/Fundraising.sol\":3556:3561  value */\n      dup2\n        /* \"ProjectMarketplace/contracts/Fundraising.sol\":3556:3586  value <= balanceOf(msg.sender) */\n      gt\n      iszero\n        /* \"ProjectMarketplace/contracts/Fundraising.sol\":3548:3616  require(value <= balanceOf(msg.sender), \"Not Great Enough Balance!\") */\n      tag_145\n      jumpi\n      mload(0x40)\n      0x08c379a000000000000000000000000000000000000000000000000000000000\n      dup2\n      mstore\n      0x04\n      add\n      tag_146\n      swap1\n      tag_147\n      jump\t// in\n    tag_146:\n      mload(0x40)\n      dup1\n      swap2\n      sub\n      swap1\n      revert\n    tag_145:\n        /* \"ProjectMarketplace/contracts/Fundraising.sol\":3715:3719  coin */\n      0x05\n      0x00\n      swap1\n      sload\n      swap1\n      0x0100\n      exp\n      swap1\n      div\n      0xffffffffffffffffffffffffffffffffffffffff\n      and\n        /* \"ProjectMarketplace/contracts/Fundraising.sol\":3715:3728  coin.transfer */\n      0xffffffffffffffffffffffffffffffffffffffff\n      and\n      0xa9059cbb\n        /* \"ProjectMarketplace/contracts/Fundraising.sol\":3729:3739  msg.sender */\n      caller\n        /* \"ProjectMarketplace/contracts/Fundraising.sol\":3741:3746  value */\n      dup4\n        /* \"ProjectMarketplace/contracts/Fundraising.sol\":3715:3747  coin.transfer(msg.sender, value) */\n      mload(0x40)\n      dup4\n      0xffffffff\n      and\n      0xe0\n      shl\n      dup2\n      mstore\n      0x04\n      add\n      tag_148\n      swap3\n      swap2\n      swap1\n      tag_149\n      jump\t// in\n    tag_148:\n      0x20\n      mload(0x40)\n      dup1\n      dup4\n      sub\n      dup2\n      0x00\n      dup8\n      dup1\n      extcodesize\n      iszero\n      dup1\n      iszero\n      tag_150\n      jumpi\n      0x00\n      dup1\n      revert\n    tag_150:\n      pop\n      gas\n      call\n      iszero\n      dup1\n      iszero\n      tag_152\n      jumpi\n      returndatasize\n      0x00\n      dup1\n      returndatacopy\n      revert(0x00, returndatasize)\n    tag_152:\n      pop\n      pop\n      pop\n      pop\n      mload(0x40)\n      returndatasize\n      not(0x1f)\n      0x1f\n      dup3\n      add\n      and\n      dup3\n      add\n      dup1\n      0x40\n      mstore\n      pop\n      dup2\n      add\n      swap1\n      tag_153\n      swap2\n      swap1\n      tag_154\n      jump\t// in\n    tag_153:\n      pop\n        /* \"ProjectMarketplace/contracts/Fundraising.sol\":3773:3778  value */\n      dup1\n        /* \"ProjectMarketplace/contracts/Fundraising.sol\":3757:3769  amountRaised */\n      0x07\n      0x00\n        /* \"ProjectMarketplace/contracts/Fundraising.sol\":3757:3778  amountRaised -= value */\n      dup3\n      dup3\n      sload\n      tag_155\n      swap2\n      swap1\n      tag_156\n      jump\t// in\n    tag_155:\n      swap3\n      pop\n      pop\n      dup2\n      swap1\n      sstore\n      pop\n        /* \"ProjectMarketplace/contracts/Fundraising.sol\":3788:3812  _burn(msg.sender, value) */\n      tag_157\n        /* \"ProjectMarketplace/contracts/Fundraising.sol\":3794:3804  msg.sender */\n      caller\n        /* \"ProjectMarketplace/contracts/Fundraising.sol\":3806:3811  value */\n      dup3\n        /* \"ProjectMarketplace/contracts/Fundraising.sol\":3788:3793  _burn */\n      tag_158\n        /* \"ProjectMarketplace/contracts/Fundraising.sol\":3788:3812  _burn(msg.sender, value) */\n      jump\t// in\n    tag_157:\n        /* \"ProjectMarketplace/contracts/Fundraising.sol\":3411:3819  function withdrawInvestment(uint256 value) external {... */\n      pop\n      jump\t// out\n        /* \"@openzeppelin/contracts/token/ERC20/ERC20.sol\":5192:5478  function transferFrom(... */\n    tag_69:\n        /* \"@openzeppelin/contracts/token/ERC20/ERC20.sol\":5319:5323  bool */\n      0x00\n        /* \"@openzeppelin/contracts/token/ERC20/ERC20.sol\":5335:5350  address spender */\n      dup1\n        /* \"@openzeppelin/contracts/token/ERC20/ERC20.sol\":5353:5365  _msgSender() */\n      tag_160\n        /* \"@openzeppelin/contracts/token/ERC20/ERC20.sol\":5353:5363  _msgSender */\n      tag_134\n        /* \"@openzeppelin/contracts/token/ERC20/ERC20.sol\":5353:5365  _msgSender() */\n      jump\t// in\n    tag_160:\n        /* \"@openzeppelin/contracts/token/ERC20/ERC20.sol\":5335:5365  address spender = _msgSender() */\n      swap1\n      pop\n        /* \"@openzeppelin/contracts/token/ERC20/ERC20.sol\":5375:5413  _spendAllowance(from, spender, amount) */\n      tag_161\n        /* \"@openzeppelin/contracts/token/ERC20/ERC20.sol\":5391:5395  from */\n      dup6\n        /* \"@openzeppelin/contracts/token/ERC20/ERC20.sol\":5397:5404  spender */\n      dup3\n        /* \"@openzeppelin/contracts/token/ERC20/ERC20.sol\":5406:5412  amount */\n      dup6\n        /* \"@openzeppelin/contracts/token/ERC20/ERC20.sol\":5375:5390  _spendAllowance */\n      tag_162\n        /* \"@openzeppelin/contracts/token/ERC20/ERC20.sol\":5375:5413  _spendAllowance(from, spender, amount) */\n      jump\t// in\n    tag_161:\n        /* \"@openzeppelin/contracts/token/ERC20/ERC20.sol\":5423:5450  _transfer(from, to, amount) */\n      tag_163\n        /* \"@openzeppelin/contracts/token/ERC20/ERC20.sol\":5433:5437  from */\n      dup6\n        /* \"@openzeppelin/contracts/token/ERC20/ERC20.sol\":5439:5441  to */\n      dup6\n        /* \"@openzeppelin/contracts/token/ERC20/ERC20.sol\":5443:5449  amount */\n      dup6\n        /* \"@openzeppelin/contracts/token/ERC20/ERC20.sol\":5423:5432  _transfer */\n      tag_164\n        /* \"@openzeppelin/contracts/token/ERC20/ERC20.sol\":5423:5450  _transfer(from, to, amount) */\n      jump\t// in\n    tag_163:\n        /* \"@openzeppelin/contracts/token/ERC20/ERC20.sol\":5467:5471  true */\n      0x01\n        /* \"@openzeppelin/contracts/token/ERC20/ERC20.sol\":5460:5471  return true */\n      swap2\n      pop\n      pop\n        /* \"@openzeppelin/contracts/token/ERC20/ERC20.sol\":5192:5478  function transferFrom(... */\n      swap4\n      swap3\n      pop\n      pop\n      pop\n      jump\t// out\n        /* \"ProjectMarketplace/contracts/Fundraising.sol\":2773:3308  function invest(uint256 value) external {... */\n    tag_73:\n        /* \"ProjectMarketplace/contracts/Fundraising.sol\":2848:2860  targetAmount */\n      sload(0x06)\n        /* \"ProjectMarketplace/contracts/Fundraising.sol\":2832:2845  totalSupply() */\n      tag_166\n        /* \"ProjectMarketplace/contracts/Fundraising.sol\":2832:2843  totalSupply */\n      tag_57\n        /* \"ProjectMarketplace/contracts/Fundraising.sol\":2832:2845  totalSupply() */\n      jump\t// in\n    tag_166:\n        /* \"ProjectMarketplace/contracts/Fundraising.sol\":2832:2860  totalSupply() < targetAmount */\n      lt\n        /* \"ProjectMarketplace/contracts/Fundraising.sol\":2823:2887  require( totalSupply() < targetAmount, \"Target Already Raised\" ) */\n      tag_167\n      jumpi\n      mload(0x40)\n      0x08c379a000000000000000000000000000000000000000000000000000000000\n      dup2\n      mstore\n      0x04\n      add\n      tag_168\n      swap1\n      tag_143\n      jump\t// in\n    tag_168:\n      mload(0x40)\n      dup1\n      swap2\n      sub\n      swap1\n      revert\n    tag_167:\n        /* \"ProjectMarketplace/contracts/Fundraising.sol\":2929:2942  totalSupply() */\n      tag_169\n        /* \"ProjectMarketplace/contracts/Fundraising.sol\":2929:2940  totalSupply */\n      tag_57\n        /* \"ProjectMarketplace/contracts/Fundraising.sol\":2929:2942  totalSupply() */\n      jump\t// in\n    tag_169:\n        /* \"ProjectMarketplace/contracts/Fundraising.sol\":2914:2926  targetAmount */\n      sload(0x06)\n        /* \"ProjectMarketplace/contracts/Fundraising.sol\":2914:2942  targetAmount - totalSupply() */\n      tag_170\n      swap2\n      swap1\n      tag_156\n      jump\t// in\n    tag_170:\n        /* \"ProjectMarketplace/contracts/Fundraising.sol\":2905:2910  value */\n      dup2\n        /* \"ProjectMarketplace/contracts/Fundraising.sol\":2905:2942  value <= targetAmount - totalSupply() */\n      gt\n      iszero\n        /* \"ProjectMarketplace/contracts/Fundraising.sol\":2897:2970  require(value <= targetAmount - totalSupply(), \"Not enough shares left!\") */\n      tag_171\n      jumpi\n      mload(0x40)\n      0x08c379a000000000000000000000000000000000000000000000000000000000\n      dup2\n      mstore\n      0x04\n      add\n      tag_172\n      swap1\n      tag_173\n      jump\t// in\n    tag_172:\n      mload(0x40)\n      dup1\n      swap2\n      sub\n      swap1\n      revert\n    tag_171:\n        /* \"ProjectMarketplace/contracts/Fundraising.sol\":2990:2996  paused */\n      0x09\n      0x00\n      swap1\n      sload\n      swap1\n      0x0100\n      exp\n      swap1\n      div\n      0xff\n      and\n        /* \"ProjectMarketplace/contracts/Fundraising.sol\":2989:2996  !paused */\n      iszero\n        /* \"ProjectMarketplace/contracts/Fundraising.sol\":2980:3020  require( !paused, \"Contract Is Paused\" ) */\n      tag_174\n      jumpi\n      mload(0x40)\n      0x08c379a000000000000000000000000000000000000000000000000000000000\n      dup2\n      mstore\n      0x04\n      add\n      tag_175\n      swap1\n      tag_176\n      jump\t// in\n    tag_175:\n      mload(0x40)\n      dup1\n      swap2\n      sub\n      swap1\n      revert\n    tag_174:\n        /* \"ProjectMarketplace/contracts/Fundraising.sol\":3040:3046  killed */\n      0x09\n      0x01\n      swap1\n      sload\n      swap1\n      0x0100\n      exp\n      swap1\n      div\n      0xff\n      and\n        /* \"ProjectMarketplace/contracts/Fundraising.sol\":3039:3046  !killed */\n      iszero\n        /* \"ProjectMarketplace/contracts/Fundraising.sol\":3030:3069  require( !killed, \"Contract Is Killed\") */\n      tag_177\n      jumpi\n      mload(0x40)\n      0x08c379a000000000000000000000000000000000000000000000000000000000\n      dup2\n      mstore\n      0x04\n      add\n      tag_178\n      swap1\n      tag_179\n      jump\t// in\n    tag_178:\n      mload(0x40)\n      dup1\n      swap2\n      sub\n      swap1\n      revert\n    tag_177:\n        /* \"ProjectMarketplace/contracts/Fundraising.sol\":3080:3084  coin */\n      0x05\n      0x00\n      swap1\n      sload\n      swap1\n      0x0100\n      exp\n      swap1\n      div\n      0xffffffffffffffffffffffffffffffffffffffff\n      and\n        /* \"ProjectMarketplace/contracts/Fundraising.sol\":3080:3097  coin.transferFrom */\n      0xffffffffffffffffffffffffffffffffffffffff\n      and\n      0x23b872dd\n        /* \"ProjectMarketplace/contracts/Fundraising.sol\":3098:3108  msg.sender */\n      caller\n        /* \"ProjectMarketplace/contracts/Fundraising.sol\":3118:3122  this */\n      address\n        /* \"ProjectMarketplace/contracts/Fundraising.sol\":3125:3130  value */\n      dup5\n        /* \"ProjectMarketplace/contracts/Fundraising.sol\":3080:3131  coin.transferFrom(msg.sender, address(this), value) */\n      mload(0x40)\n      dup5\n      0xffffffff\n      and\n      0xe0\n      shl\n      dup2\n      mstore\n      0x04\n      add\n      tag_180\n      swap4\n      swap3\n      swap2\n      swap1\n      tag_181\n      jump\t// in\n    tag_180:\n      0x20\n      mload(0x40)\n      dup1\n      dup4\n      sub\n      dup2\n      0x00\n      dup8\n      dup1\n      extcodesize\n      iszero\n      dup1\n      iszero\n      tag_182\n      jumpi\n      0x00\n      dup1\n      revert\n    tag_182:\n      pop\n      gas\n      call\n      iszero\n      dup1\n      iszero\n      tag_184\n      jumpi\n      returndatasize\n      0x00\n      dup1\n      returndatacopy\n      revert(0x00, returndatasize)\n    tag_184:\n      pop\n      pop\n      pop\n      pop\n      mload(0x40)\n      returndatasize\n      not(0x1f)\n      0x1f\n      dup3\n      add\n      and\n      dup3\n      add\n      dup1\n      0x40\n      mstore\n      pop\n      dup2\n      add\n      swap1\n      tag_185\n      swap2\n      swap1\n      tag_154\n      jump\t// in\n    tag_185:\n      pop\n        /* \"ProjectMarketplace/contracts/Fundraising.sol\":3157:3162  value */\n      dup1\n        /* \"ProjectMarketplace/contracts/Fundraising.sol\":3141:3153  amountRaised */\n      0x07\n      0x00\n        /* \"ProjectMarketplace/contracts/Fundraising.sol\":3141:3162  amountRaised += value */\n      dup3\n      dup3\n      sload\n      tag_186\n      swap2\n      swap1\n      tag_187\n      jump\t// in\n    tag_186:\n      swap3\n      pop\n      pop\n      dup2\n      swap1\n      sstore\n      pop\n        /* \"ProjectMarketplace/contracts/Fundraising.sol\":3172:3196  _mint(msg.sender, value) */\n      tag_188\n        /* \"ProjectMarketplace/contracts/Fundraising.sol\":3178:3188  msg.sender */\n      caller\n        /* \"ProjectMarketplace/contracts/Fundraising.sol\":3190:3195  value */\n      dup3\n        /* \"ProjectMarketplace/contracts/Fundraising.sol\":3172:3177  _mint */\n      tag_189\n        /* \"ProjectMarketplace/contracts/Fundraising.sol\":3172:3196  _mint(msg.sender, value) */\n      jump\t// in\n    tag_188:\n        /* \"ProjectMarketplace/contracts/Fundraising.sol\":3227:3240  totalSupply() */\n      tag_190\n        /* \"ProjectMarketplace/contracts/Fundraising.sol\":3227:3238  totalSupply */\n      tag_57\n        /* \"ProjectMarketplace/contracts/Fundraising.sol\":3227:3240  totalSupply() */\n      jump\t// in\n    tag_190:\n        /* \"ProjectMarketplace/contracts/Fundraising.sol\":3211:3223  targetAmount */\n      sload(0x06)\n        /* \"ProjectMarketplace/contracts/Fundraising.sol\":3211:3240  targetAmount == totalSupply() */\n      eq\n        /* \"ProjectMarketplace/contracts/Fundraising.sol\":3207:3302  if (targetAmount == totalSupply()) { ... */\n      iszero\n      tag_191\n      jumpi\n        /* \"ProjectMarketplace/contracts/Fundraising.sol\":3257:3261  coin */\n      0x05\n      0x00\n      swap1\n      sload\n      swap1\n      0x0100\n      exp\n      swap1\n      div\n      0xffffffffffffffffffffffffffffffffffffffff\n      and\n        /* \"ProjectMarketplace/contracts/Fundraising.sol\":3257:3270  coin.transfer */\n      0xffffffffffffffffffffffffffffffffffffffff\n      and\n      0xa9059cbb\n        /* \"ProjectMarketplace/contracts/Fundraising.sol\":3271:3276  admin */\n      0x09\n      0x02\n      swap1\n      sload\n      swap1\n      0x0100\n      exp\n      swap1\n      div\n      0xffffffffffffffffffffffffffffffffffffffff\n      and\n        /* \"ProjectMarketplace/contracts/Fundraising.sol\":3278:3290  targetAmount */\n      sload(0x06)\n        /* \"ProjectMarketplace/contracts/Fundraising.sol\":3257:3291  coin.transfer(admin, targetAmount) */\n      mload(0x40)\n      dup4\n      0xffffffff\n      and\n      0xe0\n      shl\n      dup2\n      mstore\n      0x04\n      add\n      tag_192\n      swap3\n      swap2\n      swap1\n      tag_149\n      jump\t// in\n    tag_192:\n      0x20\n      mload(0x40)\n      dup1\n      dup4\n      sub\n      dup2\n      0x00\n      dup8\n      dup1\n      extcodesize\n      iszero\n      dup1\n      iszero\n      tag_193\n      jumpi\n      0x00\n      dup1\n      revert\n    tag_193:\n      pop\n      gas\n      call\n      iszero\n      dup1\n      iszero\n      tag_195\n      jumpi\n      returndatasize\n      0x00\n      dup1\n      returndatacopy\n      revert(0x00, returndatasize)\n    tag_195:\n      pop\n      pop\n      pop\n      pop\n      mload(0x40)\n      returndatasize\n      not(0x1f)\n      0x1f\n      dup3\n      add\n      and\n      dup3\n      add\n      dup1\n      0x40\n      mstore\n      pop\n      dup2\n      add\n      swap1\n      tag_196\n      swap2\n      swap1\n      tag_154\n      jump\t// in\n    tag_196:\n      pop\n        /* \"ProjectMarketplace/contracts/Fundraising.sol\":3207:3302  if (targetAmount == totalSupply()) { ... */\n    tag_191:\n        /* \"ProjectMarketplace/contracts/Fundraising.sol\":2773:3308  function invest(uint256 value) external {... */\n      pop\n      jump\t// out\n        /* \"ProjectMarketplace/contracts/Fundraising.sol\":1905:1995  function decimals() public view virtual override returns (uint8) {... */\n    tag_75:\n        /* \"ProjectMarketplace/contracts/Fundraising.sol\":1963:1968  uint8 */\n      0x00\n        /* \"ProjectMarketplace/contracts/Fundraising.sol\":1987:1988  2 */\n      0x02\n        /* \"ProjectMarketplace/contracts/Fundraising.sol\":1980:1988  return 2 */\n      swap1\n      pop\n        /* \"ProjectMarketplace/contracts/Fundraising.sol\":1905:1995  function decimals() public view virtual override returns (uint8) {... */\n      swap1\n      jump\t// out\n        /* \"@openzeppelin/contracts/token/ERC20/ERC20.sol\":5873:6107  function increaseAllowance(address spender, uint256 addedValue) public virtual returns (bool) {... */\n    tag_80:\n        /* \"@openzeppelin/contracts/token/ERC20/ERC20.sol\":5961:5965  bool */\n      0x00\n        /* \"@openzeppelin/contracts/token/ERC20/ERC20.sol\":5977:5990  address owner */\n      dup1\n        /* \"@openzeppelin/contracts/token/ERC20/ERC20.sol\":5993:6005  _msgSender() */\n      tag_199\n        /* \"@openzeppelin/contracts/token/ERC20/ERC20.sol\":5993:6003  _msgSender */\n      tag_134\n        /* \"@openzeppelin/contracts/token/ERC20/ERC20.sol\":5993:6005  _msgSender() */\n      jump\t// in\n    tag_199:\n        /* \"@openzeppelin/contracts/token/ERC20/ERC20.sol\":5977:6005  address owner = _msgSender() */\n      swap1\n      pop\n        /* \"@openzeppelin/contracts/token/ERC20/ERC20.sol\":6015:6079  _approve(owner, spender, allowance(owner, spender) + addedValue) */\n      tag_200\n        /* \"@openzeppelin/contracts/token/ERC20/ERC20.sol\":6024:6029  owner */\n      dup2\n        /* \"@openzeppelin/contracts/token/ERC20/ERC20.sol\":6031:6038  spender */\n      dup6\n        /* \"@openzeppelin/contracts/token/ERC20/ERC20.sol\":6068:6078  addedValue */\n      dup6\n        /* \"@openzeppelin/contracts/token/ERC20/ERC20.sol\":6040:6065  allowance(owner, spender) */\n      tag_201\n        /* \"@openzeppelin/contracts/token/ERC20/ERC20.sol\":6050:6055  owner */\n      dup6\n        /* \"@openzeppelin/contracts/token/ERC20/ERC20.sol\":6057:6064  spender */\n      dup10\n        /* \"@openzeppelin/contracts/token/ERC20/ERC20.sol\":6040:6049  allowance */\n      tag_123\n        /* \"@openzeppelin/contracts/token/ERC20/ERC20.sol\":6040:6065  allowance(owner, spender) */\n      jump\t// in\n    tag_201:\n        /* \"@openzeppelin/contracts/token/ERC20/ERC20.sol\":6040:6078  allowance(owner, spender) + addedValue */\n      tag_202\n      swap2\n      swap1\n      tag_187\n      jump\t// in\n    tag_202:\n        /* \"@openzeppelin/contracts/token/ERC20/ERC20.sol\":6015:6023  _approve */\n      tag_136\n        /* \"@openzeppelin/contracts/token/ERC20/ERC20.sol\":6015:6079  _approve(owner, spender, allowance(owner, spender) + addedValue) */\n      jump\t// in\n    tag_200:\n        /* \"@openzeppelin/contracts/token/ERC20/ERC20.sol\":6096:6100  true */\n      0x01\n        /* \"@openzeppelin/contracts/token/ERC20/ERC20.sol\":6089:6100  return true */\n      swap2\n      pop\n      pop\n        /* \"@openzeppelin/contracts/token/ERC20/ERC20.sol\":5873:6107  function increaseAllowance(address spender, uint256 addedValue) public virtual returns (bool) {... */\n      swap3\n      swap2\n      pop\n      pop\n      jump\t// out\n        /* \"ProjectMarketplace/contracts/Fundraising.sol\":2523:2588  function kill() onlyOwner external {... */\n    tag_83:\n        /* \"ProjectMarketplace/contracts/Fundraising.sol\":2057:2062  admin */\n      0x09\n      0x02\n      swap1\n      sload\n      swap1\n      0x0100\n      exp\n      swap1\n      div\n      0xffffffffffffffffffffffffffffffffffffffff\n      and\n        /* \"ProjectMarketplace/contracts/Fundraising.sol\":2043:2062  msg.sender == admin */\n      0xffffffffffffffffffffffffffffffffffffffff\n      and\n        /* \"ProjectMarketplace/contracts/Fundraising.sol\":2043:2053  msg.sender */\n      caller\n        /* \"ProjectMarketplace/contracts/Fundraising.sol\":2043:2062  msg.sender == admin */\n      0xffffffffffffffffffffffffffffffffffffffff\n      and\n      eq\n        /* \"ProjectMarketplace/contracts/Fundraising.sol\":2035:2095  require(msg.sender == admin, \"Only Admin Can Pause/Unpause\") */\n      tag_204\n      jumpi\n      mload(0x40)\n      0x08c379a000000000000000000000000000000000000000000000000000000000\n      dup2\n      mstore\n      0x04\n      add\n      tag_205\n      swap1\n      tag_206\n      jump\t// in\n    tag_205:\n      mload(0x40)\n      dup1\n      swap2\n      sub\n      swap1\n      revert\n    tag_204:\n        /* \"ProjectMarketplace/contracts/Fundraising.sol\":2577:2581  true */\n      0x01\n        /* \"ProjectMarketplace/contracts/Fundraising.sol\":2568:2574  killed */\n      0x09\n      0x01\n        /* \"ProjectMarketplace/contracts/Fundraising.sol\":2568:2581  killed = true */\n      0x0100\n      exp\n      dup2\n      sload\n      dup2\n      0xff\n      mul\n      not\n      and\n      swap1\n      dup4\n      iszero\n      iszero\n      mul\n      or\n      swap1\n      sstore\n      pop\n        /* \"ProjectMarketplace/contracts/Fundraising.sol\":2523:2588  function kill() onlyOwner external {... */\n      jump\t// out\n        /* \"ProjectMarketplace/contracts/Fundraising.sol\":1457:1483  bool public paused = false */\n    tag_85:\n      0x09\n      0x00\n      swap1\n      sload\n      swap1\n      0x0100\n      exp\n      swap1\n      div\n      0xff\n      and\n      dup2\n      jump\t// out\n        /* \"@openzeppelin/contracts/token/ERC20/ERC20.sol\":3408:3533  function balanceOf(address account) public view virtual override returns (uint256) {... */\n    tag_90:\n        /* \"@openzeppelin/contracts/token/ERC20/ERC20.sol\":3482:3489  uint256 */\n      0x00\n        /* \"@openzeppelin/contracts/token/ERC20/ERC20.sol\":3508:3517  _balances */\n      dup1\n        /* \"@openzeppelin/contracts/token/ERC20/ERC20.sol\":3508:3526  _balances[account] */\n      0x00\n        /* \"@openzeppelin/contracts/token/ERC20/ERC20.sol\":3518:3525  account */\n      dup4\n        /* \"@openzeppelin/contracts/token/ERC20/ERC20.sol\":3508:3526  _balances[account] */\n      0xffffffffffffffffffffffffffffffffffffffff\n      and\n      0xffffffffffffffffffffffffffffffffffffffff\n      and\n      dup2\n      mstore\n      0x20\n      add\n      swap1\n      dup2\n      mstore\n      0x20\n      add\n      0x00\n      keccak256\n      sload\n        /* \"@openzeppelin/contracts/token/ERC20/ERC20.sol\":3501:3526  return _balances[account] */\n      swap1\n      pop\n        /* \"@openzeppelin/contracts/token/ERC20/ERC20.sol\":3408:3533  function balanceOf(address account) public view virtual override returns (uint256) {... */\n      swap2\n      swap1\n      pop\n      jump\t// out\n        /* \"ProjectMarketplace/contracts/Fundraising.sol\":3937:4213  function redeemNFT() external {... */\n    tag_93:\n        /* \"ProjectMarketplace/contracts/Fundraising.sol\":4011:4023  targetAmount */\n      sload(0x06)\n        /* \"ProjectMarketplace/contracts/Fundraising.sol\":3986:4007  balanceOf(msg.sender) */\n      tag_210\n        /* \"ProjectMarketplace/contracts/Fundraising.sol\":3996:4006  msg.sender */\n      caller\n        /* \"ProjectMarketplace/contracts/Fundraising.sol\":3986:3995  balanceOf */\n      tag_90\n        /* \"ProjectMarketplace/contracts/Fundraising.sol\":3986:4007  balanceOf(msg.sender) */\n      jump\t// in\n    tag_210:\n        /* \"ProjectMarketplace/contracts/Fundraising.sol\":3986:4023  balanceOf(msg.sender) == targetAmount */\n      eq\n        /* \"ProjectMarketplace/contracts/Fundraising.sol\":3977:4057  require( balanceOf(msg.sender) == targetAmount, \"Do Not Have RFT Total Supply\" ) */\n      tag_211\n      jumpi\n      mload(0x40)\n      0x08c379a000000000000000000000000000000000000000000000000000000000\n      dup2\n      mstore\n      0x04\n      add\n      tag_212\n      swap1\n      tag_213\n      jump\t// in\n    tag_212:\n      mload(0x40)\n      dup1\n      swap2\n      sub\n      swap1\n      revert\n    tag_211:\n        /* \"ProjectMarketplace/contracts/Fundraising.sol\":4067:4100  _burn(msg.sender, totalSupply() ) */\n      tag_214\n        /* \"ProjectMarketplace/contracts/Fundraising.sol\":4073:4083  msg.sender */\n      caller\n        /* \"ProjectMarketplace/contracts/Fundraising.sol\":4085:4098  totalSupply() */\n      tag_215\n        /* \"ProjectMarketplace/contracts/Fundraising.sol\":4085:4096  totalSupply */\n      tag_57\n        /* \"ProjectMarketplace/contracts/Fundraising.sol\":4085:4098  totalSupply() */\n      jump\t// in\n    tag_215:\n        /* \"ProjectMarketplace/contracts/Fundraising.sol\":4067:4072  _burn */\n      tag_158\n        /* \"ProjectMarketplace/contracts/Fundraising.sol\":4067:4100  _burn(msg.sender, totalSupply() ) */\n      jump\t// in\n    tag_214:\n        /* \"ProjectMarketplace/contracts/Fundraising.sol\":4110:4128  projectMarketplace */\n      immutable(\"0x5237c12354bd492f949054b8f8788aab2998a1669c684d3e036f6f16d4b53e03\")\n        /* \"ProjectMarketplace/contracts/Fundraising.sol\":4110:4145  projectMarketplace.safeTransferFrom */\n      0xffffffffffffffffffffffffffffffffffffffff\n      and\n      0x42842e0e\n        /* \"ProjectMarketplace/contracts/Fundraising.sol\":4155:4159  this */\n      address\n        /* \"ProjectMarketplace/contracts/Fundraising.sol\":4162:4172  msg.sender */\n      caller\n        /* \"ProjectMarketplace/contracts/Fundraising.sol\":4198:4202  this */\n      address\n        /* \"ProjectMarketplace/contracts/Fundraising.sol\":4174:4205  uint256(uint160(address(this))) */\n      0xffffffffffffffffffffffffffffffffffffffff\n      and\n        /* \"ProjectMarketplace/contracts/Fundraising.sol\":4110:4206  projectMarketplace.safeTransferFrom( address(this), msg.sender, uint256(uint160(address(this)))) */\n      mload(0x40)\n      dup5\n      0xffffffff\n      and\n      0xe0\n      shl\n      dup2\n      mstore\n      0x04\n      add\n      tag_216\n      swap4\n      swap3\n      swap2\n      swap1\n      tag_181\n      jump\t// in\n    tag_216:\n      0x00\n      mload(0x40)\n      dup1\n      dup4\n      sub\n      dup2\n      0x00\n      dup8\n      dup1\n      extcodesize\n      iszero\n      dup1\n      iszero\n      tag_217\n      jumpi\n      0x00\n      dup1\n      revert\n    tag_217:\n      pop\n      gas\n      call\n      iszero\n      dup1\n      iszero\n      tag_219\n      jumpi\n      returndatasize\n      0x00\n      dup1\n      returndatacopy\n      revert(0x00, returndatasize)\n    tag_219:\n      pop\n      pop\n      pop\n      pop\n        /* \"ProjectMarketplace/contracts/Fundraising.sol\":3937:4213  function redeemNFT() external {... */\n      jump\t// out\n        /* \"ProjectMarketplace/contracts/Fundraising.sol\":1299:1326  uint256 public amountRaised */\n    tag_95:\n      sload(0x07)\n      dup2\n      jump\t// out\n        /* \"ProjectMarketplace/contracts/Fundraising.sol\":1143:1186  IERC721 public immutable projectMarketplace */\n    tag_98:\n      immutable(\"0x5237c12354bd492f949054b8f8788aab2998a1669c684d3e036f6f16d4b53e03\")\n      dup2\n      jump\t// out\n        /* \"ProjectMarketplace/contracts/Fundraising.sol\":2363:2517  function pause() onlyOwner external {... */\n    tag_102:\n        /* \"ProjectMarketplace/contracts/Fundraising.sol\":2057:2062  admin */\n      0x09\n      0x02\n      swap1\n      sload\n      swap1\n      0x0100\n      exp\n      swap1\n      div\n      0xffffffffffffffffffffffffffffffffffffffff\n      and\n        /* \"ProjectMarketplace/contracts/Fundraising.sol\":2043:2062  msg.sender == admin */\n      0xffffffffffffffffffffffffffffffffffffffff\n      and\n        /* \"ProjectMarketplace/contracts/Fundraising.sol\":2043:2053  msg.sender */\n      caller\n        /* \"ProjectMarketplace/contracts/Fundraising.sol\":2043:2062  msg.sender == admin */\n      0xffffffffffffffffffffffffffffffffffffffff\n      and\n      eq\n        /* \"ProjectMarketplace/contracts/Fundraising.sol\":2035:2095  require(msg.sender == admin, \"Only Admin Can Pause/Unpause\") */\n      tag_221\n      jumpi\n      mload(0x40)\n      0x08c379a000000000000000000000000000000000000000000000000000000000\n      dup2\n      mstore\n      0x04\n      add\n      tag_222\n      swap1\n      tag_206\n      jump\t// in\n    tag_222:\n      mload(0x40)\n      dup1\n      swap2\n      sub\n      swap1\n      revert\n    tag_221:\n        /* \"ProjectMarketplace/contracts/Fundraising.sol\":2414:2420  paused */\n      0x09\n      0x00\n      swap1\n      sload\n      swap1\n      0x0100\n      exp\n      swap1\n      div\n      0xff\n      and\n        /* \"ProjectMarketplace/contracts/Fundraising.sol\":2409:2511  if (!paused){... */\n      tag_224\n      jumpi\n        /* \"ProjectMarketplace/contracts/Fundraising.sol\":2444:2448  true */\n      0x01\n        /* \"ProjectMarketplace/contracts/Fundraising.sol\":2435:2441  paused */\n      0x09\n      0x00\n        /* \"ProjectMarketplace/contracts/Fundraising.sol\":2435:2448  paused = true */\n      0x0100\n      exp\n      dup2\n      sload\n      dup2\n      0xff\n      mul\n      not\n      and\n      swap1\n      dup4\n      iszero\n      iszero\n      mul\n      or\n      swap1\n      sstore\n      pop\n        /* \"ProjectMarketplace/contracts/Fundraising.sol\":2409:2511  if (!paused){... */\n      jump(tag_225)\n    tag_224:\n        /* \"ProjectMarketplace/contracts/Fundraising.sol\":2495:2500  false */\n      0x00\n        /* \"ProjectMarketplace/contracts/Fundraising.sol\":2486:2492  paused */\n      0x09\n      0x00\n        /* \"ProjectMarketplace/contracts/Fundraising.sol\":2486:2500  paused = false */\n      0x0100\n      exp\n      dup2\n      sload\n      dup2\n      0xff\n      mul\n      not\n      and\n      swap1\n      dup4\n      iszero\n      iszero\n      mul\n      or\n      swap1\n      sstore\n      pop\n        /* \"ProjectMarketplace/contracts/Fundraising.sol\":2409:2511  if (!paused){... */\n    tag_225:\n        /* \"ProjectMarketplace/contracts/Fundraising.sol\":2363:2517  function pause() onlyOwner external {... */\n      jump\t// out\n        /* \"ProjectMarketplace/contracts/Fundraising.sol\":1266:1293  uint256 public targetAmount */\n    tag_104:\n      sload(0x06)\n      dup2\n      jump\t// out\n        /* \"@openzeppelin/contracts/token/ERC20/ERC20.sol\":2367:2469  function symbol() public view virtual override returns (string memory) {... */\n    tag_107:\n        /* \"@openzeppelin/contracts/token/ERC20/ERC20.sol\":2423:2436  string memory */\n      0x60\n        /* \"@openzeppelin/contracts/token/ERC20/ERC20.sol\":2455:2462  _symbol */\n      0x04\n        /* \"@openzeppelin/contracts/token/ERC20/ERC20.sol\":2448:2462  return _symbol */\n      dup1\n      sload\n      tag_227\n      swap1\n      tag_127\n      jump\t// in\n    tag_227:\n      dup1\n      0x1f\n      add\n      0x20\n      dup1\n      swap2\n      div\n      mul\n      0x20\n      add\n      mload(0x40)\n      swap1\n      dup2\n      add\n      0x40\n      mstore\n      dup1\n      swap3\n      swap2\n      swap1\n      dup2\n      dup2\n      mstore\n      0x20\n      add\n      dup3\n      dup1\n      sload\n      tag_228\n      swap1\n      tag_127\n      jump\t// in\n    tag_228:\n      dup1\n      iszero\n      tag_229\n      jumpi\n      dup1\n      0x1f\n      lt\n      tag_230\n      jumpi\n      0x0100\n      dup1\n      dup4\n      sload\n      div\n      mul\n      dup4\n      mstore\n      swap2\n      0x20\n      add\n      swap2\n      jump(tag_229)\n    tag_230:\n      dup3\n      add\n      swap2\n      swap1\n      0x00\n      mstore\n      keccak256(0x00, 0x20)\n      swap1\n    tag_231:\n      dup2\n      sload\n      dup2\n      mstore\n      swap1\n      0x01\n      add\n      swap1\n      0x20\n      add\n      dup1\n      dup4\n      gt\n      tag_231\n      jumpi\n      dup3\n      swap1\n      sub\n      0x1f\n      and\n      dup3\n      add\n      swap2\n    tag_229:\n      pop\n      pop\n      pop\n      pop\n      pop\n      swap1\n      pop\n        /* \"@openzeppelin/contracts/token/ERC20/ERC20.sol\":2367:2469  function symbol() public view virtual override returns (string memory) {... */\n      swap1\n      jump\t// out\n        /* \"@openzeppelin/contracts/token/ERC20/ERC20.sol\":6594:7021  function decreaseAllowance(address spender, uint256 subtractedValue) public virtual returns (bool) {... */\n    tag_111:\n        /* \"@openzeppelin/contracts/token/ERC20/ERC20.sol\":6687:6691  bool */\n      0x00\n        /* \"@openzeppelin/contracts/token/ERC20/ERC20.sol\":6703:6716  address owner */\n      dup1\n        /* \"@openzeppelin/contracts/token/ERC20/ERC20.sol\":6719:6731  _msgSender() */\n      tag_233\n        /* \"@openzeppelin/contracts/token/ERC20/ERC20.sol\":6719:6729  _msgSender */\n      tag_134\n        /* \"@openzeppelin/contracts/token/ERC20/ERC20.sol\":6719:6731  _msgSender() */\n      jump\t// in\n    tag_233:\n        /* \"@openzeppelin/contracts/token/ERC20/ERC20.sol\":6703:6731  address owner = _msgSender() */\n      swap1\n      pop\n        /* \"@openzeppelin/contracts/token/ERC20/ERC20.sol\":6741:6765  uint256 currentAllowance */\n      0x00\n        /* \"@openzeppelin/contracts/token/ERC20/ERC20.sol\":6768:6793  allowance(owner, spender) */\n      tag_234\n        /* \"@openzeppelin/contracts/token/ERC20/ERC20.sol\":6778:6783  owner */\n      dup3\n        /* \"@openzeppelin/contracts/token/ERC20/ERC20.sol\":6785:6792  spender */\n      dup7\n        /* \"@openzeppelin/contracts/token/ERC20/ERC20.sol\":6768:6777  allowance */\n      tag_123\n        /* \"@openzeppelin/contracts/token/ERC20/ERC20.sol\":6768:6793  allowance(owner, spender) */\n      jump\t// in\n    tag_234:\n        /* \"@openzeppelin/contracts/token/ERC20/ERC20.sol\":6741:6793  uint256 currentAllowance = allowance(owner, spender) */\n      swap1\n      pop\n        /* \"@openzeppelin/contracts/token/ERC20/ERC20.sol\":6831:6846  subtractedValue */\n      dup4\n        /* \"@openzeppelin/contracts/token/ERC20/ERC20.sol\":6811:6827  currentAllowance */\n      dup2\n        /* \"@openzeppelin/contracts/token/ERC20/ERC20.sol\":6811:6846  currentAllowance >= subtractedValue */\n      lt\n      iszero\n        /* \"@openzeppelin/contracts/token/ERC20/ERC20.sol\":6803:6888  require(currentAllowance >= subtractedValue, \"ERC20: decreased allowance below zero\") */\n      tag_235\n      jumpi\n      mload(0x40)\n      0x08c379a000000000000000000000000000000000000000000000000000000000\n      dup2\n      mstore\n      0x04\n      add\n      tag_236\n      swap1\n      tag_237\n      jump\t// in\n    tag_236:\n      mload(0x40)\n      dup1\n      swap2\n      sub\n      swap1\n      revert\n    tag_235:\n        /* \"@openzeppelin/contracts/token/ERC20/ERC20.sol\":6922:6982  _approve(owner, spender, currentAllowance - subtractedValue) */\n      tag_238\n        /* \"@openzeppelin/contracts/token/ERC20/ERC20.sol\":6931:6936  owner */\n      dup3\n        /* \"@openzeppelin/contracts/token/ERC20/ERC20.sol\":6938:6945  spender */\n      dup7\n        /* \"@openzeppelin/contracts/token/ERC20/ERC20.sol\":6966:6981  subtractedValue */\n      dup7\n        /* \"@openzeppelin/contracts/token/ERC20/ERC20.sol\":6947:6963  currentAllowance */\n      dup5\n        /* \"@openzeppelin/contracts/token/ERC20/ERC20.sol\":6947:6981  currentAllowance - subtractedValue */\n      sub\n        /* \"@openzeppelin/contracts/token/ERC20/ERC20.sol\":6922:6930  _approve */\n      tag_136\n        /* \"@openzeppelin/contracts/token/ERC20/ERC20.sol\":6922:6982  _approve(owner, spender, currentAllowance - subtractedValue) */\n      jump\t// in\n    tag_238:\n        /* \"@openzeppelin/contracts/token/ERC20/ERC20.sol\":7010:7014  true */\n      0x01\n        /* \"@openzeppelin/contracts/token/ERC20/ERC20.sol\":7003:7014  return true */\n      swap3\n      pop\n      pop\n      pop\n        /* \"@openzeppelin/contracts/token/ERC20/ERC20.sol\":6594:7021  function decreaseAllowance(address spender, uint256 subtractedValue) public virtual returns (bool) {... */\n      swap3\n      swap2\n      pop\n      pop\n      jump\t// out\n        /* \"@openzeppelin/contracts/token/ERC20/ERC20.sol\":3729:3918  function transfer(address to, uint256 amount) public virtual override returns (bool) {... */\n    tag_115:\n        /* \"@openzeppelin/contracts/token/ERC20/ERC20.sol\":3808:3812  bool */\n      0x00\n        /* \"@openzeppelin/contracts/token/ERC20/ERC20.sol\":3824:3837  address owner */\n      dup1\n        /* \"@openzeppelin/contracts/token/ERC20/ERC20.sol\":3840:3852  _msgSender() */\n      tag_240\n        /* \"@openzeppelin/contracts/token/ERC20/ERC20.sol\":3840:3850  _msgSender */\n      tag_134\n        /* \"@openzeppelin/contracts/token/ERC20/ERC20.sol\":3840:3852  _msgSender() */\n      jump\t// in\n    tag_240:\n        /* \"@openzeppelin/contracts/token/ERC20/ERC20.sol\":3824:3852  address owner = _msgSender() */\n      swap1\n      pop\n        /* \"@openzeppelin/contracts/token/ERC20/ERC20.sol\":3862:3890  _transfer(owner, to, amount) */\n      tag_241\n        /* \"@openzeppelin/contracts/token/ERC20/ERC20.sol\":3872:3877  owner */\n      dup2\n        /* \"@openzeppelin/contracts/token/ERC20/ERC20.sol\":3879:3881  to */\n      dup6\n        /* \"@openzeppelin/contracts/token/ERC20/ERC20.sol\":3883:3889  amount */\n      dup6\n        /* \"@openzeppelin/contracts/token/ERC20/ERC20.sol\":3862:3871  _transfer */\n      tag_164\n        /* \"@openzeppelin/contracts/token/ERC20/ERC20.sol\":3862:3890  _transfer(owner, to, amount) */\n      jump\t// in\n    tag_241:\n        /* \"@openzeppelin/contracts/token/ERC20/ERC20.sol\":3907:3911  true */\n      0x01\n        /* \"@openzeppelin/contracts/token/ERC20/ERC20.sol\":3900:3911  return true */\n      swap2\n      pop\n      pop\n        /* \"@openzeppelin/contracts/token/ERC20/ERC20.sol\":3729:3918  function transfer(address to, uint256 amount) public virtual override returns (bool) {... */\n      swap3\n      swap2\n      pop\n      pop\n      jump\t// out\n        /* \"ProjectMarketplace/contracts/Fundraising.sol\":2594:2711  function amountUntilReachTarget() public view returns (uint256){... */\n    tag_118:\n        /* \"ProjectMarketplace/contracts/Fundraising.sol\":2649:2656  uint256 */\n      0x00\n        /* \"ProjectMarketplace/contracts/Fundraising.sol\":2690:2702  amountRaised */\n      sload(0x07)\n        /* \"ProjectMarketplace/contracts/Fundraising.sol\":2675:2687  targetAmount */\n      sload(0x06)\n        /* \"ProjectMarketplace/contracts/Fundraising.sol\":2675:2702  targetAmount - amountRaised */\n      tag_243\n      swap2\n      swap1\n      tag_156\n      jump\t// in\n    tag_243:\n        /* \"ProjectMarketplace/contracts/Fundraising.sol\":2667:2703  return (targetAmount - amountRaised) */\n      swap1\n      pop\n        /* \"ProjectMarketplace/contracts/Fundraising.sol\":2594:2711  function amountUntilReachTarget() public view returns (uint256){... */\n      swap1\n      jump\t// out\n        /* \"@openzeppelin/contracts/token/ERC20/ERC20.sol\":3976:4125  function allowance(address owner, address spender) public view virtual override returns (uint256) {... */\n    tag_123:\n        /* \"@openzeppelin/contracts/token/ERC20/ERC20.sol\":4065:4072  uint256 */\n      0x00\n        /* \"@openzeppelin/contracts/token/ERC20/ERC20.sol\":4091:4102  _allowances */\n      0x01\n        /* \"@openzeppelin/contracts/token/ERC20/ERC20.sol\":4091:4109  _allowances[owner] */\n      0x00\n        /* \"@openzeppelin/contracts/token/ERC20/ERC20.sol\":4103:4108  owner */\n      dup5\n        /* \"@openzeppelin/contracts/token/ERC20/ERC20.sol\":4091:4109  _allowances[owner] */\n      0xffffffffffffffffffffffffffffffffffffffff\n      and\n      0xffffffffffffffffffffffffffffffffffffffff\n      and\n      dup2\n      mstore\n      0x20\n      add\n      swap1\n      dup2\n      mstore\n      0x20\n      add\n      0x00\n      keccak256\n        /* \"@openzeppelin/contracts/token/ERC20/ERC20.sol\":4091:4118  _allowances[owner][spender] */\n      0x00\n        /* \"@openzeppelin/contracts/token/ERC20/ERC20.sol\":4110:4117  spender */\n      dup4\n        /* \"@openzeppelin/contracts/token/ERC20/ERC20.sol\":4091:4118  _allowances[owner][spender] */\n      0xffffffffffffffffffffffffffffffffffffffff\n      and\n      0xffffffffffffffffffffffffffffffffffffffff\n      and\n      dup2\n      mstore\n      0x20\n      add\n      swap1\n      dup2\n      mstore\n      0x20\n      add\n      0x00\n      keccak256\n      sload\n        /* \"@openzeppelin/contracts/token/ERC20/ERC20.sol\":4084:4118  return _allowances[owner][spender] */\n      swap1\n      pop\n        /* \"@openzeppelin/contracts/token/ERC20/ERC20.sol\":3976:4125  function allowance(address owner, address spender) public view virtual override returns (uint256) {... */\n      swap3\n      swap2\n      pop\n      pop\n      jump\t// out\n        /* \"@openzeppelin/contracts/utils/Context.sol\":640:736  function _msgSender() internal view virtual returns (address) {... */\n    tag_134:\n        /* \"@openzeppelin/contracts/utils/Context.sol\":693:700  address */\n      0x00\n        /* \"@openzeppelin/contracts/utils/Context.sol\":719:729  msg.sender */\n      caller\n        /* \"@openzeppelin/contracts/utils/Context.sol\":712:729  return msg.sender */\n      swap1\n      pop\n        /* \"@openzeppelin/contracts/utils/Context.sol\":640:736  function _msgSender() internal view virtual returns (address) {... */\n      swap1\n      jump\t// out\n        /* \"@openzeppelin/contracts/token/ERC20/ERC20.sol\":10110:10480  function _approve(... */\n    tag_136:\n        /* \"@openzeppelin/contracts/token/ERC20/ERC20.sol\":10258:10259  0 */\n      0x00\n        /* \"@openzeppelin/contracts/token/ERC20/ERC20.sol\":10241:10260  owner != address(0) */\n      0xffffffffffffffffffffffffffffffffffffffff\n      and\n        /* \"@openzeppelin/contracts/token/ERC20/ERC20.sol\":10241:10246  owner */\n      dup4\n        /* \"@openzeppelin/contracts/token/ERC20/ERC20.sol\":10241:10260  owner != address(0) */\n      0xffffffffffffffffffffffffffffffffffffffff\n      and\n      eq\n      iszero\n        /* \"@openzeppelin/contracts/token/ERC20/ERC20.sol\":10233:10301  require(owner != address(0), \"ERC20: approve from the zero address\") */\n      tag_247\n      jumpi\n      mload(0x40)\n      0x08c379a000000000000000000000000000000000000000000000000000000000\n      dup2\n      mstore\n      0x04\n      add\n      tag_248\n      swap1\n      tag_249\n      jump\t// in\n    tag_248:\n      mload(0x40)\n      dup1\n      swap2\n      sub\n      swap1\n      revert\n    tag_247:\n        /* \"@openzeppelin/contracts/token/ERC20/ERC20.sol\":10338:10339  0 */\n      0x00\n        /* \"@openzeppelin/contracts/token/ERC20/ERC20.sol\":10319:10340  spender != address(0) */\n      0xffffffffffffffffffffffffffffffffffffffff\n      and\n        /* \"@openzeppelin/contracts/token/ERC20/ERC20.sol\":10319:10326  spender */\n      dup3\n        /* \"@openzeppelin/contracts/token/ERC20/ERC20.sol\":10319:10340  spender != address(0) */\n      0xffffffffffffffffffffffffffffffffffffffff\n      and\n      eq\n      iszero\n        /* \"@openzeppelin/contracts/token/ERC20/ERC20.sol\":10311:10379  require(spender != address(0), \"ERC20: approve to the zero address\") */\n      tag_250\n      jumpi\n      mload(0x40)\n      0x08c379a000000000000000000000000000000000000000000000000000000000\n      dup2\n      mstore\n      0x04\n      add\n      tag_251\n      swap1\n      tag_252\n      jump\t// in\n    tag_251:\n      mload(0x40)\n      dup1\n      swap2\n      sub\n      swap1\n      revert\n    tag_250:\n        /* \"@openzeppelin/contracts/token/ERC20/ERC20.sol\":10420:10426  amount */\n      dup1\n        /* \"@openzeppelin/contracts/token/ERC20/ERC20.sol\":10390:10401  _allowances */\n      0x01\n        /* \"@openzeppelin/contracts/token/ERC20/ERC20.sol\":10390:10408  _allowances[owner] */\n      0x00\n        /* \"@openzeppelin/contracts/token/ERC20/ERC20.sol\":10402:10407  owner */\n      dup6\n        /* \"@openzeppelin/contracts/token/ERC20/ERC20.sol\":10390:10408  _allowances[owner] */\n      0xffffffffffffffffffffffffffffffffffffffff\n      and\n      0xffffffffffffffffffffffffffffffffffffffff\n      and\n      dup2\n      mstore\n      0x20\n      add\n      swap1\n      dup2\n      mstore\n      0x20\n      add\n      0x00\n      keccak256\n        /* \"@openzeppelin/contracts/token/ERC20/ERC20.sol\":10390:10417  _allowances[owner][spender] */\n      0x00\n        /* \"@openzeppelin/contracts/token/ERC20/ERC20.sol\":10409:10416  spender */\n      dup5\n        /* \"@openzeppelin/contracts/token/ERC20/ERC20.sol\":10390:10417  _allowances[owner][spender] */\n      0xffffffffffffffffffffffffffffffffffffffff\n      and\n      0xffffffffffffffffffffffffffffffffffffffff\n      and\n      dup2\n      mstore\n      0x20\n      add\n      swap1\n      dup2\n      mstore\n      0x20\n      add\n      0x00\n      keccak256\n        /* \"@openzeppelin/contracts/token/ERC20/ERC20.sol\":10390:10426  _allowances[owner][spender] = amount */\n      dup2\n      swap1\n      sstore\n      pop\n        /* \"@openzeppelin/contracts/token/ERC20/ERC20.sol\":10457:10464  spender */\n      dup2\n        /* \"@openzeppelin/contracts/token/ERC20/ERC20.sol\":10441:10473  Approval(owner, spender, amount) */\n      0xffffffffffffffffffffffffffffffffffffffff\n      and\n        /* \"@openzeppelin/contracts/token/ERC20/ERC20.sol\":10450:10455  owner */\n      dup4\n        /* \"@openzeppelin/contracts/token/ERC20/ERC20.sol\":10441:10473  Approval(owner, spender, amount) */\n      0xffffffffffffffffffffffffffffffffffffffff\n      and\n      0x8c5be1e5ebec7d5bd14f71427d1e84f3dd0314c0f7b2291e5b200ac8c7c3b925\n        /* \"@openzeppelin/contracts/token/ERC20/ERC20.sol\":10466:10472  amount */\n      dup4\n        /* \"@openzeppelin/contracts/token/ERC20/ERC20.sol\":10441:10473  Approval(owner, spender, amount) */\n      mload(0x40)\n      tag_253\n      swap2\n      swap1\n      tag_39\n      jump\t// in\n    tag_253:\n      mload(0x40)\n      dup1\n      swap2\n      sub\n      swap1\n      log3\n        /* \"@openzeppelin/contracts/token/ERC20/ERC20.sol\":10110:10480  function _approve(... */\n      pop\n      pop\n      pop\n      jump\t// out\n        /* \"@openzeppelin/contracts/token/ERC20/ERC20.sol\":9111:9687  function _burn(address account, uint256 amount) internal virtual {... */\n    tag_158:\n        /* \"@openzeppelin/contracts/token/ERC20/ERC20.sol\":9213:9214  0 */\n      0x00\n        /* \"@openzeppelin/contracts/token/ERC20/ERC20.sol\":9194:9215  account != address(0) */\n      0xffffffffffffffffffffffffffffffffffffffff\n      and\n        /* \"@openzeppelin/contracts/token/ERC20/ERC20.sol\":9194:9201  account */\n      dup3\n        /* \"@openzeppelin/contracts/token/ERC20/ERC20.sol\":9194:9215  account != address(0) */\n      0xffffffffffffffffffffffffffffffffffffffff\n      and\n      eq\n      iszero\n        /* \"@openzeppelin/contracts/token/ERC20/ERC20.sol\":9186:9253  require(account != address(0), \"ERC20: burn from the zero address\") */\n      tag_255\n      jumpi\n      mload(0x40)\n      0x08c379a000000000000000000000000000000000000000000000000000000000\n      dup2\n      mstore\n      0x04\n      add\n      tag_256\n      swap1\n      tag_257\n      jump\t// in\n    tag_256:\n      mload(0x40)\n      dup1\n      swap2\n      sub\n      swap1\n      revert\n    tag_255:\n        /* \"@openzeppelin/contracts/token/ERC20/ERC20.sol\":9264:9313  _beforeTokenTransfer(account, address(0), amount) */\n      tag_258\n        /* \"@openzeppelin/contracts/token/ERC20/ERC20.sol\":9285:9292  account */\n      dup3\n        /* \"@openzeppelin/contracts/token/ERC20/ERC20.sol\":9302:9303  0 */\n      0x00\n        /* \"@openzeppelin/contracts/token/ERC20/ERC20.sol\":9306:9312  amount */\n      dup4\n        /* \"@openzeppelin/contracts/token/ERC20/ERC20.sol\":9264:9284  _beforeTokenTransfer */\n      tag_259\n        /* \"@openzeppelin/contracts/token/ERC20/ERC20.sol\":9264:9313  _beforeTokenTransfer(account, address(0), amount) */\n      jump\t// in\n    tag_258:\n        /* \"@openzeppelin/contracts/token/ERC20/ERC20.sol\":9324:9346  uint256 accountBalance */\n      0x00\n        /* \"@openzeppelin/contracts/token/ERC20/ERC20.sol\":9349:9358  _balances */\n      dup1\n        /* \"@openzeppelin/contracts/token/ERC20/ERC20.sol\":9349:9367  _balances[account] */\n      0x00\n        /* \"@openzeppelin/contracts/token/ERC20/ERC20.sol\":9359:9366  account */\n      dup5\n        /* \"@openzeppelin/contracts/token/ERC20/ERC20.sol\":9349:9367  _balances[account] */\n      0xffffffffffffffffffffffffffffffffffffffff\n      and\n      0xffffffffffffffffffffffffffffffffffffffff\n      and\n      dup2\n      mstore\n      0x20\n      add\n      swap1\n      dup2\n      mstore\n      0x20\n      add\n      0x00\n      keccak256\n      sload\n        /* \"@openzeppelin/contracts/token/ERC20/ERC20.sol\":9324:9367  uint256 accountBalance = _balances[account] */\n      swap1\n      pop\n        /* \"@openzeppelin/contracts/token/ERC20/ERC20.sol\":9403:9409  amount */\n      dup2\n        /* \"@openzeppelin/contracts/token/ERC20/ERC20.sol\":9385:9399  accountBalance */\n      dup2\n        /* \"@openzeppelin/contracts/token/ERC20/ERC20.sol\":9385:9409  accountBalance >= amount */\n      lt\n      iszero\n        /* \"@openzeppelin/contracts/token/ERC20/ERC20.sol\":9377:9448  require(accountBalance >= amount, \"ERC20: burn amount exceeds balance\") */\n      tag_260\n      jumpi\n      mload(0x40)\n      0x08c379a000000000000000000000000000000000000000000000000000000000\n      dup2\n      mstore\n      0x04\n      add\n      tag_261\n      swap1\n      tag_262\n      jump\t// in\n    tag_261:\n      mload(0x40)\n      dup1\n      swap2\n      sub\n      swap1\n      revert\n    tag_260:\n        /* \"@openzeppelin/contracts/token/ERC20/ERC20.sol\":9520:9526  amount */\n      dup2\n        /* \"@openzeppelin/contracts/token/ERC20/ERC20.sol\":9503:9517  accountBalance */\n      dup2\n        /* \"@openzeppelin/contracts/token/ERC20/ERC20.sol\":9503:9526  accountBalance - amount */\n      sub\n        /* \"@openzeppelin/contracts/token/ERC20/ERC20.sol\":9482:9491  _balances */\n      0x00\n        /* \"@openzeppelin/contracts/token/ERC20/ERC20.sol\":9482:9500  _balances[account] */\n      dup1\n        /* \"@openzeppelin/contracts/token/ERC20/ERC20.sol\":9492:9499  account */\n      dup6\n        /* \"@openzeppelin/contracts/token/ERC20/ERC20.sol\":9482:9500  _balances[account] */\n      0xffffffffffffffffffffffffffffffffffffffff\n      and\n      0xffffffffffffffffffffffffffffffffffffffff\n      and\n      dup2\n      mstore\n      0x20\n      add\n      swap1\n      dup2\n      mstore\n      0x20\n      add\n      0x00\n      keccak256\n        /* \"@openzeppelin/contracts/token/ERC20/ERC20.sol\":9482:9526  _balances[account] = accountBalance - amount */\n      dup2\n      swap1\n      sstore\n      pop\n        /* \"@openzeppelin/contracts/token/ERC20/ERC20.sol\":9562:9568  amount */\n      dup2\n        /* \"@openzeppelin/contracts/token/ERC20/ERC20.sol\":9546:9558  _totalSupply */\n      0x02\n      0x00\n        /* \"@openzeppelin/contracts/token/ERC20/ERC20.sol\":9546:9568  _totalSupply -= amount */\n      dup3\n      dup3\n      sload\n      tag_263\n      swap2\n      swap1\n      tag_156\n      jump\t// in\n    tag_263:\n      swap3\n      pop\n      pop\n      dup2\n      swap1\n      sstore\n      pop\n        /* \"@openzeppelin/contracts/token/ERC20/ERC20.sol\":9610:9611  0 */\n      0x00\n        /* \"@openzeppelin/contracts/token/ERC20/ERC20.sol\":9584:9621  Transfer(account, address(0), amount) */\n      0xffffffffffffffffffffffffffffffffffffffff\n      and\n        /* \"@openzeppelin/contracts/token/ERC20/ERC20.sol\":9593:9600  account */\n      dup4\n        /* \"@openzeppelin/contracts/token/ERC20/ERC20.sol\":9584:9621  Transfer(account, address(0), amount) */\n      0xffffffffffffffffffffffffffffffffffffffff\n      and\n      0xddf252ad1be2c89b69c2b068fc378daa952ba7f163c4a11628f55a4df523b3ef\n        /* \"@openzeppelin/contracts/token/ERC20/ERC20.sol\":9614:9620  amount */\n      dup5\n        /* \"@openzeppelin/contracts/token/ERC20/ERC20.sol\":9584:9621  Transfer(account, address(0), amount) */\n      mload(0x40)\n      tag_264\n      swap2\n      swap1\n      tag_39\n      jump\t// in\n    tag_264:\n      mload(0x40)\n      dup1\n      swap2\n      sub\n      swap1\n      log3\n        /* \"@openzeppelin/contracts/token/ERC20/ERC20.sol\":9632:9680  _afterTokenTransfer(account, address(0), amount) */\n      tag_265\n        /* \"@openzeppelin/contracts/token/ERC20/ERC20.sol\":9652:9659  account */\n      dup4\n        /* \"@openzeppelin/contracts/token/ERC20/ERC20.sol\":9669:9670  0 */\n      0x00\n        /* \"@openzeppelin/contracts/token/ERC20/ERC20.sol\":9673:9679  amount */\n      dup5\n        /* \"@openzeppelin/contracts/token/ERC20/ERC20.sol\":9632:9651  _afterTokenTransfer */\n      tag_266\n        /* \"@openzeppelin/contracts/token/ERC20/ERC20.sol\":9632:9680  _afterTokenTransfer(account, address(0), amount) */\n      jump\t// in\n    tag_265:\n        /* \"@openzeppelin/contracts/token/ERC20/ERC20.sol\":9176:9687  {... */\n      pop\n        /* \"@openzeppelin/contracts/token/ERC20/ERC20.sol\":9111:9687  function _burn(address account, uint256 amount) internal virtual {... */\n      pop\n      pop\n      jump\t// out\n        /* \"@openzeppelin/contracts/token/ERC20/ERC20.sol\":10761:11202  function _spendAllowance(... */\n    tag_162:\n        /* \"@openzeppelin/contracts/token/ERC20/ERC20.sol\":10891:10915  uint256 currentAllowance */\n      0x00\n        /* \"@openzeppelin/contracts/token/ERC20/ERC20.sol\":10918:10943  allowance(owner, spender) */\n      tag_268\n        /* \"@openzeppelin/contracts/token/ERC20/ERC20.sol\":10928:10933  owner */\n      dup5\n        /* \"@openzeppelin/contracts/token/ERC20/ERC20.sol\":10935:10942  spender */\n      dup5\n        /* \"@openzeppelin/contracts/token/ERC20/ERC20.sol\":10918:10927  allowance */\n      tag_123\n        /* \"@openzeppelin/contracts/token/ERC20/ERC20.sol\":10918:10943  allowance(owner, spender) */\n      jump\t// in\n    tag_268:\n        /* \"@openzeppelin/contracts/token/ERC20/ERC20.sol\":10891:10943  uint256 currentAllowance = allowance(owner, spender) */\n      swap1\n      pop\n        /* \"@openzeppelin/contracts/token/ERC20/ERC20.sol\":10977:10994  type(uint256).max */\n      0xffffffffffffffffffffffffffffffffffffffffffffffffffffffffffffffff\n        /* \"@openzeppelin/contracts/token/ERC20/ERC20.sol\":10957:10973  currentAllowance */\n      dup2\n        /* \"@openzeppelin/contracts/token/ERC20/ERC20.sol\":10957:10994  currentAllowance != type(uint256).max */\n      eq\n        /* \"@openzeppelin/contracts/token/ERC20/ERC20.sol\":10953:11196  if (currentAllowance != type(uint256).max) {... */\n      tag_269\n      jumpi\n        /* \"@openzeppelin/contracts/token/ERC20/ERC20.sol\":11038:11044  amount */\n      dup2\n        /* \"@openzeppelin/contracts/token/ERC20/ERC20.sol\":11018:11034  currentAllowance */\n      dup2\n        /* \"@openzeppelin/contracts/token/ERC20/ERC20.sol\":11018:11044  currentAllowance >= amount */\n      lt\n      iszero\n        /* \"@openzeppelin/contracts/token/ERC20/ERC20.sol\":11010:11078  require(currentAllowance >= amount, \"ERC20: insufficient allowance\") */\n      tag_270\n      jumpi\n      mload(0x40)\n      0x08c379a000000000000000000000000000000000000000000000000000000000\n      dup2\n      mstore\n      0x04\n      add\n      tag_271\n      swap1\n      tag_272\n      jump\t// in\n    tag_271:\n      mload(0x40)\n      dup1\n      swap2\n      sub\n      swap1\n      revert\n    tag_270:\n        /* \"@openzeppelin/contracts/token/ERC20/ERC20.sol\":11120:11171  _approve(owner, spender, currentAllowance - amount) */\n      tag_273\n        /* \"@openzeppelin/contracts/token/ERC20/ERC20.sol\":11129:11134  owner */\n      dup5\n        /* \"@openzeppelin/contracts/token/ERC20/ERC20.sol\":11136:11143  spender */\n      dup5\n        /* \"@openzeppelin/contracts/token/ERC20/ERC20.sol\":11164:11170  amount */\n      dup5\n        /* \"@openzeppelin/contracts/token/ERC20/ERC20.sol\":11145:11161  currentAllowance */\n      dup5\n        /* \"@openzeppelin/contracts/token/ERC20/ERC20.sol\":11145:11170  currentAllowance - amount */\n      sub\n        /* \"@openzeppelin/contracts/token/ERC20/ERC20.sol\":11120:11128  _approve */\n      tag_136\n        /* \"@openzeppelin/contracts/token/ERC20/ERC20.sol\":11120:11171  _approve(owner, spender, currentAllowance - amount) */\n      jump\t// in\n    tag_273:\n        /* \"@openzeppelin/contracts/token/ERC20/ERC20.sol\":10953:11196  if (currentAllowance != type(uint256).max) {... */\n    tag_269:\n        /* \"@openzeppelin/contracts/token/ERC20/ERC20.sol\":10881:11202  {... */\n      pop\n        /* \"@openzeppelin/contracts/token/ERC20/ERC20.sol\":10761:11202  function _spendAllowance(... */\n      pop\n      pop\n      pop\n      jump\t// out\n        /* \"@openzeppelin/contracts/token/ERC20/ERC20.sol\":7475:8126  function _transfer(... */\n    tag_164:\n        /* \"@openzeppelin/contracts/token/ERC20/ERC20.sol\":7617:7618  0 */\n      0x00\n        /* \"@openzeppelin/contracts/token/ERC20/ERC20.sol\":7601:7619  from != address(0) */\n      0xffffffffffffffffffffffffffffffffffffffff\n      and\n        /* \"@openzeppelin/contracts/token/ERC20/ERC20.sol\":7601:7605  from */\n      dup4\n        /* \"@openzeppelin/contracts/token/ERC20/ERC20.sol\":7601:7619  from != address(0) */\n      0xffffffffffffffffffffffffffffffffffffffff\n      and\n      eq\n      iszero\n        /* \"@openzeppelin/contracts/token/ERC20/ERC20.sol\":7593:7661  require(from != address(0), \"ERC20: transfer from the zero address\") */\n      tag_275\n      jumpi\n      mload(0x40)\n      0x08c379a000000000000000000000000000000000000000000000000000000000\n      dup2\n      mstore\n      0x04\n      add\n      tag_276\n      swap1\n      tag_277\n      jump\t// in\n    tag_276:\n      mload(0x40)\n      dup1\n      swap2\n      sub\n      swap1\n      revert\n    tag_275:\n        /* \"@openzeppelin/contracts/token/ERC20/ERC20.sol\":7693:7694  0 */\n      0x00\n        /* \"@openzeppelin/contracts/token/ERC20/ERC20.sol\":7679:7695  to != address(0) */\n      0xffffffffffffffffffffffffffffffffffffffff\n      and\n        /* \"@openzeppelin/contracts/token/ERC20/ERC20.sol\":7679:7681  to */\n      dup3\n        /* \"@openzeppelin/contracts/token/ERC20/ERC20.sol\":7679:7695  to != address(0) */\n      0xffffffffffffffffffffffffffffffffffffffff\n      and\n      eq\n      iszero\n        /* \"@openzeppelin/contracts/token/ERC20/ERC20.sol\":7671:7735  require(to != address(0), \"ERC20: transfer to the zero address\") */\n      tag_278\n      jumpi\n      mload(0x40)\n      0x08c379a000000000000000000000000000000000000000000000000000000000\n      dup2\n      mstore\n      0x04\n      add\n      tag_279\n      swap1\n      tag_280\n      jump\t// in\n    tag_279:\n      mload(0x40)\n      dup1\n      swap2\n      sub\n      swap1\n      revert\n    tag_278:\n        /* \"@openzeppelin/contracts/token/ERC20/ERC20.sol\":7746:7784  _beforeTokenTransfer(from, to, amount) */\n      tag_281\n        /* \"@openzeppelin/contracts/token/ERC20/ERC20.sol\":7767:7771  from */\n      dup4\n        /* \"@openzeppelin/contracts/token/ERC20/ERC20.sol\":7773:7775  to */\n      dup4\n        /* \"@openzeppelin/contracts/token/ERC20/ERC20.sol\":7777:7783  amount */\n      dup4\n        /* \"@openzeppelin/contracts/token/ERC20/ERC20.sol\":7746:7766  _beforeTokenTransfer */\n      tag_259\n        /* \"@openzeppelin/contracts/token/ERC20/ERC20.sol\":7746:7784  _beforeTokenTransfer(from, to, amount) */\n      jump\t// in\n    tag_281:\n        /* \"@openzeppelin/contracts/token/ERC20/ERC20.sol\":7795:7814  uint256 fromBalance */\n      0x00\n        /* \"@openzeppelin/contracts/token/ERC20/ERC20.sol\":7817:7826  _balances */\n      dup1\n        /* \"@openzeppelin/contracts/token/ERC20/ERC20.sol\":7817:7832  _balances[from] */\n      0x00\n        /* \"@openzeppelin/contracts/token/ERC20/ERC20.sol\":7827:7831  from */\n      dup6\n        /* \"@openzeppelin/contracts/token/ERC20/ERC20.sol\":7817:7832  _balances[from] */\n      0xffffffffffffffffffffffffffffffffffffffff\n      and\n      0xffffffffffffffffffffffffffffffffffffffff\n      and\n      dup2\n      mstore\n      0x20\n      add\n      swap1\n      dup2\n      mstore\n      0x20\n      add\n      0x00\n      keccak256\n      sload\n        /* \"@openzeppelin/contracts/token/ERC20/ERC20.sol\":7795:7832  uint256 fromBalance = _balances[from] */\n      swap1\n      pop\n        /* \"@openzeppelin/contracts/token/ERC20/ERC20.sol\":7865:7871  amount */\n      dup2\n        /* \"@openzeppelin/contracts/token/ERC20/ERC20.sol\":7850:7861  fromBalance */\n      dup2\n        /* \"@openzeppelin/contracts/token/ERC20/ERC20.sol\":7850:7871  fromBalance >= amount */\n      lt\n      iszero\n        /* \"@openzeppelin/contracts/token/ERC20/ERC20.sol\":7842:7914  require(fromBalance >= amount, \"ERC20: transfer amount exceeds balance\") */\n      tag_282\n      jumpi\n      mload(0x40)\n      0x08c379a000000000000000000000000000000000000000000000000000000000\n      dup2\n      mstore\n      0x04\n      add\n      tag_283\n      swap1\n      tag_284\n      jump\t// in\n    tag_283:\n      mload(0x40)\n      dup1\n      swap2\n      sub\n      swap1\n      revert\n    tag_282:\n        /* \"@openzeppelin/contracts/token/ERC20/ERC20.sol\":7980:7986  amount */\n      dup2\n        /* \"@openzeppelin/contracts/token/ERC20/ERC20.sol\":7966:7977  fromBalance */\n      dup2\n        /* \"@openzeppelin/contracts/token/ERC20/ERC20.sol\":7966:7986  fromBalance - amount */\n      sub\n        /* \"@openzeppelin/contracts/token/ERC20/ERC20.sol\":7948:7957  _balances */\n      0x00\n        /* \"@openzeppelin/contracts/token/ERC20/ERC20.sol\":7948:7963  _balances[from] */\n      dup1\n        /* \"@openzeppelin/contracts/token/ERC20/ERC20.sol\":7958:7962  from */\n      dup7\n        /* \"@openzeppelin/contracts/token/ERC20/ERC20.sol\":7948:7963  _balances[from] */\n      0xffffffffffffffffffffffffffffffffffffffff\n      and\n      0xffffffffffffffffffffffffffffffffffffffff\n      and\n      dup2\n      mstore\n      0x20\n      add\n      swap1\n      dup2\n      mstore\n      0x20\n      add\n      0x00\n      keccak256\n        /* \"@openzeppelin/contracts/token/ERC20/ERC20.sol\":7948:7986  _balances[from] = fromBalance - amount */\n      dup2\n      swap1\n      sstore\n      pop\n        /* \"@openzeppelin/contracts/token/ERC20/ERC20.sol\":8023:8029  amount */\n      dup2\n        /* \"@openzeppelin/contracts/token/ERC20/ERC20.sol\":8006:8015  _balances */\n      0x00\n        /* \"@openzeppelin/contracts/token/ERC20/ERC20.sol\":8006:8019  _balances[to] */\n      dup1\n        /* \"@openzeppelin/contracts/token/ERC20/ERC20.sol\":8016:8018  to */\n      dup6\n        /* \"@openzeppelin/contracts/token/ERC20/ERC20.sol\":8006:8019  _balances[to] */\n      0xffffffffffffffffffffffffffffffffffffffff\n      and\n      0xffffffffffffffffffffffffffffffffffffffff\n      and\n      dup2\n      mstore\n      0x20\n      add\n      swap1\n      dup2\n      mstore\n      0x20\n      add\n      0x00\n      keccak256\n      0x00\n        /* \"@openzeppelin/contracts/token/ERC20/ERC20.sol\":8006:8029  _balances[to] += amount */\n      dup3\n      dup3\n      sload\n      tag_285\n      swap2\n      swap1\n      tag_187\n      jump\t// in\n    tag_285:\n      swap3\n      pop\n      pop\n      dup2\n      swap1\n      sstore\n      pop\n        /* \"@openzeppelin/contracts/token/ERC20/ERC20.sol\":8060:8062  to */\n      dup3\n        /* \"@openzeppelin/contracts/token/ERC20/ERC20.sol\":8045:8071  Transfer(from, to, amount) */\n      0xffffffffffffffffffffffffffffffffffffffff\n      and\n        /* \"@openzeppelin/contracts/token/ERC20/ERC20.sol\":8054:8058  from */\n      dup5\n        /* \"@openzeppelin/contracts/token/ERC20/ERC20.sol\":8045:8071  Transfer(from, to, amount) */\n      0xffffffffffffffffffffffffffffffffffffffff\n      and\n      0xddf252ad1be2c89b69c2b068fc378daa952ba7f163c4a11628f55a4df523b3ef\n        /* \"@openzeppelin/contracts/token/ERC20/ERC20.sol\":8064:8070  amount */\n      dup5\n        /* \"@openzeppelin/contracts/token/ERC20/ERC20.sol\":8045:8071  Transfer(from, to, amount) */\n      mload(0x40)\n      tag_286\n      swap2\n      swap1\n      tag_39\n      jump\t// in\n    tag_286:\n      mload(0x40)\n      dup1\n      swap2\n      sub\n      swap1\n      log3\n        /* \"@openzeppelin/contracts/token/ERC20/ERC20.sol\":8082:8119  _afterTokenTransfer(from, to, amount) */\n      tag_287\n        /* \"@openzeppelin/contracts/token/ERC20/ERC20.sol\":8102:8106  from */\n      dup5\n        /* \"@openzeppelin/contracts/token/ERC20/ERC20.sol\":8108:8110  to */\n      dup5\n        /* \"@openzeppelin/contracts/token/ERC20/ERC20.sol\":8112:8118  amount */\n      dup5\n        /* \"@openzeppelin/contracts/token/ERC20/ERC20.sol\":8082:8101  _afterTokenTransfer */\n      tag_266\n        /* \"@openzeppelin/contracts/token/ERC20/ERC20.sol\":8082:8119  _afterTokenTransfer(from, to, amount) */\n      jump\t// in\n    tag_287:\n        /* \"@openzeppelin/contracts/token/ERC20/ERC20.sol\":7583:8126  {... */\n      pop\n        /* \"@openzeppelin/contracts/token/ERC20/ERC20.sol\":7475:8126  function _transfer(... */\n      pop\n      pop\n      pop\n      jump\t// out\n        /* \"@openzeppelin/contracts/token/ERC20/ERC20.sol\":8402:8791  function _mint(address account, uint256 amount) internal virtual {... */\n    tag_189:\n        /* \"@openzeppelin/contracts/token/ERC20/ERC20.sol\":8504:8505  0 */\n      0x00\n        /* \"@openzeppelin/contracts/token/ERC20/ERC20.sol\":8485:8506  account != address(0) */\n      0xffffffffffffffffffffffffffffffffffffffff\n      and\n        /* \"@openzeppelin/contracts/token/ERC20/ERC20.sol\":8485:8492  account */\n      dup3\n        /* \"@openzeppelin/contracts/token/ERC20/ERC20.sol\":8485:8506  account != address(0) */\n      0xffffffffffffffffffffffffffffffffffffffff\n      and\n      eq\n      iszero\n        /* \"@openzeppelin/contracts/token/ERC20/ERC20.sol\":8477:8542  require(account != address(0), \"ERC20: mint to the zero address\") */\n      tag_289\n      jumpi\n      mload(0x40)\n      0x08c379a000000000000000000000000000000000000000000000000000000000\n      dup2\n      mstore\n      0x04\n      add\n      tag_290\n      swap1\n      tag_291\n      jump\t// in\n    tag_290:\n      mload(0x40)\n      dup1\n      swap2\n      sub\n      swap1\n      revert\n    tag_289:\n        /* \"@openzeppelin/contracts/token/ERC20/ERC20.sol\":8553:8602  _beforeTokenTransfer(address(0), account, amount) */\n      tag_292\n        /* \"@openzeppelin/contracts/token/ERC20/ERC20.sol\":8582:8583  0 */\n      0x00\n        /* \"@openzeppelin/contracts/token/ERC20/ERC20.sol\":8586:8593  account */\n      dup4\n        /* \"@openzeppelin/contracts/token/ERC20/ERC20.sol\":8595:8601  amount */\n      dup4\n        /* \"@openzeppelin/contracts/token/ERC20/ERC20.sol\":8553:8573  _beforeTokenTransfer */\n      tag_259\n        /* \"@openzeppelin/contracts/token/ERC20/ERC20.sol\":8553:8602  _beforeTokenTransfer(address(0), account, amount) */\n      jump\t// in\n    tag_292:\n        /* \"@openzeppelin/contracts/token/ERC20/ERC20.sol\":8629:8635  amount */\n      dup1\n        /* \"@openzeppelin/contracts/token/ERC20/ERC20.sol\":8613:8625  _totalSupply */\n      0x02\n      0x00\n        /* \"@openzeppelin/contracts/token/ERC20/ERC20.sol\":8613:8635  _totalSupply += amount */\n      dup3\n      dup3\n      sload\n      tag_293\n      swap2\n      swap1\n      tag_187\n      jump\t// in\n    tag_293:\n      swap3\n      pop\n      pop\n      dup2\n      swap1\n      sstore\n      pop\n        /* \"@openzeppelin/contracts/token/ERC20/ERC20.sol\":8667:8673  amount */\n      dup1\n        /* \"@openzeppelin/contracts/token/ERC20/ERC20.sol\":8645:8654  _balances */\n      0x00\n        /* \"@openzeppelin/contracts/token/ERC20/ERC20.sol\":8645:8663  _balances[account] */\n      dup1\n        /* \"@openzeppelin/contracts/token/ERC20/ERC20.sol\":8655:8662  account */\n      dup5\n        /* \"@openzeppelin/contracts/token/ERC20/ERC20.sol\":8645:8663  _balances[account] */\n      0xffffffffffffffffffffffffffffffffffffffff\n      and\n      0xffffffffffffffffffffffffffffffffffffffff\n      and\n      dup2\n      mstore\n      0x20\n      add\n      swap1\n      dup2\n      mstore\n      0x20\n      add\n      0x00\n      keccak256\n      0x00\n        /* \"@openzeppelin/contracts/token/ERC20/ERC20.sol\":8645:8673  _balances[account] += amount */\n      dup3\n      dup3\n      sload\n      tag_294\n      swap2\n      swap1\n      tag_187\n      jump\t// in\n    tag_294:\n      swap3\n      pop\n      pop\n      dup2\n      swap1\n      sstore\n      pop\n        /* \"@openzeppelin/contracts/token/ERC20/ERC20.sol\":8709:8716  account */\n      dup2\n        /* \"@openzeppelin/contracts/token/ERC20/ERC20.sol\":8688:8725  Transfer(address(0), account, amount) */\n      0xffffffffffffffffffffffffffffffffffffffff\n      and\n        /* \"@openzeppelin/contracts/token/ERC20/ERC20.sol\":8705:8706  0 */\n      0x00\n        /* \"@openzeppelin/contracts/token/ERC20/ERC20.sol\":8688:8725  Transfer(address(0), account, amount) */\n      0xffffffffffffffffffffffffffffffffffffffff\n      and\n      0xddf252ad1be2c89b69c2b068fc378daa952ba7f163c4a11628f55a4df523b3ef\n        /* \"@openzeppelin/contracts/token/ERC20/ERC20.sol\":8718:8724  amount */\n      dup4\n        /* \"@openzeppelin/contracts/token/ERC20/ERC20.sol\":8688:8725  Transfer(address(0), account, amount) */\n      mload(0x40)\n      tag_295\n      swap2\n      swap1\n      tag_39\n      jump\t// in\n    tag_295:\n      mload(0x40)\n      dup1\n      swap2\n      sub\n      swap1\n      log3\n        /* \"@openzeppelin/contracts/token/ERC20/ERC20.sol\":8736:8784  _afterTokenTransfer(address(0), account, amount) */\n      tag_296\n        /* \"@openzeppelin/contracts/token/ERC20/ERC20.sol\":8764:8765  0 */\n      0x00\n        /* \"@openzeppelin/contracts/token/ERC20/ERC20.sol\":8768:8775  account */\n      dup4\n        /* \"@openzeppelin/contracts/token/ERC20/ERC20.sol\":8777:8783  amount */\n      dup4\n        /* \"@openzeppelin/contracts/token/ERC20/ERC20.sol\":8736:8755  _afterTokenTransfer */\n      tag_266\n        /* \"@openzeppelin/contracts/token/ERC20/ERC20.sol\":8736:8784  _afterTokenTransfer(address(0), account, amount) */\n      jump\t// in\n    tag_296:\n        /* \"@openzeppelin/contracts/token/ERC20/ERC20.sol\":8402:8791  function _mint(address account, uint256 amount) internal virtual {... */\n      pop\n      pop\n      jump\t// out\n        /* \"@openzeppelin/contracts/token/ERC20/ERC20.sol\":11786:11907  function _beforeTokenTransfer(... */\n    tag_259:\n      pop\n      pop\n      pop\n      jump\t// out\n        /* \"@openzeppelin/contracts/token/ERC20/ERC20.sol\":12495:12615  function _afterTokenTransfer(... */\n    tag_266:\n      pop\n      pop\n      pop\n      jump\t// out\n        /* \"#utility.yul\":7:146   */\n    tag_300:\n        /* \"#utility.yul\":53:58   */\n      0x00\n        /* \"#utility.yul\":91:97   */\n      dup2\n        /* \"#utility.yul\":78:98   */\n      calldataload\n        /* \"#utility.yul\":69:98   */\n      swap1\n      pop\n        /* \"#utility.yul\":107:140   */\n      tag_302\n        /* \"#utility.yul\":134:139   */\n      dup2\n        /* \"#utility.yul\":107:140   */\n      tag_303\n      jump\t// in\n    tag_302:\n        /* \"#utility.yul\":7:146   */\n      swap3\n      swap2\n      pop\n      pop\n      jump\t// out\n        /* \"#utility.yul\":152:289   */\n    tag_304:\n        /* \"#utility.yul\":206:211   */\n      0x00\n        /* \"#utility.yul\":237:243   */\n      dup2\n        /* \"#utility.yul\":231:244   */\n      mload\n        /* \"#utility.yul\":222:244   */\n      swap1\n      pop\n        /* \"#utility.yul\":253:283   */\n      tag_306\n        /* \"#utility.yul\":277:282   */\n      dup2\n        /* \"#utility.yul\":253:283   */\n      tag_307\n      jump\t// in\n    tag_306:\n        /* \"#utility.yul\":152:289   */\n      swap3\n      swap2\n      pop\n      pop\n      jump\t// out\n        /* \"#utility.yul\":308:860   */\n    tag_308:\n        /* \"#utility.yul\":365:373   */\n      0x00\n        /* \"#utility.yul\":375:381   */\n      dup1\n        /* \"#utility.yul\":425:428   */\n      dup4\n        /* \"#utility.yul\":418:422   */\n      0x1f\n        /* \"#utility.yul\":410:416   */\n      dup5\n        /* \"#utility.yul\":406:423   */\n      add\n        /* \"#utility.yul\":402:429   */\n      slt\n        /* \"#utility.yul\":392:514   */\n      tag_310\n      jumpi\n        /* \"#utility.yul\":433:512   */\n      tag_311\n      tag_312\n      jump\t// in\n    tag_311:\n        /* \"#utility.yul\":392:514   */\n    tag_310:\n        /* \"#utility.yul\":546:552   */\n      dup3\n        /* \"#utility.yul\":533:553   */\n      calldataload\n        /* \"#utility.yul\":523:553   */\n      swap1\n      pop\n        /* \"#utility.yul\":576:594   */\n      0xffffffffffffffff\n        /* \"#utility.yul\":568:574   */\n      dup2\n        /* \"#utility.yul\":565:595   */\n      gt\n        /* \"#utility.yul\":562:679   */\n      iszero\n      tag_313\n      jumpi\n        /* \"#utility.yul\":598:677   */\n      tag_314\n      tag_315\n      jump\t// in\n    tag_314:\n        /* \"#utility.yul\":562:679   */\n    tag_313:\n        /* \"#utility.yul\":712:716   */\n      0x20\n        /* \"#utility.yul\":704:710   */\n      dup4\n        /* \"#utility.yul\":700:717   */\n      add\n        /* \"#utility.yul\":688:717   */\n      swap2\n      pop\n        /* \"#utility.yul\":766:769   */\n      dup4\n        /* \"#utility.yul\":758:762   */\n      0x01\n        /* \"#utility.yul\":750:756   */\n      dup3\n        /* \"#utility.yul\":746:763   */\n      mul\n        /* \"#utility.yul\":736:744   */\n      dup4\n        /* \"#utility.yul\":732:764   */\n      add\n        /* \"#utility.yul\":729:770   */\n      gt\n        /* \"#utility.yul\":726:854   */\n      iszero\n      tag_316\n      jumpi\n        /* \"#utility.yul\":773:852   */\n      tag_317\n      tag_318\n      jump\t// in\n    tag_317:\n        /* \"#utility.yul\":726:854   */\n    tag_316:\n        /* \"#utility.yul\":308:860   */\n      swap3\n      pop\n      swap3\n      swap1\n      pop\n      jump\t// out\n        /* \"#utility.yul\":866:1005   */\n    tag_319:\n        /* \"#utility.yul\":912:917   */\n      0x00\n        /* \"#utility.yul\":950:956   */\n      dup2\n        /* \"#utility.yul\":937:957   */\n      calldataload\n        /* \"#utility.yul\":928:957   */\n      swap1\n      pop\n        /* \"#utility.yul\":966:999   */\n      tag_321\n        /* \"#utility.yul\":993:998   */\n      dup2\n        /* \"#utility.yul\":966:999   */\n      tag_322\n      jump\t// in\n    tag_321:\n        /* \"#utility.yul\":866:1005   */\n      swap3\n      swap2\n      pop\n      pop\n      jump\t// out\n        /* \"#utility.yul\":1011:1340   */\n    tag_89:\n        /* \"#utility.yul\":1070:1076   */\n      0x00\n        /* \"#utility.yul\":1119:1121   */\n      0x20\n        /* \"#utility.yul\":1107:1116   */\n      dup3\n        /* \"#utility.yul\":1098:1105   */\n      dup5\n        /* \"#utility.yul\":1094:1117   */\n      sub\n        /* \"#utility.yul\":1090:1122   */\n      slt\n        /* \"#utility.yul\":1087:1206   */\n      iszero\n      tag_324\n      jumpi\n        /* \"#utility.yul\":1125:1204   */\n      tag_325\n      tag_326\n      jump\t// in\n    tag_325:\n        /* \"#utility.yul\":1087:1206   */\n    tag_324:\n        /* \"#utility.yul\":1245:1246   */\n      0x00\n        /* \"#utility.yul\":1270:1323   */\n      tag_327\n        /* \"#utility.yul\":1315:1322   */\n      dup5\n        /* \"#utility.yul\":1306:1312   */\n      dup3\n        /* \"#utility.yul\":1295:1304   */\n      dup6\n        /* \"#utility.yul\":1291:1313   */\n      add\n        /* \"#utility.yul\":1270:1323   */\n      tag_300\n      jump\t// in\n    tag_327:\n        /* \"#utility.yul\":1260:1323   */\n      swap2\n      pop\n        /* \"#utility.yul\":1216:1333   */\n      pop\n        /* \"#utility.yul\":1011:1340   */\n      swap3\n      swap2\n      pop\n      pop\n      jump\t// out\n        /* \"#utility.yul\":1346:1820   */\n    tag_122:\n        /* \"#utility.yul\":1414:1420   */\n      0x00\n        /* \"#utility.yul\":1422:1428   */\n      dup1\n        /* \"#utility.yul\":1471:1473   */\n      0x40\n        /* \"#utility.yul\":1459:1468   */\n      dup4\n        /* \"#utility.yul\":1450:1457   */\n      dup6\n        /* \"#utility.yul\":1446:1469   */\n      sub\n        /* \"#utility.yul\":1442:1474   */\n      slt\n        /* \"#utility.yul\":1439:1558   */\n      iszero\n      tag_329\n      jumpi\n        /* \"#utility.yul\":1477:1556   */\n      tag_330\n      tag_326\n      jump\t// in\n    tag_330:\n        /* \"#utility.yul\":1439:1558   */\n    tag_329:\n        /* \"#utility.yul\":1597:1598   */\n      0x00\n        /* \"#utility.yul\":1622:1675   */\n      tag_331\n        /* \"#utility.yul\":1667:1674   */\n      dup6\n        /* \"#utility.yul\":1658:1664   */\n      dup3\n        /* \"#utility.yul\":1647:1656   */\n      dup7\n        /* \"#utility.yul\":1643:1665   */\n      add\n        /* \"#utility.yul\":1622:1675   */\n      tag_300\n      jump\t// in\n    tag_331:\n        /* \"#utility.yul\":1612:1675   */\n      swap3\n      pop\n        /* \"#utility.yul\":1568:1685   */\n      pop\n        /* \"#utility.yul\":1724:1726   */\n      0x20\n        /* \"#utility.yul\":1750:1803   */\n      tag_332\n        /* \"#utility.yul\":1795:1802   */\n      dup6\n        /* \"#utility.yul\":1786:1792   */\n      dup3\n        /* \"#utility.yul\":1775:1784   */\n      dup7\n        /* \"#utility.yul\":1771:1793   */\n      add\n        /* \"#utility.yul\":1750:1803   */\n      tag_300\n      jump\t// in\n    tag_332:\n        /* \"#utility.yul\":1740:1803   */\n      swap2\n      pop\n        /* \"#utility.yul\":1695:1813   */\n      pop\n        /* \"#utility.yul\":1346:1820   */\n      swap3\n      pop\n      swap3\n      swap1\n      pop\n      jump\t// out\n        /* \"#utility.yul\":1826:2445   */\n    tag_68:\n        /* \"#utility.yul\":1903:1909   */\n      0x00\n        /* \"#utility.yul\":1911:1917   */\n      dup1\n        /* \"#utility.yul\":1919:1925   */\n      0x00\n        /* \"#utility.yul\":1968:1970   */\n      0x60\n        /* \"#utility.yul\":1956:1965   */\n      dup5\n        /* \"#utility.yul\":1947:1954   */\n      dup7\n        /* \"#utility.yul\":1943:1966   */\n      sub\n        /* \"#utility.yul\":1939:1971   */\n      slt\n        /* \"#utility.yul\":1936:2055   */\n      iszero\n      tag_334\n      jumpi\n        /* \"#utility.yul\":1974:2053   */\n      tag_335\n      tag_326\n      jump\t// in\n    tag_335:\n        /* \"#utility.yul\":1936:2055   */\n    tag_334:\n        /* \"#utility.yul\":2094:2095   */\n      0x00\n        /* \"#utility.yul\":2119:2172   */\n      tag_336\n        /* \"#utility.yul\":2164:2171   */\n      dup7\n        /* \"#utility.yul\":2155:2161   */\n      dup3\n        /* \"#utility.yul\":2144:2153   */\n      dup8\n        /* \"#utility.yul\":2140:2162   */\n      add\n        /* \"#utility.yul\":2119:2172   */\n      tag_300\n      jump\t// in\n    tag_336:\n        /* \"#utility.yul\":2109:2172   */\n      swap4\n      pop\n        /* \"#utility.yul\":2065:2182   */\n      pop\n        /* \"#utility.yul\":2221:2223   */\n      0x20\n        /* \"#utility.yul\":2247:2300   */\n      tag_337\n        /* \"#utility.yul\":2292:2299   */\n      dup7\n        /* \"#utility.yul\":2283:2289   */\n      dup3\n        /* \"#utility.yul\":2272:2281   */\n      dup8\n        /* \"#utility.yul\":2268:2290   */\n      add\n        /* \"#utility.yul\":2247:2300   */\n      tag_300\n      jump\t// in\n    tag_337:\n        /* \"#utility.yul\":2237:2300   */\n      swap3\n      pop\n        /* \"#utility.yul\":2192:2310   */\n      pop\n        /* \"#utility.yul\":2349:2351   */\n      0x40\n        /* \"#utility.yul\":2375:2428   */\n      tag_338\n        /* \"#utility.yul\":2420:2427   */\n      dup7\n        /* \"#utility.yul\":2411:2417   */\n      dup3\n        /* \"#utility.yul\":2400:2409   */\n      dup8\n        /* \"#utility.yul\":2396:2418   */\n      add\n        /* \"#utility.yul\":2375:2428   */\n      tag_319\n      jump\t// in\n    tag_338:\n        /* \"#utility.yul\":2365:2428   */\n      swap2\n      pop\n        /* \"#utility.yul\":2320:2438   */\n      pop\n        /* \"#utility.yul\":1826:2445   */\n      swap3\n      pop\n      swap3\n      pop\n      swap3\n      jump\t// out\n        /* \"#utility.yul\":2451:3414   */\n    tag_52:\n        /* \"#utility.yul\":2548:2554   */\n      0x00\n        /* \"#utility.yul\":2556:2562   */\n      dup1\n        /* \"#utility.yul\":2564:2570   */\n      0x00\n        /* \"#utility.yul\":2572:2578   */\n      dup1\n        /* \"#utility.yul\":2580:2586   */\n      0x00\n        /* \"#utility.yul\":2629:2632   */\n      0x80\n        /* \"#utility.yul\":2617:2626   */\n      dup7\n        /* \"#utility.yul\":2608:2615   */\n      dup9\n        /* \"#utility.yul\":2604:2627   */\n      sub\n        /* \"#utility.yul\":2600:2633   */\n      slt\n        /* \"#utility.yul\":2597:2717   */\n      iszero\n      tag_340\n      jumpi\n        /* \"#utility.yul\":2636:2715   */\n      tag_341\n      tag_326\n      jump\t// in\n    tag_341:\n        /* \"#utility.yul\":2597:2717   */\n    tag_340:\n        /* \"#utility.yul\":2756:2757   */\n      0x00\n        /* \"#utility.yul\":2781:2834   */\n      tag_342\n        /* \"#utility.yul\":2826:2833   */\n      dup9\n        /* \"#utility.yul\":2817:2823   */\n      dup3\n        /* \"#utility.yul\":2806:2815   */\n      dup10\n        /* \"#utility.yul\":2802:2824   */\n      add\n        /* \"#utility.yul\":2781:2834   */\n      tag_300\n      jump\t// in\n    tag_342:\n        /* \"#utility.yul\":2771:2834   */\n      swap6\n      pop\n        /* \"#utility.yul\":2727:2844   */\n      pop\n        /* \"#utility.yul\":2883:2885   */\n      0x20\n        /* \"#utility.yul\":2909:2962   */\n      tag_343\n        /* \"#utility.yul\":2954:2961   */\n      dup9\n        /* \"#utility.yul\":2945:2951   */\n      dup3\n        /* \"#utility.yul\":2934:2943   */\n      dup10\n        /* \"#utility.yul\":2930:2952   */\n      add\n        /* \"#utility.yul\":2909:2962   */\n      tag_300\n      jump\t// in\n    tag_343:\n        /* \"#utility.yul\":2899:2962   */\n      swap5\n      pop\n        /* \"#utility.yul\":2854:2972   */\n      pop\n        /* \"#utility.yul\":3011:3013   */\n      0x40\n        /* \"#utility.yul\":3037:3090   */\n      tag_344\n        /* \"#utility.yul\":3082:3089   */\n      dup9\n        /* \"#utility.yul\":3073:3079   */\n      dup3\n        /* \"#utility.yul\":3062:3071   */\n      dup10\n        /* \"#utility.yul\":3058:3080   */\n      add\n        /* \"#utility.yul\":3037:3090   */\n      tag_319\n      jump\t// in\n    tag_344:\n        /* \"#utility.yul\":3027:3090   */\n      swap4\n      pop\n        /* \"#utility.yul\":2982:3100   */\n      pop\n        /* \"#utility.yul\":3167:3169   */\n      0x60\n        /* \"#utility.yul\":3156:3165   */\n      dup7\n        /* \"#utility.yul\":3152:3170   */\n      add\n        /* \"#utility.yul\":3139:3171   */\n      calldataload\n        /* \"#utility.yul\":3198:3216   */\n      0xffffffffffffffff\n        /* \"#utility.yul\":3190:3196   */\n      dup2\n        /* \"#utility.yul\":3187:3217   */\n      gt\n        /* \"#utility.yul\":3184:3301   */\n      iszero\n      tag_345\n      jumpi\n        /* \"#utility.yul\":3220:3299   */\n      tag_346\n      tag_347\n      jump\t// in\n    tag_346:\n        /* \"#utility.yul\":3184:3301   */\n    tag_345:\n        /* \"#utility.yul\":3333:3397   */\n      tag_348\n        /* \"#utility.yul\":3389:3396   */\n      dup9\n        /* \"#utility.yul\":3380:3386   */\n      dup3\n        /* \"#utility.yul\":3369:3378   */\n      dup10\n        /* \"#utility.yul\":3365:3387   */\n      add\n        /* \"#utility.yul\":3333:3397   */\n      tag_308\n      jump\t// in\n    tag_348:\n        /* \"#utility.yul\":3315:3397   */\n      swap3\n      pop\n      swap3\n      pop\n        /* \"#utility.yul\":3110:3407   */\n      pop\n        /* \"#utility.yul\":2451:3414   */\n      swap3\n      swap6\n      pop\n      swap3\n      swap6\n      swap1\n      swap4\n      pop\n      jump\t// out\n        /* \"#utility.yul\":3420:3894   */\n    tag_42:\n        /* \"#utility.yul\":3488:3494   */\n      0x00\n        /* \"#utility.yul\":3496:3502   */\n      dup1\n        /* \"#utility.yul\":3545:3547   */\n      0x40\n        /* \"#utility.yul\":3533:3542   */\n      dup4\n        /* \"#utility.yul\":3524:3531   */\n      dup6\n        /* \"#utility.yul\":3520:3543   */\n      sub\n        /* \"#utility.yul\":3516:3548   */\n      slt\n        /* \"#utility.yul\":3513:3632   */\n      iszero\n      tag_350\n      jumpi\n        /* \"#utility.yul\":3551:3630   */\n      tag_351\n      tag_326\n      jump\t// in\n    tag_351:\n        /* \"#utility.yul\":3513:3632   */\n    tag_350:\n        /* \"#utility.yul\":3671:3672   */\n      0x00\n        /* \"#utility.yul\":3696:3749   */\n      tag_352\n        /* \"#utility.yul\":3741:3748   */\n      dup6\n        /* \"#utility.yul\":3732:3738   */\n      dup3\n        /* \"#utility.yul\":3721:3730   */\n      dup7\n        /* \"#utility.yul\":3717:3739   */\n      add\n        /* \"#utility.yul\":3696:3749   */\n      tag_300\n      jump\t// in\n    tag_352:\n        /* \"#utility.yul\":3686:3749   */\n      swap3\n      pop\n        /* \"#utility.yul\":3642:3759   */\n      pop\n        /* \"#utility.yul\":3798:3800   */\n      0x20\n        /* \"#utility.yul\":3824:3877   */\n      tag_353\n        /* \"#utility.yul\":3869:3876   */\n      dup6\n        /* \"#utility.yul\":3860:3866   */\n      dup3\n        /* \"#utility.yul\":3849:3858   */\n      dup7\n        /* \"#utility.yul\":3845:3867   */\n      add\n        /* \"#utility.yul\":3824:3877   */\n      tag_319\n      jump\t// in\n    tag_353:\n        /* \"#utility.yul\":3814:3877   */\n      swap2\n      pop\n        /* \"#utility.yul\":3769:3887   */\n      pop\n        /* \"#utility.yul\":3420:3894   */\n      swap3\n      pop\n      swap3\n      swap1\n      pop\n      jump\t// out\n        /* \"#utility.yul\":3900:4245   */\n    tag_154:\n        /* \"#utility.yul\":3967:3973   */\n      0x00\n        /* \"#utility.yul\":4016:4018   */\n      0x20\n        /* \"#utility.yul\":4004:4013   */\n      dup3\n        /* \"#utility.yul\":3995:4002   */\n      dup5\n        /* \"#utility.yul\":3991:4014   */\n      sub\n        /* \"#utility.yul\":3987:4019   */\n      slt\n        /* \"#utility.yul\":3984:4103   */\n      iszero\n      tag_355\n      jumpi\n        /* \"#utility.yul\":4022:4101   */\n      tag_356\n      tag_326\n      jump\t// in\n    tag_356:\n        /* \"#utility.yul\":3984:4103   */\n    tag_355:\n        /* \"#utility.yul\":4142:4143   */\n      0x00\n        /* \"#utility.yul\":4167:4228   */\n      tag_357\n        /* \"#utility.yul\":4220:4227   */\n      dup5\n        /* \"#utility.yul\":4211:4217   */\n      dup3\n        /* \"#utility.yul\":4200:4209   */\n      dup6\n        /* \"#utility.yul\":4196:4218   */\n      add\n        /* \"#utility.yul\":4167:4228   */\n      tag_304\n      jump\t// in\n    tag_357:\n        /* \"#utility.yul\":4157:4228   */\n      swap2\n      pop\n        /* \"#utility.yul\":4113:4238   */\n      pop\n        /* \"#utility.yul\":3900:4245   */\n      swap3\n      swap2\n      pop\n      pop\n      jump\t// out\n        /* \"#utility.yul\":4251:4580   */\n    tag_64:\n        /* \"#utility.yul\":4310:4316   */\n      0x00\n        /* \"#utility.yul\":4359:4361   */\n      0x20\n        /* \"#utility.yul\":4347:4356   */\n      dup3\n        /* \"#utility.yul\":4338:4345   */\n      dup5\n        /* \"#utility.yul\":4334:4357   */\n      sub\n        /* \"#utility.yul\":4330:4362   */\n      slt\n        /* \"#utility.yul\":4327:4446   */\n      iszero\n      tag_359\n      jumpi\n        /* \"#utility.yul\":4365:4444   */\n      tag_360\n      tag_326\n      jump\t// in\n    tag_360:\n        /* \"#utility.yul\":4327:4446   */\n    tag_359:\n        /* \"#utility.yul\":4485:4486   */\n      0x00\n        /* \"#utility.yul\":4510:4563   */\n      tag_361\n        /* \"#utility.yul\":4555:4562   */\n      dup5\n        /* \"#utility.yul\":4546:4552   */\n      dup3\n        /* \"#utility.yul\":4535:4544   */\n      dup6\n        /* \"#utility.yul\":4531:4553   */\n      add\n        /* \"#utility.yul\":4510:4563   */\n      tag_319\n      jump\t// in\n    tag_361:\n        /* \"#utility.yul\":4500:4563   */\n      swap2\n      pop\n        /* \"#utility.yul\":4456:4573   */\n      pop\n        /* \"#utility.yul\":4251:4580   */\n      swap3\n      swap2\n      pop\n      pop\n      jump\t// out\n        /* \"#utility.yul\":4586:4704   */\n    tag_362:\n        /* \"#utility.yul\":4673:4697   */\n      tag_364\n        /* \"#utility.yul\":4691:4696   */\n      dup2\n        /* \"#utility.yul\":4673:4697   */\n      tag_365\n      jump\t// in\n    tag_364:\n        /* \"#utility.yul\":4668:4671   */\n      dup3\n        /* \"#utility.yul\":4661:4698   */\n      mstore\n        /* \"#utility.yul\":4586:4704   */\n      pop\n      pop\n      jump\t// out\n        /* \"#utility.yul\":4710:4819   */\n    tag_366:\n        /* \"#utility.yul\":4791:4812   */\n      tag_368\n        /* \"#utility.yul\":4806:4811   */\n      dup2\n        /* \"#utility.yul\":4791:4812   */\n      tag_369\n      jump\t// in\n    tag_368:\n        /* \"#utility.yul\":4786:4789   */\n      dup3\n        /* \"#utility.yul\":4779:4813   */\n      mstore\n        /* \"#utility.yul\":4710:4819   */\n      pop\n      pop\n      jump\t// out\n        /* \"#utility.yul\":4825:4940   */\n    tag_370:\n        /* \"#utility.yul\":4910:4933   */\n      tag_372\n        /* \"#utility.yul\":4927:4932   */\n      dup2\n        /* \"#utility.yul\":4910:4933   */\n      tag_373\n      jump\t// in\n    tag_372:\n        /* \"#utility.yul\":4905:4908   */\n      dup3\n        /* \"#utility.yul\":4898:4934   */\n      mstore\n        /* \"#utility.yul\":4825:4940   */\n      pop\n      pop\n      jump\t// out\n        /* \"#utility.yul\":4946:5105   */\n    tag_374:\n        /* \"#utility.yul\":5047:5098   */\n      tag_376\n        /* \"#utility.yul\":5092:5097   */\n      dup2\n        /* \"#utility.yul\":5047:5098   */\n      tag_377\n      jump\t// in\n    tag_376:\n        /* \"#utility.yul\":5042:5045   */\n      dup3\n        /* \"#utility.yul\":5035:5099   */\n      mstore\n        /* \"#utility.yul\":4946:5105   */\n      pop\n      pop\n      jump\t// out\n        /* \"#utility.yul\":5111:5272   */\n    tag_378:\n        /* \"#utility.yul\":5213:5265   */\n      tag_380\n        /* \"#utility.yul\":5259:5264   */\n      dup2\n        /* \"#utility.yul\":5213:5265   */\n      tag_381\n      jump\t// in\n    tag_380:\n        /* \"#utility.yul\":5208:5211   */\n      dup3\n        /* \"#utility.yul\":5201:5266   */\n      mstore\n        /* \"#utility.yul\":5111:5272   */\n      pop\n      pop\n      jump\t// out\n        /* \"#utility.yul\":5278:5642   */\n    tag_382:\n        /* \"#utility.yul\":5366:5369   */\n      0x00\n        /* \"#utility.yul\":5394:5433   */\n      tag_384\n        /* \"#utility.yul\":5427:5432   */\n      dup3\n        /* \"#utility.yul\":5394:5433   */\n      tag_385\n      jump\t// in\n    tag_384:\n        /* \"#utility.yul\":5449:5520   */\n      tag_386\n        /* \"#utility.yul\":5513:5519   */\n      dup2\n        /* \"#utility.yul\":5508:5511   */\n      dup6\n        /* \"#utility.yul\":5449:5520   */\n      tag_387\n      jump\t// in\n    tag_386:\n        /* \"#utility.yul\":5442:5520   */\n      swap4\n      pop\n        /* \"#utility.yul\":5529:5581   */\n      tag_388\n        /* \"#utility.yul\":5574:5580   */\n      dup2\n        /* \"#utility.yul\":5569:5572   */\n      dup6\n        /* \"#utility.yul\":5562:5566   */\n      0x20\n        /* \"#utility.yul\":5555:5560   */\n      dup7\n        /* \"#utility.yul\":5551:5567   */\n      add\n        /* \"#utility.yul\":5529:5581   */\n      tag_389\n      jump\t// in\n    tag_388:\n        /* \"#utility.yul\":5606:5635   */\n      tag_390\n        /* \"#utility.yul\":5628:5634   */\n      dup2\n        /* \"#utility.yul\":5606:5635   */\n      tag_391\n      jump\t// in\n    tag_390:\n        /* \"#utility.yul\":5601:5604   */\n      dup5\n        /* \"#utility.yul\":5597:5636   */\n      add\n        /* \"#utility.yul\":5590:5636   */\n      swap2\n      pop\n        /* \"#utility.yul\":5370:5642   */\n      pop\n        /* \"#utility.yul\":5278:5642   */\n      swap3\n      swap2\n      pop\n      pop\n      jump\t// out\n        /* \"#utility.yul\":5648:6014   */\n    tag_392:\n        /* \"#utility.yul\":5790:5793   */\n      0x00\n        /* \"#utility.yul\":5811:5878   */\n      tag_394\n        /* \"#utility.yul\":5875:5877   */\n      0x23\n        /* \"#utility.yul\":5870:5873   */\n      dup4\n        /* \"#utility.yul\":5811:5878   */\n      tag_387\n      jump\t// in\n    tag_394:\n        /* \"#utility.yul\":5804:5878   */\n      swap2\n      pop\n        /* \"#utility.yul\":5887:5980   */\n      tag_395\n        /* \"#utility.yul\":5976:5979   */\n      dup3\n        /* \"#utility.yul\":5887:5980   */\n      tag_396\n      jump\t// in\n    tag_395:\n        /* \"#utility.yul\":6005:6007   */\n      0x40\n        /* \"#utility.yul\":6000:6003   */\n      dup3\n        /* \"#utility.yul\":5996:6008   */\n      add\n        /* \"#utility.yul\":5989:6008   */\n      swap1\n      pop\n        /* \"#utility.yul\":5648:6014   */\n      swap2\n      swap1\n      pop\n      jump\t// out\n        /* \"#utility.yul\":6020:6386   */\n    tag_397:\n        /* \"#utility.yul\":6162:6165   */\n      0x00\n        /* \"#utility.yul\":6183:6250   */\n      tag_399\n        /* \"#utility.yul\":6247:6249   */\n      0x22\n        /* \"#utility.yul\":6242:6245   */\n      dup4\n        /* \"#utility.yul\":6183:6250   */\n      tag_387\n      jump\t// in\n    tag_399:\n        /* \"#utility.yul\":6176:6250   */\n      swap2\n      pop\n        /* \"#utility.yul\":6259:6352   */\n      tag_400\n        /* \"#utility.yul\":6348:6351   */\n      dup3\n        /* \"#utility.yul\":6259:6352   */\n      tag_401\n      jump\t// in\n    tag_400:\n        /* \"#utility.yul\":6377:6379   */\n      0x40\n        /* \"#utility.yul\":6372:6375   */\n      dup3\n        /* \"#utility.yul\":6368:6380   */\n      add\n        /* \"#utility.yul\":6361:6380   */\n      swap1\n      pop\n        /* \"#utility.yul\":6020:6386   */\n      swap2\n      swap1\n      pop\n      jump\t// out\n        /* \"#utility.yul\":6392:6758   */\n    tag_402:\n        /* \"#utility.yul\":6534:6537   */\n      0x00\n        /* \"#utility.yul\":6555:6622   */\n      tag_404\n        /* \"#utility.yul\":6619:6621   */\n      0x22\n        /* \"#utility.yul\":6614:6617   */\n      dup4\n        /* \"#utility.yul\":6555:6622   */\n      tag_387\n      jump\t// in\n    tag_404:\n        /* \"#utility.yul\":6548:6622   */\n      swap2\n      pop\n        /* \"#utility.yul\":6631:6724   */\n      tag_405\n        /* \"#utility.yul\":6720:6723   */\n      dup3\n        /* \"#utility.yul\":6631:6724   */\n      tag_406\n      jump\t// in\n    tag_405:\n        /* \"#utility.yul\":6749:6751   */\n      0x40\n        /* \"#utility.yul\":6744:6747   */\n      dup3\n        /* \"#utility.yul\":6740:6752   */\n      add\n        /* \"#utility.yul\":6733:6752   */\n      swap1\n      pop\n        /* \"#utility.yul\":6392:6758   */\n      swap2\n      swap1\n      pop\n      jump\t// out\n        /* \"#utility.yul\":6764:7130   */\n    tag_407:\n        /* \"#utility.yul\":6906:6909   */\n      0x00\n        /* \"#utility.yul\":6927:6994   */\n      tag_409\n        /* \"#utility.yul\":6991:6993   */\n      0x1c\n        /* \"#utility.yul\":6986:6989   */\n      dup4\n        /* \"#utility.yul\":6927:6994   */\n      tag_387\n      jump\t// in\n    tag_409:\n        /* \"#utility.yul\":6920:6994   */\n      swap2\n      pop\n        /* \"#utility.yul\":7003:7096   */\n      tag_410\n        /* \"#utility.yul\":7092:7095   */\n      dup3\n        /* \"#utility.yul\":7003:7096   */\n      tag_411\n      jump\t// in\n    tag_410:\n        /* \"#utility.yul\":7121:7123   */\n      0x20\n        /* \"#utility.yul\":7116:7119   */\n      dup3\n        /* \"#utility.yul\":7112:7124   */\n      add\n        /* \"#utility.yul\":7105:7124   */\n      swap1\n      pop\n        /* \"#utility.yul\":6764:7130   */\n      swap2\n      swap1\n      pop\n      jump\t// out\n        /* \"#utility.yul\":7136:7502   */\n    tag_412:\n        /* \"#utility.yul\":7278:7281   */\n      0x00\n        /* \"#utility.yul\":7299:7366   */\n      tag_414\n        /* \"#utility.yul\":7363:7365   */\n      0x1d\n        /* \"#utility.yul\":7358:7361   */\n      dup4\n        /* \"#utility.yul\":7299:7366   */\n      tag_387\n      jump\t// in\n    tag_414:\n        /* \"#utility.yul\":7292:7366   */\n      swap2\n      pop\n        /* \"#utility.yul\":7375:7468   */\n      tag_415\n        /* \"#utility.yul\":7464:7467   */\n      dup3\n        /* \"#utility.yul\":7375:7468   */\n      tag_416\n      jump\t// in\n    tag_415:\n        /* \"#utility.yul\":7493:7495   */\n      0x20\n        /* \"#utility.yul\":7488:7491   */\n      dup3\n        /* \"#utility.yul\":7484:7496   */\n      add\n        /* \"#utility.yul\":7477:7496   */\n      swap1\n      pop\n        /* \"#utility.yul\":7136:7502   */\n      swap2\n      swap1\n      pop\n      jump\t// out\n        /* \"#utility.yul\":7508:7874   */\n    tag_417:\n        /* \"#utility.yul\":7650:7653   */\n      0x00\n        /* \"#utility.yul\":7671:7738   */\n      tag_419\n        /* \"#utility.yul\":7735:7737   */\n      0x26\n        /* \"#utility.yul\":7730:7733   */\n      dup4\n        /* \"#utility.yul\":7671:7738   */\n      tag_387\n      jump\t// in\n    tag_419:\n        /* \"#utility.yul\":7664:7738   */\n      swap2\n      pop\n        /* \"#utility.yul\":7747:7840   */\n      tag_420\n        /* \"#utility.yul\":7836:7839   */\n      dup3\n        /* \"#utility.yul\":7747:7840   */\n      tag_421\n      jump\t// in\n    tag_420:\n        /* \"#utility.yul\":7865:7867   */\n      0x40\n        /* \"#utility.yul\":7860:7863   */\n      dup3\n        /* \"#utility.yul\":7856:7868   */\n      add\n        /* \"#utility.yul\":7849:7868   */\n      swap1\n      pop\n        /* \"#utility.yul\":7508:7874   */\n      swap2\n      swap1\n      pop\n      jump\t// out\n        /* \"#utility.yul\":7880:8246   */\n    tag_422:\n        /* \"#utility.yul\":8022:8025   */\n      0x00\n        /* \"#utility.yul\":8043:8110   */\n      tag_424\n        /* \"#utility.yul\":8107:8109   */\n      0x12\n        /* \"#utility.yul\":8102:8105   */\n      dup4\n        /* \"#utility.yul\":8043:8110   */\n      tag_387\n      jump\t// in\n    tag_424:\n        /* \"#utility.yul\":8036:8110   */\n      swap2\n      pop\n        /* \"#utility.yul\":8119:8212   */\n      tag_425\n        /* \"#utility.yul\":8208:8211   */\n      dup3\n        /* \"#utility.yul\":8119:8212   */\n      tag_426\n      jump\t// in\n    tag_425:\n        /* \"#utility.yul\":8237:8239   */\n      0x20\n        /* \"#utility.yul\":8232:8235   */\n      dup3\n        /* \"#utility.yul\":8228:8240   */\n      add\n        /* \"#utility.yul\":8221:8240   */\n      swap1\n      pop\n        /* \"#utility.yul\":7880:8246   */\n      swap2\n      swap1\n      pop\n      jump\t// out\n        /* \"#utility.yul\":8252:8618   */\n    tag_427:\n        /* \"#utility.yul\":8394:8397   */\n      0x00\n        /* \"#utility.yul\":8415:8482   */\n      tag_429\n        /* \"#utility.yul\":8479:8481   */\n      0x17\n        /* \"#utility.yul\":8474:8477   */\n      dup4\n        /* \"#utility.yul\":8415:8482   */\n      tag_387\n      jump\t// in\n    tag_429:\n        /* \"#utility.yul\":8408:8482   */\n      swap2\n      pop\n        /* \"#utility.yul\":8491:8584   */\n      tag_430\n        /* \"#utility.yul\":8580:8583   */\n      dup3\n        /* \"#utility.yul\":8491:8584   */\n      tag_431\n      jump\t// in\n    tag_430:\n        /* \"#utility.yul\":8609:8611   */\n      0x20\n        /* \"#utility.yul\":8604:8607   */\n      dup3\n        /* \"#utility.yul\":8600:8612   */\n      add\n        /* \"#utility.yul\":8593:8612   */\n      swap1\n      pop\n        /* \"#utility.yul\":8252:8618   */\n      swap2\n      swap1\n      pop\n      jump\t// out\n        /* \"#utility.yul\":8624:8990   */\n    tag_432:\n        /* \"#utility.yul\":8766:8769   */\n      0x00\n        /* \"#utility.yul\":8787:8854   */\n      tag_434\n        /* \"#utility.yul\":8851:8853   */\n      0x12\n        /* \"#utility.yul\":8846:8849   */\n      dup4\n        /* \"#utility.yul\":8787:8854   */\n      tag_387\n      jump\t// in\n    tag_434:\n        /* \"#utility.yul\":8780:8854   */\n      swap2\n      pop\n        /* \"#utility.yul\":8863:8956   */\n      tag_435\n        /* \"#utility.yul\":8952:8955   */\n      dup3\n        /* \"#utility.yul\":8863:8956   */\n      tag_436\n      jump\t// in\n    tag_435:\n        /* \"#utility.yul\":8981:8983   */\n      0x20\n        /* \"#utility.yul\":8976:8979   */\n      dup3\n        /* \"#utility.yul\":8972:8984   */\n      add\n        /* \"#utility.yul\":8965:8984   */\n      swap1\n      pop\n        /* \"#utility.yul\":8624:8990   */\n      swap2\n      swap1\n      pop\n      jump\t// out\n        /* \"#utility.yul\":8996:9362   */\n    tag_437:\n        /* \"#utility.yul\":9138:9141   */\n      0x00\n        /* \"#utility.yul\":9159:9226   */\n      tag_439\n        /* \"#utility.yul\":9223:9225   */\n      0x15\n        /* \"#utility.yul\":9218:9221   */\n      dup4\n        /* \"#utility.yul\":9159:9226   */\n      tag_387\n      jump\t// in\n    tag_439:\n        /* \"#utility.yul\":9152:9226   */\n      swap2\n      pop\n        /* \"#utility.yul\":9235:9328   */\n      tag_440\n        /* \"#utility.yul\":9324:9327   */\n      dup3\n        /* \"#utility.yul\":9235:9328   */\n      tag_441\n      jump\t// in\n    tag_440:\n        /* \"#utility.yul\":9353:9355   */\n      0x20\n        /* \"#utility.yul\":9348:9351   */\n      dup3\n        /* \"#utility.yul\":9344:9356   */\n      add\n        /* \"#utility.yul\":9337:9356   */\n      swap1\n      pop\n        /* \"#utility.yul\":8996:9362   */\n      swap2\n      swap1\n      pop\n      jump\t// out\n        /* \"#utility.yul\":9368:9734   */\n    tag_442:\n        /* \"#utility.yul\":9510:9513   */\n      0x00\n        /* \"#utility.yul\":9531:9598   */\n      tag_444\n        /* \"#utility.yul\":9595:9597   */\n      0x1c\n        /* \"#utility.yul\":9590:9593   */\n      dup4\n        /* \"#utility.yul\":9531:9598   */\n      tag_387\n      jump\t// in\n    tag_444:\n        /* \"#utility.yul\":9524:9598   */\n      swap2\n      pop\n        /* \"#utility.yul\":9607:9700   */\n      tag_445\n        /* \"#utility.yul\":9696:9699   */\n      dup3\n        /* \"#utility.yul\":9607:9700   */\n      tag_446\n      jump\t// in\n    tag_445:\n        /* \"#utility.yul\":9725:9727   */\n      0x20\n        /* \"#utility.yul\":9720:9723   */\n      dup3\n        /* \"#utility.yul\":9716:9728   */\n      add\n        /* \"#utility.yul\":9709:9728   */\n      swap1\n      pop\n        /* \"#utility.yul\":9368:9734   */\n      swap2\n      swap1\n      pop\n      jump\t// out\n        /* \"#utility.yul\":9740:10106   */\n    tag_447:\n        /* \"#utility.yul\":9882:9885   */\n      0x00\n        /* \"#utility.yul\":9903:9970   */\n      tag_449\n        /* \"#utility.yul\":9967:9969   */\n      0x19\n        /* \"#utility.yul\":9962:9965   */\n      dup4\n        /* \"#utility.yul\":9903:9970   */\n      tag_387\n      jump\t// in\n    tag_449:\n        /* \"#utility.yul\":9896:9970   */\n      swap2\n      pop\n        /* \"#utility.yul\":9979:10072   */\n      tag_450\n        /* \"#utility.yul\":10068:10071   */\n      dup3\n        /* \"#utility.yul\":9979:10072   */\n      tag_451\n      jump\t// in\n    tag_450:\n        /* \"#utility.yul\":10097:10099   */\n      0x20\n        /* \"#utility.yul\":10092:10095   */\n      dup3\n        /* \"#utility.yul\":10088:10100   */\n      add\n        /* \"#utility.yul\":10081:10100   */\n      swap1\n      pop\n        /* \"#utility.yul\":9740:10106   */\n      swap2\n      swap1\n      pop\n      jump\t// out\n        /* \"#utility.yul\":10112:10478   */\n    tag_452:\n        /* \"#utility.yul\":10254:10257   */\n      0x00\n        /* \"#utility.yul\":10275:10342   */\n      tag_454\n        /* \"#utility.yul\":10339:10341   */\n      0x21\n        /* \"#utility.yul\":10334:10337   */\n      dup4\n        /* \"#utility.yul\":10275:10342   */\n      tag_387\n      jump\t// in\n    tag_454:\n        /* \"#utility.yul\":10268:10342   */\n      swap2\n      pop\n        /* \"#utility.yul\":10351:10444   */\n      tag_455\n        /* \"#utility.yul\":10440:10443   */\n      dup3\n        /* \"#utility.yul\":10351:10444   */\n      tag_456\n      jump\t// in\n    tag_455:\n        /* \"#utility.yul\":10469:10471   */\n      0x40\n        /* \"#utility.yul\":10464:10467   */\n      dup3\n        /* \"#utility.yul\":10460:10472   */\n      add\n        /* \"#utility.yul\":10453:10472   */\n      swap1\n      pop\n        /* \"#utility.yul\":10112:10478   */\n      swap2\n      swap1\n      pop\n      jump\t// out\n        /* \"#utility.yul\":10484:10850   */\n    tag_457:\n        /* \"#utility.yul\":10626:10629   */\n      0x00\n        /* \"#utility.yul\":10647:10714   */\n      tag_459\n        /* \"#utility.yul\":10711:10713   */\n      0x25\n        /* \"#utility.yul\":10706:10709   */\n      dup4\n        /* \"#utility.yul\":10647:10714   */\n      tag_387\n      jump\t// in\n    tag_459:\n        /* \"#utility.yul\":10640:10714   */\n      swap2\n      pop\n        /* \"#utility.yul\":10723:10816   */\n      tag_460\n        /* \"#utility.yul\":10812:10815   */\n      dup3\n        /* \"#utility.yul\":10723:10816   */\n      tag_461\n      jump\t// in\n    tag_460:\n        /* \"#utility.yul\":10841:10843   */\n      0x40\n        /* \"#utility.yul\":10836:10839   */\n      dup3\n        /* \"#utility.yul\":10832:10844   */\n      add\n        /* \"#utility.yul\":10825:10844   */\n      swap1\n      pop\n        /* \"#utility.yul\":10484:10850   */\n      swap2\n      swap1\n      pop\n      jump\t// out\n        /* \"#utility.yul\":10856:11222   */\n    tag_462:\n        /* \"#utility.yul\":10998:11001   */\n      0x00\n        /* \"#utility.yul\":11019:11086   */\n      tag_464\n        /* \"#utility.yul\":11083:11085   */\n      0x24\n        /* \"#utility.yul\":11078:11081   */\n      dup4\n        /* \"#utility.yul\":11019:11086   */\n      tag_387\n      jump\t// in\n    tag_464:\n        /* \"#utility.yul\":11012:11086   */\n      swap2\n      pop\n        /* \"#utility.yul\":11095:11188   */\n      tag_465\n        /* \"#utility.yul\":11184:11187   */\n      dup3\n        /* \"#utility.yul\":11095:11188   */\n      tag_466\n      jump\t// in\n    tag_465:\n        /* \"#utility.yul\":11213:11215   */\n      0x40\n        /* \"#utility.yul\":11208:11211   */\n      dup3\n        /* \"#utility.yul\":11204:11216   */\n      add\n        /* \"#utility.yul\":11197:11216   */\n      swap1\n      pop\n        /* \"#utility.yul\":10856:11222   */\n      swap2\n      swap1\n      pop\n      jump\t// out\n        /* \"#utility.yul\":11228:11594   */\n    tag_467:\n        /* \"#utility.yul\":11370:11373   */\n      0x00\n        /* \"#utility.yul\":11391:11458   */\n      tag_469\n        /* \"#utility.yul\":11455:11457   */\n      0x25\n        /* \"#utility.yul\":11450:11453   */\n      dup4\n        /* \"#utility.yul\":11391:11458   */\n      tag_387\n      jump\t// in\n    tag_469:\n        /* \"#utility.yul\":11384:11458   */\n      swap2\n      pop\n        /* \"#utility.yul\":11467:11560   */\n      tag_470\n        /* \"#utility.yul\":11556:11559   */\n      dup3\n        /* \"#utility.yul\":11467:11560   */\n      tag_471\n      jump\t// in\n    tag_470:\n        /* \"#utility.yul\":11585:11587   */\n      0x40\n        /* \"#utility.yul\":11580:11583   */\n      dup3\n        /* \"#utility.yul\":11576:11588   */\n      add\n        /* \"#utility.yul\":11569:11588   */\n      swap1\n      pop\n        /* \"#utility.yul\":11228:11594   */\n      swap2\n      swap1\n      pop\n      jump\t// out\n        /* \"#utility.yul\":11600:11966   */\n    tag_472:\n        /* \"#utility.yul\":11742:11745   */\n      0x00\n        /* \"#utility.yul\":11763:11830   */\n      tag_474\n        /* \"#utility.yul\":11827:11829   */\n      0x1f\n        /* \"#utility.yul\":11822:11825   */\n      dup4\n        /* \"#utility.yul\":11763:11830   */\n      tag_387\n      jump\t// in\n    tag_474:\n        /* \"#utility.yul\":11756:11830   */\n      swap2\n      pop\n        /* \"#utility.yul\":11839:11932   */\n      tag_475\n        /* \"#utility.yul\":11928:11931   */\n      dup3\n        /* \"#utility.yul\":11839:11932   */\n      tag_476\n      jump\t// in\n    tag_475:\n        /* \"#utility.yul\":11957:11959   */\n      0x20\n        /* \"#utility.yul\":11952:11955   */\n      dup3\n        /* \"#utility.yul\":11948:11960   */\n      add\n        /* \"#utility.yul\":11941:11960   */\n      swap1\n      pop\n        /* \"#utility.yul\":11600:11966   */\n      swap2\n      swap1\n      pop\n      jump\t// out\n        /* \"#utility.yul\":11972:12090   */\n    tag_477:\n        /* \"#utility.yul\":12059:12083   */\n      tag_479\n        /* \"#utility.yul\":12077:12082   */\n      dup2\n        /* \"#utility.yul\":12059:12083   */\n      tag_480\n      jump\t// in\n    tag_479:\n        /* \"#utility.yul\":12054:12057   */\n      dup3\n        /* \"#utility.yul\":12047:12084   */\n      mstore\n        /* \"#utility.yul\":11972:12090   */\n      pop\n      pop\n      jump\t// out\n        /* \"#utility.yul\":12096:12208   */\n    tag_481:\n        /* \"#utility.yul\":12179:12201   */\n      tag_483\n        /* \"#utility.yul\":12195:12200   */\n      dup2\n        /* \"#utility.yul\":12179:12201   */\n      tag_484\n      jump\t// in\n    tag_483:\n        /* \"#utility.yul\":12174:12177   */\n      dup3\n        /* \"#utility.yul\":12167:12202   */\n      mstore\n        /* \"#utility.yul\":12096:12208   */\n      pop\n      pop\n      jump\t// out\n        /* \"#utility.yul\":12214:12656   */\n    tag_181:\n        /* \"#utility.yul\":12363:12367   */\n      0x00\n        /* \"#utility.yul\":12401:12403   */\n      0x60\n        /* \"#utility.yul\":12390:12399   */\n      dup3\n        /* \"#utility.yul\":12386:12404   */\n      add\n        /* \"#utility.yul\":12378:12404   */\n      swap1\n      pop\n        /* \"#utility.yul\":12414:12485   */\n      tag_486\n        /* \"#utility.yul\":12482:12483   */\n      0x00\n        /* \"#utility.yul\":12471:12480   */\n      dup4\n        /* \"#utility.yul\":12467:12484   */\n      add\n        /* \"#utility.yul\":12458:12464   */\n      dup7\n        /* \"#utility.yul\":12414:12485   */\n      tag_362\n      jump\t// in\n    tag_486:\n        /* \"#utility.yul\":12495:12567   */\n      tag_487\n        /* \"#utility.yul\":12563:12565   */\n      0x20\n        /* \"#utility.yul\":12552:12561   */\n      dup4\n        /* \"#utility.yul\":12548:12566   */\n      add\n        /* \"#utility.yul\":12539:12545   */\n      dup6\n        /* \"#utility.yul\":12495:12567   */\n      tag_362\n      jump\t// in\n    tag_487:\n        /* \"#utility.yul\":12577:12649   */\n      tag_488\n        /* \"#utility.yul\":12645:12647   */\n      0x40\n        /* \"#utility.yul\":12634:12643   */\n      dup4\n        /* \"#utility.yul\":12630:12648   */\n      add\n        /* \"#utility.yul\":12621:12627   */\n      dup5\n        /* \"#utility.yul\":12577:12649   */\n      tag_477\n      jump\t// in\n    tag_488:\n        /* \"#utility.yul\":12214:12656   */\n      swap5\n      swap4\n      pop\n      pop\n      pop\n      pop\n      jump\t// out\n        /* \"#utility.yul\":12662:12994   */\n    tag_149:\n        /* \"#utility.yul\":12783:12787   */\n      0x00\n        /* \"#utility.yul\":12821:12823   */\n      0x40\n        /* \"#utility.yul\":12810:12819   */\n      dup3\n        /* \"#utility.yul\":12806:12824   */\n      add\n        /* \"#utility.yul\":12798:12824   */\n      swap1\n      pop\n        /* \"#utility.yul\":12834:12905   */\n      tag_490\n        /* \"#utility.yul\":12902:12903   */\n      0x00\n        /* \"#utility.yul\":12891:12900   */\n      dup4\n        /* \"#utility.yul\":12887:12904   */\n      add\n        /* \"#utility.yul\":12878:12884   */\n      dup6\n        /* \"#utility.yul\":12834:12905   */\n      tag_362\n      jump\t// in\n    tag_490:\n        /* \"#utility.yul\":12915:12987   */\n      tag_491\n        /* \"#utility.yul\":12983:12985   */\n      0x20\n        /* \"#utility.yul\":12972:12981   */\n      dup4\n        /* \"#utility.yul\":12968:12986   */\n      add\n        /* \"#utility.yul\":12959:12965   */\n      dup5\n        /* \"#utility.yul\":12915:12987   */\n      tag_477\n      jump\t// in\n    tag_491:\n        /* \"#utility.yul\":12662:12994   */\n      swap4\n      swap3\n      pop\n      pop\n      pop\n      jump\t// out\n        /* \"#utility.yul\":13000:13210   */\n    tag_45:\n        /* \"#utility.yul\":13087:13091   */\n      0x00\n        /* \"#utility.yul\":13125:13127   */\n      0x20\n        /* \"#utility.yul\":13114:13123   */\n      dup3\n        /* \"#utility.yul\":13110:13128   */\n      add\n        /* \"#utility.yul\":13102:13128   */\n      swap1\n      pop\n        /* \"#utility.yul\":13138:13203   */\n      tag_493\n        /* \"#utility.yul\":13200:13201   */\n      0x00\n        /* \"#utility.yul\":13189:13198   */\n      dup4\n        /* \"#utility.yul\":13185:13202   */\n      add\n        /* \"#utility.yul\":13176:13182   */\n      dup5\n        /* \"#utility.yul\":13138:13203   */\n      tag_366\n      jump\t// in\n    tag_493:\n        /* \"#utility.yul\":13000:13210   */\n      swap3\n      swap2\n      pop\n      pop\n      jump\t// out\n        /* \"#utility.yul\":13216:13434   */\n    tag_55:\n        /* \"#utility.yul\":13307:13311   */\n      0x00\n        /* \"#utility.yul\":13345:13347   */\n      0x20\n        /* \"#utility.yul\":13334:13343   */\n      dup3\n        /* \"#utility.yul\":13330:13348   */\n      add\n        /* \"#utility.yul\":13322:13348   */\n      swap1\n      pop\n        /* \"#utility.yul\":13358:13427   */\n      tag_495\n        /* \"#utility.yul\":13424:13425   */\n      0x00\n        /* \"#utility.yul\":13413:13422   */\n      dup4\n        /* \"#utility.yul\":13409:13426   */\n      add\n        /* \"#utility.yul\":13400:13406   */\n      dup5\n        /* \"#utility.yul\":13358:13427   */\n      tag_370\n      jump\t// in\n    tag_495:\n        /* \"#utility.yul\":13216:13434   */\n      swap3\n      swap2\n      pop\n      pop\n      jump\t// out\n        /* \"#utility.yul\":13440:13690   */\n    tag_49:\n        /* \"#utility.yul\":13547:13551   */\n      0x00\n        /* \"#utility.yul\":13585:13587   */\n      0x20\n        /* \"#utility.yul\":13574:13583   */\n      dup3\n        /* \"#utility.yul\":13570:13588   */\n      add\n        /* \"#utility.yul\":13562:13588   */\n      swap1\n      pop\n        /* \"#utility.yul\":13598:13683   */\n      tag_497\n        /* \"#utility.yul\":13680:13681   */\n      0x00\n        /* \"#utility.yul\":13669:13678   */\n      dup4\n        /* \"#utility.yul\":13665:13682   */\n      add\n        /* \"#utility.yul\":13656:13662   */\n      dup5\n        /* \"#utility.yul\":13598:13683   */\n      tag_374\n      jump\t// in\n    tag_497:\n        /* \"#utility.yul\":13440:13690   */\n      swap3\n      swap2\n      pop\n      pop\n      jump\t// out\n        /* \"#utility.yul\":13696:13948   */\n    tag_100:\n        /* \"#utility.yul\":13804:13808   */\n      0x00\n        /* \"#utility.yul\":13842:13844   */\n      0x20\n        /* \"#utility.yul\":13831:13840   */\n      dup3\n        /* \"#utility.yul\":13827:13845   */\n      add\n        /* \"#utility.yul\":13819:13845   */\n      swap1\n      pop\n        /* \"#utility.yul\":13855:13941   */\n      tag_499\n        /* \"#utility.yul\":13938:13939   */\n      0x00\n        /* \"#utility.yul\":13927:13936   */\n      dup4\n        /* \"#utility.yul\":13923:13940   */\n      add\n        /* \"#utility.yul\":13914:13920   */\n      dup5\n        /* \"#utility.yul\":13855:13941   */\n      tag_378\n      jump\t// in\n    tag_499:\n        /* \"#utility.yul\":13696:13948   */\n      swap3\n      swap2\n      pop\n      pop\n      jump\t// out\n        /* \"#utility.yul\":13954:14267   */\n    tag_35:\n        /* \"#utility.yul\":14067:14071   */\n      0x00\n        /* \"#utility.yul\":14105:14107   */\n      0x20\n        /* \"#utility.yul\":14094:14103   */\n      dup3\n        /* \"#utility.yul\":14090:14108   */\n      add\n        /* \"#utility.yul\":14082:14108   */\n      swap1\n      pop\n        /* \"#utility.yul\":14154:14163   */\n      dup2\n        /* \"#utility.yul\":14148:14152   */\n      dup2\n        /* \"#utility.yul\":14144:14164   */\n      sub\n        /* \"#utility.yul\":14140:14141   */\n      0x00\n        /* \"#utility.yul\":14129:14138   */\n      dup4\n        /* \"#utility.yul\":14125:14142   */\n      add\n        /* \"#utility.yul\":14118:14165   */\n      mstore\n        /* \"#utility.yul\":14182:14260   */\n      tag_501\n        /* \"#utility.yul\":14255:14259   */\n      dup2\n        /* \"#utility.yul\":14246:14252   */\n      dup5\n        /* \"#utility.yul\":14182:14260   */\n      tag_382\n      jump\t// in\n    tag_501:\n        /* \"#utility.yul\":14174:14260   */\n      swap1\n      pop\n        /* \"#utility.yul\":13954:14267   */\n      swap3\n      swap2\n      pop\n      pop\n      jump\t// out\n        /* \"#utility.yul\":14273:14692   */\n    tag_280:\n        /* \"#utility.yul\":14439:14443   */\n      0x00\n        /* \"#utility.yul\":14477:14479   */\n      0x20\n        /* \"#utility.yul\":14466:14475   */\n      dup3\n        /* \"#utility.yul\":14462:14480   */\n      add\n        /* \"#utility.yul\":14454:14480   */\n      swap1\n      pop\n        /* \"#utility.yul\":14526:14535   */\n      dup2\n        /* \"#utility.yul\":14520:14524   */\n      dup2\n        /* \"#utility.yul\":14516:14536   */\n      sub\n        /* \"#utility.yul\":14512:14513   */\n      0x00\n        /* \"#utility.yul\":14501:14510   */\n      dup4\n        /* \"#utility.yul\":14497:14514   */\n      add\n        /* \"#utility.yul\":14490:14537   */\n      mstore\n        /* \"#utility.yul\":14554:14685   */\n      tag_503\n        /* \"#utility.yul\":14680:14684   */\n      dup2\n        /* \"#utility.yul\":14554:14685   */\n      tag_392\n      jump\t// in\n    tag_503:\n        /* \"#utility.yul\":14546:14685   */\n      swap1\n      pop\n        /* \"#utility.yul\":14273:14692   */\n      swap2\n      swap1\n      pop\n      jump\t// out\n        /* \"#utility.yul\":14698:15117   */\n    tag_262:\n        /* \"#utility.yul\":14864:14868   */\n      0x00\n        /* \"#utility.yul\":14902:14904   */\n      0x20\n        /* \"#utility.yul\":14891:14900   */\n      dup3\n        /* \"#utility.yul\":14887:14905   */\n      add\n        /* \"#utility.yul\":14879:14905   */\n      swap1\n      pop\n        /* \"#utility.yul\":14951:14960   */\n      dup2\n        /* \"#utility.yul\":14945:14949   */\n      dup2\n        /* \"#utility.yul\":14941:14961   */\n      sub\n        /* \"#utility.yul\":14937:14938   */\n      0x00\n        /* \"#utility.yul\":14926:14935   */\n      dup4\n        /* \"#utility.yul\":14922:14939   */\n      add\n        /* \"#utility.yul\":14915:14962   */\n      mstore\n        /* \"#utility.yul\":14979:15110   */\n      tag_505\n        /* \"#utility.yul\":15105:15109   */\n      dup2\n        /* \"#utility.yul\":14979:15110   */\n      tag_397\n      jump\t// in\n    tag_505:\n        /* \"#utility.yul\":14971:15110   */\n      swap1\n      pop\n        /* \"#utility.yul\":14698:15117   */\n      swap2\n      swap1\n      pop\n      jump\t// out\n        /* \"#utility.yul\":15123:15542   */\n    tag_252:\n        /* \"#utility.yul\":15289:15293   */\n      0x00\n        /* \"#utility.yul\":15327:15329   */\n      0x20\n        /* \"#utility.yul\":15316:15325   */\n      dup3\n        /* \"#utility.yul\":15312:15330   */\n      add\n        /* \"#utility.yul\":15304:15330   */\n      swap1\n      pop\n        /* \"#utility.yul\":15376:15385   */\n      dup2\n        /* \"#utility.yul\":15370:15374   */\n      dup2\n        /* \"#utility.yul\":15366:15386   */\n      sub\n        /* \"#utility.yul\":15362:15363   */\n      0x00\n        /* \"#utility.yul\":15351:15360   */\n      dup4\n        /* \"#utility.yul\":15347:15364   */\n      add\n        /* \"#utility.yul\":15340:15387   */\n      mstore\n        /* \"#utility.yul\":15404:15535   */\n      tag_507\n        /* \"#utility.yul\":15530:15534   */\n      dup2\n        /* \"#utility.yul\":15404:15535   */\n      tag_402\n      jump\t// in\n    tag_507:\n        /* \"#utility.yul\":15396:15535   */\n      swap1\n      pop\n        /* \"#utility.yul\":15123:15542   */\n      swap2\n      swap1\n      pop\n      jump\t// out\n        /* \"#utility.yul\":15548:15967   */\n    tag_213:\n        /* \"#utility.yul\":15714:15718   */\n      0x00\n        /* \"#utility.yul\":15752:15754   */\n      0x20\n        /* \"#utility.yul\":15741:15750   */\n      dup3\n        /* \"#utility.yul\":15737:15755   */\n      add\n        /* \"#utility.yul\":15729:15755   */\n      swap1\n      pop\n        /* \"#utility.yul\":15801:15810   */\n      dup2\n        /* \"#utility.yul\":15795:15799   */\n      dup2\n        /* \"#utility.yul\":15791:15811   */\n      sub\n        /* \"#utility.yul\":15787:15788   */\n      0x00\n        /* \"#utility.yul\":15776:15785   */\n      dup4\n        /* \"#utility.yul\":15772:15789   */\n      add\n        /* \"#utility.yul\":15765:15812   */\n      mstore\n        /* \"#utility.yul\":15829:15960   */\n      tag_509\n        /* \"#utility.yul\":15955:15959   */\n      dup2\n        /* \"#utility.yul\":15829:15960   */\n      tag_407\n      jump\t// in\n    tag_509:\n        /* \"#utility.yul\":15821:15960   */\n      swap1\n      pop\n        /* \"#utility.yul\":15548:15967   */\n      swap2\n      swap1\n      pop\n      jump\t// out\n        /* \"#utility.yul\":15973:16392   */\n    tag_272:\n        /* \"#utility.yul\":16139:16143   */\n      0x00\n        /* \"#utility.yul\":16177:16179   */\n      0x20\n        /* \"#utility.yul\":16166:16175   */\n      dup3\n        /* \"#utility.yul\":16162:16180   */\n      add\n        /* \"#utility.yul\":16154:16180   */\n      swap1\n      pop\n        /* \"#utility.yul\":16226:16235   */\n      dup2\n        /* \"#utility.yul\":16220:16224   */\n      dup2\n        /* \"#utility.yul\":16216:16236   */\n      sub\n        /* \"#utility.yul\":16212:16213   */\n      0x00\n        /* \"#utility.yul\":16201:16210   */\n      dup4\n        /* \"#utility.yul\":16197:16214   */\n      add\n        /* \"#utility.yul\":16190:16237   */\n      mstore\n        /* \"#utility.yul\":16254:16385   */\n      tag_511\n        /* \"#utility.yul\":16380:16384   */\n      dup2\n        /* \"#utility.yul\":16254:16385   */\n      tag_412\n      jump\t// in\n    tag_511:\n        /* \"#utility.yul\":16246:16385   */\n      swap1\n      pop\n        /* \"#utility.yul\":15973:16392   */\n      swap2\n      swap1\n      pop\n      jump\t// out\n        /* \"#utility.yul\":16398:16817   */\n    tag_284:\n        /* \"#utility.yul\":16564:16568   */\n      0x00\n        /* \"#utility.yul\":16602:16604   */\n      0x20\n        /* \"#utility.yul\":16591:16600   */\n      dup3\n        /* \"#utility.yul\":16587:16605   */\n      add\n        /* \"#utility.yul\":16579:16605   */\n      swap1\n      pop\n        /* \"#utility.yul\":16651:16660   */\n      dup2\n        /* \"#utility.yul\":16645:16649   */\n      dup2\n        /* \"#utility.yul\":16641:16661   */\n      sub\n        /* \"#utility.yul\":16637:16638   */\n      0x00\n        /* \"#utility.yul\":16626:16635   */\n      dup4\n        /* \"#utility.yul\":16622:16639   */\n      add\n        /* \"#utility.yul\":16615:16662   */\n      mstore\n        /* \"#utility.yul\":16679:16810   */\n      tag_513\n        /* \"#utility.yul\":16805:16809   */\n      dup2\n        /* \"#utility.yul\":16679:16810   */\n      tag_417\n      jump\t// in\n    tag_513:\n        /* \"#utility.yul\":16671:16810   */\n      swap1\n      pop\n        /* \"#utility.yul\":16398:16817   */\n      swap2\n      swap1\n      pop\n      jump\t// out\n        /* \"#utility.yul\":16823:17242   */\n    tag_179:\n        /* \"#utility.yul\":16989:16993   */\n      0x00\n        /* \"#utility.yul\":17027:17029   */\n      0x20\n        /* \"#utility.yul\":17016:17025   */\n      dup3\n        /* \"#utility.yul\":17012:17030   */\n      add\n        /* \"#utility.yul\":17004:17030   */\n      swap1\n      pop\n        /* \"#utility.yul\":17076:17085   */\n      dup2\n        /* \"#utility.yul\":17070:17074   */\n      dup2\n        /* \"#utility.yul\":17066:17086   */\n      sub\n        /* \"#utility.yul\":17062:17063   */\n      0x00\n        /* \"#utility.yul\":17051:17060   */\n      dup4\n        /* \"#utility.yul\":17047:17064   */\n      add\n        /* \"#utility.yul\":17040:17087   */\n      mstore\n        /* \"#utility.yul\":17104:17235   */\n      tag_515\n        /* \"#utility.yul\":17230:17234   */\n      dup2\n        /* \"#utility.yul\":17104:17235   */\n      tag_422\n      jump\t// in\n    tag_515:\n        /* \"#utility.yul\":17096:17235   */\n      swap1\n      pop\n        /* \"#utility.yul\":16823:17242   */\n      swap2\n      swap1\n      pop\n      jump\t// out\n        /* \"#utility.yul\":17248:17667   */\n    tag_173:\n        /* \"#utility.yul\":17414:17418   */\n      0x00\n        /* \"#utility.yul\":17452:17454   */\n      0x20\n        /* \"#utility.yul\":17441:17450   */\n      dup3\n        /* \"#utility.yul\":17437:17455   */\n      add\n        /* \"#utility.yul\":17429:17455   */\n      swap1\n      pop\n        /* \"#utility.yul\":17501:17510   */\n      dup2\n        /* \"#utility.yul\":17495:17499   */\n      dup2\n        /* \"#utility.yul\":17491:17511   */\n      sub\n        /* \"#utility.yul\":17487:17488   */\n      0x00\n        /* \"#utility.yul\":17476:17485   */\n      dup4\n        /* \"#utility.yul\":17472:17489   */\n      add\n        /* \"#utility.yul\":17465:17512   */\n      mstore\n        /* \"#utility.yul\":17529:17660   */\n      tag_517\n        /* \"#utility.yul\":17655:17659   */\n      dup2\n        /* \"#utility.yul\":17529:17660   */\n      tag_427\n      jump\t// in\n    tag_517:\n        /* \"#utility.yul\":17521:17660   */\n      swap1\n      pop\n        /* \"#utility.yul\":17248:17667   */\n      swap2\n      swap1\n      pop\n      jump\t// out\n        /* \"#utility.yul\":17673:18092   */\n    tag_176:\n        /* \"#utility.yul\":17839:17843   */\n      0x00\n        /* \"#utility.yul\":17877:17879   */\n      0x20\n        /* \"#utility.yul\":17866:17875   */\n      dup3\n        /* \"#utility.yul\":17862:17880   */\n      add\n        /* \"#utility.yul\":17854:17880   */\n      swap1\n      pop\n        /* \"#utility.yul\":17926:17935   */\n      dup2\n        /* \"#utility.yul\":17920:17924   */\n      dup2\n        /* \"#utility.yul\":17916:17936   */\n      sub\n        /* \"#utility.yul\":17912:17913   */\n      0x00\n        /* \"#utility.yul\":17901:17910   */\n      dup4\n        /* \"#utility.yul\":17897:17914   */\n      add\n        /* \"#utility.yul\":17890:17937   */\n      mstore\n        /* \"#utility.yul\":17954:18085   */\n      tag_519\n        /* \"#utility.yul\":18080:18084   */\n      dup2\n        /* \"#utility.yul\":17954:18085   */\n      tag_432\n      jump\t// in\n    tag_519:\n        /* \"#utility.yul\":17946:18085   */\n      swap1\n      pop\n        /* \"#utility.yul\":17673:18092   */\n      swap2\n      swap1\n      pop\n      jump\t// out\n        /* \"#utility.yul\":18098:18517   */\n    tag_143:\n        /* \"#utility.yul\":18264:18268   */\n      0x00\n        /* \"#utility.yul\":18302:18304   */\n      0x20\n        /* \"#utility.yul\":18291:18300   */\n      dup3\n        /* \"#utility.yul\":18287:18305   */\n      add\n        /* \"#utility.yul\":18279:18305   */\n      swap1\n      pop\n        /* \"#utility.yul\":18351:18360   */\n      dup2\n        /* \"#utility.yul\":18345:18349   */\n      dup2\n        /* \"#utility.yul\":18341:18361   */\n      sub\n        /* \"#utility.yul\":18337:18338   */\n      0x00\n        /* \"#utility.yul\":18326:18335   */\n      dup4\n        /* \"#utility.yul\":18322:18339   */\n      add\n        /* \"#utility.yul\":18315:18362   */\n      mstore\n        /* \"#utility.yul\":18379:18510   */\n      tag_521\n        /* \"#utility.yul\":18505:18509   */\n      dup2\n        /* \"#utility.yul\":18379:18510   */\n      tag_437\n      jump\t// in\n    tag_521:\n        /* \"#utility.yul\":18371:18510   */\n      swap1\n      pop\n        /* \"#utility.yul\":18098:18517   */\n      swap2\n      swap1\n      pop\n      jump\t// out\n        /* \"#utility.yul\":18523:18942   */\n    tag_206:\n        /* \"#utility.yul\":18689:18693   */\n      0x00\n        /* \"#utility.yul\":18727:18729   */\n      0x20\n        /* \"#utility.yul\":18716:18725   */\n      dup3\n        /* \"#utility.yul\":18712:18730   */\n      add\n        /* \"#utility.yul\":18704:18730   */\n      swap1\n      pop\n        /* \"#utility.yul\":18776:18785   */\n      dup2\n        /* \"#utility.yul\":18770:18774   */\n      dup2\n        /* \"#utility.yul\":18766:18786   */\n      sub\n        /* \"#utility.yul\":18762:18763   */\n      0x00\n        /* \"#utility.yul\":18751:18760   */\n      dup4\n        /* \"#utility.yul\":18747:18764   */\n      add\n        /* \"#utility.yul\":18740:18787   */\n      mstore\n        /* \"#utility.yul\":18804:18935   */\n      tag_523\n        /* \"#utility.yul\":18930:18934   */\n      dup2\n        /* \"#utility.yul\":18804:18935   */\n      tag_442\n      jump\t// in\n    tag_523:\n        /* \"#utility.yul\":18796:18935   */\n      swap1\n      pop\n        /* \"#utility.yul\":18523:18942   */\n      swap2\n      swap1\n      pop\n      jump\t// out\n        /* \"#utility.yul\":18948:19367   */\n    tag_147:\n        /* \"#utility.yul\":19114:19118   */\n      0x00\n        /* \"#utility.yul\":19152:19154   */\n      0x20\n        /* \"#utility.yul\":19141:19150   */\n      dup3\n        /* \"#utility.yul\":19137:19155   */\n      add\n        /* \"#utility.yul\":19129:19155   */\n      swap1\n      pop\n        /* \"#utility.yul\":19201:19210   */\n      dup2\n        /* \"#utility.yul\":19195:19199   */\n      dup2\n        /* \"#utility.yul\":19191:19211   */\n      sub\n        /* \"#utility.yul\":19187:19188   */\n      0x00\n        /* \"#utility.yul\":19176:19185   */\n      dup4\n        /* \"#utility.yul\":19172:19189   */\n      add\n        /* \"#utility.yul\":19165:19212   */\n      mstore\n        /* \"#utility.yul\":19229:19360   */\n      tag_525\n        /* \"#utility.yul\":19355:19359   */\n      dup2\n        /* \"#utility.yul\":19229:19360   */\n      tag_447\n      jump\t// in\n    tag_525:\n        /* \"#utility.yul\":19221:19360   */\n      swap1\n      pop\n        /* \"#utility.yul\":18948:19367   */\n      swap2\n      swap1\n      pop\n      jump\t// out\n        /* \"#utility.yul\":19373:19792   */\n    tag_257:\n        /* \"#utility.yul\":19539:19543   */\n      0x00\n        /* \"#utility.yul\":19577:19579   */\n      0x20\n        /* \"#utility.yul\":19566:19575   */\n      dup3\n        /* \"#utility.yul\":19562:19580   */\n      add\n        /* \"#utility.yul\":19554:19580   */\n      swap1\n      pop\n        /* \"#utility.yul\":19626:19635   */\n      dup2\n        /* \"#utility.yul\":19620:19624   */\n      dup2\n        /* \"#utility.yul\":19616:19636   */\n      sub\n        /* \"#utility.yul\":19612:19613   */\n      0x00\n        /* \"#utility.yul\":19601:19610   */\n      dup4\n        /* \"#utility.yul\":19597:19614   */\n      add\n        /* \"#utility.yul\":19590:19637   */\n      mstore\n        /* \"#utility.yul\":19654:19785   */\n      tag_527\n        /* \"#utility.yul\":19780:19784   */\n      dup2\n        /* \"#utility.yul\":19654:19785   */\n      tag_452\n      jump\t// in\n    tag_527:\n        /* \"#utility.yul\":19646:19785   */\n      swap1\n      pop\n        /* \"#utility.yul\":19373:19792   */\n      swap2\n      swap1\n      pop\n      jump\t// out\n        /* \"#utility.yul\":19798:20217   */\n    tag_277:\n        /* \"#utility.yul\":19964:19968   */\n      0x00\n        /* \"#utility.yul\":20002:20004   */\n      0x20\n        /* \"#utility.yul\":19991:20000   */\n      dup3\n        /* \"#utility.yul\":19987:20005   */\n      add\n        /* \"#utility.yul\":19979:20005   */\n      swap1\n      pop\n        /* \"#utility.yul\":20051:20060   */\n      dup2\n        /* \"#utility.yul\":20045:20049   */\n      dup2\n        /* \"#utility.yul\":20041:20061   */\n      sub\n        /* \"#utility.yul\":20037:20038   */\n      0x00\n        /* \"#utility.yul\":20026:20035   */\n      dup4\n        /* \"#utility.yul\":20022:20039   */\n      add\n        /* \"#utility.yul\":20015:20062   */\n      mstore\n        /* \"#utility.yul\":20079:20210   */\n      tag_529\n        /* \"#utility.yul\":20205:20209   */\n      dup2\n        /* \"#utility.yul\":20079:20210   */\n      tag_457\n      jump\t// in\n    tag_529:\n        /* \"#utility.yul\":20071:20210   */\n      swap1\n      pop\n        /* \"#utility.yul\":19798:20217   */\n      swap2\n      swap1\n      pop\n      jump\t// out\n        /* \"#utility.yul\":20223:20642   */\n    tag_249:\n        /* \"#utility.yul\":20389:20393   */\n      0x00\n        /* \"#utility.yul\":20427:20429   */\n      0x20\n        /* \"#utility.yul\":20416:20425   */\n      dup3\n        /* \"#utility.yul\":20412:20430   */\n      add\n        /* \"#utility.yul\":20404:20430   */\n      swap1\n      pop\n        /* \"#utility.yul\":20476:20485   */\n      dup2\n        /* \"#utility.yul\":20470:20474   */\n      dup2\n        /* \"#utility.yul\":20466:20486   */\n      sub\n        /* \"#utility.yul\":20462:20463   */\n      0x00\n        /* \"#utility.yul\":20451:20460   */\n      dup4\n        /* \"#utility.yul\":20447:20464   */\n      add\n        /* \"#utility.yul\":20440:20487   */\n      mstore\n        /* \"#utility.yul\":20504:20635   */\n      tag_531\n        /* \"#utility.yul\":20630:20634   */\n      dup2\n        /* \"#utility.yul\":20504:20635   */\n      tag_462\n      jump\t// in\n    tag_531:\n        /* \"#utility.yul\":20496:20635   */\n      swap1\n      pop\n        /* \"#utility.yul\":20223:20642   */\n      swap2\n      swap1\n      pop\n      jump\t// out\n        /* \"#utility.yul\":20648:21067   */\n    tag_237:\n        /* \"#utility.yul\":20814:20818   */\n      0x00\n        /* \"#utility.yul\":20852:20854   */\n      0x20\n        /* \"#utility.yul\":20841:20850   */\n      dup3\n        /* \"#utility.yul\":20837:20855   */\n      add\n        /* \"#utility.yul\":20829:20855   */\n      swap1\n      pop\n        /* \"#utility.yul\":20901:20910   */\n      dup2\n        /* \"#utility.yul\":20895:20899   */\n      dup2\n        /* \"#utility.yul\":20891:20911   */\n      sub\n        /* \"#utility.yul\":20887:20888   */\n      0x00\n        /* \"#utility.yul\":20876:20885   */\n      dup4\n        /* \"#utility.yul\":20872:20889   */\n      add\n        /* \"#utility.yul\":20865:20912   */\n      mstore\n        /* \"#utility.yul\":20929:21060   */\n      tag_533\n        /* \"#utility.yul\":21055:21059   */\n      dup2\n        /* \"#utility.yul\":20929:21060   */\n      tag_467\n      jump\t// in\n    tag_533:\n        /* \"#utility.yul\":20921:21060   */\n      swap1\n      pop\n        /* \"#utility.yul\":20648:21067   */\n      swap2\n      swap1\n      pop\n      jump\t// out\n        /* \"#utility.yul\":21073:21492   */\n    tag_291:\n        /* \"#utility.yul\":21239:21243   */\n      0x00\n        /* \"#utility.yul\":21277:21279   */\n      0x20\n        /* \"#utility.yul\":21266:21275   */\n      dup3\n        /* \"#utility.yul\":21262:21280   */\n      add\n        /* \"#utility.yul\":21254:21280   */\n      swap1\n      pop\n        /* \"#utility.yul\":21326:21335   */\n      dup2\n        /* \"#utility.yul\":21320:21324   */\n      dup2\n        /* \"#utility.yul\":21316:21336   */\n      sub\n        /* \"#utility.yul\":21312:21313   */\n      0x00\n        /* \"#utility.yul\":21301:21310   */\n      dup4\n        /* \"#utility.yul\":21297:21314   */\n      add\n        /* \"#utility.yul\":21290:21337   */\n      mstore\n        /* \"#utility.yul\":21354:21485   */\n      tag_535\n        /* \"#utility.yul\":21480:21484   */\n      dup2\n        /* \"#utility.yul\":21354:21485   */\n      tag_472\n      jump\t// in\n    tag_535:\n        /* \"#utility.yul\":21346:21485   */\n      swap1\n      pop\n        /* \"#utility.yul\":21073:21492   */\n      swap2\n      swap1\n      pop\n      jump\t// out\n        /* \"#utility.yul\":21498:21720   */\n    tag_39:\n        /* \"#utility.yul\":21591:21595   */\n      0x00\n        /* \"#utility.yul\":21629:21631   */\n      0x20\n        /* \"#utility.yul\":21618:21627   */\n      dup3\n        /* \"#utility.yul\":21614:21632   */\n      add\n        /* \"#utility.yul\":21606:21632   */\n      swap1\n      pop\n        /* \"#utility.yul\":21642:21713   */\n      tag_537\n        /* \"#utility.yul\":21710:21711   */\n      0x00\n        /* \"#utility.yul\":21699:21708   */\n      dup4\n        /* \"#utility.yul\":21695:21712   */\n      add\n        /* \"#utility.yul\":21686:21692   */\n      dup5\n        /* \"#utility.yul\":21642:21713   */\n      tag_477\n      jump\t// in\n    tag_537:\n        /* \"#utility.yul\":21498:21720   */\n      swap3\n      swap2\n      pop\n      pop\n      jump\t// out\n        /* \"#utility.yul\":21726:21940   */\n    tag_77:\n        /* \"#utility.yul\":21815:21819   */\n      0x00\n        /* \"#utility.yul\":21853:21855   */\n      0x20\n        /* \"#utility.yul\":21842:21851   */\n      dup3\n        /* \"#utility.yul\":21838:21856   */\n      add\n        /* \"#utility.yul\":21830:21856   */\n      swap1\n      pop\n        /* \"#utility.yul\":21866:21933   */\n      tag_539\n        /* \"#utility.yul\":21930:21931   */\n      0x00\n        /* \"#utility.yul\":21919:21928   */\n      dup4\n        /* \"#utility.yul\":21915:21932   */\n      add\n        /* \"#utility.yul\":21906:21912   */\n      dup5\n        /* \"#utility.yul\":21866:21933   */\n      tag_481\n      jump\t// in\n    tag_539:\n        /* \"#utility.yul\":21726:21940   */\n      swap3\n      swap2\n      pop\n      pop\n      jump\t// out\n        /* \"#utility.yul\":22027:22126   */\n    tag_385:\n        /* \"#utility.yul\":22079:22085   */\n      0x00\n        /* \"#utility.yul\":22113:22118   */\n      dup2\n        /* \"#utility.yul\":22107:22119   */\n      mload\n        /* \"#utility.yul\":22097:22119   */\n      swap1\n      pop\n        /* \"#utility.yul\":22027:22126   */\n      swap2\n      swap1\n      pop\n      jump\t// out\n        /* \"#utility.yul\":22132:22301   */\n    tag_387:\n        /* \"#utility.yul\":22216:22227   */\n      0x00\n        /* \"#utility.yul\":22250:22256   */\n      dup3\n        /* \"#utility.yul\":22245:22248   */\n      dup3\n        /* \"#utility.yul\":22238:22257   */\n      mstore\n        /* \"#utility.yul\":22290:22294   */\n      0x20\n        /* \"#utility.yul\":22285:22288   */\n      dup3\n        /* \"#utility.yul\":22281:22295   */\n      add\n        /* \"#utility.yul\":22266:22295   */\n      swap1\n      pop\n        /* \"#utility.yul\":22132:22301   */\n      swap3\n      swap2\n      pop\n      pop\n      jump\t// out\n        /* \"#utility.yul\":22307:22612   */\n    tag_187:\n        /* \"#utility.yul\":22347:22350   */\n      0x00\n        /* \"#utility.yul\":22366:22386   */\n      tag_545\n        /* \"#utility.yul\":22384:22385   */\n      dup3\n        /* \"#utility.yul\":22366:22386   */\n      tag_480\n      jump\t// in\n    tag_545:\n        /* \"#utility.yul\":22361:22386   */\n      swap2\n      pop\n        /* \"#utility.yul\":22400:22420   */\n      tag_546\n        /* \"#utility.yul\":22418:22419   */\n      dup4\n        /* \"#utility.yul\":22400:22420   */\n      tag_480\n      jump\t// in\n    tag_546:\n        /* \"#utility.yul\":22395:22420   */\n      swap3\n      pop\n        /* \"#utility.yul\":22554:22555   */\n      dup3\n        /* \"#utility.yul\":22486:22552   */\n      0xffffffffffffffffffffffffffffffffffffffffffffffffffffffffffffffff\n        /* \"#utility.yul\":22482:22556   */\n      sub\n        /* \"#utility.yul\":22479:22480   */\n      dup3\n        /* \"#utility.yul\":22476:22557   */\n      gt\n        /* \"#utility.yul\":22473:22580   */\n      iszero\n      tag_547\n      jumpi\n        /* \"#utility.yul\":22560:22578   */\n      tag_548\n      tag_549\n      jump\t// in\n    tag_548:\n        /* \"#utility.yul\":22473:22580   */\n    tag_547:\n        /* \"#utility.yul\":22604:22605   */\n      dup3\n        /* \"#utility.yul\":22601:22602   */\n      dup3\n        /* \"#utility.yul\":22597:22606   */\n      add\n        /* \"#utility.yul\":22590:22606   */\n      swap1\n      pop\n        /* \"#utility.yul\":22307:22612   */\n      swap3\n      swap2\n      pop\n      pop\n      jump\t// out\n        /* \"#utility.yul\":22618:22809   */\n    tag_156:\n        /* \"#utility.yul\":22658:22662   */\n      0x00\n        /* \"#utility.yul\":22678:22698   */\n      tag_551\n        /* \"#utility.yul\":22696:22697   */\n      dup3\n        /* \"#utility.yul\":22678:22698   */\n      tag_480\n      jump\t// in\n    tag_551:\n        /* \"#utility.yul\":22673:22698   */\n      swap2\n      pop\n        /* \"#utility.yul\":22712:22732   */\n      tag_552\n        /* \"#utility.yul\":22730:22731   */\n      dup4\n        /* \"#utility.yul\":22712:22732   */\n      tag_480\n      jump\t// in\n    tag_552:\n        /* \"#utility.yul\":22707:22732   */\n      swap3\n      pop\n        /* \"#utility.yul\":22751:22752   */\n      dup3\n        /* \"#utility.yul\":22748:22749   */\n      dup3\n        /* \"#utility.yul\":22745:22753   */\n      lt\n        /* \"#utility.yul\":22742:22776   */\n      iszero\n      tag_553\n      jumpi\n        /* \"#utility.yul\":22756:22774   */\n      tag_554\n      tag_549\n      jump\t// in\n    tag_554:\n        /* \"#utility.yul\":22742:22776   */\n    tag_553:\n        /* \"#utility.yul\":22801:22802   */\n      dup3\n        /* \"#utility.yul\":22798:22799   */\n      dup3\n        /* \"#utility.yul\":22794:22803   */\n      sub\n        /* \"#utility.yul\":22786:22803   */\n      swap1\n      pop\n        /* \"#utility.yul\":22618:22809   */\n      swap3\n      swap2\n      pop\n      pop\n      jump\t// out\n        /* \"#utility.yul\":22815:22911   */\n    tag_365:\n        /* \"#utility.yul\":22852:22859   */\n      0x00\n        /* \"#utility.yul\":22881:22905   */\n      tag_556\n        /* \"#utility.yul\":22899:22904   */\n      dup3\n        /* \"#utility.yul\":22881:22905   */\n      tag_557\n      jump\t// in\n    tag_556:\n        /* \"#utility.yul\":22870:22905   */\n      swap1\n      pop\n        /* \"#utility.yul\":22815:22911   */\n      swap2\n      swap1\n      pop\n      jump\t// out\n        /* \"#utility.yul\":22917:23007   */\n    tag_369:\n        /* \"#utility.yul\":22951:22958   */\n      0x00\n        /* \"#utility.yul\":22994:22999   */\n      dup2\n        /* \"#utility.yul\":22987:23000   */\n      iszero\n        /* \"#utility.yul\":22980:23001   */\n      iszero\n        /* \"#utility.yul\":22969:23001   */\n      swap1\n      pop\n        /* \"#utility.yul\":22917:23007   */\n      swap2\n      swap1\n      pop\n      jump\t// out\n        /* \"#utility.yul\":23013:23162   */\n    tag_373:\n        /* \"#utility.yul\":23049:23056   */\n      0x00\n        /* \"#utility.yul\":23089:23155   */\n      0xffffffff00000000000000000000000000000000000000000000000000000000\n        /* \"#utility.yul\":23082:23087   */\n      dup3\n        /* \"#utility.yul\":23078:23156   */\n      and\n        /* \"#utility.yul\":23067:23156   */\n      swap1\n      pop\n        /* \"#utility.yul\":23013:23162   */\n      swap2\n      swap1\n      pop\n      jump\t// out\n        /* \"#utility.yul\":23168:23294   */\n    tag_557:\n        /* \"#utility.yul\":23205:23212   */\n      0x00\n        /* \"#utility.yul\":23245:23287   */\n      0xffffffffffffffffffffffffffffffffffffffff\n        /* \"#utility.yul\":23238:23243   */\n      dup3\n        /* \"#utility.yul\":23234:23288   */\n      and\n        /* \"#utility.yul\":23223:23288   */\n      swap1\n      pop\n        /* \"#utility.yul\":23168:23294   */\n      swap2\n      swap1\n      pop\n      jump\t// out\n        /* \"#utility.yul\":23300:23377   */\n    tag_480:\n        /* \"#utility.yul\":23337:23344   */\n      0x00\n        /* \"#utility.yul\":23366:23371   */\n      dup2\n        /* \"#utility.yul\":23355:23371   */\n      swap1\n      pop\n        /* \"#utility.yul\":23300:23377   */\n      swap2\n      swap1\n      pop\n      jump\t// out\n        /* \"#utility.yul\":23383:23469   */\n    tag_484:\n        /* \"#utility.yul\":23418:23425   */\n      0x00\n        /* \"#utility.yul\":23458:23462   */\n      0xff\n        /* \"#utility.yul\":23451:23456   */\n      dup3\n        /* \"#utility.yul\":23447:23463   */\n      and\n        /* \"#utility.yul\":23436:23463   */\n      swap1\n      pop\n        /* \"#utility.yul\":23383:23469   */\n      swap2\n      swap1\n      pop\n      jump\t// out\n        /* \"#utility.yul\":23475:23615   */\n    tag_377:\n        /* \"#utility.yul\":23539:23548   */\n      0x00\n        /* \"#utility.yul\":23572:23609   */\n      tag_564\n        /* \"#utility.yul\":23603:23608   */\n      dup3\n        /* \"#utility.yul\":23572:23609   */\n      tag_565\n      jump\t// in\n    tag_564:\n        /* \"#utility.yul\":23559:23609   */\n      swap1\n      pop\n        /* \"#utility.yul\":23475:23615   */\n      swap2\n      swap1\n      pop\n      jump\t// out\n        /* \"#utility.yul\":23621:23762   */\n    tag_381:\n        /* \"#utility.yul\":23686:23695   */\n      0x00\n        /* \"#utility.yul\":23719:23756   */\n      tag_567\n        /* \"#utility.yul\":23750:23755   */\n      dup3\n        /* \"#utility.yul\":23719:23756   */\n      tag_565\n      jump\t// in\n    tag_567:\n        /* \"#utility.yul\":23706:23756   */\n      swap1\n      pop\n        /* \"#utility.yul\":23621:23762   */\n      swap2\n      swap1\n      pop\n      jump\t// out\n        /* \"#utility.yul\":23768:23894   */\n    tag_565:\n        /* \"#utility.yul\":23818:23827   */\n      0x00\n        /* \"#utility.yul\":23851:23888   */\n      tag_569\n        /* \"#utility.yul\":23882:23887   */\n      dup3\n        /* \"#utility.yul\":23851:23888   */\n      tag_570\n      jump\t// in\n    tag_569:\n        /* \"#utility.yul\":23838:23888   */\n      swap1\n      pop\n        /* \"#utility.yul\":23768:23894   */\n      swap2\n      swap1\n      pop\n      jump\t// out\n        /* \"#utility.yul\":23900:24013   */\n    tag_570:\n        /* \"#utility.yul\":23950:23959   */\n      0x00\n        /* \"#utility.yul\":23983:24007   */\n      tag_572\n        /* \"#utility.yul\":24001:24006   */\n      dup3\n        /* \"#utility.yul\":23983:24007   */\n      tag_557\n      jump\t// in\n    tag_572:\n        /* \"#utility.yul\":23970:24007   */\n      swap1\n      pop\n        /* \"#utility.yul\":23900:24013   */\n      swap2\n      swap1\n      pop\n      jump\t// out\n        /* \"#utility.yul\":24019:24326   */\n    tag_389:\n        /* \"#utility.yul\":24087:24088   */\n      0x00\n        /* \"#utility.yul\":24097:24210   */\n    tag_574:\n        /* \"#utility.yul\":24111:24117   */\n      dup4\n        /* \"#utility.yul\":24108:24109   */\n      dup2\n        /* \"#utility.yul\":24105:24118   */\n      lt\n        /* \"#utility.yul\":24097:24210   */\n      iszero\n      tag_576\n      jumpi\n        /* \"#utility.yul\":24196:24197   */\n      dup1\n        /* \"#utility.yul\":24191:24194   */\n      dup3\n        /* \"#utility.yul\":24187:24198   */\n      add\n        /* \"#utility.yul\":24181:24199   */\n      mload\n        /* \"#utility.yul\":24177:24178   */\n      dup2\n        /* \"#utility.yul\":24172:24175   */\n      dup5\n        /* \"#utility.yul\":24168:24179   */\n      add\n        /* \"#utility.yul\":24161:24200   */\n      mstore\n        /* \"#utility.yul\":24133:24135   */\n      0x20\n        /* \"#utility.yul\":24130:24131   */\n      dup2\n        /* \"#utility.yul\":24126:24136   */\n      add\n        /* \"#utility.yul\":24121:24136   */\n      swap1\n      pop\n        /* \"#utility.yul\":24097:24210   */\n      jump(tag_574)\n    tag_576:\n        /* \"#utility.yul\":24228:24234   */\n      dup4\n        /* \"#utility.yul\":24225:24226   */\n      dup2\n        /* \"#utility.yul\":24222:24235   */\n      gt\n        /* \"#utility.yul\":24219:24320   */\n      iszero\n      tag_577\n      jumpi\n        /* \"#utility.yul\":24308:24309   */\n      0x00\n        /* \"#utility.yul\":24299:24305   */\n      dup5\n        /* \"#utility.yul\":24294:24297   */\n      dup5\n        /* \"#utility.yul\":24290:24306   */\n      add\n        /* \"#utility.yul\":24283:24310   */\n      mstore\n        /* \"#utility.yul\":24219:24320   */\n    tag_577:\n        /* \"#utility.yul\":24068:24326   */\n      pop\n        /* \"#utility.yul\":24019:24326   */\n      pop\n      pop\n      pop\n      jump\t// out\n        /* \"#utility.yul\":24332:24652   */\n    tag_127:\n        /* \"#utility.yul\":24376:24382   */\n      0x00\n        /* \"#utility.yul\":24413:24414   */\n      0x02\n        /* \"#utility.yul\":24407:24411   */\n      dup3\n        /* \"#utility.yul\":24403:24415   */\n      div\n        /* \"#utility.yul\":24393:24415   */\n      swap1\n      pop\n        /* \"#utility.yul\":24460:24461   */\n      0x01\n        /* \"#utility.yul\":24454:24458   */\n      dup3\n        /* \"#utility.yul\":24450:24462   */\n      and\n        /* \"#utility.yul\":24481:24499   */\n      dup1\n        /* \"#utility.yul\":24471:24552   */\n      tag_579\n      jumpi\n        /* \"#utility.yul\":24537:24541   */\n      0x7f\n        /* \"#utility.yul\":24529:24535   */\n      dup3\n        /* \"#utility.yul\":24525:24542   */\n      and\n        /* \"#utility.yul\":24515:24542   */\n      swap2\n      pop\n        /* \"#utility.yul\":24471:24552   */\n    tag_579:\n        /* \"#utility.yul\":24599:24601   */\n      0x20\n        /* \"#utility.yul\":24591:24597   */\n      dup3\n        /* \"#utility.yul\":24588:24602   */\n      lt\n        /* \"#utility.yul\":24568:24586   */\n      dup2\n        /* \"#utility.yul\":24565:24603   */\n      eq\n        /* \"#utility.yul\":24562:24646   */\n      iszero\n      tag_580\n      jumpi\n        /* \"#utility.yul\":24618:24636   */\n      tag_581\n      tag_582\n      jump\t// in\n    tag_581:\n        /* \"#utility.yul\":24562:24646   */\n    tag_580:\n        /* \"#utility.yul\":24383:24652   */\n      pop\n        /* \"#utility.yul\":24332:24652   */\n      swap2\n      swap1\n      pop\n      jump\t// out\n        /* \"#utility.yul\":24658:24838   */\n    tag_549:\n        /* \"#utility.yul\":24706:24783   */\n      0x4e487b7100000000000000000000000000000000000000000000000000000000\n        /* \"#utility.yul\":24703:24704   */\n      0x00\n        /* \"#utility.yul\":24696:24784   */\n      mstore\n        /* \"#utility.yul\":24803:24807   */\n      0x11\n        /* \"#utility.yul\":24800:24801   */\n      0x04\n        /* \"#utility.yul\":24793:24808   */\n      mstore\n        /* \"#utility.yul\":24827:24831   */\n      0x24\n        /* \"#utility.yul\":24824:24825   */\n      0x00\n        /* \"#utility.yul\":24817:24832   */\n      revert\n        /* \"#utility.yul\":24844:25024   */\n    tag_582:\n        /* \"#utility.yul\":24892:24969   */\n      0x4e487b7100000000000000000000000000000000000000000000000000000000\n        /* \"#utility.yul\":24889:24890   */\n      0x00\n        /* \"#utility.yul\":24882:24970   */\n      mstore\n        /* \"#utility.yul\":24989:24993   */\n      0x22\n        /* \"#utility.yul\":24986:24987   */\n      0x04\n        /* \"#utility.yul\":24979:24994   */\n      mstore\n        /* \"#utility.yul\":25013:25017   */\n      0x24\n        /* \"#utility.yul\":25010:25011   */\n      0x00\n        /* \"#utility.yul\":25003:25018   */\n      revert\n        /* \"#utility.yul\":25030:25147   */\n    tag_315:\n        /* \"#utility.yul\":25139:25140   */\n      0x00\n        /* \"#utility.yul\":25136:25137   */\n      dup1\n        /* \"#utility.yul\":25129:25141   */\n      revert\n        /* \"#utility.yul\":25153:25270   */\n    tag_312:\n        /* \"#utility.yul\":25262:25263   */\n      0x00\n        /* \"#utility.yul\":25259:25260   */\n      dup1\n        /* \"#utility.yul\":25252:25264   */\n      revert\n        /* \"#utility.yul\":25276:25393   */\n    tag_318:\n        /* \"#utility.yul\":25385:25386   */\n      0x00\n        /* \"#utility.yul\":25382:25383   */\n      dup1\n        /* \"#utility.yul\":25375:25387   */\n      revert\n        /* \"#utility.yul\":25399:25516   */\n    tag_347:\n        /* \"#utility.yul\":25508:25509   */\n      0x00\n        /* \"#utility.yul\":25505:25506   */\n      dup1\n        /* \"#utility.yul\":25498:25510   */\n      revert\n        /* \"#utility.yul\":25522:25639   */\n    tag_326:\n        /* \"#utility.yul\":25631:25632   */\n      0x00\n        /* \"#utility.yul\":25628:25629   */\n      dup1\n        /* \"#utility.yul\":25621:25633   */\n      revert\n        /* \"#utility.yul\":25645:25747   */\n    tag_391:\n        /* \"#utility.yul\":25686:25692   */\n      0x00\n        /* \"#utility.yul\":25737:25739   */\n      0x1f\n        /* \"#utility.yul\":25733:25740   */\n      not\n        /* \"#utility.yul\":25728:25730   */\n      0x1f\n        /* \"#utility.yul\":25721:25726   */\n      dup4\n        /* \"#utility.yul\":25717:25731   */\n      add\n        /* \"#utility.yul\":25713:25741   */\n      and\n        /* \"#utility.yul\":25703:25741   */\n      swap1\n      pop\n        /* \"#utility.yul\":25645:25747   */\n      swap2\n      swap1\n      pop\n      jump\t// out\n        /* \"#utility.yul\":25753:25975   */\n    tag_396:\n        /* \"#utility.yul\":25893:25927   */\n      0x45524332303a207472616e7366657220746f20746865207a65726f2061646472\n        /* \"#utility.yul\":25889:25890   */\n      0x00\n        /* \"#utility.yul\":25881:25887   */\n      dup3\n        /* \"#utility.yul\":25877:25891   */\n      add\n        /* \"#utility.yul\":25870:25928   */\n      mstore\n        /* \"#utility.yul\":25962:25967   */\n      0x6573730000000000000000000000000000000000000000000000000000000000\n        /* \"#utility.yul\":25957:25959   */\n      0x20\n        /* \"#utility.yul\":25949:25955   */\n      dup3\n        /* \"#utility.yul\":25945:25960   */\n      add\n        /* \"#utility.yul\":25938:25968   */\n      mstore\n        /* \"#utility.yul\":25753:25975   */\n      pop\n      jump\t// out\n        /* \"#utility.yul\":25981:26202   */\n    tag_401:\n        /* \"#utility.yul\":26121:26155   */\n      0x45524332303a206275726e20616d6f756e7420657863656564732062616c616e\n        /* \"#utility.yul\":26117:26118   */\n      0x00\n        /* \"#utility.yul\":26109:26115   */\n      dup3\n        /* \"#utility.yul\":26105:26119   */\n      add\n        /* \"#utility.yul\":26098:26156   */\n      mstore\n        /* \"#utility.yul\":26190:26194   */\n      0x6365000000000000000000000000000000000000000000000000000000000000\n        /* \"#utility.yul\":26185:26187   */\n      0x20\n        /* \"#utility.yul\":26177:26183   */\n      dup3\n        /* \"#utility.yul\":26173:26188   */\n      add\n        /* \"#utility.yul\":26166:26195   */\n      mstore\n        /* \"#utility.yul\":25981:26202   */\n      pop\n      jump\t// out\n        /* \"#utility.yul\":26208:26429   */\n    tag_406:\n        /* \"#utility.yul\":26348:26382   */\n      0x45524332303a20617070726f766520746f20746865207a65726f206164647265\n        /* \"#utility.yul\":26344:26345   */\n      0x00\n        /* \"#utility.yul\":26336:26342   */\n      dup3\n        /* \"#utility.yul\":26332:26346   */\n      add\n        /* \"#utility.yul\":26325:26383   */\n      mstore\n        /* \"#utility.yul\":26417:26421   */\n      0x7373000000000000000000000000000000000000000000000000000000000000\n        /* \"#utility.yul\":26412:26414   */\n      0x20\n        /* \"#utility.yul\":26404:26410   */\n      dup3\n        /* \"#utility.yul\":26400:26415   */\n      add\n        /* \"#utility.yul\":26393:26422   */\n      mstore\n        /* \"#utility.yul\":26208:26429   */\n      pop\n      jump\t// out\n        /* \"#utility.yul\":26435:26613   */\n    tag_411:\n        /* \"#utility.yul\":26575:26605   */\n      0x446f204e6f7420486176652052465420546f74616c20537570706c7900000000\n        /* \"#utility.yul\":26571:26572   */\n      0x00\n        /* \"#utility.yul\":26563:26569   */\n      dup3\n        /* \"#utility.yul\":26559:26573   */\n      add\n        /* \"#utility.yul\":26552:26606   */\n      mstore\n        /* \"#utility.yul\":26435:26613   */\n      pop\n      jump\t// out\n        /* \"#utility.yul\":26619:26798   */\n    tag_416:\n        /* \"#utility.yul\":26759:26790   */\n      0x45524332303a20696e73756666696369656e7420616c6c6f77616e6365000000\n        /* \"#utility.yul\":26755:26756   */\n      0x00\n        /* \"#utility.yul\":26747:26753   */\n      dup3\n        /* \"#utility.yul\":26743:26757   */\n      add\n        /* \"#utility.yul\":26736:26791   */\n      mstore\n        /* \"#utility.yul\":26619:26798   */\n      pop\n      jump\t// out\n        /* \"#utility.yul\":26804:27029   */\n    tag_421:\n        /* \"#utility.yul\":26944:26978   */\n      0x45524332303a207472616e7366657220616d6f756e7420657863656564732062\n        /* \"#utility.yul\":26940:26941   */\n      0x00\n        /* \"#utility.yul\":26932:26938   */\n      dup3\n        /* \"#utility.yul\":26928:26942   */\n      add\n        /* \"#utility.yul\":26921:26979   */\n      mstore\n        /* \"#utility.yul\":27013:27021   */\n      0x616c616e63650000000000000000000000000000000000000000000000000000\n        /* \"#utility.yul\":27008:27010   */\n      0x20\n        /* \"#utility.yul\":27000:27006   */\n      dup3\n        /* \"#utility.yul\":26996:27011   */\n      add\n        /* \"#utility.yul\":26989:27022   */\n      mstore\n        /* \"#utility.yul\":26804:27029   */\n      pop\n      jump\t// out\n        /* \"#utility.yul\":27035:27203   */\n    tag_426:\n        /* \"#utility.yul\":27175:27195   */\n      0x436f6e7472616374204973204b696c6c65640000000000000000000000000000\n        /* \"#utility.yul\":27171:27172   */\n      0x00\n        /* \"#utility.yul\":27163:27169   */\n      dup3\n        /* \"#utility.yul\":27159:27173   */\n      add\n        /* \"#utility.yul\":27152:27196   */\n      mstore\n        /* \"#utility.yul\":27035:27203   */\n      pop\n      jump\t// out\n        /* \"#utility.yul\":27209:27382   */\n    tag_431:\n        /* \"#utility.yul\":27349:27374   */\n      0x4e6f7420656e6f75676820736861726573206c65667421000000000000000000\n        /* \"#utility.yul\":27345:27346   */\n      0x00\n        /* \"#utility.yul\":27337:27343   */\n      dup3\n        /* \"#utility.yul\":27333:27347   */\n      add\n        /* \"#utility.yul\":27326:27375   */\n      mstore\n        /* \"#utility.yul\":27209:27382   */\n      pop\n      jump\t// out\n        /* \"#utility.yul\":27388:27556   */\n    tag_436:\n        /* \"#utility.yul\":27528:27548   */\n      0x436f6e7472616374204973205061757365640000000000000000000000000000\n        /* \"#utility.yul\":27524:27525   */\n      0x00\n        /* \"#utility.yul\":27516:27522   */\n      dup3\n        /* \"#utility.yul\":27512:27526   */\n      add\n        /* \"#utility.yul\":27505:27549   */\n      mstore\n        /* \"#utility.yul\":27388:27556   */\n      pop\n      jump\t// out\n        /* \"#utility.yul\":27562:27733   */\n    tag_441:\n        /* \"#utility.yul\":27702:27725   */\n      0x54617267657420416c7265616479205261697365640000000000000000000000\n        /* \"#utility.yul\":27698:27699   */\n      0x00\n        /* \"#utility.yul\":27690:27696   */\n      dup3\n        /* \"#utility.yul\":27686:27700   */\n      add\n        /* \"#utility.yul\":27679:27726   */\n      mstore\n        /* \"#utility.yul\":27562:27733   */\n      pop\n      jump\t// out\n        /* \"#utility.yul\":27739:27917   */\n    tag_446:\n        /* \"#utility.yul\":27879:27909   */\n      0x4f6e6c792041646d696e2043616e2050617573652f556e706175736500000000\n        /* \"#utility.yul\":27875:27876   */\n      0x00\n        /* \"#utility.yul\":27867:27873   */\n      dup3\n        /* \"#utility.yul\":27863:27877   */\n      add\n        /* \"#utility.yul\":27856:27910   */\n      mstore\n        /* \"#utility.yul\":27739:27917   */\n      pop\n      jump\t// out\n        /* \"#utility.yul\":27923:28098   */\n    tag_451:\n        /* \"#utility.yul\":28063:28090   */\n      0x4e6f7420477265617420456e6f7567682042616c616e63652100000000000000\n        /* \"#utility.yul\":28059:28060   */\n      0x00\n        /* \"#utility.yul\":28051:28057   */\n      dup3\n        /* \"#utility.yul\":28047:28061   */\n      add\n        /* \"#utility.yul\":28040:28091   */\n      mstore\n        /* \"#utility.yul\":27923:28098   */\n      pop\n      jump\t// out\n        /* \"#utility.yul\":28104:28324   */\n    tag_456:\n        /* \"#utility.yul\":28244:28278   */\n      0x45524332303a206275726e2066726f6d20746865207a65726f20616464726573\n        /* \"#utility.yul\":28240:28241   */\n      0x00\n        /* \"#utility.yul\":28232:28238   */\n      dup3\n        /* \"#utility.yul\":28228:28242   */\n      add\n        /* \"#utility.yul\":28221:28279   */\n      mstore\n        /* \"#utility.yul\":28313:28316   */\n      0x7300000000000000000000000000000000000000000000000000000000000000\n        /* \"#utility.yul\":28308:28310   */\n      0x20\n        /* \"#utility.yul\":28300:28306   */\n      dup3\n        /* \"#utility.yul\":28296:28311   */\n      add\n        /* \"#utility.yul\":28289:28317   */\n      mstore\n        /* \"#utility.yul\":28104:28324   */\n      pop\n      jump\t// out\n        /* \"#utility.yul\":28330:28554   */\n    tag_461:\n        /* \"#utility.yul\":28470:28504   */\n      0x45524332303a207472616e736665722066726f6d20746865207a65726f206164\n        /* \"#utility.yul\":28466:28467   */\n      0x00\n        /* \"#utility.yul\":28458:28464   */\n      dup3\n        /* \"#utility.yul\":28454:28468   */\n      add\n        /* \"#utility.yul\":28447:28505   */\n      mstore\n        /* \"#utility.yul\":28539:28546   */\n      0x6472657373000000000000000000000000000000000000000000000000000000\n        /* \"#utility.yul\":28534:28536   */\n      0x20\n        /* \"#utility.yul\":28526:28532   */\n      dup3\n        /* \"#utility.yul\":28522:28537   */\n      add\n        /* \"#utility.yul\":28515:28547   */\n      mstore\n        /* \"#utility.yul\":28330:28554   */\n      pop\n      jump\t// out\n        /* \"#utility.yul\":28560:28783   */\n    tag_466:\n        /* \"#utility.yul\":28700:28734   */\n      0x45524332303a20617070726f76652066726f6d20746865207a65726f20616464\n        /* \"#utility.yul\":28696:28697   */\n      0x00\n        /* \"#utility.yul\":28688:28694   */\n      dup3\n        /* \"#utility.yul\":28684:28698   */\n      add\n        /* \"#utility.yul\":28677:28735   */\n      mstore\n        /* \"#utility.yul\":28769:28775   */\n      0x7265737300000000000000000000000000000000000000000000000000000000\n        /* \"#utility.yul\":28764:28766   */\n      0x20\n        /* \"#utility.yul\":28756:28762   */\n      dup3\n        /* \"#utility.yul\":28752:28767   */\n      add\n        /* \"#utility.yul\":28745:28776   */\n      mstore\n        /* \"#utility.yul\":28560:28783   */\n      pop\n      jump\t// out\n        /* \"#utility.yul\":28789:29013   */\n    tag_471:\n        /* \"#utility.yul\":28929:28963   */\n      0x45524332303a2064656372656173656420616c6c6f77616e63652062656c6f77\n        /* \"#utility.yul\":28925:28926   */\n      0x00\n        /* \"#utility.yul\":28917:28923   */\n      dup3\n        /* \"#utility.yul\":28913:28927   */\n      add\n        /* \"#utility.yul\":28906:28964   */\n      mstore\n        /* \"#utility.yul\":28998:29005   */\n      0x207a65726f000000000000000000000000000000000000000000000000000000\n        /* \"#utility.yul\":28993:28995   */\n      0x20\n        /* \"#utility.yul\":28985:28991   */\n      dup3\n        /* \"#utility.yul\":28981:28996   */\n      add\n        /* \"#utility.yul\":28974:29006   */\n      mstore\n        /* \"#utility.yul\":28789:29013   */\n      pop\n      jump\t// out\n        /* \"#utility.yul\":29019:29200   */\n    tag_476:\n        /* \"#utility.yul\":29159:29192   */\n      0x45524332303a206d696e7420746f20746865207a65726f206164647265737300\n        /* \"#utility.yul\":29155:29156   */\n      0x00\n        /* \"#utility.yul\":29147:29153   */\n      dup3\n        /* \"#utility.yul\":29143:29157   */\n      add\n        /* \"#utility.yul\":29136:29193   */\n      mstore\n        /* \"#utility.yul\":29019:29200   */\n      pop\n      jump\t// out\n        /* \"#utility.yul\":29206:29328   */\n    tag_303:\n        /* \"#utility.yul\":29279:29303   */\n      tag_609\n        /* \"#utility.yul\":29297:29302   */\n      dup2\n        /* \"#utility.yul\":29279:29303   */\n      tag_365\n      jump\t// in\n    tag_609:\n        /* \"#utility.yul\":29272:29277   */\n      dup2\n        /* \"#utility.yul\":29269:29304   */\n      eq\n        /* \"#utility.yul\":29259:29322   */\n      tag_610\n      jumpi\n        /* \"#utility.yul\":29318:29319   */\n      0x00\n        /* \"#utility.yul\":29315:29316   */\n      dup1\n        /* \"#utility.yul\":29308:29320   */\n      revert\n        /* \"#utility.yul\":29259:29322   */\n    tag_610:\n        /* \"#utility.yul\":29206:29328   */\n      pop\n      jump\t// out\n        /* \"#utility.yul\":29334:29450   */\n    tag_307:\n        /* \"#utility.yul\":29404:29425   */\n      tag_612\n        /* \"#utility.yul\":29419:29424   */\n      dup2\n        /* \"#utility.yul\":29404:29425   */\n      tag_369\n      jump\t// in\n    tag_612:\n        /* \"#utility.yul\":29397:29402   */\n      dup2\n        /* \"#utility.yul\":29394:29426   */\n      eq\n        /* \"#utility.yul\":29384:29444   */\n      tag_613\n      jumpi\n        /* \"#utility.yul\":29440:29441   */\n      0x00\n        /* \"#utility.yul\":29437:29438   */\n      dup1\n        /* \"#utility.yul\":29430:29442   */\n      revert\n        /* \"#utility.yul\":29384:29444   */\n    tag_613:\n        /* \"#utility.yul\":29334:29450   */\n      pop\n      jump\t// out\n        /* \"#utility.yul\":29456:29578   */\n    tag_322:\n        /* \"#utility.yul\":29529:29553   */\n      tag_615\n        /* \"#utility.yul\":29547:29552   */\n      dup2\n        /* \"#utility.yul\":29529:29553   */\n      tag_480\n      jump\t// in\n    tag_615:\n        /* \"#utility.yul\":29522:29527   */\n      dup2\n        /* \"#utility.yul\":29519:29554   */\n      eq\n        /* \"#utility.yul\":29509:29572   */\n      tag_616\n      jumpi\n        /* \"#utility.yul\":29568:29569   */\n      0x00\n        /* \"#utility.yul\":29565:29566   */\n      dup1\n        /* \"#utility.yul\":29558:29570   */\n      revert\n        /* \"#utility.yul\":29509:29572   */\n    tag_616:\n        /* \"#utility.yul\":29456:29578   */\n      pop\n      jump\t// out\n\n    auxdata: 0xa26469706673582212205b5920a7a3587c7dd1a783b2a2ba134d401aaf1a765f41c97e818d840052450b64736f6c63430008070033\n}\n",
				"bytecode": {
					"linkReferences": {},
					"object": "60a06040526000600960006101000a81548160ff0219169083151502179055506000600960016101000a81548160ff0219169083151502179055503480156200004757600080fd5b5060405162002ce538038062002ce583398181016040528101906200006d9190620002d2565b848481600390805190602001906200008792919062000176565b508060049080519060200190620000a092919062000176565b505050856006819055508260088190555081600960026101000a81548173ffffffffffffffffffffffffffffffffffffffff021916908373ffffffffffffffffffffffffffffffffffffffff16021790555080600560006101000a81548173ffffffffffffffffffffffffffffffffffffffff021916908373ffffffffffffffffffffffffffffffffffffffff1602179055503373ffffffffffffffffffffffffffffffffffffffff1660808173ffffffffffffffffffffffffffffffffffffffff1660601b81525050505050505050620005a2565b82805462000184906200047f565b90600052602060002090601f016020900481019282620001a85760008555620001f4565b82601f10620001c357805160ff1916838001178555620001f4565b82800160010185558215620001f4579182015b82811115620001f3578251825591602001919060010190620001d6565b5b50905062000203919062000207565b5090565b5b808211156200022257600081600090555060010162000208565b5090565b60006200023d6200023784620003d5565b620003ac565b9050828152602081018484840111156200025c576200025b6200054e565b5b6200026984828562000449565b509392505050565b60008151905062000282816200056e565b92915050565b600082601f830112620002a0576200029f62000549565b5b8151620002b284826020860162000226565b91505092915050565b600081519050620002cc8162000588565b92915050565b60008060008060008060c08789031215620002f257620002f162000558565b5b60006200030289828a01620002bb565b965050602087015167ffffffffffffffff81111562000326576200032562000553565b5b6200033489828a0162000288565b955050604087015167ffffffffffffffff81111562000358576200035762000553565b5b6200036689828a0162000288565b94505060606200037989828a01620002bb565b93505060806200038c89828a0162000271565b92505060a06200039f89828a0162000271565b9150509295509295509295565b6000620003b8620003cb565b9050620003c68282620004b5565b919050565b6000604051905090565b600067ffffffffffffffff821115620003f357620003f26200051a565b5b620003fe826200055d565b9050602081019050919050565b600062000418826200041f565b9050919050565b600073ffffffffffffffffffffffffffffffffffffffff82169050919050565b6000819050919050565b60005b83811015620004695780820151818401526020810190506200044c565b8381111562000479576000848401525b50505050565b600060028204905060018216806200049857607f821691505b60208210811415620004af57620004ae620004eb565b5b50919050565b620004c0826200055d565b810181811067ffffffffffffffff82111715620004e257620004e16200051a565b5b80604052505050565b7f4e487b7100000000000000000000000000000000000000000000000000000000600052602260045260246000fd5b7f4e487b7100000000000000000000000000000000000000000000000000000000600052604160045260246000fd5b600080fd5b600080fd5b600080fd5b600080fd5b6000601f19601f8301169050919050565b62000579816200040b565b81146200058557600080fd5b50565b62000593816200043f565b81146200059f57600080fd5b50565b60805160601c61271d620005c860003960008181610c0b0152610cb8015261271d6000f3fe608060405234801561001057600080fd5b50600436106101735760003560e01c806341c0e1b5116100de5780638456cb5911610097578063a457c2d711610071578063a457c2d714610408578063a9059cbb14610438578063bdf8968214610468578063dd62ed3e1461048657610173565b80638456cb59146103c2578063953b8fb8146103cc57806395d89b41146103ea57610173565b806341c0e1b5146103245780635c975abb1461032e57806370a082311461034c57806377262d381461037c5780637b3e5e7b146103865780637e0d73d4146103a457610173565b80631f3a0e41116101305780631f3a0e41146102505780632037fcbf1461026e57806323b872dd1461028a5780632afcf480146102ba578063313ce567146102d657806339509351146102f457610173565b806306fdde031461017857806306febe0014610196578063095ea7b3146101b457806311df9995146101e4578063150b7a021461020257806318160ddd14610232575b600080fd5b6101806104b6565b60405161018d9190611de5565b60405180910390f35b61019e610548565b6040516101ab9190612027565b60405180910390f35b6101ce60048036038101906101c9919061198a565b61054e565b6040516101db9190611d79565b60405180910390f35b6101ec610571565b6040516101f99190611daf565b60405180910390f35b61021c60048036038101906102179190611902565b610597565b6040516102299190611d94565b60405180910390f35b61023a6105ac565b6040516102479190612027565b60405180910390f35b6102586105b6565b6040516102659190611d79565b60405180910390f35b610288600480360381019061028391906119f7565b6105c9565b005b6102a4600480360381019061029f91906118af565b610735565b6040516102b19190611d79565b60405180910390f35b6102d460048036038101906102cf91906119f7565b610764565b005b6102de610a64565b6040516102eb9190612042565b60405180910390f35b61030e6004803603810190610309919061198a565b610a6d565b60405161031b9190611d79565b60405180910390f35b61032c610aa4565b005b610336610b51565b6040516103439190611d79565b60405180910390f35b61036660048036038101906103619190611842565b610b64565b6040516103739190612027565b60405180910390f35b610384610bac565b005b61038e610cb0565b60405161039b9190612027565b60405180910390f35b6103ac610cb6565b6040516103b99190611dca565b60405180910390f35b6103ca610cda565b005b6103d4610dbc565b6040516103e19190612027565b60405180910390f35b6103f2610dc2565b6040516103ff9190611de5565b60405180910390f35b610422600480360381019061041d919061198a565b610e54565b60405161042f9190611d79565b60405180910390f35b610452600480360381019061044d919061198a565b610ecb565b60405161045f9190611d79565b60405180910390f35b610470610eee565b60405161047d9190612027565b60405180910390f35b6104a0600480360381019061049b919061186f565b610f05565b6040516104ad9190612027565b60405180910390f35b6060600380546104c5906121ff565b80601f01602080910402602001604051908101604052809291908181526020018280546104f1906121ff565b801561053e5780601f106105135761010080835404028352916020019161053e565b820191906000526020600020905b81548152906001019060200180831161052157829003601f168201915b5050505050905090565b60085481565b600080610559610f8c565b9050610566818585610f94565b600191505092915050565b600560009054906101000a900473ffffffffffffffffffffffffffffffffffffffff1681565b600063150b7a0260e01b905095945050505050565b6000600254905090565b600960019054906101000a900460ff1681565b6006546105d46105ac565b10610614576040517f08c379a000000000000000000000000000000000000000000000000000000000815260040161060b90611f27565b60405180910390fd5b61061d33610b64565b81111561065f576040517f08c379a000000000000000000000000000000000000000000000000000000000815260040161065690611f67565b60405180910390fd5b600560009054906101000a900473ffffffffffffffffffffffffffffffffffffffff1673ffffffffffffffffffffffffffffffffffffffff1663a9059cbb33836040518363ffffffff1660e01b81526004016106bc929190611d50565b602060405180830381600087803b1580156106d657600080fd5b505af11580156106ea573d6000803e3d6000fd5b505050506040513d601f19601f8201168201806040525081019061070e91906119ca565b50806007600082825461072191906120cf565b92505081905550610732338261115f565b50565b600080610740610f8c565b905061074d858285611336565b6107588585856113c2565b60019150509392505050565b60065461076f6105ac565b106107af576040517f08c379a00000000000000000000000000000000000000000000000000000000081526004016107a690611f27565b60405180910390fd5b6107b76105ac565b6006546107c491906120cf565b811115610806576040517f08c379a00000000000000000000000000000000000000000000000000000000081526004016107fd90611ee7565b60405180910390fd5b600960009054906101000a900460ff1615610856576040517f08c379a000000000000000000000000000000000000000000000000000000000815260040161084d90611f07565b60405180910390fd5b600960019054906101000a900460ff16156108a6576040517f08c379a000000000000000000000000000000000000000000000000000000000815260040161089d90611ec7565b60405180910390fd5b600560009054906101000a900473ffffffffffffffffffffffffffffffffffffffff1673ffffffffffffffffffffffffffffffffffffffff166323b872dd3330846040518463ffffffff1660e01b815260040161090593929190611d19565b602060405180830381600087803b15801561091f57600080fd5b505af1158015610933573d6000803e3d6000fd5b505050506040513d601f19601f8201168201806040525081019061095791906119ca565b50806007600082825461096a9190612079565b9250508190555061097b3382611643565b6109836105ac565b6006541415610a6157600560009054906101000a900473ffffffffffffffffffffffffffffffffffffffff1673ffffffffffffffffffffffffffffffffffffffff1663a9059cbb600960029054906101000a900473ffffffffffffffffffffffffffffffffffffffff166006546040518363ffffffff1660e01b8152600401610a0d929190611d50565b602060405180830381600087803b158015610a2757600080fd5b505af1158015610a3b573d6000803e3d6000fd5b505050506040513d601f19601f82011682018060405250810190610a5f91906119ca565b505b50565b60006002905090565b600080610a78610f8c565b9050610a99818585610a8a8589610f05565b610a949190612079565b610f94565b600191505092915050565b600960029054906101000a900473ffffffffffffffffffffffffffffffffffffffff1673ffffffffffffffffffffffffffffffffffffffff163373ffffffffffffffffffffffffffffffffffffffff1614610b34576040517f08c379a0000000000000000000000000000000000000000000000000000000008152600401610b2b90611f47565b60405180910390fd5b6001600960016101000a81548160ff021916908315150217905550565b600960009054906101000a900460ff1681565b60008060008373ffffffffffffffffffffffffffffffffffffffff1673ffffffffffffffffffffffffffffffffffffffff168152602001908152602001600020549050919050565b600654610bb833610b64565b14610bf8576040517f08c379a0000000000000000000000000000000000000000000000000000000008152600401610bef90611e67565b60405180910390fd5b610c0933610c046105ac565b61115f565b7f000000000000000000000000000000000000000000000000000000000000000073ffffffffffffffffffffffffffffffffffffffff166342842e0e30333073ffffffffffffffffffffffffffffffffffffffff166040518463ffffffff1660e01b8152600401610c7c93929190611d19565b600060405180830381600087803b158015610c9657600080fd5b505af1158015610caa573d6000803e3d6000fd5b50505050565b60075481565b7f000000000000000000000000000000000000000000000000000000000000000081565b600960029054906101000a900473ffffffffffffffffffffffffffffffffffffffff1673ffffffffffffffffffffffffffffffffffffffff163373ffffffffffffffffffffffffffffffffffffffff1614610d6a576040517f08c379a0000000000000000000000000000000000000000000000000000000008152600401610d6190611f47565b60405180910390fd5b600960009054906101000a900460ff16610d9e576001600960006101000a81548160ff021916908315150217905550610dba565b6000600960006101000a81548160ff0219169083151502179055505b565b60065481565b606060048054610dd1906121ff565b80601f0160208091040260200160405190810160405280929190818152602001828054610dfd906121ff565b8015610e4a5780601f10610e1f57610100808354040283529160200191610e4a565b820191906000526020600020905b815481529060010190602001808311610e2d57829003601f168201915b5050505050905090565b600080610e5f610f8c565b90506000610e6d8286610f05565b905083811015610eb2576040517f08c379a0000000000000000000000000000000000000000000000000000000008152600401610ea990611fe7565b60405180910390fd5b610ebf8286868403610f94565b60019250505092915050565b600080610ed6610f8c565b9050610ee38185856113c2565b600191505092915050565b6000600754600654610f0091906120cf565b905090565b6000600160008473ffffffffffffffffffffffffffffffffffffffff1673ffffffffffffffffffffffffffffffffffffffff16815260200190815260200160002060008373ffffffffffffffffffffffffffffffffffffffff1673ffffffffffffffffffffffffffffffffffffffff16815260200190815260200160002054905092915050565b600033905090565b600073ffffffffffffffffffffffffffffffffffffffff168373ffffffffffffffffffffffffffffffffffffffff161415611004576040517f08c379a0000000000000000000000000000000000000000000000000000000008152600401610ffb90611fc7565b60405180910390fd5b600073ffffffffffffffffffffffffffffffffffffffff168273ffffffffffffffffffffffffffffffffffffffff161415611074576040517f08c379a000000000000000000000000000000000000000000000000000000000815260040161106b90611e47565b60405180910390fd5b80600160008573ffffffffffffffffffffffffffffffffffffffff1673ffffffffffffffffffffffffffffffffffffffff16815260200190815260200160002060008473ffffffffffffffffffffffffffffffffffffffff1673ffffffffffffffffffffffffffffffffffffffff168152602001908152602001600020819055508173ffffffffffffffffffffffffffffffffffffffff168373ffffffffffffffffffffffffffffffffffffffff167f8c5be1e5ebec7d5bd14f71427d1e84f3dd0314c0f7b2291e5b200ac8c7c3b925836040516111529190612027565b60405180910390a3505050565b600073ffffffffffffffffffffffffffffffffffffffff168273ffffffffffffffffffffffffffffffffffffffff1614156111cf576040517f08c379a00000000000000000000000000000000000000000000000000000000081526004016111c690611f87565b60405180910390fd5b6111db826000836117a3565b60008060008473ffffffffffffffffffffffffffffffffffffffff1673ffffffffffffffffffffffffffffffffffffffff16815260200190815260200160002054905081811015611261576040517f08c379a000000000000000000000000000000000000000000000000000000000815260040161125890611e27565b60405180910390fd5b8181036000808573ffffffffffffffffffffffffffffffffffffffff1673ffffffffffffffffffffffffffffffffffffffff1681526020019081526020016000208190555081600260008282546112b891906120cf565b92505081905550600073ffffffffffffffffffffffffffffffffffffffff168373ffffffffffffffffffffffffffffffffffffffff167fddf252ad1be2c89b69c2b068fc378daa952ba7f163c4a11628f55a4df523b3ef8460405161131d9190612027565b60405180910390a3611331836000846117a8565b505050565b60006113428484610f05565b90507fffffffffffffffffffffffffffffffffffffffffffffffffffffffffffffffff81146113bc57818110156113ae576040517f08c379a00000000000000000000000000000000000000000000000000000000081526004016113a590611e87565b60405180910390fd5b6113bb8484848403610f94565b5b50505050565b600073ffffffffffffffffffffffffffffffffffffffff168373ffffffffffffffffffffffffffffffffffffffff161415611432576040517f08c379a000000000000000000000000000000000000000000000000000000000815260040161142990611fa7565b60405180910390fd5b600073ffffffffffffffffffffffffffffffffffffffff168273ffffffffffffffffffffffffffffffffffffffff1614156114a2576040517f08c379a000000000000000000000000000000000000000000000000000000000815260040161149990611e07565b60405180910390fd5b6114ad8383836117a3565b60008060008573ffffffffffffffffffffffffffffffffffffffff1673ffffffffffffffffffffffffffffffffffffffff16815260200190815260200160002054905081811015611533576040517f08c379a000000000000000000000000000000000000000000000000000000000815260040161152a90611ea7565b60405180910390fd5b8181036000808673ffffffffffffffffffffffffffffffffffffffff1673ffffffffffffffffffffffffffffffffffffffff16815260200190815260200160002081905550816000808573ffffffffffffffffffffffffffffffffffffffff1673ffffffffffffffffffffffffffffffffffffffff16815260200190815260200160002060008282546115c69190612079565b925050819055508273ffffffffffffffffffffffffffffffffffffffff168473ffffffffffffffffffffffffffffffffffffffff167fddf252ad1be2c89b69c2b068fc378daa952ba7f163c4a11628f55a4df523b3ef8460405161162a9190612027565b60405180910390a361163d8484846117a8565b50505050565b600073ffffffffffffffffffffffffffffffffffffffff168273ffffffffffffffffffffffffffffffffffffffff1614156116b3576040517f08c379a00000000000000000000000000000000000000000000000000000000081526004016116aa90612007565b60405180910390fd5b6116bf600083836117a3565b80600260008282546116d19190612079565b92505081905550806000808473ffffffffffffffffffffffffffffffffffffffff1673ffffffffffffffffffffffffffffffffffffffff16815260200190815260200160002060008282546117269190612079565b925050819055508173ffffffffffffffffffffffffffffffffffffffff16600073ffffffffffffffffffffffffffffffffffffffff167fddf252ad1be2c89b69c2b068fc378daa952ba7f163c4a11628f55a4df523b3ef8360405161178b9190612027565b60405180910390a361179f600083836117a8565b5050565b505050565b505050565b6000813590506117bc816126a2565b92915050565b6000815190506117d1816126b9565b92915050565b60008083601f8401126117ed576117ec612294565b5b8235905067ffffffffffffffff81111561180a5761180961228f565b5b60208301915083600182028301111561182657611825612299565b5b9250929050565b60008135905061183c816126d0565b92915050565b600060208284031215611858576118576122a3565b5b6000611866848285016117ad565b91505092915050565b60008060408385031215611886576118856122a3565b5b6000611894858286016117ad565b92505060206118a5858286016117ad565b9150509250929050565b6000806000606084860312156118c8576118c76122a3565b5b60006118d6868287016117ad565b93505060206118e7868287016117ad565b92505060406118f88682870161182d565b9150509250925092565b60008060008060006080868803121561191e5761191d6122a3565b5b600061192c888289016117ad565b955050602061193d888289016117ad565b945050604061194e8882890161182d565b935050606086013567ffffffffffffffff81111561196f5761196e61229e565b5b61197b888289016117d7565b92509250509295509295909350565b600080604083850312156119a1576119a06122a3565b5b60006119af858286016117ad565b92505060206119c08582860161182d565b9150509250929050565b6000602082840312156119e0576119df6122a3565b5b60006119ee848285016117c2565b91505092915050565b600060208284031215611a0d57611a0c6122a3565b5b6000611a1b8482850161182d565b91505092915050565b611a2d81612103565b82525050565b611a3c81612115565b82525050565b611a4b81612121565b82525050565b611a5a81612184565b82525050565b611a6981612196565b82525050565b6000611a7a8261205d565b611a848185612068565b9350611a948185602086016121cc565b611a9d816122a8565b840191505092915050565b6000611ab5602383612068565b9150611ac0826122b9565b604082019050919050565b6000611ad8602283612068565b9150611ae382612308565b604082019050919050565b6000611afb602283612068565b9150611b0682612357565b604082019050919050565b6000611b1e601c83612068565b9150611b29826123a6565b602082019050919050565b6000611b41601d83612068565b9150611b4c826123cf565b602082019050919050565b6000611b64602683612068565b9150611b6f826123f8565b604082019050919050565b6000611b87601283612068565b9150611b9282612447565b602082019050919050565b6000611baa601783612068565b9150611bb582612470565b602082019050919050565b6000611bcd601283612068565b9150611bd882612499565b602082019050919050565b6000611bf0601583612068565b9150611bfb826124c2565b602082019050919050565b6000611c13601c83612068565b9150611c1e826124eb565b602082019050919050565b6000611c36601983612068565b9150611c4182612514565b602082019050919050565b6000611c59602183612068565b9150611c648261253d565b604082019050919050565b6000611c7c602583612068565b9150611c878261258c565b604082019050919050565b6000611c9f602483612068565b9150611caa826125db565b604082019050919050565b6000611cc2602583612068565b9150611ccd8261262a565b604082019050919050565b6000611ce5601f83612068565b9150611cf082612679565b602082019050919050565b611d048161216d565b82525050565b611d1381612177565b82525050565b6000606082019050611d2e6000830186611a24565b611d3b6020830185611a24565b611d486040830184611cfb565b949350505050565b6000604082019050611d656000830185611a24565b611d726020830184611cfb565b9392505050565b6000602082019050611d8e6000830184611a33565b92915050565b6000602082019050611da96000830184611a42565b92915050565b6000602082019050611dc46000830184611a51565b92915050565b6000602082019050611ddf6000830184611a60565b92915050565b60006020820190508181036000830152611dff8184611a6f565b905092915050565b60006020820190508181036000830152611e2081611aa8565b9050919050565b60006020820190508181036000830152611e4081611acb565b9050919050565b60006020820190508181036000830152611e6081611aee565b9050919050565b60006020820190508181036000830152611e8081611b11565b9050919050565b60006020820190508181036000830152611ea081611b34565b9050919050565b60006020820190508181036000830152611ec081611b57565b9050919050565b60006020820190508181036000830152611ee081611b7a565b9050919050565b60006020820190508181036000830152611f0081611b9d565b9050919050565b60006020820190508181036000830152611f2081611bc0565b9050919050565b60006020820190508181036000830152611f4081611be3565b9050919050565b60006020820190508181036000830152611f6081611c06565b9050919050565b60006020820190508181036000830152611f8081611c29565b9050919050565b60006020820190508181036000830152611fa081611c4c565b9050919050565b60006020820190508181036000830152611fc081611c6f565b9050919050565b60006020820190508181036000830152611fe081611c92565b9050919050565b6000602082019050818103600083015261200081611cb5565b9050919050565b6000602082019050818103600083015261202081611cd8565b9050919050565b600060208201905061203c6000830184611cfb565b92915050565b60006020820190506120576000830184611d0a565b92915050565b600081519050919050565b600082825260208201905092915050565b60006120848261216d565b915061208f8361216d565b9250827fffffffffffffffffffffffffffffffffffffffffffffffffffffffffffffffff038211156120c4576120c3612231565b5b828201905092915050565b60006120da8261216d565b91506120e58361216d565b9250828210156120f8576120f7612231565b5b828203905092915050565b600061210e8261214d565b9050919050565b60008115159050919050565b60007fffffffff0000000000000000000000000000000000000000000000000000000082169050919050565b600073ffffffffffffffffffffffffffffffffffffffff82169050919050565b6000819050919050565b600060ff82169050919050565b600061218f826121a8565b9050919050565b60006121a1826121a8565b9050919050565b60006121b3826121ba565b9050919050565b60006121c58261214d565b9050919050565b60005b838110156121ea5780820151818401526020810190506121cf565b838111156121f9576000848401525b50505050565b6000600282049050600182168061221757607f821691505b6020821081141561222b5761222a612260565b5b50919050565b7f4e487b7100000000000000000000000000000000000000000000000000000000600052601160045260246000fd5b7f4e487b7100000000000000000000000000000000000000000000000000000000600052602260045260246000fd5b600080fd5b600080fd5b600080fd5b600080fd5b600080fd5b6000601f19601f8301169050919050565b7f45524332303a207472616e7366657220746f20746865207a65726f206164647260008201527f6573730000000000000000000000000000000000000000000000000000000000602082015250565b7f45524332303a206275726e20616d6f756e7420657863656564732062616c616e60008201527f6365000000000000000000000000000000000000000000000000000000000000602082015250565b7f45524332303a20617070726f766520746f20746865207a65726f20616464726560008201527f7373000000000000000000000000000000000000000000000000000000000000602082015250565b7f446f204e6f7420486176652052465420546f74616c20537570706c7900000000600082015250565b7f45524332303a20696e73756666696369656e7420616c6c6f77616e6365000000600082015250565b7f45524332303a207472616e7366657220616d6f756e742065786365656473206260008201527f616c616e63650000000000000000000000000000000000000000000000000000602082015250565b7f436f6e7472616374204973204b696c6c65640000000000000000000000000000600082015250565b7f4e6f7420656e6f75676820736861726573206c65667421000000000000000000600082015250565b7f436f6e7472616374204973205061757365640000000000000000000000000000600082015250565b7f54617267657420416c7265616479205261697365640000000000000000000000600082015250565b7f4f6e6c792041646d696e2043616e2050617573652f556e706175736500000000600082015250565b7f4e6f7420477265617420456e6f7567682042616c616e63652100000000000000600082015250565b7f45524332303a206275726e2066726f6d20746865207a65726f2061646472657360008201527f7300000000000000000000000000000000000000000000000000000000000000602082015250565b7f45524332303a207472616e736665722066726f6d20746865207a65726f20616460008201527f6472657373000000000000000000000000000000000000000000000000000000602082015250565b7f45524332303a20617070726f76652066726f6d20746865207a65726f2061646460008201527f7265737300000000000000000000000000000000000000000000000000000000602082015250565b7f45524332303a2064656372656173656420616c6c6f77616e63652062656c6f7760008201527f207a65726f000000000000000000000000000000000000000000000000000000602082015250565b7f45524332303a206d696e7420746f20746865207a65726f206164647265737300600082015250565b6126ab81612103565b81146126b657600080fd5b50565b6126c281612115565b81146126cd57600080fd5b50565b6126d98161216d565b81146126e457600080fd5b5056fea26469706673582212205b5920a7a3587c7dd1a783b2a2ba134d401aaf1a765f41c97e818d840052450b64736f6c63430008070033",
					"opcodes": "PUSH1 0xA0 PUSH1 0x40 MSTORE PUSH1 0x0 PUSH1 0x9 PUSH1 0x0 PUSH2 0x100 EXP DUP2 SLOAD DUP2 PUSH1 0xFF MUL NOT AND SWAP1 DUP4 ISZERO ISZERO MUL OR SWAP1 SSTORE POP PUSH1 0x0 PUSH1 0x9 PUSH1 0x1 PUSH2 0x100 EXP DUP2 SLOAD DUP2 PUSH1 0xFF MUL NOT AND SWAP1 DUP4 ISZERO ISZERO MUL OR SWAP1 SSTORE POP CALLVALUE DUP1 ISZERO PUSH3 0x47 JUMPI PUSH1 0x0 DUP1 REVERT JUMPDEST POP PUSH1 0x40 MLOAD PUSH3 0x2CE5 CODESIZE SUB DUP1 PUSH3 0x2CE5 DUP4 CODECOPY DUP2 DUP2 ADD PUSH1 0x40 MSTORE DUP2 ADD SWAP1 PUSH3 0x6D SWAP2 SWAP1 PUSH3 0x2D2 JUMP JUMPDEST DUP5 DUP5 DUP2 PUSH1 0x3 SWAP1 DUP1 MLOAD SWAP1 PUSH1 0x20 ADD SWAP1 PUSH3 0x87 SWAP3 SWAP2 SWAP1 PUSH3 0x176 JUMP JUMPDEST POP DUP1 PUSH1 0x4 SWAP1 DUP1 MLOAD SWAP1 PUSH1 0x20 ADD SWAP1 PUSH3 0xA0 SWAP3 SWAP2 SWAP1 PUSH3 0x176 JUMP JUMPDEST POP POP POP DUP6 PUSH1 0x6 DUP2 SWAP1 SSTORE POP DUP3 PUSH1 0x8 DUP2 SWAP1 SSTORE POP DUP2 PUSH1 0x9 PUSH1 0x2 PUSH2 0x100 EXP DUP2 SLOAD DUP2 PUSH20 0xFFFFFFFFFFFFFFFFFFFFFFFFFFFFFFFFFFFFFFFF MUL NOT AND SWAP1 DUP4 PUSH20 0xFFFFFFFFFFFFFFFFFFFFFFFFFFFFFFFFFFFFFFFF AND MUL OR SWAP1 SSTORE POP DUP1 PUSH1 0x5 PUSH1 0x0 PUSH2 0x100 EXP DUP2 SLOAD DUP2 PUSH20 0xFFFFFFFFFFFFFFFFFFFFFFFFFFFFFFFFFFFFFFFF MUL NOT AND SWAP1 DUP4 PUSH20 0xFFFFFFFFFFFFFFFFFFFFFFFFFFFFFFFFFFFFFFFF AND MUL OR SWAP1 SSTORE POP CALLER PUSH20 0xFFFFFFFFFFFFFFFFFFFFFFFFFFFFFFFFFFFFFFFF AND PUSH1 0x80 DUP2 PUSH20 0xFFFFFFFFFFFFFFFFFFFFFFFFFFFFFFFFFFFFFFFF AND PUSH1 0x60 SHL DUP2 MSTORE POP POP POP POP POP POP POP POP PUSH3 0x5A2 JUMP JUMPDEST DUP3 DUP1 SLOAD PUSH3 0x184 SWAP1 PUSH3 0x47F JUMP JUMPDEST SWAP1 PUSH1 0x0 MSTORE PUSH1 0x20 PUSH1 0x0 KECCAK256 SWAP1 PUSH1 0x1F ADD PUSH1 0x20 SWAP1 DIV DUP2 ADD SWAP3 DUP3 PUSH3 0x1A8 JUMPI PUSH1 0x0 DUP6 SSTORE PUSH3 0x1F4 JUMP JUMPDEST DUP3 PUSH1 0x1F LT PUSH3 0x1C3 JUMPI DUP1 MLOAD PUSH1 0xFF NOT AND DUP4 DUP1 ADD OR DUP6 SSTORE PUSH3 0x1F4 JUMP JUMPDEST DUP3 DUP1 ADD PUSH1 0x1 ADD DUP6 SSTORE DUP3 ISZERO PUSH3 0x1F4 JUMPI SWAP2 DUP3 ADD JUMPDEST DUP3 DUP2 GT ISZERO PUSH3 0x1F3 JUMPI DUP3 MLOAD DUP3 SSTORE SWAP2 PUSH1 0x20 ADD SWAP2 SWAP1 PUSH1 0x1 ADD SWAP1 PUSH3 0x1D6 JUMP JUMPDEST JUMPDEST POP SWAP1 POP PUSH3 0x203 SWAP2 SWAP1 PUSH3 0x207 JUMP JUMPDEST POP SWAP1 JUMP JUMPDEST JUMPDEST DUP1 DUP3 GT ISZERO PUSH3 0x222 JUMPI PUSH1 0x0 DUP2 PUSH1 0x0 SWAP1 SSTORE POP PUSH1 0x1 ADD PUSH3 0x208 JUMP JUMPDEST POP SWAP1 JUMP JUMPDEST PUSH1 0x0 PUSH3 0x23D PUSH3 0x237 DUP5 PUSH3 0x3D5 JUMP JUMPDEST PUSH3 0x3AC JUMP JUMPDEST SWAP1 POP DUP3 DUP2 MSTORE PUSH1 0x20 DUP2 ADD DUP5 DUP5 DUP5 ADD GT ISZERO PUSH3 0x25C JUMPI PUSH3 0x25B PUSH3 0x54E JUMP JUMPDEST JUMPDEST PUSH3 0x269 DUP5 DUP3 DUP6 PUSH3 0x449 JUMP JUMPDEST POP SWAP4 SWAP3 POP POP POP JUMP JUMPDEST PUSH1 0x0 DUP2 MLOAD SWAP1 POP PUSH3 0x282 DUP2 PUSH3 0x56E JUMP JUMPDEST SWAP3 SWAP2 POP POP JUMP JUMPDEST PUSH1 0x0 DUP3 PUSH1 0x1F DUP4 ADD SLT PUSH3 0x2A0 JUMPI PUSH3 0x29F PUSH3 0x549 JUMP JUMPDEST JUMPDEST DUP2 MLOAD PUSH3 0x2B2 DUP5 DUP3 PUSH1 0x20 DUP7 ADD PUSH3 0x226 JUMP JUMPDEST SWAP2 POP POP SWAP3 SWAP2 POP POP JUMP JUMPDEST PUSH1 0x0 DUP2 MLOAD SWAP1 POP PUSH3 0x2CC DUP2 PUSH3 0x588 JUMP JUMPDEST SWAP3 SWAP2 POP POP JUMP JUMPDEST PUSH1 0x0 DUP1 PUSH1 0x0 DUP1 PUSH1 0x0 DUP1 PUSH1 0xC0 DUP8 DUP10 SUB SLT ISZERO PUSH3 0x2F2 JUMPI PUSH3 0x2F1 PUSH3 0x558 JUMP JUMPDEST JUMPDEST PUSH1 0x0 PUSH3 0x302 DUP10 DUP3 DUP11 ADD PUSH3 0x2BB JUMP JUMPDEST SWAP7 POP POP PUSH1 0x20 DUP8 ADD MLOAD PUSH8 0xFFFFFFFFFFFFFFFF DUP2 GT ISZERO PUSH3 0x326 JUMPI PUSH3 0x325 PUSH3 0x553 JUMP JUMPDEST JUMPDEST PUSH3 0x334 DUP10 DUP3 DUP11 ADD PUSH3 0x288 JUMP JUMPDEST SWAP6 POP POP PUSH1 0x40 DUP8 ADD MLOAD PUSH8 0xFFFFFFFFFFFFFFFF DUP2 GT ISZERO PUSH3 0x358 JUMPI PUSH3 0x357 PUSH3 0x553 JUMP JUMPDEST JUMPDEST PUSH3 0x366 DUP10 DUP3 DUP11 ADD PUSH3 0x288 JUMP JUMPDEST SWAP5 POP POP PUSH1 0x60 PUSH3 0x379 DUP10 DUP3 DUP11 ADD PUSH3 0x2BB JUMP JUMPDEST SWAP4 POP POP PUSH1 0x80 PUSH3 0x38C DUP10 DUP3 DUP11 ADD PUSH3 0x271 JUMP JUMPDEST SWAP3 POP POP PUSH1 0xA0 PUSH3 0x39F DUP10 DUP3 DUP11 ADD PUSH3 0x271 JUMP JUMPDEST SWAP2 POP POP SWAP3 SWAP6 POP SWAP3 SWAP6 POP SWAP3 SWAP6 JUMP JUMPDEST PUSH1 0x0 PUSH3 0x3B8 PUSH3 0x3CB JUMP JUMPDEST SWAP1 POP PUSH3 0x3C6 DUP3 DUP3 PUSH3 0x4B5 JUMP JUMPDEST SWAP2 SWAP1 POP JUMP JUMPDEST PUSH1 0x0 PUSH1 0x40 MLOAD SWAP1 POP SWAP1 JUMP JUMPDEST PUSH1 0x0 PUSH8 0xFFFFFFFFFFFFFFFF DUP3 GT ISZERO PUSH3 0x3F3 JUMPI PUSH3 0x3F2 PUSH3 0x51A JUMP JUMPDEST JUMPDEST PUSH3 0x3FE DUP3 PUSH3 0x55D JUMP JUMPDEST SWAP1 POP PUSH1 0x20 DUP2 ADD SWAP1 POP SWAP2 SWAP1 POP JUMP JUMPDEST PUSH1 0x0 PUSH3 0x418 DUP3 PUSH3 0x41F JUMP JUMPDEST SWAP1 POP SWAP2 SWAP1 POP JUMP JUMPDEST PUSH1 0x0 PUSH20 0xFFFFFFFFFFFFFFFFFFFFFFFFFFFFFFFFFFFFFFFF DUP3 AND SWAP1 POP SWAP2 SWAP1 POP JUMP JUMPDEST PUSH1 0x0 DUP2 SWAP1 POP SWAP2 SWAP1 POP JUMP JUMPDEST PUSH1 0x0 JUMPDEST DUP4 DUP2 LT ISZERO PUSH3 0x469 JUMPI DUP1 DUP3 ADD MLOAD DUP2 DUP5 ADD MSTORE PUSH1 0x20 DUP2 ADD SWAP1 POP PUSH3 0x44C JUMP JUMPDEST DUP4 DUP2 GT ISZERO PUSH3 0x479 JUMPI PUSH1 0x0 DUP5 DUP5 ADD MSTORE JUMPDEST POP POP POP POP JUMP JUMPDEST PUSH1 0x0 PUSH1 0x2 DUP3 DIV SWAP1 POP PUSH1 0x1 DUP3 AND DUP1 PUSH3 0x498 JUMPI PUSH1 0x7F DUP3 AND SWAP2 POP JUMPDEST PUSH1 0x20 DUP3 LT DUP2 EQ ISZERO PUSH3 0x4AF JUMPI PUSH3 0x4AE PUSH3 0x4EB JUMP JUMPDEST JUMPDEST POP SWAP2 SWAP1 POP JUMP JUMPDEST PUSH3 0x4C0 DUP3 PUSH3 0x55D JUMP JUMPDEST DUP2 ADD DUP2 DUP2 LT PUSH8 0xFFFFFFFFFFFFFFFF DUP3 GT OR ISZERO PUSH3 0x4E2 JUMPI PUSH3 0x4E1 PUSH3 0x51A JUMP JUMPDEST JUMPDEST DUP1 PUSH1 0x40 MSTORE POP POP POP JUMP JUMPDEST PUSH32 0x4E487B7100000000000000000000000000000000000000000000000000000000 PUSH1 0x0 MSTORE PUSH1 0x22 PUSH1 0x4 MSTORE PUSH1 0x24 PUSH1 0x0 REVERT JUMPDEST PUSH32 0x4E487B7100000000000000000000000000000000000000000000000000000000 PUSH1 0x0 MSTORE PUSH1 0x41 PUSH1 0x4 MSTORE PUSH1 0x24 PUSH1 0x0 REVERT JUMPDEST PUSH1 0x0 DUP1 REVERT JUMPDEST PUSH1 0x0 DUP1 REVERT JUMPDEST PUSH1 0x0 DUP1 REVERT JUMPDEST PUSH1 0x0 DUP1 REVERT JUMPDEST PUSH1 0x0 PUSH1 0x1F NOT PUSH1 0x1F DUP4 ADD AND SWAP1 POP SWAP2 SWAP1 POP JUMP JUMPDEST PUSH3 0x579 DUP2 PUSH3 0x40B JUMP JUMPDEST DUP2 EQ PUSH3 0x585 JUMPI PUSH1 0x0 DUP1 REVERT JUMPDEST POP JUMP JUMPDEST PUSH3 0x593 DUP2 PUSH3 0x43F JUMP JUMPDEST DUP2 EQ PUSH3 0x59F JUMPI PUSH1 0x0 DUP1 REVERT JUMPDEST POP JUMP JUMPDEST PUSH1 0x80 MLOAD PUSH1 0x60 SHR PUSH2 0x271D PUSH3 0x5C8 PUSH1 0x0 CODECOPY PUSH1 0x0 DUP2 DUP2 PUSH2 0xC0B ADD MSTORE PUSH2 0xCB8 ADD MSTORE PUSH2 0x271D PUSH1 0x0 RETURN INVALID PUSH1 0x80 PUSH1 0x40 MSTORE CALLVALUE DUP1 ISZERO PUSH2 0x10 JUMPI PUSH1 0x0 DUP1 REVERT JUMPDEST POP PUSH1 0x4 CALLDATASIZE LT PUSH2 0x173 JUMPI PUSH1 0x0 CALLDATALOAD PUSH1 0xE0 SHR DUP1 PUSH4 0x41C0E1B5 GT PUSH2 0xDE JUMPI DUP1 PUSH4 0x8456CB59 GT PUSH2 0x97 JUMPI DUP1 PUSH4 0xA457C2D7 GT PUSH2 0x71 JUMPI DUP1 PUSH4 0xA457C2D7 EQ PUSH2 0x408 JUMPI DUP1 PUSH4 0xA9059CBB EQ PUSH2 0x438 JUMPI DUP1 PUSH4 0xBDF89682 EQ PUSH2 0x468 JUMPI DUP1 PUSH4 0xDD62ED3E EQ PUSH2 0x486 JUMPI PUSH2 0x173 JUMP JUMPDEST DUP1 PUSH4 0x8456CB59 EQ PUSH2 0x3C2 JUMPI DUP1 PUSH4 0x953B8FB8 EQ PUSH2 0x3CC JUMPI DUP1 PUSH4 0x95D89B41 EQ PUSH2 0x3EA JUMPI PUSH2 0x173 JUMP JUMPDEST DUP1 PUSH4 0x41C0E1B5 EQ PUSH2 0x324 JUMPI DUP1 PUSH4 0x5C975ABB EQ PUSH2 0x32E JUMPI DUP1 PUSH4 0x70A08231 EQ PUSH2 0x34C JUMPI DUP1 PUSH4 0x77262D38 EQ PUSH2 0x37C JUMPI DUP1 PUSH4 0x7B3E5E7B EQ PUSH2 0x386 JUMPI DUP1 PUSH4 0x7E0D73D4 EQ PUSH2 0x3A4 JUMPI PUSH2 0x173 JUMP JUMPDEST DUP1 PUSH4 0x1F3A0E41 GT PUSH2 0x130 JUMPI DUP1 PUSH4 0x1F3A0E41 EQ PUSH2 0x250 JUMPI DUP1 PUSH4 0x2037FCBF EQ PUSH2 0x26E JUMPI DUP1 PUSH4 0x23B872DD EQ PUSH2 0x28A JUMPI DUP1 PUSH4 0x2AFCF480 EQ PUSH2 0x2BA JUMPI DUP1 PUSH4 0x313CE567 EQ PUSH2 0x2D6 JUMPI DUP1 PUSH4 0x39509351 EQ PUSH2 0x2F4 JUMPI PUSH2 0x173 JUMP JUMPDEST DUP1 PUSH4 0x6FDDE03 EQ PUSH2 0x178 JUMPI DUP1 PUSH4 0x6FEBE00 EQ PUSH2 0x196 JUMPI DUP1 PUSH4 0x95EA7B3 EQ PUSH2 0x1B4 JUMPI DUP1 PUSH4 0x11DF9995 EQ PUSH2 0x1E4 JUMPI DUP1 PUSH4 0x150B7A02 EQ PUSH2 0x202 JUMPI DUP1 PUSH4 0x18160DDD EQ PUSH2 0x232 JUMPI JUMPDEST PUSH1 0x0 DUP1 REVERT JUMPDEST PUSH2 0x180 PUSH2 0x4B6 JUMP JUMPDEST PUSH1 0x40 MLOAD PUSH2 0x18D SWAP2 SWAP1 PUSH2 0x1DE5 JUMP JUMPDEST PUSH1 0x40 MLOAD DUP1 SWAP2 SUB SWAP1 RETURN JUMPDEST PUSH2 0x19E PUSH2 0x548 JUMP JUMPDEST PUSH1 0x40 MLOAD PUSH2 0x1AB SWAP2 SWAP1 PUSH2 0x2027 JUMP JUMPDEST PUSH1 0x40 MLOAD DUP1 SWAP2 SUB SWAP1 RETURN JUMPDEST PUSH2 0x1CE PUSH1 0x4 DUP1 CALLDATASIZE SUB DUP2 ADD SWAP1 PUSH2 0x1C9 SWAP2 SWAP1 PUSH2 0x198A JUMP JUMPDEST PUSH2 0x54E JUMP JUMPDEST PUSH1 0x40 MLOAD PUSH2 0x1DB SWAP2 SWAP1 PUSH2 0x1D79 JUMP JUMPDEST PUSH1 0x40 MLOAD DUP1 SWAP2 SUB SWAP1 RETURN JUMPDEST PUSH2 0x1EC PUSH2 0x571 JUMP JUMPDEST PUSH1 0x40 MLOAD PUSH2 0x1F9 SWAP2 SWAP1 PUSH2 0x1DAF JUMP JUMPDEST PUSH1 0x40 MLOAD DUP1 SWAP2 SUB SWAP1 RETURN JUMPDEST PUSH2 0x21C PUSH1 0x4 DUP1 CALLDATASIZE SUB DUP2 ADD SWAP1 PUSH2 0x217 SWAP2 SWAP1 PUSH2 0x1902 JUMP JUMPDEST PUSH2 0x597 JUMP JUMPDEST PUSH1 0x40 MLOAD PUSH2 0x229 SWAP2 SWAP1 PUSH2 0x1D94 JUMP JUMPDEST PUSH1 0x40 MLOAD DUP1 SWAP2 SUB SWAP1 RETURN JUMPDEST PUSH2 0x23A PUSH2 0x5AC JUMP JUMPDEST PUSH1 0x40 MLOAD PUSH2 0x247 SWAP2 SWAP1 PUSH2 0x2027 JUMP JUMPDEST PUSH1 0x40 MLOAD DUP1 SWAP2 SUB SWAP1 RETURN JUMPDEST PUSH2 0x258 PUSH2 0x5B6 JUMP JUMPDEST PUSH1 0x40 MLOAD PUSH2 0x265 SWAP2 SWAP1 PUSH2 0x1D79 JUMP JUMPDEST PUSH1 0x40 MLOAD DUP1 SWAP2 SUB SWAP1 RETURN JUMPDEST PUSH2 0x288 PUSH1 0x4 DUP1 CALLDATASIZE SUB DUP2 ADD SWAP1 PUSH2 0x283 SWAP2 SWAP1 PUSH2 0x19F7 JUMP JUMPDEST PUSH2 0x5C9 JUMP JUMPDEST STOP JUMPDEST PUSH2 0x2A4 PUSH1 0x4 DUP1 CALLDATASIZE SUB DUP2 ADD SWAP1 PUSH2 0x29F SWAP2 SWAP1 PUSH2 0x18AF JUMP JUMPDEST PUSH2 0x735 JUMP JUMPDEST PUSH1 0x40 MLOAD PUSH2 0x2B1 SWAP2 SWAP1 PUSH2 0x1D79 JUMP JUMPDEST PUSH1 0x40 MLOAD DUP1 SWAP2 SUB SWAP1 RETURN JUMPDEST PUSH2 0x2D4 PUSH1 0x4 DUP1 CALLDATASIZE SUB DUP2 ADD SWAP1 PUSH2 0x2CF SWAP2 SWAP1 PUSH2 0x19F7 JUMP JUMPDEST PUSH2 0x764 JUMP JUMPDEST STOP JUMPDEST PUSH2 0x2DE PUSH2 0xA64 JUMP JUMPDEST PUSH1 0x40 MLOAD PUSH2 0x2EB SWAP2 SWAP1 PUSH2 0x2042 JUMP JUMPDEST PUSH1 0x40 MLOAD DUP1 SWAP2 SUB SWAP1 RETURN JUMPDEST PUSH2 0x30E PUSH1 0x4 DUP1 CALLDATASIZE SUB DUP2 ADD SWAP1 PUSH2 0x309 SWAP2 SWAP1 PUSH2 0x198A JUMP JUMPDEST PUSH2 0xA6D JUMP JUMPDEST PUSH1 0x40 MLOAD PUSH2 0x31B SWAP2 SWAP1 PUSH2 0x1D79 JUMP JUMPDEST PUSH1 0x40 MLOAD DUP1 SWAP2 SUB SWAP1 RETURN JUMPDEST PUSH2 0x32C PUSH2 0xAA4 JUMP JUMPDEST STOP JUMPDEST PUSH2 0x336 PUSH2 0xB51 JUMP JUMPDEST PUSH1 0x40 MLOAD PUSH2 0x343 SWAP2 SWAP1 PUSH2 0x1D79 JUMP JUMPDEST PUSH1 0x40 MLOAD DUP1 SWAP2 SUB SWAP1 RETURN JUMPDEST PUSH2 0x366 PUSH1 0x4 DUP1 CALLDATASIZE SUB DUP2 ADD SWAP1 PUSH2 0x361 SWAP2 SWAP1 PUSH2 0x1842 JUMP JUMPDEST PUSH2 0xB64 JUMP JUMPDEST PUSH1 0x40 MLOAD PUSH2 0x373 SWAP2 SWAP1 PUSH2 0x2027 JUMP JUMPDEST PUSH1 0x40 MLOAD DUP1 SWAP2 SUB SWAP1 RETURN JUMPDEST PUSH2 0x384 PUSH2 0xBAC JUMP JUMPDEST STOP JUMPDEST PUSH2 0x38E PUSH2 0xCB0 JUMP JUMPDEST PUSH1 0x40 MLOAD PUSH2 0x39B SWAP2 SWAP1 PUSH2 0x2027 JUMP JUMPDEST PUSH1 0x40 MLOAD DUP1 SWAP2 SUB SWAP1 RETURN JUMPDEST PUSH2 0x3AC PUSH2 0xCB6 JUMP JUMPDEST PUSH1 0x40 MLOAD PUSH2 0x3B9 SWAP2 SWAP1 PUSH2 0x1DCA JUMP JUMPDEST PUSH1 0x40 MLOAD DUP1 SWAP2 SUB SWAP1 RETURN JUMPDEST PUSH2 0x3CA PUSH2 0xCDA JUMP JUMPDEST STOP JUMPDEST PUSH2 0x3D4 PUSH2 0xDBC JUMP JUMPDEST PUSH1 0x40 MLOAD PUSH2 0x3E1 SWAP2 SWAP1 PUSH2 0x2027 JUMP JUMPDEST PUSH1 0x40 MLOAD DUP1 SWAP2 SUB SWAP1 RETURN JUMPDEST PUSH2 0x3F2 PUSH2 0xDC2 JUMP JUMPDEST PUSH1 0x40 MLOAD PUSH2 0x3FF SWAP2 SWAP1 PUSH2 0x1DE5 JUMP JUMPDEST PUSH1 0x40 MLOAD DUP1 SWAP2 SUB SWAP1 RETURN JUMPDEST PUSH2 0x422 PUSH1 0x4 DUP1 CALLDATASIZE SUB DUP2 ADD SWAP1 PUSH2 0x41D SWAP2 SWAP1 PUSH2 0x198A JUMP JUMPDEST PUSH2 0xE54 JUMP JUMPDEST PUSH1 0x40 MLOAD PUSH2 0x42F SWAP2 SWAP1 PUSH2 0x1D79 JUMP JUMPDEST PUSH1 0x40 MLOAD DUP1 SWAP2 SUB SWAP1 RETURN JUMPDEST PUSH2 0x452 PUSH1 0x4 DUP1 CALLDATASIZE SUB DUP2 ADD SWAP1 PUSH2 0x44D SWAP2 SWAP1 PUSH2 0x198A JUMP JUMPDEST PUSH2 0xECB JUMP JUMPDEST PUSH1 0x40 MLOAD PUSH2 0x45F SWAP2 SWAP1 PUSH2 0x1D79 JUMP JUMPDEST PUSH1 0x40 MLOAD DUP1 SWAP2 SUB SWAP1 RETURN JUMPDEST PUSH2 0x470 PUSH2 0xEEE JUMP JUMPDEST PUSH1 0x40 MLOAD PUSH2 0x47D SWAP2 SWAP1 PUSH2 0x2027 JUMP JUMPDEST PUSH1 0x40 MLOAD DUP1 SWAP2 SUB SWAP1 RETURN JUMPDEST PUSH2 0x4A0 PUSH1 0x4 DUP1 CALLDATASIZE SUB DUP2 ADD SWAP1 PUSH2 0x49B SWAP2 SWAP1 PUSH2 0x186F JUMP JUMPDEST PUSH2 0xF05 JUMP JUMPDEST PUSH1 0x40 MLOAD PUSH2 0x4AD SWAP2 SWAP1 PUSH2 0x2027 JUMP JUMPDEST PUSH1 0x40 MLOAD DUP1 SWAP2 SUB SWAP1 RETURN JUMPDEST PUSH1 0x60 PUSH1 0x3 DUP1 SLOAD PUSH2 0x4C5 SWAP1 PUSH2 0x21FF JUMP JUMPDEST DUP1 PUSH1 0x1F ADD PUSH1 0x20 DUP1 SWAP2 DIV MUL PUSH1 0x20 ADD PUSH1 0x40 MLOAD SWAP1 DUP2 ADD PUSH1 0x40 MSTORE DUP1 SWAP3 SWAP2 SWAP1 DUP2 DUP2 MSTORE PUSH1 0x20 ADD DUP3 DUP1 SLOAD PUSH2 0x4F1 SWAP1 PUSH2 0x21FF JUMP JUMPDEST DUP1 ISZERO PUSH2 0x53E JUMPI DUP1 PUSH1 0x1F LT PUSH2 0x513 JUMPI PUSH2 0x100 DUP1 DUP4 SLOAD DIV MUL DUP4 MSTORE SWAP2 PUSH1 0x20 ADD SWAP2 PUSH2 0x53E JUMP JUMPDEST DUP3 ADD SWAP2 SWAP1 PUSH1 0x0 MSTORE PUSH1 0x20 PUSH1 0x0 KECCAK256 SWAP1 JUMPDEST DUP2 SLOAD DUP2 MSTORE SWAP1 PUSH1 0x1 ADD SWAP1 PUSH1 0x20 ADD DUP1 DUP4 GT PUSH2 0x521 JUMPI DUP3 SWAP1 SUB PUSH1 0x1F AND DUP3 ADD SWAP2 JUMPDEST POP POP POP POP POP SWAP1 POP SWAP1 JUMP JUMPDEST PUSH1 0x8 SLOAD DUP2 JUMP JUMPDEST PUSH1 0x0 DUP1 PUSH2 0x559 PUSH2 0xF8C JUMP JUMPDEST SWAP1 POP PUSH2 0x566 DUP2 DUP6 DUP6 PUSH2 0xF94 JUMP JUMPDEST PUSH1 0x1 SWAP2 POP POP SWAP3 SWAP2 POP POP JUMP JUMPDEST PUSH1 0x5 PUSH1 0x0 SWAP1 SLOAD SWAP1 PUSH2 0x100 EXP SWAP1 DIV PUSH20 0xFFFFFFFFFFFFFFFFFFFFFFFFFFFFFFFFFFFFFFFF AND DUP2 JUMP JUMPDEST PUSH1 0x0 PUSH4 0x150B7A02 PUSH1 0xE0 SHL SWAP1 POP SWAP6 SWAP5 POP POP POP POP POP JUMP JUMPDEST PUSH1 0x0 PUSH1 0x2 SLOAD SWAP1 POP SWAP1 JUMP JUMPDEST PUSH1 0x9 PUSH1 0x1 SWAP1 SLOAD SWAP1 PUSH2 0x100 EXP SWAP1 DIV PUSH1 0xFF AND DUP2 JUMP JUMPDEST PUSH1 0x6 SLOAD PUSH2 0x5D4 PUSH2 0x5AC JUMP JUMPDEST LT PUSH2 0x614 JUMPI PUSH1 0x40 MLOAD PUSH32 0x8C379A000000000000000000000000000000000000000000000000000000000 DUP2 MSTORE PUSH1 0x4 ADD PUSH2 0x60B SWAP1 PUSH2 0x1F27 JUMP JUMPDEST PUSH1 0x40 MLOAD DUP1 SWAP2 SUB SWAP1 REVERT JUMPDEST PUSH2 0x61D CALLER PUSH2 0xB64 JUMP JUMPDEST DUP2 GT ISZERO PUSH2 0x65F JUMPI PUSH1 0x40 MLOAD PUSH32 0x8C379A000000000000000000000000000000000000000000000000000000000 DUP2 MSTORE PUSH1 0x4 ADD PUSH2 0x656 SWAP1 PUSH2 0x1F67 JUMP JUMPDEST PUSH1 0x40 MLOAD DUP1 SWAP2 SUB SWAP1 REVERT JUMPDEST PUSH1 0x5 PUSH1 0x0 SWAP1 SLOAD SWAP1 PUSH2 0x100 EXP SWAP1 DIV PUSH20 0xFFFFFFFFFFFFFFFFFFFFFFFFFFFFFFFFFFFFFFFF AND PUSH20 0xFFFFFFFFFFFFFFFFFFFFFFFFFFFFFFFFFFFFFFFF AND PUSH4 0xA9059CBB CALLER DUP4 PUSH1 0x40 MLOAD DUP4 PUSH4 0xFFFFFFFF AND PUSH1 0xE0 SHL DUP2 MSTORE PUSH1 0x4 ADD PUSH2 0x6BC SWAP3 SWAP2 SWAP1 PUSH2 0x1D50 JUMP JUMPDEST PUSH1 0x20 PUSH1 0x40 MLOAD DUP1 DUP4 SUB DUP2 PUSH1 0x0 DUP8 DUP1 EXTCODESIZE ISZERO DUP1 ISZERO PUSH2 0x6D6 JUMPI PUSH1 0x0 DUP1 REVERT JUMPDEST POP GAS CALL ISZERO DUP1 ISZERO PUSH2 0x6EA JUMPI RETURNDATASIZE PUSH1 0x0 DUP1 RETURNDATACOPY RETURNDATASIZE PUSH1 0x0 REVERT JUMPDEST POP POP POP POP PUSH1 0x40 MLOAD RETURNDATASIZE PUSH1 0x1F NOT PUSH1 0x1F DUP3 ADD AND DUP3 ADD DUP1 PUSH1 0x40 MSTORE POP DUP2 ADD SWAP1 PUSH2 0x70E SWAP2 SWAP1 PUSH2 0x19CA JUMP JUMPDEST POP DUP1 PUSH1 0x7 PUSH1 0x0 DUP3 DUP3 SLOAD PUSH2 0x721 SWAP2 SWAP1 PUSH2 0x20CF JUMP JUMPDEST SWAP3 POP POP DUP2 SWAP1 SSTORE POP PUSH2 0x732 CALLER DUP3 PUSH2 0x115F JUMP JUMPDEST POP JUMP JUMPDEST PUSH1 0x0 DUP1 PUSH2 0x740 PUSH2 0xF8C JUMP JUMPDEST SWAP1 POP PUSH2 0x74D DUP6 DUP3 DUP6 PUSH2 0x1336 JUMP JUMPDEST PUSH2 0x758 DUP6 DUP6 DUP6 PUSH2 0x13C2 JUMP JUMPDEST PUSH1 0x1 SWAP2 POP POP SWAP4 SWAP3 POP POP POP JUMP JUMPDEST PUSH1 0x6 SLOAD PUSH2 0x76F PUSH2 0x5AC JUMP JUMPDEST LT PUSH2 0x7AF JUMPI PUSH1 0x40 MLOAD PUSH32 0x8C379A000000000000000000000000000000000000000000000000000000000 DUP2 MSTORE PUSH1 0x4 ADD PUSH2 0x7A6 SWAP1 PUSH2 0x1F27 JUMP JUMPDEST PUSH1 0x40 MLOAD DUP1 SWAP2 SUB SWAP1 REVERT JUMPDEST PUSH2 0x7B7 PUSH2 0x5AC JUMP JUMPDEST PUSH1 0x6 SLOAD PUSH2 0x7C4 SWAP2 SWAP1 PUSH2 0x20CF JUMP JUMPDEST DUP2 GT ISZERO PUSH2 0x806 JUMPI PUSH1 0x40 MLOAD PUSH32 0x8C379A000000000000000000000000000000000000000000000000000000000 DUP2 MSTORE PUSH1 0x4 ADD PUSH2 0x7FD SWAP1 PUSH2 0x1EE7 JUMP JUMPDEST PUSH1 0x40 MLOAD DUP1 SWAP2 SUB SWAP1 REVERT JUMPDEST PUSH1 0x9 PUSH1 0x0 SWAP1 SLOAD SWAP1 PUSH2 0x100 EXP SWAP1 DIV PUSH1 0xFF AND ISZERO PUSH2 0x856 JUMPI PUSH1 0x40 MLOAD PUSH32 0x8C379A000000000000000000000000000000000000000000000000000000000 DUP2 MSTORE PUSH1 0x4 ADD PUSH2 0x84D SWAP1 PUSH2 0x1F07 JUMP JUMPDEST PUSH1 0x40 MLOAD DUP1 SWAP2 SUB SWAP1 REVERT JUMPDEST PUSH1 0x9 PUSH1 0x1 SWAP1 SLOAD SWAP1 PUSH2 0x100 EXP SWAP1 DIV PUSH1 0xFF AND ISZERO PUSH2 0x8A6 JUMPI PUSH1 0x40 MLOAD PUSH32 0x8C379A000000000000000000000000000000000000000000000000000000000 DUP2 MSTORE PUSH1 0x4 ADD PUSH2 0x89D SWAP1 PUSH2 0x1EC7 JUMP JUMPDEST PUSH1 0x40 MLOAD DUP1 SWAP2 SUB SWAP1 REVERT JUMPDEST PUSH1 0x5 PUSH1 0x0 SWAP1 SLOAD SWAP1 PUSH2 0x100 EXP SWAP1 DIV PUSH20 0xFFFFFFFFFFFFFFFFFFFFFFFFFFFFFFFFFFFFFFFF AND PUSH20 0xFFFFFFFFFFFFFFFFFFFFFFFFFFFFFFFFFFFFFFFF AND PUSH4 0x23B872DD CALLER ADDRESS DUP5 PUSH1 0x40 MLOAD DUP5 PUSH4 0xFFFFFFFF AND PUSH1 0xE0 SHL DUP2 MSTORE PUSH1 0x4 ADD PUSH2 0x905 SWAP4 SWAP3 SWAP2 SWAP1 PUSH2 0x1D19 JUMP JUMPDEST PUSH1 0x20 PUSH1 0x40 MLOAD DUP1 DUP4 SUB DUP2 PUSH1 0x0 DUP8 DUP1 EXTCODESIZE ISZERO DUP1 ISZERO PUSH2 0x91F JUMPI PUSH1 0x0 DUP1 REVERT JUMPDEST POP GAS CALL ISZERO DUP1 ISZERO PUSH2 0x933 JUMPI RETURNDATASIZE PUSH1 0x0 DUP1 RETURNDATACOPY RETURNDATASIZE PUSH1 0x0 REVERT JUMPDEST POP POP POP POP PUSH1 0x40 MLOAD RETURNDATASIZE PUSH1 0x1F NOT PUSH1 0x1F DUP3 ADD AND DUP3 ADD DUP1 PUSH1 0x40 MSTORE POP DUP2 ADD SWAP1 PUSH2 0x957 SWAP2 SWAP1 PUSH2 0x19CA JUMP JUMPDEST POP DUP1 PUSH1 0x7 PUSH1 0x0 DUP3 DUP3 SLOAD PUSH2 0x96A SWAP2 SWAP1 PUSH2 0x2079 JUMP JUMPDEST SWAP3 POP POP DUP2 SWAP1 SSTORE POP PUSH2 0x97B CALLER DUP3 PUSH2 0x1643 JUMP JUMPDEST PUSH2 0x983 PUSH2 0x5AC JUMP JUMPDEST PUSH1 0x6 SLOAD EQ ISZERO PUSH2 0xA61 JUMPI PUSH1 0x5 PUSH1 0x0 SWAP1 SLOAD SWAP1 PUSH2 0x100 EXP SWAP1 DIV PUSH20 0xFFFFFFFFFFFFFFFFFFFFFFFFFFFFFFFFFFFFFFFF AND PUSH20 0xFFFFFFFFFFFFFFFFFFFFFFFFFFFFFFFFFFFFFFFF AND PUSH4 0xA9059CBB PUSH1 0x9 PUSH1 0x2 SWAP1 SLOAD SWAP1 PUSH2 0x100 EXP SWAP1 DIV PUSH20 0xFFFFFFFFFFFFFFFFFFFFFFFFFFFFFFFFFFFFFFFF AND PUSH1 0x6 SLOAD PUSH1 0x40 MLOAD DUP4 PUSH4 0xFFFFFFFF AND PUSH1 0xE0 SHL DUP2 MSTORE PUSH1 0x4 ADD PUSH2 0xA0D SWAP3 SWAP2 SWAP1 PUSH2 0x1D50 JUMP JUMPDEST PUSH1 0x20 PUSH1 0x40 MLOAD DUP1 DUP4 SUB DUP2 PUSH1 0x0 DUP8 DUP1 EXTCODESIZE ISZERO DUP1 ISZERO PUSH2 0xA27 JUMPI PUSH1 0x0 DUP1 REVERT JUMPDEST POP GAS CALL ISZERO DUP1 ISZERO PUSH2 0xA3B JUMPI RETURNDATASIZE PUSH1 0x0 DUP1 RETURNDATACOPY RETURNDATASIZE PUSH1 0x0 REVERT JUMPDEST POP POP POP POP PUSH1 0x40 MLOAD RETURNDATASIZE PUSH1 0x1F NOT PUSH1 0x1F DUP3 ADD AND DUP3 ADD DUP1 PUSH1 0x40 MSTORE POP DUP2 ADD SWAP1 PUSH2 0xA5F SWAP2 SWAP1 PUSH2 0x19CA JUMP JUMPDEST POP JUMPDEST POP JUMP JUMPDEST PUSH1 0x0 PUSH1 0x2 SWAP1 POP SWAP1 JUMP JUMPDEST PUSH1 0x0 DUP1 PUSH2 0xA78 PUSH2 0xF8C JUMP JUMPDEST SWAP1 POP PUSH2 0xA99 DUP2 DUP6 DUP6 PUSH2 0xA8A DUP6 DUP10 PUSH2 0xF05 JUMP JUMPDEST PUSH2 0xA94 SWAP2 SWAP1 PUSH2 0x2079 JUMP JUMPDEST PUSH2 0xF94 JUMP JUMPDEST PUSH1 0x1 SWAP2 POP POP SWAP3 SWAP2 POP POP JUMP JUMPDEST PUSH1 0x9 PUSH1 0x2 SWAP1 SLOAD SWAP1 PUSH2 0x100 EXP SWAP1 DIV PUSH20 0xFFFFFFFFFFFFFFFFFFFFFFFFFFFFFFFFFFFFFFFF AND PUSH20 0xFFFFFFFFFFFFFFFFFFFFFFFFFFFFFFFFFFFFFFFF AND CALLER PUSH20 0xFFFFFFFFFFFFFFFFFFFFFFFFFFFFFFFFFFFFFFFF AND EQ PUSH2 0xB34 JUMPI PUSH1 0x40 MLOAD PUSH32 0x8C379A000000000000000000000000000000000000000000000000000000000 DUP2 MSTORE PUSH1 0x4 ADD PUSH2 0xB2B SWAP1 PUSH2 0x1F47 JUMP JUMPDEST PUSH1 0x40 MLOAD DUP1 SWAP2 SUB SWAP1 REVERT JUMPDEST PUSH1 0x1 PUSH1 0x9 PUSH1 0x1 PUSH2 0x100 EXP DUP2 SLOAD DUP2 PUSH1 0xFF MUL NOT AND SWAP1 DUP4 ISZERO ISZERO MUL OR SWAP1 SSTORE POP JUMP JUMPDEST PUSH1 0x9 PUSH1 0x0 SWAP1 SLOAD SWAP1 PUSH2 0x100 EXP SWAP1 DIV PUSH1 0xFF AND DUP2 JUMP JUMPDEST PUSH1 0x0 DUP1 PUSH1 0x0 DUP4 PUSH20 0xFFFFFFFFFFFFFFFFFFFFFFFFFFFFFFFFFFFFFFFF AND PUSH20 0xFFFFFFFFFFFFFFFFFFFFFFFFFFFFFFFFFFFFFFFF AND DUP2 MSTORE PUSH1 0x20 ADD SWAP1 DUP2 MSTORE PUSH1 0x20 ADD PUSH1 0x0 KECCAK256 SLOAD SWAP1 POP SWAP2 SWAP1 POP JUMP JUMPDEST PUSH1 0x6 SLOAD PUSH2 0xBB8 CALLER PUSH2 0xB64 JUMP JUMPDEST EQ PUSH2 0xBF8 JUMPI PUSH1 0x40 MLOAD PUSH32 0x8C379A000000000000000000000000000000000000000000000000000000000 DUP2 MSTORE PUSH1 0x4 ADD PUSH2 0xBEF SWAP1 PUSH2 0x1E67 JUMP JUMPDEST PUSH1 0x40 MLOAD DUP1 SWAP2 SUB SWAP1 REVERT JUMPDEST PUSH2 0xC09 CALLER PUSH2 0xC04 PUSH2 0x5AC JUMP JUMPDEST PUSH2 0x115F JUMP JUMPDEST PUSH32 0x0 PUSH20 0xFFFFFFFFFFFFFFFFFFFFFFFFFFFFFFFFFFFFFFFF AND PUSH4 0x42842E0E ADDRESS CALLER ADDRESS PUSH20 0xFFFFFFFFFFFFFFFFFFFFFFFFFFFFFFFFFFFFFFFF AND PUSH1 0x40 MLOAD DUP5 PUSH4 0xFFFFFFFF AND PUSH1 0xE0 SHL DUP2 MSTORE PUSH1 0x4 ADD PUSH2 0xC7C SWAP4 SWAP3 SWAP2 SWAP1 PUSH2 0x1D19 JUMP JUMPDEST PUSH1 0x0 PUSH1 0x40 MLOAD DUP1 DUP4 SUB DUP2 PUSH1 0x0 DUP8 DUP1 EXTCODESIZE ISZERO DUP1 ISZERO PUSH2 0xC96 JUMPI PUSH1 0x0 DUP1 REVERT JUMPDEST POP GAS CALL ISZERO DUP1 ISZERO PUSH2 0xCAA JUMPI RETURNDATASIZE PUSH1 0x0 DUP1 RETURNDATACOPY RETURNDATASIZE PUSH1 0x0 REVERT JUMPDEST POP POP POP POP JUMP JUMPDEST PUSH1 0x7 SLOAD DUP2 JUMP JUMPDEST PUSH32 0x0 DUP2 JUMP JUMPDEST PUSH1 0x9 PUSH1 0x2 SWAP1 SLOAD SWAP1 PUSH2 0x100 EXP SWAP1 DIV PUSH20 0xFFFFFFFFFFFFFFFFFFFFFFFFFFFFFFFFFFFFFFFF AND PUSH20 0xFFFFFFFFFFFFFFFFFFFFFFFFFFFFFFFFFFFFFFFF AND CALLER PUSH20 0xFFFFFFFFFFFFFFFFFFFFFFFFFFFFFFFFFFFFFFFF AND EQ PUSH2 0xD6A JUMPI PUSH1 0x40 MLOAD PUSH32 0x8C379A000000000000000000000000000000000000000000000000000000000 DUP2 MSTORE PUSH1 0x4 ADD PUSH2 0xD61 SWAP1 PUSH2 0x1F47 JUMP JUMPDEST PUSH1 0x40 MLOAD DUP1 SWAP2 SUB SWAP1 REVERT JUMPDEST PUSH1 0x9 PUSH1 0x0 SWAP1 SLOAD SWAP1 PUSH2 0x100 EXP SWAP1 DIV PUSH1 0xFF AND PUSH2 0xD9E JUMPI PUSH1 0x1 PUSH1 0x9 PUSH1 0x0 PUSH2 0x100 EXP DUP2 SLOAD DUP2 PUSH1 0xFF MUL NOT AND SWAP1 DUP4 ISZERO ISZERO MUL OR SWAP1 SSTORE POP PUSH2 0xDBA JUMP JUMPDEST PUSH1 0x0 PUSH1 0x9 PUSH1 0x0 PUSH2 0x100 EXP DUP2 SLOAD DUP2 PUSH1 0xFF MUL NOT AND SWAP1 DUP4 ISZERO ISZERO MUL OR SWAP1 SSTORE POP JUMPDEST JUMP JUMPDEST PUSH1 0x6 SLOAD DUP2 JUMP JUMPDEST PUSH1 0x60 PUSH1 0x4 DUP1 SLOAD PUSH2 0xDD1 SWAP1 PUSH2 0x21FF JUMP JUMPDEST DUP1 PUSH1 0x1F ADD PUSH1 0x20 DUP1 SWAP2 DIV MUL PUSH1 0x20 ADD PUSH1 0x40 MLOAD SWAP1 DUP2 ADD PUSH1 0x40 MSTORE DUP1 SWAP3 SWAP2 SWAP1 DUP2 DUP2 MSTORE PUSH1 0x20 ADD DUP3 DUP1 SLOAD PUSH2 0xDFD SWAP1 PUSH2 0x21FF JUMP JUMPDEST DUP1 ISZERO PUSH2 0xE4A JUMPI DUP1 PUSH1 0x1F LT PUSH2 0xE1F JUMPI PUSH2 0x100 DUP1 DUP4 SLOAD DIV MUL DUP4 MSTORE SWAP2 PUSH1 0x20 ADD SWAP2 PUSH2 0xE4A JUMP JUMPDEST DUP3 ADD SWAP2 SWAP1 PUSH1 0x0 MSTORE PUSH1 0x20 PUSH1 0x0 KECCAK256 SWAP1 JUMPDEST DUP2 SLOAD DUP2 MSTORE SWAP1 PUSH1 0x1 ADD SWAP1 PUSH1 0x20 ADD DUP1 DUP4 GT PUSH2 0xE2D JUMPI DUP3 SWAP1 SUB PUSH1 0x1F AND DUP3 ADD SWAP2 JUMPDEST POP POP POP POP POP SWAP1 POP SWAP1 JUMP JUMPDEST PUSH1 0x0 DUP1 PUSH2 0xE5F PUSH2 0xF8C JUMP JUMPDEST SWAP1 POP PUSH1 0x0 PUSH2 0xE6D DUP3 DUP7 PUSH2 0xF05 JUMP JUMPDEST SWAP1 POP DUP4 DUP2 LT ISZERO PUSH2 0xEB2 JUMPI PUSH1 0x40 MLOAD PUSH32 0x8C379A000000000000000000000000000000000000000000000000000000000 DUP2 MSTORE PUSH1 0x4 ADD PUSH2 0xEA9 SWAP1 PUSH2 0x1FE7 JUMP JUMPDEST PUSH1 0x40 MLOAD DUP1 SWAP2 SUB SWAP1 REVERT JUMPDEST PUSH2 0xEBF DUP3 DUP7 DUP7 DUP5 SUB PUSH2 0xF94 JUMP JUMPDEST PUSH1 0x1 SWAP3 POP POP POP SWAP3 SWAP2 POP POP JUMP JUMPDEST PUSH1 0x0 DUP1 PUSH2 0xED6 PUSH2 0xF8C JUMP JUMPDEST SWAP1 POP PUSH2 0xEE3 DUP2 DUP6 DUP6 PUSH2 0x13C2 JUMP JUMPDEST PUSH1 0x1 SWAP2 POP POP SWAP3 SWAP2 POP POP JUMP JUMPDEST PUSH1 0x0 PUSH1 0x7 SLOAD PUSH1 0x6 SLOAD PUSH2 0xF00 SWAP2 SWAP1 PUSH2 0x20CF JUMP JUMPDEST SWAP1 POP SWAP1 JUMP JUMPDEST PUSH1 0x0 PUSH1 0x1 PUSH1 0x0 DUP5 PUSH20 0xFFFFFFFFFFFFFFFFFFFFFFFFFFFFFFFFFFFFFFFF AND PUSH20 0xFFFFFFFFFFFFFFFFFFFFFFFFFFFFFFFFFFFFFFFF AND DUP2 MSTORE PUSH1 0x20 ADD SWAP1 DUP2 MSTORE PUSH1 0x20 ADD PUSH1 0x0 KECCAK256 PUSH1 0x0 DUP4 PUSH20 0xFFFFFFFFFFFFFFFFFFFFFFFFFFFFFFFFFFFFFFFF AND PUSH20 0xFFFFFFFFFFFFFFFFFFFFFFFFFFFFFFFFFFFFFFFF AND DUP2 MSTORE PUSH1 0x20 ADD SWAP1 DUP2 MSTORE PUSH1 0x20 ADD PUSH1 0x0 KECCAK256 SLOAD SWAP1 POP SWAP3 SWAP2 POP POP JUMP JUMPDEST PUSH1 0x0 CALLER SWAP1 POP SWAP1 JUMP JUMPDEST PUSH1 0x0 PUSH20 0xFFFFFFFFFFFFFFFFFFFFFFFFFFFFFFFFFFFFFFFF AND DUP4 PUSH20 0xFFFFFFFFFFFFFFFFFFFFFFFFFFFFFFFFFFFFFFFF AND EQ ISZERO PUSH2 0x1004 JUMPI PUSH1 0x40 MLOAD PUSH32 0x8C379A000000000000000000000000000000000000000000000000000000000 DUP2 MSTORE PUSH1 0x4 ADD PUSH2 0xFFB SWAP1 PUSH2 0x1FC7 JUMP JUMPDEST PUSH1 0x40 MLOAD DUP1 SWAP2 SUB SWAP1 REVERT JUMPDEST PUSH1 0x0 PUSH20 0xFFFFFFFFFFFFFFFFFFFFFFFFFFFFFFFFFFFFFFFF AND DUP3 PUSH20 0xFFFFFFFFFFFFFFFFFFFFFFFFFFFFFFFFFFFFFFFF AND EQ ISZERO PUSH2 0x1074 JUMPI PUSH1 0x40 MLOAD PUSH32 0x8C379A000000000000000000000000000000000000000000000000000000000 DUP2 MSTORE PUSH1 0x4 ADD PUSH2 0x106B SWAP1 PUSH2 0x1E47 JUMP JUMPDEST PUSH1 0x40 MLOAD DUP1 SWAP2 SUB SWAP1 REVERT JUMPDEST DUP1 PUSH1 0x1 PUSH1 0x0 DUP6 PUSH20 0xFFFFFFFFFFFFFFFFFFFFFFFFFFFFFFFFFFFFFFFF AND PUSH20 0xFFFFFFFFFFFFFFFFFFFFFFFFFFFFFFFFFFFFFFFF AND DUP2 MSTORE PUSH1 0x20 ADD SWAP1 DUP2 MSTORE PUSH1 0x20 ADD PUSH1 0x0 KECCAK256 PUSH1 0x0 DUP5 PUSH20 0xFFFFFFFFFFFFFFFFFFFFFFFFFFFFFFFFFFFFFFFF AND PUSH20 0xFFFFFFFFFFFFFFFFFFFFFFFFFFFFFFFFFFFFFFFF AND DUP2 MSTORE PUSH1 0x20 ADD SWAP1 DUP2 MSTORE PUSH1 0x20 ADD PUSH1 0x0 KECCAK256 DUP2 SWAP1 SSTORE POP DUP2 PUSH20 0xFFFFFFFFFFFFFFFFFFFFFFFFFFFFFFFFFFFFFFFF AND DUP4 PUSH20 0xFFFFFFFFFFFFFFFFFFFFFFFFFFFFFFFFFFFFFFFF AND PUSH32 0x8C5BE1E5EBEC7D5BD14F71427D1E84F3DD0314C0F7B2291E5B200AC8C7C3B925 DUP4 PUSH1 0x40 MLOAD PUSH2 0x1152 SWAP2 SWAP1 PUSH2 0x2027 JUMP JUMPDEST PUSH1 0x40 MLOAD DUP1 SWAP2 SUB SWAP1 LOG3 POP POP POP JUMP JUMPDEST PUSH1 0x0 PUSH20 0xFFFFFFFFFFFFFFFFFFFFFFFFFFFFFFFFFFFFFFFF AND DUP3 PUSH20 0xFFFFFFFFFFFFFFFFFFFFFFFFFFFFFFFFFFFFFFFF AND EQ ISZERO PUSH2 0x11CF JUMPI PUSH1 0x40 MLOAD PUSH32 0x8C379A000000000000000000000000000000000000000000000000000000000 DUP2 MSTORE PUSH1 0x4 ADD PUSH2 0x11C6 SWAP1 PUSH2 0x1F87 JUMP JUMPDEST PUSH1 0x40 MLOAD DUP1 SWAP2 SUB SWAP1 REVERT JUMPDEST PUSH2 0x11DB DUP3 PUSH1 0x0 DUP4 PUSH2 0x17A3 JUMP JUMPDEST PUSH1 0x0 DUP1 PUSH1 0x0 DUP5 PUSH20 0xFFFFFFFFFFFFFFFFFFFFFFFFFFFFFFFFFFFFFFFF AND PUSH20 0xFFFFFFFFFFFFFFFFFFFFFFFFFFFFFFFFFFFFFFFF AND DUP2 MSTORE PUSH1 0x20 ADD SWAP1 DUP2 MSTORE PUSH1 0x20 ADD PUSH1 0x0 KECCAK256 SLOAD SWAP1 POP DUP2 DUP2 LT ISZERO PUSH2 0x1261 JUMPI PUSH1 0x40 MLOAD PUSH32 0x8C379A000000000000000000000000000000000000000000000000000000000 DUP2 MSTORE PUSH1 0x4 ADD PUSH2 0x1258 SWAP1 PUSH2 0x1E27 JUMP JUMPDEST PUSH1 0x40 MLOAD DUP1 SWAP2 SUB SWAP1 REVERT JUMPDEST DUP2 DUP2 SUB PUSH1 0x0 DUP1 DUP6 PUSH20 0xFFFFFFFFFFFFFFFFFFFFFFFFFFFFFFFFFFFFFFFF AND PUSH20 0xFFFFFFFFFFFFFFFFFFFFFFFFFFFFFFFFFFFFFFFF AND DUP2 MSTORE PUSH1 0x20 ADD SWAP1 DUP2 MSTORE PUSH1 0x20 ADD PUSH1 0x0 KECCAK256 DUP2 SWAP1 SSTORE POP DUP2 PUSH1 0x2 PUSH1 0x0 DUP3 DUP3 SLOAD PUSH2 0x12B8 SWAP2 SWAP1 PUSH2 0x20CF JUMP JUMPDEST SWAP3 POP POP DUP2 SWAP1 SSTORE POP PUSH1 0x0 PUSH20 0xFFFFFFFFFFFFFFFFFFFFFFFFFFFFFFFFFFFFFFFF AND DUP4 PUSH20 0xFFFFFFFFFFFFFFFFFFFFFFFFFFFFFFFFFFFFFFFF AND PUSH32 0xDDF252AD1BE2C89B69C2B068FC378DAA952BA7F163C4A11628F55A4DF523B3EF DUP5 PUSH1 0x40 MLOAD PUSH2 0x131D SWAP2 SWAP1 PUSH2 0x2027 JUMP JUMPDEST PUSH1 0x40 MLOAD DUP1 SWAP2 SUB SWAP1 LOG3 PUSH2 0x1331 DUP4 PUSH1 0x0 DUP5 PUSH2 0x17A8 JUMP JUMPDEST POP POP POP JUMP JUMPDEST PUSH1 0x0 PUSH2 0x1342 DUP5 DUP5 PUSH2 0xF05 JUMP JUMPDEST SWAP1 POP PUSH32 0xFFFFFFFFFFFFFFFFFFFFFFFFFFFFFFFFFFFFFFFFFFFFFFFFFFFFFFFFFFFFFFFF DUP2 EQ PUSH2 0x13BC JUMPI DUP2 DUP2 LT ISZERO PUSH2 0x13AE JUMPI PUSH1 0x40 MLOAD PUSH32 0x8C379A000000000000000000000000000000000000000000000000000000000 DUP2 MSTORE PUSH1 0x4 ADD PUSH2 0x13A5 SWAP1 PUSH2 0x1E87 JUMP JUMPDEST PUSH1 0x40 MLOAD DUP1 SWAP2 SUB SWAP1 REVERT JUMPDEST PUSH2 0x13BB DUP5 DUP5 DUP5 DUP5 SUB PUSH2 0xF94 JUMP JUMPDEST JUMPDEST POP POP POP POP JUMP JUMPDEST PUSH1 0x0 PUSH20 0xFFFFFFFFFFFFFFFFFFFFFFFFFFFFFFFFFFFFFFFF AND DUP4 PUSH20 0xFFFFFFFFFFFFFFFFFFFFFFFFFFFFFFFFFFFFFFFF AND EQ ISZERO PUSH2 0x1432 JUMPI PUSH1 0x40 MLOAD PUSH32 0x8C379A000000000000000000000000000000000000000000000000000000000 DUP2 MSTORE PUSH1 0x4 ADD PUSH2 0x1429 SWAP1 PUSH2 0x1FA7 JUMP JUMPDEST PUSH1 0x40 MLOAD DUP1 SWAP2 SUB SWAP1 REVERT JUMPDEST PUSH1 0x0 PUSH20 0xFFFFFFFFFFFFFFFFFFFFFFFFFFFFFFFFFFFFFFFF AND DUP3 PUSH20 0xFFFFFFFFFFFFFFFFFFFFFFFFFFFFFFFFFFFFFFFF AND EQ ISZERO PUSH2 0x14A2 JUMPI PUSH1 0x40 MLOAD PUSH32 0x8C379A000000000000000000000000000000000000000000000000000000000 DUP2 MSTORE PUSH1 0x4 ADD PUSH2 0x1499 SWAP1 PUSH2 0x1E07 JUMP JUMPDEST PUSH1 0x40 MLOAD DUP1 SWAP2 SUB SWAP1 REVERT JUMPDEST PUSH2 0x14AD DUP4 DUP4 DUP4 PUSH2 0x17A3 JUMP JUMPDEST PUSH1 0x0 DUP1 PUSH1 0x0 DUP6 PUSH20 0xFFFFFFFFFFFFFFFFFFFFFFFFFFFFFFFFFFFFFFFF AND PUSH20 0xFFFFFFFFFFFFFFFFFFFFFFFFFFFFFFFFFFFFFFFF AND DUP2 MSTORE PUSH1 0x20 ADD SWAP1 DUP2 MSTORE PUSH1 0x20 ADD PUSH1 0x0 KECCAK256 SLOAD SWAP1 POP DUP2 DUP2 LT ISZERO PUSH2 0x1533 JUMPI PUSH1 0x40 MLOAD PUSH32 0x8C379A000000000000000000000000000000000000000000000000000000000 DUP2 MSTORE PUSH1 0x4 ADD PUSH2 0x152A SWAP1 PUSH2 0x1EA7 JUMP JUMPDEST PUSH1 0x40 MLOAD DUP1 SWAP2 SUB SWAP1 REVERT JUMPDEST DUP2 DUP2 SUB PUSH1 0x0 DUP1 DUP7 PUSH20 0xFFFFFFFFFFFFFFFFFFFFFFFFFFFFFFFFFFFFFFFF AND PUSH20 0xFFFFFFFFFFFFFFFFFFFFFFFFFFFFFFFFFFFFFFFF AND DUP2 MSTORE PUSH1 0x20 ADD SWAP1 DUP2 MSTORE PUSH1 0x20 ADD PUSH1 0x0 KECCAK256 DUP2 SWAP1 SSTORE POP DUP2 PUSH1 0x0 DUP1 DUP6 PUSH20 0xFFFFFFFFFFFFFFFFFFFFFFFFFFFFFFFFFFFFFFFF AND PUSH20 0xFFFFFFFFFFFFFFFFFFFFFFFFFFFFFFFFFFFFFFFF AND DUP2 MSTORE PUSH1 0x20 ADD SWAP1 DUP2 MSTORE PUSH1 0x20 ADD PUSH1 0x0 KECCAK256 PUSH1 0x0 DUP3 DUP3 SLOAD PUSH2 0x15C6 SWAP2 SWAP1 PUSH2 0x2079 JUMP JUMPDEST SWAP3 POP POP DUP2 SWAP1 SSTORE POP DUP3 PUSH20 0xFFFFFFFFFFFFFFFFFFFFFFFFFFFFFFFFFFFFFFFF AND DUP5 PUSH20 0xFFFFFFFFFFFFFFFFFFFFFFFFFFFFFFFFFFFFFFFF AND PUSH32 0xDDF252AD1BE2C89B69C2B068FC378DAA952BA7F163C4A11628F55A4DF523B3EF DUP5 PUSH1 0x40 MLOAD PUSH2 0x162A SWAP2 SWAP1 PUSH2 0x2027 JUMP JUMPDEST PUSH1 0x40 MLOAD DUP1 SWAP2 SUB SWAP1 LOG3 PUSH2 0x163D DUP5 DUP5 DUP5 PUSH2 0x17A8 JUMP JUMPDEST POP POP POP POP JUMP JUMPDEST PUSH1 0x0 PUSH20 0xFFFFFFFFFFFFFFFFFFFFFFFFFFFFFFFFFFFFFFFF AND DUP3 PUSH20 0xFFFFFFFFFFFFFFFFFFFFFFFFFFFFFFFFFFFFFFFF AND EQ ISZERO PUSH2 0x16B3 JUMPI PUSH1 0x40 MLOAD PUSH32 0x8C379A000000000000000000000000000000000000000000000000000000000 DUP2 MSTORE PUSH1 0x4 ADD PUSH2 0x16AA SWAP1 PUSH2 0x2007 JUMP JUMPDEST PUSH1 0x40 MLOAD DUP1 SWAP2 SUB SWAP1 REVERT JUMPDEST PUSH2 0x16BF PUSH1 0x0 DUP4 DUP4 PUSH2 0x17A3 JUMP JUMPDEST DUP1 PUSH1 0x2 PUSH1 0x0 DUP3 DUP3 SLOAD PUSH2 0x16D1 SWAP2 SWAP1 PUSH2 0x2079 JUMP JUMPDEST SWAP3 POP POP DUP2 SWAP1 SSTORE POP DUP1 PUSH1 0x0 DUP1 DUP5 PUSH20 0xFFFFFFFFFFFFFFFFFFFFFFFFFFFFFFFFFFFFFFFF AND PUSH20 0xFFFFFFFFFFFFFFFFFFFFFFFFFFFFFFFFFFFFFFFF AND DUP2 MSTORE PUSH1 0x20 ADD SWAP1 DUP2 MSTORE PUSH1 0x20 ADD PUSH1 0x0 KECCAK256 PUSH1 0x0 DUP3 DUP3 SLOAD PUSH2 0x1726 SWAP2 SWAP1 PUSH2 0x2079 JUMP JUMPDEST SWAP3 POP POP DUP2 SWAP1 SSTORE POP DUP2 PUSH20 0xFFFFFFFFFFFFFFFFFFFFFFFFFFFFFFFFFFFFFFFF AND PUSH1 0x0 PUSH20 0xFFFFFFFFFFFFFFFFFFFFFFFFFFFFFFFFFFFFFFFF AND PUSH32 0xDDF252AD1BE2C89B69C2B068FC378DAA952BA7F163C4A11628F55A4DF523B3EF DUP4 PUSH1 0x40 MLOAD PUSH2 0x178B SWAP2 SWAP1 PUSH2 0x2027 JUMP JUMPDEST PUSH1 0x40 MLOAD DUP1 SWAP2 SUB SWAP1 LOG3 PUSH2 0x179F PUSH1 0x0 DUP4 DUP4 PUSH2 0x17A8 JUMP JUMPDEST POP POP JUMP JUMPDEST POP POP POP JUMP JUMPDEST POP POP POP JUMP JUMPDEST PUSH1 0x0 DUP2 CALLDATALOAD SWAP1 POP PUSH2 0x17BC DUP2 PUSH2 0x26A2 JUMP JUMPDEST SWAP3 SWAP2 POP POP JUMP JUMPDEST PUSH1 0x0 DUP2 MLOAD SWAP1 POP PUSH2 0x17D1 DUP2 PUSH2 0x26B9 JUMP JUMPDEST SWAP3 SWAP2 POP POP JUMP JUMPDEST PUSH1 0x0 DUP1 DUP4 PUSH1 0x1F DUP5 ADD SLT PUSH2 0x17ED JUMPI PUSH2 0x17EC PUSH2 0x2294 JUMP JUMPDEST JUMPDEST DUP3 CALLDATALOAD SWAP1 POP PUSH8 0xFFFFFFFFFFFFFFFF DUP2 GT ISZERO PUSH2 0x180A JUMPI PUSH2 0x1809 PUSH2 0x228F JUMP JUMPDEST JUMPDEST PUSH1 0x20 DUP4 ADD SWAP2 POP DUP4 PUSH1 0x1 DUP3 MUL DUP4 ADD GT ISZERO PUSH2 0x1826 JUMPI PUSH2 0x1825 PUSH2 0x2299 JUMP JUMPDEST JUMPDEST SWAP3 POP SWAP3 SWAP1 POP JUMP JUMPDEST PUSH1 0x0 DUP2 CALLDATALOAD SWAP1 POP PUSH2 0x183C DUP2 PUSH2 0x26D0 JUMP JUMPDEST SWAP3 SWAP2 POP POP JUMP JUMPDEST PUSH1 0x0 PUSH1 0x20 DUP3 DUP5 SUB SLT ISZERO PUSH2 0x1858 JUMPI PUSH2 0x1857 PUSH2 0x22A3 JUMP JUMPDEST JUMPDEST PUSH1 0x0 PUSH2 0x1866 DUP5 DUP3 DUP6 ADD PUSH2 0x17AD JUMP JUMPDEST SWAP2 POP POP SWAP3 SWAP2 POP POP JUMP JUMPDEST PUSH1 0x0 DUP1 PUSH1 0x40 DUP4 DUP6 SUB SLT ISZERO PUSH2 0x1886 JUMPI PUSH2 0x1885 PUSH2 0x22A3 JUMP JUMPDEST JUMPDEST PUSH1 0x0 PUSH2 0x1894 DUP6 DUP3 DUP7 ADD PUSH2 0x17AD JUMP JUMPDEST SWAP3 POP POP PUSH1 0x20 PUSH2 0x18A5 DUP6 DUP3 DUP7 ADD PUSH2 0x17AD JUMP JUMPDEST SWAP2 POP POP SWAP3 POP SWAP3 SWAP1 POP JUMP JUMPDEST PUSH1 0x0 DUP1 PUSH1 0x0 PUSH1 0x60 DUP5 DUP7 SUB SLT ISZERO PUSH2 0x18C8 JUMPI PUSH2 0x18C7 PUSH2 0x22A3 JUMP JUMPDEST JUMPDEST PUSH1 0x0 PUSH2 0x18D6 DUP7 DUP3 DUP8 ADD PUSH2 0x17AD JUMP JUMPDEST SWAP4 POP POP PUSH1 0x20 PUSH2 0x18E7 DUP7 DUP3 DUP8 ADD PUSH2 0x17AD JUMP JUMPDEST SWAP3 POP POP PUSH1 0x40 PUSH2 0x18F8 DUP7 DUP3 DUP8 ADD PUSH2 0x182D JUMP JUMPDEST SWAP2 POP POP SWAP3 POP SWAP3 POP SWAP3 JUMP JUMPDEST PUSH1 0x0 DUP1 PUSH1 0x0 DUP1 PUSH1 0x0 PUSH1 0x80 DUP7 DUP9 SUB SLT ISZERO PUSH2 0x191E JUMPI PUSH2 0x191D PUSH2 0x22A3 JUMP JUMPDEST JUMPDEST PUSH1 0x0 PUSH2 0x192C DUP9 DUP3 DUP10 ADD PUSH2 0x17AD JUMP JUMPDEST SWAP6 POP POP PUSH1 0x20 PUSH2 0x193D DUP9 DUP3 DUP10 ADD PUSH2 0x17AD JUMP JUMPDEST SWAP5 POP POP PUSH1 0x40 PUSH2 0x194E DUP9 DUP3 DUP10 ADD PUSH2 0x182D JUMP JUMPDEST SWAP4 POP POP PUSH1 0x60 DUP7 ADD CALLDATALOAD PUSH8 0xFFFFFFFFFFFFFFFF DUP2 GT ISZERO PUSH2 0x196F JUMPI PUSH2 0x196E PUSH2 0x229E JUMP JUMPDEST JUMPDEST PUSH2 0x197B DUP9 DUP3 DUP10 ADD PUSH2 0x17D7 JUMP JUMPDEST SWAP3 POP SWAP3 POP POP SWAP3 SWAP6 POP SWAP3 SWAP6 SWAP1 SWAP4 POP JUMP JUMPDEST PUSH1 0x0 DUP1 PUSH1 0x40 DUP4 DUP6 SUB SLT ISZERO PUSH2 0x19A1 JUMPI PUSH2 0x19A0 PUSH2 0x22A3 JUMP JUMPDEST JUMPDEST PUSH1 0x0 PUSH2 0x19AF DUP6 DUP3 DUP7 ADD PUSH2 0x17AD JUMP JUMPDEST SWAP3 POP POP PUSH1 0x20 PUSH2 0x19C0 DUP6 DUP3 DUP7 ADD PUSH2 0x182D JUMP JUMPDEST SWAP2 POP POP SWAP3 POP SWAP3 SWAP1 POP JUMP JUMPDEST PUSH1 0x0 PUSH1 0x20 DUP3 DUP5 SUB SLT ISZERO PUSH2 0x19E0 JUMPI PUSH2 0x19DF PUSH2 0x22A3 JUMP JUMPDEST JUMPDEST PUSH1 0x0 PUSH2 0x19EE DUP5 DUP3 DUP6 ADD PUSH2 0x17C2 JUMP JUMPDEST SWAP2 POP POP SWAP3 SWAP2 POP POP JUMP JUMPDEST PUSH1 0x0 PUSH1 0x20 DUP3 DUP5 SUB SLT ISZERO PUSH2 0x1A0D JUMPI PUSH2 0x1A0C PUSH2 0x22A3 JUMP JUMPDEST JUMPDEST PUSH1 0x0 PUSH2 0x1A1B DUP5 DUP3 DUP6 ADD PUSH2 0x182D JUMP JUMPDEST SWAP2 POP POP SWAP3 SWAP2 POP POP JUMP JUMPDEST PUSH2 0x1A2D DUP2 PUSH2 0x2103 JUMP JUMPDEST DUP3 MSTORE POP POP JUMP JUMPDEST PUSH2 0x1A3C DUP2 PUSH2 0x2115 JUMP JUMPDEST DUP3 MSTORE POP POP JUMP JUMPDEST PUSH2 0x1A4B DUP2 PUSH2 0x2121 JUMP JUMPDEST DUP3 MSTORE POP POP JUMP JUMPDEST PUSH2 0x1A5A DUP2 PUSH2 0x2184 JUMP JUMPDEST DUP3 MSTORE POP POP JUMP JUMPDEST PUSH2 0x1A69 DUP2 PUSH2 0x2196 JUMP JUMPDEST DUP3 MSTORE POP POP JUMP JUMPDEST PUSH1 0x0 PUSH2 0x1A7A DUP3 PUSH2 0x205D JUMP JUMPDEST PUSH2 0x1A84 DUP2 DUP6 PUSH2 0x2068 JUMP JUMPDEST SWAP4 POP PUSH2 0x1A94 DUP2 DUP6 PUSH1 0x20 DUP7 ADD PUSH2 0x21CC JUMP JUMPDEST PUSH2 0x1A9D DUP2 PUSH2 0x22A8 JUMP JUMPDEST DUP5 ADD SWAP2 POP POP SWAP3 SWAP2 POP POP JUMP JUMPDEST PUSH1 0x0 PUSH2 0x1AB5 PUSH1 0x23 DUP4 PUSH2 0x2068 JUMP JUMPDEST SWAP2 POP PUSH2 0x1AC0 DUP3 PUSH2 0x22B9 JUMP JUMPDEST PUSH1 0x40 DUP3 ADD SWAP1 POP SWAP2 SWAP1 POP JUMP JUMPDEST PUSH1 0x0 PUSH2 0x1AD8 PUSH1 0x22 DUP4 PUSH2 0x2068 JUMP JUMPDEST SWAP2 POP PUSH2 0x1AE3 DUP3 PUSH2 0x2308 JUMP JUMPDEST PUSH1 0x40 DUP3 ADD SWAP1 POP SWAP2 SWAP1 POP JUMP JUMPDEST PUSH1 0x0 PUSH2 0x1AFB PUSH1 0x22 DUP4 PUSH2 0x2068 JUMP JUMPDEST SWAP2 POP PUSH2 0x1B06 DUP3 PUSH2 0x2357 JUMP JUMPDEST PUSH1 0x40 DUP3 ADD SWAP1 POP SWAP2 SWAP1 POP JUMP JUMPDEST PUSH1 0x0 PUSH2 0x1B1E PUSH1 0x1C DUP4 PUSH2 0x2068 JUMP JUMPDEST SWAP2 POP PUSH2 0x1B29 DUP3 PUSH2 0x23A6 JUMP JUMPDEST PUSH1 0x20 DUP3 ADD SWAP1 POP SWAP2 SWAP1 POP JUMP JUMPDEST PUSH1 0x0 PUSH2 0x1B41 PUSH1 0x1D DUP4 PUSH2 0x2068 JUMP JUMPDEST SWAP2 POP PUSH2 0x1B4C DUP3 PUSH2 0x23CF JUMP JUMPDEST PUSH1 0x20 DUP3 ADD SWAP1 POP SWAP2 SWAP1 POP JUMP JUMPDEST PUSH1 0x0 PUSH2 0x1B64 PUSH1 0x26 DUP4 PUSH2 0x2068 JUMP JUMPDEST SWAP2 POP PUSH2 0x1B6F DUP3 PUSH2 0x23F8 JUMP JUMPDEST PUSH1 0x40 DUP3 ADD SWAP1 POP SWAP2 SWAP1 POP JUMP JUMPDEST PUSH1 0x0 PUSH2 0x1B87 PUSH1 0x12 DUP4 PUSH2 0x2068 JUMP JUMPDEST SWAP2 POP PUSH2 0x1B92 DUP3 PUSH2 0x2447 JUMP JUMPDEST PUSH1 0x20 DUP3 ADD SWAP1 POP SWAP2 SWAP1 POP JUMP JUMPDEST PUSH1 0x0 PUSH2 0x1BAA PUSH1 0x17 DUP4 PUSH2 0x2068 JUMP JUMPDEST SWAP2 POP PUSH2 0x1BB5 DUP3 PUSH2 0x2470 JUMP JUMPDEST PUSH1 0x20 DUP3 ADD SWAP1 POP SWAP2 SWAP1 POP JUMP JUMPDEST PUSH1 0x0 PUSH2 0x1BCD PUSH1 0x12 DUP4 PUSH2 0x2068 JUMP JUMPDEST SWAP2 POP PUSH2 0x1BD8 DUP3 PUSH2 0x2499 JUMP JUMPDEST PUSH1 0x20 DUP3 ADD SWAP1 POP SWAP2 SWAP1 POP JUMP JUMPDEST PUSH1 0x0 PUSH2 0x1BF0 PUSH1 0x15 DUP4 PUSH2 0x2068 JUMP JUMPDEST SWAP2 POP PUSH2 0x1BFB DUP3 PUSH2 0x24C2 JUMP JUMPDEST PUSH1 0x20 DUP3 ADD SWAP1 POP SWAP2 SWAP1 POP JUMP JUMPDEST PUSH1 0x0 PUSH2 0x1C13 PUSH1 0x1C DUP4 PUSH2 0x2068 JUMP JUMPDEST SWAP2 POP PUSH2 0x1C1E DUP3 PUSH2 0x24EB JUMP JUMPDEST PUSH1 0x20 DUP3 ADD SWAP1 POP SWAP2 SWAP1 POP JUMP JUMPDEST PUSH1 0x0 PUSH2 0x1C36 PUSH1 0x19 DUP4 PUSH2 0x2068 JUMP JUMPDEST SWAP2 POP PUSH2 0x1C41 DUP3 PUSH2 0x2514 JUMP JUMPDEST PUSH1 0x20 DUP3 ADD SWAP1 POP SWAP2 SWAP1 POP JUMP JUMPDEST PUSH1 0x0 PUSH2 0x1C59 PUSH1 0x21 DUP4 PUSH2 0x2068 JUMP JUMPDEST SWAP2 POP PUSH2 0x1C64 DUP3 PUSH2 0x253D JUMP JUMPDEST PUSH1 0x40 DUP3 ADD SWAP1 POP SWAP2 SWAP1 POP JUMP JUMPDEST PUSH1 0x0 PUSH2 0x1C7C PUSH1 0x25 DUP4 PUSH2 0x2068 JUMP JUMPDEST SWAP2 POP PUSH2 0x1C87 DUP3 PUSH2 0x258C JUMP JUMPDEST PUSH1 0x40 DUP3 ADD SWAP1 POP SWAP2 SWAP1 POP JUMP JUMPDEST PUSH1 0x0 PUSH2 0x1C9F PUSH1 0x24 DUP4 PUSH2 0x2068 JUMP JUMPDEST SWAP2 POP PUSH2 0x1CAA DUP3 PUSH2 0x25DB JUMP JUMPDEST PUSH1 0x40 DUP3 ADD SWAP1 POP SWAP2 SWAP1 POP JUMP JUMPDEST PUSH1 0x0 PUSH2 0x1CC2 PUSH1 0x25 DUP4 PUSH2 0x2068 JUMP JUMPDEST SWAP2 POP PUSH2 0x1CCD DUP3 PUSH2 0x262A JUMP JUMPDEST PUSH1 0x40 DUP3 ADD SWAP1 POP SWAP2 SWAP1 POP JUMP JUMPDEST PUSH1 0x0 PUSH2 0x1CE5 PUSH1 0x1F DUP4 PUSH2 0x2068 JUMP JUMPDEST SWAP2 POP PUSH2 0x1CF0 DUP3 PUSH2 0x2679 JUMP JUMPDEST PUSH1 0x20 DUP3 ADD SWAP1 POP SWAP2 SWAP1 POP JUMP JUMPDEST PUSH2 0x1D04 DUP2 PUSH2 0x216D JUMP JUMPDEST DUP3 MSTORE POP POP JUMP JUMPDEST PUSH2 0x1D13 DUP2 PUSH2 0x2177 JUMP JUMPDEST DUP3 MSTORE POP POP JUMP JUMPDEST PUSH1 0x0 PUSH1 0x60 DUP3 ADD SWAP1 POP PUSH2 0x1D2E PUSH1 0x0 DUP4 ADD DUP7 PUSH2 0x1A24 JUMP JUMPDEST PUSH2 0x1D3B PUSH1 0x20 DUP4 ADD DUP6 PUSH2 0x1A24 JUMP JUMPDEST PUSH2 0x1D48 PUSH1 0x40 DUP4 ADD DUP5 PUSH2 0x1CFB JUMP JUMPDEST SWAP5 SWAP4 POP POP POP POP JUMP JUMPDEST PUSH1 0x0 PUSH1 0x40 DUP3 ADD SWAP1 POP PUSH2 0x1D65 PUSH1 0x0 DUP4 ADD DUP6 PUSH2 0x1A24 JUMP JUMPDEST PUSH2 0x1D72 PUSH1 0x20 DUP4 ADD DUP5 PUSH2 0x1CFB JUMP JUMPDEST SWAP4 SWAP3 POP POP POP JUMP JUMPDEST PUSH1 0x0 PUSH1 0x20 DUP3 ADD SWAP1 POP PUSH2 0x1D8E PUSH1 0x0 DUP4 ADD DUP5 PUSH2 0x1A33 JUMP JUMPDEST SWAP3 SWAP2 POP POP JUMP JUMPDEST PUSH1 0x0 PUSH1 0x20 DUP3 ADD SWAP1 POP PUSH2 0x1DA9 PUSH1 0x0 DUP4 ADD DUP5 PUSH2 0x1A42 JUMP JUMPDEST SWAP3 SWAP2 POP POP JUMP JUMPDEST PUSH1 0x0 PUSH1 0x20 DUP3 ADD SWAP1 POP PUSH2 0x1DC4 PUSH1 0x0 DUP4 ADD DUP5 PUSH2 0x1A51 JUMP JUMPDEST SWAP3 SWAP2 POP POP JUMP JUMPDEST PUSH1 0x0 PUSH1 0x20 DUP3 ADD SWAP1 POP PUSH2 0x1DDF PUSH1 0x0 DUP4 ADD DUP5 PUSH2 0x1A60 JUMP JUMPDEST SWAP3 SWAP2 POP POP JUMP JUMPDEST PUSH1 0x0 PUSH1 0x20 DUP3 ADD SWAP1 POP DUP2 DUP2 SUB PUSH1 0x0 DUP4 ADD MSTORE PUSH2 0x1DFF DUP2 DUP5 PUSH2 0x1A6F JUMP JUMPDEST SWAP1 POP SWAP3 SWAP2 POP POP JUMP JUMPDEST PUSH1 0x0 PUSH1 0x20 DUP3 ADD SWAP1 POP DUP2 DUP2 SUB PUSH1 0x0 DUP4 ADD MSTORE PUSH2 0x1E20 DUP2 PUSH2 0x1AA8 JUMP JUMPDEST SWAP1 POP SWAP2 SWAP1 POP JUMP JUMPDEST PUSH1 0x0 PUSH1 0x20 DUP3 ADD SWAP1 POP DUP2 DUP2 SUB PUSH1 0x0 DUP4 ADD MSTORE PUSH2 0x1E40 DUP2 PUSH2 0x1ACB JUMP JUMPDEST SWAP1 POP SWAP2 SWAP1 POP JUMP JUMPDEST PUSH1 0x0 PUSH1 0x20 DUP3 ADD SWAP1 POP DUP2 DUP2 SUB PUSH1 0x0 DUP4 ADD MSTORE PUSH2 0x1E60 DUP2 PUSH2 0x1AEE JUMP JUMPDEST SWAP1 POP SWAP2 SWAP1 POP JUMP JUMPDEST PUSH1 0x0 PUSH1 0x20 DUP3 ADD SWAP1 POP DUP2 DUP2 SUB PUSH1 0x0 DUP4 ADD MSTORE PUSH2 0x1E80 DUP2 PUSH2 0x1B11 JUMP JUMPDEST SWAP1 POP SWAP2 SWAP1 POP JUMP JUMPDEST PUSH1 0x0 PUSH1 0x20 DUP3 ADD SWAP1 POP DUP2 DUP2 SUB PUSH1 0x0 DUP4 ADD MSTORE PUSH2 0x1EA0 DUP2 PUSH2 0x1B34 JUMP JUMPDEST SWAP1 POP SWAP2 SWAP1 POP JUMP JUMPDEST PUSH1 0x0 PUSH1 0x20 DUP3 ADD SWAP1 POP DUP2 DUP2 SUB PUSH1 0x0 DUP4 ADD MSTORE PUSH2 0x1EC0 DUP2 PUSH2 0x1B57 JUMP JUMPDEST SWAP1 POP SWAP2 SWAP1 POP JUMP JUMPDEST PUSH1 0x0 PUSH1 0x20 DUP3 ADD SWAP1 POP DUP2 DUP2 SUB PUSH1 0x0 DUP4 ADD MSTORE PUSH2 0x1EE0 DUP2 PUSH2 0x1B7A JUMP JUMPDEST SWAP1 POP SWAP2 SWAP1 POP JUMP JUMPDEST PUSH1 0x0 PUSH1 0x20 DUP3 ADD SWAP1 POP DUP2 DUP2 SUB PUSH1 0x0 DUP4 ADD MSTORE PUSH2 0x1F00 DUP2 PUSH2 0x1B9D JUMP JUMPDEST SWAP1 POP SWAP2 SWAP1 POP JUMP JUMPDEST PUSH1 0x0 PUSH1 0x20 DUP3 ADD SWAP1 POP DUP2 DUP2 SUB PUSH1 0x0 DUP4 ADD MSTORE PUSH2 0x1F20 DUP2 PUSH2 0x1BC0 JUMP JUMPDEST SWAP1 POP SWAP2 SWAP1 POP JUMP JUMPDEST PUSH1 0x0 PUSH1 0x20 DUP3 ADD SWAP1 POP DUP2 DUP2 SUB PUSH1 0x0 DUP4 ADD MSTORE PUSH2 0x1F40 DUP2 PUSH2 0x1BE3 JUMP JUMPDEST SWAP1 POP SWAP2 SWAP1 POP JUMP JUMPDEST PUSH1 0x0 PUSH1 0x20 DUP3 ADD SWAP1 POP DUP2 DUP2 SUB PUSH1 0x0 DUP4 ADD MSTORE PUSH2 0x1F60 DUP2 PUSH2 0x1C06 JUMP JUMPDEST SWAP1 POP SWAP2 SWAP1 POP JUMP JUMPDEST PUSH1 0x0 PUSH1 0x20 DUP3 ADD SWAP1 POP DUP2 DUP2 SUB PUSH1 0x0 DUP4 ADD MSTORE PUSH2 0x1F80 DUP2 PUSH2 0x1C29 JUMP JUMPDEST SWAP1 POP SWAP2 SWAP1 POP JUMP JUMPDEST PUSH1 0x0 PUSH1 0x20 DUP3 ADD SWAP1 POP DUP2 DUP2 SUB PUSH1 0x0 DUP4 ADD MSTORE PUSH2 0x1FA0 DUP2 PUSH2 0x1C4C JUMP JUMPDEST SWAP1 POP SWAP2 SWAP1 POP JUMP JUMPDEST PUSH1 0x0 PUSH1 0x20 DUP3 ADD SWAP1 POP DUP2 DUP2 SUB PUSH1 0x0 DUP4 ADD MSTORE PUSH2 0x1FC0 DUP2 PUSH2 0x1C6F JUMP JUMPDEST SWAP1 POP SWAP2 SWAP1 POP JUMP JUMPDEST PUSH1 0x0 PUSH1 0x20 DUP3 ADD SWAP1 POP DUP2 DUP2 SUB PUSH1 0x0 DUP4 ADD MSTORE PUSH2 0x1FE0 DUP2 PUSH2 0x1C92 JUMP JUMPDEST SWAP1 POP SWAP2 SWAP1 POP JUMP JUMPDEST PUSH1 0x0 PUSH1 0x20 DUP3 ADD SWAP1 POP DUP2 DUP2 SUB PUSH1 0x0 DUP4 ADD MSTORE PUSH2 0x2000 DUP2 PUSH2 0x1CB5 JUMP JUMPDEST SWAP1 POP SWAP2 SWAP1 POP JUMP JUMPDEST PUSH1 0x0 PUSH1 0x20 DUP3 ADD SWAP1 POP DUP2 DUP2 SUB PUSH1 0x0 DUP4 ADD MSTORE PUSH2 0x2020 DUP2 PUSH2 0x1CD8 JUMP JUMPDEST SWAP1 POP SWAP2 SWAP1 POP JUMP JUMPDEST PUSH1 0x0 PUSH1 0x20 DUP3 ADD SWAP1 POP PUSH2 0x203C PUSH1 0x0 DUP4 ADD DUP5 PUSH2 0x1CFB JUMP JUMPDEST SWAP3 SWAP2 POP POP JUMP JUMPDEST PUSH1 0x0 PUSH1 0x20 DUP3 ADD SWAP1 POP PUSH2 0x2057 PUSH1 0x0 DUP4 ADD DUP5 PUSH2 0x1D0A JUMP JUMPDEST SWAP3 SWAP2 POP POP JUMP JUMPDEST PUSH1 0x0 DUP2 MLOAD SWAP1 POP SWAP2 SWAP1 POP JUMP JUMPDEST PUSH1 0x0 DUP3 DUP3 MSTORE PUSH1 0x20 DUP3 ADD SWAP1 POP SWAP3 SWAP2 POP POP JUMP JUMPDEST PUSH1 0x0 PUSH2 0x2084 DUP3 PUSH2 0x216D JUMP JUMPDEST SWAP2 POP PUSH2 0x208F DUP4 PUSH2 0x216D JUMP JUMPDEST SWAP3 POP DUP3 PUSH32 0xFFFFFFFFFFFFFFFFFFFFFFFFFFFFFFFFFFFFFFFFFFFFFFFFFFFFFFFFFFFFFFFF SUB DUP3 GT ISZERO PUSH2 0x20C4 JUMPI PUSH2 0x20C3 PUSH2 0x2231 JUMP JUMPDEST JUMPDEST DUP3 DUP3 ADD SWAP1 POP SWAP3 SWAP2 POP POP JUMP JUMPDEST PUSH1 0x0 PUSH2 0x20DA DUP3 PUSH2 0x216D JUMP JUMPDEST SWAP2 POP PUSH2 0x20E5 DUP4 PUSH2 0x216D JUMP JUMPDEST SWAP3 POP DUP3 DUP3 LT ISZERO PUSH2 0x20F8 JUMPI PUSH2 0x20F7 PUSH2 0x2231 JUMP JUMPDEST JUMPDEST DUP3 DUP3 SUB SWAP1 POP SWAP3 SWAP2 POP POP JUMP JUMPDEST PUSH1 0x0 PUSH2 0x210E DUP3 PUSH2 0x214D JUMP JUMPDEST SWAP1 POP SWAP2 SWAP1 POP JUMP JUMPDEST PUSH1 0x0 DUP2 ISZERO ISZERO SWAP1 POP SWAP2 SWAP1 POP JUMP JUMPDEST PUSH1 0x0 PUSH32 0xFFFFFFFF00000000000000000000000000000000000000000000000000000000 DUP3 AND SWAP1 POP SWAP2 SWAP1 POP JUMP JUMPDEST PUSH1 0x0 PUSH20 0xFFFFFFFFFFFFFFFFFFFFFFFFFFFFFFFFFFFFFFFF DUP3 AND SWAP1 POP SWAP2 SWAP1 POP JUMP JUMPDEST PUSH1 0x0 DUP2 SWAP1 POP SWAP2 SWAP1 POP JUMP JUMPDEST PUSH1 0x0 PUSH1 0xFF DUP3 AND SWAP1 POP SWAP2 SWAP1 POP JUMP JUMPDEST PUSH1 0x0 PUSH2 0x218F DUP3 PUSH2 0x21A8 JUMP JUMPDEST SWAP1 POP SWAP2 SWAP1 POP JUMP JUMPDEST PUSH1 0x0 PUSH2 0x21A1 DUP3 PUSH2 0x21A8 JUMP JUMPDEST SWAP1 POP SWAP2 SWAP1 POP JUMP JUMPDEST PUSH1 0x0 PUSH2 0x21B3 DUP3 PUSH2 0x21BA JUMP JUMPDEST SWAP1 POP SWAP2 SWAP1 POP JUMP JUMPDEST PUSH1 0x0 PUSH2 0x21C5 DUP3 PUSH2 0x214D JUMP JUMPDEST SWAP1 POP SWAP2 SWAP1 POP JUMP JUMPDEST PUSH1 0x0 JUMPDEST DUP4 DUP2 LT ISZERO PUSH2 0x21EA JUMPI DUP1 DUP3 ADD MLOAD DUP2 DUP5 ADD MSTORE PUSH1 0x20 DUP2 ADD SWAP1 POP PUSH2 0x21CF JUMP JUMPDEST DUP4 DUP2 GT ISZERO PUSH2 0x21F9 JUMPI PUSH1 0x0 DUP5 DUP5 ADD MSTORE JUMPDEST POP POP POP POP JUMP JUMPDEST PUSH1 0x0 PUSH1 0x2 DUP3 DIV SWAP1 POP PUSH1 0x1 DUP3 AND DUP1 PUSH2 0x2217 JUMPI PUSH1 0x7F DUP3 AND SWAP2 POP JUMPDEST PUSH1 0x20 DUP3 LT DUP2 EQ ISZERO PUSH2 0x222B JUMPI PUSH2 0x222A PUSH2 0x2260 JUMP JUMPDEST JUMPDEST POP SWAP2 SWAP1 POP JUMP JUMPDEST PUSH32 0x4E487B7100000000000000000000000000000000000000000000000000000000 PUSH1 0x0 MSTORE PUSH1 0x11 PUSH1 0x4 MSTORE PUSH1 0x24 PUSH1 0x0 REVERT JUMPDEST PUSH32 0x4E487B7100000000000000000000000000000000000000000000000000000000 PUSH1 0x0 MSTORE PUSH1 0x22 PUSH1 0x4 MSTORE PUSH1 0x24 PUSH1 0x0 REVERT JUMPDEST PUSH1 0x0 DUP1 REVERT JUMPDEST PUSH1 0x0 DUP1 REVERT JUMPDEST PUSH1 0x0 DUP1 REVERT JUMPDEST PUSH1 0x0 DUP1 REVERT JUMPDEST PUSH1 0x0 DUP1 REVERT JUMPDEST PUSH1 0x0 PUSH1 0x1F NOT PUSH1 0x1F DUP4 ADD AND SWAP1 POP SWAP2 SWAP1 POP JUMP JUMPDEST PUSH32 0x45524332303A207472616E7366657220746F20746865207A65726F2061646472 PUSH1 0x0 DUP3 ADD MSTORE PUSH32 0x6573730000000000000000000000000000000000000000000000000000000000 PUSH1 0x20 DUP3 ADD MSTORE POP JUMP JUMPDEST PUSH32 0x45524332303A206275726E20616D6F756E7420657863656564732062616C616E PUSH1 0x0 DUP3 ADD MSTORE PUSH32 0x6365000000000000000000000000000000000000000000000000000000000000 PUSH1 0x20 DUP3 ADD MSTORE POP JUMP JUMPDEST PUSH32 0x45524332303A20617070726F766520746F20746865207A65726F206164647265 PUSH1 0x0 DUP3 ADD MSTORE PUSH32 0x7373000000000000000000000000000000000000000000000000000000000000 PUSH1 0x20 DUP3 ADD MSTORE POP JUMP JUMPDEST PUSH32 0x446F204E6F7420486176652052465420546F74616C20537570706C7900000000 PUSH1 0x0 DUP3 ADD MSTORE POP JUMP JUMPDEST PUSH32 0x45524332303A20696E73756666696369656E7420616C6C6F77616E6365000000 PUSH1 0x0 DUP3 ADD MSTORE POP JUMP JUMPDEST PUSH32 0x45524332303A207472616E7366657220616D6F756E7420657863656564732062 PUSH1 0x0 DUP3 ADD MSTORE PUSH32 0x616C616E63650000000000000000000000000000000000000000000000000000 PUSH1 0x20 DUP3 ADD MSTORE POP JUMP JUMPDEST PUSH32 0x436F6E7472616374204973204B696C6C65640000000000000000000000000000 PUSH1 0x0 DUP3 ADD MSTORE POP JUMP JUMPDEST PUSH32 0x4E6F7420656E6F75676820736861726573206C65667421000000000000000000 PUSH1 0x0 DUP3 ADD MSTORE POP JUMP JUMPDEST PUSH32 0x436F6E7472616374204973205061757365640000000000000000000000000000 PUSH1 0x0 DUP3 ADD MSTORE POP JUMP JUMPDEST PUSH32 0x54617267657420416C7265616479205261697365640000000000000000000000 PUSH1 0x0 DUP3 ADD MSTORE POP JUMP JUMPDEST PUSH32 0x4F6E6C792041646D696E2043616E2050617573652F556E706175736500000000 PUSH1 0x0 DUP3 ADD MSTORE POP JUMP JUMPDEST PUSH32 0x4E6F7420477265617420456E6F7567682042616C616E63652100000000000000 PUSH1 0x0 DUP3 ADD MSTORE POP JUMP JUMPDEST PUSH32 0x45524332303A206275726E2066726F6D20746865207A65726F20616464726573 PUSH1 0x0 DUP3 ADD MSTORE PUSH32 0x7300000000000000000000000000000000000000000000000000000000000000 PUSH1 0x20 DUP3 ADD MSTORE POP JUMP JUMPDEST PUSH32 0x45524332303A207472616E736665722066726F6D20746865207A65726F206164 PUSH1 0x0 DUP3 ADD MSTORE PUSH32 0x6472657373000000000000000000000000000000000000000000000000000000 PUSH1 0x20 DUP3 ADD MSTORE POP JUMP JUMPDEST PUSH32 0x45524332303A20617070726F76652066726F6D20746865207A65726F20616464 PUSH1 0x0 DUP3 ADD MSTORE PUSH32 0x7265737300000000000000000000000000000000000000000000000000000000 PUSH1 0x20 DUP3 ADD MSTORE POP JUMP JUMPDEST PUSH32 0x45524332303A2064656372656173656420616C6C6F77616E63652062656C6F77 PUSH1 0x0 DUP3 ADD MSTORE PUSH32 0x207A65726F000000000000000000000000000000000000000000000000000000 PUSH1 0x20 DUP3 ADD MSTORE POP JUMP JUMPDEST PUSH32 0x45524332303A206D696E7420746F20746865207A65726F206164647265737300 PUSH1 0x0 DUP3 ADD MSTORE POP JUMP JUMPDEST PUSH2 0x26AB DUP2 PUSH2 0x2103 JUMP JUMPDEST DUP2 EQ PUSH2 0x26B6 JUMPI PUSH1 0x0 DUP1 REVERT JUMPDEST POP JUMP JUMPDEST PUSH2 0x26C2 DUP2 PUSH2 0x2115 JUMP JUMPDEST DUP2 EQ PUSH2 0x26CD JUMPI PUSH1 0x0 DUP1 REVERT JUMPDEST POP JUMP JUMPDEST PUSH2 0x26D9 DUP2 PUSH2 0x216D JUMP JUMPDEST DUP2 EQ PUSH2 0x26E4 JUMPI PUSH1 0x0 DUP1 REVERT JUMPDEST POP JUMP INVALID LOG2 PUSH5 0x6970667358 0x22 SLT KECCAK256 JUMPDEST MSIZE KECCAK256 0xA7 LOG3 PC PUSH29 0x7DD1A783B2A2BA134D401AAF1A765F41C97E818D840052450B64736F6C PUSH4 0x43000807 STOP CALLER "
				},
				"gasEstimates": {
					"creation": {
						"codeDepositCost": "2002600",
						"executionCost": "infinite",
						"totalCost": "infinite"
					},
					"external": {
						"allowance(address,address)": "infinite",
						"amountRaised()": "2540",
						"amountUntilReachTarget()": "infinite",
						"approve(address,uint256)": "infinite",
						"balanceOf(address)": "2908",
						"coin()": "2690",
						"dataAccessThreshold()": "2475",
						"decimals()": "454",
						"decreaseAllowance(address,uint256)": "infinite",
						"increaseAllowance(address,uint256)": "infinite",
						"invest(uint256)": "infinite",
						"kill()": "26704",
						"killed()": "2544",
						"name()": "infinite",
						"onERC721Received(address,address,uint256,bytes)": "infinite",
						"pause()": "28840",
						"paused()": "2516",
						"projectMarketplace()": "infinite",
						"redeemNFT()": "infinite",
						"symbol()": "infinite",
						"targetAmount()": "2496",
						"totalSupply()": "2571",
						"transfer(address,uint256)": "infinite",
						"transferFrom(address,address,uint256)": "infinite",
						"withdrawInvestment(uint256)": "infinite"
					}
				},
				"methodIdentifiers": {
					"allowance(address,address)": "dd62ed3e",
					"amountRaised()": "7b3e5e7b",
					"amountUntilReachTarget()": "bdf89682",
					"approve(address,uint256)": "095ea7b3",
					"balanceOf(address)": "70a08231",
					"coin()": "11df9995",
					"dataAccessThreshold()": "06febe00",
					"decimals()": "313ce567",
					"decreaseAllowance(address,uint256)": "a457c2d7",
					"increaseAllowance(address,uint256)": "39509351",
					"invest(uint256)": "2afcf480",
					"kill()": "41c0e1b5",
					"killed()": "1f3a0e41",
					"name()": "06fdde03",
					"onERC721Received(address,address,uint256,bytes)": "150b7a02",
					"pause()": "8456cb59",
					"paused()": "5c975abb",
					"projectMarketplace()": "7e0d73d4",
					"redeemNFT()": "77262d38",
					"symbol()": "95d89b41",
					"targetAmount()": "953b8fb8",
					"totalSupply()": "18160ddd",
					"transfer(address,uint256)": "a9059cbb",
					"transferFrom(address,address,uint256)": "23b872dd",
					"withdrawInvestment(uint256)": "2037fcbf"
				}
			},
			"storageLayout": {
				"storage": [
					{
						"astId": 15,
						"contract": "ProjectMarketplace/contracts/Fundraising.sol:Fundraising",
						"label": "_balances",
						"offset": 0,
						"slot": "0",
						"type": "t_mapping(t_address,t_uint256)"
					},
					{
						"astId": 21,
						"contract": "ProjectMarketplace/contracts/Fundraising.sol:Fundraising",
						"label": "_allowances",
						"offset": 0,
						"slot": "1",
						"type": "t_mapping(t_address,t_mapping(t_address,t_uint256))"
					},
					{
						"astId": 23,
						"contract": "ProjectMarketplace/contracts/Fundraising.sol:Fundraising",
						"label": "_totalSupply",
						"offset": 0,
						"slot": "2",
						"type": "t_uint256"
					},
					{
						"astId": 25,
						"contract": "ProjectMarketplace/contracts/Fundraising.sol:Fundraising",
						"label": "_name",
						"offset": 0,
						"slot": "3",
						"type": "t_string_storage"
					},
					{
						"astId": 27,
						"contract": "ProjectMarketplace/contracts/Fundraising.sol:Fundraising",
						"label": "_symbol",
						"offset": 0,
						"slot": "4",
						"type": "t_string_storage"
					},
					{
						"astId": 867,
						"contract": "ProjectMarketplace/contracts/Fundraising.sol:Fundraising",
						"label": "coin",
						"offset": 0,
						"slot": "5",
						"type": "t_contract(IERC20)663"
					},
					{
						"astId": 872,
						"contract": "ProjectMarketplace/contracts/Fundraising.sol:Fundraising",
						"label": "targetAmount",
						"offset": 0,
						"slot": "6",
						"type": "t_uint256"
					},
					{
						"astId": 874,
						"contract": "ProjectMarketplace/contracts/Fundraising.sol:Fundraising",
						"label": "amountRaised",
						"offset": 0,
						"slot": "7",
						"type": "t_uint256"
					},
					{
						"astId": 876,
						"contract": "ProjectMarketplace/contracts/Fundraising.sol:Fundraising",
						"label": "dataAccessThreshold",
						"offset": 0,
						"slot": "8",
						"type": "t_uint256"
					},
					{
						"astId": 879,
						"contract": "ProjectMarketplace/contracts/Fundraising.sol:Fundraising",
						"label": "paused",
						"offset": 0,
						"slot": "9",
						"type": "t_bool"
					},
					{
						"astId": 882,
						"contract": "ProjectMarketplace/contracts/Fundraising.sol:Fundraising",
						"label": "killed",
						"offset": 1,
						"slot": "9",
						"type": "t_bool"
					},
					{
						"astId": 884,
						"contract": "ProjectMarketplace/contracts/Fundraising.sol:Fundraising",
						"label": "admin",
						"offset": 2,
						"slot": "9",
						"type": "t_address"
					}
				],
				"types": {
					"t_address": {
						"encoding": "inplace",
						"label": "address",
						"numberOfBytes": "20"
					},
					"t_bool": {
						"encoding": "inplace",
						"label": "bool",
						"numberOfBytes": "1"
					},
					"t_contract(IERC20)663": {
						"encoding": "inplace",
						"label": "contract IERC20",
						"numberOfBytes": "20"
					},
					"t_mapping(t_address,t_mapping(t_address,t_uint256))": {
						"encoding": "mapping",
						"key": "t_address",
						"label": "mapping(address => mapping(address => uint256))",
						"numberOfBytes": "32",
						"value": "t_mapping(t_address,t_uint256)"
					},
					"t_mapping(t_address,t_uint256)": {
						"encoding": "mapping",
						"key": "t_address",
						"label": "mapping(address => uint256)",
						"numberOfBytes": "32",
						"value": "t_uint256"
					},
					"t_string_storage": {
						"encoding": "bytes",
						"label": "string",
						"numberOfBytes": "32"
					},
					"t_uint256": {
						"encoding": "inplace",
						"label": "uint256",
						"numberOfBytes": "32"
					}
				}
			},
			"userdoc": {
				"kind": "user",
				"methods": {},
				"version": 1
			}
		}
	}
}