{
	"contracts/Fundraising.sol": {
		"Fundraising": {
			"abi": [
				{
					"inputs": [
						{
							"internalType": "uint256",
							"name": "amount",
							"type": "uint256"
						},
						{
							"internalType": "string",
							"name": "name",
							"type": "string"
						},
						{
							"internalType": "string",
							"name": "symbol",
							"type": "string"
						},
						{
							"internalType": "uint256",
							"name": "_dataAccessThreshold",
							"type": "uint256"
						},
						{
							"internalType": "address",
							"name": "_admin",
							"type": "address"
						},
						{
							"internalType": "address",
							"name": "coinAddress",
							"type": "address"
						}
					],
					"stateMutability": "nonpayable",
					"type": "constructor"
				},
				{
					"anonymous": false,
					"inputs": [
						{
							"indexed": true,
							"internalType": "address",
							"name": "owner",
							"type": "address"
						},
						{
							"indexed": true,
							"internalType": "address",
							"name": "spender",
							"type": "address"
						},
						{
							"indexed": false,
							"internalType": "uint256",
							"name": "value",
							"type": "uint256"
						}
					],
					"name": "Approval",
					"type": "event"
				},
				{
					"anonymous": false,
					"inputs": [
						{
							"indexed": true,
							"internalType": "address",
							"name": "from",
							"type": "address"
						},
						{
							"indexed": true,
							"internalType": "address",
							"name": "to",
							"type": "address"
						},
						{
							"indexed": false,
							"internalType": "uint256",
							"name": "value",
							"type": "uint256"
						}
					],
					"name": "Transfer",
					"type": "event"
				},
				{
					"inputs": [
						{
							"internalType": "address",
							"name": "owner",
							"type": "address"
						},
						{
							"internalType": "address",
							"name": "spender",
							"type": "address"
						}
					],
					"name": "allowance",
					"outputs": [
						{
							"internalType": "uint256",
							"name": "",
							"type": "uint256"
						}
					],
					"stateMutability": "view",
					"type": "function"
				},
				{
					"inputs": [],
					"name": "amountRaised",
					"outputs": [
						{
							"internalType": "uint256",
							"name": "",
							"type": "uint256"
						}
					],
					"stateMutability": "view",
					"type": "function"
				},
				{
					"inputs": [],
					"name": "amountUntilReachTarget",
					"outputs": [
						{
							"internalType": "uint256",
							"name": "",
							"type": "uint256"
						}
					],
					"stateMutability": "view",
					"type": "function"
				},
				{
					"inputs": [
						{
							"internalType": "address",
							"name": "spender",
							"type": "address"
						},
						{
							"internalType": "uint256",
							"name": "amount",
							"type": "uint256"
						}
					],
					"name": "approve",
					"outputs": [
						{
							"internalType": "bool",
							"name": "",
							"type": "bool"
						}
					],
					"stateMutability": "nonpayable",
					"type": "function"
				},
				{
					"inputs": [
						{
							"internalType": "address",
							"name": "account",
							"type": "address"
						}
					],
					"name": "balanceOf",
					"outputs": [
						{
							"internalType": "uint256",
							"name": "",
							"type": "uint256"
						}
					],
					"stateMutability": "view",
					"type": "function"
				},
				{
					"inputs": [],
					"name": "coin",
					"outputs": [
						{
							"internalType": "contract IERC20Extented",
							"name": "",
							"type": "address"
						}
					],
					"stateMutability": "view",
					"type": "function"
				},
				{
					"inputs": [],
					"name": "dataAccessThreshold",
					"outputs": [
						{
							"internalType": "uint256",
							"name": "",
							"type": "uint256"
						}
					],
					"stateMutability": "view",
					"type": "function"
				},
				{
					"inputs": [],
					"name": "decimals",
					"outputs": [
						{
							"internalType": "uint8",
							"name": "",
							"type": "uint8"
						}
					],
					"stateMutability": "view",
					"type": "function"
				},
				{
					"inputs": [
						{
							"internalType": "address",
							"name": "spender",
							"type": "address"
						},
						{
							"internalType": "uint256",
							"name": "subtractedValue",
							"type": "uint256"
						}
					],
					"name": "decreaseAllowance",
					"outputs": [
						{
							"internalType": "bool",
							"name": "",
							"type": "bool"
						}
					],
					"stateMutability": "nonpayable",
					"type": "function"
				},
				{
					"inputs": [
						{
							"internalType": "address",
							"name": "spender",
							"type": "address"
						},
						{
							"internalType": "uint256",
							"name": "addedValue",
							"type": "uint256"
						}
					],
					"name": "increaseAllowance",
					"outputs": [
						{
							"internalType": "bool",
							"name": "",
							"type": "bool"
						}
					],
					"stateMutability": "nonpayable",
					"type": "function"
				},
				{
					"inputs": [
						{
							"internalType": "uint256",
							"name": "value",
							"type": "uint256"
						}
					],
					"name": "invest",
					"outputs": [],
					"stateMutability": "nonpayable",
					"type": "function"
				},
				{
					"inputs": [],
					"name": "kill",
					"outputs": [],
					"stateMutability": "nonpayable",
					"type": "function"
				},
				{
					"inputs": [],
					"name": "killed",
					"outputs": [
						{
							"internalType": "bool",
							"name": "",
							"type": "bool"
						}
					],
					"stateMutability": "view",
					"type": "function"
				},
				{
					"inputs": [],
					"name": "name",
					"outputs": [
						{
							"internalType": "string",
							"name": "",
							"type": "string"
						}
					],
					"stateMutability": "view",
					"type": "function"
				},
				{
					"inputs": [
						{
							"internalType": "address",
							"name": "",
							"type": "address"
						},
						{
							"internalType": "address",
							"name": "",
							"type": "address"
						},
						{
							"internalType": "uint256",
							"name": "",
							"type": "uint256"
						},
						{
							"internalType": "bytes",
							"name": "",
							"type": "bytes"
						}
					],
					"name": "onERC721Received",
					"outputs": [
						{
							"internalType": "bytes4",
							"name": "",
							"type": "bytes4"
						}
					],
					"stateMutability": "pure",
					"type": "function"
				},
				{
					"inputs": [],
					"name": "pause",
					"outputs": [],
					"stateMutability": "nonpayable",
					"type": "function"
				},
				{
					"inputs": [],
					"name": "paused",
					"outputs": [
						{
							"internalType": "bool",
							"name": "",
							"type": "bool"
						}
					],
					"stateMutability": "view",
					"type": "function"
				},
				{
					"inputs": [],
					"name": "projectMarketplace",
					"outputs": [
						{
							"internalType": "contract IERC721",
							"name": "",
							"type": "address"
						}
					],
					"stateMutability": "view",
					"type": "function"
				},
				{
					"inputs": [],
					"name": "redeemNFT",
					"outputs": [],
					"stateMutability": "nonpayable",
					"type": "function"
				},
				{
					"inputs": [],
					"name": "symbol",
					"outputs": [
						{
							"internalType": "string",
							"name": "",
							"type": "string"
						}
					],
					"stateMutability": "view",
					"type": "function"
				},
				{
					"inputs": [],
					"name": "targetAmount",
					"outputs": [
						{
							"internalType": "uint256",
							"name": "",
							"type": "uint256"
						}
					],
					"stateMutability": "view",
					"type": "function"
				},
				{
					"inputs": [],
					"name": "totalSupply",
					"outputs": [
						{
							"internalType": "uint256",
							"name": "",
							"type": "uint256"
						}
					],
					"stateMutability": "view",
					"type": "function"
				},
				{
					"inputs": [
						{
							"internalType": "address",
							"name": "to",
							"type": "address"
						},
						{
							"internalType": "uint256",
							"name": "amount",
							"type": "uint256"
						}
					],
					"name": "transfer",
					"outputs": [
						{
							"internalType": "bool",
							"name": "",
							"type": "bool"
						}
					],
					"stateMutability": "nonpayable",
					"type": "function"
				},
				{
					"inputs": [
						{
							"internalType": "address",
							"name": "from",
							"type": "address"
						},
						{
							"internalType": "address",
							"name": "to",
							"type": "address"
						},
						{
							"internalType": "uint256",
							"name": "amount",
							"type": "uint256"
						}
					],
					"name": "transferFrom",
					"outputs": [
						{
							"internalType": "bool",
							"name": "",
							"type": "bool"
						}
					],
					"stateMutability": "nonpayable",
					"type": "function"
				},
				{
					"inputs": [
						{
							"internalType": "uint256",
							"name": "value",
							"type": "uint256"
						}
					],
					"name": "withdrawInvestment",
					"outputs": [],
					"stateMutability": "nonpayable",
					"type": "function"
				}
			],
			"devdoc": {
				"kind": "dev",
				"methods": {
					"allowance(address,address)": {
						"details": "See {IERC20-allowance}."
					},
					"approve(address,uint256)": {
						"details": "See {IERC20-approve}. NOTE: If `amount` is the maximum `uint256`, the allowance is not updated on `transferFrom`. This is semantically equivalent to an infinite approval. Requirements: - `spender` cannot be the zero address."
					},
					"balanceOf(address)": {
						"details": "See {IERC20-balanceOf}."
					},
					"decimals()": {
						"details": "Returns the number of decimals used to get its user representation. For example, if `decimals` equals `2`, a balance of `505` tokens should be displayed to a user as `5.05` (`505 / 10 ** 2`). Tokens usually opt for a value of 18, imitating the relationship between Ether and Wei. This is the value {ERC20} uses, unless this function is overridden; NOTE: This information is only used for _display_ purposes: it in no way affects any of the arithmetic of the contract, including {IERC20-balanceOf} and {IERC20-transfer}."
					},
					"decreaseAllowance(address,uint256)": {
						"details": "Atomically decreases the allowance granted to `spender` by the caller. This is an alternative to {approve} that can be used as a mitigation for problems described in {IERC20-approve}. Emits an {Approval} event indicating the updated allowance. Requirements: - `spender` cannot be the zero address. - `spender` must have allowance for the caller of at least `subtractedValue`."
					},
					"increaseAllowance(address,uint256)": {
						"details": "Atomically increases the allowance granted to `spender` by the caller. This is an alternative to {approve} that can be used as a mitigation for problems described in {IERC20-approve}. Emits an {Approval} event indicating the updated allowance. Requirements: - `spender` cannot be the zero address."
					},
					"name()": {
						"details": "Returns the name of the token."
					},
					"symbol()": {
						"details": "Returns the symbol of the token, usually a shorter version of the name."
					},
					"totalSupply()": {
						"details": "See {IERC20-totalSupply}."
					},
					"transfer(address,uint256)": {
						"details": "See {IERC20-transfer}. Requirements: - `to` cannot be the zero address. - the caller must have a balance of at least `amount`."
					},
					"transferFrom(address,address,uint256)": {
						"details": "See {IERC20-transferFrom}. Emits an {Approval} event indicating the updated allowance. This is not required by the EIP. See the note at the beginning of {ERC20}. NOTE: Does not update the allowance if the current allowance is the maximum `uint256`. Requirements: - `from` and `to` cannot be the zero address. - `from` must have a balance of at least `amount`. - the caller must have allowance for ``from``'s tokens of at least `amount`."
					}
				},
				"version": 1
			},
			"evm": {
				"assembly": "    /* \"contracts/Fundraising.sol\":1260:4482  contract Fundraising is ERC20 {... */\n  mstore(0x40, 0xa0)\n    /* \"contracts/Fundraising.sol\":1723:1728  false */\n  0x00\n    /* \"contracts/Fundraising.sol\":1702:1728  bool public paused = false */\n  0x09\n  exp(0x0100, 0x00)\n  dup2\n  sload\n  dup2\n  0xff\n  mul\n  not\n  and\n  swap1\n  dup4\n  iszero\n  iszero\n  mul\n  or\n  swap1\n  sstore\n  pop\n    /* \"contracts/Fundraising.sol\":1756:1761  false */\n  0x00\n    /* \"contracts/Fundraising.sol\":1735:1761  bool public killed = false */\n  0x09\n  exp(0x0100, 0x01)\n  dup2\n  sload\n  dup2\n  0xff\n  mul\n  not\n  and\n  swap1\n  dup4\n  iszero\n  iszero\n  mul\n  or\n  swap1\n  sstore\n  pop\n    /* \"contracts/Fundraising.sol\":1787:2152  constructor(uint256 amount, string memory name, string memory symbol, uint256 _dataAccessThreshold, address _admin, address coinAddress) ERC20(name, symbol) {... */\n  callvalue\n  dup1\n  iszero\n  tag_1\n  jumpi\n  0x00\n  dup1\n  revert\ntag_1:\n  pop\n  mload(0x40)\n  sub(codesize, bytecodeSize)\n  dup1\n  bytecodeSize\n  dup4\n  codecopy\n  dup2\n  dup2\n  add\n  0x40\n  mstore\n  dup2\n  add\n  swap1\n  tag_2\n  swap2\n  swap1\n  tag_3\n  jump\t// in\ntag_2:\n    /* \"contracts/Fundraising.sol\":1930:1934  name */\n  dup5\n    /* \"contracts/Fundraising.sol\":1936:1942  symbol */\n  dup5\n    /* \"@openzeppelin/contracts/token/ERC20/ERC20.sol\":2052:2057  name_ */\n  dup2\n    /* \"@openzeppelin/contracts/token/ERC20/ERC20.sol\":2044:2049  _name */\n  0x03\n    /* \"@openzeppelin/contracts/token/ERC20/ERC20.sol\":2044:2057  _name = name_ */\n  swap1\n  dup1\n  mload\n  swap1\n  0x20\n  add\n  swap1\n  tag_7\n  swap3\n  swap2\n  swap1\n  tag_8\n  jump\t// in\ntag_7:\n  pop\n    /* \"@openzeppelin/contracts/token/ERC20/ERC20.sol\":2077:2084  symbol_ */\n  dup1\n    /* \"@openzeppelin/contracts/token/ERC20/ERC20.sol\":2067:2074  _symbol */\n  0x04\n    /* \"@openzeppelin/contracts/token/ERC20/ERC20.sol\":2067:2084  _symbol = symbol_ */\n  swap1\n  dup1\n  mload\n  swap1\n  0x20\n  add\n  swap1\n  tag_9\n  swap3\n  swap2\n  swap1\n  tag_8\n  jump\t// in\ntag_9:\n  pop\n    /* \"@openzeppelin/contracts/token/ERC20/ERC20.sol\":1978:2091  constructor(string memory name_, string memory symbol_) {... */\n  pop\n  pop\n    /* \"contracts/Fundraising.sol\":1969:1975  amount */\n  dup6\n    /* \"contracts/Fundraising.sol\":1954:1966  targetAmount */\n  0x06\n    /* \"contracts/Fundraising.sol\":1954:1975  targetAmount = amount */\n  dup2\n  swap1\n  sstore\n  pop\n    /* \"contracts/Fundraising.sol\":2007:2027  _dataAccessThreshold */\n  dup3\n    /* \"contracts/Fundraising.sol\":1985:2004  dataAccessThreshold */\n  0x08\n    /* \"contracts/Fundraising.sol\":1985:2027  dataAccessThreshold = _dataAccessThreshold */\n  dup2\n  swap1\n  sstore\n  pop\n    /* \"contracts/Fundraising.sol\":2045:2051  _admin */\n  dup2\n    /* \"contracts/Fundraising.sol\":2037:2042  admin */\n  0x09\n  0x02\n    /* \"contracts/Fundraising.sol\":2037:2051  admin = _admin */\n  0x0100\n  exp\n  dup2\n  sload\n  dup2\n  0xffffffffffffffffffffffffffffffffffffffff\n  mul\n  not\n  and\n  swap1\n  dup4\n  0xffffffffffffffffffffffffffffffffffffffff\n  and\n  mul\n  or\n  swap1\n  sstore\n  pop\n    /* \"contracts/Fundraising.sol\":2083:2094  coinAddress */\n  dup1\n    /* \"contracts/Fundraising.sol\":2061:2065  coin */\n  0x05\n  0x00\n    /* \"contracts/Fundraising.sol\":2061:2095  coin = IERC20Extented(coinAddress) */\n  0x0100\n  exp\n  dup2\n  sload\n  dup2\n  0xffffffffffffffffffffffffffffffffffffffff\n  mul\n  not\n  and\n  swap1\n  dup4\n  0xffffffffffffffffffffffffffffffffffffffff\n  and\n  mul\n  or\n  swap1\n  sstore\n  pop\n    /* \"contracts/Fundraising.sol\":2134:2144  msg.sender */\n  caller\n    /* \"contracts/Fundraising.sol\":2105:2145  projectMarketplace = IERC721(msg.sender) */\n  0xffffffffffffffffffffffffffffffffffffffff\n  and\n  0x80\n  dup2\n  0xffffffffffffffffffffffffffffffffffffffff\n  and\n  0x60\n  shl\n  dup2\n  mstore\n  pop\n  pop\n    /* \"contracts/Fundraising.sol\":1787:2152  constructor(uint256 amount, string memory name, string memory symbol, uint256 _dataAccessThreshold, address _admin, address coinAddress) ERC20(name, symbol) {... */\n  pop\n  pop\n  pop\n  pop\n  pop\n  pop\n    /* \"contracts/Fundraising.sol\":1260:4482  contract Fundraising is ERC20 {... */\n  jump(tag_11)\ntag_8:\n  dup3\n  dup1\n  sload\n  tag_12\n  swap1\n  tag_13\n  jump\t// in\ntag_12:\n  swap1\n  0x00\n  mstore\n  keccak256(0x00, 0x20)\n  swap1\n  0x1f\n  add\n  0x20\n  swap1\n  div\n  dup2\n  add\n  swap3\n  dup3\n  tag_15\n  jumpi\n  0x00\n  dup6\n  sstore\n  jump(tag_14)\ntag_15:\n  dup3\n  0x1f\n  lt\n  tag_16\n  jumpi\n  dup1\n  mload\n  not(0xff)\n  and\n  dup4\n  dup1\n  add\n  or\n  dup6\n  sstore\n  jump(tag_14)\ntag_16:\n  dup3\n  dup1\n  add\n  0x01\n  add\n  dup6\n  sstore\n  dup3\n  iszero\n  tag_14\n  jumpi\n  swap2\n  dup3\n  add\ntag_17:\n  dup3\n  dup2\n  gt\n  iszero\n  tag_18\n  jumpi\n  dup3\n  mload\n  dup3\n  sstore\n  swap2\n  0x20\n  add\n  swap2\n  swap1\n  0x01\n  add\n  swap1\n  jump(tag_17)\ntag_18:\ntag_14:\n  pop\n  swap1\n  pop\n  tag_19\n  swap2\n  swap1\n  tag_20\n  jump\t// in\ntag_19:\n  pop\n  swap1\n  jump\t// out\ntag_20:\ntag_21:\n  dup1\n  dup3\n  gt\n  iszero\n  tag_22\n  jumpi\n  0x00\n  dup2\n  0x00\n  swap1\n  sstore\n  pop\n  0x01\n  add\n  jump(tag_21)\ntag_22:\n  pop\n  swap1\n  jump\t// out\n    /* \"#utility.yul\":7:428   */\ntag_24:\n    /* \"#utility.yul\":96:101   */\n  0x00\n    /* \"#utility.yul\":121:187   */\n  tag_26\n    /* \"#utility.yul\":137:186   */\n  tag_27\n    /* \"#utility.yul\":179:185   */\n  dup5\n    /* \"#utility.yul\":137:186   */\n  tag_28\n  jump\t// in\ntag_27:\n    /* \"#utility.yul\":121:187   */\n  tag_29\n  jump\t// in\ntag_26:\n    /* \"#utility.yul\":112:187   */\n  swap1\n  pop\n    /* \"#utility.yul\":210:216   */\n  dup3\n    /* \"#utility.yul\":203:208   */\n  dup2\n    /* \"#utility.yul\":196:217   */\n  mstore\n    /* \"#utility.yul\":248:252   */\n  0x20\n    /* \"#utility.yul\":241:246   */\n  dup2\n    /* \"#utility.yul\":237:253   */\n  add\n    /* \"#utility.yul\":286:289   */\n  dup5\n    /* \"#utility.yul\":277:283   */\n  dup5\n    /* \"#utility.yul\":272:275   */\n  dup5\n    /* \"#utility.yul\":268:284   */\n  add\n    /* \"#utility.yul\":265:290   */\n  gt\n    /* \"#utility.yul\":262:374   */\n  iszero\n  tag_30\n  jumpi\n    /* \"#utility.yul\":293:372   */\n  tag_31\n  tag_32\n  jump\t// in\ntag_31:\n    /* \"#utility.yul\":262:374   */\ntag_30:\n    /* \"#utility.yul\":383:422   */\n  tag_33\n    /* \"#utility.yul\":415:421   */\n  dup5\n    /* \"#utility.yul\":410:413   */\n  dup3\n    /* \"#utility.yul\":405:408   */\n  dup6\n    /* \"#utility.yul\":383:422   */\n  tag_34\n  jump\t// in\ntag_33:\n    /* \"#utility.yul\":102:428   */\n  pop\n    /* \"#utility.yul\":7:428   */\n  swap4\n  swap3\n  pop\n  pop\n  pop\n  jump\t// out\n    /* \"#utility.yul\":434:577   */\ntag_35:\n    /* \"#utility.yul\":491:496   */\n  0x00\n    /* \"#utility.yul\":522:528   */\n  dup2\n    /* \"#utility.yul\":516:529   */\n  mload\n    /* \"#utility.yul\":507:529   */\n  swap1\n  pop\n    /* \"#utility.yul\":538:571   */\n  tag_37\n    /* \"#utility.yul\":565:570   */\n  dup2\n    /* \"#utility.yul\":538:571   */\n  tag_38\n  jump\t// in\ntag_37:\n    /* \"#utility.yul\":434:577   */\n  swap3\n  swap2\n  pop\n  pop\n  jump\t// out\n    /* \"#utility.yul\":597:952   */\ntag_39:\n    /* \"#utility.yul\":664:669   */\n  0x00\n    /* \"#utility.yul\":713:716   */\n  dup3\n    /* \"#utility.yul\":706:710   */\n  0x1f\n    /* \"#utility.yul\":698:704   */\n  dup4\n    /* \"#utility.yul\":694:711   */\n  add\n    /* \"#utility.yul\":690:717   */\n  slt\n    /* \"#utility.yul\":680:802   */\n  tag_41\n  jumpi\n    /* \"#utility.yul\":721:800   */\n  tag_42\n  tag_43\n  jump\t// in\ntag_42:\n    /* \"#utility.yul\":680:802   */\ntag_41:\n    /* \"#utility.yul\":831:837   */\n  dup2\n    /* \"#utility.yul\":825:838   */\n  mload\n    /* \"#utility.yul\":856:946   */\n  tag_44\n    /* \"#utility.yul\":942:945   */\n  dup5\n    /* \"#utility.yul\":934:940   */\n  dup3\n    /* \"#utility.yul\":927:931   */\n  0x20\n    /* \"#utility.yul\":919:925   */\n  dup7\n    /* \"#utility.yul\":915:932   */\n  add\n    /* \"#utility.yul\":856:946   */\n  tag_24\n  jump\t// in\ntag_44:\n    /* \"#utility.yul\":847:946   */\n  swap2\n  pop\n    /* \"#utility.yul\":670:952   */\n  pop\n    /* \"#utility.yul\":597:952   */\n  swap3\n  swap2\n  pop\n  pop\n  jump\t// out\n    /* \"#utility.yul\":958:1101   */\ntag_45:\n    /* \"#utility.yul\":1015:1020   */\n  0x00\n    /* \"#utility.yul\":1046:1052   */\n  dup2\n    /* \"#utility.yul\":1040:1053   */\n  mload\n    /* \"#utility.yul\":1031:1053   */\n  swap1\n  pop\n    /* \"#utility.yul\":1062:1095   */\n  tag_47\n    /* \"#utility.yul\":1089:1094   */\n  dup2\n    /* \"#utility.yul\":1062:1095   */\n  tag_48\n  jump\t// in\ntag_47:\n    /* \"#utility.yul\":958:1101   */\n  swap3\n  swap2\n  pop\n  pop\n  jump\t// out\n    /* \"#utility.yul\":1107:2587   */\ntag_3:\n    /* \"#utility.yul\":1242:1248   */\n  0x00\n    /* \"#utility.yul\":1250:1256   */\n  dup1\n    /* \"#utility.yul\":1258:1264   */\n  0x00\n    /* \"#utility.yul\":1266:1272   */\n  dup1\n    /* \"#utility.yul\":1274:1280   */\n  0x00\n    /* \"#utility.yul\":1282:1288   */\n  dup1\n    /* \"#utility.yul\":1331:1334   */\n  0xc0\n    /* \"#utility.yul\":1319:1328   */\n  dup8\n    /* \"#utility.yul\":1310:1317   */\n  dup10\n    /* \"#utility.yul\":1306:1329   */\n  sub\n    /* \"#utility.yul\":1302:1335   */\n  slt\n    /* \"#utility.yul\":1299:1419   */\n  iszero\n  tag_50\n  jumpi\n    /* \"#utility.yul\":1338:1417   */\n  tag_51\n  tag_52\n  jump\t// in\ntag_51:\n    /* \"#utility.yul\":1299:1419   */\ntag_50:\n    /* \"#utility.yul\":1458:1459   */\n  0x00\n    /* \"#utility.yul\":1483:1547   */\n  tag_53\n    /* \"#utility.yul\":1539:1546   */\n  dup10\n    /* \"#utility.yul\":1530:1536   */\n  dup3\n    /* \"#utility.yul\":1519:1528   */\n  dup11\n    /* \"#utility.yul\":1515:1537   */\n  add\n    /* \"#utility.yul\":1483:1547   */\n  tag_45\n  jump\t// in\ntag_53:\n    /* \"#utility.yul\":1473:1547   */\n  swap7\n  pop\n    /* \"#utility.yul\":1429:1557   */\n  pop\n    /* \"#utility.yul\":1617:1619   */\n  0x20\n    /* \"#utility.yul\":1606:1615   */\n  dup8\n    /* \"#utility.yul\":1602:1620   */\n  add\n    /* \"#utility.yul\":1596:1621   */\n  mload\n    /* \"#utility.yul\":1648:1666   */\n  0xffffffffffffffff\n    /* \"#utility.yul\":1640:1646   */\n  dup2\n    /* \"#utility.yul\":1637:1667   */\n  gt\n    /* \"#utility.yul\":1634:1751   */\n  iszero\n  tag_54\n  jumpi\n    /* \"#utility.yul\":1670:1749   */\n  tag_55\n  tag_56\n  jump\t// in\ntag_55:\n    /* \"#utility.yul\":1634:1751   */\ntag_54:\n    /* \"#utility.yul\":1775:1849   */\n  tag_57\n    /* \"#utility.yul\":1841:1848   */\n  dup10\n    /* \"#utility.yul\":1832:1838   */\n  dup3\n    /* \"#utility.yul\":1821:1830   */\n  dup11\n    /* \"#utility.yul\":1817:1839   */\n  add\n    /* \"#utility.yul\":1775:1849   */\n  tag_39\n  jump\t// in\ntag_57:\n    /* \"#utility.yul\":1765:1849   */\n  swap6\n  pop\n    /* \"#utility.yul\":1567:1859   */\n  pop\n    /* \"#utility.yul\":1919:1921   */\n  0x40\n    /* \"#utility.yul\":1908:1917   */\n  dup8\n    /* \"#utility.yul\":1904:1922   */\n  add\n    /* \"#utility.yul\":1898:1923   */\n  mload\n    /* \"#utility.yul\":1950:1968   */\n  0xffffffffffffffff\n    /* \"#utility.yul\":1942:1948   */\n  dup2\n    /* \"#utility.yul\":1939:1969   */\n  gt\n    /* \"#utility.yul\":1936:2053   */\n  iszero\n  tag_58\n  jumpi\n    /* \"#utility.yul\":1972:2051   */\n  tag_59\n  tag_56\n  jump\t// in\ntag_59:\n    /* \"#utility.yul\":1936:2053   */\ntag_58:\n    /* \"#utility.yul\":2077:2151   */\n  tag_60\n    /* \"#utility.yul\":2143:2150   */\n  dup10\n    /* \"#utility.yul\":2134:2140   */\n  dup3\n    /* \"#utility.yul\":2123:2132   */\n  dup11\n    /* \"#utility.yul\":2119:2141   */\n  add\n    /* \"#utility.yul\":2077:2151   */\n  tag_39\n  jump\t// in\ntag_60:\n    /* \"#utility.yul\":2067:2151   */\n  swap5\n  pop\n    /* \"#utility.yul\":1869:2161   */\n  pop\n    /* \"#utility.yul\":2200:2202   */\n  0x60\n    /* \"#utility.yul\":2226:2290   */\n  tag_61\n    /* \"#utility.yul\":2282:2289   */\n  dup10\n    /* \"#utility.yul\":2273:2279   */\n  dup3\n    /* \"#utility.yul\":2262:2271   */\n  dup11\n    /* \"#utility.yul\":2258:2280   */\n  add\n    /* \"#utility.yul\":2226:2290   */\n  tag_45\n  jump\t// in\ntag_61:\n    /* \"#utility.yul\":2216:2290   */\n  swap4\n  pop\n    /* \"#utility.yul\":2171:2300   */\n  pop\n    /* \"#utility.yul\":2339:2342   */\n  0x80\n    /* \"#utility.yul\":2366:2430   */\n  tag_62\n    /* \"#utility.yul\":2422:2429   */\n  dup10\n    /* \"#utility.yul\":2413:2419   */\n  dup3\n    /* \"#utility.yul\":2402:2411   */\n  dup11\n    /* \"#utility.yul\":2398:2420   */\n  add\n    /* \"#utility.yul\":2366:2430   */\n  tag_35\n  jump\t// in\ntag_62:\n    /* \"#utility.yul\":2356:2430   */\n  swap3\n  pop\n    /* \"#utility.yul\":2310:2440   */\n  pop\n    /* \"#utility.yul\":2479:2482   */\n  0xa0\n    /* \"#utility.yul\":2506:2570   */\n  tag_63\n    /* \"#utility.yul\":2562:2569   */\n  dup10\n    /* \"#utility.yul\":2553:2559   */\n  dup3\n    /* \"#utility.yul\":2542:2551   */\n  dup11\n    /* \"#utility.yul\":2538:2560   */\n  add\n    /* \"#utility.yul\":2506:2570   */\n  tag_35\n  jump\t// in\ntag_63:\n    /* \"#utility.yul\":2496:2570   */\n  swap2\n  pop\n    /* \"#utility.yul\":2450:2580   */\n  pop\n    /* \"#utility.yul\":1107:2587   */\n  swap3\n  swap6\n  pop\n  swap3\n  swap6\n  pop\n  swap3\n  swap6\n  jump\t// out\n    /* \"#utility.yul\":2593:2722   */\ntag_29:\n    /* \"#utility.yul\":2627:2633   */\n  0x00\n    /* \"#utility.yul\":2654:2674   */\n  tag_65\n  tag_66\n  jump\t// in\ntag_65:\n    /* \"#utility.yul\":2644:2674   */\n  swap1\n  pop\n    /* \"#utility.yul\":2683:2716   */\n  tag_67\n    /* \"#utility.yul\":2711:2715   */\n  dup3\n    /* \"#utility.yul\":2703:2709   */\n  dup3\n    /* \"#utility.yul\":2683:2716   */\n  tag_68\n  jump\t// in\ntag_67:\n    /* \"#utility.yul\":2593:2722   */\n  swap2\n  swap1\n  pop\n  jump\t// out\n    /* \"#utility.yul\":2728:2803   */\ntag_66:\n    /* \"#utility.yul\":2761:2767   */\n  0x00\n    /* \"#utility.yul\":2794:2796   */\n  0x40\n    /* \"#utility.yul\":2788:2797   */\n  mload\n    /* \"#utility.yul\":2778:2797   */\n  swap1\n  pop\n    /* \"#utility.yul\":2728:2803   */\n  swap1\n  jump\t// out\n    /* \"#utility.yul\":2809:3117   */\ntag_28:\n    /* \"#utility.yul\":2871:2875   */\n  0x00\n    /* \"#utility.yul\":2961:2979   */\n  0xffffffffffffffff\n    /* \"#utility.yul\":2953:2959   */\n  dup3\n    /* \"#utility.yul\":2950:2980   */\n  gt\n    /* \"#utility.yul\":2947:3003   */\n  iszero\n  tag_71\n  jumpi\n    /* \"#utility.yul\":2983:3001   */\n  tag_72\n  tag_73\n  jump\t// in\ntag_72:\n    /* \"#utility.yul\":2947:3003   */\ntag_71:\n    /* \"#utility.yul\":3021:3050   */\n  tag_74\n    /* \"#utility.yul\":3043:3049   */\n  dup3\n    /* \"#utility.yul\":3021:3050   */\n  tag_75\n  jump\t// in\ntag_74:\n    /* \"#utility.yul\":3013:3050   */\n  swap1\n  pop\n    /* \"#utility.yul\":3105:3109   */\n  0x20\n    /* \"#utility.yul\":3099:3103   */\n  dup2\n    /* \"#utility.yul\":3095:3110   */\n  add\n    /* \"#utility.yul\":3087:3110   */\n  swap1\n  pop\n    /* \"#utility.yul\":2809:3117   */\n  swap2\n  swap1\n  pop\n  jump\t// out\n    /* \"#utility.yul\":3123:3219   */\ntag_76:\n    /* \"#utility.yul\":3160:3167   */\n  0x00\n    /* \"#utility.yul\":3189:3213   */\n  tag_78\n    /* \"#utility.yul\":3207:3212   */\n  dup3\n    /* \"#utility.yul\":3189:3213   */\n  tag_79\n  jump\t// in\ntag_78:\n    /* \"#utility.yul\":3178:3213   */\n  swap1\n  pop\n    /* \"#utility.yul\":3123:3219   */\n  swap2\n  swap1\n  pop\n  jump\t// out\n    /* \"#utility.yul\":3225:3351   */\ntag_79:\n    /* \"#utility.yul\":3262:3269   */\n  0x00\n    /* \"#utility.yul\":3302:3344   */\n  0xffffffffffffffffffffffffffffffffffffffff\n    /* \"#utility.yul\":3295:3300   */\n  dup3\n    /* \"#utility.yul\":3291:3345   */\n  and\n    /* \"#utility.yul\":3280:3345   */\n  swap1\n  pop\n    /* \"#utility.yul\":3225:3351   */\n  swap2\n  swap1\n  pop\n  jump\t// out\n    /* \"#utility.yul\":3357:3434   */\ntag_81:\n    /* \"#utility.yul\":3394:3401   */\n  0x00\n    /* \"#utility.yul\":3423:3428   */\n  dup2\n    /* \"#utility.yul\":3412:3428   */\n  swap1\n  pop\n    /* \"#utility.yul\":3357:3434   */\n  swap2\n  swap1\n  pop\n  jump\t// out\n    /* \"#utility.yul\":3440:3747   */\ntag_34:\n    /* \"#utility.yul\":3508:3509   */\n  0x00\n    /* \"#utility.yul\":3518:3631   */\ntag_84:\n    /* \"#utility.yul\":3532:3538   */\n  dup4\n    /* \"#utility.yul\":3529:3530   */\n  dup2\n    /* \"#utility.yul\":3526:3539   */\n  lt\n    /* \"#utility.yul\":3518:3631   */\n  iszero\n  tag_86\n  jumpi\n    /* \"#utility.yul\":3617:3618   */\n  dup1\n    /* \"#utility.yul\":3612:3615   */\n  dup3\n    /* \"#utility.yul\":3608:3619   */\n  add\n    /* \"#utility.yul\":3602:3620   */\n  mload\n    /* \"#utility.yul\":3598:3599   */\n  dup2\n    /* \"#utility.yul\":3593:3596   */\n  dup5\n    /* \"#utility.yul\":3589:3600   */\n  add\n    /* \"#utility.yul\":3582:3621   */\n  mstore\n    /* \"#utility.yul\":3554:3556   */\n  0x20\n    /* \"#utility.yul\":3551:3552   */\n  dup2\n    /* \"#utility.yul\":3547:3557   */\n  add\n    /* \"#utility.yul\":3542:3557   */\n  swap1\n  pop\n    /* \"#utility.yul\":3518:3631   */\n  jump(tag_84)\ntag_86:\n    /* \"#utility.yul\":3649:3655   */\n  dup4\n    /* \"#utility.yul\":3646:3647   */\n  dup2\n    /* \"#utility.yul\":3643:3656   */\n  gt\n    /* \"#utility.yul\":3640:3741   */\n  iszero\n  tag_87\n  jumpi\n    /* \"#utility.yul\":3729:3730   */\n  0x00\n    /* \"#utility.yul\":3720:3726   */\n  dup5\n    /* \"#utility.yul\":3715:3718   */\n  dup5\n    /* \"#utility.yul\":3711:3727   */\n  add\n    /* \"#utility.yul\":3704:3731   */\n  mstore\n    /* \"#utility.yul\":3640:3741   */\ntag_87:\n    /* \"#utility.yul\":3489:3747   */\n  pop\n    /* \"#utility.yul\":3440:3747   */\n  pop\n  pop\n  pop\n  jump\t// out\n    /* \"#utility.yul\":3753:4073   */\ntag_13:\n    /* \"#utility.yul\":3797:3803   */\n  0x00\n    /* \"#utility.yul\":3834:3835   */\n  0x02\n    /* \"#utility.yul\":3828:3832   */\n  dup3\n    /* \"#utility.yul\":3824:3836   */\n  div\n    /* \"#utility.yul\":3814:3836   */\n  swap1\n  pop\n    /* \"#utility.yul\":3881:3882   */\n  0x01\n    /* \"#utility.yul\":3875:3879   */\n  dup3\n    /* \"#utility.yul\":3871:3883   */\n  and\n    /* \"#utility.yul\":3902:3920   */\n  dup1\n    /* \"#utility.yul\":3892:3973   */\n  tag_89\n  jumpi\n    /* \"#utility.yul\":3958:3962   */\n  0x7f\n    /* \"#utility.yul\":3950:3956   */\n  dup3\n    /* \"#utility.yul\":3946:3963   */\n  and\n    /* \"#utility.yul\":3936:3963   */\n  swap2\n  pop\n    /* \"#utility.yul\":3892:3973   */\ntag_89:\n    /* \"#utility.yul\":4020:4022   */\n  0x20\n    /* \"#utility.yul\":4012:4018   */\n  dup3\n    /* \"#utility.yul\":4009:4023   */\n  lt\n    /* \"#utility.yul\":3989:4007   */\n  dup2\n    /* \"#utility.yul\":3986:4024   */\n  eq\n    /* \"#utility.yul\":3983:4067   */\n  iszero\n  tag_90\n  jumpi\n    /* \"#utility.yul\":4039:4057   */\n  tag_91\n  tag_92\n  jump\t// in\ntag_91:\n    /* \"#utility.yul\":3983:4067   */\ntag_90:\n    /* \"#utility.yul\":3804:4073   */\n  pop\n    /* \"#utility.yul\":3753:4073   */\n  swap2\n  swap1\n  pop\n  jump\t// out\n    /* \"#utility.yul\":4079:4360   */\ntag_68:\n    /* \"#utility.yul\":4162:4189   */\n  tag_94\n    /* \"#utility.yul\":4184:4188   */\n  dup3\n    /* \"#utility.yul\":4162:4189   */\n  tag_75\n  jump\t// in\ntag_94:\n    /* \"#utility.yul\":4154:4160   */\n  dup2\n    /* \"#utility.yul\":4150:4190   */\n  add\n    /* \"#utility.yul\":4292:4298   */\n  dup2\n    /* \"#utility.yul\":4280:4290   */\n  dup2\n    /* \"#utility.yul\":4277:4299   */\n  lt\n    /* \"#utility.yul\":4256:4274   */\n  0xffffffffffffffff\n    /* \"#utility.yul\":4244:4254   */\n  dup3\n    /* \"#utility.yul\":4241:4275   */\n  gt\n    /* \"#utility.yul\":4238:4300   */\n  or\n    /* \"#utility.yul\":4235:4323   */\n  iszero\n  tag_95\n  jumpi\n    /* \"#utility.yul\":4303:4321   */\n  tag_96\n  tag_73\n  jump\t// in\ntag_96:\n    /* \"#utility.yul\":4235:4323   */\ntag_95:\n    /* \"#utility.yul\":4343:4353   */\n  dup1\n    /* \"#utility.yul\":4339:4341   */\n  0x40\n    /* \"#utility.yul\":4332:4354   */\n  mstore\n    /* \"#utility.yul\":4122:4360   */\n  pop\n    /* \"#utility.yul\":4079:4360   */\n  pop\n  pop\n  jump\t// out\n    /* \"#utility.yul\":4366:4546   */\ntag_92:\n    /* \"#utility.yul\":4414:4491   */\n  0x4e487b7100000000000000000000000000000000000000000000000000000000\n    /* \"#utility.yul\":4411:4412   */\n  0x00\n    /* \"#utility.yul\":4404:4492   */\n  mstore\n    /* \"#utility.yul\":4511:4515   */\n  0x22\n    /* \"#utility.yul\":4508:4509   */\n  0x04\n    /* \"#utility.yul\":4501:4516   */\n  mstore\n    /* \"#utility.yul\":4535:4539   */\n  0x24\n    /* \"#utility.yul\":4532:4533   */\n  0x00\n    /* \"#utility.yul\":4525:4540   */\n  revert\n    /* \"#utility.yul\":4552:4732   */\ntag_73:\n    /* \"#utility.yul\":4600:4677   */\n  0x4e487b7100000000000000000000000000000000000000000000000000000000\n    /* \"#utility.yul\":4597:4598   */\n  0x00\n    /* \"#utility.yul\":4590:4678   */\n  mstore\n    /* \"#utility.yul\":4697:4701   */\n  0x41\n    /* \"#utility.yul\":4694:4695   */\n  0x04\n    /* \"#utility.yul\":4687:4702   */\n  mstore\n    /* \"#utility.yul\":4721:4725   */\n  0x24\n    /* \"#utility.yul\":4718:4719   */\n  0x00\n    /* \"#utility.yul\":4711:4726   */\n  revert\n    /* \"#utility.yul\":4738:4855   */\ntag_43:\n    /* \"#utility.yul\":4847:4848   */\n  0x00\n    /* \"#utility.yul\":4844:4845   */\n  dup1\n    /* \"#utility.yul\":4837:4849   */\n  revert\n    /* \"#utility.yul\":4861:4978   */\ntag_32:\n    /* \"#utility.yul\":4970:4971   */\n  0x00\n    /* \"#utility.yul\":4967:4968   */\n  dup1\n    /* \"#utility.yul\":4960:4972   */\n  revert\n    /* \"#utility.yul\":4984:5101   */\ntag_56:\n    /* \"#utility.yul\":5093:5094   */\n  0x00\n    /* \"#utility.yul\":5090:5091   */\n  dup1\n    /* \"#utility.yul\":5083:5095   */\n  revert\n    /* \"#utility.yul\":5107:5224   */\ntag_52:\n    /* \"#utility.yul\":5216:5217   */\n  0x00\n    /* \"#utility.yul\":5213:5214   */\n  dup1\n    /* \"#utility.yul\":5206:5218   */\n  revert\n    /* \"#utility.yul\":5230:5332   */\ntag_75:\n    /* \"#utility.yul\":5271:5277   */\n  0x00\n    /* \"#utility.yul\":5322:5324   */\n  0x1f\n    /* \"#utility.yul\":5318:5325   */\n  not\n    /* \"#utility.yul\":5313:5315   */\n  0x1f\n    /* \"#utility.yul\":5306:5311   */\n  dup4\n    /* \"#utility.yul\":5302:5316   */\n  add\n    /* \"#utility.yul\":5298:5326   */\n  and\n    /* \"#utility.yul\":5288:5326   */\n  swap1\n  pop\n    /* \"#utility.yul\":5230:5332   */\n  swap2\n  swap1\n  pop\n  jump\t// out\n    /* \"#utility.yul\":5338:5460   */\ntag_38:\n    /* \"#utility.yul\":5411:5435   */\n  tag_105\n    /* \"#utility.yul\":5429:5434   */\n  dup2\n    /* \"#utility.yul\":5411:5435   */\n  tag_76\n  jump\t// in\ntag_105:\n    /* \"#utility.yul\":5404:5409   */\n  dup2\n    /* \"#utility.yul\":5401:5436   */\n  eq\n    /* \"#utility.yul\":5391:5454   */\n  tag_106\n  jumpi\n    /* \"#utility.yul\":5450:5451   */\n  0x00\n    /* \"#utility.yul\":5447:5448   */\n  dup1\n    /* \"#utility.yul\":5440:5452   */\n  revert\n    /* \"#utility.yul\":5391:5454   */\ntag_106:\n    /* \"#utility.yul\":5338:5460   */\n  pop\n  jump\t// out\n    /* \"#utility.yul\":5466:5588   */\ntag_48:\n    /* \"#utility.yul\":5539:5563   */\n  tag_108\n    /* \"#utility.yul\":5557:5562   */\n  dup2\n    /* \"#utility.yul\":5539:5563   */\n  tag_81\n  jump\t// in\ntag_108:\n    /* \"#utility.yul\":5532:5537   */\n  dup2\n    /* \"#utility.yul\":5529:5564   */\n  eq\n    /* \"#utility.yul\":5519:5582   */\n  tag_109\n  jumpi\n    /* \"#utility.yul\":5578:5579   */\n  0x00\n    /* \"#utility.yul\":5575:5576   */\n  dup1\n    /* \"#utility.yul\":5568:5580   */\n  revert\n    /* \"#utility.yul\":5519:5582   */\ntag_109:\n    /* \"#utility.yul\":5466:5588   */\n  pop\n  jump\t// out\n    /* \"contracts/Fundraising.sol\":1260:4482  contract Fundraising is ERC20 {... */\ntag_11:\n  shr(0x60, mload(0x80))\n  codecopy(0x00, dataOffset(sub_0), dataSize(sub_0))\n  0x00\n  assignImmutable(\"0x49847a2314cecfe9e5127b41702adba4edb0260cff60a0a5f30c53ee5905efea\")\n  return(0x00, dataSize(sub_0))\nstop\n\nsub_0: assembly {\n        /* \"contracts/Fundraising.sol\":1260:4482  contract Fundraising is ERC20 {... */\n      mstore(0x40, 0x80)\n      callvalue\n      dup1\n      iszero\n      tag_1\n      jumpi\n      0x00\n      dup1\n      revert\n    tag_1:\n      pop\n      jumpi(tag_2, lt(calldatasize, 0x04))\n      shr(0xe0, calldataload(0x00))\n      dup1\n      0x41c0e1b5\n      gt\n      tag_28\n      jumpi\n      dup1\n      0x8456cb59\n      gt\n      tag_29\n      jumpi\n      dup1\n      0xa457c2d7\n      gt\n      tag_30\n      jumpi\n      dup1\n      0xa457c2d7\n      eq\n      tag_24\n      jumpi\n      dup1\n      0xa9059cbb\n      eq\n      tag_25\n      jumpi\n      dup1\n      0xbdf89682\n      eq\n      tag_26\n      jumpi\n      dup1\n      0xdd62ed3e\n      eq\n      tag_27\n      jumpi\n      jump(tag_2)\n    tag_30:\n      dup1\n      0x8456cb59\n      eq\n      tag_21\n      jumpi\n      dup1\n      0x953b8fb8\n      eq\n      tag_22\n      jumpi\n      dup1\n      0x95d89b41\n      eq\n      tag_23\n      jumpi\n      jump(tag_2)\n    tag_29:\n      dup1\n      0x41c0e1b5\n      eq\n      tag_15\n      jumpi\n      dup1\n      0x5c975abb\n      eq\n      tag_16\n      jumpi\n      dup1\n      0x70a08231\n      eq\n      tag_17\n      jumpi\n      dup1\n      0x77262d38\n      eq\n      tag_18\n      jumpi\n      dup1\n      0x7b3e5e7b\n      eq\n      tag_19\n      jumpi\n      dup1\n      0x7e0d73d4\n      eq\n      tag_20\n      jumpi\n      jump(tag_2)\n    tag_28:\n      dup1\n      0x1f3a0e41\n      gt\n      tag_31\n      jumpi\n      dup1\n      0x1f3a0e41\n      eq\n      tag_9\n      jumpi\n      dup1\n      0x2037fcbf\n      eq\n      tag_10\n      jumpi\n      dup1\n      0x23b872dd\n      eq\n      tag_11\n      jumpi\n      dup1\n      0x2afcf480\n      eq\n      tag_12\n      jumpi\n      dup1\n      0x313ce567\n      eq\n      tag_13\n      jumpi\n      dup1\n      0x39509351\n      eq\n      tag_14\n      jumpi\n      jump(tag_2)\n    tag_31:\n      dup1\n      0x06fdde03\n      eq\n      tag_3\n      jumpi\n      dup1\n      0x06febe00\n      eq\n      tag_4\n      jumpi\n      dup1\n      0x095ea7b3\n      eq\n      tag_5\n      jumpi\n      dup1\n      0x11df9995\n      eq\n      tag_6\n      jumpi\n      dup1\n      0x150b7a02\n      eq\n      tag_7\n      jumpi\n      dup1\n      0x18160ddd\n      eq\n      tag_8\n      jumpi\n    tag_2:\n      0x00\n      dup1\n      revert\n        /* \"@openzeppelin/contracts/token/ERC20/ERC20.sol\":2156:2254  function name() public view virtual override returns (string memory) {... */\n    tag_3:\n      tag_32\n      tag_33\n      jump\t// in\n    tag_32:\n      mload(0x40)\n      tag_34\n      swap2\n      swap1\n      tag_35\n      jump\t// in\n    tag_34:\n      mload(0x40)\n      dup1\n      swap2\n      sub\n      swap1\n      return\n        /* \"contracts/Fundraising.sol\":1577:1611  uint256 public dataAccessThreshold */\n    tag_4:\n      tag_36\n      tag_37\n      jump\t// in\n    tag_36:\n      mload(0x40)\n      tag_38\n      swap2\n      swap1\n      tag_39\n      jump\t// in\n    tag_38:\n      mload(0x40)\n      dup1\n      swap2\n      sub\n      swap1\n      return\n        /* \"@openzeppelin/contracts/token/ERC20/ERC20.sol\":4433:4630  function approve(address spender, uint256 amount) public virtual override returns (bool) {... */\n    tag_5:\n      tag_40\n      0x04\n      dup1\n      calldatasize\n      sub\n      dup2\n      add\n      swap1\n      tag_41\n      swap2\n      swap1\n      tag_42\n      jump\t// in\n    tag_41:\n      tag_43\n      jump\t// in\n    tag_40:\n      mload(0x40)\n      tag_44\n      swap2\n      swap1\n      tag_45\n      jump\t// in\n    tag_44:\n      mload(0x40)\n      dup1\n      swap2\n      sub\n      swap1\n      return\n        /* \"contracts/Fundraising.sol\":1296:1322  IERC20Extented public coin */\n    tag_6:\n      tag_46\n      tag_47\n      jump\t// in\n    tag_46:\n      mload(0x40)\n      tag_48\n      swap2\n      swap1\n      tag_49\n      jump\t// in\n    tag_48:\n      mload(0x40)\n      dup1\n      swap2\n      sub\n      swap1\n      return\n        /* \"contracts/Fundraising.sol\":2459:2624  function onERC721Received(address, address, uint256, bytes calldata) external pure returns (bytes4) {... */\n    tag_7:\n      tag_50\n      0x04\n      dup1\n      calldatasize\n      sub\n      dup2\n      add\n      swap1\n      tag_51\n      swap2\n      swap1\n      tag_52\n      jump\t// in\n    tag_51:\n      tag_53\n      jump\t// in\n    tag_50:\n      mload(0x40)\n      tag_54\n      swap2\n      swap1\n      tag_55\n      jump\t// in\n    tag_54:\n      mload(0x40)\n      dup1\n      swap2\n      sub\n      swap1\n      return\n        /* \"@openzeppelin/contracts/token/ERC20/ERC20.sol\":3244:3350  function totalSupply() public view virtual override returns (uint256) {... */\n    tag_8:\n      tag_56\n      tag_57\n      jump\t// in\n    tag_56:\n      mload(0x40)\n      tag_58\n      swap2\n      swap1\n      tag_39\n      jump\t// in\n    tag_58:\n      mload(0x40)\n      dup1\n      swap2\n      sub\n      swap1\n      return\n        /* \"contracts/Fundraising.sol\":1735:1761  bool public killed = false */\n    tag_9:\n      tag_59\n      tag_60\n      jump\t// in\n    tag_59:\n      mload(0x40)\n      tag_61\n      swap2\n      swap1\n      tag_45\n      jump\t// in\n    tag_61:\n      mload(0x40)\n      dup1\n      swap2\n      sub\n      swap1\n      return\n        /* \"contracts/Fundraising.sol\":3678:4086  function withdrawInvestment(uint256 value) external {... */\n    tag_10:\n      tag_62\n      0x04\n      dup1\n      calldatasize\n      sub\n      dup2\n      add\n      swap1\n      tag_63\n      swap2\n      swap1\n      tag_64\n      jump\t// in\n    tag_63:\n      tag_65\n      jump\t// in\n    tag_62:\n      stop\n        /* \"@openzeppelin/contracts/token/ERC20/ERC20.sol\":5192:5478  function transferFrom(... */\n    tag_11:\n      tag_66\n      0x04\n      dup1\n      calldatasize\n      sub\n      dup2\n      add\n      swap1\n      tag_67\n      swap2\n      swap1\n      tag_68\n      jump\t// in\n    tag_67:\n      tag_69\n      jump\t// in\n    tag_66:\n      mload(0x40)\n      tag_70\n      swap2\n      swap1\n      tag_45\n      jump\t// in\n    tag_70:\n      mload(0x40)\n      dup1\n      swap2\n      sub\n      swap1\n      return\n        /* \"contracts/Fundraising.sol\":3040:3575  function invest(uint256 value) external {... */\n    tag_12:\n      tag_71\n      0x04\n      dup1\n      calldatasize\n      sub\n      dup2\n      add\n      swap1\n      tag_72\n      swap2\n      swap1\n      tag_64\n      jump\t// in\n    tag_72:\n      tag_73\n      jump\t// in\n    tag_71:\n      stop\n        /* \"contracts/Fundraising.sol\":2158:2262  function decimals() public view virtual override returns (uint8) {... */\n    tag_13:\n      tag_74\n      tag_75\n      jump\t// in\n    tag_74:\n      mload(0x40)\n      tag_76\n      swap2\n      swap1\n      tag_77\n      jump\t// in\n    tag_76:\n      mload(0x40)\n      dup1\n      swap2\n      sub\n      swap1\n      return\n        /* \"@openzeppelin/contracts/token/ERC20/ERC20.sol\":5873:6107  function increaseAllowance(address spender, uint256 addedValue) public virtual returns (bool) {... */\n    tag_14:\n      tag_78\n      0x04\n      dup1\n      calldatasize\n      sub\n      dup2\n      add\n      swap1\n      tag_79\n      swap2\n      swap1\n      tag_42\n      jump\t// in\n    tag_79:\n      tag_80\n      jump\t// in\n    tag_78:\n      mload(0x40)\n      tag_81\n      swap2\n      swap1\n      tag_45\n      jump\t// in\n    tag_81:\n      mload(0x40)\n      dup1\n      swap2\n      sub\n      swap1\n      return\n        /* \"contracts/Fundraising.sol\":2790:2855  function kill() onlyOwner external {... */\n    tag_15:\n      tag_82\n      tag_83\n      jump\t// in\n    tag_82:\n      stop\n        /* \"contracts/Fundraising.sol\":1702:1728  bool public paused = false */\n    tag_16:\n      tag_84\n      tag_85\n      jump\t// in\n    tag_84:\n      mload(0x40)\n      tag_86\n      swap2\n      swap1\n      tag_45\n      jump\t// in\n    tag_86:\n      mload(0x40)\n      dup1\n      swap2\n      sub\n      swap1\n      return\n        /* \"@openzeppelin/contracts/token/ERC20/ERC20.sol\":3408:3533  function balanceOf(address account) public view virtual override returns (uint256) {... */\n    tag_17:\n      tag_87\n      0x04\n      dup1\n      calldatasize\n      sub\n      dup2\n      add\n      swap1\n      tag_88\n      swap2\n      swap1\n      tag_89\n      jump\t// in\n    tag_88:\n      tag_90\n      jump\t// in\n    tag_87:\n      mload(0x40)\n      tag_91\n      swap2\n      swap1\n      tag_39\n      jump\t// in\n    tag_91:\n      mload(0x40)\n      dup1\n      swap2\n      sub\n      swap1\n      return\n        /* \"contracts/Fundraising.sol\":4204:4480  function redeemNFT() external {... */\n    tag_18:\n      tag_92\n      tag_93\n      jump\t// in\n    tag_92:\n      stop\n        /* \"contracts/Fundraising.sol\":1544:1571  uint256 public amountRaised */\n    tag_19:\n      tag_94\n      tag_95\n      jump\t// in\n    tag_94:\n      mload(0x40)\n      tag_96\n      swap2\n      swap1\n      tag_39\n      jump\t// in\n    tag_96:\n      mload(0x40)\n      dup1\n      swap2\n      sub\n      swap1\n      return\n        /* \"contracts/Fundraising.sol\":1388:1431  IERC721 public immutable projectMarketplace */\n    tag_20:\n      tag_97\n      tag_98\n      jump\t// in\n    tag_97:\n      mload(0x40)\n      tag_99\n      swap2\n      swap1\n      tag_100\n      jump\t// in\n    tag_99:\n      mload(0x40)\n      dup1\n      swap2\n      sub\n      swap1\n      return\n        /* \"contracts/Fundraising.sol\":2630:2784  function pause() onlyOwner external {... */\n    tag_21:\n      tag_101\n      tag_102\n      jump\t// in\n    tag_101:\n      stop\n        /* \"contracts/Fundraising.sol\":1511:1538  uint256 public targetAmount */\n    tag_22:\n      tag_103\n      tag_104\n      jump\t// in\n    tag_103:\n      mload(0x40)\n      tag_105\n      swap2\n      swap1\n      tag_39\n      jump\t// in\n    tag_105:\n      mload(0x40)\n      dup1\n      swap2\n      sub\n      swap1\n      return\n        /* \"@openzeppelin/contracts/token/ERC20/ERC20.sol\":2367:2469  function symbol() public view virtual override returns (string memory) {... */\n    tag_23:\n      tag_106\n      tag_107\n      jump\t// in\n    tag_106:\n      mload(0x40)\n      tag_108\n      swap2\n      swap1\n      tag_35\n      jump\t// in\n    tag_108:\n      mload(0x40)\n      dup1\n      swap2\n      sub\n      swap1\n      return\n        /* \"@openzeppelin/contracts/token/ERC20/ERC20.sol\":6594:7021  function decreaseAllowance(address spender, uint256 subtractedValue) public virtual returns (bool) {... */\n    tag_24:\n      tag_109\n      0x04\n      dup1\n      calldatasize\n      sub\n      dup2\n      add\n      swap1\n      tag_110\n      swap2\n      swap1\n      tag_42\n      jump\t// in\n    tag_110:\n      tag_111\n      jump\t// in\n    tag_109:\n      mload(0x40)\n      tag_112\n      swap2\n      swap1\n      tag_45\n      jump\t// in\n    tag_112:\n      mload(0x40)\n      dup1\n      swap2\n      sub\n      swap1\n      return\n        /* \"@openzeppelin/contracts/token/ERC20/ERC20.sol\":3729:3918  function transfer(address to, uint256 amount) public virtual override returns (bool) {... */\n    tag_25:\n      tag_113\n      0x04\n      dup1\n      calldatasize\n      sub\n      dup2\n      add\n      swap1\n      tag_114\n      swap2\n      swap1\n      tag_42\n      jump\t// in\n    tag_114:\n      tag_115\n      jump\t// in\n    tag_113:\n      mload(0x40)\n      tag_116\n      swap2\n      swap1\n      tag_45\n      jump\t// in\n    tag_116:\n      mload(0x40)\n      dup1\n      swap2\n      sub\n      swap1\n      return\n        /* \"contracts/Fundraising.sol\":2861:2978  function amountUntilReachTarget() public view returns (uint256){... */\n    tag_26:\n      tag_117\n      tag_118\n      jump\t// in\n    tag_117:\n      mload(0x40)\n      tag_119\n      swap2\n      swap1\n      tag_39\n      jump\t// in\n    tag_119:\n      mload(0x40)\n      dup1\n      swap2\n      sub\n      swap1\n      return\n        /* \"@openzeppelin/contracts/token/ERC20/ERC20.sol\":3976:4125  function allowance(address owner, address spender) public view virtual override returns (uint256) {... */\n    tag_27:\n      tag_120\n      0x04\n      dup1\n      calldatasize\n      sub\n      dup2\n      add\n      swap1\n      tag_121\n      swap2\n      swap1\n      tag_122\n      jump\t// in\n    tag_121:\n      tag_123\n      jump\t// in\n    tag_120:\n      mload(0x40)\n      tag_124\n      swap2\n      swap1\n      tag_39\n      jump\t// in\n    tag_124:\n      mload(0x40)\n      dup1\n      swap2\n      sub\n      swap1\n      return\n        /* \"@openzeppelin/contracts/token/ERC20/ERC20.sol\":2156:2254  function name() public view virtual override returns (string memory) {... */\n    tag_33:\n        /* \"@openzeppelin/contracts/token/ERC20/ERC20.sol\":2210:2223  string memory */\n      0x60\n        /* \"@openzeppelin/contracts/token/ERC20/ERC20.sol\":2242:2247  _name */\n      0x03\n        /* \"@openzeppelin/contracts/token/ERC20/ERC20.sol\":2235:2247  return _name */\n      dup1\n      sload\n      tag_126\n      swap1\n      tag_127\n      jump\t// in\n    tag_126:\n      dup1\n      0x1f\n      add\n      0x20\n      dup1\n      swap2\n      div\n      mul\n      0x20\n      add\n      mload(0x40)\n      swap1\n      dup2\n      add\n      0x40\n      mstore\n      dup1\n      swap3\n      swap2\n      swap1\n      dup2\n      dup2\n      mstore\n      0x20\n      add\n      dup3\n      dup1\n      sload\n      tag_128\n      swap1\n      tag_127\n      jump\t// in\n    tag_128:\n      dup1\n      iszero\n      tag_129\n      jumpi\n      dup1\n      0x1f\n      lt\n      tag_130\n      jumpi\n      0x0100\n      dup1\n      dup4\n      sload\n      div\n      mul\n      dup4\n      mstore\n      swap2\n      0x20\n      add\n      swap2\n      jump(tag_129)\n    tag_130:\n      dup3\n      add\n      swap2\n      swap1\n      0x00\n      mstore\n      keccak256(0x00, 0x20)\n      swap1\n    tag_131:\n      dup2\n      sload\n      dup2\n      mstore\n      swap1\n      0x01\n      add\n      swap1\n      0x20\n      add\n      dup1\n      dup4\n      gt\n      tag_131\n      jumpi\n      dup3\n      swap1\n      sub\n      0x1f\n      and\n      dup3\n      add\n      swap2\n    tag_129:\n      pop\n      pop\n      pop\n      pop\n      pop\n      swap1\n      pop\n        /* \"@openzeppelin/contracts/token/ERC20/ERC20.sol\":2156:2254  function name() public view virtual override returns (string memory) {... */\n      swap1\n      jump\t// out\n        /* \"contracts/Fundraising.sol\":1577:1611  uint256 public dataAccessThreshold */\n    tag_37:\n      sload(0x08)\n      dup2\n      jump\t// out\n        /* \"@openzeppelin/contracts/token/ERC20/ERC20.sol\":4433:4630  function approve(address spender, uint256 amount) public virtual override returns (bool) {... */\n    tag_43:\n        /* \"@openzeppelin/contracts/token/ERC20/ERC20.sol\":4516:4520  bool */\n      0x00\n        /* \"@openzeppelin/contracts/token/ERC20/ERC20.sol\":4532:4545  address owner */\n      dup1\n        /* \"@openzeppelin/contracts/token/ERC20/ERC20.sol\":4548:4560  _msgSender() */\n      tag_133\n        /* \"@openzeppelin/contracts/token/ERC20/ERC20.sol\":4548:4558  _msgSender */\n      tag_134\n        /* \"@openzeppelin/contracts/token/ERC20/ERC20.sol\":4548:4560  _msgSender() */\n      jump\t// in\n    tag_133:\n        /* \"@openzeppelin/contracts/token/ERC20/ERC20.sol\":4532:4560  address owner = _msgSender() */\n      swap1\n      pop\n        /* \"@openzeppelin/contracts/token/ERC20/ERC20.sol\":4570:4602  _approve(owner, spender, amount) */\n      tag_135\n        /* \"@openzeppelin/contracts/token/ERC20/ERC20.sol\":4579:4584  owner */\n      dup2\n        /* \"@openzeppelin/contracts/token/ERC20/ERC20.sol\":4586:4593  spender */\n      dup6\n        /* \"@openzeppelin/contracts/token/ERC20/ERC20.sol\":4595:4601  amount */\n      dup6\n        /* \"@openzeppelin/contracts/token/ERC20/ERC20.sol\":4570:4578  _approve */\n      tag_136\n        /* \"@openzeppelin/contracts/token/ERC20/ERC20.sol\":4570:4602  _approve(owner, spender, amount) */\n      jump\t// in\n    tag_135:\n        /* \"@openzeppelin/contracts/token/ERC20/ERC20.sol\":4619:4623  true */\n      0x01\n        /* \"@openzeppelin/contracts/token/ERC20/ERC20.sol\":4612:4623  return true */\n      swap2\n      pop\n      pop\n        /* \"@openzeppelin/contracts/token/ERC20/ERC20.sol\":4433:4630  function approve(address spender, uint256 amount) public virtual override returns (bool) {... */\n      swap3\n      swap2\n      pop\n      pop\n      jump\t// out\n        /* \"contracts/Fundraising.sol\":1296:1322  IERC20Extented public coin */\n    tag_47:\n      0x05\n      0x00\n      swap1\n      sload\n      swap1\n      0x0100\n      exp\n      swap1\n      div\n      0xffffffffffffffffffffffffffffffffffffffff\n      and\n      dup2\n      jump\t// out\n        /* \"contracts/Fundraising.sol\":2459:2624  function onERC721Received(address, address, uint256, bytes calldata) external pure returns (bytes4) {... */\n    tag_53:\n        /* \"contracts/Fundraising.sol\":2551:2557  bytes4 */\n      0x00\n        /* \"contracts/Fundraising.sol\":2576:2617  IERC721Receiver.onERC721Received.selector */\n      shl(0xe0, 0x150b7a02)\n        /* \"contracts/Fundraising.sol\":2569:2617  return IERC721Receiver.onERC721Received.selector */\n      swap1\n      pop\n        /* \"contracts/Fundraising.sol\":2459:2624  function onERC721Received(address, address, uint256, bytes calldata) external pure returns (bytes4) {... */\n      swap6\n      swap5\n      pop\n      pop\n      pop\n      pop\n      pop\n      jump\t// out\n        /* \"@openzeppelin/contracts/token/ERC20/ERC20.sol\":3244:3350  function totalSupply() public view virtual override returns (uint256) {... */\n    tag_57:\n        /* \"@openzeppelin/contracts/token/ERC20/ERC20.sol\":3305:3312  uint256 */\n      0x00\n        /* \"@openzeppelin/contracts/token/ERC20/ERC20.sol\":3331:3343  _totalSupply */\n      sload(0x02)\n        /* \"@openzeppelin/contracts/token/ERC20/ERC20.sol\":3324:3343  return _totalSupply */\n      swap1\n      pop\n        /* \"@openzeppelin/contracts/token/ERC20/ERC20.sol\":3244:3350  function totalSupply() public view virtual override returns (uint256) {... */\n      swap1\n      jump\t// out\n        /* \"contracts/Fundraising.sol\":1735:1761  bool public killed = false */\n    tag_60:\n      0x09\n      0x01\n      swap1\n      sload\n      swap1\n      0x0100\n      exp\n      swap1\n      div\n      0xff\n      and\n      dup2\n      jump\t// out\n        /* \"contracts/Fundraising.sol\":3678:4086  function withdrawInvestment(uint256 value) external {... */\n    tag_65:\n        /* \"contracts/Fundraising.sol\":3765:3777  targetAmount */\n      sload(0x06)\n        /* \"contracts/Fundraising.sol\":3749:3762  totalSupply() */\n      tag_140\n        /* \"contracts/Fundraising.sol\":3749:3760  totalSupply */\n      tag_57\n        /* \"contracts/Fundraising.sol\":3749:3762  totalSupply() */\n      jump\t// in\n    tag_140:\n        /* \"contracts/Fundraising.sol\":3749:3777  totalSupply() < targetAmount */\n      lt\n        /* \"contracts/Fundraising.sol\":3740:3805  require( totalSupply() < targetAmount , \"Target Already Raised\" ) */\n      tag_141\n      jumpi\n      mload(0x40)\n      0x08c379a000000000000000000000000000000000000000000000000000000000\n      dup2\n      mstore\n      0x04\n      add\n      tag_142\n      swap1\n      tag_143\n      jump\t// in\n    tag_142:\n      mload(0x40)\n      dup1\n      swap2\n      sub\n      swap1\n      revert\n    tag_141:\n        /* \"contracts/Fundraising.sol\":3832:3853  balanceOf(msg.sender) */\n      tag_144\n        /* \"contracts/Fundraising.sol\":3842:3852  msg.sender */\n      caller\n        /* \"contracts/Fundraising.sol\":3832:3841  balanceOf */\n      tag_90\n        /* \"contracts/Fundraising.sol\":3832:3853  balanceOf(msg.sender) */\n      jump\t// in\n    tag_144:\n        /* \"contracts/Fundraising.sol\":3823:3828  value */\n      dup2\n        /* \"contracts/Fundraising.sol\":3823:3853  value <= balanceOf(msg.sender) */\n      gt\n      iszero\n        /* \"contracts/Fundraising.sol\":3815:3883  require(value <= balanceOf(msg.sender), \"Not Great Enough Balance!\") */\n      tag_145\n      jumpi\n      mload(0x40)\n      0x08c379a000000000000000000000000000000000000000000000000000000000\n      dup2\n      mstore\n      0x04\n      add\n      tag_146\n      swap1\n      tag_147\n      jump\t// in\n    tag_146:\n      mload(0x40)\n      dup1\n      swap2\n      sub\n      swap1\n      revert\n    tag_145:\n        /* \"contracts/Fundraising.sol\":3982:3986  coin */\n      0x05\n      0x00\n      swap1\n      sload\n      swap1\n      0x0100\n      exp\n      swap1\n      div\n      0xffffffffffffffffffffffffffffffffffffffff\n      and\n        /* \"contracts/Fundraising.sol\":3982:3995  coin.transfer */\n      0xffffffffffffffffffffffffffffffffffffffff\n      and\n      0xa9059cbb\n        /* \"contracts/Fundraising.sol\":3996:4006  msg.sender */\n      caller\n        /* \"contracts/Fundraising.sol\":4008:4013  value */\n      dup4\n        /* \"contracts/Fundraising.sol\":3982:4014  coin.transfer(msg.sender, value) */\n      mload(0x40)\n      dup4\n      0xffffffff\n      and\n      0xe0\n      shl\n      dup2\n      mstore\n      0x04\n      add\n      tag_148\n      swap3\n      swap2\n      swap1\n      tag_149\n      jump\t// in\n    tag_148:\n      0x20\n      mload(0x40)\n      dup1\n      dup4\n      sub\n      dup2\n      0x00\n      dup8\n      dup1\n      extcodesize\n      iszero\n      dup1\n      iszero\n      tag_150\n      jumpi\n      0x00\n      dup1\n      revert\n    tag_150:\n      pop\n      gas\n      call\n      iszero\n      dup1\n      iszero\n      tag_152\n      jumpi\n      returndatasize\n      0x00\n      dup1\n      returndatacopy\n      revert(0x00, returndatasize)\n    tag_152:\n      pop\n      pop\n      pop\n      pop\n      mload(0x40)\n      returndatasize\n      not(0x1f)\n      0x1f\n      dup3\n      add\n      and\n      dup3\n      add\n      dup1\n      0x40\n      mstore\n      pop\n      dup2\n      add\n      swap1\n      tag_153\n      swap2\n      swap1\n      tag_154\n      jump\t// in\n    tag_153:\n      pop\n        /* \"contracts/Fundraising.sol\":4040:4045  value */\n      dup1\n        /* \"contracts/Fundraising.sol\":4024:4036  amountRaised */\n      0x07\n      0x00\n        /* \"contracts/Fundraising.sol\":4024:4045  amountRaised -= value */\n      dup3\n      dup3\n      sload\n      tag_155\n      swap2\n      swap1\n      tag_156\n      jump\t// in\n    tag_155:\n      swap3\n      pop\n      pop\n      dup2\n      swap1\n      sstore\n      pop\n        /* \"contracts/Fundraising.sol\":4055:4079  _burn(msg.sender, value) */\n      tag_157\n        /* \"contracts/Fundraising.sol\":4061:4071  msg.sender */\n      caller\n        /* \"contracts/Fundraising.sol\":4073:4078  value */\n      dup3\n        /* \"contracts/Fundraising.sol\":4055:4060  _burn */\n      tag_158\n        /* \"contracts/Fundraising.sol\":4055:4079  _burn(msg.sender, value) */\n      jump\t// in\n    tag_157:\n        /* \"contracts/Fundraising.sol\":3678:4086  function withdrawInvestment(uint256 value) external {... */\n      pop\n      jump\t// out\n        /* \"@openzeppelin/contracts/token/ERC20/ERC20.sol\":5192:5478  function transferFrom(... */\n    tag_69:\n        /* \"@openzeppelin/contracts/token/ERC20/ERC20.sol\":5319:5323  bool */\n      0x00\n        /* \"@openzeppelin/contracts/token/ERC20/ERC20.sol\":5335:5350  address spender */\n      dup1\n        /* \"@openzeppelin/contracts/token/ERC20/ERC20.sol\":5353:5365  _msgSender() */\n      tag_160\n        /* \"@openzeppelin/contracts/token/ERC20/ERC20.sol\":5353:5363  _msgSender */\n      tag_134\n        /* \"@openzeppelin/contracts/token/ERC20/ERC20.sol\":5353:5365  _msgSender() */\n      jump\t// in\n    tag_160:\n        /* \"@openzeppelin/contracts/token/ERC20/ERC20.sol\":5335:5365  address spender = _msgSender() */\n      swap1\n      pop\n        /* \"@openzeppelin/contracts/token/ERC20/ERC20.sol\":5375:5413  _spendAllowance(from, spender, amount) */\n      tag_161\n        /* \"@openzeppelin/contracts/token/ERC20/ERC20.sol\":5391:5395  from */\n      dup6\n        /* \"@openzeppelin/contracts/token/ERC20/ERC20.sol\":5397:5404  spender */\n      dup3\n        /* \"@openzeppelin/contracts/token/ERC20/ERC20.sol\":5406:5412  amount */\n      dup6\n        /* \"@openzeppelin/contracts/token/ERC20/ERC20.sol\":5375:5390  _spendAllowance */\n      tag_162\n        /* \"@openzeppelin/contracts/token/ERC20/ERC20.sol\":5375:5413  _spendAllowance(from, spender, amount) */\n      jump\t// in\n    tag_161:\n        /* \"@openzeppelin/contracts/token/ERC20/ERC20.sol\":5423:5450  _transfer(from, to, amount) */\n      tag_163\n        /* \"@openzeppelin/contracts/token/ERC20/ERC20.sol\":5433:5437  from */\n      dup6\n        /* \"@openzeppelin/contracts/token/ERC20/ERC20.sol\":5439:5441  to */\n      dup6\n        /* \"@openzeppelin/contracts/token/ERC20/ERC20.sol\":5443:5449  amount */\n      dup6\n        /* \"@openzeppelin/contracts/token/ERC20/ERC20.sol\":5423:5432  _transfer */\n      tag_164\n        /* \"@openzeppelin/contracts/token/ERC20/ERC20.sol\":5423:5450  _transfer(from, to, amount) */\n      jump\t// in\n    tag_163:\n        /* \"@openzeppelin/contracts/token/ERC20/ERC20.sol\":5467:5471  true */\n      0x01\n        /* \"@openzeppelin/contracts/token/ERC20/ERC20.sol\":5460:5471  return true */\n      swap2\n      pop\n      pop\n        /* \"@openzeppelin/contracts/token/ERC20/ERC20.sol\":5192:5478  function transferFrom(... */\n      swap4\n      swap3\n      pop\n      pop\n      pop\n      jump\t// out\n        /* \"contracts/Fundraising.sol\":3040:3575  function invest(uint256 value) external {... */\n    tag_73:\n        /* \"contracts/Fundraising.sol\":3115:3127  targetAmount */\n      sload(0x06)\n        /* \"contracts/Fundraising.sol\":3099:3112  totalSupply() */\n      tag_166\n        /* \"contracts/Fundraising.sol\":3099:3110  totalSupply */\n      tag_57\n        /* \"contracts/Fundraising.sol\":3099:3112  totalSupply() */\n      jump\t// in\n    tag_166:\n        /* \"contracts/Fundraising.sol\":3099:3127  totalSupply() < targetAmount */\n      lt\n        /* \"contracts/Fundraising.sol\":3090:3154  require( totalSupply() < targetAmount, \"Target Already Raised\" ) */\n      tag_167\n      jumpi\n      mload(0x40)\n      0x08c379a000000000000000000000000000000000000000000000000000000000\n      dup2\n      mstore\n      0x04\n      add\n      tag_168\n      swap1\n      tag_143\n      jump\t// in\n    tag_168:\n      mload(0x40)\n      dup1\n      swap2\n      sub\n      swap1\n      revert\n    tag_167:\n        /* \"contracts/Fundraising.sol\":3196:3209  totalSupply() */\n      tag_169\n        /* \"contracts/Fundraising.sol\":3196:3207  totalSupply */\n      tag_57\n        /* \"contracts/Fundraising.sol\":3196:3209  totalSupply() */\n      jump\t// in\n    tag_169:\n        /* \"contracts/Fundraising.sol\":3181:3193  targetAmount */\n      sload(0x06)\n        /* \"contracts/Fundraising.sol\":3181:3209  targetAmount - totalSupply() */\n      tag_170\n      swap2\n      swap1\n      tag_156\n      jump\t// in\n    tag_170:\n        /* \"contracts/Fundraising.sol\":3172:3177  value */\n      dup2\n        /* \"contracts/Fundraising.sol\":3172:3209  value <= targetAmount - totalSupply() */\n      gt\n      iszero\n        /* \"contracts/Fundraising.sol\":3164:3237  require(value <= targetAmount - totalSupply(), \"Not enough shares left!\") */\n      tag_171\n      jumpi\n      mload(0x40)\n      0x08c379a000000000000000000000000000000000000000000000000000000000\n      dup2\n      mstore\n      0x04\n      add\n      tag_172\n      swap1\n      tag_173\n      jump\t// in\n    tag_172:\n      mload(0x40)\n      dup1\n      swap2\n      sub\n      swap1\n      revert\n    tag_171:\n        /* \"contracts/Fundraising.sol\":3257:3263  paused */\n      0x09\n      0x00\n      swap1\n      sload\n      swap1\n      0x0100\n      exp\n      swap1\n      div\n      0xff\n      and\n        /* \"contracts/Fundraising.sol\":3256:3263  !paused */\n      iszero\n        /* \"contracts/Fundraising.sol\":3247:3287  require( !paused, \"Contract Is Paused\" ) */\n      tag_174\n      jumpi\n      mload(0x40)\n      0x08c379a000000000000000000000000000000000000000000000000000000000\n      dup2\n      mstore\n      0x04\n      add\n      tag_175\n      swap1\n      tag_176\n      jump\t// in\n    tag_175:\n      mload(0x40)\n      dup1\n      swap2\n      sub\n      swap1\n      revert\n    tag_174:\n        /* \"contracts/Fundraising.sol\":3307:3313  killed */\n      0x09\n      0x01\n      swap1\n      sload\n      swap1\n      0x0100\n      exp\n      swap1\n      div\n      0xff\n      and\n        /* \"contracts/Fundraising.sol\":3306:3313  !killed */\n      iszero\n        /* \"contracts/Fundraising.sol\":3297:3336  require( !killed, \"Contract Is Killed\") */\n      tag_177\n      jumpi\n      mload(0x40)\n      0x08c379a000000000000000000000000000000000000000000000000000000000\n      dup2\n      mstore\n      0x04\n      add\n      tag_178\n      swap1\n      tag_179\n      jump\t// in\n    tag_178:\n      mload(0x40)\n      dup1\n      swap2\n      sub\n      swap1\n      revert\n    tag_177:\n        /* \"contracts/Fundraising.sol\":3347:3351  coin */\n      0x05\n      0x00\n      swap1\n      sload\n      swap1\n      0x0100\n      exp\n      swap1\n      div\n      0xffffffffffffffffffffffffffffffffffffffff\n      and\n        /* \"contracts/Fundraising.sol\":3347:3364  coin.transferFrom */\n      0xffffffffffffffffffffffffffffffffffffffff\n      and\n      0x23b872dd\n        /* \"contracts/Fundraising.sol\":3365:3375  msg.sender */\n      caller\n        /* \"contracts/Fundraising.sol\":3385:3389  this */\n      address\n        /* \"contracts/Fundraising.sol\":3392:3397  value */\n      dup5\n        /* \"contracts/Fundraising.sol\":3347:3398  coin.transferFrom(msg.sender, address(this), value) */\n      mload(0x40)\n      dup5\n      0xffffffff\n      and\n      0xe0\n      shl\n      dup2\n      mstore\n      0x04\n      add\n      tag_180\n      swap4\n      swap3\n      swap2\n      swap1\n      tag_181\n      jump\t// in\n    tag_180:\n      0x20\n      mload(0x40)\n      dup1\n      dup4\n      sub\n      dup2\n      0x00\n      dup8\n      dup1\n      extcodesize\n      iszero\n      dup1\n      iszero\n      tag_182\n      jumpi\n      0x00\n      dup1\n      revert\n    tag_182:\n      pop\n      gas\n      call\n      iszero\n      dup1\n      iszero\n      tag_184\n      jumpi\n      returndatasize\n      0x00\n      dup1\n      returndatacopy\n      revert(0x00, returndatasize)\n    tag_184:\n      pop\n      pop\n      pop\n      pop\n      mload(0x40)\n      returndatasize\n      not(0x1f)\n      0x1f\n      dup3\n      add\n      and\n      dup3\n      add\n      dup1\n      0x40\n      mstore\n      pop\n      dup2\n      add\n      swap1\n      tag_185\n      swap2\n      swap1\n      tag_154\n      jump\t// in\n    tag_185:\n      pop\n        /* \"contracts/Fundraising.sol\":3424:3429  value */\n      dup1\n        /* \"contracts/Fundraising.sol\":3408:3420  amountRaised */\n      0x07\n      0x00\n        /* \"contracts/Fundraising.sol\":3408:3429  amountRaised += value */\n      dup3\n      dup3\n      sload\n      tag_186\n      swap2\n      swap1\n      tag_187\n      jump\t// in\n    tag_186:\n      swap3\n      pop\n      pop\n      dup2\n      swap1\n      sstore\n      pop\n        /* \"contracts/Fundraising.sol\":3439:3463  _mint(msg.sender, value) */\n      tag_188\n        /* \"contracts/Fundraising.sol\":3445:3455  msg.sender */\n      caller\n        /* \"contracts/Fundraising.sol\":3457:3462  value */\n      dup3\n        /* \"contracts/Fundraising.sol\":3439:3444  _mint */\n      tag_189\n        /* \"contracts/Fundraising.sol\":3439:3463  _mint(msg.sender, value) */\n      jump\t// in\n    tag_188:\n        /* \"contracts/Fundraising.sol\":3494:3507  totalSupply() */\n      tag_190\n        /* \"contracts/Fundraising.sol\":3494:3505  totalSupply */\n      tag_57\n        /* \"contracts/Fundraising.sol\":3494:3507  totalSupply() */\n      jump\t// in\n    tag_190:\n        /* \"contracts/Fundraising.sol\":3478:3490  targetAmount */\n      sload(0x06)\n        /* \"contracts/Fundraising.sol\":3478:3507  targetAmount == totalSupply() */\n      eq\n        /* \"contracts/Fundraising.sol\":3474:3569  if (targetAmount == totalSupply()) { ... */\n      iszero\n      tag_191\n      jumpi\n        /* \"contracts/Fundraising.sol\":3524:3528  coin */\n      0x05\n      0x00\n      swap1\n      sload\n      swap1\n      0x0100\n      exp\n      swap1\n      div\n      0xffffffffffffffffffffffffffffffffffffffff\n      and\n        /* \"contracts/Fundraising.sol\":3524:3537  coin.transfer */\n      0xffffffffffffffffffffffffffffffffffffffff\n      and\n      0xa9059cbb\n        /* \"contracts/Fundraising.sol\":3538:3543  admin */\n      0x09\n      0x02\n      swap1\n      sload\n      swap1\n      0x0100\n      exp\n      swap1\n      div\n      0xffffffffffffffffffffffffffffffffffffffff\n      and\n        /* \"contracts/Fundraising.sol\":3545:3557  targetAmount */\n      sload(0x06)\n        /* \"contracts/Fundraising.sol\":3524:3558  coin.transfer(admin, targetAmount) */\n      mload(0x40)\n      dup4\n      0xffffffff\n      and\n      0xe0\n      shl\n      dup2\n      mstore\n      0x04\n      add\n      tag_192\n      swap3\n      swap2\n      swap1\n      tag_149\n      jump\t// in\n    tag_192:\n      0x20\n      mload(0x40)\n      dup1\n      dup4\n      sub\n      dup2\n      0x00\n      dup8\n      dup1\n      extcodesize\n      iszero\n      dup1\n      iszero\n      tag_193\n      jumpi\n      0x00\n      dup1\n      revert\n    tag_193:\n      pop\n      gas\n      call\n      iszero\n      dup1\n      iszero\n      tag_195\n      jumpi\n      returndatasize\n      0x00\n      dup1\n      returndatacopy\n      revert(0x00, returndatasize)\n    tag_195:\n      pop\n      pop\n      pop\n      pop\n      mload(0x40)\n      returndatasize\n      not(0x1f)\n      0x1f\n      dup3\n      add\n      and\n      dup3\n      add\n      dup1\n      0x40\n      mstore\n      pop\n      dup2\n      add\n      swap1\n      tag_196\n      swap2\n      swap1\n      tag_154\n      jump\t// in\n    tag_196:\n      pop\n        /* \"contracts/Fundraising.sol\":3474:3569  if (targetAmount == totalSupply()) { ... */\n    tag_191:\n        /* \"contracts/Fundraising.sol\":3040:3575  function invest(uint256 value) external {... */\n      pop\n      jump\t// out\n        /* \"contracts/Fundraising.sol\":2158:2262  function decimals() public view virtual override returns (uint8) {... */\n    tag_75:\n        /* \"contracts/Fundraising.sol\":2216:2221  uint8 */\n      0x00\n        /* \"contracts/Fundraising.sol\":2240:2244  coin */\n      0x05\n      0x00\n      swap1\n      sload\n      swap1\n      0x0100\n      exp\n      swap1\n      div\n      0xffffffffffffffffffffffffffffffffffffffff\n      and\n        /* \"contracts/Fundraising.sol\":2240:2253  coin.decimals */\n      0xffffffffffffffffffffffffffffffffffffffff\n      and\n      0x313ce567\n        /* \"contracts/Fundraising.sol\":2240:2255  coin.decimals() */\n      mload(0x40)\n      dup2\n      0xffffffff\n      and\n      0xe0\n      shl\n      dup2\n      mstore\n      0x04\n      add\n      0x20\n      mload(0x40)\n      dup1\n      dup4\n      sub\n      dup2\n      dup7\n      dup1\n      extcodesize\n      iszero\n      dup1\n      iszero\n      tag_198\n      jumpi\n      0x00\n      dup1\n      revert\n    tag_198:\n      pop\n      gas\n      staticcall\n      iszero\n      dup1\n      iszero\n      tag_200\n      jumpi\n      returndatasize\n      0x00\n      dup1\n      returndatacopy\n      revert(0x00, returndatasize)\n    tag_200:\n      pop\n      pop\n      pop\n      pop\n      mload(0x40)\n      returndatasize\n      not(0x1f)\n      0x1f\n      dup3\n      add\n      and\n      dup3\n      add\n      dup1\n      0x40\n      mstore\n      pop\n      dup2\n      add\n      swap1\n      tag_201\n      swap2\n      swap1\n      tag_202\n      jump\t// in\n    tag_201:\n        /* \"contracts/Fundraising.sol\":2233:2255  return coin.decimals() */\n      swap1\n      pop\n        /* \"contracts/Fundraising.sol\":2158:2262  function decimals() public view virtual override returns (uint8) {... */\n      swap1\n      jump\t// out\n        /* \"@openzeppelin/contracts/token/ERC20/ERC20.sol\":5873:6107  function increaseAllowance(address spender, uint256 addedValue) public virtual returns (bool) {... */\n    tag_80:\n        /* \"@openzeppelin/contracts/token/ERC20/ERC20.sol\":5961:5965  bool */\n      0x00\n        /* \"@openzeppelin/contracts/token/ERC20/ERC20.sol\":5977:5990  address owner */\n      dup1\n        /* \"@openzeppelin/contracts/token/ERC20/ERC20.sol\":5993:6005  _msgSender() */\n      tag_204\n        /* \"@openzeppelin/contracts/token/ERC20/ERC20.sol\":5993:6003  _msgSender */\n      tag_134\n        /* \"@openzeppelin/contracts/token/ERC20/ERC20.sol\":5993:6005  _msgSender() */\n      jump\t// in\n    tag_204:\n        /* \"@openzeppelin/contracts/token/ERC20/ERC20.sol\":5977:6005  address owner = _msgSender() */\n      swap1\n      pop\n        /* \"@openzeppelin/contracts/token/ERC20/ERC20.sol\":6015:6079  _approve(owner, spender, allowance(owner, spender) + addedValue) */\n      tag_205\n        /* \"@openzeppelin/contracts/token/ERC20/ERC20.sol\":6024:6029  owner */\n      dup2\n        /* \"@openzeppelin/contracts/token/ERC20/ERC20.sol\":6031:6038  spender */\n      dup6\n        /* \"@openzeppelin/contracts/token/ERC20/ERC20.sol\":6068:6078  addedValue */\n      dup6\n        /* \"@openzeppelin/contracts/token/ERC20/ERC20.sol\":6040:6065  allowance(owner, spender) */\n      tag_206\n        /* \"@openzeppelin/contracts/token/ERC20/ERC20.sol\":6050:6055  owner */\n      dup6\n        /* \"@openzeppelin/contracts/token/ERC20/ERC20.sol\":6057:6064  spender */\n      dup10\n        /* \"@openzeppelin/contracts/token/ERC20/ERC20.sol\":6040:6049  allowance */\n      tag_123\n        /* \"@openzeppelin/contracts/token/ERC20/ERC20.sol\":6040:6065  allowance(owner, spender) */\n      jump\t// in\n    tag_206:\n        /* \"@openzeppelin/contracts/token/ERC20/ERC20.sol\":6040:6078  allowance(owner, spender) + addedValue */\n      tag_207\n      swap2\n      swap1\n      tag_187\n      jump\t// in\n    tag_207:\n        /* \"@openzeppelin/contracts/token/ERC20/ERC20.sol\":6015:6023  _approve */\n      tag_136\n        /* \"@openzeppelin/contracts/token/ERC20/ERC20.sol\":6015:6079  _approve(owner, spender, allowance(owner, spender) + addedValue) */\n      jump\t// in\n    tag_205:\n        /* \"@openzeppelin/contracts/token/ERC20/ERC20.sol\":6096:6100  true */\n      0x01\n        /* \"@openzeppelin/contracts/token/ERC20/ERC20.sol\":6089:6100  return true */\n      swap2\n      pop\n      pop\n        /* \"@openzeppelin/contracts/token/ERC20/ERC20.sol\":5873:6107  function increaseAllowance(address spender, uint256 addedValue) public virtual returns (bool) {... */\n      swap3\n      swap2\n      pop\n      pop\n      jump\t// out\n        /* \"contracts/Fundraising.sol\":2790:2855  function kill() onlyOwner external {... */\n    tag_83:\n        /* \"contracts/Fundraising.sol\":2324:2329  admin */\n      0x09\n      0x02\n      swap1\n      sload\n      swap1\n      0x0100\n      exp\n      swap1\n      div\n      0xffffffffffffffffffffffffffffffffffffffff\n      and\n        /* \"contracts/Fundraising.sol\":2310:2329  msg.sender == admin */\n      0xffffffffffffffffffffffffffffffffffffffff\n      and\n        /* \"contracts/Fundraising.sol\":2310:2320  msg.sender */\n      caller\n        /* \"contracts/Fundraising.sol\":2310:2329  msg.sender == admin */\n      0xffffffffffffffffffffffffffffffffffffffff\n      and\n      eq\n        /* \"contracts/Fundraising.sol\":2302:2362  require(msg.sender == admin, \"Only Admin Can Pause/Unpause\") */\n      tag_209\n      jumpi\n      mload(0x40)\n      0x08c379a000000000000000000000000000000000000000000000000000000000\n      dup2\n      mstore\n      0x04\n      add\n      tag_210\n      swap1\n      tag_211\n      jump\t// in\n    tag_210:\n      mload(0x40)\n      dup1\n      swap2\n      sub\n      swap1\n      revert\n    tag_209:\n        /* \"contracts/Fundraising.sol\":2844:2848  true */\n      0x01\n        /* \"contracts/Fundraising.sol\":2835:2841  killed */\n      0x09\n      0x01\n        /* \"contracts/Fundraising.sol\":2835:2848  killed = true */\n      0x0100\n      exp\n      dup2\n      sload\n      dup2\n      0xff\n      mul\n      not\n      and\n      swap1\n      dup4\n      iszero\n      iszero\n      mul\n      or\n      swap1\n      sstore\n      pop\n        /* \"contracts/Fundraising.sol\":2790:2855  function kill() onlyOwner external {... */\n      jump\t// out\n        /* \"contracts/Fundraising.sol\":1702:1728  bool public paused = false */\n    tag_85:\n      0x09\n      0x00\n      swap1\n      sload\n      swap1\n      0x0100\n      exp\n      swap1\n      div\n      0xff\n      and\n      dup2\n      jump\t// out\n        /* \"@openzeppelin/contracts/token/ERC20/ERC20.sol\":3408:3533  function balanceOf(address account) public view virtual override returns (uint256) {... */\n    tag_90:\n        /* \"@openzeppelin/contracts/token/ERC20/ERC20.sol\":3482:3489  uint256 */\n      0x00\n        /* \"@openzeppelin/contracts/token/ERC20/ERC20.sol\":3508:3517  _balances */\n      dup1\n        /* \"@openzeppelin/contracts/token/ERC20/ERC20.sol\":3508:3526  _balances[account] */\n      0x00\n        /* \"@openzeppelin/contracts/token/ERC20/ERC20.sol\":3518:3525  account */\n      dup4\n        /* \"@openzeppelin/contracts/token/ERC20/ERC20.sol\":3508:3526  _balances[account] */\n      0xffffffffffffffffffffffffffffffffffffffff\n      and\n      0xffffffffffffffffffffffffffffffffffffffff\n      and\n      dup2\n      mstore\n      0x20\n      add\n      swap1\n      dup2\n      mstore\n      0x20\n      add\n      0x00\n      keccak256\n      sload\n        /* \"@openzeppelin/contracts/token/ERC20/ERC20.sol\":3501:3526  return _balances[account] */\n      swap1\n      pop\n        /* \"@openzeppelin/contracts/token/ERC20/ERC20.sol\":3408:3533  function balanceOf(address account) public view virtual override returns (uint256) {... */\n      swap2\n      swap1\n      pop\n      jump\t// out\n        /* \"contracts/Fundraising.sol\":4204:4480  function redeemNFT() external {... */\n    tag_93:\n        /* \"contracts/Fundraising.sol\":4278:4290  targetAmount */\n      sload(0x06)\n        /* \"contracts/Fundraising.sol\":4253:4274  balanceOf(msg.sender) */\n      tag_215\n        /* \"contracts/Fundraising.sol\":4263:4273  msg.sender */\n      caller\n        /* \"contracts/Fundraising.sol\":4253:4262  balanceOf */\n      tag_90\n        /* \"contracts/Fundraising.sol\":4253:4274  balanceOf(msg.sender) */\n      jump\t// in\n    tag_215:\n        /* \"contracts/Fundraising.sol\":4253:4290  balanceOf(msg.sender) == targetAmount */\n      eq\n        /* \"contracts/Fundraising.sol\":4244:4324  require( balanceOf(msg.sender) == targetAmount, \"Do Not Have RFT Total Supply\" ) */\n      tag_216\n      jumpi\n      mload(0x40)\n      0x08c379a000000000000000000000000000000000000000000000000000000000\n      dup2\n      mstore\n      0x04\n      add\n      tag_217\n      swap1\n      tag_218\n      jump\t// in\n    tag_217:\n      mload(0x40)\n      dup1\n      swap2\n      sub\n      swap1\n      revert\n    tag_216:\n        /* \"contracts/Fundraising.sol\":4334:4367  _burn(msg.sender, totalSupply() ) */\n      tag_219\n        /* \"contracts/Fundraising.sol\":4340:4350  msg.sender */\n      caller\n        /* \"contracts/Fundraising.sol\":4352:4365  totalSupply() */\n      tag_220\n        /* \"contracts/Fundraising.sol\":4352:4363  totalSupply */\n      tag_57\n        /* \"contracts/Fundraising.sol\":4352:4365  totalSupply() */\n      jump\t// in\n    tag_220:\n        /* \"contracts/Fundraising.sol\":4334:4339  _burn */\n      tag_158\n        /* \"contracts/Fundraising.sol\":4334:4367  _burn(msg.sender, totalSupply() ) */\n      jump\t// in\n    tag_219:\n        /* \"contracts/Fundraising.sol\":4377:4395  projectMarketplace */\n      immutable(\"0x49847a2314cecfe9e5127b41702adba4edb0260cff60a0a5f30c53ee5905efea\")\n        /* \"contracts/Fundraising.sol\":4377:4412  projectMarketplace.safeTransferFrom */\n      0xffffffffffffffffffffffffffffffffffffffff\n      and\n      0x42842e0e\n        /* \"contracts/Fundraising.sol\":4422:4426  this */\n      address\n        /* \"contracts/Fundraising.sol\":4429:4439  msg.sender */\n      caller\n        /* \"contracts/Fundraising.sol\":4465:4469  this */\n      address\n        /* \"contracts/Fundraising.sol\":4441:4472  uint256(uint160(address(this))) */\n      0xffffffffffffffffffffffffffffffffffffffff\n      and\n        /* \"contracts/Fundraising.sol\":4377:4473  projectMarketplace.safeTransferFrom( address(this), msg.sender, uint256(uint160(address(this)))) */\n      mload(0x40)\n      dup5\n      0xffffffff\n      and\n      0xe0\n      shl\n      dup2\n      mstore\n      0x04\n      add\n      tag_221\n      swap4\n      swap3\n      swap2\n      swap1\n      tag_181\n      jump\t// in\n    tag_221:\n      0x00\n      mload(0x40)\n      dup1\n      dup4\n      sub\n      dup2\n      0x00\n      dup8\n      dup1\n      extcodesize\n      iszero\n      dup1\n      iszero\n      tag_222\n      jumpi\n      0x00\n      dup1\n      revert\n    tag_222:\n      pop\n      gas\n      call\n      iszero\n      dup1\n      iszero\n      tag_224\n      jumpi\n      returndatasize\n      0x00\n      dup1\n      returndatacopy\n      revert(0x00, returndatasize)\n    tag_224:\n      pop\n      pop\n      pop\n      pop\n        /* \"contracts/Fundraising.sol\":4204:4480  function redeemNFT() external {... */\n      jump\t// out\n        /* \"contracts/Fundraising.sol\":1544:1571  uint256 public amountRaised */\n    tag_95:\n      sload(0x07)\n      dup2\n      jump\t// out\n        /* \"contracts/Fundraising.sol\":1388:1431  IERC721 public immutable projectMarketplace */\n    tag_98:\n      immutable(\"0x49847a2314cecfe9e5127b41702adba4edb0260cff60a0a5f30c53ee5905efea\")\n      dup2\n      jump\t// out\n        /* \"contracts/Fundraising.sol\":2630:2784  function pause() onlyOwner external {... */\n    tag_102:\n        /* \"contracts/Fundraising.sol\":2324:2329  admin */\n      0x09\n      0x02\n      swap1\n      sload\n      swap1\n      0x0100\n      exp\n      swap1\n      div\n      0xffffffffffffffffffffffffffffffffffffffff\n      and\n        /* \"contracts/Fundraising.sol\":2310:2329  msg.sender == admin */\n      0xffffffffffffffffffffffffffffffffffffffff\n      and\n        /* \"contracts/Fundraising.sol\":2310:2320  msg.sender */\n      caller\n        /* \"contracts/Fundraising.sol\":2310:2329  msg.sender == admin */\n      0xffffffffffffffffffffffffffffffffffffffff\n      and\n      eq\n        /* \"contracts/Fundraising.sol\":2302:2362  require(msg.sender == admin, \"Only Admin Can Pause/Unpause\") */\n      tag_226\n      jumpi\n      mload(0x40)\n      0x08c379a000000000000000000000000000000000000000000000000000000000\n      dup2\n      mstore\n      0x04\n      add\n      tag_227\n      swap1\n      tag_211\n      jump\t// in\n    tag_227:\n      mload(0x40)\n      dup1\n      swap2\n      sub\n      swap1\n      revert\n    tag_226:\n        /* \"contracts/Fundraising.sol\":2681:2687  paused */\n      0x09\n      0x00\n      swap1\n      sload\n      swap1\n      0x0100\n      exp\n      swap1\n      div\n      0xff\n      and\n        /* \"contracts/Fundraising.sol\":2676:2778  if (!paused){... */\n      tag_229\n      jumpi\n        /* \"contracts/Fundraising.sol\":2711:2715  true */\n      0x01\n        /* \"contracts/Fundraising.sol\":2702:2708  paused */\n      0x09\n      0x00\n        /* \"contracts/Fundraising.sol\":2702:2715  paused = true */\n      0x0100\n      exp\n      dup2\n      sload\n      dup2\n      0xff\n      mul\n      not\n      and\n      swap1\n      dup4\n      iszero\n      iszero\n      mul\n      or\n      swap1\n      sstore\n      pop\n        /* \"contracts/Fundraising.sol\":2676:2778  if (!paused){... */\n      jump(tag_230)\n    tag_229:\n        /* \"contracts/Fundraising.sol\":2762:2767  false */\n      0x00\n        /* \"contracts/Fundraising.sol\":2753:2759  paused */\n      0x09\n      0x00\n        /* \"contracts/Fundraising.sol\":2753:2767  paused = false */\n      0x0100\n      exp\n      dup2\n      sload\n      dup2\n      0xff\n      mul\n      not\n      and\n      swap1\n      dup4\n      iszero\n      iszero\n      mul\n      or\n      swap1\n      sstore\n      pop\n        /* \"contracts/Fundraising.sol\":2676:2778  if (!paused){... */\n    tag_230:\n        /* \"contracts/Fundraising.sol\":2630:2784  function pause() onlyOwner external {... */\n      jump\t// out\n        /* \"contracts/Fundraising.sol\":1511:1538  uint256 public targetAmount */\n    tag_104:\n      sload(0x06)\n      dup2\n      jump\t// out\n        /* \"@openzeppelin/contracts/token/ERC20/ERC20.sol\":2367:2469  function symbol() public view virtual override returns (string memory) {... */\n    tag_107:\n        /* \"@openzeppelin/contracts/token/ERC20/ERC20.sol\":2423:2436  string memory */\n      0x60\n        /* \"@openzeppelin/contracts/token/ERC20/ERC20.sol\":2455:2462  _symbol */\n      0x04\n        /* \"@openzeppelin/contracts/token/ERC20/ERC20.sol\":2448:2462  return _symbol */\n      dup1\n      sload\n      tag_232\n      swap1\n      tag_127\n      jump\t// in\n    tag_232:\n      dup1\n      0x1f\n      add\n      0x20\n      dup1\n      swap2\n      div\n      mul\n      0x20\n      add\n      mload(0x40)\n      swap1\n      dup2\n      add\n      0x40\n      mstore\n      dup1\n      swap3\n      swap2\n      swap1\n      dup2\n      dup2\n      mstore\n      0x20\n      add\n      dup3\n      dup1\n      sload\n      tag_233\n      swap1\n      tag_127\n      jump\t// in\n    tag_233:\n      dup1\n      iszero\n      tag_234\n      jumpi\n      dup1\n      0x1f\n      lt\n      tag_235\n      jumpi\n      0x0100\n      dup1\n      dup4\n      sload\n      div\n      mul\n      dup4\n      mstore\n      swap2\n      0x20\n      add\n      swap2\n      jump(tag_234)\n    tag_235:\n      dup3\n      add\n      swap2\n      swap1\n      0x00\n      mstore\n      keccak256(0x00, 0x20)\n      swap1\n    tag_236:\n      dup2\n      sload\n      dup2\n      mstore\n      swap1\n      0x01\n      add\n      swap1\n      0x20\n      add\n      dup1\n      dup4\n      gt\n      tag_236\n      jumpi\n      dup3\n      swap1\n      sub\n      0x1f\n      and\n      dup3\n      add\n      swap2\n    tag_234:\n      pop\n      pop\n      pop\n      pop\n      pop\n      swap1\n      pop\n        /* \"@openzeppelin/contracts/token/ERC20/ERC20.sol\":2367:2469  function symbol() public view virtual override returns (string memory) {... */\n      swap1\n      jump\t// out\n        /* \"@openzeppelin/contracts/token/ERC20/ERC20.sol\":6594:7021  function decreaseAllowance(address spender, uint256 subtractedValue) public virtual returns (bool) {... */\n    tag_111:\n        /* \"@openzeppelin/contracts/token/ERC20/ERC20.sol\":6687:6691  bool */\n      0x00\n        /* \"@openzeppelin/contracts/token/ERC20/ERC20.sol\":6703:6716  address owner */\n      dup1\n        /* \"@openzeppelin/contracts/token/ERC20/ERC20.sol\":6719:6731  _msgSender() */\n      tag_238\n        /* \"@openzeppelin/contracts/token/ERC20/ERC20.sol\":6719:6729  _msgSender */\n      tag_134\n        /* \"@openzeppelin/contracts/token/ERC20/ERC20.sol\":6719:6731  _msgSender() */\n      jump\t// in\n    tag_238:\n        /* \"@openzeppelin/contracts/token/ERC20/ERC20.sol\":6703:6731  address owner = _msgSender() */\n      swap1\n      pop\n        /* \"@openzeppelin/contracts/token/ERC20/ERC20.sol\":6741:6765  uint256 currentAllowance */\n      0x00\n        /* \"@openzeppelin/contracts/token/ERC20/ERC20.sol\":6768:6793  allowance(owner, spender) */\n      tag_239\n        /* \"@openzeppelin/contracts/token/ERC20/ERC20.sol\":6778:6783  owner */\n      dup3\n        /* \"@openzeppelin/contracts/token/ERC20/ERC20.sol\":6785:6792  spender */\n      dup7\n        /* \"@openzeppelin/contracts/token/ERC20/ERC20.sol\":6768:6777  allowance */\n      tag_123\n        /* \"@openzeppelin/contracts/token/ERC20/ERC20.sol\":6768:6793  allowance(owner, spender) */\n      jump\t// in\n    tag_239:\n        /* \"@openzeppelin/contracts/token/ERC20/ERC20.sol\":6741:6793  uint256 currentAllowance = allowance(owner, spender) */\n      swap1\n      pop\n        /* \"@openzeppelin/contracts/token/ERC20/ERC20.sol\":6831:6846  subtractedValue */\n      dup4\n        /* \"@openzeppelin/contracts/token/ERC20/ERC20.sol\":6811:6827  currentAllowance */\n      dup2\n        /* \"@openzeppelin/contracts/token/ERC20/ERC20.sol\":6811:6846  currentAllowance >= subtractedValue */\n      lt\n      iszero\n        /* \"@openzeppelin/contracts/token/ERC20/ERC20.sol\":6803:6888  require(currentAllowance >= subtractedValue, \"ERC20: decreased allowance below zero\") */\n      tag_240\n      jumpi\n      mload(0x40)\n      0x08c379a000000000000000000000000000000000000000000000000000000000\n      dup2\n      mstore\n      0x04\n      add\n      tag_241\n      swap1\n      tag_242\n      jump\t// in\n    tag_241:\n      mload(0x40)\n      dup1\n      swap2\n      sub\n      swap1\n      revert\n    tag_240:\n        /* \"@openzeppelin/contracts/token/ERC20/ERC20.sol\":6922:6982  _approve(owner, spender, currentAllowance - subtractedValue) */\n      tag_243\n        /* \"@openzeppelin/contracts/token/ERC20/ERC20.sol\":6931:6936  owner */\n      dup3\n        /* \"@openzeppelin/contracts/token/ERC20/ERC20.sol\":6938:6945  spender */\n      dup7\n        /* \"@openzeppelin/contracts/token/ERC20/ERC20.sol\":6966:6981  subtractedValue */\n      dup7\n        /* \"@openzeppelin/contracts/token/ERC20/ERC20.sol\":6947:6963  currentAllowance */\n      dup5\n        /* \"@openzeppelin/contracts/token/ERC20/ERC20.sol\":6947:6981  currentAllowance - subtractedValue */\n      sub\n        /* \"@openzeppelin/contracts/token/ERC20/ERC20.sol\":6922:6930  _approve */\n      tag_136\n        /* \"@openzeppelin/contracts/token/ERC20/ERC20.sol\":6922:6982  _approve(owner, spender, currentAllowance - subtractedValue) */\n      jump\t// in\n    tag_243:\n        /* \"@openzeppelin/contracts/token/ERC20/ERC20.sol\":7010:7014  true */\n      0x01\n        /* \"@openzeppelin/contracts/token/ERC20/ERC20.sol\":7003:7014  return true */\n      swap3\n      pop\n      pop\n      pop\n        /* \"@openzeppelin/contracts/token/ERC20/ERC20.sol\":6594:7021  function decreaseAllowance(address spender, uint256 subtractedValue) public virtual returns (bool) {... */\n      swap3\n      swap2\n      pop\n      pop\n      jump\t// out\n        /* \"@openzeppelin/contracts/token/ERC20/ERC20.sol\":3729:3918  function transfer(address to, uint256 amount) public virtual override returns (bool) {... */\n    tag_115:\n        /* \"@openzeppelin/contracts/token/ERC20/ERC20.sol\":3808:3812  bool */\n      0x00\n        /* \"@openzeppelin/contracts/token/ERC20/ERC20.sol\":3824:3837  address owner */\n      dup1\n        /* \"@openzeppelin/contracts/token/ERC20/ERC20.sol\":3840:3852  _msgSender() */\n      tag_245\n        /* \"@openzeppelin/contracts/token/ERC20/ERC20.sol\":3840:3850  _msgSender */\n      tag_134\n        /* \"@openzeppelin/contracts/token/ERC20/ERC20.sol\":3840:3852  _msgSender() */\n      jump\t// in\n    tag_245:\n        /* \"@openzeppelin/contracts/token/ERC20/ERC20.sol\":3824:3852  address owner = _msgSender() */\n      swap1\n      pop\n        /* \"@openzeppelin/contracts/token/ERC20/ERC20.sol\":3862:3890  _transfer(owner, to, amount) */\n      tag_246\n        /* \"@openzeppelin/contracts/token/ERC20/ERC20.sol\":3872:3877  owner */\n      dup2\n        /* \"@openzeppelin/contracts/token/ERC20/ERC20.sol\":3879:3881  to */\n      dup6\n        /* \"@openzeppelin/contracts/token/ERC20/ERC20.sol\":3883:3889  amount */\n      dup6\n        /* \"@openzeppelin/contracts/token/ERC20/ERC20.sol\":3862:3871  _transfer */\n      tag_164\n        /* \"@openzeppelin/contracts/token/ERC20/ERC20.sol\":3862:3890  _transfer(owner, to, amount) */\n      jump\t// in\n    tag_246:\n        /* \"@openzeppelin/contracts/token/ERC20/ERC20.sol\":3907:3911  true */\n      0x01\n        /* \"@openzeppelin/contracts/token/ERC20/ERC20.sol\":3900:3911  return true */\n      swap2\n      pop\n      pop\n        /* \"@openzeppelin/contracts/token/ERC20/ERC20.sol\":3729:3918  function transfer(address to, uint256 amount) public virtual override returns (bool) {... */\n      swap3\n      swap2\n      pop\n      pop\n      jump\t// out\n        /* \"contracts/Fundraising.sol\":2861:2978  function amountUntilReachTarget() public view returns (uint256){... */\n    tag_118:\n        /* \"contracts/Fundraising.sol\":2916:2923  uint256 */\n      0x00\n        /* \"contracts/Fundraising.sol\":2957:2969  amountRaised */\n      sload(0x07)\n        /* \"contracts/Fundraising.sol\":2942:2954  targetAmount */\n      sload(0x06)\n        /* \"contracts/Fundraising.sol\":2942:2969  targetAmount - amountRaised */\n      tag_248\n      swap2\n      swap1\n      tag_156\n      jump\t// in\n    tag_248:\n        /* \"contracts/Fundraising.sol\":2934:2970  return (targetAmount - amountRaised) */\n      swap1\n      pop\n        /* \"contracts/Fundraising.sol\":2861:2978  function amountUntilReachTarget() public view returns (uint256){... */\n      swap1\n      jump\t// out\n        /* \"@openzeppelin/contracts/token/ERC20/ERC20.sol\":3976:4125  function allowance(address owner, address spender) public view virtual override returns (uint256) {... */\n    tag_123:\n        /* \"@openzeppelin/contracts/token/ERC20/ERC20.sol\":4065:4072  uint256 */\n      0x00\n        /* \"@openzeppelin/contracts/token/ERC20/ERC20.sol\":4091:4102  _allowances */\n      0x01\n        /* \"@openzeppelin/contracts/token/ERC20/ERC20.sol\":4091:4109  _allowances[owner] */\n      0x00\n        /* \"@openzeppelin/contracts/token/ERC20/ERC20.sol\":4103:4108  owner */\n      dup5\n        /* \"@openzeppelin/contracts/token/ERC20/ERC20.sol\":4091:4109  _allowances[owner] */\n      0xffffffffffffffffffffffffffffffffffffffff\n      and\n      0xffffffffffffffffffffffffffffffffffffffff\n      and\n      dup2\n      mstore\n      0x20\n      add\n      swap1\n      dup2\n      mstore\n      0x20\n      add\n      0x00\n      keccak256\n        /* \"@openzeppelin/contracts/token/ERC20/ERC20.sol\":4091:4118  _allowances[owner][spender] */\n      0x00\n        /* \"@openzeppelin/contracts/token/ERC20/ERC20.sol\":4110:4117  spender */\n      dup4\n        /* \"@openzeppelin/contracts/token/ERC20/ERC20.sol\":4091:4118  _allowances[owner][spender] */\n      0xffffffffffffffffffffffffffffffffffffffff\n      and\n      0xffffffffffffffffffffffffffffffffffffffff\n      and\n      dup2\n      mstore\n      0x20\n      add\n      swap1\n      dup2\n      mstore\n      0x20\n      add\n      0x00\n      keccak256\n      sload\n        /* \"@openzeppelin/contracts/token/ERC20/ERC20.sol\":4084:4118  return _allowances[owner][spender] */\n      swap1\n      pop\n        /* \"@openzeppelin/contracts/token/ERC20/ERC20.sol\":3976:4125  function allowance(address owner, address spender) public view virtual override returns (uint256) {... */\n      swap3\n      swap2\n      pop\n      pop\n      jump\t// out\n        /* \"@openzeppelin/contracts/utils/Context.sol\":640:736  function _msgSender() internal view virtual returns (address) {... */\n    tag_134:\n        /* \"@openzeppelin/contracts/utils/Context.sol\":693:700  address */\n      0x00\n        /* \"@openzeppelin/contracts/utils/Context.sol\":719:729  msg.sender */\n      caller\n        /* \"@openzeppelin/contracts/utils/Context.sol\":712:729  return msg.sender */\n      swap1\n      pop\n        /* \"@openzeppelin/contracts/utils/Context.sol\":640:736  function _msgSender() internal view virtual returns (address) {... */\n      swap1\n      jump\t// out\n        /* \"@openzeppelin/contracts/token/ERC20/ERC20.sol\":10110:10480  function _approve(... */\n    tag_136:\n        /* \"@openzeppelin/contracts/token/ERC20/ERC20.sol\":10258:10259  0 */\n      0x00\n        /* \"@openzeppelin/contracts/token/ERC20/ERC20.sol\":10241:10260  owner != address(0) */\n      0xffffffffffffffffffffffffffffffffffffffff\n      and\n        /* \"@openzeppelin/contracts/token/ERC20/ERC20.sol\":10241:10246  owner */\n      dup4\n        /* \"@openzeppelin/contracts/token/ERC20/ERC20.sol\":10241:10260  owner != address(0) */\n      0xffffffffffffffffffffffffffffffffffffffff\n      and\n      eq\n      iszero\n        /* \"@openzeppelin/contracts/token/ERC20/ERC20.sol\":10233:10301  require(owner != address(0), \"ERC20: approve from the zero address\") */\n      tag_252\n      jumpi\n      mload(0x40)\n      0x08c379a000000000000000000000000000000000000000000000000000000000\n      dup2\n      mstore\n      0x04\n      add\n      tag_253\n      swap1\n      tag_254\n      jump\t// in\n    tag_253:\n      mload(0x40)\n      dup1\n      swap2\n      sub\n      swap1\n      revert\n    tag_252:\n        /* \"@openzeppelin/contracts/token/ERC20/ERC20.sol\":10338:10339  0 */\n      0x00\n        /* \"@openzeppelin/contracts/token/ERC20/ERC20.sol\":10319:10340  spender != address(0) */\n      0xffffffffffffffffffffffffffffffffffffffff\n      and\n        /* \"@openzeppelin/contracts/token/ERC20/ERC20.sol\":10319:10326  spender */\n      dup3\n        /* \"@openzeppelin/contracts/token/ERC20/ERC20.sol\":10319:10340  spender != address(0) */\n      0xffffffffffffffffffffffffffffffffffffffff\n      and\n      eq\n      iszero\n        /* \"@openzeppelin/contracts/token/ERC20/ERC20.sol\":10311:10379  require(spender != address(0), \"ERC20: approve to the zero address\") */\n      tag_255\n      jumpi\n      mload(0x40)\n      0x08c379a000000000000000000000000000000000000000000000000000000000\n      dup2\n      mstore\n      0x04\n      add\n      tag_256\n      swap1\n      tag_257\n      jump\t// in\n    tag_256:\n      mload(0x40)\n      dup1\n      swap2\n      sub\n      swap1\n      revert\n    tag_255:\n        /* \"@openzeppelin/contracts/token/ERC20/ERC20.sol\":10420:10426  amount */\n      dup1\n        /* \"@openzeppelin/contracts/token/ERC20/ERC20.sol\":10390:10401  _allowances */\n      0x01\n        /* \"@openzeppelin/contracts/token/ERC20/ERC20.sol\":10390:10408  _allowances[owner] */\n      0x00\n        /* \"@openzeppelin/contracts/token/ERC20/ERC20.sol\":10402:10407  owner */\n      dup6\n        /* \"@openzeppelin/contracts/token/ERC20/ERC20.sol\":10390:10408  _allowances[owner] */\n      0xffffffffffffffffffffffffffffffffffffffff\n      and\n      0xffffffffffffffffffffffffffffffffffffffff\n      and\n      dup2\n      mstore\n      0x20\n      add\n      swap1\n      dup2\n      mstore\n      0x20\n      add\n      0x00\n      keccak256\n        /* \"@openzeppelin/contracts/token/ERC20/ERC20.sol\":10390:10417  _allowances[owner][spender] */\n      0x00\n        /* \"@openzeppelin/contracts/token/ERC20/ERC20.sol\":10409:10416  spender */\n      dup5\n        /* \"@openzeppelin/contracts/token/ERC20/ERC20.sol\":10390:10417  _allowances[owner][spender] */\n      0xffffffffffffffffffffffffffffffffffffffff\n      and\n      0xffffffffffffffffffffffffffffffffffffffff\n      and\n      dup2\n      mstore\n      0x20\n      add\n      swap1\n      dup2\n      mstore\n      0x20\n      add\n      0x00\n      keccak256\n        /* \"@openzeppelin/contracts/token/ERC20/ERC20.sol\":10390:10426  _allowances[owner][spender] = amount */\n      dup2\n      swap1\n      sstore\n      pop\n        /* \"@openzeppelin/contracts/token/ERC20/ERC20.sol\":10457:10464  spender */\n      dup2\n        /* \"@openzeppelin/contracts/token/ERC20/ERC20.sol\":10441:10473  Approval(owner, spender, amount) */\n      0xffffffffffffffffffffffffffffffffffffffff\n      and\n        /* \"@openzeppelin/contracts/token/ERC20/ERC20.sol\":10450:10455  owner */\n      dup4\n        /* \"@openzeppelin/contracts/token/ERC20/ERC20.sol\":10441:10473  Approval(owner, spender, amount) */\n      0xffffffffffffffffffffffffffffffffffffffff\n      and\n      0x8c5be1e5ebec7d5bd14f71427d1e84f3dd0314c0f7b2291e5b200ac8c7c3b925\n        /* \"@openzeppelin/contracts/token/ERC20/ERC20.sol\":10466:10472  amount */\n      dup4\n        /* \"@openzeppelin/contracts/token/ERC20/ERC20.sol\":10441:10473  Approval(owner, spender, amount) */\n      mload(0x40)\n      tag_258\n      swap2\n      swap1\n      tag_39\n      jump\t// in\n    tag_258:\n      mload(0x40)\n      dup1\n      swap2\n      sub\n      swap1\n      log3\n        /* \"@openzeppelin/contracts/token/ERC20/ERC20.sol\":10110:10480  function _approve(... */\n      pop\n      pop\n      pop\n      jump\t// out\n        /* \"@openzeppelin/contracts/token/ERC20/ERC20.sol\":9111:9687  function _burn(address account, uint256 amount) internal virtual {... */\n    tag_158:\n        /* \"@openzeppelin/contracts/token/ERC20/ERC20.sol\":9213:9214  0 */\n      0x00\n        /* \"@openzeppelin/contracts/token/ERC20/ERC20.sol\":9194:9215  account != address(0) */\n      0xffffffffffffffffffffffffffffffffffffffff\n      and\n        /* \"@openzeppelin/contracts/token/ERC20/ERC20.sol\":9194:9201  account */\n      dup3\n        /* \"@openzeppelin/contracts/token/ERC20/ERC20.sol\":9194:9215  account != address(0) */\n      0xffffffffffffffffffffffffffffffffffffffff\n      and\n      eq\n      iszero\n        /* \"@openzeppelin/contracts/token/ERC20/ERC20.sol\":9186:9253  require(account != address(0), \"ERC20: burn from the zero address\") */\n      tag_260\n      jumpi\n      mload(0x40)\n      0x08c379a000000000000000000000000000000000000000000000000000000000\n      dup2\n      mstore\n      0x04\n      add\n      tag_261\n      swap1\n      tag_262\n      jump\t// in\n    tag_261:\n      mload(0x40)\n      dup1\n      swap2\n      sub\n      swap1\n      revert\n    tag_260:\n        /* \"@openzeppelin/contracts/token/ERC20/ERC20.sol\":9264:9313  _beforeTokenTransfer(account, address(0), amount) */\n      tag_263\n        /* \"@openzeppelin/contracts/token/ERC20/ERC20.sol\":9285:9292  account */\n      dup3\n        /* \"@openzeppelin/contracts/token/ERC20/ERC20.sol\":9302:9303  0 */\n      0x00\n        /* \"@openzeppelin/contracts/token/ERC20/ERC20.sol\":9306:9312  amount */\n      dup4\n        /* \"@openzeppelin/contracts/token/ERC20/ERC20.sol\":9264:9284  _beforeTokenTransfer */\n      tag_264\n        /* \"@openzeppelin/contracts/token/ERC20/ERC20.sol\":9264:9313  _beforeTokenTransfer(account, address(0), amount) */\n      jump\t// in\n    tag_263:\n        /* \"@openzeppelin/contracts/token/ERC20/ERC20.sol\":9324:9346  uint256 accountBalance */\n      0x00\n        /* \"@openzeppelin/contracts/token/ERC20/ERC20.sol\":9349:9358  _balances */\n      dup1\n        /* \"@openzeppelin/contracts/token/ERC20/ERC20.sol\":9349:9367  _balances[account] */\n      0x00\n        /* \"@openzeppelin/contracts/token/ERC20/ERC20.sol\":9359:9366  account */\n      dup5\n        /* \"@openzeppelin/contracts/token/ERC20/ERC20.sol\":9349:9367  _balances[account] */\n      0xffffffffffffffffffffffffffffffffffffffff\n      and\n      0xffffffffffffffffffffffffffffffffffffffff\n      and\n      dup2\n      mstore\n      0x20\n      add\n      swap1\n      dup2\n      mstore\n      0x20\n      add\n      0x00\n      keccak256\n      sload\n        /* \"@openzeppelin/contracts/token/ERC20/ERC20.sol\":9324:9367  uint256 accountBalance = _balances[account] */\n      swap1\n      pop\n        /* \"@openzeppelin/contracts/token/ERC20/ERC20.sol\":9403:9409  amount */\n      dup2\n        /* \"@openzeppelin/contracts/token/ERC20/ERC20.sol\":9385:9399  accountBalance */\n      dup2\n        /* \"@openzeppelin/contracts/token/ERC20/ERC20.sol\":9385:9409  accountBalance >= amount */\n      lt\n      iszero\n        /* \"@openzeppelin/contracts/token/ERC20/ERC20.sol\":9377:9448  require(accountBalance >= amount, \"ERC20: burn amount exceeds balance\") */\n      tag_265\n      jumpi\n      mload(0x40)\n      0x08c379a000000000000000000000000000000000000000000000000000000000\n      dup2\n      mstore\n      0x04\n      add\n      tag_266\n      swap1\n      tag_267\n      jump\t// in\n    tag_266:\n      mload(0x40)\n      dup1\n      swap2\n      sub\n      swap1\n      revert\n    tag_265:\n        /* \"@openzeppelin/contracts/token/ERC20/ERC20.sol\":9520:9526  amount */\n      dup2\n        /* \"@openzeppelin/contracts/token/ERC20/ERC20.sol\":9503:9517  accountBalance */\n      dup2\n        /* \"@openzeppelin/contracts/token/ERC20/ERC20.sol\":9503:9526  accountBalance - amount */\n      sub\n        /* \"@openzeppelin/contracts/token/ERC20/ERC20.sol\":9482:9491  _balances */\n      0x00\n        /* \"@openzeppelin/contracts/token/ERC20/ERC20.sol\":9482:9500  _balances[account] */\n      dup1\n        /* \"@openzeppelin/contracts/token/ERC20/ERC20.sol\":9492:9499  account */\n      dup6\n        /* \"@openzeppelin/contracts/token/ERC20/ERC20.sol\":9482:9500  _balances[account] */\n      0xffffffffffffffffffffffffffffffffffffffff\n      and\n      0xffffffffffffffffffffffffffffffffffffffff\n      and\n      dup2\n      mstore\n      0x20\n      add\n      swap1\n      dup2\n      mstore\n      0x20\n      add\n      0x00\n      keccak256\n        /* \"@openzeppelin/contracts/token/ERC20/ERC20.sol\":9482:9526  _balances[account] = accountBalance - amount */\n      dup2\n      swap1\n      sstore\n      pop\n        /* \"@openzeppelin/contracts/token/ERC20/ERC20.sol\":9562:9568  amount */\n      dup2\n        /* \"@openzeppelin/contracts/token/ERC20/ERC20.sol\":9546:9558  _totalSupply */\n      0x02\n      0x00\n        /* \"@openzeppelin/contracts/token/ERC20/ERC20.sol\":9546:9568  _totalSupply -= amount */\n      dup3\n      dup3\n      sload\n      tag_268\n      swap2\n      swap1\n      tag_156\n      jump\t// in\n    tag_268:\n      swap3\n      pop\n      pop\n      dup2\n      swap1\n      sstore\n      pop\n        /* \"@openzeppelin/contracts/token/ERC20/ERC20.sol\":9610:9611  0 */\n      0x00\n        /* \"@openzeppelin/contracts/token/ERC20/ERC20.sol\":9584:9621  Transfer(account, address(0), amount) */\n      0xffffffffffffffffffffffffffffffffffffffff\n      and\n        /* \"@openzeppelin/contracts/token/ERC20/ERC20.sol\":9593:9600  account */\n      dup4\n        /* \"@openzeppelin/contracts/token/ERC20/ERC20.sol\":9584:9621  Transfer(account, address(0), amount) */\n      0xffffffffffffffffffffffffffffffffffffffff\n      and\n      0xddf252ad1be2c89b69c2b068fc378daa952ba7f163c4a11628f55a4df523b3ef\n        /* \"@openzeppelin/contracts/token/ERC20/ERC20.sol\":9614:9620  amount */\n      dup5\n        /* \"@openzeppelin/contracts/token/ERC20/ERC20.sol\":9584:9621  Transfer(account, address(0), amount) */\n      mload(0x40)\n      tag_269\n      swap2\n      swap1\n      tag_39\n      jump\t// in\n    tag_269:\n      mload(0x40)\n      dup1\n      swap2\n      sub\n      swap1\n      log3\n        /* \"@openzeppelin/contracts/token/ERC20/ERC20.sol\":9632:9680  _afterTokenTransfer(account, address(0), amount) */\n      tag_270\n        /* \"@openzeppelin/contracts/token/ERC20/ERC20.sol\":9652:9659  account */\n      dup4\n        /* \"@openzeppelin/contracts/token/ERC20/ERC20.sol\":9669:9670  0 */\n      0x00\n        /* \"@openzeppelin/contracts/token/ERC20/ERC20.sol\":9673:9679  amount */\n      dup5\n        /* \"@openzeppelin/contracts/token/ERC20/ERC20.sol\":9632:9651  _afterTokenTransfer */\n      tag_271\n        /* \"@openzeppelin/contracts/token/ERC20/ERC20.sol\":9632:9680  _afterTokenTransfer(account, address(0), amount) */\n      jump\t// in\n    tag_270:\n        /* \"@openzeppelin/contracts/token/ERC20/ERC20.sol\":9176:9687  {... */\n      pop\n        /* \"@openzeppelin/contracts/token/ERC20/ERC20.sol\":9111:9687  function _burn(address account, uint256 amount) internal virtual {... */\n      pop\n      pop\n      jump\t// out\n        /* \"@openzeppelin/contracts/token/ERC20/ERC20.sol\":10761:11202  function _spendAllowance(... */\n    tag_162:\n        /* \"@openzeppelin/contracts/token/ERC20/ERC20.sol\":10891:10915  uint256 currentAllowance */\n      0x00\n        /* \"@openzeppelin/contracts/token/ERC20/ERC20.sol\":10918:10943  allowance(owner, spender) */\n      tag_273\n        /* \"@openzeppelin/contracts/token/ERC20/ERC20.sol\":10928:10933  owner */\n      dup5\n        /* \"@openzeppelin/contracts/token/ERC20/ERC20.sol\":10935:10942  spender */\n      dup5\n        /* \"@openzeppelin/contracts/token/ERC20/ERC20.sol\":10918:10927  allowance */\n      tag_123\n        /* \"@openzeppelin/contracts/token/ERC20/ERC20.sol\":10918:10943  allowance(owner, spender) */\n      jump\t// in\n    tag_273:\n        /* \"@openzeppelin/contracts/token/ERC20/ERC20.sol\":10891:10943  uint256 currentAllowance = allowance(owner, spender) */\n      swap1\n      pop\n        /* \"@openzeppelin/contracts/token/ERC20/ERC20.sol\":10977:10994  type(uint256).max */\n      0xffffffffffffffffffffffffffffffffffffffffffffffffffffffffffffffff\n        /* \"@openzeppelin/contracts/token/ERC20/ERC20.sol\":10957:10973  currentAllowance */\n      dup2\n        /* \"@openzeppelin/contracts/token/ERC20/ERC20.sol\":10957:10994  currentAllowance != type(uint256).max */\n      eq\n        /* \"@openzeppelin/contracts/token/ERC20/ERC20.sol\":10953:11196  if (currentAllowance != type(uint256).max) {... */\n      tag_274\n      jumpi\n        /* \"@openzeppelin/contracts/token/ERC20/ERC20.sol\":11038:11044  amount */\n      dup2\n        /* \"@openzeppelin/contracts/token/ERC20/ERC20.sol\":11018:11034  currentAllowance */\n      dup2\n        /* \"@openzeppelin/contracts/token/ERC20/ERC20.sol\":11018:11044  currentAllowance >= amount */\n      lt\n      iszero\n        /* \"@openzeppelin/contracts/token/ERC20/ERC20.sol\":11010:11078  require(currentAllowance >= amount, \"ERC20: insufficient allowance\") */\n      tag_275\n      jumpi\n      mload(0x40)\n      0x08c379a000000000000000000000000000000000000000000000000000000000\n      dup2\n      mstore\n      0x04\n      add\n      tag_276\n      swap1\n      tag_277\n      jump\t// in\n    tag_276:\n      mload(0x40)\n      dup1\n      swap2\n      sub\n      swap1\n      revert\n    tag_275:\n        /* \"@openzeppelin/contracts/token/ERC20/ERC20.sol\":11120:11171  _approve(owner, spender, currentAllowance - amount) */\n      tag_278\n        /* \"@openzeppelin/contracts/token/ERC20/ERC20.sol\":11129:11134  owner */\n      dup5\n        /* \"@openzeppelin/contracts/token/ERC20/ERC20.sol\":11136:11143  spender */\n      dup5\n        /* \"@openzeppelin/contracts/token/ERC20/ERC20.sol\":11164:11170  amount */\n      dup5\n        /* \"@openzeppelin/contracts/token/ERC20/ERC20.sol\":11145:11161  currentAllowance */\n      dup5\n        /* \"@openzeppelin/contracts/token/ERC20/ERC20.sol\":11145:11170  currentAllowance - amount */\n      sub\n        /* \"@openzeppelin/contracts/token/ERC20/ERC20.sol\":11120:11128  _approve */\n      tag_136\n        /* \"@openzeppelin/contracts/token/ERC20/ERC20.sol\":11120:11171  _approve(owner, spender, currentAllowance - amount) */\n      jump\t// in\n    tag_278:\n        /* \"@openzeppelin/contracts/token/ERC20/ERC20.sol\":10953:11196  if (currentAllowance != type(uint256).max) {... */\n    tag_274:\n        /* \"@openzeppelin/contracts/token/ERC20/ERC20.sol\":10881:11202  {... */\n      pop\n        /* \"@openzeppelin/contracts/token/ERC20/ERC20.sol\":10761:11202  function _spendAllowance(... */\n      pop\n      pop\n      pop\n      jump\t// out\n        /* \"@openzeppelin/contracts/token/ERC20/ERC20.sol\":7475:8126  function _transfer(... */\n    tag_164:\n        /* \"@openzeppelin/contracts/token/ERC20/ERC20.sol\":7617:7618  0 */\n      0x00\n        /* \"@openzeppelin/contracts/token/ERC20/ERC20.sol\":7601:7619  from != address(0) */\n      0xffffffffffffffffffffffffffffffffffffffff\n      and\n        /* \"@openzeppelin/contracts/token/ERC20/ERC20.sol\":7601:7605  from */\n      dup4\n        /* \"@openzeppelin/contracts/token/ERC20/ERC20.sol\":7601:7619  from != address(0) */\n      0xffffffffffffffffffffffffffffffffffffffff\n      and\n      eq\n      iszero\n        /* \"@openzeppelin/contracts/token/ERC20/ERC20.sol\":7593:7661  require(from != address(0), \"ERC20: transfer from the zero address\") */\n      tag_280\n      jumpi\n      mload(0x40)\n      0x08c379a000000000000000000000000000000000000000000000000000000000\n      dup2\n      mstore\n      0x04\n      add\n      tag_281\n      swap1\n      tag_282\n      jump\t// in\n    tag_281:\n      mload(0x40)\n      dup1\n      swap2\n      sub\n      swap1\n      revert\n    tag_280:\n        /* \"@openzeppelin/contracts/token/ERC20/ERC20.sol\":7693:7694  0 */\n      0x00\n        /* \"@openzeppelin/contracts/token/ERC20/ERC20.sol\":7679:7695  to != address(0) */\n      0xffffffffffffffffffffffffffffffffffffffff\n      and\n        /* \"@openzeppelin/contracts/token/ERC20/ERC20.sol\":7679:7681  to */\n      dup3\n        /* \"@openzeppelin/contracts/token/ERC20/ERC20.sol\":7679:7695  to != address(0) */\n      0xffffffffffffffffffffffffffffffffffffffff\n      and\n      eq\n      iszero\n        /* \"@openzeppelin/contracts/token/ERC20/ERC20.sol\":7671:7735  require(to != address(0), \"ERC20: transfer to the zero address\") */\n      tag_283\n      jumpi\n      mload(0x40)\n      0x08c379a000000000000000000000000000000000000000000000000000000000\n      dup2\n      mstore\n      0x04\n      add\n      tag_284\n      swap1\n      tag_285\n      jump\t// in\n    tag_284:\n      mload(0x40)\n      dup1\n      swap2\n      sub\n      swap1\n      revert\n    tag_283:\n        /* \"@openzeppelin/contracts/token/ERC20/ERC20.sol\":7746:7784  _beforeTokenTransfer(from, to, amount) */\n      tag_286\n        /* \"@openzeppelin/contracts/token/ERC20/ERC20.sol\":7767:7771  from */\n      dup4\n        /* \"@openzeppelin/contracts/token/ERC20/ERC20.sol\":7773:7775  to */\n      dup4\n        /* \"@openzeppelin/contracts/token/ERC20/ERC20.sol\":7777:7783  amount */\n      dup4\n        /* \"@openzeppelin/contracts/token/ERC20/ERC20.sol\":7746:7766  _beforeTokenTransfer */\n      tag_264\n        /* \"@openzeppelin/contracts/token/ERC20/ERC20.sol\":7746:7784  _beforeTokenTransfer(from, to, amount) */\n      jump\t// in\n    tag_286:\n        /* \"@openzeppelin/contracts/token/ERC20/ERC20.sol\":7795:7814  uint256 fromBalance */\n      0x00\n        /* \"@openzeppelin/contracts/token/ERC20/ERC20.sol\":7817:7826  _balances */\n      dup1\n        /* \"@openzeppelin/contracts/token/ERC20/ERC20.sol\":7817:7832  _balances[from] */\n      0x00\n        /* \"@openzeppelin/contracts/token/ERC20/ERC20.sol\":7827:7831  from */\n      dup6\n        /* \"@openzeppelin/contracts/token/ERC20/ERC20.sol\":7817:7832  _balances[from] */\n      0xffffffffffffffffffffffffffffffffffffffff\n      and\n      0xffffffffffffffffffffffffffffffffffffffff\n      and\n      dup2\n      mstore\n      0x20\n      add\n      swap1\n      dup2\n      mstore\n      0x20\n      add\n      0x00\n      keccak256\n      sload\n        /* \"@openzeppelin/contracts/token/ERC20/ERC20.sol\":7795:7832  uint256 fromBalance = _balances[from] */\n      swap1\n      pop\n        /* \"@openzeppelin/contracts/token/ERC20/ERC20.sol\":7865:7871  amount */\n      dup2\n        /* \"@openzeppelin/contracts/token/ERC20/ERC20.sol\":7850:7861  fromBalance */\n      dup2\n        /* \"@openzeppelin/contracts/token/ERC20/ERC20.sol\":7850:7871  fromBalance >= amount */\n      lt\n      iszero\n        /* \"@openzeppelin/contracts/token/ERC20/ERC20.sol\":7842:7914  require(fromBalance >= amount, \"ERC20: transfer amount exceeds balance\") */\n      tag_287\n      jumpi\n      mload(0x40)\n      0x08c379a000000000000000000000000000000000000000000000000000000000\n      dup2\n      mstore\n      0x04\n      add\n      tag_288\n      swap1\n      tag_289\n      jump\t// in\n    tag_288:\n      mload(0x40)\n      dup1\n      swap2\n      sub\n      swap1\n      revert\n    tag_287:\n        /* \"@openzeppelin/contracts/token/ERC20/ERC20.sol\":7980:7986  amount */\n      dup2\n        /* \"@openzeppelin/contracts/token/ERC20/ERC20.sol\":7966:7977  fromBalance */\n      dup2\n        /* \"@openzeppelin/contracts/token/ERC20/ERC20.sol\":7966:7986  fromBalance - amount */\n      sub\n        /* \"@openzeppelin/contracts/token/ERC20/ERC20.sol\":7948:7957  _balances */\n      0x00\n        /* \"@openzeppelin/contracts/token/ERC20/ERC20.sol\":7948:7963  _balances[from] */\n      dup1\n        /* \"@openzeppelin/contracts/token/ERC20/ERC20.sol\":7958:7962  from */\n      dup7\n        /* \"@openzeppelin/contracts/token/ERC20/ERC20.sol\":7948:7963  _balances[from] */\n      0xffffffffffffffffffffffffffffffffffffffff\n      and\n      0xffffffffffffffffffffffffffffffffffffffff\n      and\n      dup2\n      mstore\n      0x20\n      add\n      swap1\n      dup2\n      mstore\n      0x20\n      add\n      0x00\n      keccak256\n        /* \"@openzeppelin/contracts/token/ERC20/ERC20.sol\":7948:7986  _balances[from] = fromBalance - amount */\n      dup2\n      swap1\n      sstore\n      pop\n        /* \"@openzeppelin/contracts/token/ERC20/ERC20.sol\":8023:8029  amount */\n      dup2\n        /* \"@openzeppelin/contracts/token/ERC20/ERC20.sol\":8006:8015  _balances */\n      0x00\n        /* \"@openzeppelin/contracts/token/ERC20/ERC20.sol\":8006:8019  _balances[to] */\n      dup1\n        /* \"@openzeppelin/contracts/token/ERC20/ERC20.sol\":8016:8018  to */\n      dup6\n        /* \"@openzeppelin/contracts/token/ERC20/ERC20.sol\":8006:8019  _balances[to] */\n      0xffffffffffffffffffffffffffffffffffffffff\n      and\n      0xffffffffffffffffffffffffffffffffffffffff\n      and\n      dup2\n      mstore\n      0x20\n      add\n      swap1\n      dup2\n      mstore\n      0x20\n      add\n      0x00\n      keccak256\n      0x00\n        /* \"@openzeppelin/contracts/token/ERC20/ERC20.sol\":8006:8029  _balances[to] += amount */\n      dup3\n      dup3\n      sload\n      tag_290\n      swap2\n      swap1\n      tag_187\n      jump\t// in\n    tag_290:\n      swap3\n      pop\n      pop\n      dup2\n      swap1\n      sstore\n      pop\n        /* \"@openzeppelin/contracts/token/ERC20/ERC20.sol\":8060:8062  to */\n      dup3\n        /* \"@openzeppelin/contracts/token/ERC20/ERC20.sol\":8045:8071  Transfer(from, to, amount) */\n      0xffffffffffffffffffffffffffffffffffffffff\n      and\n        /* \"@openzeppelin/contracts/token/ERC20/ERC20.sol\":8054:8058  from */\n      dup5\n        /* \"@openzeppelin/contracts/token/ERC20/ERC20.sol\":8045:8071  Transfer(from, to, amount) */\n      0xffffffffffffffffffffffffffffffffffffffff\n      and\n      0xddf252ad1be2c89b69c2b068fc378daa952ba7f163c4a11628f55a4df523b3ef\n        /* \"@openzeppelin/contracts/token/ERC20/ERC20.sol\":8064:8070  amount */\n      dup5\n        /* \"@openzeppelin/contracts/token/ERC20/ERC20.sol\":8045:8071  Transfer(from, to, amount) */\n      mload(0x40)\n      tag_291\n      swap2\n      swap1\n      tag_39\n      jump\t// in\n    tag_291:\n      mload(0x40)\n      dup1\n      swap2\n      sub\n      swap1\n      log3\n        /* \"@openzeppelin/contracts/token/ERC20/ERC20.sol\":8082:8119  _afterTokenTransfer(from, to, amount) */\n      tag_292\n        /* \"@openzeppelin/contracts/token/ERC20/ERC20.sol\":8102:8106  from */\n      dup5\n        /* \"@openzeppelin/contracts/token/ERC20/ERC20.sol\":8108:8110  to */\n      dup5\n        /* \"@openzeppelin/contracts/token/ERC20/ERC20.sol\":8112:8118  amount */\n      dup5\n        /* \"@openzeppelin/contracts/token/ERC20/ERC20.sol\":8082:8101  _afterTokenTransfer */\n      tag_271\n        /* \"@openzeppelin/contracts/token/ERC20/ERC20.sol\":8082:8119  _afterTokenTransfer(from, to, amount) */\n      jump\t// in\n    tag_292:\n        /* \"@openzeppelin/contracts/token/ERC20/ERC20.sol\":7583:8126  {... */\n      pop\n        /* \"@openzeppelin/contracts/token/ERC20/ERC20.sol\":7475:8126  function _transfer(... */\n      pop\n      pop\n      pop\n      jump\t// out\n        /* \"@openzeppelin/contracts/token/ERC20/ERC20.sol\":8402:8791  function _mint(address account, uint256 amount) internal virtual {... */\n    tag_189:\n        /* \"@openzeppelin/contracts/token/ERC20/ERC20.sol\":8504:8505  0 */\n      0x00\n        /* \"@openzeppelin/contracts/token/ERC20/ERC20.sol\":8485:8506  account != address(0) */\n      0xffffffffffffffffffffffffffffffffffffffff\n      and\n        /* \"@openzeppelin/contracts/token/ERC20/ERC20.sol\":8485:8492  account */\n      dup3\n        /* \"@openzeppelin/contracts/token/ERC20/ERC20.sol\":8485:8506  account != address(0) */\n      0xffffffffffffffffffffffffffffffffffffffff\n      and\n      eq\n      iszero\n        /* \"@openzeppelin/contracts/token/ERC20/ERC20.sol\":8477:8542  require(account != address(0), \"ERC20: mint to the zero address\") */\n      tag_294\n      jumpi\n      mload(0x40)\n      0x08c379a000000000000000000000000000000000000000000000000000000000\n      dup2\n      mstore\n      0x04\n      add\n      tag_295\n      swap1\n      tag_296\n      jump\t// in\n    tag_295:\n      mload(0x40)\n      dup1\n      swap2\n      sub\n      swap1\n      revert\n    tag_294:\n        /* \"@openzeppelin/contracts/token/ERC20/ERC20.sol\":8553:8602  _beforeTokenTransfer(address(0), account, amount) */\n      tag_297\n        /* \"@openzeppelin/contracts/token/ERC20/ERC20.sol\":8582:8583  0 */\n      0x00\n        /* \"@openzeppelin/contracts/token/ERC20/ERC20.sol\":8586:8593  account */\n      dup4\n        /* \"@openzeppelin/contracts/token/ERC20/ERC20.sol\":8595:8601  amount */\n      dup4\n        /* \"@openzeppelin/contracts/token/ERC20/ERC20.sol\":8553:8573  _beforeTokenTransfer */\n      tag_264\n        /* \"@openzeppelin/contracts/token/ERC20/ERC20.sol\":8553:8602  _beforeTokenTransfer(address(0), account, amount) */\n      jump\t// in\n    tag_297:\n        /* \"@openzeppelin/contracts/token/ERC20/ERC20.sol\":8629:8635  amount */\n      dup1\n        /* \"@openzeppelin/contracts/token/ERC20/ERC20.sol\":8613:8625  _totalSupply */\n      0x02\n      0x00\n        /* \"@openzeppelin/contracts/token/ERC20/ERC20.sol\":8613:8635  _totalSupply += amount */\n      dup3\n      dup3\n      sload\n      tag_298\n      swap2\n      swap1\n      tag_187\n      jump\t// in\n    tag_298:\n      swap3\n      pop\n      pop\n      dup2\n      swap1\n      sstore\n      pop\n        /* \"@openzeppelin/contracts/token/ERC20/ERC20.sol\":8667:8673  amount */\n      dup1\n        /* \"@openzeppelin/contracts/token/ERC20/ERC20.sol\":8645:8654  _balances */\n      0x00\n        /* \"@openzeppelin/contracts/token/ERC20/ERC20.sol\":8645:8663  _balances[account] */\n      dup1\n        /* \"@openzeppelin/contracts/token/ERC20/ERC20.sol\":8655:8662  account */\n      dup5\n        /* \"@openzeppelin/contracts/token/ERC20/ERC20.sol\":8645:8663  _balances[account] */\n      0xffffffffffffffffffffffffffffffffffffffff\n      and\n      0xffffffffffffffffffffffffffffffffffffffff\n      and\n      dup2\n      mstore\n      0x20\n      add\n      swap1\n      dup2\n      mstore\n      0x20\n      add\n      0x00\n      keccak256\n      0x00\n        /* \"@openzeppelin/contracts/token/ERC20/ERC20.sol\":8645:8673  _balances[account] += amount */\n      dup3\n      dup3\n      sload\n      tag_299\n      swap2\n      swap1\n      tag_187\n      jump\t// in\n    tag_299:\n      swap3\n      pop\n      pop\n      dup2\n      swap1\n      sstore\n      pop\n        /* \"@openzeppelin/contracts/token/ERC20/ERC20.sol\":8709:8716  account */\n      dup2\n        /* \"@openzeppelin/contracts/token/ERC20/ERC20.sol\":8688:8725  Transfer(address(0), account, amount) */\n      0xffffffffffffffffffffffffffffffffffffffff\n      and\n        /* \"@openzeppelin/contracts/token/ERC20/ERC20.sol\":8705:8706  0 */\n      0x00\n        /* \"@openzeppelin/contracts/token/ERC20/ERC20.sol\":8688:8725  Transfer(address(0), account, amount) */\n      0xffffffffffffffffffffffffffffffffffffffff\n      and\n      0xddf252ad1be2c89b69c2b068fc378daa952ba7f163c4a11628f55a4df523b3ef\n        /* \"@openzeppelin/contracts/token/ERC20/ERC20.sol\":8718:8724  amount */\n      dup4\n        /* \"@openzeppelin/contracts/token/ERC20/ERC20.sol\":8688:8725  Transfer(address(0), account, amount) */\n      mload(0x40)\n      tag_300\n      swap2\n      swap1\n      tag_39\n      jump\t// in\n    tag_300:\n      mload(0x40)\n      dup1\n      swap2\n      sub\n      swap1\n      log3\n        /* \"@openzeppelin/contracts/token/ERC20/ERC20.sol\":8736:8784  _afterTokenTransfer(address(0), account, amount) */\n      tag_301\n        /* \"@openzeppelin/contracts/token/ERC20/ERC20.sol\":8764:8765  0 */\n      0x00\n        /* \"@openzeppelin/contracts/token/ERC20/ERC20.sol\":8768:8775  account */\n      dup4\n        /* \"@openzeppelin/contracts/token/ERC20/ERC20.sol\":8777:8783  amount */\n      dup4\n        /* \"@openzeppelin/contracts/token/ERC20/ERC20.sol\":8736:8755  _afterTokenTransfer */\n      tag_271\n        /* \"@openzeppelin/contracts/token/ERC20/ERC20.sol\":8736:8784  _afterTokenTransfer(address(0), account, amount) */\n      jump\t// in\n    tag_301:\n        /* \"@openzeppelin/contracts/token/ERC20/ERC20.sol\":8402:8791  function _mint(address account, uint256 amount) internal virtual {... */\n      pop\n      pop\n      jump\t// out\n        /* \"@openzeppelin/contracts/token/ERC20/ERC20.sol\":11786:11907  function _beforeTokenTransfer(... */\n    tag_264:\n      pop\n      pop\n      pop\n      jump\t// out\n        /* \"@openzeppelin/contracts/token/ERC20/ERC20.sol\":12495:12615  function _afterTokenTransfer(... */\n    tag_271:\n      pop\n      pop\n      pop\n      jump\t// out\n        /* \"#utility.yul\":7:146   */\n    tag_305:\n        /* \"#utility.yul\":53:58   */\n      0x00\n        /* \"#utility.yul\":91:97   */\n      dup2\n        /* \"#utility.yul\":78:98   */\n      calldataload\n        /* \"#utility.yul\":69:98   */\n      swap1\n      pop\n        /* \"#utility.yul\":107:140   */\n      tag_307\n        /* \"#utility.yul\":134:139   */\n      dup2\n        /* \"#utility.yul\":107:140   */\n      tag_308\n      jump\t// in\n    tag_307:\n        /* \"#utility.yul\":7:146   */\n      swap3\n      swap2\n      pop\n      pop\n      jump\t// out\n        /* \"#utility.yul\":152:289   */\n    tag_309:\n        /* \"#utility.yul\":206:211   */\n      0x00\n        /* \"#utility.yul\":237:243   */\n      dup2\n        /* \"#utility.yul\":231:244   */\n      mload\n        /* \"#utility.yul\":222:244   */\n      swap1\n      pop\n        /* \"#utility.yul\":253:283   */\n      tag_311\n        /* \"#utility.yul\":277:282   */\n      dup2\n        /* \"#utility.yul\":253:283   */\n      tag_312\n      jump\t// in\n    tag_311:\n        /* \"#utility.yul\":152:289   */\n      swap3\n      swap2\n      pop\n      pop\n      jump\t// out\n        /* \"#utility.yul\":308:860   */\n    tag_313:\n        /* \"#utility.yul\":365:373   */\n      0x00\n        /* \"#utility.yul\":375:381   */\n      dup1\n        /* \"#utility.yul\":425:428   */\n      dup4\n        /* \"#utility.yul\":418:422   */\n      0x1f\n        /* \"#utility.yul\":410:416   */\n      dup5\n        /* \"#utility.yul\":406:423   */\n      add\n        /* \"#utility.yul\":402:429   */\n      slt\n        /* \"#utility.yul\":392:514   */\n      tag_315\n      jumpi\n        /* \"#utility.yul\":433:512   */\n      tag_316\n      tag_317\n      jump\t// in\n    tag_316:\n        /* \"#utility.yul\":392:514   */\n    tag_315:\n        /* \"#utility.yul\":546:552   */\n      dup3\n        /* \"#utility.yul\":533:553   */\n      calldataload\n        /* \"#utility.yul\":523:553   */\n      swap1\n      pop\n        /* \"#utility.yul\":576:594   */\n      0xffffffffffffffff\n        /* \"#utility.yul\":568:574   */\n      dup2\n        /* \"#utility.yul\":565:595   */\n      gt\n        /* \"#utility.yul\":562:679   */\n      iszero\n      tag_318\n      jumpi\n        /* \"#utility.yul\":598:677   */\n      tag_319\n      tag_320\n      jump\t// in\n    tag_319:\n        /* \"#utility.yul\":562:679   */\n    tag_318:\n        /* \"#utility.yul\":712:716   */\n      0x20\n        /* \"#utility.yul\":704:710   */\n      dup4\n        /* \"#utility.yul\":700:717   */\n      add\n        /* \"#utility.yul\":688:717   */\n      swap2\n      pop\n        /* \"#utility.yul\":766:769   */\n      dup4\n        /* \"#utility.yul\":758:762   */\n      0x01\n        /* \"#utility.yul\":750:756   */\n      dup3\n        /* \"#utility.yul\":746:763   */\n      mul\n        /* \"#utility.yul\":736:744   */\n      dup4\n        /* \"#utility.yul\":732:764   */\n      add\n        /* \"#utility.yul\":729:770   */\n      gt\n        /* \"#utility.yul\":726:854   */\n      iszero\n      tag_321\n      jumpi\n        /* \"#utility.yul\":773:852   */\n      tag_322\n      tag_323\n      jump\t// in\n    tag_322:\n        /* \"#utility.yul\":726:854   */\n    tag_321:\n        /* \"#utility.yul\":308:860   */\n      swap3\n      pop\n      swap3\n      swap1\n      pop\n      jump\t// out\n        /* \"#utility.yul\":866:1005   */\n    tag_324:\n        /* \"#utility.yul\":912:917   */\n      0x00\n        /* \"#utility.yul\":950:956   */\n      dup2\n        /* \"#utility.yul\":937:957   */\n      calldataload\n        /* \"#utility.yul\":928:957   */\n      swap1\n      pop\n        /* \"#utility.yul\":966:999   */\n      tag_326\n        /* \"#utility.yul\":993:998   */\n      dup2\n        /* \"#utility.yul\":966:999   */\n      tag_327\n      jump\t// in\n    tag_326:\n        /* \"#utility.yul\":866:1005   */\n      swap3\n      swap2\n      pop\n      pop\n      jump\t// out\n        /* \"#utility.yul\":1011:1150   */\n    tag_328:\n        /* \"#utility.yul\":1066:1071   */\n      0x00\n        /* \"#utility.yul\":1097:1103   */\n      dup2\n        /* \"#utility.yul\":1091:1104   */\n      mload\n        /* \"#utility.yul\":1082:1104   */\n      swap1\n      pop\n        /* \"#utility.yul\":1113:1144   */\n      tag_330\n        /* \"#utility.yul\":1138:1143   */\n      dup2\n        /* \"#utility.yul\":1113:1144   */\n      tag_331\n      jump\t// in\n    tag_330:\n        /* \"#utility.yul\":1011:1150   */\n      swap3\n      swap2\n      pop\n      pop\n      jump\t// out\n        /* \"#utility.yul\":1156:1485   */\n    tag_89:\n        /* \"#utility.yul\":1215:1221   */\n      0x00\n        /* \"#utility.yul\":1264:1266   */\n      0x20\n        /* \"#utility.yul\":1252:1261   */\n      dup3\n        /* \"#utility.yul\":1243:1250   */\n      dup5\n        /* \"#utility.yul\":1239:1262   */\n      sub\n        /* \"#utility.yul\":1235:1267   */\n      slt\n        /* \"#utility.yul\":1232:1351   */\n      iszero\n      tag_333\n      jumpi\n        /* \"#utility.yul\":1270:1349   */\n      tag_334\n      tag_335\n      jump\t// in\n    tag_334:\n        /* \"#utility.yul\":1232:1351   */\n    tag_333:\n        /* \"#utility.yul\":1390:1391   */\n      0x00\n        /* \"#utility.yul\":1415:1468   */\n      tag_336\n        /* \"#utility.yul\":1460:1467   */\n      dup5\n        /* \"#utility.yul\":1451:1457   */\n      dup3\n        /* \"#utility.yul\":1440:1449   */\n      dup6\n        /* \"#utility.yul\":1436:1458   */\n      add\n        /* \"#utility.yul\":1415:1468   */\n      tag_305\n      jump\t// in\n    tag_336:\n        /* \"#utility.yul\":1405:1468   */\n      swap2\n      pop\n        /* \"#utility.yul\":1361:1478   */\n      pop\n        /* \"#utility.yul\":1156:1485   */\n      swap3\n      swap2\n      pop\n      pop\n      jump\t// out\n        /* \"#utility.yul\":1491:1965   */\n    tag_122:\n        /* \"#utility.yul\":1559:1565   */\n      0x00\n        /* \"#utility.yul\":1567:1573   */\n      dup1\n        /* \"#utility.yul\":1616:1618   */\n      0x40\n        /* \"#utility.yul\":1604:1613   */\n      dup4\n        /* \"#utility.yul\":1595:1602   */\n      dup6\n        /* \"#utility.yul\":1591:1614   */\n      sub\n        /* \"#utility.yul\":1587:1619   */\n      slt\n        /* \"#utility.yul\":1584:1703   */\n      iszero\n      tag_338\n      jumpi\n        /* \"#utility.yul\":1622:1701   */\n      tag_339\n      tag_335\n      jump\t// in\n    tag_339:\n        /* \"#utility.yul\":1584:1703   */\n    tag_338:\n        /* \"#utility.yul\":1742:1743   */\n      0x00\n        /* \"#utility.yul\":1767:1820   */\n      tag_340\n        /* \"#utility.yul\":1812:1819   */\n      dup6\n        /* \"#utility.yul\":1803:1809   */\n      dup3\n        /* \"#utility.yul\":1792:1801   */\n      dup7\n        /* \"#utility.yul\":1788:1810   */\n      add\n        /* \"#utility.yul\":1767:1820   */\n      tag_305\n      jump\t// in\n    tag_340:\n        /* \"#utility.yul\":1757:1820   */\n      swap3\n      pop\n        /* \"#utility.yul\":1713:1830   */\n      pop\n        /* \"#utility.yul\":1869:1871   */\n      0x20\n        /* \"#utility.yul\":1895:1948   */\n      tag_341\n        /* \"#utility.yul\":1940:1947   */\n      dup6\n        /* \"#utility.yul\":1931:1937   */\n      dup3\n        /* \"#utility.yul\":1920:1929   */\n      dup7\n        /* \"#utility.yul\":1916:1938   */\n      add\n        /* \"#utility.yul\":1895:1948   */\n      tag_305\n      jump\t// in\n    tag_341:\n        /* \"#utility.yul\":1885:1948   */\n      swap2\n      pop\n        /* \"#utility.yul\":1840:1958   */\n      pop\n        /* \"#utility.yul\":1491:1965   */\n      swap3\n      pop\n      swap3\n      swap1\n      pop\n      jump\t// out\n        /* \"#utility.yul\":1971:2590   */\n    tag_68:\n        /* \"#utility.yul\":2048:2054   */\n      0x00\n        /* \"#utility.yul\":2056:2062   */\n      dup1\n        /* \"#utility.yul\":2064:2070   */\n      0x00\n        /* \"#utility.yul\":2113:2115   */\n      0x60\n        /* \"#utility.yul\":2101:2110   */\n      dup5\n        /* \"#utility.yul\":2092:2099   */\n      dup7\n        /* \"#utility.yul\":2088:2111   */\n      sub\n        /* \"#utility.yul\":2084:2116   */\n      slt\n        /* \"#utility.yul\":2081:2200   */\n      iszero\n      tag_343\n      jumpi\n        /* \"#utility.yul\":2119:2198   */\n      tag_344\n      tag_335\n      jump\t// in\n    tag_344:\n        /* \"#utility.yul\":2081:2200   */\n    tag_343:\n        /* \"#utility.yul\":2239:2240   */\n      0x00\n        /* \"#utility.yul\":2264:2317   */\n      tag_345\n        /* \"#utility.yul\":2309:2316   */\n      dup7\n        /* \"#utility.yul\":2300:2306   */\n      dup3\n        /* \"#utility.yul\":2289:2298   */\n      dup8\n        /* \"#utility.yul\":2285:2307   */\n      add\n        /* \"#utility.yul\":2264:2317   */\n      tag_305\n      jump\t// in\n    tag_345:\n        /* \"#utility.yul\":2254:2317   */\n      swap4\n      pop\n        /* \"#utility.yul\":2210:2327   */\n      pop\n        /* \"#utility.yul\":2366:2368   */\n      0x20\n        /* \"#utility.yul\":2392:2445   */\n      tag_346\n        /* \"#utility.yul\":2437:2444   */\n      dup7\n        /* \"#utility.yul\":2428:2434   */\n      dup3\n        /* \"#utility.yul\":2417:2426   */\n      dup8\n        /* \"#utility.yul\":2413:2435   */\n      add\n        /* \"#utility.yul\":2392:2445   */\n      tag_305\n      jump\t// in\n    tag_346:\n        /* \"#utility.yul\":2382:2445   */\n      swap3\n      pop\n        /* \"#utility.yul\":2337:2455   */\n      pop\n        /* \"#utility.yul\":2494:2496   */\n      0x40\n        /* \"#utility.yul\":2520:2573   */\n      tag_347\n        /* \"#utility.yul\":2565:2572   */\n      dup7\n        /* \"#utility.yul\":2556:2562   */\n      dup3\n        /* \"#utility.yul\":2545:2554   */\n      dup8\n        /* \"#utility.yul\":2541:2563   */\n      add\n        /* \"#utility.yul\":2520:2573   */\n      tag_324\n      jump\t// in\n    tag_347:\n        /* \"#utility.yul\":2510:2573   */\n      swap2\n      pop\n        /* \"#utility.yul\":2465:2583   */\n      pop\n        /* \"#utility.yul\":1971:2590   */\n      swap3\n      pop\n      swap3\n      pop\n      swap3\n      jump\t// out\n        /* \"#utility.yul\":2596:3559   */\n    tag_52:\n        /* \"#utility.yul\":2693:2699   */\n      0x00\n        /* \"#utility.yul\":2701:2707   */\n      dup1\n        /* \"#utility.yul\":2709:2715   */\n      0x00\n        /* \"#utility.yul\":2717:2723   */\n      dup1\n        /* \"#utility.yul\":2725:2731   */\n      0x00\n        /* \"#utility.yul\":2774:2777   */\n      0x80\n        /* \"#utility.yul\":2762:2771   */\n      dup7\n        /* \"#utility.yul\":2753:2760   */\n      dup9\n        /* \"#utility.yul\":2749:2772   */\n      sub\n        /* \"#utility.yul\":2745:2778   */\n      slt\n        /* \"#utility.yul\":2742:2862   */\n      iszero\n      tag_349\n      jumpi\n        /* \"#utility.yul\":2781:2860   */\n      tag_350\n      tag_335\n      jump\t// in\n    tag_350:\n        /* \"#utility.yul\":2742:2862   */\n    tag_349:\n        /* \"#utility.yul\":2901:2902   */\n      0x00\n        /* \"#utility.yul\":2926:2979   */\n      tag_351\n        /* \"#utility.yul\":2971:2978   */\n      dup9\n        /* \"#utility.yul\":2962:2968   */\n      dup3\n        /* \"#utility.yul\":2951:2960   */\n      dup10\n        /* \"#utility.yul\":2947:2969   */\n      add\n        /* \"#utility.yul\":2926:2979   */\n      tag_305\n      jump\t// in\n    tag_351:\n        /* \"#utility.yul\":2916:2979   */\n      swap6\n      pop\n        /* \"#utility.yul\":2872:2989   */\n      pop\n        /* \"#utility.yul\":3028:3030   */\n      0x20\n        /* \"#utility.yul\":3054:3107   */\n      tag_352\n        /* \"#utility.yul\":3099:3106   */\n      dup9\n        /* \"#utility.yul\":3090:3096   */\n      dup3\n        /* \"#utility.yul\":3079:3088   */\n      dup10\n        /* \"#utility.yul\":3075:3097   */\n      add\n        /* \"#utility.yul\":3054:3107   */\n      tag_305\n      jump\t// in\n    tag_352:\n        /* \"#utility.yul\":3044:3107   */\n      swap5\n      pop\n        /* \"#utility.yul\":2999:3117   */\n      pop\n        /* \"#utility.yul\":3156:3158   */\n      0x40\n        /* \"#utility.yul\":3182:3235   */\n      tag_353\n        /* \"#utility.yul\":3227:3234   */\n      dup9\n        /* \"#utility.yul\":3218:3224   */\n      dup3\n        /* \"#utility.yul\":3207:3216   */\n      dup10\n        /* \"#utility.yul\":3203:3225   */\n      add\n        /* \"#utility.yul\":3182:3235   */\n      tag_324\n      jump\t// in\n    tag_353:\n        /* \"#utility.yul\":3172:3235   */\n      swap4\n      pop\n        /* \"#utility.yul\":3127:3245   */\n      pop\n        /* \"#utility.yul\":3312:3314   */\n      0x60\n        /* \"#utility.yul\":3301:3310   */\n      dup7\n        /* \"#utility.yul\":3297:3315   */\n      add\n        /* \"#utility.yul\":3284:3316   */\n      calldataload\n        /* \"#utility.yul\":3343:3361   */\n      0xffffffffffffffff\n        /* \"#utility.yul\":3335:3341   */\n      dup2\n        /* \"#utility.yul\":3332:3362   */\n      gt\n        /* \"#utility.yul\":3329:3446   */\n      iszero\n      tag_354\n      jumpi\n        /* \"#utility.yul\":3365:3444   */\n      tag_355\n      tag_356\n      jump\t// in\n    tag_355:\n        /* \"#utility.yul\":3329:3446   */\n    tag_354:\n        /* \"#utility.yul\":3478:3542   */\n      tag_357\n        /* \"#utility.yul\":3534:3541   */\n      dup9\n        /* \"#utility.yul\":3525:3531   */\n      dup3\n        /* \"#utility.yul\":3514:3523   */\n      dup10\n        /* \"#utility.yul\":3510:3532   */\n      add\n        /* \"#utility.yul\":3478:3542   */\n      tag_313\n      jump\t// in\n    tag_357:\n        /* \"#utility.yul\":3460:3542   */\n      swap3\n      pop\n      swap3\n      pop\n        /* \"#utility.yul\":3255:3552   */\n      pop\n        /* \"#utility.yul\":2596:3559   */\n      swap3\n      swap6\n      pop\n      swap3\n      swap6\n      swap1\n      swap4\n      pop\n      jump\t// out\n        /* \"#utility.yul\":3565:4039   */\n    tag_42:\n        /* \"#utility.yul\":3633:3639   */\n      0x00\n        /* \"#utility.yul\":3641:3647   */\n      dup1\n        /* \"#utility.yul\":3690:3692   */\n      0x40\n        /* \"#utility.yul\":3678:3687   */\n      dup4\n        /* \"#utility.yul\":3669:3676   */\n      dup6\n        /* \"#utility.yul\":3665:3688   */\n      sub\n        /* \"#utility.yul\":3661:3693   */\n      slt\n        /* \"#utility.yul\":3658:3777   */\n      iszero\n      tag_359\n      jumpi\n        /* \"#utility.yul\":3696:3775   */\n      tag_360\n      tag_335\n      jump\t// in\n    tag_360:\n        /* \"#utility.yul\":3658:3777   */\n    tag_359:\n        /* \"#utility.yul\":3816:3817   */\n      0x00\n        /* \"#utility.yul\":3841:3894   */\n      tag_361\n        /* \"#utility.yul\":3886:3893   */\n      dup6\n        /* \"#utility.yul\":3877:3883   */\n      dup3\n        /* \"#utility.yul\":3866:3875   */\n      dup7\n        /* \"#utility.yul\":3862:3884   */\n      add\n        /* \"#utility.yul\":3841:3894   */\n      tag_305\n      jump\t// in\n    tag_361:\n        /* \"#utility.yul\":3831:3894   */\n      swap3\n      pop\n        /* \"#utility.yul\":3787:3904   */\n      pop\n        /* \"#utility.yul\":3943:3945   */\n      0x20\n        /* \"#utility.yul\":3969:4022   */\n      tag_362\n        /* \"#utility.yul\":4014:4021   */\n      dup6\n        /* \"#utility.yul\":4005:4011   */\n      dup3\n        /* \"#utility.yul\":3994:4003   */\n      dup7\n        /* \"#utility.yul\":3990:4012   */\n      add\n        /* \"#utility.yul\":3969:4022   */\n      tag_324\n      jump\t// in\n    tag_362:\n        /* \"#utility.yul\":3959:4022   */\n      swap2\n      pop\n        /* \"#utility.yul\":3914:4032   */\n      pop\n        /* \"#utility.yul\":3565:4039   */\n      swap3\n      pop\n      swap3\n      swap1\n      pop\n      jump\t// out\n        /* \"#utility.yul\":4045:4390   */\n    tag_154:\n        /* \"#utility.yul\":4112:4118   */\n      0x00\n        /* \"#utility.yul\":4161:4163   */\n      0x20\n        /* \"#utility.yul\":4149:4158   */\n      dup3\n        /* \"#utility.yul\":4140:4147   */\n      dup5\n        /* \"#utility.yul\":4136:4159   */\n      sub\n        /* \"#utility.yul\":4132:4164   */\n      slt\n        /* \"#utility.yul\":4129:4248   */\n      iszero\n      tag_364\n      jumpi\n        /* \"#utility.yul\":4167:4246   */\n      tag_365\n      tag_335\n      jump\t// in\n    tag_365:\n        /* \"#utility.yul\":4129:4248   */\n    tag_364:\n        /* \"#utility.yul\":4287:4288   */\n      0x00\n        /* \"#utility.yul\":4312:4373   */\n      tag_366\n        /* \"#utility.yul\":4365:4372   */\n      dup5\n        /* \"#utility.yul\":4356:4362   */\n      dup3\n        /* \"#utility.yul\":4345:4354   */\n      dup6\n        /* \"#utility.yul\":4341:4363   */\n      add\n        /* \"#utility.yul\":4312:4373   */\n      tag_309\n      jump\t// in\n    tag_366:\n        /* \"#utility.yul\":4302:4373   */\n      swap2\n      pop\n        /* \"#utility.yul\":4258:4383   */\n      pop\n        /* \"#utility.yul\":4045:4390   */\n      swap3\n      swap2\n      pop\n      pop\n      jump\t// out\n        /* \"#utility.yul\":4396:4725   */\n    tag_64:\n        /* \"#utility.yul\":4455:4461   */\n      0x00\n        /* \"#utility.yul\":4504:4506   */\n      0x20\n        /* \"#utility.yul\":4492:4501   */\n      dup3\n        /* \"#utility.yul\":4483:4490   */\n      dup5\n        /* \"#utility.yul\":4479:4502   */\n      sub\n        /* \"#utility.yul\":4475:4507   */\n      slt\n        /* \"#utility.yul\":4472:4591   */\n      iszero\n      tag_368\n      jumpi\n        /* \"#utility.yul\":4510:4589   */\n      tag_369\n      tag_335\n      jump\t// in\n    tag_369:\n        /* \"#utility.yul\":4472:4591   */\n    tag_368:\n        /* \"#utility.yul\":4630:4631   */\n      0x00\n        /* \"#utility.yul\":4655:4708   */\n      tag_370\n        /* \"#utility.yul\":4700:4707   */\n      dup5\n        /* \"#utility.yul\":4691:4697   */\n      dup3\n        /* \"#utility.yul\":4680:4689   */\n      dup6\n        /* \"#utility.yul\":4676:4698   */\n      add\n        /* \"#utility.yul\":4655:4708   */\n      tag_324\n      jump\t// in\n    tag_370:\n        /* \"#utility.yul\":4645:4708   */\n      swap2\n      pop\n        /* \"#utility.yul\":4601:4718   */\n      pop\n        /* \"#utility.yul\":4396:4725   */\n      swap3\n      swap2\n      pop\n      pop\n      jump\t// out\n        /* \"#utility.yul\":4731:5078   */\n    tag_202:\n        /* \"#utility.yul\":4799:4805   */\n      0x00\n        /* \"#utility.yul\":4848:4850   */\n      0x20\n        /* \"#utility.yul\":4836:4845   */\n      dup3\n        /* \"#utility.yul\":4827:4834   */\n      dup5\n        /* \"#utility.yul\":4823:4846   */\n      sub\n        /* \"#utility.yul\":4819:4851   */\n      slt\n        /* \"#utility.yul\":4816:4935   */\n      iszero\n      tag_372\n      jumpi\n        /* \"#utility.yul\":4854:4933   */\n      tag_373\n      tag_335\n      jump\t// in\n    tag_373:\n        /* \"#utility.yul\":4816:4935   */\n    tag_372:\n        /* \"#utility.yul\":4974:4975   */\n      0x00\n        /* \"#utility.yul\":4999:5061   */\n      tag_374\n        /* \"#utility.yul\":5053:5060   */\n      dup5\n        /* \"#utility.yul\":5044:5050   */\n      dup3\n        /* \"#utility.yul\":5033:5042   */\n      dup6\n        /* \"#utility.yul\":5029:5051   */\n      add\n        /* \"#utility.yul\":4999:5061   */\n      tag_328\n      jump\t// in\n    tag_374:\n        /* \"#utility.yul\":4989:5061   */\n      swap2\n      pop\n        /* \"#utility.yul\":4945:5071   */\n      pop\n        /* \"#utility.yul\":4731:5078   */\n      swap3\n      swap2\n      pop\n      pop\n      jump\t// out\n        /* \"#utility.yul\":5084:5202   */\n    tag_375:\n        /* \"#utility.yul\":5171:5195   */\n      tag_377\n        /* \"#utility.yul\":5189:5194   */\n      dup2\n        /* \"#utility.yul\":5171:5195   */\n      tag_378\n      jump\t// in\n    tag_377:\n        /* \"#utility.yul\":5166:5169   */\n      dup3\n        /* \"#utility.yul\":5159:5196   */\n      mstore\n        /* \"#utility.yul\":5084:5202   */\n      pop\n      pop\n      jump\t// out\n        /* \"#utility.yul\":5208:5317   */\n    tag_379:\n        /* \"#utility.yul\":5289:5310   */\n      tag_381\n        /* \"#utility.yul\":5304:5309   */\n      dup2\n        /* \"#utility.yul\":5289:5310   */\n      tag_382\n      jump\t// in\n    tag_381:\n        /* \"#utility.yul\":5284:5287   */\n      dup3\n        /* \"#utility.yul\":5277:5311   */\n      mstore\n        /* \"#utility.yul\":5208:5317   */\n      pop\n      pop\n      jump\t// out\n        /* \"#utility.yul\":5323:5438   */\n    tag_383:\n        /* \"#utility.yul\":5408:5431   */\n      tag_385\n        /* \"#utility.yul\":5425:5430   */\n      dup2\n        /* \"#utility.yul\":5408:5431   */\n      tag_386\n      jump\t// in\n    tag_385:\n        /* \"#utility.yul\":5403:5406   */\n      dup3\n        /* \"#utility.yul\":5396:5432   */\n      mstore\n        /* \"#utility.yul\":5323:5438   */\n      pop\n      pop\n      jump\t// out\n        /* \"#utility.yul\":5444:5619   */\n    tag_387:\n        /* \"#utility.yul\":5553:5612   */\n      tag_389\n        /* \"#utility.yul\":5606:5611   */\n      dup2\n        /* \"#utility.yul\":5553:5612   */\n      tag_390\n      jump\t// in\n    tag_389:\n        /* \"#utility.yul\":5548:5551   */\n      dup3\n        /* \"#utility.yul\":5541:5613   */\n      mstore\n        /* \"#utility.yul\":5444:5619   */\n      pop\n      pop\n      jump\t// out\n        /* \"#utility.yul\":5625:5786   */\n    tag_391:\n        /* \"#utility.yul\":5727:5779   */\n      tag_393\n        /* \"#utility.yul\":5773:5778   */\n      dup2\n        /* \"#utility.yul\":5727:5779   */\n      tag_394\n      jump\t// in\n    tag_393:\n        /* \"#utility.yul\":5722:5725   */\n      dup3\n        /* \"#utility.yul\":5715:5780   */\n      mstore\n        /* \"#utility.yul\":5625:5786   */\n      pop\n      pop\n      jump\t// out\n        /* \"#utility.yul\":5792:6156   */\n    tag_395:\n        /* \"#utility.yul\":5880:5883   */\n      0x00\n        /* \"#utility.yul\":5908:5947   */\n      tag_397\n        /* \"#utility.yul\":5941:5946   */\n      dup3\n        /* \"#utility.yul\":5908:5947   */\n      tag_398\n      jump\t// in\n    tag_397:\n        /* \"#utility.yul\":5963:6034   */\n      tag_399\n        /* \"#utility.yul\":6027:6033   */\n      dup2\n        /* \"#utility.yul\":6022:6025   */\n      dup6\n        /* \"#utility.yul\":5963:6034   */\n      tag_400\n      jump\t// in\n    tag_399:\n        /* \"#utility.yul\":5956:6034   */\n      swap4\n      pop\n        /* \"#utility.yul\":6043:6095   */\n      tag_401\n        /* \"#utility.yul\":6088:6094   */\n      dup2\n        /* \"#utility.yul\":6083:6086   */\n      dup6\n        /* \"#utility.yul\":6076:6080   */\n      0x20\n        /* \"#utility.yul\":6069:6074   */\n      dup7\n        /* \"#utility.yul\":6065:6081   */\n      add\n        /* \"#utility.yul\":6043:6095   */\n      tag_402\n      jump\t// in\n    tag_401:\n        /* \"#utility.yul\":6120:6149   */\n      tag_403\n        /* \"#utility.yul\":6142:6148   */\n      dup2\n        /* \"#utility.yul\":6120:6149   */\n      tag_404\n      jump\t// in\n    tag_403:\n        /* \"#utility.yul\":6115:6118   */\n      dup5\n        /* \"#utility.yul\":6111:6150   */\n      add\n        /* \"#utility.yul\":6104:6150   */\n      swap2\n      pop\n        /* \"#utility.yul\":5884:6156   */\n      pop\n        /* \"#utility.yul\":5792:6156   */\n      swap3\n      swap2\n      pop\n      pop\n      jump\t// out\n        /* \"#utility.yul\":6162:6528   */\n    tag_405:\n        /* \"#utility.yul\":6304:6307   */\n      0x00\n        /* \"#utility.yul\":6325:6392   */\n      tag_407\n        /* \"#utility.yul\":6389:6391   */\n      0x23\n        /* \"#utility.yul\":6384:6387   */\n      dup4\n        /* \"#utility.yul\":6325:6392   */\n      tag_400\n      jump\t// in\n    tag_407:\n        /* \"#utility.yul\":6318:6392   */\n      swap2\n      pop\n        /* \"#utility.yul\":6401:6494   */\n      tag_408\n        /* \"#utility.yul\":6490:6493   */\n      dup3\n        /* \"#utility.yul\":6401:6494   */\n      tag_409\n      jump\t// in\n    tag_408:\n        /* \"#utility.yul\":6519:6521   */\n      0x40\n        /* \"#utility.yul\":6514:6517   */\n      dup3\n        /* \"#utility.yul\":6510:6522   */\n      add\n        /* \"#utility.yul\":6503:6522   */\n      swap1\n      pop\n        /* \"#utility.yul\":6162:6528   */\n      swap2\n      swap1\n      pop\n      jump\t// out\n        /* \"#utility.yul\":6534:6900   */\n    tag_410:\n        /* \"#utility.yul\":6676:6679   */\n      0x00\n        /* \"#utility.yul\":6697:6764   */\n      tag_412\n        /* \"#utility.yul\":6761:6763   */\n      0x22\n        /* \"#utility.yul\":6756:6759   */\n      dup4\n        /* \"#utility.yul\":6697:6764   */\n      tag_400\n      jump\t// in\n    tag_412:\n        /* \"#utility.yul\":6690:6764   */\n      swap2\n      pop\n        /* \"#utility.yul\":6773:6866   */\n      tag_413\n        /* \"#utility.yul\":6862:6865   */\n      dup3\n        /* \"#utility.yul\":6773:6866   */\n      tag_414\n      jump\t// in\n    tag_413:\n        /* \"#utility.yul\":6891:6893   */\n      0x40\n        /* \"#utility.yul\":6886:6889   */\n      dup3\n        /* \"#utility.yul\":6882:6894   */\n      add\n        /* \"#utility.yul\":6875:6894   */\n      swap1\n      pop\n        /* \"#utility.yul\":6534:6900   */\n      swap2\n      swap1\n      pop\n      jump\t// out\n        /* \"#utility.yul\":6906:7272   */\n    tag_415:\n        /* \"#utility.yul\":7048:7051   */\n      0x00\n        /* \"#utility.yul\":7069:7136   */\n      tag_417\n        /* \"#utility.yul\":7133:7135   */\n      0x22\n        /* \"#utility.yul\":7128:7131   */\n      dup4\n        /* \"#utility.yul\":7069:7136   */\n      tag_400\n      jump\t// in\n    tag_417:\n        /* \"#utility.yul\":7062:7136   */\n      swap2\n      pop\n        /* \"#utility.yul\":7145:7238   */\n      tag_418\n        /* \"#utility.yul\":7234:7237   */\n      dup3\n        /* \"#utility.yul\":7145:7238   */\n      tag_419\n      jump\t// in\n    tag_418:\n        /* \"#utility.yul\":7263:7265   */\n      0x40\n        /* \"#utility.yul\":7258:7261   */\n      dup3\n        /* \"#utility.yul\":7254:7266   */\n      add\n        /* \"#utility.yul\":7247:7266   */\n      swap1\n      pop\n        /* \"#utility.yul\":6906:7272   */\n      swap2\n      swap1\n      pop\n      jump\t// out\n        /* \"#utility.yul\":7278:7644   */\n    tag_420:\n        /* \"#utility.yul\":7420:7423   */\n      0x00\n        /* \"#utility.yul\":7441:7508   */\n      tag_422\n        /* \"#utility.yul\":7505:7507   */\n      0x1c\n        /* \"#utility.yul\":7500:7503   */\n      dup4\n        /* \"#utility.yul\":7441:7508   */\n      tag_400\n      jump\t// in\n    tag_422:\n        /* \"#utility.yul\":7434:7508   */\n      swap2\n      pop\n        /* \"#utility.yul\":7517:7610   */\n      tag_423\n        /* \"#utility.yul\":7606:7609   */\n      dup3\n        /* \"#utility.yul\":7517:7610   */\n      tag_424\n      jump\t// in\n    tag_423:\n        /* \"#utility.yul\":7635:7637   */\n      0x20\n        /* \"#utility.yul\":7630:7633   */\n      dup3\n        /* \"#utility.yul\":7626:7638   */\n      add\n        /* \"#utility.yul\":7619:7638   */\n      swap1\n      pop\n        /* \"#utility.yul\":7278:7644   */\n      swap2\n      swap1\n      pop\n      jump\t// out\n        /* \"#utility.yul\":7650:8016   */\n    tag_425:\n        /* \"#utility.yul\":7792:7795   */\n      0x00\n        /* \"#utility.yul\":7813:7880   */\n      tag_427\n        /* \"#utility.yul\":7877:7879   */\n      0x1d\n        /* \"#utility.yul\":7872:7875   */\n      dup4\n        /* \"#utility.yul\":7813:7880   */\n      tag_400\n      jump\t// in\n    tag_427:\n        /* \"#utility.yul\":7806:7880   */\n      swap2\n      pop\n        /* \"#utility.yul\":7889:7982   */\n      tag_428\n        /* \"#utility.yul\":7978:7981   */\n      dup3\n        /* \"#utility.yul\":7889:7982   */\n      tag_429\n      jump\t// in\n    tag_428:\n        /* \"#utility.yul\":8007:8009   */\n      0x20\n        /* \"#utility.yul\":8002:8005   */\n      dup3\n        /* \"#utility.yul\":7998:8010   */\n      add\n        /* \"#utility.yul\":7991:8010   */\n      swap1\n      pop\n        /* \"#utility.yul\":7650:8016   */\n      swap2\n      swap1\n      pop\n      jump\t// out\n        /* \"#utility.yul\":8022:8388   */\n    tag_430:\n        /* \"#utility.yul\":8164:8167   */\n      0x00\n        /* \"#utility.yul\":8185:8252   */\n      tag_432\n        /* \"#utility.yul\":8249:8251   */\n      0x26\n        /* \"#utility.yul\":8244:8247   */\n      dup4\n        /* \"#utility.yul\":8185:8252   */\n      tag_400\n      jump\t// in\n    tag_432:\n        /* \"#utility.yul\":8178:8252   */\n      swap2\n      pop\n        /* \"#utility.yul\":8261:8354   */\n      tag_433\n        /* \"#utility.yul\":8350:8353   */\n      dup3\n        /* \"#utility.yul\":8261:8354   */\n      tag_434\n      jump\t// in\n    tag_433:\n        /* \"#utility.yul\":8379:8381   */\n      0x40\n        /* \"#utility.yul\":8374:8377   */\n      dup3\n        /* \"#utility.yul\":8370:8382   */\n      add\n        /* \"#utility.yul\":8363:8382   */\n      swap1\n      pop\n        /* \"#utility.yul\":8022:8388   */\n      swap2\n      swap1\n      pop\n      jump\t// out\n        /* \"#utility.yul\":8394:8760   */\n    tag_435:\n        /* \"#utility.yul\":8536:8539   */\n      0x00\n        /* \"#utility.yul\":8557:8624   */\n      tag_437\n        /* \"#utility.yul\":8621:8623   */\n      0x12\n        /* \"#utility.yul\":8616:8619   */\n      dup4\n        /* \"#utility.yul\":8557:8624   */\n      tag_400\n      jump\t// in\n    tag_437:\n        /* \"#utility.yul\":8550:8624   */\n      swap2\n      pop\n        /* \"#utility.yul\":8633:8726   */\n      tag_438\n        /* \"#utility.yul\":8722:8725   */\n      dup3\n        /* \"#utility.yul\":8633:8726   */\n      tag_439\n      jump\t// in\n    tag_438:\n        /* \"#utility.yul\":8751:8753   */\n      0x20\n        /* \"#utility.yul\":8746:8749   */\n      dup3\n        /* \"#utility.yul\":8742:8754   */\n      add\n        /* \"#utility.yul\":8735:8754   */\n      swap1\n      pop\n        /* \"#utility.yul\":8394:8760   */\n      swap2\n      swap1\n      pop\n      jump\t// out\n        /* \"#utility.yul\":8766:9132   */\n    tag_440:\n        /* \"#utility.yul\":8908:8911   */\n      0x00\n        /* \"#utility.yul\":8929:8996   */\n      tag_442\n        /* \"#utility.yul\":8993:8995   */\n      0x17\n        /* \"#utility.yul\":8988:8991   */\n      dup4\n        /* \"#utility.yul\":8929:8996   */\n      tag_400\n      jump\t// in\n    tag_442:\n        /* \"#utility.yul\":8922:8996   */\n      swap2\n      pop\n        /* \"#utility.yul\":9005:9098   */\n      tag_443\n        /* \"#utility.yul\":9094:9097   */\n      dup3\n        /* \"#utility.yul\":9005:9098   */\n      tag_444\n      jump\t// in\n    tag_443:\n        /* \"#utility.yul\":9123:9125   */\n      0x20\n        /* \"#utility.yul\":9118:9121   */\n      dup3\n        /* \"#utility.yul\":9114:9126   */\n      add\n        /* \"#utility.yul\":9107:9126   */\n      swap1\n      pop\n        /* \"#utility.yul\":8766:9132   */\n      swap2\n      swap1\n      pop\n      jump\t// out\n        /* \"#utility.yul\":9138:9504   */\n    tag_445:\n        /* \"#utility.yul\":9280:9283   */\n      0x00\n        /* \"#utility.yul\":9301:9368   */\n      tag_447\n        /* \"#utility.yul\":9365:9367   */\n      0x12\n        /* \"#utility.yul\":9360:9363   */\n      dup4\n        /* \"#utility.yul\":9301:9368   */\n      tag_400\n      jump\t// in\n    tag_447:\n        /* \"#utility.yul\":9294:9368   */\n      swap2\n      pop\n        /* \"#utility.yul\":9377:9470   */\n      tag_448\n        /* \"#utility.yul\":9466:9469   */\n      dup3\n        /* \"#utility.yul\":9377:9470   */\n      tag_449\n      jump\t// in\n    tag_448:\n        /* \"#utility.yul\":9495:9497   */\n      0x20\n        /* \"#utility.yul\":9490:9493   */\n      dup3\n        /* \"#utility.yul\":9486:9498   */\n      add\n        /* \"#utility.yul\":9479:9498   */\n      swap1\n      pop\n        /* \"#utility.yul\":9138:9504   */\n      swap2\n      swap1\n      pop\n      jump\t// out\n        /* \"#utility.yul\":9510:9876   */\n    tag_450:\n        /* \"#utility.yul\":9652:9655   */\n      0x00\n        /* \"#utility.yul\":9673:9740   */\n      tag_452\n        /* \"#utility.yul\":9737:9739   */\n      0x15\n        /* \"#utility.yul\":9732:9735   */\n      dup4\n        /* \"#utility.yul\":9673:9740   */\n      tag_400\n      jump\t// in\n    tag_452:\n        /* \"#utility.yul\":9666:9740   */\n      swap2\n      pop\n        /* \"#utility.yul\":9749:9842   */\n      tag_453\n        /* \"#utility.yul\":9838:9841   */\n      dup3\n        /* \"#utility.yul\":9749:9842   */\n      tag_454\n      jump\t// in\n    tag_453:\n        /* \"#utility.yul\":9867:9869   */\n      0x20\n        /* \"#utility.yul\":9862:9865   */\n      dup3\n        /* \"#utility.yul\":9858:9870   */\n      add\n        /* \"#utility.yul\":9851:9870   */\n      swap1\n      pop\n        /* \"#utility.yul\":9510:9876   */\n      swap2\n      swap1\n      pop\n      jump\t// out\n        /* \"#utility.yul\":9882:10248   */\n    tag_455:\n        /* \"#utility.yul\":10024:10027   */\n      0x00\n        /* \"#utility.yul\":10045:10112   */\n      tag_457\n        /* \"#utility.yul\":10109:10111   */\n      0x1c\n        /* \"#utility.yul\":10104:10107   */\n      dup4\n        /* \"#utility.yul\":10045:10112   */\n      tag_400\n      jump\t// in\n    tag_457:\n        /* \"#utility.yul\":10038:10112   */\n      swap2\n      pop\n        /* \"#utility.yul\":10121:10214   */\n      tag_458\n        /* \"#utility.yul\":10210:10213   */\n      dup3\n        /* \"#utility.yul\":10121:10214   */\n      tag_459\n      jump\t// in\n    tag_458:\n        /* \"#utility.yul\":10239:10241   */\n      0x20\n        /* \"#utility.yul\":10234:10237   */\n      dup3\n        /* \"#utility.yul\":10230:10242   */\n      add\n        /* \"#utility.yul\":10223:10242   */\n      swap1\n      pop\n        /* \"#utility.yul\":9882:10248   */\n      swap2\n      swap1\n      pop\n      jump\t// out\n        /* \"#utility.yul\":10254:10620   */\n    tag_460:\n        /* \"#utility.yul\":10396:10399   */\n      0x00\n        /* \"#utility.yul\":10417:10484   */\n      tag_462\n        /* \"#utility.yul\":10481:10483   */\n      0x19\n        /* \"#utility.yul\":10476:10479   */\n      dup4\n        /* \"#utility.yul\":10417:10484   */\n      tag_400\n      jump\t// in\n    tag_462:\n        /* \"#utility.yul\":10410:10484   */\n      swap2\n      pop\n        /* \"#utility.yul\":10493:10586   */\n      tag_463\n        /* \"#utility.yul\":10582:10585   */\n      dup3\n        /* \"#utility.yul\":10493:10586   */\n      tag_464\n      jump\t// in\n    tag_463:\n        /* \"#utility.yul\":10611:10613   */\n      0x20\n        /* \"#utility.yul\":10606:10609   */\n      dup3\n        /* \"#utility.yul\":10602:10614   */\n      add\n        /* \"#utility.yul\":10595:10614   */\n      swap1\n      pop\n        /* \"#utility.yul\":10254:10620   */\n      swap2\n      swap1\n      pop\n      jump\t// out\n        /* \"#utility.yul\":10626:10992   */\n    tag_465:\n        /* \"#utility.yul\":10768:10771   */\n      0x00\n        /* \"#utility.yul\":10789:10856   */\n      tag_467\n        /* \"#utility.yul\":10853:10855   */\n      0x21\n        /* \"#utility.yul\":10848:10851   */\n      dup4\n        /* \"#utility.yul\":10789:10856   */\n      tag_400\n      jump\t// in\n    tag_467:\n        /* \"#utility.yul\":10782:10856   */\n      swap2\n      pop\n        /* \"#utility.yul\":10865:10958   */\n      tag_468\n        /* \"#utility.yul\":10954:10957   */\n      dup3\n        /* \"#utility.yul\":10865:10958   */\n      tag_469\n      jump\t// in\n    tag_468:\n        /* \"#utility.yul\":10983:10985   */\n      0x40\n        /* \"#utility.yul\":10978:10981   */\n      dup3\n        /* \"#utility.yul\":10974:10986   */\n      add\n        /* \"#utility.yul\":10967:10986   */\n      swap1\n      pop\n        /* \"#utility.yul\":10626:10992   */\n      swap2\n      swap1\n      pop\n      jump\t// out\n        /* \"#utility.yul\":10998:11364   */\n    tag_470:\n        /* \"#utility.yul\":11140:11143   */\n      0x00\n        /* \"#utility.yul\":11161:11228   */\n      tag_472\n        /* \"#utility.yul\":11225:11227   */\n      0x25\n        /* \"#utility.yul\":11220:11223   */\n      dup4\n        /* \"#utility.yul\":11161:11228   */\n      tag_400\n      jump\t// in\n    tag_472:\n        /* \"#utility.yul\":11154:11228   */\n      swap2\n      pop\n        /* \"#utility.yul\":11237:11330   */\n      tag_473\n        /* \"#utility.yul\":11326:11329   */\n      dup3\n        /* \"#utility.yul\":11237:11330   */\n      tag_474\n      jump\t// in\n    tag_473:\n        /* \"#utility.yul\":11355:11357   */\n      0x40\n        /* \"#utility.yul\":11350:11353   */\n      dup3\n        /* \"#utility.yul\":11346:11358   */\n      add\n        /* \"#utility.yul\":11339:11358   */\n      swap1\n      pop\n        /* \"#utility.yul\":10998:11364   */\n      swap2\n      swap1\n      pop\n      jump\t// out\n        /* \"#utility.yul\":11370:11736   */\n    tag_475:\n        /* \"#utility.yul\":11512:11515   */\n      0x00\n        /* \"#utility.yul\":11533:11600   */\n      tag_477\n        /* \"#utility.yul\":11597:11599   */\n      0x24\n        /* \"#utility.yul\":11592:11595   */\n      dup4\n        /* \"#utility.yul\":11533:11600   */\n      tag_400\n      jump\t// in\n    tag_477:\n        /* \"#utility.yul\":11526:11600   */\n      swap2\n      pop\n        /* \"#utility.yul\":11609:11702   */\n      tag_478\n        /* \"#utility.yul\":11698:11701   */\n      dup3\n        /* \"#utility.yul\":11609:11702   */\n      tag_479\n      jump\t// in\n    tag_478:\n        /* \"#utility.yul\":11727:11729   */\n      0x40\n        /* \"#utility.yul\":11722:11725   */\n      dup3\n        /* \"#utility.yul\":11718:11730   */\n      add\n        /* \"#utility.yul\":11711:11730   */\n      swap1\n      pop\n        /* \"#utility.yul\":11370:11736   */\n      swap2\n      swap1\n      pop\n      jump\t// out\n        /* \"#utility.yul\":11742:12108   */\n    tag_480:\n        /* \"#utility.yul\":11884:11887   */\n      0x00\n        /* \"#utility.yul\":11905:11972   */\n      tag_482\n        /* \"#utility.yul\":11969:11971   */\n      0x25\n        /* \"#utility.yul\":11964:11967   */\n      dup4\n        /* \"#utility.yul\":11905:11972   */\n      tag_400\n      jump\t// in\n    tag_482:\n        /* \"#utility.yul\":11898:11972   */\n      swap2\n      pop\n        /* \"#utility.yul\":11981:12074   */\n      tag_483\n        /* \"#utility.yul\":12070:12073   */\n      dup3\n        /* \"#utility.yul\":11981:12074   */\n      tag_484\n      jump\t// in\n    tag_483:\n        /* \"#utility.yul\":12099:12101   */\n      0x40\n        /* \"#utility.yul\":12094:12097   */\n      dup3\n        /* \"#utility.yul\":12090:12102   */\n      add\n        /* \"#utility.yul\":12083:12102   */\n      swap1\n      pop\n        /* \"#utility.yul\":11742:12108   */\n      swap2\n      swap1\n      pop\n      jump\t// out\n        /* \"#utility.yul\":12114:12480   */\n    tag_485:\n        /* \"#utility.yul\":12256:12259   */\n      0x00\n        /* \"#utility.yul\":12277:12344   */\n      tag_487\n        /* \"#utility.yul\":12341:12343   */\n      0x1f\n        /* \"#utility.yul\":12336:12339   */\n      dup4\n        /* \"#utility.yul\":12277:12344   */\n      tag_400\n      jump\t// in\n    tag_487:\n        /* \"#utility.yul\":12270:12344   */\n      swap2\n      pop\n        /* \"#utility.yul\":12353:12446   */\n      tag_488\n        /* \"#utility.yul\":12442:12445   */\n      dup3\n        /* \"#utility.yul\":12353:12446   */\n      tag_489\n      jump\t// in\n    tag_488:\n        /* \"#utility.yul\":12471:12473   */\n      0x20\n        /* \"#utility.yul\":12466:12469   */\n      dup3\n        /* \"#utility.yul\":12462:12474   */\n      add\n        /* \"#utility.yul\":12455:12474   */\n      swap1\n      pop\n        /* \"#utility.yul\":12114:12480   */\n      swap2\n      swap1\n      pop\n      jump\t// out\n        /* \"#utility.yul\":12486:12604   */\n    tag_490:\n        /* \"#utility.yul\":12573:12597   */\n      tag_492\n        /* \"#utility.yul\":12591:12596   */\n      dup2\n        /* \"#utility.yul\":12573:12597   */\n      tag_493\n      jump\t// in\n    tag_492:\n        /* \"#utility.yul\":12568:12571   */\n      dup3\n        /* \"#utility.yul\":12561:12598   */\n      mstore\n        /* \"#utility.yul\":12486:12604   */\n      pop\n      pop\n      jump\t// out\n        /* \"#utility.yul\":12610:12722   */\n    tag_494:\n        /* \"#utility.yul\":12693:12715   */\n      tag_496\n        /* \"#utility.yul\":12709:12714   */\n      dup2\n        /* \"#utility.yul\":12693:12715   */\n      tag_497\n      jump\t// in\n    tag_496:\n        /* \"#utility.yul\":12688:12691   */\n      dup3\n        /* \"#utility.yul\":12681:12716   */\n      mstore\n        /* \"#utility.yul\":12610:12722   */\n      pop\n      pop\n      jump\t// out\n        /* \"#utility.yul\":12728:13170   */\n    tag_181:\n        /* \"#utility.yul\":12877:12881   */\n      0x00\n        /* \"#utility.yul\":12915:12917   */\n      0x60\n        /* \"#utility.yul\":12904:12913   */\n      dup3\n        /* \"#utility.yul\":12900:12918   */\n      add\n        /* \"#utility.yul\":12892:12918   */\n      swap1\n      pop\n        /* \"#utility.yul\":12928:12999   */\n      tag_499\n        /* \"#utility.yul\":12996:12997   */\n      0x00\n        /* \"#utility.yul\":12985:12994   */\n      dup4\n        /* \"#utility.yul\":12981:12998   */\n      add\n        /* \"#utility.yul\":12972:12978   */\n      dup7\n        /* \"#utility.yul\":12928:12999   */\n      tag_375\n      jump\t// in\n    tag_499:\n        /* \"#utility.yul\":13009:13081   */\n      tag_500\n        /* \"#utility.yul\":13077:13079   */\n      0x20\n        /* \"#utility.yul\":13066:13075   */\n      dup4\n        /* \"#utility.yul\":13062:13080   */\n      add\n        /* \"#utility.yul\":13053:13059   */\n      dup6\n        /* \"#utility.yul\":13009:13081   */\n      tag_375\n      jump\t// in\n    tag_500:\n        /* \"#utility.yul\":13091:13163   */\n      tag_501\n        /* \"#utility.yul\":13159:13161   */\n      0x40\n        /* \"#utility.yul\":13148:13157   */\n      dup4\n        /* \"#utility.yul\":13144:13162   */\n      add\n        /* \"#utility.yul\":13135:13141   */\n      dup5\n        /* \"#utility.yul\":13091:13163   */\n      tag_490\n      jump\t// in\n    tag_501:\n        /* \"#utility.yul\":12728:13170   */\n      swap5\n      swap4\n      pop\n      pop\n      pop\n      pop\n      jump\t// out\n        /* \"#utility.yul\":13176:13508   */\n    tag_149:\n        /* \"#utility.yul\":13297:13301   */\n      0x00\n        /* \"#utility.yul\":13335:13337   */\n      0x40\n        /* \"#utility.yul\":13324:13333   */\n      dup3\n        /* \"#utility.yul\":13320:13338   */\n      add\n        /* \"#utility.yul\":13312:13338   */\n      swap1\n      pop\n        /* \"#utility.yul\":13348:13419   */\n      tag_503\n        /* \"#utility.yul\":13416:13417   */\n      0x00\n        /* \"#utility.yul\":13405:13414   */\n      dup4\n        /* \"#utility.yul\":13401:13418   */\n      add\n        /* \"#utility.yul\":13392:13398   */\n      dup6\n        /* \"#utility.yul\":13348:13419   */\n      tag_375\n      jump\t// in\n    tag_503:\n        /* \"#utility.yul\":13429:13501   */\n      tag_504\n        /* \"#utility.yul\":13497:13499   */\n      0x20\n        /* \"#utility.yul\":13486:13495   */\n      dup4\n        /* \"#utility.yul\":13482:13500   */\n      add\n        /* \"#utility.yul\":13473:13479   */\n      dup5\n        /* \"#utility.yul\":13429:13501   */\n      tag_490\n      jump\t// in\n    tag_504:\n        /* \"#utility.yul\":13176:13508   */\n      swap4\n      swap3\n      pop\n      pop\n      pop\n      jump\t// out\n        /* \"#utility.yul\":13514:13724   */\n    tag_45:\n        /* \"#utility.yul\":13601:13605   */\n      0x00\n        /* \"#utility.yul\":13639:13641   */\n      0x20\n        /* \"#utility.yul\":13628:13637   */\n      dup3\n        /* \"#utility.yul\":13624:13642   */\n      add\n        /* \"#utility.yul\":13616:13642   */\n      swap1\n      pop\n        /* \"#utility.yul\":13652:13717   */\n      tag_506\n        /* \"#utility.yul\":13714:13715   */\n      0x00\n        /* \"#utility.yul\":13703:13712   */\n      dup4\n        /* \"#utility.yul\":13699:13716   */\n      add\n        /* \"#utility.yul\":13690:13696   */\n      dup5\n        /* \"#utility.yul\":13652:13717   */\n      tag_379\n      jump\t// in\n    tag_506:\n        /* \"#utility.yul\":13514:13724   */\n      swap3\n      swap2\n      pop\n      pop\n      jump\t// out\n        /* \"#utility.yul\":13730:13948   */\n    tag_55:\n        /* \"#utility.yul\":13821:13825   */\n      0x00\n        /* \"#utility.yul\":13859:13861   */\n      0x20\n        /* \"#utility.yul\":13848:13857   */\n      dup3\n        /* \"#utility.yul\":13844:13862   */\n      add\n        /* \"#utility.yul\":13836:13862   */\n      swap1\n      pop\n        /* \"#utility.yul\":13872:13941   */\n      tag_508\n        /* \"#utility.yul\":13938:13939   */\n      0x00\n        /* \"#utility.yul\":13927:13936   */\n      dup4\n        /* \"#utility.yul\":13923:13940   */\n      add\n        /* \"#utility.yul\":13914:13920   */\n      dup5\n        /* \"#utility.yul\":13872:13941   */\n      tag_383\n      jump\t// in\n    tag_508:\n        /* \"#utility.yul\":13730:13948   */\n      swap3\n      swap2\n      pop\n      pop\n      jump\t// out\n        /* \"#utility.yul\":13954:14220   */\n    tag_49:\n        /* \"#utility.yul\":14069:14073   */\n      0x00\n        /* \"#utility.yul\":14107:14109   */\n      0x20\n        /* \"#utility.yul\":14096:14105   */\n      dup3\n        /* \"#utility.yul\":14092:14110   */\n      add\n        /* \"#utility.yul\":14084:14110   */\n      swap1\n      pop\n        /* \"#utility.yul\":14120:14213   */\n      tag_510\n        /* \"#utility.yul\":14210:14211   */\n      0x00\n        /* \"#utility.yul\":14199:14208   */\n      dup4\n        /* \"#utility.yul\":14195:14212   */\n      add\n        /* \"#utility.yul\":14186:14192   */\n      dup5\n        /* \"#utility.yul\":14120:14213   */\n      tag_387\n      jump\t// in\n    tag_510:\n        /* \"#utility.yul\":13954:14220   */\n      swap3\n      swap2\n      pop\n      pop\n      jump\t// out\n        /* \"#utility.yul\":14226:14478   */\n    tag_100:\n        /* \"#utility.yul\":14334:14338   */\n      0x00\n        /* \"#utility.yul\":14372:14374   */\n      0x20\n        /* \"#utility.yul\":14361:14370   */\n      dup3\n        /* \"#utility.yul\":14357:14375   */\n      add\n        /* \"#utility.yul\":14349:14375   */\n      swap1\n      pop\n        /* \"#utility.yul\":14385:14471   */\n      tag_512\n        /* \"#utility.yul\":14468:14469   */\n      0x00\n        /* \"#utility.yul\":14457:14466   */\n      dup4\n        /* \"#utility.yul\":14453:14470   */\n      add\n        /* \"#utility.yul\":14444:14450   */\n      dup5\n        /* \"#utility.yul\":14385:14471   */\n      tag_391\n      jump\t// in\n    tag_512:\n        /* \"#utility.yul\":14226:14478   */\n      swap3\n      swap2\n      pop\n      pop\n      jump\t// out\n        /* \"#utility.yul\":14484:14797   */\n    tag_35:\n        /* \"#utility.yul\":14597:14601   */\n      0x00\n        /* \"#utility.yul\":14635:14637   */\n      0x20\n        /* \"#utility.yul\":14624:14633   */\n      dup3\n        /* \"#utility.yul\":14620:14638   */\n      add\n        /* \"#utility.yul\":14612:14638   */\n      swap1\n      pop\n        /* \"#utility.yul\":14684:14693   */\n      dup2\n        /* \"#utility.yul\":14678:14682   */\n      dup2\n        /* \"#utility.yul\":14674:14694   */\n      sub\n        /* \"#utility.yul\":14670:14671   */\n      0x00\n        /* \"#utility.yul\":14659:14668   */\n      dup4\n        /* \"#utility.yul\":14655:14672   */\n      add\n        /* \"#utility.yul\":14648:14695   */\n      mstore\n        /* \"#utility.yul\":14712:14790   */\n      tag_514\n        /* \"#utility.yul\":14785:14789   */\n      dup2\n        /* \"#utility.yul\":14776:14782   */\n      dup5\n        /* \"#utility.yul\":14712:14790   */\n      tag_395\n      jump\t// in\n    tag_514:\n        /* \"#utility.yul\":14704:14790   */\n      swap1\n      pop\n        /* \"#utility.yul\":14484:14797   */\n      swap3\n      swap2\n      pop\n      pop\n      jump\t// out\n        /* \"#utility.yul\":14803:15222   */\n    tag_285:\n        /* \"#utility.yul\":14969:14973   */\n      0x00\n        /* \"#utility.yul\":15007:15009   */\n      0x20\n        /* \"#utility.yul\":14996:15005   */\n      dup3\n        /* \"#utility.yul\":14992:15010   */\n      add\n        /* \"#utility.yul\":14984:15010   */\n      swap1\n      pop\n        /* \"#utility.yul\":15056:15065   */\n      dup2\n        /* \"#utility.yul\":15050:15054   */\n      dup2\n        /* \"#utility.yul\":15046:15066   */\n      sub\n        /* \"#utility.yul\":15042:15043   */\n      0x00\n        /* \"#utility.yul\":15031:15040   */\n      dup4\n        /* \"#utility.yul\":15027:15044   */\n      add\n        /* \"#utility.yul\":15020:15067   */\n      mstore\n        /* \"#utility.yul\":15084:15215   */\n      tag_516\n        /* \"#utility.yul\":15210:15214   */\n      dup2\n        /* \"#utility.yul\":15084:15215   */\n      tag_405\n      jump\t// in\n    tag_516:\n        /* \"#utility.yul\":15076:15215   */\n      swap1\n      pop\n        /* \"#utility.yul\":14803:15222   */\n      swap2\n      swap1\n      pop\n      jump\t// out\n        /* \"#utility.yul\":15228:15647   */\n    tag_267:\n        /* \"#utility.yul\":15394:15398   */\n      0x00\n        /* \"#utility.yul\":15432:15434   */\n      0x20\n        /* \"#utility.yul\":15421:15430   */\n      dup3\n        /* \"#utility.yul\":15417:15435   */\n      add\n        /* \"#utility.yul\":15409:15435   */\n      swap1\n      pop\n        /* \"#utility.yul\":15481:15490   */\n      dup2\n        /* \"#utility.yul\":15475:15479   */\n      dup2\n        /* \"#utility.yul\":15471:15491   */\n      sub\n        /* \"#utility.yul\":15467:15468   */\n      0x00\n        /* \"#utility.yul\":15456:15465   */\n      dup4\n        /* \"#utility.yul\":15452:15469   */\n      add\n        /* \"#utility.yul\":15445:15492   */\n      mstore\n        /* \"#utility.yul\":15509:15640   */\n      tag_518\n        /* \"#utility.yul\":15635:15639   */\n      dup2\n        /* \"#utility.yul\":15509:15640   */\n      tag_410\n      jump\t// in\n    tag_518:\n        /* \"#utility.yul\":15501:15640   */\n      swap1\n      pop\n        /* \"#utility.yul\":15228:15647   */\n      swap2\n      swap1\n      pop\n      jump\t// out\n        /* \"#utility.yul\":15653:16072   */\n    tag_257:\n        /* \"#utility.yul\":15819:15823   */\n      0x00\n        /* \"#utility.yul\":15857:15859   */\n      0x20\n        /* \"#utility.yul\":15846:15855   */\n      dup3\n        /* \"#utility.yul\":15842:15860   */\n      add\n        /* \"#utility.yul\":15834:15860   */\n      swap1\n      pop\n        /* \"#utility.yul\":15906:15915   */\n      dup2\n        /* \"#utility.yul\":15900:15904   */\n      dup2\n        /* \"#utility.yul\":15896:15916   */\n      sub\n        /* \"#utility.yul\":15892:15893   */\n      0x00\n        /* \"#utility.yul\":15881:15890   */\n      dup4\n        /* \"#utility.yul\":15877:15894   */\n      add\n        /* \"#utility.yul\":15870:15917   */\n      mstore\n        /* \"#utility.yul\":15934:16065   */\n      tag_520\n        /* \"#utility.yul\":16060:16064   */\n      dup2\n        /* \"#utility.yul\":15934:16065   */\n      tag_415\n      jump\t// in\n    tag_520:\n        /* \"#utility.yul\":15926:16065   */\n      swap1\n      pop\n        /* \"#utility.yul\":15653:16072   */\n      swap2\n      swap1\n      pop\n      jump\t// out\n        /* \"#utility.yul\":16078:16497   */\n    tag_218:\n        /* \"#utility.yul\":16244:16248   */\n      0x00\n        /* \"#utility.yul\":16282:16284   */\n      0x20\n        /* \"#utility.yul\":16271:16280   */\n      dup3\n        /* \"#utility.yul\":16267:16285   */\n      add\n        /* \"#utility.yul\":16259:16285   */\n      swap1\n      pop\n        /* \"#utility.yul\":16331:16340   */\n      dup2\n        /* \"#utility.yul\":16325:16329   */\n      dup2\n        /* \"#utility.yul\":16321:16341   */\n      sub\n        /* \"#utility.yul\":16317:16318   */\n      0x00\n        /* \"#utility.yul\":16306:16315   */\n      dup4\n        /* \"#utility.yul\":16302:16319   */\n      add\n        /* \"#utility.yul\":16295:16342   */\n      mstore\n        /* \"#utility.yul\":16359:16490   */\n      tag_522\n        /* \"#utility.yul\":16485:16489   */\n      dup2\n        /* \"#utility.yul\":16359:16490   */\n      tag_420\n      jump\t// in\n    tag_522:\n        /* \"#utility.yul\":16351:16490   */\n      swap1\n      pop\n        /* \"#utility.yul\":16078:16497   */\n      swap2\n      swap1\n      pop\n      jump\t// out\n        /* \"#utility.yul\":16503:16922   */\n    tag_277:\n        /* \"#utility.yul\":16669:16673   */\n      0x00\n        /* \"#utility.yul\":16707:16709   */\n      0x20\n        /* \"#utility.yul\":16696:16705   */\n      dup3\n        /* \"#utility.yul\":16692:16710   */\n      add\n        /* \"#utility.yul\":16684:16710   */\n      swap1\n      pop\n        /* \"#utility.yul\":16756:16765   */\n      dup2\n        /* \"#utility.yul\":16750:16754   */\n      dup2\n        /* \"#utility.yul\":16746:16766   */\n      sub\n        /* \"#utility.yul\":16742:16743   */\n      0x00\n        /* \"#utility.yul\":16731:16740   */\n      dup4\n        /* \"#utility.yul\":16727:16744   */\n      add\n        /* \"#utility.yul\":16720:16767   */\n      mstore\n        /* \"#utility.yul\":16784:16915   */\n      tag_524\n        /* \"#utility.yul\":16910:16914   */\n      dup2\n        /* \"#utility.yul\":16784:16915   */\n      tag_425\n      jump\t// in\n    tag_524:\n        /* \"#utility.yul\":16776:16915   */\n      swap1\n      pop\n        /* \"#utility.yul\":16503:16922   */\n      swap2\n      swap1\n      pop\n      jump\t// out\n        /* \"#utility.yul\":16928:17347   */\n    tag_289:\n        /* \"#utility.yul\":17094:17098   */\n      0x00\n        /* \"#utility.yul\":17132:17134   */\n      0x20\n        /* \"#utility.yul\":17121:17130   */\n      dup3\n        /* \"#utility.yul\":17117:17135   */\n      add\n        /* \"#utility.yul\":17109:17135   */\n      swap1\n      pop\n        /* \"#utility.yul\":17181:17190   */\n      dup2\n        /* \"#utility.yul\":17175:17179   */\n      dup2\n        /* \"#utility.yul\":17171:17191   */\n      sub\n        /* \"#utility.yul\":17167:17168   */\n      0x00\n        /* \"#utility.yul\":17156:17165   */\n      dup4\n        /* \"#utility.yul\":17152:17169   */\n      add\n        /* \"#utility.yul\":17145:17192   */\n      mstore\n        /* \"#utility.yul\":17209:17340   */\n      tag_526\n        /* \"#utility.yul\":17335:17339   */\n      dup2\n        /* \"#utility.yul\":17209:17340   */\n      tag_430\n      jump\t// in\n    tag_526:\n        /* \"#utility.yul\":17201:17340   */\n      swap1\n      pop\n        /* \"#utility.yul\":16928:17347   */\n      swap2\n      swap1\n      pop\n      jump\t// out\n        /* \"#utility.yul\":17353:17772   */\n    tag_179:\n        /* \"#utility.yul\":17519:17523   */\n      0x00\n        /* \"#utility.yul\":17557:17559   */\n      0x20\n        /* \"#utility.yul\":17546:17555   */\n      dup3\n        /* \"#utility.yul\":17542:17560   */\n      add\n        /* \"#utility.yul\":17534:17560   */\n      swap1\n      pop\n        /* \"#utility.yul\":17606:17615   */\n      dup2\n        /* \"#utility.yul\":17600:17604   */\n      dup2\n        /* \"#utility.yul\":17596:17616   */\n      sub\n        /* \"#utility.yul\":17592:17593   */\n      0x00\n        /* \"#utility.yul\":17581:17590   */\n      dup4\n        /* \"#utility.yul\":17577:17594   */\n      add\n        /* \"#utility.yul\":17570:17617   */\n      mstore\n        /* \"#utility.yul\":17634:17765   */\n      tag_528\n        /* \"#utility.yul\":17760:17764   */\n      dup2\n        /* \"#utility.yul\":17634:17765   */\n      tag_435\n      jump\t// in\n    tag_528:\n        /* \"#utility.yul\":17626:17765   */\n      swap1\n      pop\n        /* \"#utility.yul\":17353:17772   */\n      swap2\n      swap1\n      pop\n      jump\t// out\n        /* \"#utility.yul\":17778:18197   */\n    tag_173:\n        /* \"#utility.yul\":17944:17948   */\n      0x00\n        /* \"#utility.yul\":17982:17984   */\n      0x20\n        /* \"#utility.yul\":17971:17980   */\n      dup3\n        /* \"#utility.yul\":17967:17985   */\n      add\n        /* \"#utility.yul\":17959:17985   */\n      swap1\n      pop\n        /* \"#utility.yul\":18031:18040   */\n      dup2\n        /* \"#utility.yul\":18025:18029   */\n      dup2\n        /* \"#utility.yul\":18021:18041   */\n      sub\n        /* \"#utility.yul\":18017:18018   */\n      0x00\n        /* \"#utility.yul\":18006:18015   */\n      dup4\n        /* \"#utility.yul\":18002:18019   */\n      add\n        /* \"#utility.yul\":17995:18042   */\n      mstore\n        /* \"#utility.yul\":18059:18190   */\n      tag_530\n        /* \"#utility.yul\":18185:18189   */\n      dup2\n        /* \"#utility.yul\":18059:18190   */\n      tag_440\n      jump\t// in\n    tag_530:\n        /* \"#utility.yul\":18051:18190   */\n      swap1\n      pop\n        /* \"#utility.yul\":17778:18197   */\n      swap2\n      swap1\n      pop\n      jump\t// out\n        /* \"#utility.yul\":18203:18622   */\n    tag_176:\n        /* \"#utility.yul\":18369:18373   */\n      0x00\n        /* \"#utility.yul\":18407:18409   */\n      0x20\n        /* \"#utility.yul\":18396:18405   */\n      dup3\n        /* \"#utility.yul\":18392:18410   */\n      add\n        /* \"#utility.yul\":18384:18410   */\n      swap1\n      pop\n        /* \"#utility.yul\":18456:18465   */\n      dup2\n        /* \"#utility.yul\":18450:18454   */\n      dup2\n        /* \"#utility.yul\":18446:18466   */\n      sub\n        /* \"#utility.yul\":18442:18443   */\n      0x00\n        /* \"#utility.yul\":18431:18440   */\n      dup4\n        /* \"#utility.yul\":18427:18444   */\n      add\n        /* \"#utility.yul\":18420:18467   */\n      mstore\n        /* \"#utility.yul\":18484:18615   */\n      tag_532\n        /* \"#utility.yul\":18610:18614   */\n      dup2\n        /* \"#utility.yul\":18484:18615   */\n      tag_445\n      jump\t// in\n    tag_532:\n        /* \"#utility.yul\":18476:18615   */\n      swap1\n      pop\n        /* \"#utility.yul\":18203:18622   */\n      swap2\n      swap1\n      pop\n      jump\t// out\n        /* \"#utility.yul\":18628:19047   */\n    tag_143:\n        /* \"#utility.yul\":18794:18798   */\n      0x00\n        /* \"#utility.yul\":18832:18834   */\n      0x20\n        /* \"#utility.yul\":18821:18830   */\n      dup3\n        /* \"#utility.yul\":18817:18835   */\n      add\n        /* \"#utility.yul\":18809:18835   */\n      swap1\n      pop\n        /* \"#utility.yul\":18881:18890   */\n      dup2\n        /* \"#utility.yul\":18875:18879   */\n      dup2\n        /* \"#utility.yul\":18871:18891   */\n      sub\n        /* \"#utility.yul\":18867:18868   */\n      0x00\n        /* \"#utility.yul\":18856:18865   */\n      dup4\n        /* \"#utility.yul\":18852:18869   */\n      add\n        /* \"#utility.yul\":18845:18892   */\n      mstore\n        /* \"#utility.yul\":18909:19040   */\n      tag_534\n        /* \"#utility.yul\":19035:19039   */\n      dup2\n        /* \"#utility.yul\":18909:19040   */\n      tag_450\n      jump\t// in\n    tag_534:\n        /* \"#utility.yul\":18901:19040   */\n      swap1\n      pop\n        /* \"#utility.yul\":18628:19047   */\n      swap2\n      swap1\n      pop\n      jump\t// out\n        /* \"#utility.yul\":19053:19472   */\n    tag_211:\n        /* \"#utility.yul\":19219:19223   */\n      0x00\n        /* \"#utility.yul\":19257:19259   */\n      0x20\n        /* \"#utility.yul\":19246:19255   */\n      dup3\n        /* \"#utility.yul\":19242:19260   */\n      add\n        /* \"#utility.yul\":19234:19260   */\n      swap1\n      pop\n        /* \"#utility.yul\":19306:19315   */\n      dup2\n        /* \"#utility.yul\":19300:19304   */\n      dup2\n        /* \"#utility.yul\":19296:19316   */\n      sub\n        /* \"#utility.yul\":19292:19293   */\n      0x00\n        /* \"#utility.yul\":19281:19290   */\n      dup4\n        /* \"#utility.yul\":19277:19294   */\n      add\n        /* \"#utility.yul\":19270:19317   */\n      mstore\n        /* \"#utility.yul\":19334:19465   */\n      tag_536\n        /* \"#utility.yul\":19460:19464   */\n      dup2\n        /* \"#utility.yul\":19334:19465   */\n      tag_455\n      jump\t// in\n    tag_536:\n        /* \"#utility.yul\":19326:19465   */\n      swap1\n      pop\n        /* \"#utility.yul\":19053:19472   */\n      swap2\n      swap1\n      pop\n      jump\t// out\n        /* \"#utility.yul\":19478:19897   */\n    tag_147:\n        /* \"#utility.yul\":19644:19648   */\n      0x00\n        /* \"#utility.yul\":19682:19684   */\n      0x20\n        /* \"#utility.yul\":19671:19680   */\n      dup3\n        /* \"#utility.yul\":19667:19685   */\n      add\n        /* \"#utility.yul\":19659:19685   */\n      swap1\n      pop\n        /* \"#utility.yul\":19731:19740   */\n      dup2\n        /* \"#utility.yul\":19725:19729   */\n      dup2\n        /* \"#utility.yul\":19721:19741   */\n      sub\n        /* \"#utility.yul\":19717:19718   */\n      0x00\n        /* \"#utility.yul\":19706:19715   */\n      dup4\n        /* \"#utility.yul\":19702:19719   */\n      add\n        /* \"#utility.yul\":19695:19742   */\n      mstore\n        /* \"#utility.yul\":19759:19890   */\n      tag_538\n        /* \"#utility.yul\":19885:19889   */\n      dup2\n        /* \"#utility.yul\":19759:19890   */\n      tag_460\n      jump\t// in\n    tag_538:\n        /* \"#utility.yul\":19751:19890   */\n      swap1\n      pop\n        /* \"#utility.yul\":19478:19897   */\n      swap2\n      swap1\n      pop\n      jump\t// out\n        /* \"#utility.yul\":19903:20322   */\n    tag_262:\n        /* \"#utility.yul\":20069:20073   */\n      0x00\n        /* \"#utility.yul\":20107:20109   */\n      0x20\n        /* \"#utility.yul\":20096:20105   */\n      dup3\n        /* \"#utility.yul\":20092:20110   */\n      add\n        /* \"#utility.yul\":20084:20110   */\n      swap1\n      pop\n        /* \"#utility.yul\":20156:20165   */\n      dup2\n        /* \"#utility.yul\":20150:20154   */\n      dup2\n        /* \"#utility.yul\":20146:20166   */\n      sub\n        /* \"#utility.yul\":20142:20143   */\n      0x00\n        /* \"#utility.yul\":20131:20140   */\n      dup4\n        /* \"#utility.yul\":20127:20144   */\n      add\n        /* \"#utility.yul\":20120:20167   */\n      mstore\n        /* \"#utility.yul\":20184:20315   */\n      tag_540\n        /* \"#utility.yul\":20310:20314   */\n      dup2\n        /* \"#utility.yul\":20184:20315   */\n      tag_465\n      jump\t// in\n    tag_540:\n        /* \"#utility.yul\":20176:20315   */\n      swap1\n      pop\n        /* \"#utility.yul\":19903:20322   */\n      swap2\n      swap1\n      pop\n      jump\t// out\n        /* \"#utility.yul\":20328:20747   */\n    tag_282:\n        /* \"#utility.yul\":20494:20498   */\n      0x00\n        /* \"#utility.yul\":20532:20534   */\n      0x20\n        /* \"#utility.yul\":20521:20530   */\n      dup3\n        /* \"#utility.yul\":20517:20535   */\n      add\n        /* \"#utility.yul\":20509:20535   */\n      swap1\n      pop\n        /* \"#utility.yul\":20581:20590   */\n      dup2\n        /* \"#utility.yul\":20575:20579   */\n      dup2\n        /* \"#utility.yul\":20571:20591   */\n      sub\n        /* \"#utility.yul\":20567:20568   */\n      0x00\n        /* \"#utility.yul\":20556:20565   */\n      dup4\n        /* \"#utility.yul\":20552:20569   */\n      add\n        /* \"#utility.yul\":20545:20592   */\n      mstore\n        /* \"#utility.yul\":20609:20740   */\n      tag_542\n        /* \"#utility.yul\":20735:20739   */\n      dup2\n        /* \"#utility.yul\":20609:20740   */\n      tag_470\n      jump\t// in\n    tag_542:\n        /* \"#utility.yul\":20601:20740   */\n      swap1\n      pop\n        /* \"#utility.yul\":20328:20747   */\n      swap2\n      swap1\n      pop\n      jump\t// out\n        /* \"#utility.yul\":20753:21172   */\n    tag_254:\n        /* \"#utility.yul\":20919:20923   */\n      0x00\n        /* \"#utility.yul\":20957:20959   */\n      0x20\n        /* \"#utility.yul\":20946:20955   */\n      dup3\n        /* \"#utility.yul\":20942:20960   */\n      add\n        /* \"#utility.yul\":20934:20960   */\n      swap1\n      pop\n        /* \"#utility.yul\":21006:21015   */\n      dup2\n        /* \"#utility.yul\":21000:21004   */\n      dup2\n        /* \"#utility.yul\":20996:21016   */\n      sub\n        /* \"#utility.yul\":20992:20993   */\n      0x00\n        /* \"#utility.yul\":20981:20990   */\n      dup4\n        /* \"#utility.yul\":20977:20994   */\n      add\n        /* \"#utility.yul\":20970:21017   */\n      mstore\n        /* \"#utility.yul\":21034:21165   */\n      tag_544\n        /* \"#utility.yul\":21160:21164   */\n      dup2\n        /* \"#utility.yul\":21034:21165   */\n      tag_475\n      jump\t// in\n    tag_544:\n        /* \"#utility.yul\":21026:21165   */\n      swap1\n      pop\n        /* \"#utility.yul\":20753:21172   */\n      swap2\n      swap1\n      pop\n      jump\t// out\n        /* \"#utility.yul\":21178:21597   */\n    tag_242:\n        /* \"#utility.yul\":21344:21348   */\n      0x00\n        /* \"#utility.yul\":21382:21384   */\n      0x20\n        /* \"#utility.yul\":21371:21380   */\n      dup3\n        /* \"#utility.yul\":21367:21385   */\n      add\n        /* \"#utility.yul\":21359:21385   */\n      swap1\n      pop\n        /* \"#utility.yul\":21431:21440   */\n      dup2\n        /* \"#utility.yul\":21425:21429   */\n      dup2\n        /* \"#utility.yul\":21421:21441   */\n      sub\n        /* \"#utility.yul\":21417:21418   */\n      0x00\n        /* \"#utility.yul\":21406:21415   */\n      dup4\n        /* \"#utility.yul\":21402:21419   */\n      add\n        /* \"#utility.yul\":21395:21442   */\n      mstore\n        /* \"#utility.yul\":21459:21590   */\n      tag_546\n        /* \"#utility.yul\":21585:21589   */\n      dup2\n        /* \"#utility.yul\":21459:21590   */\n      tag_480\n      jump\t// in\n    tag_546:\n        /* \"#utility.yul\":21451:21590   */\n      swap1\n      pop\n        /* \"#utility.yul\":21178:21597   */\n      swap2\n      swap1\n      pop\n      jump\t// out\n        /* \"#utility.yul\":21603:22022   */\n    tag_296:\n        /* \"#utility.yul\":21769:21773   */\n      0x00\n        /* \"#utility.yul\":21807:21809   */\n      0x20\n        /* \"#utility.yul\":21796:21805   */\n      dup3\n        /* \"#utility.yul\":21792:21810   */\n      add\n        /* \"#utility.yul\":21784:21810   */\n      swap1\n      pop\n        /* \"#utility.yul\":21856:21865   */\n      dup2\n        /* \"#utility.yul\":21850:21854   */\n      dup2\n        /* \"#utility.yul\":21846:21866   */\n      sub\n        /* \"#utility.yul\":21842:21843   */\n      0x00\n        /* \"#utility.yul\":21831:21840   */\n      dup4\n        /* \"#utility.yul\":21827:21844   */\n      add\n        /* \"#utility.yul\":21820:21867   */\n      mstore\n        /* \"#utility.yul\":21884:22015   */\n      tag_548\n        /* \"#utility.yul\":22010:22014   */\n      dup2\n        /* \"#utility.yul\":21884:22015   */\n      tag_485\n      jump\t// in\n    tag_548:\n        /* \"#utility.yul\":21876:22015   */\n      swap1\n      pop\n        /* \"#utility.yul\":21603:22022   */\n      swap2\n      swap1\n      pop\n      jump\t// out\n        /* \"#utility.yul\":22028:22250   */\n    tag_39:\n        /* \"#utility.yul\":22121:22125   */\n      0x00\n        /* \"#utility.yul\":22159:22161   */\n      0x20\n        /* \"#utility.yul\":22148:22157   */\n      dup3\n        /* \"#utility.yul\":22144:22162   */\n      add\n        /* \"#utility.yul\":22136:22162   */\n      swap1\n      pop\n        /* \"#utility.yul\":22172:22243   */\n      tag_550\n        /* \"#utility.yul\":22240:22241   */\n      0x00\n        /* \"#utility.yul\":22229:22238   */\n      dup4\n        /* \"#utility.yul\":22225:22242   */\n      add\n        /* \"#utility.yul\":22216:22222   */\n      dup5\n        /* \"#utility.yul\":22172:22243   */\n      tag_490\n      jump\t// in\n    tag_550:\n        /* \"#utility.yul\":22028:22250   */\n      swap3\n      swap2\n      pop\n      pop\n      jump\t// out\n        /* \"#utility.yul\":22256:22470   */\n    tag_77:\n        /* \"#utility.yul\":22345:22349   */\n      0x00\n        /* \"#utility.yul\":22383:22385   */\n      0x20\n        /* \"#utility.yul\":22372:22381   */\n      dup3\n        /* \"#utility.yul\":22368:22386   */\n      add\n        /* \"#utility.yul\":22360:22386   */\n      swap1\n      pop\n        /* \"#utility.yul\":22396:22463   */\n      tag_552\n        /* \"#utility.yul\":22460:22461   */\n      0x00\n        /* \"#utility.yul\":22449:22458   */\n      dup4\n        /* \"#utility.yul\":22445:22462   */\n      add\n        /* \"#utility.yul\":22436:22442   */\n      dup5\n        /* \"#utility.yul\":22396:22463   */\n      tag_494\n      jump\t// in\n    tag_552:\n        /* \"#utility.yul\":22256:22470   */\n      swap3\n      swap2\n      pop\n      pop\n      jump\t// out\n        /* \"#utility.yul\":22557:22656   */\n    tag_398:\n        /* \"#utility.yul\":22609:22615   */\n      0x00\n        /* \"#utility.yul\":22643:22648   */\n      dup2\n        /* \"#utility.yul\":22637:22649   */\n      mload\n        /* \"#utility.yul\":22627:22649   */\n      swap1\n      pop\n        /* \"#utility.yul\":22557:22656   */\n      swap2\n      swap1\n      pop\n      jump\t// out\n        /* \"#utility.yul\":22662:22831   */\n    tag_400:\n        /* \"#utility.yul\":22746:22757   */\n      0x00\n        /* \"#utility.yul\":22780:22786   */\n      dup3\n        /* \"#utility.yul\":22775:22778   */\n      dup3\n        /* \"#utility.yul\":22768:22787   */\n      mstore\n        /* \"#utility.yul\":22820:22824   */\n      0x20\n        /* \"#utility.yul\":22815:22818   */\n      dup3\n        /* \"#utility.yul\":22811:22825   */\n      add\n        /* \"#utility.yul\":22796:22825   */\n      swap1\n      pop\n        /* \"#utility.yul\":22662:22831   */\n      swap3\n      swap2\n      pop\n      pop\n      jump\t// out\n        /* \"#utility.yul\":22837:23142   */\n    tag_187:\n        /* \"#utility.yul\":22877:22880   */\n      0x00\n        /* \"#utility.yul\":22896:22916   */\n      tag_558\n        /* \"#utility.yul\":22914:22915   */\n      dup3\n        /* \"#utility.yul\":22896:22916   */\n      tag_493\n      jump\t// in\n    tag_558:\n        /* \"#utility.yul\":22891:22916   */\n      swap2\n      pop\n        /* \"#utility.yul\":22930:22950   */\n      tag_559\n        /* \"#utility.yul\":22948:22949   */\n      dup4\n        /* \"#utility.yul\":22930:22950   */\n      tag_493\n      jump\t// in\n    tag_559:\n        /* \"#utility.yul\":22925:22950   */\n      swap3\n      pop\n        /* \"#utility.yul\":23084:23085   */\n      dup3\n        /* \"#utility.yul\":23016:23082   */\n      0xffffffffffffffffffffffffffffffffffffffffffffffffffffffffffffffff\n        /* \"#utility.yul\":23012:23086   */\n      sub\n        /* \"#utility.yul\":23009:23010   */\n      dup3\n        /* \"#utility.yul\":23006:23087   */\n      gt\n        /* \"#utility.yul\":23003:23110   */\n      iszero\n      tag_560\n      jumpi\n        /* \"#utility.yul\":23090:23108   */\n      tag_561\n      tag_562\n      jump\t// in\n    tag_561:\n        /* \"#utility.yul\":23003:23110   */\n    tag_560:\n        /* \"#utility.yul\":23134:23135   */\n      dup3\n        /* \"#utility.yul\":23131:23132   */\n      dup3\n        /* \"#utility.yul\":23127:23136   */\n      add\n        /* \"#utility.yul\":23120:23136   */\n      swap1\n      pop\n        /* \"#utility.yul\":22837:23142   */\n      swap3\n      swap2\n      pop\n      pop\n      jump\t// out\n        /* \"#utility.yul\":23148:23339   */\n    tag_156:\n        /* \"#utility.yul\":23188:23192   */\n      0x00\n        /* \"#utility.yul\":23208:23228   */\n      tag_564\n        /* \"#utility.yul\":23226:23227   */\n      dup3\n        /* \"#utility.yul\":23208:23228   */\n      tag_493\n      jump\t// in\n    tag_564:\n        /* \"#utility.yul\":23203:23228   */\n      swap2\n      pop\n        /* \"#utility.yul\":23242:23262   */\n      tag_565\n        /* \"#utility.yul\":23260:23261   */\n      dup4\n        /* \"#utility.yul\":23242:23262   */\n      tag_493\n      jump\t// in\n    tag_565:\n        /* \"#utility.yul\":23237:23262   */\n      swap3\n      pop\n        /* \"#utility.yul\":23281:23282   */\n      dup3\n        /* \"#utility.yul\":23278:23279   */\n      dup3\n        /* \"#utility.yul\":23275:23283   */\n      lt\n        /* \"#utility.yul\":23272:23306   */\n      iszero\n      tag_566\n      jumpi\n        /* \"#utility.yul\":23286:23304   */\n      tag_567\n      tag_562\n      jump\t// in\n    tag_567:\n        /* \"#utility.yul\":23272:23306   */\n    tag_566:\n        /* \"#utility.yul\":23331:23332   */\n      dup3\n        /* \"#utility.yul\":23328:23329   */\n      dup3\n        /* \"#utility.yul\":23324:23333   */\n      sub\n        /* \"#utility.yul\":23316:23333   */\n      swap1\n      pop\n        /* \"#utility.yul\":23148:23339   */\n      swap3\n      swap2\n      pop\n      pop\n      jump\t// out\n        /* \"#utility.yul\":23345:23441   */\n    tag_378:\n        /* \"#utility.yul\":23382:23389   */\n      0x00\n        /* \"#utility.yul\":23411:23435   */\n      tag_569\n        /* \"#utility.yul\":23429:23434   */\n      dup3\n        /* \"#utility.yul\":23411:23435   */\n      tag_570\n      jump\t// in\n    tag_569:\n        /* \"#utility.yul\":23400:23435   */\n      swap1\n      pop\n        /* \"#utility.yul\":23345:23441   */\n      swap2\n      swap1\n      pop\n      jump\t// out\n        /* \"#utility.yul\":23447:23537   */\n    tag_382:\n        /* \"#utility.yul\":23481:23488   */\n      0x00\n        /* \"#utility.yul\":23524:23529   */\n      dup2\n        /* \"#utility.yul\":23517:23530   */\n      iszero\n        /* \"#utility.yul\":23510:23531   */\n      iszero\n        /* \"#utility.yul\":23499:23531   */\n      swap1\n      pop\n        /* \"#utility.yul\":23447:23537   */\n      swap2\n      swap1\n      pop\n      jump\t// out\n        /* \"#utility.yul\":23543:23692   */\n    tag_386:\n        /* \"#utility.yul\":23579:23586   */\n      0x00\n        /* \"#utility.yul\":23619:23685   */\n      0xffffffff00000000000000000000000000000000000000000000000000000000\n        /* \"#utility.yul\":23612:23617   */\n      dup3\n        /* \"#utility.yul\":23608:23686   */\n      and\n        /* \"#utility.yul\":23597:23686   */\n      swap1\n      pop\n        /* \"#utility.yul\":23543:23692   */\n      swap2\n      swap1\n      pop\n      jump\t// out\n        /* \"#utility.yul\":23698:23824   */\n    tag_570:\n        /* \"#utility.yul\":23735:23742   */\n      0x00\n        /* \"#utility.yul\":23775:23817   */\n      0xffffffffffffffffffffffffffffffffffffffff\n        /* \"#utility.yul\":23768:23773   */\n      dup3\n        /* \"#utility.yul\":23764:23818   */\n      and\n        /* \"#utility.yul\":23753:23818   */\n      swap1\n      pop\n        /* \"#utility.yul\":23698:23824   */\n      swap2\n      swap1\n      pop\n      jump\t// out\n        /* \"#utility.yul\":23830:23907   */\n    tag_493:\n        /* \"#utility.yul\":23867:23874   */\n      0x00\n        /* \"#utility.yul\":23896:23901   */\n      dup2\n        /* \"#utility.yul\":23885:23901   */\n      swap1\n      pop\n        /* \"#utility.yul\":23830:23907   */\n      swap2\n      swap1\n      pop\n      jump\t// out\n        /* \"#utility.yul\":23913:23999   */\n    tag_497:\n        /* \"#utility.yul\":23948:23955   */\n      0x00\n        /* \"#utility.yul\":23988:23992   */\n      0xff\n        /* \"#utility.yul\":23981:23986   */\n      dup3\n        /* \"#utility.yul\":23977:23993   */\n      and\n        /* \"#utility.yul\":23966:23993   */\n      swap1\n      pop\n        /* \"#utility.yul\":23913:23999   */\n      swap2\n      swap1\n      pop\n      jump\t// out\n        /* \"#utility.yul\":24005:24153   */\n    tag_390:\n        /* \"#utility.yul\":24077:24086   */\n      0x00\n        /* \"#utility.yul\":24110:24147   */\n      tag_577\n        /* \"#utility.yul\":24141:24146   */\n      dup3\n        /* \"#utility.yul\":24110:24147   */\n      tag_578\n      jump\t// in\n    tag_577:\n        /* \"#utility.yul\":24097:24147   */\n      swap1\n      pop\n        /* \"#utility.yul\":24005:24153   */\n      swap2\n      swap1\n      pop\n      jump\t// out\n        /* \"#utility.yul\":24159:24300   */\n    tag_394:\n        /* \"#utility.yul\":24224:24233   */\n      0x00\n        /* \"#utility.yul\":24257:24294   */\n      tag_580\n        /* \"#utility.yul\":24288:24293   */\n      dup3\n        /* \"#utility.yul\":24257:24294   */\n      tag_578\n      jump\t// in\n    tag_580:\n        /* \"#utility.yul\":24244:24294   */\n      swap1\n      pop\n        /* \"#utility.yul\":24159:24300   */\n      swap2\n      swap1\n      pop\n      jump\t// out\n        /* \"#utility.yul\":24306:24432   */\n    tag_578:\n        /* \"#utility.yul\":24356:24365   */\n      0x00\n        /* \"#utility.yul\":24389:24426   */\n      tag_582\n        /* \"#utility.yul\":24420:24425   */\n      dup3\n        /* \"#utility.yul\":24389:24426   */\n      tag_583\n      jump\t// in\n    tag_582:\n        /* \"#utility.yul\":24376:24426   */\n      swap1\n      pop\n        /* \"#utility.yul\":24306:24432   */\n      swap2\n      swap1\n      pop\n      jump\t// out\n        /* \"#utility.yul\":24438:24551   */\n    tag_583:\n        /* \"#utility.yul\":24488:24497   */\n      0x00\n        /* \"#utility.yul\":24521:24545   */\n      tag_585\n        /* \"#utility.yul\":24539:24544   */\n      dup3\n        /* \"#utility.yul\":24521:24545   */\n      tag_570\n      jump\t// in\n    tag_585:\n        /* \"#utility.yul\":24508:24545   */\n      swap1\n      pop\n        /* \"#utility.yul\":24438:24551   */\n      swap2\n      swap1\n      pop\n      jump\t// out\n        /* \"#utility.yul\":24557:24864   */\n    tag_402:\n        /* \"#utility.yul\":24625:24626   */\n      0x00\n        /* \"#utility.yul\":24635:24748   */\n    tag_587:\n        /* \"#utility.yul\":24649:24655   */\n      dup4\n        /* \"#utility.yul\":24646:24647   */\n      dup2\n        /* \"#utility.yul\":24643:24656   */\n      lt\n        /* \"#utility.yul\":24635:24748   */\n      iszero\n      tag_589\n      jumpi\n        /* \"#utility.yul\":24734:24735   */\n      dup1\n        /* \"#utility.yul\":24729:24732   */\n      dup3\n        /* \"#utility.yul\":24725:24736   */\n      add\n        /* \"#utility.yul\":24719:24737   */\n      mload\n        /* \"#utility.yul\":24715:24716   */\n      dup2\n        /* \"#utility.yul\":24710:24713   */\n      dup5\n        /* \"#utility.yul\":24706:24717   */\n      add\n        /* \"#utility.yul\":24699:24738   */\n      mstore\n        /* \"#utility.yul\":24671:24673   */\n      0x20\n        /* \"#utility.yul\":24668:24669   */\n      dup2\n        /* \"#utility.yul\":24664:24674   */\n      add\n        /* \"#utility.yul\":24659:24674   */\n      swap1\n      pop\n        /* \"#utility.yul\":24635:24748   */\n      jump(tag_587)\n    tag_589:\n        /* \"#utility.yul\":24766:24772   */\n      dup4\n        /* \"#utility.yul\":24763:24764   */\n      dup2\n        /* \"#utility.yul\":24760:24773   */\n      gt\n        /* \"#utility.yul\":24757:24858   */\n      iszero\n      tag_590\n      jumpi\n        /* \"#utility.yul\":24846:24847   */\n      0x00\n        /* \"#utility.yul\":24837:24843   */\n      dup5\n        /* \"#utility.yul\":24832:24835   */\n      dup5\n        /* \"#utility.yul\":24828:24844   */\n      add\n        /* \"#utility.yul\":24821:24848   */\n      mstore\n        /* \"#utility.yul\":24757:24858   */\n    tag_590:\n        /* \"#utility.yul\":24606:24864   */\n      pop\n        /* \"#utility.yul\":24557:24864   */\n      pop\n      pop\n      pop\n      jump\t// out\n        /* \"#utility.yul\":24870:25190   */\n    tag_127:\n        /* \"#utility.yul\":24914:24920   */\n      0x00\n        /* \"#utility.yul\":24951:24952   */\n      0x02\n        /* \"#utility.yul\":24945:24949   */\n      dup3\n        /* \"#utility.yul\":24941:24953   */\n      div\n        /* \"#utility.yul\":24931:24953   */\n      swap1\n      pop\n        /* \"#utility.yul\":24998:24999   */\n      0x01\n        /* \"#utility.yul\":24992:24996   */\n      dup3\n        /* \"#utility.yul\":24988:25000   */\n      and\n        /* \"#utility.yul\":25019:25037   */\n      dup1\n        /* \"#utility.yul\":25009:25090   */\n      tag_592\n      jumpi\n        /* \"#utility.yul\":25075:25079   */\n      0x7f\n        /* \"#utility.yul\":25067:25073   */\n      dup3\n        /* \"#utility.yul\":25063:25080   */\n      and\n        /* \"#utility.yul\":25053:25080   */\n      swap2\n      pop\n        /* \"#utility.yul\":25009:25090   */\n    tag_592:\n        /* \"#utility.yul\":25137:25139   */\n      0x20\n        /* \"#utility.yul\":25129:25135   */\n      dup3\n        /* \"#utility.yul\":25126:25140   */\n      lt\n        /* \"#utility.yul\":25106:25124   */\n      dup2\n        /* \"#utility.yul\":25103:25141   */\n      eq\n        /* \"#utility.yul\":25100:25184   */\n      iszero\n      tag_593\n      jumpi\n        /* \"#utility.yul\":25156:25174   */\n      tag_594\n      tag_595\n      jump\t// in\n    tag_594:\n        /* \"#utility.yul\":25100:25184   */\n    tag_593:\n        /* \"#utility.yul\":24921:25190   */\n      pop\n        /* \"#utility.yul\":24870:25190   */\n      swap2\n      swap1\n      pop\n      jump\t// out\n        /* \"#utility.yul\":25196:25376   */\n    tag_562:\n        /* \"#utility.yul\":25244:25321   */\n      0x4e487b7100000000000000000000000000000000000000000000000000000000\n        /* \"#utility.yul\":25241:25242   */\n      0x00\n        /* \"#utility.yul\":25234:25322   */\n      mstore\n        /* \"#utility.yul\":25341:25345   */\n      0x11\n        /* \"#utility.yul\":25338:25339   */\n      0x04\n        /* \"#utility.yul\":25331:25346   */\n      mstore\n        /* \"#utility.yul\":25365:25369   */\n      0x24\n        /* \"#utility.yul\":25362:25363   */\n      0x00\n        /* \"#utility.yul\":25355:25370   */\n      revert\n        /* \"#utility.yul\":25382:25562   */\n    tag_595:\n        /* \"#utility.yul\":25430:25507   */\n      0x4e487b7100000000000000000000000000000000000000000000000000000000\n        /* \"#utility.yul\":25427:25428   */\n      0x00\n        /* \"#utility.yul\":25420:25508   */\n      mstore\n        /* \"#utility.yul\":25527:25531   */\n      0x22\n        /* \"#utility.yul\":25524:25525   */\n      0x04\n        /* \"#utility.yul\":25517:25532   */\n      mstore\n        /* \"#utility.yul\":25551:25555   */\n      0x24\n        /* \"#utility.yul\":25548:25549   */\n      0x00\n        /* \"#utility.yul\":25541:25556   */\n      revert\n        /* \"#utility.yul\":25568:25685   */\n    tag_320:\n        /* \"#utility.yul\":25677:25678   */\n      0x00\n        /* \"#utility.yul\":25674:25675   */\n      dup1\n        /* \"#utility.yul\":25667:25679   */\n      revert\n        /* \"#utility.yul\":25691:25808   */\n    tag_317:\n        /* \"#utility.yul\":25800:25801   */\n      0x00\n        /* \"#utility.yul\":25797:25798   */\n      dup1\n        /* \"#utility.yul\":25790:25802   */\n      revert\n        /* \"#utility.yul\":25814:25931   */\n    tag_323:\n        /* \"#utility.yul\":25923:25924   */\n      0x00\n        /* \"#utility.yul\":25920:25921   */\n      dup1\n        /* \"#utility.yul\":25913:25925   */\n      revert\n        /* \"#utility.yul\":25937:26054   */\n    tag_356:\n        /* \"#utility.yul\":26046:26047   */\n      0x00\n        /* \"#utility.yul\":26043:26044   */\n      dup1\n        /* \"#utility.yul\":26036:26048   */\n      revert\n        /* \"#utility.yul\":26060:26177   */\n    tag_335:\n        /* \"#utility.yul\":26169:26170   */\n      0x00\n        /* \"#utility.yul\":26166:26167   */\n      dup1\n        /* \"#utility.yul\":26159:26171   */\n      revert\n        /* \"#utility.yul\":26183:26285   */\n    tag_404:\n        /* \"#utility.yul\":26224:26230   */\n      0x00\n        /* \"#utility.yul\":26275:26277   */\n      0x1f\n        /* \"#utility.yul\":26271:26278   */\n      not\n        /* \"#utility.yul\":26266:26268   */\n      0x1f\n        /* \"#utility.yul\":26259:26264   */\n      dup4\n        /* \"#utility.yul\":26255:26269   */\n      add\n        /* \"#utility.yul\":26251:26279   */\n      and\n        /* \"#utility.yul\":26241:26279   */\n      swap1\n      pop\n        /* \"#utility.yul\":26183:26285   */\n      swap2\n      swap1\n      pop\n      jump\t// out\n        /* \"#utility.yul\":26291:26513   */\n    tag_409:\n        /* \"#utility.yul\":26431:26465   */\n      0x45524332303a207472616e7366657220746f20746865207a65726f2061646472\n        /* \"#utility.yul\":26427:26428   */\n      0x00\n        /* \"#utility.yul\":26419:26425   */\n      dup3\n        /* \"#utility.yul\":26415:26429   */\n      add\n        /* \"#utility.yul\":26408:26466   */\n      mstore\n        /* \"#utility.yul\":26500:26505   */\n      0x6573730000000000000000000000000000000000000000000000000000000000\n        /* \"#utility.yul\":26495:26497   */\n      0x20\n        /* \"#utility.yul\":26487:26493   */\n      dup3\n        /* \"#utility.yul\":26483:26498   */\n      add\n        /* \"#utility.yul\":26476:26506   */\n      mstore\n        /* \"#utility.yul\":26291:26513   */\n      pop\n      jump\t// out\n        /* \"#utility.yul\":26519:26740   */\n    tag_414:\n        /* \"#utility.yul\":26659:26693   */\n      0x45524332303a206275726e20616d6f756e7420657863656564732062616c616e\n        /* \"#utility.yul\":26655:26656   */\n      0x00\n        /* \"#utility.yul\":26647:26653   */\n      dup3\n        /* \"#utility.yul\":26643:26657   */\n      add\n        /* \"#utility.yul\":26636:26694   */\n      mstore\n        /* \"#utility.yul\":26728:26732   */\n      0x6365000000000000000000000000000000000000000000000000000000000000\n        /* \"#utility.yul\":26723:26725   */\n      0x20\n        /* \"#utility.yul\":26715:26721   */\n      dup3\n        /* \"#utility.yul\":26711:26726   */\n      add\n        /* \"#utility.yul\":26704:26733   */\n      mstore\n        /* \"#utility.yul\":26519:26740   */\n      pop\n      jump\t// out\n        /* \"#utility.yul\":26746:26967   */\n    tag_419:\n        /* \"#utility.yul\":26886:26920   */\n      0x45524332303a20617070726f766520746f20746865207a65726f206164647265\n        /* \"#utility.yul\":26882:26883   */\n      0x00\n        /* \"#utility.yul\":26874:26880   */\n      dup3\n        /* \"#utility.yul\":26870:26884   */\n      add\n        /* \"#utility.yul\":26863:26921   */\n      mstore\n        /* \"#utility.yul\":26955:26959   */\n      0x7373000000000000000000000000000000000000000000000000000000000000\n        /* \"#utility.yul\":26950:26952   */\n      0x20\n        /* \"#utility.yul\":26942:26948   */\n      dup3\n        /* \"#utility.yul\":26938:26953   */\n      add\n        /* \"#utility.yul\":26931:26960   */\n      mstore\n        /* \"#utility.yul\":26746:26967   */\n      pop\n      jump\t// out\n        /* \"#utility.yul\":26973:27151   */\n    tag_424:\n        /* \"#utility.yul\":27113:27143   */\n      0x446f204e6f7420486176652052465420546f74616c20537570706c7900000000\n        /* \"#utility.yul\":27109:27110   */\n      0x00\n        /* \"#utility.yul\":27101:27107   */\n      dup3\n        /* \"#utility.yul\":27097:27111   */\n      add\n        /* \"#utility.yul\":27090:27144   */\n      mstore\n        /* \"#utility.yul\":26973:27151   */\n      pop\n      jump\t// out\n        /* \"#utility.yul\":27157:27336   */\n    tag_429:\n        /* \"#utility.yul\":27297:27328   */\n      0x45524332303a20696e73756666696369656e7420616c6c6f77616e6365000000\n        /* \"#utility.yul\":27293:27294   */\n      0x00\n        /* \"#utility.yul\":27285:27291   */\n      dup3\n        /* \"#utility.yul\":27281:27295   */\n      add\n        /* \"#utility.yul\":27274:27329   */\n      mstore\n        /* \"#utility.yul\":27157:27336   */\n      pop\n      jump\t// out\n        /* \"#utility.yul\":27342:27567   */\n    tag_434:\n        /* \"#utility.yul\":27482:27516   */\n      0x45524332303a207472616e7366657220616d6f756e7420657863656564732062\n        /* \"#utility.yul\":27478:27479   */\n      0x00\n        /* \"#utility.yul\":27470:27476   */\n      dup3\n        /* \"#utility.yul\":27466:27480   */\n      add\n        /* \"#utility.yul\":27459:27517   */\n      mstore\n        /* \"#utility.yul\":27551:27559   */\n      0x616c616e63650000000000000000000000000000000000000000000000000000\n        /* \"#utility.yul\":27546:27548   */\n      0x20\n        /* \"#utility.yul\":27538:27544   */\n      dup3\n        /* \"#utility.yul\":27534:27549   */\n      add\n        /* \"#utility.yul\":27527:27560   */\n      mstore\n        /* \"#utility.yul\":27342:27567   */\n      pop\n      jump\t// out\n        /* \"#utility.yul\":27573:27741   */\n    tag_439:\n        /* \"#utility.yul\":27713:27733   */\n      0x436f6e7472616374204973204b696c6c65640000000000000000000000000000\n        /* \"#utility.yul\":27709:27710   */\n      0x00\n        /* \"#utility.yul\":27701:27707   */\n      dup3\n        /* \"#utility.yul\":27697:27711   */\n      add\n        /* \"#utility.yul\":27690:27734   */\n      mstore\n        /* \"#utility.yul\":27573:27741   */\n      pop\n      jump\t// out\n        /* \"#utility.yul\":27747:27920   */\n    tag_444:\n        /* \"#utility.yul\":27887:27912   */\n      0x4e6f7420656e6f75676820736861726573206c65667421000000000000000000\n        /* \"#utility.yul\":27883:27884   */\n      0x00\n        /* \"#utility.yul\":27875:27881   */\n      dup3\n        /* \"#utility.yul\":27871:27885   */\n      add\n        /* \"#utility.yul\":27864:27913   */\n      mstore\n        /* \"#utility.yul\":27747:27920   */\n      pop\n      jump\t// out\n        /* \"#utility.yul\":27926:28094   */\n    tag_449:\n        /* \"#utility.yul\":28066:28086   */\n      0x436f6e7472616374204973205061757365640000000000000000000000000000\n        /* \"#utility.yul\":28062:28063   */\n      0x00\n        /* \"#utility.yul\":28054:28060   */\n      dup3\n        /* \"#utility.yul\":28050:28064   */\n      add\n        /* \"#utility.yul\":28043:28087   */\n      mstore\n        /* \"#utility.yul\":27926:28094   */\n      pop\n      jump\t// out\n        /* \"#utility.yul\":28100:28271   */\n    tag_454:\n        /* \"#utility.yul\":28240:28263   */\n      0x54617267657420416c7265616479205261697365640000000000000000000000\n        /* \"#utility.yul\":28236:28237   */\n      0x00\n        /* \"#utility.yul\":28228:28234   */\n      dup3\n        /* \"#utility.yul\":28224:28238   */\n      add\n        /* \"#utility.yul\":28217:28264   */\n      mstore\n        /* \"#utility.yul\":28100:28271   */\n      pop\n      jump\t// out\n        /* \"#utility.yul\":28277:28455   */\n    tag_459:\n        /* \"#utility.yul\":28417:28447   */\n      0x4f6e6c792041646d696e2043616e2050617573652f556e706175736500000000\n        /* \"#utility.yul\":28413:28414   */\n      0x00\n        /* \"#utility.yul\":28405:28411   */\n      dup3\n        /* \"#utility.yul\":28401:28415   */\n      add\n        /* \"#utility.yul\":28394:28448   */\n      mstore\n        /* \"#utility.yul\":28277:28455   */\n      pop\n      jump\t// out\n        /* \"#utility.yul\":28461:28636   */\n    tag_464:\n        /* \"#utility.yul\":28601:28628   */\n      0x4e6f7420477265617420456e6f7567682042616c616e63652100000000000000\n        /* \"#utility.yul\":28597:28598   */\n      0x00\n        /* \"#utility.yul\":28589:28595   */\n      dup3\n        /* \"#utility.yul\":28585:28599   */\n      add\n        /* \"#utility.yul\":28578:28629   */\n      mstore\n        /* \"#utility.yul\":28461:28636   */\n      pop\n      jump\t// out\n        /* \"#utility.yul\":28642:28862   */\n    tag_469:\n        /* \"#utility.yul\":28782:28816   */\n      0x45524332303a206275726e2066726f6d20746865207a65726f20616464726573\n        /* \"#utility.yul\":28778:28779   */\n      0x00\n        /* \"#utility.yul\":28770:28776   */\n      dup3\n        /* \"#utility.yul\":28766:28780   */\n      add\n        /* \"#utility.yul\":28759:28817   */\n      mstore\n        /* \"#utility.yul\":28851:28854   */\n      0x7300000000000000000000000000000000000000000000000000000000000000\n        /* \"#utility.yul\":28846:28848   */\n      0x20\n        /* \"#utility.yul\":28838:28844   */\n      dup3\n        /* \"#utility.yul\":28834:28849   */\n      add\n        /* \"#utility.yul\":28827:28855   */\n      mstore\n        /* \"#utility.yul\":28642:28862   */\n      pop\n      jump\t// out\n        /* \"#utility.yul\":28868:29092   */\n    tag_474:\n        /* \"#utility.yul\":29008:29042   */\n      0x45524332303a207472616e736665722066726f6d20746865207a65726f206164\n        /* \"#utility.yul\":29004:29005   */\n      0x00\n        /* \"#utility.yul\":28996:29002   */\n      dup3\n        /* \"#utility.yul\":28992:29006   */\n      add\n        /* \"#utility.yul\":28985:29043   */\n      mstore\n        /* \"#utility.yul\":29077:29084   */\n      0x6472657373000000000000000000000000000000000000000000000000000000\n        /* \"#utility.yul\":29072:29074   */\n      0x20\n        /* \"#utility.yul\":29064:29070   */\n      dup3\n        /* \"#utility.yul\":29060:29075   */\n      add\n        /* \"#utility.yul\":29053:29085   */\n      mstore\n        /* \"#utility.yul\":28868:29092   */\n      pop\n      jump\t// out\n        /* \"#utility.yul\":29098:29321   */\n    tag_479:\n        /* \"#utility.yul\":29238:29272   */\n      0x45524332303a20617070726f76652066726f6d20746865207a65726f20616464\n        /* \"#utility.yul\":29234:29235   */\n      0x00\n        /* \"#utility.yul\":29226:29232   */\n      dup3\n        /* \"#utility.yul\":29222:29236   */\n      add\n        /* \"#utility.yul\":29215:29273   */\n      mstore\n        /* \"#utility.yul\":29307:29313   */\n      0x7265737300000000000000000000000000000000000000000000000000000000\n        /* \"#utility.yul\":29302:29304   */\n      0x20\n        /* \"#utility.yul\":29294:29300   */\n      dup3\n        /* \"#utility.yul\":29290:29305   */\n      add\n        /* \"#utility.yul\":29283:29314   */\n      mstore\n        /* \"#utility.yul\":29098:29321   */\n      pop\n      jump\t// out\n        /* \"#utility.yul\":29327:29551   */\n    tag_484:\n        /* \"#utility.yul\":29467:29501   */\n      0x45524332303a2064656372656173656420616c6c6f77616e63652062656c6f77\n        /* \"#utility.yul\":29463:29464   */\n      0x00\n        /* \"#utility.yul\":29455:29461   */\n      dup3\n        /* \"#utility.yul\":29451:29465   */\n      add\n        /* \"#utility.yul\":29444:29502   */\n      mstore\n        /* \"#utility.yul\":29536:29543   */\n      0x207a65726f000000000000000000000000000000000000000000000000000000\n        /* \"#utility.yul\":29531:29533   */\n      0x20\n        /* \"#utility.yul\":29523:29529   */\n      dup3\n        /* \"#utility.yul\":29519:29534   */\n      add\n        /* \"#utility.yul\":29512:29544   */\n      mstore\n        /* \"#utility.yul\":29327:29551   */\n      pop\n      jump\t// out\n        /* \"#utility.yul\":29557:29738   */\n    tag_489:\n        /* \"#utility.yul\":29697:29730   */\n      0x45524332303a206d696e7420746f20746865207a65726f206164647265737300\n        /* \"#utility.yul\":29693:29694   */\n      0x00\n        /* \"#utility.yul\":29685:29691   */\n      dup3\n        /* \"#utility.yul\":29681:29695   */\n      add\n        /* \"#utility.yul\":29674:29731   */\n      mstore\n        /* \"#utility.yul\":29557:29738   */\n      pop\n      jump\t// out\n        /* \"#utility.yul\":29744:29866   */\n    tag_308:\n        /* \"#utility.yul\":29817:29841   */\n      tag_622\n        /* \"#utility.yul\":29835:29840   */\n      dup2\n        /* \"#utility.yul\":29817:29841   */\n      tag_378\n      jump\t// in\n    tag_622:\n        /* \"#utility.yul\":29810:29815   */\n      dup2\n        /* \"#utility.yul\":29807:29842   */\n      eq\n        /* \"#utility.yul\":29797:29860   */\n      tag_623\n      jumpi\n        /* \"#utility.yul\":29856:29857   */\n      0x00\n        /* \"#utility.yul\":29853:29854   */\n      dup1\n        /* \"#utility.yul\":29846:29858   */\n      revert\n        /* \"#utility.yul\":29797:29860   */\n    tag_623:\n        /* \"#utility.yul\":29744:29866   */\n      pop\n      jump\t// out\n        /* \"#utility.yul\":29872:29988   */\n    tag_312:\n        /* \"#utility.yul\":29942:29963   */\n      tag_625\n        /* \"#utility.yul\":29957:29962   */\n      dup2\n        /* \"#utility.yul\":29942:29963   */\n      tag_382\n      jump\t// in\n    tag_625:\n        /* \"#utility.yul\":29935:29940   */\n      dup2\n        /* \"#utility.yul\":29932:29964   */\n      eq\n        /* \"#utility.yul\":29922:29982   */\n      tag_626\n      jumpi\n        /* \"#utility.yul\":29978:29979   */\n      0x00\n        /* \"#utility.yul\":29975:29976   */\n      dup1\n        /* \"#utility.yul\":29968:29980   */\n      revert\n        /* \"#utility.yul\":29922:29982   */\n    tag_626:\n        /* \"#utility.yul\":29872:29988   */\n      pop\n      jump\t// out\n        /* \"#utility.yul\":29994:30116   */\n    tag_327:\n        /* \"#utility.yul\":30067:30091   */\n      tag_628\n        /* \"#utility.yul\":30085:30090   */\n      dup2\n        /* \"#utility.yul\":30067:30091   */\n      tag_493\n      jump\t// in\n    tag_628:\n        /* \"#utility.yul\":30060:30065   */\n      dup2\n        /* \"#utility.yul\":30057:30092   */\n      eq\n        /* \"#utility.yul\":30047:30110   */\n      tag_629\n      jumpi\n        /* \"#utility.yul\":30106:30107   */\n      0x00\n        /* \"#utility.yul\":30103:30104   */\n      dup1\n        /* \"#utility.yul\":30096:30108   */\n      revert\n        /* \"#utility.yul\":30047:30110   */\n    tag_629:\n        /* \"#utility.yul\":29994:30116   */\n      pop\n      jump\t// out\n        /* \"#utility.yul\":30122:30240   */\n    tag_331:\n        /* \"#utility.yul\":30193:30215   */\n      tag_631\n        /* \"#utility.yul\":30209:30214   */\n      dup2\n        /* \"#utility.yul\":30193:30215   */\n      tag_497\n      jump\t// in\n    tag_631:\n        /* \"#utility.yul\":30186:30191   */\n      dup2\n        /* \"#utility.yul\":30183:30216   */\n      eq\n        /* \"#utility.yul\":30173:30234   */\n      tag_632\n      jumpi\n        /* \"#utility.yul\":30230:30231   */\n      0x00\n        /* \"#utility.yul\":30227:30228   */\n      dup1\n        /* \"#utility.yul\":30220:30232   */\n      revert\n        /* \"#utility.yul\":30173:30234   */\n    tag_632:\n        /* \"#utility.yul\":30122:30240   */\n      pop\n      jump\t// out\n\n    auxdata: 0xa26469706673582212208a64f7eb4947fd7056fd47e2c52744438d06fbf59841df2dffc60b3b12494cfc64736f6c63430008070033\n}\n",
				"bytecode": {
					"linkReferences": {},
					"object": "60a06040526000600960006101000a81548160ff0219169083151502179055506000600960016101000a81548160ff0219169083151502179055503480156200004757600080fd5b5060405162002ddc38038062002ddc83398181016040528101906200006d9190620002d2565b848481600390805190602001906200008792919062000176565b508060049080519060200190620000a092919062000176565b505050856006819055508260088190555081600960026101000a81548173ffffffffffffffffffffffffffffffffffffffff021916908373ffffffffffffffffffffffffffffffffffffffff16021790555080600560006101000a81548173ffffffffffffffffffffffffffffffffffffffff021916908373ffffffffffffffffffffffffffffffffffffffff1602179055503373ffffffffffffffffffffffffffffffffffffffff1660808173ffffffffffffffffffffffffffffffffffffffff1660601b81525050505050505050620005a2565b82805462000184906200047f565b90600052602060002090601f016020900481019282620001a85760008555620001f4565b82601f10620001c357805160ff1916838001178555620001f4565b82800160010185558215620001f4579182015b82811115620001f3578251825591602001919060010190620001d6565b5b50905062000203919062000207565b5090565b5b808211156200022257600081600090555060010162000208565b5090565b60006200023d6200023784620003d5565b620003ac565b9050828152602081018484840111156200025c576200025b6200054e565b5b6200026984828562000449565b509392505050565b60008151905062000282816200056e565b92915050565b600082601f830112620002a0576200029f62000549565b5b8151620002b284826020860162000226565b91505092915050565b600081519050620002cc8162000588565b92915050565b60008060008060008060c08789031215620002f257620002f162000558565b5b60006200030289828a01620002bb565b965050602087015167ffffffffffffffff81111562000326576200032562000553565b5b6200033489828a0162000288565b955050604087015167ffffffffffffffff81111562000358576200035762000553565b5b6200036689828a0162000288565b94505060606200037989828a01620002bb565b93505060806200038c89828a0162000271565b92505060a06200039f89828a0162000271565b9150509295509295509295565b6000620003b8620003cb565b9050620003c68282620004b5565b919050565b6000604051905090565b600067ffffffffffffffff821115620003f357620003f26200051a565b5b620003fe826200055d565b9050602081019050919050565b600062000418826200041f565b9050919050565b600073ffffffffffffffffffffffffffffffffffffffff82169050919050565b6000819050919050565b60005b83811015620004695780820151818401526020810190506200044c565b8381111562000479576000848401525b50505050565b600060028204905060018216806200049857607f821691505b60208210811415620004af57620004ae620004eb565b5b50919050565b620004c0826200055d565b810181811067ffffffffffffffff82111715620004e257620004e16200051a565b5b80604052505050565b7f4e487b7100000000000000000000000000000000000000000000000000000000600052602260045260246000fd5b7f4e487b7100000000000000000000000000000000000000000000000000000000600052604160045260246000fd5b600080fd5b600080fd5b600080fd5b600080fd5b6000601f19601f8301169050919050565b62000579816200040b565b81146200058557600080fd5b50565b62000593816200043f565b81146200059f57600080fd5b50565b60805160601c612814620005c860003960008181610ca90152610d5601526128146000f3fe608060405234801561001057600080fd5b50600436106101735760003560e01c806341c0e1b5116100de5780638456cb5911610097578063a457c2d711610071578063a457c2d714610408578063a9059cbb14610438578063bdf8968214610468578063dd62ed3e1461048657610173565b80638456cb59146103c2578063953b8fb8146103cc57806395d89b41146103ea57610173565b806341c0e1b5146103245780635c975abb1461032e57806370a082311461034c57806377262d381461037c5780637b3e5e7b146103865780637e0d73d4146103a457610173565b80631f3a0e41116101305780631f3a0e41146102505780632037fcbf1461026e57806323b872dd1461028a5780632afcf480146102ba578063313ce567146102d657806339509351146102f457610173565b806306fdde031461017857806306febe0014610196578063095ea7b3146101b457806311df9995146101e4578063150b7a021461020257806318160ddd14610232575b600080fd5b6101806104b6565b60405161018d9190611ec5565b60405180910390f35b61019e610548565b6040516101ab9190612107565b60405180910390f35b6101ce60048036038101906101c99190611a3d565b61054e565b6040516101db9190611e59565b60405180910390f35b6101ec610571565b6040516101f99190611e8f565b60405180910390f35b61021c600480360381019061021791906119b5565b610597565b6040516102299190611e74565b60405180910390f35b61023a6105ac565b6040516102479190612107565b60405180910390f35b6102586105b6565b6040516102659190611e59565b60405180910390f35b61028860048036038101906102839190611aaa565b6105c9565b005b6102a4600480360381019061029f9190611962565b610735565b6040516102b19190611e59565b60405180910390f35b6102d460048036038101906102cf9190611aaa565b610764565b005b6102de610a64565b6040516102eb9190612122565b60405180910390f35b61030e60048036038101906103099190611a3d565b610b0b565b60405161031b9190611e59565b60405180910390f35b61032c610b42565b005b610336610bef565b6040516103439190611e59565b60405180910390f35b610366600480360381019061036191906118f5565b610c02565b6040516103739190612107565b60405180910390f35b610384610c4a565b005b61038e610d4e565b60405161039b9190612107565b60405180910390f35b6103ac610d54565b6040516103b99190611eaa565b60405180910390f35b6103ca610d78565b005b6103d4610e5a565b6040516103e19190612107565b60405180910390f35b6103f2610e60565b6040516103ff9190611ec5565b60405180910390f35b610422600480360381019061041d9190611a3d565b610ef2565b60405161042f9190611e59565b60405180910390f35b610452600480360381019061044d9190611a3d565b610f69565b60405161045f9190611e59565b60405180910390f35b610470610f8c565b60405161047d9190612107565b60405180910390f35b6104a0600480360381019061049b9190611922565b610fa3565b6040516104ad9190612107565b60405180910390f35b6060600380546104c5906122df565b80601f01602080910402602001604051908101604052809291908181526020018280546104f1906122df565b801561053e5780601f106105135761010080835404028352916020019161053e565b820191906000526020600020905b81548152906001019060200180831161052157829003601f168201915b5050505050905090565b60085481565b60008061055961102a565b9050610566818585611032565b600191505092915050565b600560009054906101000a900473ffffffffffffffffffffffffffffffffffffffff1681565b600063150b7a0260e01b905095945050505050565b6000600254905090565b600960019054906101000a900460ff1681565b6006546105d46105ac565b10610614576040517f08c379a000000000000000000000000000000000000000000000000000000000815260040161060b90612007565b60405180910390fd5b61061d33610c02565b81111561065f576040517f08c379a000000000000000000000000000000000000000000000000000000000815260040161065690612047565b60405180910390fd5b600560009054906101000a900473ffffffffffffffffffffffffffffffffffffffff1673ffffffffffffffffffffffffffffffffffffffff1663a9059cbb33836040518363ffffffff1660e01b81526004016106bc929190611e30565b602060405180830381600087803b1580156106d657600080fd5b505af11580156106ea573d6000803e3d6000fd5b505050506040513d601f19601f8201168201806040525081019061070e9190611a7d565b50806007600082825461072191906121af565b9250508190555061073233826111fd565b50565b60008061074061102a565b905061074d8582856113d4565b610758858585611460565b60019150509392505050565b60065461076f6105ac565b106107af576040517f08c379a00000000000000000000000000000000000000000000000000000000081526004016107a690612007565b60405180910390fd5b6107b76105ac565b6006546107c491906121af565b811115610806576040517f08c379a00000000000000000000000000000000000000000000000000000000081526004016107fd90611fc7565b60405180910390fd5b600960009054906101000a900460ff1615610856576040517f08c379a000000000000000000000000000000000000000000000000000000000815260040161084d90611fe7565b60405180910390fd5b600960019054906101000a900460ff16156108a6576040517f08c379a000000000000000000000000000000000000000000000000000000000815260040161089d90611fa7565b60405180910390fd5b600560009054906101000a900473ffffffffffffffffffffffffffffffffffffffff1673ffffffffffffffffffffffffffffffffffffffff166323b872dd3330846040518463ffffffff1660e01b815260040161090593929190611df9565b602060405180830381600087803b15801561091f57600080fd5b505af1158015610933573d6000803e3d6000fd5b505050506040513d601f19601f820116820180604052508101906109579190611a7d565b50806007600082825461096a9190612159565b9250508190555061097b33826116e1565b6109836105ac565b6006541415610a6157600560009054906101000a900473ffffffffffffffffffffffffffffffffffffffff1673ffffffffffffffffffffffffffffffffffffffff1663a9059cbb600960029054906101000a900473ffffffffffffffffffffffffffffffffffffffff166006546040518363ffffffff1660e01b8152600401610a0d929190611e30565b602060405180830381600087803b158015610a2757600080fd5b505af1158015610a3b573d6000803e3d6000fd5b505050506040513d601f19601f82011682018060405250810190610a5f9190611a7d565b505b50565b6000600560009054906101000a900473ffffffffffffffffffffffffffffffffffffffff1673ffffffffffffffffffffffffffffffffffffffff1663313ce5676040518163ffffffff1660e01b815260040160206040518083038186803b158015610ace57600080fd5b505afa158015610ae2573d6000803e3d6000fd5b505050506040513d601f19601f82011682018060405250810190610b069190611ad7565b905090565b600080610b1661102a565b9050610b37818585610b288589610fa3565b610b329190612159565b611032565b600191505092915050565b600960029054906101000a900473ffffffffffffffffffffffffffffffffffffffff1673ffffffffffffffffffffffffffffffffffffffff163373ffffffffffffffffffffffffffffffffffffffff1614610bd2576040517f08c379a0000000000000000000000000000000000000000000000000000000008152600401610bc990612027565b60405180910390fd5b6001600960016101000a81548160ff021916908315150217905550565b600960009054906101000a900460ff1681565b60008060008373ffffffffffffffffffffffffffffffffffffffff1673ffffffffffffffffffffffffffffffffffffffff168152602001908152602001600020549050919050565b600654610c5633610c02565b14610c96576040517f08c379a0000000000000000000000000000000000000000000000000000000008152600401610c8d90611f47565b60405180910390fd5b610ca733610ca26105ac565b6111fd565b7f000000000000000000000000000000000000000000000000000000000000000073ffffffffffffffffffffffffffffffffffffffff166342842e0e30333073ffffffffffffffffffffffffffffffffffffffff166040518463ffffffff1660e01b8152600401610d1a93929190611df9565b600060405180830381600087803b158015610d3457600080fd5b505af1158015610d48573d6000803e3d6000fd5b50505050565b60075481565b7f000000000000000000000000000000000000000000000000000000000000000081565b600960029054906101000a900473ffffffffffffffffffffffffffffffffffffffff1673ffffffffffffffffffffffffffffffffffffffff163373ffffffffffffffffffffffffffffffffffffffff1614610e08576040517f08c379a0000000000000000000000000000000000000000000000000000000008152600401610dff90612027565b60405180910390fd5b600960009054906101000a900460ff16610e3c576001600960006101000a81548160ff021916908315150217905550610e58565b6000600960006101000a81548160ff0219169083151502179055505b565b60065481565b606060048054610e6f906122df565b80601f0160208091040260200160405190810160405280929190818152602001828054610e9b906122df565b8015610ee85780601f10610ebd57610100808354040283529160200191610ee8565b820191906000526020600020905b815481529060010190602001808311610ecb57829003601f168201915b5050505050905090565b600080610efd61102a565b90506000610f0b8286610fa3565b905083811015610f50576040517f08c379a0000000000000000000000000000000000000000000000000000000008152600401610f47906120c7565b60405180910390fd5b610f5d8286868403611032565b60019250505092915050565b600080610f7461102a565b9050610f81818585611460565b600191505092915050565b6000600754600654610f9e91906121af565b905090565b6000600160008473ffffffffffffffffffffffffffffffffffffffff1673ffffffffffffffffffffffffffffffffffffffff16815260200190815260200160002060008373ffffffffffffffffffffffffffffffffffffffff1673ffffffffffffffffffffffffffffffffffffffff16815260200190815260200160002054905092915050565b600033905090565b600073ffffffffffffffffffffffffffffffffffffffff168373ffffffffffffffffffffffffffffffffffffffff1614156110a2576040517f08c379a0000000000000000000000000000000000000000000000000000000008152600401611099906120a7565b60405180910390fd5b600073ffffffffffffffffffffffffffffffffffffffff168273ffffffffffffffffffffffffffffffffffffffff161415611112576040517f08c379a000000000000000000000000000000000000000000000000000000000815260040161110990611f27565b60405180910390fd5b80600160008573ffffffffffffffffffffffffffffffffffffffff1673ffffffffffffffffffffffffffffffffffffffff16815260200190815260200160002060008473ffffffffffffffffffffffffffffffffffffffff1673ffffffffffffffffffffffffffffffffffffffff168152602001908152602001600020819055508173ffffffffffffffffffffffffffffffffffffffff168373ffffffffffffffffffffffffffffffffffffffff167f8c5be1e5ebec7d5bd14f71427d1e84f3dd0314c0f7b2291e5b200ac8c7c3b925836040516111f09190612107565b60405180910390a3505050565b600073ffffffffffffffffffffffffffffffffffffffff168273ffffffffffffffffffffffffffffffffffffffff16141561126d576040517f08c379a000000000000000000000000000000000000000000000000000000000815260040161126490612067565b60405180910390fd5b61127982600083611841565b60008060008473ffffffffffffffffffffffffffffffffffffffff1673ffffffffffffffffffffffffffffffffffffffff168152602001908152602001600020549050818110156112ff576040517f08c379a00000000000000000000000000000000000000000000000000000000081526004016112f690611f07565b60405180910390fd5b8181036000808573ffffffffffffffffffffffffffffffffffffffff1673ffffffffffffffffffffffffffffffffffffffff16815260200190815260200160002081905550816002600082825461135691906121af565b92505081905550600073ffffffffffffffffffffffffffffffffffffffff168373ffffffffffffffffffffffffffffffffffffffff167fddf252ad1be2c89b69c2b068fc378daa952ba7f163c4a11628f55a4df523b3ef846040516113bb9190612107565b60405180910390a36113cf83600084611846565b505050565b60006113e08484610fa3565b90507fffffffffffffffffffffffffffffffffffffffffffffffffffffffffffffffff811461145a578181101561144c576040517f08c379a000000000000000000000000000000000000000000000000000000000815260040161144390611f67565b60405180910390fd5b6114598484848403611032565b5b50505050565b600073ffffffffffffffffffffffffffffffffffffffff168373ffffffffffffffffffffffffffffffffffffffff1614156114d0576040517f08c379a00000000000000000000000000000000000000000000000000000000081526004016114c790612087565b60405180910390fd5b600073ffffffffffffffffffffffffffffffffffffffff168273ffffffffffffffffffffffffffffffffffffffff161415611540576040517f08c379a000000000000000000000000000000000000000000000000000000000815260040161153790611ee7565b60405180910390fd5b61154b838383611841565b60008060008573ffffffffffffffffffffffffffffffffffffffff1673ffffffffffffffffffffffffffffffffffffffff168152602001908152602001600020549050818110156115d1576040517f08c379a00000000000000000000000000000000000000000000000000000000081526004016115c890611f87565b60405180910390fd5b8181036000808673ffffffffffffffffffffffffffffffffffffffff1673ffffffffffffffffffffffffffffffffffffffff16815260200190815260200160002081905550816000808573ffffffffffffffffffffffffffffffffffffffff1673ffffffffffffffffffffffffffffffffffffffff16815260200190815260200160002060008282546116649190612159565b925050819055508273ffffffffffffffffffffffffffffffffffffffff168473ffffffffffffffffffffffffffffffffffffffff167fddf252ad1be2c89b69c2b068fc378daa952ba7f163c4a11628f55a4df523b3ef846040516116c89190612107565b60405180910390a36116db848484611846565b50505050565b600073ffffffffffffffffffffffffffffffffffffffff168273ffffffffffffffffffffffffffffffffffffffff161415611751576040517f08c379a0000000000000000000000000000000000000000000000000000000008152600401611748906120e7565b60405180910390fd5b61175d60008383611841565b806002600082825461176f9190612159565b92505081905550806000808473ffffffffffffffffffffffffffffffffffffffff1673ffffffffffffffffffffffffffffffffffffffff16815260200190815260200160002060008282546117c49190612159565b925050819055508173ffffffffffffffffffffffffffffffffffffffff16600073ffffffffffffffffffffffffffffffffffffffff167fddf252ad1be2c89b69c2b068fc378daa952ba7f163c4a11628f55a4df523b3ef836040516118299190612107565b60405180910390a361183d60008383611846565b5050565b505050565b505050565b60008135905061185a81612782565b92915050565b60008151905061186f81612799565b92915050565b60008083601f84011261188b5761188a612374565b5b8235905067ffffffffffffffff8111156118a8576118a761236f565b5b6020830191508360018202830111156118c4576118c3612379565b5b9250929050565b6000813590506118da816127b0565b92915050565b6000815190506118ef816127c7565b92915050565b60006020828403121561190b5761190a612383565b5b60006119198482850161184b565b91505092915050565b6000806040838503121561193957611938612383565b5b60006119478582860161184b565b92505060206119588582860161184b565b9150509250929050565b60008060006060848603121561197b5761197a612383565b5b60006119898682870161184b565b935050602061199a8682870161184b565b92505060406119ab868287016118cb565b9150509250925092565b6000806000806000608086880312156119d1576119d0612383565b5b60006119df8882890161184b565b95505060206119f08882890161184b565b9450506040611a01888289016118cb565b935050606086013567ffffffffffffffff811115611a2257611a2161237e565b5b611a2e88828901611875565b92509250509295509295909350565b60008060408385031215611a5457611a53612383565b5b6000611a628582860161184b565b9250506020611a73858286016118cb565b9150509250929050565b600060208284031215611a9357611a92612383565b5b6000611aa184828501611860565b91505092915050565b600060208284031215611ac057611abf612383565b5b6000611ace848285016118cb565b91505092915050565b600060208284031215611aed57611aec612383565b5b6000611afb848285016118e0565b91505092915050565b611b0d816121e3565b82525050565b611b1c816121f5565b82525050565b611b2b81612201565b82525050565b611b3a81612264565b82525050565b611b4981612276565b82525050565b6000611b5a8261213d565b611b648185612148565b9350611b748185602086016122ac565b611b7d81612388565b840191505092915050565b6000611b95602383612148565b9150611ba082612399565b604082019050919050565b6000611bb8602283612148565b9150611bc3826123e8565b604082019050919050565b6000611bdb602283612148565b9150611be682612437565b604082019050919050565b6000611bfe601c83612148565b9150611c0982612486565b602082019050919050565b6000611c21601d83612148565b9150611c2c826124af565b602082019050919050565b6000611c44602683612148565b9150611c4f826124d8565b604082019050919050565b6000611c67601283612148565b9150611c7282612527565b602082019050919050565b6000611c8a601783612148565b9150611c9582612550565b602082019050919050565b6000611cad601283612148565b9150611cb882612579565b602082019050919050565b6000611cd0601583612148565b9150611cdb826125a2565b602082019050919050565b6000611cf3601c83612148565b9150611cfe826125cb565b602082019050919050565b6000611d16601983612148565b9150611d21826125f4565b602082019050919050565b6000611d39602183612148565b9150611d448261261d565b604082019050919050565b6000611d5c602583612148565b9150611d678261266c565b604082019050919050565b6000611d7f602483612148565b9150611d8a826126bb565b604082019050919050565b6000611da2602583612148565b9150611dad8261270a565b604082019050919050565b6000611dc5601f83612148565b9150611dd082612759565b602082019050919050565b611de48161224d565b82525050565b611df381612257565b82525050565b6000606082019050611e0e6000830186611b04565b611e1b6020830185611b04565b611e286040830184611ddb565b949350505050565b6000604082019050611e456000830185611b04565b611e526020830184611ddb565b9392505050565b6000602082019050611e6e6000830184611b13565b92915050565b6000602082019050611e896000830184611b22565b92915050565b6000602082019050611ea46000830184611b31565b92915050565b6000602082019050611ebf6000830184611b40565b92915050565b60006020820190508181036000830152611edf8184611b4f565b905092915050565b60006020820190508181036000830152611f0081611b88565b9050919050565b60006020820190508181036000830152611f2081611bab565b9050919050565b60006020820190508181036000830152611f4081611bce565b9050919050565b60006020820190508181036000830152611f6081611bf1565b9050919050565b60006020820190508181036000830152611f8081611c14565b9050919050565b60006020820190508181036000830152611fa081611c37565b9050919050565b60006020820190508181036000830152611fc081611c5a565b9050919050565b60006020820190508181036000830152611fe081611c7d565b9050919050565b6000602082019050818103600083015261200081611ca0565b9050919050565b6000602082019050818103600083015261202081611cc3565b9050919050565b6000602082019050818103600083015261204081611ce6565b9050919050565b6000602082019050818103600083015261206081611d09565b9050919050565b6000602082019050818103600083015261208081611d2c565b9050919050565b600060208201905081810360008301526120a081611d4f565b9050919050565b600060208201905081810360008301526120c081611d72565b9050919050565b600060208201905081810360008301526120e081611d95565b9050919050565b6000602082019050818103600083015261210081611db8565b9050919050565b600060208201905061211c6000830184611ddb565b92915050565b60006020820190506121376000830184611dea565b92915050565b600081519050919050565b600082825260208201905092915050565b60006121648261224d565b915061216f8361224d565b9250827fffffffffffffffffffffffffffffffffffffffffffffffffffffffffffffffff038211156121a4576121a3612311565b5b828201905092915050565b60006121ba8261224d565b91506121c58361224d565b9250828210156121d8576121d7612311565b5b828203905092915050565b60006121ee8261222d565b9050919050565b60008115159050919050565b60007fffffffff0000000000000000000000000000000000000000000000000000000082169050919050565b600073ffffffffffffffffffffffffffffffffffffffff82169050919050565b6000819050919050565b600060ff82169050919050565b600061226f82612288565b9050919050565b600061228182612288565b9050919050565b60006122938261229a565b9050919050565b60006122a58261222d565b9050919050565b60005b838110156122ca5780820151818401526020810190506122af565b838111156122d9576000848401525b50505050565b600060028204905060018216806122f757607f821691505b6020821081141561230b5761230a612340565b5b50919050565b7f4e487b7100000000000000000000000000000000000000000000000000000000600052601160045260246000fd5b7f4e487b7100000000000000000000000000000000000000000000000000000000600052602260045260246000fd5b600080fd5b600080fd5b600080fd5b600080fd5b600080fd5b6000601f19601f8301169050919050565b7f45524332303a207472616e7366657220746f20746865207a65726f206164647260008201527f6573730000000000000000000000000000000000000000000000000000000000602082015250565b7f45524332303a206275726e20616d6f756e7420657863656564732062616c616e60008201527f6365000000000000000000000000000000000000000000000000000000000000602082015250565b7f45524332303a20617070726f766520746f20746865207a65726f20616464726560008201527f7373000000000000000000000000000000000000000000000000000000000000602082015250565b7f446f204e6f7420486176652052465420546f74616c20537570706c7900000000600082015250565b7f45524332303a20696e73756666696369656e7420616c6c6f77616e6365000000600082015250565b7f45524332303a207472616e7366657220616d6f756e742065786365656473206260008201527f616c616e63650000000000000000000000000000000000000000000000000000602082015250565b7f436f6e7472616374204973204b696c6c65640000000000000000000000000000600082015250565b7f4e6f7420656e6f75676820736861726573206c65667421000000000000000000600082015250565b7f436f6e7472616374204973205061757365640000000000000000000000000000600082015250565b7f54617267657420416c7265616479205261697365640000000000000000000000600082015250565b7f4f6e6c792041646d696e2043616e2050617573652f556e706175736500000000600082015250565b7f4e6f7420477265617420456e6f7567682042616c616e63652100000000000000600082015250565b7f45524332303a206275726e2066726f6d20746865207a65726f2061646472657360008201527f7300000000000000000000000000000000000000000000000000000000000000602082015250565b7f45524332303a207472616e736665722066726f6d20746865207a65726f20616460008201527f6472657373000000000000000000000000000000000000000000000000000000602082015250565b7f45524332303a20617070726f76652066726f6d20746865207a65726f2061646460008201527f7265737300000000000000000000000000000000000000000000000000000000602082015250565b7f45524332303a2064656372656173656420616c6c6f77616e63652062656c6f7760008201527f207a65726f000000000000000000000000000000000000000000000000000000602082015250565b7f45524332303a206d696e7420746f20746865207a65726f206164647265737300600082015250565b61278b816121e3565b811461279657600080fd5b50565b6127a2816121f5565b81146127ad57600080fd5b50565b6127b98161224d565b81146127c457600080fd5b50565b6127d081612257565b81146127db57600080fd5b5056fea26469706673582212208a64f7eb4947fd7056fd47e2c52744438d06fbf59841df2dffc60b3b12494cfc64736f6c63430008070033",
					"opcodes": "PUSH1 0xA0 PUSH1 0x40 MSTORE PUSH1 0x0 PUSH1 0x9 PUSH1 0x0 PUSH2 0x100 EXP DUP2 SLOAD DUP2 PUSH1 0xFF MUL NOT AND SWAP1 DUP4 ISZERO ISZERO MUL OR SWAP1 SSTORE POP PUSH1 0x0 PUSH1 0x9 PUSH1 0x1 PUSH2 0x100 EXP DUP2 SLOAD DUP2 PUSH1 0xFF MUL NOT AND SWAP1 DUP4 ISZERO ISZERO MUL OR SWAP1 SSTORE POP CALLVALUE DUP1 ISZERO PUSH3 0x47 JUMPI PUSH1 0x0 DUP1 REVERT JUMPDEST POP PUSH1 0x40 MLOAD PUSH3 0x2DDC CODESIZE SUB DUP1 PUSH3 0x2DDC DUP4 CODECOPY DUP2 DUP2 ADD PUSH1 0x40 MSTORE DUP2 ADD SWAP1 PUSH3 0x6D SWAP2 SWAP1 PUSH3 0x2D2 JUMP JUMPDEST DUP5 DUP5 DUP2 PUSH1 0x3 SWAP1 DUP1 MLOAD SWAP1 PUSH1 0x20 ADD SWAP1 PUSH3 0x87 SWAP3 SWAP2 SWAP1 PUSH3 0x176 JUMP JUMPDEST POP DUP1 PUSH1 0x4 SWAP1 DUP1 MLOAD SWAP1 PUSH1 0x20 ADD SWAP1 PUSH3 0xA0 SWAP3 SWAP2 SWAP1 PUSH3 0x176 JUMP JUMPDEST POP POP POP DUP6 PUSH1 0x6 DUP2 SWAP1 SSTORE POP DUP3 PUSH1 0x8 DUP2 SWAP1 SSTORE POP DUP2 PUSH1 0x9 PUSH1 0x2 PUSH2 0x100 EXP DUP2 SLOAD DUP2 PUSH20 0xFFFFFFFFFFFFFFFFFFFFFFFFFFFFFFFFFFFFFFFF MUL NOT AND SWAP1 DUP4 PUSH20 0xFFFFFFFFFFFFFFFFFFFFFFFFFFFFFFFFFFFFFFFF AND MUL OR SWAP1 SSTORE POP DUP1 PUSH1 0x5 PUSH1 0x0 PUSH2 0x100 EXP DUP2 SLOAD DUP2 PUSH20 0xFFFFFFFFFFFFFFFFFFFFFFFFFFFFFFFFFFFFFFFF MUL NOT AND SWAP1 DUP4 PUSH20 0xFFFFFFFFFFFFFFFFFFFFFFFFFFFFFFFFFFFFFFFF AND MUL OR SWAP1 SSTORE POP CALLER PUSH20 0xFFFFFFFFFFFFFFFFFFFFFFFFFFFFFFFFFFFFFFFF AND PUSH1 0x80 DUP2 PUSH20 0xFFFFFFFFFFFFFFFFFFFFFFFFFFFFFFFFFFFFFFFF AND PUSH1 0x60 SHL DUP2 MSTORE POP POP POP POP POP POP POP POP PUSH3 0x5A2 JUMP JUMPDEST DUP3 DUP1 SLOAD PUSH3 0x184 SWAP1 PUSH3 0x47F JUMP JUMPDEST SWAP1 PUSH1 0x0 MSTORE PUSH1 0x20 PUSH1 0x0 KECCAK256 SWAP1 PUSH1 0x1F ADD PUSH1 0x20 SWAP1 DIV DUP2 ADD SWAP3 DUP3 PUSH3 0x1A8 JUMPI PUSH1 0x0 DUP6 SSTORE PUSH3 0x1F4 JUMP JUMPDEST DUP3 PUSH1 0x1F LT PUSH3 0x1C3 JUMPI DUP1 MLOAD PUSH1 0xFF NOT AND DUP4 DUP1 ADD OR DUP6 SSTORE PUSH3 0x1F4 JUMP JUMPDEST DUP3 DUP1 ADD PUSH1 0x1 ADD DUP6 SSTORE DUP3 ISZERO PUSH3 0x1F4 JUMPI SWAP2 DUP3 ADD JUMPDEST DUP3 DUP2 GT ISZERO PUSH3 0x1F3 JUMPI DUP3 MLOAD DUP3 SSTORE SWAP2 PUSH1 0x20 ADD SWAP2 SWAP1 PUSH1 0x1 ADD SWAP1 PUSH3 0x1D6 JUMP JUMPDEST JUMPDEST POP SWAP1 POP PUSH3 0x203 SWAP2 SWAP1 PUSH3 0x207 JUMP JUMPDEST POP SWAP1 JUMP JUMPDEST JUMPDEST DUP1 DUP3 GT ISZERO PUSH3 0x222 JUMPI PUSH1 0x0 DUP2 PUSH1 0x0 SWAP1 SSTORE POP PUSH1 0x1 ADD PUSH3 0x208 JUMP JUMPDEST POP SWAP1 JUMP JUMPDEST PUSH1 0x0 PUSH3 0x23D PUSH3 0x237 DUP5 PUSH3 0x3D5 JUMP JUMPDEST PUSH3 0x3AC JUMP JUMPDEST SWAP1 POP DUP3 DUP2 MSTORE PUSH1 0x20 DUP2 ADD DUP5 DUP5 DUP5 ADD GT ISZERO PUSH3 0x25C JUMPI PUSH3 0x25B PUSH3 0x54E JUMP JUMPDEST JUMPDEST PUSH3 0x269 DUP5 DUP3 DUP6 PUSH3 0x449 JUMP JUMPDEST POP SWAP4 SWAP3 POP POP POP JUMP JUMPDEST PUSH1 0x0 DUP2 MLOAD SWAP1 POP PUSH3 0x282 DUP2 PUSH3 0x56E JUMP JUMPDEST SWAP3 SWAP2 POP POP JUMP JUMPDEST PUSH1 0x0 DUP3 PUSH1 0x1F DUP4 ADD SLT PUSH3 0x2A0 JUMPI PUSH3 0x29F PUSH3 0x549 JUMP JUMPDEST JUMPDEST DUP2 MLOAD PUSH3 0x2B2 DUP5 DUP3 PUSH1 0x20 DUP7 ADD PUSH3 0x226 JUMP JUMPDEST SWAP2 POP POP SWAP3 SWAP2 POP POP JUMP JUMPDEST PUSH1 0x0 DUP2 MLOAD SWAP1 POP PUSH3 0x2CC DUP2 PUSH3 0x588 JUMP JUMPDEST SWAP3 SWAP2 POP POP JUMP JUMPDEST PUSH1 0x0 DUP1 PUSH1 0x0 DUP1 PUSH1 0x0 DUP1 PUSH1 0xC0 DUP8 DUP10 SUB SLT ISZERO PUSH3 0x2F2 JUMPI PUSH3 0x2F1 PUSH3 0x558 JUMP JUMPDEST JUMPDEST PUSH1 0x0 PUSH3 0x302 DUP10 DUP3 DUP11 ADD PUSH3 0x2BB JUMP JUMPDEST SWAP7 POP POP PUSH1 0x20 DUP8 ADD MLOAD PUSH8 0xFFFFFFFFFFFFFFFF DUP2 GT ISZERO PUSH3 0x326 JUMPI PUSH3 0x325 PUSH3 0x553 JUMP JUMPDEST JUMPDEST PUSH3 0x334 DUP10 DUP3 DUP11 ADD PUSH3 0x288 JUMP JUMPDEST SWAP6 POP POP PUSH1 0x40 DUP8 ADD MLOAD PUSH8 0xFFFFFFFFFFFFFFFF DUP2 GT ISZERO PUSH3 0x358 JUMPI PUSH3 0x357 PUSH3 0x553 JUMP JUMPDEST JUMPDEST PUSH3 0x366 DUP10 DUP3 DUP11 ADD PUSH3 0x288 JUMP JUMPDEST SWAP5 POP POP PUSH1 0x60 PUSH3 0x379 DUP10 DUP3 DUP11 ADD PUSH3 0x2BB JUMP JUMPDEST SWAP4 POP POP PUSH1 0x80 PUSH3 0x38C DUP10 DUP3 DUP11 ADD PUSH3 0x271 JUMP JUMPDEST SWAP3 POP POP PUSH1 0xA0 PUSH3 0x39F DUP10 DUP3 DUP11 ADD PUSH3 0x271 JUMP JUMPDEST SWAP2 POP POP SWAP3 SWAP6 POP SWAP3 SWAP6 POP SWAP3 SWAP6 JUMP JUMPDEST PUSH1 0x0 PUSH3 0x3B8 PUSH3 0x3CB JUMP JUMPDEST SWAP1 POP PUSH3 0x3C6 DUP3 DUP3 PUSH3 0x4B5 JUMP JUMPDEST SWAP2 SWAP1 POP JUMP JUMPDEST PUSH1 0x0 PUSH1 0x40 MLOAD SWAP1 POP SWAP1 JUMP JUMPDEST PUSH1 0x0 PUSH8 0xFFFFFFFFFFFFFFFF DUP3 GT ISZERO PUSH3 0x3F3 JUMPI PUSH3 0x3F2 PUSH3 0x51A JUMP JUMPDEST JUMPDEST PUSH3 0x3FE DUP3 PUSH3 0x55D JUMP JUMPDEST SWAP1 POP PUSH1 0x20 DUP2 ADD SWAP1 POP SWAP2 SWAP1 POP JUMP JUMPDEST PUSH1 0x0 PUSH3 0x418 DUP3 PUSH3 0x41F JUMP JUMPDEST SWAP1 POP SWAP2 SWAP1 POP JUMP JUMPDEST PUSH1 0x0 PUSH20 0xFFFFFFFFFFFFFFFFFFFFFFFFFFFFFFFFFFFFFFFF DUP3 AND SWAP1 POP SWAP2 SWAP1 POP JUMP JUMPDEST PUSH1 0x0 DUP2 SWAP1 POP SWAP2 SWAP1 POP JUMP JUMPDEST PUSH1 0x0 JUMPDEST DUP4 DUP2 LT ISZERO PUSH3 0x469 JUMPI DUP1 DUP3 ADD MLOAD DUP2 DUP5 ADD MSTORE PUSH1 0x20 DUP2 ADD SWAP1 POP PUSH3 0x44C JUMP JUMPDEST DUP4 DUP2 GT ISZERO PUSH3 0x479 JUMPI PUSH1 0x0 DUP5 DUP5 ADD MSTORE JUMPDEST POP POP POP POP JUMP JUMPDEST PUSH1 0x0 PUSH1 0x2 DUP3 DIV SWAP1 POP PUSH1 0x1 DUP3 AND DUP1 PUSH3 0x498 JUMPI PUSH1 0x7F DUP3 AND SWAP2 POP JUMPDEST PUSH1 0x20 DUP3 LT DUP2 EQ ISZERO PUSH3 0x4AF JUMPI PUSH3 0x4AE PUSH3 0x4EB JUMP JUMPDEST JUMPDEST POP SWAP2 SWAP1 POP JUMP JUMPDEST PUSH3 0x4C0 DUP3 PUSH3 0x55D JUMP JUMPDEST DUP2 ADD DUP2 DUP2 LT PUSH8 0xFFFFFFFFFFFFFFFF DUP3 GT OR ISZERO PUSH3 0x4E2 JUMPI PUSH3 0x4E1 PUSH3 0x51A JUMP JUMPDEST JUMPDEST DUP1 PUSH1 0x40 MSTORE POP POP POP JUMP JUMPDEST PUSH32 0x4E487B7100000000000000000000000000000000000000000000000000000000 PUSH1 0x0 MSTORE PUSH1 0x22 PUSH1 0x4 MSTORE PUSH1 0x24 PUSH1 0x0 REVERT JUMPDEST PUSH32 0x4E487B7100000000000000000000000000000000000000000000000000000000 PUSH1 0x0 MSTORE PUSH1 0x41 PUSH1 0x4 MSTORE PUSH1 0x24 PUSH1 0x0 REVERT JUMPDEST PUSH1 0x0 DUP1 REVERT JUMPDEST PUSH1 0x0 DUP1 REVERT JUMPDEST PUSH1 0x0 DUP1 REVERT JUMPDEST PUSH1 0x0 DUP1 REVERT JUMPDEST PUSH1 0x0 PUSH1 0x1F NOT PUSH1 0x1F DUP4 ADD AND SWAP1 POP SWAP2 SWAP1 POP JUMP JUMPDEST PUSH3 0x579 DUP2 PUSH3 0x40B JUMP JUMPDEST DUP2 EQ PUSH3 0x585 JUMPI PUSH1 0x0 DUP1 REVERT JUMPDEST POP JUMP JUMPDEST PUSH3 0x593 DUP2 PUSH3 0x43F JUMP JUMPDEST DUP2 EQ PUSH3 0x59F JUMPI PUSH1 0x0 DUP1 REVERT JUMPDEST POP JUMP JUMPDEST PUSH1 0x80 MLOAD PUSH1 0x60 SHR PUSH2 0x2814 PUSH3 0x5C8 PUSH1 0x0 CODECOPY PUSH1 0x0 DUP2 DUP2 PUSH2 0xCA9 ADD MSTORE PUSH2 0xD56 ADD MSTORE PUSH2 0x2814 PUSH1 0x0 RETURN INVALID PUSH1 0x80 PUSH1 0x40 MSTORE CALLVALUE DUP1 ISZERO PUSH2 0x10 JUMPI PUSH1 0x0 DUP1 REVERT JUMPDEST POP PUSH1 0x4 CALLDATASIZE LT PUSH2 0x173 JUMPI PUSH1 0x0 CALLDATALOAD PUSH1 0xE0 SHR DUP1 PUSH4 0x41C0E1B5 GT PUSH2 0xDE JUMPI DUP1 PUSH4 0x8456CB59 GT PUSH2 0x97 JUMPI DUP1 PUSH4 0xA457C2D7 GT PUSH2 0x71 JUMPI DUP1 PUSH4 0xA457C2D7 EQ PUSH2 0x408 JUMPI DUP1 PUSH4 0xA9059CBB EQ PUSH2 0x438 JUMPI DUP1 PUSH4 0xBDF89682 EQ PUSH2 0x468 JUMPI DUP1 PUSH4 0xDD62ED3E EQ PUSH2 0x486 JUMPI PUSH2 0x173 JUMP JUMPDEST DUP1 PUSH4 0x8456CB59 EQ PUSH2 0x3C2 JUMPI DUP1 PUSH4 0x953B8FB8 EQ PUSH2 0x3CC JUMPI DUP1 PUSH4 0x95D89B41 EQ PUSH2 0x3EA JUMPI PUSH2 0x173 JUMP JUMPDEST DUP1 PUSH4 0x41C0E1B5 EQ PUSH2 0x324 JUMPI DUP1 PUSH4 0x5C975ABB EQ PUSH2 0x32E JUMPI DUP1 PUSH4 0x70A08231 EQ PUSH2 0x34C JUMPI DUP1 PUSH4 0x77262D38 EQ PUSH2 0x37C JUMPI DUP1 PUSH4 0x7B3E5E7B EQ PUSH2 0x386 JUMPI DUP1 PUSH4 0x7E0D73D4 EQ PUSH2 0x3A4 JUMPI PUSH2 0x173 JUMP JUMPDEST DUP1 PUSH4 0x1F3A0E41 GT PUSH2 0x130 JUMPI DUP1 PUSH4 0x1F3A0E41 EQ PUSH2 0x250 JUMPI DUP1 PUSH4 0x2037FCBF EQ PUSH2 0x26E JUMPI DUP1 PUSH4 0x23B872DD EQ PUSH2 0x28A JUMPI DUP1 PUSH4 0x2AFCF480 EQ PUSH2 0x2BA JUMPI DUP1 PUSH4 0x313CE567 EQ PUSH2 0x2D6 JUMPI DUP1 PUSH4 0x39509351 EQ PUSH2 0x2F4 JUMPI PUSH2 0x173 JUMP JUMPDEST DUP1 PUSH4 0x6FDDE03 EQ PUSH2 0x178 JUMPI DUP1 PUSH4 0x6FEBE00 EQ PUSH2 0x196 JUMPI DUP1 PUSH4 0x95EA7B3 EQ PUSH2 0x1B4 JUMPI DUP1 PUSH4 0x11DF9995 EQ PUSH2 0x1E4 JUMPI DUP1 PUSH4 0x150B7A02 EQ PUSH2 0x202 JUMPI DUP1 PUSH4 0x18160DDD EQ PUSH2 0x232 JUMPI JUMPDEST PUSH1 0x0 DUP1 REVERT JUMPDEST PUSH2 0x180 PUSH2 0x4B6 JUMP JUMPDEST PUSH1 0x40 MLOAD PUSH2 0x18D SWAP2 SWAP1 PUSH2 0x1EC5 JUMP JUMPDEST PUSH1 0x40 MLOAD DUP1 SWAP2 SUB SWAP1 RETURN JUMPDEST PUSH2 0x19E PUSH2 0x548 JUMP JUMPDEST PUSH1 0x40 MLOAD PUSH2 0x1AB SWAP2 SWAP1 PUSH2 0x2107 JUMP JUMPDEST PUSH1 0x40 MLOAD DUP1 SWAP2 SUB SWAP1 RETURN JUMPDEST PUSH2 0x1CE PUSH1 0x4 DUP1 CALLDATASIZE SUB DUP2 ADD SWAP1 PUSH2 0x1C9 SWAP2 SWAP1 PUSH2 0x1A3D JUMP JUMPDEST PUSH2 0x54E JUMP JUMPDEST PUSH1 0x40 MLOAD PUSH2 0x1DB SWAP2 SWAP1 PUSH2 0x1E59 JUMP JUMPDEST PUSH1 0x40 MLOAD DUP1 SWAP2 SUB SWAP1 RETURN JUMPDEST PUSH2 0x1EC PUSH2 0x571 JUMP JUMPDEST PUSH1 0x40 MLOAD PUSH2 0x1F9 SWAP2 SWAP1 PUSH2 0x1E8F JUMP JUMPDEST PUSH1 0x40 MLOAD DUP1 SWAP2 SUB SWAP1 RETURN JUMPDEST PUSH2 0x21C PUSH1 0x4 DUP1 CALLDATASIZE SUB DUP2 ADD SWAP1 PUSH2 0x217 SWAP2 SWAP1 PUSH2 0x19B5 JUMP JUMPDEST PUSH2 0x597 JUMP JUMPDEST PUSH1 0x40 MLOAD PUSH2 0x229 SWAP2 SWAP1 PUSH2 0x1E74 JUMP JUMPDEST PUSH1 0x40 MLOAD DUP1 SWAP2 SUB SWAP1 RETURN JUMPDEST PUSH2 0x23A PUSH2 0x5AC JUMP JUMPDEST PUSH1 0x40 MLOAD PUSH2 0x247 SWAP2 SWAP1 PUSH2 0x2107 JUMP JUMPDEST PUSH1 0x40 MLOAD DUP1 SWAP2 SUB SWAP1 RETURN JUMPDEST PUSH2 0x258 PUSH2 0x5B6 JUMP JUMPDEST PUSH1 0x40 MLOAD PUSH2 0x265 SWAP2 SWAP1 PUSH2 0x1E59 JUMP JUMPDEST PUSH1 0x40 MLOAD DUP1 SWAP2 SUB SWAP1 RETURN JUMPDEST PUSH2 0x288 PUSH1 0x4 DUP1 CALLDATASIZE SUB DUP2 ADD SWAP1 PUSH2 0x283 SWAP2 SWAP1 PUSH2 0x1AAA JUMP JUMPDEST PUSH2 0x5C9 JUMP JUMPDEST STOP JUMPDEST PUSH2 0x2A4 PUSH1 0x4 DUP1 CALLDATASIZE SUB DUP2 ADD SWAP1 PUSH2 0x29F SWAP2 SWAP1 PUSH2 0x1962 JUMP JUMPDEST PUSH2 0x735 JUMP JUMPDEST PUSH1 0x40 MLOAD PUSH2 0x2B1 SWAP2 SWAP1 PUSH2 0x1E59 JUMP JUMPDEST PUSH1 0x40 MLOAD DUP1 SWAP2 SUB SWAP1 RETURN JUMPDEST PUSH2 0x2D4 PUSH1 0x4 DUP1 CALLDATASIZE SUB DUP2 ADD SWAP1 PUSH2 0x2CF SWAP2 SWAP1 PUSH2 0x1AAA JUMP JUMPDEST PUSH2 0x764 JUMP JUMPDEST STOP JUMPDEST PUSH2 0x2DE PUSH2 0xA64 JUMP JUMPDEST PUSH1 0x40 MLOAD PUSH2 0x2EB SWAP2 SWAP1 PUSH2 0x2122 JUMP JUMPDEST PUSH1 0x40 MLOAD DUP1 SWAP2 SUB SWAP1 RETURN JUMPDEST PUSH2 0x30E PUSH1 0x4 DUP1 CALLDATASIZE SUB DUP2 ADD SWAP1 PUSH2 0x309 SWAP2 SWAP1 PUSH2 0x1A3D JUMP JUMPDEST PUSH2 0xB0B JUMP JUMPDEST PUSH1 0x40 MLOAD PUSH2 0x31B SWAP2 SWAP1 PUSH2 0x1E59 JUMP JUMPDEST PUSH1 0x40 MLOAD DUP1 SWAP2 SUB SWAP1 RETURN JUMPDEST PUSH2 0x32C PUSH2 0xB42 JUMP JUMPDEST STOP JUMPDEST PUSH2 0x336 PUSH2 0xBEF JUMP JUMPDEST PUSH1 0x40 MLOAD PUSH2 0x343 SWAP2 SWAP1 PUSH2 0x1E59 JUMP JUMPDEST PUSH1 0x40 MLOAD DUP1 SWAP2 SUB SWAP1 RETURN JUMPDEST PUSH2 0x366 PUSH1 0x4 DUP1 CALLDATASIZE SUB DUP2 ADD SWAP1 PUSH2 0x361 SWAP2 SWAP1 PUSH2 0x18F5 JUMP JUMPDEST PUSH2 0xC02 JUMP JUMPDEST PUSH1 0x40 MLOAD PUSH2 0x373 SWAP2 SWAP1 PUSH2 0x2107 JUMP JUMPDEST PUSH1 0x40 MLOAD DUP1 SWAP2 SUB SWAP1 RETURN JUMPDEST PUSH2 0x384 PUSH2 0xC4A JUMP JUMPDEST STOP JUMPDEST PUSH2 0x38E PUSH2 0xD4E JUMP JUMPDEST PUSH1 0x40 MLOAD PUSH2 0x39B SWAP2 SWAP1 PUSH2 0x2107 JUMP JUMPDEST PUSH1 0x40 MLOAD DUP1 SWAP2 SUB SWAP1 RETURN JUMPDEST PUSH2 0x3AC PUSH2 0xD54 JUMP JUMPDEST PUSH1 0x40 MLOAD PUSH2 0x3B9 SWAP2 SWAP1 PUSH2 0x1EAA JUMP JUMPDEST PUSH1 0x40 MLOAD DUP1 SWAP2 SUB SWAP1 RETURN JUMPDEST PUSH2 0x3CA PUSH2 0xD78 JUMP JUMPDEST STOP JUMPDEST PUSH2 0x3D4 PUSH2 0xE5A JUMP JUMPDEST PUSH1 0x40 MLOAD PUSH2 0x3E1 SWAP2 SWAP1 PUSH2 0x2107 JUMP JUMPDEST PUSH1 0x40 MLOAD DUP1 SWAP2 SUB SWAP1 RETURN JUMPDEST PUSH2 0x3F2 PUSH2 0xE60 JUMP JUMPDEST PUSH1 0x40 MLOAD PUSH2 0x3FF SWAP2 SWAP1 PUSH2 0x1EC5 JUMP JUMPDEST PUSH1 0x40 MLOAD DUP1 SWAP2 SUB SWAP1 RETURN JUMPDEST PUSH2 0x422 PUSH1 0x4 DUP1 CALLDATASIZE SUB DUP2 ADD SWAP1 PUSH2 0x41D SWAP2 SWAP1 PUSH2 0x1A3D JUMP JUMPDEST PUSH2 0xEF2 JUMP JUMPDEST PUSH1 0x40 MLOAD PUSH2 0x42F SWAP2 SWAP1 PUSH2 0x1E59 JUMP JUMPDEST PUSH1 0x40 MLOAD DUP1 SWAP2 SUB SWAP1 RETURN JUMPDEST PUSH2 0x452 PUSH1 0x4 DUP1 CALLDATASIZE SUB DUP2 ADD SWAP1 PUSH2 0x44D SWAP2 SWAP1 PUSH2 0x1A3D JUMP JUMPDEST PUSH2 0xF69 JUMP JUMPDEST PUSH1 0x40 MLOAD PUSH2 0x45F SWAP2 SWAP1 PUSH2 0x1E59 JUMP JUMPDEST PUSH1 0x40 MLOAD DUP1 SWAP2 SUB SWAP1 RETURN JUMPDEST PUSH2 0x470 PUSH2 0xF8C JUMP JUMPDEST PUSH1 0x40 MLOAD PUSH2 0x47D SWAP2 SWAP1 PUSH2 0x2107 JUMP JUMPDEST PUSH1 0x40 MLOAD DUP1 SWAP2 SUB SWAP1 RETURN JUMPDEST PUSH2 0x4A0 PUSH1 0x4 DUP1 CALLDATASIZE SUB DUP2 ADD SWAP1 PUSH2 0x49B SWAP2 SWAP1 PUSH2 0x1922 JUMP JUMPDEST PUSH2 0xFA3 JUMP JUMPDEST PUSH1 0x40 MLOAD PUSH2 0x4AD SWAP2 SWAP1 PUSH2 0x2107 JUMP JUMPDEST PUSH1 0x40 MLOAD DUP1 SWAP2 SUB SWAP1 RETURN JUMPDEST PUSH1 0x60 PUSH1 0x3 DUP1 SLOAD PUSH2 0x4C5 SWAP1 PUSH2 0x22DF JUMP JUMPDEST DUP1 PUSH1 0x1F ADD PUSH1 0x20 DUP1 SWAP2 DIV MUL PUSH1 0x20 ADD PUSH1 0x40 MLOAD SWAP1 DUP2 ADD PUSH1 0x40 MSTORE DUP1 SWAP3 SWAP2 SWAP1 DUP2 DUP2 MSTORE PUSH1 0x20 ADD DUP3 DUP1 SLOAD PUSH2 0x4F1 SWAP1 PUSH2 0x22DF JUMP JUMPDEST DUP1 ISZERO PUSH2 0x53E JUMPI DUP1 PUSH1 0x1F LT PUSH2 0x513 JUMPI PUSH2 0x100 DUP1 DUP4 SLOAD DIV MUL DUP4 MSTORE SWAP2 PUSH1 0x20 ADD SWAP2 PUSH2 0x53E JUMP JUMPDEST DUP3 ADD SWAP2 SWAP1 PUSH1 0x0 MSTORE PUSH1 0x20 PUSH1 0x0 KECCAK256 SWAP1 JUMPDEST DUP2 SLOAD DUP2 MSTORE SWAP1 PUSH1 0x1 ADD SWAP1 PUSH1 0x20 ADD DUP1 DUP4 GT PUSH2 0x521 JUMPI DUP3 SWAP1 SUB PUSH1 0x1F AND DUP3 ADD SWAP2 JUMPDEST POP POP POP POP POP SWAP1 POP SWAP1 JUMP JUMPDEST PUSH1 0x8 SLOAD DUP2 JUMP JUMPDEST PUSH1 0x0 DUP1 PUSH2 0x559 PUSH2 0x102A JUMP JUMPDEST SWAP1 POP PUSH2 0x566 DUP2 DUP6 DUP6 PUSH2 0x1032 JUMP JUMPDEST PUSH1 0x1 SWAP2 POP POP SWAP3 SWAP2 POP POP JUMP JUMPDEST PUSH1 0x5 PUSH1 0x0 SWAP1 SLOAD SWAP1 PUSH2 0x100 EXP SWAP1 DIV PUSH20 0xFFFFFFFFFFFFFFFFFFFFFFFFFFFFFFFFFFFFFFFF AND DUP2 JUMP JUMPDEST PUSH1 0x0 PUSH4 0x150B7A02 PUSH1 0xE0 SHL SWAP1 POP SWAP6 SWAP5 POP POP POP POP POP JUMP JUMPDEST PUSH1 0x0 PUSH1 0x2 SLOAD SWAP1 POP SWAP1 JUMP JUMPDEST PUSH1 0x9 PUSH1 0x1 SWAP1 SLOAD SWAP1 PUSH2 0x100 EXP SWAP1 DIV PUSH1 0xFF AND DUP2 JUMP JUMPDEST PUSH1 0x6 SLOAD PUSH2 0x5D4 PUSH2 0x5AC JUMP JUMPDEST LT PUSH2 0x614 JUMPI PUSH1 0x40 MLOAD PUSH32 0x8C379A000000000000000000000000000000000000000000000000000000000 DUP2 MSTORE PUSH1 0x4 ADD PUSH2 0x60B SWAP1 PUSH2 0x2007 JUMP JUMPDEST PUSH1 0x40 MLOAD DUP1 SWAP2 SUB SWAP1 REVERT JUMPDEST PUSH2 0x61D CALLER PUSH2 0xC02 JUMP JUMPDEST DUP2 GT ISZERO PUSH2 0x65F JUMPI PUSH1 0x40 MLOAD PUSH32 0x8C379A000000000000000000000000000000000000000000000000000000000 DUP2 MSTORE PUSH1 0x4 ADD PUSH2 0x656 SWAP1 PUSH2 0x2047 JUMP JUMPDEST PUSH1 0x40 MLOAD DUP1 SWAP2 SUB SWAP1 REVERT JUMPDEST PUSH1 0x5 PUSH1 0x0 SWAP1 SLOAD SWAP1 PUSH2 0x100 EXP SWAP1 DIV PUSH20 0xFFFFFFFFFFFFFFFFFFFFFFFFFFFFFFFFFFFFFFFF AND PUSH20 0xFFFFFFFFFFFFFFFFFFFFFFFFFFFFFFFFFFFFFFFF AND PUSH4 0xA9059CBB CALLER DUP4 PUSH1 0x40 MLOAD DUP4 PUSH4 0xFFFFFFFF AND PUSH1 0xE0 SHL DUP2 MSTORE PUSH1 0x4 ADD PUSH2 0x6BC SWAP3 SWAP2 SWAP1 PUSH2 0x1E30 JUMP JUMPDEST PUSH1 0x20 PUSH1 0x40 MLOAD DUP1 DUP4 SUB DUP2 PUSH1 0x0 DUP8 DUP1 EXTCODESIZE ISZERO DUP1 ISZERO PUSH2 0x6D6 JUMPI PUSH1 0x0 DUP1 REVERT JUMPDEST POP GAS CALL ISZERO DUP1 ISZERO PUSH2 0x6EA JUMPI RETURNDATASIZE PUSH1 0x0 DUP1 RETURNDATACOPY RETURNDATASIZE PUSH1 0x0 REVERT JUMPDEST POP POP POP POP PUSH1 0x40 MLOAD RETURNDATASIZE PUSH1 0x1F NOT PUSH1 0x1F DUP3 ADD AND DUP3 ADD DUP1 PUSH1 0x40 MSTORE POP DUP2 ADD SWAP1 PUSH2 0x70E SWAP2 SWAP1 PUSH2 0x1A7D JUMP JUMPDEST POP DUP1 PUSH1 0x7 PUSH1 0x0 DUP3 DUP3 SLOAD PUSH2 0x721 SWAP2 SWAP1 PUSH2 0x21AF JUMP JUMPDEST SWAP3 POP POP DUP2 SWAP1 SSTORE POP PUSH2 0x732 CALLER DUP3 PUSH2 0x11FD JUMP JUMPDEST POP JUMP JUMPDEST PUSH1 0x0 DUP1 PUSH2 0x740 PUSH2 0x102A JUMP JUMPDEST SWAP1 POP PUSH2 0x74D DUP6 DUP3 DUP6 PUSH2 0x13D4 JUMP JUMPDEST PUSH2 0x758 DUP6 DUP6 DUP6 PUSH2 0x1460 JUMP JUMPDEST PUSH1 0x1 SWAP2 POP POP SWAP4 SWAP3 POP POP POP JUMP JUMPDEST PUSH1 0x6 SLOAD PUSH2 0x76F PUSH2 0x5AC JUMP JUMPDEST LT PUSH2 0x7AF JUMPI PUSH1 0x40 MLOAD PUSH32 0x8C379A000000000000000000000000000000000000000000000000000000000 DUP2 MSTORE PUSH1 0x4 ADD PUSH2 0x7A6 SWAP1 PUSH2 0x2007 JUMP JUMPDEST PUSH1 0x40 MLOAD DUP1 SWAP2 SUB SWAP1 REVERT JUMPDEST PUSH2 0x7B7 PUSH2 0x5AC JUMP JUMPDEST PUSH1 0x6 SLOAD PUSH2 0x7C4 SWAP2 SWAP1 PUSH2 0x21AF JUMP JUMPDEST DUP2 GT ISZERO PUSH2 0x806 JUMPI PUSH1 0x40 MLOAD PUSH32 0x8C379A000000000000000000000000000000000000000000000000000000000 DUP2 MSTORE PUSH1 0x4 ADD PUSH2 0x7FD SWAP1 PUSH2 0x1FC7 JUMP JUMPDEST PUSH1 0x40 MLOAD DUP1 SWAP2 SUB SWAP1 REVERT JUMPDEST PUSH1 0x9 PUSH1 0x0 SWAP1 SLOAD SWAP1 PUSH2 0x100 EXP SWAP1 DIV PUSH1 0xFF AND ISZERO PUSH2 0x856 JUMPI PUSH1 0x40 MLOAD PUSH32 0x8C379A000000000000000000000000000000000000000000000000000000000 DUP2 MSTORE PUSH1 0x4 ADD PUSH2 0x84D SWAP1 PUSH2 0x1FE7 JUMP JUMPDEST PUSH1 0x40 MLOAD DUP1 SWAP2 SUB SWAP1 REVERT JUMPDEST PUSH1 0x9 PUSH1 0x1 SWAP1 SLOAD SWAP1 PUSH2 0x100 EXP SWAP1 DIV PUSH1 0xFF AND ISZERO PUSH2 0x8A6 JUMPI PUSH1 0x40 MLOAD PUSH32 0x8C379A000000000000000000000000000000000000000000000000000000000 DUP2 MSTORE PUSH1 0x4 ADD PUSH2 0x89D SWAP1 PUSH2 0x1FA7 JUMP JUMPDEST PUSH1 0x40 MLOAD DUP1 SWAP2 SUB SWAP1 REVERT JUMPDEST PUSH1 0x5 PUSH1 0x0 SWAP1 SLOAD SWAP1 PUSH2 0x100 EXP SWAP1 DIV PUSH20 0xFFFFFFFFFFFFFFFFFFFFFFFFFFFFFFFFFFFFFFFF AND PUSH20 0xFFFFFFFFFFFFFFFFFFFFFFFFFFFFFFFFFFFFFFFF AND PUSH4 0x23B872DD CALLER ADDRESS DUP5 PUSH1 0x40 MLOAD DUP5 PUSH4 0xFFFFFFFF AND PUSH1 0xE0 SHL DUP2 MSTORE PUSH1 0x4 ADD PUSH2 0x905 SWAP4 SWAP3 SWAP2 SWAP1 PUSH2 0x1DF9 JUMP JUMPDEST PUSH1 0x20 PUSH1 0x40 MLOAD DUP1 DUP4 SUB DUP2 PUSH1 0x0 DUP8 DUP1 EXTCODESIZE ISZERO DUP1 ISZERO PUSH2 0x91F JUMPI PUSH1 0x0 DUP1 REVERT JUMPDEST POP GAS CALL ISZERO DUP1 ISZERO PUSH2 0x933 JUMPI RETURNDATASIZE PUSH1 0x0 DUP1 RETURNDATACOPY RETURNDATASIZE PUSH1 0x0 REVERT JUMPDEST POP POP POP POP PUSH1 0x40 MLOAD RETURNDATASIZE PUSH1 0x1F NOT PUSH1 0x1F DUP3 ADD AND DUP3 ADD DUP1 PUSH1 0x40 MSTORE POP DUP2 ADD SWAP1 PUSH2 0x957 SWAP2 SWAP1 PUSH2 0x1A7D JUMP JUMPDEST POP DUP1 PUSH1 0x7 PUSH1 0x0 DUP3 DUP3 SLOAD PUSH2 0x96A SWAP2 SWAP1 PUSH2 0x2159 JUMP JUMPDEST SWAP3 POP POP DUP2 SWAP1 SSTORE POP PUSH2 0x97B CALLER DUP3 PUSH2 0x16E1 JUMP JUMPDEST PUSH2 0x983 PUSH2 0x5AC JUMP JUMPDEST PUSH1 0x6 SLOAD EQ ISZERO PUSH2 0xA61 JUMPI PUSH1 0x5 PUSH1 0x0 SWAP1 SLOAD SWAP1 PUSH2 0x100 EXP SWAP1 DIV PUSH20 0xFFFFFFFFFFFFFFFFFFFFFFFFFFFFFFFFFFFFFFFF AND PUSH20 0xFFFFFFFFFFFFFFFFFFFFFFFFFFFFFFFFFFFFFFFF AND PUSH4 0xA9059CBB PUSH1 0x9 PUSH1 0x2 SWAP1 SLOAD SWAP1 PUSH2 0x100 EXP SWAP1 DIV PUSH20 0xFFFFFFFFFFFFFFFFFFFFFFFFFFFFFFFFFFFFFFFF AND PUSH1 0x6 SLOAD PUSH1 0x40 MLOAD DUP4 PUSH4 0xFFFFFFFF AND PUSH1 0xE0 SHL DUP2 MSTORE PUSH1 0x4 ADD PUSH2 0xA0D SWAP3 SWAP2 SWAP1 PUSH2 0x1E30 JUMP JUMPDEST PUSH1 0x20 PUSH1 0x40 MLOAD DUP1 DUP4 SUB DUP2 PUSH1 0x0 DUP8 DUP1 EXTCODESIZE ISZERO DUP1 ISZERO PUSH2 0xA27 JUMPI PUSH1 0x0 DUP1 REVERT JUMPDEST POP GAS CALL ISZERO DUP1 ISZERO PUSH2 0xA3B JUMPI RETURNDATASIZE PUSH1 0x0 DUP1 RETURNDATACOPY RETURNDATASIZE PUSH1 0x0 REVERT JUMPDEST POP POP POP POP PUSH1 0x40 MLOAD RETURNDATASIZE PUSH1 0x1F NOT PUSH1 0x1F DUP3 ADD AND DUP3 ADD DUP1 PUSH1 0x40 MSTORE POP DUP2 ADD SWAP1 PUSH2 0xA5F SWAP2 SWAP1 PUSH2 0x1A7D JUMP JUMPDEST POP JUMPDEST POP JUMP JUMPDEST PUSH1 0x0 PUSH1 0x5 PUSH1 0x0 SWAP1 SLOAD SWAP1 PUSH2 0x100 EXP SWAP1 DIV PUSH20 0xFFFFFFFFFFFFFFFFFFFFFFFFFFFFFFFFFFFFFFFF AND PUSH20 0xFFFFFFFFFFFFFFFFFFFFFFFFFFFFFFFFFFFFFFFF AND PUSH4 0x313CE567 PUSH1 0x40 MLOAD DUP2 PUSH4 0xFFFFFFFF AND PUSH1 0xE0 SHL DUP2 MSTORE PUSH1 0x4 ADD PUSH1 0x20 PUSH1 0x40 MLOAD DUP1 DUP4 SUB DUP2 DUP7 DUP1 EXTCODESIZE ISZERO DUP1 ISZERO PUSH2 0xACE JUMPI PUSH1 0x0 DUP1 REVERT JUMPDEST POP GAS STATICCALL ISZERO DUP1 ISZERO PUSH2 0xAE2 JUMPI RETURNDATASIZE PUSH1 0x0 DUP1 RETURNDATACOPY RETURNDATASIZE PUSH1 0x0 REVERT JUMPDEST POP POP POP POP PUSH1 0x40 MLOAD RETURNDATASIZE PUSH1 0x1F NOT PUSH1 0x1F DUP3 ADD AND DUP3 ADD DUP1 PUSH1 0x40 MSTORE POP DUP2 ADD SWAP1 PUSH2 0xB06 SWAP2 SWAP1 PUSH2 0x1AD7 JUMP JUMPDEST SWAP1 POP SWAP1 JUMP JUMPDEST PUSH1 0x0 DUP1 PUSH2 0xB16 PUSH2 0x102A JUMP JUMPDEST SWAP1 POP PUSH2 0xB37 DUP2 DUP6 DUP6 PUSH2 0xB28 DUP6 DUP10 PUSH2 0xFA3 JUMP JUMPDEST PUSH2 0xB32 SWAP2 SWAP1 PUSH2 0x2159 JUMP JUMPDEST PUSH2 0x1032 JUMP JUMPDEST PUSH1 0x1 SWAP2 POP POP SWAP3 SWAP2 POP POP JUMP JUMPDEST PUSH1 0x9 PUSH1 0x2 SWAP1 SLOAD SWAP1 PUSH2 0x100 EXP SWAP1 DIV PUSH20 0xFFFFFFFFFFFFFFFFFFFFFFFFFFFFFFFFFFFFFFFF AND PUSH20 0xFFFFFFFFFFFFFFFFFFFFFFFFFFFFFFFFFFFFFFFF AND CALLER PUSH20 0xFFFFFFFFFFFFFFFFFFFFFFFFFFFFFFFFFFFFFFFF AND EQ PUSH2 0xBD2 JUMPI PUSH1 0x40 MLOAD PUSH32 0x8C379A000000000000000000000000000000000000000000000000000000000 DUP2 MSTORE PUSH1 0x4 ADD PUSH2 0xBC9 SWAP1 PUSH2 0x2027 JUMP JUMPDEST PUSH1 0x40 MLOAD DUP1 SWAP2 SUB SWAP1 REVERT JUMPDEST PUSH1 0x1 PUSH1 0x9 PUSH1 0x1 PUSH2 0x100 EXP DUP2 SLOAD DUP2 PUSH1 0xFF MUL NOT AND SWAP1 DUP4 ISZERO ISZERO MUL OR SWAP1 SSTORE POP JUMP JUMPDEST PUSH1 0x9 PUSH1 0x0 SWAP1 SLOAD SWAP1 PUSH2 0x100 EXP SWAP1 DIV PUSH1 0xFF AND DUP2 JUMP JUMPDEST PUSH1 0x0 DUP1 PUSH1 0x0 DUP4 PUSH20 0xFFFFFFFFFFFFFFFFFFFFFFFFFFFFFFFFFFFFFFFF AND PUSH20 0xFFFFFFFFFFFFFFFFFFFFFFFFFFFFFFFFFFFFFFFF AND DUP2 MSTORE PUSH1 0x20 ADD SWAP1 DUP2 MSTORE PUSH1 0x20 ADD PUSH1 0x0 KECCAK256 SLOAD SWAP1 POP SWAP2 SWAP1 POP JUMP JUMPDEST PUSH1 0x6 SLOAD PUSH2 0xC56 CALLER PUSH2 0xC02 JUMP JUMPDEST EQ PUSH2 0xC96 JUMPI PUSH1 0x40 MLOAD PUSH32 0x8C379A000000000000000000000000000000000000000000000000000000000 DUP2 MSTORE PUSH1 0x4 ADD PUSH2 0xC8D SWAP1 PUSH2 0x1F47 JUMP JUMPDEST PUSH1 0x40 MLOAD DUP1 SWAP2 SUB SWAP1 REVERT JUMPDEST PUSH2 0xCA7 CALLER PUSH2 0xCA2 PUSH2 0x5AC JUMP JUMPDEST PUSH2 0x11FD JUMP JUMPDEST PUSH32 0x0 PUSH20 0xFFFFFFFFFFFFFFFFFFFFFFFFFFFFFFFFFFFFFFFF AND PUSH4 0x42842E0E ADDRESS CALLER ADDRESS PUSH20 0xFFFFFFFFFFFFFFFFFFFFFFFFFFFFFFFFFFFFFFFF AND PUSH1 0x40 MLOAD DUP5 PUSH4 0xFFFFFFFF AND PUSH1 0xE0 SHL DUP2 MSTORE PUSH1 0x4 ADD PUSH2 0xD1A SWAP4 SWAP3 SWAP2 SWAP1 PUSH2 0x1DF9 JUMP JUMPDEST PUSH1 0x0 PUSH1 0x40 MLOAD DUP1 DUP4 SUB DUP2 PUSH1 0x0 DUP8 DUP1 EXTCODESIZE ISZERO DUP1 ISZERO PUSH2 0xD34 JUMPI PUSH1 0x0 DUP1 REVERT JUMPDEST POP GAS CALL ISZERO DUP1 ISZERO PUSH2 0xD48 JUMPI RETURNDATASIZE PUSH1 0x0 DUP1 RETURNDATACOPY RETURNDATASIZE PUSH1 0x0 REVERT JUMPDEST POP POP POP POP JUMP JUMPDEST PUSH1 0x7 SLOAD DUP2 JUMP JUMPDEST PUSH32 0x0 DUP2 JUMP JUMPDEST PUSH1 0x9 PUSH1 0x2 SWAP1 SLOAD SWAP1 PUSH2 0x100 EXP SWAP1 DIV PUSH20 0xFFFFFFFFFFFFFFFFFFFFFFFFFFFFFFFFFFFFFFFF AND PUSH20 0xFFFFFFFFFFFFFFFFFFFFFFFFFFFFFFFFFFFFFFFF AND CALLER PUSH20 0xFFFFFFFFFFFFFFFFFFFFFFFFFFFFFFFFFFFFFFFF AND EQ PUSH2 0xE08 JUMPI PUSH1 0x40 MLOAD PUSH32 0x8C379A000000000000000000000000000000000000000000000000000000000 DUP2 MSTORE PUSH1 0x4 ADD PUSH2 0xDFF SWAP1 PUSH2 0x2027 JUMP JUMPDEST PUSH1 0x40 MLOAD DUP1 SWAP2 SUB SWAP1 REVERT JUMPDEST PUSH1 0x9 PUSH1 0x0 SWAP1 SLOAD SWAP1 PUSH2 0x100 EXP SWAP1 DIV PUSH1 0xFF AND PUSH2 0xE3C JUMPI PUSH1 0x1 PUSH1 0x9 PUSH1 0x0 PUSH2 0x100 EXP DUP2 SLOAD DUP2 PUSH1 0xFF MUL NOT AND SWAP1 DUP4 ISZERO ISZERO MUL OR SWAP1 SSTORE POP PUSH2 0xE58 JUMP JUMPDEST PUSH1 0x0 PUSH1 0x9 PUSH1 0x0 PUSH2 0x100 EXP DUP2 SLOAD DUP2 PUSH1 0xFF MUL NOT AND SWAP1 DUP4 ISZERO ISZERO MUL OR SWAP1 SSTORE POP JUMPDEST JUMP JUMPDEST PUSH1 0x6 SLOAD DUP2 JUMP JUMPDEST PUSH1 0x60 PUSH1 0x4 DUP1 SLOAD PUSH2 0xE6F SWAP1 PUSH2 0x22DF JUMP JUMPDEST DUP1 PUSH1 0x1F ADD PUSH1 0x20 DUP1 SWAP2 DIV MUL PUSH1 0x20 ADD PUSH1 0x40 MLOAD SWAP1 DUP2 ADD PUSH1 0x40 MSTORE DUP1 SWAP3 SWAP2 SWAP1 DUP2 DUP2 MSTORE PUSH1 0x20 ADD DUP3 DUP1 SLOAD PUSH2 0xE9B SWAP1 PUSH2 0x22DF JUMP JUMPDEST DUP1 ISZERO PUSH2 0xEE8 JUMPI DUP1 PUSH1 0x1F LT PUSH2 0xEBD JUMPI PUSH2 0x100 DUP1 DUP4 SLOAD DIV MUL DUP4 MSTORE SWAP2 PUSH1 0x20 ADD SWAP2 PUSH2 0xEE8 JUMP JUMPDEST DUP3 ADD SWAP2 SWAP1 PUSH1 0x0 MSTORE PUSH1 0x20 PUSH1 0x0 KECCAK256 SWAP1 JUMPDEST DUP2 SLOAD DUP2 MSTORE SWAP1 PUSH1 0x1 ADD SWAP1 PUSH1 0x20 ADD DUP1 DUP4 GT PUSH2 0xECB JUMPI DUP3 SWAP1 SUB PUSH1 0x1F AND DUP3 ADD SWAP2 JUMPDEST POP POP POP POP POP SWAP1 POP SWAP1 JUMP JUMPDEST PUSH1 0x0 DUP1 PUSH2 0xEFD PUSH2 0x102A JUMP JUMPDEST SWAP1 POP PUSH1 0x0 PUSH2 0xF0B DUP3 DUP7 PUSH2 0xFA3 JUMP JUMPDEST SWAP1 POP DUP4 DUP2 LT ISZERO PUSH2 0xF50 JUMPI PUSH1 0x40 MLOAD PUSH32 0x8C379A000000000000000000000000000000000000000000000000000000000 DUP2 MSTORE PUSH1 0x4 ADD PUSH2 0xF47 SWAP1 PUSH2 0x20C7 JUMP JUMPDEST PUSH1 0x40 MLOAD DUP1 SWAP2 SUB SWAP1 REVERT JUMPDEST PUSH2 0xF5D DUP3 DUP7 DUP7 DUP5 SUB PUSH2 0x1032 JUMP JUMPDEST PUSH1 0x1 SWAP3 POP POP POP SWAP3 SWAP2 POP POP JUMP JUMPDEST PUSH1 0x0 DUP1 PUSH2 0xF74 PUSH2 0x102A JUMP JUMPDEST SWAP1 POP PUSH2 0xF81 DUP2 DUP6 DUP6 PUSH2 0x1460 JUMP JUMPDEST PUSH1 0x1 SWAP2 POP POP SWAP3 SWAP2 POP POP JUMP JUMPDEST PUSH1 0x0 PUSH1 0x7 SLOAD PUSH1 0x6 SLOAD PUSH2 0xF9E SWAP2 SWAP1 PUSH2 0x21AF JUMP JUMPDEST SWAP1 POP SWAP1 JUMP JUMPDEST PUSH1 0x0 PUSH1 0x1 PUSH1 0x0 DUP5 PUSH20 0xFFFFFFFFFFFFFFFFFFFFFFFFFFFFFFFFFFFFFFFF AND PUSH20 0xFFFFFFFFFFFFFFFFFFFFFFFFFFFFFFFFFFFFFFFF AND DUP2 MSTORE PUSH1 0x20 ADD SWAP1 DUP2 MSTORE PUSH1 0x20 ADD PUSH1 0x0 KECCAK256 PUSH1 0x0 DUP4 PUSH20 0xFFFFFFFFFFFFFFFFFFFFFFFFFFFFFFFFFFFFFFFF AND PUSH20 0xFFFFFFFFFFFFFFFFFFFFFFFFFFFFFFFFFFFFFFFF AND DUP2 MSTORE PUSH1 0x20 ADD SWAP1 DUP2 MSTORE PUSH1 0x20 ADD PUSH1 0x0 KECCAK256 SLOAD SWAP1 POP SWAP3 SWAP2 POP POP JUMP JUMPDEST PUSH1 0x0 CALLER SWAP1 POP SWAP1 JUMP JUMPDEST PUSH1 0x0 PUSH20 0xFFFFFFFFFFFFFFFFFFFFFFFFFFFFFFFFFFFFFFFF AND DUP4 PUSH20 0xFFFFFFFFFFFFFFFFFFFFFFFFFFFFFFFFFFFFFFFF AND EQ ISZERO PUSH2 0x10A2 JUMPI PUSH1 0x40 MLOAD PUSH32 0x8C379A000000000000000000000000000000000000000000000000000000000 DUP2 MSTORE PUSH1 0x4 ADD PUSH2 0x1099 SWAP1 PUSH2 0x20A7 JUMP JUMPDEST PUSH1 0x40 MLOAD DUP1 SWAP2 SUB SWAP1 REVERT JUMPDEST PUSH1 0x0 PUSH20 0xFFFFFFFFFFFFFFFFFFFFFFFFFFFFFFFFFFFFFFFF AND DUP3 PUSH20 0xFFFFFFFFFFFFFFFFFFFFFFFFFFFFFFFFFFFFFFFF AND EQ ISZERO PUSH2 0x1112 JUMPI PUSH1 0x40 MLOAD PUSH32 0x8C379A000000000000000000000000000000000000000000000000000000000 DUP2 MSTORE PUSH1 0x4 ADD PUSH2 0x1109 SWAP1 PUSH2 0x1F27 JUMP JUMPDEST PUSH1 0x40 MLOAD DUP1 SWAP2 SUB SWAP1 REVERT JUMPDEST DUP1 PUSH1 0x1 PUSH1 0x0 DUP6 PUSH20 0xFFFFFFFFFFFFFFFFFFFFFFFFFFFFFFFFFFFFFFFF AND PUSH20 0xFFFFFFFFFFFFFFFFFFFFFFFFFFFFFFFFFFFFFFFF AND DUP2 MSTORE PUSH1 0x20 ADD SWAP1 DUP2 MSTORE PUSH1 0x20 ADD PUSH1 0x0 KECCAK256 PUSH1 0x0 DUP5 PUSH20 0xFFFFFFFFFFFFFFFFFFFFFFFFFFFFFFFFFFFFFFFF AND PUSH20 0xFFFFFFFFFFFFFFFFFFFFFFFFFFFFFFFFFFFFFFFF AND DUP2 MSTORE PUSH1 0x20 ADD SWAP1 DUP2 MSTORE PUSH1 0x20 ADD PUSH1 0x0 KECCAK256 DUP2 SWAP1 SSTORE POP DUP2 PUSH20 0xFFFFFFFFFFFFFFFFFFFFFFFFFFFFFFFFFFFFFFFF AND DUP4 PUSH20 0xFFFFFFFFFFFFFFFFFFFFFFFFFFFFFFFFFFFFFFFF AND PUSH32 0x8C5BE1E5EBEC7D5BD14F71427D1E84F3DD0314C0F7B2291E5B200AC8C7C3B925 DUP4 PUSH1 0x40 MLOAD PUSH2 0x11F0 SWAP2 SWAP1 PUSH2 0x2107 JUMP JUMPDEST PUSH1 0x40 MLOAD DUP1 SWAP2 SUB SWAP1 LOG3 POP POP POP JUMP JUMPDEST PUSH1 0x0 PUSH20 0xFFFFFFFFFFFFFFFFFFFFFFFFFFFFFFFFFFFFFFFF AND DUP3 PUSH20 0xFFFFFFFFFFFFFFFFFFFFFFFFFFFFFFFFFFFFFFFF AND EQ ISZERO PUSH2 0x126D JUMPI PUSH1 0x40 MLOAD PUSH32 0x8C379A000000000000000000000000000000000000000000000000000000000 DUP2 MSTORE PUSH1 0x4 ADD PUSH2 0x1264 SWAP1 PUSH2 0x2067 JUMP JUMPDEST PUSH1 0x40 MLOAD DUP1 SWAP2 SUB SWAP1 REVERT JUMPDEST PUSH2 0x1279 DUP3 PUSH1 0x0 DUP4 PUSH2 0x1841 JUMP JUMPDEST PUSH1 0x0 DUP1 PUSH1 0x0 DUP5 PUSH20 0xFFFFFFFFFFFFFFFFFFFFFFFFFFFFFFFFFFFFFFFF AND PUSH20 0xFFFFFFFFFFFFFFFFFFFFFFFFFFFFFFFFFFFFFFFF AND DUP2 MSTORE PUSH1 0x20 ADD SWAP1 DUP2 MSTORE PUSH1 0x20 ADD PUSH1 0x0 KECCAK256 SLOAD SWAP1 POP DUP2 DUP2 LT ISZERO PUSH2 0x12FF JUMPI PUSH1 0x40 MLOAD PUSH32 0x8C379A000000000000000000000000000000000000000000000000000000000 DUP2 MSTORE PUSH1 0x4 ADD PUSH2 0x12F6 SWAP1 PUSH2 0x1F07 JUMP JUMPDEST PUSH1 0x40 MLOAD DUP1 SWAP2 SUB SWAP1 REVERT JUMPDEST DUP2 DUP2 SUB PUSH1 0x0 DUP1 DUP6 PUSH20 0xFFFFFFFFFFFFFFFFFFFFFFFFFFFFFFFFFFFFFFFF AND PUSH20 0xFFFFFFFFFFFFFFFFFFFFFFFFFFFFFFFFFFFFFFFF AND DUP2 MSTORE PUSH1 0x20 ADD SWAP1 DUP2 MSTORE PUSH1 0x20 ADD PUSH1 0x0 KECCAK256 DUP2 SWAP1 SSTORE POP DUP2 PUSH1 0x2 PUSH1 0x0 DUP3 DUP3 SLOAD PUSH2 0x1356 SWAP2 SWAP1 PUSH2 0x21AF JUMP JUMPDEST SWAP3 POP POP DUP2 SWAP1 SSTORE POP PUSH1 0x0 PUSH20 0xFFFFFFFFFFFFFFFFFFFFFFFFFFFFFFFFFFFFFFFF AND DUP4 PUSH20 0xFFFFFFFFFFFFFFFFFFFFFFFFFFFFFFFFFFFFFFFF AND PUSH32 0xDDF252AD1BE2C89B69C2B068FC378DAA952BA7F163C4A11628F55A4DF523B3EF DUP5 PUSH1 0x40 MLOAD PUSH2 0x13BB SWAP2 SWAP1 PUSH2 0x2107 JUMP JUMPDEST PUSH1 0x40 MLOAD DUP1 SWAP2 SUB SWAP1 LOG3 PUSH2 0x13CF DUP4 PUSH1 0x0 DUP5 PUSH2 0x1846 JUMP JUMPDEST POP POP POP JUMP JUMPDEST PUSH1 0x0 PUSH2 0x13E0 DUP5 DUP5 PUSH2 0xFA3 JUMP JUMPDEST SWAP1 POP PUSH32 0xFFFFFFFFFFFFFFFFFFFFFFFFFFFFFFFFFFFFFFFFFFFFFFFFFFFFFFFFFFFFFFFF DUP2 EQ PUSH2 0x145A JUMPI DUP2 DUP2 LT ISZERO PUSH2 0x144C JUMPI PUSH1 0x40 MLOAD PUSH32 0x8C379A000000000000000000000000000000000000000000000000000000000 DUP2 MSTORE PUSH1 0x4 ADD PUSH2 0x1443 SWAP1 PUSH2 0x1F67 JUMP JUMPDEST PUSH1 0x40 MLOAD DUP1 SWAP2 SUB SWAP1 REVERT JUMPDEST PUSH2 0x1459 DUP5 DUP5 DUP5 DUP5 SUB PUSH2 0x1032 JUMP JUMPDEST JUMPDEST POP POP POP POP JUMP JUMPDEST PUSH1 0x0 PUSH20 0xFFFFFFFFFFFFFFFFFFFFFFFFFFFFFFFFFFFFFFFF AND DUP4 PUSH20 0xFFFFFFFFFFFFFFFFFFFFFFFFFFFFFFFFFFFFFFFF AND EQ ISZERO PUSH2 0x14D0 JUMPI PUSH1 0x40 MLOAD PUSH32 0x8C379A000000000000000000000000000000000000000000000000000000000 DUP2 MSTORE PUSH1 0x4 ADD PUSH2 0x14C7 SWAP1 PUSH2 0x2087 JUMP JUMPDEST PUSH1 0x40 MLOAD DUP1 SWAP2 SUB SWAP1 REVERT JUMPDEST PUSH1 0x0 PUSH20 0xFFFFFFFFFFFFFFFFFFFFFFFFFFFFFFFFFFFFFFFF AND DUP3 PUSH20 0xFFFFFFFFFFFFFFFFFFFFFFFFFFFFFFFFFFFFFFFF AND EQ ISZERO PUSH2 0x1540 JUMPI PUSH1 0x40 MLOAD PUSH32 0x8C379A000000000000000000000000000000000000000000000000000000000 DUP2 MSTORE PUSH1 0x4 ADD PUSH2 0x1537 SWAP1 PUSH2 0x1EE7 JUMP JUMPDEST PUSH1 0x40 MLOAD DUP1 SWAP2 SUB SWAP1 REVERT JUMPDEST PUSH2 0x154B DUP4 DUP4 DUP4 PUSH2 0x1841 JUMP JUMPDEST PUSH1 0x0 DUP1 PUSH1 0x0 DUP6 PUSH20 0xFFFFFFFFFFFFFFFFFFFFFFFFFFFFFFFFFFFFFFFF AND PUSH20 0xFFFFFFFFFFFFFFFFFFFFFFFFFFFFFFFFFFFFFFFF AND DUP2 MSTORE PUSH1 0x20 ADD SWAP1 DUP2 MSTORE PUSH1 0x20 ADD PUSH1 0x0 KECCAK256 SLOAD SWAP1 POP DUP2 DUP2 LT ISZERO PUSH2 0x15D1 JUMPI PUSH1 0x40 MLOAD PUSH32 0x8C379A000000000000000000000000000000000000000000000000000000000 DUP2 MSTORE PUSH1 0x4 ADD PUSH2 0x15C8 SWAP1 PUSH2 0x1F87 JUMP JUMPDEST PUSH1 0x40 MLOAD DUP1 SWAP2 SUB SWAP1 REVERT JUMPDEST DUP2 DUP2 SUB PUSH1 0x0 DUP1 DUP7 PUSH20 0xFFFFFFFFFFFFFFFFFFFFFFFFFFFFFFFFFFFFFFFF AND PUSH20 0xFFFFFFFFFFFFFFFFFFFFFFFFFFFFFFFFFFFFFFFF AND DUP2 MSTORE PUSH1 0x20 ADD SWAP1 DUP2 MSTORE PUSH1 0x20 ADD PUSH1 0x0 KECCAK256 DUP2 SWAP1 SSTORE POP DUP2 PUSH1 0x0 DUP1 DUP6 PUSH20 0xFFFFFFFFFFFFFFFFFFFFFFFFFFFFFFFFFFFFFFFF AND PUSH20 0xFFFFFFFFFFFFFFFFFFFFFFFFFFFFFFFFFFFFFFFF AND DUP2 MSTORE PUSH1 0x20 ADD SWAP1 DUP2 MSTORE PUSH1 0x20 ADD PUSH1 0x0 KECCAK256 PUSH1 0x0 DUP3 DUP3 SLOAD PUSH2 0x1664 SWAP2 SWAP1 PUSH2 0x2159 JUMP JUMPDEST SWAP3 POP POP DUP2 SWAP1 SSTORE POP DUP3 PUSH20 0xFFFFFFFFFFFFFFFFFFFFFFFFFFFFFFFFFFFFFFFF AND DUP5 PUSH20 0xFFFFFFFFFFFFFFFFFFFFFFFFFFFFFFFFFFFFFFFF AND PUSH32 0xDDF252AD1BE2C89B69C2B068FC378DAA952BA7F163C4A11628F55A4DF523B3EF DUP5 PUSH1 0x40 MLOAD PUSH2 0x16C8 SWAP2 SWAP1 PUSH2 0x2107 JUMP JUMPDEST PUSH1 0x40 MLOAD DUP1 SWAP2 SUB SWAP1 LOG3 PUSH2 0x16DB DUP5 DUP5 DUP5 PUSH2 0x1846 JUMP JUMPDEST POP POP POP POP JUMP JUMPDEST PUSH1 0x0 PUSH20 0xFFFFFFFFFFFFFFFFFFFFFFFFFFFFFFFFFFFFFFFF AND DUP3 PUSH20 0xFFFFFFFFFFFFFFFFFFFFFFFFFFFFFFFFFFFFFFFF AND EQ ISZERO PUSH2 0x1751 JUMPI PUSH1 0x40 MLOAD PUSH32 0x8C379A000000000000000000000000000000000000000000000000000000000 DUP2 MSTORE PUSH1 0x4 ADD PUSH2 0x1748 SWAP1 PUSH2 0x20E7 JUMP JUMPDEST PUSH1 0x40 MLOAD DUP1 SWAP2 SUB SWAP1 REVERT JUMPDEST PUSH2 0x175D PUSH1 0x0 DUP4 DUP4 PUSH2 0x1841 JUMP JUMPDEST DUP1 PUSH1 0x2 PUSH1 0x0 DUP3 DUP3 SLOAD PUSH2 0x176F SWAP2 SWAP1 PUSH2 0x2159 JUMP JUMPDEST SWAP3 POP POP DUP2 SWAP1 SSTORE POP DUP1 PUSH1 0x0 DUP1 DUP5 PUSH20 0xFFFFFFFFFFFFFFFFFFFFFFFFFFFFFFFFFFFFFFFF AND PUSH20 0xFFFFFFFFFFFFFFFFFFFFFFFFFFFFFFFFFFFFFFFF AND DUP2 MSTORE PUSH1 0x20 ADD SWAP1 DUP2 MSTORE PUSH1 0x20 ADD PUSH1 0x0 KECCAK256 PUSH1 0x0 DUP3 DUP3 SLOAD PUSH2 0x17C4 SWAP2 SWAP1 PUSH2 0x2159 JUMP JUMPDEST SWAP3 POP POP DUP2 SWAP1 SSTORE POP DUP2 PUSH20 0xFFFFFFFFFFFFFFFFFFFFFFFFFFFFFFFFFFFFFFFF AND PUSH1 0x0 PUSH20 0xFFFFFFFFFFFFFFFFFFFFFFFFFFFFFFFFFFFFFFFF AND PUSH32 0xDDF252AD1BE2C89B69C2B068FC378DAA952BA7F163C4A11628F55A4DF523B3EF DUP4 PUSH1 0x40 MLOAD PUSH2 0x1829 SWAP2 SWAP1 PUSH2 0x2107 JUMP JUMPDEST PUSH1 0x40 MLOAD DUP1 SWAP2 SUB SWAP1 LOG3 PUSH2 0x183D PUSH1 0x0 DUP4 DUP4 PUSH2 0x1846 JUMP JUMPDEST POP POP JUMP JUMPDEST POP POP POP JUMP JUMPDEST POP POP POP JUMP JUMPDEST PUSH1 0x0 DUP2 CALLDATALOAD SWAP1 POP PUSH2 0x185A DUP2 PUSH2 0x2782 JUMP JUMPDEST SWAP3 SWAP2 POP POP JUMP JUMPDEST PUSH1 0x0 DUP2 MLOAD SWAP1 POP PUSH2 0x186F DUP2 PUSH2 0x2799 JUMP JUMPDEST SWAP3 SWAP2 POP POP JUMP JUMPDEST PUSH1 0x0 DUP1 DUP4 PUSH1 0x1F DUP5 ADD SLT PUSH2 0x188B JUMPI PUSH2 0x188A PUSH2 0x2374 JUMP JUMPDEST JUMPDEST DUP3 CALLDATALOAD SWAP1 POP PUSH8 0xFFFFFFFFFFFFFFFF DUP2 GT ISZERO PUSH2 0x18A8 JUMPI PUSH2 0x18A7 PUSH2 0x236F JUMP JUMPDEST JUMPDEST PUSH1 0x20 DUP4 ADD SWAP2 POP DUP4 PUSH1 0x1 DUP3 MUL DUP4 ADD GT ISZERO PUSH2 0x18C4 JUMPI PUSH2 0x18C3 PUSH2 0x2379 JUMP JUMPDEST JUMPDEST SWAP3 POP SWAP3 SWAP1 POP JUMP JUMPDEST PUSH1 0x0 DUP2 CALLDATALOAD SWAP1 POP PUSH2 0x18DA DUP2 PUSH2 0x27B0 JUMP JUMPDEST SWAP3 SWAP2 POP POP JUMP JUMPDEST PUSH1 0x0 DUP2 MLOAD SWAP1 POP PUSH2 0x18EF DUP2 PUSH2 0x27C7 JUMP JUMPDEST SWAP3 SWAP2 POP POP JUMP JUMPDEST PUSH1 0x0 PUSH1 0x20 DUP3 DUP5 SUB SLT ISZERO PUSH2 0x190B JUMPI PUSH2 0x190A PUSH2 0x2383 JUMP JUMPDEST JUMPDEST PUSH1 0x0 PUSH2 0x1919 DUP5 DUP3 DUP6 ADD PUSH2 0x184B JUMP JUMPDEST SWAP2 POP POP SWAP3 SWAP2 POP POP JUMP JUMPDEST PUSH1 0x0 DUP1 PUSH1 0x40 DUP4 DUP6 SUB SLT ISZERO PUSH2 0x1939 JUMPI PUSH2 0x1938 PUSH2 0x2383 JUMP JUMPDEST JUMPDEST PUSH1 0x0 PUSH2 0x1947 DUP6 DUP3 DUP7 ADD PUSH2 0x184B JUMP JUMPDEST SWAP3 POP POP PUSH1 0x20 PUSH2 0x1958 DUP6 DUP3 DUP7 ADD PUSH2 0x184B JUMP JUMPDEST SWAP2 POP POP SWAP3 POP SWAP3 SWAP1 POP JUMP JUMPDEST PUSH1 0x0 DUP1 PUSH1 0x0 PUSH1 0x60 DUP5 DUP7 SUB SLT ISZERO PUSH2 0x197B JUMPI PUSH2 0x197A PUSH2 0x2383 JUMP JUMPDEST JUMPDEST PUSH1 0x0 PUSH2 0x1989 DUP7 DUP3 DUP8 ADD PUSH2 0x184B JUMP JUMPDEST SWAP4 POP POP PUSH1 0x20 PUSH2 0x199A DUP7 DUP3 DUP8 ADD PUSH2 0x184B JUMP JUMPDEST SWAP3 POP POP PUSH1 0x40 PUSH2 0x19AB DUP7 DUP3 DUP8 ADD PUSH2 0x18CB JUMP JUMPDEST SWAP2 POP POP SWAP3 POP SWAP3 POP SWAP3 JUMP JUMPDEST PUSH1 0x0 DUP1 PUSH1 0x0 DUP1 PUSH1 0x0 PUSH1 0x80 DUP7 DUP9 SUB SLT ISZERO PUSH2 0x19D1 JUMPI PUSH2 0x19D0 PUSH2 0x2383 JUMP JUMPDEST JUMPDEST PUSH1 0x0 PUSH2 0x19DF DUP9 DUP3 DUP10 ADD PUSH2 0x184B JUMP JUMPDEST SWAP6 POP POP PUSH1 0x20 PUSH2 0x19F0 DUP9 DUP3 DUP10 ADD PUSH2 0x184B JUMP JUMPDEST SWAP5 POP POP PUSH1 0x40 PUSH2 0x1A01 DUP9 DUP3 DUP10 ADD PUSH2 0x18CB JUMP JUMPDEST SWAP4 POP POP PUSH1 0x60 DUP7 ADD CALLDATALOAD PUSH8 0xFFFFFFFFFFFFFFFF DUP2 GT ISZERO PUSH2 0x1A22 JUMPI PUSH2 0x1A21 PUSH2 0x237E JUMP JUMPDEST JUMPDEST PUSH2 0x1A2E DUP9 DUP3 DUP10 ADD PUSH2 0x1875 JUMP JUMPDEST SWAP3 POP SWAP3 POP POP SWAP3 SWAP6 POP SWAP3 SWAP6 SWAP1 SWAP4 POP JUMP JUMPDEST PUSH1 0x0 DUP1 PUSH1 0x40 DUP4 DUP6 SUB SLT ISZERO PUSH2 0x1A54 JUMPI PUSH2 0x1A53 PUSH2 0x2383 JUMP JUMPDEST JUMPDEST PUSH1 0x0 PUSH2 0x1A62 DUP6 DUP3 DUP7 ADD PUSH2 0x184B JUMP JUMPDEST SWAP3 POP POP PUSH1 0x20 PUSH2 0x1A73 DUP6 DUP3 DUP7 ADD PUSH2 0x18CB JUMP JUMPDEST SWAP2 POP POP SWAP3 POP SWAP3 SWAP1 POP JUMP JUMPDEST PUSH1 0x0 PUSH1 0x20 DUP3 DUP5 SUB SLT ISZERO PUSH2 0x1A93 JUMPI PUSH2 0x1A92 PUSH2 0x2383 JUMP JUMPDEST JUMPDEST PUSH1 0x0 PUSH2 0x1AA1 DUP5 DUP3 DUP6 ADD PUSH2 0x1860 JUMP JUMPDEST SWAP2 POP POP SWAP3 SWAP2 POP POP JUMP JUMPDEST PUSH1 0x0 PUSH1 0x20 DUP3 DUP5 SUB SLT ISZERO PUSH2 0x1AC0 JUMPI PUSH2 0x1ABF PUSH2 0x2383 JUMP JUMPDEST JUMPDEST PUSH1 0x0 PUSH2 0x1ACE DUP5 DUP3 DUP6 ADD PUSH2 0x18CB JUMP JUMPDEST SWAP2 POP POP SWAP3 SWAP2 POP POP JUMP JUMPDEST PUSH1 0x0 PUSH1 0x20 DUP3 DUP5 SUB SLT ISZERO PUSH2 0x1AED JUMPI PUSH2 0x1AEC PUSH2 0x2383 JUMP JUMPDEST JUMPDEST PUSH1 0x0 PUSH2 0x1AFB DUP5 DUP3 DUP6 ADD PUSH2 0x18E0 JUMP JUMPDEST SWAP2 POP POP SWAP3 SWAP2 POP POP JUMP JUMPDEST PUSH2 0x1B0D DUP2 PUSH2 0x21E3 JUMP JUMPDEST DUP3 MSTORE POP POP JUMP JUMPDEST PUSH2 0x1B1C DUP2 PUSH2 0x21F5 JUMP JUMPDEST DUP3 MSTORE POP POP JUMP JUMPDEST PUSH2 0x1B2B DUP2 PUSH2 0x2201 JUMP JUMPDEST DUP3 MSTORE POP POP JUMP JUMPDEST PUSH2 0x1B3A DUP2 PUSH2 0x2264 JUMP JUMPDEST DUP3 MSTORE POP POP JUMP JUMPDEST PUSH2 0x1B49 DUP2 PUSH2 0x2276 JUMP JUMPDEST DUP3 MSTORE POP POP JUMP JUMPDEST PUSH1 0x0 PUSH2 0x1B5A DUP3 PUSH2 0x213D JUMP JUMPDEST PUSH2 0x1B64 DUP2 DUP6 PUSH2 0x2148 JUMP JUMPDEST SWAP4 POP PUSH2 0x1B74 DUP2 DUP6 PUSH1 0x20 DUP7 ADD PUSH2 0x22AC JUMP JUMPDEST PUSH2 0x1B7D DUP2 PUSH2 0x2388 JUMP JUMPDEST DUP5 ADD SWAP2 POP POP SWAP3 SWAP2 POP POP JUMP JUMPDEST PUSH1 0x0 PUSH2 0x1B95 PUSH1 0x23 DUP4 PUSH2 0x2148 JUMP JUMPDEST SWAP2 POP PUSH2 0x1BA0 DUP3 PUSH2 0x2399 JUMP JUMPDEST PUSH1 0x40 DUP3 ADD SWAP1 POP SWAP2 SWAP1 POP JUMP JUMPDEST PUSH1 0x0 PUSH2 0x1BB8 PUSH1 0x22 DUP4 PUSH2 0x2148 JUMP JUMPDEST SWAP2 POP PUSH2 0x1BC3 DUP3 PUSH2 0x23E8 JUMP JUMPDEST PUSH1 0x40 DUP3 ADD SWAP1 POP SWAP2 SWAP1 POP JUMP JUMPDEST PUSH1 0x0 PUSH2 0x1BDB PUSH1 0x22 DUP4 PUSH2 0x2148 JUMP JUMPDEST SWAP2 POP PUSH2 0x1BE6 DUP3 PUSH2 0x2437 JUMP JUMPDEST PUSH1 0x40 DUP3 ADD SWAP1 POP SWAP2 SWAP1 POP JUMP JUMPDEST PUSH1 0x0 PUSH2 0x1BFE PUSH1 0x1C DUP4 PUSH2 0x2148 JUMP JUMPDEST SWAP2 POP PUSH2 0x1C09 DUP3 PUSH2 0x2486 JUMP JUMPDEST PUSH1 0x20 DUP3 ADD SWAP1 POP SWAP2 SWAP1 POP JUMP JUMPDEST PUSH1 0x0 PUSH2 0x1C21 PUSH1 0x1D DUP4 PUSH2 0x2148 JUMP JUMPDEST SWAP2 POP PUSH2 0x1C2C DUP3 PUSH2 0x24AF JUMP JUMPDEST PUSH1 0x20 DUP3 ADD SWAP1 POP SWAP2 SWAP1 POP JUMP JUMPDEST PUSH1 0x0 PUSH2 0x1C44 PUSH1 0x26 DUP4 PUSH2 0x2148 JUMP JUMPDEST SWAP2 POP PUSH2 0x1C4F DUP3 PUSH2 0x24D8 JUMP JUMPDEST PUSH1 0x40 DUP3 ADD SWAP1 POP SWAP2 SWAP1 POP JUMP JUMPDEST PUSH1 0x0 PUSH2 0x1C67 PUSH1 0x12 DUP4 PUSH2 0x2148 JUMP JUMPDEST SWAP2 POP PUSH2 0x1C72 DUP3 PUSH2 0x2527 JUMP JUMPDEST PUSH1 0x20 DUP3 ADD SWAP1 POP SWAP2 SWAP1 POP JUMP JUMPDEST PUSH1 0x0 PUSH2 0x1C8A PUSH1 0x17 DUP4 PUSH2 0x2148 JUMP JUMPDEST SWAP2 POP PUSH2 0x1C95 DUP3 PUSH2 0x2550 JUMP JUMPDEST PUSH1 0x20 DUP3 ADD SWAP1 POP SWAP2 SWAP1 POP JUMP JUMPDEST PUSH1 0x0 PUSH2 0x1CAD PUSH1 0x12 DUP4 PUSH2 0x2148 JUMP JUMPDEST SWAP2 POP PUSH2 0x1CB8 DUP3 PUSH2 0x2579 JUMP JUMPDEST PUSH1 0x20 DUP3 ADD SWAP1 POP SWAP2 SWAP1 POP JUMP JUMPDEST PUSH1 0x0 PUSH2 0x1CD0 PUSH1 0x15 DUP4 PUSH2 0x2148 JUMP JUMPDEST SWAP2 POP PUSH2 0x1CDB DUP3 PUSH2 0x25A2 JUMP JUMPDEST PUSH1 0x20 DUP3 ADD SWAP1 POP SWAP2 SWAP1 POP JUMP JUMPDEST PUSH1 0x0 PUSH2 0x1CF3 PUSH1 0x1C DUP4 PUSH2 0x2148 JUMP JUMPDEST SWAP2 POP PUSH2 0x1CFE DUP3 PUSH2 0x25CB JUMP JUMPDEST PUSH1 0x20 DUP3 ADD SWAP1 POP SWAP2 SWAP1 POP JUMP JUMPDEST PUSH1 0x0 PUSH2 0x1D16 PUSH1 0x19 DUP4 PUSH2 0x2148 JUMP JUMPDEST SWAP2 POP PUSH2 0x1D21 DUP3 PUSH2 0x25F4 JUMP JUMPDEST PUSH1 0x20 DUP3 ADD SWAP1 POP SWAP2 SWAP1 POP JUMP JUMPDEST PUSH1 0x0 PUSH2 0x1D39 PUSH1 0x21 DUP4 PUSH2 0x2148 JUMP JUMPDEST SWAP2 POP PUSH2 0x1D44 DUP3 PUSH2 0x261D JUMP JUMPDEST PUSH1 0x40 DUP3 ADD SWAP1 POP SWAP2 SWAP1 POP JUMP JUMPDEST PUSH1 0x0 PUSH2 0x1D5C PUSH1 0x25 DUP4 PUSH2 0x2148 JUMP JUMPDEST SWAP2 POP PUSH2 0x1D67 DUP3 PUSH2 0x266C JUMP JUMPDEST PUSH1 0x40 DUP3 ADD SWAP1 POP SWAP2 SWAP1 POP JUMP JUMPDEST PUSH1 0x0 PUSH2 0x1D7F PUSH1 0x24 DUP4 PUSH2 0x2148 JUMP JUMPDEST SWAP2 POP PUSH2 0x1D8A DUP3 PUSH2 0x26BB JUMP JUMPDEST PUSH1 0x40 DUP3 ADD SWAP1 POP SWAP2 SWAP1 POP JUMP JUMPDEST PUSH1 0x0 PUSH2 0x1DA2 PUSH1 0x25 DUP4 PUSH2 0x2148 JUMP JUMPDEST SWAP2 POP PUSH2 0x1DAD DUP3 PUSH2 0x270A JUMP JUMPDEST PUSH1 0x40 DUP3 ADD SWAP1 POP SWAP2 SWAP1 POP JUMP JUMPDEST PUSH1 0x0 PUSH2 0x1DC5 PUSH1 0x1F DUP4 PUSH2 0x2148 JUMP JUMPDEST SWAP2 POP PUSH2 0x1DD0 DUP3 PUSH2 0x2759 JUMP JUMPDEST PUSH1 0x20 DUP3 ADD SWAP1 POP SWAP2 SWAP1 POP JUMP JUMPDEST PUSH2 0x1DE4 DUP2 PUSH2 0x224D JUMP JUMPDEST DUP3 MSTORE POP POP JUMP JUMPDEST PUSH2 0x1DF3 DUP2 PUSH2 0x2257 JUMP JUMPDEST DUP3 MSTORE POP POP JUMP JUMPDEST PUSH1 0x0 PUSH1 0x60 DUP3 ADD SWAP1 POP PUSH2 0x1E0E PUSH1 0x0 DUP4 ADD DUP7 PUSH2 0x1B04 JUMP JUMPDEST PUSH2 0x1E1B PUSH1 0x20 DUP4 ADD DUP6 PUSH2 0x1B04 JUMP JUMPDEST PUSH2 0x1E28 PUSH1 0x40 DUP4 ADD DUP5 PUSH2 0x1DDB JUMP JUMPDEST SWAP5 SWAP4 POP POP POP POP JUMP JUMPDEST PUSH1 0x0 PUSH1 0x40 DUP3 ADD SWAP1 POP PUSH2 0x1E45 PUSH1 0x0 DUP4 ADD DUP6 PUSH2 0x1B04 JUMP JUMPDEST PUSH2 0x1E52 PUSH1 0x20 DUP4 ADD DUP5 PUSH2 0x1DDB JUMP JUMPDEST SWAP4 SWAP3 POP POP POP JUMP JUMPDEST PUSH1 0x0 PUSH1 0x20 DUP3 ADD SWAP1 POP PUSH2 0x1E6E PUSH1 0x0 DUP4 ADD DUP5 PUSH2 0x1B13 JUMP JUMPDEST SWAP3 SWAP2 POP POP JUMP JUMPDEST PUSH1 0x0 PUSH1 0x20 DUP3 ADD SWAP1 POP PUSH2 0x1E89 PUSH1 0x0 DUP4 ADD DUP5 PUSH2 0x1B22 JUMP JUMPDEST SWAP3 SWAP2 POP POP JUMP JUMPDEST PUSH1 0x0 PUSH1 0x20 DUP3 ADD SWAP1 POP PUSH2 0x1EA4 PUSH1 0x0 DUP4 ADD DUP5 PUSH2 0x1B31 JUMP JUMPDEST SWAP3 SWAP2 POP POP JUMP JUMPDEST PUSH1 0x0 PUSH1 0x20 DUP3 ADD SWAP1 POP PUSH2 0x1EBF PUSH1 0x0 DUP4 ADD DUP5 PUSH2 0x1B40 JUMP JUMPDEST SWAP3 SWAP2 POP POP JUMP JUMPDEST PUSH1 0x0 PUSH1 0x20 DUP3 ADD SWAP1 POP DUP2 DUP2 SUB PUSH1 0x0 DUP4 ADD MSTORE PUSH2 0x1EDF DUP2 DUP5 PUSH2 0x1B4F JUMP JUMPDEST SWAP1 POP SWAP3 SWAP2 POP POP JUMP JUMPDEST PUSH1 0x0 PUSH1 0x20 DUP3 ADD SWAP1 POP DUP2 DUP2 SUB PUSH1 0x0 DUP4 ADD MSTORE PUSH2 0x1F00 DUP2 PUSH2 0x1B88 JUMP JUMPDEST SWAP1 POP SWAP2 SWAP1 POP JUMP JUMPDEST PUSH1 0x0 PUSH1 0x20 DUP3 ADD SWAP1 POP DUP2 DUP2 SUB PUSH1 0x0 DUP4 ADD MSTORE PUSH2 0x1F20 DUP2 PUSH2 0x1BAB JUMP JUMPDEST SWAP1 POP SWAP2 SWAP1 POP JUMP JUMPDEST PUSH1 0x0 PUSH1 0x20 DUP3 ADD SWAP1 POP DUP2 DUP2 SUB PUSH1 0x0 DUP4 ADD MSTORE PUSH2 0x1F40 DUP2 PUSH2 0x1BCE JUMP JUMPDEST SWAP1 POP SWAP2 SWAP1 POP JUMP JUMPDEST PUSH1 0x0 PUSH1 0x20 DUP3 ADD SWAP1 POP DUP2 DUP2 SUB PUSH1 0x0 DUP4 ADD MSTORE PUSH2 0x1F60 DUP2 PUSH2 0x1BF1 JUMP JUMPDEST SWAP1 POP SWAP2 SWAP1 POP JUMP JUMPDEST PUSH1 0x0 PUSH1 0x20 DUP3 ADD SWAP1 POP DUP2 DUP2 SUB PUSH1 0x0 DUP4 ADD MSTORE PUSH2 0x1F80 DUP2 PUSH2 0x1C14 JUMP JUMPDEST SWAP1 POP SWAP2 SWAP1 POP JUMP JUMPDEST PUSH1 0x0 PUSH1 0x20 DUP3 ADD SWAP1 POP DUP2 DUP2 SUB PUSH1 0x0 DUP4 ADD MSTORE PUSH2 0x1FA0 DUP2 PUSH2 0x1C37 JUMP JUMPDEST SWAP1 POP SWAP2 SWAP1 POP JUMP JUMPDEST PUSH1 0x0 PUSH1 0x20 DUP3 ADD SWAP1 POP DUP2 DUP2 SUB PUSH1 0x0 DUP4 ADD MSTORE PUSH2 0x1FC0 DUP2 PUSH2 0x1C5A JUMP JUMPDEST SWAP1 POP SWAP2 SWAP1 POP JUMP JUMPDEST PUSH1 0x0 PUSH1 0x20 DUP3 ADD SWAP1 POP DUP2 DUP2 SUB PUSH1 0x0 DUP4 ADD MSTORE PUSH2 0x1FE0 DUP2 PUSH2 0x1C7D JUMP JUMPDEST SWAP1 POP SWAP2 SWAP1 POP JUMP JUMPDEST PUSH1 0x0 PUSH1 0x20 DUP3 ADD SWAP1 POP DUP2 DUP2 SUB PUSH1 0x0 DUP4 ADD MSTORE PUSH2 0x2000 DUP2 PUSH2 0x1CA0 JUMP JUMPDEST SWAP1 POP SWAP2 SWAP1 POP JUMP JUMPDEST PUSH1 0x0 PUSH1 0x20 DUP3 ADD SWAP1 POP DUP2 DUP2 SUB PUSH1 0x0 DUP4 ADD MSTORE PUSH2 0x2020 DUP2 PUSH2 0x1CC3 JUMP JUMPDEST SWAP1 POP SWAP2 SWAP1 POP JUMP JUMPDEST PUSH1 0x0 PUSH1 0x20 DUP3 ADD SWAP1 POP DUP2 DUP2 SUB PUSH1 0x0 DUP4 ADD MSTORE PUSH2 0x2040 DUP2 PUSH2 0x1CE6 JUMP JUMPDEST SWAP1 POP SWAP2 SWAP1 POP JUMP JUMPDEST PUSH1 0x0 PUSH1 0x20 DUP3 ADD SWAP1 POP DUP2 DUP2 SUB PUSH1 0x0 DUP4 ADD MSTORE PUSH2 0x2060 DUP2 PUSH2 0x1D09 JUMP JUMPDEST SWAP1 POP SWAP2 SWAP1 POP JUMP JUMPDEST PUSH1 0x0 PUSH1 0x20 DUP3 ADD SWAP1 POP DUP2 DUP2 SUB PUSH1 0x0 DUP4 ADD MSTORE PUSH2 0x2080 DUP2 PUSH2 0x1D2C JUMP JUMPDEST SWAP1 POP SWAP2 SWAP1 POP JUMP JUMPDEST PUSH1 0x0 PUSH1 0x20 DUP3 ADD SWAP1 POP DUP2 DUP2 SUB PUSH1 0x0 DUP4 ADD MSTORE PUSH2 0x20A0 DUP2 PUSH2 0x1D4F JUMP JUMPDEST SWAP1 POP SWAP2 SWAP1 POP JUMP JUMPDEST PUSH1 0x0 PUSH1 0x20 DUP3 ADD SWAP1 POP DUP2 DUP2 SUB PUSH1 0x0 DUP4 ADD MSTORE PUSH2 0x20C0 DUP2 PUSH2 0x1D72 JUMP JUMPDEST SWAP1 POP SWAP2 SWAP1 POP JUMP JUMPDEST PUSH1 0x0 PUSH1 0x20 DUP3 ADD SWAP1 POP DUP2 DUP2 SUB PUSH1 0x0 DUP4 ADD MSTORE PUSH2 0x20E0 DUP2 PUSH2 0x1D95 JUMP JUMPDEST SWAP1 POP SWAP2 SWAP1 POP JUMP JUMPDEST PUSH1 0x0 PUSH1 0x20 DUP3 ADD SWAP1 POP DUP2 DUP2 SUB PUSH1 0x0 DUP4 ADD MSTORE PUSH2 0x2100 DUP2 PUSH2 0x1DB8 JUMP JUMPDEST SWAP1 POP SWAP2 SWAP1 POP JUMP JUMPDEST PUSH1 0x0 PUSH1 0x20 DUP3 ADD SWAP1 POP PUSH2 0x211C PUSH1 0x0 DUP4 ADD DUP5 PUSH2 0x1DDB JUMP JUMPDEST SWAP3 SWAP2 POP POP JUMP JUMPDEST PUSH1 0x0 PUSH1 0x20 DUP3 ADD SWAP1 POP PUSH2 0x2137 PUSH1 0x0 DUP4 ADD DUP5 PUSH2 0x1DEA JUMP JUMPDEST SWAP3 SWAP2 POP POP JUMP JUMPDEST PUSH1 0x0 DUP2 MLOAD SWAP1 POP SWAP2 SWAP1 POP JUMP JUMPDEST PUSH1 0x0 DUP3 DUP3 MSTORE PUSH1 0x20 DUP3 ADD SWAP1 POP SWAP3 SWAP2 POP POP JUMP JUMPDEST PUSH1 0x0 PUSH2 0x2164 DUP3 PUSH2 0x224D JUMP JUMPDEST SWAP2 POP PUSH2 0x216F DUP4 PUSH2 0x224D JUMP JUMPDEST SWAP3 POP DUP3 PUSH32 0xFFFFFFFFFFFFFFFFFFFFFFFFFFFFFFFFFFFFFFFFFFFFFFFFFFFFFFFFFFFFFFFF SUB DUP3 GT ISZERO PUSH2 0x21A4 JUMPI PUSH2 0x21A3 PUSH2 0x2311 JUMP JUMPDEST JUMPDEST DUP3 DUP3 ADD SWAP1 POP SWAP3 SWAP2 POP POP JUMP JUMPDEST PUSH1 0x0 PUSH2 0x21BA DUP3 PUSH2 0x224D JUMP JUMPDEST SWAP2 POP PUSH2 0x21C5 DUP4 PUSH2 0x224D JUMP JUMPDEST SWAP3 POP DUP3 DUP3 LT ISZERO PUSH2 0x21D8 JUMPI PUSH2 0x21D7 PUSH2 0x2311 JUMP JUMPDEST JUMPDEST DUP3 DUP3 SUB SWAP1 POP SWAP3 SWAP2 POP POP JUMP JUMPDEST PUSH1 0x0 PUSH2 0x21EE DUP3 PUSH2 0x222D JUMP JUMPDEST SWAP1 POP SWAP2 SWAP1 POP JUMP JUMPDEST PUSH1 0x0 DUP2 ISZERO ISZERO SWAP1 POP SWAP2 SWAP1 POP JUMP JUMPDEST PUSH1 0x0 PUSH32 0xFFFFFFFF00000000000000000000000000000000000000000000000000000000 DUP3 AND SWAP1 POP SWAP2 SWAP1 POP JUMP JUMPDEST PUSH1 0x0 PUSH20 0xFFFFFFFFFFFFFFFFFFFFFFFFFFFFFFFFFFFFFFFF DUP3 AND SWAP1 POP SWAP2 SWAP1 POP JUMP JUMPDEST PUSH1 0x0 DUP2 SWAP1 POP SWAP2 SWAP1 POP JUMP JUMPDEST PUSH1 0x0 PUSH1 0xFF DUP3 AND SWAP1 POP SWAP2 SWAP1 POP JUMP JUMPDEST PUSH1 0x0 PUSH2 0x226F DUP3 PUSH2 0x2288 JUMP JUMPDEST SWAP1 POP SWAP2 SWAP1 POP JUMP JUMPDEST PUSH1 0x0 PUSH2 0x2281 DUP3 PUSH2 0x2288 JUMP JUMPDEST SWAP1 POP SWAP2 SWAP1 POP JUMP JUMPDEST PUSH1 0x0 PUSH2 0x2293 DUP3 PUSH2 0x229A JUMP JUMPDEST SWAP1 POP SWAP2 SWAP1 POP JUMP JUMPDEST PUSH1 0x0 PUSH2 0x22A5 DUP3 PUSH2 0x222D JUMP JUMPDEST SWAP1 POP SWAP2 SWAP1 POP JUMP JUMPDEST PUSH1 0x0 JUMPDEST DUP4 DUP2 LT ISZERO PUSH2 0x22CA JUMPI DUP1 DUP3 ADD MLOAD DUP2 DUP5 ADD MSTORE PUSH1 0x20 DUP2 ADD SWAP1 POP PUSH2 0x22AF JUMP JUMPDEST DUP4 DUP2 GT ISZERO PUSH2 0x22D9 JUMPI PUSH1 0x0 DUP5 DUP5 ADD MSTORE JUMPDEST POP POP POP POP JUMP JUMPDEST PUSH1 0x0 PUSH1 0x2 DUP3 DIV SWAP1 POP PUSH1 0x1 DUP3 AND DUP1 PUSH2 0x22F7 JUMPI PUSH1 0x7F DUP3 AND SWAP2 POP JUMPDEST PUSH1 0x20 DUP3 LT DUP2 EQ ISZERO PUSH2 0x230B JUMPI PUSH2 0x230A PUSH2 0x2340 JUMP JUMPDEST JUMPDEST POP SWAP2 SWAP1 POP JUMP JUMPDEST PUSH32 0x4E487B7100000000000000000000000000000000000000000000000000000000 PUSH1 0x0 MSTORE PUSH1 0x11 PUSH1 0x4 MSTORE PUSH1 0x24 PUSH1 0x0 REVERT JUMPDEST PUSH32 0x4E487B7100000000000000000000000000000000000000000000000000000000 PUSH1 0x0 MSTORE PUSH1 0x22 PUSH1 0x4 MSTORE PUSH1 0x24 PUSH1 0x0 REVERT JUMPDEST PUSH1 0x0 DUP1 REVERT JUMPDEST PUSH1 0x0 DUP1 REVERT JUMPDEST PUSH1 0x0 DUP1 REVERT JUMPDEST PUSH1 0x0 DUP1 REVERT JUMPDEST PUSH1 0x0 DUP1 REVERT JUMPDEST PUSH1 0x0 PUSH1 0x1F NOT PUSH1 0x1F DUP4 ADD AND SWAP1 POP SWAP2 SWAP1 POP JUMP JUMPDEST PUSH32 0x45524332303A207472616E7366657220746F20746865207A65726F2061646472 PUSH1 0x0 DUP3 ADD MSTORE PUSH32 0x6573730000000000000000000000000000000000000000000000000000000000 PUSH1 0x20 DUP3 ADD MSTORE POP JUMP JUMPDEST PUSH32 0x45524332303A206275726E20616D6F756E7420657863656564732062616C616E PUSH1 0x0 DUP3 ADD MSTORE PUSH32 0x6365000000000000000000000000000000000000000000000000000000000000 PUSH1 0x20 DUP3 ADD MSTORE POP JUMP JUMPDEST PUSH32 0x45524332303A20617070726F766520746F20746865207A65726F206164647265 PUSH1 0x0 DUP3 ADD MSTORE PUSH32 0x7373000000000000000000000000000000000000000000000000000000000000 PUSH1 0x20 DUP3 ADD MSTORE POP JUMP JUMPDEST PUSH32 0x446F204E6F7420486176652052465420546F74616C20537570706C7900000000 PUSH1 0x0 DUP3 ADD MSTORE POP JUMP JUMPDEST PUSH32 0x45524332303A20696E73756666696369656E7420616C6C6F77616E6365000000 PUSH1 0x0 DUP3 ADD MSTORE POP JUMP JUMPDEST PUSH32 0x45524332303A207472616E7366657220616D6F756E7420657863656564732062 PUSH1 0x0 DUP3 ADD MSTORE PUSH32 0x616C616E63650000000000000000000000000000000000000000000000000000 PUSH1 0x20 DUP3 ADD MSTORE POP JUMP JUMPDEST PUSH32 0x436F6E7472616374204973204B696C6C65640000000000000000000000000000 PUSH1 0x0 DUP3 ADD MSTORE POP JUMP JUMPDEST PUSH32 0x4E6F7420656E6F75676820736861726573206C65667421000000000000000000 PUSH1 0x0 DUP3 ADD MSTORE POP JUMP JUMPDEST PUSH32 0x436F6E7472616374204973205061757365640000000000000000000000000000 PUSH1 0x0 DUP3 ADD MSTORE POP JUMP JUMPDEST PUSH32 0x54617267657420416C7265616479205261697365640000000000000000000000 PUSH1 0x0 DUP3 ADD MSTORE POP JUMP JUMPDEST PUSH32 0x4F6E6C792041646D696E2043616E2050617573652F556E706175736500000000 PUSH1 0x0 DUP3 ADD MSTORE POP JUMP JUMPDEST PUSH32 0x4E6F7420477265617420456E6F7567682042616C616E63652100000000000000 PUSH1 0x0 DUP3 ADD MSTORE POP JUMP JUMPDEST PUSH32 0x45524332303A206275726E2066726F6D20746865207A65726F20616464726573 PUSH1 0x0 DUP3 ADD MSTORE PUSH32 0x7300000000000000000000000000000000000000000000000000000000000000 PUSH1 0x20 DUP3 ADD MSTORE POP JUMP JUMPDEST PUSH32 0x45524332303A207472616E736665722066726F6D20746865207A65726F206164 PUSH1 0x0 DUP3 ADD MSTORE PUSH32 0x6472657373000000000000000000000000000000000000000000000000000000 PUSH1 0x20 DUP3 ADD MSTORE POP JUMP JUMPDEST PUSH32 0x45524332303A20617070726F76652066726F6D20746865207A65726F20616464 PUSH1 0x0 DUP3 ADD MSTORE PUSH32 0x7265737300000000000000000000000000000000000000000000000000000000 PUSH1 0x20 DUP3 ADD MSTORE POP JUMP JUMPDEST PUSH32 0x45524332303A2064656372656173656420616C6C6F77616E63652062656C6F77 PUSH1 0x0 DUP3 ADD MSTORE PUSH32 0x207A65726F000000000000000000000000000000000000000000000000000000 PUSH1 0x20 DUP3 ADD MSTORE POP JUMP JUMPDEST PUSH32 0x45524332303A206D696E7420746F20746865207A65726F206164647265737300 PUSH1 0x0 DUP3 ADD MSTORE POP JUMP JUMPDEST PUSH2 0x278B DUP2 PUSH2 0x21E3 JUMP JUMPDEST DUP2 EQ PUSH2 0x2796 JUMPI PUSH1 0x0 DUP1 REVERT JUMPDEST POP JUMP JUMPDEST PUSH2 0x27A2 DUP2 PUSH2 0x21F5 JUMP JUMPDEST DUP2 EQ PUSH2 0x27AD JUMPI PUSH1 0x0 DUP1 REVERT JUMPDEST POP JUMP JUMPDEST PUSH2 0x27B9 DUP2 PUSH2 0x224D JUMP JUMPDEST DUP2 EQ PUSH2 0x27C4 JUMPI PUSH1 0x0 DUP1 REVERT JUMPDEST POP JUMP JUMPDEST PUSH2 0x27D0 DUP2 PUSH2 0x2257 JUMP JUMPDEST DUP2 EQ PUSH2 0x27DB JUMPI PUSH1 0x0 DUP1 REVERT JUMPDEST POP JUMP INVALID LOG2 PUSH5 0x6970667358 0x22 SLT KECCAK256 DUP11 PUSH5 0xF7EB4947FD PUSH17 0x56FD47E2C52744438D06FBF59841DF2DFF 0xC6 SIGNEXTEND EXTCODESIZE SLT 0x49 0x4C 0xFC PUSH5 0x736F6C6343 STOP ADDMOD SMOD STOP CALLER "
				},
				"gasEstimates": {
					"creation": {
						"codeDepositCost": "2052000",
						"executionCost": "infinite",
						"totalCost": "infinite"
					},
					"external": {
						"allowance(address,address)": "infinite",
						"amountRaised()": "2540",
						"amountUntilReachTarget()": "infinite",
						"approve(address,uint256)": "infinite",
						"balanceOf(address)": "2908",
						"coin()": "2690",
						"dataAccessThreshold()": "2475",
						"decimals()": "infinite",
						"decreaseAllowance(address,uint256)": "infinite",
						"increaseAllowance(address,uint256)": "infinite",
						"invest(uint256)": "infinite",
						"kill()": "26704",
						"killed()": "2544",
						"name()": "infinite",
						"onERC721Received(address,address,uint256,bytes)": "infinite",
						"pause()": "28840",
						"paused()": "2516",
						"projectMarketplace()": "infinite",
						"redeemNFT()": "infinite",
						"symbol()": "infinite",
						"targetAmount()": "2496",
						"totalSupply()": "2571",
						"transfer(address,uint256)": "infinite",
						"transferFrom(address,address,uint256)": "infinite",
						"withdrawInvestment(uint256)": "infinite"
					}
				},
				"methodIdentifiers": {
					"allowance(address,address)": "dd62ed3e",
					"amountRaised()": "7b3e5e7b",
					"amountUntilReachTarget()": "bdf89682",
					"approve(address,uint256)": "095ea7b3",
					"balanceOf(address)": "70a08231",
					"coin()": "11df9995",
					"dataAccessThreshold()": "06febe00",
					"decimals()": "313ce567",
					"decreaseAllowance(address,uint256)": "a457c2d7",
					"increaseAllowance(address,uint256)": "39509351",
					"invest(uint256)": "2afcf480",
					"kill()": "41c0e1b5",
					"killed()": "1f3a0e41",
					"name()": "06fdde03",
					"onERC721Received(address,address,uint256,bytes)": "150b7a02",
					"pause()": "8456cb59",
					"paused()": "5c975abb",
					"projectMarketplace()": "7e0d73d4",
					"redeemNFT()": "77262d38",
					"symbol()": "95d89b41",
					"targetAmount()": "953b8fb8",
					"totalSupply()": "18160ddd",
					"transfer(address,uint256)": "a9059cbb",
					"transferFrom(address,address,uint256)": "23b872dd",
					"withdrawInvestment(uint256)": "2037fcbf"
				}
			},
			"storageLayout": {
				"storage": [
					{
						"astId": 15,
						"contract": "contracts/Fundraising.sol:Fundraising",
						"label": "_balances",
						"offset": 0,
						"slot": "0",
						"type": "t_mapping(t_address,t_uint256)"
					},
					{
						"astId": 21,
						"contract": "contracts/Fundraising.sol:Fundraising",
						"label": "_allowances",
						"offset": 0,
						"slot": "1",
						"type": "t_mapping(t_address,t_mapping(t_address,t_uint256))"
					},
					{
						"astId": 23,
						"contract": "contracts/Fundraising.sol:Fundraising",
						"label": "_totalSupply",
						"offset": 0,
						"slot": "2",
						"type": "t_uint256"
					},
					{
						"astId": 25,
						"contract": "contracts/Fundraising.sol:Fundraising",
						"label": "_name",
						"offset": 0,
						"slot": "3",
						"type": "t_string_storage"
					},
					{
						"astId": 27,
						"contract": "contracts/Fundraising.sol:Fundraising",
						"label": "_symbol",
						"offset": 0,
						"slot": "4",
						"type": "t_string_storage"
					},
					{
						"astId": 875,
						"contract": "contracts/Fundraising.sol:Fundraising",
						"label": "coin",
						"offset": 0,
						"slot": "5",
						"type": "t_contract(IERC20Extented)870"
					},
					{
						"astId": 880,
						"contract": "contracts/Fundraising.sol:Fundraising",
						"label": "targetAmount",
						"offset": 0,
						"slot": "6",
						"type": "t_uint256"
					},
					{
						"astId": 882,
						"contract": "contracts/Fundraising.sol:Fundraising",
						"label": "amountRaised",
						"offset": 0,
						"slot": "7",
						"type": "t_uint256"
					},
					{
						"astId": 884,
						"contract": "contracts/Fundraising.sol:Fundraising",
						"label": "dataAccessThreshold",
						"offset": 0,
						"slot": "8",
						"type": "t_uint256"
					},
					{
						"astId": 887,
						"contract": "contracts/Fundraising.sol:Fundraising",
						"label": "paused",
						"offset": 0,
						"slot": "9",
						"type": "t_bool"
					},
					{
						"astId": 890,
						"contract": "contracts/Fundraising.sol:Fundraising",
						"label": "killed",
						"offset": 1,
						"slot": "9",
						"type": "t_bool"
					},
					{
						"astId": 892,
						"contract": "contracts/Fundraising.sol:Fundraising",
						"label": "admin",
						"offset": 2,
						"slot": "9",
						"type": "t_address"
					}
				],
				"types": {
					"t_address": {
						"encoding": "inplace",
						"label": "address",
						"numberOfBytes": "20"
					},
					"t_bool": {
						"encoding": "inplace",
						"label": "bool",
						"numberOfBytes": "1"
					},
					"t_contract(IERC20Extented)870": {
						"encoding": "inplace",
						"label": "contract IERC20Extented",
						"numberOfBytes": "20"
					},
					"t_mapping(t_address,t_mapping(t_address,t_uint256))": {
						"encoding": "mapping",
						"key": "t_address",
						"label": "mapping(address => mapping(address => uint256))",
						"numberOfBytes": "32",
						"value": "t_mapping(t_address,t_uint256)"
					},
					"t_mapping(t_address,t_uint256)": {
						"encoding": "mapping",
						"key": "t_address",
						"label": "mapping(address => uint256)",
						"numberOfBytes": "32",
						"value": "t_uint256"
					},
					"t_string_storage": {
						"encoding": "bytes",
						"label": "string",
						"numberOfBytes": "32"
					},
					"t_uint256": {
						"encoding": "inplace",
						"label": "uint256",
						"numberOfBytes": "32"
					}
				}
			},
			"userdoc": {
				"kind": "user",
				"methods": {},
				"version": 1
			}
		}
	}
}